{
  "address": "0x658696EBD83De2415bE7491FA813B28c0f00ABEe",
  "abi": [
    {
      "anonymous": false,
      "inputs": [
        {
          "indexed": false,
          "internalType": "address",
          "name": "account",
          "type": "address"
        }
      ],
      "name": "Paused",
      "type": "event"
    },
    {
      "anonymous": false,
      "inputs": [
        {
          "indexed": true,
          "internalType": "bytes32",
          "name": "role",
          "type": "bytes32"
        },
        {
          "indexed": true,
          "internalType": "bytes32",
          "name": "previousAdminRole",
          "type": "bytes32"
        },
        {
          "indexed": true,
          "internalType": "bytes32",
          "name": "newAdminRole",
          "type": "bytes32"
        }
      ],
      "name": "RoleAdminChanged",
      "type": "event"
    },
    {
      "anonymous": false,
      "inputs": [
        {
          "indexed": true,
          "internalType": "bytes32",
          "name": "role",
          "type": "bytes32"
        },
        {
          "indexed": true,
          "internalType": "address",
          "name": "account",
          "type": "address"
        },
        {
          "indexed": true,
          "internalType": "address",
          "name": "sender",
          "type": "address"
        }
      ],
      "name": "RoleGranted",
      "type": "event"
    },
    {
      "anonymous": false,
      "inputs": [
        {
          "indexed": true,
          "internalType": "bytes32",
          "name": "role",
          "type": "bytes32"
        },
        {
          "indexed": true,
          "internalType": "address",
          "name": "account",
          "type": "address"
        },
        {
          "indexed": true,
          "internalType": "address",
          "name": "sender",
          "type": "address"
        }
      ],
      "name": "RoleRevoked",
      "type": "event"
    },
    {
      "anonymous": false,
      "inputs": [
        {
          "indexed": true,
          "internalType": "uint256",
          "name": "eventId",
          "type": "uint256"
        },
        {
          "components": [
            {
              "internalType": "address",
              "name": "tokenAddress",
              "type": "address"
            },
            {
              "internalType": "address",
              "name": "toAddress",
              "type": "address"
            },
            {
              "internalType": "uint256",
              "name": "amount",
              "type": "uint256"
            }
          ],
          "indexed": false,
          "internalType": "struct CommonStructs.Transfer[]",
          "name": "queue",
          "type": "tuple[]"
        }
      ],
      "name": "Transfer",
      "type": "event"
    },
    {
      "anonymous": false,
      "inputs": [
        {
          "indexed": true,
          "internalType": "uint256",
          "name": "eventId",
          "type": "uint256"
        }
      ],
      "name": "TransferFinish",
      "type": "event"
    },
    {
      "anonymous": false,
      "inputs": [
        {
          "indexed": true,
          "internalType": "uint256",
          "name": "eventId",
          "type": "uint256"
        }
      ],
      "name": "TransferSubmit",
      "type": "event"
    },
    {
      "anonymous": false,
      "inputs": [
        {
          "indexed": false,
          "internalType": "address",
          "name": "account",
          "type": "address"
        }
      ],
      "name": "Unpaused",
      "type": "event"
    },
    {
      "anonymous": false,
      "inputs": [
        {
          "indexed": true,
          "internalType": "address",
          "name": "from",
          "type": "address"
        },
        {
          "indexed": false,
          "internalType": "uint256",
          "name": "eventId",
          "type": "uint256"
        },
        {
          "indexed": false,
          "internalType": "address",
          "name": "tokenFrom",
          "type": "address"
        },
        {
          "indexed": false,
          "internalType": "address",
          "name": "tokenTo",
          "type": "address"
        },
        {
          "indexed": false,
          "internalType": "uint256",
          "name": "amount",
          "type": "uint256"
        },
        {
          "indexed": false,
          "internalType": "uint256",
          "name": "transferFeeAmount",
          "type": "uint256"
        },
        {
          "indexed": false,
          "internalType": "uint256",
          "name": "bridgeFeeAmount",
          "type": "uint256"
        }
      ],
      "name": "Withdraw",
      "type": "event"
    },
    {
      "inputs": [],
      "name": "ADMIN_ROLE",
      "outputs": [
        {
          "internalType": "bytes32",
          "name": "",
          "type": "bytes32"
        }
      ],
      "stateMutability": "view",
      "type": "function"
    },
    {
      "inputs": [],
      "name": "DEFAULT_ADMIN_ROLE",
      "outputs": [
        {
          "internalType": "bytes32",
          "name": "",
          "type": "bytes32"
        }
      ],
      "stateMutability": "view",
      "type": "function"
    },
    {
      "inputs": [],
      "name": "FEE_PROVIDER_ROLE",
      "outputs": [
        {
          "internalType": "bytes32",
          "name": "",
          "type": "bytes32"
        }
      ],
      "stateMutability": "view",
      "type": "function"
    },
    {
      "inputs": [],
      "name": "RELAY_ROLE",
      "outputs": [
        {
          "internalType": "bytes32",
          "name": "",
          "type": "bytes32"
        }
      ],
      "stateMutability": "view",
      "type": "function"
    },
    {
      "inputs": [],
      "name": "WATCHDOG_ROLE",
      "outputs": [
        {
          "internalType": "bytes32",
          "name": "",
          "type": "bytes32"
        }
      ],
      "stateMutability": "view",
      "type": "function"
    },
    {
      "inputs": [],
      "name": "bridgeFeeRecipient",
      "outputs": [
        {
          "internalType": "address payable",
          "name": "",
          "type": "address"
        }
      ],
      "stateMutability": "view",
      "type": "function"
    },
    {
      "inputs": [
        {
          "internalType": "address payable",
          "name": "feeRecipient_",
          "type": "address"
        }
      ],
      "name": "changeBridgeFeeRecipient",
      "outputs": [],
      "stateMutability": "nonpayable",
      "type": "function"
    },
    {
      "inputs": [
        {
          "internalType": "uint256",
          "name": "lockTime_",
          "type": "uint256"
        }
      ],
      "name": "changeLockTime",
      "outputs": [],
      "stateMutability": "nonpayable",
      "type": "function"
    },
    {
      "inputs": [
        {
          "internalType": "uint256",
          "name": "minSafetyBlocks_",
          "type": "uint256"
        }
      ],
      "name": "changeMinSafetyBlocks",
      "outputs": [],
      "stateMutability": "nonpayable",
      "type": "function"
    },
    {
      "inputs": [
        {
          "internalType": "uint256",
          "name": "signatureFeeCheckNumber_",
          "type": "uint256"
        }
      ],
      "name": "changeSignatureFeeCheckNumber",
      "outputs": [],
      "stateMutability": "nonpayable",
      "type": "function"
    },
    {
      "inputs": [
        {
          "internalType": "uint256",
          "name": "timeframeSeconds_",
          "type": "uint256"
        }
      ],
      "name": "changeTimeframeSeconds",
      "outputs": [],
      "stateMutability": "nonpayable",
      "type": "function"
    },
    {
      "inputs": [
        {
          "internalType": "address payable",
          "name": "feeRecipient_",
          "type": "address"
        }
      ],
      "name": "changeTransferFeeRecipient",
      "outputs": [],
      "stateMutability": "nonpayable",
      "type": "function"
    },
    {
      "inputs": [],
      "name": "currentEpoch",
      "outputs": [
        {
          "internalType": "uint256",
          "name": "",
          "type": "uint256"
        }
      ],
      "stateMutability": "view",
      "type": "function"
    },
    {
      "inputs": [
        {
          "internalType": "uint256",
          "name": "eventId",
          "type": "uint256"
        }
      ],
      "name": "getLockedTransfers",
      "outputs": [
        {
          "components": [
            {
              "components": [
                {
                  "internalType": "address",
                  "name": "tokenAddress",
                  "type": "address"
                },
                {
                  "internalType": "address",
                  "name": "toAddress",
                  "type": "address"
                },
                {
                  "internalType": "uint256",
                  "name": "amount",
                  "type": "uint256"
                }
              ],
              "internalType": "struct CommonStructs.Transfer[]",
              "name": "transfers",
              "type": "tuple[]"
            },
            {
              "internalType": "uint256",
              "name": "endTimestamp",
              "type": "uint256"
            }
          ],
          "internalType": "struct CommonStructs.LockedTransfers",
          "name": "",
          "type": "tuple"
        }
      ],
      "stateMutability": "view",
      "type": "function"
    },
    {
      "inputs": [
        {
          "internalType": "bytes32",
          "name": "role",
          "type": "bytes32"
        }
      ],
      "name": "getRoleAdmin",
      "outputs": [
        {
          "internalType": "bytes32",
          "name": "",
          "type": "bytes32"
        }
      ],
      "stateMutability": "view",
      "type": "function"
    },
    {
      "inputs": [
        {
          "internalType": "bytes32",
          "name": "role",
          "type": "bytes32"
        },
        {
          "internalType": "address",
          "name": "account",
          "type": "address"
        }
      ],
      "name": "grantRole",
      "outputs": [],
      "stateMutability": "nonpayable",
      "type": "function"
    },
    {
      "inputs": [
        {
          "internalType": "bytes32",
          "name": "role",
          "type": "bytes32"
        },
        {
          "internalType": "address",
          "name": "account",
          "type": "address"
        }
      ],
      "name": "hasRole",
      "outputs": [
        {
          "internalType": "bool",
          "name": "",
          "type": "bool"
        }
      ],
      "stateMutability": "view",
      "type": "function"
    },
    {
      "inputs": [
        {
          "components": [
            {
              "internalType": "address",
              "name": "sideBridgeAddress",
              "type": "address"
            },
            {
              "internalType": "address",
              "name": "adminAddress",
              "type": "address"
            },
            {
              "internalType": "address",
              "name": "relayAddress",
              "type": "address"
            },
            {
              "internalType": "address",
              "name": "feeProviderAddress",
              "type": "address"
            },
            {
              "internalType": "address[]",
              "name": "watchdogsAddresses",
              "type": "address[]"
            },
            {
              "internalType": "address",
              "name": "wrappingTokenAddress",
              "type": "address"
            },
            {
              "internalType": "address[]",
              "name": "tokenThisAddresses",
              "type": "address[]"
            },
            {
              "internalType": "address[]",
              "name": "tokenSideAddresses",
              "type": "address[]"
            },
            {
              "internalType": "address payable",
              "name": "transferFeeRecipient",
              "type": "address"
            },
            {
              "internalType": "address payable",
              "name": "bridgeFeeRecipient",
              "type": "address"
            },
            {
              "internalType": "uint256",
              "name": "timeframeSeconds",
              "type": "uint256"
            },
            {
              "internalType": "uint256",
              "name": "lockTime",
              "type": "uint256"
            },
            {
              "internalType": "uint256",
              "name": "minSafetyBlocks",
              "type": "uint256"
            }
          ],
          "internalType": "struct CommonStructs.ConstructorArgs",
          "name": "args",
          "type": "tuple"
        },
        {
          "internalType": "address[]",
          "name": "initialValidators",
          "type": "address[]"
        },
        {
          "internalType": "uint256",
          "name": "initialEpoch",
          "type": "uint256"
        },
        {
          "internalType": "bytes1",
          "name": "chainId",
          "type": "bytes1"
        }
      ],
      "name": "initialize",
      "outputs": [],
      "stateMutability": "nonpayable",
      "type": "function"
    },
    {
      "inputs": [],
      "name": "inputEventId",
      "outputs": [
        {
          "internalType": "uint256",
          "name": "",
          "type": "uint256"
        }
      ],
      "stateMutability": "view",
      "type": "function"
    },
    {
      "inputs": [],
      "name": "isQueueEmpty",
      "outputs": [
        {
          "internalType": "bool",
          "name": "",
          "type": "bool"
        }
      ],
      "stateMutability": "view",
      "type": "function"
    },
    {
      "inputs": [],
      "name": "lastTimeframe",
      "outputs": [
        {
          "internalType": "uint256",
          "name": "",
          "type": "uint256"
        }
      ],
      "stateMutability": "view",
      "type": "function"
    },
    {
      "inputs": [],
      "name": "lockTime",
      "outputs": [
        {
          "internalType": "uint256",
          "name": "",
          "type": "uint256"
        }
      ],
      "stateMutability": "view",
      "type": "function"
    },
    {
      "inputs": [
        {
          "internalType": "uint256",
          "name": "",
          "type": "uint256"
        }
      ],
      "name": "lockedTransfers",
      "outputs": [
        {
          "internalType": "uint256",
          "name": "endTimestamp",
          "type": "uint256"
        }
      ],
      "stateMutability": "view",
      "type": "function"
    },
    {
      "inputs": [],
      "name": "minSafetyBlocks",
      "outputs": [
        {
          "internalType": "uint256",
          "name": "",
          "type": "uint256"
        }
      ],
      "stateMutability": "view",
      "type": "function"
    },
    {
      "inputs": [],
      "name": "oldestLockedEventId",
      "outputs": [
        {
          "internalType": "uint256",
          "name": "",
          "type": "uint256"
        }
      ],
      "stateMutability": "view",
      "type": "function"
    },
    {
      "inputs": [],
      "name": "outputEventId",
      "outputs": [
        {
          "internalType": "uint256",
          "name": "",
          "type": "uint256"
        }
      ],
      "stateMutability": "view",
      "type": "function"
    },
    {
      "inputs": [],
      "name": "pause",
      "outputs": [],
      "stateMutability": "nonpayable",
      "type": "function"
    },
    {
      "inputs": [],
      "name": "paused",
      "outputs": [
        {
          "internalType": "bool",
          "name": "",
          "type": "bool"
        }
      ],
      "stateMutability": "view",
      "type": "function"
    },
    {
      "inputs": [
        {
          "internalType": "uint256",
          "name": "eventId",
          "type": "uint256"
        }
      ],
      "name": "removeLockedTransfers",
      "outputs": [],
      "stateMutability": "nonpayable",
      "type": "function"
    },
    {
      "inputs": [
        {
          "internalType": "bytes32",
          "name": "role",
          "type": "bytes32"
        },
        {
          "internalType": "address",
          "name": "account",
          "type": "address"
        }
      ],
      "name": "renounceRole",
      "outputs": [],
      "stateMutability": "nonpayable",
      "type": "function"
    },
    {
      "inputs": [
        {
          "internalType": "bytes32",
          "name": "role",
          "type": "bytes32"
        },
        {
          "internalType": "address",
          "name": "account",
          "type": "address"
        }
      ],
      "name": "revokeRole",
      "outputs": [],
      "stateMutability": "nonpayable",
      "type": "function"
    },
    {
      "inputs": [
        {
          "internalType": "address",
          "name": "_fee_provider",
          "type": "address"
        },
        {
          "internalType": "address[]",
          "name": "_watchdogs",
          "type": "address[]"
        }
      ],
      "name": "setFeeProviderAndWatchdogs",
      "outputs": [],
      "stateMutability": "nonpayable",
      "type": "function"
    },
    {
      "inputs": [
        {
          "internalType": "address",
          "name": "_sideBridgeAddress",
          "type": "address"
        }
      ],
      "name": "setSideBridge",
      "outputs": [],
      "stateMutability": "nonpayable",
      "type": "function"
    },
    {
      "inputs": [],
      "name": "sideBridgeAddress",
      "outputs": [
        {
          "internalType": "address",
          "name": "",
          "type": "address"
        }
      ],
      "stateMutability": "view",
      "type": "function"
    },
    {
      "inputs": [
        {
          "internalType": "uint256",
          "name": "eventId",
          "type": "uint256"
        }
      ],
      "name": "skipTransfers",
      "outputs": [],
      "stateMutability": "nonpayable",
      "type": "function"
    },
    {
      "inputs": [
        {
          "components": [
            {
              "components": [
                {
                  "internalType": "bytes3",
                  "name": "p0Signed",
                  "type": "bytes3"
                },
                {
                  "internalType": "bytes3",
                  "name": "p0Unsigned",
                  "type": "bytes3"
                },
                {
                  "internalType": "bytes32",
                  "name": "parentHash",
                  "type": "bytes32"
                },
                {
                  "internalType": "bytes",
                  "name": "p1",
                  "type": "bytes"
                },
                {
                  "internalType": "bytes32",
                  "name": "receiptHash",
                  "type": "bytes32"
                },
                {
                  "internalType": "bytes",
                  "name": "p2",
                  "type": "bytes"
                },
                {
                  "internalType": "bytes",
                  "name": "number",
                  "type": "bytes"
                },
                {
                  "internalType": "bytes",
                  "name": "p3",
                  "type": "bytes"
                },
                {
                  "internalType": "bytes",
                  "name": "p4Signed",
                  "type": "bytes"
                },
                {
                  "internalType": "bytes",
                  "name": "p4Unsigned",
                  "type": "bytes"
                },
                {
                  "internalType": "bytes",
                  "name": "extraData",
                  "type": "bytes"
                },
                {
                  "internalType": "bytes",
                  "name": "p5",
                  "type": "bytes"
                }
              ],
              "internalType": "struct CheckPoSA.BlockPoSA[]",
              "name": "blocks",
              "type": "tuple[]"
            },
            {
              "components": [
                {
                  "internalType": "bytes[]",
                  "name": "receiptProof",
                  "type": "bytes[]"
                },
                {
                  "internalType": "uint256",
                  "name": "eventId",
                  "type": "uint256"
                },
                {
                  "components": [
                    {
                      "internalType": "address",
                      "name": "tokenAddress",
                      "type": "address"
                    },
                    {
                      "internalType": "address",
                      "name": "toAddress",
                      "type": "address"
                    },
                    {
                      "internalType": "uint256",
                      "name": "amount",
                      "type": "uint256"
                    }
                  ],
                  "internalType": "struct CommonStructs.Transfer[]",
                  "name": "transfers",
                  "type": "tuple[]"
                }
              ],
              "internalType": "struct CommonStructs.TransferProof",
              "name": "transfer",
              "type": "tuple"
            },
            {
              "internalType": "uint64",
              "name": "transferEventBlock",
              "type": "uint64"
            }
          ],
          "internalType": "struct CheckPoSA.PoSAProof",
          "name": "posaProof",
          "type": "tuple"
        }
      ],
      "name": "submitTransferPoSA",
      "outputs": [],
      "stateMutability": "nonpayable",
      "type": "function"
    },
    {
      "inputs": [
        {
          "components": [
            {
              "components": [
                {
                  "internalType": "bytes3",
                  "name": "p0Signed",
                  "type": "bytes3"
                },
                {
                  "internalType": "bytes3",
                  "name": "p0Unsigned",
                  "type": "bytes3"
                },
                {
                  "internalType": "bytes32",
                  "name": "parentHash",
                  "type": "bytes32"
                },
                {
                  "internalType": "bytes",
                  "name": "p1",
                  "type": "bytes"
                },
                {
                  "internalType": "bytes32",
                  "name": "receiptHash",
                  "type": "bytes32"
                },
                {
                  "internalType": "bytes",
                  "name": "p2",
                  "type": "bytes"
                },
                {
                  "internalType": "bytes",
                  "name": "number",
                  "type": "bytes"
                },
                {
                  "internalType": "bytes",
                  "name": "p3",
                  "type": "bytes"
                },
                {
                  "internalType": "bytes",
                  "name": "p4Signed",
                  "type": "bytes"
                },
                {
                  "internalType": "bytes",
                  "name": "p4Unsigned",
                  "type": "bytes"
                },
                {
                  "internalType": "bytes",
                  "name": "extraData",
                  "type": "bytes"
                },
                {
                  "internalType": "bytes",
                  "name": "p5",
                  "type": "bytes"
                }
              ],
              "internalType": "struct CheckPoSA.BlockPoSA[]",
              "name": "blocks",
              "type": "tuple[]"
            },
            {
              "components": [
                {
                  "internalType": "bytes[]",
                  "name": "receiptProof",
                  "type": "bytes[]"
                },
                {
                  "internalType": "uint256",
                  "name": "eventId",
                  "type": "uint256"
                },
                {
                  "components": [
                    {
                      "internalType": "address",
                      "name": "tokenAddress",
                      "type": "address"
                    },
                    {
                      "internalType": "address",
                      "name": "toAddress",
                      "type": "address"
                    },
                    {
                      "internalType": "uint256",
                      "name": "amount",
                      "type": "uint256"
                    }
                  ],
                  "internalType": "struct CommonStructs.Transfer[]",
                  "name": "transfers",
                  "type": "tuple[]"
                }
              ],
              "internalType": "struct CommonStructs.TransferProof",
              "name": "transfer",
              "type": "tuple"
            },
            {
              "internalType": "uint64",
              "name": "transferEventBlock",
              "type": "uint64"
            }
          ],
          "internalType": "struct CheckPoSA.PoSAProof",
          "name": "posaProof",
          "type": "tuple"
        }
      ],
      "name": "submitValidatorSetChangesPoSA",
      "outputs": [],
      "stateMutability": "nonpayable",
      "type": "function"
    },
    {
      "inputs": [
        {
          "internalType": "bytes4",
          "name": "interfaceId",
          "type": "bytes4"
        }
      ],
      "name": "supportsInterface",
      "outputs": [
        {
          "internalType": "bool",
          "name": "",
          "type": "bool"
        }
      ],
      "stateMutability": "view",
      "type": "function"
    },
    {
      "inputs": [],
      "name": "timeframeSeconds",
      "outputs": [
        {
          "internalType": "uint256",
          "name": "",
          "type": "uint256"
        }
      ],
      "stateMutability": "view",
      "type": "function"
    },
    {
      "inputs": [
        {
          "internalType": "address",
          "name": "",
          "type": "address"
        }
      ],
      "name": "tokenAddresses",
      "outputs": [
        {
          "internalType": "address",
          "name": "",
          "type": "address"
        }
      ],
      "stateMutability": "view",
      "type": "function"
    },
    {
      "inputs": [
        {
          "internalType": "address",
          "name": "tokenThisAddress",
          "type": "address"
        },
        {
          "internalType": "address",
          "name": "tokenSideAddress",
          "type": "address"
        }
      ],
      "name": "tokensAdd",
      "outputs": [],
      "stateMutability": "nonpayable",
      "type": "function"
    },
    {
      "inputs": [
        {
          "internalType": "address[]",
          "name": "tokenThisAddresses",
          "type": "address[]"
        },
        {
          "internalType": "address[]",
          "name": "tokenSideAddresses",
          "type": "address[]"
        }
      ],
      "name": "tokensAddBatch",
      "outputs": [],
      "stateMutability": "nonpayable",
      "type": "function"
    },
    {
      "inputs": [
        {
          "internalType": "address",
          "name": "tokenThisAddress",
          "type": "address"
        }
      ],
      "name": "tokensRemove",
      "outputs": [],
      "stateMutability": "nonpayable",
      "type": "function"
    },
    {
      "inputs": [
        {
          "internalType": "address[]",
          "name": "tokenThisAddresses",
          "type": "address[]"
        }
      ],
      "name": "tokensRemoveBatch",
      "outputs": [],
      "stateMutability": "nonpayable",
      "type": "function"
    },
    {
      "inputs": [],
      "name": "transferFeeRecipient",
      "outputs": [
        {
          "internalType": "address payable",
          "name": "",
          "type": "address"
        }
      ],
      "stateMutability": "view",
      "type": "function"
    },
    {
      "inputs": [],
      "name": "triggerTransfers",
      "outputs": [],
      "stateMutability": "nonpayable",
      "type": "function"
    },
    {
      "inputs": [
        {
          "internalType": "uint256",
          "name": "eventId",
          "type": "uint256"
        }
      ],
      "name": "unlockTransfers",
      "outputs": [],
      "stateMutability": "nonpayable",
      "type": "function"
    },
    {
      "inputs": [],
      "name": "unlockTransfersBatch",
      "outputs": [],
      "stateMutability": "nonpayable",
      "type": "function"
    },
    {
      "inputs": [],
      "name": "unpause",
      "outputs": [],
      "stateMutability": "nonpayable",
      "type": "function"
    },
    {
      "inputs": [
        {
          "internalType": "address",
          "name": "tokenThisAddress",
          "type": "address"
        },
        {
          "internalType": "address",
          "name": "toAddress",
          "type": "address"
        },
        {
          "internalType": "uint256",
          "name": "amount",
          "type": "uint256"
        },
        {
          "internalType": "bool",
          "name": "unwrapSide",
          "type": "bool"
        },
        {
          "internalType": "bytes",
          "name": "feeSignature",
          "type": "bytes"
        },
        {
          "internalType": "uint256",
          "name": "transferFee",
          "type": "uint256"
        },
        {
          "internalType": "uint256",
          "name": "bridgeFee",
          "type": "uint256"
        }
      ],
      "name": "withdraw",
      "outputs": [],
      "stateMutability": "payable",
      "type": "function"
    },
    {
      "inputs": [
        {
          "internalType": "address",
          "name": "toAddress",
          "type": "address"
        },
        {
          "internalType": "bytes",
          "name": "feeSignature",
          "type": "bytes"
        },
        {
          "internalType": "uint256",
          "name": "transferFee",
          "type": "uint256"
        },
        {
          "internalType": "uint256",
          "name": "bridgeFee",
          "type": "uint256"
        }
      ],
      "name": "wrapWithdraw",
      "outputs": [],
      "stateMutability": "payable",
      "type": "function"
    },
    {
      "inputs": [],
      "name": "wrapperAddress",
      "outputs": [
        {
          "internalType": "address",
          "name": "",
          "type": "address"
        }
      ],
      "stateMutability": "view",
      "type": "function"
    },
    {
      "stateMutability": "payable",
      "type": "receive"
    }
  ],
  "transactionHash": "0x30db9dff83f0cb1c0336d4e87566022487dcf9762ad40dd7cae06281ad13c47c",
  "args": [],
  "numDeployments": 3,
  "solcInputHash": "f2c587eeec228323e52d71e9eac53718",
  "bytecode": "0x608060405234801561001057600080fd5b506146c8806100206000396000f3fe6080604052600436106103075760003560e060020a900480638ac1f86f11610194578063baeebe75116100e0578063e31be08711610099578063f862b7eb11610073578063f862b7eb14610919578063f8b7443314610939578063fbc9f58c1461094c578063fd5d2ef31461096c57600080fd5b8063e31be087146108ac578063f33fe10f146108d9578063f7005587146108f957600080fd5b8063baeebe75146107e2578063cf3317d3146107f8578063d3b89f4914610818578063d547741f1461084c578063d83a358f1461086c578063df9b709e1461088c57600080fd5b806399b5bb641161014d578063aa9cea3811610127578063aa9cea3814610756578063b6d3385e14610776578063b87330e9146107ac578063ba8bbbe0146107cc57600080fd5b806399b5bb64146106f7578063a217fddf1461070d578063a9b1cf0b1461072257600080fd5b80638ac1f86f146106595780638e5df9c71461066e57806391c5bc0a1461068e57806391d14854146106a1578063924cf6e0146106c157806396cf5227146106d757600080fd5b80633928b29611610253578063746b5c421161020c5780637df8b802116101e65780637df8b802146105ee5780638456cb591461060e578063853890ae1461062357806386d7679e1461064357600080fd5b8063746b5c42146105a157806375b238fc146105b657806376671808146105d857600080fd5b80633928b296146104e45780633f4ba83a1461050457806342180fb8146105195780634a1856de146105395780635249a705146105695780635c975abb1461058957600080fd5b8063297c2677116102c0578063304561bb1161029a578063304561bb1461044c578063331a891a1461048457806336568abe146104a4578063390d5388146104c457600080fd5b8063297c2677146104005780632bbba847146104165780632f2ff15d1461042c57600080fd5b806301ffc9a714610313578063044218231461034857806309fce356146103785780630d6680871461039a57806321d3d536146103b0578063248a9ca3146103d057600080fd5b3661030e57005b600080fd5b34801561031f57600080fd5b5061033361032e366004613c22565b61098c565b60405190151581526020015b60405180910390f35b34801561035457600080fd5b5061036a60008051602061465383398151915281565b60405190815260200161033f565b34801561038457600080fd5b50610398610393366004613b1b565b610a1f565b005b3480156103a657600080fd5b5061036a60d45481565b3480156103bc57600080fd5b506103986103cb366004613933565b610a4b565b3480156103dc57600080fd5b5061036a6103eb366004613be4565b60009081526065602052604090206001015490565b34801561040c57600080fd5b5061036a60d65481565b34801561042257600080fd5b5060ca5415610333565b34801561043857600080fd5b50610398610447366004613bfd565b610adb565b34801561045857600080fd5b5060cf5461046c90600160a060020a031681565b604051600160a060020a03909116815260200161033f565b34801561049057600080fd5b5061039861049f366004613be4565b610b06565b3480156104b057600080fd5b506103986104bf366004613bfd565b610c1d565b3480156104d057600080fd5b5060d05461046c90600160a060020a031681565b3480156104f057600080fd5b506103986104ff366004613933565b610ca8565b34801561051057600080fd5b50610398610ce4565b34801561052557600080fd5b50610398610534366004613be4565b610d08565b34801561054557600080fd5b5061036a610554366004613be4565b60cb6020526000908152604090206001015481565b34801561057557600080fd5b50610398610584366004613ad9565b610d45565b34801561059557600080fd5b5060975460ff16610333565b3480156105ad57600080fd5b50610398610dce565b3480156105c257600080fd5b5061036a60008051602061467383398151915281565b3480156105e457600080fd5b5061036a60e85481565b3480156105fa57600080fd5b5060ce5461046c90600160a060020a031681565b34801561061a57600080fd5b50610398610e7a565b34801561062f57600080fd5b5061039861063e366004613950565b610ead565b34801561064f57600080fd5b5061036a60d75481565b34801561066557600080fd5b50610398610ef5565b34801561067a57600080fd5b50610398610689366004613933565b61104d565b61039861069c366004613a72565b61108e565b3480156106ad57600080fd5b506103336106bc366004613bfd565b6113be565b3480156106cd57600080fd5b5061036a60d25481565b3480156106e357600080fd5b506103986106f2366004613be4565b6113e9565b34801561070357600080fd5b5061036a60d55481565b34801561071957600080fd5b5061036a600081565b34801561072e57600080fd5b5061036a7fb7f2fcb7a10916921b74b9baa8ea85f89b12ab12f6ededa160998f8b20e65f9581565b34801561076257600080fd5b50610398610771366004613cff565b611408565b34801561078257600080fd5b5061046c610791366004613933565b60cd60205260009081526040902054600160a060020a031681565b3480156107b857600080fd5b506103986107c7366004613933565b6114eb565b3480156107d857600080fd5b5061036a60cc5481565b3480156107ee57600080fd5b5061036a60d35481565b34801561080457600080fd5b50610398610813366004613be4565b611527565b34801561082457600080fd5b5061036a7f516d5e7ed3e60a6b2804c1554cd94bc2eb576e44b192a0e069d4c527589a887e81565b34801561085857600080fd5b50610398610867366004613bfd565b61159e565b34801561087857600080fd5b50610398610887366004613cff565b6115c4565b34801561089857600080fd5b506103986108a7366004613a1d565b61161d565b3480156108b857600080fd5b506108cc6108c7366004613be4565b6116f3565b60405161033f919061425f565b3480156108e557600080fd5b5060d15461046c90600160a060020a031681565b34801561090557600080fd5b50610398610914366004613be4565b6117af565b34801561092557600080fd5b50610398610934366004613be4565b6117ce565b610398610947366004613989565b611a01565b34801561095857600080fd5b50610398610967366004613c61565b611e61565b34801561097857600080fd5b50610398610987366004613be4565b611eea565b60007bffffffffffffffffffffffffffffffffffffffffffffffffffffffff1982167f7965db0b000000000000000000000000000000000000000000000000000000001480610a1957507f01ffc9a7000000000000000000000000000000000000000000000000000000007bffffffffffffffffffffffffffffffffffffffffffffffffffffffff198316145b92915050565b600080516020614673833981519152610a388133611f09565b610a4485858585611f70565b5050505050565b6000610a578133611f09565b60d154600160a060020a031615610ab85760405160e560020a62461bcd02815260206004820152601d60248201527f736964654272696467654164647265737320616c72656164792073657400000060448201526064015b60405180910390fd5b5060d18054600160a060020a031916600160a060020a0392909216919091179055565b600082815260656020526040902060010154610af78133611f09565b610b018383612089565b505050565b600080516020614673833981519152610b1f8133611f09565b60975460ff16610b445760405160e560020a62461bcd028152600401610aaf90614137565b60cc54821015610b695760405160e560020a62461bcd028152600401610aaf90614202565b60d554821115610bbe5760405160e560020a62461bcd02815260206004820152601f60248201527f6576656e744964206d757374206265203c3d20696e7075744576656e744964006044820152606401610aaf565b610bc9600183614462565b60d5555b600082815260cb602052604090206001015415610c1957600082815260cb6020526040812090610bfd828261385a565b5060006001919091015581610c118161453d565b925050610bcd565b5050565b600160a060020a0381163314610c9e5760405160e560020a62461bcd02815260206004820152602f60248201527f416363657373436f6e74726f6c3a2063616e206f6e6c792072656e6f756e636560448201527f20726f6c657320666f722073656c6600000000000000000000000000000000006064820152608401610aaf565b610c19828261210f565b600080516020614673833981519152610cc18133611f09565b5060d08054600160a060020a031916600160a060020a0392909216919091179055565b600080516020614673833981519152610cfd8133611f09565b610d05612176565b50565b600080516020614673833981519152610d218133611f09565b8160d35460d754610d329190614443565b610d3c919061442f565b60d7555060d355565b600080516020614673833981519152610d5e8133611f09565b8160005b81811015610a445760cd6000868684818110610d8057610d8061459e565b9050602002016020810190610d959190613933565b600160a060020a0316815260208101919091526040016000208054600160a060020a031916905580610dc68161453d565b915050610d62565b60ca54610e205760405160e560020a62461bcd02815260206004820152600e60248201527f517565756520697320656d7074790000000000000000000000000000000000006044820152606401610aaf565b60d68054906000610e308361453d565b919050557fe15729a2f427aa4572dab35eb692c902fcbce57d41642013259c741380809ae260ca604051610e649190614094565b60405180910390a2610e7860ca600061385a565b565b7fb7f2fcb7a10916921b74b9baa8ea85f89b12ab12f6ededa160998f8b20e65f95610ea58133611f09565b610d056121e5565b600080516020614673833981519152610ec68133611f09565b50600160a060020a03918216600090815260cd602052604090208054600160a060020a03191691909216179055565b60975460ff1615610f1b5760405160e560020a62461bcd028152600401610aaf9061416e565b60cc545b600081815260cb60209081526040808320815181546060948102820185018452928101838152909391928492849190879085015b82821015610fad57600084815260209081902060408051606081018252600386029092018054600160a060020a03908116845260018083015490911684860152600290910154918301919091529083529092019101610f53565b5050505081526020016001820154815250509050806020015160001480610fd75750428160200151115b15610fe2575060cc55565b8051610fed90612240565b600082815260cb6020526040812090611006828261385a565b50600060019190910181905560405183917f78ff9b3176bb0d6421590f3816e75cb15a9ffa2b7a1a028f40a3f4e029eb39f291a250806110458161453d565b915050610f1f565b6000805160206146738339815191526110668133611f09565b50600160a060020a0316600090815260cd602052604090208054600160a060020a0319169055565b60ce54600160a060020a03908116600090815260cd602052604090205416806110fc5760405160e560020a62461bcd02815260206004820152601560248201527f556e6b6e6f776e20746f6b656e206164647265737300000000000000000000006044820152606401610aaf565b6111068284614417565b34116111575760405160e560020a62461bcd02815260206004820152601160248201527f53656e742076616c7565203c3d206665650000000000000000000000000000006044820152606401610aaf565b6000826111648534614462565b61116e9190614462565b60ce5490915061118b90600160a060020a031687878787866124d4565b60cf54604051600160a060020a039091169085156108fc029086906000818181858888f193505050501580156111c5573d6000803e3d6000fd5b5060d054604051600160a060020a039091169084156108fc029085906000818181858888f19350505050158015611200573d6000803e3d6000fd5b5060ce60009054906101000a9004600160a060020a0316600160a060020a031663d0e30db0826040518263ffffffff1660e060020a0281526004016000604051808303818588803b15801561125457600080fd5b505af1158015611268573d6000803e3d6000fd5b505060408051606081018252600160a060020a0380881682528c81166020830190815282840188815260ca80546001810182556000918252945160039095027f42d72674974f694b5f5159593243114d38a5c39c89d6b62fee061ff523240ee181018054968616600160a060020a031997881617905592517f42d72674974f694b5f5159593243114d38a5c39c89d6b62fee061ff523240ee2840180549190951695169490941790925590517f42d72674974f694b5f5159593243114d38a5c39c89d6b62fee061ff523240ee39091015560d65491513395507f3b823d3b837159352faddd1e0b9e9f584ca2bfe976238f6a9e6da4615cf2f44494506113a59350879087908b908b90958652600160a060020a0394851660208701529290931660408501526060840152608083019190915260a082015260c00190565b60405180910390a26113b561267a565b50505050505050565b6000918252606560209081526040808420600160a060020a0393909316845291905290205460ff1690565b6000805160206146738339815191526114028133611f09565b5060d455565b6000805160206146538339815191526114218133611f09565b60975460ff16156114475760405160e560020a62461bcd028152600401610aaf9061416e565b61145460208301836143d7565b602001357f196c47048e38df7a4fe6e581c8f4f2e2ba67ac0dd45b90da756e97bd61d9dd3b60405160405180910390a261149d61149460208401846143d7565b602001356126f2565b60d25460d1546114b7918491600160a060020a0316612757565b610c196114c760208401846143d7565b6114d5906040810190614326565b6114e260208601866143d7565b60200135612af6565b6000805160206146738339815191526115048133611f09565b5060cf8054600160a060020a031916600160a060020a0392909216919091179055565b6000805160206146738339815191526115408133611f09565b60975460ff166115655760405160e560020a62461bcd028152600401610aaf90614137565b60cc5482101561158a5760405160e560020a62461bcd028152600401610aaf90614202565b611595600183614462565b60d5555060cc55565b6000828152606560205260409020600101546115ba8133611f09565b610b01838361210f565b6000805160206146538339815191526115dd8133611f09565b60975460ff16156116035760405160e560020a62461bcd028152600401610aaf9061416e565b60d25460d154610c19918491600160a060020a0316612757565b6000805160206146738339815191526116368133611f09565b60975460ff161561165c5760405160e560020a62461bcd028152600401610aaf9061416e565b6116867f516d5e7ed3e60a6b2804c1554cd94bc2eb576e44b192a0e069d4c527589a887e85612b8a565b60005b82811015610a44576116e17fb7f2fcb7a10916921b74b9baa8ea85f89b12ab12f6ededa160998f8b20e65f958585848181106116c7576116c761459e565b90506020020160208101906116dc9190613933565b612b8a565b806116eb8161453d565b915050611689565b604080518082019091526060815260006020820152600082815260cb60209081526040808320815181546060948102820185018452928101838152909491938593919285929185015b8282101561179657600084815260209081902060408051606081018252600386029092018054600160a060020a0390811684526001808301549091168486015260029091015491830191909152908352909201910161173c565b5050505081526020016001820154815250509050919050565b6000805160206146738339815191526117c88133611f09565b5060c955565b60975460ff16156117f45760405160e560020a62461bcd028152600401610aaf9061416e565b60cc5481146118485760405160e560020a62461bcd02815260206004820152601c60248201527f63616e20756e6c6f636b206f6e6c79206f6c64657374206576656e74000000006044820152606401610aaf565b600081815260cb60209081526040808320815181546060948102820185018452928101838152909391928492849190879085015b828210156118d657600084815260209081902060408051606081018252600386029092018054600160a060020a0390811684526001808301549091168486015260029091015491830191909152908352909201910161187c565b505050508152602001600182015481525050905060008160200151116119415760405160e560020a62461bcd02815260206004820181905260248201527f6e6f206c6f636b6564207472616e7366657273207769746820746869732069646044820152606401610aaf565b428160200151106119975760405160e560020a62461bcd02815260206004820152601b60248201527f6c6f636b54696d6520686173206e6f74207965742070617373656400000000006044820152606401610aaf565b80516119a290612240565b600082815260cb60205260408120906119bb828261385a565b50600060019190910181905560405183917f78ff9b3176bb0d6421590f3816e75cb15a9ffa2b7a1a028f40a3f4e029eb39f291a26119fa826001614417565b60cc555050565b60008515611a96576000805260cd6020527fcd565b10a72538d86f6d352f37ebc5dff31587960b12c0afe00fd03947a6932a54600160a060020a038a8116911614611a915760405160e560020a62461bcd02815260206004820152601f60248201527f546f6b656e206e6f7420706f696e7420746f206e617469766520746f6b656e006044820152606401610aaf565b611b02565b50600160a060020a03808916600090815260cd60205260409020541680611b025760405160e560020a62461bcd02815260206004820152601560248201527f556e6b6e6f776e20746f6b656e206164647265737300000000000000000000006044820152606401610aaf565b611b0c8284614417565b3414611b5d5760405160e560020a62461bcd02815260206004820152601160248201527f53656e742076616c756520213d206665650000000000000000000000000000006044820152606401610aaf565b60008711611bb05760405160e560020a62461bcd02815260206004820152601160248201527f43616e6e6f7420776974686472617720300000000000000000000000000000006044820152606401610aaf565b611bbe89868686868c6124d4565b60cf54604051600160a060020a039091169084156108fc029085906000818181858888f19350505050158015611bf8573d6000803e3d6000fd5b5060d054604051600160a060020a039091169083156108fc029084906000818181858888f19350505050158015611c33573d6000803e3d6000fd5b506040517f23b872dd00000000000000000000000000000000000000000000000000000000815233600482015230602482015260448101889052600160a060020a038a16906323b872dd90606401602060405180830381600087803b158015611c9b57600080fd5b505af1158015611caf573d6000803e3d6000fd5b505050506040513d601f19601f82011682018060405250810190611cd39190613b87565b611d225760405160e560020a62461bcd02815260206004820152601360248201527f4661696c207472616e7366657220636f696e73000000000000000000000000006044820152606401610aaf565b6040805160608082018352600160a060020a038481168084528c821660208086019182528587018e815260ca8054600181018255600091909152965160039097027f42d72674974f694b5f5159593243114d38a5c39c89d6b62fee061ff523240ee181018054988716600160a060020a0319998a1617905592517f42d72674974f694b5f5159593243114d38a5c39c89d6b62fee061ff523240ee284018054918716919098161790965594517f42d72674974f694b5f5159593243114d38a5c39c89d6b62fee061ff523240ee39091015560d6548551908152918e16938201939093529283019190915281018890526080810184905260a0810183905233907f3b823d3b837159352faddd1e0b9e9f584ca2bfe976238f6a9e6da4615cf2f4449060c00160405180910390a2611e5661267a565b505050505050505050565b600054610100900460ff1680611e7a575060005460ff16155b611e995760405160e560020a62461bcd028152600401610aaf906141a5565b600054610100900460ff16158015611ebb576000805461ffff19166101011790555b611ec486612b94565b611ed085858585612d8e565b8015611ee2576000805461ff00191690555b505050505050565b600080516020614673833981519152611f038133611f09565b5060d255565b611f1382826113be565b610c1957611f2b81600160a060020a03166014612f13565b611f36836020612f13565b604051602001611f47929190613fa3565b60408051601f198184030181529082905260e560020a62461bcd028252610aaf91600401614104565b828114611fe85760405160e560020a62461bcd02815260206004820152603f60248201527f73697a6573206f6620746f6b656e5468697341646472657373657320616e642060448201527f746f6b656e53696465416464726573736573206d7573742062652073616d65006064820152608401610aaf565b8260005b81811015611ee2578383828181106120065761200661459e565b905060200201602081019061201b9190613933565b60cd60008888858181106120315761203161459e565b90506020020160208101906120469190613933565b600160a060020a03908116825260208201929092526040016000208054600160a060020a03191692909116919091179055806120818161453d565b915050611fec565b61209382826113be565b610c19576000828152606560209081526040808320600160a060020a03851684529091529020805460ff191660011790556120cb3390565b600160a060020a031681600160a060020a0316837f2f8788117e7eff1d82e926ec794901d17c78024a50270940304540a733656f0d60405160405180910390a45050565b61211982826113be565b15610c19576000828152606560209081526040808320600160a060020a0385168085529252808320805460ff1916905551339285917ff6391f5c32d9c69d2a47ea670b442974b53935d1edc7fd64eb21e047a839171b9190a45050565b60975460ff1661219b5760405160e560020a62461bcd028152600401610aaf90614137565b6097805460ff191690557f5db9ee0a495bf2e6ff9c91a7834c1ba4fdd244a5e8aa4e537bd38aeae4b073aa335b604051600160a060020a03909116815260200160405180910390a1565b60975460ff161561220b5760405160e560020a62461bcd028152600401610aaf9061416e565b6097805460ff191660011790557f62e78cea01bee320cd4e420270b5ea74000d11b0c9f74754ebdbfc544b05a2586121c83390565b60005b8151811015610c19576000600160a060020a03168282815181106122695761226961459e565b602002602001015160000151600160a060020a031614156123855760ce548251600160a060020a0390911690632e1a7d4d908490849081106122ad576122ad61459e565b6020026020010151604001516040518263ffffffff1660e060020a0281526004016122da91815260200190565b600060405180830381600087803b1580156122f457600080fd5b505af1158015612308573d6000803e3d6000fd5b5050505081818151811061231e5761231e61459e565b602002602001015160200151600160a060020a03166108fc8383815181106123485761234861459e565b6020026020010151604001519081150290604051600060405180830381858888f1935050505015801561237f573d6000803e3d6000fd5b506124c2565b8181815181106123975761239761459e565b602002602001015160000151600160a060020a031663a9059cbb8383815181106123c3576123c361459e565b6020026020010151602001518484815181106123e1576123e161459e565b6020026020010151604001516040518363ffffffff1660e060020a028152600401612421929190600160a060020a03929092168252602082015260400190565b602060405180830381600087803b15801561243b57600080fd5b505af115801561244f573d6000803e3d6000fd5b505050506040513d601f19601f820116820180604052508101906124739190613b87565b6124c25760405160e560020a62461bcd02815260206004820152601360248201527f4661696c207472616e7366657220636f696e73000000000000000000000000006044820152606401610aaf565b806124cc8161453d565b915050612243565b600080806124e46107084261442f565b905060005b60c95481101561262e576040516c01000000000000000000000000600160a060020a038c160260208201526034810183905260548101889052607481018790526094810186905260b40160408051601f198184030181529082905280516020918201207f19457468657265756d205369676e6564204d6573736167653a0a33320000000091830191909152603c820152605c016040516020818303038152906040528051906020012093506125d4848a8a8080601f01602080910402602001604051908101604052809392919081815260200183838082843760009201919091525061310092505050565b92506126007f516d5e7ed3e60a6b2804c1554cd94bc2eb576e44b192a0e069d4c527589a887e846113be565b1561260e5750505050611ee2565b8161261881614526565b92505080806126269061453d565b9150506124e9565b5060405160e560020a62461bcd02815260206004820152601660248201527f5369676e617475726520636865636b206661696c6564000000000000000000006044820152606401610aaf565b600060d3544261268a919061442f565b905060d7548114610d055760d680549060006126a58361453d565b919050557fe15729a2f427aa4572dab35eb692c902fcbce57d41642013259c741380809ae260ca6040516126d99190614094565b60405180910390a26126ed60ca600061385a565b60d755565b60d5600081546127019061453d565b91829055508114610d055760405160e560020a62461bcd02815260206004820152601460248201527f4576656e744964206f7574206f66206f726465720000000000000000000000006044820152606401610aaf565b600080808061276960208801886143d7565b60200135156128a957600061278a61278460208a018a6143d7565b8761318b565b90508061279789806142dd565b6127a760608c0160408d01613d3a565b67ffffffffffffffff168181106127c0576127c061459e565b90506020028101906127d291906143b6565b60800135146128265760405160e560020a62461bcd02815260206004820181905260248201527f5472616e73666572206576656e742076616c69646174696f6e206661696c65646044820152606401610aaf565b8661283760608a0160408b01613d3a565b67ffffffffffffffff1661284b8a806142dd565b612856929150614462565b10156128a75760405160e560020a62461bcd02815260206004820152601860248201527f4e6f7420656e6f7567682073616665747920626c6f636b7300000000000000006044820152606401610aaf565b505b60005b6128b688806142dd565b9050811015612aec57366128ca89806142dd565b838181106128da576128da61459e565b90506020028101906128ec91906143b6565b9050841561294a578481604001351461294a5760405160e560020a62461bcd02815260206004820152601160248201527f57726f6e6720706172656e7420686173680000000000000000000000000000006044820152606401610aaf565b612953816132cf565b90965094506129778661297261296d61014085018561436f565b613448565b613481565b6129c65760405160e560020a62461bcd02815260206004820152601160248201527f696e76616c6964207369676e61747572650000000000000000000000000000006044820152606401610aaf565b60006129dd6129d860c084018461436f565b6134f7565b90506129ea60c882614558565b612a8f5760e8546129fc906001614417565b612a0760c88361442f565b14612a575760405160e560020a62461bcd02815260206004820152600d60248201527f696e76616c69642065706f6368000000000000000000000000000000000000006044820152606401610aaf565b612a6d612a6861014084018461436f565b613529565b9350600260e954612a7e919061442f565b612a889082614417565b9450612ad7565b84811415612ad75760e88054906000612aa78361453d565b909155505060e9849055612ac160608b0160408c01613d3a565b67ffffffffffffffff16831015612ad757600095505b50508080612ae49061453d565b9150506128ac565b5050505050505050565b60d454612b039042614417565b600082815260cb60205260408120600101919091555b82811015612b8457600082815260cb60205260409020848483818110612b4157612b4161459e565b835460018101855560009485526020909420606090910292909201926003029091019050612b6f82826145d0565b50508080612b7c9061453d565b915050612b19565b50505050565b610c198282612089565b600054610100900460ff1680612bad575060005460ff16155b612bcc5760405160e560020a62461bcd028152600401610aaf906141a5565b600054610100900460ff16158015612bee576000805461ffff19166101011790555b612bf9600033612b8a565b612c1b6000805160206146538339815191526116dc6060850160408601613933565b612c3d6000805160206146738339815191526116dc6040850160208601613933565b612c5d612c506080840160608501613933565b6108a760808501856142dd565b612c7f612c6d60c08401846142dd565b612c7a60e08601866142dd565b611f70565b612c8f60c0830160a08401613933565b60ce8054600160a060020a031916600160a060020a0392909216919091179055612cbc6020830183613933565b60d18054600160a060020a031916600160a060020a0392909216919091179055612cee61012083016101008401613933565b60cf8054600160a060020a031916600160a060020a0392909216919091179055612d2061014083016101208401613933565b60d08054600160a060020a031916600160a060020a039290921691909117905561018082013560d25561014082013560d381905561016083013560d455600160cc81905560d655600360c955612d76904261442f565b60d7558015610c19576000805461ff00191690555050565b600054610100900460ff1680612da7575060005460ff16155b612dc65760405160e560020a62461bcd028152600401610aaf906141a5565b600054610100900460ff16158015612de8576000805461ffff19166101011790555b83612e5e5760405160e560020a62461bcd02815260206004820152603260248201527f4c656e677468206f66205f696e697469616c56616c696461746f7273206d757360448201527f7420626520626967676572207468616e203000000000000000000000000000006064820152608401610aaf565b60ea805460ff191660f860020a840417905560e883905560e984905560005b84811015612efa5760e854600090815260e760205260408120600191888885818110612eab57612eab61459e565b9050602002016020810190612ec09190613933565b600160a060020a031681526020810191909152604001600020805460ff191691151591909117905580612ef28161453d565b915050612e7d565b508015610a44576000805461ff00191690555050505050565b60606000612f22836002614443565b612f2d906002614417565b67ffffffffffffffff811115612f4557612f456145b7565b6040519080825280601f01601f191660200182016040528015612f6f576020820181803683370190505b5090507f300000000000000000000000000000000000000000000000000000000000000081600081518110612fa657612fa661459e565b6020010190600160f860020a031916908160001a9053507f780000000000000000000000000000000000000000000000000000000000000081600181518110612ff157612ff161459e565b6020010190600160f860020a031916908160001a9053506000613015846002614443565b613020906001614417565b90505b60018111156130a7577f303132333435363738396162636465660000000000000000000000000000000085600f16601081106130615761306161459e565b1a60f860020a0282828151811061307a5761307a61459e565b6020010190600160f860020a031916908160001a9053506010909404936130a081614526565b9050613023565b5083156130f95760405160e560020a62461bcd02815260206004820181905260248201527f537472696e67733a20686578206c656e67746820696e73756666696369656e746044820152606401610aaf565b9392505050565b6020810151604082015160608301516000929190831a601b81101561312357601b015b60408051600081526020810180835288905260ff831691810191909152606081018490526080810183905260019060a0016020604051602081039080840390855afa158015613176573d6000803e3d6000fd5b5050604051601f190151979650505050505050565b60008061319884806142dd565b60008181106131a9576131a961459e565b90506020028101906131bb919061436f565b846131c687806142dd565b60018181106131d7576131d761459e565b90506020028101906131e9919061436f565b6131f689602001356135ec565b6132008a806142dd565b60028181106132115761321161459e565b9050602002810190613223919061436f565b61323060408d018d614326565b604051602001613241929190614024565b60408051601f1981840301815291905261325b8d806142dd565b600381811061326c5761326c61459e565b905060200281019061327e919061436f565b6040516020016132989b9a99989796959493929190613ee1565b60408051601f19818403018152919052805160209091012090506132c76132bf85806142dd565b83600461373c565b949350505050565b600080807fa0000000000000000000000000000000000000000000000000000000000000006040850135613306606087018761436f565b608088013561331860a08a018a61436f565b61332560c08c018c61436f565b61333260e08e018e61436f565b60405160200161334c9b9a99989796959493929190613d64565b60408051601f1981840301815291815290915061336e90850160208601613ba4565b60ea5460f860020a028261338661012088018861436f565b61339c6133976101408b018b61436f565b613800565b6133aa6101608b018b61436f565b6040516020016133c1989796959493929190613dd1565b60408051601f198184030181529190528051602091820120906133e690860186613ba4565b826133f561010088018861436f565b6134036101408a018a61436f565b6134116101608c018c61436f565b604051602001613428989796959493929190613e64565b604051602081830303815290604052805190602001209250925050915091565b36600080613457604185614462565b9050848185613467604183614417565b92613474939291906143ed565b92509250505b9250929050565b6000806134c48585858080601f01602080910402602001604051908101604052809392919081815260200183838082843760009201919091525061310092505050565b60e854600090815260e760209081526040808320600160a060020a039094168352929052205460ff169150509392505050565b6000613504826008614443565b61351090610100614462565b61351a83856144b1565b60029190910a90049392505050565b60008060e854600161353b9190614417565b9050600061354a604185614462565b9050600060205b828110156135e2576000878288613569601483614417565b92613576939291906143ed565b61357f91614479565b600086815260e760209081526040808320600160a060020a036c0100000000000000000000000090950494851684529091529020805460ff191660011790559050826135ca8161453d565b935050506014816135db9190614417565b9050613551565b5095945050505050565b6040805160208082528183019092526060916000919060208201818036833701905050905082602082015260005b602081101561366b578181815181106136355761363561459e565b60209101015160f860020a9081900402600160f860020a031916156136595761366b565b806136638161453d565b91505061361a565b6000613678826020614462565b67ffffffffffffffff811115613690576136906145b7565b6040519080825280601f01601f1916602001820160405280156136ba576020820181803683370190505b50905060005b81518110156137335783836136d48161453d565b9450815181106136e6576136e661459e565b602001015160f860020a900460f860020a0282828151811061370a5761370a61459e565b6020010190600160f860020a031916908160001a9053508061372b8161453d565b9150506136c0565b50949350505050565b60006060825b858110156137f55786868281811061375c5761375c61459e565b905060200281019061376e919061436f565b86898961377c866001614417565b81811061378b5761378b61459e565b905060200281019061379d919061436f565b6040516020016137b1959493929190613f7a565b604051602081830303815290604052915060208251116137d9576137d4826144d1565b6137e1565b815160208301205b94506137ee600282614417565b9050613742565b509295945050505050565b606082600083613811604182614462565b9261381e939291906143ed565b8080601f016020809104026020016040519081016040528093929190818152602001838380828437600092019190915250929695505050505050565b5080546000825560030290600052602060002090810190610d0591905b808211156138a9578054600160a060020a03199081168255600182018054909116905560006002820155600301613877565b5090565b60008083601f8401126138bf57600080fd5b50813567ffffffffffffffff8111156138d757600080fd5b602083019150836020808302850101111561347a57600080fd5b60008083601f84011261390357600080fd5b50813567ffffffffffffffff81111561391b57600080fd5b60208301915083602082850101111561347a57600080fd5b60006020828403121561394557600080fd5b81356130f98161462f565b6000806040838503121561396357600080fd5b823561396e8161462f565b9150602083013561397e8161462f565b809150509250929050565b60008060008060008060008060e0898b0312156139a557600080fd5b88356139b08161462f565b975060208901356139c08161462f565b96506040890135955060608901356139d781614644565b9450608089013567ffffffffffffffff8111156139f357600080fd5b6139ff8b828c016138f1565b999c989b5096999598969760a08701359660c0013595509350505050565b600080600060408486031215613a3257600080fd5b8335613a3d8161462f565b9250602084013567ffffffffffffffff811115613a5957600080fd5b613a65868287016138ad565b9497909650939450505050565b600080600080600060808688031215613a8a57600080fd5b8535613a958161462f565b9450602086013567ffffffffffffffff811115613ab157600080fd5b613abd888289016138f1565b9699909850959660408101359660609091013595509350505050565b60008060208385031215613aec57600080fd5b823567ffffffffffffffff811115613b0357600080fd5b613b0f858286016138ad565b90969095509350505050565b60008060008060408587031215613b3157600080fd5b843567ffffffffffffffff80821115613b4957600080fd5b613b55888389016138ad565b90965094506020870135915080821115613b6e57600080fd5b50613b7b878288016138ad565b95989497509550505050565b600060208284031215613b9957600080fd5b81516130f981614644565b600060208284031215613bb657600080fd5b81357cffffffffffffffffffffffffffffffffffffffffffffffffffffffffff19811681146130f957600080fd5b600060208284031215613bf657600080fd5b5035919050565b60008060408385031215613c1057600080fd5b82359150602083013561397e8161462f565b600060208284031215613c3457600080fd5b81357bffffffffffffffffffffffffffffffffffffffffffffffffffffffff19811681146130f957600080fd5b600080600080600060808688031215613c7957600080fd5b853567ffffffffffffffff80821115613c9157600080fd5b908701906101a0828a031215613ca657600080fd5b90955060208701359080821115613cbc57600080fd5b50613cc9888289016138ad565b909550935050604086013591506060860135600160f860020a031981168114613cf157600080fd5b809150509295509295909350565b600060208284031215613d1157600080fd5b813567ffffffffffffffff811115613d2857600080fd5b8201606081850312156130f957600080fd5b600060208284031215613d4c57600080fd5b813567ffffffffffffffff811681146130f957600080fd5b600160f860020a03198c1681528a6001820152888a602183013788810160218101899052600090878960418301378781019050604181016000815286888237508581019050604181016000815284868237506000930160410192835250909b9a5050505050505050505050565b7cffffffffffffffffffffffffffffffffffffffffffffffffffffffffff1989168152600160f860020a03198816600382015260008751613e19816004850160208c016144fa565b820186886004830137868101905060048101600081528651613e3f818360208b016144fa565b9190910190508385600483013760009301600401928352509098975050505050505050565b7cffffffffffffffffffffffffffffffffffffffffffffffffffffffffff198916815260008851613e9c816003850160208d016144fa565b82018789600383013787810190506003810160008152868882375085810190506003810160008152848682375060009301600301928352509098975050505050505050565b8a8c8237600160a060020a038a166c0100000000000000000000000002818c0190815260009060148a8c828401378a82019150808201600081528a51613f2b818360208f016144fa565b9290920191508789828401378782019150808201600081528751613f53818360208c016144fa565b9290920191508486828401376000949091010192835250909b9a5050505050505050505050565b848682378085018481526000908385602083013760009301602001928352509095945050505050565b7f416363657373436f6e74726f6c3a206163636f756e7420000000000000000000815260008351613fdb8160178501602088016144fa565b7f206973206d697373696e6720726f6c652000000000000000000000000000000060179184019182015283516140188160288401602088016144fa565b01602801949350505050565b6020808252818101839052600090604080840186845b8781101561408757813561404d8161462f565b600160a060020a03908116845282860135906140688261462f565b168386015281840135848401526060928301929091019060010161403a565b5090979650505050505050565b60006020808301818452808554808352604092508286019150866000528360002060005b828110156140f7578154600160a060020a03908116855260018084015490911687860152600283015486860152606090940193600390920191016140b8565b5091979650505050505050565b60208152600082518060208401526141238160408501602087016144fa565b601f01601f19169190910160400192915050565b60208082526014908201527f5061757361626c653a206e6f7420706175736564000000000000000000000000604082015260600190565b60208082526010908201527f5061757361626c653a2070617573656400000000000000000000000000000000604082015260600190565b6020808252602e908201527f496e697469616c697a61626c653a20636f6e747261637420697320616c72656160408201527f647920696e697469616c697a6564000000000000000000000000000000000000606082015260800190565b60208082526026908201527f6576656e744964206d757374206265203e3d206f6c646573744c6f636b65644560408201527f76656e7449640000000000000000000000000000000000000000000000000000606082015260800190565b6000602080835260608084018551604080858801528282518085526080890191508684019450600093505b808410156142c75784518051600160a060020a0390811684528882015116888401528301518383015293860193600193909301929085019061428a565b5094909701519590960194909452509392505050565b6000808335601e198436030181126142f457600080fd5b83018035915067ffffffffffffffff82111561430f57600080fd5b602090810192508102360382131561347a57600080fd5b6000808335601e1984360301811261433d57600080fd5b83018035915067ffffffffffffffff82111561435857600080fd5b602001915060608102360382131561347a57600080fd5b6000808335601e1984360301811261438657600080fd5b83018035915067ffffffffffffffff8211156143a157600080fd5b60200191503681900382131561347a57600080fd5b6000823561017e198336030181126143cd57600080fd5b9190910192915050565b60008235605e198336030181126143cd57600080fd5b600080858511156143fd57600080fd5b8386111561440a57600080fd5b5050820193919092039150565b6000821982111561442a5761442a61456c565b500190565b60008261443e5761443e614585565b500490565b600081600019048311821515161561445d5761445d61456c565b500290565b6000828210156144745761447461456c565b500390565b6bffffffffffffffffffffffff1981358181169160148510156144a957808560140360080260020a820283161692505b505092915050565b80356020831015610a1957600860208490030260020a6000031692915050565b805160208083015191908110156144f4578060200360080260020a600003821691505b50919050565b60005b838110156145155781810151838201526020016144fd565b83811115612b845750506000910152565b6000816145355761453561456c565b506000190190565b60006000198214156145515761455161456c565b5060010190565b60008261456757614567614585565b500690565b60e060020a634e487b7102600052601160045260246000fd5b60e060020a634e487b7102600052601260045260246000fd5b60e060020a634e487b7102600052603260045260246000fd5b60e060020a634e487b7102600052604160045260246000fd5b81356145db8161462f565b8154600160a060020a031916600160a060020a0382161782555060208201356146038161462f565b600182018054600160a060020a031916600160a060020a03831617905550604082013560028201555050565b600160a060020a0381168114610d0557600080fd5b8015158114610d0557600080fdfe077a1d526a4ce8a773632ab13b4fbbf1fcc954c3dab26cd27ea0e2a6750da5d7a49807205ce4d355092ef5a8a18f56e8913cf4a201fbe287825b095693c21775a2646970667358221220ad2aa80c8b17d543e61acfcb9760166e85ca049571fa7644043ad793291cbafe64736f6c63430008060033",
  "devdoc": {
    "kind": "dev",
    "methods": {
      "getRoleAdmin(bytes32)": {
        "details": "Returns the admin role that controls `role`. See {grantRole} and {revokeRole}. To change a role's admin, use {_setRoleAdmin}."
      },
      "grantRole(bytes32,address)": {
        "details": "Grants `role` to `account`. If `account` had not been already granted `role`, emits a {RoleGranted} event. Requirements: - the caller must have ``role``'s admin role."
      },
      "hasRole(bytes32,address)": {
        "details": "Returns `true` if `account` has been granted `role`."
      },
      "paused()": {
        "details": "Returns true if the contract is paused, and false otherwise."
      },
      "renounceRole(bytes32,address)": {
        "details": "Revokes `role` from the calling account. Roles are often managed via {grantRole} and {revokeRole}: this function's purpose is to provide a mechanism for accounts to lose their privileges if they are compromised (such as when a trusted device is misplaced). If the calling account had been granted `role`, emits a {RoleRevoked} event. Requirements: - the caller must be `account`."
      },
      "revokeRole(bytes32,address)": {
        "details": "Revokes `role` from `account`. If `account` had been granted `role`, emits a {RoleRevoked} event. Requirements: - the caller must have ``role``'s admin role."
      },
      "supportsInterface(bytes4)": {
        "details": "See {IERC165-supportsInterface}."
      },
      "withdraw(address,address,uint256,bool,bytes,uint256,uint256)": {
        "params": {
          "bridgeFee": "Amount (in native coins), payed as bridge earnings",
          "feeSignature": "Signature signed by relay that confirms that the fee values are valid",
          "transferFee": "Amount (in native coins), payed to compensate gas fees in side network"
        }
      },
      "wrapWithdraw(address,bytes,uint256,uint256)": {
        "params": {
          "bridgeFee": "Amount (in native coins), payed as bridge earnings",
          "feeSignature": "Signature signed by relay that confirms that the fee values are valid",
          "toAddress": "Address in side network that will receive the tokens",
          "transferFee": "Amount (in native coins), payed to compensate gas fees in side network"
        }
      }
    },
    "version": 1
  },
  "userdoc": {
    "kind": "user",
    "methods": {},
    "version": 1
  },
  "storageLayout": {
    "storage": [
      {
        "astId": 413,
        "contract": "contracts/networks/BSC_AmbBridge.sol:BSC_AmbBridge",
        "label": "_initialized",
        "offset": 0,
        "slot": "0",
        "type": "t_bool"
      },
      {
        "astId": 416,
        "contract": "contracts/networks/BSC_AmbBridge.sol:BSC_AmbBridge",
        "label": "_initializing",
        "offset": 1,
        "slot": "0",
        "type": "t_bool"
      },
      {
        "astId": 609,
        "contract": "contracts/networks/BSC_AmbBridge.sol:BSC_AmbBridge",
        "label": "__gap",
        "offset": 0,
        "slot": "1",
        "type": "t_array(t_uint256)50_storage"
      },
      {
        "astId": 858,
        "contract": "contracts/networks/BSC_AmbBridge.sol:BSC_AmbBridge",
        "label": "__gap",
        "offset": 0,
        "slot": "51",
        "type": "t_array(t_uint256)50_storage"
      },
      {
        "astId": 48,
        "contract": "contracts/networks/BSC_AmbBridge.sol:BSC_AmbBridge",
        "label": "_roles",
        "offset": 0,
        "slot": "101",
        "type": "t_mapping(t_bytes32,t_struct(RoleData)43_storage)"
      },
      {
        "astId": 333,
        "contract": "contracts/networks/BSC_AmbBridge.sol:BSC_AmbBridge",
        "label": "__gap",
        "offset": 0,
        "slot": "102",
        "type": "t_array(t_uint256)49_storage"
      },
      {
        "astId": 474,
        "contract": "contracts/networks/BSC_AmbBridge.sol:BSC_AmbBridge",
        "label": "_paused",
        "offset": 0,
        "slot": "151",
        "type": "t_bool"
      },
      {
        "astId": 565,
        "contract": "contracts/networks/BSC_AmbBridge.sol:BSC_AmbBridge",
        "label": "__gap",
        "offset": 0,
        "slot": "152",
        "type": "t_array(t_uint256)49_storage"
      },
      {
        "astId": 6726,
        "contract": "contracts/networks/BSC_AmbBridge.sol:BSC_AmbBridge",
        "label": "signatureFeeCheckNumber",
        "offset": 0,
        "slot": "201",
        "type": "t_uint256"
      },
      {
        "astId": 6730,
        "contract": "contracts/networks/BSC_AmbBridge.sol:BSC_AmbBridge",
        "label": "queue",
        "offset": 0,
        "slot": "202",
        "type": "t_array(t_struct(Transfer)7888_storage)dyn_storage"
      },
      {
        "astId": 6735,
        "contract": "contracts/networks/BSC_AmbBridge.sol:BSC_AmbBridge",
        "label": "lockedTransfers",
        "offset": 0,
        "slot": "203",
        "type": "t_mapping(t_uint256,t_struct(LockedTransfers)7905_storage)"
      },
      {
        "astId": 6737,
        "contract": "contracts/networks/BSC_AmbBridge.sol:BSC_AmbBridge",
        "label": "oldestLockedEventId",
        "offset": 0,
        "slot": "204",
        "type": "t_uint256"
      },
      {
        "astId": 6741,
        "contract": "contracts/networks/BSC_AmbBridge.sol:BSC_AmbBridge",
        "label": "tokenAddresses",
        "offset": 0,
        "slot": "205",
        "type": "t_mapping(t_address,t_address)"
      },
      {
        "astId": 6743,
        "contract": "contracts/networks/BSC_AmbBridge.sol:BSC_AmbBridge",
        "label": "wrapperAddress",
        "offset": 0,
        "slot": "206",
        "type": "t_address"
      },
      {
        "astId": 6745,
        "contract": "contracts/networks/BSC_AmbBridge.sol:BSC_AmbBridge",
        "label": "transferFeeRecipient",
        "offset": 0,
        "slot": "207",
        "type": "t_address_payable"
      },
      {
        "astId": 6747,
        "contract": "contracts/networks/BSC_AmbBridge.sol:BSC_AmbBridge",
        "label": "bridgeFeeRecipient",
        "offset": 0,
        "slot": "208",
        "type": "t_address_payable"
      },
      {
        "astId": 6749,
        "contract": "contracts/networks/BSC_AmbBridge.sol:BSC_AmbBridge",
        "label": "sideBridgeAddress",
        "offset": 0,
        "slot": "209",
        "type": "t_address"
      },
      {
        "astId": 6751,
        "contract": "contracts/networks/BSC_AmbBridge.sol:BSC_AmbBridge",
        "label": "minSafetyBlocks",
        "offset": 0,
        "slot": "210",
        "type": "t_uint256"
      },
      {
        "astId": 6753,
        "contract": "contracts/networks/BSC_AmbBridge.sol:BSC_AmbBridge",
        "label": "timeframeSeconds",
        "offset": 0,
        "slot": "211",
        "type": "t_uint256"
      },
      {
        "astId": 6755,
        "contract": "contracts/networks/BSC_AmbBridge.sol:BSC_AmbBridge",
        "label": "lockTime",
        "offset": 0,
        "slot": "212",
        "type": "t_uint256"
      },
      {
        "astId": 6757,
        "contract": "contracts/networks/BSC_AmbBridge.sol:BSC_AmbBridge",
        "label": "inputEventId",
        "offset": 0,
        "slot": "213",
        "type": "t_uint256"
      },
      {
        "astId": 6759,
        "contract": "contracts/networks/BSC_AmbBridge.sol:BSC_AmbBridge",
        "label": "outputEventId",
        "offset": 0,
        "slot": "214",
        "type": "t_uint256"
      },
      {
        "astId": 6761,
        "contract": "contracts/networks/BSC_AmbBridge.sol:BSC_AmbBridge",
        "label": "lastTimeframe",
        "offset": 0,
        "slot": "215",
        "type": "t_uint256"
      },
      {
        "astId": 7878,
        "contract": "contracts/networks/BSC_AmbBridge.sol:BSC_AmbBridge",
        "label": "__gap",
        "offset": 0,
        "slot": "216",
        "type": "t_array(t_uint256)15_storage"
      },
      {
        "astId": 2208,
        "contract": "contracts/networks/BSC_AmbBridge.sol:BSC_AmbBridge",
        "label": "allValidators",
        "offset": 0,
        "slot": "231",
        "type": "t_mapping(t_uint256,t_mapping(t_address,t_bool))"
      },
      {
        "astId": 2210,
        "contract": "contracts/networks/BSC_AmbBridge.sol:BSC_AmbBridge",
        "label": "currentEpoch",
        "offset": 0,
        "slot": "232",
        "type": "t_uint256"
      },
      {
        "astId": 2212,
        "contract": "contracts/networks/BSC_AmbBridge.sol:BSC_AmbBridge",
        "label": "currentValidatorSetSize",
        "offset": 0,
        "slot": "233",
        "type": "t_uint256"
      },
      {
        "astId": 2214,
        "contract": "contracts/networks/BSC_AmbBridge.sol:BSC_AmbBridge",
        "label": "chainId",
        "offset": 0,
        "slot": "234",
        "type": "t_bytes1"
      }
    ],
    "types": {
      "t_address": {
        "encoding": "inplace",
        "label": "address",
        "numberOfBytes": "20"
      },
      "t_address_payable": {
        "encoding": "inplace",
        "label": "address payable",
        "numberOfBytes": "20"
      },
      "t_array(t_struct(Transfer)7888_storage)dyn_storage": {
        "base": "t_struct(Transfer)7888_storage",
        "encoding": "dynamic_array",
        "label": "struct CommonStructs.Transfer[]",
        "numberOfBytes": "32"
      },
      "t_array(t_uint256)15_storage": {
        "base": "t_uint256",
        "encoding": "inplace",
        "label": "uint256[15]",
        "numberOfBytes": "480"
      },
      "t_array(t_uint256)49_storage": {
        "base": "t_uint256",
        "encoding": "inplace",
        "label": "uint256[49]",
        "numberOfBytes": "1568"
      },
      "t_array(t_uint256)50_storage": {
        "base": "t_uint256",
        "encoding": "inplace",
        "label": "uint256[50]",
        "numberOfBytes": "1600"
      },
      "t_bool": {
        "encoding": "inplace",
        "label": "bool",
        "numberOfBytes": "1"
      },
      "t_bytes1": {
        "encoding": "inplace",
        "label": "bytes1",
        "numberOfBytes": "1"
      },
      "t_bytes32": {
        "encoding": "inplace",
        "label": "bytes32",
        "numberOfBytes": "32"
      },
      "t_mapping(t_address,t_address)": {
        "encoding": "mapping",
        "key": "t_address",
        "label": "mapping(address => address)",
        "numberOfBytes": "32",
        "value": "t_address"
      },
      "t_mapping(t_address,t_bool)": {
        "encoding": "mapping",
        "key": "t_address",
        "label": "mapping(address => bool)",
        "numberOfBytes": "32",
        "value": "t_bool"
      },
      "t_mapping(t_bytes32,t_struct(RoleData)43_storage)": {
        "encoding": "mapping",
        "key": "t_bytes32",
        "label": "mapping(bytes32 => struct AccessControlUpgradeable.RoleData)",
        "numberOfBytes": "32",
        "value": "t_struct(RoleData)43_storage"
      },
      "t_mapping(t_uint256,t_mapping(t_address,t_bool))": {
        "encoding": "mapping",
        "key": "t_uint256",
        "label": "mapping(uint256 => mapping(address => bool))",
        "numberOfBytes": "32",
        "value": "t_mapping(t_address,t_bool)"
      },
      "t_mapping(t_uint256,t_struct(LockedTransfers)7905_storage)": {
        "encoding": "mapping",
        "key": "t_uint256",
        "label": "mapping(uint256 => struct CommonStructs.LockedTransfers)",
        "numberOfBytes": "32",
        "value": "t_struct(LockedTransfers)7905_storage"
      },
      "t_struct(LockedTransfers)7905_storage": {
        "encoding": "inplace",
        "label": "struct CommonStructs.LockedTransfers",
        "members": [
          {
            "astId": 7902,
            "contract": "contracts/networks/BSC_AmbBridge.sol:BSC_AmbBridge",
            "label": "transfers",
            "offset": 0,
            "slot": "0",
            "type": "t_array(t_struct(Transfer)7888_storage)dyn_storage"
          },
          {
            "astId": 7904,
            "contract": "contracts/networks/BSC_AmbBridge.sol:BSC_AmbBridge",
            "label": "endTimestamp",
            "offset": 0,
            "slot": "1",
            "type": "t_uint256"
          }
        ],
        "numberOfBytes": "64"
      },
      "t_struct(RoleData)43_storage": {
        "encoding": "inplace",
        "label": "struct AccessControlUpgradeable.RoleData",
        "members": [
          {
            "astId": 40,
            "contract": "contracts/networks/BSC_AmbBridge.sol:BSC_AmbBridge",
            "label": "members",
            "offset": 0,
            "slot": "0",
            "type": "t_mapping(t_address,t_bool)"
          },
          {
            "astId": 42,
            "contract": "contracts/networks/BSC_AmbBridge.sol:BSC_AmbBridge",
            "label": "adminRole",
            "offset": 0,
            "slot": "1",
            "type": "t_bytes32"
          }
        ],
        "numberOfBytes": "64"
      },
      "t_struct(Transfer)7888_storage": {
        "encoding": "inplace",
        "label": "struct CommonStructs.Transfer",
        "members": [
          {
            "astId": 7883,
            "contract": "contracts/networks/BSC_AmbBridge.sol:BSC_AmbBridge",
            "label": "tokenAddress",
            "offset": 0,
            "slot": "0",
            "type": "t_address"
          },
          {
            "astId": 7885,
            "contract": "contracts/networks/BSC_AmbBridge.sol:BSC_AmbBridge",
            "label": "toAddress",
            "offset": 0,
            "slot": "1",
            "type": "t_address"
          },
          {
            "astId": 7887,
            "contract": "contracts/networks/BSC_AmbBridge.sol:BSC_AmbBridge",
            "label": "amount",
            "offset": 0,
            "slot": "2",
            "type": "t_uint256"
          }
        ],
        "numberOfBytes": "96"
      },
      "t_uint256": {
        "encoding": "inplace",
        "label": "uint256",
        "numberOfBytes": "32"
      }
    }
  }
}