{
  "address": "0xE9A768790acb511763d5222Ec83D3CD41A12d399",
  "abi": [
    {
      "anonymous": false,
      "inputs": [
        {
          "indexed": false,
          "internalType": "address",
          "name": "account",
          "type": "address"
        }
      ],
      "name": "Paused",
      "type": "event"
    },
    {
      "anonymous": false,
      "inputs": [
        {
          "indexed": true,
          "internalType": "bytes32",
          "name": "role",
          "type": "bytes32"
        },
        {
          "indexed": true,
          "internalType": "bytes32",
          "name": "previousAdminRole",
          "type": "bytes32"
        },
        {
          "indexed": true,
          "internalType": "bytes32",
          "name": "newAdminRole",
          "type": "bytes32"
        }
      ],
      "name": "RoleAdminChanged",
      "type": "event"
    },
    {
      "anonymous": false,
      "inputs": [
        {
          "indexed": true,
          "internalType": "bytes32",
          "name": "role",
          "type": "bytes32"
        },
        {
          "indexed": true,
          "internalType": "address",
          "name": "account",
          "type": "address"
        },
        {
          "indexed": true,
          "internalType": "address",
          "name": "sender",
          "type": "address"
        }
      ],
      "name": "RoleGranted",
      "type": "event"
    },
    {
      "anonymous": false,
      "inputs": [
        {
          "indexed": true,
          "internalType": "bytes32",
          "name": "role",
          "type": "bytes32"
        },
        {
          "indexed": true,
          "internalType": "address",
          "name": "account",
          "type": "address"
        },
        {
          "indexed": true,
          "internalType": "address",
          "name": "sender",
          "type": "address"
        }
      ],
      "name": "RoleRevoked",
      "type": "event"
    },
    {
      "anonymous": false,
      "inputs": [
        {
          "indexed": true,
          "internalType": "uint256",
          "name": "eventId",
          "type": "uint256"
        },
        {
          "components": [
            {
              "internalType": "address",
              "name": "tokenAddress",
              "type": "address"
            },
            {
              "internalType": "address",
              "name": "toAddress",
              "type": "address"
            },
            {
              "internalType": "uint256",
              "name": "amount",
              "type": "uint256"
            }
          ],
          "indexed": false,
          "internalType": "struct CommonStructs.Transfer[]",
          "name": "queue",
          "type": "tuple[]"
        }
      ],
      "name": "Transfer",
      "type": "event"
    },
    {
      "anonymous": false,
      "inputs": [
        {
          "indexed": true,
          "internalType": "uint256",
          "name": "eventId",
          "type": "uint256"
        }
      ],
      "name": "TransferFinish",
      "type": "event"
    },
    {
      "anonymous": false,
      "inputs": [
        {
          "indexed": true,
          "internalType": "uint256",
          "name": "eventId",
          "type": "uint256"
        }
      ],
      "name": "TransferSubmit",
      "type": "event"
    },
    {
      "anonymous": false,
      "inputs": [
        {
          "indexed": false,
          "internalType": "address",
          "name": "account",
          "type": "address"
        }
      ],
      "name": "Unpaused",
      "type": "event"
    },
    {
      "anonymous": false,
      "inputs": [
        {
          "indexed": true,
          "internalType": "address",
          "name": "from",
          "type": "address"
        },
        {
          "indexed": false,
          "internalType": "uint256",
          "name": "eventId",
          "type": "uint256"
        },
        {
          "indexed": false,
          "internalType": "address",
          "name": "tokenFrom",
          "type": "address"
        },
        {
          "indexed": false,
          "internalType": "address",
          "name": "tokenTo",
          "type": "address"
        },
        {
          "indexed": false,
          "internalType": "uint256",
          "name": "amount",
          "type": "uint256"
        },
        {
          "indexed": false,
          "internalType": "uint256",
          "name": "transferFeeAmount",
          "type": "uint256"
        },
        {
          "indexed": false,
          "internalType": "uint256",
          "name": "bridgeFeeAmount",
          "type": "uint256"
        }
      ],
      "name": "Withdraw",
      "type": "event"
    },
    {
      "inputs": [],
      "name": "ADMIN_ROLE",
      "outputs": [
        {
          "internalType": "bytes32",
          "name": "",
          "type": "bytes32"
        }
      ],
      "stateMutability": "view",
      "type": "function"
    },
    {
      "inputs": [],
      "name": "DEFAULT_ADMIN_ROLE",
      "outputs": [
        {
          "internalType": "bytes32",
          "name": "",
          "type": "bytes32"
        }
      ],
      "stateMutability": "view",
      "type": "function"
    },
    {
      "inputs": [],
      "name": "FEE_PROVIDER_ROLE",
      "outputs": [
        {
          "internalType": "bytes32",
          "name": "",
          "type": "bytes32"
        }
      ],
      "stateMutability": "view",
      "type": "function"
    },
    {
      "inputs": [],
      "name": "RELAY_ROLE",
      "outputs": [
        {
          "internalType": "bytes32",
          "name": "",
          "type": "bytes32"
        }
      ],
      "stateMutability": "view",
      "type": "function"
    },
    {
      "inputs": [],
      "name": "WATCHDOG_ROLE",
      "outputs": [
        {
          "internalType": "bytes32",
          "name": "",
          "type": "bytes32"
        }
      ],
      "stateMutability": "view",
      "type": "function"
    },
    {
      "inputs": [],
      "name": "bridgeFeeRecipient",
      "outputs": [
        {
          "internalType": "address payable",
          "name": "",
          "type": "address"
        }
      ],
      "stateMutability": "view",
      "type": "function"
    },
    {
      "inputs": [
        {
          "internalType": "address payable",
          "name": "feeRecipient_",
          "type": "address"
        }
      ],
      "name": "changeBridgeFeeRecipient",
      "outputs": [],
      "stateMutability": "nonpayable",
      "type": "function"
    },
    {
      "inputs": [
        {
          "internalType": "uint256",
          "name": "lockTime_",
          "type": "uint256"
        }
      ],
      "name": "changeLockTime",
      "outputs": [],
      "stateMutability": "nonpayable",
      "type": "function"
    },
    {
      "inputs": [
        {
          "internalType": "uint256",
          "name": "minSafetyBlocks_",
          "type": "uint256"
        }
      ],
      "name": "changeMinSafetyBlocks",
      "outputs": [],
      "stateMutability": "nonpayable",
      "type": "function"
    },
    {
      "inputs": [
        {
          "internalType": "uint256",
          "name": "signatureFeeCheckNumber_",
          "type": "uint256"
        }
      ],
      "name": "changeSignatureFeeCheckNumber",
      "outputs": [],
      "stateMutability": "nonpayable",
      "type": "function"
    },
    {
      "inputs": [
        {
          "internalType": "uint256",
          "name": "timeframeSeconds_",
          "type": "uint256"
        }
      ],
      "name": "changeTimeframeSeconds",
      "outputs": [],
      "stateMutability": "nonpayable",
      "type": "function"
    },
    {
      "inputs": [
        {
          "internalType": "address payable",
          "name": "feeRecipient_",
          "type": "address"
        }
      ],
      "name": "changeTransferFeeRecipient",
      "outputs": [],
      "stateMutability": "nonpayable",
      "type": "function"
    },
    {
      "inputs": [],
      "name": "currentEpoch",
      "outputs": [
        {
          "internalType": "uint256",
          "name": "",
          "type": "uint256"
        }
      ],
      "stateMutability": "view",
      "type": "function"
    },
    {
      "inputs": [
        {
          "internalType": "uint256",
          "name": "eventId",
          "type": "uint256"
        }
      ],
      "name": "getLockedTransfers",
      "outputs": [
        {
          "components": [
            {
              "components": [
                {
                  "internalType": "address",
                  "name": "tokenAddress",
                  "type": "address"
                },
                {
                  "internalType": "address",
                  "name": "toAddress",
                  "type": "address"
                },
                {
                  "internalType": "uint256",
                  "name": "amount",
                  "type": "uint256"
                }
              ],
              "internalType": "struct CommonStructs.Transfer[]",
              "name": "transfers",
              "type": "tuple[]"
            },
            {
              "internalType": "uint256",
              "name": "endTimestamp",
              "type": "uint256"
            }
          ],
          "internalType": "struct CommonStructs.LockedTransfers",
          "name": "",
          "type": "tuple"
        }
      ],
      "stateMutability": "view",
      "type": "function"
    },
    {
      "inputs": [
        {
          "internalType": "bytes32",
          "name": "role",
          "type": "bytes32"
        }
      ],
      "name": "getRoleAdmin",
      "outputs": [
        {
          "internalType": "bytes32",
          "name": "",
          "type": "bytes32"
        }
      ],
      "stateMutability": "view",
      "type": "function"
    },
    {
      "inputs": [
        {
          "internalType": "bytes32",
          "name": "role",
          "type": "bytes32"
        },
        {
          "internalType": "address",
          "name": "account",
          "type": "address"
        }
      ],
      "name": "grantRole",
      "outputs": [],
      "stateMutability": "nonpayable",
      "type": "function"
    },
    {
      "inputs": [
        {
          "internalType": "bytes32",
          "name": "role",
          "type": "bytes32"
        },
        {
          "internalType": "address",
          "name": "account",
          "type": "address"
        }
      ],
      "name": "hasRole",
      "outputs": [
        {
          "internalType": "bool",
          "name": "",
          "type": "bool"
        }
      ],
      "stateMutability": "view",
      "type": "function"
    },
    {
      "inputs": [
        {
          "components": [
            {
              "internalType": "address",
              "name": "sideBridgeAddress",
              "type": "address"
            },
            {
              "internalType": "address",
              "name": "adminAddress",
              "type": "address"
            },
            {
              "internalType": "address",
              "name": "relayAddress",
              "type": "address"
            },
            {
              "internalType": "address",
              "name": "wrappingTokenAddress",
              "type": "address"
            },
            {
              "internalType": "address[]",
              "name": "tokenThisAddresses",
              "type": "address[]"
            },
            {
              "internalType": "address[]",
              "name": "tokenSideAddresses",
              "type": "address[]"
            },
            {
              "internalType": "address payable",
              "name": "transferFeeRecipient",
              "type": "address"
            },
            {
              "internalType": "address payable",
              "name": "bridgeFeeRecipient",
              "type": "address"
            },
            {
              "internalType": "uint256",
              "name": "timeframeSeconds",
              "type": "uint256"
            },
            {
              "internalType": "uint256",
              "name": "lockTime",
              "type": "uint256"
            },
            {
              "internalType": "uint256",
              "name": "minSafetyBlocks",
              "type": "uint256"
            }
          ],
          "internalType": "struct CommonStructs.ConstructorArgs",
          "name": "args",
          "type": "tuple"
        },
        {
          "internalType": "address[]",
          "name": "initialValidators",
          "type": "address[]"
        },
        {
          "internalType": "uint256",
          "name": "initialEpoch",
          "type": "uint256"
        },
        {
          "internalType": "bytes1",
          "name": "chainId",
          "type": "bytes1"
        }
      ],
      "name": "initialize",
      "outputs": [],
      "stateMutability": "nonpayable",
      "type": "function"
    },
    {
      "inputs": [],
      "name": "inputEventId",
      "outputs": [
        {
          "internalType": "uint256",
          "name": "",
          "type": "uint256"
        }
      ],
      "stateMutability": "view",
      "type": "function"
    },
    {
      "inputs": [],
      "name": "isQueueEmpty",
      "outputs": [
        {
          "internalType": "bool",
          "name": "",
          "type": "bool"
        }
      ],
      "stateMutability": "view",
      "type": "function"
    },
    {
      "inputs": [],
      "name": "lastTimeframe",
      "outputs": [
        {
          "internalType": "uint256",
          "name": "",
          "type": "uint256"
        }
      ],
      "stateMutability": "view",
      "type": "function"
    },
    {
      "inputs": [],
      "name": "lockTime",
      "outputs": [
        {
          "internalType": "uint256",
          "name": "",
          "type": "uint256"
        }
      ],
      "stateMutability": "view",
      "type": "function"
    },
    {
      "inputs": [
        {
          "internalType": "uint256",
          "name": "",
          "type": "uint256"
        }
      ],
      "name": "lockedTransfers",
      "outputs": [
        {
          "internalType": "uint256",
          "name": "endTimestamp",
          "type": "uint256"
        }
      ],
      "stateMutability": "view",
      "type": "function"
    },
    {
      "inputs": [],
      "name": "minSafetyBlocks",
      "outputs": [
        {
          "internalType": "uint256",
          "name": "",
          "type": "uint256"
        }
      ],
      "stateMutability": "view",
      "type": "function"
    },
    {
      "inputs": [],
      "name": "oldestLockedEventId",
      "outputs": [
        {
          "internalType": "uint256",
          "name": "",
          "type": "uint256"
        }
      ],
      "stateMutability": "view",
      "type": "function"
    },
    {
      "inputs": [],
      "name": "outputEventId",
      "outputs": [
        {
          "internalType": "uint256",
          "name": "",
          "type": "uint256"
        }
      ],
      "stateMutability": "view",
      "type": "function"
    },
    {
      "inputs": [],
      "name": "pause",
      "outputs": [],
      "stateMutability": "nonpayable",
      "type": "function"
    },
    {
      "inputs": [],
      "name": "paused",
      "outputs": [
        {
          "internalType": "bool",
          "name": "",
          "type": "bool"
        }
      ],
      "stateMutability": "view",
      "type": "function"
    },
    {
      "inputs": [
        {
          "internalType": "uint256",
          "name": "eventId",
          "type": "uint256"
        }
      ],
      "name": "removeLockedTransfers",
      "outputs": [],
      "stateMutability": "nonpayable",
      "type": "function"
    },
    {
      "inputs": [
        {
          "internalType": "bytes32",
          "name": "role",
          "type": "bytes32"
        },
        {
          "internalType": "address",
          "name": "account",
          "type": "address"
        }
      ],
      "name": "renounceRole",
      "outputs": [],
      "stateMutability": "nonpayable",
      "type": "function"
    },
    {
      "inputs": [
        {
          "internalType": "bytes32",
          "name": "role",
          "type": "bytes32"
        },
        {
          "internalType": "address",
          "name": "account",
          "type": "address"
        }
      ],
      "name": "revokeRole",
      "outputs": [],
      "stateMutability": "nonpayable",
      "type": "function"
    },
    {
      "inputs": [
        {
          "internalType": "address",
          "name": "_sideBridgeAddress",
          "type": "address"
        }
      ],
      "name": "setSideBridge",
      "outputs": [],
      "stateMutability": "nonpayable",
      "type": "function"
    },
    {
      "inputs": [],
      "name": "sideBridgeAddress",
      "outputs": [
        {
          "internalType": "address",
          "name": "",
          "type": "address"
        }
      ],
      "stateMutability": "view",
      "type": "function"
    },
    {
      "inputs": [
        {
          "internalType": "uint256",
          "name": "eventId",
          "type": "uint256"
        }
      ],
      "name": "skipTransfers",
      "outputs": [],
      "stateMutability": "nonpayable",
      "type": "function"
    },
    {
      "inputs": [
        {
          "components": [
            {
              "components": [
                {
                  "internalType": "bytes3",
                  "name": "p0Signed",
                  "type": "bytes3"
                },
                {
                  "internalType": "bytes3",
                  "name": "p0Unsigned",
                  "type": "bytes3"
                },
                {
                  "internalType": "bytes32",
                  "name": "parentHash",
                  "type": "bytes32"
                },
                {
                  "internalType": "bytes",
                  "name": "p1",
                  "type": "bytes"
                },
                {
                  "internalType": "bytes32",
                  "name": "receiptHash",
                  "type": "bytes32"
                },
                {
                  "internalType": "bytes",
                  "name": "p2",
                  "type": "bytes"
                },
                {
                  "internalType": "bytes",
                  "name": "number",
                  "type": "bytes"
                },
                {
                  "internalType": "bytes",
                  "name": "p3",
                  "type": "bytes"
                },
                {
                  "internalType": "bytes",
                  "name": "p4Signed",
                  "type": "bytes"
                },
                {
                  "internalType": "bytes",
                  "name": "p4Unsigned",
                  "type": "bytes"
                },
                {
                  "internalType": "bytes",
                  "name": "extraData",
                  "type": "bytes"
                },
                {
                  "internalType": "bytes",
                  "name": "p5",
                  "type": "bytes"
                }
              ],
              "internalType": "struct CheckPoSA.BlockPoSA[]",
              "name": "blocks",
              "type": "tuple[]"
            },
            {
              "components": [
                {
                  "internalType": "bytes[]",
                  "name": "receiptProof",
                  "type": "bytes[]"
                },
                {
                  "internalType": "uint256",
                  "name": "eventId",
                  "type": "uint256"
                },
                {
                  "components": [
                    {
                      "internalType": "address",
                      "name": "tokenAddress",
                      "type": "address"
                    },
                    {
                      "internalType": "address",
                      "name": "toAddress",
                      "type": "address"
                    },
                    {
                      "internalType": "uint256",
                      "name": "amount",
                      "type": "uint256"
                    }
                  ],
                  "internalType": "struct CommonStructs.Transfer[]",
                  "name": "transfers",
                  "type": "tuple[]"
                }
              ],
              "internalType": "struct CommonStructs.TransferProof",
              "name": "transfer",
              "type": "tuple"
            },
            {
              "internalType": "uint64",
              "name": "transferEventBlock",
              "type": "uint64"
            }
          ],
          "internalType": "struct CheckPoSA.PoSAProof",
          "name": "posaProof",
          "type": "tuple"
        }
      ],
      "name": "submitTransferPoSA",
      "outputs": [],
      "stateMutability": "nonpayable",
      "type": "function"
    },
    {
      "inputs": [
        {
          "components": [
            {
              "components": [
                {
                  "internalType": "bytes3",
                  "name": "p0Signed",
                  "type": "bytes3"
                },
                {
                  "internalType": "bytes3",
                  "name": "p0Unsigned",
                  "type": "bytes3"
                },
                {
                  "internalType": "bytes32",
                  "name": "parentHash",
                  "type": "bytes32"
                },
                {
                  "internalType": "bytes",
                  "name": "p1",
                  "type": "bytes"
                },
                {
                  "internalType": "bytes32",
                  "name": "receiptHash",
                  "type": "bytes32"
                },
                {
                  "internalType": "bytes",
                  "name": "p2",
                  "type": "bytes"
                },
                {
                  "internalType": "bytes",
                  "name": "number",
                  "type": "bytes"
                },
                {
                  "internalType": "bytes",
                  "name": "p3",
                  "type": "bytes"
                },
                {
                  "internalType": "bytes",
                  "name": "p4Signed",
                  "type": "bytes"
                },
                {
                  "internalType": "bytes",
                  "name": "p4Unsigned",
                  "type": "bytes"
                },
                {
                  "internalType": "bytes",
                  "name": "extraData",
                  "type": "bytes"
                },
                {
                  "internalType": "bytes",
                  "name": "p5",
                  "type": "bytes"
                }
              ],
              "internalType": "struct CheckPoSA.BlockPoSA[]",
              "name": "blocks",
              "type": "tuple[]"
            },
            {
              "components": [
                {
                  "internalType": "bytes[]",
                  "name": "receiptProof",
                  "type": "bytes[]"
                },
                {
                  "internalType": "uint256",
                  "name": "eventId",
                  "type": "uint256"
                },
                {
                  "components": [
                    {
                      "internalType": "address",
                      "name": "tokenAddress",
                      "type": "address"
                    },
                    {
                      "internalType": "address",
                      "name": "toAddress",
                      "type": "address"
                    },
                    {
                      "internalType": "uint256",
                      "name": "amount",
                      "type": "uint256"
                    }
                  ],
                  "internalType": "struct CommonStructs.Transfer[]",
                  "name": "transfers",
                  "type": "tuple[]"
                }
              ],
              "internalType": "struct CommonStructs.TransferProof",
              "name": "transfer",
              "type": "tuple"
            },
            {
              "internalType": "uint64",
              "name": "transferEventBlock",
              "type": "uint64"
            }
          ],
          "internalType": "struct CheckPoSA.PoSAProof",
          "name": "posaProof",
          "type": "tuple"
        }
      ],
      "name": "submitValidatorSetChangesPoSA",
      "outputs": [],
      "stateMutability": "nonpayable",
      "type": "function"
    },
    {
      "inputs": [
        {
          "internalType": "bytes4",
          "name": "interfaceId",
          "type": "bytes4"
        }
      ],
      "name": "supportsInterface",
      "outputs": [
        {
          "internalType": "bool",
          "name": "",
          "type": "bool"
        }
      ],
      "stateMutability": "view",
      "type": "function"
    },
    {
      "inputs": [],
      "name": "timeframeSeconds",
      "outputs": [
        {
          "internalType": "uint256",
          "name": "",
          "type": "uint256"
        }
      ],
      "stateMutability": "view",
      "type": "function"
    },
    {
      "inputs": [
        {
          "internalType": "address",
          "name": "",
          "type": "address"
        }
      ],
      "name": "tokenAddresses",
      "outputs": [
        {
          "internalType": "address",
          "name": "",
          "type": "address"
        }
      ],
      "stateMutability": "view",
      "type": "function"
    },
    {
      "inputs": [
        {
          "internalType": "address",
          "name": "tokenThisAddress",
          "type": "address"
        },
        {
          "internalType": "address",
          "name": "tokenSideAddress",
          "type": "address"
        }
      ],
      "name": "tokensAdd",
      "outputs": [],
      "stateMutability": "nonpayable",
      "type": "function"
    },
    {
      "inputs": [
        {
          "internalType": "address[]",
          "name": "tokenThisAddresses",
          "type": "address[]"
        },
        {
          "internalType": "address[]",
          "name": "tokenSideAddresses",
          "type": "address[]"
        }
      ],
      "name": "tokensAddBatch",
      "outputs": [],
      "stateMutability": "nonpayable",
      "type": "function"
    },
    {
      "inputs": [
        {
          "internalType": "address",
          "name": "tokenThisAddress",
          "type": "address"
        }
      ],
      "name": "tokensRemove",
      "outputs": [],
      "stateMutability": "nonpayable",
      "type": "function"
    },
    {
      "inputs": [
        {
          "internalType": "address[]",
          "name": "tokenThisAddresses",
          "type": "address[]"
        }
      ],
      "name": "tokensRemoveBatch",
      "outputs": [],
      "stateMutability": "nonpayable",
      "type": "function"
    },
    {
      "inputs": [],
      "name": "transferFeeRecipient",
      "outputs": [
        {
          "internalType": "address payable",
          "name": "",
          "type": "address"
        }
      ],
      "stateMutability": "view",
      "type": "function"
    },
    {
      "inputs": [],
      "name": "triggerTransfers",
      "outputs": [],
      "stateMutability": "nonpayable",
      "type": "function"
    },
    {
      "inputs": [
        {
          "internalType": "uint256",
          "name": "eventId",
          "type": "uint256"
        }
      ],
      "name": "unlockTransfers",
      "outputs": [],
      "stateMutability": "nonpayable",
      "type": "function"
    },
    {
      "inputs": [],
      "name": "unlockTransfersBatch",
      "outputs": [],
      "stateMutability": "nonpayable",
      "type": "function"
    },
    {
      "inputs": [],
      "name": "unpause",
      "outputs": [],
      "stateMutability": "nonpayable",
      "type": "function"
    },
    {
      "inputs": [
        {
          "internalType": "address",
          "name": "tokenThisAddress",
          "type": "address"
        },
        {
          "internalType": "address",
          "name": "toAddress",
          "type": "address"
        },
        {
          "internalType": "uint256",
          "name": "amount",
          "type": "uint256"
        },
        {
          "internalType": "bool",
          "name": "unwrapSide",
          "type": "bool"
        },
        {
          "internalType": "bytes",
          "name": "feeSignature",
          "type": "bytes"
        },
        {
          "internalType": "uint256",
          "name": "transferFee",
          "type": "uint256"
        },
        {
          "internalType": "uint256",
          "name": "bridgeFee",
          "type": "uint256"
        }
      ],
      "name": "withdraw",
      "outputs": [],
      "stateMutability": "payable",
      "type": "function"
    },
    {
      "inputs": [
        {
          "internalType": "address",
          "name": "toAddress",
          "type": "address"
        },
        {
          "internalType": "bytes",
          "name": "feeSignature",
          "type": "bytes"
        },
        {
          "internalType": "uint256",
          "name": "transferFee",
          "type": "uint256"
        },
        {
          "internalType": "uint256",
          "name": "bridgeFee",
          "type": "uint256"
        }
      ],
      "name": "wrapWithdraw",
      "outputs": [],
      "stateMutability": "payable",
      "type": "function"
    },
    {
      "inputs": [],
      "name": "wrapperAddress",
      "outputs": [
        {
          "internalType": "address",
          "name": "",
          "type": "address"
        }
      ],
      "stateMutability": "view",
      "type": "function"
    },
    {
      "stateMutability": "payable",
      "type": "receive"
    }
  ],
  "transactionHash": "0xb3e6c87d025807cf1082f83384020d49deb2e04e348a2acbe6a141d850ba8afe",
  "args": [],
  "numDeployments": 1,
  "solcInputHash": "13963204c1e3ae6f33bd8024ced50cd9",
  "bytecode": "0x608060405234801561001057600080fd5b50614544806100206000396000f3fe6080604052600436106102ec5760003560e060020a90048063853890ae11610194578063b87330e9116100e0578063d83a358f11610099578063f700558711610073578063f7005587146108de578063f862b7eb146108fe578063f8b744331461091e578063fd5d2ef31461093157600080fd5b8063d83a358f14610871578063e31be08714610891578063f33fe10f146108be57600080fd5b8063b87330e9146107b1578063ba8bbbe0146107d1578063baeebe75146107e7578063cf3317d3146107fd578063d3b89f491461081d578063d547741f1461085157600080fd5b8063924cf6e01161014d578063a217fddf11610127578063a217fddf14610712578063a9b1cf0b14610727578063aa9cea381461075b578063b6d3385e1461077b57600080fd5b8063924cf6e0146106c657806396cf5227146106dc57806399b5bb64146106fc57600080fd5b8063853890ae1461062857806386d7679e146106485780638ac1f86f1461065e5780638e5df9c71461067357806391c5bc0a1461069357806391d14854146106a657600080fd5b806336568abe116102535780635249a7051161020c57806375b238fc116101e657806375b238fc146105bb57806376671808146105dd5780637df8b802146105f35780638456cb591461061357600080fd5b80635249a7051461056e5780635c975abb1461058e578063746b5c42146105a657600080fd5b806336568abe146104a9578063390d5388146104c95780633928b296146104e95780633f4ba83a1461050957806342180fb81461051e5780634a1856de1461053e57600080fd5b8063297c2677116102a5578063297c2677146103e557806329a9659d146103fb5780632bbba8471461041b5780632f2ff15d14610431578063304561bb14610451578063331a891a1461048957600080fd5b806301ffc9a7146102f8578063044218231461032d57806309fce3561461035d5780630d6680871461037f57806321d3d53614610395578063248a9ca3146103b557600080fd5b366102f357005b600080fd5b34801561030457600080fd5b50610318610313366004613a9e565b610951565b60405190151581526020015b60405180910390f35b34801561033957600080fd5b5061034f6000805160206144cf83398151915281565b604051908152602001610324565b34801561036957600080fd5b5061037d610378366004613997565b6109e4565b005b34801561038b57600080fd5b5061034f60d45481565b3480156103a157600080fd5b5061037d6103b0366004613804565b610a10565b3480156103c157600080fd5b5061034f6103d0366004613a60565b60009081526065602052604090206001015490565b3480156103f157600080fd5b5061034f60d65481565b34801561040757600080fd5b5061037d610416366004613add565b610aa0565b34801561042757600080fd5b5060ca5415610318565b34801561043d57600080fd5b5061037d61044c366004613a79565b610b29565b34801561045d57600080fd5b5060cf5461047190600160a060020a031681565b604051600160a060020a039091168152602001610324565b34801561049557600080fd5b5061037d6104a4366004613a60565b610b54565b3480156104b557600080fd5b5061037d6104c4366004613a79565b610c6b565b3480156104d557600080fd5b5060d05461047190600160a060020a031681565b3480156104f557600080fd5b5061037d610504366004613804565b610cf6565b34801561051557600080fd5b5061037d610d32565b34801561052a57600080fd5b5061037d610539366004613a60565b610d56565b34801561054a57600080fd5b5061034f610559366004613a60565b60cb6020526000908152604090206001015481565b34801561057a57600080fd5b5061037d610589366004613955565b610d93565b34801561059a57600080fd5b5060975460ff16610318565b3480156105b257600080fd5b5061037d610e1c565b3480156105c757600080fd5b5061034f6000805160206144ef83398151915281565b3480156105e957600080fd5b5061034f60e85481565b3480156105ff57600080fd5b5060ce5461047190600160a060020a031681565b34801561061f57600080fd5b5061037d610ec8565b34801561063457600080fd5b5061037d610643366004613821565b610efb565b34801561065457600080fd5b5061034f60d75481565b34801561066a57600080fd5b5061037d610f43565b34801561067f57600080fd5b5061037d61068e366004613804565b61109b565b61037d6106a13660046138ee565b6110dc565b3480156106b257600080fd5b506103186106c1366004613a79565b61140c565b3480156106d257600080fd5b5061034f60d25481565b3480156106e857600080fd5b5061037d6106f7366004613a60565b611437565b34801561070857600080fd5b5061034f60d55481565b34801561071e57600080fd5b5061034f600081565b34801561073357600080fd5b5061034f7fb7f2fcb7a10916921b74b9baa8ea85f89b12ab12f6ededa160998f8b20e65f9581565b34801561076757600080fd5b5061037d610776366004613b7b565b611456565b34801561078757600080fd5b50610471610796366004613804565b60cd60205260009081526040902054600160a060020a031681565b3480156107bd57600080fd5b5061037d6107cc366004613804565b611539565b3480156107dd57600080fd5b5061034f60cc5481565b3480156107f357600080fd5b5061034f60d35481565b34801561080957600080fd5b5061037d610818366004613a60565b611575565b34801561082957600080fd5b5061034f7f516d5e7ed3e60a6b2804c1554cd94bc2eb576e44b192a0e069d4c527589a887e81565b34801561085d57600080fd5b5061037d61086c366004613a79565b6115ec565b34801561087d57600080fd5b5061037d61088c366004613b7b565b611612565b34801561089d57600080fd5b506108b16108ac366004613a60565b61166b565b60405161032491906140db565b3480156108ca57600080fd5b5060d15461047190600160a060020a031681565b3480156108ea57600080fd5b5061037d6108f9366004613a60565b611727565b34801561090a57600080fd5b5061037d610919366004613a60565b611746565b61037d61092c36600461385a565b611979565b34801561093d57600080fd5b5061037d61094c366004613a60565b611dd9565b60007bffffffffffffffffffffffffffffffffffffffffffffffffffffffff1982167f7965db0b0000000000000000000000000000000000000000000000000000000014806109de57507f01ffc9a7000000000000000000000000000000000000000000000000000000007bffffffffffffffffffffffffffffffffffffffffffffffffffffffff198316145b92915050565b6000805160206144ef8339815191526109fd8133611df8565b610a0985858585611e5f565b5050505050565b6000610a1c8133611df8565b60d154600160a060020a031615610a7d5760405160e560020a62461bcd02815260206004820152601d60248201527f736964654272696467654164647265737320616c72656164792073657400000060448201526064015b60405180910390fd5b5060d18054600160a060020a031916600160a060020a0392909216919091179055565b600054610100900460ff1680610ab9575060005460ff16155b610ad85760405160e560020a62461bcd028152600401610a7490614021565b600054610100900460ff16158015610afa576000805461ffff19166101011790555b610b0386611f78565b610b0f85858585612154565b8015610b21576000805461ff00191690555b505050505050565b600082815260656020526040902060010154610b458133611df8565b610b4f83836122d9565b505050565b6000805160206144ef833981519152610b6d8133611df8565b60975460ff16610b925760405160e560020a62461bcd028152600401610a7490613fb3565b60cc54821015610bb75760405160e560020a62461bcd028152600401610a749061407e565b60d554821115610c0c5760405160e560020a62461bcd02815260206004820152601f60248201527f6576656e744964206d757374206265203c3d20696e7075744576656e744964006044820152606401610a74565b610c176001836142de565b60d5555b600082815260cb602052604090206001015415610c6757600082815260cb6020526040812090610c4b828261372b565b5060006001919091015581610c5f816143b9565b925050610c1b565b5050565b600160a060020a0381163314610cec5760405160e560020a62461bcd02815260206004820152602f60248201527f416363657373436f6e74726f6c3a2063616e206f6e6c792072656e6f756e636560448201527f20726f6c657320666f722073656c6600000000000000000000000000000000006064820152608401610a74565b610c67828261235f565b6000805160206144ef833981519152610d0f8133611df8565b5060d08054600160a060020a031916600160a060020a0392909216919091179055565b6000805160206144ef833981519152610d4b8133611df8565b610d536123c6565b50565b6000805160206144ef833981519152610d6f8133611df8565b8160d35460d754610d8091906142bf565b610d8a91906142ab565b60d7555060d355565b6000805160206144ef833981519152610dac8133611df8565b8160005b81811015610a095760cd6000868684818110610dce57610dce61441a565b9050602002016020810190610de39190613804565b600160a060020a0316815260208101919091526040016000208054600160a060020a031916905580610e14816143b9565b915050610db0565b60ca54610e6e5760405160e560020a62461bcd02815260206004820152600e60248201527f517565756520697320656d7074790000000000000000000000000000000000006044820152606401610a74565b60d68054906000610e7e836143b9565b919050557fe15729a2f427aa4572dab35eb692c902fcbce57d41642013259c741380809ae260ca604051610eb29190613f10565b60405180910390a2610ec660ca600061372b565b565b7fb7f2fcb7a10916921b74b9baa8ea85f89b12ab12f6ededa160998f8b20e65f95610ef38133611df8565b610d53612435565b6000805160206144ef833981519152610f148133611df8565b50600160a060020a03918216600090815260cd602052604090208054600160a060020a03191691909216179055565b60975460ff1615610f695760405160e560020a62461bcd028152600401610a7490613fea565b60cc545b600081815260cb60209081526040808320815181546060948102820185018452928101838152909391928492849190879085015b82821015610ffb57600084815260209081902060408051606081018252600386029092018054600160a060020a03908116845260018083015490911684860152600290910154918301919091529083529092019101610fa1565b50505050815260200160018201548152505090508060200151600014806110255750428160200151115b15611030575060cc55565b805161103b90612490565b600082815260cb6020526040812090611054828261372b565b50600060019190910181905560405183917f78ff9b3176bb0d6421590f3816e75cb15a9ffa2b7a1a028f40a3f4e029eb39f291a25080611093816143b9565b915050610f6d565b6000805160206144ef8339815191526110b48133611df8565b50600160a060020a0316600090815260cd602052604090208054600160a060020a0319169055565b60ce54600160a060020a03908116600090815260cd6020526040902054168061114a5760405160e560020a62461bcd02815260206004820152601560248201527f556e6b6e6f776e20746f6b656e206164647265737300000000000000000000006044820152606401610a74565b6111548284614293565b34116111a55760405160e560020a62461bcd02815260206004820152601160248201527f53656e742076616c7565203c3d206665650000000000000000000000000000006044820152606401610a74565b6000826111b285346142de565b6111bc91906142de565b60ce549091506111d990600160a060020a03168787878786612724565b60cf54604051600160a060020a039091169085156108fc029086906000818181858888f19350505050158015611213573d6000803e3d6000fd5b5060d054604051600160a060020a039091169084156108fc029085906000818181858888f1935050505015801561124e573d6000803e3d6000fd5b5060ce60009054906101000a9004600160a060020a0316600160a060020a031663d0e30db0826040518263ffffffff1660e060020a0281526004016000604051808303818588803b1580156112a257600080fd5b505af11580156112b6573d6000803e3d6000fd5b505060408051606081018252600160a060020a0380881682528c81166020830190815282840188815260ca80546001810182556000918252945160039095027f42d72674974f694b5f5159593243114d38a5c39c89d6b62fee061ff523240ee181018054968616600160a060020a031997881617905592517f42d72674974f694b5f5159593243114d38a5c39c89d6b62fee061ff523240ee2840180549190951695169490941790925590517f42d72674974f694b5f5159593243114d38a5c39c89d6b62fee061ff523240ee39091015560d65491513395507f3b823d3b837159352faddd1e0b9e9f584ca2bfe976238f6a9e6da4615cf2f44494506113f39350879087908b908b90958652600160a060020a0394851660208701529290931660408501526060840152608083019190915260a082015260c00190565b60405180910390a26114036128ca565b50505050505050565b6000918252606560209081526040808420600160a060020a0393909316845291905290205460ff1690565b6000805160206144ef8339815191526114508133611df8565b5060d455565b6000805160206144cf83398151915261146f8133611df8565b60975460ff16156114955760405160e560020a62461bcd028152600401610a7490613fea565b6114a26020830183614253565b602001357f196c47048e38df7a4fe6e581c8f4f2e2ba67ac0dd45b90da756e97bd61d9dd3b60405160405180910390a26114eb6114e26020840184614253565b60200135612942565b60d25460d154611505918491600160a060020a03166129a7565b610c676115156020840184614253565b6115239060408101906141a2565b6115306020860186614253565b60200135612d46565b6000805160206144ef8339815191526115528133611df8565b5060cf8054600160a060020a031916600160a060020a0392909216919091179055565b6000805160206144ef83398151915261158e8133611df8565b60975460ff166115b35760405160e560020a62461bcd028152600401610a7490613fb3565b60cc548210156115d85760405160e560020a62461bcd028152600401610a749061407e565b6115e36001836142de565b60d5555060cc55565b6000828152606560205260409020600101546116088133611df8565b610b4f838361235f565b6000805160206144cf83398151915261162b8133611df8565b60975460ff16156116515760405160e560020a62461bcd028152600401610a7490613fea565b60d25460d154610c67918491600160a060020a03166129a7565b604080518082019091526060815260006020820152600082815260cb60209081526040808320815181546060948102820185018452928101838152909491938593919285929185015b8282101561170e57600084815260209081902060408051606081018252600386029092018054600160a060020a039081168452600180830154909116848601526002909101549183019190915290835290920191016116b4565b5050505081526020016001820154815250509050919050565b6000805160206144ef8339815191526117408133611df8565b5060c955565b60975460ff161561176c5760405160e560020a62461bcd028152600401610a7490613fea565b60cc5481146117c05760405160e560020a62461bcd02815260206004820152601c60248201527f63616e20756e6c6f636b206f6e6c79206f6c64657374206576656e74000000006044820152606401610a74565b600081815260cb60209081526040808320815181546060948102820185018452928101838152909391928492849190879085015b8282101561184e57600084815260209081902060408051606081018252600386029092018054600160a060020a039081168452600180830154909116848601526002909101549183019190915290835290920191016117f4565b505050508152602001600182015481525050905060008160200151116118b95760405160e560020a62461bcd02815260206004820181905260248201527f6e6f206c6f636b6564207472616e7366657273207769746820746869732069646044820152606401610a74565b4281602001511061190f5760405160e560020a62461bcd02815260206004820152601b60248201527f6c6f636b54696d6520686173206e6f74207965742070617373656400000000006044820152606401610a74565b805161191a90612490565b600082815260cb6020526040812090611933828261372b565b50600060019190910181905560405183917f78ff9b3176bb0d6421590f3816e75cb15a9ffa2b7a1a028f40a3f4e029eb39f291a2611972826001614293565b60cc555050565b60008515611a0e576000805260cd6020527fcd565b10a72538d86f6d352f37ebc5dff31587960b12c0afe00fd03947a6932a54600160a060020a038a8116911614611a095760405160e560020a62461bcd02815260206004820152601f60248201527f546f6b656e206e6f7420706f696e7420746f206e617469766520746f6b656e006044820152606401610a74565b611a7a565b50600160a060020a03808916600090815260cd60205260409020541680611a7a5760405160e560020a62461bcd02815260206004820152601560248201527f556e6b6e6f776e20746f6b656e206164647265737300000000000000000000006044820152606401610a74565b611a848284614293565b3414611ad55760405160e560020a62461bcd02815260206004820152601160248201527f53656e742076616c756520213d206665650000000000000000000000000000006044820152606401610a74565b60008711611b285760405160e560020a62461bcd02815260206004820152601160248201527f43616e6e6f7420776974686472617720300000000000000000000000000000006044820152606401610a74565b611b3689868686868c612724565b60cf54604051600160a060020a039091169084156108fc029085906000818181858888f19350505050158015611b70573d6000803e3d6000fd5b5060d054604051600160a060020a039091169083156108fc029084906000818181858888f19350505050158015611bab573d6000803e3d6000fd5b506040517f23b872dd00000000000000000000000000000000000000000000000000000000815233600482015230602482015260448101889052600160a060020a038a16906323b872dd90606401602060405180830381600087803b158015611c1357600080fd5b505af1158015611c27573d6000803e3d6000fd5b505050506040513d601f19601f82011682018060405250810190611c4b9190613a03565b611c9a5760405160e560020a62461bcd02815260206004820152601360248201527f4661696c207472616e7366657220636f696e73000000000000000000000000006044820152606401610a74565b6040805160608082018352600160a060020a038481168084528c821660208086019182528587018e815260ca8054600181018255600091909152965160039097027f42d72674974f694b5f5159593243114d38a5c39c89d6b62fee061ff523240ee181018054988716600160a060020a0319998a1617905592517f42d72674974f694b5f5159593243114d38a5c39c89d6b62fee061ff523240ee284018054918716919098161790965594517f42d72674974f694b5f5159593243114d38a5c39c89d6b62fee061ff523240ee39091015560d6548551908152918e16938201939093529283019190915281018890526080810184905260a0810183905233907f3b823d3b837159352faddd1e0b9e9f584ca2bfe976238f6a9e6da4615cf2f4449060c00160405180910390a2611dce6128ca565b505050505050505050565b6000805160206144ef833981519152611df28133611df8565b5060d255565b611e02828261140c565b610c6757611e1a81600160a060020a03166014612dda565b611e25836020612dda565b604051602001611e36929190613e1f565b60408051601f198184030181529082905260e560020a62461bcd028252610a7491600401613f80565b828114611ed75760405160e560020a62461bcd02815260206004820152603f60248201527f73697a6573206f6620746f6b656e5468697341646472657373657320616e642060448201527f746f6b656e53696465416464726573736573206d7573742062652073616d65006064820152608401610a74565b8260005b81811015610b2157838382818110611ef557611ef561441a565b9050602002016020810190611f0a9190613804565b60cd6000888885818110611f2057611f2061441a565b9050602002016020810190611f359190613804565b600160a060020a03908116825260208201929092526040016000208054600160a060020a0319169290911691909117905580611f70816143b9565b915050611edb565b600054610100900460ff1680611f91575060005460ff16155b611fb05760405160e560020a62461bcd028152600401610a7490614021565b600054610100900460ff16158015611fd2576000805461ffff19166101011790555b611fdd600033612fc7565b6120046000805160206144cf833981519152611fff6060850160408601613804565b612fc7565b6120266000805160206144ef833981519152611fff6040850160208601613804565b6120486120366080840184614159565b61204360a0860186614159565b611e5f565b6120586080830160608401613804565b60ce8054600160a060020a031916600160a060020a03929092169190911790556120856020830183613804565b60d18054600160a060020a031916600160a060020a03929092169190911790556120b560e0830160c08401613804565b60cf8054600160a060020a031916600160a060020a03929092169190911790556120e6610100830160e08401613804565b60d08054600160a060020a031916600160a060020a039290921691909117905561014082013560d25561010082013560d381905561012083013560d455600160cc81905560d655600360c95561213c90426142ab565b60d7558015610c67576000805461ff00191690555050565b600054610100900460ff168061216d575060005460ff16155b61218c5760405160e560020a62461bcd028152600401610a7490614021565b600054610100900460ff161580156121ae576000805461ffff19166101011790555b836122245760405160e560020a62461bcd02815260206004820152603260248201527f4c656e677468206f66205f696e697469616c56616c696461746f7273206d757360448201527f7420626520626967676572207468616e203000000000000000000000000000006064820152608401610a74565b60ea805460ff191660f860020a840417905560e883905560e984905560005b848110156122c05760e854600090815260e7602052604081206001918888858181106122715761227161441a565b90506020020160208101906122869190613804565b600160a060020a031681526020810191909152604001600020805460ff1916911515919091179055806122b8816143b9565b915050612243565b508015610a09576000805461ff00191690555050505050565b6122e3828261140c565b610c67576000828152606560209081526040808320600160a060020a03851684529091529020805460ff1916600117905561231b3390565b600160a060020a031681600160a060020a0316837f2f8788117e7eff1d82e926ec794901d17c78024a50270940304540a733656f0d60405160405180910390a45050565b612369828261140c565b15610c67576000828152606560209081526040808320600160a060020a0385168085529252808320805460ff1916905551339285917ff6391f5c32d9c69d2a47ea670b442974b53935d1edc7fd64eb21e047a839171b9190a45050565b60975460ff166123eb5760405160e560020a62461bcd028152600401610a7490613fb3565b6097805460ff191690557f5db9ee0a495bf2e6ff9c91a7834c1ba4fdd244a5e8aa4e537bd38aeae4b073aa335b604051600160a060020a03909116815260200160405180910390a1565b60975460ff161561245b5760405160e560020a62461bcd028152600401610a7490613fea565b6097805460ff191660011790557f62e78cea01bee320cd4e420270b5ea74000d11b0c9f74754ebdbfc544b05a2586124183390565b60005b8151811015610c67576000600160a060020a03168282815181106124b9576124b961441a565b602002602001015160000151600160a060020a031614156125d55760ce548251600160a060020a0390911690632e1a7d4d908490849081106124fd576124fd61441a565b6020026020010151604001516040518263ffffffff1660e060020a02815260040161252a91815260200190565b600060405180830381600087803b15801561254457600080fd5b505af1158015612558573d6000803e3d6000fd5b5050505081818151811061256e5761256e61441a565b602002602001015160200151600160a060020a03166108fc8383815181106125985761259861441a565b6020026020010151604001519081150290604051600060405180830381858888f193505050501580156125cf573d6000803e3d6000fd5b50612712565b8181815181106125e7576125e761441a565b602002602001015160000151600160a060020a031663a9059cbb8383815181106126135761261361441a565b6020026020010151602001518484815181106126315761263161441a565b6020026020010151604001516040518363ffffffff1660e060020a028152600401612671929190600160a060020a03929092168252602082015260400190565b602060405180830381600087803b15801561268b57600080fd5b505af115801561269f573d6000803e3d6000fd5b505050506040513d601f19601f820116820180604052508101906126c39190613a03565b6127125760405160e560020a62461bcd02815260206004820152601360248201527f4661696c207472616e7366657220636f696e73000000000000000000000000006044820152606401610a74565b8061271c816143b9565b915050612493565b60008080612734610708426142ab565b905060005b60c95481101561287e576040516c01000000000000000000000000600160a060020a038c160260208201526034810183905260548101889052607481018790526094810186905260b40160408051601f198184030181529082905280516020918201207f19457468657265756d205369676e6564204d6573736167653a0a33320000000091830191909152603c820152605c01604051602081830303815290604052805190602001209350612824848a8a8080601f016020809104026020016040519081016040528093929190818152602001838380828437600092019190915250612fd192505050565b92506128507f516d5e7ed3e60a6b2804c1554cd94bc2eb576e44b192a0e069d4c527589a887e8461140c565b1561285e5750505050610b21565b81612868816143a2565b9250508080612876906143b9565b915050612739565b5060405160e560020a62461bcd02815260206004820152601660248201527f5369676e617475726520636865636b206661696c6564000000000000000000006044820152606401610a74565b600060d354426128da91906142ab565b905060d7548114610d535760d680549060006128f5836143b9565b919050557fe15729a2f427aa4572dab35eb692c902fcbce57d41642013259c741380809ae260ca6040516129299190613f10565b60405180910390a261293d60ca600061372b565b60d755565b60d560008154612951906143b9565b91829055508114610d535760405160e560020a62461bcd02815260206004820152601460248201527f4576656e744964206f7574206f66206f726465720000000000000000000000006044820152606401610a74565b60008080806129b96020880188614253565b6020013515612af95760006129da6129d460208a018a614253565b8761305c565b9050806129e78980614159565b6129f760608c0160408d01613bb6565b67ffffffffffffffff16818110612a1057612a1061441a565b9050602002810190612a229190614232565b6080013514612a765760405160e560020a62461bcd02815260206004820181905260248201527f5472616e73666572206576656e742076616c69646174696f6e206661696c65646044820152606401610a74565b86612a8760608a0160408b01613bb6565b67ffffffffffffffff16612a9b8a80614159565b612aa69291506142de565b1015612af75760405160e560020a62461bcd02815260206004820152601860248201527f4e6f7420656e6f7567682073616665747920626c6f636b7300000000000000006044820152606401610a74565b505b60005b612b068880614159565b9050811015612d3c5736612b1a8980614159565b83818110612b2a57612b2a61441a565b9050602002810190612b3c9190614232565b90508415612b9a5784816040013514612b9a5760405160e560020a62461bcd02815260206004820152601160248201527f57726f6e6720706172656e7420686173680000000000000000000000000000006044820152606401610a74565b612ba3816131a0565b9096509450612bc786612bc2612bbd6101408501856141eb565b613319565b613352565b612c165760405160e560020a62461bcd02815260206004820152601160248201527f696e76616c6964207369676e61747572650000000000000000000000000000006044820152606401610a74565b6000612c2d612c2860c08401846141eb565b6133c8565b9050612c3a60c8826143d4565b612cdf5760e854612c4c906001614293565b612c5760c8836142ab565b14612ca75760405160e560020a62461bcd02815260206004820152600d60248201527f696e76616c69642065706f6368000000000000000000000000000000000000006044820152606401610a74565b612cbd612cb86101408401846141eb565b6133fa565b9350600260e954612cce91906142ab565b612cd89082614293565b9450612d27565b84811415612d275760e88054906000612cf7836143b9565b909155505060e9849055612d1160608b0160408c01613bb6565b67ffffffffffffffff16831015612d2757600095505b50508080612d34906143b9565b915050612afc565b5050505050505050565b60d454612d539042614293565b600082815260cb60205260408120600101919091555b82811015612dd457600082815260cb60205260409020848483818110612d9157612d9161441a565b835460018101855560009485526020909420606090910292909201926003029091019050612dbf828261444c565b50508080612dcc906143b9565b915050612d69565b50505050565b60606000612de98360026142bf565b612df4906002614293565b67ffffffffffffffff811115612e0c57612e0c614433565b6040519080825280601f01601f191660200182016040528015612e36576020820181803683370190505b5090507f300000000000000000000000000000000000000000000000000000000000000081600081518110612e6d57612e6d61441a565b6020010190600160f860020a031916908160001a9053507f780000000000000000000000000000000000000000000000000000000000000081600181518110612eb857612eb861441a565b6020010190600160f860020a031916908160001a9053506000612edc8460026142bf565b612ee7906001614293565b90505b6001811115612f6e577f303132333435363738396162636465660000000000000000000000000000000085600f1660108110612f2857612f2861441a565b1a60f860020a02828281518110612f4157612f4161441a565b6020010190600160f860020a031916908160001a905350601090940493612f67816143a2565b9050612eea565b508315612fc05760405160e560020a62461bcd02815260206004820181905260248201527f537472696e67733a20686578206c656e67746820696e73756666696369656e746044820152606401610a74565b9392505050565b610c6782826122d9565b6020810151604082015160608301516000929190831a601b811015612ff457601b015b60408051600081526020810180835288905260ff831691810191909152606081018490526080810183905260019060a0016020604051602081039080840390855afa158015613047573d6000803e3d6000fd5b5050604051601f190151979650505050505050565b6000806130698480614159565b600081811061307a5761307a61441a565b905060200281019061308c91906141eb565b846130978780614159565b60018181106130a8576130a861441a565b90506020028101906130ba91906141eb565b6130c789602001356134bd565b6130d18a80614159565b60028181106130e2576130e261441a565b90506020028101906130f491906141eb565b61310160408d018d6141a2565b604051602001613112929190613ea0565b60408051601f1981840301815291905261312c8d80614159565b600381811061313d5761313d61441a565b905060200281019061314f91906141eb565b6040516020016131699b9a99989796959493929190613d5d565b60408051601f19818403018152919052805160209091012090506131986131908580614159565b83600461360d565b949350505050565b600080807fa00000000000000000000000000000000000000000000000000000000000000060408501356131d760608701876141eb565b60808801356131e960a08a018a6141eb565b6131f660c08c018c6141eb565b61320360e08e018e6141eb565b60405160200161321d9b9a99989796959493929190613be0565b60408051601f1981840301815291815290915061323f90850160208601613a20565b60ea5460f860020a02826132576101208801886141eb565b61326d6132686101408b018b6141eb565b6136d1565b61327b6101608b018b6141eb565b604051602001613292989796959493929190613c4d565b60408051601f198184030181529190528051602091820120906132b790860186613a20565b826132c66101008801886141eb565b6132d46101408a018a6141eb565b6132e26101608c018c6141eb565b6040516020016132f9989796959493929190613ce0565b604051602081830303815290604052805190602001209250925050915091565b366000806133286041856142de565b9050848185613338604183614293565b9261334593929190614269565b92509250505b9250929050565b6000806133958585858080601f016020809104026020016040519081016040528093929190818152602001838380828437600092019190915250612fd192505050565b60e854600090815260e760209081526040808320600160a060020a039094168352929052205460ff169150509392505050565b60006133d58260086142bf565b6133e1906101006142de565b6133eb838561432d565b60029190910a90049392505050565b60008060e854600161340c9190614293565b9050600061341b6041856142de565b9050600060205b828110156134b357600087828861343a601483614293565b9261344793929190614269565b613450916142f5565b600086815260e760209081526040808320600160a060020a036c0100000000000000000000000090950494851684529091529020805460ff1916600117905590508261349b816143b9565b935050506014816134ac9190614293565b9050613422565b5095945050505050565b6040805160208082528183019092526060916000919060208201818036833701905050905082602082015260005b602081101561353c578181815181106135065761350661441a565b60209101015160f860020a9081900402600160f860020a0319161561352a5761353c565b80613534816143b9565b9150506134eb565b60006135498260206142de565b67ffffffffffffffff81111561356157613561614433565b6040519080825280601f01601f19166020018201604052801561358b576020820181803683370190505b50905060005b81518110156136045783836135a5816143b9565b9450815181106135b7576135b761441a565b602001015160f860020a900460f860020a028282815181106135db576135db61441a565b6020010190600160f860020a031916908160001a905350806135fc816143b9565b915050613591565b50949350505050565b60006060825b858110156136c65786868281811061362d5761362d61441a565b905060200281019061363f91906141eb565b86898961364d866001614293565b81811061365c5761365c61441a565b905060200281019061366e91906141eb565b604051602001613682959493929190613df6565b604051602081830303815290604052915060208251116136aa576136a58261434d565b6136b2565b815160208301205b94506136bf600282614293565b9050613613565b509295945050505050565b6060826000836136e26041826142de565b926136ef93929190614269565b8080601f016020809104026020016040519081016040528093929190818152602001838380828437600092019190915250929695505050505050565b5080546000825560030290600052602060002090810190610d5391905b8082111561377a578054600160a060020a03199081168255600182018054909116905560006002820155600301613748565b5090565b60008083601f84011261379057600080fd5b50813567ffffffffffffffff8111156137a857600080fd5b602083019150836020808302850101111561334b57600080fd5b60008083601f8401126137d457600080fd5b50813567ffffffffffffffff8111156137ec57600080fd5b60208301915083602082850101111561334b57600080fd5b60006020828403121561381657600080fd5b8135612fc0816144ab565b6000806040838503121561383457600080fd5b823561383f816144ab565b9150602083013561384f816144ab565b809150509250929050565b60008060008060008060008060e0898b03121561387657600080fd5b8835613881816144ab565b97506020890135613891816144ab565b96506040890135955060608901356138a8816144c0565b9450608089013567ffffffffffffffff8111156138c457600080fd5b6138d08b828c016137c2565b999c989b5096999598969760a08701359660c0013595509350505050565b60008060008060006080868803121561390657600080fd5b8535613911816144ab565b9450602086013567ffffffffffffffff81111561392d57600080fd5b613939888289016137c2565b9699909850959660408101359660609091013595509350505050565b6000806020838503121561396857600080fd5b823567ffffffffffffffff81111561397f57600080fd5b61398b8582860161377e565b90969095509350505050565b600080600080604085870312156139ad57600080fd5b843567ffffffffffffffff808211156139c557600080fd5b6139d18883890161377e565b909650945060208701359150808211156139ea57600080fd5b506139f78782880161377e565b95989497509550505050565b600060208284031215613a1557600080fd5b8151612fc0816144c0565b600060208284031215613a3257600080fd5b81357cffffffffffffffffffffffffffffffffffffffffffffffffffffffffff1981168114612fc057600080fd5b600060208284031215613a7257600080fd5b5035919050565b60008060408385031215613a8c57600080fd5b82359150602083013561384f816144ab565b600060208284031215613ab057600080fd5b81357bffffffffffffffffffffffffffffffffffffffffffffffffffffffff1981168114612fc057600080fd5b600080600080600060808688031215613af557600080fd5b853567ffffffffffffffff80821115613b0d57600080fd5b90870190610160828a031215613b2257600080fd5b90955060208701359080821115613b3857600080fd5b50613b458882890161377e565b909550935050604086013591506060860135600160f860020a031981168114613b6d57600080fd5b809150509295509295909350565b600060208284031215613b8d57600080fd5b813567ffffffffffffffff811115613ba457600080fd5b820160608185031215612fc057600080fd5b600060208284031215613bc857600080fd5b813567ffffffffffffffff81168114612fc057600080fd5b600160f860020a03198c1681528a6001820152888a602183013788810160218101899052600090878960418301378781019050604181016000815286888237508581019050604181016000815284868237506000930160410192835250909b9a5050505050505050505050565b7cffffffffffffffffffffffffffffffffffffffffffffffffffffffffff1989168152600160f860020a03198816600382015260008751613c95816004850160208c01614376565b820186886004830137868101905060048101600081528651613cbb818360208b01614376565b9190910190508385600483013760009301600401928352509098975050505050505050565b7cffffffffffffffffffffffffffffffffffffffffffffffffffffffffff198916815260008851613d18816003850160208d01614376565b82018789600383013787810190506003810160008152868882375085810190506003810160008152848682375060009301600301928352509098975050505050505050565b8a8c8237600160a060020a038a166c0100000000000000000000000002818c0190815260009060148a8c828401378a82019150808201600081528a51613da7818360208f01614376565b9290920191508789828401378782019150808201600081528751613dcf818360208c01614376565b9290920191508486828401376000949091010192835250909b9a5050505050505050505050565b848682378085018481526000908385602083013760009301602001928352509095945050505050565b7f416363657373436f6e74726f6c3a206163636f756e7420000000000000000000815260008351613e57816017850160208801614376565b7f206973206d697373696e6720726f6c65200000000000000000000000000000006017918401918201528351613e94816028840160208801614376565b01602801949350505050565b6020808252818101839052600090604080840186845b87811015613f03578135613ec9816144ab565b600160a060020a0390811684528286013590613ee4826144ab565b1683860152818401358484015260609283019290910190600101613eb6565b5090979650505050505050565b60006020808301818452808554808352604092508286019150866000528360002060005b82811015613f73578154600160a060020a0390811685526001808401549091168786015260028301548686015260609094019360039092019101613f34565b5091979650505050505050565b6020815260008251806020840152613f9f816040850160208701614376565b601f01601f19169190910160400192915050565b60208082526014908201527f5061757361626c653a206e6f7420706175736564000000000000000000000000604082015260600190565b60208082526010908201527f5061757361626c653a2070617573656400000000000000000000000000000000604082015260600190565b6020808252602e908201527f496e697469616c697a61626c653a20636f6e747261637420697320616c72656160408201527f647920696e697469616c697a6564000000000000000000000000000000000000606082015260800190565b60208082526026908201527f6576656e744964206d757374206265203e3d206f6c646573744c6f636b65644560408201527f76656e7449640000000000000000000000000000000000000000000000000000606082015260800190565b6000602080835260608084018551604080858801528282518085526080890191508684019450600093505b808410156141435784518051600160a060020a03908116845288820151168884015283015183830152938601936001939093019290850190614106565b5094909701519590960194909452509392505050565b6000808335601e1984360301811261417057600080fd5b83018035915067ffffffffffffffff82111561418b57600080fd5b602090810192508102360382131561334b57600080fd5b6000808335601e198436030181126141b957600080fd5b83018035915067ffffffffffffffff8211156141d457600080fd5b602001915060608102360382131561334b57600080fd5b6000808335601e1984360301811261420257600080fd5b83018035915067ffffffffffffffff82111561421d57600080fd5b60200191503681900382131561334b57600080fd5b6000823561017e1983360301811261424957600080fd5b9190910192915050565b60008235605e1983360301811261424957600080fd5b6000808585111561427957600080fd5b8386111561428657600080fd5b5050820193919092039150565b600082198211156142a6576142a66143e8565b500190565b6000826142ba576142ba614401565b500490565b60008160001904831182151516156142d9576142d96143e8565b500290565b6000828210156142f0576142f06143e8565b500390565b6bffffffffffffffffffffffff19813581811691601485101561432557808560140360080260020a820283161692505b505092915050565b803560208310156109de57600860208490030260020a6000031692915050565b80516020808301519190811015614370578060200360080260020a600003821691505b50919050565b60005b83811015614391578181015183820152602001614379565b83811115612dd45750506000910152565b6000816143b1576143b16143e8565b506000190190565b60006000198214156143cd576143cd6143e8565b5060010190565b6000826143e3576143e3614401565b500690565b60e060020a634e487b7102600052601160045260246000fd5b60e060020a634e487b7102600052601260045260246000fd5b60e060020a634e487b7102600052603260045260246000fd5b60e060020a634e487b7102600052604160045260246000fd5b8135614457816144ab565b8154600160a060020a031916600160a060020a03821617825550602082013561447f816144ab565b600182018054600160a060020a031916600160a060020a03831617905550604082013560028201555050565b600160a060020a0381168114610d5357600080fd5b8015158114610d5357600080fdfe077a1d526a4ce8a773632ab13b4fbbf1fcc954c3dab26cd27ea0e2a6750da5d7a49807205ce4d355092ef5a8a18f56e8913cf4a201fbe287825b095693c21775a2646970667358221220cf0bc6dfc3942d047b38adce1464c0210a64230facd21fc024a7e3fe5bfd493164736f6c63430008060033",
  "devdoc": {
    "kind": "dev",
    "methods": {
      "getRoleAdmin(bytes32)": {
        "details": "Returns the admin role that controls `role`. See {grantRole} and {revokeRole}. To change a role's admin, use {_setRoleAdmin}."
      },
      "grantRole(bytes32,address)": {
        "details": "Grants `role` to `account`. If `account` had not been already granted `role`, emits a {RoleGranted} event. Requirements: - the caller must have ``role``'s admin role."
      },
      "hasRole(bytes32,address)": {
        "details": "Returns `true` if `account` has been granted `role`."
      },
      "paused()": {
        "details": "Returns true if the contract is paused, and false otherwise."
      },
      "renounceRole(bytes32,address)": {
        "details": "Revokes `role` from the calling account. Roles are often managed via {grantRole} and {revokeRole}: this function's purpose is to provide a mechanism for accounts to lose their privileges if they are compromised (such as when a trusted device is misplaced). If the calling account had been granted `role`, emits a {RoleRevoked} event. Requirements: - the caller must be `account`."
      },
      "revokeRole(bytes32,address)": {
        "details": "Revokes `role` from `account`. If `account` had been granted `role`, emits a {RoleRevoked} event. Requirements: - the caller must have ``role``'s admin role."
      },
      "supportsInterface(bytes4)": {
        "details": "See {IERC165-supportsInterface}."
      },
      "withdraw(address,address,uint256,bool,bytes,uint256,uint256)": {
        "params": {
          "bridgeFee": "Amount (in native coins), payed as bridge earnings",
          "feeSignature": "Signature signed by relay that confirms that the fee values are valid",
          "transferFee": "Amount (in native coins), payed to compensate gas fees in side network"
        }
      },
      "wrapWithdraw(address,bytes,uint256,uint256)": {
        "params": {
          "bridgeFee": "Amount (in native coins), payed as bridge earnings",
          "feeSignature": "Signature signed by relay that confirms that the fee values are valid",
          "toAddress": "Address in side network that will receive the tokens",
          "transferFee": "Amount (in native coins), payed to compensate gas fees in side network"
        }
      }
    },
    "version": 1
  },
  "userdoc": {
    "kind": "user",
    "methods": {},
    "version": 1
  },
  "storageLayout": {
    "storage": [
      {
        "astId": 413,
        "contract": "contracts/networks/BSC_AmbBridge.sol:BSC_AmbBridge",
        "label": "_initialized",
        "offset": 0,
        "slot": "0",
        "type": "t_bool"
      },
      {
        "astId": 416,
        "contract": "contracts/networks/BSC_AmbBridge.sol:BSC_AmbBridge",
        "label": "_initializing",
        "offset": 1,
        "slot": "0",
        "type": "t_bool"
      },
      {
        "astId": 609,
        "contract": "contracts/networks/BSC_AmbBridge.sol:BSC_AmbBridge",
        "label": "__gap",
        "offset": 0,
        "slot": "1",
        "type": "t_array(t_uint256)50_storage"
      },
      {
        "astId": 858,
        "contract": "contracts/networks/BSC_AmbBridge.sol:BSC_AmbBridge",
        "label": "__gap",
        "offset": 0,
        "slot": "51",
        "type": "t_array(t_uint256)50_storage"
      },
      {
        "astId": 48,
        "contract": "contracts/networks/BSC_AmbBridge.sol:BSC_AmbBridge",
        "label": "_roles",
        "offset": 0,
        "slot": "101",
        "type": "t_mapping(t_bytes32,t_struct(RoleData)43_storage)"
      },
      {
        "astId": 333,
        "contract": "contracts/networks/BSC_AmbBridge.sol:BSC_AmbBridge",
        "label": "__gap",
        "offset": 0,
        "slot": "102",
        "type": "t_array(t_uint256)49_storage"
      },
      {
        "astId": 474,
        "contract": "contracts/networks/BSC_AmbBridge.sol:BSC_AmbBridge",
        "label": "_paused",
        "offset": 0,
        "slot": "151",
        "type": "t_bool"
      },
      {
        "astId": 565,
        "contract": "contracts/networks/BSC_AmbBridge.sol:BSC_AmbBridge",
        "label": "__gap",
        "offset": 0,
        "slot": "152",
        "type": "t_array(t_uint256)49_storage"
      },
      {
        "astId": 6726,
        "contract": "contracts/networks/BSC_AmbBridge.sol:BSC_AmbBridge",
        "label": "signatureFeeCheckNumber",
        "offset": 0,
        "slot": "201",
        "type": "t_uint256"
      },
      {
        "astId": 6730,
        "contract": "contracts/networks/BSC_AmbBridge.sol:BSC_AmbBridge",
        "label": "queue",
        "offset": 0,
        "slot": "202",
        "type": "t_array(t_struct(Transfer)7843_storage)dyn_storage"
      },
      {
        "astId": 6735,
        "contract": "contracts/networks/BSC_AmbBridge.sol:BSC_AmbBridge",
        "label": "lockedTransfers",
        "offset": 0,
        "slot": "203",
        "type": "t_mapping(t_uint256,t_struct(LockedTransfers)7860_storage)"
      },
      {
        "astId": 6737,
        "contract": "contracts/networks/BSC_AmbBridge.sol:BSC_AmbBridge",
        "label": "oldestLockedEventId",
        "offset": 0,
        "slot": "204",
        "type": "t_uint256"
      },
      {
        "astId": 6741,
        "contract": "contracts/networks/BSC_AmbBridge.sol:BSC_AmbBridge",
        "label": "tokenAddresses",
        "offset": 0,
        "slot": "205",
        "type": "t_mapping(t_address,t_address)"
      },
      {
        "astId": 6743,
        "contract": "contracts/networks/BSC_AmbBridge.sol:BSC_AmbBridge",
        "label": "wrapperAddress",
        "offset": 0,
        "slot": "206",
        "type": "t_address"
      },
      {
        "astId": 6745,
        "contract": "contracts/networks/BSC_AmbBridge.sol:BSC_AmbBridge",
        "label": "transferFeeRecipient",
        "offset": 0,
        "slot": "207",
        "type": "t_address_payable"
      },
      {
        "astId": 6747,
        "contract": "contracts/networks/BSC_AmbBridge.sol:BSC_AmbBridge",
        "label": "bridgeFeeRecipient",
        "offset": 0,
        "slot": "208",
        "type": "t_address_payable"
      },
      {
        "astId": 6749,
        "contract": "contracts/networks/BSC_AmbBridge.sol:BSC_AmbBridge",
        "label": "sideBridgeAddress",
        "offset": 0,
        "slot": "209",
        "type": "t_address"
      },
      {
        "astId": 6751,
        "contract": "contracts/networks/BSC_AmbBridge.sol:BSC_AmbBridge",
        "label": "minSafetyBlocks",
        "offset": 0,
        "slot": "210",
        "type": "t_uint256"
      },
      {
        "astId": 6753,
        "contract": "contracts/networks/BSC_AmbBridge.sol:BSC_AmbBridge",
        "label": "timeframeSeconds",
        "offset": 0,
        "slot": "211",
        "type": "t_uint256"
      },
      {
        "astId": 6755,
        "contract": "contracts/networks/BSC_AmbBridge.sol:BSC_AmbBridge",
        "label": "lockTime",
        "offset": 0,
        "slot": "212",
        "type": "t_uint256"
      },
      {
        "astId": 6757,
        "contract": "contracts/networks/BSC_AmbBridge.sol:BSC_AmbBridge",
        "label": "inputEventId",
        "offset": 0,
        "slot": "213",
        "type": "t_uint256"
      },
      {
        "astId": 6759,
        "contract": "contracts/networks/BSC_AmbBridge.sol:BSC_AmbBridge",
        "label": "outputEventId",
        "offset": 0,
        "slot": "214",
        "type": "t_uint256"
      },
      {
        "astId": 6761,
        "contract": "contracts/networks/BSC_AmbBridge.sol:BSC_AmbBridge",
        "label": "lastTimeframe",
        "offset": 0,
        "slot": "215",
        "type": "t_uint256"
      },
      {
        "astId": 7833,
        "contract": "contracts/networks/BSC_AmbBridge.sol:BSC_AmbBridge",
        "label": "__gap",
        "offset": 0,
        "slot": "216",
        "type": "t_array(t_uint256)15_storage"
      },
      {
        "astId": 2208,
        "contract": "contracts/networks/BSC_AmbBridge.sol:BSC_AmbBridge",
        "label": "allValidators",
        "offset": 0,
        "slot": "231",
        "type": "t_mapping(t_uint256,t_mapping(t_address,t_bool))"
      },
      {
        "astId": 2210,
        "contract": "contracts/networks/BSC_AmbBridge.sol:BSC_AmbBridge",
        "label": "currentEpoch",
        "offset": 0,
        "slot": "232",
        "type": "t_uint256"
      },
      {
        "astId": 2212,
        "contract": "contracts/networks/BSC_AmbBridge.sol:BSC_AmbBridge",
        "label": "currentValidatorSetSize",
        "offset": 0,
        "slot": "233",
        "type": "t_uint256"
      },
      {
        "astId": 2214,
        "contract": "contracts/networks/BSC_AmbBridge.sol:BSC_AmbBridge",
        "label": "chainId",
        "offset": 0,
        "slot": "234",
        "type": "t_bytes1"
      }
    ],
    "types": {
      "t_address": {
        "encoding": "inplace",
        "label": "address",
        "numberOfBytes": "20"
      },
      "t_address_payable": {
        "encoding": "inplace",
        "label": "address payable",
        "numberOfBytes": "20"
      },
      "t_array(t_struct(Transfer)7843_storage)dyn_storage": {
        "base": "t_struct(Transfer)7843_storage",
        "encoding": "dynamic_array",
        "label": "struct CommonStructs.Transfer[]",
        "numberOfBytes": "32"
      },
      "t_array(t_uint256)15_storage": {
        "base": "t_uint256",
        "encoding": "inplace",
        "label": "uint256[15]",
        "numberOfBytes": "480"
      },
      "t_array(t_uint256)49_storage": {
        "base": "t_uint256",
        "encoding": "inplace",
        "label": "uint256[49]",
        "numberOfBytes": "1568"
      },
      "t_array(t_uint256)50_storage": {
        "base": "t_uint256",
        "encoding": "inplace",
        "label": "uint256[50]",
        "numberOfBytes": "1600"
      },
      "t_bool": {
        "encoding": "inplace",
        "label": "bool",
        "numberOfBytes": "1"
      },
      "t_bytes1": {
        "encoding": "inplace",
        "label": "bytes1",
        "numberOfBytes": "1"
      },
      "t_bytes32": {
        "encoding": "inplace",
        "label": "bytes32",
        "numberOfBytes": "32"
      },
      "t_mapping(t_address,t_address)": {
        "encoding": "mapping",
        "key": "t_address",
        "label": "mapping(address => address)",
        "numberOfBytes": "32",
        "value": "t_address"
      },
      "t_mapping(t_address,t_bool)": {
        "encoding": "mapping",
        "key": "t_address",
        "label": "mapping(address => bool)",
        "numberOfBytes": "32",
        "value": "t_bool"
      },
      "t_mapping(t_bytes32,t_struct(RoleData)43_storage)": {
        "encoding": "mapping",
        "key": "t_bytes32",
        "label": "mapping(bytes32 => struct AccessControlUpgradeable.RoleData)",
        "numberOfBytes": "32",
        "value": "t_struct(RoleData)43_storage"
      },
      "t_mapping(t_uint256,t_mapping(t_address,t_bool))": {
        "encoding": "mapping",
        "key": "t_uint256",
        "label": "mapping(uint256 => mapping(address => bool))",
        "numberOfBytes": "32",
        "value": "t_mapping(t_address,t_bool)"
      },
      "t_mapping(t_uint256,t_struct(LockedTransfers)7860_storage)": {
        "encoding": "mapping",
        "key": "t_uint256",
        "label": "mapping(uint256 => struct CommonStructs.LockedTransfers)",
        "numberOfBytes": "32",
        "value": "t_struct(LockedTransfers)7860_storage"
      },
      "t_struct(LockedTransfers)7860_storage": {
        "encoding": "inplace",
        "label": "struct CommonStructs.LockedTransfers",
        "members": [
          {
            "astId": 7857,
            "contract": "contracts/networks/BSC_AmbBridge.sol:BSC_AmbBridge",
            "label": "transfers",
            "offset": 0,
            "slot": "0",
            "type": "t_array(t_struct(Transfer)7843_storage)dyn_storage"
          },
          {
            "astId": 7859,
            "contract": "contracts/networks/BSC_AmbBridge.sol:BSC_AmbBridge",
            "label": "endTimestamp",
            "offset": 0,
            "slot": "1",
            "type": "t_uint256"
          }
        ],
        "numberOfBytes": "64"
      },
      "t_struct(RoleData)43_storage": {
        "encoding": "inplace",
        "label": "struct AccessControlUpgradeable.RoleData",
        "members": [
          {
            "astId": 40,
            "contract": "contracts/networks/BSC_AmbBridge.sol:BSC_AmbBridge",
            "label": "members",
            "offset": 0,
            "slot": "0",
            "type": "t_mapping(t_address,t_bool)"
          },
          {
            "astId": 42,
            "contract": "contracts/networks/BSC_AmbBridge.sol:BSC_AmbBridge",
            "label": "adminRole",
            "offset": 0,
            "slot": "1",
            "type": "t_bytes32"
          }
        ],
        "numberOfBytes": "64"
      },
      "t_struct(Transfer)7843_storage": {
        "encoding": "inplace",
        "label": "struct CommonStructs.Transfer",
        "members": [
          {
            "astId": 7838,
            "contract": "contracts/networks/BSC_AmbBridge.sol:BSC_AmbBridge",
            "label": "tokenAddress",
            "offset": 0,
            "slot": "0",
            "type": "t_address"
          },
          {
            "astId": 7840,
            "contract": "contracts/networks/BSC_AmbBridge.sol:BSC_AmbBridge",
            "label": "toAddress",
            "offset": 0,
            "slot": "1",
            "type": "t_address"
          },
          {
            "astId": 7842,
            "contract": "contracts/networks/BSC_AmbBridge.sol:BSC_AmbBridge",
            "label": "amount",
            "offset": 0,
            "slot": "2",
            "type": "t_uint256"
          }
        ],
        "numberOfBytes": "96"
      },
      "t_uint256": {
        "encoding": "inplace",
        "label": "uint256",
        "numberOfBytes": "32"
      }
    }
  }
}