{
  "address": "0x9F9B96F8d33B58c85f0E5bB4BE53164c0Fe77cD9",
  "abi": [
    {
      "inputs": [
        {
          "internalType": "string",
          "name": "name_",
          "type": "string"
        },
        {
          "internalType": "string",
          "name": "symbol_",
          "type": "string"
        },
        {
          "internalType": "uint8",
          "name": "decimals_",
          "type": "uint8"
        },
        {
          "internalType": "address[]",
          "name": "bridgeAddresses_",
          "type": "address[]"
        },
        {
          "internalType": "uint8[]",
          "name": "sideTokenDecimals_",
          "type": "uint8[]"
        }
      ],
      "stateMutability": "nonpayable",
      "type": "constructor"
    },
    {
      "anonymous": false,
      "inputs": [
        {
          "indexed": true,
          "internalType": "address",
          "name": "owner",
          "type": "address"
        },
        {
          "indexed": true,
          "internalType": "address",
          "name": "spender",
          "type": "address"
        },
        {
          "indexed": false,
          "internalType": "uint256",
          "name": "value",
          "type": "uint256"
        }
      ],
      "name": "Approval",
      "type": "event"
    },
    {
      "anonymous": false,
      "inputs": [
        {
          "indexed": true,
          "internalType": "address",
          "name": "previousOwner",
          "type": "address"
        },
        {
          "indexed": true,
          "internalType": "address",
          "name": "newOwner",
          "type": "address"
        }
      ],
      "name": "OwnershipTransferred",
      "type": "event"
    },
    {
      "anonymous": false,
      "inputs": [
        {
          "indexed": true,
          "internalType": "address",
          "name": "from",
          "type": "address"
        },
        {
          "indexed": true,
          "internalType": "address",
          "name": "to",
          "type": "address"
        },
        {
          "indexed": false,
          "internalType": "uint256",
          "name": "value",
          "type": "uint256"
        }
      ],
      "name": "Transfer",
      "type": "event"
    },
    {
      "inputs": [
        {
          "internalType": "address",
          "name": "owner",
          "type": "address"
        },
        {
          "internalType": "address",
          "name": "spender",
          "type": "address"
        }
      ],
      "name": "allowance",
      "outputs": [
        {
          "internalType": "uint256",
          "name": "",
          "type": "uint256"
        }
      ],
      "stateMutability": "view",
      "type": "function"
    },
    {
      "inputs": [
        {
          "internalType": "address",
          "name": "spender",
          "type": "address"
        },
        {
          "internalType": "uint256",
          "name": "amount",
          "type": "uint256"
        }
      ],
      "name": "approve",
      "outputs": [
        {
          "internalType": "bool",
          "name": "",
          "type": "bool"
        }
      ],
      "stateMutability": "nonpayable",
      "type": "function"
    },
    {
      "inputs": [
        {
          "internalType": "address",
          "name": "account",
          "type": "address"
        }
      ],
      "name": "balanceOf",
      "outputs": [
        {
          "internalType": "uint256",
          "name": "",
          "type": "uint256"
        }
      ],
      "stateMutability": "view",
      "type": "function"
    },
    {
      "inputs": [
        {
          "internalType": "address",
          "name": "",
          "type": "address"
        }
      ],
      "name": "bridgeBalances",
      "outputs": [
        {
          "internalType": "uint256",
          "name": "",
          "type": "uint256"
        }
      ],
      "stateMutability": "view",
      "type": "function"
    },
    {
      "inputs": [],
      "name": "decimals",
      "outputs": [
        {
          "internalType": "uint8",
          "name": "",
          "type": "uint8"
        }
      ],
      "stateMutability": "view",
      "type": "function"
    },
    {
      "inputs": [
        {
          "internalType": "address",
          "name": "spender",
          "type": "address"
        },
        {
          "internalType": "uint256",
          "name": "subtractedValue",
          "type": "uint256"
        }
      ],
      "name": "decreaseAllowance",
      "outputs": [
        {
          "internalType": "bool",
          "name": "",
          "type": "bool"
        }
      ],
      "stateMutability": "nonpayable",
      "type": "function"
    },
    {
      "inputs": [
        {
          "internalType": "address",
          "name": "spender",
          "type": "address"
        },
        {
          "internalType": "uint256",
          "name": "addedValue",
          "type": "uint256"
        }
      ],
      "name": "increaseAllowance",
      "outputs": [
        {
          "internalType": "bool",
          "name": "",
          "type": "bool"
        }
      ],
      "stateMutability": "nonpayable",
      "type": "function"
    },
    {
      "inputs": [],
      "name": "name",
      "outputs": [
        {
          "internalType": "string",
          "name": "",
          "type": "string"
        }
      ],
      "stateMutability": "view",
      "type": "function"
    },
    {
      "inputs": [],
      "name": "owner",
      "outputs": [
        {
          "internalType": "address",
          "name": "",
          "type": "address"
        }
      ],
      "stateMutability": "view",
      "type": "function"
    },
    {
      "inputs": [],
      "name": "renounceOwnership",
      "outputs": [],
      "stateMutability": "nonpayable",
      "type": "function"
    },
    {
      "inputs": [
        {
          "internalType": "address[]",
          "name": "bridgeAddresses_",
          "type": "address[]"
        },
        {
          "internalType": "uint8[]",
          "name": "sideTokenDecimals_",
          "type": "uint8[]"
        }
      ],
      "name": "setSideTokenDecimals",
      "outputs": [],
      "stateMutability": "nonpayable",
      "type": "function"
    },
    {
      "inputs": [
        {
          "internalType": "address",
          "name": "",
          "type": "address"
        }
      ],
      "name": "sideTokenDecimals",
      "outputs": [
        {
          "internalType": "uint8",
          "name": "",
          "type": "uint8"
        }
      ],
      "stateMutability": "view",
      "type": "function"
    },
    {
      "inputs": [],
      "name": "symbol",
      "outputs": [
        {
          "internalType": "string",
          "name": "",
          "type": "string"
        }
      ],
      "stateMutability": "view",
      "type": "function"
    },
    {
      "inputs": [],
      "name": "totalSupply",
      "outputs": [
        {
          "internalType": "uint256",
          "name": "",
          "type": "uint256"
        }
      ],
      "stateMutability": "view",
      "type": "function"
    },
    {
      "inputs": [
        {
          "internalType": "address",
          "name": "recipient",
          "type": "address"
        },
        {
          "internalType": "uint256",
          "name": "amount",
          "type": "uint256"
        }
      ],
      "name": "transfer",
      "outputs": [
        {
          "internalType": "bool",
          "name": "",
          "type": "bool"
        }
      ],
      "stateMutability": "nonpayable",
      "type": "function"
    },
    {
      "inputs": [
        {
          "internalType": "address",
          "name": "sender",
          "type": "address"
        },
        {
          "internalType": "address",
          "name": "recipient",
          "type": "address"
        },
        {
          "internalType": "uint256",
          "name": "amount",
          "type": "uint256"
        }
      ],
      "name": "transferFrom",
      "outputs": [
        {
          "internalType": "bool",
          "name": "",
          "type": "bool"
        }
      ],
      "stateMutability": "nonpayable",
      "type": "function"
    },
    {
      "inputs": [
        {
          "internalType": "address",
          "name": "newOwner",
          "type": "address"
        }
      ],
      "name": "transferOwnership",
      "outputs": [],
      "stateMutability": "nonpayable",
      "type": "function"
    }
  ],
  "transactionHash": "0x91f50c99047bf90cbf7a26d55c955203b065349a5b92e157296fe744a4d547d9",
  "args": [
    "BUSD Token",
    "BUSD",
    18,
    [
      "0xcdea3ECb85D0F386Ea5D498D39c9c127380F254a",
      "0xa09De74437D2453Df47deF3F5C2d14Cd3f0cF8c0"
    ],
    [
      18,
      18
    ]
  ],
  "numDeployments": 1,
  "solcInputHash": "14835e48c656ebed02c4fc9389a12566",
  "bytecode": "0x60806040523480156200001157600080fd5b5060405162001bce38038062001bce8339810160408190526200003491620003fc565b8451859085906200004d9060039060208501906200022a565b508051620000639060049060208401906200022a565b5050506200009262000083620000c6640100000000026401000000009004565b640100000000620000ca810204565b620000a782826401000000006200011c810204565b50506008805460ff191660ff92909216919091179055506200068b9050565b3390565b60058054600160a060020a03838116600160a060020a0319831681179093556040519116919082907f8be0079c531659141344cd1fd0a4f28419497f9722a3daafe3b4186f6b6457e090600090a35050565b80518251146200018c576040517f08c379a000000000000000000000000000000000000000000000000000000000815260206004820152601360248201527f77726f6e67206172726179206c656e6774687300000000000000000000000000604482015260640160405180910390fd5b60005b82518110156200022557818181518110620001ae57620001ae6200062d565b602002602001015160066000858481518110620001cf57620001cf6200062d565b6020026020010151600160a060020a0316600160a060020a0316815260200190815260200160002060006101000a81548160ff021916908360ff16021790555080806200021c90620005ea565b9150506200018f565b505050565b828054620002389062000594565b90600052602060002090601f0160209004810192826200025c5760008555620002a7565b82601f106200027757805160ff1916838001178555620002a7565b82800160010185558215620002a7579182015b82811115620002a75782518255916020019190600101906200028a565b50620002b5929150620002b9565b5090565b5b80821115620002b55760008155600101620002ba565b600082601f830112620002e257600080fd5b81516020620002fb620002f5836200056e565b6200053b565b82815281810190858301838502870184018810156200031957600080fd5b60005b8581101562000343576200033082620003e5565b845292840192908401906001016200031c565b5090979650505050505050565b600082601f8301126200036257600080fd5b81516001604060020a038111156200037e576200037e6200065c565b602062000394601f8301601f191682016200053b565b8281528582848701011115620003a957600080fd5b60005b83811015620003c9578581018301518282018401528201620003ac565b83811115620003db5760008385840101525b5095945050505050565b805160ff81168114620003f757600080fd5b919050565b600080600080600060a086880312156200041557600080fd5b85516001604060020a03808211156200042d57600080fd5b6200043b89838a0162000350565b96506020915081880151818111156200045357600080fd5b620004618a828b0162000350565b9650506200047260408901620003e5565b94506060880151818111156200048757600080fd5b8801601f81018a136200049957600080fd5b8051620004aa620002f5826200056e565b81815284810190838601868402850187018e1015620004c857600080fd5b600094505b8385101562000503578051600160a060020a0381168114620004ee57600080fd5b835260019490940193918601918601620004cd565b5060808c01519097509450505050808211156200051f57600080fd5b506200052e88828901620002d0565b9150509295509295909350565b604051601f8201601f191681016001604060020a03811182821017156200056657620005666200065c565b604052919050565b60006001604060020a038211156200058a576200058a6200065c565b5060209081020190565b600281046001821680620005a957607f821691505b60208210811415620005e4577f4e487b7100000000000000000000000000000000000000000000000000000000600052602260045260246000fd5b50919050565b600060001982141562000626577f4e487b7100000000000000000000000000000000000000000000000000000000600052601160045260246000fd5b5060010190565b7f4e487b7100000000000000000000000000000000000000000000000000000000600052603260045260246000fd5b7f4e487b7100000000000000000000000000000000000000000000000000000000600052604160045260246000fd5b611533806200069b6000396000f3fe608060405234801561001057600080fd5b5060043610610128576000357c010000000000000000000000000000000000000000000000000000000090048063715018a6116100bf578063a9059cbb1161008e578063a9059cbb1461024f578063dc1ab98a14610262578063dd62ed3e14610282578063f2fde38b146102bb578063f590e1e6146102ce57600080fd5b8063715018a61461020f5780638da5cb5b1461021957806395d89b4114610234578063a457c2d71461023c57600080fd5b806323b872dd116100fb57806323b872dd146101b5578063313ce567146101c857806339509351146101d357806370a08231146101e657600080fd5b806306fdde031461012d578063095ea7b31461014b57806318160ddd1461016e5780631d836adf14610180575b600080fd5b6101356102e1565b60405161014291906111f3565b60405180910390f35b61015e610159366004611105565b610373565b6040519015158152602001610142565b6002545b604051908152602001610142565b6101a361018e36600461107b565b60066020526000908152604090205460ff1681565b60405160ff9091168152602001610142565b61015e6101c33660046110c9565b61038a565b60085460ff166101a3565b61015e6101e1366004611105565b610453565b6101726101f436600461107b565b600160a060020a031660009081526020819052604090205490565b61021761048f565b005b600554604051600160a060020a039091168152602001610142565b6101356104c8565b61015e61024a366004611105565b6104d7565b61015e61025d366004611105565b61058b565b61017261027036600461107b565b60076020526000908152604090205481565b610172610290366004611096565b600160a060020a03918216600090815260016020908152604080832093909416825291909152205490565b6102176102c936600461107b565b610598565b6102176102dc36600461112f565b610650565b6060600380546102f090611459565b80601f016020809104026020016040519081016040528092919081815260200182805461031c90611459565b80156103695780601f1061033e57610100808354040283529160200191610369565b820191906000526020600020905b81548152906001019060200180831161034c57829003601f168201915b5050505050905090565b600061038033848461068b565b5060015b92915050565b60006103978484846107e9565b600160a060020a0384166000908152600160209081526040808320338452909152902054828110156104395760405160e560020a62461bcd02815260206004820152602860248201527f45524332303a207472616e7366657220616d6f756e742065786365656473206160448201527f6c6c6f77616e636500000000000000000000000000000000000000000000000060648201526084015b60405180910390fd5b610446853385840361068b565b60019150505b9392505050565b336000818152600160209081526040808320600160a060020a0387168452909152812054909161038091859061048a9086906112d2565b61068b565b600554600160a060020a031633146104bc5760405160e560020a62461bcd02815260040161043090611248565b6104c660006109a6565b565b6060600480546102f090611459565b336000908152600160209081526040808320600160a060020a0386168452909152812054828110156105745760405160e560020a62461bcd02815260206004820152602560248201527f45524332303a2064656372656173656420616c6c6f77616e63652062656c6f7760448201527f207a65726f0000000000000000000000000000000000000000000000000000006064820152608401610430565b610581338585840361068b565b5060019392505050565b60006103803384846107e9565b600554600160a060020a031633146105c55760405160e560020a62461bcd02815260040161043090611248565b600160a060020a0381166106445760405160e560020a62461bcd02815260206004820152602660248201527f4f776e61626c653a206e6577206f776e657220697320746865207a65726f206160448201527f64647265737300000000000000000000000000000000000000000000000000006064820152608401610430565b61064d816109a6565b50565b600554600160a060020a0316331461067d5760405160e560020a62461bcd02815260040161043090611248565b6106878282610a05565b5050565b600160a060020a0383166107095760405160e560020a62461bcd028152602060048201526024808201527f45524332303a20617070726f76652066726f6d20746865207a65726f2061646460448201527f72657373000000000000000000000000000000000000000000000000000000006064820152608401610430565b600160a060020a0382166107885760405160e560020a62461bcd02815260206004820152602260248201527f45524332303a20617070726f766520746f20746865207a65726f20616464726560448201527f73730000000000000000000000000000000000000000000000000000000000006064820152608401610430565b600160a060020a0383811660008181526001602090815260408083209487168084529482529182902085905590518481527f8c5be1e5ebec7d5bd14f71427d1e84f3dd0314c0f7b2291e5b200ac8c7c3b925910160405180910390a3505050565b600160a060020a03831660009081526006602052604090205460ff161561087b57600160a060020a03831660009081526006602052604081205460085461083891849160ff9182169116610ae8565b600160a060020a0385166000908152600760205260408120805492935083929091906108659084906112d2565b9091555061087590508382610b52565b50505050565b600160a060020a03821660009081526006602052604090205460ff161561099657600160a060020a0382166000908152600660205260408120546008546108ca91849160ff9182169116610ae8565b600160a060020a03841660009081526007602052604090205490915081111561095e5760405160e560020a62461bcd02815260206004820152602260248201527f6e6f7420656e6f756768206c6f636b656420746f6b656e73206f6e206272696460448201527f67650000000000000000000000000000000000000000000000000000000000006064820152608401610430565b600160a060020a0383166000908152600760205260408120805483929061098690849061141f565b9091555061087590508482610c34565b6109a1838383610dbf565b505050565b60058054600160a060020a0383811673ffffffffffffffffffffffffffffffffffffffff19831681179093556040519116919082907f8be0079c531659141344cd1fd0a4f28419497f9722a3daafe3b4186f6b6457e090600090a35050565b8051825114610a595760405160e560020a62461bcd02815260206004820152601360248201527f77726f6e67206172726179206c656e67746873000000000000000000000000006044820152606401610430565b60005b82518110156109a157818181518110610a7757610a776114cb565b602002602001015160066000858481518110610a9557610a956114cb565b6020026020010151600160a060020a0316600160a060020a0316815260200190815260200160002060006101000a81548160ff021916908360ff1602179055508080610ae090611497565b915050610a5c565b60008260ff168260ff161415610aff57508261044c565b8260ff168260ff161115610b3357610b178383611436565b610b2290600a611354565b610b2c9085611400565b905061044c565b610b3d8284611436565b610b4890600a611354565b610b2c90856112ea565b600160a060020a038216610bab5760405160e560020a62461bcd02815260206004820152601f60248201527f45524332303a206d696e7420746f20746865207a65726f2061646472657373006044820152606401610430565b8060026000828254610bbd91906112d2565b9091555050600160a060020a03821660009081526020819052604081208054839290610bea9084906112d2565b9091555050604051818152600160a060020a038316906000907fddf252ad1be2c89b69c2b068fc378daa952ba7f163c4a11628f55a4df523b3ef9060200160405180910390a35050565b600160a060020a038216610cb35760405160e560020a62461bcd02815260206004820152602160248201527f45524332303a206275726e2066726f6d20746865207a65726f2061646472657360448201527f73000000000000000000000000000000000000000000000000000000000000006064820152608401610430565b600160a060020a03821660009081526020819052604090205481811015610d455760405160e560020a62461bcd02815260206004820152602260248201527f45524332303a206275726e20616d6f756e7420657863656564732062616c616e60448201527f63650000000000000000000000000000000000000000000000000000000000006064820152608401610430565b600160a060020a0383166000908152602081905260408120838303905560028054849290610d7490849061141f565b9091555050604051828152600090600160a060020a038516907fddf252ad1be2c89b69c2b068fc378daa952ba7f163c4a11628f55a4df523b3ef9060200160405180910390a3505050565b600160a060020a038316610e3e5760405160e560020a62461bcd02815260206004820152602560248201527f45524332303a207472616e736665722066726f6d20746865207a65726f20616460448201527f64726573730000000000000000000000000000000000000000000000000000006064820152608401610430565b600160a060020a038216610ebd5760405160e560020a62461bcd02815260206004820152602360248201527f45524332303a207472616e7366657220746f20746865207a65726f206164647260448201527f65737300000000000000000000000000000000000000000000000000000000006064820152608401610430565b600160a060020a03831660009081526020819052604090205481811015610f4f5760405160e560020a62461bcd02815260206004820152602660248201527f45524332303a207472616e7366657220616d6f756e742065786365656473206260448201527f616c616e636500000000000000000000000000000000000000000000000000006064820152608401610430565b600160a060020a03808516600090815260208190526040808220858503905591851681529081208054849290610f869084906112d2565b9250508190555082600160a060020a031684600160a060020a03167fddf252ad1be2c89b69c2b068fc378daa952ba7f163c4a11628f55a4df523b3ef84604051610fd291815260200190565b60405180910390a350505050565b8035600160a060020a0381168114610ff757600080fd5b919050565b600082601f83011261100d57600080fd5b8135602061102261101d836112ae565b61127d565b828152818101908583018385028701840188101561103f57600080fd5b6000805b8681101561106d57823560ff8116811461105b578283fd5b85529385019391850191600101611043565b509198975050505050505050565b60006020828403121561108d57600080fd5b61044c82610fe0565b600080604083850312156110a957600080fd5b6110b283610fe0565b91506110c060208401610fe0565b90509250929050565b6000806000606084860312156110de57600080fd5b6110e784610fe0565b92506110f560208501610fe0565b9150604084013590509250925092565b6000806040838503121561111857600080fd5b61112183610fe0565b946020939093013593505050565b6000806040838503121561114257600080fd5b823567ffffffffffffffff8082111561115a57600080fd5b818501915085601f83011261116e57600080fd5b8135602061117e61101d836112ae565b82815281810190858301838502870184018b101561119b57600080fd5b600096505b848710156111c5576111b181610fe0565b8352600196909601959183019183016111a0565b50965050860135925050808211156111dc57600080fd5b506111e985828601610ffc565b9150509250929050565b600060208083528351808285015260005b8181101561122057858101830151858201604001528201611204565b81811115611232576000604083870101525b50601f01601f1916929092016040019392505050565b6020808252818101527f4f776e61626c653a2063616c6c6572206973206e6f7420746865206f776e6572604082015260600190565b604051601f8201601f1916810167ffffffffffffffff811182821017156112a6576112a66114e4565b604052919050565b600067ffffffffffffffff8211156112c8576112c86114e4565b5060209081020190565b600082198211156112e5576112e56114b2565b500190565b60008261130a5760e060020a634e487b7102600052601260045260246000fd5b500490565b600181815b8085111561134c578160001904821115611330576113306114b2565b8085161561133d57918102915b60029094049390800290611314565b509250929050565b600061044c60ff84168360008261136d57506001610384565b8161137a57506000610384565b8160018114611390576002811461139a576113b7565b6001915050610384565b60ff8411156113ab576113ab6114b2565b8360020a915050610384565b5060208310610133831016604e8410600b84101617156113da575081810a610384565b6113e4838361130f565b80600019048211156113f8576113f86114b2565b029392505050565b600081600019048311821515161561141a5761141a6114b2565b500290565b600082821015611431576114316114b2565b500390565b600060ff821660ff841680821015611450576114506114b2565b90039392505050565b60028104600182168061146d57607f821691505b602082108114156114915760e060020a634e487b7102600052602260045260246000fd5b50919050565b60006000198214156114ab576114ab6114b2565b5060010190565b60e060020a634e487b7102600052601160045260246000fd5b60e060020a634e487b7102600052603260045260246000fd5b60e060020a634e487b7102600052604160045260246000fdfea26469706673582212206b2785398fb5d85e9f4e501b73aeebdf28671c2de2180c0a2e1996c5a262966364736f6c63430008060033",
  "devdoc": {
    "kind": "dev",
    "methods": {
      "allowance(address,address)": {
        "details": "See {IERC20-allowance}."
      },
      "approve(address,uint256)": {
        "details": "See {IERC20-approve}. Requirements: - `spender` cannot be the zero address."
      },
      "balanceOf(address)": {
        "details": "See {IERC20-balanceOf}."
      },
      "decimals()": {
        "details": "Returns the number of decimals used to get its user representation. For example, if `decimals` equals `2`, a balance of `505` tokens should be displayed to a user as `5.05` (`505 / 10 ** 2`). Tokens usually opt for a value of 18, imitating the relationship between Ether and Wei. This is the value {ERC20} uses, unless this function is overridden; NOTE: This information is only used for _display_ purposes: it in no way affects any of the arithmetic of the contract, including {IERC20-balanceOf} and {IERC20-transfer}."
      },
      "decreaseAllowance(address,uint256)": {
        "details": "Atomically decreases the allowance granted to `spender` by the caller. This is an alternative to {approve} that can be used as a mitigation for problems described in {IERC20-approve}. Emits an {Approval} event indicating the updated allowance. Requirements: - `spender` cannot be the zero address. - `spender` must have allowance for the caller of at least `subtractedValue`."
      },
      "increaseAllowance(address,uint256)": {
        "details": "Atomically increases the allowance granted to `spender` by the caller. This is an alternative to {approve} that can be used as a mitigation for problems described in {IERC20-approve}. Emits an {Approval} event indicating the updated allowance. Requirements: - `spender` cannot be the zero address."
      },
      "name()": {
        "details": "Returns the name of the token."
      },
      "owner()": {
        "details": "Returns the address of the current owner."
      },
      "renounceOwnership()": {
        "details": "Leaves the contract without owner. It will not be possible to call `onlyOwner` functions anymore. Can only be called by the current owner. NOTE: Renouncing ownership will leave the contract without an owner, thereby removing any functionality that is only available to the owner."
      },
      "symbol()": {
        "details": "Returns the symbol of the token, usually a shorter version of the name."
      },
      "totalSupply()": {
        "details": "See {IERC20-totalSupply}."
      },
      "transfer(address,uint256)": {
        "details": "See {IERC20-transfer}. Requirements: - `recipient` cannot be the zero address. - the caller must have a balance of at least `amount`."
      },
      "transferFrom(address,address,uint256)": {
        "details": "See {IERC20-transferFrom}. Emits an {Approval} event indicating the updated allowance. This is not required by the EIP. See the note at the beginning of {ERC20}. Requirements: - `sender` and `recipient` cannot be the zero address. - `sender` must have a balance of at least `amount`. - the caller must have allowance for ``sender``'s tokens of at least `amount`."
      },
      "transferOwnership(address)": {
        "details": "Transfers ownership of the contract to a new account (`newOwner`). Can only be called by the current owner."
      }
    },
    "version": 1
  },
  "userdoc": {
    "kind": "user",
    "methods": {},
    "version": 1
  },
  "storageLayout": {
    "storage": [
      {
        "astId": 991,
        "contract": "contracts/tokens/BridgeERC20_Amb.sol:BridgeERC20_Amb",
        "label": "_balances",
        "offset": 0,
        "slot": "0",
        "type": "t_mapping(t_address,t_uint256)"
      },
      {
        "astId": 997,
        "contract": "contracts/tokens/BridgeERC20_Amb.sol:BridgeERC20_Amb",
        "label": "_allowances",
        "offset": 0,
        "slot": "1",
        "type": "t_mapping(t_address,t_mapping(t_address,t_uint256))"
      },
      {
        "astId": 999,
        "contract": "contracts/tokens/BridgeERC20_Amb.sol:BridgeERC20_Amb",
        "label": "_totalSupply",
        "offset": 0,
        "slot": "2",
        "type": "t_uint256"
      },
      {
        "astId": 1001,
        "contract": "contracts/tokens/BridgeERC20_Amb.sol:BridgeERC20_Amb",
        "label": "_name",
        "offset": 0,
        "slot": "3",
        "type": "t_string_storage"
      },
      {
        "astId": 1003,
        "contract": "contracts/tokens/BridgeERC20_Amb.sol:BridgeERC20_Amb",
        "label": "_symbol",
        "offset": 0,
        "slot": "4",
        "type": "t_string_storage"
      },
      {
        "astId": 879,
        "contract": "contracts/tokens/BridgeERC20_Amb.sol:BridgeERC20_Amb",
        "label": "_owner",
        "offset": 0,
        "slot": "5",
        "type": "t_address"
      },
      {
        "astId": 9229,
        "contract": "contracts/tokens/BridgeERC20_Amb.sol:BridgeERC20_Amb",
        "label": "sideTokenDecimals",
        "offset": 0,
        "slot": "6",
        "type": "t_mapping(t_address,t_uint8)"
      },
      {
        "astId": 9233,
        "contract": "contracts/tokens/BridgeERC20_Amb.sol:BridgeERC20_Amb",
        "label": "bridgeBalances",
        "offset": 0,
        "slot": "7",
        "type": "t_mapping(t_address,t_uint256)"
      },
      {
        "astId": 9235,
        "contract": "contracts/tokens/BridgeERC20_Amb.sol:BridgeERC20_Amb",
        "label": "_decimals",
        "offset": 0,
        "slot": "8",
        "type": "t_uint8"
      }
    ],
    "types": {
      "t_address": {
        "encoding": "inplace",
        "label": "address",
        "numberOfBytes": "20"
      },
      "t_mapping(t_address,t_mapping(t_address,t_uint256))": {
        "encoding": "mapping",
        "key": "t_address",
        "label": "mapping(address => mapping(address => uint256))",
        "numberOfBytes": "32",
        "value": "t_mapping(t_address,t_uint256)"
      },
      "t_mapping(t_address,t_uint256)": {
        "encoding": "mapping",
        "key": "t_address",
        "label": "mapping(address => uint256)",
        "numberOfBytes": "32",
        "value": "t_uint256"
      },
      "t_mapping(t_address,t_uint8)": {
        "encoding": "mapping",
        "key": "t_address",
        "label": "mapping(address => uint8)",
        "numberOfBytes": "32",
        "value": "t_uint8"
      },
      "t_string_storage": {
        "encoding": "bytes",
        "label": "string",
        "numberOfBytes": "32"
      },
      "t_uint256": {
        "encoding": "inplace",
        "label": "uint256",
        "numberOfBytes": "32"
      },
      "t_uint8": {
        "encoding": "inplace",
        "label": "uint8",
        "numberOfBytes": "1"
      }
    }
  }
}