{
  "address": "0x2de5fC9fF4AD9ccf10fAb6dDCb9672c1F87210Fb",
  "abi": [
    {
      "anonymous": false,
      "inputs": [
        {
          "indexed": false,
          "internalType": "address",
          "name": "account",
          "type": "address"
        }
      ],
      "name": "Paused",
      "type": "event"
    },
    {
      "anonymous": false,
      "inputs": [
        {
          "indexed": true,
          "internalType": "address",
          "name": "relay",
          "type": "address"
        }
      ],
      "name": "RelayAdd",
      "type": "event"
    },
    {
      "anonymous": false,
      "inputs": [
        {
          "indexed": true,
          "internalType": "address",
          "name": "sender",
          "type": "address"
        },
        {
          "indexed": true,
          "internalType": "uint256",
          "name": "eventId",
          "type": "uint256"
        },
        {
          "indexed": false,
          "internalType": "bytes32",
          "name": "hash",
          "type": "bytes32"
        }
      ],
      "name": "RelayConfirmation",
      "type": "event"
    },
    {
      "anonymous": false,
      "inputs": [
        {
          "indexed": true,
          "internalType": "address",
          "name": "relay",
          "type": "address"
        }
      ],
      "name": "RelayRemove",
      "type": "event"
    },
    {
      "anonymous": false,
      "inputs": [
        {
          "indexed": true,
          "internalType": "bytes32",
          "name": "role",
          "type": "bytes32"
        },
        {
          "indexed": true,
          "internalType": "bytes32",
          "name": "previousAdminRole",
          "type": "bytes32"
        },
        {
          "indexed": true,
          "internalType": "bytes32",
          "name": "newAdminRole",
          "type": "bytes32"
        }
      ],
      "name": "RoleAdminChanged",
      "type": "event"
    },
    {
      "anonymous": false,
      "inputs": [
        {
          "indexed": true,
          "internalType": "bytes32",
          "name": "role",
          "type": "bytes32"
        },
        {
          "indexed": true,
          "internalType": "address",
          "name": "account",
          "type": "address"
        },
        {
          "indexed": true,
          "internalType": "address",
          "name": "sender",
          "type": "address"
        }
      ],
      "name": "RoleGranted",
      "type": "event"
    },
    {
      "anonymous": false,
      "inputs": [
        {
          "indexed": true,
          "internalType": "bytes32",
          "name": "role",
          "type": "bytes32"
        },
        {
          "indexed": true,
          "internalType": "address",
          "name": "account",
          "type": "address"
        },
        {
          "indexed": true,
          "internalType": "address",
          "name": "sender",
          "type": "address"
        }
      ],
      "name": "RoleRevoked",
      "type": "event"
    },
    {
      "anonymous": false,
      "inputs": [
        {
          "indexed": false,
          "internalType": "uint256",
          "name": "newThreshold",
          "type": "uint256"
        }
      ],
      "name": "ThresholdChange",
      "type": "event"
    },
    {
      "anonymous": false,
      "inputs": [
        {
          "indexed": true,
          "internalType": "uint256",
          "name": "eventId",
          "type": "uint256"
        },
        {
          "components": [
            {
              "internalType": "address",
              "name": "tokenAddress",
              "type": "address"
            },
            {
              "internalType": "address",
              "name": "toAddress",
              "type": "address"
            },
            {
              "internalType": "uint256",
              "name": "amount",
              "type": "uint256"
            }
          ],
          "indexed": false,
          "internalType": "struct CommonStructs.Transfer[]",
          "name": "queue",
          "type": "tuple[]"
        }
      ],
      "name": "Transfer",
      "type": "event"
    },
    {
      "anonymous": false,
      "inputs": [
        {
          "indexed": true,
          "internalType": "uint256",
          "name": "eventId",
          "type": "uint256"
        }
      ],
      "name": "TransferFinish",
      "type": "event"
    },
    {
      "anonymous": false,
      "inputs": [
        {
          "indexed": true,
          "internalType": "uint256",
          "name": "eventId",
          "type": "uint256"
        }
      ],
      "name": "TransferSubmit",
      "type": "event"
    },
    {
      "anonymous": false,
      "inputs": [
        {
          "indexed": false,
          "internalType": "address",
          "name": "account",
          "type": "address"
        }
      ],
      "name": "Unpaused",
      "type": "event"
    },
    {
      "anonymous": false,
      "inputs": [
        {
          "indexed": true,
          "internalType": "address",
          "name": "from",
          "type": "address"
        },
        {
          "indexed": false,
          "internalType": "uint256",
          "name": "eventId",
          "type": "uint256"
        },
        {
          "indexed": false,
          "internalType": "address",
          "name": "tokenFrom",
          "type": "address"
        },
        {
          "indexed": false,
          "internalType": "address",
          "name": "tokenTo",
          "type": "address"
        },
        {
          "indexed": false,
          "internalType": "uint256",
          "name": "amount",
          "type": "uint256"
        },
        {
          "indexed": false,
          "internalType": "uint256",
          "name": "transferFeeAmount",
          "type": "uint256"
        },
        {
          "indexed": false,
          "internalType": "uint256",
          "name": "bridgeFeeAmount",
          "type": "uint256"
        }
      ],
      "name": "Withdraw",
      "type": "event"
    },
    {
      "inputs": [],
      "name": "ADMIN_ROLE",
      "outputs": [
        {
          "internalType": "bytes32",
          "name": "",
          "type": "bytes32"
        }
      ],
      "stateMutability": "view",
      "type": "function"
    },
    {
      "inputs": [],
      "name": "DEFAULT_ADMIN_ROLE",
      "outputs": [
        {
          "internalType": "bytes32",
          "name": "",
          "type": "bytes32"
        }
      ],
      "stateMutability": "view",
      "type": "function"
    },
    {
      "inputs": [],
      "name": "FEE_PROVIDER_ROLE",
      "outputs": [
        {
          "internalType": "bytes32",
          "name": "",
          "type": "bytes32"
        }
      ],
      "stateMutability": "view",
      "type": "function"
    },
    {
      "inputs": [],
      "name": "RELAY_ROLE",
      "outputs": [
        {
          "internalType": "bytes32",
          "name": "",
          "type": "bytes32"
        }
      ],
      "stateMutability": "view",
      "type": "function"
    },
    {
      "inputs": [],
      "name": "WATCHDOG_ROLE",
      "outputs": [
        {
          "internalType": "bytes32",
          "name": "",
          "type": "bytes32"
        }
      ],
      "stateMutability": "view",
      "type": "function"
    },
    {
      "inputs": [],
      "name": "bridgeFeeRecipient",
      "outputs": [
        {
          "internalType": "address payable",
          "name": "",
          "type": "address"
        }
      ],
      "stateMutability": "view",
      "type": "function"
    },
    {
      "inputs": [
        {
          "internalType": "address payable",
          "name": "feeRecipient_",
          "type": "address"
        }
      ],
      "name": "changeBridgeFeeRecipient",
      "outputs": [],
      "stateMutability": "nonpayable",
      "type": "function"
    },
    {
      "inputs": [
        {
          "internalType": "uint256",
          "name": "lockTime_",
          "type": "uint256"
        }
      ],
      "name": "changeLockTime",
      "outputs": [],
      "stateMutability": "nonpayable",
      "type": "function"
    },
    {
      "inputs": [
        {
          "internalType": "uint256",
          "name": "minSafetyBlocks_",
          "type": "uint256"
        }
      ],
      "name": "changeMinSafetyBlocks",
      "outputs": [],
      "stateMutability": "nonpayable",
      "type": "function"
    },
    {
      "inputs": [
        {
          "internalType": "uint256",
          "name": "signatureFeeCheckNumber_",
          "type": "uint256"
        }
      ],
      "name": "changeSignatureFeeCheckNumber",
      "outputs": [],
      "stateMutability": "nonpayable",
      "type": "function"
    },
    {
      "inputs": [
        {
          "internalType": "uint256",
          "name": "timeframeSeconds_",
          "type": "uint256"
        }
      ],
      "name": "changeTimeframeSeconds",
      "outputs": [],
      "stateMutability": "nonpayable",
      "type": "function"
    },
    {
      "inputs": [
        {
          "internalType": "address payable",
          "name": "feeRecipient_",
          "type": "address"
        }
      ],
      "name": "changeTransferFeeRecipient",
      "outputs": [],
      "stateMutability": "nonpayable",
      "type": "function"
    },
    {
      "inputs": [
        {
          "internalType": "bytes32",
          "name": "",
          "type": "bytes32"
        },
        {
          "internalType": "address",
          "name": "",
          "type": "address"
        }
      ],
      "name": "confirmations",
      "outputs": [
        {
          "internalType": "bool",
          "name": "",
          "type": "bool"
        }
      ],
      "stateMutability": "view",
      "type": "function"
    },
    {
      "inputs": [],
      "name": "confirmationsThreshold",
      "outputs": [
        {
          "internalType": "uint256",
          "name": "",
          "type": "uint256"
        }
      ],
      "stateMutability": "view",
      "type": "function"
    },
    {
      "inputs": [
        {
          "internalType": "bytes32",
          "name": "hash",
          "type": "bytes32"
        }
      ],
      "name": "confirmedCount",
      "outputs": [
        {
          "internalType": "uint256",
          "name": "",
          "type": "uint256"
        }
      ],
      "stateMutability": "view",
      "type": "function"
    },
    {
      "inputs": [
        {
          "internalType": "uint256",
          "name": "eventId",
          "type": "uint256"
        }
      ],
      "name": "getLockedTransfers",
      "outputs": [
        {
          "components": [
            {
              "components": [
                {
                  "internalType": "address",
                  "name": "tokenAddress",
                  "type": "address"
                },
                {
                  "internalType": "address",
                  "name": "toAddress",
                  "type": "address"
                },
                {
                  "internalType": "uint256",
                  "name": "amount",
                  "type": "uint256"
                }
              ],
              "internalType": "struct CommonStructs.Transfer[]",
              "name": "transfers",
              "type": "tuple[]"
            },
            {
              "internalType": "uint256",
              "name": "endTimestamp",
              "type": "uint256"
            }
          ],
          "internalType": "struct CommonStructs.LockedTransfers",
          "name": "",
          "type": "tuple"
        }
      ],
      "stateMutability": "view",
      "type": "function"
    },
    {
      "inputs": [],
      "name": "getRelays",
      "outputs": [
        {
          "internalType": "address[]",
          "name": "",
          "type": "address[]"
        }
      ],
      "stateMutability": "view",
      "type": "function"
    },
    {
      "inputs": [
        {
          "internalType": "bytes32",
          "name": "role",
          "type": "bytes32"
        }
      ],
      "name": "getRoleAdmin",
      "outputs": [
        {
          "internalType": "bytes32",
          "name": "",
          "type": "bytes32"
        }
      ],
      "stateMutability": "view",
      "type": "function"
    },
    {
      "inputs": [
        {
          "internalType": "bytes32",
          "name": "role",
          "type": "bytes32"
        },
        {
          "internalType": "address",
          "name": "account",
          "type": "address"
        }
      ],
      "name": "grantRole",
      "outputs": [],
      "stateMutability": "nonpayable",
      "type": "function"
    },
    {
      "inputs": [
        {
          "internalType": "bytes32",
          "name": "role",
          "type": "bytes32"
        },
        {
          "internalType": "address",
          "name": "account",
          "type": "address"
        }
      ],
      "name": "hasRole",
      "outputs": [
        {
          "internalType": "bool",
          "name": "",
          "type": "bool"
        }
      ],
      "stateMutability": "view",
      "type": "function"
    },
    {
      "inputs": [
        {
          "components": [
            {
              "internalType": "address",
              "name": "sideBridgeAddress",
              "type": "address"
            },
            {
              "internalType": "address",
              "name": "adminAddress",
              "type": "address"
            },
            {
              "internalType": "address",
              "name": "relayAddress",
              "type": "address"
            },
            {
              "internalType": "address",
              "name": "wrappingTokenAddress",
              "type": "address"
            },
            {
              "internalType": "address[]",
              "name": "tokenThisAddresses",
              "type": "address[]"
            },
            {
              "internalType": "address[]",
              "name": "tokenSideAddresses",
              "type": "address[]"
            },
            {
              "internalType": "address payable",
              "name": "transferFeeRecipient",
              "type": "address"
            },
            {
              "internalType": "address payable",
              "name": "bridgeFeeRecipient",
              "type": "address"
            },
            {
              "internalType": "uint256",
              "name": "timeframeSeconds",
              "type": "uint256"
            },
            {
              "internalType": "uint256",
              "name": "lockTime",
              "type": "uint256"
            },
            {
              "internalType": "uint256",
              "name": "minSafetyBlocks",
              "type": "uint256"
            }
          ],
          "internalType": "struct CommonStructs.ConstructorArgs",
          "name": "args",
          "type": "tuple"
        },
        {
          "internalType": "uint256",
          "name": "_confirmations",
          "type": "uint256"
        },
        {
          "internalType": "address[]",
          "name": "_relays",
          "type": "address[]"
        }
      ],
      "name": "initialize",
      "outputs": [],
      "stateMutability": "nonpayable",
      "type": "function"
    },
    {
      "inputs": [],
      "name": "inputEventId",
      "outputs": [
        {
          "internalType": "uint256",
          "name": "",
          "type": "uint256"
        }
      ],
      "stateMutability": "view",
      "type": "function"
    },
    {
      "inputs": [
        {
          "internalType": "address",
          "name": "relay",
          "type": "address"
        },
        {
          "internalType": "uint256",
          "name": "eventId",
          "type": "uint256"
        },
        {
          "components": [
            {
              "internalType": "address",
              "name": "tokenAddress",
              "type": "address"
            },
            {
              "internalType": "address",
              "name": "toAddress",
              "type": "address"
            },
            {
              "internalType": "uint256",
              "name": "amount",
              "type": "uint256"
            }
          ],
          "internalType": "struct CommonStructs.Transfer[]",
          "name": "transfers",
          "type": "tuple[]"
        }
      ],
      "name": "isConfirmedByRelay",
      "outputs": [
        {
          "internalType": "bool",
          "name": "",
          "type": "bool"
        }
      ],
      "stateMutability": "view",
      "type": "function"
    },
    {
      "inputs": [],
      "name": "isQueueEmpty",
      "outputs": [
        {
          "internalType": "bool",
          "name": "",
          "type": "bool"
        }
      ],
      "stateMutability": "view",
      "type": "function"
    },
    {
      "inputs": [
        {
          "internalType": "address",
          "name": "relay",
          "type": "address"
        }
      ],
      "name": "isRelay",
      "outputs": [
        {
          "internalType": "bool",
          "name": "",
          "type": "bool"
        }
      ],
      "stateMutability": "view",
      "type": "function"
    },
    {
      "inputs": [],
      "name": "lastTimeframe",
      "outputs": [
        {
          "internalType": "uint256",
          "name": "",
          "type": "uint256"
        }
      ],
      "stateMutability": "view",
      "type": "function"
    },
    {
      "inputs": [],
      "name": "lockTime",
      "outputs": [
        {
          "internalType": "uint256",
          "name": "",
          "type": "uint256"
        }
      ],
      "stateMutability": "view",
      "type": "function"
    },
    {
      "inputs": [
        {
          "internalType": "uint256",
          "name": "",
          "type": "uint256"
        }
      ],
      "name": "lockedTransfers",
      "outputs": [
        {
          "internalType": "uint256",
          "name": "endTimestamp",
          "type": "uint256"
        }
      ],
      "stateMutability": "view",
      "type": "function"
    },
    {
      "inputs": [],
      "name": "minSafetyBlocks",
      "outputs": [
        {
          "internalType": "uint256",
          "name": "",
          "type": "uint256"
        }
      ],
      "stateMutability": "view",
      "type": "function"
    },
    {
      "inputs": [],
      "name": "oldestLockedEventId",
      "outputs": [
        {
          "internalType": "uint256",
          "name": "",
          "type": "uint256"
        }
      ],
      "stateMutability": "view",
      "type": "function"
    },
    {
      "inputs": [],
      "name": "outputEventId",
      "outputs": [
        {
          "internalType": "uint256",
          "name": "",
          "type": "uint256"
        }
      ],
      "stateMutability": "view",
      "type": "function"
    },
    {
      "inputs": [],
      "name": "pause",
      "outputs": [],
      "stateMutability": "nonpayable",
      "type": "function"
    },
    {
      "inputs": [],
      "name": "paused",
      "outputs": [
        {
          "internalType": "bool",
          "name": "",
          "type": "bool"
        }
      ],
      "stateMutability": "view",
      "type": "function"
    },
    {
      "inputs": [
        {
          "internalType": "uint256",
          "name": "",
          "type": "uint256"
        }
      ],
      "name": "relays",
      "outputs": [
        {
          "internalType": "address",
          "name": "",
          "type": "address"
        }
      ],
      "stateMutability": "view",
      "type": "function"
    },
    {
      "inputs": [
        {
          "internalType": "uint256",
          "name": "eventId",
          "type": "uint256"
        }
      ],
      "name": "removeLockedTransfers",
      "outputs": [],
      "stateMutability": "nonpayable",
      "type": "function"
    },
    {
      "inputs": [
        {
          "internalType": "bytes32",
          "name": "role",
          "type": "bytes32"
        },
        {
          "internalType": "address",
          "name": "account",
          "type": "address"
        }
      ],
      "name": "renounceRole",
      "outputs": [],
      "stateMutability": "nonpayable",
      "type": "function"
    },
    {
      "inputs": [
        {
          "internalType": "bytes32",
          "name": "role",
          "type": "bytes32"
        },
        {
          "internalType": "address",
          "name": "account",
          "type": "address"
        }
      ],
      "name": "revokeRole",
      "outputs": [],
      "stateMutability": "nonpayable",
      "type": "function"
    },
    {
      "inputs": [
        {
          "internalType": "address[]",
          "name": "toRemove",
          "type": "address[]"
        },
        {
          "internalType": "address[]",
          "name": "toAdd",
          "type": "address[]"
        },
        {
          "internalType": "uint256",
          "name": "_confirmations",
          "type": "uint256"
        }
      ],
      "name": "setRelaysAndConfirmations",
      "outputs": [],
      "stateMutability": "nonpayable",
      "type": "function"
    },
    {
      "inputs": [
        {
          "internalType": "address",
          "name": "_sideBridgeAddress",
          "type": "address"
        }
      ],
      "name": "setSideBridge",
      "outputs": [],
      "stateMutability": "nonpayable",
      "type": "function"
    },
    {
      "inputs": [],
      "name": "sideBridgeAddress",
      "outputs": [
        {
          "internalType": "address",
          "name": "",
          "type": "address"
        }
      ],
      "stateMutability": "view",
      "type": "function"
    },
    {
      "inputs": [
        {
          "internalType": "uint256",
          "name": "eventId",
          "type": "uint256"
        }
      ],
      "name": "skipTransfers",
      "outputs": [],
      "stateMutability": "nonpayable",
      "type": "function"
    },
    {
      "inputs": [
        {
          "internalType": "uint256",
          "name": "eventId",
          "type": "uint256"
        },
        {
          "components": [
            {
              "internalType": "address",
              "name": "tokenAddress",
              "type": "address"
            },
            {
              "internalType": "address",
              "name": "toAddress",
              "type": "address"
            },
            {
              "internalType": "uint256",
              "name": "amount",
              "type": "uint256"
            }
          ],
          "internalType": "struct CommonStructs.Transfer[]",
          "name": "transfers",
          "type": "tuple[]"
        }
      ],
      "name": "submitTransferUntrustless",
      "outputs": [],
      "stateMutability": "nonpayable",
      "type": "function"
    },
    {
      "inputs": [
        {
          "internalType": "bytes4",
          "name": "interfaceId",
          "type": "bytes4"
        }
      ],
      "name": "supportsInterface",
      "outputs": [
        {
          "internalType": "bool",
          "name": "",
          "type": "bool"
        }
      ],
      "stateMutability": "view",
      "type": "function"
    },
    {
      "inputs": [],
      "name": "timeframeSeconds",
      "outputs": [
        {
          "internalType": "uint256",
          "name": "",
          "type": "uint256"
        }
      ],
      "stateMutability": "view",
      "type": "function"
    },
    {
      "inputs": [
        {
          "internalType": "address",
          "name": "",
          "type": "address"
        }
      ],
      "name": "tokenAddresses",
      "outputs": [
        {
          "internalType": "address",
          "name": "",
          "type": "address"
        }
      ],
      "stateMutability": "view",
      "type": "function"
    },
    {
      "inputs": [
        {
          "internalType": "address",
          "name": "tokenThisAddress",
          "type": "address"
        },
        {
          "internalType": "address",
          "name": "tokenSideAddress",
          "type": "address"
        }
      ],
      "name": "tokensAdd",
      "outputs": [],
      "stateMutability": "nonpayable",
      "type": "function"
    },
    {
      "inputs": [
        {
          "internalType": "address[]",
          "name": "tokenThisAddresses",
          "type": "address[]"
        },
        {
          "internalType": "address[]",
          "name": "tokenSideAddresses",
          "type": "address[]"
        }
      ],
      "name": "tokensAddBatch",
      "outputs": [],
      "stateMutability": "nonpayable",
      "type": "function"
    },
    {
      "inputs": [
        {
          "internalType": "address",
          "name": "tokenThisAddress",
          "type": "address"
        }
      ],
      "name": "tokensRemove",
      "outputs": [],
      "stateMutability": "nonpayable",
      "type": "function"
    },
    {
      "inputs": [
        {
          "internalType": "address[]",
          "name": "tokenThisAddresses",
          "type": "address[]"
        }
      ],
      "name": "tokensRemoveBatch",
      "outputs": [],
      "stateMutability": "nonpayable",
      "type": "function"
    },
    {
      "inputs": [],
      "name": "transferFeeRecipient",
      "outputs": [
        {
          "internalType": "address payable",
          "name": "",
          "type": "address"
        }
      ],
      "stateMutability": "view",
      "type": "function"
    },
    {
      "inputs": [
        {
          "internalType": "uint256",
          "name": "eventId",
          "type": "uint256"
        },
        {
          "components": [
            {
              "internalType": "address",
              "name": "tokenAddress",
              "type": "address"
            },
            {
              "internalType": "address",
              "name": "toAddress",
              "type": "address"
            },
            {
              "internalType": "uint256",
              "name": "amount",
              "type": "uint256"
            }
          ],
          "internalType": "struct CommonStructs.Transfer[]",
          "name": "transfers",
          "type": "tuple[]"
        }
      ],
      "name": "transfersHash",
      "outputs": [
        {
          "internalType": "bytes32",
          "name": "",
          "type": "bytes32"
        }
      ],
      "stateMutability": "pure",
      "type": "function"
    },
    {
      "inputs": [],
      "name": "triggerTransfers",
      "outputs": [],
      "stateMutability": "nonpayable",
      "type": "function"
    },
    {
      "inputs": [
        {
          "internalType": "uint256",
          "name": "eventId",
          "type": "uint256"
        }
      ],
      "name": "unlockTransfers",
      "outputs": [],
      "stateMutability": "nonpayable",
      "type": "function"
    },
    {
      "inputs": [],
      "name": "unlockTransfersBatch",
      "outputs": [],
      "stateMutability": "nonpayable",
      "type": "function"
    },
    {
      "inputs": [],
      "name": "unpause",
      "outputs": [],
      "stateMutability": "nonpayable",
      "type": "function"
    },
    {
      "inputs": [
        {
          "internalType": "uint256",
          "name": "_confirmations",
          "type": "uint256"
        },
        {
          "internalType": "address[]",
          "name": "_relays",
          "type": "address[]"
        }
      ],
      "name": "upgrade",
      "outputs": [],
      "stateMutability": "nonpayable",
      "type": "function"
    },
    {
      "inputs": [
        {
          "internalType": "address",
          "name": "tokenThisAddress",
          "type": "address"
        },
        {
          "internalType": "address",
          "name": "toAddress",
          "type": "address"
        },
        {
          "internalType": "uint256",
          "name": "amount",
          "type": "uint256"
        },
        {
          "internalType": "bool",
          "name": "unwrapSide",
          "type": "bool"
        },
        {
          "internalType": "bytes",
          "name": "feeSignature",
          "type": "bytes"
        },
        {
          "internalType": "uint256",
          "name": "transferFee",
          "type": "uint256"
        },
        {
          "internalType": "uint256",
          "name": "bridgeFee",
          "type": "uint256"
        }
      ],
      "name": "withdraw",
      "outputs": [],
      "stateMutability": "payable",
      "type": "function"
    },
    {
      "inputs": [
        {
          "internalType": "address",
          "name": "toAddress",
          "type": "address"
        },
        {
          "internalType": "bytes",
          "name": "feeSignature",
          "type": "bytes"
        },
        {
          "internalType": "uint256",
          "name": "transferFee",
          "type": "uint256"
        },
        {
          "internalType": "uint256",
          "name": "bridgeFee",
          "type": "uint256"
        }
      ],
      "name": "wrapWithdraw",
      "outputs": [],
      "stateMutability": "payable",
      "type": "function"
    },
    {
      "inputs": [],
      "name": "wrapperAddress",
      "outputs": [
        {
          "internalType": "address",
          "name": "",
          "type": "address"
        }
      ],
      "stateMutability": "view",
      "type": "function"
    },
    {
      "stateMutability": "payable",
      "type": "receive"
    }
  ],
  "transactionHash": "0x1034c370d69ea082658bbac0741bec4f183c89a915cce1d88cd447997d6ceb4c",
  "args": [],
  "numDeployments": 1,
  "solcInputHash": "13963204c1e3ae6f33bd8024ced50cd9",
  "bytecode": "0x608060405234801561001057600080fd5b506141eb806100206000396000f3fe6080604052600436106103945760003560e060020a9004806384d8f01b116101e0578063ba8bbbe011610106578063e1137f19116100a4578063f700558711610073578063f700558714610ab5578063f862b7eb14610ad5578063f8b7443314610af5578063fd5d2ef314610b0857600080fd5b8063e1137f1914610a28578063e31be08714610a48578063f33fe10f14610a75578063f3ee208014610a9557600080fd5b8063cf3317d3116100e0578063cf3317d314610994578063d3b89f49146109b4578063d547741f146109e8578063ded0eaef14610a0857600080fd5b8063ba8bbbe014610948578063baeebe751461095e578063cea91f8f1461097457600080fd5b8063924cf6e01161017e578063a9b1cf0b1161014d578063a9b1cf0b146108a8578063b06a13ef146108dc578063b6d3385e146108f2578063b87330e91461092857600080fd5b8063924cf6e01461084757806396cf52271461085d57806399b5bb641461087d578063a217fddf1461089357600080fd5b80638ac1f86f116101ba5780638ac1f86f146107df5780638e5df9c7146107f457806391c5bc0a1461081457806391d148541461082757600080fd5b806384d8f01b14610789578063853890ae146107a957806386d7679e146107c957600080fd5b806336568abe116102c55780635249a70511610263578063746b5c4211610232578063746b5c421461071d57806375b238fc146107325780637df8b802146107545780638456cb591461077457600080fd5b80635249a705146106a55780635b403c28146106c55780635c975abb146106e55780636c5dc9ad146106fd57600080fd5b80633f4ba83a1161029f5780633f4ba83a1461062057806342180fb8146106355780634a1856de146106555780635119b0ef1461068557600080fd5b806336568abe146105c0578063390d5388146105e05780633928b2961461060057600080fd5b8063248a9ca3116103325780632bbba8471161030c5780632bbba847146105325780632f2ff15d14610548578063304561bb14610568578063331a891a146105a057600080fd5b8063248a9ca3146104cc57806326cb32b7146104fc578063297c26771461051c57600080fd5b80630c4ecab41161036e5780630c4ecab4146104395780630d6680871461047457806321d3d5361461048a57806323a93b1e146104aa57600080fd5b806301ffc9a7146103a057806304421823146103d557806309fce3561461041757600080fd5b3661039b57005b600080fd5b3480156103ac57600080fd5b506103c06103bb366004613a72565b610b28565b60405190151581526020015b60405180910390f35b3480156103e157600080fd5b506104097f077a1d526a4ce8a773632ab13b4fbbf1fcc954c3dab26cd27ea0e2a6750da5d781565b6040519081526020016103cc565b34801561042357600080fd5b50610437610432366004613943565b610bbb565b005b34801561044557600080fd5b506103c0610454366004613a4d565b60e860209081526000928352604080842090915290825290205460ff1681565b34801561048057600080fd5b5061040960d45481565b34801561049657600080fd5b506104376104a5366004613754565b610be7565b3480156104b657600080fd5b506104bf610c77565b6040516103cc9190613cff565b3480156104d857600080fd5b506104096104e7366004613a34565b60009081526065602052604090206001015490565b34801561050857600080fd5b506103c0610517366004613754565b610cd9565b34801561052857600080fd5b5061040960d65481565b34801561053e57600080fd5b5060ca54156103c0565b34801561055457600080fd5b50610437610563366004613a4d565b610d43565b34801561057457600080fd5b5060cf5461058890600160a060020a031681565b604051600160a060020a0390911681526020016103cc565b3480156105ac57600080fd5b506104376105bb366004613a34565b610d6e565b3480156105cc57600080fd5b506104376105db366004613a4d565b610e85565b3480156105ec57600080fd5b5060d05461058890600160a060020a031681565b34801561060c57600080fd5b5061043761061b366004613754565b610f10565b34801561062c57600080fd5b50610437610f4c565b34801561064157600080fd5b50610437610650366004613a34565b610f70565b34801561066157600080fd5b50610409610670366004613a34565b60cb6020526000908152604090206001015481565b34801561069157600080fd5b506104376106a0366004613be8565b610fad565b3480156106b157600080fd5b506104376106c0366004613901565b611096565b3480156106d157600080fd5b506104376106e0366004613b11565b61111f565b3480156106f157600080fd5b5060975460ff166103c0565b34801561070957600080fd5b50610409610718366004613a34565b61118b565b34801561072957600080fd5b50610437611214565b34801561073e57600080fd5b5061040960008051602061419683398151915281565b34801561076057600080fd5b5060ce5461058890600160a060020a031681565b34801561078057600080fd5b506104376112c0565b34801561079557600080fd5b506104376107a43660046139a3565b6112f3565b3480156107b557600080fd5b506104376107c4366004613771565b6113b4565b3480156107d557600080fd5b5061040960d75481565b3480156107eb57600080fd5b506104376113fc565b34801561080057600080fd5b5061043761080f366004613754565b611554565b61043761082236600461383e565b611595565b34801561083357600080fd5b506103c0610842366004613a4d565b6118c5565b34801561085357600080fd5b5061040960d25481565b34801561086957600080fd5b50610437610878366004613a34565b6118f0565b34801561088957600080fd5b5061040960d55481565b34801561089f57600080fd5b50610409600081565b3480156108b457600080fd5b506104097fb7f2fcb7a10916921b74b9baa8ea85f89b12ab12f6ededa160998f8b20e65f9581565b3480156108e857600080fd5b5061040960e75481565b3480156108fe57600080fd5b5061058861090d366004613754565b60cd60205260009081526040902054600160a060020a031681565b34801561093457600080fd5b50610437610943366004613754565b61190f565b34801561095457600080fd5b5061040960cc5481565b34801561096a57600080fd5b5061040960d35481565b34801561098057600080fd5b5061040961098f366004613be8565b61194b565b3480156109a057600080fd5b506104376109af366004613a34565b611a34565b3480156109c057600080fd5b506104097f516d5e7ed3e60a6b2804c1554cd94bc2eb576e44b192a0e069d4c527589a887e81565b3480156109f457600080fd5b50610437610a03366004613a4d565b611aab565b348015610a1457600080fd5b506103c0610a233660046138a5565b611ad1565b348015610a3457600080fd5b50610588610a43366004613a34565b611b10565b348015610a5457600080fd5b50610a68610a63366004613a34565b611b3a565b6040516103cc9190613f17565b348015610a8157600080fd5b5060d15461058890600160a060020a031681565b348015610aa157600080fd5b50610437610ab0366004613ab1565b611bf6565b348015610ac157600080fd5b50610437610ad0366004613a34565b611cb4565b348015610ae157600080fd5b50610437610af0366004613a34565b611cd3565b610437610b033660046137aa565b611f06565b348015610b1457600080fd5b50610437610b23366004613a34565b612366565b60007bffffffffffffffffffffffffffffffffffffffffffffffffffffffff1982167f7965db0b000000000000000000000000000000000000000000000000000000001480610bb557507f01ffc9a7000000000000000000000000000000000000000000000000000000007bffffffffffffffffffffffffffffffffffffffffffffffffffffffff198316145b92915050565b600080516020614196833981519152610bd48133612385565b610be0858585856123ec565b5050505050565b6000610bf38133612385565b60d154600160a060020a031615610c545760405160e560020a62461bcd02815260206004820152601d60248201527f736964654272696467654164647265737320616c72656164792073657400000060448201526064015b60405180910390fd5b5060d18054600160a060020a031916600160a060020a0392909216919091179055565b606060e9805480602002602001604051908101604052809291908181526020018280548015610ccf57602002820191906000526020600020905b8154600160a060020a03168152600190910190602001808311610cb1575b5050505050905090565b6000805b60e954811015610d3a5782600160a060020a031660e98281548110610d0457610d046140e1565b600091825260209091200154600160a060020a03161415610d285750600192915050565b80610d3281614094565b915050610cdd565b50600092915050565b600082815260656020526040902060010154610d5f8133612385565b610d69838361250d565b505050565b600080516020614196833981519152610d878133612385565b60975460ff16610dac5760405160e560020a62461bcd028152600401610c4b90613def565b60cc54821015610dd15760405160e560020a62461bcd028152600401610c4b90613eba565b60d554821115610e265760405160e560020a62461bcd02815260206004820152601f60248201527f6576656e744964206d757374206265203c3d20696e7075744576656e744964006044820152606401610c4b565b610e3160018361403a565b60d5555b600082815260cb602052604090206001015415610e8157600082815260cb6020526040812090610e6582826135a4565b5060006001919091015581610e7981614094565b925050610e35565b5050565b600160a060020a0381163314610f065760405160e560020a62461bcd02815260206004820152602f60248201527f416363657373436f6e74726f6c3a2063616e206f6e6c792072656e6f756e636560448201527f20726f6c657320666f722073656c6600000000000000000000000000000000006064820152608401610c4b565b610e818282612593565b600080516020614196833981519152610f298133612385565b5060d08054600160a060020a031916600160a060020a0392909216919091179055565b600080516020614196833981519152610f658133612385565b610f6d6125fa565b50565b600080516020614196833981519152610f898133612385565b8160d35460d754610f9a919061401b565b610fa49190613ff6565b60d7555060d355565b60975460ff1615610fd35760405160e560020a62461bcd028152600401610c4b90613e26565b60d554610fe1906001613fde565b83146110325760405160e560020a62461bcd02815260206004820152601460248201527f4576656e744964206f7574206f66206f726465720000000000000000000000006044820152606401610c4b565b600061103f848484612669565b905080156110905760d56000815461105690614094565b9091555060405184907f196c47048e38df7a4fe6e581c8f4f2e2ba67ac0dd45b90da756e97bd61d9dd3b90600090a2611090838386612814565b50505050565b6000805160206141968339815191526110af8133612385565b8160005b81811015610be05760cd60008686848181106110d1576110d16140e1565b90506020020160208101906110e69190613754565b600160a060020a0316815260208101919091526040016000208054600160a060020a03191690558061111781614094565b9150506110b3565b3330146111715760405160e560020a62461bcd02815260206004820152601c60248201527f54686973206d6574686f642072657175697265206d756c7469736967000000006044820152606401610c4b565b80516111849060e99060208401906135c5565b505060e755565b60008060005b60e95481101561120d57600084815260e86020526040812060e98054919291849081106111c0576111c06140e1565b6000918252602080832090910154600160a060020a0316835282019290925260400190205460ff16156111fb57816111f781614094565b9250505b8061120581614094565b915050611191565b5092915050565b60ca546112665760405160e560020a62461bcd02815260206004820152600e60248201527f517565756520697320656d7074790000000000000000000000000000000000006044820152606401610c4b565b60d6805490600061127683614094565b919050557fe15729a2f427aa4572dab35eb692c902fcbce57d41642013259c741380809ae260ca6040516112aa9190613d4c565b60405180910390a26112be60ca60006135a4565b565b7fb7f2fcb7a10916921b74b9baa8ea85f89b12ab12f6ededa160998f8b20e65f956112eb8133612385565b610f6d6128a2565b3330146113455760405160e560020a62461bcd02815260206004820152601c60248201527f54686973206d6574686f642072657175697265206d756c7469736967000000006044820152606401610c4b565b610be0858580806020026020016040519081016040528093929190818152602001838360200280828437600092019190915250506040805160208089028281018201909352888252909350889250879182918501908490808284376000920191909152508692506128fd915050565b6000805160206141968339815191526113cd8133612385565b50600160a060020a03918216600090815260cd602052604090208054600160a060020a03191691909216179055565b60975460ff16156114225760405160e560020a62461bcd028152600401610c4b90613e26565b60cc545b600081815260cb60209081526040808320815181546060948102820185018452928101838152909391928492849190879085015b828210156114b457600084815260209081902060408051606081018252600386029092018054600160a060020a0390811684526001808301549091168486015260029091015491830191909152908352909201910161145a565b50505050815260200160018201548152505090508060200151600014806114de5750428160200151115b156114e9575060cc55565b80516114f4906129c5565b600082815260cb602052604081209061150d82826135a4565b50600060019190910181905560405183917f78ff9b3176bb0d6421590f3816e75cb15a9ffa2b7a1a028f40a3f4e029eb39f291a2508061154c81614094565b915050611426565b60008051602061419683398151915261156d8133612385565b50600160a060020a0316600090815260cd602052604090208054600160a060020a0319169055565b60ce54600160a060020a03908116600090815260cd602052604090205416806116035760405160e560020a62461bcd02815260206004820152601560248201527f556e6b6e6f776e20746f6b656e206164647265737300000000000000000000006044820152606401610c4b565b61160d8284613fde565b341161165e5760405160e560020a62461bcd02815260206004820152601160248201527f53656e742076616c7565203c3d206665650000000000000000000000000000006044820152606401610c4b565b60008261166b853461403a565b611675919061403a565b60ce5490915061169290600160a060020a03168787878786612c59565b60cf54604051600160a060020a039091169085156108fc029086906000818181858888f193505050501580156116cc573d6000803e3d6000fd5b5060d054604051600160a060020a039091169084156108fc029085906000818181858888f19350505050158015611707573d6000803e3d6000fd5b5060ce60009054906101000a9004600160a060020a0316600160a060020a031663d0e30db0826040518263ffffffff1660e060020a0281526004016000604051808303818588803b15801561175b57600080fd5b505af115801561176f573d6000803e3d6000fd5b505060408051606081018252600160a060020a0380881682528c81166020830190815282840188815260ca80546001810182556000918252945160039095027f42d72674974f694b5f5159593243114d38a5c39c89d6b62fee061ff523240ee181018054968616600160a060020a031997881617905592517f42d72674974f694b5f5159593243114d38a5c39c89d6b62fee061ff523240ee2840180549190951695169490941790925590517f42d72674974f694b5f5159593243114d38a5c39c89d6b62fee061ff523240ee39091015560d65491513395507f3b823d3b837159352faddd1e0b9e9f584ca2bfe976238f6a9e6da4615cf2f44494506118ac9350879087908b908b90958652600160a060020a0394851660208701529290931660408501526060840152608083019190915260a082015260c00190565b60405180910390a26118bc612dff565b50505050505050565b6000918252606560209081526040808420600160a060020a0393909316845291905290205460ff1690565b6000805160206141968339815191526119098133612385565b5060d455565b6000805160206141968339815191526119288133612385565b5060cf8054600160a060020a031916600160a060020a0392909216919091179055565b6000808460405160200161196191815260200190565b604051602081830303815290604052905060005b83811015611a235781858583818110611990576119906140e1565b905060600201604001358686848181106119ac576119ac6140e1565b90506060020160200160208101906119c49190613754565b8787858181106119d6576119d66140e1565b6119ec9260206060909202019081019150613754565b6040516020016119ff9493929190613c34565b60405160208183030381529060405291508080611a1b90614094565b915050611975565b508051602090910120949350505050565b600080516020614196833981519152611a4d8133612385565b60975460ff16611a725760405160e560020a62461bcd028152600401610c4b90613def565b60cc54821015611a975760405160e560020a62461bcd028152600401610c4b90613eba565b611aa260018361403a565b60d5555060cc55565b600082815260656020526040902060010154611ac78133612385565b610d698383612593565b600080611adf85858561194b565b600090815260e860209081526040808320600160a060020a038a16845290915290205460ff16915050949350505050565b60e98181548110611b2057600080fd5b600091825260209091200154600160a060020a0316905081565b604080518082019091526060815260006020820152600082815260cb60209081526040808320815181546060948102820185018452928101838152909491938593919285929185015b82821015611bdd57600084815260209081902060408051606081018252600386029092018054600160a060020a03908116845260018083015490911684860152600290910154918301919091529083529092019101611b83565b5050505081526020016001820154815250509050919050565b600054610100900460ff1680611c0f575060005460ff16155b611c2e5760405160e560020a62461bcd028152600401610c4b90613e5d565b600054610100900460ff16158015611c50576000805461ffff19166101011790555b611c5985612e77565b6040805160008152602084810280830184018452908201858152611c9c9390918791879182918601908490808284376000920191909152508992506128fd915050565b8015610be0576000805461ff00191690555050505050565b600080516020614196833981519152611ccd8133612385565b5060c955565b60975460ff1615611cf95760405160e560020a62461bcd028152600401610c4b90613e26565b60cc548114611d4d5760405160e560020a62461bcd02815260206004820152601c60248201527f63616e20756e6c6f636b206f6e6c79206f6c64657374206576656e74000000006044820152606401610c4b565b600081815260cb60209081526040808320815181546060948102820185018452928101838152909391928492849190879085015b82821015611ddb57600084815260209081902060408051606081018252600386029092018054600160a060020a03908116845260018083015490911684860152600290910154918301919091529083529092019101611d81565b50505050815260200160018201548152505090506000816020015111611e465760405160e560020a62461bcd02815260206004820181905260248201527f6e6f206c6f636b6564207472616e7366657273207769746820746869732069646044820152606401610c4b565b42816020015110611e9c5760405160e560020a62461bcd02815260206004820152601b60248201527f6c6f636b54696d6520686173206e6f74207965742070617373656400000000006044820152606401610c4b565b8051611ea7906129c5565b600082815260cb6020526040812090611ec082826135a4565b50600060019190910181905560405183917f78ff9b3176bb0d6421590f3816e75cb15a9ffa2b7a1a028f40a3f4e029eb39f291a2611eff826001613fde565b60cc555050565b60008515611f9b576000805260cd6020527fcd565b10a72538d86f6d352f37ebc5dff31587960b12c0afe00fd03947a6932a54600160a060020a038a8116911614611f965760405160e560020a62461bcd02815260206004820152601f60248201527f546f6b656e206e6f7420706f696e7420746f206e617469766520746f6b656e006044820152606401610c4b565b612007565b50600160a060020a03808916600090815260cd602052604090205416806120075760405160e560020a62461bcd02815260206004820152601560248201527f556e6b6e6f776e20746f6b656e206164647265737300000000000000000000006044820152606401610c4b565b6120118284613fde565b34146120625760405160e560020a62461bcd02815260206004820152601160248201527f53656e742076616c756520213d206665650000000000000000000000000000006044820152606401610c4b565b600087116120b55760405160e560020a62461bcd02815260206004820152601160248201527f43616e6e6f7420776974686472617720300000000000000000000000000000006044820152606401610c4b565b6120c389868686868c612c59565b60cf54604051600160a060020a039091169084156108fc029085906000818181858888f193505050501580156120fd573d6000803e3d6000fd5b5060d054604051600160a060020a039091169083156108fc029084906000818181858888f19350505050158015612138573d6000803e3d6000fd5b506040517f23b872dd00000000000000000000000000000000000000000000000000000000815233600482015230602482015260448101889052600160a060020a038a16906323b872dd90606401602060405180830381600087803b1580156121a057600080fd5b505af11580156121b4573d6000803e3d6000fd5b505050506040513d601f19601f820116820180604052508101906121d89190613a17565b6122275760405160e560020a62461bcd02815260206004820152601360248201527f4661696c207472616e7366657220636f696e73000000000000000000000000006044820152606401610c4b565b6040805160608082018352600160a060020a038481168084528c821660208086019182528587018e815260ca8054600181018255600091909152965160039097027f42d72674974f694b5f5159593243114d38a5c39c89d6b62fee061ff523240ee181018054988716600160a060020a0319998a1617905592517f42d72674974f694b5f5159593243114d38a5c39c89d6b62fee061ff523240ee284018054918716919098161790965594517f42d72674974f694b5f5159593243114d38a5c39c89d6b62fee061ff523240ee39091015560d6548551908152918e16938201939093529283019190915281018890526080810184905260a0810183905233907f3b823d3b837159352faddd1e0b9e9f584ca2bfe976238f6a9e6da4615cf2f4449060c00160405180910390a261235b612dff565b505050505050505050565b60008051602061419683398151915261237f8133612385565b5060d255565b61238f82826118c5565b610e81576123a781600160a060020a03166014613065565b6123b2836020613065565b6040516020016123c3929190613c7e565b60408051601f198184030181529082905260e560020a62461bcd028252610c4b91600401613dbc565b8281146124645760405160e560020a62461bcd02815260206004820152603f60248201527f73697a6573206f6620746f6b656e5468697341646472657373657320616e642060448201527f746f6b656e53696465416464726573736573206d7573742062652073616d65006064820152608401610c4b565b8260005b8181101561250557838382818110612482576124826140e1565b90506020020160208101906124979190613754565b60cd60008888858181106124ad576124ad6140e1565b90506020020160208101906124c29190613754565b600160a060020a03908116825260208201929092526040016000208054600160a060020a03191692909116919091179055806124fd81614094565b915050612468565b505050505050565b61251782826118c5565b610e81576000828152606560209081526040808320600160a060020a03851684529091529020805460ff1916600117905561254f3390565b600160a060020a031681600160a060020a0316837f2f8788117e7eff1d82e926ec794901d17c78024a50270940304540a733656f0d60405160405180910390a45050565b61259d82826118c5565b15610e81576000828152606560209081526040808320600160a060020a0385168085529252808320805460ff1916905551339285917ff6391f5c32d9c69d2a47ea670b442974b53935d1edc7fd64eb21e047a839171b9190a45050565b60975460ff1661261f5760405160e560020a62461bcd028152600401610c4b90613def565b6097805460ff191690557f5db9ee0a495bf2e6ff9c91a7834c1ba4fdd244a5e8aa4e537bd38aeae4b073aa335b604051600160a060020a03909116815260200160405180910390a1565b600061267433610cd9565b6126c35760405160e560020a62461bcd02815260206004820152601a60248201527f596f75206e6f7420696e2072656c61792077686974656c6973740000000000006044820152606401610c4b565b60006126d085858561194b565b600081815260e86020908152604080832033845290915290205490915060ff16156127405760405160e560020a62461bcd02815260206004820152601f60248201527f596f75206861766520616c726561647920636f6e6669726d65642074686973006044820152606401610c4b565b600061274b8261118b565b905060e75481106127a15760405160e560020a62461bcd02815260206004820152601160248201527f416c726561647920636f6e6669726d65640000000000000000000000000000006044820152606401610c4b565b600082815260e8602090815260408083203380855290835292819020805460ff19166001179055518481528892917f641616eb9b807704f05e9dd7d1af6dad1fb246a364799f84895e21b368a9565b910160405180910390a360e754612808826001613fde565b10159695505050505050565b60d4546128219042613fde565b600082815260cb60205260408120600101919091555b8281101561109057600082815260cb6020526040902084848381811061285f5761285f6140e1565b83546001810185556000948552602090942060609091029290920192600302909101905061288d8282614113565b5050808061289a90614094565b915050612837565b60975460ff16156128c85760405160e560020a62461bcd028152600401610c4b90613e26565b6097805460ff191660011790557f62e78cea01bee320cd4e420270b5ea74000d11b0c9f74754ebdbfc544b05a25861264c3390565b60005b835181101561293d5761292b84828151811061291e5761291e6140e1565b60200260200101516132b6565b8061293581614094565b915050612900565b5060005b825181101561297e5761296c83828151811061295f5761295f6140e1565b602002602001015161343e565b8061297681614094565b915050612941565b508060e75414610d695760e78190556040518181527f6d209fce46041fa384c715150b59ebd0bf9e74509fc58c21b73b490f4ff2bbec9060200160405180910390a1505050565b60005b8151811015610e81576000600160a060020a03168282815181106129ee576129ee6140e1565b602002602001015160000151600160a060020a03161415612b0a5760ce548251600160a060020a0390911690632e1a7d4d90849084908110612a3257612a326140e1565b6020026020010151604001516040518263ffffffff1660e060020a028152600401612a5f91815260200190565b600060405180830381600087803b158015612a7957600080fd5b505af1158015612a8d573d6000803e3d6000fd5b50505050818181518110612aa357612aa36140e1565b602002602001015160200151600160a060020a03166108fc838381518110612acd57612acd6140e1565b6020026020010151604001519081150290604051600060405180830381858888f19350505050158015612b04573d6000803e3d6000fd5b50612c47565b818181518110612b1c57612b1c6140e1565b602002602001015160000151600160a060020a031663a9059cbb838381518110612b4857612b486140e1565b602002602001015160200151848481518110612b6657612b666140e1565b6020026020010151604001516040518363ffffffff1660e060020a028152600401612ba6929190600160a060020a03929092168252602082015260400190565b602060405180830381600087803b158015612bc057600080fd5b505af1158015612bd4573d6000803e3d6000fd5b505050506040513d601f19601f82011682018060405250810190612bf89190613a17565b612c475760405160e560020a62461bcd02815260206004820152601360248201527f4661696c207472616e7366657220636f696e73000000000000000000000000006044820152606401610c4b565b80612c5181614094565b9150506129c8565b60008080612c6961070842613ff6565b905060005b60c954811015612db3576040516c01000000000000000000000000600160a060020a038c160260208201526034810183905260548101889052607481018790526094810186905260b40160408051601f198184030181529082905280516020918201207f19457468657265756d205369676e6564204d6573736167653a0a33320000000091830191909152603c820152605c01604051602081830303815290604052805190602001209350612d59848a8a8080601f01602080910402602001604051908101604052809392919081815260200183838082843760009201919091525061350f92505050565b9250612d857f516d5e7ed3e60a6b2804c1554cd94bc2eb576e44b192a0e069d4c527589a887e846118c5565b15612d935750505050612505565b81612d9d8161407d565b9250508080612dab90614094565b915050612c6e565b5060405160e560020a62461bcd02815260206004820152601660248201527f5369676e617475726520636865636b206661696c6564000000000000000000006044820152606401610c4b565b600060d35442612e0f9190613ff6565b905060d7548114610f6d5760d68054906000612e2a83614094565b919050557fe15729a2f427aa4572dab35eb692c902fcbce57d41642013259c741380809ae260ca604051612e5e9190613d4c565b60405180910390a2612e7260ca60006135a4565b60d755565b600054610100900460ff1680612e90575060005460ff16155b612eaf5760405160e560020a62461bcd028152600401610c4b90613e5d565b600054610100900460ff16158015612ed1576000805461ffff19166101011790555b612edc60003361359a565b612f157f077a1d526a4ce8a773632ab13b4fbbf1fcc954c3dab26cd27ea0e2a6750da5d7612f106060850160408601613754565b61359a565b612f37600080516020614196833981519152612f106040850160208601613754565b612f59612f476080840184613f95565b612f5460a0860186613f95565b6123ec565b612f696080830160608401613754565b60ce8054600160a060020a031916600160a060020a0392909216919091179055612f966020830183613754565b60d18054600160a060020a031916600160a060020a0392909216919091179055612fc660e0830160c08401613754565b60cf8054600160a060020a031916600160a060020a0392909216919091179055612ff7610100830160e08401613754565b60d08054600160a060020a031916600160a060020a039290921691909117905561014082013560d25561010082013560d381905561012083013560d455600160cc81905560d655600360c95561304d9042613ff6565b60d7558015610e81576000805461ff00191690555050565b6060600061307483600261401b565b61307f906002613fde565b67ffffffffffffffff811115613097576130976140fa565b6040519080825280601f01601f1916602001820160405280156130c1576020820181803683370190505b5090507f3000000000000000000000000000000000000000000000000000000000000000816000815181106130f8576130f86140e1565b60200101907effffffffffffffffffffffffffffffffffffffffffffffffffffffffffffff1916908160001a9053507f78000000000000000000000000000000000000000000000000000000000000008160018151811061315b5761315b6140e1565b60200101907effffffffffffffffffffffffffffffffffffffffffffffffffffffffffffff1916908160001a905350600061319784600261401b565b6131a2906001613fde565b90505b600181111561325d577f303132333435363738396162636465660000000000000000000000000000000085600f16601081106131e3576131e36140e1565b1a7f010000000000000000000000000000000000000000000000000000000000000002828281518110613218576132186140e1565b60200101907effffffffffffffffffffffffffffffffffffffffffffffffffffffffffffff1916908160001a9053506010909404936132568161407d565b90506131a5565b5083156132af5760405160e560020a62461bcd02815260206004820181905260248201527f537472696e67733a20686578206c656e67746820696e73756666696369656e746044820152606401610c4b565b9392505050565b60005b60e9548110156133f25781600160a060020a031660e982815481106132e0576132e06140e1565b600091825260209091200154600160a060020a031614156133e05760e9805461330b9060019061403a565b8154811061331b5761331b6140e1565b60009182526020909120015460e98054600160a060020a039092169183908110613347576133476140e1565b9060005260206000200160006101000a815481600160a060020a030219169083600160a060020a0316021790555060e9805480613386576133866140c8565b60008281526020812082016000199081018054600160a060020a0319169055909101909155604051600160a060020a038416917f709f812fac579d78683917073998a39146cfb3fa691a5710de2bddca713b3a6091a25050565b806133ea81614094565b9150506132b9565b5060405160e560020a62461bcd02815260206004820152600b60248201527f4e6f7420612072656c61790000000000000000000000000000000000000000006044820152606401610c4b565b61344781610cd9565b156134975760405160e560020a62461bcd02815260206004820152600d60248201527f416c72656164792072656c6179000000000000000000000000000000000000006044820152606401610c4b565b60e9805460018101825560009182527fea6426b4b8d70caa8ece9a88fb0a9d4a6b817bb4a43ac6fbef64cb0e589129ee018054600160a060020a031916600160a060020a03841690811790915560405190917f7b73cb1bdb35a4aa024a40092050eb3e988b8591cc448e46634cf380f8f1255d91a250565b6020810151604082015160608301516000929190831a601b81101561353257601b015b60408051600081526020810180835288905260ff831691810191909152606081018490526080810183905260019060a0016020604051602081039080840390855afa158015613585573d6000803e3d6000fd5b5050604051601f190151979650505050505050565b610e81828261250d565b5080546000825560030290600052602060002090810190610f6d919061362a565b82805482825590600052602060002090810192821561361a579160200282015b8281111561361a5782518254600160a060020a031916600160a060020a039091161782556020909201916001909101906135e5565b5061362692915061365d565b5090565b5b80821115613626578054600160a060020a0319908116825560018201805490911690556000600282015560030161362b565b5b80821115613626576000815560010161365e565b803561367d81614172565b919050565b60008083601f84011261369457600080fd5b50813567ffffffffffffffff8111156136ac57600080fd5b60208301915083602080830285010111156136c657600080fd5b9250929050565b60008083601f8401126136df57600080fd5b50813567ffffffffffffffff8111156136f757600080fd5b6020830191508360206060830285010111156136c657600080fd5b60008083601f84011261372457600080fd5b50813567ffffffffffffffff81111561373c57600080fd5b6020830191508360208285010111156136c657600080fd5b60006020828403121561376657600080fd5b81356132af81614172565b6000806040838503121561378457600080fd5b823561378f81614172565b9150602083013561379f81614172565b809150509250929050565b60008060008060008060008060e0898b0312156137c657600080fd5b88356137d181614172565b975060208901356137e181614172565b96506040890135955060608901356137f881614187565b9450608089013567ffffffffffffffff81111561381457600080fd5b6138208b828c01613712565b999c989b5096999598969760a08701359660c0013595509350505050565b60008060008060006080868803121561385657600080fd5b853561386181614172565b9450602086013567ffffffffffffffff81111561387d57600080fd5b61388988828901613712565b9699909850959660408101359660609091013595509350505050565b600080600080606085870312156138bb57600080fd5b84356138c681614172565b935060208501359250604085013567ffffffffffffffff8111156138e957600080fd5b6138f5878288016136cd565b95989497509550505050565b6000806020838503121561391457600080fd5b823567ffffffffffffffff81111561392b57600080fd5b61393785828601613682565b90969095509350505050565b6000806000806040858703121561395957600080fd5b843567ffffffffffffffff8082111561397157600080fd5b61397d88838901613682565b9096509450602087013591508082111561399657600080fd5b506138f587828801613682565b6000806000806000606086880312156139bb57600080fd5b853567ffffffffffffffff808211156139d357600080fd5b6139df89838a01613682565b909750955060208801359150808211156139f857600080fd5b50613a0588828901613682565b96999598509660400135949350505050565b600060208284031215613a2957600080fd5b81516132af81614187565b600060208284031215613a4657600080fd5b5035919050565b60008060408385031215613a6057600080fd5b82359150602083013561379f81614172565b600060208284031215613a8457600080fd5b81357bffffffffffffffffffffffffffffffffffffffffffffffffffffffff19811681146132af57600080fd5b60008060008060608587031215613ac757600080fd5b843567ffffffffffffffff80821115613adf57600080fd5b908601906101608289031215613af457600080fd5b909450602086013593506040860135908082111561399657600080fd5b60008060408385031215613b2457600080fd5b8235915060208084013567ffffffffffffffff80821115613b4457600080fd5b818601915086601f830112613b5857600080fd5b813581811115613b6a57613b6a6140fa565b838102604051601f19603f83011681018181108582111715613b8e57613b8e6140fa565b604052828152858101935084860182860187018b1015613bad57600080fd5b600095505b83861015613bd757613bc381613672565b855260019590950194938601938601613bb2565b508096505050505050509250929050565b600080600060408486031215613bfd57600080fd5b83359250602084013567ffffffffffffffff811115613c1b57600080fd5b613c27868287016136cd565b9497909650939450505050565b60008551613c46818460208a01614051565b91909101938452506c01000000000000000000000000600160a060020a03928316810260208501529116026034820152604801919050565b7f416363657373436f6e74726f6c3a206163636f756e7420000000000000000000815260008351613cb6816017850160208801614051565b7f206973206d697373696e6720726f6c65200000000000000000000000000000006017918401918201528351613cf3816028840160208801614051565b01602801949350505050565b6020808252825182820181905260009190848201906040850190845b81811015613d40578351600160a060020a031683529284019291840191600101613d1b565b50909695505050505050565b60006020808301818452808554808352604092508286019150866000528360002060005b82811015613daf578154600160a060020a0390811685526001808401549091168786015260028301548686015260609094019360039092019101613d70565b5091979650505050505050565b6020815260008251806020840152613ddb816040850160208701614051565b601f01601f19169190910160400192915050565b60208082526014908201527f5061757361626c653a206e6f7420706175736564000000000000000000000000604082015260600190565b60208082526010908201527f5061757361626c653a2070617573656400000000000000000000000000000000604082015260600190565b6020808252602e908201527f496e697469616c697a61626c653a20636f6e747261637420697320616c72656160408201527f647920696e697469616c697a6564000000000000000000000000000000000000606082015260800190565b60208082526026908201527f6576656e744964206d757374206265203e3d206f6c646573744c6f636b65644560408201527f76656e7449640000000000000000000000000000000000000000000000000000606082015260800190565b6000602080835260608084018551604080858801528282518085526080890191508684019450600093505b80841015613f7f5784518051600160a060020a03908116845288820151168884015283015183830152938601936001939093019290850190613f42565b5094909701519590960194909452509392505050565b6000808335601e19843603018112613fac57600080fd5b83018035915067ffffffffffffffff821115613fc757600080fd5b60209081019250810236038213156136c657600080fd5b60008219821115613ff157613ff16140af565b500190565b6000826140165760e060020a634e487b7102600052601260045260246000fd5b500490565b6000816000190483118215151615614035576140356140af565b500290565b60008282101561404c5761404c6140af565b500390565b60005b8381101561406c578181015183820152602001614054565b838111156110905750506000910152565b60008161408c5761408c6140af565b506000190190565b60006000198214156140a8576140a86140af565b5060010190565b60e060020a634e487b7102600052601160045260246000fd5b60e060020a634e487b7102600052603160045260246000fd5b60e060020a634e487b7102600052603260045260246000fd5b60e060020a634e487b7102600052604160045260246000fd5b813561411e81614172565b8154600160a060020a031916600160a060020a03821617825550602082013561414681614172565b600182018054600160a060020a031916600160a060020a03831617905550604082013560028201555050565b600160a060020a0381168114610f6d57600080fd5b8015158114610f6d57600080fdfea49807205ce4d355092ef5a8a18f56e8913cf4a201fbe287825b095693c21775a2646970667358221220f4f978177ea261c79cdccf6bed8e54194613b36e62fc24d854215d86d6f5a8b164736f6c63430008060033",
  "devdoc": {
    "kind": "dev",
    "methods": {
      "getRoleAdmin(bytes32)": {
        "details": "Returns the admin role that controls `role`. See {grantRole} and {revokeRole}. To change a role's admin, use {_setRoleAdmin}."
      },
      "grantRole(bytes32,address)": {
        "details": "Grants `role` to `account`. If `account` had not been already granted `role`, emits a {RoleGranted} event. Requirements: - the caller must have ``role``'s admin role."
      },
      "hasRole(bytes32,address)": {
        "details": "Returns `true` if `account` has been granted `role`."
      },
      "paused()": {
        "details": "Returns true if the contract is paused, and false otherwise."
      },
      "renounceRole(bytes32,address)": {
        "details": "Revokes `role` from the calling account. Roles are often managed via {grantRole} and {revokeRole}: this function's purpose is to provide a mechanism for accounts to lose their privileges if they are compromised (such as when a trusted device is misplaced). If the calling account had been granted `role`, emits a {RoleRevoked} event. Requirements: - the caller must be `account`."
      },
      "revokeRole(bytes32,address)": {
        "details": "Revokes `role` from `account`. If `account` had been granted `role`, emits a {RoleRevoked} event. Requirements: - the caller must have ``role``'s admin role."
      },
      "supportsInterface(bytes4)": {
        "details": "See {IERC165-supportsInterface}."
      },
      "withdraw(address,address,uint256,bool,bytes,uint256,uint256)": {
        "params": {
          "bridgeFee": "Amount (in native coins), payed as bridge earnings",
          "feeSignature": "Signature signed by relay that confirms that the fee values are valid",
          "transferFee": "Amount (in native coins), payed to compensate gas fees in side network"
        }
      },
      "wrapWithdraw(address,bytes,uint256,uint256)": {
        "params": {
          "bridgeFee": "Amount (in native coins), payed as bridge earnings",
          "feeSignature": "Signature signed by relay that confirms that the fee values are valid",
          "toAddress": "Address in side network that will receive the tokens",
          "transferFee": "Amount (in native coins), payed to compensate gas fees in side network"
        }
      }
    },
    "version": 1
  },
  "userdoc": {
    "kind": "user",
    "methods": {},
    "version": 1
  },
  "storageLayout": {
    "storage": [
      {
        "astId": 413,
        "contract": "contracts/networks/ETH_AmbBridge.sol:ETH_AmbBridge",
        "label": "_initialized",
        "offset": 0,
        "slot": "0",
        "type": "t_bool"
      },
      {
        "astId": 416,
        "contract": "contracts/networks/ETH_AmbBridge.sol:ETH_AmbBridge",
        "label": "_initializing",
        "offset": 1,
        "slot": "0",
        "type": "t_bool"
      },
      {
        "astId": 609,
        "contract": "contracts/networks/ETH_AmbBridge.sol:ETH_AmbBridge",
        "label": "__gap",
        "offset": 0,
        "slot": "1",
        "type": "t_array(t_uint256)50_storage"
      },
      {
        "astId": 858,
        "contract": "contracts/networks/ETH_AmbBridge.sol:ETH_AmbBridge",
        "label": "__gap",
        "offset": 0,
        "slot": "51",
        "type": "t_array(t_uint256)50_storage"
      },
      {
        "astId": 48,
        "contract": "contracts/networks/ETH_AmbBridge.sol:ETH_AmbBridge",
        "label": "_roles",
        "offset": 0,
        "slot": "101",
        "type": "t_mapping(t_bytes32,t_struct(RoleData)43_storage)"
      },
      {
        "astId": 333,
        "contract": "contracts/networks/ETH_AmbBridge.sol:ETH_AmbBridge",
        "label": "__gap",
        "offset": 0,
        "slot": "102",
        "type": "t_array(t_uint256)49_storage"
      },
      {
        "astId": 474,
        "contract": "contracts/networks/ETH_AmbBridge.sol:ETH_AmbBridge",
        "label": "_paused",
        "offset": 0,
        "slot": "151",
        "type": "t_bool"
      },
      {
        "astId": 565,
        "contract": "contracts/networks/ETH_AmbBridge.sol:ETH_AmbBridge",
        "label": "__gap",
        "offset": 0,
        "slot": "152",
        "type": "t_array(t_uint256)49_storage"
      },
      {
        "astId": 6726,
        "contract": "contracts/networks/ETH_AmbBridge.sol:ETH_AmbBridge",
        "label": "signatureFeeCheckNumber",
        "offset": 0,
        "slot": "201",
        "type": "t_uint256"
      },
      {
        "astId": 6730,
        "contract": "contracts/networks/ETH_AmbBridge.sol:ETH_AmbBridge",
        "label": "queue",
        "offset": 0,
        "slot": "202",
        "type": "t_array(t_struct(Transfer)7843_storage)dyn_storage"
      },
      {
        "astId": 6735,
        "contract": "contracts/networks/ETH_AmbBridge.sol:ETH_AmbBridge",
        "label": "lockedTransfers",
        "offset": 0,
        "slot": "203",
        "type": "t_mapping(t_uint256,t_struct(LockedTransfers)7860_storage)"
      },
      {
        "astId": 6737,
        "contract": "contracts/networks/ETH_AmbBridge.sol:ETH_AmbBridge",
        "label": "oldestLockedEventId",
        "offset": 0,
        "slot": "204",
        "type": "t_uint256"
      },
      {
        "astId": 6741,
        "contract": "contracts/networks/ETH_AmbBridge.sol:ETH_AmbBridge",
        "label": "tokenAddresses",
        "offset": 0,
        "slot": "205",
        "type": "t_mapping(t_address,t_address)"
      },
      {
        "astId": 6743,
        "contract": "contracts/networks/ETH_AmbBridge.sol:ETH_AmbBridge",
        "label": "wrapperAddress",
        "offset": 0,
        "slot": "206",
        "type": "t_address"
      },
      {
        "astId": 6745,
        "contract": "contracts/networks/ETH_AmbBridge.sol:ETH_AmbBridge",
        "label": "transferFeeRecipient",
        "offset": 0,
        "slot": "207",
        "type": "t_address_payable"
      },
      {
        "astId": 6747,
        "contract": "contracts/networks/ETH_AmbBridge.sol:ETH_AmbBridge",
        "label": "bridgeFeeRecipient",
        "offset": 0,
        "slot": "208",
        "type": "t_address_payable"
      },
      {
        "astId": 6749,
        "contract": "contracts/networks/ETH_AmbBridge.sol:ETH_AmbBridge",
        "label": "sideBridgeAddress",
        "offset": 0,
        "slot": "209",
        "type": "t_address"
      },
      {
        "astId": 6751,
        "contract": "contracts/networks/ETH_AmbBridge.sol:ETH_AmbBridge",
        "label": "minSafetyBlocks",
        "offset": 0,
        "slot": "210",
        "type": "t_uint256"
      },
      {
        "astId": 6753,
        "contract": "contracts/networks/ETH_AmbBridge.sol:ETH_AmbBridge",
        "label": "timeframeSeconds",
        "offset": 0,
        "slot": "211",
        "type": "t_uint256"
      },
      {
        "astId": 6755,
        "contract": "contracts/networks/ETH_AmbBridge.sol:ETH_AmbBridge",
        "label": "lockTime",
        "offset": 0,
        "slot": "212",
        "type": "t_uint256"
      },
      {
        "astId": 6757,
        "contract": "contracts/networks/ETH_AmbBridge.sol:ETH_AmbBridge",
        "label": "inputEventId",
        "offset": 0,
        "slot": "213",
        "type": "t_uint256"
      },
      {
        "astId": 6759,
        "contract": "contracts/networks/ETH_AmbBridge.sol:ETH_AmbBridge",
        "label": "outputEventId",
        "offset": 0,
        "slot": "214",
        "type": "t_uint256"
      },
      {
        "astId": 6761,
        "contract": "contracts/networks/ETH_AmbBridge.sol:ETH_AmbBridge",
        "label": "lastTimeframe",
        "offset": 0,
        "slot": "215",
        "type": "t_uint256"
      },
      {
        "astId": 7833,
        "contract": "contracts/networks/ETH_AmbBridge.sol:ETH_AmbBridge",
        "label": "__gap",
        "offset": 0,
        "slot": "216",
        "type": "t_array(t_uint256)15_storage"
      },
      {
        "astId": 6249,
        "contract": "contracts/networks/ETH_AmbBridge.sol:ETH_AmbBridge",
        "label": "confirmationsThreshold",
        "offset": 0,
        "slot": "231",
        "type": "t_uint256"
      },
      {
        "astId": 6255,
        "contract": "contracts/networks/ETH_AmbBridge.sol:ETH_AmbBridge",
        "label": "confirmations",
        "offset": 0,
        "slot": "232",
        "type": "t_mapping(t_bytes32,t_mapping(t_address,t_bool))"
      },
      {
        "astId": 6258,
        "contract": "contracts/networks/ETH_AmbBridge.sol:ETH_AmbBridge",
        "label": "relays",
        "offset": 0,
        "slot": "233",
        "type": "t_array(t_address)dyn_storage"
      },
      {
        "astId": 6648,
        "contract": "contracts/networks/ETH_AmbBridge.sol:ETH_AmbBridge",
        "label": "___gap",
        "offset": 0,
        "slot": "234",
        "type": "t_array(t_uint256)15_storage"
      }
    ],
    "types": {
      "t_address": {
        "encoding": "inplace",
        "label": "address",
        "numberOfBytes": "20"
      },
      "t_address_payable": {
        "encoding": "inplace",
        "label": "address payable",
        "numberOfBytes": "20"
      },
      "t_array(t_address)dyn_storage": {
        "base": "t_address",
        "encoding": "dynamic_array",
        "label": "address[]",
        "numberOfBytes": "32"
      },
      "t_array(t_struct(Transfer)7843_storage)dyn_storage": {
        "base": "t_struct(Transfer)7843_storage",
        "encoding": "dynamic_array",
        "label": "struct CommonStructs.Transfer[]",
        "numberOfBytes": "32"
      },
      "t_array(t_uint256)15_storage": {
        "base": "t_uint256",
        "encoding": "inplace",
        "label": "uint256[15]",
        "numberOfBytes": "480"
      },
      "t_array(t_uint256)49_storage": {
        "base": "t_uint256",
        "encoding": "inplace",
        "label": "uint256[49]",
        "numberOfBytes": "1568"
      },
      "t_array(t_uint256)50_storage": {
        "base": "t_uint256",
        "encoding": "inplace",
        "label": "uint256[50]",
        "numberOfBytes": "1600"
      },
      "t_bool": {
        "encoding": "inplace",
        "label": "bool",
        "numberOfBytes": "1"
      },
      "t_bytes32": {
        "encoding": "inplace",
        "label": "bytes32",
        "numberOfBytes": "32"
      },
      "t_mapping(t_address,t_address)": {
        "encoding": "mapping",
        "key": "t_address",
        "label": "mapping(address => address)",
        "numberOfBytes": "32",
        "value": "t_address"
      },
      "t_mapping(t_address,t_bool)": {
        "encoding": "mapping",
        "key": "t_address",
        "label": "mapping(address => bool)",
        "numberOfBytes": "32",
        "value": "t_bool"
      },
      "t_mapping(t_bytes32,t_mapping(t_address,t_bool))": {
        "encoding": "mapping",
        "key": "t_bytes32",
        "label": "mapping(bytes32 => mapping(address => bool))",
        "numberOfBytes": "32",
        "value": "t_mapping(t_address,t_bool)"
      },
      "t_mapping(t_bytes32,t_struct(RoleData)43_storage)": {
        "encoding": "mapping",
        "key": "t_bytes32",
        "label": "mapping(bytes32 => struct AccessControlUpgradeable.RoleData)",
        "numberOfBytes": "32",
        "value": "t_struct(RoleData)43_storage"
      },
      "t_mapping(t_uint256,t_struct(LockedTransfers)7860_storage)": {
        "encoding": "mapping",
        "key": "t_uint256",
        "label": "mapping(uint256 => struct CommonStructs.LockedTransfers)",
        "numberOfBytes": "32",
        "value": "t_struct(LockedTransfers)7860_storage"
      },
      "t_struct(LockedTransfers)7860_storage": {
        "encoding": "inplace",
        "label": "struct CommonStructs.LockedTransfers",
        "members": [
          {
            "astId": 7857,
            "contract": "contracts/networks/ETH_AmbBridge.sol:ETH_AmbBridge",
            "label": "transfers",
            "offset": 0,
            "slot": "0",
            "type": "t_array(t_struct(Transfer)7843_storage)dyn_storage"
          },
          {
            "astId": 7859,
            "contract": "contracts/networks/ETH_AmbBridge.sol:ETH_AmbBridge",
            "label": "endTimestamp",
            "offset": 0,
            "slot": "1",
            "type": "t_uint256"
          }
        ],
        "numberOfBytes": "64"
      },
      "t_struct(RoleData)43_storage": {
        "encoding": "inplace",
        "label": "struct AccessControlUpgradeable.RoleData",
        "members": [
          {
            "astId": 40,
            "contract": "contracts/networks/ETH_AmbBridge.sol:ETH_AmbBridge",
            "label": "members",
            "offset": 0,
            "slot": "0",
            "type": "t_mapping(t_address,t_bool)"
          },
          {
            "astId": 42,
            "contract": "contracts/networks/ETH_AmbBridge.sol:ETH_AmbBridge",
            "label": "adminRole",
            "offset": 0,
            "slot": "1",
            "type": "t_bytes32"
          }
        ],
        "numberOfBytes": "64"
      },
      "t_struct(Transfer)7843_storage": {
        "encoding": "inplace",
        "label": "struct CommonStructs.Transfer",
        "members": [
          {
            "astId": 7838,
            "contract": "contracts/networks/ETH_AmbBridge.sol:ETH_AmbBridge",
            "label": "tokenAddress",
            "offset": 0,
            "slot": "0",
            "type": "t_address"
          },
          {
            "astId": 7840,
            "contract": "contracts/networks/ETH_AmbBridge.sol:ETH_AmbBridge",
            "label": "toAddress",
            "offset": 0,
            "slot": "1",
            "type": "t_address"
          },
          {
            "astId": 7842,
            "contract": "contracts/networks/ETH_AmbBridge.sol:ETH_AmbBridge",
            "label": "amount",
            "offset": 0,
            "slot": "2",
            "type": "t_uint256"
          }
        ],
        "numberOfBytes": "96"
      },
      "t_uint256": {
        "encoding": "inplace",
        "label": "uint256",
        "numberOfBytes": "32"
      }
    }
  }
}