{
  "address": "0x203683EC0094b90df39422716F15AAb6B112b292",
  "abi": [
    {
      "anonymous": false,
      "inputs": [
        {
          "indexed": false,
          "internalType": "address",
          "name": "account",
          "type": "address"
        }
      ],
      "name": "Paused",
      "type": "event"
    },
    {
      "anonymous": false,
      "inputs": [
        {
          "indexed": true,
          "internalType": "bytes32",
          "name": "role",
          "type": "bytes32"
        },
        {
          "indexed": true,
          "internalType": "bytes32",
          "name": "previousAdminRole",
          "type": "bytes32"
        },
        {
          "indexed": true,
          "internalType": "bytes32",
          "name": "newAdminRole",
          "type": "bytes32"
        }
      ],
      "name": "RoleAdminChanged",
      "type": "event"
    },
    {
      "anonymous": false,
      "inputs": [
        {
          "indexed": true,
          "internalType": "bytes32",
          "name": "role",
          "type": "bytes32"
        },
        {
          "indexed": true,
          "internalType": "address",
          "name": "account",
          "type": "address"
        },
        {
          "indexed": true,
          "internalType": "address",
          "name": "sender",
          "type": "address"
        }
      ],
      "name": "RoleGranted",
      "type": "event"
    },
    {
      "anonymous": false,
      "inputs": [
        {
          "indexed": true,
          "internalType": "bytes32",
          "name": "role",
          "type": "bytes32"
        },
        {
          "indexed": true,
          "internalType": "address",
          "name": "account",
          "type": "address"
        },
        {
          "indexed": true,
          "internalType": "address",
          "name": "sender",
          "type": "address"
        }
      ],
      "name": "RoleRevoked",
      "type": "event"
    },
    {
      "anonymous": false,
      "inputs": [
        {
          "indexed": true,
          "internalType": "uint256",
          "name": "eventId",
          "type": "uint256"
        },
        {
          "components": [
            {
              "internalType": "address",
              "name": "tokenAddress",
              "type": "address"
            },
            {
              "internalType": "address",
              "name": "toAddress",
              "type": "address"
            },
            {
              "internalType": "uint256",
              "name": "amount",
              "type": "uint256"
            }
          ],
          "indexed": false,
          "internalType": "struct CommonStructs.Transfer[]",
          "name": "queue",
          "type": "tuple[]"
        }
      ],
      "name": "Transfer",
      "type": "event"
    },
    {
      "anonymous": false,
      "inputs": [
        {
          "indexed": true,
          "internalType": "uint256",
          "name": "eventId",
          "type": "uint256"
        }
      ],
      "name": "TransferFinish",
      "type": "event"
    },
    {
      "anonymous": false,
      "inputs": [
        {
          "indexed": true,
          "internalType": "uint256",
          "name": "eventId",
          "type": "uint256"
        }
      ],
      "name": "TransferSubmit",
      "type": "event"
    },
    {
      "anonymous": false,
      "inputs": [
        {
          "indexed": false,
          "internalType": "address",
          "name": "account",
          "type": "address"
        }
      ],
      "name": "Unpaused",
      "type": "event"
    },
    {
      "anonymous": false,
      "inputs": [
        {
          "indexed": true,
          "internalType": "address",
          "name": "from",
          "type": "address"
        },
        {
          "indexed": false,
          "internalType": "uint256",
          "name": "eventId",
          "type": "uint256"
        },
        {
          "indexed": false,
          "internalType": "address",
          "name": "tokenFrom",
          "type": "address"
        },
        {
          "indexed": false,
          "internalType": "address",
          "name": "tokenTo",
          "type": "address"
        },
        {
          "indexed": false,
          "internalType": "uint256",
          "name": "amount",
          "type": "uint256"
        },
        {
          "indexed": false,
          "internalType": "uint256",
          "name": "transferFeeAmount",
          "type": "uint256"
        },
        {
          "indexed": false,
          "internalType": "uint256",
          "name": "bridgeFeeAmount",
          "type": "uint256"
        }
      ],
      "name": "Withdraw",
      "type": "event"
    },
    {
      "inputs": [],
      "name": "ADMIN_ROLE",
      "outputs": [
        {
          "internalType": "bytes32",
          "name": "",
          "type": "bytes32"
        }
      ],
      "stateMutability": "view",
      "type": "function"
    },
    {
      "inputs": [],
      "name": "DEFAULT_ADMIN_ROLE",
      "outputs": [
        {
          "internalType": "bytes32",
          "name": "",
          "type": "bytes32"
        }
      ],
      "stateMutability": "view",
      "type": "function"
    },
    {
      "inputs": [],
      "name": "FEE_PROVIDER_ROLE",
      "outputs": [
        {
          "internalType": "bytes32",
          "name": "",
          "type": "bytes32"
        }
      ],
      "stateMutability": "view",
      "type": "function"
    },
    {
      "inputs": [],
      "name": "RELAY_ROLE",
      "outputs": [
        {
          "internalType": "bytes32",
          "name": "",
          "type": "bytes32"
        }
      ],
      "stateMutability": "view",
      "type": "function"
    },
    {
      "inputs": [],
      "name": "WATCHDOG_ROLE",
      "outputs": [
        {
          "internalType": "bytes32",
          "name": "",
          "type": "bytes32"
        }
      ],
      "stateMutability": "view",
      "type": "function"
    },
    {
      "inputs": [],
      "name": "bridgeFeeRecipient",
      "outputs": [
        {
          "internalType": "address payable",
          "name": "",
          "type": "address"
        }
      ],
      "stateMutability": "view",
      "type": "function"
    },
    {
      "inputs": [
        {
          "internalType": "address payable",
          "name": "feeRecipient_",
          "type": "address"
        }
      ],
      "name": "changeBridgeFeeRecipient",
      "outputs": [],
      "stateMutability": "nonpayable",
      "type": "function"
    },
    {
      "inputs": [
        {
          "internalType": "uint256",
          "name": "lockTime_",
          "type": "uint256"
        }
      ],
      "name": "changeLockTime",
      "outputs": [],
      "stateMutability": "nonpayable",
      "type": "function"
    },
    {
      "inputs": [
        {
          "internalType": "uint256",
          "name": "minSafetyBlocks_",
          "type": "uint256"
        }
      ],
      "name": "changeMinSafetyBlocks",
      "outputs": [],
      "stateMutability": "nonpayable",
      "type": "function"
    },
    {
      "inputs": [
        {
          "internalType": "uint256",
          "name": "signatureFeeCheckNumber_",
          "type": "uint256"
        }
      ],
      "name": "changeSignatureFeeCheckNumber",
      "outputs": [],
      "stateMutability": "nonpayable",
      "type": "function"
    },
    {
      "inputs": [
        {
          "internalType": "uint256",
          "name": "timeframeSeconds_",
          "type": "uint256"
        }
      ],
      "name": "changeTimeframeSeconds",
      "outputs": [],
      "stateMutability": "nonpayable",
      "type": "function"
    },
    {
      "inputs": [
        {
          "internalType": "address payable",
          "name": "feeRecipient_",
          "type": "address"
        }
      ],
      "name": "changeTransferFeeRecipient",
      "outputs": [],
      "stateMutability": "nonpayable",
      "type": "function"
    },
    {
      "inputs": [
        {
          "internalType": "uint256",
          "name": "eventId",
          "type": "uint256"
        }
      ],
      "name": "getLockedTransfers",
      "outputs": [
        {
          "components": [
            {
              "components": [
                {
                  "internalType": "address",
                  "name": "tokenAddress",
                  "type": "address"
                },
                {
                  "internalType": "address",
                  "name": "toAddress",
                  "type": "address"
                },
                {
                  "internalType": "uint256",
                  "name": "amount",
                  "type": "uint256"
                }
              ],
              "internalType": "struct CommonStructs.Transfer[]",
              "name": "transfers",
              "type": "tuple[]"
            },
            {
              "internalType": "uint256",
              "name": "endTimestamp",
              "type": "uint256"
            }
          ],
          "internalType": "struct CommonStructs.LockedTransfers",
          "name": "",
          "type": "tuple"
        }
      ],
      "stateMutability": "view",
      "type": "function"
    },
    {
      "inputs": [
        {
          "internalType": "bytes32",
          "name": "role",
          "type": "bytes32"
        }
      ],
      "name": "getRoleAdmin",
      "outputs": [
        {
          "internalType": "bytes32",
          "name": "",
          "type": "bytes32"
        }
      ],
      "stateMutability": "view",
      "type": "function"
    },
    {
      "inputs": [
        {
          "internalType": "bytes32",
          "name": "role",
          "type": "bytes32"
        },
        {
          "internalType": "address",
          "name": "account",
          "type": "address"
        }
      ],
      "name": "grantRole",
      "outputs": [],
      "stateMutability": "nonpayable",
      "type": "function"
    },
    {
      "inputs": [
        {
          "internalType": "bytes32",
          "name": "role",
          "type": "bytes32"
        },
        {
          "internalType": "address[]",
          "name": "accounts",
          "type": "address[]"
        }
      ],
      "name": "grantRoles",
      "outputs": [],
      "stateMutability": "nonpayable",
      "type": "function"
    },
    {
      "inputs": [
        {
          "internalType": "bytes32",
          "name": "role",
          "type": "bytes32"
        },
        {
          "internalType": "address",
          "name": "account",
          "type": "address"
        }
      ],
      "name": "hasRole",
      "outputs": [
        {
          "internalType": "bool",
          "name": "",
          "type": "bool"
        }
      ],
      "stateMutability": "view",
      "type": "function"
    },
    {
      "inputs": [
        {
          "components": [
            {
              "internalType": "address",
              "name": "sideBridgeAddress",
              "type": "address"
            },
            {
              "internalType": "address",
              "name": "relayAddress",
              "type": "address"
            },
            {
              "internalType": "address[]",
              "name": "watchdogsAddresses",
              "type": "address[]"
            },
            {
              "internalType": "address",
              "name": "feeProviderAddress",
              "type": "address"
            },
            {
              "internalType": "address",
              "name": "wrappingTokenAddress",
              "type": "address"
            },
            {
              "internalType": "address[]",
              "name": "tokenThisAddresses",
              "type": "address[]"
            },
            {
              "internalType": "address[]",
              "name": "tokenSideAddresses",
              "type": "address[]"
            },
            {
              "internalType": "address payable",
              "name": "transferFeeRecipient",
              "type": "address"
            },
            {
              "internalType": "address payable",
              "name": "bridgeFeeRecipient",
              "type": "address"
            },
            {
              "internalType": "uint256",
              "name": "timeframeSeconds",
              "type": "uint256"
            },
            {
              "internalType": "uint256",
              "name": "lockTime",
              "type": "uint256"
            },
            {
              "internalType": "uint256",
              "name": "minSafetyBlocks",
              "type": "uint256"
            }
          ],
          "internalType": "struct CommonStructs.ConstructorArgs",
          "name": "args",
          "type": "tuple"
        }
      ],
      "name": "initialize",
      "outputs": [],
      "stateMutability": "nonpayable",
      "type": "function"
    },
    {
      "inputs": [],
      "name": "inputEventId",
      "outputs": [
        {
          "internalType": "uint256",
          "name": "",
          "type": "uint256"
        }
      ],
      "stateMutability": "view",
      "type": "function"
    },
    {
      "inputs": [],
      "name": "isQueueEmpty",
      "outputs": [
        {
          "internalType": "bool",
          "name": "",
          "type": "bool"
        }
      ],
      "stateMutability": "view",
      "type": "function"
    },
    {
      "inputs": [],
      "name": "lastTimeframe",
      "outputs": [
        {
          "internalType": "uint256",
          "name": "",
          "type": "uint256"
        }
      ],
      "stateMutability": "view",
      "type": "function"
    },
    {
      "inputs": [],
      "name": "lockTime",
      "outputs": [
        {
          "internalType": "uint256",
          "name": "",
          "type": "uint256"
        }
      ],
      "stateMutability": "view",
      "type": "function"
    },
    {
      "inputs": [
        {
          "internalType": "uint256",
          "name": "",
          "type": "uint256"
        }
      ],
      "name": "lockedTransfers",
      "outputs": [
        {
          "internalType": "uint256",
          "name": "endTimestamp",
          "type": "uint256"
        }
      ],
      "stateMutability": "view",
      "type": "function"
    },
    {
      "inputs": [],
      "name": "minSafetyBlocks",
      "outputs": [
        {
          "internalType": "uint256",
          "name": "",
          "type": "uint256"
        }
      ],
      "stateMutability": "view",
      "type": "function"
    },
    {
      "inputs": [],
      "name": "oldestLockedEventId",
      "outputs": [
        {
          "internalType": "uint256",
          "name": "",
          "type": "uint256"
        }
      ],
      "stateMutability": "view",
      "type": "function"
    },
    {
      "inputs": [],
      "name": "outputEventId",
      "outputs": [
        {
          "internalType": "uint256",
          "name": "",
          "type": "uint256"
        }
      ],
      "stateMutability": "view",
      "type": "function"
    },
    {
      "inputs": [],
      "name": "pause",
      "outputs": [],
      "stateMutability": "nonpayable",
      "type": "function"
    },
    {
      "inputs": [],
      "name": "paused",
      "outputs": [
        {
          "internalType": "bool",
          "name": "",
          "type": "bool"
        }
      ],
      "stateMutability": "view",
      "type": "function"
    },
    {
      "inputs": [
        {
          "internalType": "uint256",
          "name": "eventId",
          "type": "uint256"
        }
      ],
      "name": "removeLockedTransfers",
      "outputs": [],
      "stateMutability": "nonpayable",
      "type": "function"
    },
    {
      "inputs": [
        {
          "internalType": "bytes32",
          "name": "role",
          "type": "bytes32"
        },
        {
          "internalType": "address",
          "name": "account",
          "type": "address"
        }
      ],
      "name": "renounceRole",
      "outputs": [],
      "stateMutability": "nonpayable",
      "type": "function"
    },
    {
      "inputs": [
        {
          "internalType": "bytes32",
          "name": "role",
          "type": "bytes32"
        },
        {
          "internalType": "address",
          "name": "account",
          "type": "address"
        }
      ],
      "name": "revokeRole",
      "outputs": [],
      "stateMutability": "nonpayable",
      "type": "function"
    },
    {
      "inputs": [
        {
          "internalType": "bytes32",
          "name": "role",
          "type": "bytes32"
        },
        {
          "internalType": "address[]",
          "name": "accounts",
          "type": "address[]"
        }
      ],
      "name": "revokeRoles",
      "outputs": [],
      "stateMutability": "nonpayable",
      "type": "function"
    },
    {
      "inputs": [
        {
          "internalType": "address",
          "name": "_sideBridgeAddress",
          "type": "address"
        }
      ],
      "name": "setSideBridge",
      "outputs": [],
      "stateMutability": "nonpayable",
      "type": "function"
    },
    {
      "inputs": [],
      "name": "sideBridgeAddress",
      "outputs": [
        {
          "internalType": "address",
          "name": "",
          "type": "address"
        }
      ],
      "stateMutability": "view",
      "type": "function"
    },
    {
      "inputs": [
        {
          "internalType": "uint256",
          "name": "eventId",
          "type": "uint256"
        }
      ],
      "name": "skipTransfers",
      "outputs": [],
      "stateMutability": "nonpayable",
      "type": "function"
    },
    {
      "inputs": [
        {
          "internalType": "uint256",
          "name": "eventId",
          "type": "uint256"
        },
        {
          "components": [
            {
              "internalType": "address",
              "name": "tokenAddress",
              "type": "address"
            },
            {
              "internalType": "address",
              "name": "toAddress",
              "type": "address"
            },
            {
              "internalType": "uint256",
              "name": "amount",
              "type": "uint256"
            }
          ],
          "internalType": "struct CommonStructs.Transfer[]",
          "name": "transfers",
          "type": "tuple[]"
        }
      ],
      "name": "submitTransferUntrustless",
      "outputs": [],
      "stateMutability": "nonpayable",
      "type": "function"
    },
    {
      "inputs": [
        {
          "internalType": "bytes4",
          "name": "interfaceId",
          "type": "bytes4"
        }
      ],
      "name": "supportsInterface",
      "outputs": [
        {
          "internalType": "bool",
          "name": "",
          "type": "bool"
        }
      ],
      "stateMutability": "view",
      "type": "function"
    },
    {
      "inputs": [],
      "name": "timeframeSeconds",
      "outputs": [
        {
          "internalType": "uint256",
          "name": "",
          "type": "uint256"
        }
      ],
      "stateMutability": "view",
      "type": "function"
    },
    {
      "inputs": [
        {
          "internalType": "address",
          "name": "",
          "type": "address"
        }
      ],
      "name": "tokenAddresses",
      "outputs": [
        {
          "internalType": "address",
          "name": "",
          "type": "address"
        }
      ],
      "stateMutability": "view",
      "type": "function"
    },
    {
      "inputs": [
        {
          "internalType": "address",
          "name": "tokenThisAddress",
          "type": "address"
        },
        {
          "internalType": "address",
          "name": "tokenSideAddress",
          "type": "address"
        }
      ],
      "name": "tokensAdd",
      "outputs": [],
      "stateMutability": "nonpayable",
      "type": "function"
    },
    {
      "inputs": [
        {
          "internalType": "address[]",
          "name": "tokenThisAddresses",
          "type": "address[]"
        },
        {
          "internalType": "address[]",
          "name": "tokenSideAddresses",
          "type": "address[]"
        }
      ],
      "name": "tokensAddBatch",
      "outputs": [],
      "stateMutability": "nonpayable",
      "type": "function"
    },
    {
      "inputs": [
        {
          "internalType": "address",
          "name": "tokenThisAddress",
          "type": "address"
        }
      ],
      "name": "tokensRemove",
      "outputs": [],
      "stateMutability": "nonpayable",
      "type": "function"
    },
    {
      "inputs": [
        {
          "internalType": "address[]",
          "name": "tokenThisAddresses",
          "type": "address[]"
        }
      ],
      "name": "tokensRemoveBatch",
      "outputs": [],
      "stateMutability": "nonpayable",
      "type": "function"
    },
    {
      "inputs": [],
      "name": "transferFeeRecipient",
      "outputs": [
        {
          "internalType": "address payable",
          "name": "",
          "type": "address"
        }
      ],
      "stateMutability": "view",
      "type": "function"
    },
    {
      "inputs": [],
      "name": "triggerTransfers",
      "outputs": [],
      "stateMutability": "nonpayable",
      "type": "function"
    },
    {
      "inputs": [
        {
          "internalType": "uint256",
          "name": "eventId",
          "type": "uint256"
        }
      ],
      "name": "unlockTransfers",
      "outputs": [],
      "stateMutability": "nonpayable",
      "type": "function"
    },
    {
      "inputs": [],
      "name": "unlockTransfersBatch",
      "outputs": [],
      "stateMutability": "nonpayable",
      "type": "function"
    },
    {
      "inputs": [],
      "name": "unpause",
      "outputs": [],
      "stateMutability": "nonpayable",
      "type": "function"
    },
    {
      "inputs": [
        {
          "internalType": "address[]",
          "name": "_watchdogs",
          "type": "address[]"
        },
        {
          "internalType": "address",
          "name": "_fee_provider",
          "type": "address"
        },
        {
          "internalType": "address",
          "name": "oldDefaultAdmin",
          "type": "address"
        }
      ],
      "name": "upgrade",
      "outputs": [],
      "stateMutability": "nonpayable",
      "type": "function"
    },
    {
      "inputs": [
        {
          "internalType": "address",
          "name": "tokenThisAddress",
          "type": "address"
        },
        {
          "internalType": "address",
          "name": "toAddress",
          "type": "address"
        },
        {
          "internalType": "uint256",
          "name": "amount",
          "type": "uint256"
        },
        {
          "internalType": "bool",
          "name": "unwrapSide",
          "type": "bool"
        },
        {
          "internalType": "bytes",
          "name": "feeSignature",
          "type": "bytes"
        },
        {
          "internalType": "uint256",
          "name": "transferFee",
          "type": "uint256"
        },
        {
          "internalType": "uint256",
          "name": "bridgeFee",
          "type": "uint256"
        }
      ],
      "name": "withdraw",
      "outputs": [],
      "stateMutability": "payable",
      "type": "function"
    },
    {
      "inputs": [
        {
          "internalType": "address",
          "name": "toAddress",
          "type": "address"
        },
        {
          "internalType": "bytes",
          "name": "feeSignature",
          "type": "bytes"
        },
        {
          "internalType": "uint256",
          "name": "transferFee",
          "type": "uint256"
        },
        {
          "internalType": "uint256",
          "name": "bridgeFee",
          "type": "uint256"
        }
      ],
      "name": "wrapWithdraw",
      "outputs": [],
      "stateMutability": "payable",
      "type": "function"
    },
    {
      "inputs": [],
      "name": "wrapperAddress",
      "outputs": [
        {
          "internalType": "address",
          "name": "",
          "type": "address"
        }
      ],
      "stateMutability": "view",
      "type": "function"
    },
    {
      "stateMutability": "payable",
      "type": "receive"
    }
  ],
  "transactionHash": "0x500fd41461a3ef4d66189b9dca7932fa962f654109b48ccffcd5613e59d47a94",
  "args": [],
  "numDeployments": 9,
  "solcInputHash": "3d9e02ffdf8a213afd0c4d189b503155",
  "bytecode": "0x608060405234801561001057600080fd5b506136d2806100206000396000f3fe6080604052600436106103075760003560e060020a90048063853890ae11610194578063ba8bbbe0116100e0578063e31be08711610099578063f700558711610073578063f700558714610911578063f862b7eb14610931578063f8b7443314610951578063fd5d2ef31461096457600080fd5b8063e31be087146108a4578063ec9d4d3c146108d1578063f33fe10f146108f157600080fd5b8063ba8bbbe0146107f6578063baeebe751461080c578063cf3317d314610822578063d3b89f4914610842578063d547741f14610864578063deb9a3a21461088457600080fd5b8063924cf6e01161014d578063a217fddf11610127578063a217fddf14610769578063a9b1cf0b1461077e578063b6d3385e146107a0578063b87330e9146107d657600080fd5b8063924cf6e01461071d57806396cf52271461073357806399b5bb641461075357600080fd5b8063853890ae1461067f57806386d7679e1461069f5780638ac1f86f146106b55780638e5df9c7146106ca57806391c5bc0a146106ea57806391d14854146106fd57600080fd5b8063390d5388116102535780635249a7051161020c578063746b5c42116101e6578063746b5c421461061357806375b238fc146106285780637df8b8021461064a5780638456cb591461066a57600080fd5b80635249a705146105bb5780635a5f55bf146105db5780635c975abb146105fb57600080fd5b8063390d5388146104f65780633928b296146105165780633f4ba83a1461053657806342180fb81461054b5780634a1856de1461056b5780635119b0ef1461059b57600080fd5b8063248a9ca3116102c05780632f2ff15d1161029a5780632f2ff15d1461045e578063304561bb1461047e578063331a891a146104b657806336568abe146104d657600080fd5b8063248a9ca314610402578063297c2677146104325780632bbba8471461044857600080fd5b806301ffc9a714610313578063044218231461034857806309fce3561461038a5780630d668087146103ac578063196f0f62146103c257806321d3d536146103e257600080fd5b3661030e57005b600080fd5b34801561031f57600080fd5b5061033361032e366004613091565b610984565b60405190151581526020015b60405180910390f35b34801561035457600080fd5b5061037c7f077a1d526a4ce8a773632ab13b4fbbf1fcc954c3dab26cd27ea0e2a6750da5d781565b60405190815260200161033f565b34801561039657600080fd5b506103aa6103a5366004612f7e565b610a17565b005b3480156103b857600080fd5b5061037c60d45481565b3480156103ce57600080fd5b506103aa6103dd366004613045565b610a43565b3480156103ee57600080fd5b506103aa6103fd366004612d83565b610a91565b34801561040e57600080fd5b5061037c61041d366004613007565b60009081526065602052604090206001015490565b34801561043e57600080fd5b5061037c60d65481565b34801561045457600080fd5b5060ca5415610333565b34801561046a57600080fd5b506103aa610479366004613020565b610b2e565b34801561048a57600080fd5b5060cf5461049e90600160a060020a031681565b604051600160a060020a03909116815260200161033f565b3480156104c257600080fd5b506103aa6104d1366004613007565b610b59565b3480156104e257600080fd5b506103aa6104f1366004613020565b610c70565b34801561050257600080fd5b5060d05461049e90600160a060020a031681565b34801561052257600080fd5b506103aa610531366004612d83565b610cfb565b34801561054257600080fd5b506103aa610d37565b34801561055757600080fd5b506103aa610566366004613007565b610d5b565b34801561057757600080fd5b5061037c610586366004613007565b60cb6020526000908152604090206001015481565b3480156105a757600080fd5b506103aa6105b636600461310c565b610d98565b3480156105c757600080fd5b506103aa6105d6366004612ed4565b610e28565b3480156105e757600080fd5b506103aa6105f63660046130d0565b610eb1565b34801561060757600080fd5b5060975460ff16610333565b34801561061f57600080fd5b506103aa610f29565b34801561063457600080fd5b5061037c60008051602061367d83398151915281565b34801561065657600080fd5b5060ce5461049e90600160a060020a031681565b34801561067657600080fd5b506103aa610fd5565b34801561068b57600080fd5b506103aa61069a366004612da0565b610ff6565b3480156106ab57600080fd5b5061037c60d75481565b3480156106c157600080fd5b506103aa61103e565b3480156106d657600080fd5b506103aa6106e5366004612d83565b611196565b6103aa6106f8366004612e6d565b6111d7565b34801561070957600080fd5b50610333610718366004613020565b611507565b34801561072957600080fd5b5061037c60d25481565b34801561073f57600080fd5b506103aa61074e366004613007565b611532565b34801561075f57600080fd5b5061037c60d55481565b34801561077557600080fd5b5061037c600081565b34801561078a57600080fd5b5061037c60008051602061363d83398151915281565b3480156107ac57600080fd5b5061049e6107bb366004612d83565b60cd60205260009081526040902054600160a060020a031681565b3480156107e257600080fd5b506103aa6107f1366004612d83565b611551565b34801561080257600080fd5b5061037c60cc5481565b34801561081857600080fd5b5061037c60d35481565b34801561082e57600080fd5b506103aa61083d366004613007565b61158d565b34801561084e57600080fd5b5061037c60008051602061365d83398151915281565b34801561087057600080fd5b506103aa61087f366004613020565b611604565b34801561089057600080fd5b506103aa61089f366004613045565b61162a565b3480156108b057600080fd5b506108c46108bf366004613007565b611651565b60405161033f91906133d7565b3480156108dd57600080fd5b506103aa6108ec366004612f16565b61170d565b3480156108fd57600080fd5b5060d15461049e90600160a060020a031681565b34801561091d57600080fd5b506103aa61092c366004613007565b6117a6565b34801561093d57600080fd5b506103aa61094c366004613007565b6117c5565b6103aa61095f366004612dd9565b6119f8565b34801561097057600080fd5b506103aa61097f366004613007565b611e58565b60007bffffffffffffffffffffffffffffffffffffffffffffffffffffffff1982167f7965db0b000000000000000000000000000000000000000000000000000000001480610a1157507f01ffc9a7000000000000000000000000000000000000000000000000000000007bffffffffffffffffffffffffffffffffffffffffffffffffffffffff198316145b92915050565b60008051602061367d833981519152610a308133611e77565b610a3c85858585611ede565b5050505050565b60005b81811015610a8b57610a7984848484818110610a6457610a64613588565b905060200201602081019061087f9190612d83565b80610a8381613554565b915050610a46565b50505050565b60008051602061367d833981519152610aaa8133611e77565b60d154600160a060020a031615610b0b5760405160e560020a62461bcd02815260206004820152601d60248201527f736964654272696467654164647265737320616c72656164792073657400000060448201526064015b60405180910390fd5b5060d18054600160a060020a031916600160a060020a0392909216919091179055565b600082815260656020526040902060010154610b4a8133611e77565b610b548383611fff565b505050565b60008051602061367d833981519152610b728133611e77565b60975460ff16610b975760405160e560020a62461bcd028152600401610b02906132af565b60cc54821015610bbc5760405160e560020a62461bcd028152600401610b029061337a565b60d554821115610c115760405160e560020a62461bcd02815260206004820152601f60248201527f6576656e744964206d757374206265203c3d20696e7075744576656e744964006044820152606401610b02565b610c1c6001836134fa565b60d5555b600082815260cb602052604090206001015415610c6c57600082815260cb6020526040812090610c508282612ca3565b5060006001919091015581610c6481613554565b925050610c20565b5050565b600160a060020a0381163314610cf15760405160e560020a62461bcd02815260206004820152602f60248201527f416363657373436f6e74726f6c3a2063616e206f6e6c792072656e6f756e636560448201527f20726f6c657320666f722073656c6600000000000000000000000000000000006064820152608401610b02565b610c6c8282612085565b60008051602061367d833981519152610d148133611e77565b5060d08054600160a060020a031916600160a060020a0392909216919091179055565b60008051602061367d833981519152610d508133611e77565b610d586120ec565b50565b60008051602061367d833981519152610d748133611e77565b8160d35460d754610d8591906134db565b610d8f91906134b6565b60d7555060d355565b7f077a1d526a4ce8a773632ab13b4fbbf1fcc954c3dab26cd27ea0e2a6750da5d7610dc38133611e77565b60975460ff1615610de95760405160e560020a62461bcd028152600401610b02906132e6565b610df28461215b565b60405184907f196c47048e38df7a4fe6e581c8f4f2e2ba67ac0dd45b90da756e97bd61d9dd3b90600090a2610a8b8383866121c0565b60008051602061367d833981519152610e418133611e77565b8160005b81811015610a3c5760cd6000868684818110610e6357610e63613588565b9050602002016020810190610e789190612d83565b600160a060020a0316815260208101919091526040016000208054600160a060020a031916905580610ea981613554565b915050610e45565b600054610100900460ff1680610eca575060005460ff16155b610ee95760405160e560020a62461bcd028152600401610b029061331d565b600054610100900460ff16158015610f0b576000805461ffff19166101011790555b610f148261224e565b8015610c6c576000805461ff00191690555050565b60ca54610f7b5760405160e560020a62461bcd02815260206004820152600e60248201527f517565756520697320656d7074790000000000000000000000000000000000006044820152606401610b02565b60d68054906000610f8b83613554565b919050557fe15729a2f427aa4572dab35eb692c902fcbce57d41642013259c741380809ae260ca604051610fbf919061320c565b60405180910390a2610fd360ca6000612ca3565b565b60008051602061363d833981519152610fee8133611e77565b610d5861247a565b60008051602061367d83398151915261100f8133611e77565b50600160a060020a03918216600090815260cd602052604090208054600160a060020a03191691909216179055565b60975460ff16156110645760405160e560020a62461bcd028152600401610b02906132e6565b60cc545b600081815260cb60209081526040808320815181546060948102820185018452928101838152909391928492849190879085015b828210156110f657600084815260209081902060408051606081018252600386029092018054600160a060020a0390811684526001808301549091168486015260029091015491830191909152908352909201910161109c565b50505050815260200160018201548152505090508060200151600014806111205750428160200151115b1561112b575060cc55565b8051611136906124d5565b600082815260cb602052604081209061114f8282612ca3565b50600060019190910181905560405183917f78ff9b3176bb0d6421590f3816e75cb15a9ffa2b7a1a028f40a3f4e029eb39f291a2508061118e81613554565b915050611068565b60008051602061367d8339815191526111af8133611e77565b50600160a060020a0316600090815260cd602052604090208054600160a060020a0319169055565b60ce54600160a060020a03908116600090815260cd602052604090205416806112455760405160e560020a62461bcd02815260206004820152601560248201527f556e6b6e6f776e20746f6b656e206164647265737300000000000000000000006044820152606401610b02565b61124f828461349e565b34116112a05760405160e560020a62461bcd02815260206004820152601160248201527f53656e742076616c7565203c3d206665650000000000000000000000000000006044820152606401610b02565b6000826112ad85346134fa565b6112b791906134fa565b60ce549091506112d490600160a060020a03168787878786612769565b60cf54604051600160a060020a039091169085156108fc029086906000818181858888f1935050505015801561130e573d6000803e3d6000fd5b5060d054604051600160a060020a039091169084156108fc029085906000818181858888f19350505050158015611349573d6000803e3d6000fd5b5060ce60009054906101000a9004600160a060020a0316600160a060020a031663d0e30db0826040518263ffffffff1660e060020a0281526004016000604051808303818588803b15801561139d57600080fd5b505af11580156113b1573d6000803e3d6000fd5b505060408051606081018252600160a060020a0380881682528c81166020830190815282840188815260ca80546001810182556000918252945160039095027f42d72674974f694b5f5159593243114d38a5c39c89d6b62fee061ff523240ee181018054968616600160a060020a031997881617905592517f42d72674974f694b5f5159593243114d38a5c39c89d6b62fee061ff523240ee2840180549190951695169490941790925590517f42d72674974f694b5f5159593243114d38a5c39c89d6b62fee061ff523240ee39091015560d65491513395507f3b823d3b837159352faddd1e0b9e9f584ca2bfe976238f6a9e6da4615cf2f44494506114ee9350879087908b908b90958652600160a060020a0394851660208701529290931660408501526060840152608083019190915260a082015260c00190565b60405180910390a26114fe6128fd565b50505050505050565b6000918252606560209081526040808420600160a060020a0393909316845291905290205460ff1690565b60008051602061367d83398151915261154b8133611e77565b5060d455565b60008051602061367d83398151915261156a8133611e77565b5060cf8054600160a060020a031916600160a060020a0392909216919091179055565b60008051602061367d8339815191526115a68133611e77565b60975460ff166115cb5760405160e560020a62461bcd028152600401610b02906132af565b60cc548210156115f05760405160e560020a62461bcd028152600401610b029061337a565b6115fb6001836134fa565b60d5555060cc55565b6000828152606560205260409020600101546116208133611e77565b610b548383612085565b6000838152606560205260409020600101546116468133611e77565b610a8b848484612975565b604080518082019091526060815260006020820152600082815260cb60209081526040808320815181546060948102820185018452928101838152909491938593919285929185015b828210156116f457600084815260209081902060408051606081018252600386029092018054600160a060020a0390811684526001808301549091168486015260029091015491830191909152908352909201910161169a565b5050505081526020016001820154815250509050919050565b33301461175f5760405160e560020a62461bcd02815260206004820152601c60248201527f54686973206d6574686f642072657175697265206d756c7469736967000000006044820152606401610b02565b61177860008051602061363d8339815191528585612975565b61179060008051602061365d833981519152836129bd565b61179b6000336129bd565b610a8b600082611604565b60008051602061367d8339815191526117bf8133611e77565b5060c955565b60975460ff16156117eb5760405160e560020a62461bcd028152600401610b02906132e6565b60cc54811461183f5760405160e560020a62461bcd02815260206004820152601c60248201527f63616e20756e6c6f636b206f6e6c79206f6c64657374206576656e74000000006044820152606401610b02565b600081815260cb60209081526040808320815181546060948102820185018452928101838152909391928492849190879085015b828210156118cd57600084815260209081902060408051606081018252600386029092018054600160a060020a03908116845260018083015490911684860152600290910154918301919091529083529092019101611873565b505050508152602001600182015481525050905060008160200151116119385760405160e560020a62461bcd02815260206004820181905260248201527f6e6f206c6f636b6564207472616e7366657273207769746820746869732069646044820152606401610b02565b4281602001511061198e5760405160e560020a62461bcd02815260206004820152601b60248201527f6c6f636b54696d6520686173206e6f74207965742070617373656400000000006044820152606401610b02565b8051611999906124d5565b600082815260cb60205260408120906119b28282612ca3565b50600060019190910181905560405183917f78ff9b3176bb0d6421590f3816e75cb15a9ffa2b7a1a028f40a3f4e029eb39f291a26119f182600161349e565b60cc555050565b60008515611a8d576000805260cd6020527fcd565b10a72538d86f6d352f37ebc5dff31587960b12c0afe00fd03947a6932a54600160a060020a038a8116911614611a885760405160e560020a62461bcd02815260206004820152601f60248201527f546f6b656e206e6f7420706f696e7420746f206e617469766520746f6b656e006044820152606401610b02565b611af9565b50600160a060020a03808916600090815260cd60205260409020541680611af95760405160e560020a62461bcd02815260206004820152601560248201527f556e6b6e6f776e20746f6b656e206164647265737300000000000000000000006044820152606401610b02565b611b03828461349e565b3414611b545760405160e560020a62461bcd02815260206004820152601160248201527f53656e742076616c756520213d206665650000000000000000000000000000006044820152606401610b02565b60008711611ba75760405160e560020a62461bcd02815260206004820152601160248201527f43616e6e6f7420776974686472617720300000000000000000000000000000006044820152606401610b02565b611bb589868686868c612769565b60cf54604051600160a060020a039091169084156108fc029085906000818181858888f19350505050158015611bef573d6000803e3d6000fd5b5060d054604051600160a060020a039091169083156108fc029084906000818181858888f19350505050158015611c2a573d6000803e3d6000fd5b506040517f23b872dd00000000000000000000000000000000000000000000000000000000815233600482015230602482015260448101889052600160a060020a038a16906323b872dd90606401602060405180830381600087803b158015611c9257600080fd5b505af1158015611ca6573d6000803e3d6000fd5b505050506040513d601f19601f82011682018060405250810190611cca9190612fea565b611d195760405160e560020a62461bcd02815260206004820152601360248201527f4661696c207472616e7366657220636f696e73000000000000000000000000006044820152606401610b02565b6040805160608082018352600160a060020a038481168084528c821660208086019182528587018e815260ca8054600181018255600091909152965160039097027f42d72674974f694b5f5159593243114d38a5c39c89d6b62fee061ff523240ee181018054988716600160a060020a0319998a1617905592517f42d72674974f694b5f5159593243114d38a5c39c89d6b62fee061ff523240ee284018054918716919098161790965594517f42d72674974f694b5f5159593243114d38a5c39c89d6b62fee061ff523240ee39091015560d6548551908152918e16938201939093529283019190915281018890526080810184905260a0810183905233907f3b823d3b837159352faddd1e0b9e9f584ca2bfe976238f6a9e6da4615cf2f4449060c00160405180910390a2611e4d6128fd565b505050505050505050565b60008051602061367d833981519152611e718133611e77565b5060d255565b611e818282611507565b610c6c57611e9981600160a060020a031660146129c7565b611ea48360206129c7565b604051602001611eb592919061318b565b60408051601f198184030181529082905260e560020a62461bcd028252610b029160040161327c565b828114611f565760405160e560020a62461bcd02815260206004820152603f60248201527f73697a6573206f6620746f6b656e5468697341646472657373657320616e642060448201527f746f6b656e53696465416464726573736573206d7573742062652073616d65006064820152608401610b02565b8260005b81811015611ff757838382818110611f7457611f74613588565b9050602002016020810190611f899190612d83565b60cd6000888885818110611f9f57611f9f613588565b9050602002016020810190611fb49190612d83565b600160a060020a03908116825260208201929092526040016000208054600160a060020a0319169290911691909117905580611fef81613554565b915050611f5a565b505050505050565b6120098282611507565b610c6c576000828152606560209081526040808320600160a060020a03851684529091529020805460ff191660011790556120413390565b600160a060020a031681600160a060020a0316837f2f8788117e7eff1d82e926ec794901d17c78024a50270940304540a733656f0d60405160405180910390a45050565b61208f8282611507565b15610c6c576000828152606560209081526040808320600160a060020a0385168085529252808320805460ff1916905551339285917ff6391f5c32d9c69d2a47ea670b442974b53935d1edc7fd64eb21e047a839171b9190a45050565b60975460ff166121115760405160e560020a62461bcd028152600401610b02906132af565b6097805460ff191690557f5db9ee0a495bf2e6ff9c91a7834c1ba4fdd244a5e8aa4e537bd38aeae4b073aa335b604051600160a060020a03909116815260200160405180910390a1565b60d56000815461216a90613554565b91829055508114610d585760405160e560020a62461bcd02815260206004820152601460248201527f4576656e744964206f7574206f66206f726465720000000000000000000000006044820152606401610b02565b60d4546121cd904261349e565b600082815260cb60205260408120600101919091555b82811015610a8b57600082815260cb6020526040902084848381811061220b5761220b613588565b83546001810185556000948552602090942060609091029290920192600302909101905061223982826135ba565b5050808061224690613554565b9150506121e3565b600054610100900460ff1680612267575060005460ff16155b6122865760405160e560020a62461bcd028152600401610b029061331d565b600054610100900460ff161580156122a8576000805461ffff19166101011790555b6122b36000306129bd565b6122cb60008051602061367d833981519152336129bd565b6123047f077a1d526a4ce8a773632ab13b4fbbf1fcc954c3dab26cd27ea0e2a6750da5d76122ff6040850160208601612d83565b6129bd565b61232860008051602061363d8339815191526123236040850185613455565b612975565b61234a60008051602061365d8339815191526122ff6080850160608601612d83565b61236c61235a60a0840184613455565b61236760c0860186613455565b611ede565b61237c60a0830160808401612d83565b60ce8054600160a060020a031916600160a060020a03929092169190911790556123a96020830183612d83565b60d18054600160a060020a031916600160a060020a03929092169190911790556123da610100830160e08401612d83565b60cf8054600160a060020a031916600160a060020a039290921691909117905561240c61012083016101008401612d83565b60d08054600160a060020a031916600160a060020a039290921691909117905561016082013560d25561012082013560d381905561014083013560d455600160cc81905560d655600360c95561246290426134b6565b60d7558015610c6c576000805461ff00191690555050565b60975460ff16156124a05760405160e560020a62461bcd028152600401610b02906132e6565b6097805460ff191660011790557f62e78cea01bee320cd4e420270b5ea74000d11b0c9f74754ebdbfc544b05a25861213e3390565b60005b8151811015610c6c576000600160a060020a03168282815181106124fe576124fe613588565b602002602001015160000151600160a060020a0316141561261a5760ce548251600160a060020a0390911690632e1a7d4d9084908490811061254257612542613588565b6020026020010151604001516040518263ffffffff1660e060020a02815260040161256f91815260200190565b600060405180830381600087803b15801561258957600080fd5b505af115801561259d573d6000803e3d6000fd5b505050508181815181106125b3576125b3613588565b602002602001015160200151600160a060020a03166108fc8383815181106125dd576125dd613588565b6020026020010151604001519081150290604051600060405180830381858888f19350505050158015612614573d6000803e3d6000fd5b50612757565b81818151811061262c5761262c613588565b602002602001015160000151600160a060020a031663a9059cbb83838151811061265857612658613588565b60200260200101516020015184848151811061267657612676613588565b6020026020010151604001516040518363ffffffff1660e060020a0281526004016126b6929190600160a060020a03929092168252602082015260400190565b602060405180830381600087803b1580156126d057600080fd5b505af11580156126e4573d6000803e3d6000fd5b505050506040513d601f19601f820116820180604052508101906127089190612fea565b6127575760405160e560020a62461bcd02815260206004820152601360248201527f4661696c207472616e7366657220636f696e73000000000000000000000000006044820152606401610b02565b8061276181613554565b9150506124d8565b60008080612779610708426134b6565b905060005b60c9548110156128b1576040516c01000000000000000000000000600160a060020a038c160260208201526034810183905260548101889052607481018790526094810186905260b40160408051601f198184030181529082905280516020918201207f19457468657265756d205369676e6564204d6573736167653a0a33320000000091830191909152603c820152605c01604051602081830303815290604052805190602001209350612869848a8a8080601f016020809104026020016040519081016040528093929190818152602001838380828437600092019190915250612c1892505050565b925061288360008051602061365d83398151915284611507565b156128915750505050611ff7565b8161289b8161353d565b92505080806128a990613554565b91505061277e565b5060405160e560020a62461bcd02815260206004820152601660248201527f5369676e617475726520636865636b206661696c6564000000000000000000006044820152606401610b02565b600060d3544261290d91906134b6565b905060d7548114610d585760d6805490600061292883613554565b919050557fe15729a2f427aa4572dab35eb692c902fcbce57d41642013259c741380809ae260ca60405161295c919061320c565b60405180910390a261297060ca6000612ca3565b60d755565b60005b81811015610a8b576129ab8484848481811061299657612996613588565b90506020020160208101906122ff9190612d83565b806129b581613554565b915050612978565b610c6c8282611fff565b606060006129d68360026134db565b6129e190600261349e565b67ffffffffffffffff8111156129f9576129f96135a1565b6040519080825280601f01601f191660200182016040528015612a23576020820181803683370190505b5090507f300000000000000000000000000000000000000000000000000000000000000081600081518110612a5a57612a5a613588565b60200101907effffffffffffffffffffffffffffffffffffffffffffffffffffffffffffff1916908160001a9053507f780000000000000000000000000000000000000000000000000000000000000081600181518110612abd57612abd613588565b60200101907effffffffffffffffffffffffffffffffffffffffffffffffffffffffffffff1916908160001a9053506000612af98460026134db565b612b0490600161349e565b90505b6001811115612bbf577f303132333435363738396162636465660000000000000000000000000000000085600f1660108110612b4557612b45613588565b1a7f010000000000000000000000000000000000000000000000000000000000000002828281518110612b7a57612b7a613588565b60200101907effffffffffffffffffffffffffffffffffffffffffffffffffffffffffffff1916908160001a905350601090940493612bb88161353d565b9050612b07565b508315612c115760405160e560020a62461bcd02815260206004820181905260248201527f537472696e67733a20686578206c656e67746820696e73756666696369656e746044820152606401610b02565b9392505050565b6020810151604082015160608301516000929190831a601b811015612c3b57601b015b60408051600081526020810180835288905260ff831691810191909152606081018490526080810183905260019060a0016020604051602081039080840390855afa158015612c8e573d6000803e3d6000fd5b5050604051601f190151979650505050505050565b5080546000825560030290600052602060002090810190610d5891905b80821115612cf2578054600160a060020a03199081168255600182018054909116905560006002820155600301612cc0565b5090565b60008083601f840112612d0857600080fd5b50813567ffffffffffffffff811115612d2057600080fd5b6020830191508360208083028501011115612d3a57600080fd5b9250929050565b60008083601f840112612d5357600080fd5b50813567ffffffffffffffff811115612d6b57600080fd5b602083019150836020828501011115612d3a57600080fd5b600060208284031215612d9557600080fd5b8135612c1181613619565b60008060408385031215612db357600080fd5b8235612dbe81613619565b91506020830135612dce81613619565b809150509250929050565b60008060008060008060008060e0898b031215612df557600080fd5b8835612e0081613619565b97506020890135612e1081613619565b9650604089013595506060890135612e278161362e565b9450608089013567ffffffffffffffff811115612e4357600080fd5b612e4f8b828c01612d41565b999c989b5096999598969760a08701359660c0013595509350505050565b600080600080600060808688031215612e8557600080fd5b8535612e9081613619565b9450602086013567ffffffffffffffff811115612eac57600080fd5b612eb888828901612d41565b9699909850959660408101359660609091013595509350505050565b60008060208385031215612ee757600080fd5b823567ffffffffffffffff811115612efe57600080fd5b612f0a85828601612cf6565b90969095509350505050565b60008060008060608587031215612f2c57600080fd5b843567ffffffffffffffff811115612f4357600080fd5b612f4f87828801612cf6565b9095509350506020850135612f6381613619565b91506040850135612f7381613619565b939692955090935050565b60008060008060408587031215612f9457600080fd5b843567ffffffffffffffff80821115612fac57600080fd5b612fb888838901612cf6565b90965094506020870135915080821115612fd157600080fd5b50612fde87828801612cf6565b95989497509550505050565b600060208284031215612ffc57600080fd5b8151612c118161362e565b60006020828403121561301957600080fd5b5035919050565b6000806040838503121561303357600080fd5b823591506020830135612dce81613619565b60008060006040848603121561305a57600080fd5b83359250602084013567ffffffffffffffff81111561307857600080fd5b61308486828701612cf6565b9497909650939450505050565b6000602082840312156130a357600080fd5b81357bffffffffffffffffffffffffffffffffffffffffffffffffffffffff1981168114612c1157600080fd5b6000602082840312156130e257600080fd5b813567ffffffffffffffff8111156130f957600080fd5b82016101808185031215612c1157600080fd5b60008060006040848603121561312157600080fd5b83359250602084013567ffffffffffffffff8082111561314057600080fd5b818601915086601f83011261315457600080fd5b81358181111561316357600080fd5b87602060608302850101111561317857600080fd5b6020830194508093505050509250925092565b7f416363657373436f6e74726f6c3a206163636f756e74200000000000000000008152600083516131c3816017850160208801613511565b7f206973206d697373696e6720726f6c65200000000000000000000000000000006017918401918201528351613200816028840160208801613511565b01602801949350505050565b60006020808301818452808554808352604092508286019150866000528360002060005b8281101561326f578154600160a060020a0390811685526001808401549091168786015260028301548686015260609094019360039092019101613230565b5091979650505050505050565b602081526000825180602084015261329b816040850160208701613511565b601f01601f19169190910160400192915050565b60208082526014908201527f5061757361626c653a206e6f7420706175736564000000000000000000000000604082015260600190565b60208082526010908201527f5061757361626c653a2070617573656400000000000000000000000000000000604082015260600190565b6020808252602e908201527f496e697469616c697a61626c653a20636f6e747261637420697320616c72656160408201527f647920696e697469616c697a6564000000000000000000000000000000000000606082015260800190565b60208082526026908201527f6576656e744964206d757374206265203e3d206f6c646573744c6f636b65644560408201527f76656e7449640000000000000000000000000000000000000000000000000000606082015260800190565b6000602080835260608084018551604080858801528282518085526080890191508684019450600093505b8084101561343f5784518051600160a060020a03908116845288820151168884015283015183830152938601936001939093019290850190613402565b5094909701519590960194909452509392505050565b6000808335601e1984360301811261346c57600080fd5b83018035915067ffffffffffffffff82111561348757600080fd5b6020908101925081023603821315612d3a57600080fd5b600082198211156134b1576134b161356f565b500190565b6000826134d65760e060020a634e487b7102600052601260045260246000fd5b500490565b60008160001904831182151516156134f5576134f561356f565b500290565b60008282101561350c5761350c61356f565b500390565b60005b8381101561352c578181015183820152602001613514565b83811115610a8b5750506000910152565b60008161354c5761354c61356f565b506000190190565b60006000198214156135685761356861356f565b5060010190565b60e060020a634e487b7102600052601160045260246000fd5b60e060020a634e487b7102600052603260045260246000fd5b60e060020a634e487b7102600052604160045260246000fd5b81356135c581613619565b8154600160a060020a031916600160a060020a0382161782555060208201356135ed81613619565b600182018054600160a060020a031916600160a060020a03831617905550604082013560028201555050565b600160a060020a0381168114610d5857600080fd5b8015158114610d5857600080fdfeb7f2fcb7a10916921b74b9baa8ea85f89b12ab12f6ededa160998f8b20e65f95516d5e7ed3e60a6b2804c1554cd94bc2eb576e44b192a0e069d4c527589a887ea49807205ce4d355092ef5a8a18f56e8913cf4a201fbe287825b095693c21775a2646970667358221220d403a35614bf8afc872185c0f08f7f5f10cbab36c101408d4fe041a9be7e30fa64736f6c63430008060033",
  "devdoc": {
    "kind": "dev",
    "methods": {
      "getRoleAdmin(bytes32)": {
        "details": "Returns the admin role that controls `role`. See {grantRole} and {revokeRole}. To change a role's admin, use {_setRoleAdmin}."
      },
      "grantRole(bytes32,address)": {
        "details": "Grants `role` to `account`. If `account` had not been already granted `role`, emits a {RoleGranted} event. Requirements: - the caller must have ``role``'s admin role."
      },
      "hasRole(bytes32,address)": {
        "details": "Returns `true` if `account` has been granted `role`."
      },
      "paused()": {
        "details": "Returns true if the contract is paused, and false otherwise."
      },
      "renounceRole(bytes32,address)": {
        "details": "Revokes `role` from the calling account. Roles are often managed via {grantRole} and {revokeRole}: this function's purpose is to provide a mechanism for accounts to lose their privileges if they are compromised (such as when a trusted device is misplaced). If the calling account had been granted `role`, emits a {RoleRevoked} event. Requirements: - the caller must be `account`."
      },
      "revokeRole(bytes32,address)": {
        "details": "Revokes `role` from `account`. If `account` had been granted `role`, emits a {RoleRevoked} event. Requirements: - the caller must have ``role``'s admin role."
      },
      "supportsInterface(bytes4)": {
        "details": "See {IERC165-supportsInterface}."
      },
      "withdraw(address,address,uint256,bool,bytes,uint256,uint256)": {
        "params": {
          "bridgeFee": "Amount (in native coins), payed as bridge earnings",
          "feeSignature": "Signature signed by relay that confirms that the fee values are valid",
          "transferFee": "Amount (in native coins), payed to compensate gas fees in side network"
        }
      },
      "wrapWithdraw(address,bytes,uint256,uint256)": {
        "params": {
          "bridgeFee": "Amount (in native coins), payed as bridge earnings",
          "feeSignature": "Signature signed by relay that confirms that the fee values are valid",
          "toAddress": "Address in side network that will receive the tokens",
          "transferFee": "Amount (in native coins), payed to compensate gas fees in side network"
        }
      }
    },
    "version": 1
  },
  "userdoc": {
    "kind": "user",
    "methods": {},
    "version": 1
  },
  "storageLayout": {
    "storage": [
      {
        "astId": 413,
        "contract": "contracts/networks/ETH_AmbBridge.sol:ETH_AmbBridge",
        "label": "_initialized",
        "offset": 0,
        "slot": "0",
        "type": "t_bool"
      },
      {
        "astId": 416,
        "contract": "contracts/networks/ETH_AmbBridge.sol:ETH_AmbBridge",
        "label": "_initializing",
        "offset": 1,
        "slot": "0",
        "type": "t_bool"
      },
      {
        "astId": 609,
        "contract": "contracts/networks/ETH_AmbBridge.sol:ETH_AmbBridge",
        "label": "__gap",
        "offset": 0,
        "slot": "1",
        "type": "t_array(t_uint256)50_storage"
      },
      {
        "astId": 858,
        "contract": "contracts/networks/ETH_AmbBridge.sol:ETH_AmbBridge",
        "label": "__gap",
        "offset": 0,
        "slot": "51",
        "type": "t_array(t_uint256)50_storage"
      },
      {
        "astId": 48,
        "contract": "contracts/networks/ETH_AmbBridge.sol:ETH_AmbBridge",
        "label": "_roles",
        "offset": 0,
        "slot": "101",
        "type": "t_mapping(t_bytes32,t_struct(RoleData)43_storage)"
      },
      {
        "astId": 333,
        "contract": "contracts/networks/ETH_AmbBridge.sol:ETH_AmbBridge",
        "label": "__gap",
        "offset": 0,
        "slot": "102",
        "type": "t_array(t_uint256)49_storage"
      },
      {
        "astId": 474,
        "contract": "contracts/networks/ETH_AmbBridge.sol:ETH_AmbBridge",
        "label": "_paused",
        "offset": 0,
        "slot": "151",
        "type": "t_bool"
      },
      {
        "astId": 565,
        "contract": "contracts/networks/ETH_AmbBridge.sol:ETH_AmbBridge",
        "label": "__gap",
        "offset": 0,
        "slot": "152",
        "type": "t_array(t_uint256)49_storage"
      },
      {
        "astId": 6726,
        "contract": "contracts/networks/ETH_AmbBridge.sol:ETH_AmbBridge",
        "label": "signatureFeeCheckNumber",
        "offset": 0,
        "slot": "201",
        "type": "t_uint256"
      },
      {
        "astId": 6730,
        "contract": "contracts/networks/ETH_AmbBridge.sol:ETH_AmbBridge",
        "label": "queue",
        "offset": 0,
        "slot": "202",
        "type": "t_array(t_struct(Transfer)7932_storage)dyn_storage"
      },
      {
        "astId": 6735,
        "contract": "contracts/networks/ETH_AmbBridge.sol:ETH_AmbBridge",
        "label": "lockedTransfers",
        "offset": 0,
        "slot": "203",
        "type": "t_mapping(t_uint256,t_struct(LockedTransfers)7949_storage)"
      },
      {
        "astId": 6737,
        "contract": "contracts/networks/ETH_AmbBridge.sol:ETH_AmbBridge",
        "label": "oldestLockedEventId",
        "offset": 0,
        "slot": "204",
        "type": "t_uint256"
      },
      {
        "astId": 6741,
        "contract": "contracts/networks/ETH_AmbBridge.sol:ETH_AmbBridge",
        "label": "tokenAddresses",
        "offset": 0,
        "slot": "205",
        "type": "t_mapping(t_address,t_address)"
      },
      {
        "astId": 6743,
        "contract": "contracts/networks/ETH_AmbBridge.sol:ETH_AmbBridge",
        "label": "wrapperAddress",
        "offset": 0,
        "slot": "206",
        "type": "t_address"
      },
      {
        "astId": 6745,
        "contract": "contracts/networks/ETH_AmbBridge.sol:ETH_AmbBridge",
        "label": "transferFeeRecipient",
        "offset": 0,
        "slot": "207",
        "type": "t_address_payable"
      },
      {
        "astId": 6747,
        "contract": "contracts/networks/ETH_AmbBridge.sol:ETH_AmbBridge",
        "label": "bridgeFeeRecipient",
        "offset": 0,
        "slot": "208",
        "type": "t_address_payable"
      },
      {
        "astId": 6749,
        "contract": "contracts/networks/ETH_AmbBridge.sol:ETH_AmbBridge",
        "label": "sideBridgeAddress",
        "offset": 0,
        "slot": "209",
        "type": "t_address"
      },
      {
        "astId": 6751,
        "contract": "contracts/networks/ETH_AmbBridge.sol:ETH_AmbBridge",
        "label": "minSafetyBlocks",
        "offset": 0,
        "slot": "210",
        "type": "t_uint256"
      },
      {
        "astId": 6753,
        "contract": "contracts/networks/ETH_AmbBridge.sol:ETH_AmbBridge",
        "label": "timeframeSeconds",
        "offset": 0,
        "slot": "211",
        "type": "t_uint256"
      },
      {
        "astId": 6755,
        "contract": "contracts/networks/ETH_AmbBridge.sol:ETH_AmbBridge",
        "label": "lockTime",
        "offset": 0,
        "slot": "212",
        "type": "t_uint256"
      },
      {
        "astId": 6757,
        "contract": "contracts/networks/ETH_AmbBridge.sol:ETH_AmbBridge",
        "label": "inputEventId",
        "offset": 0,
        "slot": "213",
        "type": "t_uint256"
      },
      {
        "astId": 6759,
        "contract": "contracts/networks/ETH_AmbBridge.sol:ETH_AmbBridge",
        "label": "outputEventId",
        "offset": 0,
        "slot": "214",
        "type": "t_uint256"
      },
      {
        "astId": 6761,
        "contract": "contracts/networks/ETH_AmbBridge.sol:ETH_AmbBridge",
        "label": "lastTimeframe",
        "offset": 0,
        "slot": "215",
        "type": "t_uint256"
      },
      {
        "astId": 7922,
        "contract": "contracts/networks/ETH_AmbBridge.sol:ETH_AmbBridge",
        "label": "__gap",
        "offset": 0,
        "slot": "216",
        "type": "t_array(t_uint256)15_storage"
      },
      {
        "astId": 6656,
        "contract": "contracts/networks/ETH_AmbBridge.sol:ETH_AmbBridge",
        "label": "___gap",
        "offset": 0,
        "slot": "231",
        "type": "t_array(t_uint256)15_storage"
      }
    ],
    "types": {
      "t_address": {
        "encoding": "inplace",
        "label": "address",
        "numberOfBytes": "20"
      },
      "t_address_payable": {
        "encoding": "inplace",
        "label": "address payable",
        "numberOfBytes": "20"
      },
      "t_array(t_struct(Transfer)7932_storage)dyn_storage": {
        "base": "t_struct(Transfer)7932_storage",
        "encoding": "dynamic_array",
        "label": "struct CommonStructs.Transfer[]",
        "numberOfBytes": "32"
      },
      "t_array(t_uint256)15_storage": {
        "base": "t_uint256",
        "encoding": "inplace",
        "label": "uint256[15]",
        "numberOfBytes": "480"
      },
      "t_array(t_uint256)49_storage": {
        "base": "t_uint256",
        "encoding": "inplace",
        "label": "uint256[49]",
        "numberOfBytes": "1568"
      },
      "t_array(t_uint256)50_storage": {
        "base": "t_uint256",
        "encoding": "inplace",
        "label": "uint256[50]",
        "numberOfBytes": "1600"
      },
      "t_bool": {
        "encoding": "inplace",
        "label": "bool",
        "numberOfBytes": "1"
      },
      "t_bytes32": {
        "encoding": "inplace",
        "label": "bytes32",
        "numberOfBytes": "32"
      },
      "t_mapping(t_address,t_address)": {
        "encoding": "mapping",
        "key": "t_address",
        "label": "mapping(address => address)",
        "numberOfBytes": "32",
        "value": "t_address"
      },
      "t_mapping(t_address,t_bool)": {
        "encoding": "mapping",
        "key": "t_address",
        "label": "mapping(address => bool)",
        "numberOfBytes": "32",
        "value": "t_bool"
      },
      "t_mapping(t_bytes32,t_struct(RoleData)43_storage)": {
        "encoding": "mapping",
        "key": "t_bytes32",
        "label": "mapping(bytes32 => struct AccessControlUpgradeable.RoleData)",
        "numberOfBytes": "32",
        "value": "t_struct(RoleData)43_storage"
      },
      "t_mapping(t_uint256,t_struct(LockedTransfers)7949_storage)": {
        "encoding": "mapping",
        "key": "t_uint256",
        "label": "mapping(uint256 => struct CommonStructs.LockedTransfers)",
        "numberOfBytes": "32",
        "value": "t_struct(LockedTransfers)7949_storage"
      },
      "t_struct(LockedTransfers)7949_storage": {
        "encoding": "inplace",
        "label": "struct CommonStructs.LockedTransfers",
        "members": [
          {
            "astId": 7946,
            "contract": "contracts/networks/ETH_AmbBridge.sol:ETH_AmbBridge",
            "label": "transfers",
            "offset": 0,
            "slot": "0",
            "type": "t_array(t_struct(Transfer)7932_storage)dyn_storage"
          },
          {
            "astId": 7948,
            "contract": "contracts/networks/ETH_AmbBridge.sol:ETH_AmbBridge",
            "label": "endTimestamp",
            "offset": 0,
            "slot": "1",
            "type": "t_uint256"
          }
        ],
        "numberOfBytes": "64"
      },
      "t_struct(RoleData)43_storage": {
        "encoding": "inplace",
        "label": "struct AccessControlUpgradeable.RoleData",
        "members": [
          {
            "astId": 40,
            "contract": "contracts/networks/ETH_AmbBridge.sol:ETH_AmbBridge",
            "label": "members",
            "offset": 0,
            "slot": "0",
            "type": "t_mapping(t_address,t_bool)"
          },
          {
            "astId": 42,
            "contract": "contracts/networks/ETH_AmbBridge.sol:ETH_AmbBridge",
            "label": "adminRole",
            "offset": 0,
            "slot": "1",
            "type": "t_bytes32"
          }
        ],
        "numberOfBytes": "64"
      },
      "t_struct(Transfer)7932_storage": {
        "encoding": "inplace",
        "label": "struct CommonStructs.Transfer",
        "members": [
          {
            "astId": 7927,
            "contract": "contracts/networks/ETH_AmbBridge.sol:ETH_AmbBridge",
            "label": "tokenAddress",
            "offset": 0,
            "slot": "0",
            "type": "t_address"
          },
          {
            "astId": 7929,
            "contract": "contracts/networks/ETH_AmbBridge.sol:ETH_AmbBridge",
            "label": "toAddress",
            "offset": 0,
            "slot": "1",
            "type": "t_address"
          },
          {
            "astId": 7931,
            "contract": "contracts/networks/ETH_AmbBridge.sol:ETH_AmbBridge",
            "label": "amount",
            "offset": 0,
            "slot": "2",
            "type": "t_uint256"
          }
        ],
        "numberOfBytes": "96"
      },
      "t_uint256": {
        "encoding": "inplace",
        "label": "uint256",
        "numberOfBytes": "32"
      }
    }
  }
}