{
  "address": "0x5A74608faE94fBc9865ceC4C9Dd1F97782a33766",
  "abi": [
    {
      "anonymous": false,
      "inputs": [
        {
          "indexed": false,
          "internalType": "address",
          "name": "account",
          "type": "address"
        }
      ],
      "name": "Paused",
      "type": "event"
    },
    {
      "anonymous": false,
      "inputs": [
        {
          "indexed": true,
          "internalType": "address",
          "name": "relay",
          "type": "address"
        }
      ],
      "name": "RelayAdd",
      "type": "event"
    },
    {
      "anonymous": false,
      "inputs": [
        {
          "indexed": true,
          "internalType": "address",
          "name": "sender",
          "type": "address"
        },
        {
          "indexed": true,
          "internalType": "uint256",
          "name": "eventId",
          "type": "uint256"
        },
        {
          "indexed": false,
          "internalType": "bytes32",
          "name": "hash",
          "type": "bytes32"
        }
      ],
      "name": "RelayConfirmation",
      "type": "event"
    },
    {
      "anonymous": false,
      "inputs": [
        {
          "indexed": true,
          "internalType": "address",
          "name": "relay",
          "type": "address"
        }
      ],
      "name": "RelayRemove",
      "type": "event"
    },
    {
      "anonymous": false,
      "inputs": [
        {
          "indexed": true,
          "internalType": "bytes32",
          "name": "role",
          "type": "bytes32"
        },
        {
          "indexed": true,
          "internalType": "bytes32",
          "name": "previousAdminRole",
          "type": "bytes32"
        },
        {
          "indexed": true,
          "internalType": "bytes32",
          "name": "newAdminRole",
          "type": "bytes32"
        }
      ],
      "name": "RoleAdminChanged",
      "type": "event"
    },
    {
      "anonymous": false,
      "inputs": [
        {
          "indexed": true,
          "internalType": "bytes32",
          "name": "role",
          "type": "bytes32"
        },
        {
          "indexed": true,
          "internalType": "address",
          "name": "account",
          "type": "address"
        },
        {
          "indexed": true,
          "internalType": "address",
          "name": "sender",
          "type": "address"
        }
      ],
      "name": "RoleGranted",
      "type": "event"
    },
    {
      "anonymous": false,
      "inputs": [
        {
          "indexed": true,
          "internalType": "bytes32",
          "name": "role",
          "type": "bytes32"
        },
        {
          "indexed": true,
          "internalType": "address",
          "name": "account",
          "type": "address"
        },
        {
          "indexed": true,
          "internalType": "address",
          "name": "sender",
          "type": "address"
        }
      ],
      "name": "RoleRevoked",
      "type": "event"
    },
    {
      "anonymous": false,
      "inputs": [
        {
          "indexed": false,
          "internalType": "uint256",
          "name": "newThreshold",
          "type": "uint256"
        }
      ],
      "name": "ThresholdChange",
      "type": "event"
    },
    {
      "anonymous": false,
      "inputs": [
        {
          "indexed": true,
          "internalType": "uint256",
          "name": "eventId",
          "type": "uint256"
        },
        {
          "components": [
            {
              "internalType": "address",
              "name": "tokenAddress",
              "type": "address"
            },
            {
              "internalType": "address",
              "name": "toAddress",
              "type": "address"
            },
            {
              "internalType": "uint256",
              "name": "amount",
              "type": "uint256"
            }
          ],
          "indexed": false,
          "internalType": "struct CommonStructs.Transfer[]",
          "name": "queue",
          "type": "tuple[]"
        }
      ],
      "name": "Transfer",
      "type": "event"
    },
    {
      "anonymous": false,
      "inputs": [
        {
          "indexed": true,
          "internalType": "uint256",
          "name": "eventId",
          "type": "uint256"
        }
      ],
      "name": "TransferFinish",
      "type": "event"
    },
    {
      "anonymous": false,
      "inputs": [
        {
          "indexed": true,
          "internalType": "uint256",
          "name": "eventId",
          "type": "uint256"
        }
      ],
      "name": "TransferSubmit",
      "type": "event"
    },
    {
      "anonymous": false,
      "inputs": [
        {
          "indexed": false,
          "internalType": "address",
          "name": "account",
          "type": "address"
        }
      ],
      "name": "Unpaused",
      "type": "event"
    },
    {
      "anonymous": false,
      "inputs": [
        {
          "indexed": true,
          "internalType": "address",
          "name": "from",
          "type": "address"
        },
        {
          "indexed": false,
          "internalType": "uint256",
          "name": "eventId",
          "type": "uint256"
        },
        {
          "indexed": false,
          "internalType": "address",
          "name": "tokenFrom",
          "type": "address"
        },
        {
          "indexed": false,
          "internalType": "address",
          "name": "tokenTo",
          "type": "address"
        },
        {
          "indexed": false,
          "internalType": "uint256",
          "name": "amount",
          "type": "uint256"
        },
        {
          "indexed": false,
          "internalType": "uint256",
          "name": "transferFeeAmount",
          "type": "uint256"
        },
        {
          "indexed": false,
          "internalType": "uint256",
          "name": "bridgeFeeAmount",
          "type": "uint256"
        }
      ],
      "name": "Withdraw",
      "type": "event"
    },
    {
      "inputs": [],
      "name": "ADMIN_ROLE",
      "outputs": [
        {
          "internalType": "bytes32",
          "name": "",
          "type": "bytes32"
        }
      ],
      "stateMutability": "view",
      "type": "function"
    },
    {
      "inputs": [],
      "name": "DEFAULT_ADMIN_ROLE",
      "outputs": [
        {
          "internalType": "bytes32",
          "name": "",
          "type": "bytes32"
        }
      ],
      "stateMutability": "view",
      "type": "function"
    },
    {
      "inputs": [],
      "name": "RELAY_ROLE",
      "outputs": [
        {
          "internalType": "bytes32",
          "name": "",
          "type": "bytes32"
        }
      ],
      "stateMutability": "view",
      "type": "function"
    },
    {
      "inputs": [
        {
          "internalType": "address payable",
          "name": "feeRecipient_",
          "type": "address"
        }
      ],
      "name": "changeBridgeFeeRecipient",
      "outputs": [],
      "stateMutability": "nonpayable",
      "type": "function"
    },
    {
      "inputs": [
        {
          "internalType": "uint256",
          "name": "lockTime_",
          "type": "uint256"
        }
      ],
      "name": "changeLockTime",
      "outputs": [],
      "stateMutability": "nonpayable",
      "type": "function"
    },
    {
      "inputs": [
        {
          "internalType": "uint256",
          "name": "minSafetyBlocks_",
          "type": "uint256"
        }
      ],
      "name": "changeMinSafetyBlocks",
      "outputs": [],
      "stateMutability": "nonpayable",
      "type": "function"
    },
    {
      "inputs": [
        {
          "internalType": "uint256",
          "name": "signatureFeeCheckNumber_",
          "type": "uint256"
        }
      ],
      "name": "changeSignatureFeeCheckNumber",
      "outputs": [],
      "stateMutability": "nonpayable",
      "type": "function"
    },
    {
      "inputs": [
        {
          "internalType": "uint256",
          "name": "timeframeSeconds_",
          "type": "uint256"
        }
      ],
      "name": "changeTimeframeSeconds",
      "outputs": [],
      "stateMutability": "nonpayable",
      "type": "function"
    },
    {
      "inputs": [
        {
          "internalType": "address payable",
          "name": "feeRecipient_",
          "type": "address"
        }
      ],
      "name": "changeTransferFeeRecipient",
      "outputs": [],
      "stateMutability": "nonpayable",
      "type": "function"
    },
    {
      "inputs": [
        {
          "internalType": "bytes32",
          "name": "",
          "type": "bytes32"
        },
        {
          "internalType": "address",
          "name": "",
          "type": "address"
        }
      ],
      "name": "confirmations",
      "outputs": [
        {
          "internalType": "bool",
          "name": "",
          "type": "bool"
        }
      ],
      "stateMutability": "view",
      "type": "function"
    },
    {
      "inputs": [],
      "name": "confirmationsThreshold",
      "outputs": [
        {
          "internalType": "uint256",
          "name": "",
          "type": "uint256"
        }
      ],
      "stateMutability": "view",
      "type": "function"
    },
    {
      "inputs": [
        {
          "internalType": "bytes32",
          "name": "hash",
          "type": "bytes32"
        }
      ],
      "name": "confirmedCount",
      "outputs": [
        {
          "internalType": "uint256",
          "name": "",
          "type": "uint256"
        }
      ],
      "stateMutability": "view",
      "type": "function"
    },
    {
      "inputs": [
        {
          "internalType": "uint256",
          "name": "eventId",
          "type": "uint256"
        }
      ],
      "name": "getLockedTransfers",
      "outputs": [
        {
          "components": [
            {
              "components": [
                {
                  "internalType": "address",
                  "name": "tokenAddress",
                  "type": "address"
                },
                {
                  "internalType": "address",
                  "name": "toAddress",
                  "type": "address"
                },
                {
                  "internalType": "uint256",
                  "name": "amount",
                  "type": "uint256"
                }
              ],
              "internalType": "struct CommonStructs.Transfer[]",
              "name": "transfers",
              "type": "tuple[]"
            },
            {
              "internalType": "uint256",
              "name": "endTimestamp",
              "type": "uint256"
            }
          ],
          "internalType": "struct CommonStructs.LockedTransfers",
          "name": "",
          "type": "tuple"
        }
      ],
      "stateMutability": "view",
      "type": "function"
    },
    {
      "inputs": [],
      "name": "getRelays",
      "outputs": [
        {
          "internalType": "address[]",
          "name": "",
          "type": "address[]"
        }
      ],
      "stateMutability": "view",
      "type": "function"
    },
    {
      "inputs": [
        {
          "internalType": "bytes32",
          "name": "role",
          "type": "bytes32"
        }
      ],
      "name": "getRoleAdmin",
      "outputs": [
        {
          "internalType": "bytes32",
          "name": "",
          "type": "bytes32"
        }
      ],
      "stateMutability": "view",
      "type": "function"
    },
    {
      "inputs": [
        {
          "internalType": "bytes32",
          "name": "role",
          "type": "bytes32"
        },
        {
          "internalType": "address",
          "name": "account",
          "type": "address"
        }
      ],
      "name": "grantRole",
      "outputs": [],
      "stateMutability": "nonpayable",
      "type": "function"
    },
    {
      "inputs": [
        {
          "internalType": "bytes32",
          "name": "role",
          "type": "bytes32"
        },
        {
          "internalType": "address",
          "name": "account",
          "type": "address"
        }
      ],
      "name": "hasRole",
      "outputs": [
        {
          "internalType": "bool",
          "name": "",
          "type": "bool"
        }
      ],
      "stateMutability": "view",
      "type": "function"
    },
    {
      "inputs": [
        {
          "components": [
            {
              "internalType": "address",
              "name": "sideBridgeAddress",
              "type": "address"
            },
            {
              "internalType": "address",
              "name": "adminAddress",
              "type": "address"
            },
            {
              "internalType": "address",
              "name": "relayAddress",
              "type": "address"
            },
            {
              "internalType": "address",
              "name": "wrappingTokenAddress",
              "type": "address"
            },
            {
              "internalType": "address[]",
              "name": "tokenThisAddresses",
              "type": "address[]"
            },
            {
              "internalType": "address[]",
              "name": "tokenSideAddresses",
              "type": "address[]"
            },
            {
              "internalType": "address payable",
              "name": "transferFeeRecipient",
              "type": "address"
            },
            {
              "internalType": "address payable",
              "name": "bridgeFeeRecipient",
              "type": "address"
            },
            {
              "internalType": "uint256",
              "name": "timeframeSeconds",
              "type": "uint256"
            },
            {
              "internalType": "uint256",
              "name": "lockTime",
              "type": "uint256"
            },
            {
              "internalType": "uint256",
              "name": "minSafetyBlocks",
              "type": "uint256"
            }
          ],
          "internalType": "struct CommonStructs.ConstructorArgs",
          "name": "args",
          "type": "tuple"
        },
        {
          "internalType": "uint256",
          "name": "_confirmations",
          "type": "uint256"
        },
        {
          "internalType": "address[]",
          "name": "_relays",
          "type": "address[]"
        }
      ],
      "name": "initialize",
      "outputs": [],
      "stateMutability": "nonpayable",
      "type": "function"
    },
    {
      "inputs": [],
      "name": "inputEventId",
      "outputs": [
        {
          "internalType": "uint256",
          "name": "",
          "type": "uint256"
        }
      ],
      "stateMutability": "view",
      "type": "function"
    },
    {
      "inputs": [
        {
          "internalType": "address",
          "name": "relay",
          "type": "address"
        },
        {
          "internalType": "uint256",
          "name": "eventId",
          "type": "uint256"
        },
        {
          "components": [
            {
              "internalType": "address",
              "name": "tokenAddress",
              "type": "address"
            },
            {
              "internalType": "address",
              "name": "toAddress",
              "type": "address"
            },
            {
              "internalType": "uint256",
              "name": "amount",
              "type": "uint256"
            }
          ],
          "internalType": "struct CommonStructs.Transfer[]",
          "name": "transfers",
          "type": "tuple[]"
        }
      ],
      "name": "isConfirmedByRelay",
      "outputs": [
        {
          "internalType": "bool",
          "name": "",
          "type": "bool"
        }
      ],
      "stateMutability": "view",
      "type": "function"
    },
    {
      "inputs": [],
      "name": "isQueueEmpty",
      "outputs": [
        {
          "internalType": "bool",
          "name": "",
          "type": "bool"
        }
      ],
      "stateMutability": "view",
      "type": "function"
    },
    {
      "inputs": [
        {
          "internalType": "address",
          "name": "relay",
          "type": "address"
        }
      ],
      "name": "isRelay",
      "outputs": [
        {
          "internalType": "bool",
          "name": "",
          "type": "bool"
        }
      ],
      "stateMutability": "view",
      "type": "function"
    },
    {
      "inputs": [],
      "name": "lastTimeframe",
      "outputs": [
        {
          "internalType": "uint256",
          "name": "",
          "type": "uint256"
        }
      ],
      "stateMutability": "view",
      "type": "function"
    },
    {
      "inputs": [],
      "name": "lockTime",
      "outputs": [
        {
          "internalType": "uint256",
          "name": "",
          "type": "uint256"
        }
      ],
      "stateMutability": "view",
      "type": "function"
    },
    {
      "inputs": [
        {
          "internalType": "uint256",
          "name": "",
          "type": "uint256"
        }
      ],
      "name": "lockedTransfers",
      "outputs": [
        {
          "internalType": "uint256",
          "name": "endTimestamp",
          "type": "uint256"
        }
      ],
      "stateMutability": "view",
      "type": "function"
    },
    {
      "inputs": [],
      "name": "minSafetyBlocks",
      "outputs": [
        {
          "internalType": "uint256",
          "name": "",
          "type": "uint256"
        }
      ],
      "stateMutability": "view",
      "type": "function"
    },
    {
      "inputs": [],
      "name": "oldestLockedEventId",
      "outputs": [
        {
          "internalType": "uint256",
          "name": "",
          "type": "uint256"
        }
      ],
      "stateMutability": "view",
      "type": "function"
    },
    {
      "inputs": [],
      "name": "pause",
      "outputs": [],
      "stateMutability": "nonpayable",
      "type": "function"
    },
    {
      "inputs": [],
      "name": "paused",
      "outputs": [
        {
          "internalType": "bool",
          "name": "",
          "type": "bool"
        }
      ],
      "stateMutability": "view",
      "type": "function"
    },
    {
      "inputs": [
        {
          "internalType": "uint256",
          "name": "",
          "type": "uint256"
        }
      ],
      "name": "relays",
      "outputs": [
        {
          "internalType": "address",
          "name": "",
          "type": "address"
        }
      ],
      "stateMutability": "view",
      "type": "function"
    },
    {
      "inputs": [
        {
          "internalType": "uint256",
          "name": "eventId",
          "type": "uint256"
        }
      ],
      "name": "removeLockedTransfers",
      "outputs": [],
      "stateMutability": "nonpayable",
      "type": "function"
    },
    {
      "inputs": [
        {
          "internalType": "bytes32",
          "name": "role",
          "type": "bytes32"
        },
        {
          "internalType": "address",
          "name": "account",
          "type": "address"
        }
      ],
      "name": "renounceRole",
      "outputs": [],
      "stateMutability": "nonpayable",
      "type": "function"
    },
    {
      "inputs": [
        {
          "internalType": "bytes32",
          "name": "role",
          "type": "bytes32"
        },
        {
          "internalType": "address",
          "name": "account",
          "type": "address"
        }
      ],
      "name": "revokeRole",
      "outputs": [],
      "stateMutability": "nonpayable",
      "type": "function"
    },
    {
      "inputs": [
        {
          "internalType": "address[]",
          "name": "toRemove",
          "type": "address[]"
        },
        {
          "internalType": "address[]",
          "name": "toAdd",
          "type": "address[]"
        },
        {
          "internalType": "uint256",
          "name": "_confirmations",
          "type": "uint256"
        }
      ],
      "name": "setRelaysAndConfirmations",
      "outputs": [],
      "stateMutability": "nonpayable",
      "type": "function"
    },
    {
      "inputs": [
        {
          "internalType": "address",
          "name": "_sideBridgeAddress",
          "type": "address"
        }
      ],
      "name": "setSideBridge",
      "outputs": [],
      "stateMutability": "nonpayable",
      "type": "function"
    },
    {
      "inputs": [],
      "name": "sideBridgeAddress",
      "outputs": [
        {
          "internalType": "address",
          "name": "",
          "type": "address"
        }
      ],
      "stateMutability": "view",
      "type": "function"
    },
    {
      "inputs": [
        {
          "internalType": "uint256",
          "name": "eventId",
          "type": "uint256"
        },
        {
          "components": [
            {
              "internalType": "address",
              "name": "tokenAddress",
              "type": "address"
            },
            {
              "internalType": "address",
              "name": "toAddress",
              "type": "address"
            },
            {
              "internalType": "uint256",
              "name": "amount",
              "type": "uint256"
            }
          ],
          "internalType": "struct CommonStructs.Transfer[]",
          "name": "transfers",
          "type": "tuple[]"
        }
      ],
      "name": "submitTransferUntrustless",
      "outputs": [],
      "stateMutability": "nonpayable",
      "type": "function"
    },
    {
      "inputs": [
        {
          "internalType": "bytes4",
          "name": "interfaceId",
          "type": "bytes4"
        }
      ],
      "name": "supportsInterface",
      "outputs": [
        {
          "internalType": "bool",
          "name": "",
          "type": "bool"
        }
      ],
      "stateMutability": "view",
      "type": "function"
    },
    {
      "inputs": [],
      "name": "timeframeSeconds",
      "outputs": [
        {
          "internalType": "uint256",
          "name": "",
          "type": "uint256"
        }
      ],
      "stateMutability": "view",
      "type": "function"
    },
    {
      "inputs": [
        {
          "internalType": "address",
          "name": "",
          "type": "address"
        }
      ],
      "name": "tokenAddresses",
      "outputs": [
        {
          "internalType": "address",
          "name": "",
          "type": "address"
        }
      ],
      "stateMutability": "view",
      "type": "function"
    },
    {
      "inputs": [
        {
          "internalType": "address",
          "name": "tokenThisAddress",
          "type": "address"
        },
        {
          "internalType": "address",
          "name": "tokenSideAddress",
          "type": "address"
        }
      ],
      "name": "tokensAdd",
      "outputs": [],
      "stateMutability": "nonpayable",
      "type": "function"
    },
    {
      "inputs": [
        {
          "internalType": "address[]",
          "name": "tokenThisAddresses",
          "type": "address[]"
        },
        {
          "internalType": "address[]",
          "name": "tokenSideAddresses",
          "type": "address[]"
        }
      ],
      "name": "tokensAddBatch",
      "outputs": [],
      "stateMutability": "nonpayable",
      "type": "function"
    },
    {
      "inputs": [
        {
          "internalType": "address",
          "name": "tokenThisAddress",
          "type": "address"
        }
      ],
      "name": "tokensRemove",
      "outputs": [],
      "stateMutability": "nonpayable",
      "type": "function"
    },
    {
      "inputs": [
        {
          "internalType": "address[]",
          "name": "tokenThisAddresses",
          "type": "address[]"
        }
      ],
      "name": "tokensRemoveBatch",
      "outputs": [],
      "stateMutability": "nonpayable",
      "type": "function"
    },
    {
      "inputs": [
        {
          "internalType": "uint256",
          "name": "eventId",
          "type": "uint256"
        },
        {
          "components": [
            {
              "internalType": "address",
              "name": "tokenAddress",
              "type": "address"
            },
            {
              "internalType": "address",
              "name": "toAddress",
              "type": "address"
            },
            {
              "internalType": "uint256",
              "name": "amount",
              "type": "uint256"
            }
          ],
          "internalType": "struct CommonStructs.Transfer[]",
          "name": "transfers",
          "type": "tuple[]"
        }
      ],
      "name": "transfersHash",
      "outputs": [
        {
          "internalType": "bytes32",
          "name": "",
          "type": "bytes32"
        }
      ],
      "stateMutability": "pure",
      "type": "function"
    },
    {
      "inputs": [],
      "name": "triggerTransfers",
      "outputs": [],
      "stateMutability": "nonpayable",
      "type": "function"
    },
    {
      "inputs": [
        {
          "internalType": "uint256",
          "name": "eventId",
          "type": "uint256"
        }
      ],
      "name": "unlockTransfers",
      "outputs": [],
      "stateMutability": "nonpayable",
      "type": "function"
    },
    {
      "inputs": [],
      "name": "unlockTransfersBatch",
      "outputs": [],
      "stateMutability": "nonpayable",
      "type": "function"
    },
    {
      "inputs": [],
      "name": "unpause",
      "outputs": [],
      "stateMutability": "nonpayable",
      "type": "function"
    },
    {
      "inputs": [
        {
          "internalType": "uint256",
          "name": "_confirmations",
          "type": "uint256"
        },
        {
          "internalType": "address[]",
          "name": "_relays",
          "type": "address[]"
        }
      ],
      "name": "upgrade",
      "outputs": [],
      "stateMutability": "nonpayable",
      "type": "function"
    },
    {
      "inputs": [
        {
          "internalType": "address",
          "name": "tokenThisAddress",
          "type": "address"
        },
        {
          "internalType": "address",
          "name": "toAddress",
          "type": "address"
        },
        {
          "internalType": "uint256",
          "name": "amount",
          "type": "uint256"
        },
        {
          "internalType": "bool",
          "name": "unwrapSide",
          "type": "bool"
        },
        {
          "internalType": "bytes",
          "name": "feeSignature",
          "type": "bytes"
        },
        {
          "internalType": "uint256",
          "name": "transferFee",
          "type": "uint256"
        },
        {
          "internalType": "uint256",
          "name": "bridgeFee",
          "type": "uint256"
        }
      ],
      "name": "withdraw",
      "outputs": [],
      "stateMutability": "payable",
      "type": "function"
    },
    {
      "inputs": [
        {
          "internalType": "address",
          "name": "toAddress",
          "type": "address"
        },
        {
          "internalType": "bytes",
          "name": "feeSignature",
          "type": "bytes"
        },
        {
          "internalType": "uint256",
          "name": "transferFee",
          "type": "uint256"
        },
        {
          "internalType": "uint256",
          "name": "bridgeFee",
          "type": "uint256"
        }
      ],
      "name": "wrapWithdraw",
      "outputs": [],
      "stateMutability": "payable",
      "type": "function"
    },
    {
      "inputs": [],
      "name": "wrapperAddress",
      "outputs": [
        {
          "internalType": "address",
          "name": "",
          "type": "address"
        }
      ],
      "stateMutability": "view",
      "type": "function"
    },
    {
      "stateMutability": "payable",
      "type": "receive"
    }
  ],
  "transactionHash": "0x36ac7db3fe67801d38a62ae3d88d39375b6fa6898f3c9c98da06587f74b7bcf0",
  "args": [],
  "numDeployments": 2,
  "solcInputHash": "139bf54c70c00687cac62d59d80aa28f",
  "bytecode": "0x608060405234801561001057600080fd5b50613fe2806100206000396000f3fe6080604052600436106103225760003560e060020a9004806384d8f01b116101af578063b87330e9116100fb578063e31be08711610099578063f700558711610073578063f700558714610965578063f862b7eb14610985578063f8b74433146109a5578063fd5d2ef3146109b857600080fd5b8063e31be087146108f8578063f33fe10f14610925578063f3ee20801461094557600080fd5b8063cea91f8f116100d5578063cea91f8f14610878578063d547741f14610898578063ded0eaef146108b8578063e1137f19146108d857600080fd5b8063b87330e91461082c578063ba8bbbe01461084c578063baeebe751461086257600080fd5b806391d148541161016857806399b5bb641161014257806399b5bb64146107b5578063a217fddf146107cb578063b06a13ef146107e0578063b6d3385e146107f657600080fd5b806391d148541461075f578063924cf6e01461077f57806396cf52271461079557600080fd5b806384d8f01b146106c1578063853890ae146106e157806386d7679e146107015780638ac1f86f146107175780638e5df9c71461072c57806391c5bc0a1461074c57600080fd5b80633928b2961161026e5780635b403c2811610227578063746b5c4211610201578063746b5c421461063d57806375b238fc146106525780637df8b802146106745780638456cb59146106ac57600080fd5b80635b403c28146105e55780635c975abb146106055780636c5dc9ad1461061d57600080fd5b80633928b296146105205780633f4ba83a1461054057806342180fb8146105555780634a1856de146105755780635119b0ef146105a55780635249a705146105c557600080fd5b806323a93b1e116102db5780632bbba847116102b55780632bbba847146104aa5780632f2ff15d146104c0578063331a891a146104e057806336568abe1461050057600080fd5b806323a93b1e14610438578063248a9ca31461045a57806326cb32b71461048a57600080fd5b806301ffc9a71461032e578063044218231461036357806309fce356146103a55780630c4ecab4146103c75780630d6680871461040257806321d3d5361461041857600080fd5b3661032957005b600080fd5b34801561033a57600080fd5b5061034e6103493660046138fd565b6109d8565b60405190151581526020015b60405180910390f35b34801561036f57600080fd5b506103977f077a1d526a4ce8a773632ab13b4fbbf1fcc954c3dab26cd27ea0e2a6750da5d781565b60405190815260200161035a565b3480156103b157600080fd5b506103c56103c03660046137ce565b610a6b565b005b3480156103d357600080fd5b5061034e6103e23660046138d8565b60e860209081526000928352604080842090915290825290205460ff1681565b34801561040e57600080fd5b5061039760d45481565b34801561042457600080fd5b506103c56104333660046135df565b610a97565b34801561044457600080fd5b5061044d610b27565b60405161035a9190613b8a565b34801561046657600080fd5b506103976104753660046138bf565b60009081526065602052604090206001015490565b34801561049657600080fd5b5061034e6104a53660046135df565b610b89565b3480156104b657600080fd5b5060ca541561034e565b3480156104cc57600080fd5b506103c56104db3660046138d8565b610bf3565b3480156104ec57600080fd5b506103c56104fb3660046138bf565b610c1e565b34801561050c57600080fd5b506103c561051b3660046138d8565b610d65565b34801561052c57600080fd5b506103c561053b3660046135df565b610df4565b34801561054c57600080fd5b506103c5610e30565b34801561056157600080fd5b506103c56105703660046138bf565b610e54565b34801561058157600080fd5b506103976105903660046138bf565b60cb6020526000908152604090206001015481565b3480156105b157600080fd5b506103c56105c0366004613a73565b610e91565b3480156105d157600080fd5b506103c56105e036600461378c565b610f7a565b3480156105f157600080fd5b506103c561060036600461399c565b611003565b34801561061157600080fd5b5060975460ff1661034e565b34801561062957600080fd5b506103976106383660046138bf565b61106f565b34801561064957600080fd5b506103c56110f8565b34801561065e57600080fd5b50610397600080516020613f8d83398151915281565b34801561068057600080fd5b5060ce5461069490600160a060020a031681565b604051600160a060020a03909116815260200161035a565b3480156106b857600080fd5b506103c56111a4565b3480156106cd57600080fd5b506103c56106dc36600461382e565b6111c5565b3480156106ed57600080fd5b506103c56106fc3660046135fc565b611286565b34801561070d57600080fd5b5061039760d75481565b34801561072357600080fd5b506103c56112ce565b34801561073857600080fd5b506103c56107473660046135df565b611426565b6103c561075a3660046136c9565b611467565b34801561076b57600080fd5b5061034e61077a3660046138d8565b611797565b34801561078b57600080fd5b5061039760d25481565b3480156107a157600080fd5b506103c56107b03660046138bf565b6117c2565b3480156107c157600080fd5b5061039760d55481565b3480156107d757600080fd5b50610397600081565b3480156107ec57600080fd5b5061039760e75481565b34801561080257600080fd5b506106946108113660046135df565b60cd60205260009081526040902054600160a060020a031681565b34801561083857600080fd5b506103c56108473660046135df565b6117e1565b34801561085857600080fd5b5061039760cc5481565b34801561086e57600080fd5b5061039760d35481565b34801561088457600080fd5b50610397610893366004613a73565b61181d565b3480156108a457600080fd5b506103c56108b33660046138d8565b611906565b3480156108c457600080fd5b5061034e6108d3366004613730565b61192c565b3480156108e457600080fd5b506106946108f33660046138bf565b61196b565b34801561090457600080fd5b506109186109133660046138bf565b611995565b60405161035a9190613d0e565b34801561093157600080fd5b5060d15461069490600160a060020a031681565b34801561095157600080fd5b506103c561096036600461393c565b611a51565b34801561097157600080fd5b506103c56109803660046138bf565b611b0f565b34801561099157600080fd5b506103c56109a03660046138bf565b611b2e565b6103c56109b3366004613635565b611d61565b3480156109c457600080fd5b506103c56109d33660046138bf565b6121c1565b60007bffffffffffffffffffffffffffffffffffffffffffffffffffffffff1982167f7965db0b000000000000000000000000000000000000000000000000000000001480610a6557507f01ffc9a7000000000000000000000000000000000000000000000000000000007bffffffffffffffffffffffffffffffffffffffffffffffffffffffff198316145b92915050565b600080516020613f8d833981519152610a8481336121e0565b610a9085858585612247565b5050505050565b6000610aa381336121e0565b60d154600160a060020a031615610b045760405160e560020a62461bcd02815260206004820152601d60248201527f736964654272696467654164647265737320616c72656164792073657400000060448201526064015b60405180910390fd5b5060d18054600160a060020a031916600160a060020a0392909216919091179055565b606060e9805480602002602001604051908101604052809291908181526020018280548015610b7f57602002820191906000526020600020905b8154600160a060020a03168152600190910190602001808311610b61575b5050505050905090565b6000805b60e954811015610bea5782600160a060020a031660e98281548110610bb457610bb4613ed8565b600091825260209091200154600160a060020a03161415610bd85750600192915050565b80610be281613e8b565b915050610b8d565b50600092915050565b600082815260656020526040902060010154610c0f81336121e0565b610c198383612368565b505050565b600080516020613f8d833981519152610c3781336121e0565b60975460ff16610c8c5760405160e560020a62461bcd02815260206004820152601460248201527f5061757361626c653a206e6f74207061757365640000000000000000000000006044820152606401610afb565b60cc54821015610d075760405160e560020a62461bcd02815260206004820152602660248201527f6576656e744964206d757374206265203e3d206f6c646573744c6f636b65644560448201527f76656e74496400000000000000000000000000000000000000000000000000006064820152608401610afb565b600082815260cb602052604090206001015415610d5357600082815260cb6020526040812090610d37828261342f565b5060006001919091015581610d4b81613e8b565b925050610d07565b610d5e600183613e31565b60d5555050565b600160a060020a0381163314610de65760405160e560020a62461bcd02815260206004820152602f60248201527f416363657373436f6e74726f6c3a2063616e206f6e6c792072656e6f756e636560448201527f20726f6c657320666f722073656c6600000000000000000000000000000000006064820152608401610afb565b610df082826123ee565b5050565b600080516020613f8d833981519152610e0d81336121e0565b5060d08054600160a060020a031916600160a060020a0392909216919091179055565b600080516020613f8d833981519152610e4981336121e0565b610e51612455565b50565b600080516020613f8d833981519152610e6d81336121e0565b8160d35460d754610e7e9190613e12565b610e889190613ded565b60d7555060d355565b60975460ff1615610eb75760405160e560020a62461bcd028152600401610afb90613c7a565b60d554610ec5906001613dd5565b8314610f165760405160e560020a62461bcd02815260206004820152601460248201527f4576656e744964206f7574206f66206f726465720000000000000000000000006044820152606401610afb565b6000610f238484846124f4565b90508015610f745760d560008154610f3a90613e8b565b9091555060405184907f196c47048e38df7a4fe6e581c8f4f2e2ba67ac0dd45b90da756e97bd61d9dd3b90600090a2610f7483838661269f565b50505050565b600080516020613f8d833981519152610f9381336121e0565b8160005b81811015610a905760cd6000868684818110610fb557610fb5613ed8565b9050602002016020810190610fca91906135df565b600160a060020a0316815260208101919091526040016000208054600160a060020a031916905580610ffb81613e8b565b915050610f97565b3330146110555760405160e560020a62461bcd02815260206004820152601c60248201527f54686973206d6574686f642072657175697265206d756c7469736967000000006044820152606401610afb565b80516110689060e9906020840190613450565b505060e755565b60008060005b60e9548110156110f157600084815260e86020526040812060e98054919291849081106110a4576110a4613ed8565b6000918252602080832090910154600160a060020a0316835282019290925260400190205460ff16156110df57816110db81613e8b565b9250505b806110e981613e8b565b915050611075565b5092915050565b60ca5461114a5760405160e560020a62461bcd02815260206004820152600e60248201527f517565756520697320656d7074790000000000000000000000000000000000006044820152606401610afb565b60d6805490600061115a83613e8b565b919050557fe15729a2f427aa4572dab35eb692c902fcbce57d41642013259c741380809ae260ca60405161118e9190613bd7565b60405180910390a26111a260ca600061342f565b565b600080516020613f8d8339815191526111bd81336121e0565b610e5161272d565b3330146112175760405160e560020a62461bcd02815260206004820152601c60248201527f54686973206d6574686f642072657175697265206d756c7469736967000000006044820152606401610afb565b610a9085858080602002602001604051908101604052809392919081815260200183836020028082843760009201919091525050604080516020808902828101820190935288825290935088925087918291850190849080828437600092019190915250869250612788915050565b600080516020613f8d83398151915261129f81336121e0565b50600160a060020a03918216600090815260cd602052604090208054600160a060020a03191691909216179055565b60975460ff16156112f45760405160e560020a62461bcd028152600401610afb90613c7a565b60cc545b600081815260cb60209081526040808320815181546060948102820185018452928101838152909391928492849190879085015b8282101561138657600084815260209081902060408051606081018252600386029092018054600160a060020a0390811684526001808301549091168486015260029091015491830191909152908352909201910161132c565b50505050815260200160018201548152505090508060200151600014806113b05750428160200151115b156113bb575060cc55565b80516113c690612850565b600082815260cb60205260408120906113df828261342f565b50600060019190910181905560405183917f78ff9b3176bb0d6421590f3816e75cb15a9ffa2b7a1a028f40a3f4e029eb39f291a2508061141e81613e8b565b9150506112f8565b600080516020613f8d83398151915261143f81336121e0565b50600160a060020a0316600090815260cd602052604090208054600160a060020a0319169055565b60ce54600160a060020a03908116600090815260cd602052604090205416806114d55760405160e560020a62461bcd02815260206004820152601560248201527f556e6b6e6f776e20746f6b656e206164647265737300000000000000000000006044820152606401610afb565b6114df8284613dd5565b34116115305760405160e560020a62461bcd02815260206004820152601160248201527f53656e742076616c7565203c3d206665650000000000000000000000000000006044820152606401610afb565b60008261153d8534613e31565b6115479190613e31565b60ce5490915061156490600160a060020a03168787878786612ae4565b60cf54604051600160a060020a039091169085156108fc029086906000818181858888f1935050505015801561159e573d6000803e3d6000fd5b5060d054604051600160a060020a039091169084156108fc029085906000818181858888f193505050501580156115d9573d6000803e3d6000fd5b5060ce60009054906101000a9004600160a060020a0316600160a060020a031663d0e30db0826040518263ffffffff1660e060020a0281526004016000604051808303818588803b15801561162d57600080fd5b505af1158015611641573d6000803e3d6000fd5b505060408051606081018252600160a060020a0380881682528c81166020830190815282840188815260ca80546001810182556000918252945160039095027f42d72674974f694b5f5159593243114d38a5c39c89d6b62fee061ff523240ee181018054968616600160a060020a031997881617905592517f42d72674974f694b5f5159593243114d38a5c39c89d6b62fee061ff523240ee2840180549190951695169490941790925590517f42d72674974f694b5f5159593243114d38a5c39c89d6b62fee061ff523240ee39091015560d65491513395507f3b823d3b837159352faddd1e0b9e9f584ca2bfe976238f6a9e6da4615cf2f444945061177e9350879087908b908b90958652600160a060020a0394851660208701529290931660408501526060840152608083019190915260a082015260c00190565b60405180910390a261178e612c8a565b50505050505050565b6000918252606560209081526040808420600160a060020a0393909316845291905290205460ff1690565b600080516020613f8d8339815191526117db81336121e0565b5060d455565b600080516020613f8d8339815191526117fa81336121e0565b5060cf8054600160a060020a031916600160a060020a0392909216919091179055565b6000808460405160200161183391815260200190565b604051602081830303815290604052905060005b838110156118f5578185858381811061186257611862613ed8565b9050606002016040013586868481811061187e5761187e613ed8565b905060600201602001602081019061189691906135df565b8787858181106118a8576118a8613ed8565b6118be92602060609092020190810191506135df565b6040516020016118d19493929190613abf565b604051602081830303815290604052915080806118ed90613e8b565b915050611847565b508051602090910120949350505050565b60008281526065602052604090206001015461192281336121e0565b610c1983836123ee565b60008061193a85858561181d565b600090815260e860209081526040808320600160a060020a038a16845290915290205460ff16915050949350505050565b60e9818154811061197b57600080fd5b600091825260209091200154600160a060020a0316905081565b604080518082019091526060815260006020820152600082815260cb60209081526040808320815181546060948102820185018452928101838152909491938593919285929185015b82821015611a3857600084815260209081902060408051606081018252600386029092018054600160a060020a039081168452600180830154909116848601526002909101549183019190915290835290920191016119de565b5050505081526020016001820154815250509050919050565b600054610100900460ff1680611a6a575060005460ff16155b611a895760405160e560020a62461bcd028152600401610afb90613cb1565b600054610100900460ff16158015611aab576000805461ffff19166101011790555b611ab485612d02565b6040805160008152602084810280830184018452908201858152611af7939091879187918291860190849080828437600092019190915250899250612788915050565b8015610a90576000805461ff00191690555050505050565b600080516020613f8d833981519152611b2881336121e0565b5060c955565b60975460ff1615611b545760405160e560020a62461bcd028152600401610afb90613c7a565b60cc548114611ba85760405160e560020a62461bcd02815260206004820152601c60248201527f63616e20756e6c6f636b206f6e6c79206f6c64657374206576656e74000000006044820152606401610afb565b600081815260cb60209081526040808320815181546060948102820185018452928101838152909391928492849190879085015b82821015611c3657600084815260209081902060408051606081018252600386029092018054600160a060020a03908116845260018083015490911684860152600290910154918301919091529083529092019101611bdc565b50505050815260200160018201548152505090506000816020015111611ca15760405160e560020a62461bcd02815260206004820181905260248201527f6e6f206c6f636b6564207472616e7366657273207769746820746869732069646044820152606401610afb565b42816020015110611cf75760405160e560020a62461bcd02815260206004820152601b60248201527f6c6f636b54696d6520686173206e6f74207965742070617373656400000000006044820152606401610afb565b8051611d0290612850565b600082815260cb6020526040812090611d1b828261342f565b50600060019190910181905560405183917f78ff9b3176bb0d6421590f3816e75cb15a9ffa2b7a1a028f40a3f4e029eb39f291a2611d5a826001613dd5565b60cc555050565b60008515611df6576000805260cd6020527fcd565b10a72538d86f6d352f37ebc5dff31587960b12c0afe00fd03947a6932a54600160a060020a038a8116911614611df15760405160e560020a62461bcd02815260206004820152601f60248201527f546f6b656e206e6f7420706f696e7420746f206e617469766520746f6b656e006044820152606401610afb565b611e62565b50600160a060020a03808916600090815260cd60205260409020541680611e625760405160e560020a62461bcd02815260206004820152601560248201527f556e6b6e6f776e20746f6b656e206164647265737300000000000000000000006044820152606401610afb565b611e6c8284613dd5565b3414611ebd5760405160e560020a62461bcd02815260206004820152601160248201527f53656e742076616c756520213d206665650000000000000000000000000000006044820152606401610afb565b60008711611f105760405160e560020a62461bcd02815260206004820152601160248201527f43616e6e6f7420776974686472617720300000000000000000000000000000006044820152606401610afb565b611f1e89868686868c612ae4565b60cf54604051600160a060020a039091169084156108fc029085906000818181858888f19350505050158015611f58573d6000803e3d6000fd5b5060d054604051600160a060020a039091169083156108fc029084906000818181858888f19350505050158015611f93573d6000803e3d6000fd5b506040517f23b872dd00000000000000000000000000000000000000000000000000000000815233600482015230602482015260448101889052600160a060020a038a16906323b872dd90606401602060405180830381600087803b158015611ffb57600080fd5b505af115801561200f573d6000803e3d6000fd5b505050506040513d601f19601f8201168201806040525081019061203391906138a2565b6120825760405160e560020a62461bcd02815260206004820152601360248201527f4661696c207472616e7366657220636f696e73000000000000000000000000006044820152606401610afb565b6040805160608082018352600160a060020a038481168084528c821660208086019182528587018e815260ca8054600181018255600091909152965160039097027f42d72674974f694b5f5159593243114d38a5c39c89d6b62fee061ff523240ee181018054988716600160a060020a0319998a1617905592517f42d72674974f694b5f5159593243114d38a5c39c89d6b62fee061ff523240ee284018054918716919098161790965594517f42d72674974f694b5f5159593243114d38a5c39c89d6b62fee061ff523240ee39091015560d6548551908152918e16938201939093529283019190915281018890526080810184905260a0810183905233907f3b823d3b837159352faddd1e0b9e9f584ca2bfe976238f6a9e6da4615cf2f4449060c00160405180910390a26121b6612c8a565b505050505050505050565b600080516020613f8d8339815191526121da81336121e0565b5060d255565b6121ea8282611797565b610df05761220281600160a060020a03166014612ef0565b61220d836020612ef0565b60405160200161221e929190613b09565b60408051601f198184030181529082905260e560020a62461bcd028252610afb91600401613c47565b8281146122bf5760405160e560020a62461bcd02815260206004820152603f60248201527f73697a6573206f6620746f6b656e5468697341646472657373657320616e642060448201527f746f6b656e53696465416464726573736573206d7573742062652073616d65006064820152608401610afb565b8260005b81811015612360578383828181106122dd576122dd613ed8565b90506020020160208101906122f291906135df565b60cd600088888581811061230857612308613ed8565b905060200201602081019061231d91906135df565b600160a060020a03908116825260208201929092526040016000208054600160a060020a031916929091169190911790558061235881613e8b565b9150506122c3565b505050505050565b6123728282611797565b610df0576000828152606560209081526040808320600160a060020a03851684529091529020805460ff191660011790556123aa3390565b600160a060020a031681600160a060020a0316837f2f8788117e7eff1d82e926ec794901d17c78024a50270940304540a733656f0d60405160405180910390a45050565b6123f88282611797565b15610df0576000828152606560209081526040808320600160a060020a0385168085529252808320805460ff1916905551339285917ff6391f5c32d9c69d2a47ea670b442974b53935d1edc7fd64eb21e047a839171b9190a45050565b60975460ff166124aa5760405160e560020a62461bcd02815260206004820152601460248201527f5061757361626c653a206e6f74207061757365640000000000000000000000006044820152606401610afb565b6097805460ff191690557f5db9ee0a495bf2e6ff9c91a7834c1ba4fdd244a5e8aa4e537bd38aeae4b073aa335b604051600160a060020a03909116815260200160405180910390a1565b60006124ff33610b89565b61254e5760405160e560020a62461bcd02815260206004820152601a60248201527f596f75206e6f7420696e2072656c61792077686974656c6973740000000000006044820152606401610afb565b600061255b85858561181d565b600081815260e86020908152604080832033845290915290205490915060ff16156125cb5760405160e560020a62461bcd02815260206004820152601f60248201527f596f75206861766520616c726561647920636f6e6669726d65642074686973006044820152606401610afb565b60006125d68261106f565b905060e754811061262c5760405160e560020a62461bcd02815260206004820152601160248201527f416c726561647920636f6e6669726d65640000000000000000000000000000006044820152606401610afb565b600082815260e8602090815260408083203380855290835292819020805460ff19166001179055518481528892917f641616eb9b807704f05e9dd7d1af6dad1fb246a364799f84895e21b368a9565b910160405180910390a360e754612693826001613dd5565b10159695505050505050565b60d4546126ac9042613dd5565b600082815260cb60205260408120600101919091555b82811015610f7457600082815260cb602052604090208484838181106126ea576126ea613ed8565b8354600181018555600094855260209094206060909102929092019260030290910190506127188282613f0a565b5050808061272590613e8b565b9150506126c2565b60975460ff16156127535760405160e560020a62461bcd028152600401610afb90613c7a565b6097805460ff191660011790557f62e78cea01bee320cd4e420270b5ea74000d11b0c9f74754ebdbfc544b05a2586124d73390565b60005b83518110156127c8576127b68482815181106127a9576127a9613ed8565b6020026020010151613141565b806127c081613e8b565b91505061278b565b5060005b8251811015612809576127f78382815181106127ea576127ea613ed8565b60200260200101516132c9565b8061280181613e8b565b9150506127cc565b508060e75414610c195760e78190556040518181527f6d209fce46041fa384c715150b59ebd0bf9e74509fc58c21b73b490f4ff2bbec9060200160405180910390a1505050565b60005b8151811015610df0576000600160a060020a031682828151811061287957612879613ed8565b602002602001015160000151600160a060020a031614156129955760ce548251600160a060020a0390911690632e1a7d4d908490849081106128bd576128bd613ed8565b6020026020010151604001516040518263ffffffff1660e060020a0281526004016128ea91815260200190565b600060405180830381600087803b15801561290457600080fd5b505af1158015612918573d6000803e3d6000fd5b5050505081818151811061292e5761292e613ed8565b602002602001015160200151600160a060020a03166108fc83838151811061295857612958613ed8565b6020026020010151604001519081150290604051600060405180830381858888f1935050505015801561298f573d6000803e3d6000fd5b50612ad2565b8181815181106129a7576129a7613ed8565b602002602001015160000151600160a060020a031663a9059cbb8383815181106129d3576129d3613ed8565b6020026020010151602001518484815181106129f1576129f1613ed8565b6020026020010151604001516040518363ffffffff1660e060020a028152600401612a31929190600160a060020a03929092168252602082015260400190565b602060405180830381600087803b158015612a4b57600080fd5b505af1158015612a5f573d6000803e3d6000fd5b505050506040513d601f19601f82011682018060405250810190612a8391906138a2565b612ad25760405160e560020a62461bcd02815260206004820152601360248201527f4661696c207472616e7366657220636f696e73000000000000000000000000006044820152606401610afb565b80612adc81613e8b565b915050612853565b60008080612af461070842613ded565b905060005b60c954811015612c3e576040516c01000000000000000000000000600160a060020a038c160260208201526034810183905260548101889052607481018790526094810186905260b40160408051601f198184030181529082905280516020918201207f19457468657265756d205369676e6564204d6573736167653a0a33320000000091830191909152603c820152605c01604051602081830303815290604052805190602001209350612be4848a8a8080601f01602080910402602001604051908101604052809392919081815260200183838082843760009201919091525061339a92505050565b9250612c107f077a1d526a4ce8a773632ab13b4fbbf1fcc954c3dab26cd27ea0e2a6750da5d784611797565b15612c1e5750505050612360565b81612c2881613e74565b9250508080612c3690613e8b565b915050612af9565b5060405160e560020a62461bcd02815260206004820152601660248201527f5369676e617475726520636865636b206661696c6564000000000000000000006044820152606401610afb565b600060d35442612c9a9190613ded565b905060d7548114610e515760d68054906000612cb583613e8b565b919050557fe15729a2f427aa4572dab35eb692c902fcbce57d41642013259c741380809ae260ca604051612ce99190613bd7565b60405180910390a2612cfd60ca600061342f565b60d755565b600054610100900460ff1680612d1b575060005460ff16155b612d3a5760405160e560020a62461bcd028152600401610afb90613cb1565b600054610100900460ff16158015612d5c576000805461ffff19166101011790555b612d67600033613425565b612da07f077a1d526a4ce8a773632ab13b4fbbf1fcc954c3dab26cd27ea0e2a6750da5d7612d9b60608501604086016135df565b613425565b612dc2600080516020613f8d833981519152612d9b60408501602086016135df565b612de4612dd26080840184613d8c565b612ddf60a0860186613d8c565b612247565b612df460808301606084016135df565b60ce8054600160a060020a031916600160a060020a0392909216919091179055612e2160208301836135df565b60d18054600160a060020a031916600160a060020a0392909216919091179055612e5160e0830160c084016135df565b60cf8054600160a060020a031916600160a060020a0392909216919091179055612e82610100830160e084016135df565b60d08054600160a060020a031916600160a060020a039290921691909117905561014082013560d25561010082013560d381905561012083013560d455600160cc81905560d655600360c955612ed89042613ded565b60d7558015610df0576000805461ff00191690555050565b60606000612eff836002613e12565b612f0a906002613dd5565b67ffffffffffffffff811115612f2257612f22613ef1565b6040519080825280601f01601f191660200182016040528015612f4c576020820181803683370190505b5090507f300000000000000000000000000000000000000000000000000000000000000081600081518110612f8357612f83613ed8565b60200101907effffffffffffffffffffffffffffffffffffffffffffffffffffffffffffff1916908160001a9053507f780000000000000000000000000000000000000000000000000000000000000081600181518110612fe657612fe6613ed8565b60200101907effffffffffffffffffffffffffffffffffffffffffffffffffffffffffffff1916908160001a9053506000613022846002613e12565b61302d906001613dd5565b90505b60018111156130e8577f303132333435363738396162636465660000000000000000000000000000000085600f166010811061306e5761306e613ed8565b1a7f0100000000000000000000000000000000000000000000000000000000000000028282815181106130a3576130a3613ed8565b60200101907effffffffffffffffffffffffffffffffffffffffffffffffffffffffffffff1916908160001a9053506010909404936130e181613e74565b9050613030565b50831561313a5760405160e560020a62461bcd02815260206004820181905260248201527f537472696e67733a20686578206c656e67746820696e73756666696369656e746044820152606401610afb565b9392505050565b60005b60e95481101561327d5781600160a060020a031660e9828154811061316b5761316b613ed8565b600091825260209091200154600160a060020a0316141561326b5760e9805461319690600190613e31565b815481106131a6576131a6613ed8565b60009182526020909120015460e98054600160a060020a0390921691839081106131d2576131d2613ed8565b9060005260206000200160006101000a815481600160a060020a030219169083600160a060020a0316021790555060e980548061321157613211613ebf565b60008281526020812082016000199081018054600160a060020a0319169055909101909155604051600160a060020a038416917f709f812fac579d78683917073998a39146cfb3fa691a5710de2bddca713b3a6091a25050565b8061327581613e8b565b915050613144565b5060405160e560020a62461bcd02815260206004820152600b60248201527f4e6f7420612072656c61790000000000000000000000000000000000000000006044820152606401610afb565b6132d281610b89565b156133225760405160e560020a62461bcd02815260206004820152600d60248201527f416c72656164792072656c6179000000000000000000000000000000000000006044820152606401610afb565b60e9805460018101825560009182527fea6426b4b8d70caa8ece9a88fb0a9d4a6b817bb4a43ac6fbef64cb0e589129ee018054600160a060020a031916600160a060020a03841690811790915560405190917f7b73cb1bdb35a4aa024a40092050eb3e988b8591cc448e46634cf380f8f1255d91a250565b6020810151604082015160608301516000929190831a601b8110156133bd57601b015b60408051600081526020810180835288905260ff831691810191909152606081018490526080810183905260019060a0016020604051602081039080840390855afa158015613410573d6000803e3d6000fd5b5050604051601f190151979650505050505050565b610df08282612368565b5080546000825560030290600052602060002090810190610e5191906134b5565b8280548282559060005260206000209081019282156134a5579160200282015b828111156134a55782518254600160a060020a031916600160a060020a03909116178255602090920191600190910190613470565b506134b19291506134e8565b5090565b5b808211156134b1578054600160a060020a031990811682556001820180549091169055600060028201556003016134b6565b5b808211156134b157600081556001016134e9565b803561350881613f69565b919050565b60008083601f84011261351f57600080fd5b50813567ffffffffffffffff81111561353757600080fd5b602083019150836020808302850101111561355157600080fd5b9250929050565b60008083601f84011261356a57600080fd5b50813567ffffffffffffffff81111561358257600080fd5b60208301915083602060608302850101111561355157600080fd5b60008083601f8401126135af57600080fd5b50813567ffffffffffffffff8111156135c757600080fd5b60208301915083602082850101111561355157600080fd5b6000602082840312156135f157600080fd5b813561313a81613f69565b6000806040838503121561360f57600080fd5b823561361a81613f69565b9150602083013561362a81613f69565b809150509250929050565b60008060008060008060008060e0898b03121561365157600080fd5b883561365c81613f69565b9750602089013561366c81613f69565b965060408901359550606089013561368381613f7e565b9450608089013567ffffffffffffffff81111561369f57600080fd5b6136ab8b828c0161359d565b999c989b5096999598969760a08701359660c0013595509350505050565b6000806000806000608086880312156136e157600080fd5b85356136ec81613f69565b9450602086013567ffffffffffffffff81111561370857600080fd5b6137148882890161359d565b9699909850959660408101359660609091013595509350505050565b6000806000806060858703121561374657600080fd5b843561375181613f69565b935060208501359250604085013567ffffffffffffffff81111561377457600080fd5b61378087828801613558565b95989497509550505050565b6000806020838503121561379f57600080fd5b823567ffffffffffffffff8111156137b657600080fd5b6137c28582860161350d565b90969095509350505050565b600080600080604085870312156137e457600080fd5b843567ffffffffffffffff808211156137fc57600080fd5b6138088883890161350d565b9096509450602087013591508082111561382157600080fd5b506137808782880161350d565b60008060008060006060868803121561384657600080fd5b853567ffffffffffffffff8082111561385e57600080fd5b61386a89838a0161350d565b9097509550602088013591508082111561388357600080fd5b506138908882890161350d565b96999598509660400135949350505050565b6000602082840312156138b457600080fd5b815161313a81613f7e565b6000602082840312156138d157600080fd5b5035919050565b600080604083850312156138eb57600080fd5b82359150602083013561362a81613f69565b60006020828403121561390f57600080fd5b81357bffffffffffffffffffffffffffffffffffffffffffffffffffffffff198116811461313a57600080fd5b6000806000806060858703121561395257600080fd5b843567ffffffffffffffff8082111561396a57600080fd5b90860190610160828903121561397f57600080fd5b909450602086013593506040860135908082111561382157600080fd5b600080604083850312156139af57600080fd5b8235915060208084013567ffffffffffffffff808211156139cf57600080fd5b818601915086601f8301126139e357600080fd5b8135818111156139f5576139f5613ef1565b838102604051601f19603f83011681018181108582111715613a1957613a19613ef1565b604052828152858101935084860182860187018b1015613a3857600080fd5b600095505b83861015613a6257613a4e816134fd565b855260019590950194938601938601613a3d565b508096505050505050509250929050565b600080600060408486031215613a8857600080fd5b83359250602084013567ffffffffffffffff811115613aa657600080fd5b613ab286828701613558565b9497909650939450505050565b60008551613ad1818460208a01613e48565b91909101938452506c01000000000000000000000000600160a060020a03928316810260208501529116026034820152604801919050565b7f416363657373436f6e74726f6c3a206163636f756e7420000000000000000000815260008351613b41816017850160208801613e48565b7f206973206d697373696e6720726f6c65200000000000000000000000000000006017918401918201528351613b7e816028840160208801613e48565b01602801949350505050565b6020808252825182820181905260009190848201906040850190845b81811015613bcb578351600160a060020a031683529284019291840191600101613ba6565b50909695505050505050565b60006020808301818452808554808352604092508286019150866000528360002060005b82811015613c3a578154600160a060020a0390811685526001808401549091168786015260028301548686015260609094019360039092019101613bfb565b5091979650505050505050565b6020815260008251806020840152613c66816040850160208701613e48565b601f01601f19169190910160400192915050565b60208082526010908201527f5061757361626c653a2070617573656400000000000000000000000000000000604082015260600190565b6020808252602e908201527f496e697469616c697a61626c653a20636f6e747261637420697320616c72656160408201527f647920696e697469616c697a6564000000000000000000000000000000000000606082015260800190565b6000602080835260608084018551604080858801528282518085526080890191508684019450600093505b80841015613d765784518051600160a060020a03908116845288820151168884015283015183830152938601936001939093019290850190613d39565b5094909701519590960194909452509392505050565b6000808335601e19843603018112613da357600080fd5b83018035915067ffffffffffffffff821115613dbe57600080fd5b602090810192508102360382131561355157600080fd5b60008219821115613de857613de8613ea6565b500190565b600082613e0d5760e060020a634e487b7102600052601260045260246000fd5b500490565b6000816000190483118215151615613e2c57613e2c613ea6565b500290565b600082821015613e4357613e43613ea6565b500390565b60005b83811015613e63578181015183820152602001613e4b565b83811115610f745750506000910152565b600081613e8357613e83613ea6565b506000190190565b6000600019821415613e9f57613e9f613ea6565b5060010190565b60e060020a634e487b7102600052601160045260246000fd5b60e060020a634e487b7102600052603160045260246000fd5b60e060020a634e487b7102600052603260045260246000fd5b60e060020a634e487b7102600052604160045260246000fd5b8135613f1581613f69565b8154600160a060020a031916600160a060020a038216178255506020820135613f3d81613f69565b600182018054600160a060020a031916600160a060020a03831617905550604082013560028201555050565b600160a060020a0381168114610e5157600080fd5b8015158114610e5157600080fdfea49807205ce4d355092ef5a8a18f56e8913cf4a201fbe287825b095693c21775a264697066735822122093c63a249fdb7da6347c53e62b671d3523dfcb644a0f3c150d73eaf807ac473464736f6c63430008060033",
  "devdoc": {
    "kind": "dev",
    "methods": {
      "getRoleAdmin(bytes32)": {
        "details": "Returns the admin role that controls `role`. See {grantRole} and {revokeRole}. To change a role's admin, use {_setRoleAdmin}."
      },
      "grantRole(bytes32,address)": {
        "details": "Grants `role` to `account`. If `account` had not been already granted `role`, emits a {RoleGranted} event. Requirements: - the caller must have ``role``'s admin role."
      },
      "hasRole(bytes32,address)": {
        "details": "Returns `true` if `account` has been granted `role`."
      },
      "paused()": {
        "details": "Returns true if the contract is paused, and false otherwise."
      },
      "renounceRole(bytes32,address)": {
        "details": "Revokes `role` from the calling account. Roles are often managed via {grantRole} and {revokeRole}: this function's purpose is to provide a mechanism for accounts to lose their privileges if they are compromised (such as when a trusted device is misplaced). If the calling account had been granted `role`, emits a {RoleRevoked} event. Requirements: - the caller must be `account`."
      },
      "revokeRole(bytes32,address)": {
        "details": "Revokes `role` from `account`. If `account` had been granted `role`, emits a {RoleRevoked} event. Requirements: - the caller must have ``role``'s admin role."
      },
      "supportsInterface(bytes4)": {
        "details": "See {IERC165-supportsInterface}."
      },
      "withdraw(address,address,uint256,bool,bytes,uint256,uint256)": {
        "params": {
          "bridgeFee": "Amount (in native coins), payed as bridge earnings",
          "feeSignature": "Signature signed by relay that confirms that the fee values are valid",
          "transferFee": "Amount (in native coins), payed to compensate gas fees in side network"
        }
      },
      "wrapWithdraw(address,bytes,uint256,uint256)": {
        "params": {
          "bridgeFee": "Amount (in native coins), payed as bridge earnings",
          "feeSignature": "Signature signed by relay that confirms that the fee values are valid",
          "toAddress": "Address in side network that will receive the tokens",
          "transferFee": "Amount (in native coins), payed to compensate gas fees in side network"
        }
      }
    },
    "version": 1
  },
  "userdoc": {
    "kind": "user",
    "methods": {},
    "version": 1
  },
  "storageLayout": {
    "storage": [
      {
        "astId": 413,
        "contract": "contracts/networks/ETH_AmbBridge.sol:ETH_AmbBridge",
        "label": "_initialized",
        "offset": 0,
        "slot": "0",
        "type": "t_bool"
      },
      {
        "astId": 416,
        "contract": "contracts/networks/ETH_AmbBridge.sol:ETH_AmbBridge",
        "label": "_initializing",
        "offset": 1,
        "slot": "0",
        "type": "t_bool"
      },
      {
        "astId": 609,
        "contract": "contracts/networks/ETH_AmbBridge.sol:ETH_AmbBridge",
        "label": "__gap",
        "offset": 0,
        "slot": "1",
        "type": "t_array(t_uint256)50_storage"
      },
      {
        "astId": 858,
        "contract": "contracts/networks/ETH_AmbBridge.sol:ETH_AmbBridge",
        "label": "__gap",
        "offset": 0,
        "slot": "51",
        "type": "t_array(t_uint256)50_storage"
      },
      {
        "astId": 48,
        "contract": "contracts/networks/ETH_AmbBridge.sol:ETH_AmbBridge",
        "label": "_roles",
        "offset": 0,
        "slot": "101",
        "type": "t_mapping(t_bytes32,t_struct(RoleData)43_storage)"
      },
      {
        "astId": 333,
        "contract": "contracts/networks/ETH_AmbBridge.sol:ETH_AmbBridge",
        "label": "__gap",
        "offset": 0,
        "slot": "102",
        "type": "t_array(t_uint256)49_storage"
      },
      {
        "astId": 474,
        "contract": "contracts/networks/ETH_AmbBridge.sol:ETH_AmbBridge",
        "label": "_paused",
        "offset": 0,
        "slot": "151",
        "type": "t_bool"
      },
      {
        "astId": 565,
        "contract": "contracts/networks/ETH_AmbBridge.sol:ETH_AmbBridge",
        "label": "__gap",
        "offset": 0,
        "slot": "152",
        "type": "t_array(t_uint256)49_storage"
      },
      {
        "astId": 7223,
        "contract": "contracts/networks/ETH_AmbBridge.sol:ETH_AmbBridge",
        "label": "signatureFeeCheckNumber",
        "offset": 0,
        "slot": "201",
        "type": "t_uint256"
      },
      {
        "astId": 7227,
        "contract": "contracts/networks/ETH_AmbBridge.sol:ETH_AmbBridge",
        "label": "queue",
        "offset": 0,
        "slot": "202",
        "type": "t_array(t_struct(Transfer)8305_storage)dyn_storage"
      },
      {
        "astId": 7232,
        "contract": "contracts/networks/ETH_AmbBridge.sol:ETH_AmbBridge",
        "label": "lockedTransfers",
        "offset": 0,
        "slot": "203",
        "type": "t_mapping(t_uint256,t_struct(LockedTransfers)8322_storage)"
      },
      {
        "astId": 7234,
        "contract": "contracts/networks/ETH_AmbBridge.sol:ETH_AmbBridge",
        "label": "oldestLockedEventId",
        "offset": 0,
        "slot": "204",
        "type": "t_uint256"
      },
      {
        "astId": 7238,
        "contract": "contracts/networks/ETH_AmbBridge.sol:ETH_AmbBridge",
        "label": "tokenAddresses",
        "offset": 0,
        "slot": "205",
        "type": "t_mapping(t_address,t_address)"
      },
      {
        "astId": 7240,
        "contract": "contracts/networks/ETH_AmbBridge.sol:ETH_AmbBridge",
        "label": "wrapperAddress",
        "offset": 0,
        "slot": "206",
        "type": "t_address"
      },
      {
        "astId": 7242,
        "contract": "contracts/networks/ETH_AmbBridge.sol:ETH_AmbBridge",
        "label": "transferFeeRecipient",
        "offset": 0,
        "slot": "207",
        "type": "t_address_payable"
      },
      {
        "astId": 7244,
        "contract": "contracts/networks/ETH_AmbBridge.sol:ETH_AmbBridge",
        "label": "bridgeFeeRecipient",
        "offset": 0,
        "slot": "208",
        "type": "t_address_payable"
      },
      {
        "astId": 7246,
        "contract": "contracts/networks/ETH_AmbBridge.sol:ETH_AmbBridge",
        "label": "sideBridgeAddress",
        "offset": 0,
        "slot": "209",
        "type": "t_address"
      },
      {
        "astId": 7248,
        "contract": "contracts/networks/ETH_AmbBridge.sol:ETH_AmbBridge",
        "label": "minSafetyBlocks",
        "offset": 0,
        "slot": "210",
        "type": "t_uint256"
      },
      {
        "astId": 7250,
        "contract": "contracts/networks/ETH_AmbBridge.sol:ETH_AmbBridge",
        "label": "timeframeSeconds",
        "offset": 0,
        "slot": "211",
        "type": "t_uint256"
      },
      {
        "astId": 7252,
        "contract": "contracts/networks/ETH_AmbBridge.sol:ETH_AmbBridge",
        "label": "lockTime",
        "offset": 0,
        "slot": "212",
        "type": "t_uint256"
      },
      {
        "astId": 7254,
        "contract": "contracts/networks/ETH_AmbBridge.sol:ETH_AmbBridge",
        "label": "inputEventId",
        "offset": 0,
        "slot": "213",
        "type": "t_uint256"
      },
      {
        "astId": 7256,
        "contract": "contracts/networks/ETH_AmbBridge.sol:ETH_AmbBridge",
        "label": "outputEventId",
        "offset": 0,
        "slot": "214",
        "type": "t_uint256"
      },
      {
        "astId": 7258,
        "contract": "contracts/networks/ETH_AmbBridge.sol:ETH_AmbBridge",
        "label": "lastTimeframe",
        "offset": 0,
        "slot": "215",
        "type": "t_uint256"
      },
      {
        "astId": 8295,
        "contract": "contracts/networks/ETH_AmbBridge.sol:ETH_AmbBridge",
        "label": "__gap",
        "offset": 0,
        "slot": "216",
        "type": "t_array(t_uint256)15_storage"
      },
      {
        "astId": 6764,
        "contract": "contracts/networks/ETH_AmbBridge.sol:ETH_AmbBridge",
        "label": "confirmationsThreshold",
        "offset": 0,
        "slot": "231",
        "type": "t_uint256"
      },
      {
        "astId": 6770,
        "contract": "contracts/networks/ETH_AmbBridge.sol:ETH_AmbBridge",
        "label": "confirmations",
        "offset": 0,
        "slot": "232",
        "type": "t_mapping(t_bytes32,t_mapping(t_address,t_bool))"
      },
      {
        "astId": 6773,
        "contract": "contracts/networks/ETH_AmbBridge.sol:ETH_AmbBridge",
        "label": "relays",
        "offset": 0,
        "slot": "233",
        "type": "t_array(t_address)dyn_storage"
      },
      {
        "astId": 7163,
        "contract": "contracts/networks/ETH_AmbBridge.sol:ETH_AmbBridge",
        "label": "___gap",
        "offset": 0,
        "slot": "234",
        "type": "t_array(t_uint256)15_storage"
      }
    ],
    "types": {
      "t_address": {
        "encoding": "inplace",
        "label": "address",
        "numberOfBytes": "20"
      },
      "t_address_payable": {
        "encoding": "inplace",
        "label": "address payable",
        "numberOfBytes": "20"
      },
      "t_array(t_address)dyn_storage": {
        "base": "t_address",
        "encoding": "dynamic_array",
        "label": "address[]",
        "numberOfBytes": "32"
      },
      "t_array(t_struct(Transfer)8305_storage)dyn_storage": {
        "base": "t_struct(Transfer)8305_storage",
        "encoding": "dynamic_array",
        "label": "struct CommonStructs.Transfer[]",
        "numberOfBytes": "32"
      },
      "t_array(t_uint256)15_storage": {
        "base": "t_uint256",
        "encoding": "inplace",
        "label": "uint256[15]",
        "numberOfBytes": "480"
      },
      "t_array(t_uint256)49_storage": {
        "base": "t_uint256",
        "encoding": "inplace",
        "label": "uint256[49]",
        "numberOfBytes": "1568"
      },
      "t_array(t_uint256)50_storage": {
        "base": "t_uint256",
        "encoding": "inplace",
        "label": "uint256[50]",
        "numberOfBytes": "1600"
      },
      "t_bool": {
        "encoding": "inplace",
        "label": "bool",
        "numberOfBytes": "1"
      },
      "t_bytes32": {
        "encoding": "inplace",
        "label": "bytes32",
        "numberOfBytes": "32"
      },
      "t_mapping(t_address,t_address)": {
        "encoding": "mapping",
        "key": "t_address",
        "label": "mapping(address => address)",
        "numberOfBytes": "32",
        "value": "t_address"
      },
      "t_mapping(t_address,t_bool)": {
        "encoding": "mapping",
        "key": "t_address",
        "label": "mapping(address => bool)",
        "numberOfBytes": "32",
        "value": "t_bool"
      },
      "t_mapping(t_bytes32,t_mapping(t_address,t_bool))": {
        "encoding": "mapping",
        "key": "t_bytes32",
        "label": "mapping(bytes32 => mapping(address => bool))",
        "numberOfBytes": "32",
        "value": "t_mapping(t_address,t_bool)"
      },
      "t_mapping(t_bytes32,t_struct(RoleData)43_storage)": {
        "encoding": "mapping",
        "key": "t_bytes32",
        "label": "mapping(bytes32 => struct AccessControlUpgradeable.RoleData)",
        "numberOfBytes": "32",
        "value": "t_struct(RoleData)43_storage"
      },
      "t_mapping(t_uint256,t_struct(LockedTransfers)8322_storage)": {
        "encoding": "mapping",
        "key": "t_uint256",
        "label": "mapping(uint256 => struct CommonStructs.LockedTransfers)",
        "numberOfBytes": "32",
        "value": "t_struct(LockedTransfers)8322_storage"
      },
      "t_struct(LockedTransfers)8322_storage": {
        "encoding": "inplace",
        "label": "struct CommonStructs.LockedTransfers",
        "members": [
          {
            "astId": 8319,
            "contract": "contracts/networks/ETH_AmbBridge.sol:ETH_AmbBridge",
            "label": "transfers",
            "offset": 0,
            "slot": "0",
            "type": "t_array(t_struct(Transfer)8305_storage)dyn_storage"
          },
          {
            "astId": 8321,
            "contract": "contracts/networks/ETH_AmbBridge.sol:ETH_AmbBridge",
            "label": "endTimestamp",
            "offset": 0,
            "slot": "1",
            "type": "t_uint256"
          }
        ],
        "numberOfBytes": "64"
      },
      "t_struct(RoleData)43_storage": {
        "encoding": "inplace",
        "label": "struct AccessControlUpgradeable.RoleData",
        "members": [
          {
            "astId": 40,
            "contract": "contracts/networks/ETH_AmbBridge.sol:ETH_AmbBridge",
            "label": "members",
            "offset": 0,
            "slot": "0",
            "type": "t_mapping(t_address,t_bool)"
          },
          {
            "astId": 42,
            "contract": "contracts/networks/ETH_AmbBridge.sol:ETH_AmbBridge",
            "label": "adminRole",
            "offset": 0,
            "slot": "1",
            "type": "t_bytes32"
          }
        ],
        "numberOfBytes": "64"
      },
      "t_struct(Transfer)8305_storage": {
        "encoding": "inplace",
        "label": "struct CommonStructs.Transfer",
        "members": [
          {
            "astId": 8300,
            "contract": "contracts/networks/ETH_AmbBridge.sol:ETH_AmbBridge",
            "label": "tokenAddress",
            "offset": 0,
            "slot": "0",
            "type": "t_address"
          },
          {
            "astId": 8302,
            "contract": "contracts/networks/ETH_AmbBridge.sol:ETH_AmbBridge",
            "label": "toAddress",
            "offset": 0,
            "slot": "1",
            "type": "t_address"
          },
          {
            "astId": 8304,
            "contract": "contracts/networks/ETH_AmbBridge.sol:ETH_AmbBridge",
            "label": "amount",
            "offset": 0,
            "slot": "2",
            "type": "t_uint256"
          }
        ],
        "numberOfBytes": "96"
      },
      "t_uint256": {
        "encoding": "inplace",
        "label": "uint256",
        "numberOfBytes": "32"
      }
    }
  }
}