{
  "address": "0xA0C9996AF2a070c07B7c0f305660946a0C6bBf48",
  "abi": [
    {
      "anonymous": false,
      "inputs": [
        {
          "indexed": false,
          "internalType": "address",
          "name": "account",
          "type": "address"
        }
      ],
      "name": "Paused",
      "type": "event"
    },
    {
      "anonymous": false,
      "inputs": [
        {
          "indexed": true,
          "internalType": "address",
          "name": "relay",
          "type": "address"
        }
      ],
      "name": "RelayAdd",
      "type": "event"
    },
    {
      "anonymous": false,
      "inputs": [
        {
          "indexed": true,
          "internalType": "address",
          "name": "sender",
          "type": "address"
        },
        {
          "indexed": true,
          "internalType": "uint256",
          "name": "eventId",
          "type": "uint256"
        },
        {
          "indexed": false,
          "internalType": "bytes32",
          "name": "hash",
          "type": "bytes32"
        }
      ],
      "name": "RelayConfirmation",
      "type": "event"
    },
    {
      "anonymous": false,
      "inputs": [
        {
          "indexed": true,
          "internalType": "address",
          "name": "relay",
          "type": "address"
        }
      ],
      "name": "RelayRemove",
      "type": "event"
    },
    {
      "anonymous": false,
      "inputs": [
        {
          "indexed": true,
          "internalType": "bytes32",
          "name": "role",
          "type": "bytes32"
        },
        {
          "indexed": true,
          "internalType": "bytes32",
          "name": "previousAdminRole",
          "type": "bytes32"
        },
        {
          "indexed": true,
          "internalType": "bytes32",
          "name": "newAdminRole",
          "type": "bytes32"
        }
      ],
      "name": "RoleAdminChanged",
      "type": "event"
    },
    {
      "anonymous": false,
      "inputs": [
        {
          "indexed": true,
          "internalType": "bytes32",
          "name": "role",
          "type": "bytes32"
        },
        {
          "indexed": true,
          "internalType": "address",
          "name": "account",
          "type": "address"
        },
        {
          "indexed": true,
          "internalType": "address",
          "name": "sender",
          "type": "address"
        }
      ],
      "name": "RoleGranted",
      "type": "event"
    },
    {
      "anonymous": false,
      "inputs": [
        {
          "indexed": true,
          "internalType": "bytes32",
          "name": "role",
          "type": "bytes32"
        },
        {
          "indexed": true,
          "internalType": "address",
          "name": "account",
          "type": "address"
        },
        {
          "indexed": true,
          "internalType": "address",
          "name": "sender",
          "type": "address"
        }
      ],
      "name": "RoleRevoked",
      "type": "event"
    },
    {
      "anonymous": false,
      "inputs": [
        {
          "indexed": false,
          "internalType": "uint256",
          "name": "newThreshold",
          "type": "uint256"
        }
      ],
      "name": "ThresholdChange",
      "type": "event"
    },
    {
      "anonymous": false,
      "inputs": [
        {
          "indexed": true,
          "internalType": "uint256",
          "name": "eventId",
          "type": "uint256"
        },
        {
          "components": [
            {
              "internalType": "address",
              "name": "tokenAddress",
              "type": "address"
            },
            {
              "internalType": "address",
              "name": "toAddress",
              "type": "address"
            },
            {
              "internalType": "uint256",
              "name": "amount",
              "type": "uint256"
            }
          ],
          "indexed": false,
          "internalType": "struct CommonStructs.Transfer[]",
          "name": "queue",
          "type": "tuple[]"
        }
      ],
      "name": "Transfer",
      "type": "event"
    },
    {
      "anonymous": false,
      "inputs": [
        {
          "indexed": true,
          "internalType": "uint256",
          "name": "eventId",
          "type": "uint256"
        }
      ],
      "name": "TransferFinish",
      "type": "event"
    },
    {
      "anonymous": false,
      "inputs": [
        {
          "indexed": true,
          "internalType": "uint256",
          "name": "eventId",
          "type": "uint256"
        }
      ],
      "name": "TransferSubmit",
      "type": "event"
    },
    {
      "anonymous": false,
      "inputs": [
        {
          "indexed": false,
          "internalType": "address",
          "name": "account",
          "type": "address"
        }
      ],
      "name": "Unpaused",
      "type": "event"
    },
    {
      "anonymous": false,
      "inputs": [
        {
          "indexed": true,
          "internalType": "address",
          "name": "from",
          "type": "address"
        },
        {
          "indexed": false,
          "internalType": "uint256",
          "name": "eventId",
          "type": "uint256"
        },
        {
          "indexed": false,
          "internalType": "address",
          "name": "tokenFrom",
          "type": "address"
        },
        {
          "indexed": false,
          "internalType": "address",
          "name": "tokenTo",
          "type": "address"
        },
        {
          "indexed": false,
          "internalType": "uint256",
          "name": "amount",
          "type": "uint256"
        },
        {
          "indexed": false,
          "internalType": "uint256",
          "name": "transferFeeAmount",
          "type": "uint256"
        },
        {
          "indexed": false,
          "internalType": "uint256",
          "name": "bridgeFeeAmount",
          "type": "uint256"
        }
      ],
      "name": "Withdraw",
      "type": "event"
    },
    {
      "inputs": [],
      "name": "ADMIN_ROLE",
      "outputs": [
        {
          "internalType": "bytes32",
          "name": "",
          "type": "bytes32"
        }
      ],
      "stateMutability": "view",
      "type": "function"
    },
    {
      "inputs": [],
      "name": "DEFAULT_ADMIN_ROLE",
      "outputs": [
        {
          "internalType": "bytes32",
          "name": "",
          "type": "bytes32"
        }
      ],
      "stateMutability": "view",
      "type": "function"
    },
    {
      "inputs": [],
      "name": "FEE_PROVIDER_ROLE",
      "outputs": [
        {
          "internalType": "bytes32",
          "name": "",
          "type": "bytes32"
        }
      ],
      "stateMutability": "view",
      "type": "function"
    },
    {
      "inputs": [],
      "name": "RELAY_ROLE",
      "outputs": [
        {
          "internalType": "bytes32",
          "name": "",
          "type": "bytes32"
        }
      ],
      "stateMutability": "view",
      "type": "function"
    },
    {
      "inputs": [],
      "name": "WATCHDOG_ROLE",
      "outputs": [
        {
          "internalType": "bytes32",
          "name": "",
          "type": "bytes32"
        }
      ],
      "stateMutability": "view",
      "type": "function"
    },
    {
      "inputs": [],
      "name": "bridgeFeeRecipient",
      "outputs": [
        {
          "internalType": "address payable",
          "name": "",
          "type": "address"
        }
      ],
      "stateMutability": "view",
      "type": "function"
    },
    {
      "inputs": [
        {
          "internalType": "address payable",
          "name": "feeRecipient_",
          "type": "address"
        }
      ],
      "name": "changeBridgeFeeRecipient",
      "outputs": [],
      "stateMutability": "nonpayable",
      "type": "function"
    },
    {
      "inputs": [
        {
          "internalType": "uint256",
          "name": "lockTime_",
          "type": "uint256"
        }
      ],
      "name": "changeLockTime",
      "outputs": [],
      "stateMutability": "nonpayable",
      "type": "function"
    },
    {
      "inputs": [
        {
          "internalType": "uint256",
          "name": "minSafetyBlocks_",
          "type": "uint256"
        }
      ],
      "name": "changeMinSafetyBlocks",
      "outputs": [],
      "stateMutability": "nonpayable",
      "type": "function"
    },
    {
      "inputs": [
        {
          "internalType": "uint256",
          "name": "signatureFeeCheckNumber_",
          "type": "uint256"
        }
      ],
      "name": "changeSignatureFeeCheckNumber",
      "outputs": [],
      "stateMutability": "nonpayable",
      "type": "function"
    },
    {
      "inputs": [
        {
          "internalType": "uint256",
          "name": "timeframeSeconds_",
          "type": "uint256"
        }
      ],
      "name": "changeTimeframeSeconds",
      "outputs": [],
      "stateMutability": "nonpayable",
      "type": "function"
    },
    {
      "inputs": [
        {
          "internalType": "address payable",
          "name": "feeRecipient_",
          "type": "address"
        }
      ],
      "name": "changeTransferFeeRecipient",
      "outputs": [],
      "stateMutability": "nonpayable",
      "type": "function"
    },
    {
      "inputs": [
        {
          "internalType": "bytes32",
          "name": "",
          "type": "bytes32"
        },
        {
          "internalType": "address",
          "name": "",
          "type": "address"
        }
      ],
      "name": "confirmations",
      "outputs": [
        {
          "internalType": "bool",
          "name": "",
          "type": "bool"
        }
      ],
      "stateMutability": "view",
      "type": "function"
    },
    {
      "inputs": [],
      "name": "confirmationsThreshold",
      "outputs": [
        {
          "internalType": "uint256",
          "name": "",
          "type": "uint256"
        }
      ],
      "stateMutability": "view",
      "type": "function"
    },
    {
      "inputs": [
        {
          "internalType": "bytes32",
          "name": "hash",
          "type": "bytes32"
        }
      ],
      "name": "confirmedCount",
      "outputs": [
        {
          "internalType": "uint256",
          "name": "",
          "type": "uint256"
        }
      ],
      "stateMutability": "view",
      "type": "function"
    },
    {
      "inputs": [
        {
          "internalType": "uint256",
          "name": "eventId",
          "type": "uint256"
        }
      ],
      "name": "getLockedTransfers",
      "outputs": [
        {
          "components": [
            {
              "components": [
                {
                  "internalType": "address",
                  "name": "tokenAddress",
                  "type": "address"
                },
                {
                  "internalType": "address",
                  "name": "toAddress",
                  "type": "address"
                },
                {
                  "internalType": "uint256",
                  "name": "amount",
                  "type": "uint256"
                }
              ],
              "internalType": "struct CommonStructs.Transfer[]",
              "name": "transfers",
              "type": "tuple[]"
            },
            {
              "internalType": "uint256",
              "name": "endTimestamp",
              "type": "uint256"
            }
          ],
          "internalType": "struct CommonStructs.LockedTransfers",
          "name": "",
          "type": "tuple"
        }
      ],
      "stateMutability": "view",
      "type": "function"
    },
    {
      "inputs": [],
      "name": "getRelays",
      "outputs": [
        {
          "internalType": "address[]",
          "name": "",
          "type": "address[]"
        }
      ],
      "stateMutability": "view",
      "type": "function"
    },
    {
      "inputs": [
        {
          "internalType": "bytes32",
          "name": "role",
          "type": "bytes32"
        }
      ],
      "name": "getRoleAdmin",
      "outputs": [
        {
          "internalType": "bytes32",
          "name": "",
          "type": "bytes32"
        }
      ],
      "stateMutability": "view",
      "type": "function"
    },
    {
      "inputs": [
        {
          "internalType": "bytes32",
          "name": "role",
          "type": "bytes32"
        },
        {
          "internalType": "address",
          "name": "account",
          "type": "address"
        }
      ],
      "name": "grantRole",
      "outputs": [],
      "stateMutability": "nonpayable",
      "type": "function"
    },
    {
      "inputs": [
        {
          "internalType": "bytes32",
          "name": "role",
          "type": "bytes32"
        },
        {
          "internalType": "address",
          "name": "account",
          "type": "address"
        }
      ],
      "name": "hasRole",
      "outputs": [
        {
          "internalType": "bool",
          "name": "",
          "type": "bool"
        }
      ],
      "stateMutability": "view",
      "type": "function"
    },
    {
      "inputs": [
        {
          "components": [
            {
              "internalType": "address",
              "name": "sideBridgeAddress",
              "type": "address"
            },
            {
              "internalType": "address",
              "name": "adminAddress",
              "type": "address"
            },
            {
              "internalType": "address",
              "name": "relayAddress",
              "type": "address"
            },
            {
              "internalType": "address",
              "name": "feeProviderAddress",
              "type": "address"
            },
            {
              "internalType": "address[]",
              "name": "watchdogsAddresses",
              "type": "address[]"
            },
            {
              "internalType": "address",
              "name": "wrappingTokenAddress",
              "type": "address"
            },
            {
              "internalType": "address[]",
              "name": "tokenThisAddresses",
              "type": "address[]"
            },
            {
              "internalType": "address[]",
              "name": "tokenSideAddresses",
              "type": "address[]"
            },
            {
              "internalType": "address payable",
              "name": "transferFeeRecipient",
              "type": "address"
            },
            {
              "internalType": "address payable",
              "name": "bridgeFeeRecipient",
              "type": "address"
            },
            {
              "internalType": "uint256",
              "name": "timeframeSeconds",
              "type": "uint256"
            },
            {
              "internalType": "uint256",
              "name": "lockTime",
              "type": "uint256"
            },
            {
              "internalType": "uint256",
              "name": "minSafetyBlocks",
              "type": "uint256"
            }
          ],
          "internalType": "struct CommonStructs.ConstructorArgs",
          "name": "args",
          "type": "tuple"
        },
        {
          "internalType": "uint256",
          "name": "_confirmations",
          "type": "uint256"
        },
        {
          "internalType": "address[]",
          "name": "_relays",
          "type": "address[]"
        }
      ],
      "name": "initialize",
      "outputs": [],
      "stateMutability": "nonpayable",
      "type": "function"
    },
    {
      "inputs": [],
      "name": "inputEventId",
      "outputs": [
        {
          "internalType": "uint256",
          "name": "",
          "type": "uint256"
        }
      ],
      "stateMutability": "view",
      "type": "function"
    },
    {
      "inputs": [
        {
          "internalType": "address",
          "name": "relay",
          "type": "address"
        },
        {
          "internalType": "uint256",
          "name": "eventId",
          "type": "uint256"
        },
        {
          "components": [
            {
              "internalType": "address",
              "name": "tokenAddress",
              "type": "address"
            },
            {
              "internalType": "address",
              "name": "toAddress",
              "type": "address"
            },
            {
              "internalType": "uint256",
              "name": "amount",
              "type": "uint256"
            }
          ],
          "internalType": "struct CommonStructs.Transfer[]",
          "name": "transfers",
          "type": "tuple[]"
        }
      ],
      "name": "isConfirmedByRelay",
      "outputs": [
        {
          "internalType": "bool",
          "name": "",
          "type": "bool"
        }
      ],
      "stateMutability": "view",
      "type": "function"
    },
    {
      "inputs": [],
      "name": "isQueueEmpty",
      "outputs": [
        {
          "internalType": "bool",
          "name": "",
          "type": "bool"
        }
      ],
      "stateMutability": "view",
      "type": "function"
    },
    {
      "inputs": [
        {
          "internalType": "address",
          "name": "relay",
          "type": "address"
        }
      ],
      "name": "isRelay",
      "outputs": [
        {
          "internalType": "bool",
          "name": "",
          "type": "bool"
        }
      ],
      "stateMutability": "view",
      "type": "function"
    },
    {
      "inputs": [],
      "name": "lastTimeframe",
      "outputs": [
        {
          "internalType": "uint256",
          "name": "",
          "type": "uint256"
        }
      ],
      "stateMutability": "view",
      "type": "function"
    },
    {
      "inputs": [],
      "name": "lockTime",
      "outputs": [
        {
          "internalType": "uint256",
          "name": "",
          "type": "uint256"
        }
      ],
      "stateMutability": "view",
      "type": "function"
    },
    {
      "inputs": [
        {
          "internalType": "uint256",
          "name": "",
          "type": "uint256"
        }
      ],
      "name": "lockedTransfers",
      "outputs": [
        {
          "internalType": "uint256",
          "name": "endTimestamp",
          "type": "uint256"
        }
      ],
      "stateMutability": "view",
      "type": "function"
    },
    {
      "inputs": [],
      "name": "minSafetyBlocks",
      "outputs": [
        {
          "internalType": "uint256",
          "name": "",
          "type": "uint256"
        }
      ],
      "stateMutability": "view",
      "type": "function"
    },
    {
      "inputs": [],
      "name": "oldestLockedEventId",
      "outputs": [
        {
          "internalType": "uint256",
          "name": "",
          "type": "uint256"
        }
      ],
      "stateMutability": "view",
      "type": "function"
    },
    {
      "inputs": [],
      "name": "outputEventId",
      "outputs": [
        {
          "internalType": "uint256",
          "name": "",
          "type": "uint256"
        }
      ],
      "stateMutability": "view",
      "type": "function"
    },
    {
      "inputs": [],
      "name": "pause",
      "outputs": [],
      "stateMutability": "nonpayable",
      "type": "function"
    },
    {
      "inputs": [],
      "name": "paused",
      "outputs": [
        {
          "internalType": "bool",
          "name": "",
          "type": "bool"
        }
      ],
      "stateMutability": "view",
      "type": "function"
    },
    {
      "inputs": [
        {
          "internalType": "uint256",
          "name": "",
          "type": "uint256"
        }
      ],
      "name": "relays",
      "outputs": [
        {
          "internalType": "address",
          "name": "",
          "type": "address"
        }
      ],
      "stateMutability": "view",
      "type": "function"
    },
    {
      "inputs": [
        {
          "internalType": "uint256",
          "name": "eventId",
          "type": "uint256"
        }
      ],
      "name": "removeLockedTransfers",
      "outputs": [],
      "stateMutability": "nonpayable",
      "type": "function"
    },
    {
      "inputs": [
        {
          "internalType": "bytes32",
          "name": "role",
          "type": "bytes32"
        },
        {
          "internalType": "address",
          "name": "account",
          "type": "address"
        }
      ],
      "name": "renounceRole",
      "outputs": [],
      "stateMutability": "nonpayable",
      "type": "function"
    },
    {
      "inputs": [
        {
          "internalType": "bytes32",
          "name": "role",
          "type": "bytes32"
        },
        {
          "internalType": "address",
          "name": "account",
          "type": "address"
        }
      ],
      "name": "revokeRole",
      "outputs": [],
      "stateMutability": "nonpayable",
      "type": "function"
    },
    {
      "inputs": [
        {
          "internalType": "address",
          "name": "_fee_provider",
          "type": "address"
        },
        {
          "internalType": "address[]",
          "name": "_watchdogs",
          "type": "address[]"
        }
      ],
      "name": "setFeeProviderAndWatchdogs",
      "outputs": [],
      "stateMutability": "nonpayable",
      "type": "function"
    },
    {
      "inputs": [
        {
          "internalType": "address[]",
          "name": "toRemove",
          "type": "address[]"
        },
        {
          "internalType": "address[]",
          "name": "toAdd",
          "type": "address[]"
        },
        {
          "internalType": "uint256",
          "name": "_confirmations",
          "type": "uint256"
        }
      ],
      "name": "setRelaysAndConfirmations",
      "outputs": [],
      "stateMutability": "nonpayable",
      "type": "function"
    },
    {
      "inputs": [
        {
          "internalType": "address",
          "name": "_sideBridgeAddress",
          "type": "address"
        }
      ],
      "name": "setSideBridge",
      "outputs": [],
      "stateMutability": "nonpayable",
      "type": "function"
    },
    {
      "inputs": [],
      "name": "sideBridgeAddress",
      "outputs": [
        {
          "internalType": "address",
          "name": "",
          "type": "address"
        }
      ],
      "stateMutability": "view",
      "type": "function"
    },
    {
      "inputs": [
        {
          "internalType": "uint256",
          "name": "eventId",
          "type": "uint256"
        }
      ],
      "name": "skipTransfers",
      "outputs": [],
      "stateMutability": "nonpayable",
      "type": "function"
    },
    {
      "inputs": [
        {
          "internalType": "uint256",
          "name": "eventId",
          "type": "uint256"
        },
        {
          "components": [
            {
              "internalType": "address",
              "name": "tokenAddress",
              "type": "address"
            },
            {
              "internalType": "address",
              "name": "toAddress",
              "type": "address"
            },
            {
              "internalType": "uint256",
              "name": "amount",
              "type": "uint256"
            }
          ],
          "internalType": "struct CommonStructs.Transfer[]",
          "name": "transfers",
          "type": "tuple[]"
        }
      ],
      "name": "submitTransferUntrustless",
      "outputs": [],
      "stateMutability": "nonpayable",
      "type": "function"
    },
    {
      "inputs": [
        {
          "internalType": "bytes4",
          "name": "interfaceId",
          "type": "bytes4"
        }
      ],
      "name": "supportsInterface",
      "outputs": [
        {
          "internalType": "bool",
          "name": "",
          "type": "bool"
        }
      ],
      "stateMutability": "view",
      "type": "function"
    },
    {
      "inputs": [],
      "name": "timeframeSeconds",
      "outputs": [
        {
          "internalType": "uint256",
          "name": "",
          "type": "uint256"
        }
      ],
      "stateMutability": "view",
      "type": "function"
    },
    {
      "inputs": [
        {
          "internalType": "address",
          "name": "",
          "type": "address"
        }
      ],
      "name": "tokenAddresses",
      "outputs": [
        {
          "internalType": "address",
          "name": "",
          "type": "address"
        }
      ],
      "stateMutability": "view",
      "type": "function"
    },
    {
      "inputs": [
        {
          "internalType": "address",
          "name": "tokenThisAddress",
          "type": "address"
        },
        {
          "internalType": "address",
          "name": "tokenSideAddress",
          "type": "address"
        }
      ],
      "name": "tokensAdd",
      "outputs": [],
      "stateMutability": "nonpayable",
      "type": "function"
    },
    {
      "inputs": [
        {
          "internalType": "address[]",
          "name": "tokenThisAddresses",
          "type": "address[]"
        },
        {
          "internalType": "address[]",
          "name": "tokenSideAddresses",
          "type": "address[]"
        }
      ],
      "name": "tokensAddBatch",
      "outputs": [],
      "stateMutability": "nonpayable",
      "type": "function"
    },
    {
      "inputs": [
        {
          "internalType": "address",
          "name": "tokenThisAddress",
          "type": "address"
        }
      ],
      "name": "tokensRemove",
      "outputs": [],
      "stateMutability": "nonpayable",
      "type": "function"
    },
    {
      "inputs": [
        {
          "internalType": "address[]",
          "name": "tokenThisAddresses",
          "type": "address[]"
        }
      ],
      "name": "tokensRemoveBatch",
      "outputs": [],
      "stateMutability": "nonpayable",
      "type": "function"
    },
    {
      "inputs": [],
      "name": "transferFeeRecipient",
      "outputs": [
        {
          "internalType": "address payable",
          "name": "",
          "type": "address"
        }
      ],
      "stateMutability": "view",
      "type": "function"
    },
    {
      "inputs": [
        {
          "internalType": "uint256",
          "name": "eventId",
          "type": "uint256"
        },
        {
          "components": [
            {
              "internalType": "address",
              "name": "tokenAddress",
              "type": "address"
            },
            {
              "internalType": "address",
              "name": "toAddress",
              "type": "address"
            },
            {
              "internalType": "uint256",
              "name": "amount",
              "type": "uint256"
            }
          ],
          "internalType": "struct CommonStructs.Transfer[]",
          "name": "transfers",
          "type": "tuple[]"
        }
      ],
      "name": "transfersHash",
      "outputs": [
        {
          "internalType": "bytes32",
          "name": "",
          "type": "bytes32"
        }
      ],
      "stateMutability": "pure",
      "type": "function"
    },
    {
      "inputs": [],
      "name": "triggerTransfers",
      "outputs": [],
      "stateMutability": "nonpayable",
      "type": "function"
    },
    {
      "inputs": [
        {
          "internalType": "uint256",
          "name": "eventId",
          "type": "uint256"
        }
      ],
      "name": "unlockTransfers",
      "outputs": [],
      "stateMutability": "nonpayable",
      "type": "function"
    },
    {
      "inputs": [],
      "name": "unlockTransfersBatch",
      "outputs": [],
      "stateMutability": "nonpayable",
      "type": "function"
    },
    {
      "inputs": [],
      "name": "unpause",
      "outputs": [],
      "stateMutability": "nonpayable",
      "type": "function"
    },
    {
      "inputs": [
        {
          "internalType": "uint256",
          "name": "_confirmations",
          "type": "uint256"
        },
        {
          "internalType": "address[]",
          "name": "_relays",
          "type": "address[]"
        }
      ],
      "name": "upgrade",
      "outputs": [],
      "stateMutability": "nonpayable",
      "type": "function"
    },
    {
      "inputs": [
        {
          "internalType": "address",
          "name": "tokenThisAddress",
          "type": "address"
        },
        {
          "internalType": "address",
          "name": "toAddress",
          "type": "address"
        },
        {
          "internalType": "uint256",
          "name": "amount",
          "type": "uint256"
        },
        {
          "internalType": "bool",
          "name": "unwrapSide",
          "type": "bool"
        },
        {
          "internalType": "bytes",
          "name": "feeSignature",
          "type": "bytes"
        },
        {
          "internalType": "uint256",
          "name": "transferFee",
          "type": "uint256"
        },
        {
          "internalType": "uint256",
          "name": "bridgeFee",
          "type": "uint256"
        }
      ],
      "name": "withdraw",
      "outputs": [],
      "stateMutability": "payable",
      "type": "function"
    },
    {
      "inputs": [
        {
          "internalType": "address",
          "name": "toAddress",
          "type": "address"
        },
        {
          "internalType": "bytes",
          "name": "feeSignature",
          "type": "bytes"
        },
        {
          "internalType": "uint256",
          "name": "transferFee",
          "type": "uint256"
        },
        {
          "internalType": "uint256",
          "name": "bridgeFee",
          "type": "uint256"
        }
      ],
      "name": "wrapWithdraw",
      "outputs": [],
      "stateMutability": "payable",
      "type": "function"
    },
    {
      "inputs": [],
      "name": "wrapperAddress",
      "outputs": [
        {
          "internalType": "address",
          "name": "",
          "type": "address"
        }
      ],
      "stateMutability": "view",
      "type": "function"
    },
    {
      "stateMutability": "payable",
      "type": "receive"
    }
  ],
  "transactionHash": "0xdfd04b347863d3c24369e6c1cfe781cd454d37e81b56b522f8d73153736222a4",
  "args": [],
  "numDeployments": 3,
  "solcInputHash": "f2c587eeec228323e52d71e9eac53718",
  "bytecode": "0x608060405234801561001057600080fd5b50614352806100206000396000f3fe60806040526004361061039f5760003560e060020a90048063853890ae116101e0578063baeebe7511610106578063e1137f19116100a4578063f700558711610073578063f700558714610ae0578063f862b7eb14610b00578063f8b7443314610b20578063fd5d2ef314610b3357600080fd5b8063e1137f1914610a53578063e31be08714610a73578063f33fe10f14610aa0578063f65e04fb14610ac057600080fd5b8063d3b89f49116100e0578063d3b89f49146109bf578063d547741f146109f3578063ded0eaef14610a13578063df9b709e14610a3357600080fd5b8063baeebe7514610969578063cea91f8f1461097f578063cf3317d31461099f57600080fd5b806396cf52271161017e578063b06a13ef1161014d578063b06a13ef146108e7578063b6d3385e146108fd578063b87330e914610933578063ba8bbbe01461095357600080fd5b806396cf52271461086857806399b5bb6414610888578063a217fddf1461089e578063a9b1cf0b146108b357600080fd5b80638e5df9c7116101ba5780638e5df9c7146107ff57806391c5bc0a1461081f57806391d1485414610832578063924cf6e01461085257600080fd5b8063853890ae146107b457806386d7679e146107d45780638ac1f86f146107ea57600080fd5b8063390d5388116102c55780635b403c281161026357806375b238fc1161023257806375b238fc1461073d5780637df8b8021461075f5780638456cb591461077f57806384d8f01b1461079457600080fd5b80635b403c28146106d05780635c975abb146106f05780636c5dc9ad14610708578063746b5c421461072857600080fd5b806342180fb81161029f57806342180fb8146106405780634a1856de146106605780635119b0ef146106905780635249a705146106b057600080fd5b8063390d5388146105eb5780633928b2961461060b5780633f4ba83a1461062b57600080fd5b8063248a9ca31161033d5780632f2ff15d1161030c5780632f2ff15d14610553578063304561bb14610573578063331a891a146105ab57806336568abe146105cb57600080fd5b8063248a9ca3146104d757806326cb32b714610507578063297c2677146105275780632bbba8471461053d57600080fd5b80630c4ecab4116103795780630c4ecab4146104445780630d6680871461047f57806321d3d5361461049557806323a93b1e146104b557600080fd5b806301ffc9a7146103ab57806304421823146103e057806309fce3561461042257600080fd5b366103a657005b600080fd5b3480156103b757600080fd5b506103cb6103c6366004613be6565b610b53565b60405190151581526020015b60405180910390f35b3480156103ec57600080fd5b506104147f077a1d526a4ce8a773632ab13b4fbbf1fcc954c3dab26cd27ea0e2a6750da5d781565b6040519081526020016103d7565b34801561042e57600080fd5b5061044261043d366004613ab7565b610be6565b005b34801561045057600080fd5b506103cb61045f366004613bc1565b60e860209081526000928352604080842090915290825290205460ff1681565b34801561048b57600080fd5b5061041460d45481565b3480156104a157600080fd5b506104426104b0366004613873565b610c12565b3480156104c157600080fd5b506104ca610ca2565b6040516103d79190613e66565b3480156104e357600080fd5b506104146104f2366004613ba8565b60009081526065602052604090206001015490565b34801561051357600080fd5b506103cb610522366004613873565b610d04565b34801561053357600080fd5b5061041460d65481565b34801561054957600080fd5b5060ca54156103cb565b34801561055f57600080fd5b5061044261056e366004613bc1565b610d6e565b34801561057f57600080fd5b5060cf5461059390600160a060020a031681565b604051600160a060020a0390911681526020016103d7565b3480156105b757600080fd5b506104426105c6366004613ba8565b610d99565b3480156105d757600080fd5b506104426105e6366004613bc1565b610eb0565b3480156105f757600080fd5b5060d05461059390600160a060020a031681565b34801561061757600080fd5b50610442610626366004613873565b610f3b565b34801561063757600080fd5b50610442610f77565b34801561064c57600080fd5b5061044261065b366004613ba8565b610f9b565b34801561066c57600080fd5b5061041461067b366004613ba8565b60cb6020526000908152604090206001015481565b34801561069c57600080fd5b506104426106ab366004613d5c565b610fd8565b3480156106bc57600080fd5b506104426106cb366004613a75565b6110c1565b3480156106dc57600080fd5b506104426106eb366004613c85565b61114a565b3480156106fc57600080fd5b5060975460ff166103cb565b34801561071457600080fd5b50610414610723366004613ba8565b6111b6565b34801561073457600080fd5b5061044261123f565b34801561074957600080fd5b506104146000805160206142fd83398151915281565b34801561076b57600080fd5b5060ce5461059390600160a060020a031681565b34801561078b57600080fd5b506104426112eb565b3480156107a057600080fd5b506104426107af366004613b17565b61131e565b3480156107c057600080fd5b506104426107cf366004613890565b6113df565b3480156107e057600080fd5b5061041460d75481565b3480156107f657600080fd5b50610442611427565b34801561080b57600080fd5b5061044261081a366004613873565b61157f565b61044261082d3660046139b2565b6115c0565b34801561083e57600080fd5b506103cb61084d366004613bc1565b6118f0565b34801561085e57600080fd5b5061041460d25481565b34801561087457600080fd5b50610442610883366004613ba8565b61191b565b34801561089457600080fd5b5061041460d55481565b3480156108aa57600080fd5b50610414600081565b3480156108bf57600080fd5b506104147fb7f2fcb7a10916921b74b9baa8ea85f89b12ab12f6ededa160998f8b20e65f9581565b3480156108f357600080fd5b5061041460e75481565b34801561090957600080fd5b50610593610918366004613873565b60cd60205260009081526040902054600160a060020a031681565b34801561093f57600080fd5b5061044261094e366004613873565b61193a565b34801561095f57600080fd5b5061041460cc5481565b34801561097557600080fd5b5061041460d35481565b34801561098b57600080fd5b5061041461099a366004613d5c565b611976565b3480156109ab57600080fd5b506104426109ba366004613ba8565b611a5f565b3480156109cb57600080fd5b506104147f516d5e7ed3e60a6b2804c1554cd94bc2eb576e44b192a0e069d4c527589a887e81565b3480156109ff57600080fd5b50610442610a0e366004613bc1565b611ad6565b348015610a1f57600080fd5b506103cb610a2e366004613a19565b611afc565b348015610a3f57600080fd5b50610442610a4e36600461395d565b611b3b565b348015610a5f57600080fd5b50610593610a6e366004613ba8565b611c11565b348015610a7f57600080fd5b50610a93610a8e366004613ba8565b611c3b565b6040516103d7919061407e565b348015610aac57600080fd5b5060d15461059390600160a060020a031681565b348015610acc57600080fd5b50610442610adb366004613c25565b611cf7565b348015610aec57600080fd5b50610442610afb366004613ba8565b611db5565b348015610b0c57600080fd5b50610442610b1b366004613ba8565b611dd4565b610442610b2e3660046138c9565b612007565b348015610b3f57600080fd5b50610442610b4e366004613ba8565b612467565b60007bffffffffffffffffffffffffffffffffffffffffffffffffffffffff1982167f7965db0b000000000000000000000000000000000000000000000000000000001480610be057507f01ffc9a7000000000000000000000000000000000000000000000000000000007bffffffffffffffffffffffffffffffffffffffffffffffffffffffff198316145b92915050565b6000805160206142fd833981519152610bff8133612486565b610c0b858585856124ed565b5050505050565b6000610c1e8133612486565b60d154600160a060020a031615610c7f5760405160e560020a62461bcd02815260206004820152601d60248201527f736964654272696467654164647265737320616c72656164792073657400000060448201526064015b60405180910390fd5b5060d18054600160a060020a031916600160a060020a0392909216919091179055565b606060e9805480602002602001604051908101604052809291908181526020018280548015610cfa57602002820191906000526020600020905b8154600160a060020a03168152600190910190602001808311610cdc575b5050505050905090565b6000805b60e954811015610d655782600160a060020a031660e98281548110610d2f57610d2f614248565b600091825260209091200154600160a060020a03161415610d535750600192915050565b80610d5d816141fb565b915050610d08565b50600092915050565b600082815260656020526040902060010154610d8a8133612486565b610d94838361260e565b505050565b6000805160206142fd833981519152610db28133612486565b60975460ff16610dd75760405160e560020a62461bcd028152600401610c7690613f56565b60cc54821015610dfc5760405160e560020a62461bcd028152600401610c7690614021565b60d554821115610e515760405160e560020a62461bcd02815260206004820152601f60248201527f6576656e744964206d757374206265203c3d20696e7075744576656e744964006044820152606401610c76565b610e5c6001836141a1565b60d5555b600082815260cb602052604090206001015415610eac57600082815260cb6020526040812090610e9082826136c3565b5060006001919091015581610ea4816141fb565b925050610e60565b5050565b600160a060020a0381163314610f315760405160e560020a62461bcd02815260206004820152602f60248201527f416363657373436f6e74726f6c3a2063616e206f6e6c792072656e6f756e636560448201527f20726f6c657320666f722073656c6600000000000000000000000000000000006064820152608401610c76565b610eac8282612694565b6000805160206142fd833981519152610f548133612486565b5060d08054600160a060020a031916600160a060020a0392909216919091179055565b6000805160206142fd833981519152610f908133612486565b610f986126fb565b50565b6000805160206142fd833981519152610fb48133612486565b8160d35460d754610fc59190614182565b610fcf919061415d565b60d7555060d355565b60975460ff1615610ffe5760405160e560020a62461bcd028152600401610c7690613f8d565b60d55461100c906001614145565b831461105d5760405160e560020a62461bcd02815260206004820152601460248201527f4576656e744964206f7574206f66206f726465720000000000000000000000006044820152606401610c76565b600061106a84848461276a565b905080156110bb5760d560008154611081906141fb565b9091555060405184907f196c47048e38df7a4fe6e581c8f4f2e2ba67ac0dd45b90da756e97bd61d9dd3b90600090a26110bb838386612915565b50505050565b6000805160206142fd8339815191526110da8133612486565b8160005b81811015610c0b5760cd60008686848181106110fc576110fc614248565b90506020020160208101906111119190613873565b600160a060020a0316815260208101919091526040016000208054600160a060020a031916905580611142816141fb565b9150506110de565b33301461119c5760405160e560020a62461bcd02815260206004820152601c60248201527f54686973206d6574686f642072657175697265206d756c7469736967000000006044820152606401610c76565b80516111af9060e99060208401906136e4565b505060e755565b60008060005b60e95481101561123857600084815260e86020526040812060e98054919291849081106111eb576111eb614248565b6000918252602080832090910154600160a060020a0316835282019290925260400190205460ff16156112265781611222816141fb565b9250505b80611230816141fb565b9150506111bc565b5092915050565b60ca546112915760405160e560020a62461bcd02815260206004820152600e60248201527f517565756520697320656d7074790000000000000000000000000000000000006044820152606401610c76565b60d680549060006112a1836141fb565b919050557fe15729a2f427aa4572dab35eb692c902fcbce57d41642013259c741380809ae260ca6040516112d59190613eb3565b60405180910390a26112e960ca60006136c3565b565b7fb7f2fcb7a10916921b74b9baa8ea85f89b12ab12f6ededa160998f8b20e65f956113168133612486565b610f986129a3565b3330146113705760405160e560020a62461bcd02815260206004820152601c60248201527f54686973206d6574686f642072657175697265206d756c7469736967000000006044820152606401610c76565b610c0b858580806020026020016040519081016040528093929190818152602001838360200280828437600092019190915250506040805160208089028281018201909352888252909350889250879182918501908490808284376000920191909152508692506129fe915050565b6000805160206142fd8339815191526113f88133612486565b50600160a060020a03918216600090815260cd602052604090208054600160a060020a03191691909216179055565b60975460ff161561144d5760405160e560020a62461bcd028152600401610c7690613f8d565b60cc545b600081815260cb60209081526040808320815181546060948102820185018452928101838152909391928492849190879085015b828210156114df57600084815260209081902060408051606081018252600386029092018054600160a060020a03908116845260018083015490911684860152600290910154918301919091529083529092019101611485565b50505050815260200160018201548152505090508060200151600014806115095750428160200151115b15611514575060cc55565b805161151f90612ac6565b600082815260cb602052604081209061153882826136c3565b50600060019190910181905560405183917f78ff9b3176bb0d6421590f3816e75cb15a9ffa2b7a1a028f40a3f4e029eb39f291a25080611577816141fb565b915050611451565b6000805160206142fd8339815191526115988133612486565b50600160a060020a0316600090815260cd602052604090208054600160a060020a0319169055565b60ce54600160a060020a03908116600090815260cd6020526040902054168061162e5760405160e560020a62461bcd02815260206004820152601560248201527f556e6b6e6f776e20746f6b656e206164647265737300000000000000000000006044820152606401610c76565b6116388284614145565b34116116895760405160e560020a62461bcd02815260206004820152601160248201527f53656e742076616c7565203c3d206665650000000000000000000000000000006044820152606401610c76565b60008261169685346141a1565b6116a091906141a1565b60ce549091506116bd90600160a060020a03168787878786612d5a565b60cf54604051600160a060020a039091169085156108fc029086906000818181858888f193505050501580156116f7573d6000803e3d6000fd5b5060d054604051600160a060020a039091169084156108fc029085906000818181858888f19350505050158015611732573d6000803e3d6000fd5b5060ce60009054906101000a9004600160a060020a0316600160a060020a031663d0e30db0826040518263ffffffff1660e060020a0281526004016000604051808303818588803b15801561178657600080fd5b505af115801561179a573d6000803e3d6000fd5b505060408051606081018252600160a060020a0380881682528c81166020830190815282840188815260ca80546001810182556000918252945160039095027f42d72674974f694b5f5159593243114d38a5c39c89d6b62fee061ff523240ee181018054968616600160a060020a031997881617905592517f42d72674974f694b5f5159593243114d38a5c39c89d6b62fee061ff523240ee2840180549190951695169490941790925590517f42d72674974f694b5f5159593243114d38a5c39c89d6b62fee061ff523240ee39091015560d65491513395507f3b823d3b837159352faddd1e0b9e9f584ca2bfe976238f6a9e6da4615cf2f44494506118d79350879087908b908b90958652600160a060020a0394851660208701529290931660408501526060840152608083019190915260a082015260c00190565b60405180910390a26118e7612f00565b50505050505050565b6000918252606560209081526040808420600160a060020a0393909316845291905290205460ff1690565b6000805160206142fd8339815191526119348133612486565b5060d455565b6000805160206142fd8339815191526119538133612486565b5060cf8054600160a060020a031916600160a060020a0392909216919091179055565b6000808460405160200161198c91815260200190565b604051602081830303815290604052905060005b83811015611a4e57818585838181106119bb576119bb614248565b905060600201604001358686848181106119d7576119d7614248565b90506060020160200160208101906119ef9190613873565b878785818110611a0157611a01614248565b611a179260206060909202019081019150613873565b604051602001611a2a9493929190613d9b565b60405160208183030381529060405291508080611a46906141fb565b9150506119a0565b508051602090910120949350505050565b6000805160206142fd833981519152611a788133612486565b60975460ff16611a9d5760405160e560020a62461bcd028152600401610c7690613f56565b60cc54821015611ac25760405160e560020a62461bcd028152600401610c7690614021565b611acd6001836141a1565b60d5555060cc55565b600082815260656020526040902060010154611af28133612486565b610d948383612694565b600080611b0a858585611976565b600090815260e860209081526040808320600160a060020a038a16845290915290205460ff16915050949350505050565b6000805160206142fd833981519152611b548133612486565b60975460ff1615611b7a5760405160e560020a62461bcd028152600401610c7690613f8d565b611ba47f516d5e7ed3e60a6b2804c1554cd94bc2eb576e44b192a0e069d4c527589a887e85612f78565b60005b82811015610c0b57611bff7fb7f2fcb7a10916921b74b9baa8ea85f89b12ab12f6ededa160998f8b20e65f95858584818110611be557611be5614248565b9050602002016020810190611bfa9190613873565b612f78565b80611c09816141fb565b915050611ba7565b60e98181548110611c2157600080fd5b600091825260209091200154600160a060020a0316905081565b604080518082019091526060815260006020820152600082815260cb60209081526040808320815181546060948102820185018452928101838152909491938593919285929185015b82821015611cde57600084815260209081902060408051606081018252600386029092018054600160a060020a03908116845260018083015490911684860152600290910154918301919091529083529092019101611c84565b5050505081526020016001820154815250509050919050565b600054610100900460ff1680611d10575060005460ff16155b611d2f5760405160e560020a62461bcd028152600401610c7690613fc4565b600054610100900460ff16158015611d51576000805461ffff19166101011790555b611d5a85612f82565b6040805160008152602084810280830184018452908201858152611d9d9390918791879182918601908490808284376000920191909152508992506129fe915050565b8015610c0b576000805461ff00191690555050505050565b6000805160206142fd833981519152611dce8133612486565b5060c955565b60975460ff1615611dfa5760405160e560020a62461bcd028152600401610c7690613f8d565b60cc548114611e4e5760405160e560020a62461bcd02815260206004820152601c60248201527f63616e20756e6c6f636b206f6e6c79206f6c64657374206576656e74000000006044820152606401610c76565b600081815260cb60209081526040808320815181546060948102820185018452928101838152909391928492849190879085015b82821015611edc57600084815260209081902060408051606081018252600386029092018054600160a060020a03908116845260018083015490911684860152600290910154918301919091529083529092019101611e82565b50505050815260200160018201548152505090506000816020015111611f475760405160e560020a62461bcd02815260206004820181905260248201527f6e6f206c6f636b6564207472616e7366657273207769746820746869732069646044820152606401610c76565b42816020015110611f9d5760405160e560020a62461bcd02815260206004820152601b60248201527f6c6f636b54696d6520686173206e6f74207965742070617373656400000000006044820152606401610c76565b8051611fa890612ac6565b600082815260cb6020526040812090611fc182826136c3565b50600060019190910181905560405183917f78ff9b3176bb0d6421590f3816e75cb15a9ffa2b7a1a028f40a3f4e029eb39f291a2612000826001614145565b60cc555050565b6000851561209c576000805260cd6020527fcd565b10a72538d86f6d352f37ebc5dff31587960b12c0afe00fd03947a6932a54600160a060020a038a81169116146120975760405160e560020a62461bcd02815260206004820152601f60248201527f546f6b656e206e6f7420706f696e7420746f206e617469766520746f6b656e006044820152606401610c76565b612108565b50600160a060020a03808916600090815260cd602052604090205416806121085760405160e560020a62461bcd02815260206004820152601560248201527f556e6b6e6f776e20746f6b656e206164647265737300000000000000000000006044820152606401610c76565b6121128284614145565b34146121635760405160e560020a62461bcd02815260206004820152601160248201527f53656e742076616c756520213d206665650000000000000000000000000000006044820152606401610c76565b600087116121b65760405160e560020a62461bcd02815260206004820152601160248201527f43616e6e6f7420776974686472617720300000000000000000000000000000006044820152606401610c76565b6121c489868686868c612d5a565b60cf54604051600160a060020a039091169084156108fc029085906000818181858888f193505050501580156121fe573d6000803e3d6000fd5b5060d054604051600160a060020a039091169083156108fc029084906000818181858888f19350505050158015612239573d6000803e3d6000fd5b506040517f23b872dd00000000000000000000000000000000000000000000000000000000815233600482015230602482015260448101889052600160a060020a038a16906323b872dd90606401602060405180830381600087803b1580156122a157600080fd5b505af11580156122b5573d6000803e3d6000fd5b505050506040513d601f19601f820116820180604052508101906122d99190613b8b565b6123285760405160e560020a62461bcd02815260206004820152601360248201527f4661696c207472616e7366657220636f696e73000000000000000000000000006044820152606401610c76565b6040805160608082018352600160a060020a038481168084528c821660208086019182528587018e815260ca8054600181018255600091909152965160039097027f42d72674974f694b5f5159593243114d38a5c39c89d6b62fee061ff523240ee181018054988716600160a060020a0319998a1617905592517f42d72674974f694b5f5159593243114d38a5c39c89d6b62fee061ff523240ee284018054918716919098161790965594517f42d72674974f694b5f5159593243114d38a5c39c89d6b62fee061ff523240ee39091015560d6548551908152918e16938201939093529283019190915281018890526080810184905260a0810183905233907f3b823d3b837159352faddd1e0b9e9f584ca2bfe976238f6a9e6da4615cf2f4449060c00160405180910390a261245c612f00565b505050505050505050565b6000805160206142fd8339815191526124808133612486565b5060d255565b61249082826118f0565b610eac576124a881600160a060020a0316601461318e565b6124b383602061318e565b6040516020016124c4929190613de5565b60408051601f198184030181529082905260e560020a62461bcd028252610c7691600401613f23565b8281146125655760405160e560020a62461bcd02815260206004820152603f60248201527f73697a6573206f6620746f6b656e5468697341646472657373657320616e642060448201527f746f6b656e53696465416464726573736573206d7573742062652073616d65006064820152608401610c76565b8260005b818110156126065783838281811061258357612583614248565b90506020020160208101906125989190613873565b60cd60008888858181106125ae576125ae614248565b90506020020160208101906125c39190613873565b600160a060020a03908116825260208201929092526040016000208054600160a060020a03191692909116919091179055806125fe816141fb565b915050612569565b505050505050565b61261882826118f0565b610eac576000828152606560209081526040808320600160a060020a03851684529091529020805460ff191660011790556126503390565b600160a060020a031681600160a060020a0316837f2f8788117e7eff1d82e926ec794901d17c78024a50270940304540a733656f0d60405160405180910390a45050565b61269e82826118f0565b15610eac576000828152606560209081526040808320600160a060020a0385168085529252808320805460ff1916905551339285917ff6391f5c32d9c69d2a47ea670b442974b53935d1edc7fd64eb21e047a839171b9190a45050565b60975460ff166127205760405160e560020a62461bcd028152600401610c7690613f56565b6097805460ff191690557f5db9ee0a495bf2e6ff9c91a7834c1ba4fdd244a5e8aa4e537bd38aeae4b073aa335b604051600160a060020a03909116815260200160405180910390a1565b600061277533610d04565b6127c45760405160e560020a62461bcd02815260206004820152601a60248201527f596f75206e6f7420696e2072656c61792077686974656c6973740000000000006044820152606401610c76565b60006127d1858585611976565b600081815260e86020908152604080832033845290915290205490915060ff16156128415760405160e560020a62461bcd02815260206004820152601f60248201527f596f75206861766520616c726561647920636f6e6669726d65642074686973006044820152606401610c76565b600061284c826111b6565b905060e75481106128a25760405160e560020a62461bcd02815260206004820152601160248201527f416c726561647920636f6e6669726d65640000000000000000000000000000006044820152606401610c76565b600082815260e8602090815260408083203380855290835292819020805460ff19166001179055518481528892917f641616eb9b807704f05e9dd7d1af6dad1fb246a364799f84895e21b368a9565b910160405180910390a360e754612909826001614145565b10159695505050505050565b60d4546129229042614145565b600082815260cb60205260408120600101919091555b828110156110bb57600082815260cb6020526040902084848381811061296057612960614248565b83546001810185556000948552602090942060609091029290920192600302909101905061298e828261427a565b5050808061299b906141fb565b915050612938565b60975460ff16156129c95760405160e560020a62461bcd028152600401610c7690613f8d565b6097805460ff191660011790557f62e78cea01bee320cd4e420270b5ea74000d11b0c9f74754ebdbfc544b05a25861274d3390565b60005b8351811015612a3e57612a2c848281518110612a1f57612a1f614248565b60200260200101516133df565b80612a36816141fb565b915050612a01565b5060005b8251811015612a7f57612a6d838281518110612a6057612a60614248565b6020026020010151613567565b80612a77816141fb565b915050612a42565b508060e75414610d945760e78190556040518181527f6d209fce46041fa384c715150b59ebd0bf9e74509fc58c21b73b490f4ff2bbec9060200160405180910390a1505050565b60005b8151811015610eac576000600160a060020a0316828281518110612aef57612aef614248565b602002602001015160000151600160a060020a03161415612c0b5760ce548251600160a060020a0390911690632e1a7d4d90849084908110612b3357612b33614248565b6020026020010151604001516040518263ffffffff1660e060020a028152600401612b6091815260200190565b600060405180830381600087803b158015612b7a57600080fd5b505af1158015612b8e573d6000803e3d6000fd5b50505050818181518110612ba457612ba4614248565b602002602001015160200151600160a060020a03166108fc838381518110612bce57612bce614248565b6020026020010151604001519081150290604051600060405180830381858888f19350505050158015612c05573d6000803e3d6000fd5b50612d48565b818181518110612c1d57612c1d614248565b602002602001015160000151600160a060020a031663a9059cbb838381518110612c4957612c49614248565b602002602001015160200151848481518110612c6757612c67614248565b6020026020010151604001516040518363ffffffff1660e060020a028152600401612ca7929190600160a060020a03929092168252602082015260400190565b602060405180830381600087803b158015612cc157600080fd5b505af1158015612cd5573d6000803e3d6000fd5b505050506040513d601f19601f82011682018060405250810190612cf99190613b8b565b612d485760405160e560020a62461bcd02815260206004820152601360248201527f4661696c207472616e7366657220636f696e73000000000000000000000000006044820152606401610c76565b80612d52816141fb565b915050612ac9565b60008080612d6a6107084261415d565b905060005b60c954811015612eb4576040516c01000000000000000000000000600160a060020a038c160260208201526034810183905260548101889052607481018790526094810186905260b40160408051601f198184030181529082905280516020918201207f19457468657265756d205369676e6564204d6573736167653a0a33320000000091830191909152603c820152605c01604051602081830303815290604052805190602001209350612e5a848a8a8080601f01602080910402602001604051908101604052809392919081815260200183838082843760009201919091525061363892505050565b9250612e867f516d5e7ed3e60a6b2804c1554cd94bc2eb576e44b192a0e069d4c527589a887e846118f0565b15612e945750505050612606565b81612e9e816141e4565b9250508080612eac906141fb565b915050612d6f565b5060405160e560020a62461bcd02815260206004820152601660248201527f5369676e617475726520636865636b206661696c6564000000000000000000006044820152606401610c76565b600060d35442612f10919061415d565b905060d7548114610f985760d68054906000612f2b836141fb565b919050557fe15729a2f427aa4572dab35eb692c902fcbce57d41642013259c741380809ae260ca604051612f5f9190613eb3565b60405180910390a2612f7360ca60006136c3565b60d755565b610eac828261260e565b600054610100900460ff1680612f9b575060005460ff16155b612fba5760405160e560020a62461bcd028152600401610c7690613fc4565b600054610100900460ff16158015612fdc576000805461ffff19166101011790555b612fe7600033612f78565b61301b7f077a1d526a4ce8a773632ab13b4fbbf1fcc954c3dab26cd27ea0e2a6750da5d7611bfa6060850160408601613873565b61303d6000805160206142fd833981519152611bfa6040850160208601613873565b61305d6130506080840160608501613873565b610a4e60808501856140fc565b61307f61306d60c08401846140fc565b61307a60e08601866140fc565b6124ed565b61308f60c0830160a08401613873565b60ce8054600160a060020a031916600160a060020a03929092169190911790556130bc6020830183613873565b60d18054600160a060020a031916600160a060020a03929092169190911790556130ee61012083016101008401613873565b60cf8054600160a060020a031916600160a060020a039290921691909117905561312061014083016101208401613873565b60d08054600160a060020a031916600160a060020a039290921691909117905561018082013560d25561014082013560d381905561016083013560d455600160cc81905560d655600360c955613176904261415d565b60d7558015610eac576000805461ff00191690555050565b6060600061319d836002614182565b6131a8906002614145565b67ffffffffffffffff8111156131c0576131c0614261565b6040519080825280601f01601f1916602001820160405280156131ea576020820181803683370190505b5090507f30000000000000000000000000000000000000000000000000000000000000008160008151811061322157613221614248565b60200101907effffffffffffffffffffffffffffffffffffffffffffffffffffffffffffff1916908160001a9053507f78000000000000000000000000000000000000000000000000000000000000008160018151811061328457613284614248565b60200101907effffffffffffffffffffffffffffffffffffffffffffffffffffffffffffff1916908160001a90535060006132c0846002614182565b6132cb906001614145565b90505b6001811115613386577f303132333435363738396162636465660000000000000000000000000000000085600f166010811061330c5761330c614248565b1a7f01000000000000000000000000000000000000000000000000000000000000000282828151811061334157613341614248565b60200101907effffffffffffffffffffffffffffffffffffffffffffffffffffffffffffff1916908160001a90535060109094049361337f816141e4565b90506132ce565b5083156133d85760405160e560020a62461bcd02815260206004820181905260248201527f537472696e67733a20686578206c656e67746820696e73756666696369656e746044820152606401610c76565b9392505050565b60005b60e95481101561351b5781600160a060020a031660e9828154811061340957613409614248565b600091825260209091200154600160a060020a031614156135095760e98054613434906001906141a1565b8154811061344457613444614248565b60009182526020909120015460e98054600160a060020a03909216918390811061347057613470614248565b9060005260206000200160006101000a815481600160a060020a030219169083600160a060020a0316021790555060e98054806134af576134af61422f565b60008281526020812082016000199081018054600160a060020a0319169055909101909155604051600160a060020a038416917f709f812fac579d78683917073998a39146cfb3fa691a5710de2bddca713b3a6091a25050565b80613513816141fb565b9150506133e2565b5060405160e560020a62461bcd02815260206004820152600b60248201527f4e6f7420612072656c61790000000000000000000000000000000000000000006044820152606401610c76565b61357081610d04565b156135c05760405160e560020a62461bcd02815260206004820152600d60248201527f416c72656164792072656c6179000000000000000000000000000000000000006044820152606401610c76565b60e9805460018101825560009182527fea6426b4b8d70caa8ece9a88fb0a9d4a6b817bb4a43ac6fbef64cb0e589129ee018054600160a060020a031916600160a060020a03841690811790915560405190917f7b73cb1bdb35a4aa024a40092050eb3e988b8591cc448e46634cf380f8f1255d91a250565b6020810151604082015160608301516000929190831a601b81101561365b57601b015b60408051600081526020810180835288905260ff831691810191909152606081018490526080810183905260019060a0016020604051602081039080840390855afa1580156136ae573d6000803e3d6000fd5b5050604051601f190151979650505050505050565b5080546000825560030290600052602060002090810190610f989190613749565b828054828255906000526020600020908101928215613739579160200282015b828111156137395782518254600160a060020a031916600160a060020a03909116178255602090920191600190910190613704565b5061374592915061377c565b5090565b5b80821115613745578054600160a060020a0319908116825560018201805490911690556000600282015560030161374a565b5b80821115613745576000815560010161377d565b803561379c816142d9565b919050565b60008083601f8401126137b357600080fd5b50813567ffffffffffffffff8111156137cb57600080fd5b60208301915083602080830285010111156137e557600080fd5b9250929050565b60008083601f8401126137fe57600080fd5b50813567ffffffffffffffff81111561381657600080fd5b6020830191508360206060830285010111156137e557600080fd5b60008083601f84011261384357600080fd5b50813567ffffffffffffffff81111561385b57600080fd5b6020830191508360208285010111156137e557600080fd5b60006020828403121561388557600080fd5b81356133d8816142d9565b600080604083850312156138a357600080fd5b82356138ae816142d9565b915060208301356138be816142d9565b809150509250929050565b60008060008060008060008060e0898b0312156138e557600080fd5b88356138f0816142d9565b97506020890135613900816142d9565b9650604089013595506060890135613917816142ee565b9450608089013567ffffffffffffffff81111561393357600080fd5b61393f8b828c01613831565b999c989b5096999598969760a08701359660c0013595509350505050565b60008060006040848603121561397257600080fd5b833561397d816142d9565b9250602084013567ffffffffffffffff81111561399957600080fd5b6139a5868287016137a1565b9497909650939450505050565b6000806000806000608086880312156139ca57600080fd5b85356139d5816142d9565b9450602086013567ffffffffffffffff8111156139f157600080fd5b6139fd88828901613831565b9699909850959660408101359660609091013595509350505050565b60008060008060608587031215613a2f57600080fd5b8435613a3a816142d9565b935060208501359250604085013567ffffffffffffffff811115613a5d57600080fd5b613a69878288016137ec565b95989497509550505050565b60008060208385031215613a8857600080fd5b823567ffffffffffffffff811115613a9f57600080fd5b613aab858286016137a1565b90969095509350505050565b60008060008060408587031215613acd57600080fd5b843567ffffffffffffffff80821115613ae557600080fd5b613af1888389016137a1565b90965094506020870135915080821115613b0a57600080fd5b50613a69878288016137a1565b600080600080600060608688031215613b2f57600080fd5b853567ffffffffffffffff80821115613b4757600080fd5b613b5389838a016137a1565b90975095506020880135915080821115613b6c57600080fd5b50613b79888289016137a1565b96999598509660400135949350505050565b600060208284031215613b9d57600080fd5b81516133d8816142ee565b600060208284031215613bba57600080fd5b5035919050565b60008060408385031215613bd457600080fd5b8235915060208301356138be816142d9565b600060208284031215613bf857600080fd5b81357bffffffffffffffffffffffffffffffffffffffffffffffffffffffff19811681146133d857600080fd5b60008060008060608587031215613c3b57600080fd5b843567ffffffffffffffff80821115613c5357600080fd5b908601906101a08289031215613c6857600080fd5b9094506020860135935060408601359080821115613b0a57600080fd5b60008060408385031215613c9857600080fd5b8235915060208084013567ffffffffffffffff80821115613cb857600080fd5b818601915086601f830112613ccc57600080fd5b813581811115613cde57613cde614261565b838102604051601f19603f83011681018181108582111715613d0257613d02614261565b604052828152858101935084860182860187018b1015613d2157600080fd5b600095505b83861015613d4b57613d3781613791565b855260019590950194938601938601613d26565b508096505050505050509250929050565b600080600060408486031215613d7157600080fd5b83359250602084013567ffffffffffffffff811115613d8f57600080fd5b6139a5868287016137ec565b60008551613dad818460208a016141b8565b91909101938452506c01000000000000000000000000600160a060020a03928316810260208501529116026034820152604801919050565b7f416363657373436f6e74726f6c3a206163636f756e7420000000000000000000815260008351613e1d8160178501602088016141b8565b7f206973206d697373696e6720726f6c65200000000000000000000000000000006017918401918201528351613e5a8160288401602088016141b8565b01602801949350505050565b6020808252825182820181905260009190848201906040850190845b81811015613ea7578351600160a060020a031683529284019291840191600101613e82565b50909695505050505050565b60006020808301818452808554808352604092508286019150866000528360002060005b82811015613f16578154600160a060020a0390811685526001808401549091168786015260028301548686015260609094019360039092019101613ed7565b5091979650505050505050565b6020815260008251806020840152613f428160408501602087016141b8565b601f01601f19169190910160400192915050565b60208082526014908201527f5061757361626c653a206e6f7420706175736564000000000000000000000000604082015260600190565b60208082526010908201527f5061757361626c653a2070617573656400000000000000000000000000000000604082015260600190565b6020808252602e908201527f496e697469616c697a61626c653a20636f6e747261637420697320616c72656160408201527f647920696e697469616c697a6564000000000000000000000000000000000000606082015260800190565b60208082526026908201527f6576656e744964206d757374206265203e3d206f6c646573744c6f636b65644560408201527f76656e7449640000000000000000000000000000000000000000000000000000606082015260800190565b6000602080835260608084018551604080858801528282518085526080890191508684019450600093505b808410156140e65784518051600160a060020a039081168452888201511688840152830151838301529386019360019390930192908501906140a9565b5094909701519590960194909452509392505050565b6000808335601e1984360301811261411357600080fd5b83018035915067ffffffffffffffff82111561412e57600080fd5b60209081019250810236038213156137e557600080fd5b6000821982111561415857614158614216565b500190565b60008261417d5760e060020a634e487b7102600052601260045260246000fd5b500490565b600081600019048311821515161561419c5761419c614216565b500290565b6000828210156141b3576141b3614216565b500390565b60005b838110156141d35781810151838201526020016141bb565b838111156110bb5750506000910152565b6000816141f3576141f3614216565b506000190190565b600060001982141561420f5761420f614216565b5060010190565b60e060020a634e487b7102600052601160045260246000fd5b60e060020a634e487b7102600052603160045260246000fd5b60e060020a634e487b7102600052603260045260246000fd5b60e060020a634e487b7102600052604160045260246000fd5b8135614285816142d9565b8154600160a060020a031916600160a060020a0382161782555060208201356142ad816142d9565b600182018054600160a060020a031916600160a060020a03831617905550604082013560028201555050565b600160a060020a0381168114610f9857600080fd5b8015158114610f9857600080fdfea49807205ce4d355092ef5a8a18f56e8913cf4a201fbe287825b095693c21775a2646970667358221220a86947ddab640306d90cd449d65ea252d0e8e0c0a8b387799cad9136d0faad4a64736f6c63430008060033",
  "devdoc": {
    "kind": "dev",
    "methods": {
      "getRoleAdmin(bytes32)": {
        "details": "Returns the admin role that controls `role`. See {grantRole} and {revokeRole}. To change a role's admin, use {_setRoleAdmin}."
      },
      "grantRole(bytes32,address)": {
        "details": "Grants `role` to `account`. If `account` had not been already granted `role`, emits a {RoleGranted} event. Requirements: - the caller must have ``role``'s admin role."
      },
      "hasRole(bytes32,address)": {
        "details": "Returns `true` if `account` has been granted `role`."
      },
      "paused()": {
        "details": "Returns true if the contract is paused, and false otherwise."
      },
      "renounceRole(bytes32,address)": {
        "details": "Revokes `role` from the calling account. Roles are often managed via {grantRole} and {revokeRole}: this function's purpose is to provide a mechanism for accounts to lose their privileges if they are compromised (such as when a trusted device is misplaced). If the calling account had been granted `role`, emits a {RoleRevoked} event. Requirements: - the caller must be `account`."
      },
      "revokeRole(bytes32,address)": {
        "details": "Revokes `role` from `account`. If `account` had been granted `role`, emits a {RoleRevoked} event. Requirements: - the caller must have ``role``'s admin role."
      },
      "supportsInterface(bytes4)": {
        "details": "See {IERC165-supportsInterface}."
      },
      "withdraw(address,address,uint256,bool,bytes,uint256,uint256)": {
        "params": {
          "bridgeFee": "Amount (in native coins), payed as bridge earnings",
          "feeSignature": "Signature signed by relay that confirms that the fee values are valid",
          "transferFee": "Amount (in native coins), payed to compensate gas fees in side network"
        }
      },
      "wrapWithdraw(address,bytes,uint256,uint256)": {
        "params": {
          "bridgeFee": "Amount (in native coins), payed as bridge earnings",
          "feeSignature": "Signature signed by relay that confirms that the fee values are valid",
          "toAddress": "Address in side network that will receive the tokens",
          "transferFee": "Amount (in native coins), payed to compensate gas fees in side network"
        }
      }
    },
    "version": 1
  },
  "userdoc": {
    "kind": "user",
    "methods": {},
    "version": 1
  },
  "storageLayout": {
    "storage": [
      {
        "astId": 413,
        "contract": "contracts/networks/ETH_AmbBridge.sol:ETH_AmbBridge",
        "label": "_initialized",
        "offset": 0,
        "slot": "0",
        "type": "t_bool"
      },
      {
        "astId": 416,
        "contract": "contracts/networks/ETH_AmbBridge.sol:ETH_AmbBridge",
        "label": "_initializing",
        "offset": 1,
        "slot": "0",
        "type": "t_bool"
      },
      {
        "astId": 609,
        "contract": "contracts/networks/ETH_AmbBridge.sol:ETH_AmbBridge",
        "label": "__gap",
        "offset": 0,
        "slot": "1",
        "type": "t_array(t_uint256)50_storage"
      },
      {
        "astId": 858,
        "contract": "contracts/networks/ETH_AmbBridge.sol:ETH_AmbBridge",
        "label": "__gap",
        "offset": 0,
        "slot": "51",
        "type": "t_array(t_uint256)50_storage"
      },
      {
        "astId": 48,
        "contract": "contracts/networks/ETH_AmbBridge.sol:ETH_AmbBridge",
        "label": "_roles",
        "offset": 0,
        "slot": "101",
        "type": "t_mapping(t_bytes32,t_struct(RoleData)43_storage)"
      },
      {
        "astId": 333,
        "contract": "contracts/networks/ETH_AmbBridge.sol:ETH_AmbBridge",
        "label": "__gap",
        "offset": 0,
        "slot": "102",
        "type": "t_array(t_uint256)49_storage"
      },
      {
        "astId": 474,
        "contract": "contracts/networks/ETH_AmbBridge.sol:ETH_AmbBridge",
        "label": "_paused",
        "offset": 0,
        "slot": "151",
        "type": "t_bool"
      },
      {
        "astId": 565,
        "contract": "contracts/networks/ETH_AmbBridge.sol:ETH_AmbBridge",
        "label": "__gap",
        "offset": 0,
        "slot": "152",
        "type": "t_array(t_uint256)49_storage"
      },
      {
        "astId": 6726,
        "contract": "contracts/networks/ETH_AmbBridge.sol:ETH_AmbBridge",
        "label": "signatureFeeCheckNumber",
        "offset": 0,
        "slot": "201",
        "type": "t_uint256"
      },
      {
        "astId": 6730,
        "contract": "contracts/networks/ETH_AmbBridge.sol:ETH_AmbBridge",
        "label": "queue",
        "offset": 0,
        "slot": "202",
        "type": "t_array(t_struct(Transfer)7888_storage)dyn_storage"
      },
      {
        "astId": 6735,
        "contract": "contracts/networks/ETH_AmbBridge.sol:ETH_AmbBridge",
        "label": "lockedTransfers",
        "offset": 0,
        "slot": "203",
        "type": "t_mapping(t_uint256,t_struct(LockedTransfers)7905_storage)"
      },
      {
        "astId": 6737,
        "contract": "contracts/networks/ETH_AmbBridge.sol:ETH_AmbBridge",
        "label": "oldestLockedEventId",
        "offset": 0,
        "slot": "204",
        "type": "t_uint256"
      },
      {
        "astId": 6741,
        "contract": "contracts/networks/ETH_AmbBridge.sol:ETH_AmbBridge",
        "label": "tokenAddresses",
        "offset": 0,
        "slot": "205",
        "type": "t_mapping(t_address,t_address)"
      },
      {
        "astId": 6743,
        "contract": "contracts/networks/ETH_AmbBridge.sol:ETH_AmbBridge",
        "label": "wrapperAddress",
        "offset": 0,
        "slot": "206",
        "type": "t_address"
      },
      {
        "astId": 6745,
        "contract": "contracts/networks/ETH_AmbBridge.sol:ETH_AmbBridge",
        "label": "transferFeeRecipient",
        "offset": 0,
        "slot": "207",
        "type": "t_address_payable"
      },
      {
        "astId": 6747,
        "contract": "contracts/networks/ETH_AmbBridge.sol:ETH_AmbBridge",
        "label": "bridgeFeeRecipient",
        "offset": 0,
        "slot": "208",
        "type": "t_address_payable"
      },
      {
        "astId": 6749,
        "contract": "contracts/networks/ETH_AmbBridge.sol:ETH_AmbBridge",
        "label": "sideBridgeAddress",
        "offset": 0,
        "slot": "209",
        "type": "t_address"
      },
      {
        "astId": 6751,
        "contract": "contracts/networks/ETH_AmbBridge.sol:ETH_AmbBridge",
        "label": "minSafetyBlocks",
        "offset": 0,
        "slot": "210",
        "type": "t_uint256"
      },
      {
        "astId": 6753,
        "contract": "contracts/networks/ETH_AmbBridge.sol:ETH_AmbBridge",
        "label": "timeframeSeconds",
        "offset": 0,
        "slot": "211",
        "type": "t_uint256"
      },
      {
        "astId": 6755,
        "contract": "contracts/networks/ETH_AmbBridge.sol:ETH_AmbBridge",
        "label": "lockTime",
        "offset": 0,
        "slot": "212",
        "type": "t_uint256"
      },
      {
        "astId": 6757,
        "contract": "contracts/networks/ETH_AmbBridge.sol:ETH_AmbBridge",
        "label": "inputEventId",
        "offset": 0,
        "slot": "213",
        "type": "t_uint256"
      },
      {
        "astId": 6759,
        "contract": "contracts/networks/ETH_AmbBridge.sol:ETH_AmbBridge",
        "label": "outputEventId",
        "offset": 0,
        "slot": "214",
        "type": "t_uint256"
      },
      {
        "astId": 6761,
        "contract": "contracts/networks/ETH_AmbBridge.sol:ETH_AmbBridge",
        "label": "lastTimeframe",
        "offset": 0,
        "slot": "215",
        "type": "t_uint256"
      },
      {
        "astId": 7878,
        "contract": "contracts/networks/ETH_AmbBridge.sol:ETH_AmbBridge",
        "label": "__gap",
        "offset": 0,
        "slot": "216",
        "type": "t_array(t_uint256)15_storage"
      },
      {
        "astId": 6249,
        "contract": "contracts/networks/ETH_AmbBridge.sol:ETH_AmbBridge",
        "label": "confirmationsThreshold",
        "offset": 0,
        "slot": "231",
        "type": "t_uint256"
      },
      {
        "astId": 6255,
        "contract": "contracts/networks/ETH_AmbBridge.sol:ETH_AmbBridge",
        "label": "confirmations",
        "offset": 0,
        "slot": "232",
        "type": "t_mapping(t_bytes32,t_mapping(t_address,t_bool))"
      },
      {
        "astId": 6258,
        "contract": "contracts/networks/ETH_AmbBridge.sol:ETH_AmbBridge",
        "label": "relays",
        "offset": 0,
        "slot": "233",
        "type": "t_array(t_address)dyn_storage"
      },
      {
        "astId": 6648,
        "contract": "contracts/networks/ETH_AmbBridge.sol:ETH_AmbBridge",
        "label": "___gap",
        "offset": 0,
        "slot": "234",
        "type": "t_array(t_uint256)15_storage"
      }
    ],
    "types": {
      "t_address": {
        "encoding": "inplace",
        "label": "address",
        "numberOfBytes": "20"
      },
      "t_address_payable": {
        "encoding": "inplace",
        "label": "address payable",
        "numberOfBytes": "20"
      },
      "t_array(t_address)dyn_storage": {
        "base": "t_address",
        "encoding": "dynamic_array",
        "label": "address[]",
        "numberOfBytes": "32"
      },
      "t_array(t_struct(Transfer)7888_storage)dyn_storage": {
        "base": "t_struct(Transfer)7888_storage",
        "encoding": "dynamic_array",
        "label": "struct CommonStructs.Transfer[]",
        "numberOfBytes": "32"
      },
      "t_array(t_uint256)15_storage": {
        "base": "t_uint256",
        "encoding": "inplace",
        "label": "uint256[15]",
        "numberOfBytes": "480"
      },
      "t_array(t_uint256)49_storage": {
        "base": "t_uint256",
        "encoding": "inplace",
        "label": "uint256[49]",
        "numberOfBytes": "1568"
      },
      "t_array(t_uint256)50_storage": {
        "base": "t_uint256",
        "encoding": "inplace",
        "label": "uint256[50]",
        "numberOfBytes": "1600"
      },
      "t_bool": {
        "encoding": "inplace",
        "label": "bool",
        "numberOfBytes": "1"
      },
      "t_bytes32": {
        "encoding": "inplace",
        "label": "bytes32",
        "numberOfBytes": "32"
      },
      "t_mapping(t_address,t_address)": {
        "encoding": "mapping",
        "key": "t_address",
        "label": "mapping(address => address)",
        "numberOfBytes": "32",
        "value": "t_address"
      },
      "t_mapping(t_address,t_bool)": {
        "encoding": "mapping",
        "key": "t_address",
        "label": "mapping(address => bool)",
        "numberOfBytes": "32",
        "value": "t_bool"
      },
      "t_mapping(t_bytes32,t_mapping(t_address,t_bool))": {
        "encoding": "mapping",
        "key": "t_bytes32",
        "label": "mapping(bytes32 => mapping(address => bool))",
        "numberOfBytes": "32",
        "value": "t_mapping(t_address,t_bool)"
      },
      "t_mapping(t_bytes32,t_struct(RoleData)43_storage)": {
        "encoding": "mapping",
        "key": "t_bytes32",
        "label": "mapping(bytes32 => struct AccessControlUpgradeable.RoleData)",
        "numberOfBytes": "32",
        "value": "t_struct(RoleData)43_storage"
      },
      "t_mapping(t_uint256,t_struct(LockedTransfers)7905_storage)": {
        "encoding": "mapping",
        "key": "t_uint256",
        "label": "mapping(uint256 => struct CommonStructs.LockedTransfers)",
        "numberOfBytes": "32",
        "value": "t_struct(LockedTransfers)7905_storage"
      },
      "t_struct(LockedTransfers)7905_storage": {
        "encoding": "inplace",
        "label": "struct CommonStructs.LockedTransfers",
        "members": [
          {
            "astId": 7902,
            "contract": "contracts/networks/ETH_AmbBridge.sol:ETH_AmbBridge",
            "label": "transfers",
            "offset": 0,
            "slot": "0",
            "type": "t_array(t_struct(Transfer)7888_storage)dyn_storage"
          },
          {
            "astId": 7904,
            "contract": "contracts/networks/ETH_AmbBridge.sol:ETH_AmbBridge",
            "label": "endTimestamp",
            "offset": 0,
            "slot": "1",
            "type": "t_uint256"
          }
        ],
        "numberOfBytes": "64"
      },
      "t_struct(RoleData)43_storage": {
        "encoding": "inplace",
        "label": "struct AccessControlUpgradeable.RoleData",
        "members": [
          {
            "astId": 40,
            "contract": "contracts/networks/ETH_AmbBridge.sol:ETH_AmbBridge",
            "label": "members",
            "offset": 0,
            "slot": "0",
            "type": "t_mapping(t_address,t_bool)"
          },
          {
            "astId": 42,
            "contract": "contracts/networks/ETH_AmbBridge.sol:ETH_AmbBridge",
            "label": "adminRole",
            "offset": 0,
            "slot": "1",
            "type": "t_bytes32"
          }
        ],
        "numberOfBytes": "64"
      },
      "t_struct(Transfer)7888_storage": {
        "encoding": "inplace",
        "label": "struct CommonStructs.Transfer",
        "members": [
          {
            "astId": 7883,
            "contract": "contracts/networks/ETH_AmbBridge.sol:ETH_AmbBridge",
            "label": "tokenAddress",
            "offset": 0,
            "slot": "0",
            "type": "t_address"
          },
          {
            "astId": 7885,
            "contract": "contracts/networks/ETH_AmbBridge.sol:ETH_AmbBridge",
            "label": "toAddress",
            "offset": 0,
            "slot": "1",
            "type": "t_address"
          },
          {
            "astId": 7887,
            "contract": "contracts/networks/ETH_AmbBridge.sol:ETH_AmbBridge",
            "label": "amount",
            "offset": 0,
            "slot": "2",
            "type": "t_uint256"
          }
        ],
        "numberOfBytes": "96"
      },
      "t_uint256": {
        "encoding": "inplace",
        "label": "uint256",
        "numberOfBytes": "32"
      }
    }
  }
}