{
  "address": "0x4c13c56BA7543465c967e9CB3669047Ff78049D8",
  "abi": [
    {
      "anonymous": false,
      "inputs": [
        {
          "indexed": false,
          "internalType": "address",
          "name": "account",
          "type": "address"
        }
      ],
      "name": "Paused",
      "type": "event"
    },
    {
      "anonymous": false,
      "inputs": [
        {
          "indexed": true,
          "internalType": "address",
          "name": "relay",
          "type": "address"
        }
      ],
      "name": "RelayAdd",
      "type": "event"
    },
    {
      "anonymous": false,
      "inputs": [
        {
          "indexed": true,
          "internalType": "address",
          "name": "sender",
          "type": "address"
        },
        {
          "indexed": true,
          "internalType": "uint256",
          "name": "eventId",
          "type": "uint256"
        },
        {
          "indexed": false,
          "internalType": "bytes32",
          "name": "hash",
          "type": "bytes32"
        }
      ],
      "name": "RelayConfirmation",
      "type": "event"
    },
    {
      "anonymous": false,
      "inputs": [
        {
          "indexed": true,
          "internalType": "address",
          "name": "relay",
          "type": "address"
        }
      ],
      "name": "RelayRemove",
      "type": "event"
    },
    {
      "anonymous": false,
      "inputs": [
        {
          "indexed": true,
          "internalType": "bytes32",
          "name": "role",
          "type": "bytes32"
        },
        {
          "indexed": true,
          "internalType": "bytes32",
          "name": "previousAdminRole",
          "type": "bytes32"
        },
        {
          "indexed": true,
          "internalType": "bytes32",
          "name": "newAdminRole",
          "type": "bytes32"
        }
      ],
      "name": "RoleAdminChanged",
      "type": "event"
    },
    {
      "anonymous": false,
      "inputs": [
        {
          "indexed": true,
          "internalType": "bytes32",
          "name": "role",
          "type": "bytes32"
        },
        {
          "indexed": true,
          "internalType": "address",
          "name": "account",
          "type": "address"
        },
        {
          "indexed": true,
          "internalType": "address",
          "name": "sender",
          "type": "address"
        }
      ],
      "name": "RoleGranted",
      "type": "event"
    },
    {
      "anonymous": false,
      "inputs": [
        {
          "indexed": true,
          "internalType": "bytes32",
          "name": "role",
          "type": "bytes32"
        },
        {
          "indexed": true,
          "internalType": "address",
          "name": "account",
          "type": "address"
        },
        {
          "indexed": true,
          "internalType": "address",
          "name": "sender",
          "type": "address"
        }
      ],
      "name": "RoleRevoked",
      "type": "event"
    },
    {
      "anonymous": false,
      "inputs": [
        {
          "indexed": false,
          "internalType": "uint256",
          "name": "newThreshold",
          "type": "uint256"
        }
      ],
      "name": "ThresholdChange",
      "type": "event"
    },
    {
      "anonymous": false,
      "inputs": [
        {
          "indexed": true,
          "internalType": "uint256",
          "name": "eventId",
          "type": "uint256"
        },
        {
          "components": [
            {
              "internalType": "address",
              "name": "tokenAddress",
              "type": "address"
            },
            {
              "internalType": "address",
              "name": "toAddress",
              "type": "address"
            },
            {
              "internalType": "uint256",
              "name": "amount",
              "type": "uint256"
            }
          ],
          "indexed": false,
          "internalType": "struct CommonStructs.Transfer[]",
          "name": "queue",
          "type": "tuple[]"
        }
      ],
      "name": "Transfer",
      "type": "event"
    },
    {
      "anonymous": false,
      "inputs": [
        {
          "indexed": true,
          "internalType": "uint256",
          "name": "eventId",
          "type": "uint256"
        }
      ],
      "name": "TransferFinish",
      "type": "event"
    },
    {
      "anonymous": false,
      "inputs": [
        {
          "indexed": true,
          "internalType": "uint256",
          "name": "eventId",
          "type": "uint256"
        }
      ],
      "name": "TransferSubmit",
      "type": "event"
    },
    {
      "anonymous": false,
      "inputs": [
        {
          "indexed": false,
          "internalType": "address",
          "name": "account",
          "type": "address"
        }
      ],
      "name": "Unpaused",
      "type": "event"
    },
    {
      "anonymous": false,
      "inputs": [
        {
          "indexed": true,
          "internalType": "address",
          "name": "from",
          "type": "address"
        },
        {
          "indexed": false,
          "internalType": "uint256",
          "name": "eventId",
          "type": "uint256"
        },
        {
          "indexed": false,
          "internalType": "address",
          "name": "tokenFrom",
          "type": "address"
        },
        {
          "indexed": false,
          "internalType": "address",
          "name": "tokenTo",
          "type": "address"
        },
        {
          "indexed": false,
          "internalType": "uint256",
          "name": "amount",
          "type": "uint256"
        },
        {
          "indexed": false,
          "internalType": "uint256",
          "name": "transferFeeAmount",
          "type": "uint256"
        },
        {
          "indexed": false,
          "internalType": "uint256",
          "name": "bridgeFeeAmount",
          "type": "uint256"
        }
      ],
      "name": "Withdraw",
      "type": "event"
    },
    {
      "inputs": [],
      "name": "ADMIN_ROLE",
      "outputs": [
        {
          "internalType": "bytes32",
          "name": "",
          "type": "bytes32"
        }
      ],
      "stateMutability": "view",
      "type": "function"
    },
    {
      "inputs": [],
      "name": "DEFAULT_ADMIN_ROLE",
      "outputs": [
        {
          "internalType": "bytes32",
          "name": "",
          "type": "bytes32"
        }
      ],
      "stateMutability": "view",
      "type": "function"
    },
    {
      "inputs": [],
      "name": "FEE_PROVIDER_ROLE",
      "outputs": [
        {
          "internalType": "bytes32",
          "name": "",
          "type": "bytes32"
        }
      ],
      "stateMutability": "view",
      "type": "function"
    },
    {
      "inputs": [],
      "name": "RELAY_ROLE",
      "outputs": [
        {
          "internalType": "bytes32",
          "name": "",
          "type": "bytes32"
        }
      ],
      "stateMutability": "view",
      "type": "function"
    },
    {
      "inputs": [],
      "name": "WATCHDOG_ROLE",
      "outputs": [
        {
          "internalType": "bytes32",
          "name": "",
          "type": "bytes32"
        }
      ],
      "stateMutability": "view",
      "type": "function"
    },
    {
      "inputs": [],
      "name": "bridgeFeeRecipient",
      "outputs": [
        {
          "internalType": "address payable",
          "name": "",
          "type": "address"
        }
      ],
      "stateMutability": "view",
      "type": "function"
    },
    {
      "inputs": [
        {
          "internalType": "address payable",
          "name": "feeRecipient_",
          "type": "address"
        }
      ],
      "name": "changeBridgeFeeRecipient",
      "outputs": [],
      "stateMutability": "nonpayable",
      "type": "function"
    },
    {
      "inputs": [
        {
          "internalType": "uint256",
          "name": "lockTime_",
          "type": "uint256"
        }
      ],
      "name": "changeLockTime",
      "outputs": [],
      "stateMutability": "nonpayable",
      "type": "function"
    },
    {
      "inputs": [
        {
          "internalType": "uint256",
          "name": "minSafetyBlocks_",
          "type": "uint256"
        }
      ],
      "name": "changeMinSafetyBlocks",
      "outputs": [],
      "stateMutability": "nonpayable",
      "type": "function"
    },
    {
      "inputs": [
        {
          "internalType": "uint256",
          "name": "signatureFeeCheckNumber_",
          "type": "uint256"
        }
      ],
      "name": "changeSignatureFeeCheckNumber",
      "outputs": [],
      "stateMutability": "nonpayable",
      "type": "function"
    },
    {
      "inputs": [
        {
          "internalType": "uint256",
          "name": "timeframeSeconds_",
          "type": "uint256"
        }
      ],
      "name": "changeTimeframeSeconds",
      "outputs": [],
      "stateMutability": "nonpayable",
      "type": "function"
    },
    {
      "inputs": [
        {
          "internalType": "address payable",
          "name": "feeRecipient_",
          "type": "address"
        }
      ],
      "name": "changeTransferFeeRecipient",
      "outputs": [],
      "stateMutability": "nonpayable",
      "type": "function"
    },
    {
      "inputs": [
        {
          "internalType": "bytes32",
          "name": "",
          "type": "bytes32"
        },
        {
          "internalType": "address",
          "name": "",
          "type": "address"
        }
      ],
      "name": "confirmations",
      "outputs": [
        {
          "internalType": "bool",
          "name": "",
          "type": "bool"
        }
      ],
      "stateMutability": "view",
      "type": "function"
    },
    {
      "inputs": [],
      "name": "confirmationsThreshold",
      "outputs": [
        {
          "internalType": "uint256",
          "name": "",
          "type": "uint256"
        }
      ],
      "stateMutability": "view",
      "type": "function"
    },
    {
      "inputs": [
        {
          "internalType": "bytes32",
          "name": "hash",
          "type": "bytes32"
        }
      ],
      "name": "confirmedCount",
      "outputs": [
        {
          "internalType": "uint256",
          "name": "",
          "type": "uint256"
        }
      ],
      "stateMutability": "view",
      "type": "function"
    },
    {
      "inputs": [
        {
          "internalType": "uint256",
          "name": "eventId",
          "type": "uint256"
        }
      ],
      "name": "getLockedTransfers",
      "outputs": [
        {
          "components": [
            {
              "components": [
                {
                  "internalType": "address",
                  "name": "tokenAddress",
                  "type": "address"
                },
                {
                  "internalType": "address",
                  "name": "toAddress",
                  "type": "address"
                },
                {
                  "internalType": "uint256",
                  "name": "amount",
                  "type": "uint256"
                }
              ],
              "internalType": "struct CommonStructs.Transfer[]",
              "name": "transfers",
              "type": "tuple[]"
            },
            {
              "internalType": "uint256",
              "name": "endTimestamp",
              "type": "uint256"
            }
          ],
          "internalType": "struct CommonStructs.LockedTransfers",
          "name": "",
          "type": "tuple"
        }
      ],
      "stateMutability": "view",
      "type": "function"
    },
    {
      "inputs": [],
      "name": "getRelays",
      "outputs": [
        {
          "internalType": "address[]",
          "name": "",
          "type": "address[]"
        }
      ],
      "stateMutability": "view",
      "type": "function"
    },
    {
      "inputs": [
        {
          "internalType": "bytes32",
          "name": "role",
          "type": "bytes32"
        }
      ],
      "name": "getRoleAdmin",
      "outputs": [
        {
          "internalType": "bytes32",
          "name": "",
          "type": "bytes32"
        }
      ],
      "stateMutability": "view",
      "type": "function"
    },
    {
      "inputs": [
        {
          "internalType": "bytes32",
          "name": "role",
          "type": "bytes32"
        },
        {
          "internalType": "address",
          "name": "account",
          "type": "address"
        }
      ],
      "name": "grantRole",
      "outputs": [],
      "stateMutability": "nonpayable",
      "type": "function"
    },
    {
      "inputs": [
        {
          "internalType": "bytes32",
          "name": "role",
          "type": "bytes32"
        },
        {
          "internalType": "address[]",
          "name": "accounts",
          "type": "address[]"
        }
      ],
      "name": "grantRoles",
      "outputs": [],
      "stateMutability": "nonpayable",
      "type": "function"
    },
    {
      "inputs": [
        {
          "internalType": "bytes32",
          "name": "role",
          "type": "bytes32"
        },
        {
          "internalType": "address",
          "name": "account",
          "type": "address"
        }
      ],
      "name": "hasRole",
      "outputs": [
        {
          "internalType": "bool",
          "name": "",
          "type": "bool"
        }
      ],
      "stateMutability": "view",
      "type": "function"
    },
    {
      "inputs": [
        {
          "components": [
            {
              "internalType": "address",
              "name": "sideBridgeAddress",
              "type": "address"
            },
            {
              "internalType": "address",
              "name": "relayAddress",
              "type": "address"
            },
            {
              "internalType": "address[]",
              "name": "watchdogsAddresses",
              "type": "address[]"
            },
            {
              "internalType": "address",
              "name": "feeProviderAddress",
              "type": "address"
            },
            {
              "internalType": "address",
              "name": "wrappingTokenAddress",
              "type": "address"
            },
            {
              "internalType": "address[]",
              "name": "tokenThisAddresses",
              "type": "address[]"
            },
            {
              "internalType": "address[]",
              "name": "tokenSideAddresses",
              "type": "address[]"
            },
            {
              "internalType": "address payable",
              "name": "transferFeeRecipient",
              "type": "address"
            },
            {
              "internalType": "address payable",
              "name": "bridgeFeeRecipient",
              "type": "address"
            },
            {
              "internalType": "uint256",
              "name": "timeframeSeconds",
              "type": "uint256"
            },
            {
              "internalType": "uint256",
              "name": "lockTime",
              "type": "uint256"
            },
            {
              "internalType": "uint256",
              "name": "minSafetyBlocks",
              "type": "uint256"
            }
          ],
          "internalType": "struct CommonStructs.ConstructorArgs",
          "name": "args",
          "type": "tuple"
        },
        {
          "internalType": "uint256",
          "name": "_confirmations",
          "type": "uint256"
        },
        {
          "internalType": "address[]",
          "name": "_relays",
          "type": "address[]"
        }
      ],
      "name": "initialize",
      "outputs": [],
      "stateMutability": "nonpayable",
      "type": "function"
    },
    {
      "inputs": [],
      "name": "inputEventId",
      "outputs": [
        {
          "internalType": "uint256",
          "name": "",
          "type": "uint256"
        }
      ],
      "stateMutability": "view",
      "type": "function"
    },
    {
      "inputs": [
        {
          "internalType": "address",
          "name": "relay",
          "type": "address"
        },
        {
          "internalType": "uint256",
          "name": "eventId",
          "type": "uint256"
        },
        {
          "components": [
            {
              "internalType": "address",
              "name": "tokenAddress",
              "type": "address"
            },
            {
              "internalType": "address",
              "name": "toAddress",
              "type": "address"
            },
            {
              "internalType": "uint256",
              "name": "amount",
              "type": "uint256"
            }
          ],
          "internalType": "struct CommonStructs.Transfer[]",
          "name": "transfers",
          "type": "tuple[]"
        }
      ],
      "name": "isConfirmedByRelay",
      "outputs": [
        {
          "internalType": "bool",
          "name": "",
          "type": "bool"
        }
      ],
      "stateMutability": "view",
      "type": "function"
    },
    {
      "inputs": [],
      "name": "isQueueEmpty",
      "outputs": [
        {
          "internalType": "bool",
          "name": "",
          "type": "bool"
        }
      ],
      "stateMutability": "view",
      "type": "function"
    },
    {
      "inputs": [
        {
          "internalType": "address",
          "name": "relay",
          "type": "address"
        }
      ],
      "name": "isRelay",
      "outputs": [
        {
          "internalType": "bool",
          "name": "",
          "type": "bool"
        }
      ],
      "stateMutability": "view",
      "type": "function"
    },
    {
      "inputs": [],
      "name": "lastTimeframe",
      "outputs": [
        {
          "internalType": "uint256",
          "name": "",
          "type": "uint256"
        }
      ],
      "stateMutability": "view",
      "type": "function"
    },
    {
      "inputs": [],
      "name": "lockTime",
      "outputs": [
        {
          "internalType": "uint256",
          "name": "",
          "type": "uint256"
        }
      ],
      "stateMutability": "view",
      "type": "function"
    },
    {
      "inputs": [
        {
          "internalType": "uint256",
          "name": "",
          "type": "uint256"
        }
      ],
      "name": "lockedTransfers",
      "outputs": [
        {
          "internalType": "uint256",
          "name": "endTimestamp",
          "type": "uint256"
        }
      ],
      "stateMutability": "view",
      "type": "function"
    },
    {
      "inputs": [],
      "name": "minSafetyBlocks",
      "outputs": [
        {
          "internalType": "uint256",
          "name": "",
          "type": "uint256"
        }
      ],
      "stateMutability": "view",
      "type": "function"
    },
    {
      "inputs": [],
      "name": "oldestLockedEventId",
      "outputs": [
        {
          "internalType": "uint256",
          "name": "",
          "type": "uint256"
        }
      ],
      "stateMutability": "view",
      "type": "function"
    },
    {
      "inputs": [],
      "name": "outputEventId",
      "outputs": [
        {
          "internalType": "uint256",
          "name": "",
          "type": "uint256"
        }
      ],
      "stateMutability": "view",
      "type": "function"
    },
    {
      "inputs": [],
      "name": "pause",
      "outputs": [],
      "stateMutability": "nonpayable",
      "type": "function"
    },
    {
      "inputs": [],
      "name": "paused",
      "outputs": [
        {
          "internalType": "bool",
          "name": "",
          "type": "bool"
        }
      ],
      "stateMutability": "view",
      "type": "function"
    },
    {
      "inputs": [
        {
          "internalType": "uint256",
          "name": "",
          "type": "uint256"
        }
      ],
      "name": "relays",
      "outputs": [
        {
          "internalType": "address",
          "name": "",
          "type": "address"
        }
      ],
      "stateMutability": "view",
      "type": "function"
    },
    {
      "inputs": [
        {
          "internalType": "uint256",
          "name": "eventId",
          "type": "uint256"
        }
      ],
      "name": "removeLockedTransfers",
      "outputs": [],
      "stateMutability": "nonpayable",
      "type": "function"
    },
    {
      "inputs": [
        {
          "internalType": "bytes32",
          "name": "role",
          "type": "bytes32"
        },
        {
          "internalType": "address",
          "name": "account",
          "type": "address"
        }
      ],
      "name": "renounceRole",
      "outputs": [],
      "stateMutability": "nonpayable",
      "type": "function"
    },
    {
      "inputs": [
        {
          "internalType": "bytes32",
          "name": "role",
          "type": "bytes32"
        },
        {
          "internalType": "address",
          "name": "account",
          "type": "address"
        }
      ],
      "name": "revokeRole",
      "outputs": [],
      "stateMutability": "nonpayable",
      "type": "function"
    },
    {
      "inputs": [
        {
          "internalType": "bytes32",
          "name": "role",
          "type": "bytes32"
        },
        {
          "internalType": "address[]",
          "name": "accounts",
          "type": "address[]"
        }
      ],
      "name": "revokeRoles",
      "outputs": [],
      "stateMutability": "nonpayable",
      "type": "function"
    },
    {
      "inputs": [
        {
          "internalType": "address[]",
          "name": "toRemove",
          "type": "address[]"
        },
        {
          "internalType": "address[]",
          "name": "toAdd",
          "type": "address[]"
        },
        {
          "internalType": "uint256",
          "name": "_confirmations",
          "type": "uint256"
        }
      ],
      "name": "setRelaysAndConfirmations",
      "outputs": [],
      "stateMutability": "nonpayable",
      "type": "function"
    },
    {
      "inputs": [
        {
          "internalType": "address",
          "name": "_sideBridgeAddress",
          "type": "address"
        }
      ],
      "name": "setSideBridge",
      "outputs": [],
      "stateMutability": "nonpayable",
      "type": "function"
    },
    {
      "inputs": [],
      "name": "sideBridgeAddress",
      "outputs": [
        {
          "internalType": "address",
          "name": "",
          "type": "address"
        }
      ],
      "stateMutability": "view",
      "type": "function"
    },
    {
      "inputs": [
        {
          "internalType": "uint256",
          "name": "eventId",
          "type": "uint256"
        }
      ],
      "name": "skipTransfers",
      "outputs": [],
      "stateMutability": "nonpayable",
      "type": "function"
    },
    {
      "inputs": [
        {
          "internalType": "uint256",
          "name": "eventId",
          "type": "uint256"
        },
        {
          "components": [
            {
              "internalType": "address",
              "name": "tokenAddress",
              "type": "address"
            },
            {
              "internalType": "address",
              "name": "toAddress",
              "type": "address"
            },
            {
              "internalType": "uint256",
              "name": "amount",
              "type": "uint256"
            }
          ],
          "internalType": "struct CommonStructs.Transfer[]",
          "name": "transfers",
          "type": "tuple[]"
        }
      ],
      "name": "submitTransferUntrustless",
      "outputs": [],
      "stateMutability": "nonpayable",
      "type": "function"
    },
    {
      "inputs": [
        {
          "internalType": "bytes4",
          "name": "interfaceId",
          "type": "bytes4"
        }
      ],
      "name": "supportsInterface",
      "outputs": [
        {
          "internalType": "bool",
          "name": "",
          "type": "bool"
        }
      ],
      "stateMutability": "view",
      "type": "function"
    },
    {
      "inputs": [],
      "name": "timeframeSeconds",
      "outputs": [
        {
          "internalType": "uint256",
          "name": "",
          "type": "uint256"
        }
      ],
      "stateMutability": "view",
      "type": "function"
    },
    {
      "inputs": [
        {
          "internalType": "address",
          "name": "",
          "type": "address"
        }
      ],
      "name": "tokenAddresses",
      "outputs": [
        {
          "internalType": "address",
          "name": "",
          "type": "address"
        }
      ],
      "stateMutability": "view",
      "type": "function"
    },
    {
      "inputs": [
        {
          "internalType": "address",
          "name": "tokenThisAddress",
          "type": "address"
        },
        {
          "internalType": "address",
          "name": "tokenSideAddress",
          "type": "address"
        }
      ],
      "name": "tokensAdd",
      "outputs": [],
      "stateMutability": "nonpayable",
      "type": "function"
    },
    {
      "inputs": [
        {
          "internalType": "address[]",
          "name": "tokenThisAddresses",
          "type": "address[]"
        },
        {
          "internalType": "address[]",
          "name": "tokenSideAddresses",
          "type": "address[]"
        }
      ],
      "name": "tokensAddBatch",
      "outputs": [],
      "stateMutability": "nonpayable",
      "type": "function"
    },
    {
      "inputs": [
        {
          "internalType": "address",
          "name": "tokenThisAddress",
          "type": "address"
        }
      ],
      "name": "tokensRemove",
      "outputs": [],
      "stateMutability": "nonpayable",
      "type": "function"
    },
    {
      "inputs": [
        {
          "internalType": "address[]",
          "name": "tokenThisAddresses",
          "type": "address[]"
        }
      ],
      "name": "tokensRemoveBatch",
      "outputs": [],
      "stateMutability": "nonpayable",
      "type": "function"
    },
    {
      "inputs": [],
      "name": "transferFeeRecipient",
      "outputs": [
        {
          "internalType": "address payable",
          "name": "",
          "type": "address"
        }
      ],
      "stateMutability": "view",
      "type": "function"
    },
    {
      "inputs": [
        {
          "internalType": "uint256",
          "name": "eventId",
          "type": "uint256"
        },
        {
          "components": [
            {
              "internalType": "address",
              "name": "tokenAddress",
              "type": "address"
            },
            {
              "internalType": "address",
              "name": "toAddress",
              "type": "address"
            },
            {
              "internalType": "uint256",
              "name": "amount",
              "type": "uint256"
            }
          ],
          "internalType": "struct CommonStructs.Transfer[]",
          "name": "transfers",
          "type": "tuple[]"
        }
      ],
      "name": "transfersHash",
      "outputs": [
        {
          "internalType": "bytes32",
          "name": "",
          "type": "bytes32"
        }
      ],
      "stateMutability": "pure",
      "type": "function"
    },
    {
      "inputs": [],
      "name": "triggerTransfers",
      "outputs": [],
      "stateMutability": "nonpayable",
      "type": "function"
    },
    {
      "inputs": [
        {
          "internalType": "uint256",
          "name": "eventId",
          "type": "uint256"
        }
      ],
      "name": "unlockTransfers",
      "outputs": [],
      "stateMutability": "nonpayable",
      "type": "function"
    },
    {
      "inputs": [],
      "name": "unlockTransfersBatch",
      "outputs": [],
      "stateMutability": "nonpayable",
      "type": "function"
    },
    {
      "inputs": [],
      "name": "unpause",
      "outputs": [],
      "stateMutability": "nonpayable",
      "type": "function"
    },
    {
      "inputs": [
        {
          "internalType": "uint256",
          "name": "_confirmations",
          "type": "uint256"
        },
        {
          "internalType": "address[]",
          "name": "_relays",
          "type": "address[]"
        }
      ],
      "name": "upgrade",
      "outputs": [],
      "stateMutability": "nonpayable",
      "type": "function"
    },
    {
      "inputs": [
        {
          "internalType": "address",
          "name": "tokenThisAddress",
          "type": "address"
        },
        {
          "internalType": "address",
          "name": "toAddress",
          "type": "address"
        },
        {
          "internalType": "uint256",
          "name": "amount",
          "type": "uint256"
        },
        {
          "internalType": "bool",
          "name": "unwrapSide",
          "type": "bool"
        },
        {
          "internalType": "bytes",
          "name": "feeSignature",
          "type": "bytes"
        },
        {
          "internalType": "uint256",
          "name": "transferFee",
          "type": "uint256"
        },
        {
          "internalType": "uint256",
          "name": "bridgeFee",
          "type": "uint256"
        }
      ],
      "name": "withdraw",
      "outputs": [],
      "stateMutability": "payable",
      "type": "function"
    },
    {
      "inputs": [
        {
          "internalType": "address",
          "name": "toAddress",
          "type": "address"
        },
        {
          "internalType": "bytes",
          "name": "feeSignature",
          "type": "bytes"
        },
        {
          "internalType": "uint256",
          "name": "transferFee",
          "type": "uint256"
        },
        {
          "internalType": "uint256",
          "name": "bridgeFee",
          "type": "uint256"
        }
      ],
      "name": "wrapWithdraw",
      "outputs": [],
      "stateMutability": "payable",
      "type": "function"
    },
    {
      "inputs": [],
      "name": "wrapperAddress",
      "outputs": [
        {
          "internalType": "address",
          "name": "",
          "type": "address"
        }
      ],
      "stateMutability": "view",
      "type": "function"
    },
    {
      "stateMutability": "payable",
      "type": "receive"
    }
  ],
  "transactionHash": "0x6e019e6f9756ed0ddb682be9bfef247d48f7349c2ade56e0d0772d791591df39",
  "args": [],
  "numDeployments": 4,
  "solcInputHash": "14835e48c656ebed02c4fc9389a12566",
  "bytecode": "0x608060405234801561001057600080fd5b506143aa806100206000396000f3fe6080604052600436106103aa5760003560e060020a900480638456cb59116101eb578063b87330e911610111578063ded0eaef116100a4578063f700558711610073578063f700558714610b0b578063f862b7eb14610b2b578063f8b7443314610b4b578063fd5d2ef314610b5e57600080fd5b8063ded0eaef14610a7e578063e1137f1914610a9e578063e31be08714610abe578063f33fe10f14610aeb57600080fd5b8063cf3317d3116100e0578063cf3317d3146109ea578063d3b89f4914610a0a578063d547741f14610a3e578063deb9a3a214610a5e57600080fd5b8063b87330e91461097e578063ba8bbbe01461099e578063baeebe75146109b4578063cea91f8f146109ca57600080fd5b806391d1485411610189578063a217fddf11610158578063a217fddf146108e9578063a9b1cf0b146108fe578063b06a13ef14610932578063b6d3385e1461094857600080fd5b806391d148541461087d578063924cf6e01461089d57806396cf5227146108b357806399b5bb64146108d357600080fd5b806386d7679e116101c557806386d7679e1461081f5780638ac1f86f146108355780638e5df9c71461084a57806391c5bc0a1461086a57600080fd5b80638456cb59146107ca57806384d8f01b146107df578063853890ae146107ff57600080fd5b8063331a891a116102d05780635119b0ef1161026e5780636c5dc9ad1161023d5780636c5dc9ad14610753578063746b5c421461077357806375b238fc146107885780637df8b802146107aa57600080fd5b80635119b0ef146106db5780635249a705146106fb5780635b403c281461071b5780635c975abb1461073b57600080fd5b80633928b296116102aa5780633928b296146106565780633f4ba83a1461067657806342180fb81461068b5780634a1856de146106ab57600080fd5b8063331a891a146105f657806336568abe14610616578063390d53881461063657600080fd5b806321d3d53611610348578063297c267711610317578063297c2677146105725780632bbba847146105885780632f2ff15d1461059e578063304561bb146105be57600080fd5b806321d3d536146104e057806323a93b1e14610500578063248a9ca31461052257806326cb32b71461055257600080fd5b80630c4ecab4116103845780630c4ecab41461044f5780630d6680871461048a578063196f0f62146104a05780631cb20435146104c057600080fd5b806301ffc9a7146103b657806304421823146103eb57806309fce3561461042d57600080fd5b366103b157005b600080fd5b3480156103c257600080fd5b506103d66103d1366004613c3e565b610b7e565b60405190151581526020015b60405180910390f35b3480156103f757600080fd5b5061041f7f077a1d526a4ce8a773632ab13b4fbbf1fcc954c3dab26cd27ea0e2a6750da5d781565b6040519081526020016103e2565b34801561043957600080fd5b5061044d610448366004613ac3565b610c11565b005b34801561045b57600080fd5b506103d661046a366004613bcd565b60e860209081526000928352604080842090915290825290205460ff1681565b34801561049657600080fd5b5061041f60d45481565b3480156104ac57600080fd5b5061044d6104bb366004613bf2565b610c3d565b3480156104cc57600080fd5b5061044d6104db366004613c7d565b610c8b565b3480156104ec57600080fd5b5061044d6104fb3660046138d4565b610d52565b34801561050c57600080fd5b50610515610dea565b6040516103e29190613ebe565b34801561052e57600080fd5b5061041f61053d366004613bb4565b60009081526065602052604090206001015490565b34801561055e57600080fd5b506103d661056d3660046138d4565b610e4c565b34801561057e57600080fd5b5061041f60d65481565b34801561059457600080fd5b5060ca54156103d6565b3480156105aa57600080fd5b5061044d6105b9366004613bcd565b610eb6565b3480156105ca57600080fd5b5060cf546105de90600160a060020a031681565b604051600160a060020a0390911681526020016103e2565b34801561060257600080fd5b5061044d610611366004613bb4565b610ee1565b34801561062257600080fd5b5061044d610631366004613bcd565b610ff8565b34801561064257600080fd5b5060d0546105de90600160a060020a031681565b34801561066257600080fd5b5061044d6106713660046138d4565b611083565b34801561068257600080fd5b5061044d6110bf565b34801561069757600080fd5b5061044d6106a6366004613bb4565b6110e3565b3480156106b757600080fd5b5061041f6106c6366004613bb4565b60cb6020526000908152604090206001015481565b3480156106e757600080fd5b5061044d6106f6366004613db4565b611120565b34801561070757600080fd5b5061044d610716366004613a81565b611203565b34801561072757600080fd5b5061044d610736366004613cdd565b61128c565b34801561074757600080fd5b5060975460ff166103d6565b34801561075f57600080fd5b5061041f61076e366004613bb4565b6112f8565b34801561077f57600080fd5b5061044d611381565b34801561079457600080fd5b5061041f60008051602061435583398151915281565b3480156107b657600080fd5b5060ce546105de90600160a060020a031681565b3480156107d657600080fd5b5061044d61142d565b3480156107eb57600080fd5b5061044d6107fa366004613b23565b611460565b34801561080b57600080fd5b5061044d61081a3660046138f1565b611521565b34801561082b57600080fd5b5061041f60d75481565b34801561084157600080fd5b5061044d611569565b34801561085657600080fd5b5061044d6108653660046138d4565b6116c1565b61044d6108783660046139be565b611702565b34801561088957600080fd5b506103d6610898366004613bcd565b611a32565b3480156108a957600080fd5b5061041f60d25481565b3480156108bf57600080fd5b5061044d6108ce366004613bb4565b611a5d565b3480156108df57600080fd5b5061041f60d55481565b3480156108f557600080fd5b5061041f600081565b34801561090a57600080fd5b5061041f7fb7f2fcb7a10916921b74b9baa8ea85f89b12ab12f6ededa160998f8b20e65f9581565b34801561093e57600080fd5b5061041f60e75481565b34801561095457600080fd5b506105de6109633660046138d4565b60cd60205260009081526040902054600160a060020a031681565b34801561098a57600080fd5b5061044d6109993660046138d4565b611a7c565b3480156109aa57600080fd5b5061041f60cc5481565b3480156109c057600080fd5b5061041f60d35481565b3480156109d657600080fd5b5061041f6109e5366004613db4565b611ab8565b3480156109f657600080fd5b5061044d610a05366004613bb4565b611ba1565b348015610a1657600080fd5b5061041f7f516d5e7ed3e60a6b2804c1554cd94bc2eb576e44b192a0e069d4c527589a887e81565b348015610a4a57600080fd5b5061044d610a59366004613bcd565b611c18565b348015610a6a57600080fd5b5061044d610a79366004613bf2565b611c3e565b348015610a8a57600080fd5b506103d6610a99366004613a25565b611c65565b348015610aaa57600080fd5b506105de610ab9366004613bb4565b611ca4565b348015610aca57600080fd5b50610ade610ad9366004613bb4565b611cce565b6040516103e291906140d6565b348015610af757600080fd5b5060d1546105de90600160a060020a031681565b348015610b1757600080fd5b5061044d610b26366004613bb4565b611d8a565b348015610b3757600080fd5b5061044d610b46366004613bb4565b611da9565b61044d610b5936600461392a565b611fdc565b348015610b6a57600080fd5b5061044d610b79366004613bb4565b61243c565b60007bffffffffffffffffffffffffffffffffffffffffffffffffffffffff1982167f7965db0b000000000000000000000000000000000000000000000000000000001480610c0b57507f01ffc9a7000000000000000000000000000000000000000000000000000000007bffffffffffffffffffffffffffffffffffffffffffffffffffffffff198316145b92915050565b600080516020614355833981519152610c2a813361245b565b610c36858585856124c2565b5050505050565b60005b81811015610c8557610c7384848484818110610c5e57610c5e6142a0565b9050602002016020810190610a5991906138d4565b80610c7d81614253565b915050610c40565b50505050565b600054610100900460ff1680610ca4575060005460ff16155b610ccc5760405160e560020a62461bcd028152600401610cc39061401c565b60405180910390fd5b600054610100900460ff16158015610cee576000805461ffff19166101011790555b610cf7856125e3565b6040805160008152602084810280830184018452908201858152610d3a939091879187918291860190849080828437600092019190915250899250612833915050565b8015610c36576000805461ff00191690555050505050565b600080516020614355833981519152610d6b813361245b565b60d154600160a060020a031615610dc75760405160e560020a62461bcd02815260206004820152601d60248201527f736964654272696467654164647265737320616c7265616479207365740000006044820152606401610cc3565b5060d18054600160a060020a031916600160a060020a0392909216919091179055565b606060e9805480602002602001604051908101604052809291908181526020018280548015610e4257602002820191906000526020600020905b8154600160a060020a03168152600190910190602001808311610e24575b5050505050905090565b6000805b60e954811015610ead5782600160a060020a031660e98281548110610e7757610e776142a0565b600091825260209091200154600160a060020a03161415610e9b5750600192915050565b80610ea581614253565b915050610e50565b50600092915050565b600082815260656020526040902060010154610ed2813361245b565b610edc83836128fb565b505050565b600080516020614355833981519152610efa813361245b565b60975460ff16610f1f5760405160e560020a62461bcd028152600401610cc390613fae565b60cc54821015610f445760405160e560020a62461bcd028152600401610cc390614079565b60d554821115610f995760405160e560020a62461bcd02815260206004820152601f60248201527f6576656e744964206d757374206265203c3d20696e7075744576656e744964006044820152606401610cc3565b610fa46001836141f9565b60d5555b600082815260cb602052604090206001015415610ff457600082815260cb6020526040812090610fd88282613724565b5060006001919091015581610fec81614253565b925050610fa8565b5050565b600160a060020a03811633146110795760405160e560020a62461bcd02815260206004820152602f60248201527f416363657373436f6e74726f6c3a2063616e206f6e6c792072656e6f756e636560448201527f20726f6c657320666f722073656c6600000000000000000000000000000000006064820152608401610cc3565b610ff48282612981565b60008051602061435583398151915261109c813361245b565b5060d08054600160a060020a031916600160a060020a0392909216919091179055565b6000805160206143558339815191526110d8813361245b565b6110e06129e8565b50565b6000805160206143558339815191526110fc813361245b565b8160d35460d75461110d91906141da565b61111791906141b5565b60d7555060d355565b60975460ff16156111465760405160e560020a62461bcd028152600401610cc390613fe5565b60d55461115490600161419d565b83146111a55760405160e560020a62461bcd02815260206004820152601460248201527f4576656e744964206f7574206f66206f726465720000000000000000000000006044820152606401610cc3565b60006111b2848484612a57565b90508015610c855760d5600081546111c990614253565b9091555060405184907f196c47048e38df7a4fe6e581c8f4f2e2ba67ac0dd45b90da756e97bd61d9dd3b90600090a2610c85838386612c02565b60008051602061435583398151915261121c813361245b565b8160005b81811015610c365760cd600086868481811061123e5761123e6142a0565b905060200201602081019061125391906138d4565b600160a060020a0316815260208101919091526040016000208054600160a060020a03191690558061128481614253565b915050611220565b3330146112de5760405160e560020a62461bcd02815260206004820152601c60248201527f54686973206d6574686f642072657175697265206d756c7469736967000000006044820152606401610cc3565b80516112f19060e9906020840190613745565b505060e755565b60008060005b60e95481101561137a57600084815260e86020526040812060e980549192918490811061132d5761132d6142a0565b6000918252602080832090910154600160a060020a0316835282019290925260400190205460ff1615611368578161136481614253565b9250505b8061137281614253565b9150506112fe565b5092915050565b60ca546113d35760405160e560020a62461bcd02815260206004820152600e60248201527f517565756520697320656d7074790000000000000000000000000000000000006044820152606401610cc3565b60d680549060006113e383614253565b919050557fe15729a2f427aa4572dab35eb692c902fcbce57d41642013259c741380809ae260ca6040516114179190613f0b565b60405180910390a261142b60ca6000613724565b565b7fb7f2fcb7a10916921b74b9baa8ea85f89b12ab12f6ededa160998f8b20e65f95611458813361245b565b6110e0612c90565b3330146114b25760405160e560020a62461bcd02815260206004820152601c60248201527f54686973206d6574686f642072657175697265206d756c7469736967000000006044820152606401610cc3565b610c3685858080602002602001604051908101604052809392919081815260200183836020028082843760009201919091525050604080516020808902828101820190935288825290935088925087918291850190849080828437600092019190915250869250612833915050565b60008051602061435583398151915261153a813361245b565b50600160a060020a03918216600090815260cd602052604090208054600160a060020a03191691909216179055565b60975460ff161561158f5760405160e560020a62461bcd028152600401610cc390613fe5565b60cc545b600081815260cb60209081526040808320815181546060948102820185018452928101838152909391928492849190879085015b8282101561162157600084815260209081902060408051606081018252600386029092018054600160a060020a039081168452600180830154909116848601526002909101549183019190915290835290920191016115c7565b505050508152602001600182015481525050905080602001516000148061164b5750428160200151115b15611656575060cc55565b805161166190612ceb565b600082815260cb602052604081209061167a8282613724565b50600060019190910181905560405183917f78ff9b3176bb0d6421590f3816e75cb15a9ffa2b7a1a028f40a3f4e029eb39f291a250806116b981614253565b915050611593565b6000805160206143558339815191526116da813361245b565b50600160a060020a0316600090815260cd602052604090208054600160a060020a0319169055565b60ce54600160a060020a03908116600090815260cd602052604090205416806117705760405160e560020a62461bcd02815260206004820152601560248201527f556e6b6e6f776e20746f6b656e206164647265737300000000000000000000006044820152606401610cc3565b61177a828461419d565b34116117cb5760405160e560020a62461bcd02815260206004820152601160248201527f53656e742076616c7565203c3d206665650000000000000000000000000000006044820152606401610cc3565b6000826117d885346141f9565b6117e291906141f9565b60ce549091506117ff90600160a060020a03168787878786612f7f565b60cf54604051600160a060020a039091169085156108fc029086906000818181858888f19350505050158015611839573d6000803e3d6000fd5b5060d054604051600160a060020a039091169084156108fc029085906000818181858888f19350505050158015611874573d6000803e3d6000fd5b5060ce60009054906101000a9004600160a060020a0316600160a060020a031663d0e30db0826040518263ffffffff1660e060020a0281526004016000604051808303818588803b1580156118c857600080fd5b505af11580156118dc573d6000803e3d6000fd5b505060408051606081018252600160a060020a0380881682528c81166020830190815282840188815260ca80546001810182556000918252945160039095027f42d72674974f694b5f5159593243114d38a5c39c89d6b62fee061ff523240ee181018054968616600160a060020a031997881617905592517f42d72674974f694b5f5159593243114d38a5c39c89d6b62fee061ff523240ee2840180549190951695169490941790925590517f42d72674974f694b5f5159593243114d38a5c39c89d6b62fee061ff523240ee39091015560d65491513395507f3b823d3b837159352faddd1e0b9e9f584ca2bfe976238f6a9e6da4615cf2f4449450611a199350879087908b908b90958652600160a060020a0394851660208701529290931660408501526060840152608083019190915260a082015260c00190565b60405180910390a2611a29613125565b50505050505050565b6000918252606560209081526040808420600160a060020a0393909316845291905290205460ff1690565b600080516020614355833981519152611a76813361245b565b5060d455565b600080516020614355833981519152611a95813361245b565b5060cf8054600160a060020a031916600160a060020a0392909216919091179055565b60008084604051602001611ace91815260200190565b604051602081830303815290604052905060005b83811015611b905781858583818110611afd57611afd6142a0565b90506060020160400135868684818110611b1957611b196142a0565b9050606002016020016020810190611b3191906138d4565b878785818110611b4357611b436142a0565b611b5992602060609092020190810191506138d4565b604051602001611b6c9493929190613df3565b60405160208183030381529060405291508080611b8890614253565b915050611ae2565b508051602090910120949350505050565b600080516020614355833981519152611bba813361245b565b60975460ff16611bdf5760405160e560020a62461bcd028152600401610cc390613fae565b60cc54821015611c045760405160e560020a62461bcd028152600401610cc390614079565b611c0f6001836141f9565b60d5555060cc55565b600082815260656020526040902060010154611c34813361245b565b610edc8383612981565b600083815260656020526040902060010154611c5a813361245b565b610c8584848461319d565b600080611c73858585611ab8565b600090815260e860209081526040808320600160a060020a038a16845290915290205460ff16915050949350505050565b60e98181548110611cb457600080fd5b600091825260209091200154600160a060020a0316905081565b604080518082019091526060815260006020820152600082815260cb60209081526040808320815181546060948102820185018452928101838152909491938593919285929185015b82821015611d7157600084815260209081902060408051606081018252600386029092018054600160a060020a03908116845260018083015490911684860152600290910154918301919091529083529092019101611d17565b5050505081526020016001820154815250509050919050565b600080516020614355833981519152611da3813361245b565b5060c955565b60975460ff1615611dcf5760405160e560020a62461bcd028152600401610cc390613fe5565b60cc548114611e235760405160e560020a62461bcd02815260206004820152601c60248201527f63616e20756e6c6f636b206f6e6c79206f6c64657374206576656e74000000006044820152606401610cc3565b600081815260cb60209081526040808320815181546060948102820185018452928101838152909391928492849190879085015b82821015611eb157600084815260209081902060408051606081018252600386029092018054600160a060020a03908116845260018083015490911684860152600290910154918301919091529083529092019101611e57565b50505050815260200160018201548152505090506000816020015111611f1c5760405160e560020a62461bcd02815260206004820181905260248201527f6e6f206c6f636b6564207472616e7366657273207769746820746869732069646044820152606401610cc3565b42816020015110611f725760405160e560020a62461bcd02815260206004820152601b60248201527f6c6f636b54696d6520686173206e6f74207965742070617373656400000000006044820152606401610cc3565b8051611f7d90612ceb565b600082815260cb6020526040812090611f968282613724565b50600060019190910181905560405183917f78ff9b3176bb0d6421590f3816e75cb15a9ffa2b7a1a028f40a3f4e029eb39f291a2611fd582600161419d565b60cc555050565b60008515612071576000805260cd6020527fcd565b10a72538d86f6d352f37ebc5dff31587960b12c0afe00fd03947a6932a54600160a060020a038a811691161461206c5760405160e560020a62461bcd02815260206004820152601f60248201527f546f6b656e206e6f7420706f696e7420746f206e617469766520746f6b656e006044820152606401610cc3565b6120dd565b50600160a060020a03808916600090815260cd602052604090205416806120dd5760405160e560020a62461bcd02815260206004820152601560248201527f556e6b6e6f776e20746f6b656e206164647265737300000000000000000000006044820152606401610cc3565b6120e7828461419d565b34146121385760405160e560020a62461bcd02815260206004820152601160248201527f53656e742076616c756520213d206665650000000000000000000000000000006044820152606401610cc3565b6000871161218b5760405160e560020a62461bcd02815260206004820152601160248201527f43616e6e6f7420776974686472617720300000000000000000000000000000006044820152606401610cc3565b61219989868686868c612f7f565b60cf54604051600160a060020a039091169084156108fc029085906000818181858888f193505050501580156121d3573d6000803e3d6000fd5b5060d054604051600160a060020a039091169083156108fc029084906000818181858888f1935050505015801561220e573d6000803e3d6000fd5b506040517f23b872dd00000000000000000000000000000000000000000000000000000000815233600482015230602482015260448101889052600160a060020a038a16906323b872dd90606401602060405180830381600087803b15801561227657600080fd5b505af115801561228a573d6000803e3d6000fd5b505050506040513d601f19601f820116820180604052508101906122ae9190613b97565b6122fd5760405160e560020a62461bcd02815260206004820152601360248201527f4661696c207472616e7366657220636f696e73000000000000000000000000006044820152606401610cc3565b6040805160608082018352600160a060020a038481168084528c821660208086019182528587018e815260ca8054600181018255600091909152965160039097027f42d72674974f694b5f5159593243114d38a5c39c89d6b62fee061ff523240ee181018054988716600160a060020a0319998a1617905592517f42d72674974f694b5f5159593243114d38a5c39c89d6b62fee061ff523240ee284018054918716919098161790965594517f42d72674974f694b5f5159593243114d38a5c39c89d6b62fee061ff523240ee39091015560d6548551908152918e16938201939093529283019190915281018890526080810184905260a0810183905233907f3b823d3b837159352faddd1e0b9e9f584ca2bfe976238f6a9e6da4615cf2f4449060c00160405180910390a2612431613125565b505050505050505050565b600080516020614355833981519152612455813361245b565b5060d255565b6124658282611a32565b610ff45761247d81600160a060020a031660146131e5565b6124888360206131e5565b604051602001612499929190613e3d565b60408051601f198184030181529082905260e560020a62461bcd028252610cc391600401613f7b565b82811461253a5760405160e560020a62461bcd02815260206004820152603f60248201527f73697a6573206f6620746f6b656e5468697341646472657373657320616e642060448201527f746f6b656e53696465416464726573736573206d7573742062652073616d65006064820152608401610cc3565b8260005b818110156125db57838382818110612558576125586142a0565b905060200201602081019061256d91906138d4565b60cd6000888885818110612583576125836142a0565b905060200201602081019061259891906138d4565b600160a060020a03908116825260208201929092526040016000208054600160a060020a03191692909116919091179055806125d381614253565b91505061253e565b505050505050565b600054610100900460ff16806125fc575060005460ff16155b61261b5760405160e560020a62461bcd028152600401610cc39061401c565b600054610100900460ff1615801561263d576000805461ffff19166101011790555b612648600030613436565b61266060008051602061435583398151915233613436565b6126997f077a1d526a4ce8a773632ab13b4fbbf1fcc954c3dab26cd27ea0e2a6750da5d761269460408501602086016138d4565b613436565b6126cf7fb7f2fcb7a10916921b74b9baa8ea85f89b12ab12f6ededa160998f8b20e65f956126ca6040850185614154565b61319d565b6127037f516d5e7ed3e60a6b2804c1554cd94bc2eb576e44b192a0e069d4c527589a887e61269460808501606086016138d4565b61272561271360a0840184614154565b61272060c0860186614154565b6124c2565b61273560a08301608084016138d4565b60ce8054600160a060020a031916600160a060020a039290921691909117905561276260208301836138d4565b60d18054600160a060020a031916600160a060020a0392909216919091179055612793610100830160e084016138d4565b60cf8054600160a060020a031916600160a060020a03929092169190911790556127c5610120830161010084016138d4565b60d08054600160a060020a031916600160a060020a039290921691909117905561016082013560d25561012082013560d381905561014083013560d455600160cc81905560d655600360c95561281b90426141b5565b60d7558015610ff4576000805461ff00191690555050565b60005b835181101561287357612861848281518110612854576128546142a0565b6020026020010151613440565b8061286b81614253565b915050612836565b5060005b82518110156128b4576128a2838281518110612895576128956142a0565b60200260200101516135c8565b806128ac81614253565b915050612877565b508060e75414610edc5760e78190556040518181527f6d209fce46041fa384c715150b59ebd0bf9e74509fc58c21b73b490f4ff2bbec9060200160405180910390a1505050565b6129058282611a32565b610ff4576000828152606560209081526040808320600160a060020a03851684529091529020805460ff1916600117905561293d3390565b600160a060020a031681600160a060020a0316837f2f8788117e7eff1d82e926ec794901d17c78024a50270940304540a733656f0d60405160405180910390a45050565b61298b8282611a32565b15610ff4576000828152606560209081526040808320600160a060020a0385168085529252808320805460ff1916905551339285917ff6391f5c32d9c69d2a47ea670b442974b53935d1edc7fd64eb21e047a839171b9190a45050565b60975460ff16612a0d5760405160e560020a62461bcd028152600401610cc390613fae565b6097805460ff191690557f5db9ee0a495bf2e6ff9c91a7834c1ba4fdd244a5e8aa4e537bd38aeae4b073aa335b604051600160a060020a03909116815260200160405180910390a1565b6000612a6233610e4c565b612ab15760405160e560020a62461bcd02815260206004820152601a60248201527f596f75206e6f7420696e2072656c61792077686974656c6973740000000000006044820152606401610cc3565b6000612abe858585611ab8565b600081815260e86020908152604080832033845290915290205490915060ff1615612b2e5760405160e560020a62461bcd02815260206004820152601f60248201527f596f75206861766520616c726561647920636f6e6669726d65642074686973006044820152606401610cc3565b6000612b39826112f8565b905060e7548110612b8f5760405160e560020a62461bcd02815260206004820152601160248201527f416c726561647920636f6e6669726d65640000000000000000000000000000006044820152606401610cc3565b600082815260e8602090815260408083203380855290835292819020805460ff19166001179055518481528892917f641616eb9b807704f05e9dd7d1af6dad1fb246a364799f84895e21b368a9565b910160405180910390a360e754612bf682600161419d565b10159695505050505050565b60d454612c0f904261419d565b600082815260cb60205260408120600101919091555b82811015610c8557600082815260cb60205260409020848483818110612c4d57612c4d6142a0565b835460018101855560009485526020909420606090910292909201926003029091019050612c7b82826142d2565b50508080612c8890614253565b915050612c25565b60975460ff1615612cb65760405160e560020a62461bcd028152600401610cc390613fe5565b6097805460ff191660011790557f62e78cea01bee320cd4e420270b5ea74000d11b0c9f74754ebdbfc544b05a258612a3a3390565b60005b8151811015610ff4576000600160a060020a0316828281518110612d1457612d146142a0565b602002602001015160000151600160a060020a03161415612e305760ce548251600160a060020a0390911690632e1a7d4d90849084908110612d5857612d586142a0565b6020026020010151604001516040518263ffffffff1660e060020a028152600401612d8591815260200190565b600060405180830381600087803b158015612d9f57600080fd5b505af1158015612db3573d6000803e3d6000fd5b50505050818181518110612dc957612dc96142a0565b602002602001015160200151600160a060020a03166108fc838381518110612df357612df36142a0565b6020026020010151604001519081150290604051600060405180830381858888f19350505050158015612e2a573d6000803e3d6000fd5b50612f6d565b818181518110612e4257612e426142a0565b602002602001015160000151600160a060020a031663a9059cbb838381518110612e6e57612e6e6142a0565b602002602001015160200151848481518110612e8c57612e8c6142a0565b6020026020010151604001516040518363ffffffff1660e060020a028152600401612ecc929190600160a060020a03929092168252602082015260400190565b602060405180830381600087803b158015612ee657600080fd5b505af1158015612efa573d6000803e3d6000fd5b505050506040513d601f19601f82011682018060405250810190612f1e9190613b97565b612f6d5760405160e560020a62461bcd02815260206004820152601360248201527f4661696c207472616e7366657220636f696e73000000000000000000000000006044820152606401610cc3565b80612f7781614253565b915050612cee565b60008080612f8f610708426141b5565b905060005b60c9548110156130d9576040516c01000000000000000000000000600160a060020a038c160260208201526034810183905260548101889052607481018790526094810186905260b40160408051601f198184030181529082905280516020918201207f19457468657265756d205369676e6564204d6573736167653a0a33320000000091830191909152603c820152605c0160405160208183030381529060405280519060200120935061307f848a8a8080601f01602080910402602001604051908101604052809392919081815260200183838082843760009201919091525061369992505050565b92506130ab7f516d5e7ed3e60a6b2804c1554cd94bc2eb576e44b192a0e069d4c527589a887e84611a32565b156130b957505050506125db565b816130c38161423c565b92505080806130d190614253565b915050612f94565b5060405160e560020a62461bcd02815260206004820152601660248201527f5369676e617475726520636865636b206661696c6564000000000000000000006044820152606401610cc3565b600060d3544261313591906141b5565b905060d75481146110e05760d6805490600061315083614253565b919050557fe15729a2f427aa4572dab35eb692c902fcbce57d41642013259c741380809ae260ca6040516131849190613f0b565b60405180910390a261319860ca6000613724565b60d755565b60005b81811015610c85576131d3848484848181106131be576131be6142a0565b905060200201602081019061269491906138d4565b806131dd81614253565b9150506131a0565b606060006131f48360026141da565b6131ff90600261419d565b67ffffffffffffffff811115613217576132176142b9565b6040519080825280601f01601f191660200182016040528015613241576020820181803683370190505b5090507f300000000000000000000000000000000000000000000000000000000000000081600081518110613278576132786142a0565b60200101907effffffffffffffffffffffffffffffffffffffffffffffffffffffffffffff1916908160001a9053507f7800000000000000000000000000000000000000000000000000000000000000816001815181106132db576132db6142a0565b60200101907effffffffffffffffffffffffffffffffffffffffffffffffffffffffffffff1916908160001a90535060006133178460026141da565b61332290600161419d565b90505b60018111156133dd577f303132333435363738396162636465660000000000000000000000000000000085600f1660108110613363576133636142a0565b1a7f010000000000000000000000000000000000000000000000000000000000000002828281518110613398576133986142a0565b60200101907effffffffffffffffffffffffffffffffffffffffffffffffffffffffffffff1916908160001a9053506010909404936133d68161423c565b9050613325565b50831561342f5760405160e560020a62461bcd02815260206004820181905260248201527f537472696e67733a20686578206c656e67746820696e73756666696369656e746044820152606401610cc3565b9392505050565b610ff482826128fb565b60005b60e95481101561357c5781600160a060020a031660e9828154811061346a5761346a6142a0565b600091825260209091200154600160a060020a0316141561356a5760e98054613495906001906141f9565b815481106134a5576134a56142a0565b60009182526020909120015460e98054600160a060020a0390921691839081106134d1576134d16142a0565b9060005260206000200160006101000a815481600160a060020a030219169083600160a060020a0316021790555060e980548061351057613510614287565b60008281526020812082016000199081018054600160a060020a0319169055909101909155604051600160a060020a038416917f709f812fac579d78683917073998a39146cfb3fa691a5710de2bddca713b3a6091a25050565b8061357481614253565b915050613443565b5060405160e560020a62461bcd02815260206004820152600b60248201527f4e6f7420612072656c61790000000000000000000000000000000000000000006044820152606401610cc3565b6135d181610e4c565b156136215760405160e560020a62461bcd02815260206004820152600d60248201527f416c72656164792072656c6179000000000000000000000000000000000000006044820152606401610cc3565b60e9805460018101825560009182527fea6426b4b8d70caa8ece9a88fb0a9d4a6b817bb4a43ac6fbef64cb0e589129ee018054600160a060020a031916600160a060020a03841690811790915560405190917f7b73cb1bdb35a4aa024a40092050eb3e988b8591cc448e46634cf380f8f1255d91a250565b6020810151604082015160608301516000929190831a601b8110156136bc57601b015b60408051600081526020810180835288905260ff831691810191909152606081018490526080810183905260019060a0016020604051602081039080840390855afa15801561370f573d6000803e3d6000fd5b5050604051601f190151979650505050505050565b50805460008255600302906000526020600020908101906110e091906137aa565b82805482825590600052602060002090810192821561379a579160200282015b8281111561379a5782518254600160a060020a031916600160a060020a03909116178255602090920191600190910190613765565b506137a69291506137dd565b5090565b5b808211156137a6578054600160a060020a031990811682556001820180549091169055600060028201556003016137ab565b5b808211156137a657600081556001016137de565b80356137fd81614331565b919050565b60008083601f84011261381457600080fd5b50813567ffffffffffffffff81111561382c57600080fd5b602083019150836020808302850101111561384657600080fd5b9250929050565b60008083601f84011261385f57600080fd5b50813567ffffffffffffffff81111561387757600080fd5b60208301915083602060608302850101111561384657600080fd5b60008083601f8401126138a457600080fd5b50813567ffffffffffffffff8111156138bc57600080fd5b60208301915083602082850101111561384657600080fd5b6000602082840312156138e657600080fd5b813561342f81614331565b6000806040838503121561390457600080fd5b823561390f81614331565b9150602083013561391f81614331565b809150509250929050565b60008060008060008060008060e0898b03121561394657600080fd5b883561395181614331565b9750602089013561396181614331565b965060408901359550606089013561397881614346565b9450608089013567ffffffffffffffff81111561399457600080fd5b6139a08b828c01613892565b999c989b5096999598969760a08701359660c0013595509350505050565b6000806000806000608086880312156139d657600080fd5b85356139e181614331565b9450602086013567ffffffffffffffff8111156139fd57600080fd5b613a0988828901613892565b9699909850959660408101359660609091013595509350505050565b60008060008060608587031215613a3b57600080fd5b8435613a4681614331565b935060208501359250604085013567ffffffffffffffff811115613a6957600080fd5b613a758782880161384d565b95989497509550505050565b60008060208385031215613a9457600080fd5b823567ffffffffffffffff811115613aab57600080fd5b613ab785828601613802565b90969095509350505050565b60008060008060408587031215613ad957600080fd5b843567ffffffffffffffff80821115613af157600080fd5b613afd88838901613802565b90965094506020870135915080821115613b1657600080fd5b50613a7587828801613802565b600080600080600060608688031215613b3b57600080fd5b853567ffffffffffffffff80821115613b5357600080fd5b613b5f89838a01613802565b90975095506020880135915080821115613b7857600080fd5b50613b8588828901613802565b96999598509660400135949350505050565b600060208284031215613ba957600080fd5b815161342f81614346565b600060208284031215613bc657600080fd5b5035919050565b60008060408385031215613be057600080fd5b82359150602083013561391f81614331565b600080600060408486031215613c0757600080fd5b83359250602084013567ffffffffffffffff811115613c2557600080fd5b613c3186828701613802565b9497909650939450505050565b600060208284031215613c5057600080fd5b81357bffffffffffffffffffffffffffffffffffffffffffffffffffffffff198116811461342f57600080fd5b60008060008060608587031215613c9357600080fd5b843567ffffffffffffffff80821115613cab57600080fd5b908601906101808289031215613cc057600080fd5b9094506020860135935060408601359080821115613b1657600080fd5b60008060408385031215613cf057600080fd5b8235915060208084013567ffffffffffffffff80821115613d1057600080fd5b818601915086601f830112613d2457600080fd5b813581811115613d3657613d366142b9565b838102604051601f19603f83011681018181108582111715613d5a57613d5a6142b9565b604052828152858101935084860182860187018b1015613d7957600080fd5b600095505b83861015613da357613d8f816137f2565b855260019590950194938601938601613d7e565b508096505050505050509250929050565b600080600060408486031215613dc957600080fd5b83359250602084013567ffffffffffffffff811115613de757600080fd5b613c318682870161384d565b60008551613e05818460208a01614210565b91909101938452506c01000000000000000000000000600160a060020a03928316810260208501529116026034820152604801919050565b7f416363657373436f6e74726f6c3a206163636f756e7420000000000000000000815260008351613e75816017850160208801614210565b7f206973206d697373696e6720726f6c65200000000000000000000000000000006017918401918201528351613eb2816028840160208801614210565b01602801949350505050565b6020808252825182820181905260009190848201906040850190845b81811015613eff578351600160a060020a031683529284019291840191600101613eda565b50909695505050505050565b60006020808301818452808554808352604092508286019150866000528360002060005b82811015613f6e578154600160a060020a0390811685526001808401549091168786015260028301548686015260609094019360039092019101613f2f565b5091979650505050505050565b6020815260008251806020840152613f9a816040850160208701614210565b601f01601f19169190910160400192915050565b60208082526014908201527f5061757361626c653a206e6f7420706175736564000000000000000000000000604082015260600190565b60208082526010908201527f5061757361626c653a2070617573656400000000000000000000000000000000604082015260600190565b6020808252602e908201527f496e697469616c697a61626c653a20636f6e747261637420697320616c72656160408201527f647920696e697469616c697a6564000000000000000000000000000000000000606082015260800190565b60208082526026908201527f6576656e744964206d757374206265203e3d206f6c646573744c6f636b65644560408201527f76656e7449640000000000000000000000000000000000000000000000000000606082015260800190565b6000602080835260608084018551604080858801528282518085526080890191508684019450600093505b8084101561413e5784518051600160a060020a03908116845288820151168884015283015183830152938601936001939093019290850190614101565b5094909701519590960194909452509392505050565b6000808335601e1984360301811261416b57600080fd5b83018035915067ffffffffffffffff82111561418657600080fd5b602090810192508102360382131561384657600080fd5b600082198211156141b0576141b061426e565b500190565b6000826141d55760e060020a634e487b7102600052601260045260246000fd5b500490565b60008160001904831182151516156141f4576141f461426e565b500290565b60008282101561420b5761420b61426e565b500390565b60005b8381101561422b578181015183820152602001614213565b83811115610c855750506000910152565b60008161424b5761424b61426e565b506000190190565b60006000198214156142675761426761426e565b5060010190565b60e060020a634e487b7102600052601160045260246000fd5b60e060020a634e487b7102600052603160045260246000fd5b60e060020a634e487b7102600052603260045260246000fd5b60e060020a634e487b7102600052604160045260246000fd5b81356142dd81614331565b8154600160a060020a031916600160a060020a03821617825550602082013561430581614331565b600182018054600160a060020a031916600160a060020a03831617905550604082013560028201555050565b600160a060020a03811681146110e057600080fd5b80151581146110e057600080fdfea49807205ce4d355092ef5a8a18f56e8913cf4a201fbe287825b095693c21775a2646970667358221220dea92d82bfdf8d0196956c4e013383311d596bc3ec3ed4759992929d8e8bbed164736f6c63430008060033",
  "devdoc": {
    "kind": "dev",
    "methods": {
      "getRoleAdmin(bytes32)": {
        "details": "Returns the admin role that controls `role`. See {grantRole} and {revokeRole}. To change a role's admin, use {_setRoleAdmin}."
      },
      "grantRole(bytes32,address)": {
        "details": "Grants `role` to `account`. If `account` had not been already granted `role`, emits a {RoleGranted} event. Requirements: - the caller must have ``role``'s admin role."
      },
      "hasRole(bytes32,address)": {
        "details": "Returns `true` if `account` has been granted `role`."
      },
      "paused()": {
        "details": "Returns true if the contract is paused, and false otherwise."
      },
      "renounceRole(bytes32,address)": {
        "details": "Revokes `role` from the calling account. Roles are often managed via {grantRole} and {revokeRole}: this function's purpose is to provide a mechanism for accounts to lose their privileges if they are compromised (such as when a trusted device is misplaced). If the calling account had been granted `role`, emits a {RoleRevoked} event. Requirements: - the caller must be `account`."
      },
      "revokeRole(bytes32,address)": {
        "details": "Revokes `role` from `account`. If `account` had been granted `role`, emits a {RoleRevoked} event. Requirements: - the caller must have ``role``'s admin role."
      },
      "supportsInterface(bytes4)": {
        "details": "See {IERC165-supportsInterface}."
      },
      "withdraw(address,address,uint256,bool,bytes,uint256,uint256)": {
        "params": {
          "bridgeFee": "Amount (in native coins), payed as bridge earnings",
          "feeSignature": "Signature signed by relay that confirms that the fee values are valid",
          "transferFee": "Amount (in native coins), payed to compensate gas fees in side network"
        }
      },
      "wrapWithdraw(address,bytes,uint256,uint256)": {
        "params": {
          "bridgeFee": "Amount (in native coins), payed as bridge earnings",
          "feeSignature": "Signature signed by relay that confirms that the fee values are valid",
          "toAddress": "Address in side network that will receive the tokens",
          "transferFee": "Amount (in native coins), payed to compensate gas fees in side network"
        }
      }
    },
    "version": 1
  },
  "userdoc": {
    "kind": "user",
    "methods": {},
    "version": 1
  },
  "storageLayout": {
    "storage": [
      {
        "astId": 413,
        "contract": "contracts/networks/ETH_AmbBridge.sol:ETH_AmbBridge",
        "label": "_initialized",
        "offset": 0,
        "slot": "0",
        "type": "t_bool"
      },
      {
        "astId": 416,
        "contract": "contracts/networks/ETH_AmbBridge.sol:ETH_AmbBridge",
        "label": "_initializing",
        "offset": 1,
        "slot": "0",
        "type": "t_bool"
      },
      {
        "astId": 609,
        "contract": "contracts/networks/ETH_AmbBridge.sol:ETH_AmbBridge",
        "label": "__gap",
        "offset": 0,
        "slot": "1",
        "type": "t_array(t_uint256)50_storage"
      },
      {
        "astId": 858,
        "contract": "contracts/networks/ETH_AmbBridge.sol:ETH_AmbBridge",
        "label": "__gap",
        "offset": 0,
        "slot": "51",
        "type": "t_array(t_uint256)50_storage"
      },
      {
        "astId": 48,
        "contract": "contracts/networks/ETH_AmbBridge.sol:ETH_AmbBridge",
        "label": "_roles",
        "offset": 0,
        "slot": "101",
        "type": "t_mapping(t_bytes32,t_struct(RoleData)43_storage)"
      },
      {
        "astId": 333,
        "contract": "contracts/networks/ETH_AmbBridge.sol:ETH_AmbBridge",
        "label": "__gap",
        "offset": 0,
        "slot": "102",
        "type": "t_array(t_uint256)49_storage"
      },
      {
        "astId": 474,
        "contract": "contracts/networks/ETH_AmbBridge.sol:ETH_AmbBridge",
        "label": "_paused",
        "offset": 0,
        "slot": "151",
        "type": "t_bool"
      },
      {
        "astId": 565,
        "contract": "contracts/networks/ETH_AmbBridge.sol:ETH_AmbBridge",
        "label": "__gap",
        "offset": 0,
        "slot": "152",
        "type": "t_array(t_uint256)49_storage"
      },
      {
        "astId": 6726,
        "contract": "contracts/networks/ETH_AmbBridge.sol:ETH_AmbBridge",
        "label": "signatureFeeCheckNumber",
        "offset": 0,
        "slot": "201",
        "type": "t_uint256"
      },
      {
        "astId": 6730,
        "contract": "contracts/networks/ETH_AmbBridge.sol:ETH_AmbBridge",
        "label": "queue",
        "offset": 0,
        "slot": "202",
        "type": "t_array(t_struct(Transfer)7932_storage)dyn_storage"
      },
      {
        "astId": 6735,
        "contract": "contracts/networks/ETH_AmbBridge.sol:ETH_AmbBridge",
        "label": "lockedTransfers",
        "offset": 0,
        "slot": "203",
        "type": "t_mapping(t_uint256,t_struct(LockedTransfers)7949_storage)"
      },
      {
        "astId": 6737,
        "contract": "contracts/networks/ETH_AmbBridge.sol:ETH_AmbBridge",
        "label": "oldestLockedEventId",
        "offset": 0,
        "slot": "204",
        "type": "t_uint256"
      },
      {
        "astId": 6741,
        "contract": "contracts/networks/ETH_AmbBridge.sol:ETH_AmbBridge",
        "label": "tokenAddresses",
        "offset": 0,
        "slot": "205",
        "type": "t_mapping(t_address,t_address)"
      },
      {
        "astId": 6743,
        "contract": "contracts/networks/ETH_AmbBridge.sol:ETH_AmbBridge",
        "label": "wrapperAddress",
        "offset": 0,
        "slot": "206",
        "type": "t_address"
      },
      {
        "astId": 6745,
        "contract": "contracts/networks/ETH_AmbBridge.sol:ETH_AmbBridge",
        "label": "transferFeeRecipient",
        "offset": 0,
        "slot": "207",
        "type": "t_address_payable"
      },
      {
        "astId": 6747,
        "contract": "contracts/networks/ETH_AmbBridge.sol:ETH_AmbBridge",
        "label": "bridgeFeeRecipient",
        "offset": 0,
        "slot": "208",
        "type": "t_address_payable"
      },
      {
        "astId": 6749,
        "contract": "contracts/networks/ETH_AmbBridge.sol:ETH_AmbBridge",
        "label": "sideBridgeAddress",
        "offset": 0,
        "slot": "209",
        "type": "t_address"
      },
      {
        "astId": 6751,
        "contract": "contracts/networks/ETH_AmbBridge.sol:ETH_AmbBridge",
        "label": "minSafetyBlocks",
        "offset": 0,
        "slot": "210",
        "type": "t_uint256"
      },
      {
        "astId": 6753,
        "contract": "contracts/networks/ETH_AmbBridge.sol:ETH_AmbBridge",
        "label": "timeframeSeconds",
        "offset": 0,
        "slot": "211",
        "type": "t_uint256"
      },
      {
        "astId": 6755,
        "contract": "contracts/networks/ETH_AmbBridge.sol:ETH_AmbBridge",
        "label": "lockTime",
        "offset": 0,
        "slot": "212",
        "type": "t_uint256"
      },
      {
        "astId": 6757,
        "contract": "contracts/networks/ETH_AmbBridge.sol:ETH_AmbBridge",
        "label": "inputEventId",
        "offset": 0,
        "slot": "213",
        "type": "t_uint256"
      },
      {
        "astId": 6759,
        "contract": "contracts/networks/ETH_AmbBridge.sol:ETH_AmbBridge",
        "label": "outputEventId",
        "offset": 0,
        "slot": "214",
        "type": "t_uint256"
      },
      {
        "astId": 6761,
        "contract": "contracts/networks/ETH_AmbBridge.sol:ETH_AmbBridge",
        "label": "lastTimeframe",
        "offset": 0,
        "slot": "215",
        "type": "t_uint256"
      },
      {
        "astId": 7922,
        "contract": "contracts/networks/ETH_AmbBridge.sol:ETH_AmbBridge",
        "label": "__gap",
        "offset": 0,
        "slot": "216",
        "type": "t_array(t_uint256)15_storage"
      },
      {
        "astId": 6249,
        "contract": "contracts/networks/ETH_AmbBridge.sol:ETH_AmbBridge",
        "label": "confirmationsThreshold",
        "offset": 0,
        "slot": "231",
        "type": "t_uint256"
      },
      {
        "astId": 6255,
        "contract": "contracts/networks/ETH_AmbBridge.sol:ETH_AmbBridge",
        "label": "confirmations",
        "offset": 0,
        "slot": "232",
        "type": "t_mapping(t_bytes32,t_mapping(t_address,t_bool))"
      },
      {
        "astId": 6258,
        "contract": "contracts/networks/ETH_AmbBridge.sol:ETH_AmbBridge",
        "label": "relays",
        "offset": 0,
        "slot": "233",
        "type": "t_array(t_address)dyn_storage"
      },
      {
        "astId": 6648,
        "contract": "contracts/networks/ETH_AmbBridge.sol:ETH_AmbBridge",
        "label": "___gap",
        "offset": 0,
        "slot": "234",
        "type": "t_array(t_uint256)15_storage"
      }
    ],
    "types": {
      "t_address": {
        "encoding": "inplace",
        "label": "address",
        "numberOfBytes": "20"
      },
      "t_address_payable": {
        "encoding": "inplace",
        "label": "address payable",
        "numberOfBytes": "20"
      },
      "t_array(t_address)dyn_storage": {
        "base": "t_address",
        "encoding": "dynamic_array",
        "label": "address[]",
        "numberOfBytes": "32"
      },
      "t_array(t_struct(Transfer)7932_storage)dyn_storage": {
        "base": "t_struct(Transfer)7932_storage",
        "encoding": "dynamic_array",
        "label": "struct CommonStructs.Transfer[]",
        "numberOfBytes": "32"
      },
      "t_array(t_uint256)15_storage": {
        "base": "t_uint256",
        "encoding": "inplace",
        "label": "uint256[15]",
        "numberOfBytes": "480"
      },
      "t_array(t_uint256)49_storage": {
        "base": "t_uint256",
        "encoding": "inplace",
        "label": "uint256[49]",
        "numberOfBytes": "1568"
      },
      "t_array(t_uint256)50_storage": {
        "base": "t_uint256",
        "encoding": "inplace",
        "label": "uint256[50]",
        "numberOfBytes": "1600"
      },
      "t_bool": {
        "encoding": "inplace",
        "label": "bool",
        "numberOfBytes": "1"
      },
      "t_bytes32": {
        "encoding": "inplace",
        "label": "bytes32",
        "numberOfBytes": "32"
      },
      "t_mapping(t_address,t_address)": {
        "encoding": "mapping",
        "key": "t_address",
        "label": "mapping(address => address)",
        "numberOfBytes": "32",
        "value": "t_address"
      },
      "t_mapping(t_address,t_bool)": {
        "encoding": "mapping",
        "key": "t_address",
        "label": "mapping(address => bool)",
        "numberOfBytes": "32",
        "value": "t_bool"
      },
      "t_mapping(t_bytes32,t_mapping(t_address,t_bool))": {
        "encoding": "mapping",
        "key": "t_bytes32",
        "label": "mapping(bytes32 => mapping(address => bool))",
        "numberOfBytes": "32",
        "value": "t_mapping(t_address,t_bool)"
      },
      "t_mapping(t_bytes32,t_struct(RoleData)43_storage)": {
        "encoding": "mapping",
        "key": "t_bytes32",
        "label": "mapping(bytes32 => struct AccessControlUpgradeable.RoleData)",
        "numberOfBytes": "32",
        "value": "t_struct(RoleData)43_storage"
      },
      "t_mapping(t_uint256,t_struct(LockedTransfers)7949_storage)": {
        "encoding": "mapping",
        "key": "t_uint256",
        "label": "mapping(uint256 => struct CommonStructs.LockedTransfers)",
        "numberOfBytes": "32",
        "value": "t_struct(LockedTransfers)7949_storage"
      },
      "t_struct(LockedTransfers)7949_storage": {
        "encoding": "inplace",
        "label": "struct CommonStructs.LockedTransfers",
        "members": [
          {
            "astId": 7946,
            "contract": "contracts/networks/ETH_AmbBridge.sol:ETH_AmbBridge",
            "label": "transfers",
            "offset": 0,
            "slot": "0",
            "type": "t_array(t_struct(Transfer)7932_storage)dyn_storage"
          },
          {
            "astId": 7948,
            "contract": "contracts/networks/ETH_AmbBridge.sol:ETH_AmbBridge",
            "label": "endTimestamp",
            "offset": 0,
            "slot": "1",
            "type": "t_uint256"
          }
        ],
        "numberOfBytes": "64"
      },
      "t_struct(RoleData)43_storage": {
        "encoding": "inplace",
        "label": "struct AccessControlUpgradeable.RoleData",
        "members": [
          {
            "astId": 40,
            "contract": "contracts/networks/ETH_AmbBridge.sol:ETH_AmbBridge",
            "label": "members",
            "offset": 0,
            "slot": "0",
            "type": "t_mapping(t_address,t_bool)"
          },
          {
            "astId": 42,
            "contract": "contracts/networks/ETH_AmbBridge.sol:ETH_AmbBridge",
            "label": "adminRole",
            "offset": 0,
            "slot": "1",
            "type": "t_bytes32"
          }
        ],
        "numberOfBytes": "64"
      },
      "t_struct(Transfer)7932_storage": {
        "encoding": "inplace",
        "label": "struct CommonStructs.Transfer",
        "members": [
          {
            "astId": 7927,
            "contract": "contracts/networks/ETH_AmbBridge.sol:ETH_AmbBridge",
            "label": "tokenAddress",
            "offset": 0,
            "slot": "0",
            "type": "t_address"
          },
          {
            "astId": 7929,
            "contract": "contracts/networks/ETH_AmbBridge.sol:ETH_AmbBridge",
            "label": "toAddress",
            "offset": 0,
            "slot": "1",
            "type": "t_address"
          },
          {
            "astId": 7931,
            "contract": "contracts/networks/ETH_AmbBridge.sol:ETH_AmbBridge",
            "label": "amount",
            "offset": 0,
            "slot": "2",
            "type": "t_uint256"
          }
        ],
        "numberOfBytes": "96"
      },
      "t_uint256": {
        "encoding": "inplace",
        "label": "uint256",
        "numberOfBytes": "32"
      }
    }
  }
}