{
  "address": "0x3075A8098A78289B3d266FC4CDC08a09C72e2cC0",
  "abi": [
    {
      "anonymous": false,
      "inputs": [
        {
          "indexed": false,
          "internalType": "address",
          "name": "account",
          "type": "address"
        }
      ],
      "name": "Paused",
      "type": "event"
    },
    {
      "anonymous": false,
      "inputs": [
        {
          "indexed": true,
          "internalType": "bytes32",
          "name": "role",
          "type": "bytes32"
        },
        {
          "indexed": true,
          "internalType": "bytes32",
          "name": "previousAdminRole",
          "type": "bytes32"
        },
        {
          "indexed": true,
          "internalType": "bytes32",
          "name": "newAdminRole",
          "type": "bytes32"
        }
      ],
      "name": "RoleAdminChanged",
      "type": "event"
    },
    {
      "anonymous": false,
      "inputs": [
        {
          "indexed": true,
          "internalType": "bytes32",
          "name": "role",
          "type": "bytes32"
        },
        {
          "indexed": true,
          "internalType": "address",
          "name": "account",
          "type": "address"
        },
        {
          "indexed": true,
          "internalType": "address",
          "name": "sender",
          "type": "address"
        }
      ],
      "name": "RoleGranted",
      "type": "event"
    },
    {
      "anonymous": false,
      "inputs": [
        {
          "indexed": true,
          "internalType": "bytes32",
          "name": "role",
          "type": "bytes32"
        },
        {
          "indexed": true,
          "internalType": "address",
          "name": "account",
          "type": "address"
        },
        {
          "indexed": true,
          "internalType": "address",
          "name": "sender",
          "type": "address"
        }
      ],
      "name": "RoleRevoked",
      "type": "event"
    },
    {
      "anonymous": false,
      "inputs": [
        {
          "indexed": true,
          "internalType": "uint256",
          "name": "eventId",
          "type": "uint256"
        },
        {
          "components": [
            {
              "internalType": "address",
              "name": "tokenAddress",
              "type": "address"
            },
            {
              "internalType": "address",
              "name": "toAddress",
              "type": "address"
            },
            {
              "internalType": "uint256",
              "name": "amount",
              "type": "uint256"
            }
          ],
          "indexed": false,
          "internalType": "struct CommonStructs.Transfer[]",
          "name": "queue",
          "type": "tuple[]"
        }
      ],
      "name": "Transfer",
      "type": "event"
    },
    {
      "anonymous": false,
      "inputs": [
        {
          "indexed": true,
          "internalType": "uint256",
          "name": "eventId",
          "type": "uint256"
        }
      ],
      "name": "TransferFinish",
      "type": "event"
    },
    {
      "anonymous": false,
      "inputs": [
        {
          "indexed": true,
          "internalType": "uint256",
          "name": "eventId",
          "type": "uint256"
        }
      ],
      "name": "TransferSubmit",
      "type": "event"
    },
    {
      "anonymous": false,
      "inputs": [
        {
          "indexed": false,
          "internalType": "address",
          "name": "account",
          "type": "address"
        }
      ],
      "name": "Unpaused",
      "type": "event"
    },
    {
      "anonymous": false,
      "inputs": [
        {
          "indexed": true,
          "internalType": "address",
          "name": "from",
          "type": "address"
        },
        {
          "indexed": false,
          "internalType": "uint256",
          "name": "eventId",
          "type": "uint256"
        },
        {
          "indexed": false,
          "internalType": "address",
          "name": "tokenFrom",
          "type": "address"
        },
        {
          "indexed": false,
          "internalType": "address",
          "name": "tokenTo",
          "type": "address"
        },
        {
          "indexed": false,
          "internalType": "uint256",
          "name": "amount",
          "type": "uint256"
        },
        {
          "indexed": false,
          "internalType": "uint256",
          "name": "transferFeeAmount",
          "type": "uint256"
        },
        {
          "indexed": false,
          "internalType": "uint256",
          "name": "bridgeFeeAmount",
          "type": "uint256"
        }
      ],
      "name": "Withdraw",
      "type": "event"
    },
    {
      "inputs": [],
      "name": "ADMIN_ROLE",
      "outputs": [
        {
          "internalType": "bytes32",
          "name": "",
          "type": "bytes32"
        }
      ],
      "stateMutability": "view",
      "type": "function"
    },
    {
      "inputs": [],
      "name": "DEFAULT_ADMIN_ROLE",
      "outputs": [
        {
          "internalType": "bytes32",
          "name": "",
          "type": "bytes32"
        }
      ],
      "stateMutability": "view",
      "type": "function"
    },
    {
      "inputs": [],
      "name": "RELAY_ROLE",
      "outputs": [
        {
          "internalType": "bytes32",
          "name": "",
          "type": "bytes32"
        }
      ],
      "stateMutability": "view",
      "type": "function"
    },
    {
      "inputs": [
        {
          "internalType": "address payable",
          "name": "feeRecipient_",
          "type": "address"
        }
      ],
      "name": "changeBridgeFeeRecipient",
      "outputs": [],
      "stateMutability": "nonpayable",
      "type": "function"
    },
    {
      "inputs": [
        {
          "internalType": "uint256",
          "name": "lockTime_",
          "type": "uint256"
        }
      ],
      "name": "changeLockTime",
      "outputs": [],
      "stateMutability": "nonpayable",
      "type": "function"
    },
    {
      "inputs": [
        {
          "internalType": "uint256",
          "name": "minSafetyBlocks_",
          "type": "uint256"
        }
      ],
      "name": "changeMinSafetyBlocks",
      "outputs": [],
      "stateMutability": "nonpayable",
      "type": "function"
    },
    {
      "inputs": [
        {
          "internalType": "uint256",
          "name": "signatureFeeCheckNumber_",
          "type": "uint256"
        }
      ],
      "name": "changeSignatureFeeCheckNumber",
      "outputs": [],
      "stateMutability": "nonpayable",
      "type": "function"
    },
    {
      "inputs": [
        {
          "internalType": "uint256",
          "name": "timeframeSeconds_",
          "type": "uint256"
        }
      ],
      "name": "changeTimeframeSeconds",
      "outputs": [],
      "stateMutability": "nonpayable",
      "type": "function"
    },
    {
      "inputs": [
        {
          "internalType": "address payable",
          "name": "feeRecipient_",
          "type": "address"
        }
      ],
      "name": "changeTransferFeeRecipient",
      "outputs": [],
      "stateMutability": "nonpayable",
      "type": "function"
    },
    {
      "inputs": [
        {
          "internalType": "uint256",
          "name": "eventId",
          "type": "uint256"
        }
      ],
      "name": "getLockedTransfers",
      "outputs": [
        {
          "components": [
            {
              "components": [
                {
                  "internalType": "address",
                  "name": "tokenAddress",
                  "type": "address"
                },
                {
                  "internalType": "address",
                  "name": "toAddress",
                  "type": "address"
                },
                {
                  "internalType": "uint256",
                  "name": "amount",
                  "type": "uint256"
                }
              ],
              "internalType": "struct CommonStructs.Transfer[]",
              "name": "transfers",
              "type": "tuple[]"
            },
            {
              "internalType": "uint256",
              "name": "endTimestamp",
              "type": "uint256"
            }
          ],
          "internalType": "struct CommonStructs.LockedTransfers",
          "name": "",
          "type": "tuple"
        }
      ],
      "stateMutability": "view",
      "type": "function"
    },
    {
      "inputs": [
        {
          "internalType": "bytes32",
          "name": "role",
          "type": "bytes32"
        }
      ],
      "name": "getRoleAdmin",
      "outputs": [
        {
          "internalType": "bytes32",
          "name": "",
          "type": "bytes32"
        }
      ],
      "stateMutability": "view",
      "type": "function"
    },
    {
      "inputs": [
        {
          "internalType": "bytes32",
          "name": "role",
          "type": "bytes32"
        },
        {
          "internalType": "address",
          "name": "account",
          "type": "address"
        }
      ],
      "name": "grantRole",
      "outputs": [],
      "stateMutability": "nonpayable",
      "type": "function"
    },
    {
      "inputs": [
        {
          "internalType": "bytes32",
          "name": "role",
          "type": "bytes32"
        },
        {
          "internalType": "address",
          "name": "account",
          "type": "address"
        }
      ],
      "name": "hasRole",
      "outputs": [
        {
          "internalType": "bool",
          "name": "",
          "type": "bool"
        }
      ],
      "stateMutability": "view",
      "type": "function"
    },
    {
      "inputs": [
        {
          "components": [
            {
              "internalType": "address",
              "name": "sideBridgeAddress",
              "type": "address"
            },
            {
              "internalType": "address",
              "name": "adminAddress",
              "type": "address"
            },
            {
              "internalType": "address",
              "name": "relayAddress",
              "type": "address"
            },
            {
              "internalType": "address",
              "name": "wrappingTokenAddress",
              "type": "address"
            },
            {
              "internalType": "address[]",
              "name": "tokenThisAddresses",
              "type": "address[]"
            },
            {
              "internalType": "address[]",
              "name": "tokenSideAddresses",
              "type": "address[]"
            },
            {
              "internalType": "address payable",
              "name": "transferFeeRecipient",
              "type": "address"
            },
            {
              "internalType": "address payable",
              "name": "bridgeFeeRecipient",
              "type": "address"
            },
            {
              "internalType": "uint256",
              "name": "timeframeSeconds",
              "type": "uint256"
            },
            {
              "internalType": "uint256",
              "name": "lockTime",
              "type": "uint256"
            },
            {
              "internalType": "uint256",
              "name": "minSafetyBlocks",
              "type": "uint256"
            }
          ],
          "internalType": "struct CommonStructs.ConstructorArgs",
          "name": "args",
          "type": "tuple"
        },
        {
          "internalType": "uint256",
          "name": "minimumDifficulty",
          "type": "uint256"
        }
      ],
      "name": "initialize",
      "outputs": [],
      "stateMutability": "nonpayable",
      "type": "function"
    },
    {
      "inputs": [],
      "name": "inputEventId",
      "outputs": [
        {
          "internalType": "uint256",
          "name": "",
          "type": "uint256"
        }
      ],
      "stateMutability": "view",
      "type": "function"
    },
    {
      "inputs": [
        {
          "internalType": "uint256",
          "name": "epochIndex",
          "type": "uint256"
        }
      ],
      "name": "isEpochDataSet",
      "outputs": [
        {
          "internalType": "bool",
          "name": "",
          "type": "bool"
        }
      ],
      "stateMutability": "view",
      "type": "function"
    },
    {
      "inputs": [],
      "name": "isQueueEmpty",
      "outputs": [
        {
          "internalType": "bool",
          "name": "",
          "type": "bool"
        }
      ],
      "stateMutability": "view",
      "type": "function"
    },
    {
      "inputs": [],
      "name": "lastTimeframe",
      "outputs": [
        {
          "internalType": "uint256",
          "name": "",
          "type": "uint256"
        }
      ],
      "stateMutability": "view",
      "type": "function"
    },
    {
      "inputs": [],
      "name": "lockTime",
      "outputs": [
        {
          "internalType": "uint256",
          "name": "",
          "type": "uint256"
        }
      ],
      "stateMutability": "view",
      "type": "function"
    },
    {
      "inputs": [
        {
          "internalType": "uint256",
          "name": "",
          "type": "uint256"
        }
      ],
      "name": "lockedTransfers",
      "outputs": [
        {
          "internalType": "uint256",
          "name": "endTimestamp",
          "type": "uint256"
        }
      ],
      "stateMutability": "view",
      "type": "function"
    },
    {
      "inputs": [],
      "name": "minSafetyBlocks",
      "outputs": [
        {
          "internalType": "uint256",
          "name": "",
          "type": "uint256"
        }
      ],
      "stateMutability": "view",
      "type": "function"
    },
    {
      "inputs": [],
      "name": "oldestLockedEventId",
      "outputs": [
        {
          "internalType": "uint256",
          "name": "",
          "type": "uint256"
        }
      ],
      "stateMutability": "view",
      "type": "function"
    },
    {
      "inputs": [],
      "name": "pause",
      "outputs": [],
      "stateMutability": "nonpayable",
      "type": "function"
    },
    {
      "inputs": [],
      "name": "paused",
      "outputs": [
        {
          "internalType": "bool",
          "name": "",
          "type": "bool"
        }
      ],
      "stateMutability": "view",
      "type": "function"
    },
    {
      "inputs": [
        {
          "internalType": "uint256",
          "name": "eventId",
          "type": "uint256"
        }
      ],
      "name": "removeLockedTransfers",
      "outputs": [],
      "stateMutability": "nonpayable",
      "type": "function"
    },
    {
      "inputs": [
        {
          "internalType": "bytes32",
          "name": "role",
          "type": "bytes32"
        },
        {
          "internalType": "address",
          "name": "account",
          "type": "address"
        }
      ],
      "name": "renounceRole",
      "outputs": [],
      "stateMutability": "nonpayable",
      "type": "function"
    },
    {
      "inputs": [
        {
          "internalType": "bytes32",
          "name": "role",
          "type": "bytes32"
        },
        {
          "internalType": "address",
          "name": "account",
          "type": "address"
        }
      ],
      "name": "revokeRole",
      "outputs": [],
      "stateMutability": "nonpayable",
      "type": "function"
    },
    {
      "inputs": [
        {
          "internalType": "uint256",
          "name": "epochNum",
          "type": "uint256"
        },
        {
          "internalType": "uint256",
          "name": "fullSizeIn128Resultion",
          "type": "uint256"
        },
        {
          "internalType": "uint256",
          "name": "branchDepth",
          "type": "uint256"
        },
        {
          "internalType": "uint256[]",
          "name": "merkleNodes",
          "type": "uint256[]"
        }
      ],
      "name": "setEpochData",
      "outputs": [],
      "stateMutability": "nonpayable",
      "type": "function"
    },
    {
      "inputs": [
        {
          "internalType": "address",
          "name": "_sideBridgeAddress",
          "type": "address"
        }
      ],
      "name": "setSideBridge",
      "outputs": [],
      "stateMutability": "nonpayable",
      "type": "function"
    },
    {
      "inputs": [],
      "name": "sideBridgeAddress",
      "outputs": [
        {
          "internalType": "address",
          "name": "",
          "type": "address"
        }
      ],
      "stateMutability": "view",
      "type": "function"
    },
    {
      "inputs": [
        {
          "components": [
            {
              "components": [
                {
                  "internalType": "bytes3",
                  "name": "p0WithNonce",
                  "type": "bytes3"
                },
                {
                  "internalType": "bytes3",
                  "name": "p0WithoutNonce",
                  "type": "bytes3"
                },
                {
                  "internalType": "bytes",
                  "name": "p1",
                  "type": "bytes"
                },
                {
                  "internalType": "bytes32",
                  "name": "parentOrReceiptHash",
                  "type": "bytes32"
                },
                {
                  "internalType": "bytes",
                  "name": "p2",
                  "type": "bytes"
                },
                {
                  "internalType": "bytes",
                  "name": "difficulty",
                  "type": "bytes"
                },
                {
                  "internalType": "bytes",
                  "name": "p3",
                  "type": "bytes"
                },
                {
                  "internalType": "bytes",
                  "name": "number",
                  "type": "bytes"
                },
                {
                  "internalType": "bytes",
                  "name": "p4",
                  "type": "bytes"
                },
                {
                  "internalType": "bytes",
                  "name": "p5",
                  "type": "bytes"
                },
                {
                  "internalType": "bytes",
                  "name": "nonce",
                  "type": "bytes"
                },
                {
                  "internalType": "bytes",
                  "name": "p6",
                  "type": "bytes"
                },
                {
                  "internalType": "uint256[]",
                  "name": "dataSetLookup",
                  "type": "uint256[]"
                },
                {
                  "internalType": "uint256[]",
                  "name": "witnessForLookup",
                  "type": "uint256[]"
                }
              ],
              "internalType": "struct CheckPoW.BlockPoW[]",
              "name": "blocks",
              "type": "tuple[]"
            },
            {
              "components": [
                {
                  "internalType": "bytes[]",
                  "name": "receiptProof",
                  "type": "bytes[]"
                },
                {
                  "internalType": "uint256",
                  "name": "eventId",
                  "type": "uint256"
                },
                {
                  "components": [
                    {
                      "internalType": "address",
                      "name": "tokenAddress",
                      "type": "address"
                    },
                    {
                      "internalType": "address",
                      "name": "toAddress",
                      "type": "address"
                    },
                    {
                      "internalType": "uint256",
                      "name": "amount",
                      "type": "uint256"
                    }
                  ],
                  "internalType": "struct CommonStructs.Transfer[]",
                  "name": "transfers",
                  "type": "tuple[]"
                }
              ],
              "internalType": "struct CommonStructs.TransferProof",
              "name": "transfer",
              "type": "tuple"
            }
          ],
          "internalType": "struct CheckPoW.PoWProof",
          "name": "powProof",
          "type": "tuple"
        }
      ],
      "name": "submitTransferPoW",
      "outputs": [],
      "stateMutability": "nonpayable",
      "type": "function"
    },
    {
      "inputs": [
        {
          "internalType": "bytes4",
          "name": "interfaceId",
          "type": "bytes4"
        }
      ],
      "name": "supportsInterface",
      "outputs": [
        {
          "internalType": "bool",
          "name": "",
          "type": "bool"
        }
      ],
      "stateMutability": "view",
      "type": "function"
    },
    {
      "inputs": [],
      "name": "timeframeSeconds",
      "outputs": [
        {
          "internalType": "uint256",
          "name": "",
          "type": "uint256"
        }
      ],
      "stateMutability": "view",
      "type": "function"
    },
    {
      "inputs": [
        {
          "internalType": "address",
          "name": "",
          "type": "address"
        }
      ],
      "name": "tokenAddresses",
      "outputs": [
        {
          "internalType": "address",
          "name": "",
          "type": "address"
        }
      ],
      "stateMutability": "view",
      "type": "function"
    },
    {
      "inputs": [
        {
          "internalType": "address",
          "name": "tokenThisAddress",
          "type": "address"
        },
        {
          "internalType": "address",
          "name": "tokenSideAddress",
          "type": "address"
        }
      ],
      "name": "tokensAdd",
      "outputs": [],
      "stateMutability": "nonpayable",
      "type": "function"
    },
    {
      "inputs": [
        {
          "internalType": "address[]",
          "name": "tokenThisAddresses",
          "type": "address[]"
        },
        {
          "internalType": "address[]",
          "name": "tokenSideAddresses",
          "type": "address[]"
        }
      ],
      "name": "tokensAddBatch",
      "outputs": [],
      "stateMutability": "nonpayable",
      "type": "function"
    },
    {
      "inputs": [
        {
          "internalType": "address",
          "name": "tokenThisAddress",
          "type": "address"
        }
      ],
      "name": "tokensRemove",
      "outputs": [],
      "stateMutability": "nonpayable",
      "type": "function"
    },
    {
      "inputs": [
        {
          "internalType": "address[]",
          "name": "tokenThisAddresses",
          "type": "address[]"
        }
      ],
      "name": "tokensRemoveBatch",
      "outputs": [],
      "stateMutability": "nonpayable",
      "type": "function"
    },
    {
      "inputs": [],
      "name": "triggerTransfers",
      "outputs": [],
      "stateMutability": "nonpayable",
      "type": "function"
    },
    {
      "inputs": [
        {
          "internalType": "uint256",
          "name": "eventId",
          "type": "uint256"
        }
      ],
      "name": "unlockTransfers",
      "outputs": [],
      "stateMutability": "nonpayable",
      "type": "function"
    },
    {
      "inputs": [],
      "name": "unlockTransfersBatch",
      "outputs": [],
      "stateMutability": "nonpayable",
      "type": "function"
    },
    {
      "inputs": [],
      "name": "unpause",
      "outputs": [],
      "stateMutability": "nonpayable",
      "type": "function"
    },
    {
      "inputs": [
        {
          "internalType": "address",
          "name": "tokenThisAddress",
          "type": "address"
        },
        {
          "internalType": "address",
          "name": "toAddress",
          "type": "address"
        },
        {
          "internalType": "uint256",
          "name": "amount",
          "type": "uint256"
        },
        {
          "internalType": "bool",
          "name": "unwrapSide",
          "type": "bool"
        },
        {
          "internalType": "bytes",
          "name": "signature",
          "type": "bytes"
        },
        {
          "internalType": "uint256",
          "name": "transferFee",
          "type": "uint256"
        },
        {
          "internalType": "uint256",
          "name": "bridgeFee",
          "type": "uint256"
        }
      ],
      "name": "withdraw",
      "outputs": [],
      "stateMutability": "payable",
      "type": "function"
    },
    {
      "inputs": [
        {
          "internalType": "address",
          "name": "toAddress",
          "type": "address"
        },
        {
          "internalType": "bytes",
          "name": "signature",
          "type": "bytes"
        },
        {
          "internalType": "uint256",
          "name": "transferFee",
          "type": "uint256"
        },
        {
          "internalType": "uint256",
          "name": "bridgeFee",
          "type": "uint256"
        }
      ],
      "name": "wrapWithdraw",
      "outputs": [],
      "stateMutability": "payable",
      "type": "function"
    },
    {
      "inputs": [],
      "name": "wrapperAddress",
      "outputs": [
        {
          "internalType": "address",
          "name": "",
          "type": "address"
        }
      ],
      "stateMutability": "view",
      "type": "function"
    },
    {
      "stateMutability": "payable",
      "type": "receive"
    }
  ],
  "transactionHash": "0xcf1b45a8eb3071b5495fd2e198323f0c65de9fc07308f44e88562f520e1b1df5",
  "args": [],
  "numDeployments": 1,
  "solcInputHash": "d4a9b2d57f870bd14069ec61ae9ecba0",
  "bytecode": "0x608060405234801561001057600080fd5b50615f3780620000216000396000f3fe60806040526004361061027a5760003560e060020a9004806386d7679e11610153578063ba8bbbe0116100c5578063e88b66261161007e578063e88b66261461076b578063f33fe10f1461078b578063f7005587146107ab578063f862b7eb146107cb578063f8b74433146107eb578063fd5d2ef3146107fe57600080fd5b8063ba8bbbe01461069f578063baeebe75146106b5578063c7b81f4f146106cb578063d547741f146106fe578063e1d862be1461071e578063e31be0871461073e57600080fd5b8063924cf6e011610117578063924cf6e0146105e857806396cf5227146105fe57806399b5bb641461061e578063a217fddf14610634578063b6d3385e14610649578063b87330e91461067f57600080fd5b806386d7679e1461056a5780638ac1f86f146105805780638e5df9c71461059557806391c5bc0a146105b557806391d14854146105c857600080fd5b80633f45c799116101ec5780635c975abb116101b05780635c975abb146104ae578063746b5c42146104c657806375b238fc146104db5780637df8b802146104fd5780638456cb5914610535578063853890ae1461054a57600080fd5b80633f45c799146104095780633f4ba83a1461042957806342180fb81461043e5780634a1856de1461045e5780635249a7051461048e57600080fd5b8063248a9ca31161023e578063248a9ca3146103435780632bbba847146103735780632f2ff15d14610389578063331a891a146103a957806336568abe146103c95780633928b296146103e957600080fd5b806301ffc9a71461028657806304421823146102bb57806309fce356146102eb5780630d6680871461030d57806321d3d5361461032357600080fd5b3661028157005b600080fd5b34801561029257600080fd5b506102a66102a136600461538b565b61081e565b60405190151581526020015b60405180910390f35b3480156102c757600080fd5b506102dd600080516020615ec283398151915281565b6040519081526020016102b2565b3480156102f757600080fd5b5061030b61030636600461528c565b6108b1565b005b34801561031957600080fd5b506102dd60d35481565b34801561032f57600080fd5b5061030b61033e366004615106565b6108d9565b34801561034f57600080fd5b506102dd61035e36600461534d565b60009081526065602052604090206001015490565b34801561037f57600080fd5b5060c954156102a6565b34801561039557600080fd5b5061030b6103a4366004615366565b610969565b3480156103b557600080fd5b5061030b6103c436600461534d565b61098f565b3480156103d557600080fd5b5061030b6103e4366004615366565b610ad6565b3480156103f557600080fd5b5061030b610404366004615106565b610b65565b34801561041557600080fd5b5061030b6104243660046153ca565b610ba1565b34801561043557600080fd5b5061030b610c23565b34801561044a57600080fd5b5061030b61045936600461534d565b610c47565b34801561046a57600080fd5b506102dd61047936600461534d565b60ca6020526000908152604090206001015481565b34801561049a57600080fd5b5061030b6104a9366004615257565b610c84565b3480156104ba57600080fd5b5060975460ff166102a6565b3480156104d257600080fd5b5061030b610d09565b3480156104e757600080fd5b506102dd600080516020615ee283398151915281565b34801561050957600080fd5b5060cd5461051d90600160a060020a031681565b604051600160a060020a0390911681526020016102b2565b34801561054157600080fd5b5061030b610db5565b34801561055657600080fd5b5061030b610565366004615123565b610dd6565b34801561057657600080fd5b506102dd60d65481565b34801561058c57600080fd5b5061030b610e1e565b3480156105a157600080fd5b5061030b6105b0366004615106565b610f76565b61030b6105c33660046151f0565b610fb7565b3480156105d457600080fd5b506102a66105e3366004615366565b6112e7565b3480156105f457600080fd5b506102dd60d15481565b34801561060a57600080fd5b5061030b61061936600461534d565b611312565b34801561062a57600080fd5b506102dd60d45481565b34801561064057600080fd5b506102dd600081565b34801561065557600080fd5b5061051d610664366004615106565b60cc60205260009081526040902054600160a060020a031681565b34801561068b57600080fd5b5061030b61069a366004615106565b611331565b3480156106ab57600080fd5b506102dd60cb5481565b3480156106c157600080fd5b506102dd60d25481565b3480156106d757600080fd5b506102a66106e636600461534d565b600090815260e7602052604090206102000154151590565b34801561070a57600080fd5b5061030b610719366004615366565b61136d565b34801561072a57600080fd5b5061030b6107393660046154ed565b611393565b34801561074a57600080fd5b5061075e61075936600461534d565b6114c7565b6040516102b29190615a1d565b34801561077757600080fd5b5061030b610786366004615544565b611583565b34801561079757600080fd5b5060d05461051d90600160a060020a031681565b3480156107b757600080fd5b5061030b6107c636600461534d565b611649565b3480156107d757600080fd5b5061030b6107e636600461534d565b611668565b61030b6107f936600461515c565b61189b565b34801561080a57600080fd5b5061030b61081936600461534d565b611cfb565b60007bffffffffffffffffffffffffffffffffffffffffffffffffffffffff1982167f7965db0b0000000000000000000000000000000000000000000000000000000014806108ab57507f01ffc9a7000000000000000000000000000000000000000000000000000000007bffffffffffffffffffffffffffffffffffffffffffffffffffffffff198316145b92915050565b600080516020615ee28339815191526108ca8133611d1a565b6108d48383611d81565b505050565b60006108e58133611d1a565b60d054600160a060020a0316156109465760405160e560020a62461bcd02815260206004820152601d60248201527f736964654272696467654164647265737320616c72656164792073657400000060448201526064015b60405180910390fd5b5060d08054600160a060020a031916600160a060020a0392909216919091179055565b6000828152606560205260409020600101546109858133611d1a565b6108d48383611e97565b600080516020615ee28339815191526109a88133611d1a565b60975460ff166109fd5760405160e560020a62461bcd02815260206004820152601460248201527f5061757361626c653a206e6f7420706175736564000000000000000000000000604482015260640161093d565b60cb54821015610a785760405160e560020a62461bcd02815260206004820152602660248201527f6576656e744964206d757374206265203e3d206f6c646573744c6f636b65644560448201527f76656e7449640000000000000000000000000000000000000000000000000000606482015260840161093d565b600082815260ca602052604090206001015415610ac457600082815260ca6020526040812090610aa88282614e3c565b5060006001919091015581610abc81615e0b565b925050610a78565b610acf600183615c4c565b60d4555050565b600160a060020a0381163314610b575760405160e560020a62461bcd02815260206004820152602f60248201527f416363657373436f6e74726f6c3a2063616e206f6e6c792072656e6f756e636560448201527f20726f6c657320666f722073656c660000000000000000000000000000000000606482015260840161093d565b610b618282611f1d565b5050565b600080516020615ee2833981519152610b7e8133611d1a565b5060cf8054600160a060020a031916600160a060020a0392909216919091179055565b600054610100900460ff1680610bba575060005460ff16155b610bd95760405160e560020a62461bcd02815260040161093d906159c0565b600054610100900460ff16158015610bfb576000805461ffff19166101011790555b610c0483611f84565b610c0d826120de565b80156108d4576000805461ff0019169055505050565b600080516020615ee2833981519152610c3c8133611d1a565b610c44612152565b50565b600080516020615ee2833981519152610c608133611d1a565b8160d25460d654610c719190615c2d565b610c7b9190615c19565b60d6555060d255565b600080516020615ee2833981519152610c9d8133611d1a565b815160005b81811015610d035760cc6000858381518110610cc057610cc0615e6c565b602090810291909101810151600160a060020a031682528101919091526040016000208054600160a060020a031916905580610cfb81615e0b565b915050610ca2565b50505050565b60c954610d5b5760405160e560020a62461bcd02815260206004820152600e60248201527f517565756520697320656d707479000000000000000000000000000000000000604482015260640161093d565b60d58054906000610d6b83615e0b565b919050557fe15729a2f427aa4572dab35eb692c902fcbce57d41642013259c741380809ae260c9604051610d9f91906158e6565b60405180910390a2610db360c96000614e3c565b565b600080516020615ee2833981519152610dce8133611d1a565b610c446121f1565b600080516020615ee2833981519152610def8133611d1a565b50600160a060020a03918216600090815260cc602052604090208054600160a060020a03191691909216179055565b60975460ff1615610e445760405160e560020a62461bcd02815260040161093d90615989565b60cb545b600081815260ca60209081526040808320815181546060948102820185018452928101838152909391928492849190879085015b82821015610ed657600084815260209081902060408051606081018252600386029092018054600160a060020a03908116845260018083015490911684860152600290910154918301919091529083529092019101610e7c565b5050505081526020016001820154815250509050806020015160001480610f005750428160200151115b15610f0b575060cb55565b8051610f169061224c565b600082815260ca6020526040812090610f2f8282614e3c565b50600060019190910181905560405183917f78ff9b3176bb0d6421590f3816e75cb15a9ffa2b7a1a028f40a3f4e029eb39f291a25080610f6e81615e0b565b915050610e48565b600080516020615ee2833981519152610f8f8133611d1a565b50600160a060020a0316600090815260cc602052604090208054600160a060020a0319169055565b60cd54600160a060020a03908116600090815260cc602052604090205416806110255760405160e560020a62461bcd02815260206004820152601560248201527f556e6b6e6f776e20746f6b656e20616464726573730000000000000000000000604482015260640161093d565b61102f8284615c01565b34116110805760405160e560020a62461bcd02815260206004820152601160248201527f53656e742076616c7565203c3d20666565000000000000000000000000000000604482015260640161093d565b60008261108d8534615c4c565b6110979190615c4c565b60cd549091506110b490600160a060020a031687878787866124e0565b60ce54604051600160a060020a039091169085156108fc029086906000818181858888f193505050501580156110ee573d6000803e3d6000fd5b5060cf54604051600160a060020a039091169084156108fc029085906000818181858888f19350505050158015611129573d6000803e3d6000fd5b5060cd60009054906101000a9004600160a060020a0316600160a060020a031663d0e30db0826040518263ffffffff1660e060020a0281526004016000604051808303818588803b15801561117d57600080fd5b505af1158015611191573d6000803e3d6000fd5b505060408051606081018252600160a060020a0380881682528c81166020830190815282840188815260c980546001810182556000918252945160039095027f66be4f155c5ef2ebd3772b228f2f00681e4ed5826cdb3b1943cc11ad15ad1d2881018054968616600160a060020a031997881617905592517f66be4f155c5ef2ebd3772b228f2f00681e4ed5826cdb3b1943cc11ad15ad1d29840180549190951695169490941790925590517f66be4f155c5ef2ebd3772b228f2f00681e4ed5826cdb3b1943cc11ad15ad1d2a9091015560d55491513395507f3b823d3b837159352faddd1e0b9e9f584ca2bfe976238f6a9e6da4615cf2f44494506112ce9350879087908b908b90958652600160a060020a0394851660208701529290931660408501526060840152608083019190915260a082015260c00190565b60405180910390a26112de61267b565b50505050505050565b6000918252606560209081526040808420600160a060020a0393909316845291905290205460ff1690565b600080516020615ee283398151915261132b8133611d1a565b5060d355565b600080516020615ee283398151915261134a8133611d1a565b5060ce8054600160a060020a031916600160a060020a0392909216919091179055565b6000828152606560205260409020600101546113898133611d1a565b6108d48383611f1d565b600080516020615ec28339815191526113ac8133611d1a565b60975460ff16156113d25760405160e560020a62461bcd02815260040161093d90615989565b6113df6020830183615b49565b602001357f196c47048e38df7a4fe6e581c8f4f2e2ba67ac0dd45b90da756e97bd61d9dd3b60405160405180910390a261142861141f6020840184615b49565b602001356126f3565b60d05461143f908390600160a060020a0316612758565b610b6161144f6020840184615b49565b61145d906040810190615a98565b808060200260200160405190810160405280939291908181526020016000905b828210156114a95761149a60608302860136819003810190615528565b8152602001906001019061147d565b50505050508380602001906114be9190615b49565b6020013561288e565b604080518082019091526060815260006020820152600082815260ca60209081526040808320815181546060948102820185018452928101838152909491938593919285929185015b8282101561156a57600084815260209081902060408051606081018252600386029092018054600160a060020a03908116845260018083015490911684860152600290910154918301919091529083529092019101611510565b5050505081526020016001820154815250509050919050565b600285106115cc5760e7600061159a600288615c4c565b8152602001908152602001600020600080820160006115b99190614e5d565b5060006102008201819055610201909101555b600085815260e76020526040812082915b82811015611625578484828181106115f7576115f7615e6c565b905060200201358282610200811061161157611611615e6c565b01558061161d81615e0b565b9150506115dd565b5050506000948552505060e760205260409092206102008101919091556102010155565b600080516020615ee28339815191526116628133611d1a565b5060d755565b60975460ff161561168e5760405160e560020a62461bcd02815260040161093d90615989565b60cb5481146116e25760405160e560020a62461bcd02815260206004820152601c60248201527f63616e20756e6c6f636b206f6e6c79206f6c64657374206576656e7400000000604482015260640161093d565b600081815260ca60209081526040808320815181546060948102820185018452928101838152909391928492849190879085015b8282101561177057600084815260209081902060408051606081018252600386029092018054600160a060020a03908116845260018083015490911684860152600290910154918301919091529083529092019101611716565b505050508152602001600182015481525050905060008160200151116117db5760405160e560020a62461bcd02815260206004820181905260248201527f6e6f206c6f636b6564207472616e736665727320776974682074686973206964604482015260640161093d565b428160200151106118315760405160e560020a62461bcd02815260206004820152601b60248201527f6c6f636b54696d6520686173206e6f7420796574207061737365640000000000604482015260640161093d565b805161183c9061224c565b600082815260ca60205260408120906118558282614e3c565b50600060019190910181905560405183917f78ff9b3176bb0d6421590f3816e75cb15a9ffa2b7a1a028f40a3f4e029eb39f291a2611894826001615c01565b60cb555050565b60008515611930576000805260cc6020527f435daec636ce435a90bde0aeec309a303a359a854c5a51b7d6a5a941d6db609454600160a060020a038a811691161461192b5760405160e560020a62461bcd02815260206004820152601f60248201527f546f6b656e206e6f7420706f696e7420746f206e617469766520746f6b656e00604482015260640161093d565b61199c565b50600160a060020a03808916600090815260cc6020526040902054168061199c5760405160e560020a62461bcd02815260206004820152601560248201527f556e6b6e6f776e20746f6b656e20616464726573730000000000000000000000604482015260640161093d565b6119a68284615c01565b34146119f75760405160e560020a62461bcd02815260206004820152601160248201527f53656e742076616c756520213d20666565000000000000000000000000000000604482015260640161093d565b60008711611a4a5760405160e560020a62461bcd02815260206004820152601160248201527f43616e6e6f742077697468647261772030000000000000000000000000000000604482015260640161093d565b611a5889868686868c6124e0565b60ce54604051600160a060020a039091169084156108fc029085906000818181858888f19350505050158015611a92573d6000803e3d6000fd5b5060cf54604051600160a060020a039091169083156108fc029084906000818181858888f19350505050158015611acd573d6000803e3d6000fd5b506040517f23b872dd00000000000000000000000000000000000000000000000000000000815233600482015230602482015260448101889052600160a060020a038a16906323b872dd90606401602060405180830381600087803b158015611b3557600080fd5b505af1158015611b49573d6000803e3d6000fd5b505050506040513d601f19601f82011682018060405250810190611b6d91906152f0565b611bbc5760405160e560020a62461bcd02815260206004820152601360248201527f4661696c207472616e7366657220636f696e7300000000000000000000000000604482015260640161093d565b6040805160608082018352600160a060020a038481168084528c821660208086019182528587018e815260c98054600181018255600091909152965160039097027f66be4f155c5ef2ebd3772b228f2f00681e4ed5826cdb3b1943cc11ad15ad1d2881018054988716600160a060020a0319998a1617905592517f66be4f155c5ef2ebd3772b228f2f00681e4ed5826cdb3b1943cc11ad15ad1d2984018054918716919098161790965594517f66be4f155c5ef2ebd3772b228f2f00681e4ed5826cdb3b1943cc11ad15ad1d2a9091015560d5548551908152918e16938201939093529283019190915281018890526080810184905260a0810183905233907f3b823d3b837159352faddd1e0b9e9f584ca2bfe976238f6a9e6da4615cf2f4449060c00160405180910390a2611cf061267b565b505050505050505050565b600080516020615ee2833981519152611d148133611d1a565b5060d155565b611d2482826112e7565b610b6157611d3c81600160a060020a03166014612951565b611d47836020612951565b604051602001611d58929190615852565b60408051601f198184030181529082905260e560020a62461bcd02825261093d91600401615956565b8051825114611dfb5760405160e560020a62461bcd02815260206004820152603f60248201527f73697a6573206f6620746f6b656e5468697341646472657373657320616e642060448201527f746f6b656e53696465416464726573736573206d7573742062652073616d6500606482015260840161093d565b815160005b81811015610d0357828181518110611e1a57611e1a615e6c565b602002602001015160cc6000868481518110611e3857611e38615e6c565b6020026020010151600160a060020a0316600160a060020a0316815260200190815260200160002060006101000a815481600160a060020a030219169083600160a060020a031602179055508080611e8f90615e0b565b915050611e00565b611ea182826112e7565b610b61576000828152606560209081526040808320600160a060020a03851684529091529020805460ff19166001179055611ed93390565b600160a060020a031681600160a060020a0316837f2f8788117e7eff1d82e926ec794901d17c78024a50270940304540a733656f0d60405160405180910390a45050565b611f2782826112e7565b15610b61576000828152606560209081526040808320600160a060020a0385168085529252808320805460ff1916905551339285917ff6391f5c32d9c69d2a47ea670b442974b53935d1edc7fd64eb21e047a839171b9190a45050565b600054610100900460ff1680611f9d575060005460ff16155b611fbc5760405160e560020a62461bcd02815260040161093d906159c0565b600054610100900460ff16158015611fde576000805461ffff19166101011790555b611fe9600033612b3e565b612005600080516020615ec28339815191528360400151612b3e565b612021600080516020615ee28339815191528360200151612b3e565b61203382608001518360a00151611d81565b606082015160cd8054600160a060020a03928316600160a060020a031991821617909155835160d0805491841691831691909117905560c084015160ce805491841691831691909117905560e084015160cf805491909316911617905561014082015160d15561010082015160d281905561012083015160d355600160cb81905560d555600360d7556120c69042615c19565b60d6558015610b61576000805461ff00191690555050565b600054610100900460ff16806120f7575060005460ff16155b6121165760405160e560020a62461bcd02815260040161093d906159c0565b600054610100900460ff16158015612138576000805461ffff19166101011790555b60e88290558015610b61576000805461ff00191690555050565b60975460ff166121a75760405160e560020a62461bcd02815260206004820152601460248201527f5061757361626c653a206e6f7420706175736564000000000000000000000000604482015260640161093d565b6097805460ff191690557f5db9ee0a495bf2e6ff9c91a7834c1ba4fdd244a5e8aa4e537bd38aeae4b073aa335b604051600160a060020a03909116815260200160405180910390a1565b60975460ff16156122175760405160e560020a62461bcd02815260040161093d90615989565b6097805460ff191660011790557f62e78cea01bee320cd4e420270b5ea74000d11b0c9f74754ebdbfc544b05a2586121d43390565b60005b8151811015610b61576000600160a060020a031682828151811061227557612275615e6c565b602002602001015160000151600160a060020a031614156123915760cd548251600160a060020a0390911690632e1a7d4d908490849081106122b9576122b9615e6c565b6020026020010151604001516040518263ffffffff1660e060020a0281526004016122e691815260200190565b600060405180830381600087803b15801561230057600080fd5b505af1158015612314573d6000803e3d6000fd5b5050505081818151811061232a5761232a615e6c565b602002602001015160200151600160a060020a03166108fc83838151811061235457612354615e6c565b6020026020010151604001519081150290604051600060405180830381858888f1935050505015801561238b573d6000803e3d6000fd5b506124ce565b8181815181106123a3576123a3615e6c565b602002602001015160000151600160a060020a031663a9059cbb8383815181106123cf576123cf615e6c565b6020026020010151602001518484815181106123ed576123ed615e6c565b6020026020010151604001516040518363ffffffff1660e060020a02815260040161242d929190600160a060020a03929092168252602082015260400190565b602060405180830381600087803b15801561244757600080fd5b505af115801561245b573d6000803e3d6000fd5b505050506040513d601f19601f8201168201806040525081019061247f91906152f0565b6124ce5760405160e560020a62461bcd02815260206004820152601360248201527f4661696c207472616e7366657220636f696e7300000000000000000000000000604482015260640161093d565b806124d881615e0b565b91505061224f565b600080806124f061070842615c19565b905060005b60d754811015612627576040516c01000000000000000000000000600160a060020a038c160260208201526034810183905260548101889052607481018790526094810186905260b40160408051601f198184030181529082905280516020918201207f19457468657265756d205369676e6564204d6573736167653a0a33320000000091830191909152603c820152605c016040516020818303038152906040528051906020012093506125e0848a8a8080601f016020809104026020016040519081016040528093929190818152602001838380828437600092019190915250612b4892505050565b92506125fa600080516020615ec2833981519152846112e7565b156126085750505050612673565b8161261281615df4565b9250508061261f81615e0b565b9150506124f5565b5060405160e560020a62461bcd02815260206004820152601660248201527f5369676e617475726520636865636b206661696c656400000000000000000000604482015260640161093d565b505050505050565b600060d2544261268b9190615c19565b905060d6548114610c445760d580549060006126a683615e0b565b919050557fe15729a2f427aa4572dab35eb692c902fcbce57d41642013259c741380809ae260c96040516126da91906158e6565b60405180910390a26126ee60c96000614e3c565b60d655565b60d46000815461270290615e0b565b91829055508114610c445760405160e560020a62461bcd02815260206004820152601460248201527f4576656e744964206f7574206f66206f72646572000000000000000000000000604482015260640161093d565b600061277961276a6020850185615b49565b61277390615c8c565b83612bd3565b905060005b6127888480615a4f565b9050811015610d03578161279c8580615a4f565b838181106127ac576127ac615e6c565b90506020028101906127be9190615b28565b60600135146128125760405160e560020a62461bcd02815260206004820152601f60248201527f706172656e7448617368206f722072656365697074486173682077726f6e6700604482015260640161093d565b61284661281f8580615a4f565b8381811061282f5761282f615e6c565b90506020028101906128419190615b28565b612cc8565b915061287c6128558580615a4f565b8381811061286557612865615e6c565b90506020028101906128779190615b28565b612dd2565b8061288681615e0b565b91505061277e565b60d35461289b9042615c01565b600082815260ca60205260408120600101919091555b82518110156108d457600082815260ca6020526040902083518490839081106128dc576128dc615e6c565b60209081029190910181015182546001808201855560009485529383902082516003909202018054600160a060020a0319908116600160a060020a039384161782559383015194810180549094169490911693909317909155604001516002909101558061294981615e0b565b9150506128b1565b60606000612960836002615c2d565b61296b906002615c01565b67ffffffffffffffff81111561298357612983615e85565b6040519080825280601f01601f1916602001820160405280156129ad576020820181803683370190505b5090507f3000000000000000000000000000000000000000000000000000000000000000816000815181106129e4576129e4615e6c565b6020010190600160f860020a031916908160001a9053507f780000000000000000000000000000000000000000000000000000000000000081600181518110612a2f57612a2f615e6c565b6020010190600160f860020a031916908160001a9053506000612a53846002615c2d565b612a5e906001615c01565b90505b6001811115612ae5577f303132333435363738396162636465660000000000000000000000000000000085600f1660108110612a9f57612a9f615e6c565b1a60f860020a02828281518110612ab857612ab8615e6c565b6020010190600160f860020a031916908160001a905350601090940493612ade81615df4565b9050612a61565b508315612b375760405160e560020a62461bcd02815260206004820181905260248201527f537472696e67733a20686578206c656e67746820696e73756666696369656e74604482015260640161093d565b9392505050565b610b618282611e97565b6020810151604082015160608301516000929190831a601b811015612b6b57601b015b60408051600081526020810180835288905260ff831691810191909152606081018490526080810183905260019060a0016020604051602081039080840390855afa158015612bbe573d6000803e3d6000fd5b5050604051601f190151979650505050505050565b6000808360000151600081518110612bed57612bed615e6c565b6020026020010151838560000151600181518110612c0d57612c0d615e6c565b6020026020010151612c228760200151612f28565b875180516002908110612c3757612c37615e6c565b60200260200101518860400151604051602001612c5491906158d3565b6040516020818303038152906040528960000151600381518110612c7a57612c7a615e6c565b6020026020010151604051602001612c989796959493929190615741565b604051602081830303815290604052805190602001209050612cc08460000151826004613090565b949350505050565b6000612cd7602083018361530d565b612ce46040840184615ae1565b6060850135612cf66080870187615ae1565b612d0360a0890189615ae1565b612d1060c08b018b615ae1565b604051602001612d299a99989796959493929190615679565b60408051601f19818403018152919052612d4660e0840184615ae1565b612d54610100860186615ae1565b612d62610120880188615ae1565b612d706101408a018a615ae1565b612d7e6101608c018c615ae1565b604051602001612d979a999897969594939291906156f5565b60408051601f1981840301815290829052612db59291602001615823565b604051602081830303815290604052805190602001209050919050565b6000612e1e612de460a0840184615ae1565b8080601f01602080910402602001604051908101604052809392919081815260200183838082843760009201919091525061314092505050565b905060e854811015612e755760405160e560020a62461bcd02815260206004820152601260248201527f646966666963756c747920746f6f206c6f770000000000000000000000000000604482015260640161093d565b610b61612e88612de460e0850185615ae1565b612e9184613173565b612ea2612de4610140870187615ae1565b84612eb1610180880188615a4f565b80806020026020016040519081016040528093929190818152602001838360200280828437600092019190915250612ef1925050506101a0890189615a4f565b8080602002602001604051908101604052809392919081815260200183836020028082843760009201919091525061326392505050565b6040805160208082528183019092526060916000919060208201818036833701905050905082602082015260005b6020811015612fbf57818181518110612f7157612f71615e6c565b60209101015160f860020a90819004027fff000000000000000000000000000000000000000000000000000000000000001615612fad57612fbf565b80612fb781615e0b565b915050612f56565b6000612fcc826020615c4c565b67ffffffffffffffff811115612fe457612fe4615e85565b6040519080825280601f01601f19166020018201604052801561300e576020820181803683370190505b50905060005b815181101561308757838361302881615e0b565b94508151811061303a5761303a615e6c565b602001015160f860020a900460f860020a0282828151811061305e5761305e615e6c565b6020010190600160f860020a031916908160001a9053508061307f81615e0b565b915050613014565b50949350505050565b60006060825b8551811015613136578581815181106130b1576130b1615e6c565b602002602001015185878360016130c89190615c01565b815181106130d8576130d8615e6c565b60200260200101516040516020016130f2939291906157ec565b6040516020818303038152906040529150602082511161311a5761311582615c63565b613122565b815160208301205b945061312f600282615c01565b9050613096565b5092949350505050565b6000815160086131509190615c2d565b61315c90610100615c4c565b61316583615c63565b60029190910a900492915050565b600080613186604084016020850161530d565b6131936040850185615ae1565b60608601356131a56080880188615ae1565b6040516020016131ba96959493929190615625565b60408051601f198184030181529190526131d760a0850185615ae1565b6131e460c0870187615ae1565b6131f160e0890189615ae1565b6131ff6101008b018b615ae1565b61320d6101608d018d615ae1565b6040516020016132269a999897969594939291906156f5565b60408051601f19818403018152908290526132449291602001615823565b60408051601f1981840301815291905280516020909101209392505050565b600061327161753088615c19565b9050600061328287878686866132ec565b905061329085600019615c19565b8111156132e25760405160e560020a62461bcd02815260206004820152601960248201527f45746861736820646966666963756c747920746f6f206c6f7700000000000000604482015260640161093d565b5050505050505050565b6000806132f987876135d9565b9050613303614e6d565b61330b614e8c565b600085815260e76020526040812061020181015461020090910154909180826133795760405160e560020a62461bcd02815260206004820152601160248201527f45706f636844617461206e6f7420736574000000000000000000000000000000604482015260640161093d565b600091505b60108210156133b0576020820287810180519188019182525161020090910152816133a881615e0b565b92505061337e565b600091505b604082101561353957865160009084906133f1908518896133d7602088615e26565b602081106133e7576133e7615e6c565b6020020151613680565b6133fb9190615e26565b90506134078a826136a0565b61341482858f8f8a613705565b146134645760405160e560020a62461bcd02815260206004820152600a60248201527f506f57206661696c656400000000000000000000000000000000000000000000604482015260640161093d565b600091505b600882101561352657602060808481028e0182810180519386028b01805163ffffffff9586166301000193918202188616825260408401805161010084018051918916918402919091188816905260608501805161020085018051918a1691850291909118891690529490950180516103009093018051938816939092029290921890951690945280516401000000009081900490915282518190049092528051829004905281510490528161351e81615e0b565b925050613469565b508161353181615e0b565b9250506133b5565b600091505b60208210156135be5761358b61357f61357388856020811061356257613562615e6c565b6020020151896133d7876001615c01565b886133d7866002615c01565b876133d7856003615c01565b85613597600485615c19565b600881106135a7576135a7615e6c565b60200201526135b7600483615c01565b915061353e565b6135c887866138e0565b9d9c50505050505050505050505050565b6135e1614eab565b6135e9614eca565b6135f284613c18565b67ffffffffffffffff8116825293506136146801000000000000000085615c19565b67ffffffffffffffff8116602083015293506136396801000000000000000085615c19565b67ffffffffffffffff81166040830152935061365e6801000000000000000085615c19565b67ffffffffffffffff81166060830152608082018490529350612cc081613c5a565b600081613691846301000193615c2d565b1863ffffffff16905092915050565b600082815260e760205260408120610201810154600290810a8404918391830461020081106136d1576136d1615e6c565b015490506136e0600283615e26565b6136f6576001608060020a031691506108ab9050565b608060020a9004949350505050565b6000806137128587613f6f565b6001608060020a0316905060008080808061372e600289615e26565b6002909804971190506000613743888c615c2d565b90508115613758576137558b82615c01565b90505b60005b888110156138535760208282010260208b01015193508c60011660001415613791578695506001608060020a03841694506137a1565b6001608060020a03841695508694505b604080516020810188905290810186905260600160408051601f1981840301815291905280516020909101206002909d049c6001608060020a0316965060018d166137f757869550608060020a84049450613804565b608060020a840495508694505b604080516020810188905290810186905260600160408051601f1981840301815291905280516020909101206002909d049c6001608060020a031696508061384b81615e0b565b91505061375b565b82156138cf5760208282010260208b01015193508c60011660001415613887578695506001608060020a0384169450613897565b6001608060020a03841695508694505b604080516020810188905290810186905260600160408051601f1981840301815291905280516020909101206001608060020a031696505b50949b9a5050505050505050505050565b6000808360076020020151613902906c01000000000000000000000000615c2d565b60c085015161391a9068010000000000000000615c2d565b60a086015161392e90640100000000615c2d565b608087015161393d9190615c01565b6139479190615c01565b6139519190615c01565b61395f90608060020a615c2d565b606085015161397b906c01000000000000000000000000615c2d565b60408601516139939068010000000000000000615c2d565b60208701516139a790640100000000615c2d565b87516139b39190615c01565b6139bd9190615c01565b6139c79190615c01565b6139d19190615c01565b9050600084600f60200201516139f4906c01000000000000000000000000615c2d565b6101c0860151613a0d9068010000000000000000615c2d565b6101a0870151613a2290640100000000615c2d565b610180880151613a329190615c01565b613a3c9190615c01565b613a469190615c01565b613a5490608060020a615c2d565b610160860151613a71906c01000000000000000000000000615c2d565b610140870151613a8a9068010000000000000000615c2d565b610120880151613a9f90640100000000615c2d565b610100890151613aaf9190615c01565b613ab99190615c01565b613ac39190615c01565b613acd9190615c01565b905060008460076020020151613af0906c01000000000000000000000000615c2d565b60c0860151613b089068010000000000000000615c2d565b60a0870151613b1c90640100000000615c2d565b6080880151613b2b9190615c01565b613b359190615c01565b613b3f9190615c01565b613b4d90608060020a615c2d565b6060860151613b69906c01000000000000000000000000615c2d565b6040870151613b819068010000000000000000615c2d565b6020880151613b9590640100000000615c2d565b8851613ba19190615c01565b613bab9190615c01565b613bb59190615c01565b613bbf9190615c01565b9050613bca83613c18565b613bd383613c18565b613bdc83613c18565b604080516020810194909452830191909152606082015260800160408051808303601f1901815291905280516020909101209695505050505050565b60008060005b6020811015613c5357613c3860ff85166101008402615c01565b61010090940493915080613c4b81615e0b565b915050613c1e565b5092915050565b613c62614eab565b613c6e60096008615c2d565b604814613cc05760405160e560020a62461bcd02815260206004820152600c60248201527f73706f6e6765206572726f720000000000000000000000000000000000000000604482015260640161093d565b600160a0830152678000000000000000610100830152604860086000613ce7600983615c2d565b9050613cf1614ee9565b600080805b613d008786615c19565b831015613e2357600091505b6005821015613e06575060005b6005811015613df457613d2c8688615c19565b613d37836005615c2d565b613d419083615c01565b1015613de25788613d53836005615c2d565b82613d5f866009615c2d565b613d699190615c01565b613d739190615c01565b60098110613d8357613d83615e6c565b60200201518483613d95846005615c2d565b613d9f9190615c01565b60198110613daf57613daf615e6c565b6020020151188483613dc2846005615c2d565b613dcc9190615c01565b60198110613ddc57613ddc615e6c565b60200201525b80613dec81615e0b565b915050613d19565b81613dfe81615e0b565b925050613d0c565b613e0f84614070565b935082613e1b81615e0b565b935050613cf6565b613e2b614eab565b60005b6010811015613f6157600093505b6005841015613f5c57600092505b6005831015613f4a57613e5d888a615c19565b613e68856005615c2d565b613e729085615c01565b108015613e7f5750601081105b15613f38578584613e91856005615c2d565b613e9b9190615c01565b60198110613eab57613eab615e6c565b602002015163ffffffff16828260108110613ec857613ec8615e6c565b60200201526401000000008685613ee0866005615c2d565b613eea9190615c01565b60198110613efa57613efa615e6c565b6020020151613f099190615c19565b82613f15836001615c01565b60108110613f2557613f25615e6c565b6020020152613f35600282615c01565b90505b82613f4281615e0b565b935050613e4a565b83613f5481615e0b565b945050613e3c565b613e2e565b509998505050505050505050565b600082613f7d836004615c2d565b81518110613f8d57613f8d615e6c565b602002602001015183836004613fa39190615c2d565b613fae906001615c01565b81518110613fbe57613fbe615e6c565b602002602001015184846004613fd49190615c2d565b613fdf906002615c01565b81518110613fef57613fef615e6c565b6020026020010151858560046140059190615c2d565b614010906003615c01565b8151811061402057614020615e6c565b6020026020010151604051602001614051949392919093845260208401929092526040830152606082015260800190565b60408051808303601f1901815291905280516020909101209392505050565b614078614ee9565b614080614ee9565b614088614f08565b614090614f08565b600060405180610300016040528060018152602001618082815260200167800000000000808a8152602001678000000080008000815260200161808b81526020016380000001815260200167800000008000808181526020016780000000000080098152602001608a81526020016088815260200163800080098152602001638000000a8152602001638000808b815260200167800000000000008b8152602001678000000000008089815260200167800000000000800381526020016780000000000080028152602001678000000000000080815260200161800a815260200167800000008000000a81526020016780000000800080818152602001678000000000008080815260200163800000018152602001678000000080008008815250905060005b6018811015614e31576080808801516060808a01516040808c01516020808e01518e511890911890921890931888526101208b01516101008c015160e08d015160c08e015160a08f0151181818189088018190526101c08b01516101a08c01516101808d01516101608e01516101408f015118181818928801929092526102608a01516102408b01516102208c01516102008d01516101e08e015118181818908701526103008901516102e08a01516102c08b01516102a08c01516102808d015118181818918601919091526142959067800000000000000090615c19565b60208501516142a5906002615c2d565b608086015167ffffffffffffffff919091169190911718835260408401516142d69067800000000000000090615c19565b60408501516142e6906002615c2d565b855167ffffffffffffffff919091169190911718602084015260608401516143179067800000000000000090615c19565b6060850151614327906002615c2d565b67ffffffffffffffff16178460016020020151188360026020020152678000000000000000846004602002015161435e9190615c19565b608085015161436e906002615c2d565b604086015167ffffffffffffffff9190911691909117186060840152835161439f9067800000000000000090615c19565b84516143ac906002615c2d565b60608087015167ffffffffffffffff929092169290921718608080860191825285518a5118808b52865160208c81018051909218825288516040808f01805190921890915289518e8801805190911890528951948e0180519095189094528801805160a08e0180519091189052805160c08e0180519091189052805160e08e018051909118905280516101008e0180519091189052516101208d018051909118905291870180516101408d018051909118905280516101608d018051909118905280516101808d018051909118905280516101a08d0180519091189052516101c08c018051909118905292860180516101e08c018051909118905280516102008c018051909118905280516102208c018051909118905280516102408c0180519091189052516102608b018051909118905281516102808b018051909118905281516102a08b018051909118905281516102c08b018051909118905281516102e08b018051909118905290516103008a01805190911890529086525161453790631000000090615c19565b602088015161454b90641000000000615c2d565b67ffffffffffffffff161761010086015260408701516145749067200000000000000090615c19565b6040880151614584906008615c2d565b67ffffffffffffffff161761016086015260608701516145a8906280000090615c19565b60608801516145bd9065020000000000615c2d565b67ffffffffffffffff161761026086015260808701516145e4906540000000000090615c19565b60808801516145f69062040000615c2d565b67ffffffffffffffff16176102c086015260a087015161461f9067800000000000000090615c19565b60a088015161462f906002615c2d565b67ffffffffffffffff1617604086015260c0870151614652906210000090615c19565b60c08801516146679065100000000000615c2d565b67ffffffffffffffff161760a086015260e087015161468e90664000000000000090615c19565b60e088015161469f90610400615c2d565b67ffffffffffffffff16176101a08601526101008701516146c4906208000090615c19565b6101008801516146da9065200000000000615c2d565b67ffffffffffffffff16176102008601526101208701516147049067400000000000000090615c19565b610120880151614715906004615c2d565b67ffffffffffffffff161761030086015261014087015161473890600490615c19565b61014088015161475090674000000000000000615c2d565b67ffffffffffffffff161760808601526101608701516147799067040000000000000090615c19565b61016088015161478a906040615c2d565b67ffffffffffffffff161760e08601526101808701516147ae906220000090615c19565b6101808801516147c49065080000000000615c2d565b67ffffffffffffffff16176101408601526101a08701516147ed90660200000000000090615c19565b6101a08801516147ff90618000615c2d565b67ffffffffffffffff16176102408601526101c087015161482290600890615c19565b6101c088015161483a90672000000000000000615c2d565b67ffffffffffffffff16176102a08601526101e08701516148619064100000000090615c19565b6101e0880151614875906310000000615c2d565b67ffffffffffffffff16176020860152610200878101516148969190615c19565b6102008801516148ad906680000000000000615c2d565b67ffffffffffffffff16176101208601526102208701516148d49064800000000090615c19565b6102208801516148e8906302000000615c2d565b67ffffffffffffffff1617610180860152610240870151614910906508000000000090615c19565b6102408801516149239062200000615c2d565b67ffffffffffffffff16176101e08601526102608701516149479061010090615c19565b61026088015161495f90670100000000000000615c2d565b67ffffffffffffffff16176102e08601526102808701516149869064200000000090615c19565b61028088015161499a906308000000615c2d565b67ffffffffffffffff161760608601526102a08701516149c1906510000000000090615c19565b6102a08801516149d49062100000615c2d565b67ffffffffffffffff161760c08601526102c08701516149f990630200000090615c19565b6102c0880151614a0e90648000000000615c2d565b67ffffffffffffffff16176101c08601526102e0870151614a389067010000000000000090615c19565b6102e0880151614a4a90610100615c2d565b67ffffffffffffffff1617610220860152610300870151614a7390660400000000000090615c19565b610300880151614a8590614000615c2d565b67ffffffffffffffff1617856014602002015284600a602002015185600560200201511916856000602002015118876000602002015284600b602002015185600660200201511916856001602002015118876001602002015284600c602002015185600760200201511916856002602002015118876002602002015284600d602002015185600860200201511916856003602002015118876003602002015284600e602002015185600960200201511916856004602002015118876004602002015284600f602002015185600a602002015119168560056020020151188760056020020152846010602002015185600b602002015119168560066020020151188760066020020152846011602002015185600c602002015119168560076020020151188760076020020152846012602002015185600d602002015119168560086020020151188760086020020152846013602002015185600e602002015119168560096020020151188760096020020152846014602002015185600f6020020151191685600a60200201511887600a602002015284601560200201518560106020020151191685600b60200201511887600b602002015284601660200201518560116020020151191685600c60200201511887600c602002015284601760200201518560126020020151191685600d60200201511887600d602002015284601860200201518560136020020151191685600e60200201511887600e602002015284600060200201518560146020020151191685600f60200201511887600f6020020152846001602002015185601560200201511916856010602002015118876010602002015284600260200201518560166020020151191685601160200201511887601160200201528460036020020151856017602002015119168560126020020151188760126020020152846004602002015185601860200201511916856013602002015118876013602002015284600560200201518560006020020151191685601460200201511887601460200201528460066020020151856001602002015119168560156020020151188760156020020152846007602002015185600260200201511916856016602002015118876016602002015284600860200201518560036020020151191685601760200201511887601760200201528460096020020151856004602002015119168560186020020151188760186020020152818160188110614e1557614e15615e6c565b6020020151875118875280614e2981615e0b565b9150506141b6565b509495945050505050565b5080546000825560030290600052602060002090810190610c449190614f26565b50610c4490610200810190614f5d565b6040518061040001604052806020906020820280368337509192915050565b6040518061010001604052806008906020820280368337509192915050565b6040518061020001604052806010906020820280368337509192915050565b6040518061012001604052806009906020820280368337509192915050565b6040518061032001604052806019906020820280368337509192915050565b6040518060a001604052806005906020820280368337509192915050565b5b80821115614f59578054600160a060020a03199081168255600182018054909116905560006002820155600301614f27565b5090565b5b80821115614f595760008155600101614f5e565b8035614f7d81615e9e565b919050565b600082601f830112614f9357600080fd5b81356020614fa8614fa383615bdd565b615bac565b8281528181019085830183850287018401881015614fc557600080fd5b60005b85811015614fed578135614fdb81615e9e565b84529284019290840190600101614fc8565b5090979650505050505050565b600082601f83011261500b57600080fd5b8135602061501b614fa383615bdd565b8281528181019085830160608086028801850189101561503a57600080fd5b60005b868110156150615761504f8a846150b8565b8552938501939181019160010161503d565b509198975050505050505050565b60008083601f84011261508157600080fd5b50813567ffffffffffffffff81111561509957600080fd5b6020830191508360208285010111156150b157600080fd5b9250929050565b6000606082840312156150ca57600080fd5b6150d2615b5f565b905081356150df81615e9e565b815260208201356150ef81615e9e565b806020830152506040820135604082015292915050565b60006020828403121561511857600080fd5b8135612b3781615e9e565b6000806040838503121561513657600080fd5b823561514181615e9e565b9150602083013561515181615e9e565b809150509250929050565b60008060008060008060008060e0898b03121561517857600080fd5b883561518381615e9e565b9750602089013561519381615e9e565b96506040890135955060608901356151aa81615eb3565b9450608089013567ffffffffffffffff8111156151c657600080fd5b6151d28b828c0161506f565b999c989b5096999598969760a08701359660c0013595509350505050565b60008060008060006080868803121561520857600080fd5b853561521381615e9e565b9450602086013567ffffffffffffffff81111561522f57600080fd5b61523b8882890161506f565b9699909850959660408101359660609091013595509350505050565b60006020828403121561526957600080fd5b813567ffffffffffffffff81111561528057600080fd5b612cc084828501614f82565b6000806040838503121561529f57600080fd5b823567ffffffffffffffff808211156152b757600080fd5b6152c386838701614f82565b935060208501359150808211156152d957600080fd5b506152e685828601614f82565b9150509250929050565b60006020828403121561530257600080fd5b8151612b3781615eb3565b60006020828403121561531f57600080fd5b81357cffffffffffffffffffffffffffffffffffffffffffffffffffffffffff1981168114612b3757600080fd5b60006020828403121561535f57600080fd5b5035919050565b6000806040838503121561537957600080fd5b82359150602083013561515181615e9e565b60006020828403121561539d57600080fd5b81357bffffffffffffffffffffffffffffffffffffffffffffffffffffffff1981168114612b3757600080fd5b600080604083850312156153dd57600080fd5b823567ffffffffffffffff808211156153f557600080fd5b90840190610160828703121561540a57600080fd5b615412615b88565b61541b83614f72565b815261542960208401614f72565b602082015261543a60408401614f72565b604082015261544b60608401614f72565b606082015260808301358281111561546257600080fd5b61546e88828601614f82565b60808301525060a08301358281111561548657600080fd5b61549288828601614f82565b60a0830152506154a460c08401614f72565b60c08201526154b560e08401614f72565b60e082015261010083810135908201526101208084013590820152610140928301359281019290925250946020939093013593505050565b6000602082840312156154ff57600080fd5b813567ffffffffffffffff81111561551657600080fd5b820160408185031215612b3757600080fd5b60006060828403121561553a57600080fd5b612b3783836150b8565b60008060008060006080868803121561555c57600080fd5b853594506020860135935060408601359250606086013567ffffffffffffffff8082111561558957600080fd5b818801915088601f83011261559d57600080fd5b8135818111156155ac57600080fd5b89602080830285010111156155c057600080fd5b9699959850939650602001949392505050565b600081518084526020808501945080840160005b83811015614e315781518051600160a060020a03908116895284820151168489015260409081015190880152606090960195908201906001016155e7565b7cffffffffffffffffffffffffffffffffffffffffffffffffffffffffff19871681528486600383013784810160038101859052600090838560238301376000930160230192835250909695505050505050565b7cffffffffffffffffffffffffffffffffffffffffffffffffffffffffff198b168152888a600383013788810160038101899052600090878960238301378781019050602381016000815286888237508581019050602381016000815284868237506000930160230192835250909a9950505050505050505050565b898b823760008a820160008152898b82376000908a01908152878982376000908801908152858782376000908601908152838582376000930192835250909a9950505050505050505050565b6000885160206157548285838e01615dc8565b81840191506c01000000000000000000000000600160a060020a038b160282526014895161578781838601858e01615dc8565b895193019261579b81838601858d01615dc8565b88519301926157af81838601858c01615dc8565b87519301926157c381838601858b01615dc8565b86519301926157d781838601858a01615dc8565b929092019091019a9950505050505050505050565b600084516157fe818460208901615dc8565b82018481528351615816816020808501908801615dc8565b0160200195945050505050565b60008351615835818460208801615dc8565b835190830190615849818360208801615dc8565b01949350505050565b7f416363657373436f6e74726f6c3a206163636f756e742000000000000000000081526000835161588a816017850160208801615dc8565b7f206973206d697373696e6720726f6c652000000000000000000000000000000060179184019182015283516158c7816028840160208801615dc8565b01602801949350505050565b602081526000612b3760208301846155d3565b60006020808301818452808554808352604092508286019150866000528360002060005b82811015615949578154600160a060020a039081168552600180840154909116878601526002830154868601526060909401936003909201910161590a565b5091979650505050505050565b6020815260008251806020840152615975816040850160208701615dc8565b601f01601f19169190910160400192915050565b60208082526010908201527f5061757361626c653a2070617573656400000000000000000000000000000000604082015260600190565b6020808252602e908201527f496e697469616c697a61626c653a20636f6e747261637420697320616c72656160408201527f647920696e697469616c697a6564000000000000000000000000000000000000606082015260800190565b602081526000825160406020840152615a3960608401826155d3565b9050602084015160408401528091505092915050565b6000808335601e19843603018112615a6657600080fd5b83018035915067ffffffffffffffff821115615a8157600080fd5b60209081019250810236038213156150b157600080fd5b6000808335601e19843603018112615aaf57600080fd5b83018035915067ffffffffffffffff821115615aca57600080fd5b60200191506060810236038213156150b157600080fd5b6000808335601e19843603018112615af857600080fd5b83018035915067ffffffffffffffff821115615b1357600080fd5b6020019150368190038213156150b157600080fd5b600082356101be19833603018112615b3f57600080fd5b9190910192915050565b60008235605e19833603018112615b3f57600080fd5b6040516060810167ffffffffffffffff81118282101715615b8257615b82615e85565b60405290565b604051610160810167ffffffffffffffff81118282101715615b8257615b82615e85565b604051601f8201601f1916810167ffffffffffffffff81118282101715615bd557615bd5615e85565b604052919050565b600067ffffffffffffffff821115615bf757615bf7615e85565b5060209081020190565b60008219821115615c1457615c14615e3a565b500190565b600082615c2857615c28615e53565b500490565b6000816000190483118215151615615c4757615c47615e3a565b500290565b600082821015615c5e57615c5e615e3a565b500390565b80516020808301519190811015615c86578060200360080260020a600003821691505b50919050565b600060608236031215615c9e57600080fd5b615ca6615b5f565b823567ffffffffffffffff80821115615cbe57600080fd5b90840190601f3681840112615cd257600080fd5b82356020615ce2614fa383615bdd565b8281528181019086830136848602890185011115615cff57600080fd5b60005b85811015615d8c57813588811115615d1957600080fd5b890136603f820112615d2a57600080fd5b8581013560408a821115615d4057615d40615e85565b615d51828b01601f19168901615bac565b8281523682848601011115615d6557600080fd5b828285018a8301376000928101890192909252508552509284019290840190600101615d02565b5050875250878101359086015250506040850135915080821115615daf57600080fd5b50615dbc36828601614ffa565b60408301525092915050565b60005b83811015615de3578181015183820152602001615dcb565b83811115610d035750506000910152565b600081615e0357615e03615e3a565b506000190190565b6000600019821415615e1f57615e1f615e3a565b5060010190565b600082615e3557615e35615e53565b500690565b60e060020a634e487b7102600052601160045260246000fd5b60e060020a634e487b7102600052601260045260246000fd5b60e060020a634e487b7102600052603260045260246000fd5b60e060020a634e487b7102600052604160045260246000fd5b600160a060020a0381168114610c4457600080fd5b8015158114610c4457600080fdfe077a1d526a4ce8a773632ab13b4fbbf1fcc954c3dab26cd27ea0e2a6750da5d7a49807205ce4d355092ef5a8a18f56e8913cf4a201fbe287825b095693c21775a2646970667358221220da1b7bddb7ff94f2fa07b4c041e8e5036f7d3261bde0610cdf49ce8b59b1d6ca64736f6c63430008060033",
  "devdoc": {
    "kind": "dev",
    "methods": {
      "getRoleAdmin(bytes32)": {
        "details": "Returns the admin role that controls `role`. See {grantRole} and {revokeRole}. To change a role's admin, use {_setRoleAdmin}."
      },
      "grantRole(bytes32,address)": {
        "details": "Grants `role` to `account`. If `account` had not been already granted `role`, emits a {RoleGranted} event. Requirements: - the caller must have ``role``'s admin role."
      },
      "hasRole(bytes32,address)": {
        "details": "Returns `true` if `account` has been granted `role`."
      },
      "paused()": {
        "details": "Returns true if the contract is paused, and false otherwise."
      },
      "renounceRole(bytes32,address)": {
        "details": "Revokes `role` from the calling account. Roles are often managed via {grantRole} and {revokeRole}: this function's purpose is to provide a mechanism for accounts to lose their privileges if they are compromised (such as when a trusted device is misplaced). If the calling account had been granted `role`, emits a {RoleRevoked} event. Requirements: - the caller must be `account`."
      },
      "revokeRole(bytes32,address)": {
        "details": "Revokes `role` from `account`. If `account` had been granted `role`, emits a {RoleRevoked} event. Requirements: - the caller must have ``role``'s admin role."
      },
      "supportsInterface(bytes4)": {
        "details": "See {IERC165-supportsInterface}."
      }
    },
    "version": 1
  },
  "userdoc": {
    "kind": "user",
    "methods": {},
    "version": 1
  },
  "storageLayout": {
    "storage": [
      {
        "astId": 413,
        "contract": "contracts/networks/ETH_AmbBridge.sol:ETH_AmbBridge",
        "label": "_initialized",
        "offset": 0,
        "slot": "0",
        "type": "t_bool"
      },
      {
        "astId": 416,
        "contract": "contracts/networks/ETH_AmbBridge.sol:ETH_AmbBridge",
        "label": "_initializing",
        "offset": 1,
        "slot": "0",
        "type": "t_bool"
      },
      {
        "astId": 609,
        "contract": "contracts/networks/ETH_AmbBridge.sol:ETH_AmbBridge",
        "label": "__gap",
        "offset": 0,
        "slot": "1",
        "type": "t_array(t_uint256)50_storage"
      },
      {
        "astId": 858,
        "contract": "contracts/networks/ETH_AmbBridge.sol:ETH_AmbBridge",
        "label": "__gap",
        "offset": 0,
        "slot": "51",
        "type": "t_array(t_uint256)50_storage"
      },
      {
        "astId": 48,
        "contract": "contracts/networks/ETH_AmbBridge.sol:ETH_AmbBridge",
        "label": "_roles",
        "offset": 0,
        "slot": "101",
        "type": "t_mapping(t_bytes32,t_struct(RoleData)43_storage)"
      },
      {
        "astId": 333,
        "contract": "contracts/networks/ETH_AmbBridge.sol:ETH_AmbBridge",
        "label": "__gap",
        "offset": 0,
        "slot": "102",
        "type": "t_array(t_uint256)49_storage"
      },
      {
        "astId": 474,
        "contract": "contracts/networks/ETH_AmbBridge.sol:ETH_AmbBridge",
        "label": "_paused",
        "offset": 0,
        "slot": "151",
        "type": "t_bool"
      },
      {
        "astId": 565,
        "contract": "contracts/networks/ETH_AmbBridge.sol:ETH_AmbBridge",
        "label": "__gap",
        "offset": 0,
        "slot": "152",
        "type": "t_array(t_uint256)49_storage"
      },
      {
        "astId": 6774,
        "contract": "contracts/networks/ETH_AmbBridge.sol:ETH_AmbBridge",
        "label": "queue",
        "offset": 0,
        "slot": "201",
        "type": "t_array(t_struct(Transfer)7854_storage)dyn_storage"
      },
      {
        "astId": 6779,
        "contract": "contracts/networks/ETH_AmbBridge.sol:ETH_AmbBridge",
        "label": "lockedTransfers",
        "offset": 0,
        "slot": "202",
        "type": "t_mapping(t_uint256,t_struct(LockedTransfers)7871_storage)"
      },
      {
        "astId": 6781,
        "contract": "contracts/networks/ETH_AmbBridge.sol:ETH_AmbBridge",
        "label": "oldestLockedEventId",
        "offset": 0,
        "slot": "203",
        "type": "t_uint256"
      },
      {
        "astId": 6785,
        "contract": "contracts/networks/ETH_AmbBridge.sol:ETH_AmbBridge",
        "label": "tokenAddresses",
        "offset": 0,
        "slot": "204",
        "type": "t_mapping(t_address,t_address)"
      },
      {
        "astId": 6787,
        "contract": "contracts/networks/ETH_AmbBridge.sol:ETH_AmbBridge",
        "label": "wrapperAddress",
        "offset": 0,
        "slot": "205",
        "type": "t_address"
      },
      {
        "astId": 6789,
        "contract": "contracts/networks/ETH_AmbBridge.sol:ETH_AmbBridge",
        "label": "transferFeeRecipient",
        "offset": 0,
        "slot": "206",
        "type": "t_address_payable"
      },
      {
        "astId": 6791,
        "contract": "contracts/networks/ETH_AmbBridge.sol:ETH_AmbBridge",
        "label": "bridgeFeeRecipient",
        "offset": 0,
        "slot": "207",
        "type": "t_address_payable"
      },
      {
        "astId": 6793,
        "contract": "contracts/networks/ETH_AmbBridge.sol:ETH_AmbBridge",
        "label": "sideBridgeAddress",
        "offset": 0,
        "slot": "208",
        "type": "t_address"
      },
      {
        "astId": 6795,
        "contract": "contracts/networks/ETH_AmbBridge.sol:ETH_AmbBridge",
        "label": "minSafetyBlocks",
        "offset": 0,
        "slot": "209",
        "type": "t_uint256"
      },
      {
        "astId": 6797,
        "contract": "contracts/networks/ETH_AmbBridge.sol:ETH_AmbBridge",
        "label": "timeframeSeconds",
        "offset": 0,
        "slot": "210",
        "type": "t_uint256"
      },
      {
        "astId": 6799,
        "contract": "contracts/networks/ETH_AmbBridge.sol:ETH_AmbBridge",
        "label": "lockTime",
        "offset": 0,
        "slot": "211",
        "type": "t_uint256"
      },
      {
        "astId": 6801,
        "contract": "contracts/networks/ETH_AmbBridge.sol:ETH_AmbBridge",
        "label": "inputEventId",
        "offset": 0,
        "slot": "212",
        "type": "t_uint256"
      },
      {
        "astId": 6803,
        "contract": "contracts/networks/ETH_AmbBridge.sol:ETH_AmbBridge",
        "label": "outputEventId",
        "offset": 0,
        "slot": "213",
        "type": "t_uint256"
      },
      {
        "astId": 6805,
        "contract": "contracts/networks/ETH_AmbBridge.sol:ETH_AmbBridge",
        "label": "lastTimeframe",
        "offset": 0,
        "slot": "214",
        "type": "t_uint256"
      },
      {
        "astId": 6807,
        "contract": "contracts/networks/ETH_AmbBridge.sol:ETH_AmbBridge",
        "label": "signatureFeeCheckNumber",
        "offset": 0,
        "slot": "215",
        "type": "t_uint256"
      },
      {
        "astId": 7844,
        "contract": "contracts/networks/ETH_AmbBridge.sol:ETH_AmbBridge",
        "label": "__gap",
        "offset": 0,
        "slot": "216",
        "type": "t_array(t_uint256)15_storage"
      },
      {
        "astId": 5504,
        "contract": "contracts/networks/ETH_AmbBridge.sol:ETH_AmbBridge",
        "label": "epochData",
        "offset": 0,
        "slot": "231",
        "type": "t_mapping(t_uint256,t_struct(EthashCacheOptData)5499_storage)"
      },
      {
        "astId": 3218,
        "contract": "contracts/networks/ETH_AmbBridge.sol:ETH_AmbBridge",
        "label": "minimumDifficulty",
        "offset": 0,
        "slot": "232",
        "type": "t_uint256"
      },
      {
        "astId": 3442,
        "contract": "contracts/networks/ETH_AmbBridge.sol:ETH_AmbBridge",
        "label": "___gap",
        "offset": 0,
        "slot": "233",
        "type": "t_array(t_uint256)15_storage"
      }
    ],
    "types": {
      "t_address": {
        "encoding": "inplace",
        "label": "address",
        "numberOfBytes": "20"
      },
      "t_address_payable": {
        "encoding": "inplace",
        "label": "address payable",
        "numberOfBytes": "20"
      },
      "t_array(t_struct(Transfer)7854_storage)dyn_storage": {
        "base": "t_struct(Transfer)7854_storage",
        "encoding": "dynamic_array",
        "label": "struct CommonStructs.Transfer[]",
        "numberOfBytes": "32"
      },
      "t_array(t_uint256)15_storage": {
        "base": "t_uint256",
        "encoding": "inplace",
        "label": "uint256[15]",
        "numberOfBytes": "480"
      },
      "t_array(t_uint256)49_storage": {
        "base": "t_uint256",
        "encoding": "inplace",
        "label": "uint256[49]",
        "numberOfBytes": "1568"
      },
      "t_array(t_uint256)50_storage": {
        "base": "t_uint256",
        "encoding": "inplace",
        "label": "uint256[50]",
        "numberOfBytes": "1600"
      },
      "t_array(t_uint256)512_storage": {
        "base": "t_uint256",
        "encoding": "inplace",
        "label": "uint256[512]",
        "numberOfBytes": "16384"
      },
      "t_bool": {
        "encoding": "inplace",
        "label": "bool",
        "numberOfBytes": "1"
      },
      "t_bytes32": {
        "encoding": "inplace",
        "label": "bytes32",
        "numberOfBytes": "32"
      },
      "t_mapping(t_address,t_address)": {
        "encoding": "mapping",
        "key": "t_address",
        "label": "mapping(address => address)",
        "numberOfBytes": "32",
        "value": "t_address"
      },
      "t_mapping(t_address,t_bool)": {
        "encoding": "mapping",
        "key": "t_address",
        "label": "mapping(address => bool)",
        "numberOfBytes": "32",
        "value": "t_bool"
      },
      "t_mapping(t_bytes32,t_struct(RoleData)43_storage)": {
        "encoding": "mapping",
        "key": "t_bytes32",
        "label": "mapping(bytes32 => struct AccessControlUpgradeable.RoleData)",
        "numberOfBytes": "32",
        "value": "t_struct(RoleData)43_storage"
      },
      "t_mapping(t_uint256,t_struct(EthashCacheOptData)5499_storage)": {
        "encoding": "mapping",
        "key": "t_uint256",
        "label": "mapping(uint256 => struct Ethash.EthashCacheOptData)",
        "numberOfBytes": "32",
        "value": "t_struct(EthashCacheOptData)5499_storage"
      },
      "t_mapping(t_uint256,t_struct(LockedTransfers)7871_storage)": {
        "encoding": "mapping",
        "key": "t_uint256",
        "label": "mapping(uint256 => struct CommonStructs.LockedTransfers)",
        "numberOfBytes": "32",
        "value": "t_struct(LockedTransfers)7871_storage"
      },
      "t_struct(EthashCacheOptData)5499_storage": {
        "encoding": "inplace",
        "label": "struct Ethash.EthashCacheOptData",
        "members": [
          {
            "astId": 5494,
            "contract": "contracts/networks/ETH_AmbBridge.sol:ETH_AmbBridge",
            "label": "merkleNodes",
            "offset": 0,
            "slot": "0",
            "type": "t_array(t_uint256)512_storage"
          },
          {
            "astId": 5496,
            "contract": "contracts/networks/ETH_AmbBridge.sol:ETH_AmbBridge",
            "label": "fullSizeIn128Resultion",
            "offset": 0,
            "slot": "512",
            "type": "t_uint256"
          },
          {
            "astId": 5498,
            "contract": "contracts/networks/ETH_AmbBridge.sol:ETH_AmbBridge",
            "label": "branchDepth",
            "offset": 0,
            "slot": "513",
            "type": "t_uint256"
          }
        ],
        "numberOfBytes": "16448"
      },
      "t_struct(LockedTransfers)7871_storage": {
        "encoding": "inplace",
        "label": "struct CommonStructs.LockedTransfers",
        "members": [
          {
            "astId": 7868,
            "contract": "contracts/networks/ETH_AmbBridge.sol:ETH_AmbBridge",
            "label": "transfers",
            "offset": 0,
            "slot": "0",
            "type": "t_array(t_struct(Transfer)7854_storage)dyn_storage"
          },
          {
            "astId": 7870,
            "contract": "contracts/networks/ETH_AmbBridge.sol:ETH_AmbBridge",
            "label": "endTimestamp",
            "offset": 0,
            "slot": "1",
            "type": "t_uint256"
          }
        ],
        "numberOfBytes": "64"
      },
      "t_struct(RoleData)43_storage": {
        "encoding": "inplace",
        "label": "struct AccessControlUpgradeable.RoleData",
        "members": [
          {
            "astId": 40,
            "contract": "contracts/networks/ETH_AmbBridge.sol:ETH_AmbBridge",
            "label": "members",
            "offset": 0,
            "slot": "0",
            "type": "t_mapping(t_address,t_bool)"
          },
          {
            "astId": 42,
            "contract": "contracts/networks/ETH_AmbBridge.sol:ETH_AmbBridge",
            "label": "adminRole",
            "offset": 0,
            "slot": "1",
            "type": "t_bytes32"
          }
        ],
        "numberOfBytes": "64"
      },
      "t_struct(Transfer)7854_storage": {
        "encoding": "inplace",
        "label": "struct CommonStructs.Transfer",
        "members": [
          {
            "astId": 7849,
            "contract": "contracts/networks/ETH_AmbBridge.sol:ETH_AmbBridge",
            "label": "tokenAddress",
            "offset": 0,
            "slot": "0",
            "type": "t_address"
          },
          {
            "astId": 7851,
            "contract": "contracts/networks/ETH_AmbBridge.sol:ETH_AmbBridge",
            "label": "toAddress",
            "offset": 0,
            "slot": "1",
            "type": "t_address"
          },
          {
            "astId": 7853,
            "contract": "contracts/networks/ETH_AmbBridge.sol:ETH_AmbBridge",
            "label": "amount",
            "offset": 0,
            "slot": "2",
            "type": "t_uint256"
          }
        ],
        "numberOfBytes": "96"
      },
      "t_uint256": {
        "encoding": "inplace",
        "label": "uint256",
        "numberOfBytes": "32"
      }
    }
  }
}