{
  "address": "0x689020fd1aa4e064bdf9c6D1d19F0Cf378b19753",
  "abi": [
    {
      "anonymous": false,
      "inputs": [
        {
          "indexed": false,
          "internalType": "address",
          "name": "account",
          "type": "address"
        }
      ],
      "name": "Paused",
      "type": "event"
    },
    {
      "anonymous": false,
      "inputs": [
        {
          "indexed": true,
          "internalType": "bytes32",
          "name": "role",
          "type": "bytes32"
        },
        {
          "indexed": true,
          "internalType": "bytes32",
          "name": "previousAdminRole",
          "type": "bytes32"
        },
        {
          "indexed": true,
          "internalType": "bytes32",
          "name": "newAdminRole",
          "type": "bytes32"
        }
      ],
      "name": "RoleAdminChanged",
      "type": "event"
    },
    {
      "anonymous": false,
      "inputs": [
        {
          "indexed": true,
          "internalType": "bytes32",
          "name": "role",
          "type": "bytes32"
        },
        {
          "indexed": true,
          "internalType": "address",
          "name": "account",
          "type": "address"
        },
        {
          "indexed": true,
          "internalType": "address",
          "name": "sender",
          "type": "address"
        }
      ],
      "name": "RoleGranted",
      "type": "event"
    },
    {
      "anonymous": false,
      "inputs": [
        {
          "indexed": true,
          "internalType": "bytes32",
          "name": "role",
          "type": "bytes32"
        },
        {
          "indexed": true,
          "internalType": "address",
          "name": "account",
          "type": "address"
        },
        {
          "indexed": true,
          "internalType": "address",
          "name": "sender",
          "type": "address"
        }
      ],
      "name": "RoleRevoked",
      "type": "event"
    },
    {
      "anonymous": false,
      "inputs": [
        {
          "indexed": true,
          "internalType": "uint256",
          "name": "eventId",
          "type": "uint256"
        },
        {
          "components": [
            {
              "internalType": "address",
              "name": "tokenAddress",
              "type": "address"
            },
            {
              "internalType": "address",
              "name": "toAddress",
              "type": "address"
            },
            {
              "internalType": "uint256",
              "name": "amount",
              "type": "uint256"
            }
          ],
          "indexed": false,
          "internalType": "struct CommonStructs.Transfer[]",
          "name": "queue",
          "type": "tuple[]"
        }
      ],
      "name": "Transfer",
      "type": "event"
    },
    {
      "anonymous": false,
      "inputs": [
        {
          "indexed": true,
          "internalType": "uint256",
          "name": "eventId",
          "type": "uint256"
        }
      ],
      "name": "TransferFinish",
      "type": "event"
    },
    {
      "anonymous": false,
      "inputs": [
        {
          "indexed": true,
          "internalType": "uint256",
          "name": "eventId",
          "type": "uint256"
        }
      ],
      "name": "TransferSubmit",
      "type": "event"
    },
    {
      "anonymous": false,
      "inputs": [
        {
          "indexed": false,
          "internalType": "address",
          "name": "account",
          "type": "address"
        }
      ],
      "name": "Unpaused",
      "type": "event"
    },
    {
      "anonymous": false,
      "inputs": [
        {
          "indexed": true,
          "internalType": "address",
          "name": "from",
          "type": "address"
        },
        {
          "indexed": false,
          "internalType": "uint256",
          "name": "eventId",
          "type": "uint256"
        },
        {
          "indexed": false,
          "internalType": "address",
          "name": "tokenFrom",
          "type": "address"
        },
        {
          "indexed": false,
          "internalType": "address",
          "name": "tokenTo",
          "type": "address"
        },
        {
          "indexed": false,
          "internalType": "uint256",
          "name": "amount",
          "type": "uint256"
        },
        {
          "indexed": false,
          "internalType": "uint256",
          "name": "transferFeeAmount",
          "type": "uint256"
        },
        {
          "indexed": false,
          "internalType": "uint256",
          "name": "bridgeFeeAmount",
          "type": "uint256"
        }
      ],
      "name": "Withdraw",
      "type": "event"
    },
    {
      "inputs": [],
      "name": "ADMIN_ROLE",
      "outputs": [
        {
          "internalType": "bytes32",
          "name": "",
          "type": "bytes32"
        }
      ],
      "stateMutability": "view",
      "type": "function"
    },
    {
      "inputs": [],
      "name": "DEFAULT_ADMIN_ROLE",
      "outputs": [
        {
          "internalType": "bytes32",
          "name": "",
          "type": "bytes32"
        }
      ],
      "stateMutability": "view",
      "type": "function"
    },
    {
      "inputs": [],
      "name": "FEE_PROVIDER_ROLE",
      "outputs": [
        {
          "internalType": "bytes32",
          "name": "",
          "type": "bytes32"
        }
      ],
      "stateMutability": "view",
      "type": "function"
    },
    {
      "inputs": [],
      "name": "RELAY_ROLE",
      "outputs": [
        {
          "internalType": "bytes32",
          "name": "",
          "type": "bytes32"
        }
      ],
      "stateMutability": "view",
      "type": "function"
    },
    {
      "inputs": [],
      "name": "WATCHDOG_ROLE",
      "outputs": [
        {
          "internalType": "bytes32",
          "name": "",
          "type": "bytes32"
        }
      ],
      "stateMutability": "view",
      "type": "function"
    },
    {
      "inputs": [],
      "name": "bridgeFeeRecipient",
      "outputs": [
        {
          "internalType": "address payable",
          "name": "",
          "type": "address"
        }
      ],
      "stateMutability": "view",
      "type": "function"
    },
    {
      "inputs": [
        {
          "internalType": "address payable",
          "name": "feeRecipient_",
          "type": "address"
        }
      ],
      "name": "changeBridgeFeeRecipient",
      "outputs": [],
      "stateMutability": "nonpayable",
      "type": "function"
    },
    {
      "inputs": [
        {
          "internalType": "uint256",
          "name": "lockTime_",
          "type": "uint256"
        }
      ],
      "name": "changeLockTime",
      "outputs": [],
      "stateMutability": "nonpayable",
      "type": "function"
    },
    {
      "inputs": [
        {
          "internalType": "uint256",
          "name": "minSafetyBlocks_",
          "type": "uint256"
        }
      ],
      "name": "changeMinSafetyBlocks",
      "outputs": [],
      "stateMutability": "nonpayable",
      "type": "function"
    },
    {
      "inputs": [
        {
          "internalType": "uint256",
          "name": "signatureFeeCheckNumber_",
          "type": "uint256"
        }
      ],
      "name": "changeSignatureFeeCheckNumber",
      "outputs": [],
      "stateMutability": "nonpayable",
      "type": "function"
    },
    {
      "inputs": [
        {
          "internalType": "uint256",
          "name": "timeframeSeconds_",
          "type": "uint256"
        }
      ],
      "name": "changeTimeframeSeconds",
      "outputs": [],
      "stateMutability": "nonpayable",
      "type": "function"
    },
    {
      "inputs": [
        {
          "internalType": "address payable",
          "name": "feeRecipient_",
          "type": "address"
        }
      ],
      "name": "changeTransferFeeRecipient",
      "outputs": [],
      "stateMutability": "nonpayable",
      "type": "function"
    },
    {
      "inputs": [
        {
          "internalType": "uint256",
          "name": "eventId",
          "type": "uint256"
        }
      ],
      "name": "getLockedTransfers",
      "outputs": [
        {
          "components": [
            {
              "components": [
                {
                  "internalType": "address",
                  "name": "tokenAddress",
                  "type": "address"
                },
                {
                  "internalType": "address",
                  "name": "toAddress",
                  "type": "address"
                },
                {
                  "internalType": "uint256",
                  "name": "amount",
                  "type": "uint256"
                }
              ],
              "internalType": "struct CommonStructs.Transfer[]",
              "name": "transfers",
              "type": "tuple[]"
            },
            {
              "internalType": "uint256",
              "name": "endTimestamp",
              "type": "uint256"
            }
          ],
          "internalType": "struct CommonStructs.LockedTransfers",
          "name": "",
          "type": "tuple"
        }
      ],
      "stateMutability": "view",
      "type": "function"
    },
    {
      "inputs": [
        {
          "internalType": "bytes32",
          "name": "role",
          "type": "bytes32"
        }
      ],
      "name": "getRoleAdmin",
      "outputs": [
        {
          "internalType": "bytes32",
          "name": "",
          "type": "bytes32"
        }
      ],
      "stateMutability": "view",
      "type": "function"
    },
    {
      "inputs": [
        {
          "internalType": "bytes32",
          "name": "role",
          "type": "bytes32"
        },
        {
          "internalType": "address",
          "name": "account",
          "type": "address"
        }
      ],
      "name": "grantRole",
      "outputs": [],
      "stateMutability": "nonpayable",
      "type": "function"
    },
    {
      "inputs": [
        {
          "internalType": "bytes32",
          "name": "role",
          "type": "bytes32"
        },
        {
          "internalType": "address[]",
          "name": "accounts",
          "type": "address[]"
        }
      ],
      "name": "grantRoles",
      "outputs": [],
      "stateMutability": "nonpayable",
      "type": "function"
    },
    {
      "inputs": [
        {
          "internalType": "bytes32",
          "name": "role",
          "type": "bytes32"
        },
        {
          "internalType": "address",
          "name": "account",
          "type": "address"
        }
      ],
      "name": "hasRole",
      "outputs": [
        {
          "internalType": "bool",
          "name": "",
          "type": "bool"
        }
      ],
      "stateMutability": "view",
      "type": "function"
    },
    {
      "inputs": [
        {
          "components": [
            {
              "internalType": "address",
              "name": "sideBridgeAddress",
              "type": "address"
            },
            {
              "internalType": "address",
              "name": "relayAddress",
              "type": "address"
            },
            {
              "internalType": "address[]",
              "name": "watchdogsAddresses",
              "type": "address[]"
            },
            {
              "internalType": "address",
              "name": "feeProviderAddress",
              "type": "address"
            },
            {
              "internalType": "address",
              "name": "wrappingTokenAddress",
              "type": "address"
            },
            {
              "internalType": "address[]",
              "name": "tokenThisAddresses",
              "type": "address[]"
            },
            {
              "internalType": "address[]",
              "name": "tokenSideAddresses",
              "type": "address[]"
            },
            {
              "internalType": "address payable",
              "name": "transferFeeRecipient",
              "type": "address"
            },
            {
              "internalType": "address payable",
              "name": "bridgeFeeRecipient",
              "type": "address"
            },
            {
              "internalType": "uint256",
              "name": "timeframeSeconds",
              "type": "uint256"
            },
            {
              "internalType": "uint256",
              "name": "lockTime",
              "type": "uint256"
            },
            {
              "internalType": "uint256",
              "name": "minSafetyBlocks",
              "type": "uint256"
            }
          ],
          "internalType": "struct CommonStructs.ConstructorArgs",
          "name": "args",
          "type": "tuple"
        }
      ],
      "name": "initialize",
      "outputs": [],
      "stateMutability": "nonpayable",
      "type": "function"
    },
    {
      "inputs": [],
      "name": "inputEventId",
      "outputs": [
        {
          "internalType": "uint256",
          "name": "",
          "type": "uint256"
        }
      ],
      "stateMutability": "view",
      "type": "function"
    },
    {
      "inputs": [],
      "name": "isQueueEmpty",
      "outputs": [
        {
          "internalType": "bool",
          "name": "",
          "type": "bool"
        }
      ],
      "stateMutability": "view",
      "type": "function"
    },
    {
      "inputs": [],
      "name": "lastTimeframe",
      "outputs": [
        {
          "internalType": "uint256",
          "name": "",
          "type": "uint256"
        }
      ],
      "stateMutability": "view",
      "type": "function"
    },
    {
      "inputs": [],
      "name": "lockTime",
      "outputs": [
        {
          "internalType": "uint256",
          "name": "",
          "type": "uint256"
        }
      ],
      "stateMutability": "view",
      "type": "function"
    },
    {
      "inputs": [
        {
          "internalType": "uint256",
          "name": "",
          "type": "uint256"
        }
      ],
      "name": "lockedTransfers",
      "outputs": [
        {
          "internalType": "uint256",
          "name": "endTimestamp",
          "type": "uint256"
        }
      ],
      "stateMutability": "view",
      "type": "function"
    },
    {
      "inputs": [],
      "name": "minSafetyBlocks",
      "outputs": [
        {
          "internalType": "uint256",
          "name": "",
          "type": "uint256"
        }
      ],
      "stateMutability": "view",
      "type": "function"
    },
    {
      "inputs": [],
      "name": "oldestLockedEventId",
      "outputs": [
        {
          "internalType": "uint256",
          "name": "",
          "type": "uint256"
        }
      ],
      "stateMutability": "view",
      "type": "function"
    },
    {
      "inputs": [],
      "name": "outputEventId",
      "outputs": [
        {
          "internalType": "uint256",
          "name": "",
          "type": "uint256"
        }
      ],
      "stateMutability": "view",
      "type": "function"
    },
    {
      "inputs": [],
      "name": "pause",
      "outputs": [],
      "stateMutability": "nonpayable",
      "type": "function"
    },
    {
      "inputs": [],
      "name": "paused",
      "outputs": [
        {
          "internalType": "bool",
          "name": "",
          "type": "bool"
        }
      ],
      "stateMutability": "view",
      "type": "function"
    },
    {
      "inputs": [
        {
          "internalType": "uint256",
          "name": "eventId",
          "type": "uint256"
        }
      ],
      "name": "removeLockedTransfers",
      "outputs": [],
      "stateMutability": "nonpayable",
      "type": "function"
    },
    {
      "inputs": [
        {
          "internalType": "bytes32",
          "name": "role",
          "type": "bytes32"
        },
        {
          "internalType": "address",
          "name": "account",
          "type": "address"
        }
      ],
      "name": "renounceRole",
      "outputs": [],
      "stateMutability": "nonpayable",
      "type": "function"
    },
    {
      "inputs": [
        {
          "internalType": "bytes32",
          "name": "role",
          "type": "bytes32"
        },
        {
          "internalType": "address",
          "name": "account",
          "type": "address"
        }
      ],
      "name": "revokeRole",
      "outputs": [],
      "stateMutability": "nonpayable",
      "type": "function"
    },
    {
      "inputs": [
        {
          "internalType": "bytes32",
          "name": "role",
          "type": "bytes32"
        },
        {
          "internalType": "address[]",
          "name": "accounts",
          "type": "address[]"
        }
      ],
      "name": "revokeRoles",
      "outputs": [],
      "stateMutability": "nonpayable",
      "type": "function"
    },
    {
      "inputs": [
        {
          "internalType": "address",
          "name": "_sideBridgeAddress",
          "type": "address"
        }
      ],
      "name": "setSideBridge",
      "outputs": [],
      "stateMutability": "nonpayable",
      "type": "function"
    },
    {
      "inputs": [],
      "name": "sideBridgeAddress",
      "outputs": [
        {
          "internalType": "address",
          "name": "",
          "type": "address"
        }
      ],
      "stateMutability": "view",
      "type": "function"
    },
    {
      "inputs": [
        {
          "internalType": "uint256",
          "name": "eventId",
          "type": "uint256"
        }
      ],
      "name": "skipTransfers",
      "outputs": [],
      "stateMutability": "nonpayable",
      "type": "function"
    },
    {
      "inputs": [
        {
          "internalType": "uint256",
          "name": "eventId",
          "type": "uint256"
        },
        {
          "components": [
            {
              "internalType": "address",
              "name": "tokenAddress",
              "type": "address"
            },
            {
              "internalType": "address",
              "name": "toAddress",
              "type": "address"
            },
            {
              "internalType": "uint256",
              "name": "amount",
              "type": "uint256"
            }
          ],
          "internalType": "struct CommonStructs.Transfer[]",
          "name": "transfers",
          "type": "tuple[]"
        }
      ],
      "name": "submitTransferUntrustless",
      "outputs": [],
      "stateMutability": "nonpayable",
      "type": "function"
    },
    {
      "inputs": [
        {
          "internalType": "bytes4",
          "name": "interfaceId",
          "type": "bytes4"
        }
      ],
      "name": "supportsInterface",
      "outputs": [
        {
          "internalType": "bool",
          "name": "",
          "type": "bool"
        }
      ],
      "stateMutability": "view",
      "type": "function"
    },
    {
      "inputs": [],
      "name": "timeframeSeconds",
      "outputs": [
        {
          "internalType": "uint256",
          "name": "",
          "type": "uint256"
        }
      ],
      "stateMutability": "view",
      "type": "function"
    },
    {
      "inputs": [
        {
          "internalType": "address",
          "name": "",
          "type": "address"
        }
      ],
      "name": "tokenAddresses",
      "outputs": [
        {
          "internalType": "address",
          "name": "",
          "type": "address"
        }
      ],
      "stateMutability": "view",
      "type": "function"
    },
    {
      "inputs": [
        {
          "internalType": "address",
          "name": "tokenThisAddress",
          "type": "address"
        },
        {
          "internalType": "address",
          "name": "tokenSideAddress",
          "type": "address"
        }
      ],
      "name": "tokensAdd",
      "outputs": [],
      "stateMutability": "nonpayable",
      "type": "function"
    },
    {
      "inputs": [
        {
          "internalType": "address[]",
          "name": "tokenThisAddresses",
          "type": "address[]"
        },
        {
          "internalType": "address[]",
          "name": "tokenSideAddresses",
          "type": "address[]"
        }
      ],
      "name": "tokensAddBatch",
      "outputs": [],
      "stateMutability": "nonpayable",
      "type": "function"
    },
    {
      "inputs": [
        {
          "internalType": "address",
          "name": "tokenThisAddress",
          "type": "address"
        }
      ],
      "name": "tokensRemove",
      "outputs": [],
      "stateMutability": "nonpayable",
      "type": "function"
    },
    {
      "inputs": [
        {
          "internalType": "address[]",
          "name": "tokenThisAddresses",
          "type": "address[]"
        }
      ],
      "name": "tokensRemoveBatch",
      "outputs": [],
      "stateMutability": "nonpayable",
      "type": "function"
    },
    {
      "inputs": [],
      "name": "transferFeeRecipient",
      "outputs": [
        {
          "internalType": "address payable",
          "name": "",
          "type": "address"
        }
      ],
      "stateMutability": "view",
      "type": "function"
    },
    {
      "inputs": [],
      "name": "triggerTransfers",
      "outputs": [],
      "stateMutability": "nonpayable",
      "type": "function"
    },
    {
      "inputs": [
        {
          "internalType": "uint256",
          "name": "eventId",
          "type": "uint256"
        }
      ],
      "name": "unlockTransfers",
      "outputs": [],
      "stateMutability": "nonpayable",
      "type": "function"
    },
    {
      "inputs": [],
      "name": "unlockTransfersBatch",
      "outputs": [],
      "stateMutability": "nonpayable",
      "type": "function"
    },
    {
      "inputs": [],
      "name": "unpause",
      "outputs": [],
      "stateMutability": "nonpayable",
      "type": "function"
    },
    {
      "inputs": [
        {
          "internalType": "address[]",
          "name": "_watchdogs",
          "type": "address[]"
        },
        {
          "internalType": "address",
          "name": "_fee_provider",
          "type": "address"
        },
        {
          "internalType": "address",
          "name": "mpcRelay",
          "type": "address"
        },
        {
          "internalType": "address",
          "name": "oldDefaultAdmin",
          "type": "address"
        },
        {
          "internalType": "address",
          "name": "oldRelay",
          "type": "address"
        }
      ],
      "name": "upgrade",
      "outputs": [],
      "stateMutability": "nonpayable",
      "type": "function"
    },
    {
      "inputs": [
        {
          "internalType": "address",
          "name": "tokenThisAddress",
          "type": "address"
        },
        {
          "internalType": "address",
          "name": "toAddress",
          "type": "address"
        },
        {
          "internalType": "uint256",
          "name": "amount",
          "type": "uint256"
        },
        {
          "internalType": "bool",
          "name": "unwrapSide",
          "type": "bool"
        },
        {
          "internalType": "bytes",
          "name": "feeSignature",
          "type": "bytes"
        },
        {
          "internalType": "uint256",
          "name": "transferFee",
          "type": "uint256"
        },
        {
          "internalType": "uint256",
          "name": "bridgeFee",
          "type": "uint256"
        }
      ],
      "name": "withdraw",
      "outputs": [],
      "stateMutability": "payable",
      "type": "function"
    },
    {
      "inputs": [
        {
          "internalType": "address",
          "name": "toAddress",
          "type": "address"
        },
        {
          "internalType": "bytes",
          "name": "feeSignature",
          "type": "bytes"
        },
        {
          "internalType": "uint256",
          "name": "transferFee",
          "type": "uint256"
        },
        {
          "internalType": "uint256",
          "name": "bridgeFee",
          "type": "uint256"
        }
      ],
      "name": "wrapWithdraw",
      "outputs": [],
      "stateMutability": "payable",
      "type": "function"
    },
    {
      "inputs": [],
      "name": "wrapperAddress",
      "outputs": [
        {
          "internalType": "address",
          "name": "",
          "type": "address"
        }
      ],
      "stateMutability": "view",
      "type": "function"
    },
    {
      "stateMutability": "payable",
      "type": "receive"
    }
  ],
  "transactionHash": "0xa9bc7218d3cb5bc1afb9b1c2a9eae26ac89f8c632ebd582a962cf7a348d301ae",
  "args": [],
  "numDeployments": 1,
  "solcInputHash": "af3862e0ddcca2861ee723b668139921",
  "bytecode": "0x608060405234801561001057600080fd5b50613712806100206000396000f3fe6080604052600436106103075760003560e060020a90048063853890ae11610194578063b87330e9116100e0578063deb9a3a211610099578063f700558711610073578063f7005587146108ff578063f862b7eb1461091f578063f8b744331461093f578063fd5d2ef31461095257600080fd5b8063deb9a3a214610892578063e31be087146108b2578063f33fe10f146108df57600080fd5b8063b87330e9146107e4578063ba8bbbe014610804578063baeebe751461081a578063cf3317d314610830578063d3b89f4914610850578063d547741f1461087257600080fd5b806391d148541161014d57806399b5bb641161012757806399b5bb6414610761578063a217fddf14610777578063a9b1cf0b1461078c578063b6d3385e146107ae57600080fd5b806391d148541461070b578063924cf6e01461072b57806396cf52271461074157600080fd5b8063853890ae1461066d57806386d7679e1461068d5780638ac1f86f146106a35780638e5df9c7146106b85780638ff550e8146106d857806391c5bc0a146106f857600080fd5b8063390d5388116102535780635249a7051161020c578063746b5c42116101e6578063746b5c421461060157806375b238fc146106165780637df8b802146106385780638456cb591461065857600080fd5b80635249a705146105a95780635a5f55bf146105c95780635c975abb146105e957600080fd5b8063390d5388146104e45780633928b296146105045780633f4ba83a1461052457806342180fb8146105395780634a1856de146105595780635119b0ef1461058957600080fd5b8063248a9ca3116102c05780632f2ff15d1161029a5780632f2ff15d1461044c578063304561bb1461046c578063331a891a146104a457806336568abe146104c457600080fd5b8063248a9ca3146103f0578063297c2677146104205780632bbba8471461043657600080fd5b806301ffc9a714610313578063044218231461034857806309fce356146103785780630d6680871461039a578063196f0f62146103b057806321d3d536146103d057600080fd5b3661030e57005b600080fd5b34801561031f57600080fd5b5061033361032e3660046130b1565b610972565b60405190151581526020015b60405180910390f35b34801561035457600080fd5b5061036a60008051602061367d83398151915281565b60405190815260200161033f565b34801561038457600080fd5b50610398610393366004612f9e565b610a05565b005b3480156103a657600080fd5b5061036a60d45481565b3480156103bc57600080fd5b506103986103cb366004613065565b610a31565b3480156103dc57600080fd5b506103986103eb366004612d7d565b610a7f565b3480156103fc57600080fd5b5061036a61040b366004613027565b60009081526065602052604090206001015490565b34801561042c57600080fd5b5061036a60d65481565b34801561044257600080fd5b5060ca5415610333565b34801561045857600080fd5b50610398610467366004613040565b610b1c565b34801561047857600080fd5b5060cf5461048c90600160a060020a031681565b604051600160a060020a03909116815260200161033f565b3480156104b057600080fd5b506103986104bf366004613027565b610b47565b3480156104d057600080fd5b506103986104df366004613040565b610c5e565b3480156104f057600080fd5b5060d05461048c90600160a060020a031681565b34801561051057600080fd5b5061039861051f366004612d7d565b610ce9565b34801561053057600080fd5b50610398610d25565b34801561054557600080fd5b50610398610554366004613027565b610d49565b34801561056557600080fd5b5061036a610574366004613027565b60cb6020526000908152604090206001015481565b34801561059557600080fd5b506103986105a436600461312c565b610d86565b3480156105b557600080fd5b506103986105c4366004612ece565b610e04565b3480156105d557600080fd5b506103986105e43660046130f0565b610e8d565b3480156105f557600080fd5b5060975460ff16610333565b34801561060d57600080fd5b50610398610f05565b34801561062257600080fd5b5061036a6000805160206136bd83398151915281565b34801561064457600080fd5b5060ce5461048c90600160a060020a031681565b34801561066457600080fd5b50610398610fb1565b34801561067957600080fd5b50610398610688366004612d9a565b610fd2565b34801561069957600080fd5b5061036a60d75481565b3480156106af57600080fd5b5061039861101a565b3480156106c457600080fd5b506103986106d3366004612d7d565b611172565b3480156106e457600080fd5b506103986106f3366004612f10565b6111b3565b610398610706366004612e67565b611284565b34801561071757600080fd5b50610333610726366004613040565b6115b4565b34801561073757600080fd5b5061036a60d25481565b34801561074d57600080fd5b5061039861075c366004613027565b6115df565b34801561076d57600080fd5b5061036a60d55481565b34801561078357600080fd5b5061036a600081565b34801561079857600080fd5b5061036a60008051602061365d83398151915281565b3480156107ba57600080fd5b5061048c6107c9366004612d7d565b60cd60205260009081526040902054600160a060020a031681565b3480156107f057600080fd5b506103986107ff366004612d7d565b6115fe565b34801561081057600080fd5b5061036a60cc5481565b34801561082657600080fd5b5061036a60d35481565b34801561083c57600080fd5b5061039861084b366004613027565b61163a565b34801561085c57600080fd5b5061036a60008051602061369d83398151915281565b34801561087e57600080fd5b5061039861088d366004613040565b6116b1565b34801561089e57600080fd5b506103986108ad366004613065565b6116d7565b3480156108be57600080fd5b506108d26108cd366004613027565b6116fe565b60405161033f91906133f7565b3480156108eb57600080fd5b5060d15461048c90600160a060020a031681565b34801561090b57600080fd5b5061039861091a366004613027565b6117ba565b34801561092b57600080fd5b5061039861093a366004613027565b6117d9565b61039861094d366004612dd3565b611a0c565b34801561095e57600080fd5b5061039861096d366004613027565b611e6c565b60007bffffffffffffffffffffffffffffffffffffffffffffffffffffffff1982167f7965db0b0000000000000000000000000000000000000000000000000000000014806109ff57507f01ffc9a7000000000000000000000000000000000000000000000000000000007bffffffffffffffffffffffffffffffffffffffffffffffffffffffff198316145b92915050565b6000805160206136bd833981519152610a1e8133611e8b565b610a2a85858585611ef2565b5050505050565b60005b81811015610a7957610a6784848484818110610a5257610a526135a8565b905060200201602081019061088d9190612d7d565b80610a7181613574565b915050610a34565b50505050565b6000805160206136bd833981519152610a988133611e8b565b60d154600160a060020a031615610af95760405160e560020a62461bcd02815260206004820152601d60248201527f736964654272696467654164647265737320616c72656164792073657400000060448201526064015b60405180910390fd5b5060d18054600160a060020a031916600160a060020a0392909216919091179055565b600082815260656020526040902060010154610b388133611e8b565b610b42838361200b565b505050565b6000805160206136bd833981519152610b608133611e8b565b60975460ff16610b855760405160e560020a62461bcd028152600401610af0906132cf565b60cc54821015610baa5760405160e560020a62461bcd028152600401610af09061339a565b60d554821115610bff5760405160e560020a62461bcd02815260206004820152601f60248201527f6576656e744964206d757374206265203c3d20696e7075744576656e744964006044820152606401610af0565b610c0a60018361351a565b60d5555b600082815260cb602052604090206001015415610c5a57600082815260cb6020526040812090610c3e8282612c9d565b5060006001919091015581610c5281613574565b925050610c0e565b5050565b600160a060020a0381163314610cdf5760405160e560020a62461bcd02815260206004820152602f60248201527f416363657373436f6e74726f6c3a2063616e206f6e6c792072656e6f756e636560448201527f20726f6c657320666f722073656c6600000000000000000000000000000000006064820152608401610af0565b610c5a8282612091565b6000805160206136bd833981519152610d028133611e8b565b5060d08054600160a060020a031916600160a060020a0392909216919091179055565b6000805160206136bd833981519152610d3e8133611e8b565b610d466120f8565b50565b6000805160206136bd833981519152610d628133611e8b565b8160d35460d754610d7391906134fb565b610d7d91906134d6565b60d7555060d355565b60008051602061367d833981519152610d9f8133611e8b565b60975460ff1615610dc55760405160e560020a62461bcd028152600401610af090613306565b610dce84612167565b60405184907f196c47048e38df7a4fe6e581c8f4f2e2ba67ac0dd45b90da756e97bd61d9dd3b90600090a2610a798383866121cc565b6000805160206136bd833981519152610e1d8133611e8b565b8160005b81811015610a2a5760cd6000868684818110610e3f57610e3f6135a8565b9050602002016020810190610e549190612d7d565b600160a060020a0316815260208101919091526040016000208054600160a060020a031916905580610e8581613574565b915050610e21565b600054610100900460ff1680610ea6575060005460ff16155b610ec55760405160e560020a62461bcd028152600401610af09061333d565b600054610100900460ff16158015610ee7576000805461ffff19166101011790555b610ef08261225a565b8015610c5a576000805461ff00191690555050565b60ca54610f575760405160e560020a62461bcd02815260206004820152600e60248201527f517565756520697320656d7074790000000000000000000000000000000000006044820152606401610af0565b60d68054906000610f6783613574565b919050557fe15729a2f427aa4572dab35eb692c902fcbce57d41642013259c741380809ae260ca604051610f9b919061322c565b60405180910390a2610faf60ca6000612c9d565b565b60008051602061365d833981519152610fca8133611e8b565b610d46612474565b6000805160206136bd833981519152610feb8133611e8b565b50600160a060020a03918216600090815260cd602052604090208054600160a060020a03191691909216179055565b60975460ff16156110405760405160e560020a62461bcd028152600401610af090613306565b60cc545b600081815260cb60209081526040808320815181546060948102820185018452928101838152909391928492849190879085015b828210156110d257600084815260209081902060408051606081018252600386029092018054600160a060020a03908116845260018083015490911684860152600290910154918301919091529083529092019101611078565b50505050815260200160018201548152505090508060200151600014806110fc5750428160200151115b15611107575060cc55565b8051611112906124cf565b600082815260cb602052604081209061112b8282612c9d565b50600060019190910181905560405183917f78ff9b3176bb0d6421590f3816e75cb15a9ffa2b7a1a028f40a3f4e029eb39f291a2508061116a81613574565b915050611044565b6000805160206136bd83398151915261118b8133611e8b565b50600160a060020a0316600090815260cd602052604090208054600160a060020a0319169055565b3330146112055760405160e560020a62461bcd02815260206004820152601c60248201527f54686973206d6574686f642072657175697265206d756c7469736967000000006044820152606401610af0565b611210600033612763565b61122860008051602061367d833981519152826116b1565b61124160008051602061365d833981519152878761276d565b61125960008051602061369d83398151915285612763565b61127160008051602061367d83398151915284612763565b61127c6000836116b1565b505050505050565b60ce54600160a060020a03908116600090815260cd602052604090205416806112f25760405160e560020a62461bcd02815260206004820152601560248201527f556e6b6e6f776e20746f6b656e206164647265737300000000000000000000006044820152606401610af0565b6112fc82846134be565b341161134d5760405160e560020a62461bcd02815260206004820152601160248201527f53656e742076616c7565203c3d206665650000000000000000000000000000006044820152606401610af0565b60008261135a853461351a565b611364919061351a565b60ce5490915061138190600160a060020a031687878787866127b5565b60cf54604051600160a060020a039091169085156108fc029086906000818181858888f193505050501580156113bb573d6000803e3d6000fd5b5060d054604051600160a060020a039091169084156108fc029085906000818181858888f193505050501580156113f6573d6000803e3d6000fd5b5060ce60009054906101000a9004600160a060020a0316600160a060020a031663d0e30db0826040518263ffffffff1660e060020a0281526004016000604051808303818588803b15801561144a57600080fd5b505af115801561145e573d6000803e3d6000fd5b505060408051606081018252600160a060020a0380881682528c81166020830190815282840188815260ca80546001810182556000918252945160039095027f42d72674974f694b5f5159593243114d38a5c39c89d6b62fee061ff523240ee181018054968616600160a060020a031997881617905592517f42d72674974f694b5f5159593243114d38a5c39c89d6b62fee061ff523240ee2840180549190951695169490941790925590517f42d72674974f694b5f5159593243114d38a5c39c89d6b62fee061ff523240ee39091015560d65491513395507f3b823d3b837159352faddd1e0b9e9f584ca2bfe976238f6a9e6da4615cf2f444945061159b9350879087908b908b90958652600160a060020a0394851660208701529290931660408501526060840152608083019190915260a082015260c00190565b60405180910390a26115ab612949565b50505050505050565b6000918252606560209081526040808420600160a060020a0393909316845291905290205460ff1690565b6000805160206136bd8339815191526115f88133611e8b565b5060d455565b6000805160206136bd8339815191526116178133611e8b565b5060cf8054600160a060020a031916600160a060020a0392909216919091179055565b6000805160206136bd8339815191526116538133611e8b565b60975460ff166116785760405160e560020a62461bcd028152600401610af0906132cf565b60cc5482101561169d5760405160e560020a62461bcd028152600401610af09061339a565b6116a860018361351a565b60d5555060cc55565b6000828152606560205260409020600101546116cd8133611e8b565b610b428383612091565b6000838152606560205260409020600101546116f38133611e8b565b610a7984848461276d565b604080518082019091526060815260006020820152600082815260cb60209081526040808320815181546060948102820185018452928101838152909491938593919285929185015b828210156117a157600084815260209081902060408051606081018252600386029092018054600160a060020a03908116845260018083015490911684860152600290910154918301919091529083529092019101611747565b5050505081526020016001820154815250509050919050565b6000805160206136bd8339815191526117d38133611e8b565b5060c955565b60975460ff16156117ff5760405160e560020a62461bcd028152600401610af090613306565b60cc5481146118535760405160e560020a62461bcd02815260206004820152601c60248201527f63616e20756e6c6f636b206f6e6c79206f6c64657374206576656e74000000006044820152606401610af0565b600081815260cb60209081526040808320815181546060948102820185018452928101838152909391928492849190879085015b828210156118e157600084815260209081902060408051606081018252600386029092018054600160a060020a03908116845260018083015490911684860152600290910154918301919091529083529092019101611887565b5050505081526020016001820154815250509050600081602001511161194c5760405160e560020a62461bcd02815260206004820181905260248201527f6e6f206c6f636b6564207472616e7366657273207769746820746869732069646044820152606401610af0565b428160200151106119a25760405160e560020a62461bcd02815260206004820152601b60248201527f6c6f636b54696d6520686173206e6f74207965742070617373656400000000006044820152606401610af0565b80516119ad906124cf565b600082815260cb60205260408120906119c68282612c9d565b50600060019190910181905560405183917f78ff9b3176bb0d6421590f3816e75cb15a9ffa2b7a1a028f40a3f4e029eb39f291a2611a058260016134be565b60cc555050565b60008515611aa1576000805260cd6020527fcd565b10a72538d86f6d352f37ebc5dff31587960b12c0afe00fd03947a6932a54600160a060020a038a8116911614611a9c5760405160e560020a62461bcd02815260206004820152601f60248201527f546f6b656e206e6f7420706f696e7420746f206e617469766520746f6b656e006044820152606401610af0565b611b0d565b50600160a060020a03808916600090815260cd60205260409020541680611b0d5760405160e560020a62461bcd02815260206004820152601560248201527f556e6b6e6f776e20746f6b656e206164647265737300000000000000000000006044820152606401610af0565b611b1782846134be565b3414611b685760405160e560020a62461bcd02815260206004820152601160248201527f53656e742076616c756520213d206665650000000000000000000000000000006044820152606401610af0565b60008711611bbb5760405160e560020a62461bcd02815260206004820152601160248201527f43616e6e6f7420776974686472617720300000000000000000000000000000006044820152606401610af0565b611bc989868686868c6127b5565b60cf54604051600160a060020a039091169084156108fc029085906000818181858888f19350505050158015611c03573d6000803e3d6000fd5b5060d054604051600160a060020a039091169083156108fc029084906000818181858888f19350505050158015611c3e573d6000803e3d6000fd5b506040517f23b872dd00000000000000000000000000000000000000000000000000000000815233600482015230602482015260448101889052600160a060020a038a16906323b872dd90606401602060405180830381600087803b158015611ca657600080fd5b505af1158015611cba573d6000803e3d6000fd5b505050506040513d601f19601f82011682018060405250810190611cde919061300a565b611d2d5760405160e560020a62461bcd02815260206004820152601360248201527f4661696c207472616e7366657220636f696e73000000000000000000000000006044820152606401610af0565b6040805160608082018352600160a060020a038481168084528c821660208086019182528587018e815260ca8054600181018255600091909152965160039097027f42d72674974f694b5f5159593243114d38a5c39c89d6b62fee061ff523240ee181018054988716600160a060020a0319998a1617905592517f42d72674974f694b5f5159593243114d38a5c39c89d6b62fee061ff523240ee284018054918716919098161790965594517f42d72674974f694b5f5159593243114d38a5c39c89d6b62fee061ff523240ee39091015560d6548551908152918e16938201939093529283019190915281018890526080810184905260a0810183905233907f3b823d3b837159352faddd1e0b9e9f584ca2bfe976238f6a9e6da4615cf2f4449060c00160405180910390a2611e61612949565b505050505050505050565b6000805160206136bd833981519152611e858133611e8b565b5060d255565b611e9582826115b4565b610c5a57611ead81600160a060020a031660146129c1565b611eb88360206129c1565b604051602001611ec99291906131ab565b60408051601f198184030181529082905260e560020a62461bcd028252610af09160040161329c565b828114611f6a5760405160e560020a62461bcd02815260206004820152603f60248201527f73697a6573206f6620746f6b656e5468697341646472657373657320616e642060448201527f746f6b656e53696465416464726573736573206d7573742062652073616d65006064820152608401610af0565b8260005b8181101561127c57838382818110611f8857611f886135a8565b9050602002016020810190611f9d9190612d7d565b60cd6000888885818110611fb357611fb36135a8565b9050602002016020810190611fc89190612d7d565b600160a060020a03908116825260208201929092526040016000208054600160a060020a031916929091169190911790558061200381613574565b915050611f6e565b61201582826115b4565b610c5a576000828152606560209081526040808320600160a060020a03851684529091529020805460ff1916600117905561204d3390565b600160a060020a031681600160a060020a0316837f2f8788117e7eff1d82e926ec794901d17c78024a50270940304540a733656f0d60405160405180910390a45050565b61209b82826115b4565b15610c5a576000828152606560209081526040808320600160a060020a0385168085529252808320805460ff1916905551339285917ff6391f5c32d9c69d2a47ea670b442974b53935d1edc7fd64eb21e047a839171b9190a45050565b60975460ff1661211d5760405160e560020a62461bcd028152600401610af0906132cf565b6097805460ff191690557f5db9ee0a495bf2e6ff9c91a7834c1ba4fdd244a5e8aa4e537bd38aeae4b073aa335b604051600160a060020a03909116815260200160405180910390a1565b60d56000815461217690613574565b91829055508114610d465760405160e560020a62461bcd02815260206004820152601460248201527f4576656e744964206f7574206f66206f726465720000000000000000000000006044820152606401610af0565b60d4546121d990426134be565b600082815260cb60205260408120600101919091555b82811015610a7957600082815260cb60205260409020848483818110612217576122176135a8565b83546001810185556000948552602090942060609091029290920192600302909101905061224582826135da565b5050808061225290613574565b9150506121ef565b600054610100900460ff1680612273575060005460ff16155b6122925760405160e560020a62461bcd028152600401610af09061333d565b600054610100900460ff161580156122b4576000805461ffff19166101011790555b6122bf600030612763565b6122d76000805160206136bd83398151915233612763565b6122fe60008051602061367d8339815191526122f96040850160208601612d7d565b612763565b61232260008051602061365d83398151915261231d6040850185613475565b61276d565b61234460008051602061369d8339815191526122f96080850160608601612d7d565b61236661235460a0840184613475565b61236160c0860186613475565b611ef2565b61237660a0830160808401612d7d565b60ce8054600160a060020a031916600160a060020a03929092169190911790556123a36020830183612d7d565b60d18054600160a060020a031916600160a060020a03929092169190911790556123d4610100830160e08401612d7d565b60cf8054600160a060020a031916600160a060020a039290921691909117905561240661012083016101008401612d7d565b60d08054600160a060020a031916600160a060020a039290921691909117905561016082013560d25561012082013560d381905561014083013560d455600160cc81905560d655600360c95561245c90426134d6565b60d7558015610c5a576000805461ff00191690555050565b60975460ff161561249a5760405160e560020a62461bcd028152600401610af090613306565b6097805460ff191660011790557f62e78cea01bee320cd4e420270b5ea74000d11b0c9f74754ebdbfc544b05a25861214a3390565b60005b8151811015610c5a576000600160a060020a03168282815181106124f8576124f86135a8565b602002602001015160000151600160a060020a031614156126145760ce548251600160a060020a0390911690632e1a7d4d9084908490811061253c5761253c6135a8565b6020026020010151604001516040518263ffffffff1660e060020a02815260040161256991815260200190565b600060405180830381600087803b15801561258357600080fd5b505af1158015612597573d6000803e3d6000fd5b505050508181815181106125ad576125ad6135a8565b602002602001015160200151600160a060020a03166108fc8383815181106125d7576125d76135a8565b6020026020010151604001519081150290604051600060405180830381858888f1935050505015801561260e573d6000803e3d6000fd5b50612751565b818181518110612626576126266135a8565b602002602001015160000151600160a060020a031663a9059cbb838381518110612652576126526135a8565b602002602001015160200151848481518110612670576126706135a8565b6020026020010151604001516040518363ffffffff1660e060020a0281526004016126b0929190600160a060020a03929092168252602082015260400190565b602060405180830381600087803b1580156126ca57600080fd5b505af11580156126de573d6000803e3d6000fd5b505050506040513d601f19601f82011682018060405250810190612702919061300a565b6127515760405160e560020a62461bcd02815260206004820152601360248201527f4661696c207472616e7366657220636f696e73000000000000000000000000006044820152606401610af0565b8061275b81613574565b9150506124d2565b610c5a828261200b565b60005b81811015610a79576127a38484848481811061278e5761278e6135a8565b90506020020160208101906122f99190612d7d565b806127ad81613574565b915050612770565b600080806127c5610708426134d6565b905060005b60c9548110156128fd576040516c01000000000000000000000000600160a060020a038c160260208201526034810183905260548101889052607481018790526094810186905260b40160408051601f198184030181529082905280516020918201207f19457468657265756d205369676e6564204d6573736167653a0a33320000000091830191909152603c820152605c016040516020818303038152906040528051906020012093506128b5848a8a8080601f016020809104026020016040519081016040528093929190818152602001838380828437600092019190915250612c1292505050565b92506128cf60008051602061369d833981519152846115b4565b156128dd575050505061127c565b816128e78161355d565b92505080806128f590613574565b9150506127ca565b5060405160e560020a62461bcd02815260206004820152601660248201527f5369676e617475726520636865636b206661696c6564000000000000000000006044820152606401610af0565b600060d3544261295991906134d6565b905060d7548114610d465760d6805490600061297483613574565b919050557fe15729a2f427aa4572dab35eb692c902fcbce57d41642013259c741380809ae260ca6040516129a8919061322c565b60405180910390a26129bc60ca6000612c9d565b60d755565b606060006129d08360026134fb565b6129db9060026134be565b67ffffffffffffffff8111156129f3576129f36135c1565b6040519080825280601f01601f191660200182016040528015612a1d576020820181803683370190505b5090507f300000000000000000000000000000000000000000000000000000000000000081600081518110612a5457612a546135a8565b60200101907effffffffffffffffffffffffffffffffffffffffffffffffffffffffffffff1916908160001a9053507f780000000000000000000000000000000000000000000000000000000000000081600181518110612ab757612ab76135a8565b60200101907effffffffffffffffffffffffffffffffffffffffffffffffffffffffffffff1916908160001a9053506000612af38460026134fb565b612afe9060016134be565b90505b6001811115612bb9577f303132333435363738396162636465660000000000000000000000000000000085600f1660108110612b3f57612b3f6135a8565b1a7f010000000000000000000000000000000000000000000000000000000000000002828281518110612b7457612b746135a8565b60200101907effffffffffffffffffffffffffffffffffffffffffffffffffffffffffffff1916908160001a905350601090940493612bb28161355d565b9050612b01565b508315612c0b5760405160e560020a62461bcd02815260206004820181905260248201527f537472696e67733a20686578206c656e67746820696e73756666696369656e746044820152606401610af0565b9392505050565b6020810151604082015160608301516000929190831a601b811015612c3557601b015b60408051600081526020810180835288905260ff831691810191909152606081018490526080810183905260019060a0016020604051602081039080840390855afa158015612c88573d6000803e3d6000fd5b5050604051601f190151979650505050505050565b5080546000825560030290600052602060002090810190610d4691905b80821115612cec578054600160a060020a03199081168255600182018054909116905560006002820155600301612cba565b5090565b60008083601f840112612d0257600080fd5b50813567ffffffffffffffff811115612d1a57600080fd5b6020830191508360208083028501011115612d3457600080fd5b9250929050565b60008083601f840112612d4d57600080fd5b50813567ffffffffffffffff811115612d6557600080fd5b602083019150836020828501011115612d3457600080fd5b600060208284031215612d8f57600080fd5b8135612c0b81613639565b60008060408385031215612dad57600080fd5b8235612db881613639565b91506020830135612dc881613639565b809150509250929050565b60008060008060008060008060e0898b031215612def57600080fd5b8835612dfa81613639565b97506020890135612e0a81613639565b9650604089013595506060890135612e218161364e565b9450608089013567ffffffffffffffff811115612e3d57600080fd5b612e498b828c01612d3b565b999c989b5096999598969760a08701359660c0013595509350505050565b600080600080600060808688031215612e7f57600080fd5b8535612e8a81613639565b9450602086013567ffffffffffffffff811115612ea657600080fd5b612eb288828901612d3b565b9699909850959660408101359660609091013595509350505050565b60008060208385031215612ee157600080fd5b823567ffffffffffffffff811115612ef857600080fd5b612f0485828601612cf0565b90969095509350505050565b60008060008060008060a08789031215612f2957600080fd5b863567ffffffffffffffff811115612f4057600080fd5b612f4c89828a01612cf0565b9097509550506020870135612f6081613639565b93506040870135612f7081613639565b92506060870135612f8081613639565b91506080870135612f9081613639565b809150509295509295509295565b60008060008060408587031215612fb457600080fd5b843567ffffffffffffffff80821115612fcc57600080fd5b612fd888838901612cf0565b90965094506020870135915080821115612ff157600080fd5b50612ffe87828801612cf0565b95989497509550505050565b60006020828403121561301c57600080fd5b8151612c0b8161364e565b60006020828403121561303957600080fd5b5035919050565b6000806040838503121561305357600080fd5b823591506020830135612dc881613639565b60008060006040848603121561307a57600080fd5b83359250602084013567ffffffffffffffff81111561309857600080fd5b6130a486828701612cf0565b9497909650939450505050565b6000602082840312156130c357600080fd5b81357bffffffffffffffffffffffffffffffffffffffffffffffffffffffff1981168114612c0b57600080fd5b60006020828403121561310257600080fd5b813567ffffffffffffffff81111561311957600080fd5b82016101808185031215612c0b57600080fd5b60008060006040848603121561314157600080fd5b83359250602084013567ffffffffffffffff8082111561316057600080fd5b818601915086601f83011261317457600080fd5b81358181111561318357600080fd5b87602060608302850101111561319857600080fd5b6020830194508093505050509250925092565b7f416363657373436f6e74726f6c3a206163636f756e74200000000000000000008152600083516131e3816017850160208801613531565b7f206973206d697373696e6720726f6c65200000000000000000000000000000006017918401918201528351613220816028840160208801613531565b01602801949350505050565b60006020808301818452808554808352604092508286019150866000528360002060005b8281101561328f578154600160a060020a0390811685526001808401549091168786015260028301548686015260609094019360039092019101613250565b5091979650505050505050565b60208152600082518060208401526132bb816040850160208701613531565b601f01601f19169190910160400192915050565b60208082526014908201527f5061757361626c653a206e6f7420706175736564000000000000000000000000604082015260600190565b60208082526010908201527f5061757361626c653a2070617573656400000000000000000000000000000000604082015260600190565b6020808252602e908201527f496e697469616c697a61626c653a20636f6e747261637420697320616c72656160408201527f647920696e697469616c697a6564000000000000000000000000000000000000606082015260800190565b60208082526026908201527f6576656e744964206d757374206265203e3d206f6c646573744c6f636b65644560408201527f76656e7449640000000000000000000000000000000000000000000000000000606082015260800190565b6000602080835260608084018551604080858801528282518085526080890191508684019450600093505b8084101561345f5784518051600160a060020a03908116845288820151168884015283015183830152938601936001939093019290850190613422565b5094909701519590960194909452509392505050565b6000808335601e1984360301811261348c57600080fd5b83018035915067ffffffffffffffff8211156134a757600080fd5b6020908101925081023603821315612d3457600080fd5b600082198211156134d1576134d161358f565b500190565b6000826134f65760e060020a634e487b7102600052601260045260246000fd5b500490565b60008160001904831182151516156135155761351561358f565b500290565b60008282101561352c5761352c61358f565b500390565b60005b8381101561354c578181015183820152602001613534565b83811115610a795750506000910152565b60008161356c5761356c61358f565b506000190190565b60006000198214156135885761358861358f565b5060010190565b60e060020a634e487b7102600052601160045260246000fd5b60e060020a634e487b7102600052603260045260246000fd5b60e060020a634e487b7102600052604160045260246000fd5b81356135e581613639565b8154600160a060020a031916600160a060020a03821617825550602082013561360d81613639565b600182018054600160a060020a031916600160a060020a03831617905550604082013560028201555050565b600160a060020a0381168114610d4657600080fd5b8015158114610d4657600080fdfeb7f2fcb7a10916921b74b9baa8ea85f89b12ab12f6ededa160998f8b20e65f95077a1d526a4ce8a773632ab13b4fbbf1fcc954c3dab26cd27ea0e2a6750da5d7516d5e7ed3e60a6b2804c1554cd94bc2eb576e44b192a0e069d4c527589a887ea49807205ce4d355092ef5a8a18f56e8913cf4a201fbe287825b095693c21775a2646970667358221220a6ed38c0f5f686e1a5d7a6a1d8d3ba2e90e3b9c62dba5bcb7b6fda84ed53e7df64736f6c63430008060033",
  "devdoc": {
    "kind": "dev",
    "methods": {
      "getRoleAdmin(bytes32)": {
        "details": "Returns the admin role that controls `role`. See {grantRole} and {revokeRole}. To change a role's admin, use {_setRoleAdmin}."
      },
      "grantRole(bytes32,address)": {
        "details": "Grants `role` to `account`. If `account` had not been already granted `role`, emits a {RoleGranted} event. Requirements: - the caller must have ``role``'s admin role."
      },
      "hasRole(bytes32,address)": {
        "details": "Returns `true` if `account` has been granted `role`."
      },
      "paused()": {
        "details": "Returns true if the contract is paused, and false otherwise."
      },
      "renounceRole(bytes32,address)": {
        "details": "Revokes `role` from the calling account. Roles are often managed via {grantRole} and {revokeRole}: this function's purpose is to provide a mechanism for accounts to lose their privileges if they are compromised (such as when a trusted device is misplaced). If the calling account had been granted `role`, emits a {RoleRevoked} event. Requirements: - the caller must be `account`."
      },
      "revokeRole(bytes32,address)": {
        "details": "Revokes `role` from `account`. If `account` had been granted `role`, emits a {RoleRevoked} event. Requirements: - the caller must have ``role``'s admin role."
      },
      "supportsInterface(bytes4)": {
        "details": "See {IERC165-supportsInterface}."
      },
      "withdraw(address,address,uint256,bool,bytes,uint256,uint256)": {
        "params": {
          "bridgeFee": "Amount (in native coins), payed as bridge earnings",
          "feeSignature": "Signature signed by relay that confirms that the fee values are valid",
          "transferFee": "Amount (in native coins), payed to compensate gas fees in side network"
        }
      },
      "wrapWithdraw(address,bytes,uint256,uint256)": {
        "params": {
          "bridgeFee": "Amount (in native coins), payed as bridge earnings",
          "feeSignature": "Signature signed by relay that confirms that the fee values are valid",
          "toAddress": "Address in side network that will receive the tokens",
          "transferFee": "Amount (in native coins), payed to compensate gas fees in side network"
        }
      }
    },
    "version": 1
  },
  "userdoc": {
    "kind": "user",
    "methods": {},
    "version": 1
  },
  "storageLayout": {
    "storage": [
      {
        "astId": 413,
        "contract": "contracts/networks/ETH_AmbBridge.sol:ETH_AmbBridge",
        "label": "_initialized",
        "offset": 0,
        "slot": "0",
        "type": "t_bool"
      },
      {
        "astId": 416,
        "contract": "contracts/networks/ETH_AmbBridge.sol:ETH_AmbBridge",
        "label": "_initializing",
        "offset": 1,
        "slot": "0",
        "type": "t_bool"
      },
      {
        "astId": 609,
        "contract": "contracts/networks/ETH_AmbBridge.sol:ETH_AmbBridge",
        "label": "__gap",
        "offset": 0,
        "slot": "1",
        "type": "t_array(t_uint256)50_storage"
      },
      {
        "astId": 858,
        "contract": "contracts/networks/ETH_AmbBridge.sol:ETH_AmbBridge",
        "label": "__gap",
        "offset": 0,
        "slot": "51",
        "type": "t_array(t_uint256)50_storage"
      },
      {
        "astId": 48,
        "contract": "contracts/networks/ETH_AmbBridge.sol:ETH_AmbBridge",
        "label": "_roles",
        "offset": 0,
        "slot": "101",
        "type": "t_mapping(t_bytes32,t_struct(RoleData)43_storage)"
      },
      {
        "astId": 333,
        "contract": "contracts/networks/ETH_AmbBridge.sol:ETH_AmbBridge",
        "label": "__gap",
        "offset": 0,
        "slot": "102",
        "type": "t_array(t_uint256)49_storage"
      },
      {
        "astId": 474,
        "contract": "contracts/networks/ETH_AmbBridge.sol:ETH_AmbBridge",
        "label": "_paused",
        "offset": 0,
        "slot": "151",
        "type": "t_bool"
      },
      {
        "astId": 565,
        "contract": "contracts/networks/ETH_AmbBridge.sol:ETH_AmbBridge",
        "label": "__gap",
        "offset": 0,
        "slot": "152",
        "type": "t_array(t_uint256)49_storage"
      },
      {
        "astId": 2748,
        "contract": "contracts/networks/ETH_AmbBridge.sol:ETH_AmbBridge",
        "label": "signatureFeeCheckNumber",
        "offset": 0,
        "slot": "201",
        "type": "t_uint256"
      },
      {
        "astId": 2752,
        "contract": "contracts/networks/ETH_AmbBridge.sol:ETH_AmbBridge",
        "label": "queue",
        "offset": 0,
        "slot": "202",
        "type": "t_array(t_struct(Transfer)3954_storage)dyn_storage"
      },
      {
        "astId": 2757,
        "contract": "contracts/networks/ETH_AmbBridge.sol:ETH_AmbBridge",
        "label": "lockedTransfers",
        "offset": 0,
        "slot": "203",
        "type": "t_mapping(t_uint256,t_struct(LockedTransfers)3971_storage)"
      },
      {
        "astId": 2759,
        "contract": "contracts/networks/ETH_AmbBridge.sol:ETH_AmbBridge",
        "label": "oldestLockedEventId",
        "offset": 0,
        "slot": "204",
        "type": "t_uint256"
      },
      {
        "astId": 2763,
        "contract": "contracts/networks/ETH_AmbBridge.sol:ETH_AmbBridge",
        "label": "tokenAddresses",
        "offset": 0,
        "slot": "205",
        "type": "t_mapping(t_address,t_address)"
      },
      {
        "astId": 2765,
        "contract": "contracts/networks/ETH_AmbBridge.sol:ETH_AmbBridge",
        "label": "wrapperAddress",
        "offset": 0,
        "slot": "206",
        "type": "t_address"
      },
      {
        "astId": 2767,
        "contract": "contracts/networks/ETH_AmbBridge.sol:ETH_AmbBridge",
        "label": "transferFeeRecipient",
        "offset": 0,
        "slot": "207",
        "type": "t_address_payable"
      },
      {
        "astId": 2769,
        "contract": "contracts/networks/ETH_AmbBridge.sol:ETH_AmbBridge",
        "label": "bridgeFeeRecipient",
        "offset": 0,
        "slot": "208",
        "type": "t_address_payable"
      },
      {
        "astId": 2771,
        "contract": "contracts/networks/ETH_AmbBridge.sol:ETH_AmbBridge",
        "label": "sideBridgeAddress",
        "offset": 0,
        "slot": "209",
        "type": "t_address"
      },
      {
        "astId": 2773,
        "contract": "contracts/networks/ETH_AmbBridge.sol:ETH_AmbBridge",
        "label": "minSafetyBlocks",
        "offset": 0,
        "slot": "210",
        "type": "t_uint256"
      },
      {
        "astId": 2775,
        "contract": "contracts/networks/ETH_AmbBridge.sol:ETH_AmbBridge",
        "label": "timeframeSeconds",
        "offset": 0,
        "slot": "211",
        "type": "t_uint256"
      },
      {
        "astId": 2777,
        "contract": "contracts/networks/ETH_AmbBridge.sol:ETH_AmbBridge",
        "label": "lockTime",
        "offset": 0,
        "slot": "212",
        "type": "t_uint256"
      },
      {
        "astId": 2779,
        "contract": "contracts/networks/ETH_AmbBridge.sol:ETH_AmbBridge",
        "label": "inputEventId",
        "offset": 0,
        "slot": "213",
        "type": "t_uint256"
      },
      {
        "astId": 2781,
        "contract": "contracts/networks/ETH_AmbBridge.sol:ETH_AmbBridge",
        "label": "outputEventId",
        "offset": 0,
        "slot": "214",
        "type": "t_uint256"
      },
      {
        "astId": 2783,
        "contract": "contracts/networks/ETH_AmbBridge.sol:ETH_AmbBridge",
        "label": "lastTimeframe",
        "offset": 0,
        "slot": "215",
        "type": "t_uint256"
      },
      {
        "astId": 3944,
        "contract": "contracts/networks/ETH_AmbBridge.sol:ETH_AmbBridge",
        "label": "__gap",
        "offset": 0,
        "slot": "216",
        "type": "t_array(t_uint256)15_storage"
      },
      {
        "astId": 2678,
        "contract": "contracts/networks/ETH_AmbBridge.sol:ETH_AmbBridge",
        "label": "___gap",
        "offset": 0,
        "slot": "231",
        "type": "t_array(t_uint256)15_storage"
      }
    ],
    "types": {
      "t_address": {
        "encoding": "inplace",
        "label": "address",
        "numberOfBytes": "20"
      },
      "t_address_payable": {
        "encoding": "inplace",
        "label": "address payable",
        "numberOfBytes": "20"
      },
      "t_array(t_struct(Transfer)3954_storage)dyn_storage": {
        "base": "t_struct(Transfer)3954_storage",
        "encoding": "dynamic_array",
        "label": "struct CommonStructs.Transfer[]",
        "numberOfBytes": "32"
      },
      "t_array(t_uint256)15_storage": {
        "base": "t_uint256",
        "encoding": "inplace",
        "label": "uint256[15]",
        "numberOfBytes": "480"
      },
      "t_array(t_uint256)49_storage": {
        "base": "t_uint256",
        "encoding": "inplace",
        "label": "uint256[49]",
        "numberOfBytes": "1568"
      },
      "t_array(t_uint256)50_storage": {
        "base": "t_uint256",
        "encoding": "inplace",
        "label": "uint256[50]",
        "numberOfBytes": "1600"
      },
      "t_bool": {
        "encoding": "inplace",
        "label": "bool",
        "numberOfBytes": "1"
      },
      "t_bytes32": {
        "encoding": "inplace",
        "label": "bytes32",
        "numberOfBytes": "32"
      },
      "t_mapping(t_address,t_address)": {
        "encoding": "mapping",
        "key": "t_address",
        "label": "mapping(address => address)",
        "numberOfBytes": "32",
        "value": "t_address"
      },
      "t_mapping(t_address,t_bool)": {
        "encoding": "mapping",
        "key": "t_address",
        "label": "mapping(address => bool)",
        "numberOfBytes": "32",
        "value": "t_bool"
      },
      "t_mapping(t_bytes32,t_struct(RoleData)43_storage)": {
        "encoding": "mapping",
        "key": "t_bytes32",
        "label": "mapping(bytes32 => struct AccessControlUpgradeable.RoleData)",
        "numberOfBytes": "32",
        "value": "t_struct(RoleData)43_storage"
      },
      "t_mapping(t_uint256,t_struct(LockedTransfers)3971_storage)": {
        "encoding": "mapping",
        "key": "t_uint256",
        "label": "mapping(uint256 => struct CommonStructs.LockedTransfers)",
        "numberOfBytes": "32",
        "value": "t_struct(LockedTransfers)3971_storage"
      },
      "t_struct(LockedTransfers)3971_storage": {
        "encoding": "inplace",
        "label": "struct CommonStructs.LockedTransfers",
        "members": [
          {
            "astId": 3968,
            "contract": "contracts/networks/ETH_AmbBridge.sol:ETH_AmbBridge",
            "label": "transfers",
            "offset": 0,
            "slot": "0",
            "type": "t_array(t_struct(Transfer)3954_storage)dyn_storage"
          },
          {
            "astId": 3970,
            "contract": "contracts/networks/ETH_AmbBridge.sol:ETH_AmbBridge",
            "label": "endTimestamp",
            "offset": 0,
            "slot": "1",
            "type": "t_uint256"
          }
        ],
        "numberOfBytes": "64"
      },
      "t_struct(RoleData)43_storage": {
        "encoding": "inplace",
        "label": "struct AccessControlUpgradeable.RoleData",
        "members": [
          {
            "astId": 40,
            "contract": "contracts/networks/ETH_AmbBridge.sol:ETH_AmbBridge",
            "label": "members",
            "offset": 0,
            "slot": "0",
            "type": "t_mapping(t_address,t_bool)"
          },
          {
            "astId": 42,
            "contract": "contracts/networks/ETH_AmbBridge.sol:ETH_AmbBridge",
            "label": "adminRole",
            "offset": 0,
            "slot": "1",
            "type": "t_bytes32"
          }
        ],
        "numberOfBytes": "64"
      },
      "t_struct(Transfer)3954_storage": {
        "encoding": "inplace",
        "label": "struct CommonStructs.Transfer",
        "members": [
          {
            "astId": 3949,
            "contract": "contracts/networks/ETH_AmbBridge.sol:ETH_AmbBridge",
            "label": "tokenAddress",
            "offset": 0,
            "slot": "0",
            "type": "t_address"
          },
          {
            "astId": 3951,
            "contract": "contracts/networks/ETH_AmbBridge.sol:ETH_AmbBridge",
            "label": "toAddress",
            "offset": 0,
            "slot": "1",
            "type": "t_address"
          },
          {
            "astId": 3953,
            "contract": "contracts/networks/ETH_AmbBridge.sol:ETH_AmbBridge",
            "label": "amount",
            "offset": 0,
            "slot": "2",
            "type": "t_uint256"
          }
        ],
        "numberOfBytes": "96"
      },
      "t_uint256": {
        "encoding": "inplace",
        "label": "uint256",
        "numberOfBytes": "32"
      }
    }
  }
}