{
  "address": "0x7b8A17Fc98711db0870c7F37A45d069f2B750637",
  "abi": [
    {
      "inputs": [
        {
          "internalType": "address[]",
          "name": "admins",
          "type": "address[]"
        }
      ],
      "stateMutability": "payable",
      "type": "constructor"
    },
    {
      "anonymous": false,
      "inputs": [
        {
          "indexed": true,
          "internalType": "address",
          "name": "to",
          "type": "address"
        },
        {
          "indexed": true,
          "internalType": "uint256",
          "name": "eventId",
          "type": "uint256"
        },
        {
          "indexed": true,
          "internalType": "uint256",
          "name": "chainId",
          "type": "uint256"
        },
        {
          "indexed": false,
          "internalType": "uint256",
          "name": "amount",
          "type": "uint256"
        }
      ],
      "name": "Faucet",
      "type": "event"
    },
    {
      "anonymous": false,
      "inputs": [
        {
          "indexed": true,
          "internalType": "bytes32",
          "name": "role",
          "type": "bytes32"
        },
        {
          "indexed": true,
          "internalType": "bytes32",
          "name": "previousAdminRole",
          "type": "bytes32"
        },
        {
          "indexed": true,
          "internalType": "bytes32",
          "name": "newAdminRole",
          "type": "bytes32"
        }
      ],
      "name": "RoleAdminChanged",
      "type": "event"
    },
    {
      "anonymous": false,
      "inputs": [
        {
          "indexed": true,
          "internalType": "bytes32",
          "name": "role",
          "type": "bytes32"
        },
        {
          "indexed": true,
          "internalType": "address",
          "name": "account",
          "type": "address"
        },
        {
          "indexed": true,
          "internalType": "address",
          "name": "sender",
          "type": "address"
        }
      ],
      "name": "RoleGranted",
      "type": "event"
    },
    {
      "anonymous": false,
      "inputs": [
        {
          "indexed": true,
          "internalType": "bytes32",
          "name": "role",
          "type": "bytes32"
        },
        {
          "indexed": true,
          "internalType": "address",
          "name": "account",
          "type": "address"
        },
        {
          "indexed": true,
          "internalType": "address",
          "name": "sender",
          "type": "address"
        }
      ],
      "name": "RoleRevoked",
      "type": "event"
    },
    {
      "inputs": [],
      "name": "DEFAULT_ADMIN_ROLE",
      "outputs": [
        {
          "internalType": "bytes32",
          "name": "",
          "type": "bytes32"
        }
      ],
      "stateMutability": "view",
      "type": "function"
    },
    {
      "inputs": [
        {
          "internalType": "address",
          "name": "toAddress",
          "type": "address"
        },
        {
          "internalType": "uint256",
          "name": "eventId",
          "type": "uint256"
        },
        {
          "internalType": "uint256",
          "name": "chainId",
          "type": "uint256"
        },
        {
          "internalType": "uint256",
          "name": "amount",
          "type": "uint256"
        }
      ],
      "name": "faucet",
      "outputs": [],
      "stateMutability": "nonpayable",
      "type": "function"
    },
    {
      "inputs": [
        {
          "internalType": "bytes32",
          "name": "role",
          "type": "bytes32"
        }
      ],
      "name": "getRoleAdmin",
      "outputs": [
        {
          "internalType": "bytes32",
          "name": "",
          "type": "bytes32"
        }
      ],
      "stateMutability": "view",
      "type": "function"
    },
    {
      "inputs": [
        {
          "internalType": "bytes32",
          "name": "role",
          "type": "bytes32"
        },
        {
          "internalType": "address",
          "name": "account",
          "type": "address"
        }
      ],
      "name": "grantRole",
      "outputs": [],
      "stateMutability": "nonpayable",
      "type": "function"
    },
    {
      "inputs": [
        {
          "internalType": "bytes32",
          "name": "role",
          "type": "bytes32"
        },
        {
          "internalType": "address",
          "name": "account",
          "type": "address"
        }
      ],
      "name": "hasRole",
      "outputs": [
        {
          "internalType": "bool",
          "name": "",
          "type": "bool"
        }
      ],
      "stateMutability": "view",
      "type": "function"
    },
    {
      "inputs": [
        {
          "internalType": "bytes32",
          "name": "role",
          "type": "bytes32"
        },
        {
          "internalType": "address",
          "name": "account",
          "type": "address"
        }
      ],
      "name": "renounceRole",
      "outputs": [],
      "stateMutability": "nonpayable",
      "type": "function"
    },
    {
      "inputs": [
        {
          "internalType": "bytes32",
          "name": "role",
          "type": "bytes32"
        },
        {
          "internalType": "address",
          "name": "account",
          "type": "address"
        }
      ],
      "name": "revokeRole",
      "outputs": [],
      "stateMutability": "nonpayable",
      "type": "function"
    },
    {
      "inputs": [
        {
          "internalType": "bytes4",
          "name": "interfaceId",
          "type": "bytes4"
        }
      ],
      "name": "supportsInterface",
      "outputs": [
        {
          "internalType": "bool",
          "name": "",
          "type": "bool"
        }
      ],
      "stateMutability": "view",
      "type": "function"
    },
    {
      "inputs": [
        {
          "internalType": "address",
          "name": "toAddress",
          "type": "address"
        },
        {
          "internalType": "uint256",
          "name": "amount",
          "type": "uint256"
        }
      ],
      "name": "withdraw",
      "outputs": [],
      "stateMutability": "nonpayable",
      "type": "function"
    },
    {
      "stateMutability": "payable",
      "type": "receive"
    }
  ],
  "transactionHash": "0x19222c4e839d309e82c5e428637c12a4e62dbf1677ff24f7600ae5a8fbe921e3",
  "args": [
    [
      "0xD693a3cc5686e74Ca2e72e8120A2F2013B8eE66E"
    ]
  ],
  "numDeployments": 1,
  "solcInputHash": "d93bc3aa6701c2d134a7738294111712",
  "bytecode": "0x608060405260405162000e4538038062000e4583398101604081905262000026916200018a565b60005b815181101562000083576200006e6000600102838381518110620000515762000051620002a6565b60200260200101516200008b640100000000026401000000009004565b806200007a8162000263565b91505062000029565b505062000304565b620000a08282640100000000620000a4810204565b5050565b620000b9828264010000000062000140810204565b620000a057600082815260208181526040808320600160a060020a03851684529091529020805460ff19166001179055620000fc64010000000062000169810204565b600160a060020a031681600160a060020a0316837f2f8788117e7eff1d82e926ec794901d17c78024a50270940304540a733656f0d60405160405180910390a45050565b600091825260208281526040808420600160a060020a0393909316845291905290205460ff1690565b3390565b8051600160a060020a03811681146200018557600080fd5b919050565b600060208083850312156200019e57600080fd5b825167ffffffffffffffff80821115620001b757600080fd5b818501915085601f830112620001cc57600080fd5b815181811115620001e157620001e1620002d5565b838102604051601f19603f83011681018181108582111715620002085762000208620002d5565b604052828152858101935084860182860187018a10156200022857600080fd5b600095505b83861015620002565762000241816200016d565b8552600195909501949386019386016200022d565b5098975050505050505050565b60006000198214156200029f577f4e487b7100000000000000000000000000000000000000000000000000000000600052601160045260246000fd5b5060010190565b7f4e487b7100000000000000000000000000000000000000000000000000000000600052603260045260246000fd5b7f4e487b7100000000000000000000000000000000000000000000000000000000600052604160045260246000fd5b610b3180620003146000396000f3fe6080604052600436106100a7576000357c01000000000000000000000000000000000000000000000000000000009004806336568abe1161007657806336568abe1461016857806391d1485414610188578063a217fddf146101a8578063d547741f146101bd578063f3fef3a3146101dd57600080fd5b806301ffc9a7146100b3578063248a9ca3146100e85780632a13b891146101265780632f2ff15d1461014857600080fd5b366100ae57005b600080fd5b3480156100bf57600080fd5b506100d36100ce366004610901565b6101fd565b60405190151581526020015b60405180910390f35b3480156100f457600080fd5b506101186101033660046108bc565b60009081526020819052604090206001015490565b6040519081526020016100df565b34801561013257600080fd5b50610146610141366004610883565b610290565b005b34801561015457600080fd5b506101466101633660046108d5565b6102f2565b34801561017457600080fd5b506101466101833660046108d5565b61031d565b34801561019457600080fd5b506100d36101a33660046108d5565b6103b1565b3480156101b457600080fd5b50610118600081565b3480156101c957600080fd5b506101466101d83660046108d5565b6103da565b3480156101e957600080fd5b506101466101f8366004610859565b610400565b60007bffffffffffffffffffffffffffffffffffffffffffffffffffffffff1982167f7965db0b00000000000000000000000000000000000000000000000000000000148061028a57507f01ffc9a7000000000000000000000000000000000000000000000000000000007bffffffffffffffffffffffffffffffffffffffffffffffffffffffff198316145b92915050565b600061029c813361049c565b6102a68583610400565b828486600160a060020a03167f4828ab435cca543539934276b7cad7900854b86fadd6284f6af7a8706161c698856040516102e391815260200190565b60405180910390a45050505050565b60008281526020819052604090206001015461030e813361049c565b6103188383610503565b505050565b600160a060020a03811633146103a35760405160e560020a62461bcd02815260206004820152602f60248201527f416363657373436f6e74726f6c3a2063616e206f6e6c792072656e6f756e636560448201527f20726f6c657320666f722073656c66000000000000000000000000000000000060648201526084015b60405180910390fd5b6103ad8282610587565b5050565b600091825260208281526040808420600160a060020a0393909316845291905290205460ff1690565b6000828152602081905260409020600101546103f6813361049c565b6103188383610587565b600061040c813361049c565b30318211156104605760405160e560020a62461bcd02815260206004820152601060248201527f6e6f7420656e6f7567682066756e647300000000000000000000000000000000604482015260640161039a565b604051600160a060020a0384169083156108fc029084906000818181858888f19350505050158015610496573d6000803e3d6000fd5b50505050565b6104a682826103b1565b6103ad576104be81600160a060020a031660146105ec565b6104c98360206105ec565b6040516020016104da929190610940565b60408051601f198184030181529082905260e560020a62461bcd02825261039a916004016109c1565b61050d82826103b1565b6103ad57600082815260208181526040808320600160a060020a03851684529091529020805460ff191660011790556105433390565b600160a060020a031681600160a060020a0316837f2f8788117e7eff1d82e926ec794901d17c78024a50270940304540a733656f0d60405160405180910390a45050565b61059182826103b1565b156103ad57600082815260208181526040808320600160a060020a0385168085529252808320805460ff1916905551339285917ff6391f5c32d9c69d2a47ea670b442974b53935d1edc7fd64eb21e047a839171b9190a45050565b606060006105fb836002610a0c565b6106069060026109f4565b67ffffffffffffffff81111561061e5761061e610acc565b6040519080825280601f01601f191660200182016040528015610648576020820181803683370190505b5090507f30000000000000000000000000000000000000000000000000000000000000008160008151811061067f5761067f610a9d565b60200101907effffffffffffffffffffffffffffffffffffffffffffffffffffffffffffff1916908160001a9053507f7800000000000000000000000000000000000000000000000000000000000000816001815181106106e2576106e2610a9d565b60200101907effffffffffffffffffffffffffffffffffffffffffffffffffffffffffffff1916908160001a905350600061071e846002610a0c565b6107299060016109f4565b90505b60018111156107e4577f303132333435363738396162636465660000000000000000000000000000000085600f166010811061076a5761076a610a9d565b1a7f01000000000000000000000000000000000000000000000000000000000000000282828151811061079f5761079f610a9d565b60200101907effffffffffffffffffffffffffffffffffffffffffffffffffffffffffffff1916908160001a9053506010909404936107dd81610a57565b905061072c565b5083156108365760405160e560020a62461bcd02815260206004820181905260248201527f537472696e67733a20686578206c656e67746820696e73756666696369656e74604482015260640161039a565b9392505050565b8035600160a060020a038116811461085457600080fd5b919050565b6000806040838503121561086c57600080fd5b6108758361083d565b946020939093013593505050565b6000806000806080858703121561089957600080fd5b6108a28561083d565b966020860135965060408601359560600135945092505050565b6000602082840312156108ce57600080fd5b5035919050565b600080604083850312156108e857600080fd5b823591506108f86020840161083d565b90509250929050565b60006020828403121561091357600080fd5b81357bffffffffffffffffffffffffffffffffffffffffffffffffffffffff198116811461083657600080fd5b7f416363657373436f6e74726f6c3a206163636f756e7420000000000000000000815260008351610978816017850160208801610a2b565b7f206973206d697373696e6720726f6c652000000000000000000000000000000060179184019182015283516109b5816028840160208801610a2b565b01602801949350505050565b60208152600082518060208401526109e0816040850160208701610a2b565b601f01601f19169190910160400192915050565b60008219821115610a0757610a07610a6e565b500190565b6000816000190483118215151615610a2657610a26610a6e565b500290565b60005b83811015610a46578181015183820152602001610a2e565b838111156104965750506000910152565b600081610a6657610a66610a6e565b506000190190565b7f4e487b7100000000000000000000000000000000000000000000000000000000600052601160045260246000fd5b7f4e487b7100000000000000000000000000000000000000000000000000000000600052603260045260246000fd5b7f4e487b7100000000000000000000000000000000000000000000000000000000600052604160045260246000fdfea264697066735822122090abbd268922dd22b983d6453d204ec1f62b3eeeb0a034d23af06082f7b0352f64736f6c63430008060033",
  "devdoc": {
    "kind": "dev",
    "methods": {
      "getRoleAdmin(bytes32)": {
        "details": "Returns the admin role that controls `role`. See {grantRole} and {revokeRole}. To change a role's admin, use {_setRoleAdmin}."
      },
      "grantRole(bytes32,address)": {
        "details": "Grants `role` to `account`. If `account` had not been already granted `role`, emits a {RoleGranted} event. Requirements: - the caller must have ``role``'s admin role."
      },
      "hasRole(bytes32,address)": {
        "details": "Returns `true` if `account` has been granted `role`."
      },
      "renounceRole(bytes32,address)": {
        "details": "Revokes `role` from the calling account. Roles are often managed via {grantRole} and {revokeRole}: this function's purpose is to provide a mechanism for accounts to lose their privileges if they are compromised (such as when a trusted device is misplaced). If the calling account had been granted `role`, emits a {RoleRevoked} event. Requirements: - the caller must be `account`."
      },
      "revokeRole(bytes32,address)": {
        "details": "Revokes `role` from `account`. If `account` had been granted `role`, emits a {RoleRevoked} event. Requirements: - the caller must have ``role``'s admin role."
      },
      "supportsInterface(bytes4)": {
        "details": "See {IERC165-supportsInterface}."
      }
    },
    "version": 1
  },
  "userdoc": {
    "kind": "user",
    "methods": {},
    "version": 1
  },
  "storageLayout": {
    "storage": [
      {
        "astId": 896,
        "contract": "contracts/utils/Faucet.sol:Faucet",
        "label": "_roles",
        "offset": 0,
        "slot": "0",
        "type": "t_mapping(t_bytes32,t_struct(RoleData)891_storage)"
      }
    ],
    "types": {
      "t_address": {
        "encoding": "inplace",
        "label": "address",
        "numberOfBytes": "20"
      },
      "t_bool": {
        "encoding": "inplace",
        "label": "bool",
        "numberOfBytes": "1"
      },
      "t_bytes32": {
        "encoding": "inplace",
        "label": "bytes32",
        "numberOfBytes": "32"
      },
      "t_mapping(t_address,t_bool)": {
        "encoding": "mapping",
        "key": "t_address",
        "label": "mapping(address => bool)",
        "numberOfBytes": "32",
        "value": "t_bool"
      },
      "t_mapping(t_bytes32,t_struct(RoleData)891_storage)": {
        "encoding": "mapping",
        "key": "t_bytes32",
        "label": "mapping(bytes32 => struct AccessControl.RoleData)",
        "numberOfBytes": "32",
        "value": "t_struct(RoleData)891_storage"
      },
      "t_struct(RoleData)891_storage": {
        "encoding": "inplace",
        "label": "struct AccessControl.RoleData",
        "members": [
          {
            "astId": 888,
            "contract": "contracts/utils/Faucet.sol:Faucet",
            "label": "members",
            "offset": 0,
            "slot": "0",
            "type": "t_mapping(t_address,t_bool)"
          },
          {
            "astId": 890,
            "contract": "contracts/utils/Faucet.sol:Faucet",
            "label": "adminRole",
            "offset": 0,
            "slot": "1",
            "type": "t_bytes32"
          }
        ],
        "numberOfBytes": "64"
      }
    }
  }
}