{
  "address": "0x25BA1746353B8E157e9d8603De58a855134f610c",
  "abi": [
    {
      "anonymous": false,
      "inputs": [
        {
          "indexed": false,
          "internalType": "address",
          "name": "account",
          "type": "address"
        }
      ],
      "name": "Paused",
      "type": "event"
    },
    {
      "anonymous": false,
      "inputs": [
        {
          "indexed": true,
          "internalType": "bytes32",
          "name": "role",
          "type": "bytes32"
        },
        {
          "indexed": true,
          "internalType": "bytes32",
          "name": "previousAdminRole",
          "type": "bytes32"
        },
        {
          "indexed": true,
          "internalType": "bytes32",
          "name": "newAdminRole",
          "type": "bytes32"
        }
      ],
      "name": "RoleAdminChanged",
      "type": "event"
    },
    {
      "anonymous": false,
      "inputs": [
        {
          "indexed": true,
          "internalType": "bytes32",
          "name": "role",
          "type": "bytes32"
        },
        {
          "indexed": true,
          "internalType": "address",
          "name": "account",
          "type": "address"
        },
        {
          "indexed": true,
          "internalType": "address",
          "name": "sender",
          "type": "address"
        }
      ],
      "name": "RoleGranted",
      "type": "event"
    },
    {
      "anonymous": false,
      "inputs": [
        {
          "indexed": true,
          "internalType": "bytes32",
          "name": "role",
          "type": "bytes32"
        },
        {
          "indexed": true,
          "internalType": "address",
          "name": "account",
          "type": "address"
        },
        {
          "indexed": true,
          "internalType": "address",
          "name": "sender",
          "type": "address"
        }
      ],
      "name": "RoleRevoked",
      "type": "event"
    },
    {
      "anonymous": false,
      "inputs": [
        {
          "indexed": true,
          "internalType": "uint256",
          "name": "eventId",
          "type": "uint256"
        },
        {
          "components": [
            {
              "internalType": "address",
              "name": "tokenAddress",
              "type": "address"
            },
            {
              "internalType": "address",
              "name": "toAddress",
              "type": "address"
            },
            {
              "internalType": "uint256",
              "name": "amount",
              "type": "uint256"
            }
          ],
          "indexed": false,
          "internalType": "struct CommonStructs.Transfer[]",
          "name": "queue",
          "type": "tuple[]"
        }
      ],
      "name": "Transfer",
      "type": "event"
    },
    {
      "anonymous": false,
      "inputs": [
        {
          "indexed": true,
          "internalType": "uint256",
          "name": "eventId",
          "type": "uint256"
        }
      ],
      "name": "TransferFinish",
      "type": "event"
    },
    {
      "anonymous": false,
      "inputs": [
        {
          "indexed": true,
          "internalType": "uint256",
          "name": "eventId",
          "type": "uint256"
        }
      ],
      "name": "TransferSubmit",
      "type": "event"
    },
    {
      "anonymous": false,
      "inputs": [
        {
          "indexed": false,
          "internalType": "address",
          "name": "account",
          "type": "address"
        }
      ],
      "name": "Unpaused",
      "type": "event"
    },
    {
      "anonymous": false,
      "inputs": [
        {
          "indexed": true,
          "internalType": "address",
          "name": "from",
          "type": "address"
        },
        {
          "indexed": false,
          "internalType": "uint256",
          "name": "eventId",
          "type": "uint256"
        },
        {
          "indexed": false,
          "internalType": "address",
          "name": "tokenFrom",
          "type": "address"
        },
        {
          "indexed": false,
          "internalType": "address",
          "name": "tokenTo",
          "type": "address"
        },
        {
          "indexed": false,
          "internalType": "uint256",
          "name": "amount",
          "type": "uint256"
        },
        {
          "indexed": false,
          "internalType": "uint256",
          "name": "transferFeeAmount",
          "type": "uint256"
        },
        {
          "indexed": false,
          "internalType": "uint256",
          "name": "bridgeFeeAmount",
          "type": "uint256"
        }
      ],
      "name": "Withdraw",
      "type": "event"
    },
    {
      "inputs": [],
      "name": "ADMIN_ROLE",
      "outputs": [
        {
          "internalType": "bytes32",
          "name": "",
          "type": "bytes32"
        }
      ],
      "stateMutability": "view",
      "type": "function"
    },
    {
      "inputs": [],
      "name": "DEFAULT_ADMIN_ROLE",
      "outputs": [
        {
          "internalType": "bytes32",
          "name": "",
          "type": "bytes32"
        }
      ],
      "stateMutability": "view",
      "type": "function"
    },
    {
      "inputs": [],
      "name": "FEE_PROVIDER_ROLE",
      "outputs": [
        {
          "internalType": "bytes32",
          "name": "",
          "type": "bytes32"
        }
      ],
      "stateMutability": "view",
      "type": "function"
    },
    {
      "inputs": [],
      "name": "RELAY_ROLE",
      "outputs": [
        {
          "internalType": "bytes32",
          "name": "",
          "type": "bytes32"
        }
      ],
      "stateMutability": "view",
      "type": "function"
    },
    {
      "inputs": [],
      "name": "WATCHDOG_ROLE",
      "outputs": [
        {
          "internalType": "bytes32",
          "name": "",
          "type": "bytes32"
        }
      ],
      "stateMutability": "view",
      "type": "function"
    },
    {
      "inputs": [],
      "name": "bridgeFeeRecipient",
      "outputs": [
        {
          "internalType": "address payable",
          "name": "",
          "type": "address"
        }
      ],
      "stateMutability": "view",
      "type": "function"
    },
    {
      "inputs": [
        {
          "internalType": "address payable",
          "name": "feeRecipient_",
          "type": "address"
        }
      ],
      "name": "changeBridgeFeeRecipient",
      "outputs": [],
      "stateMutability": "nonpayable",
      "type": "function"
    },
    {
      "inputs": [
        {
          "internalType": "uint256",
          "name": "lockTime_",
          "type": "uint256"
        }
      ],
      "name": "changeLockTime",
      "outputs": [],
      "stateMutability": "nonpayable",
      "type": "function"
    },
    {
      "inputs": [
        {
          "internalType": "uint256",
          "name": "minSafetyBlocks_",
          "type": "uint256"
        }
      ],
      "name": "changeMinSafetyBlocks",
      "outputs": [],
      "stateMutability": "nonpayable",
      "type": "function"
    },
    {
      "inputs": [
        {
          "internalType": "uint256",
          "name": "signatureFeeCheckNumber_",
          "type": "uint256"
        }
      ],
      "name": "changeSignatureFeeCheckNumber",
      "outputs": [],
      "stateMutability": "nonpayable",
      "type": "function"
    },
    {
      "inputs": [
        {
          "internalType": "uint256",
          "name": "timeframeSeconds_",
          "type": "uint256"
        }
      ],
      "name": "changeTimeframeSeconds",
      "outputs": [],
      "stateMutability": "nonpayable",
      "type": "function"
    },
    {
      "inputs": [
        {
          "internalType": "address payable",
          "name": "feeRecipient_",
          "type": "address"
        }
      ],
      "name": "changeTransferFeeRecipient",
      "outputs": [],
      "stateMutability": "nonpayable",
      "type": "function"
    },
    {
      "inputs": [
        {
          "internalType": "uint256",
          "name": "eventId",
          "type": "uint256"
        }
      ],
      "name": "getLockedTransfers",
      "outputs": [
        {
          "components": [
            {
              "components": [
                {
                  "internalType": "address",
                  "name": "tokenAddress",
                  "type": "address"
                },
                {
                  "internalType": "address",
                  "name": "toAddress",
                  "type": "address"
                },
                {
                  "internalType": "uint256",
                  "name": "amount",
                  "type": "uint256"
                }
              ],
              "internalType": "struct CommonStructs.Transfer[]",
              "name": "transfers",
              "type": "tuple[]"
            },
            {
              "internalType": "uint256",
              "name": "endTimestamp",
              "type": "uint256"
            }
          ],
          "internalType": "struct CommonStructs.LockedTransfers",
          "name": "",
          "type": "tuple"
        }
      ],
      "stateMutability": "view",
      "type": "function"
    },
    {
      "inputs": [
        {
          "internalType": "bytes32",
          "name": "role",
          "type": "bytes32"
        }
      ],
      "name": "getRoleAdmin",
      "outputs": [
        {
          "internalType": "bytes32",
          "name": "",
          "type": "bytes32"
        }
      ],
      "stateMutability": "view",
      "type": "function"
    },
    {
      "inputs": [
        {
          "internalType": "bytes32",
          "name": "role",
          "type": "bytes32"
        },
        {
          "internalType": "address",
          "name": "account",
          "type": "address"
        }
      ],
      "name": "grantRole",
      "outputs": [],
      "stateMutability": "nonpayable",
      "type": "function"
    },
    {
      "inputs": [
        {
          "internalType": "bytes32",
          "name": "role",
          "type": "bytes32"
        },
        {
          "internalType": "address[]",
          "name": "accounts",
          "type": "address[]"
        }
      ],
      "name": "grantRoles",
      "outputs": [],
      "stateMutability": "nonpayable",
      "type": "function"
    },
    {
      "inputs": [
        {
          "internalType": "bytes32",
          "name": "role",
          "type": "bytes32"
        },
        {
          "internalType": "address",
          "name": "account",
          "type": "address"
        }
      ],
      "name": "hasRole",
      "outputs": [
        {
          "internalType": "bool",
          "name": "",
          "type": "bool"
        }
      ],
      "stateMutability": "view",
      "type": "function"
    },
    {
      "inputs": [
        {
          "components": [
            {
              "internalType": "address",
              "name": "sideBridgeAddress",
              "type": "address"
            },
            {
              "internalType": "address",
              "name": "relayAddress",
              "type": "address"
            },
            {
              "internalType": "address[]",
              "name": "watchdogsAddresses",
              "type": "address[]"
            },
            {
              "internalType": "address",
              "name": "feeProviderAddress",
              "type": "address"
            },
            {
              "internalType": "address",
              "name": "wrappingTokenAddress",
              "type": "address"
            },
            {
              "internalType": "address[]",
              "name": "tokenThisAddresses",
              "type": "address[]"
            },
            {
              "internalType": "address[]",
              "name": "tokenSideAddresses",
              "type": "address[]"
            },
            {
              "internalType": "address payable",
              "name": "transferFeeRecipient",
              "type": "address"
            },
            {
              "internalType": "address payable",
              "name": "bridgeFeeRecipient",
              "type": "address"
            },
            {
              "internalType": "uint256",
              "name": "timeframeSeconds",
              "type": "uint256"
            },
            {
              "internalType": "uint256",
              "name": "lockTime",
              "type": "uint256"
            },
            {
              "internalType": "uint256",
              "name": "minSafetyBlocks",
              "type": "uint256"
            }
          ],
          "internalType": "struct CommonStructs.ConstructorArgs",
          "name": "args",
          "type": "tuple"
        }
      ],
      "name": "initialize",
      "outputs": [],
      "stateMutability": "nonpayable",
      "type": "function"
    },
    {
      "inputs": [],
      "name": "inputEventId",
      "outputs": [
        {
          "internalType": "uint256",
          "name": "",
          "type": "uint256"
        }
      ],
      "stateMutability": "view",
      "type": "function"
    },
    {
      "inputs": [],
      "name": "isQueueEmpty",
      "outputs": [
        {
          "internalType": "bool",
          "name": "",
          "type": "bool"
        }
      ],
      "stateMutability": "view",
      "type": "function"
    },
    {
      "inputs": [],
      "name": "lastTimeframe",
      "outputs": [
        {
          "internalType": "uint256",
          "name": "",
          "type": "uint256"
        }
      ],
      "stateMutability": "view",
      "type": "function"
    },
    {
      "inputs": [],
      "name": "lockTime",
      "outputs": [
        {
          "internalType": "uint256",
          "name": "",
          "type": "uint256"
        }
      ],
      "stateMutability": "view",
      "type": "function"
    },
    {
      "inputs": [
        {
          "internalType": "uint256",
          "name": "",
          "type": "uint256"
        }
      ],
      "name": "lockedTransfers",
      "outputs": [
        {
          "internalType": "uint256",
          "name": "endTimestamp",
          "type": "uint256"
        }
      ],
      "stateMutability": "view",
      "type": "function"
    },
    {
      "inputs": [],
      "name": "minSafetyBlocks",
      "outputs": [
        {
          "internalType": "uint256",
          "name": "",
          "type": "uint256"
        }
      ],
      "stateMutability": "view",
      "type": "function"
    },
    {
      "inputs": [],
      "name": "oldestLockedEventId",
      "outputs": [
        {
          "internalType": "uint256",
          "name": "",
          "type": "uint256"
        }
      ],
      "stateMutability": "view",
      "type": "function"
    },
    {
      "inputs": [],
      "name": "outputEventId",
      "outputs": [
        {
          "internalType": "uint256",
          "name": "",
          "type": "uint256"
        }
      ],
      "stateMutability": "view",
      "type": "function"
    },
    {
      "inputs": [],
      "name": "pause",
      "outputs": [],
      "stateMutability": "nonpayable",
      "type": "function"
    },
    {
      "inputs": [],
      "name": "paused",
      "outputs": [
        {
          "internalType": "bool",
          "name": "",
          "type": "bool"
        }
      ],
      "stateMutability": "view",
      "type": "function"
    },
    {
      "inputs": [
        {
          "internalType": "uint256",
          "name": "eventId",
          "type": "uint256"
        }
      ],
      "name": "removeLockedTransfers",
      "outputs": [],
      "stateMutability": "nonpayable",
      "type": "function"
    },
    {
      "inputs": [
        {
          "internalType": "bytes32",
          "name": "role",
          "type": "bytes32"
        },
        {
          "internalType": "address",
          "name": "account",
          "type": "address"
        }
      ],
      "name": "renounceRole",
      "outputs": [],
      "stateMutability": "nonpayable",
      "type": "function"
    },
    {
      "inputs": [
        {
          "internalType": "bytes32",
          "name": "role",
          "type": "bytes32"
        },
        {
          "internalType": "address",
          "name": "account",
          "type": "address"
        }
      ],
      "name": "revokeRole",
      "outputs": [],
      "stateMutability": "nonpayable",
      "type": "function"
    },
    {
      "inputs": [
        {
          "internalType": "bytes32",
          "name": "role",
          "type": "bytes32"
        },
        {
          "internalType": "address[]",
          "name": "accounts",
          "type": "address[]"
        }
      ],
      "name": "revokeRoles",
      "outputs": [],
      "stateMutability": "nonpayable",
      "type": "function"
    },
    {
      "inputs": [
        {
          "internalType": "address",
          "name": "_sideBridgeAddress",
          "type": "address"
        }
      ],
      "name": "setSideBridge",
      "outputs": [],
      "stateMutability": "nonpayable",
      "type": "function"
    },
    {
      "inputs": [],
      "name": "sideBridgeAddress",
      "outputs": [
        {
          "internalType": "address",
          "name": "",
          "type": "address"
        }
      ],
      "stateMutability": "view",
      "type": "function"
    },
    {
      "inputs": [
        {
          "internalType": "uint256",
          "name": "eventId",
          "type": "uint256"
        }
      ],
      "name": "skipTransfers",
      "outputs": [],
      "stateMutability": "nonpayable",
      "type": "function"
    },
    {
      "inputs": [
        {
          "internalType": "uint256",
          "name": "eventId",
          "type": "uint256"
        },
        {
          "components": [
            {
              "internalType": "address",
              "name": "tokenAddress",
              "type": "address"
            },
            {
              "internalType": "address",
              "name": "toAddress",
              "type": "address"
            },
            {
              "internalType": "uint256",
              "name": "amount",
              "type": "uint256"
            }
          ],
          "internalType": "struct CommonStructs.Transfer[]",
          "name": "transfers",
          "type": "tuple[]"
        }
      ],
      "name": "submitTransferUntrustless",
      "outputs": [],
      "stateMutability": "nonpayable",
      "type": "function"
    },
    {
      "inputs": [
        {
          "internalType": "bytes4",
          "name": "interfaceId",
          "type": "bytes4"
        }
      ],
      "name": "supportsInterface",
      "outputs": [
        {
          "internalType": "bool",
          "name": "",
          "type": "bool"
        }
      ],
      "stateMutability": "view",
      "type": "function"
    },
    {
      "inputs": [],
      "name": "timeframeSeconds",
      "outputs": [
        {
          "internalType": "uint256",
          "name": "",
          "type": "uint256"
        }
      ],
      "stateMutability": "view",
      "type": "function"
    },
    {
      "inputs": [
        {
          "internalType": "address",
          "name": "",
          "type": "address"
        }
      ],
      "name": "tokenAddresses",
      "outputs": [
        {
          "internalType": "address",
          "name": "",
          "type": "address"
        }
      ],
      "stateMutability": "view",
      "type": "function"
    },
    {
      "inputs": [
        {
          "internalType": "address",
          "name": "tokenThisAddress",
          "type": "address"
        },
        {
          "internalType": "address",
          "name": "tokenSideAddress",
          "type": "address"
        }
      ],
      "name": "tokensAdd",
      "outputs": [],
      "stateMutability": "nonpayable",
      "type": "function"
    },
    {
      "inputs": [
        {
          "internalType": "address[]",
          "name": "tokenThisAddresses",
          "type": "address[]"
        },
        {
          "internalType": "address[]",
          "name": "tokenSideAddresses",
          "type": "address[]"
        }
      ],
      "name": "tokensAddBatch",
      "outputs": [],
      "stateMutability": "nonpayable",
      "type": "function"
    },
    {
      "inputs": [
        {
          "internalType": "address",
          "name": "tokenThisAddress",
          "type": "address"
        }
      ],
      "name": "tokensRemove",
      "outputs": [],
      "stateMutability": "nonpayable",
      "type": "function"
    },
    {
      "inputs": [
        {
          "internalType": "address[]",
          "name": "tokenThisAddresses",
          "type": "address[]"
        }
      ],
      "name": "tokensRemoveBatch",
      "outputs": [],
      "stateMutability": "nonpayable",
      "type": "function"
    },
    {
      "inputs": [],
      "name": "transferFeeRecipient",
      "outputs": [
        {
          "internalType": "address payable",
          "name": "",
          "type": "address"
        }
      ],
      "stateMutability": "view",
      "type": "function"
    },
    {
      "inputs": [],
      "name": "triggerTransfers",
      "outputs": [],
      "stateMutability": "nonpayable",
      "type": "function"
    },
    {
      "inputs": [
        {
          "internalType": "uint256",
          "name": "eventId",
          "type": "uint256"
        }
      ],
      "name": "unlockTransfers",
      "outputs": [],
      "stateMutability": "nonpayable",
      "type": "function"
    },
    {
      "inputs": [],
      "name": "unlockTransfersBatch",
      "outputs": [],
      "stateMutability": "nonpayable",
      "type": "function"
    },
    {
      "inputs": [],
      "name": "unpause",
      "outputs": [],
      "stateMutability": "nonpayable",
      "type": "function"
    },
    {
      "inputs": [
        {
          "internalType": "address",
          "name": "tokenThisAddress",
          "type": "address"
        },
        {
          "internalType": "address",
          "name": "toAddress",
          "type": "address"
        },
        {
          "internalType": "uint256",
          "name": "amount",
          "type": "uint256"
        },
        {
          "internalType": "bool",
          "name": "unwrapSide",
          "type": "bool"
        },
        {
          "internalType": "bytes",
          "name": "feeSignature",
          "type": "bytes"
        },
        {
          "internalType": "uint256",
          "name": "transferFee",
          "type": "uint256"
        },
        {
          "internalType": "uint256",
          "name": "bridgeFee",
          "type": "uint256"
        }
      ],
      "name": "withdraw",
      "outputs": [],
      "stateMutability": "payable",
      "type": "function"
    },
    {
      "inputs": [
        {
          "internalType": "address",
          "name": "toAddress",
          "type": "address"
        },
        {
          "internalType": "bytes",
          "name": "feeSignature",
          "type": "bytes"
        },
        {
          "internalType": "uint256",
          "name": "transferFee",
          "type": "uint256"
        },
        {
          "internalType": "uint256",
          "name": "bridgeFee",
          "type": "uint256"
        }
      ],
      "name": "wrapWithdraw",
      "outputs": [],
      "stateMutability": "payable",
      "type": "function"
    },
    {
      "inputs": [],
      "name": "wrapperAddress",
      "outputs": [
        {
          "internalType": "address",
          "name": "",
          "type": "address"
        }
      ],
      "stateMutability": "view",
      "type": "function"
    },
    {
      "stateMutability": "payable",
      "type": "receive"
    }
  ],
  "transactionHash": "0xbfde51293dad384869420378c218761a79a4323f557c42d5ea3ad3c2ebd5ac77",
  "args": [],
  "numDeployments": 1,
  "solcInputHash": "733c8cb7a9e65a6720c9ec71bcbdb6f3",
  "bytecode": "0x608060405234801561001057600080fd5b506135c2806100206000396000f3fe6080604052600436106102ec5760003560e060020a900480638456cb5911610194578063b87330e9116100e0578063deb9a3a211610099578063f700558711610073578063f7005587146108fa578063f862b7eb1461091a578063f8b744331461093a578063fd5d2ef31461094d57600080fd5b8063deb9a3a21461088d578063e31be087146108ad578063f33fe10f146108da57600080fd5b8063b87330e9146107cd578063ba8bbbe0146107ed578063baeebe7514610803578063cf3317d314610819578063d3b89f4914610839578063d547741f1461086d57600080fd5b806391d148541161014d57806399b5bb641161012757806399b5bb6414610738578063a217fddf1461074e578063a9b1cf0b14610763578063b6d3385e1461079757600080fd5b806391d14854146106e2578063924cf6e01461070257806396cf52271461071857600080fd5b80638456cb591461064f578063853890ae1461066457806386d7679e146106845780638ac1f86f1461069a5780638e5df9c7146106af57806391c5bc0a146106cf57600080fd5b806336568abe116102535780635119b0ef1161020c5780635c975abb116101e65780635c975abb146105e0578063746b5c42146105f857806375b238fc1461060d5780637df8b8021461062f57600080fd5b80635119b0ef146105805780635249a705146105a05780635a5f55bf146105c057600080fd5b806336568abe146104bb578063390d5388146104db5780633928b296146104fb5780633f4ba83a1461051b57806342180fb8146105305780634a1856de1461055057600080fd5b8063248a9ca3116102a5578063248a9ca3146103e7578063297c2677146104175780632bbba8471461042d5780632f2ff15d14610443578063304561bb14610463578063331a891a1461049b57600080fd5b806301ffc9a7146102f8578063044218231461032d57806309fce3561461036f5780630d66808714610391578063196f0f62146103a757806321d3d536146103c757600080fd5b366102f357005b600080fd5b34801561030457600080fd5b50610318610313366004612fc1565b61096d565b60405190151581526020015b60405180910390f35b34801561033957600080fd5b506103617f077a1d526a4ce8a773632ab13b4fbbf1fcc954c3dab26cd27ea0e2a6750da5d781565b604051908152602001610324565b34801561037b57600080fd5b5061038f61038a366004612eae565b610a00565b005b34801561039d57600080fd5b5061036160d45481565b3480156103b357600080fd5b5061038f6103c2366004612f75565b610a2c565b3480156103d357600080fd5b5061038f6103e2366004612d1b565b610a7a565b3480156103f357600080fd5b50610361610402366004612f37565b60009081526065602052604090206001015490565b34801561042357600080fd5b5061036160d65481565b34801561043957600080fd5b5060ca5415610318565b34801561044f57600080fd5b5061038f61045e366004612f50565b610b17565b34801561046f57600080fd5b5060cf5461048390600160a060020a031681565b604051600160a060020a039091168152602001610324565b3480156104a757600080fd5b5061038f6104b6366004612f37565b610b42565b3480156104c757600080fd5b5061038f6104d6366004612f50565b610c59565b3480156104e757600080fd5b5060d05461048390600160a060020a031681565b34801561050757600080fd5b5061038f610516366004612d1b565b610ce4565b34801561052757600080fd5b5061038f610d20565b34801561053c57600080fd5b5061038f61054b366004612f37565b610d44565b34801561055c57600080fd5b5061036161056b366004612f37565b60cb6020526000908152604090206001015481565b34801561058c57600080fd5b5061038f61059b36600461303c565b610d81565b3480156105ac57600080fd5b5061038f6105bb366004612e6c565b610e11565b3480156105cc57600080fd5b5061038f6105db366004613000565b610e9a565b3480156105ec57600080fd5b5060975460ff16610318565b34801561060457600080fd5b5061038f610f12565b34801561061957600080fd5b5061036160008051602061356d83398151915281565b34801561063b57600080fd5b5060ce5461048390600160a060020a031681565b34801561065b57600080fd5b5061038f610fbe565b34801561067057600080fd5b5061038f61067f366004612d38565b610ff1565b34801561069057600080fd5b5061036160d75481565b3480156106a657600080fd5b5061038f611039565b3480156106bb57600080fd5b5061038f6106ca366004612d1b565b611191565b61038f6106dd366004612e05565b6111d2565b3480156106ee57600080fd5b506103186106fd366004612f50565b611502565b34801561070e57600080fd5b5061036160d25481565b34801561072457600080fd5b5061038f610733366004612f37565b61152d565b34801561074457600080fd5b5061036160d55481565b34801561075a57600080fd5b50610361600081565b34801561076f57600080fd5b506103617fb7f2fcb7a10916921b74b9baa8ea85f89b12ab12f6ededa160998f8b20e65f9581565b3480156107a357600080fd5b506104836107b2366004612d1b565b60cd60205260009081526040902054600160a060020a031681565b3480156107d957600080fd5b5061038f6107e8366004612d1b565b61154c565b3480156107f957600080fd5b5061036160cc5481565b34801561080f57600080fd5b5061036160d35481565b34801561082557600080fd5b5061038f610834366004612f37565b611588565b34801561084557600080fd5b506103617f516d5e7ed3e60a6b2804c1554cd94bc2eb576e44b192a0e069d4c527589a887e81565b34801561087957600080fd5b5061038f610888366004612f50565b6115ff565b34801561089957600080fd5b5061038f6108a8366004612f75565b611625565b3480156108b957600080fd5b506108cd6108c8366004612f37565b61164c565b6040516103249190613307565b3480156108e657600080fd5b5060d15461048390600160a060020a031681565b34801561090657600080fd5b5061038f610915366004612f37565b611708565b34801561092657600080fd5b5061038f610935366004612f37565b611727565b61038f610948366004612d71565b61195a565b34801561095957600080fd5b5061038f610968366004612f37565b611dba565b60007bffffffffffffffffffffffffffffffffffffffffffffffffffffffff1982167f7965db0b0000000000000000000000000000000000000000000000000000000014806109fa57507f01ffc9a7000000000000000000000000000000000000000000000000000000007bffffffffffffffffffffffffffffffffffffffffffffffffffffffff198316145b92915050565b60008051602061356d833981519152610a198133611dd9565b610a2585858585611e40565b5050505050565b60005b81811015610a7457610a6284848484818110610a4d57610a4d6134b8565b90506020020160208101906108889190612d1b565b80610a6c81613484565b915050610a2f565b50505050565b60008051602061356d833981519152610a938133611dd9565b60d154600160a060020a031615610af45760405160e560020a62461bcd02815260206004820152601d60248201527f736964654272696467654164647265737320616c72656164792073657400000060448201526064015b60405180910390fd5b5060d18054600160a060020a031916600160a060020a0392909216919091179055565b600082815260656020526040902060010154610b338133611dd9565b610b3d8383611f61565b505050565b60008051602061356d833981519152610b5b8133611dd9565b60975460ff16610b805760405160e560020a62461bcd028152600401610aeb906131df565b60cc54821015610ba55760405160e560020a62461bcd028152600401610aeb906132aa565b60d554821115610bfa5760405160e560020a62461bcd02815260206004820152601f60248201527f6576656e744964206d757374206265203c3d20696e7075744576656e744964006044820152606401610aeb565b610c0560018361342a565b60d5555b600082815260cb602052604090206001015415610c5557600082815260cb6020526040812090610c398282612c3b565b5060006001919091015581610c4d81613484565b925050610c09565b5050565b600160a060020a0381163314610cda5760405160e560020a62461bcd02815260206004820152602f60248201527f416363657373436f6e74726f6c3a2063616e206f6e6c792072656e6f756e636560448201527f20726f6c657320666f722073656c6600000000000000000000000000000000006064820152608401610aeb565b610c558282611fe7565b60008051602061356d833981519152610cfd8133611dd9565b5060d08054600160a060020a031916600160a060020a0392909216919091179055565b60008051602061356d833981519152610d398133611dd9565b610d4161204e565b50565b60008051602061356d833981519152610d5d8133611dd9565b8160d35460d754610d6e919061340b565b610d7891906133e6565b60d7555060d355565b7f077a1d526a4ce8a773632ab13b4fbbf1fcc954c3dab26cd27ea0e2a6750da5d7610dac8133611dd9565b60975460ff1615610dd25760405160e560020a62461bcd028152600401610aeb90613216565b610ddb846120bd565b60405184907f196c47048e38df7a4fe6e581c8f4f2e2ba67ac0dd45b90da756e97bd61d9dd3b90600090a2610a74838386612122565b60008051602061356d833981519152610e2a8133611dd9565b8160005b81811015610a255760cd6000868684818110610e4c57610e4c6134b8565b9050602002016020810190610e619190612d1b565b600160a060020a0316815260208101919091526040016000208054600160a060020a031916905580610e9281613484565b915050610e2e565b600054610100900460ff1680610eb3575060005460ff16155b610ed25760405160e560020a62461bcd028152600401610aeb9061324d565b600054610100900460ff16158015610ef4576000805461ffff19166101011790555b610efd826121b0565b8015610c55576000805461ff00191690555050565b60ca54610f645760405160e560020a62461bcd02815260206004820152600e60248201527f517565756520697320656d7074790000000000000000000000000000000000006044820152606401610aeb565b60d68054906000610f7483613484565b919050557fe15729a2f427aa4572dab35eb692c902fcbce57d41642013259c741380809ae260ca604051610fa8919061313c565b60405180910390a2610fbc60ca6000612c3b565b565b7fb7f2fcb7a10916921b74b9baa8ea85f89b12ab12f6ededa160998f8b20e65f95610fe98133611dd9565b610d41612400565b60008051602061356d83398151915261100a8133611dd9565b50600160a060020a03918216600090815260cd602052604090208054600160a060020a03191691909216179055565b60975460ff161561105f5760405160e560020a62461bcd028152600401610aeb90613216565b60cc545b600081815260cb60209081526040808320815181546060948102820185018452928101838152909391928492849190879085015b828210156110f157600084815260209081902060408051606081018252600386029092018054600160a060020a03908116845260018083015490911684860152600290910154918301919091529083529092019101611097565b505050508152602001600182015481525050905080602001516000148061111b5750428160200151115b15611126575060cc55565b80516111319061245b565b600082815260cb602052604081209061114a8282612c3b565b50600060019190910181905560405183917f78ff9b3176bb0d6421590f3816e75cb15a9ffa2b7a1a028f40a3f4e029eb39f291a2508061118981613484565b915050611063565b60008051602061356d8339815191526111aa8133611dd9565b50600160a060020a0316600090815260cd602052604090208054600160a060020a0319169055565b60ce54600160a060020a03908116600090815260cd602052604090205416806112405760405160e560020a62461bcd02815260206004820152601560248201527f556e6b6e6f776e20746f6b656e206164647265737300000000000000000000006044820152606401610aeb565b61124a82846133ce565b341161129b5760405160e560020a62461bcd02815260206004820152601160248201527f53656e742076616c7565203c3d206665650000000000000000000000000000006044820152606401610aeb565b6000826112a8853461342a565b6112b2919061342a565b60ce549091506112cf90600160a060020a031687878787866126ef565b60cf54604051600160a060020a039091169085156108fc029086906000818181858888f19350505050158015611309573d6000803e3d6000fd5b5060d054604051600160a060020a039091169084156108fc029085906000818181858888f19350505050158015611344573d6000803e3d6000fd5b5060ce60009054906101000a9004600160a060020a0316600160a060020a031663d0e30db0826040518263ffffffff1660e060020a0281526004016000604051808303818588803b15801561139857600080fd5b505af11580156113ac573d6000803e3d6000fd5b505060408051606081018252600160a060020a0380881682528c81166020830190815282840188815260ca80546001810182556000918252945160039095027f42d72674974f694b5f5159593243114d38a5c39c89d6b62fee061ff523240ee181018054968616600160a060020a031997881617905592517f42d72674974f694b5f5159593243114d38a5c39c89d6b62fee061ff523240ee2840180549190951695169490941790925590517f42d72674974f694b5f5159593243114d38a5c39c89d6b62fee061ff523240ee39091015560d65491513395507f3b823d3b837159352faddd1e0b9e9f584ca2bfe976238f6a9e6da4615cf2f44494506114e99350879087908b908b90958652600160a060020a0394851660208701529290931660408501526060840152608083019190915260a082015260c00190565b60405180910390a26114f9612895565b50505050505050565b6000918252606560209081526040808420600160a060020a0393909316845291905290205460ff1690565b60008051602061356d8339815191526115468133611dd9565b5060d455565b60008051602061356d8339815191526115658133611dd9565b5060cf8054600160a060020a031916600160a060020a0392909216919091179055565b60008051602061356d8339815191526115a18133611dd9565b60975460ff166115c65760405160e560020a62461bcd028152600401610aeb906131df565b60cc548210156115eb5760405160e560020a62461bcd028152600401610aeb906132aa565b6115f660018361342a565b60d5555060cc55565b60008281526065602052604090206001015461161b8133611dd9565b610b3d8383611fe7565b6000838152606560205260409020600101546116418133611dd9565b610a7484848461290d565b604080518082019091526060815260006020820152600082815260cb60209081526040808320815181546060948102820185018452928101838152909491938593919285929185015b828210156116ef57600084815260209081902060408051606081018252600386029092018054600160a060020a03908116845260018083015490911684860152600290910154918301919091529083529092019101611695565b5050505081526020016001820154815250509050919050565b60008051602061356d8339815191526117218133611dd9565b5060c955565b60975460ff161561174d5760405160e560020a62461bcd028152600401610aeb90613216565b60cc5481146117a15760405160e560020a62461bcd02815260206004820152601c60248201527f63616e20756e6c6f636b206f6e6c79206f6c64657374206576656e74000000006044820152606401610aeb565b600081815260cb60209081526040808320815181546060948102820185018452928101838152909391928492849190879085015b8282101561182f57600084815260209081902060408051606081018252600386029092018054600160a060020a039081168452600180830154909116848601526002909101549183019190915290835290920191016117d5565b5050505081526020016001820154815250509050600081602001511161189a5760405160e560020a62461bcd02815260206004820181905260248201527f6e6f206c6f636b6564207472616e7366657273207769746820746869732069646044820152606401610aeb565b428160200151106118f05760405160e560020a62461bcd02815260206004820152601b60248201527f6c6f636b54696d6520686173206e6f74207965742070617373656400000000006044820152606401610aeb565b80516118fb9061245b565b600082815260cb60205260408120906119148282612c3b565b50600060019190910181905560405183917f78ff9b3176bb0d6421590f3816e75cb15a9ffa2b7a1a028f40a3f4e029eb39f291a26119538260016133ce565b60cc555050565b600085156119ef576000805260cd6020527fcd565b10a72538d86f6d352f37ebc5dff31587960b12c0afe00fd03947a6932a54600160a060020a038a81169116146119ea5760405160e560020a62461bcd02815260206004820152601f60248201527f546f6b656e206e6f7420706f696e7420746f206e617469766520746f6b656e006044820152606401610aeb565b611a5b565b50600160a060020a03808916600090815260cd60205260409020541680611a5b5760405160e560020a62461bcd02815260206004820152601560248201527f556e6b6e6f776e20746f6b656e206164647265737300000000000000000000006044820152606401610aeb565b611a6582846133ce565b3414611ab65760405160e560020a62461bcd02815260206004820152601160248201527f53656e742076616c756520213d206665650000000000000000000000000000006044820152606401610aeb565b60008711611b095760405160e560020a62461bcd02815260206004820152601160248201527f43616e6e6f7420776974686472617720300000000000000000000000000000006044820152606401610aeb565b611b1789868686868c6126ef565b60cf54604051600160a060020a039091169084156108fc029085906000818181858888f19350505050158015611b51573d6000803e3d6000fd5b5060d054604051600160a060020a039091169083156108fc029084906000818181858888f19350505050158015611b8c573d6000803e3d6000fd5b506040517f23b872dd00000000000000000000000000000000000000000000000000000000815233600482015230602482015260448101889052600160a060020a038a16906323b872dd90606401602060405180830381600087803b158015611bf457600080fd5b505af1158015611c08573d6000803e3d6000fd5b505050506040513d601f19601f82011682018060405250810190611c2c9190612f1a565b611c7b5760405160e560020a62461bcd02815260206004820152601360248201527f4661696c207472616e7366657220636f696e73000000000000000000000000006044820152606401610aeb565b6040805160608082018352600160a060020a038481168084528c821660208086019182528587018e815260ca8054600181018255600091909152965160039097027f42d72674974f694b5f5159593243114d38a5c39c89d6b62fee061ff523240ee181018054988716600160a060020a0319998a1617905592517f42d72674974f694b5f5159593243114d38a5c39c89d6b62fee061ff523240ee284018054918716919098161790965594517f42d72674974f694b5f5159593243114d38a5c39c89d6b62fee061ff523240ee39091015560d6548551908152918e16938201939093529283019190915281018890526080810184905260a0810183905233907f3b823d3b837159352faddd1e0b9e9f584ca2bfe976238f6a9e6da4615cf2f4449060c00160405180910390a2611daf612895565b505050505050505050565b60008051602061356d833981519152611dd38133611dd9565b5060d255565b611de38282611502565b610c5557611dfb81600160a060020a03166014612955565b611e06836020612955565b604051602001611e179291906130bb565b60408051601f198184030181529082905260e560020a62461bcd028252610aeb916004016131ac565b828114611eb85760405160e560020a62461bcd02815260206004820152603f60248201527f73697a6573206f6620746f6b656e5468697341646472657373657320616e642060448201527f746f6b656e53696465416464726573736573206d7573742062652073616d65006064820152608401610aeb565b8260005b81811015611f5957838382818110611ed657611ed66134b8565b9050602002016020810190611eeb9190612d1b565b60cd6000888885818110611f0157611f016134b8565b9050602002016020810190611f169190612d1b565b600160a060020a03908116825260208201929092526040016000208054600160a060020a0319169290911691909117905580611f5181613484565b915050611ebc565b505050505050565b611f6b8282611502565b610c55576000828152606560209081526040808320600160a060020a03851684529091529020805460ff19166001179055611fa33390565b600160a060020a031681600160a060020a0316837f2f8788117e7eff1d82e926ec794901d17c78024a50270940304540a733656f0d60405160405180910390a45050565b611ff18282611502565b15610c55576000828152606560209081526040808320600160a060020a0385168085529252808320805460ff1916905551339285917ff6391f5c32d9c69d2a47ea670b442974b53935d1edc7fd64eb21e047a839171b9190a45050565b60975460ff166120735760405160e560020a62461bcd028152600401610aeb906131df565b6097805460ff191690557f5db9ee0a495bf2e6ff9c91a7834c1ba4fdd244a5e8aa4e537bd38aeae4b073aa335b604051600160a060020a03909116815260200160405180910390a1565b60d5600081546120cc90613484565b91829055508114610d415760405160e560020a62461bcd02815260206004820152601460248201527f4576656e744964206f7574206f66206f726465720000000000000000000000006044820152606401610aeb565b60d45461212f90426133ce565b600082815260cb60205260408120600101919091555b82811015610a7457600082815260cb6020526040902084848381811061216d5761216d6134b8565b83546001810185556000948552602090942060609091029290920192600302909101905061219b82826134ea565b505080806121a890613484565b915050612145565b600054610100900460ff16806121c9575060005460ff16155b6121e85760405160e560020a62461bcd028152600401610aeb9061324d565b600054610100900460ff1615801561220a576000805461ffff19166101011790555b612215600030612ba6565b61222d60008051602061356d83398151915233612ba6565b6122667f077a1d526a4ce8a773632ab13b4fbbf1fcc954c3dab26cd27ea0e2a6750da5d76122616040850160208601612d1b565b612ba6565b61229c7fb7f2fcb7a10916921b74b9baa8ea85f89b12ab12f6ededa160998f8b20e65f956122976040850185613385565b61290d565b6122d07f516d5e7ed3e60a6b2804c1554cd94bc2eb576e44b192a0e069d4c527589a887e6122616080850160608601612d1b565b6122f26122e060a0840184613385565b6122ed60c0860186613385565b611e40565b61230260a0830160808401612d1b565b60ce8054600160a060020a031916600160a060020a039290921691909117905561232f6020830183612d1b565b60d18054600160a060020a031916600160a060020a0392909216919091179055612360610100830160e08401612d1b565b60cf8054600160a060020a031916600160a060020a039290921691909117905561239261012083016101008401612d1b565b60d08054600160a060020a031916600160a060020a039290921691909117905561016082013560d25561012082013560d381905561014083013560d455600160cc81905560d655600360c9556123e890426133e6565b60d7558015610c55576000805461ff00191690555050565b60975460ff16156124265760405160e560020a62461bcd028152600401610aeb90613216565b6097805460ff191660011790557f62e78cea01bee320cd4e420270b5ea74000d11b0c9f74754ebdbfc544b05a2586120a03390565b60005b8151811015610c55576000600160a060020a0316828281518110612484576124846134b8565b602002602001015160000151600160a060020a031614156125a05760ce548251600160a060020a0390911690632e1a7d4d908490849081106124c8576124c86134b8565b6020026020010151604001516040518263ffffffff1660e060020a0281526004016124f591815260200190565b600060405180830381600087803b15801561250f57600080fd5b505af1158015612523573d6000803e3d6000fd5b50505050818181518110612539576125396134b8565b602002602001015160200151600160a060020a03166108fc838381518110612563576125636134b8565b6020026020010151604001519081150290604051600060405180830381858888f1935050505015801561259a573d6000803e3d6000fd5b506126dd565b8181815181106125b2576125b26134b8565b602002602001015160000151600160a060020a031663a9059cbb8383815181106125de576125de6134b8565b6020026020010151602001518484815181106125fc576125fc6134b8565b6020026020010151604001516040518363ffffffff1660e060020a02815260040161263c929190600160a060020a03929092168252602082015260400190565b602060405180830381600087803b15801561265657600080fd5b505af115801561266a573d6000803e3d6000fd5b505050506040513d601f19601f8201168201806040525081019061268e9190612f1a565b6126dd5760405160e560020a62461bcd02815260206004820152601360248201527f4661696c207472616e7366657220636f696e73000000000000000000000000006044820152606401610aeb565b806126e781613484565b91505061245e565b600080806126ff610708426133e6565b905060005b60c954811015612849576040516c01000000000000000000000000600160a060020a038c160260208201526034810183905260548101889052607481018790526094810186905260b40160408051601f198184030181529082905280516020918201207f19457468657265756d205369676e6564204d6573736167653a0a33320000000091830191909152603c820152605c016040516020818303038152906040528051906020012093506127ef848a8a8080601f016020809104026020016040519081016040528093929190818152602001838380828437600092019190915250612bb092505050565b925061281b7f516d5e7ed3e60a6b2804c1554cd94bc2eb576e44b192a0e069d4c527589a887e84611502565b156128295750505050611f59565b816128338161346d565b925050808061284190613484565b915050612704565b5060405160e560020a62461bcd02815260206004820152601660248201527f5369676e617475726520636865636b206661696c6564000000000000000000006044820152606401610aeb565b600060d354426128a591906133e6565b905060d7548114610d415760d680549060006128c083613484565b919050557fe15729a2f427aa4572dab35eb692c902fcbce57d41642013259c741380809ae260ca6040516128f4919061313c565b60405180910390a261290860ca6000612c3b565b60d755565b60005b81811015610a74576129438484848481811061292e5761292e6134b8565b90506020020160208101906122619190612d1b565b8061294d81613484565b915050612910565b6060600061296483600261340b565b61296f9060026133ce565b67ffffffffffffffff811115612987576129876134d1565b6040519080825280601f01601f1916602001820160405280156129b1576020820181803683370190505b5090507f3000000000000000000000000000000000000000000000000000000000000000816000815181106129e8576129e86134b8565b60200101907effffffffffffffffffffffffffffffffffffffffffffffffffffffffffffff1916908160001a9053507f780000000000000000000000000000000000000000000000000000000000000081600181518110612a4b57612a4b6134b8565b60200101907effffffffffffffffffffffffffffffffffffffffffffffffffffffffffffff1916908160001a9053506000612a8784600261340b565b612a929060016133ce565b90505b6001811115612b4d577f303132333435363738396162636465660000000000000000000000000000000085600f1660108110612ad357612ad36134b8565b1a7f010000000000000000000000000000000000000000000000000000000000000002828281518110612b0857612b086134b8565b60200101907effffffffffffffffffffffffffffffffffffffffffffffffffffffffffffff1916908160001a905350601090940493612b468161346d565b9050612a95565b508315612b9f5760405160e560020a62461bcd02815260206004820181905260248201527f537472696e67733a20686578206c656e67746820696e73756666696369656e746044820152606401610aeb565b9392505050565b610c558282611f61565b6020810151604082015160608301516000929190831a601b811015612bd357601b015b60408051600081526020810180835288905260ff831691810191909152606081018490526080810183905260019060a0016020604051602081039080840390855afa158015612c26573d6000803e3d6000fd5b5050604051601f190151979650505050505050565b5080546000825560030290600052602060002090810190610d4191905b80821115612c8a578054600160a060020a03199081168255600182018054909116905560006002820155600301612c58565b5090565b60008083601f840112612ca057600080fd5b50813567ffffffffffffffff811115612cb857600080fd5b6020830191508360208083028501011115612cd257600080fd5b9250929050565b60008083601f840112612ceb57600080fd5b50813567ffffffffffffffff811115612d0357600080fd5b602083019150836020828501011115612cd257600080fd5b600060208284031215612d2d57600080fd5b8135612b9f81613549565b60008060408385031215612d4b57600080fd5b8235612d5681613549565b91506020830135612d6681613549565b809150509250929050565b60008060008060008060008060e0898b031215612d8d57600080fd5b8835612d9881613549565b97506020890135612da881613549565b9650604089013595506060890135612dbf8161355e565b9450608089013567ffffffffffffffff811115612ddb57600080fd5b612de78b828c01612cd9565b999c989b5096999598969760a08701359660c0013595509350505050565b600080600080600060808688031215612e1d57600080fd5b8535612e2881613549565b9450602086013567ffffffffffffffff811115612e4457600080fd5b612e5088828901612cd9565b9699909850959660408101359660609091013595509350505050565b60008060208385031215612e7f57600080fd5b823567ffffffffffffffff811115612e9657600080fd5b612ea285828601612c8e565b90969095509350505050565b60008060008060408587031215612ec457600080fd5b843567ffffffffffffffff80821115612edc57600080fd5b612ee888838901612c8e565b90965094506020870135915080821115612f0157600080fd5b50612f0e87828801612c8e565b95989497509550505050565b600060208284031215612f2c57600080fd5b8151612b9f8161355e565b600060208284031215612f4957600080fd5b5035919050565b60008060408385031215612f6357600080fd5b823591506020830135612d6681613549565b600080600060408486031215612f8a57600080fd5b83359250602084013567ffffffffffffffff811115612fa857600080fd5b612fb486828701612c8e565b9497909650939450505050565b600060208284031215612fd357600080fd5b81357bffffffffffffffffffffffffffffffffffffffffffffffffffffffff1981168114612b9f57600080fd5b60006020828403121561301257600080fd5b813567ffffffffffffffff81111561302957600080fd5b82016101808185031215612b9f57600080fd5b60008060006040848603121561305157600080fd5b83359250602084013567ffffffffffffffff8082111561307057600080fd5b818601915086601f83011261308457600080fd5b81358181111561309357600080fd5b8760206060830285010111156130a857600080fd5b6020830194508093505050509250925092565b7f416363657373436f6e74726f6c3a206163636f756e74200000000000000000008152600083516130f3816017850160208801613441565b7f206973206d697373696e6720726f6c65200000000000000000000000000000006017918401918201528351613130816028840160208801613441565b01602801949350505050565b60006020808301818452808554808352604092508286019150866000528360002060005b8281101561319f578154600160a060020a0390811685526001808401549091168786015260028301548686015260609094019360039092019101613160565b5091979650505050505050565b60208152600082518060208401526131cb816040850160208701613441565b601f01601f19169190910160400192915050565b60208082526014908201527f5061757361626c653a206e6f7420706175736564000000000000000000000000604082015260600190565b60208082526010908201527f5061757361626c653a2070617573656400000000000000000000000000000000604082015260600190565b6020808252602e908201527f496e697469616c697a61626c653a20636f6e747261637420697320616c72656160408201527f647920696e697469616c697a6564000000000000000000000000000000000000606082015260800190565b60208082526026908201527f6576656e744964206d757374206265203e3d206f6c646573744c6f636b65644560408201527f76656e7449640000000000000000000000000000000000000000000000000000606082015260800190565b6000602080835260608084018551604080858801528282518085526080890191508684019450600093505b8084101561336f5784518051600160a060020a03908116845288820151168884015283015183830152938601936001939093019290850190613332565b5094909701519590960194909452509392505050565b6000808335601e1984360301811261339c57600080fd5b83018035915067ffffffffffffffff8211156133b757600080fd5b6020908101925081023603821315612cd257600080fd5b600082198211156133e1576133e161349f565b500190565b6000826134065760e060020a634e487b7102600052601260045260246000fd5b500490565b60008160001904831182151516156134255761342561349f565b500290565b60008282101561343c5761343c61349f565b500390565b60005b8381101561345c578181015183820152602001613444565b83811115610a745750506000910152565b60008161347c5761347c61349f565b506000190190565b60006000198214156134985761349861349f565b5060010190565b60e060020a634e487b7102600052601160045260246000fd5b60e060020a634e487b7102600052603260045260246000fd5b60e060020a634e487b7102600052604160045260246000fd5b81356134f581613549565b8154600160a060020a031916600160a060020a03821617825550602082013561351d81613549565b600182018054600160a060020a031916600160a060020a03831617905550604082013560028201555050565b600160a060020a0381168114610d4157600080fd5b8015158114610d4157600080fdfea49807205ce4d355092ef5a8a18f56e8913cf4a201fbe287825b095693c21775a2646970667358221220247a44c0d2afa6222c00e5c26925591f23011f5366c3efb7236982482ff6273864736f6c63430008060033",
  "devdoc": {
    "kind": "dev",
    "methods": {
      "getRoleAdmin(bytes32)": {
        "details": "Returns the admin role that controls `role`. See {grantRole} and {revokeRole}. To change a role's admin, use {_setRoleAdmin}."
      },
      "grantRole(bytes32,address)": {
        "details": "Grants `role` to `account`. If `account` had not been already granted `role`, emits a {RoleGranted} event. Requirements: - the caller must have ``role``'s admin role."
      },
      "hasRole(bytes32,address)": {
        "details": "Returns `true` if `account` has been granted `role`."
      },
      "paused()": {
        "details": "Returns true if the contract is paused, and false otherwise."
      },
      "renounceRole(bytes32,address)": {
        "details": "Revokes `role` from the calling account. Roles are often managed via {grantRole} and {revokeRole}: this function's purpose is to provide a mechanism for accounts to lose their privileges if they are compromised (such as when a trusted device is misplaced). If the calling account had been granted `role`, emits a {RoleRevoked} event. Requirements: - the caller must be `account`."
      },
      "revokeRole(bytes32,address)": {
        "details": "Revokes `role` from `account`. If `account` had been granted `role`, emits a {RoleRevoked} event. Requirements: - the caller must have ``role``'s admin role."
      },
      "supportsInterface(bytes4)": {
        "details": "See {IERC165-supportsInterface}."
      },
      "withdraw(address,address,uint256,bool,bytes,uint256,uint256)": {
        "params": {
          "bridgeFee": "Amount (in native coins), payed as bridge earnings",
          "feeSignature": "Signature signed by relay that confirms that the fee values are valid",
          "transferFee": "Amount (in native coins), payed to compensate gas fees in side network"
        }
      },
      "wrapWithdraw(address,bytes,uint256,uint256)": {
        "params": {
          "bridgeFee": "Amount (in native coins), payed as bridge earnings",
          "feeSignature": "Signature signed by relay that confirms that the fee values are valid",
          "toAddress": "Address in side network that will receive the tokens",
          "transferFee": "Amount (in native coins), payed to compensate gas fees in side network"
        }
      }
    },
    "version": 1
  },
  "userdoc": {
    "kind": "user",
    "methods": {},
    "version": 1
  },
  "storageLayout": {
    "storage": [
      {
        "astId": 413,
        "contract": "contracts/networks/polygon/POLYGON_AmbBridge.sol:POLYGON_AmbBridge",
        "label": "_initialized",
        "offset": 0,
        "slot": "0",
        "type": "t_bool"
      },
      {
        "astId": 416,
        "contract": "contracts/networks/polygon/POLYGON_AmbBridge.sol:POLYGON_AmbBridge",
        "label": "_initializing",
        "offset": 1,
        "slot": "0",
        "type": "t_bool"
      },
      {
        "astId": 609,
        "contract": "contracts/networks/polygon/POLYGON_AmbBridge.sol:POLYGON_AmbBridge",
        "label": "__gap",
        "offset": 0,
        "slot": "1",
        "type": "t_array(t_uint256)50_storage"
      },
      {
        "astId": 858,
        "contract": "contracts/networks/polygon/POLYGON_AmbBridge.sol:POLYGON_AmbBridge",
        "label": "__gap",
        "offset": 0,
        "slot": "51",
        "type": "t_array(t_uint256)50_storage"
      },
      {
        "astId": 48,
        "contract": "contracts/networks/polygon/POLYGON_AmbBridge.sol:POLYGON_AmbBridge",
        "label": "_roles",
        "offset": 0,
        "slot": "101",
        "type": "t_mapping(t_bytes32,t_struct(RoleData)43_storage)"
      },
      {
        "astId": 333,
        "contract": "contracts/networks/polygon/POLYGON_AmbBridge.sol:POLYGON_AmbBridge",
        "label": "__gap",
        "offset": 0,
        "slot": "102",
        "type": "t_array(t_uint256)49_storage"
      },
      {
        "astId": 474,
        "contract": "contracts/networks/polygon/POLYGON_AmbBridge.sol:POLYGON_AmbBridge",
        "label": "_paused",
        "offset": 0,
        "slot": "151",
        "type": "t_bool"
      },
      {
        "astId": 565,
        "contract": "contracts/networks/polygon/POLYGON_AmbBridge.sol:POLYGON_AmbBridge",
        "label": "__gap",
        "offset": 0,
        "slot": "152",
        "type": "t_array(t_uint256)49_storage"
      },
      {
        "astId": 6726,
        "contract": "contracts/networks/polygon/POLYGON_AmbBridge.sol:POLYGON_AmbBridge",
        "label": "signatureFeeCheckNumber",
        "offset": 0,
        "slot": "201",
        "type": "t_uint256"
      },
      {
        "astId": 6730,
        "contract": "contracts/networks/polygon/POLYGON_AmbBridge.sol:POLYGON_AmbBridge",
        "label": "queue",
        "offset": 0,
        "slot": "202",
        "type": "t_array(t_struct(Transfer)7932_storage)dyn_storage"
      },
      {
        "astId": 6735,
        "contract": "contracts/networks/polygon/POLYGON_AmbBridge.sol:POLYGON_AmbBridge",
        "label": "lockedTransfers",
        "offset": 0,
        "slot": "203",
        "type": "t_mapping(t_uint256,t_struct(LockedTransfers)7949_storage)"
      },
      {
        "astId": 6737,
        "contract": "contracts/networks/polygon/POLYGON_AmbBridge.sol:POLYGON_AmbBridge",
        "label": "oldestLockedEventId",
        "offset": 0,
        "slot": "204",
        "type": "t_uint256"
      },
      {
        "astId": 6741,
        "contract": "contracts/networks/polygon/POLYGON_AmbBridge.sol:POLYGON_AmbBridge",
        "label": "tokenAddresses",
        "offset": 0,
        "slot": "205",
        "type": "t_mapping(t_address,t_address)"
      },
      {
        "astId": 6743,
        "contract": "contracts/networks/polygon/POLYGON_AmbBridge.sol:POLYGON_AmbBridge",
        "label": "wrapperAddress",
        "offset": 0,
        "slot": "206",
        "type": "t_address"
      },
      {
        "astId": 6745,
        "contract": "contracts/networks/polygon/POLYGON_AmbBridge.sol:POLYGON_AmbBridge",
        "label": "transferFeeRecipient",
        "offset": 0,
        "slot": "207",
        "type": "t_address_payable"
      },
      {
        "astId": 6747,
        "contract": "contracts/networks/polygon/POLYGON_AmbBridge.sol:POLYGON_AmbBridge",
        "label": "bridgeFeeRecipient",
        "offset": 0,
        "slot": "208",
        "type": "t_address_payable"
      },
      {
        "astId": 6749,
        "contract": "contracts/networks/polygon/POLYGON_AmbBridge.sol:POLYGON_AmbBridge",
        "label": "sideBridgeAddress",
        "offset": 0,
        "slot": "209",
        "type": "t_address"
      },
      {
        "astId": 6751,
        "contract": "contracts/networks/polygon/POLYGON_AmbBridge.sol:POLYGON_AmbBridge",
        "label": "minSafetyBlocks",
        "offset": 0,
        "slot": "210",
        "type": "t_uint256"
      },
      {
        "astId": 6753,
        "contract": "contracts/networks/polygon/POLYGON_AmbBridge.sol:POLYGON_AmbBridge",
        "label": "timeframeSeconds",
        "offset": 0,
        "slot": "211",
        "type": "t_uint256"
      },
      {
        "astId": 6755,
        "contract": "contracts/networks/polygon/POLYGON_AmbBridge.sol:POLYGON_AmbBridge",
        "label": "lockTime",
        "offset": 0,
        "slot": "212",
        "type": "t_uint256"
      },
      {
        "astId": 6757,
        "contract": "contracts/networks/polygon/POLYGON_AmbBridge.sol:POLYGON_AmbBridge",
        "label": "inputEventId",
        "offset": 0,
        "slot": "213",
        "type": "t_uint256"
      },
      {
        "astId": 6759,
        "contract": "contracts/networks/polygon/POLYGON_AmbBridge.sol:POLYGON_AmbBridge",
        "label": "outputEventId",
        "offset": 0,
        "slot": "214",
        "type": "t_uint256"
      },
      {
        "astId": 6761,
        "contract": "contracts/networks/polygon/POLYGON_AmbBridge.sol:POLYGON_AmbBridge",
        "label": "lastTimeframe",
        "offset": 0,
        "slot": "215",
        "type": "t_uint256"
      },
      {
        "astId": 7922,
        "contract": "contracts/networks/polygon/POLYGON_AmbBridge.sol:POLYGON_AmbBridge",
        "label": "__gap",
        "offset": 0,
        "slot": "216",
        "type": "t_array(t_uint256)15_storage"
      },
      {
        "astId": 6656,
        "contract": "contracts/networks/polygon/POLYGON_AmbBridge.sol:POLYGON_AmbBridge",
        "label": "___gap",
        "offset": 0,
        "slot": "231",
        "type": "t_array(t_uint256)15_storage"
      }
    ],
    "types": {
      "t_address": {
        "encoding": "inplace",
        "label": "address",
        "numberOfBytes": "20"
      },
      "t_address_payable": {
        "encoding": "inplace",
        "label": "address payable",
        "numberOfBytes": "20"
      },
      "t_array(t_struct(Transfer)7932_storage)dyn_storage": {
        "base": "t_struct(Transfer)7932_storage",
        "encoding": "dynamic_array",
        "label": "struct CommonStructs.Transfer[]",
        "numberOfBytes": "32"
      },
      "t_array(t_uint256)15_storage": {
        "base": "t_uint256",
        "encoding": "inplace",
        "label": "uint256[15]",
        "numberOfBytes": "480"
      },
      "t_array(t_uint256)49_storage": {
        "base": "t_uint256",
        "encoding": "inplace",
        "label": "uint256[49]",
        "numberOfBytes": "1568"
      },
      "t_array(t_uint256)50_storage": {
        "base": "t_uint256",
        "encoding": "inplace",
        "label": "uint256[50]",
        "numberOfBytes": "1600"
      },
      "t_bool": {
        "encoding": "inplace",
        "label": "bool",
        "numberOfBytes": "1"
      },
      "t_bytes32": {
        "encoding": "inplace",
        "label": "bytes32",
        "numberOfBytes": "32"
      },
      "t_mapping(t_address,t_address)": {
        "encoding": "mapping",
        "key": "t_address",
        "label": "mapping(address => address)",
        "numberOfBytes": "32",
        "value": "t_address"
      },
      "t_mapping(t_address,t_bool)": {
        "encoding": "mapping",
        "key": "t_address",
        "label": "mapping(address => bool)",
        "numberOfBytes": "32",
        "value": "t_bool"
      },
      "t_mapping(t_bytes32,t_struct(RoleData)43_storage)": {
        "encoding": "mapping",
        "key": "t_bytes32",
        "label": "mapping(bytes32 => struct AccessControlUpgradeable.RoleData)",
        "numberOfBytes": "32",
        "value": "t_struct(RoleData)43_storage"
      },
      "t_mapping(t_uint256,t_struct(LockedTransfers)7949_storage)": {
        "encoding": "mapping",
        "key": "t_uint256",
        "label": "mapping(uint256 => struct CommonStructs.LockedTransfers)",
        "numberOfBytes": "32",
        "value": "t_struct(LockedTransfers)7949_storage"
      },
      "t_struct(LockedTransfers)7949_storage": {
        "encoding": "inplace",
        "label": "struct CommonStructs.LockedTransfers",
        "members": [
          {
            "astId": 7946,
            "contract": "contracts/networks/polygon/POLYGON_AmbBridge.sol:POLYGON_AmbBridge",
            "label": "transfers",
            "offset": 0,
            "slot": "0",
            "type": "t_array(t_struct(Transfer)7932_storage)dyn_storage"
          },
          {
            "astId": 7948,
            "contract": "contracts/networks/polygon/POLYGON_AmbBridge.sol:POLYGON_AmbBridge",
            "label": "endTimestamp",
            "offset": 0,
            "slot": "1",
            "type": "t_uint256"
          }
        ],
        "numberOfBytes": "64"
      },
      "t_struct(RoleData)43_storage": {
        "encoding": "inplace",
        "label": "struct AccessControlUpgradeable.RoleData",
        "members": [
          {
            "astId": 40,
            "contract": "contracts/networks/polygon/POLYGON_AmbBridge.sol:POLYGON_AmbBridge",
            "label": "members",
            "offset": 0,
            "slot": "0",
            "type": "t_mapping(t_address,t_bool)"
          },
          {
            "astId": 42,
            "contract": "contracts/networks/polygon/POLYGON_AmbBridge.sol:POLYGON_AmbBridge",
            "label": "adminRole",
            "offset": 0,
            "slot": "1",
            "type": "t_bytes32"
          }
        ],
        "numberOfBytes": "64"
      },
      "t_struct(Transfer)7932_storage": {
        "encoding": "inplace",
        "label": "struct CommonStructs.Transfer",
        "members": [
          {
            "astId": 7927,
            "contract": "contracts/networks/polygon/POLYGON_AmbBridge.sol:POLYGON_AmbBridge",
            "label": "tokenAddress",
            "offset": 0,
            "slot": "0",
            "type": "t_address"
          },
          {
            "astId": 7929,
            "contract": "contracts/networks/polygon/POLYGON_AmbBridge.sol:POLYGON_AmbBridge",
            "label": "toAddress",
            "offset": 0,
            "slot": "1",
            "type": "t_address"
          },
          {
            "astId": 7931,
            "contract": "contracts/networks/polygon/POLYGON_AmbBridge.sol:POLYGON_AmbBridge",
            "label": "amount",
            "offset": 0,
            "slot": "2",
            "type": "t_uint256"
          }
        ],
        "numberOfBytes": "96"
      },
      "t_uint256": {
        "encoding": "inplace",
        "label": "uint256",
        "numberOfBytes": "32"
      }
    }
  }
}