{
  "address": "0x952b98DBDa3319BF0e339cC9CC574fF768F80f3c",
  "abi": [
    {
      "inputs": [
        {
          "internalType": "string",
          "name": "name_",
          "type": "string"
        },
        {
          "internalType": "string",
          "name": "symbol_",
          "type": "string"
        },
        {
          "internalType": "uint8",
          "name": "decimals_",
          "type": "uint8"
        },
        {
          "internalType": "address[]",
          "name": "bridgeAddresses_",
          "type": "address[]"
        },
        {
          "internalType": "uint8[]",
          "name": "sideTokenDecimals_",
          "type": "uint8[]"
        }
      ],
      "stateMutability": "nonpayable",
      "type": "constructor"
    },
    {
      "anonymous": false,
      "inputs": [
        {
          "indexed": true,
          "internalType": "address",
          "name": "owner",
          "type": "address"
        },
        {
          "indexed": true,
          "internalType": "address",
          "name": "spender",
          "type": "address"
        },
        {
          "indexed": false,
          "internalType": "uint256",
          "name": "value",
          "type": "uint256"
        }
      ],
      "name": "Approval",
      "type": "event"
    },
    {
      "anonymous": false,
      "inputs": [
        {
          "indexed": true,
          "internalType": "address",
          "name": "previousOwner",
          "type": "address"
        },
        {
          "indexed": true,
          "internalType": "address",
          "name": "newOwner",
          "type": "address"
        }
      ],
      "name": "OwnershipTransferred",
      "type": "event"
    },
    {
      "anonymous": false,
      "inputs": [
        {
          "indexed": true,
          "internalType": "address",
          "name": "from",
          "type": "address"
        },
        {
          "indexed": true,
          "internalType": "address",
          "name": "to",
          "type": "address"
        },
        {
          "indexed": false,
          "internalType": "uint256",
          "name": "value",
          "type": "uint256"
        }
      ],
      "name": "Transfer",
      "type": "event"
    },
    {
      "inputs": [
        {
          "internalType": "address",
          "name": "owner",
          "type": "address"
        },
        {
          "internalType": "address",
          "name": "spender",
          "type": "address"
        }
      ],
      "name": "allowance",
      "outputs": [
        {
          "internalType": "uint256",
          "name": "",
          "type": "uint256"
        }
      ],
      "stateMutability": "view",
      "type": "function"
    },
    {
      "inputs": [
        {
          "internalType": "address",
          "name": "spender",
          "type": "address"
        },
        {
          "internalType": "uint256",
          "name": "amount",
          "type": "uint256"
        }
      ],
      "name": "approve",
      "outputs": [
        {
          "internalType": "bool",
          "name": "",
          "type": "bool"
        }
      ],
      "stateMutability": "nonpayable",
      "type": "function"
    },
    {
      "inputs": [
        {
          "internalType": "address",
          "name": "account",
          "type": "address"
        }
      ],
      "name": "balanceOf",
      "outputs": [
        {
          "internalType": "uint256",
          "name": "",
          "type": "uint256"
        }
      ],
      "stateMutability": "view",
      "type": "function"
    },
    {
      "inputs": [
        {
          "internalType": "address",
          "name": "",
          "type": "address"
        }
      ],
      "name": "bridgeBalances",
      "outputs": [
        {
          "internalType": "uint256",
          "name": "",
          "type": "uint256"
        }
      ],
      "stateMutability": "view",
      "type": "function"
    },
    {
      "inputs": [],
      "name": "decimals",
      "outputs": [
        {
          "internalType": "uint8",
          "name": "",
          "type": "uint8"
        }
      ],
      "stateMutability": "view",
      "type": "function"
    },
    {
      "inputs": [
        {
          "internalType": "address",
          "name": "spender",
          "type": "address"
        },
        {
          "internalType": "uint256",
          "name": "subtractedValue",
          "type": "uint256"
        }
      ],
      "name": "decreaseAllowance",
      "outputs": [
        {
          "internalType": "bool",
          "name": "",
          "type": "bool"
        }
      ],
      "stateMutability": "nonpayable",
      "type": "function"
    },
    {
      "inputs": [
        {
          "internalType": "address",
          "name": "spender",
          "type": "address"
        },
        {
          "internalType": "uint256",
          "name": "addedValue",
          "type": "uint256"
        }
      ],
      "name": "increaseAllowance",
      "outputs": [
        {
          "internalType": "bool",
          "name": "",
          "type": "bool"
        }
      ],
      "stateMutability": "nonpayable",
      "type": "function"
    },
    {
      "inputs": [],
      "name": "name",
      "outputs": [
        {
          "internalType": "string",
          "name": "",
          "type": "string"
        }
      ],
      "stateMutability": "view",
      "type": "function"
    },
    {
      "inputs": [],
      "name": "owner",
      "outputs": [
        {
          "internalType": "address",
          "name": "",
          "type": "address"
        }
      ],
      "stateMutability": "view",
      "type": "function"
    },
    {
      "inputs": [],
      "name": "renounceOwnership",
      "outputs": [],
      "stateMutability": "nonpayable",
      "type": "function"
    },
    {
      "inputs": [
        {
          "internalType": "address[]",
          "name": "bridgeAddresses_",
          "type": "address[]"
        },
        {
          "internalType": "uint8[]",
          "name": "sideTokenDecimals_",
          "type": "uint8[]"
        }
      ],
      "name": "setSideTokenDecimals",
      "outputs": [],
      "stateMutability": "nonpayable",
      "type": "function"
    },
    {
      "inputs": [
        {
          "internalType": "address",
          "name": "",
          "type": "address"
        }
      ],
      "name": "sideTokenDecimals",
      "outputs": [
        {
          "internalType": "uint8",
          "name": "",
          "type": "uint8"
        }
      ],
      "stateMutability": "view",
      "type": "function"
    },
    {
      "inputs": [],
      "name": "symbol",
      "outputs": [
        {
          "internalType": "string",
          "name": "",
          "type": "string"
        }
      ],
      "stateMutability": "view",
      "type": "function"
    },
    {
      "inputs": [],
      "name": "totalSupply",
      "outputs": [
        {
          "internalType": "uint256",
          "name": "",
          "type": "uint256"
        }
      ],
      "stateMutability": "view",
      "type": "function"
    },
    {
      "inputs": [
        {
          "internalType": "address",
          "name": "recipient",
          "type": "address"
        },
        {
          "internalType": "uint256",
          "name": "amount",
          "type": "uint256"
        }
      ],
      "name": "transfer",
      "outputs": [
        {
          "internalType": "bool",
          "name": "",
          "type": "bool"
        }
      ],
      "stateMutability": "nonpayable",
      "type": "function"
    },
    {
      "inputs": [
        {
          "internalType": "address",
          "name": "sender",
          "type": "address"
        },
        {
          "internalType": "address",
          "name": "recipient",
          "type": "address"
        },
        {
          "internalType": "uint256",
          "name": "amount",
          "type": "uint256"
        }
      ],
      "name": "transferFrom",
      "outputs": [
        {
          "internalType": "bool",
          "name": "",
          "type": "bool"
        }
      ],
      "stateMutability": "nonpayable",
      "type": "function"
    },
    {
      "inputs": [
        {
          "internalType": "address",
          "name": "newOwner",
          "type": "address"
        }
      ],
      "name": "transferOwnership",
      "outputs": [],
      "stateMutability": "nonpayable",
      "type": "function"
    }
  ],
  "transactionHash": "0x9a0f182257777aa5a9b868cd8684bf356e30e6373a554198d9a98507de98e4be",
  "args": [
    "USD Coin",
    "USDC",
    18,
    [],
    []
  ],
  "numDeployments": 1,
  "solcInputHash": "af3862e0ddcca2861ee723b668139921",
  "bytecode": "0x60806040523480156200001157600080fd5b5060405162001c6038038062001c608339810160408190526200003491620003fc565b8451859085906200004d9060039060208501906200022a565b508051620000639060049060208401906200022a565b5050506200009262000083620000c6640100000000026401000000009004565b640100000000620000ca810204565b620000a782826401000000006200011c810204565b50506008805460ff191660ff92909216919091179055506200068b9050565b3390565b60058054600160a060020a03838116600160a060020a0319831681179093556040519116919082907f8be0079c531659141344cd1fd0a4f28419497f9722a3daafe3b4186f6b6457e090600090a35050565b80518251146200018c576040517f08c379a000000000000000000000000000000000000000000000000000000000815260206004820152601360248201527f77726f6e67206172726179206c656e6774687300000000000000000000000000604482015260640160405180910390fd5b60005b82518110156200022557818181518110620001ae57620001ae6200062d565b602002602001015160066000858481518110620001cf57620001cf6200062d565b6020026020010151600160a060020a0316600160a060020a0316815260200190815260200160002060006101000a81548160ff021916908360ff16021790555080806200021c90620005ea565b9150506200018f565b505050565b828054620002389062000594565b90600052602060002090601f0160209004810192826200025c5760008555620002a7565b82601f106200027757805160ff1916838001178555620002a7565b82800160010185558215620002a7579182015b82811115620002a75782518255916020019190600101906200028a565b50620002b5929150620002b9565b5090565b5b80821115620002b55760008155600101620002ba565b600082601f830112620002e257600080fd5b81516020620002fb620002f5836200056e565b6200053b565b82815281810190858301838502870184018810156200031957600080fd5b60005b8581101562000343576200033082620003e5565b845292840192908401906001016200031c565b5090979650505050505050565b600082601f8301126200036257600080fd5b81516001604060020a038111156200037e576200037e6200065c565b602062000394601f8301601f191682016200053b565b8281528582848701011115620003a957600080fd5b60005b83811015620003c9578581018301518282018401528201620003ac565b83811115620003db5760008385840101525b5095945050505050565b805160ff81168114620003f757600080fd5b919050565b600080600080600060a086880312156200041557600080fd5b85516001604060020a03808211156200042d57600080fd5b6200043b89838a0162000350565b96506020915081880151818111156200045357600080fd5b620004618a828b0162000350565b9650506200047260408901620003e5565b94506060880151818111156200048757600080fd5b8801601f81018a136200049957600080fd5b8051620004aa620002f5826200056e565b81815284810190838601868402850187018e1015620004c857600080fd5b600094505b8385101562000503578051600160a060020a0381168114620004ee57600080fd5b835260019490940193918601918601620004cd565b5060808c01519097509450505050808211156200051f57600080fd5b506200052e88828901620002d0565b9150509295509295909350565b604051601f8201601f191681016001604060020a03811182821017156200056657620005666200065c565b604052919050565b60006001604060020a038211156200058a576200058a6200065c565b5060209081020190565b600281046001821680620005a957607f821691505b60208210811415620005e4577f4e487b7100000000000000000000000000000000000000000000000000000000600052602260045260246000fd5b50919050565b600060001982141562000626577f4e487b7100000000000000000000000000000000000000000000000000000000600052601160045260246000fd5b5060010190565b7f4e487b7100000000000000000000000000000000000000000000000000000000600052603260045260246000fd5b7f4e487b7100000000000000000000000000000000000000000000000000000000600052604160045260246000fd5b6115c5806200069b6000396000f3fe608060405234801561001057600080fd5b5060043610610128576000357c010000000000000000000000000000000000000000000000000000000090048063715018a6116100bf578063a9059cbb1161008e578063a9059cbb1461024f578063dc1ab98a14610262578063dd62ed3e14610282578063f2fde38b146102bb578063f590e1e6146102ce57600080fd5b8063715018a61461020f5780638da5cb5b1461021957806395d89b4114610234578063a457c2d71461023c57600080fd5b806323b872dd116100fb57806323b872dd146101b5578063313ce567146101c857806339509351146101d357806370a08231146101e657600080fd5b806306fdde031461012d578063095ea7b31461014b57806318160ddd1461016e5780631d836adf14610180575b600080fd5b6101356102e1565b6040516101429190611285565b60405180910390f35b61015e610159366004611197565b610373565b6040519015158152602001610142565b6002545b604051908152602001610142565b6101a361018e36600461110d565b60066020526000908152604090205460ff1681565b60405160ff9091168152602001610142565b61015e6101c336600461115b565b61038a565b60085460ff166101a3565b61015e6101e1366004611197565b6104e5565b6101726101f436600461110d565b600160a060020a031660009081526020819052604090205490565b610217610521565b005b600554604051600160a060020a039091168152602001610142565b61013561055a565b61015e61024a366004611197565b610569565b61015e61025d366004611197565b61061d565b61017261027036600461110d565b60076020526000908152604090205481565b610172610290366004611128565b600160a060020a03918216600090815260016020908152604080832093909416825291909152205490565b6102176102c936600461110d565b61062a565b6102176102dc3660046111c1565b6106e2565b6060600380546102f0906114eb565b80601f016020809104026020016040519081016040528092919081815260200182805461031c906114eb565b80156103695780601f1061033e57610100808354040283529160200191610369565b820191906000526020600020905b81548152906001019060200180831161034c57829003601f168201915b5050505050905090565b600061038033848461071d565b5060015b92915050565b600061039784848461087b565b600160a060020a03841660009081526006602052604090205460ff16156103ed57600160a060020a0384166000908152600660205260409020546008546103e691849160ff9182169116610a38565b915061043f565b600160a060020a03831660009081526006602052604090205460ff161561043f57600160a060020a03831660009081526006602052604090205460085461043c91849160ff9182169116610a38565b91505b600061044b8533610290565b9050828110156104cb5760405160e560020a62461bcd02815260206004820152602860248201527f45524332303a207472616e7366657220616d6f756e742065786365656473206160448201527f6c6c6f77616e636500000000000000000000000000000000000000000000000060648201526084015b60405180910390fd5b6104d8853385840361071d565b60019150505b9392505050565b336000818152600160209081526040808320600160a060020a0387168452909152812054909161038091859061051c908690611364565b61071d565b600554600160a060020a0316331461054e5760405160e560020a62461bcd0281526004016104c2906112da565b6105586000610aa2565b565b6060600480546102f0906114eb565b336000908152600160209081526040808320600160a060020a0386168452909152812054828110156106065760405160e560020a62461bcd02815260206004820152602560248201527f45524332303a2064656372656173656420616c6c6f77616e63652062656c6f7760448201527f207a65726f00000000000000000000000000000000000000000000000000000060648201526084016104c2565b610613338585840361071d565b5060019392505050565b600061038033848461087b565b600554600160a060020a031633146106575760405160e560020a62461bcd0281526004016104c2906112da565b600160a060020a0381166106d65760405160e560020a62461bcd02815260206004820152602660248201527f4f776e61626c653a206e6577206f776e657220697320746865207a65726f206160448201527f646472657373000000000000000000000000000000000000000000000000000060648201526084016104c2565b6106df81610aa2565b50565b600554600160a060020a0316331461070f5760405160e560020a62461bcd0281526004016104c2906112da565b6107198282610b01565b5050565b600160a060020a03831661079b5760405160e560020a62461bcd028152602060048201526024808201527f45524332303a20617070726f76652066726f6d20746865207a65726f2061646460448201527f726573730000000000000000000000000000000000000000000000000000000060648201526084016104c2565b600160a060020a03821661081a5760405160e560020a62461bcd02815260206004820152602260248201527f45524332303a20617070726f766520746f20746865207a65726f20616464726560448201527f737300000000000000000000000000000000000000000000000000000000000060648201526084016104c2565b600160a060020a0383811660008181526001602090815260408083209487168084529482529182902085905590518481527f8c5be1e5ebec7d5bd14f71427d1e84f3dd0314c0f7b2291e5b200ac8c7c3b925910160405180910390a3505050565b600160a060020a03831660009081526006602052604090205460ff161561090d57600160a060020a0383166000908152600660205260408120546008546108ca91849160ff9182169116610a38565b600160a060020a0385166000908152600760205260408120805492935083929091906108f7908490611364565b9091555061090790508382610be4565b50505050565b600160a060020a03821660009081526006602052604090205460ff1615610a2857600160a060020a03821660009081526006602052604081205460085461095c91849160ff9182169116610a38565b600160a060020a0384166000908152600760205260409020549091508111156109f05760405160e560020a62461bcd02815260206004820152602260248201527f6e6f7420656e6f756768206c6f636b656420746f6b656e73206f6e206272696460448201527f676500000000000000000000000000000000000000000000000000000000000060648201526084016104c2565b600160a060020a03831660009081526007602052604081208054839290610a189084906114b1565b9091555061090790508482610cc6565b610a33838383610e51565b505050565b60008260ff168260ff161415610a4f5750826104de565b8260ff168260ff161115610a8357610a6783836114c8565b610a7290600a6113e6565b610a7c9085611492565b90506104de565b610a8d82846114c8565b610a9890600a6113e6565b610a7c908561137c565b60058054600160a060020a0383811673ffffffffffffffffffffffffffffffffffffffff19831681179093556040519116919082907f8be0079c531659141344cd1fd0a4f28419497f9722a3daafe3b4186f6b6457e090600090a35050565b8051825114610b555760405160e560020a62461bcd02815260206004820152601360248201527f77726f6e67206172726179206c656e677468730000000000000000000000000060448201526064016104c2565b60005b8251811015610a3357818181518110610b7357610b7361155d565b602002602001015160066000858481518110610b9157610b9161155d565b6020026020010151600160a060020a0316600160a060020a0316815260200190815260200160002060006101000a81548160ff021916908360ff1602179055508080610bdc90611529565b915050610b58565b600160a060020a038216610c3d5760405160e560020a62461bcd02815260206004820152601f60248201527f45524332303a206d696e7420746f20746865207a65726f20616464726573730060448201526064016104c2565b8060026000828254610c4f9190611364565b9091555050600160a060020a03821660009081526020819052604081208054839290610c7c908490611364565b9091555050604051818152600160a060020a038316906000907fddf252ad1be2c89b69c2b068fc378daa952ba7f163c4a11628f55a4df523b3ef9060200160405180910390a35050565b600160a060020a038216610d455760405160e560020a62461bcd02815260206004820152602160248201527f45524332303a206275726e2066726f6d20746865207a65726f2061646472657360448201527f730000000000000000000000000000000000000000000000000000000000000060648201526084016104c2565b600160a060020a03821660009081526020819052604090205481811015610dd75760405160e560020a62461bcd02815260206004820152602260248201527f45524332303a206275726e20616d6f756e7420657863656564732062616c616e60448201527f636500000000000000000000000000000000000000000000000000000000000060648201526084016104c2565b600160a060020a0383166000908152602081905260408120838303905560028054849290610e069084906114b1565b9091555050604051828152600090600160a060020a038516907fddf252ad1be2c89b69c2b068fc378daa952ba7f163c4a11628f55a4df523b3ef9060200160405180910390a3505050565b600160a060020a038316610ed05760405160e560020a62461bcd02815260206004820152602560248201527f45524332303a207472616e736665722066726f6d20746865207a65726f20616460448201527f647265737300000000000000000000000000000000000000000000000000000060648201526084016104c2565b600160a060020a038216610f4f5760405160e560020a62461bcd02815260206004820152602360248201527f45524332303a207472616e7366657220746f20746865207a65726f206164647260448201527f657373000000000000000000000000000000000000000000000000000000000060648201526084016104c2565b600160a060020a03831660009081526020819052604090205481811015610fe15760405160e560020a62461bcd02815260206004820152602660248201527f45524332303a207472616e7366657220616d6f756e742065786365656473206260448201527f616c616e6365000000000000000000000000000000000000000000000000000060648201526084016104c2565b600160a060020a03808516600090815260208190526040808220858503905591851681529081208054849290611018908490611364565b9250508190555082600160a060020a031684600160a060020a03167fddf252ad1be2c89b69c2b068fc378daa952ba7f163c4a11628f55a4df523b3ef8460405161106491815260200190565b60405180910390a350505050565b8035600160a060020a038116811461108957600080fd5b919050565b600082601f83011261109f57600080fd5b813560206110b46110af83611340565b61130f565b82815281810190858301838502870184018810156110d157600080fd5b6000805b868110156110ff57823560ff811681146110ed578283fd5b855293850193918501916001016110d5565b509198975050505050505050565b60006020828403121561111f57600080fd5b6104de82611072565b6000806040838503121561113b57600080fd5b61114483611072565b915061115260208401611072565b90509250929050565b60008060006060848603121561117057600080fd5b61117984611072565b925061118760208501611072565b9150604084013590509250925092565b600080604083850312156111aa57600080fd5b6111b383611072565b946020939093013593505050565b600080604083850312156111d457600080fd5b823567ffffffffffffffff808211156111ec57600080fd5b818501915085601f83011261120057600080fd5b813560206112106110af83611340565b82815281810190858301838502870184018b101561122d57600080fd5b600096505b848710156112575761124381611072565b835260019690960195918301918301611232565b509650508601359250508082111561126e57600080fd5b5061127b8582860161108e565b9150509250929050565b600060208083528351808285015260005b818110156112b257858101830151858201604001528201611296565b818111156112c4576000604083870101525b50601f01601f1916929092016040019392505050565b6020808252818101527f4f776e61626c653a2063616c6c6572206973206e6f7420746865206f776e6572604082015260600190565b604051601f8201601f1916810167ffffffffffffffff8111828210171561133857611338611576565b604052919050565b600067ffffffffffffffff82111561135a5761135a611576565b5060209081020190565b6000821982111561137757611377611544565b500190565b60008261139c5760e060020a634e487b7102600052601260045260246000fd5b500490565b600181815b808511156113de5781600019048211156113c2576113c2611544565b808516156113cf57918102915b600290940493908002906113a6565b509250929050565b60006104de60ff8416836000826113ff57506001610384565b8161140c57506000610384565b8160018114611422576002811461142c57611449565b6001915050610384565b60ff84111561143d5761143d611544565b8360020a915050610384565b5060208310610133831016604e8410600b841016171561146c575081810a610384565b61147683836113a1565b806000190482111561148a5761148a611544565b029392505050565b60008160001904831182151516156114ac576114ac611544565b500290565b6000828210156114c3576114c3611544565b500390565b600060ff821660ff8416808210156114e2576114e2611544565b90039392505050565b6002810460018216806114ff57607f821691505b602082108114156115235760e060020a634e487b7102600052602260045260246000fd5b50919050565b600060001982141561153d5761153d611544565b5060010190565b60e060020a634e487b7102600052601160045260246000fd5b60e060020a634e487b7102600052603260045260246000fd5b60e060020a634e487b7102600052604160045260246000fdfea26469706673582212208c84ff84563dca0a3e128ed404345f130db0415ba23e7368c16a212b29455baf64736f6c63430008060033",
  "devdoc": {
    "kind": "dev",
    "methods": {
      "allowance(address,address)": {
        "details": "See {IERC20-allowance}."
      },
      "approve(address,uint256)": {
        "details": "See {IERC20-approve}. Requirements: - `spender` cannot be the zero address."
      },
      "balanceOf(address)": {
        "details": "See {IERC20-balanceOf}."
      },
      "decimals()": {
        "details": "Returns the number of decimals used to get its user representation. For example, if `decimals` equals `2`, a balance of `505` tokens should be displayed to a user as `5.05` (`505 / 10 ** 2`). Tokens usually opt for a value of 18, imitating the relationship between Ether and Wei. This is the value {ERC20} uses, unless this function is overridden; NOTE: This information is only used for _display_ purposes: it in no way affects any of the arithmetic of the contract, including {IERC20-balanceOf} and {IERC20-transfer}."
      },
      "decreaseAllowance(address,uint256)": {
        "details": "Atomically decreases the allowance granted to `spender` by the caller. This is an alternative to {approve} that can be used as a mitigation for problems described in {IERC20-approve}. Emits an {Approval} event indicating the updated allowance. Requirements: - `spender` cannot be the zero address. - `spender` must have allowance for the caller of at least `subtractedValue`."
      },
      "increaseAllowance(address,uint256)": {
        "details": "Atomically increases the allowance granted to `spender` by the caller. This is an alternative to {approve} that can be used as a mitigation for problems described in {IERC20-approve}. Emits an {Approval} event indicating the updated allowance. Requirements: - `spender` cannot be the zero address."
      },
      "name()": {
        "details": "Returns the name of the token."
      },
      "owner()": {
        "details": "Returns the address of the current owner."
      },
      "renounceOwnership()": {
        "details": "Leaves the contract without owner. It will not be possible to call `onlyOwner` functions anymore. Can only be called by the current owner. NOTE: Renouncing ownership will leave the contract without an owner, thereby removing any functionality that is only available to the owner."
      },
      "symbol()": {
        "details": "Returns the symbol of the token, usually a shorter version of the name."
      },
      "totalSupply()": {
        "details": "See {IERC20-totalSupply}."
      },
      "transfer(address,uint256)": {
        "details": "See {IERC20-transfer}. Requirements: - `recipient` cannot be the zero address. - the caller must have a balance of at least `amount`."
      },
      "transferFrom(address,address,uint256)": {
        "details": "See {IERC20-transferFrom}. Emits an {Approval} event indicating the updated allowance. This is not required by the EIP. See the note at the beginning of {ERC20}. Requirements: - `sender` and `recipient` cannot be the zero address. - `sender` must have a balance of at least `amount`. - the caller must have allowance for ``sender``'s tokens of at least `amount`."
      },
      "transferOwnership(address)": {
        "details": "Transfers ownership of the contract to a new account (`newOwner`). Can only be called by the current owner."
      }
    },
    "version": 1
  },
  "userdoc": {
    "kind": "user",
    "methods": {},
    "version": 1
  },
  "storageLayout": {
    "storage": [
      {
        "astId": 1371,
        "contract": "contracts/tokens/BridgeERC20_Amb.sol:BridgeERC20_Amb",
        "label": "_balances",
        "offset": 0,
        "slot": "0",
        "type": "t_mapping(t_address,t_uint256)"
      },
      {
        "astId": 1377,
        "contract": "contracts/tokens/BridgeERC20_Amb.sol:BridgeERC20_Amb",
        "label": "_allowances",
        "offset": 0,
        "slot": "1",
        "type": "t_mapping(t_address,t_mapping(t_address,t_uint256))"
      },
      {
        "astId": 1379,
        "contract": "contracts/tokens/BridgeERC20_Amb.sol:BridgeERC20_Amb",
        "label": "_totalSupply",
        "offset": 0,
        "slot": "2",
        "type": "t_uint256"
      },
      {
        "astId": 1381,
        "contract": "contracts/tokens/BridgeERC20_Amb.sol:BridgeERC20_Amb",
        "label": "_name",
        "offset": 0,
        "slot": "3",
        "type": "t_string_storage"
      },
      {
        "astId": 1383,
        "contract": "contracts/tokens/BridgeERC20_Amb.sol:BridgeERC20_Amb",
        "label": "_symbol",
        "offset": 0,
        "slot": "4",
        "type": "t_string_storage"
      },
      {
        "astId": 1259,
        "contract": "contracts/tokens/BridgeERC20_Amb.sol:BridgeERC20_Amb",
        "label": "_owner",
        "offset": 0,
        "slot": "5",
        "type": "t_address"
      },
      {
        "astId": 4869,
        "contract": "contracts/tokens/BridgeERC20_Amb.sol:BridgeERC20_Amb",
        "label": "sideTokenDecimals",
        "offset": 0,
        "slot": "6",
        "type": "t_mapping(t_address,t_uint8)"
      },
      {
        "astId": 4873,
        "contract": "contracts/tokens/BridgeERC20_Amb.sol:BridgeERC20_Amb",
        "label": "bridgeBalances",
        "offset": 0,
        "slot": "7",
        "type": "t_mapping(t_address,t_uint256)"
      },
      {
        "astId": 4875,
        "contract": "contracts/tokens/BridgeERC20_Amb.sol:BridgeERC20_Amb",
        "label": "_decimals",
        "offset": 0,
        "slot": "8",
        "type": "t_uint8"
      }
    ],
    "types": {
      "t_address": {
        "encoding": "inplace",
        "label": "address",
        "numberOfBytes": "20"
      },
      "t_mapping(t_address,t_mapping(t_address,t_uint256))": {
        "encoding": "mapping",
        "key": "t_address",
        "label": "mapping(address => mapping(address => uint256))",
        "numberOfBytes": "32",
        "value": "t_mapping(t_address,t_uint256)"
      },
      "t_mapping(t_address,t_uint256)": {
        "encoding": "mapping",
        "key": "t_address",
        "label": "mapping(address => uint256)",
        "numberOfBytes": "32",
        "value": "t_uint256"
      },
      "t_mapping(t_address,t_uint8)": {
        "encoding": "mapping",
        "key": "t_address",
        "label": "mapping(address => uint8)",
        "numberOfBytes": "32",
        "value": "t_uint8"
      },
      "t_string_storage": {
        "encoding": "bytes",
        "label": "string",
        "numberOfBytes": "32"
      },
      "t_uint256": {
        "encoding": "inplace",
        "label": "uint256",
        "numberOfBytes": "32"
      },
      "t_uint8": {
        "encoding": "inplace",
        "label": "uint8",
        "numberOfBytes": "1"
      }
    }
  }
}