{
  "address": "0x325eF0e7Ac756a23d5D990d9BFbF68AAeb88f66e",
  "abi": [
    {
      "anonymous": false,
      "inputs": [
        {
          "indexed": false,
          "internalType": "address",
          "name": "account",
          "type": "address"
        }
      ],
      "name": "Paused",
      "type": "event"
    },
    {
      "anonymous": false,
      "inputs": [
        {
          "indexed": true,
          "internalType": "address",
          "name": "relay",
          "type": "address"
        }
      ],
      "name": "RelayAdd",
      "type": "event"
    },
    {
      "anonymous": false,
      "inputs": [
        {
          "indexed": true,
          "internalType": "address",
          "name": "sender",
          "type": "address"
        },
        {
          "indexed": true,
          "internalType": "uint256",
          "name": "eventId",
          "type": "uint256"
        },
        {
          "indexed": false,
          "internalType": "bytes32",
          "name": "hash",
          "type": "bytes32"
        }
      ],
      "name": "RelayConfirmation",
      "type": "event"
    },
    {
      "anonymous": false,
      "inputs": [
        {
          "indexed": true,
          "internalType": "address",
          "name": "relay",
          "type": "address"
        }
      ],
      "name": "RelayRemove",
      "type": "event"
    },
    {
      "anonymous": false,
      "inputs": [
        {
          "indexed": true,
          "internalType": "bytes32",
          "name": "role",
          "type": "bytes32"
        },
        {
          "indexed": true,
          "internalType": "bytes32",
          "name": "previousAdminRole",
          "type": "bytes32"
        },
        {
          "indexed": true,
          "internalType": "bytes32",
          "name": "newAdminRole",
          "type": "bytes32"
        }
      ],
      "name": "RoleAdminChanged",
      "type": "event"
    },
    {
      "anonymous": false,
      "inputs": [
        {
          "indexed": true,
          "internalType": "bytes32",
          "name": "role",
          "type": "bytes32"
        },
        {
          "indexed": true,
          "internalType": "address",
          "name": "account",
          "type": "address"
        },
        {
          "indexed": true,
          "internalType": "address",
          "name": "sender",
          "type": "address"
        }
      ],
      "name": "RoleGranted",
      "type": "event"
    },
    {
      "anonymous": false,
      "inputs": [
        {
          "indexed": true,
          "internalType": "bytes32",
          "name": "role",
          "type": "bytes32"
        },
        {
          "indexed": true,
          "internalType": "address",
          "name": "account",
          "type": "address"
        },
        {
          "indexed": true,
          "internalType": "address",
          "name": "sender",
          "type": "address"
        }
      ],
      "name": "RoleRevoked",
      "type": "event"
    },
    {
      "anonymous": false,
      "inputs": [
        {
          "indexed": false,
          "internalType": "uint256",
          "name": "newThreshold",
          "type": "uint256"
        }
      ],
      "name": "ThresholdChange",
      "type": "event"
    },
    {
      "anonymous": false,
      "inputs": [
        {
          "indexed": true,
          "internalType": "uint256",
          "name": "eventId",
          "type": "uint256"
        },
        {
          "components": [
            {
              "internalType": "address",
              "name": "tokenAddress",
              "type": "address"
            },
            {
              "internalType": "address",
              "name": "toAddress",
              "type": "address"
            },
            {
              "internalType": "uint256",
              "name": "amount",
              "type": "uint256"
            }
          ],
          "indexed": false,
          "internalType": "struct CommonStructs.Transfer[]",
          "name": "queue",
          "type": "tuple[]"
        }
      ],
      "name": "Transfer",
      "type": "event"
    },
    {
      "anonymous": false,
      "inputs": [
        {
          "indexed": true,
          "internalType": "uint256",
          "name": "eventId",
          "type": "uint256"
        }
      ],
      "name": "TransferFinish",
      "type": "event"
    },
    {
      "anonymous": false,
      "inputs": [
        {
          "indexed": true,
          "internalType": "uint256",
          "name": "eventId",
          "type": "uint256"
        }
      ],
      "name": "TransferSubmit",
      "type": "event"
    },
    {
      "anonymous": false,
      "inputs": [
        {
          "indexed": false,
          "internalType": "address",
          "name": "account",
          "type": "address"
        }
      ],
      "name": "Unpaused",
      "type": "event"
    },
    {
      "anonymous": false,
      "inputs": [
        {
          "indexed": true,
          "internalType": "address",
          "name": "from",
          "type": "address"
        },
        {
          "indexed": false,
          "internalType": "uint256",
          "name": "eventId",
          "type": "uint256"
        },
        {
          "indexed": false,
          "internalType": "address",
          "name": "tokenFrom",
          "type": "address"
        },
        {
          "indexed": false,
          "internalType": "address",
          "name": "tokenTo",
          "type": "address"
        },
        {
          "indexed": false,
          "internalType": "uint256",
          "name": "amount",
          "type": "uint256"
        },
        {
          "indexed": false,
          "internalType": "uint256",
          "name": "transferFeeAmount",
          "type": "uint256"
        },
        {
          "indexed": false,
          "internalType": "uint256",
          "name": "bridgeFeeAmount",
          "type": "uint256"
        }
      ],
      "name": "Withdraw",
      "type": "event"
    },
    {
      "inputs": [],
      "name": "ADMIN_ROLE",
      "outputs": [
        {
          "internalType": "bytes32",
          "name": "",
          "type": "bytes32"
        }
      ],
      "stateMutability": "view",
      "type": "function"
    },
    {
      "inputs": [],
      "name": "DEFAULT_ADMIN_ROLE",
      "outputs": [
        {
          "internalType": "bytes32",
          "name": "",
          "type": "bytes32"
        }
      ],
      "stateMutability": "view",
      "type": "function"
    },
    {
      "inputs": [],
      "name": "RELAY_ROLE",
      "outputs": [
        {
          "internalType": "bytes32",
          "name": "",
          "type": "bytes32"
        }
      ],
      "stateMutability": "view",
      "type": "function"
    },
    {
      "inputs": [],
      "name": "bridgeFeeRecipient",
      "outputs": [
        {
          "internalType": "address payable",
          "name": "",
          "type": "address"
        }
      ],
      "stateMutability": "view",
      "type": "function"
    },
    {
      "inputs": [
        {
          "internalType": "address payable",
          "name": "feeRecipient_",
          "type": "address"
        }
      ],
      "name": "changeBridgeFeeRecipient",
      "outputs": [],
      "stateMutability": "nonpayable",
      "type": "function"
    },
    {
      "inputs": [
        {
          "internalType": "uint256",
          "name": "lockTime_",
          "type": "uint256"
        }
      ],
      "name": "changeLockTime",
      "outputs": [],
      "stateMutability": "nonpayable",
      "type": "function"
    },
    {
      "inputs": [
        {
          "internalType": "uint256",
          "name": "minSafetyBlocks_",
          "type": "uint256"
        }
      ],
      "name": "changeMinSafetyBlocks",
      "outputs": [],
      "stateMutability": "nonpayable",
      "type": "function"
    },
    {
      "inputs": [
        {
          "internalType": "uint256",
          "name": "signatureFeeCheckNumber_",
          "type": "uint256"
        }
      ],
      "name": "changeSignatureFeeCheckNumber",
      "outputs": [],
      "stateMutability": "nonpayable",
      "type": "function"
    },
    {
      "inputs": [
        {
          "internalType": "uint256",
          "name": "timeframeSeconds_",
          "type": "uint256"
        }
      ],
      "name": "changeTimeframeSeconds",
      "outputs": [],
      "stateMutability": "nonpayable",
      "type": "function"
    },
    {
      "inputs": [
        {
          "internalType": "address payable",
          "name": "feeRecipient_",
          "type": "address"
        }
      ],
      "name": "changeTransferFeeRecipient",
      "outputs": [],
      "stateMutability": "nonpayable",
      "type": "function"
    },
    {
      "inputs": [
        {
          "internalType": "bytes32",
          "name": "",
          "type": "bytes32"
        },
        {
          "internalType": "address",
          "name": "",
          "type": "address"
        }
      ],
      "name": "confirmations",
      "outputs": [
        {
          "internalType": "bool",
          "name": "",
          "type": "bool"
        }
      ],
      "stateMutability": "view",
      "type": "function"
    },
    {
      "inputs": [],
      "name": "confirmationsThreshold",
      "outputs": [
        {
          "internalType": "uint256",
          "name": "",
          "type": "uint256"
        }
      ],
      "stateMutability": "view",
      "type": "function"
    },
    {
      "inputs": [
        {
          "internalType": "bytes32",
          "name": "hash",
          "type": "bytes32"
        }
      ],
      "name": "confirmedCount",
      "outputs": [
        {
          "internalType": "uint256",
          "name": "",
          "type": "uint256"
        }
      ],
      "stateMutability": "view",
      "type": "function"
    },
    {
      "inputs": [
        {
          "internalType": "uint256",
          "name": "eventId",
          "type": "uint256"
        }
      ],
      "name": "getLockedTransfers",
      "outputs": [
        {
          "components": [
            {
              "components": [
                {
                  "internalType": "address",
                  "name": "tokenAddress",
                  "type": "address"
                },
                {
                  "internalType": "address",
                  "name": "toAddress",
                  "type": "address"
                },
                {
                  "internalType": "uint256",
                  "name": "amount",
                  "type": "uint256"
                }
              ],
              "internalType": "struct CommonStructs.Transfer[]",
              "name": "transfers",
              "type": "tuple[]"
            },
            {
              "internalType": "uint256",
              "name": "endTimestamp",
              "type": "uint256"
            }
          ],
          "internalType": "struct CommonStructs.LockedTransfers",
          "name": "",
          "type": "tuple"
        }
      ],
      "stateMutability": "view",
      "type": "function"
    },
    {
      "inputs": [],
      "name": "getRelays",
      "outputs": [
        {
          "internalType": "address[]",
          "name": "",
          "type": "address[]"
        }
      ],
      "stateMutability": "view",
      "type": "function"
    },
    {
      "inputs": [
        {
          "internalType": "bytes32",
          "name": "role",
          "type": "bytes32"
        }
      ],
      "name": "getRoleAdmin",
      "outputs": [
        {
          "internalType": "bytes32",
          "name": "",
          "type": "bytes32"
        }
      ],
      "stateMutability": "view",
      "type": "function"
    },
    {
      "inputs": [
        {
          "internalType": "bytes32",
          "name": "role",
          "type": "bytes32"
        },
        {
          "internalType": "address",
          "name": "account",
          "type": "address"
        }
      ],
      "name": "grantRole",
      "outputs": [],
      "stateMutability": "nonpayable",
      "type": "function"
    },
    {
      "inputs": [
        {
          "internalType": "bytes32",
          "name": "role",
          "type": "bytes32"
        },
        {
          "internalType": "address",
          "name": "account",
          "type": "address"
        }
      ],
      "name": "hasRole",
      "outputs": [
        {
          "internalType": "bool",
          "name": "",
          "type": "bool"
        }
      ],
      "stateMutability": "view",
      "type": "function"
    },
    {
      "inputs": [
        {
          "components": [
            {
              "internalType": "address",
              "name": "sideBridgeAddress",
              "type": "address"
            },
            {
              "internalType": "address",
              "name": "adminAddress",
              "type": "address"
            },
            {
              "internalType": "address",
              "name": "relayAddress",
              "type": "address"
            },
            {
              "internalType": "address",
              "name": "wrappingTokenAddress",
              "type": "address"
            },
            {
              "internalType": "address[]",
              "name": "tokenThisAddresses",
              "type": "address[]"
            },
            {
              "internalType": "address[]",
              "name": "tokenSideAddresses",
              "type": "address[]"
            },
            {
              "internalType": "address payable",
              "name": "transferFeeRecipient",
              "type": "address"
            },
            {
              "internalType": "address payable",
              "name": "bridgeFeeRecipient",
              "type": "address"
            },
            {
              "internalType": "uint256",
              "name": "timeframeSeconds",
              "type": "uint256"
            },
            {
              "internalType": "uint256",
              "name": "lockTime",
              "type": "uint256"
            },
            {
              "internalType": "uint256",
              "name": "minSafetyBlocks",
              "type": "uint256"
            }
          ],
          "internalType": "struct CommonStructs.ConstructorArgs",
          "name": "args",
          "type": "tuple"
        },
        {
          "internalType": "uint256",
          "name": "_confirmations",
          "type": "uint256"
        },
        {
          "internalType": "address[]",
          "name": "_relays",
          "type": "address[]"
        }
      ],
      "name": "initialize",
      "outputs": [],
      "stateMutability": "nonpayable",
      "type": "function"
    },
    {
      "inputs": [],
      "name": "inputEventId",
      "outputs": [
        {
          "internalType": "uint256",
          "name": "",
          "type": "uint256"
        }
      ],
      "stateMutability": "view",
      "type": "function"
    },
    {
      "inputs": [
        {
          "internalType": "address",
          "name": "relay",
          "type": "address"
        },
        {
          "internalType": "uint256",
          "name": "eventId",
          "type": "uint256"
        },
        {
          "components": [
            {
              "internalType": "address",
              "name": "tokenAddress",
              "type": "address"
            },
            {
              "internalType": "address",
              "name": "toAddress",
              "type": "address"
            },
            {
              "internalType": "uint256",
              "name": "amount",
              "type": "uint256"
            }
          ],
          "internalType": "struct CommonStructs.Transfer[]",
          "name": "transfers",
          "type": "tuple[]"
        }
      ],
      "name": "isConfirmedByRelay",
      "outputs": [
        {
          "internalType": "bool",
          "name": "",
          "type": "bool"
        }
      ],
      "stateMutability": "view",
      "type": "function"
    },
    {
      "inputs": [],
      "name": "isQueueEmpty",
      "outputs": [
        {
          "internalType": "bool",
          "name": "",
          "type": "bool"
        }
      ],
      "stateMutability": "view",
      "type": "function"
    },
    {
      "inputs": [
        {
          "internalType": "address",
          "name": "relay",
          "type": "address"
        }
      ],
      "name": "isRelay",
      "outputs": [
        {
          "internalType": "bool",
          "name": "",
          "type": "bool"
        }
      ],
      "stateMutability": "view",
      "type": "function"
    },
    {
      "inputs": [],
      "name": "lastTimeframe",
      "outputs": [
        {
          "internalType": "uint256",
          "name": "",
          "type": "uint256"
        }
      ],
      "stateMutability": "view",
      "type": "function"
    },
    {
      "inputs": [],
      "name": "lockTime",
      "outputs": [
        {
          "internalType": "uint256",
          "name": "",
          "type": "uint256"
        }
      ],
      "stateMutability": "view",
      "type": "function"
    },
    {
      "inputs": [
        {
          "internalType": "uint256",
          "name": "",
          "type": "uint256"
        }
      ],
      "name": "lockedTransfers",
      "outputs": [
        {
          "internalType": "uint256",
          "name": "endTimestamp",
          "type": "uint256"
        }
      ],
      "stateMutability": "view",
      "type": "function"
    },
    {
      "inputs": [],
      "name": "minSafetyBlocks",
      "outputs": [
        {
          "internalType": "uint256",
          "name": "",
          "type": "uint256"
        }
      ],
      "stateMutability": "view",
      "type": "function"
    },
    {
      "inputs": [],
      "name": "oldestLockedEventId",
      "outputs": [
        {
          "internalType": "uint256",
          "name": "",
          "type": "uint256"
        }
      ],
      "stateMutability": "view",
      "type": "function"
    },
    {
      "inputs": [],
      "name": "outputEventId",
      "outputs": [
        {
          "internalType": "uint256",
          "name": "",
          "type": "uint256"
        }
      ],
      "stateMutability": "view",
      "type": "function"
    },
    {
      "inputs": [],
      "name": "pause",
      "outputs": [],
      "stateMutability": "nonpayable",
      "type": "function"
    },
    {
      "inputs": [],
      "name": "paused",
      "outputs": [
        {
          "internalType": "bool",
          "name": "",
          "type": "bool"
        }
      ],
      "stateMutability": "view",
      "type": "function"
    },
    {
      "inputs": [
        {
          "internalType": "uint256",
          "name": "",
          "type": "uint256"
        }
      ],
      "name": "relays",
      "outputs": [
        {
          "internalType": "address",
          "name": "",
          "type": "address"
        }
      ],
      "stateMutability": "view",
      "type": "function"
    },
    {
      "inputs": [
        {
          "internalType": "uint256",
          "name": "eventId",
          "type": "uint256"
        }
      ],
      "name": "removeLockedTransfers",
      "outputs": [],
      "stateMutability": "nonpayable",
      "type": "function"
    },
    {
      "inputs": [
        {
          "internalType": "bytes32",
          "name": "role",
          "type": "bytes32"
        },
        {
          "internalType": "address",
          "name": "account",
          "type": "address"
        }
      ],
      "name": "renounceRole",
      "outputs": [],
      "stateMutability": "nonpayable",
      "type": "function"
    },
    {
      "inputs": [
        {
          "internalType": "bytes32",
          "name": "role",
          "type": "bytes32"
        },
        {
          "internalType": "address",
          "name": "account",
          "type": "address"
        }
      ],
      "name": "revokeRole",
      "outputs": [],
      "stateMutability": "nonpayable",
      "type": "function"
    },
    {
      "inputs": [
        {
          "internalType": "address[]",
          "name": "toRemove",
          "type": "address[]"
        },
        {
          "internalType": "address[]",
          "name": "toAdd",
          "type": "address[]"
        },
        {
          "internalType": "uint256",
          "name": "_confirmations",
          "type": "uint256"
        }
      ],
      "name": "setRelaysAndConfirmations",
      "outputs": [],
      "stateMutability": "nonpayable",
      "type": "function"
    },
    {
      "inputs": [
        {
          "internalType": "address",
          "name": "_sideBridgeAddress",
          "type": "address"
        }
      ],
      "name": "setSideBridge",
      "outputs": [],
      "stateMutability": "nonpayable",
      "type": "function"
    },
    {
      "inputs": [],
      "name": "sideBridgeAddress",
      "outputs": [
        {
          "internalType": "address",
          "name": "",
          "type": "address"
        }
      ],
      "stateMutability": "view",
      "type": "function"
    },
    {
      "inputs": [
        {
          "internalType": "uint256",
          "name": "eventId",
          "type": "uint256"
        }
      ],
      "name": "skipTransfers",
      "outputs": [],
      "stateMutability": "nonpayable",
      "type": "function"
    },
    {
      "inputs": [
        {
          "internalType": "uint256",
          "name": "eventId",
          "type": "uint256"
        },
        {
          "components": [
            {
              "internalType": "address",
              "name": "tokenAddress",
              "type": "address"
            },
            {
              "internalType": "address",
              "name": "toAddress",
              "type": "address"
            },
            {
              "internalType": "uint256",
              "name": "amount",
              "type": "uint256"
            }
          ],
          "internalType": "struct CommonStructs.Transfer[]",
          "name": "transfers",
          "type": "tuple[]"
        }
      ],
      "name": "submitTransferUntrustless",
      "outputs": [],
      "stateMutability": "nonpayable",
      "type": "function"
    },
    {
      "inputs": [
        {
          "internalType": "bytes4",
          "name": "interfaceId",
          "type": "bytes4"
        }
      ],
      "name": "supportsInterface",
      "outputs": [
        {
          "internalType": "bool",
          "name": "",
          "type": "bool"
        }
      ],
      "stateMutability": "view",
      "type": "function"
    },
    {
      "inputs": [],
      "name": "timeframeSeconds",
      "outputs": [
        {
          "internalType": "uint256",
          "name": "",
          "type": "uint256"
        }
      ],
      "stateMutability": "view",
      "type": "function"
    },
    {
      "inputs": [
        {
          "internalType": "address",
          "name": "",
          "type": "address"
        }
      ],
      "name": "tokenAddresses",
      "outputs": [
        {
          "internalType": "address",
          "name": "",
          "type": "address"
        }
      ],
      "stateMutability": "view",
      "type": "function"
    },
    {
      "inputs": [
        {
          "internalType": "address",
          "name": "tokenThisAddress",
          "type": "address"
        },
        {
          "internalType": "address",
          "name": "tokenSideAddress",
          "type": "address"
        }
      ],
      "name": "tokensAdd",
      "outputs": [],
      "stateMutability": "nonpayable",
      "type": "function"
    },
    {
      "inputs": [
        {
          "internalType": "address[]",
          "name": "tokenThisAddresses",
          "type": "address[]"
        },
        {
          "internalType": "address[]",
          "name": "tokenSideAddresses",
          "type": "address[]"
        }
      ],
      "name": "tokensAddBatch",
      "outputs": [],
      "stateMutability": "nonpayable",
      "type": "function"
    },
    {
      "inputs": [
        {
          "internalType": "address",
          "name": "tokenThisAddress",
          "type": "address"
        }
      ],
      "name": "tokensRemove",
      "outputs": [],
      "stateMutability": "nonpayable",
      "type": "function"
    },
    {
      "inputs": [
        {
          "internalType": "address[]",
          "name": "tokenThisAddresses",
          "type": "address[]"
        }
      ],
      "name": "tokensRemoveBatch",
      "outputs": [],
      "stateMutability": "nonpayable",
      "type": "function"
    },
    {
      "inputs": [],
      "name": "transferFeeRecipient",
      "outputs": [
        {
          "internalType": "address payable",
          "name": "",
          "type": "address"
        }
      ],
      "stateMutability": "view",
      "type": "function"
    },
    {
      "inputs": [
        {
          "internalType": "uint256",
          "name": "eventId",
          "type": "uint256"
        },
        {
          "components": [
            {
              "internalType": "address",
              "name": "tokenAddress",
              "type": "address"
            },
            {
              "internalType": "address",
              "name": "toAddress",
              "type": "address"
            },
            {
              "internalType": "uint256",
              "name": "amount",
              "type": "uint256"
            }
          ],
          "internalType": "struct CommonStructs.Transfer[]",
          "name": "transfers",
          "type": "tuple[]"
        }
      ],
      "name": "transfersHash",
      "outputs": [
        {
          "internalType": "bytes32",
          "name": "",
          "type": "bytes32"
        }
      ],
      "stateMutability": "pure",
      "type": "function"
    },
    {
      "inputs": [],
      "name": "triggerTransfers",
      "outputs": [],
      "stateMutability": "nonpayable",
      "type": "function"
    },
    {
      "inputs": [
        {
          "internalType": "uint256",
          "name": "eventId",
          "type": "uint256"
        }
      ],
      "name": "unlockTransfers",
      "outputs": [],
      "stateMutability": "nonpayable",
      "type": "function"
    },
    {
      "inputs": [],
      "name": "unlockTransfersBatch",
      "outputs": [],
      "stateMutability": "nonpayable",
      "type": "function"
    },
    {
      "inputs": [],
      "name": "unpause",
      "outputs": [],
      "stateMutability": "nonpayable",
      "type": "function"
    },
    {
      "inputs": [
        {
          "internalType": "uint256",
          "name": "_confirmations",
          "type": "uint256"
        },
        {
          "internalType": "address[]",
          "name": "_relays",
          "type": "address[]"
        }
      ],
      "name": "upgrade",
      "outputs": [],
      "stateMutability": "nonpayable",
      "type": "function"
    },
    {
      "inputs": [
        {
          "internalType": "address",
          "name": "tokenThisAddress",
          "type": "address"
        },
        {
          "internalType": "address",
          "name": "toAddress",
          "type": "address"
        },
        {
          "internalType": "uint256",
          "name": "amount",
          "type": "uint256"
        },
        {
          "internalType": "bool",
          "name": "unwrapSide",
          "type": "bool"
        },
        {
          "internalType": "bytes",
          "name": "feeSignature",
          "type": "bytes"
        },
        {
          "internalType": "uint256",
          "name": "transferFee",
          "type": "uint256"
        },
        {
          "internalType": "uint256",
          "name": "bridgeFee",
          "type": "uint256"
        }
      ],
      "name": "withdraw",
      "outputs": [],
      "stateMutability": "payable",
      "type": "function"
    },
    {
      "inputs": [
        {
          "internalType": "address",
          "name": "toAddress",
          "type": "address"
        },
        {
          "internalType": "bytes",
          "name": "feeSignature",
          "type": "bytes"
        },
        {
          "internalType": "uint256",
          "name": "transferFee",
          "type": "uint256"
        },
        {
          "internalType": "uint256",
          "name": "bridgeFee",
          "type": "uint256"
        }
      ],
      "name": "wrapWithdraw",
      "outputs": [],
      "stateMutability": "payable",
      "type": "function"
    },
    {
      "inputs": [],
      "name": "wrapperAddress",
      "outputs": [
        {
          "internalType": "address",
          "name": "",
          "type": "address"
        }
      ],
      "stateMutability": "view",
      "type": "function"
    },
    {
      "stateMutability": "payable",
      "type": "receive"
    }
  ],
  "transactionHash": "0xd5dd4b0222c1c814811c83f1ced752dbedd1270e4b172e9a8963141c66d49926",
  "args": [],
  "numDeployments": 2,
  "solcInputHash": "02f8923ca6dc796edff4412f6a68579d",
  "bytecode": "0x608060405234801561001057600080fd5b5061415b806100206000396000f3fe60806040526004361061037e5760003560e060020a900480638456cb59116101d5578063b87330e911610106578063e1137f19116100a4578063f700558711610073578063f700558714610a37578063f862b7eb14610a57578063f8b7443314610a77578063fd5d2ef314610a8a57600080fd5b8063e1137f19146109aa578063e31be087146109ca578063f33fe10f146109f7578063f3ee208014610a1757600080fd5b8063cea91f8f116100e0578063cea91f8f1461092a578063cf3317d31461094a578063d547741f1461096a578063ded0eaef1461098a57600080fd5b8063b87330e9146108de578063ba8bbbe0146108fe578063baeebe751461091457600080fd5b806391d148541161017357806399b5bb641161014d57806399b5bb6414610867578063a217fddf1461087d578063b06a13ef14610892578063b6d3385e146108a857600080fd5b806391d1485414610811578063924cf6e01461083157806396cf52271461084757600080fd5b806386d7679e116101af57806386d7679e146107b35780638ac1f86f146107c95780638e5df9c7146107de57806391c5bc0a146107fe57600080fd5b80638456cb591461075e57806384d8f01b14610773578063853890ae1461079357600080fd5b806336568abe116102af5780635249a7051161024d5780636c5dc9ad116102275780636c5dc9ad146106e7578063746b5c421461070757806375b238fc1461071c5780637df8b8021461073e57600080fd5b80635249a7051461068f5780635b403c28146106af5780635c975abb146106cf57600080fd5b80633f4ba83a116102895780633f4ba83a1461060a57806342180fb81461061f5780634a1856de1461063f5780635119b0ef1461066f57600080fd5b806336568abe146105aa578063390d5388146105ca5780633928b296146105ea57600080fd5b8063248a9ca31161031c5780632bbba847116102f65780632bbba8471461051c5780632f2ff15d14610532578063304561bb14610552578063331a891a1461058a57600080fd5b8063248a9ca3146104b657806326cb32b7146104e6578063297c26771461050657600080fd5b80630c4ecab4116103585780630c4ecab4146104235780630d6680871461045e57806321d3d5361461047457806323a93b1e1461049457600080fd5b806301ffc9a71461038a57806304421823146103bf57806309fce3561461040157600080fd5b3661038557005b600080fd5b34801561039657600080fd5b506103aa6103a53660046139e2565b610aaa565b60405190151581526020015b60405180910390f35b3480156103cb57600080fd5b506103f37f077a1d526a4ce8a773632ab13b4fbbf1fcc954c3dab26cd27ea0e2a6750da5d781565b6040519081526020016103b6565b34801561040d57600080fd5b5061042161041c3660046138b3565b610b3d565b005b34801561042f57600080fd5b506103aa61043e3660046139bd565b60e860209081526000928352604080842090915290825290205460ff1681565b34801561046a57600080fd5b506103f360d45481565b34801561048057600080fd5b5061042161048f3660046136c4565b610b69565b3480156104a057600080fd5b506104a9610bf9565b6040516103b69190613c6f565b3480156104c257600080fd5b506103f36104d13660046139a4565b60009081526065602052604090206001015490565b3480156104f257600080fd5b506103aa6105013660046136c4565b610c5b565b34801561051257600080fd5b506103f360d65481565b34801561052857600080fd5b5060ca54156103aa565b34801561053e57600080fd5b5061042161054d3660046139bd565b610cc5565b34801561055e57600080fd5b5060cf5461057290600160a060020a031681565b604051600160a060020a0390911681526020016103b6565b34801561059657600080fd5b506104216105a53660046139a4565b610cf0565b3480156105b657600080fd5b506104216105c53660046139bd565b610e07565b3480156105d657600080fd5b5060d05461057290600160a060020a031681565b3480156105f657600080fd5b506104216106053660046136c4565b610e92565b34801561061657600080fd5b50610421610ece565b34801561062b57600080fd5b5061042161063a3660046139a4565b610ef2565b34801561064b57600080fd5b506103f361065a3660046139a4565b60cb6020526000908152604090206001015481565b34801561067b57600080fd5b5061042161068a366004613b58565b610f2f565b34801561069b57600080fd5b506104216106aa366004613871565b611018565b3480156106bb57600080fd5b506104216106ca366004613a81565b6110a1565b3480156106db57600080fd5b5060975460ff166103aa565b3480156106f357600080fd5b506103f36107023660046139a4565b61110d565b34801561071357600080fd5b50610421611196565b34801561072857600080fd5b506103f360008051602061410683398151915281565b34801561074a57600080fd5b5060ce5461057290600160a060020a031681565b34801561076a57600080fd5b50610421611242565b34801561077f57600080fd5b5061042161078e366004613913565b611263565b34801561079f57600080fd5b506104216107ae3660046136e1565b611324565b3480156107bf57600080fd5b506103f360d75481565b3480156107d557600080fd5b5061042161136c565b3480156107ea57600080fd5b506104216107f93660046136c4565b6114c4565b61042161080c3660046137ae565b611505565b34801561081d57600080fd5b506103aa61082c3660046139bd565b611835565b34801561083d57600080fd5b506103f360d25481565b34801561085357600080fd5b506104216108623660046139a4565b611860565b34801561087357600080fd5b506103f360d55481565b34801561088957600080fd5b506103f3600081565b34801561089e57600080fd5b506103f360e75481565b3480156108b457600080fd5b506105726108c33660046136c4565b60cd60205260009081526040902054600160a060020a031681565b3480156108ea57600080fd5b506104216108f93660046136c4565b61187f565b34801561090a57600080fd5b506103f360cc5481565b34801561092057600080fd5b506103f360d35481565b34801561093657600080fd5b506103f3610945366004613b58565b6118bb565b34801561095657600080fd5b506104216109653660046139a4565b6119a4565b34801561097657600080fd5b506104216109853660046139bd565b611a1b565b34801561099657600080fd5b506103aa6109a5366004613815565b611a41565b3480156109b657600080fd5b506105726109c53660046139a4565b611a80565b3480156109d657600080fd5b506109ea6109e53660046139a4565b611aaa565b6040516103b69190613e87565b348015610a0357600080fd5b5060d15461057290600160a060020a031681565b348015610a2357600080fd5b50610421610a32366004613a21565b611b66565b348015610a4357600080fd5b50610421610a523660046139a4565b611c24565b348015610a6357600080fd5b50610421610a723660046139a4565b611c43565b610421610a8536600461371a565b611e76565b348015610a9657600080fd5b50610421610aa53660046139a4565b6122d6565b60007bffffffffffffffffffffffffffffffffffffffffffffffffffffffff1982167f7965db0b000000000000000000000000000000000000000000000000000000001480610b3757507f01ffc9a7000000000000000000000000000000000000000000000000000000007bffffffffffffffffffffffffffffffffffffffffffffffffffffffff198316145b92915050565b600080516020614106833981519152610b5681336122f5565b610b628585858561235c565b5050505050565b6000610b7581336122f5565b60d154600160a060020a031615610bd65760405160e560020a62461bcd02815260206004820152601d60248201527f736964654272696467654164647265737320616c72656164792073657400000060448201526064015b60405180910390fd5b5060d18054600160a060020a031916600160a060020a0392909216919091179055565b606060e9805480602002602001604051908101604052809291908181526020018280548015610c5157602002820191906000526020600020905b8154600160a060020a03168152600190910190602001808311610c33575b5050505050905090565b6000805b60e954811015610cbc5782600160a060020a031660e98281548110610c8657610c86614051565b600091825260209091200154600160a060020a03161415610caa5750600192915050565b80610cb481614004565b915050610c5f565b50600092915050565b600082815260656020526040902060010154610ce181336122f5565b610ceb838361247d565b505050565b600080516020614106833981519152610d0981336122f5565b60975460ff16610d2e5760405160e560020a62461bcd028152600401610bcd90613d5f565b60cc54821015610d535760405160e560020a62461bcd028152600401610bcd90613e2a565b60d554821115610da85760405160e560020a62461bcd02815260206004820152601f60248201527f6576656e744964206d757374206265203c3d20696e7075744576656e744964006044820152606401610bcd565b610db3600183613faa565b60d5555b600082815260cb602052604090206001015415610e0357600082815260cb6020526040812090610de78282613514565b5060006001919091015581610dfb81614004565b925050610db7565b5050565b600160a060020a0381163314610e885760405160e560020a62461bcd02815260206004820152602f60248201527f416363657373436f6e74726f6c3a2063616e206f6e6c792072656e6f756e636560448201527f20726f6c657320666f722073656c6600000000000000000000000000000000006064820152608401610bcd565b610e038282612503565b600080516020614106833981519152610eab81336122f5565b5060d08054600160a060020a031916600160a060020a0392909216919091179055565b600080516020614106833981519152610ee781336122f5565b610eef61256a565b50565b600080516020614106833981519152610f0b81336122f5565b8160d35460d754610f1c9190613f8b565b610f269190613f66565b60d7555060d355565b60975460ff1615610f555760405160e560020a62461bcd028152600401610bcd90613d96565b60d554610f63906001613f4e565b8314610fb45760405160e560020a62461bcd02815260206004820152601460248201527f4576656e744964206f7574206f66206f726465720000000000000000000000006044820152606401610bcd565b6000610fc18484846125d9565b905080156110125760d560008154610fd890614004565b9091555060405184907f196c47048e38df7a4fe6e581c8f4f2e2ba67ac0dd45b90da756e97bd61d9dd3b90600090a2611012838386612784565b50505050565b60008051602061410683398151915261103181336122f5565b8160005b81811015610b625760cd600086868481811061105357611053614051565b905060200201602081019061106891906136c4565b600160a060020a0316815260208101919091526040016000208054600160a060020a03191690558061109981614004565b915050611035565b3330146110f35760405160e560020a62461bcd02815260206004820152601c60248201527f54686973206d6574686f642072657175697265206d756c7469736967000000006044820152606401610bcd565b80516111069060e9906020840190613535565b505060e755565b60008060005b60e95481101561118f57600084815260e86020526040812060e980549192918490811061114257611142614051565b6000918252602080832090910154600160a060020a0316835282019290925260400190205460ff161561117d578161117981614004565b9250505b8061118781614004565b915050611113565b5092915050565b60ca546111e85760405160e560020a62461bcd02815260206004820152600e60248201527f517565756520697320656d7074790000000000000000000000000000000000006044820152606401610bcd565b60d680549060006111f883614004565b919050557fe15729a2f427aa4572dab35eb692c902fcbce57d41642013259c741380809ae260ca60405161122c9190613cbc565b60405180910390a261124060ca6000613514565b565b60008051602061410683398151915261125b81336122f5565b610eef612812565b3330146112b55760405160e560020a62461bcd02815260206004820152601c60248201527f54686973206d6574686f642072657175697265206d756c7469736967000000006044820152606401610bcd565b610b628585808060200260200160405190810160405280939291908181526020018383602002808284376000920191909152505060408051602080890282810182019093528882529093508892508791829185019084908082843760009201919091525086925061286d915050565b60008051602061410683398151915261133d81336122f5565b50600160a060020a03918216600090815260cd602052604090208054600160a060020a03191691909216179055565b60975460ff16156113925760405160e560020a62461bcd028152600401610bcd90613d96565b60cc545b600081815260cb60209081526040808320815181546060948102820185018452928101838152909391928492849190879085015b8282101561142457600084815260209081902060408051606081018252600386029092018054600160a060020a039081168452600180830154909116848601526002909101549183019190915290835290920191016113ca565b505050508152602001600182015481525050905080602001516000148061144e5750428160200151115b15611459575060cc55565b805161146490612935565b600082815260cb602052604081209061147d8282613514565b50600060019190910181905560405183917f78ff9b3176bb0d6421590f3816e75cb15a9ffa2b7a1a028f40a3f4e029eb39f291a250806114bc81614004565b915050611396565b6000805160206141068339815191526114dd81336122f5565b50600160a060020a0316600090815260cd602052604090208054600160a060020a0319169055565b60ce54600160a060020a03908116600090815260cd602052604090205416806115735760405160e560020a62461bcd02815260206004820152601560248201527f556e6b6e6f776e20746f6b656e206164647265737300000000000000000000006044820152606401610bcd565b61157d8284613f4e565b34116115ce5760405160e560020a62461bcd02815260206004820152601160248201527f53656e742076616c7565203c3d206665650000000000000000000000000000006044820152606401610bcd565b6000826115db8534613faa565b6115e59190613faa565b60ce5490915061160290600160a060020a03168787878786612bc9565b60cf54604051600160a060020a039091169085156108fc029086906000818181858888f1935050505015801561163c573d6000803e3d6000fd5b5060d054604051600160a060020a039091169084156108fc029085906000818181858888f19350505050158015611677573d6000803e3d6000fd5b5060ce60009054906101000a9004600160a060020a0316600160a060020a031663d0e30db0826040518263ffffffff1660e060020a0281526004016000604051808303818588803b1580156116cb57600080fd5b505af11580156116df573d6000803e3d6000fd5b505060408051606081018252600160a060020a0380881682528c81166020830190815282840188815260ca80546001810182556000918252945160039095027f42d72674974f694b5f5159593243114d38a5c39c89d6b62fee061ff523240ee181018054968616600160a060020a031997881617905592517f42d72674974f694b5f5159593243114d38a5c39c89d6b62fee061ff523240ee2840180549190951695169490941790925590517f42d72674974f694b5f5159593243114d38a5c39c89d6b62fee061ff523240ee39091015560d65491513395507f3b823d3b837159352faddd1e0b9e9f584ca2bfe976238f6a9e6da4615cf2f444945061181c9350879087908b908b90958652600160a060020a0394851660208701529290931660408501526060840152608083019190915260a082015260c00190565b60405180910390a261182c612d6f565b50505050505050565b6000918252606560209081526040808420600160a060020a0393909316845291905290205460ff1690565b60008051602061410683398151915261187981336122f5565b5060d455565b60008051602061410683398151915261189881336122f5565b5060cf8054600160a060020a031916600160a060020a0392909216919091179055565b600080846040516020016118d191815260200190565b604051602081830303815290604052905060005b83811015611993578185858381811061190057611900614051565b9050606002016040013586868481811061191c5761191c614051565b905060600201602001602081019061193491906136c4565b87878581811061194657611946614051565b61195c92602060609092020190810191506136c4565b60405160200161196f9493929190613ba4565b6040516020818303038152906040529150808061198b90614004565b9150506118e5565b508051602090910120949350505050565b6000805160206141068339815191526119bd81336122f5565b60975460ff166119e25760405160e560020a62461bcd028152600401610bcd90613d5f565b60cc54821015611a075760405160e560020a62461bcd028152600401610bcd90613e2a565b611a12600183613faa565b60d5555060cc55565b600082815260656020526040902060010154611a3781336122f5565b610ceb8383612503565b600080611a4f8585856118bb565b600090815260e860209081526040808320600160a060020a038a16845290915290205460ff16915050949350505050565b60e98181548110611a9057600080fd5b600091825260209091200154600160a060020a0316905081565b604080518082019091526060815260006020820152600082815260cb60209081526040808320815181546060948102820185018452928101838152909491938593919285929185015b82821015611b4d57600084815260209081902060408051606081018252600386029092018054600160a060020a03908116845260018083015490911684860152600290910154918301919091529083529092019101611af3565b5050505081526020016001820154815250509050919050565b600054610100900460ff1680611b7f575060005460ff16155b611b9e5760405160e560020a62461bcd028152600401610bcd90613dcd565b600054610100900460ff16158015611bc0576000805461ffff19166101011790555b611bc985612de7565b6040805160008152602084810280830184018452908201858152611c0c93909187918791829186019084908082843760009201919091525089925061286d915050565b8015610b62576000805461ff00191690555050505050565b600080516020614106833981519152611c3d81336122f5565b5060c955565b60975460ff1615611c695760405160e560020a62461bcd028152600401610bcd90613d96565b60cc548114611cbd5760405160e560020a62461bcd02815260206004820152601c60248201527f63616e20756e6c6f636b206f6e6c79206f6c64657374206576656e74000000006044820152606401610bcd565b600081815260cb60209081526040808320815181546060948102820185018452928101838152909391928492849190879085015b82821015611d4b57600084815260209081902060408051606081018252600386029092018054600160a060020a03908116845260018083015490911684860152600290910154918301919091529083529092019101611cf1565b50505050815260200160018201548152505090506000816020015111611db65760405160e560020a62461bcd02815260206004820181905260248201527f6e6f206c6f636b6564207472616e7366657273207769746820746869732069646044820152606401610bcd565b42816020015110611e0c5760405160e560020a62461bcd02815260206004820152601b60248201527f6c6f636b54696d6520686173206e6f74207965742070617373656400000000006044820152606401610bcd565b8051611e1790612935565b600082815260cb6020526040812090611e308282613514565b50600060019190910181905560405183917f78ff9b3176bb0d6421590f3816e75cb15a9ffa2b7a1a028f40a3f4e029eb39f291a2611e6f826001613f4e565b60cc555050565b60008515611f0b576000805260cd6020527fcd565b10a72538d86f6d352f37ebc5dff31587960b12c0afe00fd03947a6932a54600160a060020a038a8116911614611f065760405160e560020a62461bcd02815260206004820152601f60248201527f546f6b656e206e6f7420706f696e7420746f206e617469766520746f6b656e006044820152606401610bcd565b611f77565b50600160a060020a03808916600090815260cd60205260409020541680611f775760405160e560020a62461bcd02815260206004820152601560248201527f556e6b6e6f776e20746f6b656e206164647265737300000000000000000000006044820152606401610bcd565b611f818284613f4e565b3414611fd25760405160e560020a62461bcd02815260206004820152601160248201527f53656e742076616c756520213d206665650000000000000000000000000000006044820152606401610bcd565b600087116120255760405160e560020a62461bcd02815260206004820152601160248201527f43616e6e6f7420776974686472617720300000000000000000000000000000006044820152606401610bcd565b61203389868686868c612bc9565b60cf54604051600160a060020a039091169084156108fc029085906000818181858888f1935050505015801561206d573d6000803e3d6000fd5b5060d054604051600160a060020a039091169083156108fc029084906000818181858888f193505050501580156120a8573d6000803e3d6000fd5b506040517f23b872dd00000000000000000000000000000000000000000000000000000000815233600482015230602482015260448101889052600160a060020a038a16906323b872dd90606401602060405180830381600087803b15801561211057600080fd5b505af1158015612124573d6000803e3d6000fd5b505050506040513d601f19601f820116820180604052508101906121489190613987565b6121975760405160e560020a62461bcd02815260206004820152601360248201527f4661696c207472616e7366657220636f696e73000000000000000000000000006044820152606401610bcd565b6040805160608082018352600160a060020a038481168084528c821660208086019182528587018e815260ca8054600181018255600091909152965160039097027f42d72674974f694b5f5159593243114d38a5c39c89d6b62fee061ff523240ee181018054988716600160a060020a0319998a1617905592517f42d72674974f694b5f5159593243114d38a5c39c89d6b62fee061ff523240ee284018054918716919098161790965594517f42d72674974f694b5f5159593243114d38a5c39c89d6b62fee061ff523240ee39091015560d6548551908152918e16938201939093529283019190915281018890526080810184905260a0810183905233907f3b823d3b837159352faddd1e0b9e9f584ca2bfe976238f6a9e6da4615cf2f4449060c00160405180910390a26122cb612d6f565b505050505050505050565b6000805160206141068339815191526122ef81336122f5565b5060d255565b6122ff8282611835565b610e035761231781600160a060020a03166014612fd5565b612322836020612fd5565b604051602001612333929190613bee565b60408051601f198184030181529082905260e560020a62461bcd028252610bcd91600401613d2c565b8281146123d45760405160e560020a62461bcd02815260206004820152603f60248201527f73697a6573206f6620746f6b656e5468697341646472657373657320616e642060448201527f746f6b656e53696465416464726573736573206d7573742062652073616d65006064820152608401610bcd565b8260005b81811015612475578383828181106123f2576123f2614051565b905060200201602081019061240791906136c4565b60cd600088888581811061241d5761241d614051565b905060200201602081019061243291906136c4565b600160a060020a03908116825260208201929092526040016000208054600160a060020a031916929091169190911790558061246d81614004565b9150506123d8565b505050505050565b6124878282611835565b610e03576000828152606560209081526040808320600160a060020a03851684529091529020805460ff191660011790556124bf3390565b600160a060020a031681600160a060020a0316837f2f8788117e7eff1d82e926ec794901d17c78024a50270940304540a733656f0d60405160405180910390a45050565b61250d8282611835565b15610e03576000828152606560209081526040808320600160a060020a0385168085529252808320805460ff1916905551339285917ff6391f5c32d9c69d2a47ea670b442974b53935d1edc7fd64eb21e047a839171b9190a45050565b60975460ff1661258f5760405160e560020a62461bcd028152600401610bcd90613d5f565b6097805460ff191690557f5db9ee0a495bf2e6ff9c91a7834c1ba4fdd244a5e8aa4e537bd38aeae4b073aa335b604051600160a060020a03909116815260200160405180910390a1565b60006125e433610c5b565b6126335760405160e560020a62461bcd02815260206004820152601a60248201527f596f75206e6f7420696e2072656c61792077686974656c6973740000000000006044820152606401610bcd565b60006126408585856118bb565b600081815260e86020908152604080832033845290915290205490915060ff16156126b05760405160e560020a62461bcd02815260206004820152601f60248201527f596f75206861766520616c726561647920636f6e6669726d65642074686973006044820152606401610bcd565b60006126bb8261110d565b905060e75481106127115760405160e560020a62461bcd02815260206004820152601160248201527f416c726561647920636f6e6669726d65640000000000000000000000000000006044820152606401610bcd565b600082815260e8602090815260408083203380855290835292819020805460ff19166001179055518481528892917f641616eb9b807704f05e9dd7d1af6dad1fb246a364799f84895e21b368a9565b910160405180910390a360e754612778826001613f4e565b10159695505050505050565b60d4546127919042613f4e565b600082815260cb60205260408120600101919091555b8281101561101257600082815260cb602052604090208484838181106127cf576127cf614051565b8354600181018555600094855260209094206060909102929092019260030290910190506127fd8282614083565b5050808061280a90614004565b9150506127a7565b60975460ff16156128385760405160e560020a62461bcd028152600401610bcd90613d96565b6097805460ff191660011790557f62e78cea01bee320cd4e420270b5ea74000d11b0c9f74754ebdbfc544b05a2586125bc3390565b60005b83518110156128ad5761289b84828151811061288e5761288e614051565b6020026020010151613226565b806128a581614004565b915050612870565b5060005b82518110156128ee576128dc8382815181106128cf576128cf614051565b60200260200101516133ae565b806128e681614004565b9150506128b1565b508060e75414610ceb5760e78190556040518181527f6d209fce46041fa384c715150b59ebd0bf9e74509fc58c21b73b490f4ff2bbec9060200160405180910390a1505050565b60005b8151811015610e03576000600160a060020a031682828151811061295e5761295e614051565b602002602001015160000151600160a060020a03161415612a7a5760ce548251600160a060020a0390911690632e1a7d4d908490849081106129a2576129a2614051565b6020026020010151604001516040518263ffffffff1660e060020a0281526004016129cf91815260200190565b600060405180830381600087803b1580156129e957600080fd5b505af11580156129fd573d6000803e3d6000fd5b50505050818181518110612a1357612a13614051565b602002602001015160200151600160a060020a03166108fc838381518110612a3d57612a3d614051565b6020026020010151604001519081150290604051600060405180830381858888f19350505050158015612a74573d6000803e3d6000fd5b50612bb7565b818181518110612a8c57612a8c614051565b602002602001015160000151600160a060020a031663a9059cbb838381518110612ab857612ab8614051565b602002602001015160200151848481518110612ad657612ad6614051565b6020026020010151604001516040518363ffffffff1660e060020a028152600401612b16929190600160a060020a03929092168252602082015260400190565b602060405180830381600087803b158015612b3057600080fd5b505af1158015612b44573d6000803e3d6000fd5b505050506040513d601f19601f82011682018060405250810190612b689190613987565b612bb75760405160e560020a62461bcd02815260206004820152601360248201527f4661696c207472616e7366657220636f696e73000000000000000000000000006044820152606401610bcd565b80612bc181614004565b915050612938565b60008080612bd961070842613f66565b905060005b60c954811015612d23576040516c01000000000000000000000000600160a060020a038c160260208201526034810183905260548101889052607481018790526094810186905260b40160408051601f198184030181529082905280516020918201207f19457468657265756d205369676e6564204d6573736167653a0a33320000000091830191909152603c820152605c01604051602081830303815290604052805190602001209350612cc9848a8a8080601f01602080910402602001604051908101604052809392919081815260200183838082843760009201919091525061347f92505050565b9250612cf57f077a1d526a4ce8a773632ab13b4fbbf1fcc954c3dab26cd27ea0e2a6750da5d784611835565b15612d035750505050612475565b81612d0d81613fed565b9250508080612d1b90614004565b915050612bde565b5060405160e560020a62461bcd02815260206004820152601660248201527f5369676e617475726520636865636b206661696c6564000000000000000000006044820152606401610bcd565b600060d35442612d7f9190613f66565b905060d7548114610eef5760d68054906000612d9a83614004565b919050557fe15729a2f427aa4572dab35eb692c902fcbce57d41642013259c741380809ae260ca604051612dce9190613cbc565b60405180910390a2612de260ca6000613514565b60d755565b600054610100900460ff1680612e00575060005460ff16155b612e1f5760405160e560020a62461bcd028152600401610bcd90613dcd565b600054610100900460ff16158015612e41576000805461ffff19166101011790555b612e4c60003361350a565b612e857f077a1d526a4ce8a773632ab13b4fbbf1fcc954c3dab26cd27ea0e2a6750da5d7612e8060608501604086016136c4565b61350a565b612ea7600080516020614106833981519152612e8060408501602086016136c4565b612ec9612eb76080840184613f05565b612ec460a0860186613f05565b61235c565b612ed960808301606084016136c4565b60ce8054600160a060020a031916600160a060020a0392909216919091179055612f0660208301836136c4565b60d18054600160a060020a031916600160a060020a0392909216919091179055612f3660e0830160c084016136c4565b60cf8054600160a060020a031916600160a060020a0392909216919091179055612f67610100830160e084016136c4565b60d08054600160a060020a031916600160a060020a039290921691909117905561014082013560d25561010082013560d381905561012083013560d455600160cc81905560d655600360c955612fbd9042613f66565b60d7558015610e03576000805461ff00191690555050565b60606000612fe4836002613f8b565b612fef906002613f4e565b67ffffffffffffffff8111156130075761300761406a565b6040519080825280601f01601f191660200182016040528015613031576020820181803683370190505b5090507f30000000000000000000000000000000000000000000000000000000000000008160008151811061306857613068614051565b60200101907effffffffffffffffffffffffffffffffffffffffffffffffffffffffffffff1916908160001a9053507f7800000000000000000000000000000000000000000000000000000000000000816001815181106130cb576130cb614051565b60200101907effffffffffffffffffffffffffffffffffffffffffffffffffffffffffffff1916908160001a9053506000613107846002613f8b565b613112906001613f4e565b90505b60018111156131cd577f303132333435363738396162636465660000000000000000000000000000000085600f166010811061315357613153614051565b1a7f01000000000000000000000000000000000000000000000000000000000000000282828151811061318857613188614051565b60200101907effffffffffffffffffffffffffffffffffffffffffffffffffffffffffffff1916908160001a9053506010909404936131c681613fed565b9050613115565b50831561321f5760405160e560020a62461bcd02815260206004820181905260248201527f537472696e67733a20686578206c656e67746820696e73756666696369656e746044820152606401610bcd565b9392505050565b60005b60e9548110156133625781600160a060020a031660e9828154811061325057613250614051565b600091825260209091200154600160a060020a031614156133505760e9805461327b90600190613faa565b8154811061328b5761328b614051565b60009182526020909120015460e98054600160a060020a0390921691839081106132b7576132b7614051565b9060005260206000200160006101000a815481600160a060020a030219169083600160a060020a0316021790555060e98054806132f6576132f6614038565b60008281526020812082016000199081018054600160a060020a0319169055909101909155604051600160a060020a038416917f709f812fac579d78683917073998a39146cfb3fa691a5710de2bddca713b3a6091a25050565b8061335a81614004565b915050613229565b5060405160e560020a62461bcd02815260206004820152600b60248201527f4e6f7420612072656c61790000000000000000000000000000000000000000006044820152606401610bcd565b6133b781610c5b565b156134075760405160e560020a62461bcd02815260206004820152600d60248201527f416c72656164792072656c6179000000000000000000000000000000000000006044820152606401610bcd565b60e9805460018101825560009182527fea6426b4b8d70caa8ece9a88fb0a9d4a6b817bb4a43ac6fbef64cb0e589129ee018054600160a060020a031916600160a060020a03841690811790915560405190917f7b73cb1bdb35a4aa024a40092050eb3e988b8591cc448e46634cf380f8f1255d91a250565b6020810151604082015160608301516000929190831a601b8110156134a257601b015b60408051600081526020810180835288905260ff831691810191909152606081018490526080810183905260019060a0016020604051602081039080840390855afa1580156134f5573d6000803e3d6000fd5b5050604051601f190151979650505050505050565b610e03828261247d565b5080546000825560030290600052602060002090810190610eef919061359a565b82805482825590600052602060002090810192821561358a579160200282015b8281111561358a5782518254600160a060020a031916600160a060020a03909116178255602090920191600190910190613555565b506135969291506135cd565b5090565b5b80821115613596578054600160a060020a0319908116825560018201805490911690556000600282015560030161359b565b5b8082111561359657600081556001016135ce565b80356135ed816140e2565b919050565b60008083601f84011261360457600080fd5b50813567ffffffffffffffff81111561361c57600080fd5b602083019150836020808302850101111561363657600080fd5b9250929050565b60008083601f84011261364f57600080fd5b50813567ffffffffffffffff81111561366757600080fd5b60208301915083602060608302850101111561363657600080fd5b60008083601f84011261369457600080fd5b50813567ffffffffffffffff8111156136ac57600080fd5b60208301915083602082850101111561363657600080fd5b6000602082840312156136d657600080fd5b813561321f816140e2565b600080604083850312156136f457600080fd5b82356136ff816140e2565b9150602083013561370f816140e2565b809150509250929050565b60008060008060008060008060e0898b03121561373657600080fd5b8835613741816140e2565b97506020890135613751816140e2565b9650604089013595506060890135613768816140f7565b9450608089013567ffffffffffffffff81111561378457600080fd5b6137908b828c01613682565b999c989b5096999598969760a08701359660c0013595509350505050565b6000806000806000608086880312156137c657600080fd5b85356137d1816140e2565b9450602086013567ffffffffffffffff8111156137ed57600080fd5b6137f988828901613682565b9699909850959660408101359660609091013595509350505050565b6000806000806060858703121561382b57600080fd5b8435613836816140e2565b935060208501359250604085013567ffffffffffffffff81111561385957600080fd5b6138658782880161363d565b95989497509550505050565b6000806020838503121561388457600080fd5b823567ffffffffffffffff81111561389b57600080fd5b6138a7858286016135f2565b90969095509350505050565b600080600080604085870312156138c957600080fd5b843567ffffffffffffffff808211156138e157600080fd5b6138ed888389016135f2565b9096509450602087013591508082111561390657600080fd5b50613865878288016135f2565b60008060008060006060868803121561392b57600080fd5b853567ffffffffffffffff8082111561394357600080fd5b61394f89838a016135f2565b9097509550602088013591508082111561396857600080fd5b50613975888289016135f2565b96999598509660400135949350505050565b60006020828403121561399957600080fd5b815161321f816140f7565b6000602082840312156139b657600080fd5b5035919050565b600080604083850312156139d057600080fd5b82359150602083013561370f816140e2565b6000602082840312156139f457600080fd5b81357bffffffffffffffffffffffffffffffffffffffffffffffffffffffff198116811461321f57600080fd5b60008060008060608587031215613a3757600080fd5b843567ffffffffffffffff80821115613a4f57600080fd5b908601906101608289031215613a6457600080fd5b909450602086013593506040860135908082111561390657600080fd5b60008060408385031215613a9457600080fd5b8235915060208084013567ffffffffffffffff80821115613ab457600080fd5b818601915086601f830112613ac857600080fd5b813581811115613ada57613ada61406a565b838102604051601f19603f83011681018181108582111715613afe57613afe61406a565b604052828152858101935084860182860187018b1015613b1d57600080fd5b600095505b83861015613b4757613b33816135e2565b855260019590950194938601938601613b22565b508096505050505050509250929050565b600080600060408486031215613b6d57600080fd5b83359250602084013567ffffffffffffffff811115613b8b57600080fd5b613b978682870161363d565b9497909650939450505050565b60008551613bb6818460208a01613fc1565b91909101938452506c01000000000000000000000000600160a060020a03928316810260208501529116026034820152604801919050565b7f416363657373436f6e74726f6c3a206163636f756e7420000000000000000000815260008351613c26816017850160208801613fc1565b7f206973206d697373696e6720726f6c65200000000000000000000000000000006017918401918201528351613c63816028840160208801613fc1565b01602801949350505050565b6020808252825182820181905260009190848201906040850190845b81811015613cb0578351600160a060020a031683529284019291840191600101613c8b565b50909695505050505050565b60006020808301818452808554808352604092508286019150866000528360002060005b82811015613d1f578154600160a060020a0390811685526001808401549091168786015260028301548686015260609094019360039092019101613ce0565b5091979650505050505050565b6020815260008251806020840152613d4b816040850160208701613fc1565b601f01601f19169190910160400192915050565b60208082526014908201527f5061757361626c653a206e6f7420706175736564000000000000000000000000604082015260600190565b60208082526010908201527f5061757361626c653a2070617573656400000000000000000000000000000000604082015260600190565b6020808252602e908201527f496e697469616c697a61626c653a20636f6e747261637420697320616c72656160408201527f647920696e697469616c697a6564000000000000000000000000000000000000606082015260800190565b60208082526026908201527f6576656e744964206d757374206265203e3d206f6c646573744c6f636b65644560408201527f76656e7449640000000000000000000000000000000000000000000000000000606082015260800190565b6000602080835260608084018551604080858801528282518085526080890191508684019450600093505b80841015613eef5784518051600160a060020a03908116845288820151168884015283015183830152938601936001939093019290850190613eb2565b5094909701519590960194909452509392505050565b6000808335601e19843603018112613f1c57600080fd5b83018035915067ffffffffffffffff821115613f3757600080fd5b602090810192508102360382131561363657600080fd5b60008219821115613f6157613f6161401f565b500190565b600082613f865760e060020a634e487b7102600052601260045260246000fd5b500490565b6000816000190483118215151615613fa557613fa561401f565b500290565b600082821015613fbc57613fbc61401f565b500390565b60005b83811015613fdc578181015183820152602001613fc4565b838111156110125750506000910152565b600081613ffc57613ffc61401f565b506000190190565b60006000198214156140185761401861401f565b5060010190565b60e060020a634e487b7102600052601160045260246000fd5b60e060020a634e487b7102600052603160045260246000fd5b60e060020a634e487b7102600052603260045260246000fd5b60e060020a634e487b7102600052604160045260246000fd5b813561408e816140e2565b8154600160a060020a031916600160a060020a0382161782555060208201356140b6816140e2565b600182018054600160a060020a031916600160a060020a03831617905550604082013560028201555050565b600160a060020a0381168114610eef57600080fd5b8015158114610eef57600080fdfea49807205ce4d355092ef5a8a18f56e8913cf4a201fbe287825b095693c21775a2646970667358221220cf7e1b29f91ece44de620352edb8c725f15b127a4b8b4f95fea6d0f7f282cfbe64736f6c63430008060033",
  "devdoc": {
    "kind": "dev",
    "methods": {
      "getRoleAdmin(bytes32)": {
        "details": "Returns the admin role that controls `role`. See {grantRole} and {revokeRole}. To change a role's admin, use {_setRoleAdmin}."
      },
      "grantRole(bytes32,address)": {
        "details": "Grants `role` to `account`. If `account` had not been already granted `role`, emits a {RoleGranted} event. Requirements: - the caller must have ``role``'s admin role."
      },
      "hasRole(bytes32,address)": {
        "details": "Returns `true` if `account` has been granted `role`."
      },
      "paused()": {
        "details": "Returns true if the contract is paused, and false otherwise."
      },
      "renounceRole(bytes32,address)": {
        "details": "Revokes `role` from the calling account. Roles are often managed via {grantRole} and {revokeRole}: this function's purpose is to provide a mechanism for accounts to lose their privileges if they are compromised (such as when a trusted device is misplaced). If the calling account had been granted `role`, emits a {RoleRevoked} event. Requirements: - the caller must be `account`."
      },
      "revokeRole(bytes32,address)": {
        "details": "Revokes `role` from `account`. If `account` had been granted `role`, emits a {RoleRevoked} event. Requirements: - the caller must have ``role``'s admin role."
      },
      "supportsInterface(bytes4)": {
        "details": "See {IERC165-supportsInterface}."
      },
      "withdraw(address,address,uint256,bool,bytes,uint256,uint256)": {
        "params": {
          "bridgeFee": "Amount (in native coins), payed as bridge earnings",
          "feeSignature": "Signature signed by relay that confirms that the fee values are valid",
          "transferFee": "Amount (in native coins), payed to compensate gas fees in side network"
        }
      },
      "wrapWithdraw(address,bytes,uint256,uint256)": {
        "params": {
          "bridgeFee": "Amount (in native coins), payed as bridge earnings",
          "feeSignature": "Signature signed by relay that confirms that the fee values are valid",
          "toAddress": "Address in side network that will receive the tokens",
          "transferFee": "Amount (in native coins), payed to compensate gas fees in side network"
        }
      }
    },
    "version": 1
  },
  "userdoc": {
    "kind": "user",
    "methods": {},
    "version": 1
  },
  "storageLayout": {
    "storage": [
      {
        "astId": 413,
        "contract": "contracts/networks/ETH_AmbBridge.sol:ETH_AmbBridge",
        "label": "_initialized",
        "offset": 0,
        "slot": "0",
        "type": "t_bool"
      },
      {
        "astId": 416,
        "contract": "contracts/networks/ETH_AmbBridge.sol:ETH_AmbBridge",
        "label": "_initializing",
        "offset": 1,
        "slot": "0",
        "type": "t_bool"
      },
      {
        "astId": 609,
        "contract": "contracts/networks/ETH_AmbBridge.sol:ETH_AmbBridge",
        "label": "__gap",
        "offset": 0,
        "slot": "1",
        "type": "t_array(t_uint256)50_storage"
      },
      {
        "astId": 858,
        "contract": "contracts/networks/ETH_AmbBridge.sol:ETH_AmbBridge",
        "label": "__gap",
        "offset": 0,
        "slot": "51",
        "type": "t_array(t_uint256)50_storage"
      },
      {
        "astId": 48,
        "contract": "contracts/networks/ETH_AmbBridge.sol:ETH_AmbBridge",
        "label": "_roles",
        "offset": 0,
        "slot": "101",
        "type": "t_mapping(t_bytes32,t_struct(RoleData)43_storage)"
      },
      {
        "astId": 333,
        "contract": "contracts/networks/ETH_AmbBridge.sol:ETH_AmbBridge",
        "label": "__gap",
        "offset": 0,
        "slot": "102",
        "type": "t_array(t_uint256)49_storage"
      },
      {
        "astId": 474,
        "contract": "contracts/networks/ETH_AmbBridge.sol:ETH_AmbBridge",
        "label": "_paused",
        "offset": 0,
        "slot": "151",
        "type": "t_bool"
      },
      {
        "astId": 565,
        "contract": "contracts/networks/ETH_AmbBridge.sol:ETH_AmbBridge",
        "label": "__gap",
        "offset": 0,
        "slot": "152",
        "type": "t_array(t_uint256)49_storage"
      },
      {
        "astId": 7223,
        "contract": "contracts/networks/ETH_AmbBridge.sol:ETH_AmbBridge",
        "label": "signatureFeeCheckNumber",
        "offset": 0,
        "slot": "201",
        "type": "t_uint256"
      },
      {
        "astId": 7227,
        "contract": "contracts/networks/ETH_AmbBridge.sol:ETH_AmbBridge",
        "label": "queue",
        "offset": 0,
        "slot": "202",
        "type": "t_array(t_struct(Transfer)8340_storage)dyn_storage"
      },
      {
        "astId": 7232,
        "contract": "contracts/networks/ETH_AmbBridge.sol:ETH_AmbBridge",
        "label": "lockedTransfers",
        "offset": 0,
        "slot": "203",
        "type": "t_mapping(t_uint256,t_struct(LockedTransfers)8357_storage)"
      },
      {
        "astId": 7234,
        "contract": "contracts/networks/ETH_AmbBridge.sol:ETH_AmbBridge",
        "label": "oldestLockedEventId",
        "offset": 0,
        "slot": "204",
        "type": "t_uint256"
      },
      {
        "astId": 7238,
        "contract": "contracts/networks/ETH_AmbBridge.sol:ETH_AmbBridge",
        "label": "tokenAddresses",
        "offset": 0,
        "slot": "205",
        "type": "t_mapping(t_address,t_address)"
      },
      {
        "astId": 7240,
        "contract": "contracts/networks/ETH_AmbBridge.sol:ETH_AmbBridge",
        "label": "wrapperAddress",
        "offset": 0,
        "slot": "206",
        "type": "t_address"
      },
      {
        "astId": 7242,
        "contract": "contracts/networks/ETH_AmbBridge.sol:ETH_AmbBridge",
        "label": "transferFeeRecipient",
        "offset": 0,
        "slot": "207",
        "type": "t_address_payable"
      },
      {
        "astId": 7244,
        "contract": "contracts/networks/ETH_AmbBridge.sol:ETH_AmbBridge",
        "label": "bridgeFeeRecipient",
        "offset": 0,
        "slot": "208",
        "type": "t_address_payable"
      },
      {
        "astId": 7246,
        "contract": "contracts/networks/ETH_AmbBridge.sol:ETH_AmbBridge",
        "label": "sideBridgeAddress",
        "offset": 0,
        "slot": "209",
        "type": "t_address"
      },
      {
        "astId": 7248,
        "contract": "contracts/networks/ETH_AmbBridge.sol:ETH_AmbBridge",
        "label": "minSafetyBlocks",
        "offset": 0,
        "slot": "210",
        "type": "t_uint256"
      },
      {
        "astId": 7250,
        "contract": "contracts/networks/ETH_AmbBridge.sol:ETH_AmbBridge",
        "label": "timeframeSeconds",
        "offset": 0,
        "slot": "211",
        "type": "t_uint256"
      },
      {
        "astId": 7252,
        "contract": "contracts/networks/ETH_AmbBridge.sol:ETH_AmbBridge",
        "label": "lockTime",
        "offset": 0,
        "slot": "212",
        "type": "t_uint256"
      },
      {
        "astId": 7254,
        "contract": "contracts/networks/ETH_AmbBridge.sol:ETH_AmbBridge",
        "label": "inputEventId",
        "offset": 0,
        "slot": "213",
        "type": "t_uint256"
      },
      {
        "astId": 7256,
        "contract": "contracts/networks/ETH_AmbBridge.sol:ETH_AmbBridge",
        "label": "outputEventId",
        "offset": 0,
        "slot": "214",
        "type": "t_uint256"
      },
      {
        "astId": 7258,
        "contract": "contracts/networks/ETH_AmbBridge.sol:ETH_AmbBridge",
        "label": "lastTimeframe",
        "offset": 0,
        "slot": "215",
        "type": "t_uint256"
      },
      {
        "astId": 8330,
        "contract": "contracts/networks/ETH_AmbBridge.sol:ETH_AmbBridge",
        "label": "__gap",
        "offset": 0,
        "slot": "216",
        "type": "t_array(t_uint256)15_storage"
      },
      {
        "astId": 6764,
        "contract": "contracts/networks/ETH_AmbBridge.sol:ETH_AmbBridge",
        "label": "confirmationsThreshold",
        "offset": 0,
        "slot": "231",
        "type": "t_uint256"
      },
      {
        "astId": 6770,
        "contract": "contracts/networks/ETH_AmbBridge.sol:ETH_AmbBridge",
        "label": "confirmations",
        "offset": 0,
        "slot": "232",
        "type": "t_mapping(t_bytes32,t_mapping(t_address,t_bool))"
      },
      {
        "astId": 6773,
        "contract": "contracts/networks/ETH_AmbBridge.sol:ETH_AmbBridge",
        "label": "relays",
        "offset": 0,
        "slot": "233",
        "type": "t_array(t_address)dyn_storage"
      },
      {
        "astId": 7163,
        "contract": "contracts/networks/ETH_AmbBridge.sol:ETH_AmbBridge",
        "label": "___gap",
        "offset": 0,
        "slot": "234",
        "type": "t_array(t_uint256)15_storage"
      }
    ],
    "types": {
      "t_address": {
        "encoding": "inplace",
        "label": "address",
        "numberOfBytes": "20"
      },
      "t_address_payable": {
        "encoding": "inplace",
        "label": "address payable",
        "numberOfBytes": "20"
      },
      "t_array(t_address)dyn_storage": {
        "base": "t_address",
        "encoding": "dynamic_array",
        "label": "address[]",
        "numberOfBytes": "32"
      },
      "t_array(t_struct(Transfer)8340_storage)dyn_storage": {
        "base": "t_struct(Transfer)8340_storage",
        "encoding": "dynamic_array",
        "label": "struct CommonStructs.Transfer[]",
        "numberOfBytes": "32"
      },
      "t_array(t_uint256)15_storage": {
        "base": "t_uint256",
        "encoding": "inplace",
        "label": "uint256[15]",
        "numberOfBytes": "480"
      },
      "t_array(t_uint256)49_storage": {
        "base": "t_uint256",
        "encoding": "inplace",
        "label": "uint256[49]",
        "numberOfBytes": "1568"
      },
      "t_array(t_uint256)50_storage": {
        "base": "t_uint256",
        "encoding": "inplace",
        "label": "uint256[50]",
        "numberOfBytes": "1600"
      },
      "t_bool": {
        "encoding": "inplace",
        "label": "bool",
        "numberOfBytes": "1"
      },
      "t_bytes32": {
        "encoding": "inplace",
        "label": "bytes32",
        "numberOfBytes": "32"
      },
      "t_mapping(t_address,t_address)": {
        "encoding": "mapping",
        "key": "t_address",
        "label": "mapping(address => address)",
        "numberOfBytes": "32",
        "value": "t_address"
      },
      "t_mapping(t_address,t_bool)": {
        "encoding": "mapping",
        "key": "t_address",
        "label": "mapping(address => bool)",
        "numberOfBytes": "32",
        "value": "t_bool"
      },
      "t_mapping(t_bytes32,t_mapping(t_address,t_bool))": {
        "encoding": "mapping",
        "key": "t_bytes32",
        "label": "mapping(bytes32 => mapping(address => bool))",
        "numberOfBytes": "32",
        "value": "t_mapping(t_address,t_bool)"
      },
      "t_mapping(t_bytes32,t_struct(RoleData)43_storage)": {
        "encoding": "mapping",
        "key": "t_bytes32",
        "label": "mapping(bytes32 => struct AccessControlUpgradeable.RoleData)",
        "numberOfBytes": "32",
        "value": "t_struct(RoleData)43_storage"
      },
      "t_mapping(t_uint256,t_struct(LockedTransfers)8357_storage)": {
        "encoding": "mapping",
        "key": "t_uint256",
        "label": "mapping(uint256 => struct CommonStructs.LockedTransfers)",
        "numberOfBytes": "32",
        "value": "t_struct(LockedTransfers)8357_storage"
      },
      "t_struct(LockedTransfers)8357_storage": {
        "encoding": "inplace",
        "label": "struct CommonStructs.LockedTransfers",
        "members": [
          {
            "astId": 8354,
            "contract": "contracts/networks/ETH_AmbBridge.sol:ETH_AmbBridge",
            "label": "transfers",
            "offset": 0,
            "slot": "0",
            "type": "t_array(t_struct(Transfer)8340_storage)dyn_storage"
          },
          {
            "astId": 8356,
            "contract": "contracts/networks/ETH_AmbBridge.sol:ETH_AmbBridge",
            "label": "endTimestamp",
            "offset": 0,
            "slot": "1",
            "type": "t_uint256"
          }
        ],
        "numberOfBytes": "64"
      },
      "t_struct(RoleData)43_storage": {
        "encoding": "inplace",
        "label": "struct AccessControlUpgradeable.RoleData",
        "members": [
          {
            "astId": 40,
            "contract": "contracts/networks/ETH_AmbBridge.sol:ETH_AmbBridge",
            "label": "members",
            "offset": 0,
            "slot": "0",
            "type": "t_mapping(t_address,t_bool)"
          },
          {
            "astId": 42,
            "contract": "contracts/networks/ETH_AmbBridge.sol:ETH_AmbBridge",
            "label": "adminRole",
            "offset": 0,
            "slot": "1",
            "type": "t_bytes32"
          }
        ],
        "numberOfBytes": "64"
      },
      "t_struct(Transfer)8340_storage": {
        "encoding": "inplace",
        "label": "struct CommonStructs.Transfer",
        "members": [
          {
            "astId": 8335,
            "contract": "contracts/networks/ETH_AmbBridge.sol:ETH_AmbBridge",
            "label": "tokenAddress",
            "offset": 0,
            "slot": "0",
            "type": "t_address"
          },
          {
            "astId": 8337,
            "contract": "contracts/networks/ETH_AmbBridge.sol:ETH_AmbBridge",
            "label": "toAddress",
            "offset": 0,
            "slot": "1",
            "type": "t_address"
          },
          {
            "astId": 8339,
            "contract": "contracts/networks/ETH_AmbBridge.sol:ETH_AmbBridge",
            "label": "amount",
            "offset": 0,
            "slot": "2",
            "type": "t_uint256"
          }
        ],
        "numberOfBytes": "96"
      },
      "t_uint256": {
        "encoding": "inplace",
        "label": "uint256",
        "numberOfBytes": "32"
      }
    }
  }
}