{
  "address": "0xff6e3Be37c376cd92607034B45D71027964e1fd3",
  "abi": [
    {
      "anonymous": false,
      "inputs": [
        {
          "indexed": false,
          "internalType": "address",
          "name": "account",
          "type": "address"
        }
      ],
      "name": "Paused",
      "type": "event"
    },
    {
      "anonymous": false,
      "inputs": [
        {
          "indexed": true,
          "internalType": "bytes32",
          "name": "role",
          "type": "bytes32"
        },
        {
          "indexed": true,
          "internalType": "bytes32",
          "name": "previousAdminRole",
          "type": "bytes32"
        },
        {
          "indexed": true,
          "internalType": "bytes32",
          "name": "newAdminRole",
          "type": "bytes32"
        }
      ],
      "name": "RoleAdminChanged",
      "type": "event"
    },
    {
      "anonymous": false,
      "inputs": [
        {
          "indexed": true,
          "internalType": "bytes32",
          "name": "role",
          "type": "bytes32"
        },
        {
          "indexed": true,
          "internalType": "address",
          "name": "account",
          "type": "address"
        },
        {
          "indexed": true,
          "internalType": "address",
          "name": "sender",
          "type": "address"
        }
      ],
      "name": "RoleGranted",
      "type": "event"
    },
    {
      "anonymous": false,
      "inputs": [
        {
          "indexed": true,
          "internalType": "bytes32",
          "name": "role",
          "type": "bytes32"
        },
        {
          "indexed": true,
          "internalType": "address",
          "name": "account",
          "type": "address"
        },
        {
          "indexed": true,
          "internalType": "address",
          "name": "sender",
          "type": "address"
        }
      ],
      "name": "RoleRevoked",
      "type": "event"
    },
    {
      "anonymous": false,
      "inputs": [
        {
          "indexed": true,
          "internalType": "uint256",
          "name": "eventId",
          "type": "uint256"
        },
        {
          "components": [
            {
              "internalType": "address",
              "name": "tokenAddress",
              "type": "address"
            },
            {
              "internalType": "address",
              "name": "toAddress",
              "type": "address"
            },
            {
              "internalType": "uint256",
              "name": "amount",
              "type": "uint256"
            }
          ],
          "indexed": false,
          "internalType": "struct CommonStructs.Transfer[]",
          "name": "queue",
          "type": "tuple[]"
        }
      ],
      "name": "Transfer",
      "type": "event"
    },
    {
      "anonymous": false,
      "inputs": [
        {
          "indexed": true,
          "internalType": "uint256",
          "name": "eventId",
          "type": "uint256"
        }
      ],
      "name": "TransferFinish",
      "type": "event"
    },
    {
      "anonymous": false,
      "inputs": [
        {
          "indexed": true,
          "internalType": "uint256",
          "name": "eventId",
          "type": "uint256"
        }
      ],
      "name": "TransferSubmit",
      "type": "event"
    },
    {
      "anonymous": false,
      "inputs": [
        {
          "indexed": false,
          "internalType": "address",
          "name": "account",
          "type": "address"
        }
      ],
      "name": "Unpaused",
      "type": "event"
    },
    {
      "anonymous": false,
      "inputs": [
        {
          "indexed": true,
          "internalType": "address",
          "name": "from",
          "type": "address"
        },
        {
          "indexed": false,
          "internalType": "uint256",
          "name": "eventId",
          "type": "uint256"
        },
        {
          "indexed": false,
          "internalType": "address",
          "name": "tokenFrom",
          "type": "address"
        },
        {
          "indexed": false,
          "internalType": "address",
          "name": "tokenTo",
          "type": "address"
        },
        {
          "indexed": false,
          "internalType": "uint256",
          "name": "amount",
          "type": "uint256"
        },
        {
          "indexed": false,
          "internalType": "uint256",
          "name": "transferFeeAmount",
          "type": "uint256"
        },
        {
          "indexed": false,
          "internalType": "uint256",
          "name": "bridgeFeeAmount",
          "type": "uint256"
        }
      ],
      "name": "Withdraw",
      "type": "event"
    },
    {
      "inputs": [],
      "name": "ADMIN_ROLE",
      "outputs": [
        {
          "internalType": "bytes32",
          "name": "",
          "type": "bytes32"
        }
      ],
      "stateMutability": "view",
      "type": "function"
    },
    {
      "inputs": [],
      "name": "DEFAULT_ADMIN_ROLE",
      "outputs": [
        {
          "internalType": "bytes32",
          "name": "",
          "type": "bytes32"
        }
      ],
      "stateMutability": "view",
      "type": "function"
    },
    {
      "inputs": [],
      "name": "RELAY_ROLE",
      "outputs": [
        {
          "internalType": "bytes32",
          "name": "",
          "type": "bytes32"
        }
      ],
      "stateMutability": "view",
      "type": "function"
    },
    {
      "inputs": [
        {
          "internalType": "address payable",
          "name": "feeRecipient_",
          "type": "address"
        }
      ],
      "name": "changeBridgeFeeRecipient",
      "outputs": [],
      "stateMutability": "nonpayable",
      "type": "function"
    },
    {
      "inputs": [
        {
          "internalType": "uint256",
          "name": "lockTime_",
          "type": "uint256"
        }
      ],
      "name": "changeLockTime",
      "outputs": [],
      "stateMutability": "nonpayable",
      "type": "function"
    },
    {
      "inputs": [
        {
          "internalType": "uint256",
          "name": "minSafetyBlocks_",
          "type": "uint256"
        }
      ],
      "name": "changeMinSafetyBlocks",
      "outputs": [],
      "stateMutability": "nonpayable",
      "type": "function"
    },
    {
      "inputs": [
        {
          "internalType": "uint256",
          "name": "signatureFeeCheckNumber_",
          "type": "uint256"
        }
      ],
      "name": "changeSignatureFeeCheckNumber",
      "outputs": [],
      "stateMutability": "nonpayable",
      "type": "function"
    },
    {
      "inputs": [
        {
          "internalType": "uint256",
          "name": "timeframeSeconds_",
          "type": "uint256"
        }
      ],
      "name": "changeTimeframeSeconds",
      "outputs": [],
      "stateMutability": "nonpayable",
      "type": "function"
    },
    {
      "inputs": [
        {
          "internalType": "address payable",
          "name": "feeRecipient_",
          "type": "address"
        }
      ],
      "name": "changeTransferFeeRecipient",
      "outputs": [],
      "stateMutability": "nonpayable",
      "type": "function"
    },
    {
      "inputs": [],
      "name": "currentEpoch",
      "outputs": [
        {
          "internalType": "uint256",
          "name": "",
          "type": "uint256"
        }
      ],
      "stateMutability": "view",
      "type": "function"
    },
    {
      "inputs": [
        {
          "internalType": "uint256",
          "name": "eventId",
          "type": "uint256"
        }
      ],
      "name": "getLockedTransfers",
      "outputs": [
        {
          "components": [
            {
              "components": [
                {
                  "internalType": "address",
                  "name": "tokenAddress",
                  "type": "address"
                },
                {
                  "internalType": "address",
                  "name": "toAddress",
                  "type": "address"
                },
                {
                  "internalType": "uint256",
                  "name": "amount",
                  "type": "uint256"
                }
              ],
              "internalType": "struct CommonStructs.Transfer[]",
              "name": "transfers",
              "type": "tuple[]"
            },
            {
              "internalType": "uint256",
              "name": "endTimestamp",
              "type": "uint256"
            }
          ],
          "internalType": "struct CommonStructs.LockedTransfers",
          "name": "",
          "type": "tuple"
        }
      ],
      "stateMutability": "view",
      "type": "function"
    },
    {
      "inputs": [
        {
          "internalType": "bytes32",
          "name": "role",
          "type": "bytes32"
        }
      ],
      "name": "getRoleAdmin",
      "outputs": [
        {
          "internalType": "bytes32",
          "name": "",
          "type": "bytes32"
        }
      ],
      "stateMutability": "view",
      "type": "function"
    },
    {
      "inputs": [
        {
          "internalType": "bytes32",
          "name": "role",
          "type": "bytes32"
        },
        {
          "internalType": "address",
          "name": "account",
          "type": "address"
        }
      ],
      "name": "grantRole",
      "outputs": [],
      "stateMutability": "nonpayable",
      "type": "function"
    },
    {
      "inputs": [
        {
          "internalType": "bytes32",
          "name": "role",
          "type": "bytes32"
        },
        {
          "internalType": "address",
          "name": "account",
          "type": "address"
        }
      ],
      "name": "hasRole",
      "outputs": [
        {
          "internalType": "bool",
          "name": "",
          "type": "bool"
        }
      ],
      "stateMutability": "view",
      "type": "function"
    },
    {
      "inputs": [
        {
          "components": [
            {
              "internalType": "address",
              "name": "sideBridgeAddress",
              "type": "address"
            },
            {
              "internalType": "address",
              "name": "adminAddress",
              "type": "address"
            },
            {
              "internalType": "address",
              "name": "relayAddress",
              "type": "address"
            },
            {
              "internalType": "address",
              "name": "wrappingTokenAddress",
              "type": "address"
            },
            {
              "internalType": "address[]",
              "name": "tokenThisAddresses",
              "type": "address[]"
            },
            {
              "internalType": "address[]",
              "name": "tokenSideAddresses",
              "type": "address[]"
            },
            {
              "internalType": "address payable",
              "name": "transferFeeRecipient",
              "type": "address"
            },
            {
              "internalType": "address payable",
              "name": "bridgeFeeRecipient",
              "type": "address"
            },
            {
              "internalType": "uint256",
              "name": "timeframeSeconds",
              "type": "uint256"
            },
            {
              "internalType": "uint256",
              "name": "lockTime",
              "type": "uint256"
            },
            {
              "internalType": "uint256",
              "name": "minSafetyBlocks",
              "type": "uint256"
            }
          ],
          "internalType": "struct CommonStructs.ConstructorArgs",
          "name": "args",
          "type": "tuple"
        },
        {
          "internalType": "address[]",
          "name": "initialValidators",
          "type": "address[]"
        },
        {
          "internalType": "uint256",
          "name": "initialEpoch",
          "type": "uint256"
        },
        {
          "internalType": "bytes1",
          "name": "chainId",
          "type": "bytes1"
        }
      ],
      "name": "initialize",
      "outputs": [],
      "stateMutability": "nonpayable",
      "type": "function"
    },
    {
      "inputs": [],
      "name": "inputEventId",
      "outputs": [
        {
          "internalType": "uint256",
          "name": "",
          "type": "uint256"
        }
      ],
      "stateMutability": "view",
      "type": "function"
    },
    {
      "inputs": [],
      "name": "isQueueEmpty",
      "outputs": [
        {
          "internalType": "bool",
          "name": "",
          "type": "bool"
        }
      ],
      "stateMutability": "view",
      "type": "function"
    },
    {
      "inputs": [],
      "name": "lastTimeframe",
      "outputs": [
        {
          "internalType": "uint256",
          "name": "",
          "type": "uint256"
        }
      ],
      "stateMutability": "view",
      "type": "function"
    },
    {
      "inputs": [],
      "name": "lockTime",
      "outputs": [
        {
          "internalType": "uint256",
          "name": "",
          "type": "uint256"
        }
      ],
      "stateMutability": "view",
      "type": "function"
    },
    {
      "inputs": [
        {
          "internalType": "uint256",
          "name": "",
          "type": "uint256"
        }
      ],
      "name": "lockedTransfers",
      "outputs": [
        {
          "internalType": "uint256",
          "name": "endTimestamp",
          "type": "uint256"
        }
      ],
      "stateMutability": "view",
      "type": "function"
    },
    {
      "inputs": [],
      "name": "minSafetyBlocks",
      "outputs": [
        {
          "internalType": "uint256",
          "name": "",
          "type": "uint256"
        }
      ],
      "stateMutability": "view",
      "type": "function"
    },
    {
      "inputs": [],
      "name": "oldestLockedEventId",
      "outputs": [
        {
          "internalType": "uint256",
          "name": "",
          "type": "uint256"
        }
      ],
      "stateMutability": "view",
      "type": "function"
    },
    {
      "inputs": [],
      "name": "pause",
      "outputs": [],
      "stateMutability": "nonpayable",
      "type": "function"
    },
    {
      "inputs": [],
      "name": "paused",
      "outputs": [
        {
          "internalType": "bool",
          "name": "",
          "type": "bool"
        }
      ],
      "stateMutability": "view",
      "type": "function"
    },
    {
      "inputs": [
        {
          "internalType": "uint256",
          "name": "eventId",
          "type": "uint256"
        }
      ],
      "name": "removeLockedTransfers",
      "outputs": [],
      "stateMutability": "nonpayable",
      "type": "function"
    },
    {
      "inputs": [
        {
          "internalType": "bytes32",
          "name": "role",
          "type": "bytes32"
        },
        {
          "internalType": "address",
          "name": "account",
          "type": "address"
        }
      ],
      "name": "renounceRole",
      "outputs": [],
      "stateMutability": "nonpayable",
      "type": "function"
    },
    {
      "inputs": [
        {
          "internalType": "bytes32",
          "name": "role",
          "type": "bytes32"
        },
        {
          "internalType": "address",
          "name": "account",
          "type": "address"
        }
      ],
      "name": "revokeRole",
      "outputs": [],
      "stateMutability": "nonpayable",
      "type": "function"
    },
    {
      "inputs": [
        {
          "internalType": "address",
          "name": "_sideBridgeAddress",
          "type": "address"
        }
      ],
      "name": "setSideBridge",
      "outputs": [],
      "stateMutability": "nonpayable",
      "type": "function"
    },
    {
      "inputs": [],
      "name": "sideBridgeAddress",
      "outputs": [
        {
          "internalType": "address",
          "name": "",
          "type": "address"
        }
      ],
      "stateMutability": "view",
      "type": "function"
    },
    {
      "inputs": [
        {
          "components": [
            {
              "components": [
                {
                  "internalType": "bytes3",
                  "name": "p0Signed",
                  "type": "bytes3"
                },
                {
                  "internalType": "bytes3",
                  "name": "p0Unsigned",
                  "type": "bytes3"
                },
                {
                  "internalType": "bytes32",
                  "name": "parentHash",
                  "type": "bytes32"
                },
                {
                  "internalType": "bytes",
                  "name": "p1",
                  "type": "bytes"
                },
                {
                  "internalType": "bytes32",
                  "name": "receiptHash",
                  "type": "bytes32"
                },
                {
                  "internalType": "bytes",
                  "name": "p2",
                  "type": "bytes"
                },
                {
                  "internalType": "bytes",
                  "name": "number",
                  "type": "bytes"
                },
                {
                  "internalType": "bytes",
                  "name": "p3",
                  "type": "bytes"
                },
                {
                  "internalType": "bytes",
                  "name": "p4Signed",
                  "type": "bytes"
                },
                {
                  "internalType": "bytes",
                  "name": "p4Unsigned",
                  "type": "bytes"
                },
                {
                  "internalType": "bytes",
                  "name": "extraData",
                  "type": "bytes"
                },
                {
                  "internalType": "bytes",
                  "name": "p5",
                  "type": "bytes"
                }
              ],
              "internalType": "struct CheckPoSA.BlockPoSA[]",
              "name": "blocks",
              "type": "tuple[]"
            },
            {
              "components": [
                {
                  "internalType": "bytes[]",
                  "name": "receiptProof",
                  "type": "bytes[]"
                },
                {
                  "internalType": "uint256",
                  "name": "eventId",
                  "type": "uint256"
                },
                {
                  "components": [
                    {
                      "internalType": "address",
                      "name": "tokenAddress",
                      "type": "address"
                    },
                    {
                      "internalType": "address",
                      "name": "toAddress",
                      "type": "address"
                    },
                    {
                      "internalType": "uint256",
                      "name": "amount",
                      "type": "uint256"
                    }
                  ],
                  "internalType": "struct CommonStructs.Transfer[]",
                  "name": "transfers",
                  "type": "tuple[]"
                }
              ],
              "internalType": "struct CommonStructs.TransferProof",
              "name": "transfer",
              "type": "tuple"
            },
            {
              "internalType": "uint64",
              "name": "transferEventBlock",
              "type": "uint64"
            }
          ],
          "internalType": "struct CheckPoSA.PoSAProof",
          "name": "posaProof",
          "type": "tuple"
        }
      ],
      "name": "submitTransferPoSA",
      "outputs": [],
      "stateMutability": "nonpayable",
      "type": "function"
    },
    {
      "inputs": [
        {
          "components": [
            {
              "components": [
                {
                  "internalType": "bytes3",
                  "name": "p0Signed",
                  "type": "bytes3"
                },
                {
                  "internalType": "bytes3",
                  "name": "p0Unsigned",
                  "type": "bytes3"
                },
                {
                  "internalType": "bytes32",
                  "name": "parentHash",
                  "type": "bytes32"
                },
                {
                  "internalType": "bytes",
                  "name": "p1",
                  "type": "bytes"
                },
                {
                  "internalType": "bytes32",
                  "name": "receiptHash",
                  "type": "bytes32"
                },
                {
                  "internalType": "bytes",
                  "name": "p2",
                  "type": "bytes"
                },
                {
                  "internalType": "bytes",
                  "name": "number",
                  "type": "bytes"
                },
                {
                  "internalType": "bytes",
                  "name": "p3",
                  "type": "bytes"
                },
                {
                  "internalType": "bytes",
                  "name": "p4Signed",
                  "type": "bytes"
                },
                {
                  "internalType": "bytes",
                  "name": "p4Unsigned",
                  "type": "bytes"
                },
                {
                  "internalType": "bytes",
                  "name": "extraData",
                  "type": "bytes"
                },
                {
                  "internalType": "bytes",
                  "name": "p5",
                  "type": "bytes"
                }
              ],
              "internalType": "struct CheckPoSA.BlockPoSA[]",
              "name": "blocks",
              "type": "tuple[]"
            },
            {
              "components": [
                {
                  "internalType": "bytes[]",
                  "name": "receiptProof",
                  "type": "bytes[]"
                },
                {
                  "internalType": "uint256",
                  "name": "eventId",
                  "type": "uint256"
                },
                {
                  "components": [
                    {
                      "internalType": "address",
                      "name": "tokenAddress",
                      "type": "address"
                    },
                    {
                      "internalType": "address",
                      "name": "toAddress",
                      "type": "address"
                    },
                    {
                      "internalType": "uint256",
                      "name": "amount",
                      "type": "uint256"
                    }
                  ],
                  "internalType": "struct CommonStructs.Transfer[]",
                  "name": "transfers",
                  "type": "tuple[]"
                }
              ],
              "internalType": "struct CommonStructs.TransferProof",
              "name": "transfer",
              "type": "tuple"
            },
            {
              "internalType": "uint64",
              "name": "transferEventBlock",
              "type": "uint64"
            }
          ],
          "internalType": "struct CheckPoSA.PoSAProof",
          "name": "posaProof",
          "type": "tuple"
        }
      ],
      "name": "submitValidatorSetChangesPoSA",
      "outputs": [],
      "stateMutability": "nonpayable",
      "type": "function"
    },
    {
      "inputs": [
        {
          "internalType": "bytes4",
          "name": "interfaceId",
          "type": "bytes4"
        }
      ],
      "name": "supportsInterface",
      "outputs": [
        {
          "internalType": "bool",
          "name": "",
          "type": "bool"
        }
      ],
      "stateMutability": "view",
      "type": "function"
    },
    {
      "inputs": [],
      "name": "timeframeSeconds",
      "outputs": [
        {
          "internalType": "uint256",
          "name": "",
          "type": "uint256"
        }
      ],
      "stateMutability": "view",
      "type": "function"
    },
    {
      "inputs": [
        {
          "internalType": "address",
          "name": "",
          "type": "address"
        }
      ],
      "name": "tokenAddresses",
      "outputs": [
        {
          "internalType": "address",
          "name": "",
          "type": "address"
        }
      ],
      "stateMutability": "view",
      "type": "function"
    },
    {
      "inputs": [
        {
          "internalType": "address",
          "name": "tokenThisAddress",
          "type": "address"
        },
        {
          "internalType": "address",
          "name": "tokenSideAddress",
          "type": "address"
        }
      ],
      "name": "tokensAdd",
      "outputs": [],
      "stateMutability": "nonpayable",
      "type": "function"
    },
    {
      "inputs": [
        {
          "internalType": "address[]",
          "name": "tokenThisAddresses",
          "type": "address[]"
        },
        {
          "internalType": "address[]",
          "name": "tokenSideAddresses",
          "type": "address[]"
        }
      ],
      "name": "tokensAddBatch",
      "outputs": [],
      "stateMutability": "nonpayable",
      "type": "function"
    },
    {
      "inputs": [
        {
          "internalType": "address",
          "name": "tokenThisAddress",
          "type": "address"
        }
      ],
      "name": "tokensRemove",
      "outputs": [],
      "stateMutability": "nonpayable",
      "type": "function"
    },
    {
      "inputs": [
        {
          "internalType": "address[]",
          "name": "tokenThisAddresses",
          "type": "address[]"
        }
      ],
      "name": "tokensRemoveBatch",
      "outputs": [],
      "stateMutability": "nonpayable",
      "type": "function"
    },
    {
      "inputs": [],
      "name": "triggerTransfers",
      "outputs": [],
      "stateMutability": "nonpayable",
      "type": "function"
    },
    {
      "inputs": [
        {
          "internalType": "uint256",
          "name": "eventId",
          "type": "uint256"
        }
      ],
      "name": "unlockTransfers",
      "outputs": [],
      "stateMutability": "nonpayable",
      "type": "function"
    },
    {
      "inputs": [],
      "name": "unlockTransfersBatch",
      "outputs": [],
      "stateMutability": "nonpayable",
      "type": "function"
    },
    {
      "inputs": [],
      "name": "unpause",
      "outputs": [],
      "stateMutability": "nonpayable",
      "type": "function"
    },
    {
      "inputs": [
        {
          "internalType": "address",
          "name": "tokenThisAddress",
          "type": "address"
        },
        {
          "internalType": "address",
          "name": "toAddress",
          "type": "address"
        },
        {
          "internalType": "uint256",
          "name": "amount",
          "type": "uint256"
        },
        {
          "internalType": "bool",
          "name": "unwrapSide",
          "type": "bool"
        },
        {
          "internalType": "bytes",
          "name": "signature",
          "type": "bytes"
        },
        {
          "internalType": "uint256",
          "name": "transferFee",
          "type": "uint256"
        },
        {
          "internalType": "uint256",
          "name": "bridgeFee",
          "type": "uint256"
        }
      ],
      "name": "withdraw",
      "outputs": [],
      "stateMutability": "payable",
      "type": "function"
    },
    {
      "inputs": [
        {
          "internalType": "address",
          "name": "toAddress",
          "type": "address"
        },
        {
          "internalType": "bytes",
          "name": "signature",
          "type": "bytes"
        },
        {
          "internalType": "uint256",
          "name": "transferFee",
          "type": "uint256"
        },
        {
          "internalType": "uint256",
          "name": "bridgeFee",
          "type": "uint256"
        }
      ],
      "name": "wrapWithdraw",
      "outputs": [],
      "stateMutability": "payable",
      "type": "function"
    },
    {
      "inputs": [],
      "name": "wrapperAddress",
      "outputs": [
        {
          "internalType": "address",
          "name": "",
          "type": "address"
        }
      ],
      "stateMutability": "view",
      "type": "function"
    },
    {
      "stateMutability": "payable",
      "type": "receive"
    }
  ],
  "transactionHash": "0xd3a6db5bb9301fc03f49b16b0cc4329511a1115c1e9068c58526cc326b74bd8d",
  "args": [],
  "numDeployments": 1,
  "solcInputHash": "ca5cb1f2680146d203ee58c087a2adbd",
  "bytecode": "0x608060405234801561001057600080fd5b50614682806100206000396000f3fe60806040526004361061027a5760003560e060020a90048063853890ae11610153578063b6d3385e116100c5578063e31be0871161007e578063e31be08714610741578063f33fe10f1461076e578063f70055871461078e578063f862b7eb146107ae578063f8b74433146107ce578063fd5d2ef3146107e157600080fd5b8063b6d3385e1461067f578063b87330e9146106b5578063ba8bbbe0146106d5578063baeebe75146106eb578063d547741f14610701578063d83a358f1461072157600080fd5b806391d148541161011757806391d14854146105de578063924cf6e0146105fe57806396cf52271461061457806399b5bb6414610634578063a217fddf1461064a578063aa9cea381461065f57600080fd5b8063853890ae1461056057806386d7679e146105805780638ac1f86f146105965780638e5df9c7146105ab57806391c5bc0a146105cb57600080fd5b80633928b296116101ec5780635c975abb116101b05780635c975abb146104ae578063746b5c42146104c657806375b238fc146104db57806376671808146104fd5780637df8b802146105135780638456cb591461054b57600080fd5b80633928b296146104095780633f4ba83a1461042957806342180fb81461043e5780634a1856de1461045e5780635249a7051461048e57600080fd5b8063248a9ca31161023e578063248a9ca31461034357806329a9659d146103735780632bbba847146103935780632f2ff15d146103a9578063331a891a146103c957806336568abe146103e957600080fd5b806301ffc9a71461028657806304421823146102bb57806309fce356146102eb5780630d6680871461030d57806321d3d5361461032357600080fd5b3661028157005b600080fd5b34801561029257600080fd5b506102a66102a1366004613a64565b610801565b60405190151581526020015b60405180910390f35b3480156102c757600080fd5b506102dd60008051602061460d83398151915281565b6040519081526020016102b2565b3480156102f757600080fd5b5061030b610306366004613965565b610894565b005b34801561031957600080fd5b506102dd60d35481565b34801561032f57600080fd5b5061030b61033e3660046137df565b6108bc565b34801561034f57600080fd5b506102dd61035e366004613a26565b60009081526065602052604090206001015490565b34801561037f57600080fd5b5061030b61038e366004613aa3565b61094c565b34801561039f57600080fd5b5060c954156102a6565b3480156103b557600080fd5b5061030b6103c4366004613a3f565b6109d3565b3480156103d557600080fd5b5061030b6103e4366004613a26565b6109f9565b3480156103f557600080fd5b5061030b610404366004613a3f565b610b40565b34801561041557600080fd5b5061030b6104243660046137df565b610bcf565b34801561043557600080fd5b5061030b610c0b565b34801561044a57600080fd5b5061030b610459366004613a26565b610c2f565b34801561046a57600080fd5b506102dd610479366004613a26565b60ca6020526000908152604090206001015481565b34801561049a57600080fd5b5061030b6104a9366004613930565b610c6c565b3480156104ba57600080fd5b5060975460ff166102a6565b3480156104d257600080fd5b5061030b610cf1565b3480156104e757600080fd5b506102dd60008051602061462d83398151915281565b34801561050957600080fd5b506102dd60e85481565b34801561051f57600080fd5b5060cd5461053390600160a060020a031681565b604051600160a060020a0390911681526020016102b2565b34801561055757600080fd5b5061030b610d9d565b34801561056c57600080fd5b5061030b61057b3660046137fc565b610dbe565b34801561058c57600080fd5b506102dd60d65481565b3480156105a257600080fd5b5061030b610e06565b3480156105b757600080fd5b5061030b6105c63660046137df565b610f5e565b61030b6105d93660046138c9565b610f9f565b3480156105ea57600080fd5b506102a66105f9366004613a3f565b6112cf565b34801561060a57600080fd5b506102dd60d15481565b34801561062057600080fd5b5061030b61062f366004613a26565b6112fa565b34801561064057600080fd5b506102dd60d45481565b34801561065657600080fd5b506102dd600081565b34801561066b57600080fd5b5061030b61067a366004613bfe565b611319565b34801561068b57600080fd5b5061053361069a3660046137df565b60cc60205260009081526040902054600160a060020a031681565b3480156106c157600080fd5b5061030b6106d03660046137df565b611450565b3480156106e157600080fd5b506102dd60cb5481565b3480156106f757600080fd5b506102dd60d25481565b34801561070d57600080fd5b5061030b61071c366004613a3f565b61148c565b34801561072d57600080fd5b5061030b61073c366004613bfe565b6114b2565b34801561074d57600080fd5b5061076161075c366004613a26565b611575565b6040516102b29190614106565b34801561077a57600080fd5b5060d05461053390600160a060020a031681565b34801561079a57600080fd5b5061030b6107a9366004613a26565b611631565b3480156107ba57600080fd5b5061030b6107c9366004613a26565b611650565b61030b6107dc366004613835565b611883565b3480156107ed57600080fd5b5061030b6107fc366004613a26565b611ce3565b60007bffffffffffffffffffffffffffffffffffffffffffffffffffffffff1982167f7965db0b00000000000000000000000000000000000000000000000000000000148061088e57507f01ffc9a7000000000000000000000000000000000000000000000000000000007bffffffffffffffffffffffffffffffffffffffffffffffffffffffff198316145b92915050565b60008051602061462d8339815191526108ad8133611d02565b6108b78383611d69565b505050565b60006108c88133611d02565b60d054600160a060020a0316156109295760405160e560020a62461bcd02815260206004820152601d60248201527f736964654272696467654164647265737320616c72656164792073657400000060448201526064015b60405180910390fd5b5060d08054600160a060020a031916600160a060020a0392909216919091179055565b600054610100900460ff1680610965575060005460ff16155b6109845760405160e560020a62461bcd028152600401610920906140a9565b600054610100900460ff161580156109a6576000805461ffff19166101011790555b6109af85611e7f565b6109ba848484611fd9565b80156109cc576000805461ff00191690555b5050505050565b6000828152606560205260409020600101546109ef8133611d02565b6108b7838361215c565b60008051602061462d833981519152610a128133611d02565b60975460ff16610a675760405160e560020a62461bcd02815260206004820152601460248201527f5061757361626c653a206e6f74207061757365640000000000000000000000006044820152606401610920565b60cb54821015610ae25760405160e560020a62461bcd02815260206004820152602660248201527f6576656e744964206d757374206265203e3d206f6c646573744c6f636b65644560448201527f76656e74496400000000000000000000000000000000000000000000000000006064820152608401610920565b600082815260ca602052604090206001015415610b2e57600082815260ca6020526040812090610b1282826135e0565b5060006001919091015581610b2681614556565b925050610ae2565b610b3960018361435f565b60d4555050565b600160a060020a0381163314610bc15760405160e560020a62461bcd02815260206004820152602f60248201527f416363657373436f6e74726f6c3a2063616e206f6e6c792072656e6f756e636560448201527f20726f6c657320666f722073656c6600000000000000000000000000000000006064820152608401610920565b610bcb82826121e2565b5050565b60008051602061462d833981519152610be88133611d02565b5060cf8054600160a060020a031916600160a060020a0392909216919091179055565b60008051602061462d833981519152610c248133611d02565b610c2c612249565b50565b60008051602061462d833981519152610c488133611d02565b8160d25460d654610c599190614340565b610c63919061432c565b60d6555060d255565b60008051602061462d833981519152610c858133611d02565b815160005b81811015610ceb5760cc6000858381518110610ca857610ca86145b7565b602090810291909101810151600160a060020a031682528101919091526040016000208054600160a060020a031916905580610ce381614556565b915050610c8a565b50505050565b60c954610d435760405160e560020a62461bcd02815260206004820152600e60248201527f517565756520697320656d7074790000000000000000000000000000000000006044820152606401610920565b60d58054906000610d5383614556565b919050557fe15729a2f427aa4572dab35eb692c902fcbce57d41642013259c741380809ae260c9604051610d879190613fcf565b60405180910390a2610d9b60c960006135e0565b565b60008051602061462d833981519152610db68133611d02565b610c2c6122e8565b60008051602061462d833981519152610dd78133611d02565b50600160a060020a03918216600090815260cc602052604090208054600160a060020a03191691909216179055565b60975460ff1615610e2c5760405160e560020a62461bcd02815260040161092090614072565b60cb545b600081815260ca60209081526040808320815181546060948102820185018452928101838152909391928492849190879085015b82821015610ebe57600084815260209081902060408051606081018252600386029092018054600160a060020a03908116845260018083015490911684860152600290910154918301919091529083529092019101610e64565b5050505081526020016001820154815250509050806020015160001480610ee85750428160200151115b15610ef3575060cb55565b8051610efe90612343565b600082815260ca6020526040812090610f1782826135e0565b50600060019190910181905560405183917f78ff9b3176bb0d6421590f3816e75cb15a9ffa2b7a1a028f40a3f4e029eb39f291a25080610f5681614556565b915050610e30565b60008051602061462d833981519152610f778133611d02565b50600160a060020a0316600090815260cc602052604090208054600160a060020a0319169055565b60cd54600160a060020a03908116600090815260cc6020526040902054168061100d5760405160e560020a62461bcd02815260206004820152601560248201527f556e6b6e6f776e20746f6b656e206164647265737300000000000000000000006044820152606401610920565b6110178284614314565b34116110685760405160e560020a62461bcd02815260206004820152601160248201527f53656e742076616c7565203c3d206665650000000000000000000000000000006044820152606401610920565b600082611075853461435f565b61107f919061435f565b60cd5490915061109c90600160a060020a031687878787866125d7565b60ce54604051600160a060020a039091169085156108fc029086906000818181858888f193505050501580156110d6573d6000803e3d6000fd5b5060cf54604051600160a060020a039091169084156108fc029085906000818181858888f19350505050158015611111573d6000803e3d6000fd5b5060cd60009054906101000a9004600160a060020a0316600160a060020a031663d0e30db0826040518263ffffffff1660e060020a0281526004016000604051808303818588803b15801561116557600080fd5b505af1158015611179573d6000803e3d6000fd5b505060408051606081018252600160a060020a0380881682528c81166020830190815282840188815260c980546001810182556000918252945160039095027f66be4f155c5ef2ebd3772b228f2f00681e4ed5826cdb3b1943cc11ad15ad1d2881018054968616600160a060020a031997881617905592517f66be4f155c5ef2ebd3772b228f2f00681e4ed5826cdb3b1943cc11ad15ad1d29840180549190951695169490941790925590517f66be4f155c5ef2ebd3772b228f2f00681e4ed5826cdb3b1943cc11ad15ad1d2a9091015560d55491513395507f3b823d3b837159352faddd1e0b9e9f584ca2bfe976238f6a9e6da4615cf2f44494506112b69350879087908b908b90958652600160a060020a0394851660208701529290931660408501526060840152608083019190915260a082015260c00190565b60405180910390a26112c6612772565b50505050505050565b6000918252606560209081526040808420600160a060020a0393909316845291905290205460ff1690565b60008051602061462d8339815191526113138133611d02565b5060d355565b60008051602061460d8339815191526113328133611d02565b60975460ff16156113585760405160e560020a62461bcd02815260040161092090614072565b6113656020830183614232565b602001357f196c47048e38df7a4fe6e581c8f4f2e2ba67ac0dd45b90da756e97bd61d9dd3b60405160405180910390a26113ae6113a56020840184614232565b602001356127ea565b60d15460d0546113c8918491600160a060020a031661284f565b610bcb6113d86020840184614232565b6113e6906040810190614181565b808060200260200160405190810160405280939291908181526020016000905b828210156114325761142360608302860136819003810190613c39565b81526020019060010190611406565b50505050508380602001906114479190614232565b60200135612c35565b60008051602061462d8339815191526114698133611d02565b5060ce8054600160a060020a031916600160a060020a0392909216919091179055565b6000828152606560205260409020600101546114a88133611d02565b6108b783836121e2565b60008051602061460d8339815191526114cb8133611d02565b60975460ff16156114f15760405160e560020a62461bcd02815260040161092090614072565b6115016060830160408401613c55565b67ffffffffffffffff161561155b5760405160e560020a62461bcd02815260206004820152601e60248201527f5472616e73666572206576656e7420626c6f636b206d757374206265203000006044820152606401610920565b60d15460d054610bcb918491600160a060020a031661284f565b604080518082019091526060815260006020820152600082815260ca60209081526040808320815181546060948102820185018452928101838152909491938593919285929185015b8282101561161857600084815260209081902060408051606081018252600386029092018054600160a060020a039081168452600180830154909116848601526002909101549183019190915290835290920191016115be565b5050505081526020016001820154815250509050919050565b60008051602061462d83398151915261164a8133611d02565b5060d755565b60975460ff16156116765760405160e560020a62461bcd02815260040161092090614072565b60cb5481146116ca5760405160e560020a62461bcd02815260206004820152601c60248201527f63616e20756e6c6f636b206f6e6c79206f6c64657374206576656e74000000006044820152606401610920565b600081815260ca60209081526040808320815181546060948102820185018452928101838152909391928492849190879085015b8282101561175857600084815260209081902060408051606081018252600386029092018054600160a060020a039081168452600180830154909116848601526002909101549183019190915290835290920191016116fe565b505050508152602001600182015481525050905060008160200151116117c35760405160e560020a62461bcd02815260206004820181905260248201527f6e6f206c6f636b6564207472616e7366657273207769746820746869732069646044820152606401610920565b428160200151106118195760405160e560020a62461bcd02815260206004820152601b60248201527f6c6f636b54696d6520686173206e6f74207965742070617373656400000000006044820152606401610920565b805161182490612343565b600082815260ca602052604081209061183d82826135e0565b50600060019190910181905560405183917f78ff9b3176bb0d6421590f3816e75cb15a9ffa2b7a1a028f40a3f4e029eb39f291a261187c826001614314565b60cb555050565b60008515611918576000805260cc6020527f435daec636ce435a90bde0aeec309a303a359a854c5a51b7d6a5a941d6db609454600160a060020a038a81169116146119135760405160e560020a62461bcd02815260206004820152601f60248201527f546f6b656e206e6f7420706f696e7420746f206e617469766520746f6b656e006044820152606401610920565b611984565b50600160a060020a03808916600090815260cc602052604090205416806119845760405160e560020a62461bcd02815260206004820152601560248201527f556e6b6e6f776e20746f6b656e206164647265737300000000000000000000006044820152606401610920565b61198e8284614314565b34146119df5760405160e560020a62461bcd02815260206004820152601160248201527f53656e742076616c756520213d206665650000000000000000000000000000006044820152606401610920565b60008711611a325760405160e560020a62461bcd02815260206004820152601160248201527f43616e6e6f7420776974686472617720300000000000000000000000000000006044820152606401610920565b611a4089868686868c6125d7565b60ce54604051600160a060020a039091169084156108fc029085906000818181858888f19350505050158015611a7a573d6000803e3d6000fd5b5060cf54604051600160a060020a039091169083156108fc029084906000818181858888f19350505050158015611ab5573d6000803e3d6000fd5b506040517f23b872dd00000000000000000000000000000000000000000000000000000000815233600482015230602482015260448101889052600160a060020a038a16906323b872dd90606401602060405180830381600087803b158015611b1d57600080fd5b505af1158015611b31573d6000803e3d6000fd5b505050506040513d601f19601f82011682018060405250810190611b5591906139c9565b611ba45760405160e560020a62461bcd02815260206004820152601360248201527f4661696c207472616e7366657220636f696e73000000000000000000000000006044820152606401610920565b6040805160608082018352600160a060020a038481168084528c821660208086019182528587018e815260c98054600181018255600091909152965160039097027f66be4f155c5ef2ebd3772b228f2f00681e4ed5826cdb3b1943cc11ad15ad1d2881018054988716600160a060020a0319998a1617905592517f66be4f155c5ef2ebd3772b228f2f00681e4ed5826cdb3b1943cc11ad15ad1d2984018054918716919098161790965594517f66be4f155c5ef2ebd3772b228f2f00681e4ed5826cdb3b1943cc11ad15ad1d2a9091015560d5548551908152918e16938201939093529283019190915281018890526080810184905260a0810183905233907f3b823d3b837159352faddd1e0b9e9f584ca2bfe976238f6a9e6da4615cf2f4449060c00160405180910390a2611cd8612772565b505050505050505050565b60008051602061462d833981519152611cfc8133611d02565b5060d155565b611d0c82826112cf565b610bcb57611d2481600160a060020a03166014612cf8565b611d2f836020612cf8565b604051602001611d40929190613f3b565b60408051601f198184030181529082905260e560020a62461bcd0282526109209160040161403f565b8051825114611de35760405160e560020a62461bcd02815260206004820152603f60248201527f73697a6573206f6620746f6b656e5468697341646472657373657320616e642060448201527f746f6b656e53696465416464726573736573206d7573742062652073616d65006064820152608401610920565b815160005b81811015610ceb57828181518110611e0257611e026145b7565b602002602001015160cc6000868481518110611e2057611e206145b7565b6020026020010151600160a060020a0316600160a060020a0316815260200190815260200160002060006101000a815481600160a060020a030219169083600160a060020a031602179055508080611e7790614556565b915050611de8565b600054610100900460ff1680611e98575060005460ff16155b611eb75760405160e560020a62461bcd028152600401610920906140a9565b600054610100900460ff16158015611ed9576000805461ffff19166101011790555b611ee4600033612ee5565b611f0060008051602061460d8339815191528360400151612ee5565b611f1c60008051602061462d8339815191528360200151612ee5565b611f2e82608001518360a00151611d69565b606082015160cd8054600160a060020a03928316600160a060020a031991821617909155835160d0805491841691831691909117905560c084015160ce805491841691831691909117905560e084015160cf805491909316911617905561014082015160d15561010082015160d281905561012083015160d355600160cb81905560d555600360d755611fc1904261432c565b60d6558015610bcb576000805461ff00191690555050565b600054610100900460ff1680611ff2575060005460ff16155b6120115760405160e560020a62461bcd028152600401610920906140a9565b600054610100900460ff16158015612033576000805461ffff19166101011790555b60008451116120ad5760405160e560020a62461bcd02815260206004820152603260248201527f4c656e677468206f66205f696e697469616c56616c696461746f7273206d757360448201527f7420626520626967676572207468616e203000000000000000000000000000006064820152608401610920565b60ea805460ff191660f860020a840417905560e8839055835160e95560005b845181101561214457600160e7600060e85481526020019081526020016000206000878481518110612100576121006145b7565b602090810291909101810151600160a060020a03168252810191909152604001600020805460ff19169115159190911790558061213c81614556565b9150506120cc565b508015610ceb576000805461ff001916905550505050565b61216682826112cf565b610bcb576000828152606560209081526040808320600160a060020a03851684529091529020805460ff1916600117905561219e3390565b600160a060020a031681600160a060020a0316837f2f8788117e7eff1d82e926ec794901d17c78024a50270940304540a733656f0d60405160405180910390a45050565b6121ec82826112cf565b15610bcb576000828152606560209081526040808320600160a060020a0385168085529252808320805460ff1916905551339285917ff6391f5c32d9c69d2a47ea670b442974b53935d1edc7fd64eb21e047a839171b9190a45050565b60975460ff1661229e5760405160e560020a62461bcd02815260206004820152601460248201527f5061757361626c653a206e6f74207061757365640000000000000000000000006044820152606401610920565b6097805460ff191690557f5db9ee0a495bf2e6ff9c91a7834c1ba4fdd244a5e8aa4e537bd38aeae4b073aa335b604051600160a060020a03909116815260200160405180910390a1565b60975460ff161561230e5760405160e560020a62461bcd02815260040161092090614072565b6097805460ff191660011790557f62e78cea01bee320cd4e420270b5ea74000d11b0c9f74754ebdbfc544b05a2586122cb3390565b60005b8151811015610bcb576000600160a060020a031682828151811061236c5761236c6145b7565b602002602001015160000151600160a060020a031614156124885760cd548251600160a060020a0390911690632e1a7d4d908490849081106123b0576123b06145b7565b6020026020010151604001516040518263ffffffff1660e060020a0281526004016123dd91815260200190565b600060405180830381600087803b1580156123f757600080fd5b505af115801561240b573d6000803e3d6000fd5b50505050818181518110612421576124216145b7565b602002602001015160200151600160a060020a03166108fc83838151811061244b5761244b6145b7565b6020026020010151604001519081150290604051600060405180830381858888f19350505050158015612482573d6000803e3d6000fd5b506125c5565b81818151811061249a5761249a6145b7565b602002602001015160000151600160a060020a031663a9059cbb8383815181106124c6576124c66145b7565b6020026020010151602001518484815181106124e4576124e46145b7565b6020026020010151604001516040518363ffffffff1660e060020a028152600401612524929190600160a060020a03929092168252602082015260400190565b602060405180830381600087803b15801561253e57600080fd5b505af1158015612552573d6000803e3d6000fd5b505050506040513d601f19601f8201168201806040525081019061257691906139c9565b6125c55760405160e560020a62461bcd02815260206004820152601360248201527f4661696c207472616e7366657220636f696e73000000000000000000000000006044820152606401610920565b806125cf81614556565b915050612346565b600080806125e76107084261432c565b905060005b60d75481101561271e576040516c01000000000000000000000000600160a060020a038c160260208201526034810183905260548101889052607481018790526094810186905260b40160408051601f198184030181529082905280516020918201207f19457468657265756d205369676e6564204d6573736167653a0a33320000000091830191909152603c820152605c016040516020818303038152906040528051906020012093506126d7848a8a8080601f016020809104026020016040519081016040528093929190818152602001838380828437600092019190915250612eef92505050565b92506126f160008051602061460d833981519152846112cf565b156126ff575050505061276a565b816127098161453f565b9250508061271681614556565b9150506125ec565b5060405160e560020a62461bcd02815260206004820152601660248201527f5369676e617475726520636865636b206661696c6564000000000000000000006044820152606401610920565b505050505050565b600060d25442612782919061432c565b905060d6548114610c2c5760d5805490600061279d83614556565b919050557fe15729a2f427aa4572dab35eb692c902fcbce57d41642013259c741380809ae260c96040516127d19190613fcf565b60405180910390a26127e560c960006135e0565b60d655565b60d4600081546127f990614556565b91829055508114610c2c5760405160e560020a62461bcd02815260206004820152601460248201527f4576656e744964206f7574206f66206f726465720000000000000000000000006044820152606401610920565b60008080806128646060880160408901613c55565b67ffffffffffffffff16156129b357600061289461288560208a018a614232565b61288e906143d7565b87612f7a565b9050806128a18980614138565b6128b160608c0160408d01613c55565b67ffffffffffffffff168181106128ca576128ca6145b7565b90506020028101906128dc9190614211565b60800135146129305760405160e560020a62461bcd02815260206004820181905260248201527f5472616e73666572206576656e742076616c69646174696f6e206661696c65646044820152606401610920565b8661294160608a0160408b01613c55565b67ffffffffffffffff166129558a80614138565b61296092915061435f565b10156129b15760405160e560020a62461bcd02815260206004820152601860248201527f4e6f7420656e6f7567682073616665747920626c6f636b7300000000000000006044820152606401610920565b505b60005b6129c08880614138565b9050811015612c2b57366129d48980614138565b838181106129e4576129e46145b7565b90506020028101906129f69190614211565b90508415612a545784816040013514612a545760405160e560020a62461bcd02815260206004820152601160248201527f57726f6e6720706172656e7420686173680000000000000000000000000000006044820152606401610920565b612a5d8161306f565b9096509450612a8186612a7c612a776101408501856141ca565b6131e8565b613251565b612ad05760405160e560020a62461bcd02815260206004820152601160248201527f696e76616c6964207369676e61747572650000000000000000000000000000006044820152606401610920565b6000612b1c612ae260c08401846141ca565b8080601f01602080910402602001604051908101604052809392919081815260200183838082843760009201919091525061329092505050565b9050612b2960c882614571565b612bce5760e854612b3b906001614314565b612b4660c88361432c565b14612b965760405160e560020a62461bcd02815260206004820152600d60248201527f696e76616c69642065706f6368000000000000000000000000000000000000006044820152606401610920565b612bac612ba76101408401846141ca565b6132c3565b9350600260e954612bbd919061432c565b612bc79082614314565b9450612c16565b84811415612c165760e88054906000612be683614556565b909155505060e9849055612c0060608b0160408c01613c55565b67ffffffffffffffff16831015612c1657600095505b50508080612c2390614556565b9150506129b6565b5050505050505050565b60d354612c429042614314565b600082815260ca60205260408120600101919091555b82518110156108b757600082815260ca602052604090208351849083908110612c8357612c836145b7565b60209081029190910181015182546001808201855560009485529383902082516003909202018054600160a060020a0319908116600160a060020a0393841617825593830151948101805490941694909116939093179091556040015160029091015580612cf081614556565b915050612c58565b60606000612d07836002614340565b612d12906002614314565b67ffffffffffffffff811115612d2a57612d2a6145d0565b6040519080825280601f01601f191660200182016040528015612d54576020820181803683370190505b5090507f300000000000000000000000000000000000000000000000000000000000000081600081518110612d8b57612d8b6145b7565b6020010190600160f860020a031916908160001a9053507f780000000000000000000000000000000000000000000000000000000000000081600181518110612dd657612dd66145b7565b6020010190600160f860020a031916908160001a9053506000612dfa846002614340565b612e05906001614314565b90505b6001811115612e8c577f303132333435363738396162636465660000000000000000000000000000000085600f1660108110612e4657612e466145b7565b1a60f860020a02828281518110612e5f57612e5f6145b7565b6020010190600160f860020a031916908160001a905350601090940493612e858161453f565b9050612e08565b508315612ede5760405160e560020a62461bcd02815260206004820181905260248201527f537472696e67733a20686578206c656e67746820696e73756666696369656e746044820152606401610920565b9392505050565b610bcb828261215c565b6020810151604082015160608301516000929190831a601b811015612f1257601b015b60408051600081526020810180835288905260ff831691810191909152606081018490526080810183905260019060a0016020604051602081039080840390855afa158015612f65573d6000803e3d6000fd5b5050604051601f190151979650505050505050565b6000808360000151600081518110612f9457612f946145b7565b6020026020010151838560000151600181518110612fb457612fb46145b7565b6020026020010151612fc98760200151613386565b875180516002908110612fde57612fde6145b7565b60200260200101518860400151604051602001612ffb9190613fbc565b6040516020818303038152906040528960000151600381518110613021576130216145b7565b602002602001015160405160200161303f9796959493929190613e59565b60405160208183030381529060405280519060200120905061306784600001518260046134d6565b949350505050565b600080807fa00000000000000000000000000000000000000000000000000000000000000060408501356130a660608701876141ca565b60808801356130b860a08a018a6141ca565b6130c560c08c018c6141ca565b6130d260e08e018e6141ca565b6040516020016130ec9b9a99989796959493929190613cdc565b60408051601f1981840301815291815290915061310e908501602086016139e6565b60ea5460f860020a02826131266101208801886141ca565b61313c6131376101408b018b6141ca565b613586565b61314a6101608b018b6141ca565b604051602001613161989796959493929190613d49565b60408051601f19818403018152919052805160209182012090613186908601866139e6565b826131956101008801886141ca565b6131a36101408a018a6141ca565b6131b16101608c018c6141ca565b6040516020016131c8989796959493929190613ddc565b604051602081830303815290604052805190602001209250925050915091565b606060006131f760418461435f565b9050838184613207604183614314565b92613214939291906142ea565b8080601f01602080910402602001604051908101604052809392919081815260200183838082843760009201919091525092979650505050505050565b60008061325e8484612eef565b60e854600090815260e760209081526040808320600160a060020a039094168352929052205460ff1691505092915050565b6000815160086132a09190614340565b6132ac9061010061435f565b6132b5836143ae565b60029190910a900492915050565b60008060e85460016132d59190614314565b905060006132e460418561435f565b9050600060205b8281101561337c576000878288613303601483614314565b92613310939291906142ea565b61331991614376565b600086815260e760209081526040808320600160a060020a036c0100000000000000000000000090950494851684529091529020805460ff1916600117905590508261336481614556565b935050506014816133759190614314565b90506132eb565b5095945050505050565b6040805160208082528183019092526060916000919060208201818036833701905050905082602082015260005b6020811015613405578181815181106133cf576133cf6145b7565b60209101015160f860020a9081900402600160f860020a031916156133f357613405565b806133fd81614556565b9150506133b4565b600061341282602061435f565b67ffffffffffffffff81111561342a5761342a6145d0565b6040519080825280601f01601f191660200182016040528015613454576020820181803683370190505b50905060005b81518110156134cd57838361346e81614556565b945081518110613480576134806145b7565b602001015160f860020a900460f860020a028282815181106134a4576134a46145b7565b6020010190600160f860020a031916908160001a905350806134c581614556565b91505061345a565b50949350505050565b60006060825b855181101561357c578581815181106134f7576134f76145b7565b6020026020010151858783600161350e9190614314565b8151811061351e5761351e6145b7565b602002602001015160405160200161353893929190613f04565b604051602081830303815290604052915060208251116135605761355b826143ae565b613568565b815160208301205b9450613575600282614314565b90506134dc565b5092949350505050565b60608260008361359760418261435f565b926135a4939291906142ea565b8080601f016020809104026020016040519081016040528093929190818152602001838380828437600092019190915250929695505050505050565b5080546000825560030290600052602060002090810190610c2c91905b8082111561362f578054600160a060020a031990811682556001820180549091169055600060028201556003016135fd565b5090565b803561363e816145e9565b919050565b600082601f83011261365457600080fd5b81356020613669613664836142c6565b614295565b828152818101908583018385028701840188101561368657600080fd5b60005b858110156136ae57813561369c816145e9565b84529284019290840190600101613689565b5090979650505050505050565b600082601f8301126136cc57600080fd5b813560206136dc613664836142c6565b828152818101908583016060808602880185018910156136fb57600080fd5b60005b86811015613722576137108a84613791565b855293850193918101916001016136fe565b509198975050505050505050565b8035600160f860020a03198116811461363e57600080fd5b60008083601f84011261375a57600080fd5b50813567ffffffffffffffff81111561377257600080fd5b60208301915083602082850101111561378a57600080fd5b9250929050565b6000606082840312156137a357600080fd5b6137ab614248565b905081356137b8816145e9565b815260208201356137c8816145e9565b806020830152506040820135604082015292915050565b6000602082840312156137f157600080fd5b8135612ede816145e9565b6000806040838503121561380f57600080fd5b823561381a816145e9565b9150602083013561382a816145e9565b809150509250929050565b60008060008060008060008060e0898b03121561385157600080fd5b883561385c816145e9565b9750602089013561386c816145e9565b9650604089013595506060890135613883816145fe565b9450608089013567ffffffffffffffff81111561389f57600080fd5b6138ab8b828c01613748565b999c989b5096999598969760a08701359660c0013595509350505050565b6000806000806000608086880312156138e157600080fd5b85356138ec816145e9565b9450602086013567ffffffffffffffff81111561390857600080fd5b61391488828901613748565b9699909850959660408101359660609091013595509350505050565b60006020828403121561394257600080fd5b813567ffffffffffffffff81111561395957600080fd5b61306784828501613643565b6000806040838503121561397857600080fd5b823567ffffffffffffffff8082111561399057600080fd5b61399c86838701613643565b935060208501359150808211156139b257600080fd5b506139bf85828601613643565b9150509250929050565b6000602082840312156139db57600080fd5b8151612ede816145fe565b6000602082840312156139f857600080fd5b81357cffffffffffffffffffffffffffffffffffffffffffffffffffffffffff1981168114612ede57600080fd5b600060208284031215613a3857600080fd5b5035919050565b60008060408385031215613a5257600080fd5b82359150602083013561382a816145e9565b600060208284031215613a7657600080fd5b81357bffffffffffffffffffffffffffffffffffffffffffffffffffffffff1981168114612ede57600080fd5b60008060008060808587031215613ab957600080fd5b843567ffffffffffffffff80821115613ad157600080fd5b908601906101608289031215613ae657600080fd5b613aee614271565b613af783613633565b8152613b0560208401613633565b6020820152613b1660408401613633565b6040820152613b2760608401613633565b6060820152608083013582811115613b3e57600080fd5b613b4a8a828601613643565b60808301525060a083013582811115613b6257600080fd5b613b6e8a828601613643565b60a083015250613b8060c08401613633565b60c0820152613b9160e08401613633565b60e082015261010083810135908201526101208084013590820152610140928301359281019290925290945060208601359080821115613bd057600080fd5b50613bdd87828801613643565b93505060408501359150613bf360608601613730565b905092959194509250565b600060208284031215613c1057600080fd5b813567ffffffffffffffff811115613c2757600080fd5b820160608185031215612ede57600080fd5b600060608284031215613c4b57600080fd5b612ede8383613791565b600060208284031215613c6757600080fd5b813567ffffffffffffffff81168114612ede57600080fd5b600081518084526020808501945080840160005b83811015613cd15781518051600160a060020a0390811689528482015116848901526040908101519088015260609096019590820190600101613c93565b509495945050505050565b600160f860020a03198c1681528a6001820152888a602183013788810160218101899052600090878960418301378781019050604181016000815286888237508581019050604181016000815284868237506000930160410192835250909b9a5050505050505050505050565b7cffffffffffffffffffffffffffffffffffffffffffffffffffffffffff1989168152600160f860020a03198816600382015260008751613d91816004850160208c01614513565b820186886004830137868101905060048101600081528651613db7818360208b01614513565b9190910190508385600483013760009301600401928352509098975050505050505050565b7cffffffffffffffffffffffffffffffffffffffffffffffffffffffffff198916815260008851613e14816003850160208d01614513565b82018789600383013787810190506003810160008152868882375085810190506003810160008152848682375060009301600301928352509098975050505050505050565b600088516020613e6c8285838e01614513565b81840191506c01000000000000000000000000600160a060020a038b1602825260148951613e9f81838601858e01614513565b8951930192613eb381838601858d01614513565b8851930192613ec781838601858c01614513565b8751930192613edb81838601858b01614513565b8651930192613eef81838601858a01614513565b929092019091019a9950505050505050505050565b60008451613f16818460208901614513565b82018481528351613f2e816020808501908801614513565b0160200195945050505050565b7f416363657373436f6e74726f6c3a206163636f756e7420000000000000000000815260008351613f73816017850160208801614513565b7f206973206d697373696e6720726f6c65200000000000000000000000000000006017918401918201528351613fb0816028840160208801614513565b01602801949350505050565b602081526000612ede6020830184613c7f565b60006020808301818452808554808352604092508286019150866000528360002060005b82811015614032578154600160a060020a0390811685526001808401549091168786015260028301548686015260609094019360039092019101613ff3565b5091979650505050505050565b602081526000825180602084015261405e816040850160208701614513565b601f01601f19169190910160400192915050565b60208082526010908201527f5061757361626c653a2070617573656400000000000000000000000000000000604082015260600190565b6020808252602e908201527f496e697469616c697a61626c653a20636f6e747261637420697320616c72656160408201527f647920696e697469616c697a6564000000000000000000000000000000000000606082015260800190565b6020815260008251604060208401526141226060840182613c7f565b9050602084015160408401528091505092915050565b6000808335601e1984360301811261414f57600080fd5b83018035915067ffffffffffffffff82111561416a57600080fd5b602090810192508102360382131561378a57600080fd5b6000808335601e1984360301811261419857600080fd5b83018035915067ffffffffffffffff8211156141b357600080fd5b602001915060608102360382131561378a57600080fd5b6000808335601e198436030181126141e157600080fd5b83018035915067ffffffffffffffff8211156141fc57600080fd5b60200191503681900382131561378a57600080fd5b6000823561017e1983360301811261422857600080fd5b9190910192915050565b60008235605e1983360301811261422857600080fd5b6040516060810167ffffffffffffffff8111828210171561426b5761426b6145d0565b60405290565b604051610160810167ffffffffffffffff8111828210171561426b5761426b6145d0565b604051601f8201601f1916810167ffffffffffffffff811182821017156142be576142be6145d0565b604052919050565b600067ffffffffffffffff8211156142e0576142e06145d0565b5060209081020190565b600080858511156142fa57600080fd5b8386111561430757600080fd5b5050820193919092039150565b6000821982111561432757614327614585565b500190565b60008261433b5761433b61459e565b500490565b600081600019048311821515161561435a5761435a614585565b500290565b60008282101561437157614371614585565b500390565b6bffffffffffffffffffffffff1981358181169160148510156143a657808560140360080260020a820283161692505b505092915050565b805160208083015191908110156143d1578060200360080260020a600003821691505b50919050565b6000606082360312156143e957600080fd5b6143f1614248565b823567ffffffffffffffff8082111561440957600080fd5b90840190601f368184011261441d57600080fd5b8235602061442d613664836142c6565b828152818101908683013684860289018501111561444a57600080fd5b60005b858110156144d75781358881111561446457600080fd5b890136603f82011261447557600080fd5b8581013560408a82111561448b5761448b6145d0565b61449c828b01601f19168901614295565b82815236828486010111156144b057600080fd5b828285018a830137600092810189019290925250855250928401929084019060010161444d565b50508752508781013590860152505060408501359150808211156144fa57600080fd5b50614507368286016136bb565b60408301525092915050565b60005b8381101561452e578181015183820152602001614516565b83811115610ceb5750506000910152565b60008161454e5761454e614585565b506000190190565b600060001982141561456a5761456a614585565b5060010190565b6000826145805761458061459e565b500690565b60e060020a634e487b7102600052601160045260246000fd5b60e060020a634e487b7102600052601260045260246000fd5b60e060020a634e487b7102600052603260045260246000fd5b60e060020a634e487b7102600052604160045260246000fd5b600160a060020a0381168114610c2c57600080fd5b8015158114610c2c57600080fdfe077a1d526a4ce8a773632ab13b4fbbf1fcc954c3dab26cd27ea0e2a6750da5d7a49807205ce4d355092ef5a8a18f56e8913cf4a201fbe287825b095693c21775a2646970667358221220e78f2c5753712e238f0f2b47dfed75e39cef989e34d69e4eaef3dddbde4b880364736f6c63430008060033",
  "devdoc": {
    "kind": "dev",
    "methods": {
      "getRoleAdmin(bytes32)": {
        "details": "Returns the admin role that controls `role`. See {grantRole} and {revokeRole}. To change a role's admin, use {_setRoleAdmin}."
      },
      "grantRole(bytes32,address)": {
        "details": "Grants `role` to `account`. If `account` had not been already granted `role`, emits a {RoleGranted} event. Requirements: - the caller must have ``role``'s admin role."
      },
      "hasRole(bytes32,address)": {
        "details": "Returns `true` if `account` has been granted `role`."
      },
      "paused()": {
        "details": "Returns true if the contract is paused, and false otherwise."
      },
      "renounceRole(bytes32,address)": {
        "details": "Revokes `role` from the calling account. Roles are often managed via {grantRole} and {revokeRole}: this function's purpose is to provide a mechanism for accounts to lose their privileges if they are compromised (such as when a trusted device is misplaced). If the calling account had been granted `role`, emits a {RoleRevoked} event. Requirements: - the caller must be `account`."
      },
      "revokeRole(bytes32,address)": {
        "details": "Revokes `role` from `account`. If `account` had been granted `role`, emits a {RoleRevoked} event. Requirements: - the caller must have ``role``'s admin role."
      },
      "supportsInterface(bytes4)": {
        "details": "See {IERC165-supportsInterface}."
      }
    },
    "version": 1
  },
  "userdoc": {
    "kind": "user",
    "methods": {},
    "version": 1
  },
  "storageLayout": {
    "storage": [
      {
        "astId": 413,
        "contract": "contracts/networks/BSC_AmbBridge.sol:BSC_AmbBridge",
        "label": "_initialized",
        "offset": 0,
        "slot": "0",
        "type": "t_bool"
      },
      {
        "astId": 416,
        "contract": "contracts/networks/BSC_AmbBridge.sol:BSC_AmbBridge",
        "label": "_initializing",
        "offset": 1,
        "slot": "0",
        "type": "t_bool"
      },
      {
        "astId": 609,
        "contract": "contracts/networks/BSC_AmbBridge.sol:BSC_AmbBridge",
        "label": "__gap",
        "offset": 0,
        "slot": "1",
        "type": "t_array(t_uint256)50_storage"
      },
      {
        "astId": 858,
        "contract": "contracts/networks/BSC_AmbBridge.sol:BSC_AmbBridge",
        "label": "__gap",
        "offset": 0,
        "slot": "51",
        "type": "t_array(t_uint256)50_storage"
      },
      {
        "astId": 48,
        "contract": "contracts/networks/BSC_AmbBridge.sol:BSC_AmbBridge",
        "label": "_roles",
        "offset": 0,
        "slot": "101",
        "type": "t_mapping(t_bytes32,t_struct(RoleData)43_storage)"
      },
      {
        "astId": 333,
        "contract": "contracts/networks/BSC_AmbBridge.sol:BSC_AmbBridge",
        "label": "__gap",
        "offset": 0,
        "slot": "102",
        "type": "t_array(t_uint256)49_storage"
      },
      {
        "astId": 474,
        "contract": "contracts/networks/BSC_AmbBridge.sol:BSC_AmbBridge",
        "label": "_paused",
        "offset": 0,
        "slot": "151",
        "type": "t_bool"
      },
      {
        "astId": 565,
        "contract": "contracts/networks/BSC_AmbBridge.sol:BSC_AmbBridge",
        "label": "__gap",
        "offset": 0,
        "slot": "152",
        "type": "t_array(t_uint256)49_storage"
      },
      {
        "astId": 6808,
        "contract": "contracts/networks/BSC_AmbBridge.sol:BSC_AmbBridge",
        "label": "queue",
        "offset": 0,
        "slot": "201",
        "type": "t_array(t_struct(Transfer)7888_storage)dyn_storage"
      },
      {
        "astId": 6813,
        "contract": "contracts/networks/BSC_AmbBridge.sol:BSC_AmbBridge",
        "label": "lockedTransfers",
        "offset": 0,
        "slot": "202",
        "type": "t_mapping(t_uint256,t_struct(LockedTransfers)7905_storage)"
      },
      {
        "astId": 6815,
        "contract": "contracts/networks/BSC_AmbBridge.sol:BSC_AmbBridge",
        "label": "oldestLockedEventId",
        "offset": 0,
        "slot": "203",
        "type": "t_uint256"
      },
      {
        "astId": 6819,
        "contract": "contracts/networks/BSC_AmbBridge.sol:BSC_AmbBridge",
        "label": "tokenAddresses",
        "offset": 0,
        "slot": "204",
        "type": "t_mapping(t_address,t_address)"
      },
      {
        "astId": 6821,
        "contract": "contracts/networks/BSC_AmbBridge.sol:BSC_AmbBridge",
        "label": "wrapperAddress",
        "offset": 0,
        "slot": "205",
        "type": "t_address"
      },
      {
        "astId": 6823,
        "contract": "contracts/networks/BSC_AmbBridge.sol:BSC_AmbBridge",
        "label": "transferFeeRecipient",
        "offset": 0,
        "slot": "206",
        "type": "t_address_payable"
      },
      {
        "astId": 6825,
        "contract": "contracts/networks/BSC_AmbBridge.sol:BSC_AmbBridge",
        "label": "bridgeFeeRecipient",
        "offset": 0,
        "slot": "207",
        "type": "t_address_payable"
      },
      {
        "astId": 6827,
        "contract": "contracts/networks/BSC_AmbBridge.sol:BSC_AmbBridge",
        "label": "sideBridgeAddress",
        "offset": 0,
        "slot": "208",
        "type": "t_address"
      },
      {
        "astId": 6829,
        "contract": "contracts/networks/BSC_AmbBridge.sol:BSC_AmbBridge",
        "label": "minSafetyBlocks",
        "offset": 0,
        "slot": "209",
        "type": "t_uint256"
      },
      {
        "astId": 6831,
        "contract": "contracts/networks/BSC_AmbBridge.sol:BSC_AmbBridge",
        "label": "timeframeSeconds",
        "offset": 0,
        "slot": "210",
        "type": "t_uint256"
      },
      {
        "astId": 6833,
        "contract": "contracts/networks/BSC_AmbBridge.sol:BSC_AmbBridge",
        "label": "lockTime",
        "offset": 0,
        "slot": "211",
        "type": "t_uint256"
      },
      {
        "astId": 6835,
        "contract": "contracts/networks/BSC_AmbBridge.sol:BSC_AmbBridge",
        "label": "inputEventId",
        "offset": 0,
        "slot": "212",
        "type": "t_uint256"
      },
      {
        "astId": 6837,
        "contract": "contracts/networks/BSC_AmbBridge.sol:BSC_AmbBridge",
        "label": "outputEventId",
        "offset": 0,
        "slot": "213",
        "type": "t_uint256"
      },
      {
        "astId": 6839,
        "contract": "contracts/networks/BSC_AmbBridge.sol:BSC_AmbBridge",
        "label": "lastTimeframe",
        "offset": 0,
        "slot": "214",
        "type": "t_uint256"
      },
      {
        "astId": 6841,
        "contract": "contracts/networks/BSC_AmbBridge.sol:BSC_AmbBridge",
        "label": "signatureFeeCheckNumber",
        "offset": 0,
        "slot": "215",
        "type": "t_uint256"
      },
      {
        "astId": 7878,
        "contract": "contracts/networks/BSC_AmbBridge.sol:BSC_AmbBridge",
        "label": "__gap",
        "offset": 0,
        "slot": "216",
        "type": "t_array(t_uint256)15_storage"
      },
      {
        "astId": 2709,
        "contract": "contracts/networks/BSC_AmbBridge.sol:BSC_AmbBridge",
        "label": "allValidators",
        "offset": 0,
        "slot": "231",
        "type": "t_mapping(t_uint256,t_mapping(t_address,t_bool))"
      },
      {
        "astId": 2711,
        "contract": "contracts/networks/BSC_AmbBridge.sol:BSC_AmbBridge",
        "label": "currentEpoch",
        "offset": 0,
        "slot": "232",
        "type": "t_uint256"
      },
      {
        "astId": 2713,
        "contract": "contracts/networks/BSC_AmbBridge.sol:BSC_AmbBridge",
        "label": "currentValidatorSetSize",
        "offset": 0,
        "slot": "233",
        "type": "t_uint256"
      },
      {
        "astId": 2715,
        "contract": "contracts/networks/BSC_AmbBridge.sol:BSC_AmbBridge",
        "label": "chainId",
        "offset": 0,
        "slot": "234",
        "type": "t_bytes1"
      }
    ],
    "types": {
      "t_address": {
        "encoding": "inplace",
        "label": "address",
        "numberOfBytes": "20"
      },
      "t_address_payable": {
        "encoding": "inplace",
        "label": "address payable",
        "numberOfBytes": "20"
      },
      "t_array(t_struct(Transfer)7888_storage)dyn_storage": {
        "base": "t_struct(Transfer)7888_storage",
        "encoding": "dynamic_array",
        "label": "struct CommonStructs.Transfer[]",
        "numberOfBytes": "32"
      },
      "t_array(t_uint256)15_storage": {
        "base": "t_uint256",
        "encoding": "inplace",
        "label": "uint256[15]",
        "numberOfBytes": "480"
      },
      "t_array(t_uint256)49_storage": {
        "base": "t_uint256",
        "encoding": "inplace",
        "label": "uint256[49]",
        "numberOfBytes": "1568"
      },
      "t_array(t_uint256)50_storage": {
        "base": "t_uint256",
        "encoding": "inplace",
        "label": "uint256[50]",
        "numberOfBytes": "1600"
      },
      "t_bool": {
        "encoding": "inplace",
        "label": "bool",
        "numberOfBytes": "1"
      },
      "t_bytes1": {
        "encoding": "inplace",
        "label": "bytes1",
        "numberOfBytes": "1"
      },
      "t_bytes32": {
        "encoding": "inplace",
        "label": "bytes32",
        "numberOfBytes": "32"
      },
      "t_mapping(t_address,t_address)": {
        "encoding": "mapping",
        "key": "t_address",
        "label": "mapping(address => address)",
        "numberOfBytes": "32",
        "value": "t_address"
      },
      "t_mapping(t_address,t_bool)": {
        "encoding": "mapping",
        "key": "t_address",
        "label": "mapping(address => bool)",
        "numberOfBytes": "32",
        "value": "t_bool"
      },
      "t_mapping(t_bytes32,t_struct(RoleData)43_storage)": {
        "encoding": "mapping",
        "key": "t_bytes32",
        "label": "mapping(bytes32 => struct AccessControlUpgradeable.RoleData)",
        "numberOfBytes": "32",
        "value": "t_struct(RoleData)43_storage"
      },
      "t_mapping(t_uint256,t_mapping(t_address,t_bool))": {
        "encoding": "mapping",
        "key": "t_uint256",
        "label": "mapping(uint256 => mapping(address => bool))",
        "numberOfBytes": "32",
        "value": "t_mapping(t_address,t_bool)"
      },
      "t_mapping(t_uint256,t_struct(LockedTransfers)7905_storage)": {
        "encoding": "mapping",
        "key": "t_uint256",
        "label": "mapping(uint256 => struct CommonStructs.LockedTransfers)",
        "numberOfBytes": "32",
        "value": "t_struct(LockedTransfers)7905_storage"
      },
      "t_struct(LockedTransfers)7905_storage": {
        "encoding": "inplace",
        "label": "struct CommonStructs.LockedTransfers",
        "members": [
          {
            "astId": 7902,
            "contract": "contracts/networks/BSC_AmbBridge.sol:BSC_AmbBridge",
            "label": "transfers",
            "offset": 0,
            "slot": "0",
            "type": "t_array(t_struct(Transfer)7888_storage)dyn_storage"
          },
          {
            "astId": 7904,
            "contract": "contracts/networks/BSC_AmbBridge.sol:BSC_AmbBridge",
            "label": "endTimestamp",
            "offset": 0,
            "slot": "1",
            "type": "t_uint256"
          }
        ],
        "numberOfBytes": "64"
      },
      "t_struct(RoleData)43_storage": {
        "encoding": "inplace",
        "label": "struct AccessControlUpgradeable.RoleData",
        "members": [
          {
            "astId": 40,
            "contract": "contracts/networks/BSC_AmbBridge.sol:BSC_AmbBridge",
            "label": "members",
            "offset": 0,
            "slot": "0",
            "type": "t_mapping(t_address,t_bool)"
          },
          {
            "astId": 42,
            "contract": "contracts/networks/BSC_AmbBridge.sol:BSC_AmbBridge",
            "label": "adminRole",
            "offset": 0,
            "slot": "1",
            "type": "t_bytes32"
          }
        ],
        "numberOfBytes": "64"
      },
      "t_struct(Transfer)7888_storage": {
        "encoding": "inplace",
        "label": "struct CommonStructs.Transfer",
        "members": [
          {
            "astId": 7883,
            "contract": "contracts/networks/BSC_AmbBridge.sol:BSC_AmbBridge",
            "label": "tokenAddress",
            "offset": 0,
            "slot": "0",
            "type": "t_address"
          },
          {
            "astId": 7885,
            "contract": "contracts/networks/BSC_AmbBridge.sol:BSC_AmbBridge",
            "label": "toAddress",
            "offset": 0,
            "slot": "1",
            "type": "t_address"
          },
          {
            "astId": 7887,
            "contract": "contracts/networks/BSC_AmbBridge.sol:BSC_AmbBridge",
            "label": "amount",
            "offset": 0,
            "slot": "2",
            "type": "t_uint256"
          }
        ],
        "numberOfBytes": "96"
      },
      "t_uint256": {
        "encoding": "inplace",
        "label": "uint256",
        "numberOfBytes": "32"
      }
    }
  }
}