{
  "address": "0xA788d96bbEB6992B7Fab5E791b10D8487D87805B",
  "abi": [
    {
      "anonymous": false,
      "inputs": [
        {
          "indexed": false,
          "internalType": "address",
          "name": "account",
          "type": "address"
        }
      ],
      "name": "Paused",
      "type": "event"
    },
    {
      "anonymous": false,
      "inputs": [
        {
          "indexed": true,
          "internalType": "bytes32",
          "name": "role",
          "type": "bytes32"
        },
        {
          "indexed": true,
          "internalType": "bytes32",
          "name": "previousAdminRole",
          "type": "bytes32"
        },
        {
          "indexed": true,
          "internalType": "bytes32",
          "name": "newAdminRole",
          "type": "bytes32"
        }
      ],
      "name": "RoleAdminChanged",
      "type": "event"
    },
    {
      "anonymous": false,
      "inputs": [
        {
          "indexed": true,
          "internalType": "bytes32",
          "name": "role",
          "type": "bytes32"
        },
        {
          "indexed": true,
          "internalType": "address",
          "name": "account",
          "type": "address"
        },
        {
          "indexed": true,
          "internalType": "address",
          "name": "sender",
          "type": "address"
        }
      ],
      "name": "RoleGranted",
      "type": "event"
    },
    {
      "anonymous": false,
      "inputs": [
        {
          "indexed": true,
          "internalType": "bytes32",
          "name": "role",
          "type": "bytes32"
        },
        {
          "indexed": true,
          "internalType": "address",
          "name": "account",
          "type": "address"
        },
        {
          "indexed": true,
          "internalType": "address",
          "name": "sender",
          "type": "address"
        }
      ],
      "name": "RoleRevoked",
      "type": "event"
    },
    {
      "anonymous": false,
      "inputs": [
        {
          "indexed": true,
          "internalType": "uint256",
          "name": "eventId",
          "type": "uint256"
        },
        {
          "components": [
            {
              "internalType": "address",
              "name": "tokenAddress",
              "type": "address"
            },
            {
              "internalType": "address",
              "name": "toAddress",
              "type": "address"
            },
            {
              "internalType": "uint256",
              "name": "amount",
              "type": "uint256"
            }
          ],
          "indexed": false,
          "internalType": "struct CommonStructs.Transfer[]",
          "name": "queue",
          "type": "tuple[]"
        }
      ],
      "name": "Transfer",
      "type": "event"
    },
    {
      "anonymous": false,
      "inputs": [
        {
          "indexed": true,
          "internalType": "uint256",
          "name": "eventId",
          "type": "uint256"
        }
      ],
      "name": "TransferFinish",
      "type": "event"
    },
    {
      "anonymous": false,
      "inputs": [
        {
          "indexed": true,
          "internalType": "uint256",
          "name": "eventId",
          "type": "uint256"
        }
      ],
      "name": "TransferSubmit",
      "type": "event"
    },
    {
      "anonymous": false,
      "inputs": [
        {
          "indexed": false,
          "internalType": "address",
          "name": "account",
          "type": "address"
        }
      ],
      "name": "Unpaused",
      "type": "event"
    },
    {
      "anonymous": false,
      "inputs": [
        {
          "indexed": true,
          "internalType": "address",
          "name": "from",
          "type": "address"
        },
        {
          "indexed": false,
          "internalType": "uint256",
          "name": "eventId",
          "type": "uint256"
        },
        {
          "indexed": false,
          "internalType": "address",
          "name": "tokenFrom",
          "type": "address"
        },
        {
          "indexed": false,
          "internalType": "address",
          "name": "tokenTo",
          "type": "address"
        },
        {
          "indexed": false,
          "internalType": "uint256",
          "name": "amount",
          "type": "uint256"
        },
        {
          "indexed": false,
          "internalType": "uint256",
          "name": "transferFeeAmount",
          "type": "uint256"
        },
        {
          "indexed": false,
          "internalType": "uint256",
          "name": "bridgeFeeAmount",
          "type": "uint256"
        }
      ],
      "name": "Withdraw",
      "type": "event"
    },
    {
      "inputs": [],
      "name": "ADMIN_ROLE",
      "outputs": [
        {
          "internalType": "bytes32",
          "name": "",
          "type": "bytes32"
        }
      ],
      "stateMutability": "view",
      "type": "function"
    },
    {
      "inputs": [],
      "name": "DEFAULT_ADMIN_ROLE",
      "outputs": [
        {
          "internalType": "bytes32",
          "name": "",
          "type": "bytes32"
        }
      ],
      "stateMutability": "view",
      "type": "function"
    },
    {
      "inputs": [],
      "name": "RELAY_ROLE",
      "outputs": [
        {
          "internalType": "bytes32",
          "name": "",
          "type": "bytes32"
        }
      ],
      "stateMutability": "view",
      "type": "function"
    },
    {
      "inputs": [
        {
          "internalType": "address payable",
          "name": "feeRecipient_",
          "type": "address"
        }
      ],
      "name": "changeBridgeFeeRecipient",
      "outputs": [],
      "stateMutability": "nonpayable",
      "type": "function"
    },
    {
      "inputs": [
        {
          "internalType": "uint256",
          "name": "lockTime_",
          "type": "uint256"
        }
      ],
      "name": "changeLockTime",
      "outputs": [],
      "stateMutability": "nonpayable",
      "type": "function"
    },
    {
      "inputs": [
        {
          "internalType": "uint256",
          "name": "minSafetyBlocks_",
          "type": "uint256"
        }
      ],
      "name": "changeMinSafetyBlocks",
      "outputs": [],
      "stateMutability": "nonpayable",
      "type": "function"
    },
    {
      "inputs": [
        {
          "internalType": "uint256",
          "name": "signatureFeeCheckNumber_",
          "type": "uint256"
        }
      ],
      "name": "changeSignatureFeeCheckNumber",
      "outputs": [],
      "stateMutability": "nonpayable",
      "type": "function"
    },
    {
      "inputs": [
        {
          "internalType": "uint256",
          "name": "timeframeSeconds_",
          "type": "uint256"
        }
      ],
      "name": "changeTimeframeSeconds",
      "outputs": [],
      "stateMutability": "nonpayable",
      "type": "function"
    },
    {
      "inputs": [
        {
          "internalType": "address payable",
          "name": "feeRecipient_",
          "type": "address"
        }
      ],
      "name": "changeTransferFeeRecipient",
      "outputs": [],
      "stateMutability": "nonpayable",
      "type": "function"
    },
    {
      "inputs": [],
      "name": "currentEpoch",
      "outputs": [
        {
          "internalType": "uint256",
          "name": "",
          "type": "uint256"
        }
      ],
      "stateMutability": "view",
      "type": "function"
    },
    {
      "inputs": [
        {
          "internalType": "uint256",
          "name": "eventId",
          "type": "uint256"
        }
      ],
      "name": "getLockedTransfers",
      "outputs": [
        {
          "components": [
            {
              "components": [
                {
                  "internalType": "address",
                  "name": "tokenAddress",
                  "type": "address"
                },
                {
                  "internalType": "address",
                  "name": "toAddress",
                  "type": "address"
                },
                {
                  "internalType": "uint256",
                  "name": "amount",
                  "type": "uint256"
                }
              ],
              "internalType": "struct CommonStructs.Transfer[]",
              "name": "transfers",
              "type": "tuple[]"
            },
            {
              "internalType": "uint256",
              "name": "endTimestamp",
              "type": "uint256"
            }
          ],
          "internalType": "struct CommonStructs.LockedTransfers",
          "name": "",
          "type": "tuple"
        }
      ],
      "stateMutability": "view",
      "type": "function"
    },
    {
      "inputs": [
        {
          "internalType": "bytes32",
          "name": "role",
          "type": "bytes32"
        }
      ],
      "name": "getRoleAdmin",
      "outputs": [
        {
          "internalType": "bytes32",
          "name": "",
          "type": "bytes32"
        }
      ],
      "stateMutability": "view",
      "type": "function"
    },
    {
      "inputs": [
        {
          "internalType": "bytes32",
          "name": "role",
          "type": "bytes32"
        },
        {
          "internalType": "address",
          "name": "account",
          "type": "address"
        }
      ],
      "name": "grantRole",
      "outputs": [],
      "stateMutability": "nonpayable",
      "type": "function"
    },
    {
      "inputs": [
        {
          "internalType": "bytes32",
          "name": "role",
          "type": "bytes32"
        },
        {
          "internalType": "address",
          "name": "account",
          "type": "address"
        }
      ],
      "name": "hasRole",
      "outputs": [
        {
          "internalType": "bool",
          "name": "",
          "type": "bool"
        }
      ],
      "stateMutability": "view",
      "type": "function"
    },
    {
      "inputs": [
        {
          "components": [
            {
              "internalType": "address",
              "name": "sideBridgeAddress",
              "type": "address"
            },
            {
              "internalType": "address",
              "name": "adminAddress",
              "type": "address"
            },
            {
              "internalType": "address",
              "name": "relayAddress",
              "type": "address"
            },
            {
              "internalType": "address",
              "name": "wrappingTokenAddress",
              "type": "address"
            },
            {
              "internalType": "address[]",
              "name": "tokenThisAddresses",
              "type": "address[]"
            },
            {
              "internalType": "address[]",
              "name": "tokenSideAddresses",
              "type": "address[]"
            },
            {
              "internalType": "address payable",
              "name": "transferFeeRecipient",
              "type": "address"
            },
            {
              "internalType": "address payable",
              "name": "bridgeFeeRecipient",
              "type": "address"
            },
            {
              "internalType": "uint256",
              "name": "timeframeSeconds",
              "type": "uint256"
            },
            {
              "internalType": "uint256",
              "name": "lockTime",
              "type": "uint256"
            },
            {
              "internalType": "uint256",
              "name": "minSafetyBlocks",
              "type": "uint256"
            }
          ],
          "internalType": "struct CommonStructs.ConstructorArgs",
          "name": "args",
          "type": "tuple"
        },
        {
          "internalType": "address[]",
          "name": "initialValidators",
          "type": "address[]"
        },
        {
          "internalType": "uint256",
          "name": "initialEpoch",
          "type": "uint256"
        },
        {
          "internalType": "bytes1",
          "name": "chainId",
          "type": "bytes1"
        }
      ],
      "name": "initialize",
      "outputs": [],
      "stateMutability": "nonpayable",
      "type": "function"
    },
    {
      "inputs": [],
      "name": "inputEventId",
      "outputs": [
        {
          "internalType": "uint256",
          "name": "",
          "type": "uint256"
        }
      ],
      "stateMutability": "view",
      "type": "function"
    },
    {
      "inputs": [],
      "name": "isQueueEmpty",
      "outputs": [
        {
          "internalType": "bool",
          "name": "",
          "type": "bool"
        }
      ],
      "stateMutability": "view",
      "type": "function"
    },
    {
      "inputs": [],
      "name": "lastTimeframe",
      "outputs": [
        {
          "internalType": "uint256",
          "name": "",
          "type": "uint256"
        }
      ],
      "stateMutability": "view",
      "type": "function"
    },
    {
      "inputs": [],
      "name": "lockTime",
      "outputs": [
        {
          "internalType": "uint256",
          "name": "",
          "type": "uint256"
        }
      ],
      "stateMutability": "view",
      "type": "function"
    },
    {
      "inputs": [
        {
          "internalType": "uint256",
          "name": "",
          "type": "uint256"
        }
      ],
      "name": "lockedTransfers",
      "outputs": [
        {
          "internalType": "uint256",
          "name": "endTimestamp",
          "type": "uint256"
        }
      ],
      "stateMutability": "view",
      "type": "function"
    },
    {
      "inputs": [],
      "name": "minSafetyBlocks",
      "outputs": [
        {
          "internalType": "uint256",
          "name": "",
          "type": "uint256"
        }
      ],
      "stateMutability": "view",
      "type": "function"
    },
    {
      "inputs": [],
      "name": "oldestLockedEventId",
      "outputs": [
        {
          "internalType": "uint256",
          "name": "",
          "type": "uint256"
        }
      ],
      "stateMutability": "view",
      "type": "function"
    },
    {
      "inputs": [],
      "name": "pause",
      "outputs": [],
      "stateMutability": "nonpayable",
      "type": "function"
    },
    {
      "inputs": [],
      "name": "paused",
      "outputs": [
        {
          "internalType": "bool",
          "name": "",
          "type": "bool"
        }
      ],
      "stateMutability": "view",
      "type": "function"
    },
    {
      "inputs": [
        {
          "internalType": "uint256",
          "name": "eventId",
          "type": "uint256"
        }
      ],
      "name": "removeLockedTransfers",
      "outputs": [],
      "stateMutability": "nonpayable",
      "type": "function"
    },
    {
      "inputs": [
        {
          "internalType": "bytes32",
          "name": "role",
          "type": "bytes32"
        },
        {
          "internalType": "address",
          "name": "account",
          "type": "address"
        }
      ],
      "name": "renounceRole",
      "outputs": [],
      "stateMutability": "nonpayable",
      "type": "function"
    },
    {
      "inputs": [
        {
          "internalType": "bytes32",
          "name": "role",
          "type": "bytes32"
        },
        {
          "internalType": "address",
          "name": "account",
          "type": "address"
        }
      ],
      "name": "revokeRole",
      "outputs": [],
      "stateMutability": "nonpayable",
      "type": "function"
    },
    {
      "inputs": [
        {
          "internalType": "address",
          "name": "_sideBridgeAddress",
          "type": "address"
        }
      ],
      "name": "setSideBridge",
      "outputs": [],
      "stateMutability": "nonpayable",
      "type": "function"
    },
    {
      "inputs": [],
      "name": "sideBridgeAddress",
      "outputs": [
        {
          "internalType": "address",
          "name": "",
          "type": "address"
        }
      ],
      "stateMutability": "view",
      "type": "function"
    },
    {
      "inputs": [
        {
          "components": [
            {
              "components": [
                {
                  "internalType": "bytes3",
                  "name": "p0Signed",
                  "type": "bytes3"
                },
                {
                  "internalType": "bytes3",
                  "name": "p0Unsigned",
                  "type": "bytes3"
                },
                {
                  "internalType": "bytes32",
                  "name": "parentHash",
                  "type": "bytes32"
                },
                {
                  "internalType": "bytes",
                  "name": "p1",
                  "type": "bytes"
                },
                {
                  "internalType": "bytes32",
                  "name": "receiptHash",
                  "type": "bytes32"
                },
                {
                  "internalType": "bytes",
                  "name": "p2",
                  "type": "bytes"
                },
                {
                  "internalType": "bytes",
                  "name": "number",
                  "type": "bytes"
                },
                {
                  "internalType": "bytes",
                  "name": "p3",
                  "type": "bytes"
                },
                {
                  "internalType": "bytes",
                  "name": "p4Signed",
                  "type": "bytes"
                },
                {
                  "internalType": "bytes",
                  "name": "p4Unsigned",
                  "type": "bytes"
                },
                {
                  "internalType": "bytes",
                  "name": "extraData",
                  "type": "bytes"
                },
                {
                  "internalType": "bytes",
                  "name": "p5",
                  "type": "bytes"
                }
              ],
              "internalType": "struct CheckPoSA.BlockPoSA[]",
              "name": "blocks",
              "type": "tuple[]"
            },
            {
              "components": [
                {
                  "internalType": "bytes[]",
                  "name": "receiptProof",
                  "type": "bytes[]"
                },
                {
                  "internalType": "uint256",
                  "name": "eventId",
                  "type": "uint256"
                },
                {
                  "components": [
                    {
                      "internalType": "address",
                      "name": "tokenAddress",
                      "type": "address"
                    },
                    {
                      "internalType": "address",
                      "name": "toAddress",
                      "type": "address"
                    },
                    {
                      "internalType": "uint256",
                      "name": "amount",
                      "type": "uint256"
                    }
                  ],
                  "internalType": "struct CommonStructs.Transfer[]",
                  "name": "transfers",
                  "type": "tuple[]"
                }
              ],
              "internalType": "struct CommonStructs.TransferProof",
              "name": "transfer",
              "type": "tuple"
            },
            {
              "internalType": "uint64",
              "name": "transferEventBlock",
              "type": "uint64"
            }
          ],
          "internalType": "struct CheckPoSA.PoSAProof",
          "name": "posaProof",
          "type": "tuple"
        }
      ],
      "name": "submitTransferPoSA",
      "outputs": [],
      "stateMutability": "nonpayable",
      "type": "function"
    },
    {
      "inputs": [
        {
          "internalType": "bytes4",
          "name": "interfaceId",
          "type": "bytes4"
        }
      ],
      "name": "supportsInterface",
      "outputs": [
        {
          "internalType": "bool",
          "name": "",
          "type": "bool"
        }
      ],
      "stateMutability": "view",
      "type": "function"
    },
    {
      "inputs": [],
      "name": "timeframeSeconds",
      "outputs": [
        {
          "internalType": "uint256",
          "name": "",
          "type": "uint256"
        }
      ],
      "stateMutability": "view",
      "type": "function"
    },
    {
      "inputs": [
        {
          "internalType": "address",
          "name": "",
          "type": "address"
        }
      ],
      "name": "tokenAddresses",
      "outputs": [
        {
          "internalType": "address",
          "name": "",
          "type": "address"
        }
      ],
      "stateMutability": "view",
      "type": "function"
    },
    {
      "inputs": [
        {
          "internalType": "address",
          "name": "tokenThisAddress",
          "type": "address"
        },
        {
          "internalType": "address",
          "name": "tokenSideAddress",
          "type": "address"
        }
      ],
      "name": "tokensAdd",
      "outputs": [],
      "stateMutability": "nonpayable",
      "type": "function"
    },
    {
      "inputs": [
        {
          "internalType": "address[]",
          "name": "tokenThisAddresses",
          "type": "address[]"
        },
        {
          "internalType": "address[]",
          "name": "tokenSideAddresses",
          "type": "address[]"
        }
      ],
      "name": "tokensAddBatch",
      "outputs": [],
      "stateMutability": "nonpayable",
      "type": "function"
    },
    {
      "inputs": [
        {
          "internalType": "address",
          "name": "tokenThisAddress",
          "type": "address"
        }
      ],
      "name": "tokensRemove",
      "outputs": [],
      "stateMutability": "nonpayable",
      "type": "function"
    },
    {
      "inputs": [
        {
          "internalType": "address[]",
          "name": "tokenThisAddresses",
          "type": "address[]"
        }
      ],
      "name": "tokensRemoveBatch",
      "outputs": [],
      "stateMutability": "nonpayable",
      "type": "function"
    },
    {
      "inputs": [],
      "name": "triggerTransfers",
      "outputs": [],
      "stateMutability": "nonpayable",
      "type": "function"
    },
    {
      "inputs": [
        {
          "internalType": "uint256",
          "name": "eventId",
          "type": "uint256"
        }
      ],
      "name": "unlockTransfers",
      "outputs": [],
      "stateMutability": "nonpayable",
      "type": "function"
    },
    {
      "inputs": [],
      "name": "unlockTransfersBatch",
      "outputs": [],
      "stateMutability": "nonpayable",
      "type": "function"
    },
    {
      "inputs": [],
      "name": "unpause",
      "outputs": [],
      "stateMutability": "nonpayable",
      "type": "function"
    },
    {
      "inputs": [
        {
          "internalType": "address",
          "name": "tokenThisAddress",
          "type": "address"
        },
        {
          "internalType": "address",
          "name": "toAddress",
          "type": "address"
        },
        {
          "internalType": "uint256",
          "name": "amount",
          "type": "uint256"
        },
        {
          "internalType": "bool",
          "name": "unwrapSide",
          "type": "bool"
        },
        {
          "internalType": "bytes",
          "name": "signature",
          "type": "bytes"
        },
        {
          "internalType": "uint256",
          "name": "transferFee",
          "type": "uint256"
        },
        {
          "internalType": "uint256",
          "name": "bridgeFee",
          "type": "uint256"
        }
      ],
      "name": "withdraw",
      "outputs": [],
      "stateMutability": "payable",
      "type": "function"
    },
    {
      "inputs": [
        {
          "internalType": "address",
          "name": "toAddress",
          "type": "address"
        },
        {
          "internalType": "bytes",
          "name": "signature",
          "type": "bytes"
        },
        {
          "internalType": "uint256",
          "name": "transferFee",
          "type": "uint256"
        },
        {
          "internalType": "uint256",
          "name": "bridgeFee",
          "type": "uint256"
        }
      ],
      "name": "wrapWithdraw",
      "outputs": [],
      "stateMutability": "payable",
      "type": "function"
    },
    {
      "inputs": [],
      "name": "wrapperAddress",
      "outputs": [
        {
          "internalType": "address",
          "name": "",
          "type": "address"
        }
      ],
      "stateMutability": "view",
      "type": "function"
    },
    {
      "stateMutability": "payable",
      "type": "receive"
    }
  ],
  "transactionHash": "0x74aa0582b3243c92e3bb318f239742a8c4e8079c190e5f62ceee963932bd3cdb",
  "args": [],
  "numDeployments": 1,
  "solcInputHash": "f224fa56ef61ae0b66d24c6a9b641c64",
  "bytecode": "0x608060405234801561001057600080fd5b50614594806100206000396000f3fe60806040526004361061026f5760003560e060020a90048063853890ae11610148578063b6d3385e116100ba578063e31be0871161007e578063e31be08714610716578063f33fe10f14610743578063f700558714610763578063f862b7eb14610783578063f8b74433146107a3578063fd5d2ef3146107b657600080fd5b8063b6d3385e14610674578063b87330e9146106aa578063ba8bbbe0146106ca578063baeebe75146106e0578063d547741f146106f657600080fd5b806391d148541161010c57806391d14854146105d3578063924cf6e0146105f357806396cf52271461060957806399b5bb6414610629578063a217fddf1461063f578063aa9cea381461065457600080fd5b8063853890ae1461055557806386d7679e146105755780638ac1f86f1461058b5780638e5df9c7146105a057806391c5bc0a146105c057600080fd5b80633928b296116101e15780635c975abb116101a55780635c975abb146104a3578063746b5c42146104bb57806375b238fc146104d057806376671808146104f25780637df8b802146105085780638456cb591461054057600080fd5b80633928b296146103fe5780633f4ba83a1461041e57806342180fb8146104335780634a1856de146104535780635249a7051461048357600080fd5b8063248a9ca311610233578063248a9ca31461033857806329a9659d146103685780632bbba847146103885780632f2ff15d1461039e578063331a891a146103be57806336568abe146103de57600080fd5b806301ffc9a71461027b57806304421823146102b057806309fce356146102e05780630d6680871461030257806321d3d5361461031857600080fd5b3661027657005b600080fd5b34801561028757600080fd5b5061029b610296366004613976565b6107d6565b60405190151581526020015b60405180910390f35b3480156102bc57600080fd5b506102d260008051602061451f83398151915281565b6040519081526020016102a7565b3480156102ec57600080fd5b506103006102fb366004613877565b610869565b005b34801561030e57600080fd5b506102d260d35481565b34801561032457600080fd5b506103006103333660046136f1565b610891565b34801561034457600080fd5b506102d2610353366004613938565b60009081526065602052604090206001015490565b34801561037457600080fd5b506103006103833660046139b5565b610921565b34801561039457600080fd5b5060c9541561029b565b3480156103aa57600080fd5b506103006103b9366004613951565b6109a8565b3480156103ca57600080fd5b506103006103d9366004613938565b6109ce565b3480156103ea57600080fd5b506103006103f9366004613951565b610b15565b34801561040a57600080fd5b506103006104193660046136f1565b610ba4565b34801561042a57600080fd5b50610300610be0565b34801561043f57600080fd5b5061030061044e366004613938565b610c04565b34801561045f57600080fd5b506102d261046e366004613938565b60ca6020526000908152604090206001015481565b34801561048f57600080fd5b5061030061049e366004613842565b610c41565b3480156104af57600080fd5b5060975460ff1661029b565b3480156104c757600080fd5b50610300610cc6565b3480156104dc57600080fd5b506102d260008051602061453f83398151915281565b3480156104fe57600080fd5b506102d260e85481565b34801561051457600080fd5b5060cd5461052890600160a060020a031681565b604051600160a060020a0390911681526020016102a7565b34801561054c57600080fd5b50610300610d72565b34801561056157600080fd5b5061030061057036600461370e565b610d93565b34801561058157600080fd5b506102d260d65481565b34801561059757600080fd5b50610300610ddb565b3480156105ac57600080fd5b506103006105bb3660046136f1565b610f33565b6103006105ce3660046137db565b610f74565b3480156105df57600080fd5b5061029b6105ee366004613951565b6112a4565b3480156105ff57600080fd5b506102d260d15481565b34801561061557600080fd5b50610300610624366004613938565b6112cf565b34801561063557600080fd5b506102d260d45481565b34801561064b57600080fd5b506102d2600081565b34801561066057600080fd5b5061030061066f366004613b10565b6112ee565b34801561068057600080fd5b5061052861068f3660046136f1565b60cc60205260009081526040902054600160a060020a031681565b3480156106b657600080fd5b506103006106c53660046136f1565b611425565b3480156106d657600080fd5b506102d260cb5481565b3480156106ec57600080fd5b506102d260d25481565b34801561070257600080fd5b50610300610711366004613951565b611461565b34801561072257600080fd5b50610736610731366004613938565b611487565b6040516102a79190614018565b34801561074f57600080fd5b5060d05461052890600160a060020a031681565b34801561076f57600080fd5b5061030061077e366004613938565b611543565b34801561078f57600080fd5b5061030061079e366004613938565b611562565b6103006107b1366004613747565b611795565b3480156107c257600080fd5b506103006107d1366004613938565b611bf5565b60007bffffffffffffffffffffffffffffffffffffffffffffffffffffffff1982167f7965db0b00000000000000000000000000000000000000000000000000000000148061086357507f01ffc9a7000000000000000000000000000000000000000000000000000000007bffffffffffffffffffffffffffffffffffffffffffffffffffffffff198316145b92915050565b60008051602061453f8339815191526108828133611c14565b61088c8383611c7b565b505050565b600061089d8133611c14565b60d054600160a060020a0316156108fe5760405160e560020a62461bcd02815260206004820152601d60248201527f736964654272696467654164647265737320616c72656164792073657400000060448201526064015b60405180910390fd5b5060d08054600160a060020a031916600160a060020a0392909216919091179055565b600054610100900460ff168061093a575060005460ff16155b6109595760405160e560020a62461bcd0281526004016108f590613fbb565b600054610100900460ff1615801561097b576000805461ffff19166101011790555b61098485611d91565b61098f848484611eeb565b80156109a1576000805461ff00191690555b5050505050565b6000828152606560205260409020600101546109c48133611c14565b61088c838361206e565b60008051602061453f8339815191526109e78133611c14565b60975460ff16610a3c5760405160e560020a62461bcd02815260206004820152601460248201527f5061757361626c653a206e6f742070617573656400000000000000000000000060448201526064016108f5565b60cb54821015610ab75760405160e560020a62461bcd02815260206004820152602660248201527f6576656e744964206d757374206265203e3d206f6c646573744c6f636b65644560448201527f76656e744964000000000000000000000000000000000000000000000000000060648201526084016108f5565b600082815260ca602052604090206001015415610b0357600082815260ca6020526040812090610ae782826134f2565b5060006001919091015581610afb81614468565b925050610ab7565b610b0e600183614271565b60d4555050565b600160a060020a0381163314610b965760405160e560020a62461bcd02815260206004820152602f60248201527f416363657373436f6e74726f6c3a2063616e206f6e6c792072656e6f756e636560448201527f20726f6c657320666f722073656c66000000000000000000000000000000000060648201526084016108f5565b610ba082826120f4565b5050565b60008051602061453f833981519152610bbd8133611c14565b5060cf8054600160a060020a031916600160a060020a0392909216919091179055565b60008051602061453f833981519152610bf98133611c14565b610c0161215b565b50565b60008051602061453f833981519152610c1d8133611c14565b8160d25460d654610c2e9190614252565b610c38919061423e565b60d6555060d255565b60008051602061453f833981519152610c5a8133611c14565b815160005b81811015610cc05760cc6000858381518110610c7d57610c7d6144c9565b602090810291909101810151600160a060020a031682528101919091526040016000208054600160a060020a031916905580610cb881614468565b915050610c5f565b50505050565b60c954610d185760405160e560020a62461bcd02815260206004820152600e60248201527f517565756520697320656d70747900000000000000000000000000000000000060448201526064016108f5565b60d58054906000610d2883614468565b919050557fe15729a2f427aa4572dab35eb692c902fcbce57d41642013259c741380809ae260c9604051610d5c9190613ee1565b60405180910390a2610d7060c960006134f2565b565b60008051602061453f833981519152610d8b8133611c14565b610c016121fa565b60008051602061453f833981519152610dac8133611c14565b50600160a060020a03918216600090815260cc602052604090208054600160a060020a03191691909216179055565b60975460ff1615610e015760405160e560020a62461bcd0281526004016108f590613f84565b60cb545b600081815260ca60209081526040808320815181546060948102820185018452928101838152909391928492849190879085015b82821015610e9357600084815260209081902060408051606081018252600386029092018054600160a060020a03908116845260018083015490911684860152600290910154918301919091529083529092019101610e39565b5050505081526020016001820154815250509050806020015160001480610ebd5750428160200151115b15610ec8575060cb55565b8051610ed390612255565b600082815260ca6020526040812090610eec82826134f2565b50600060019190910181905560405183917f78ff9b3176bb0d6421590f3816e75cb15a9ffa2b7a1a028f40a3f4e029eb39f291a25080610f2b81614468565b915050610e05565b60008051602061453f833981519152610f4c8133611c14565b50600160a060020a0316600090815260cc602052604090208054600160a060020a0319169055565b60cd54600160a060020a03908116600090815260cc60205260409020541680610fe25760405160e560020a62461bcd02815260206004820152601560248201527f556e6b6e6f776e20746f6b656e2061646472657373000000000000000000000060448201526064016108f5565b610fec8284614226565b341161103d5760405160e560020a62461bcd02815260206004820152601160248201527f53656e742076616c7565203c3d2066656500000000000000000000000000000060448201526064016108f5565b60008261104a8534614271565b6110549190614271565b60cd5490915061107190600160a060020a031687878787866124e9565b60ce54604051600160a060020a039091169085156108fc029086906000818181858888f193505050501580156110ab573d6000803e3d6000fd5b5060cf54604051600160a060020a039091169084156108fc029085906000818181858888f193505050501580156110e6573d6000803e3d6000fd5b5060cd60009054906101000a9004600160a060020a0316600160a060020a031663d0e30db0826040518263ffffffff1660e060020a0281526004016000604051808303818588803b15801561113a57600080fd5b505af115801561114e573d6000803e3d6000fd5b505060408051606081018252600160a060020a0380881682528c81166020830190815282840188815260c980546001810182556000918252945160039095027f66be4f155c5ef2ebd3772b228f2f00681e4ed5826cdb3b1943cc11ad15ad1d2881018054968616600160a060020a031997881617905592517f66be4f155c5ef2ebd3772b228f2f00681e4ed5826cdb3b1943cc11ad15ad1d29840180549190951695169490941790925590517f66be4f155c5ef2ebd3772b228f2f00681e4ed5826cdb3b1943cc11ad15ad1d2a9091015560d55491513395507f3b823d3b837159352faddd1e0b9e9f584ca2bfe976238f6a9e6da4615cf2f444945061128b9350879087908b908b90958652600160a060020a0394851660208701529290931660408501526060840152608083019190915260a082015260c00190565b60405180910390a261129b612684565b50505050505050565b6000918252606560209081526040808420600160a060020a0393909316845291905290205460ff1690565b60008051602061453f8339815191526112e88133611c14565b5060d355565b60008051602061451f8339815191526113078133611c14565b60975460ff161561132d5760405160e560020a62461bcd0281526004016108f590613f84565b61133a6020830183614144565b602001357f196c47048e38df7a4fe6e581c8f4f2e2ba67ac0dd45b90da756e97bd61d9dd3b60405160405180910390a261138361137a6020840184614144565b602001356126fc565b60d15460d05461139d918491600160a060020a0316612761565b610ba06113ad6020840184614144565b6113bb906040810190614093565b808060200260200160405190810160405280939291908181526020016000905b82821015611407576113f860608302860136819003810190613b4b565b815260200190600101906113db565b505050505083806020019061141c9190614144565b60200135612b47565b60008051602061453f83398151915261143e8133611c14565b5060ce8054600160a060020a031916600160a060020a0392909216919091179055565b60008281526065602052604090206001015461147d8133611c14565b61088c83836120f4565b604080518082019091526060815260006020820152600082815260ca60209081526040808320815181546060948102820185018452928101838152909491938593919285929185015b8282101561152a57600084815260209081902060408051606081018252600386029092018054600160a060020a039081168452600180830154909116848601526002909101549183019190915290835290920191016114d0565b5050505081526020016001820154815250509050919050565b60008051602061453f83398151915261155c8133611c14565b5060d755565b60975460ff16156115885760405160e560020a62461bcd0281526004016108f590613f84565b60cb5481146115dc5760405160e560020a62461bcd02815260206004820152601c60248201527f63616e20756e6c6f636b206f6e6c79206f6c64657374206576656e740000000060448201526064016108f5565b600081815260ca60209081526040808320815181546060948102820185018452928101838152909391928492849190879085015b8282101561166a57600084815260209081902060408051606081018252600386029092018054600160a060020a03908116845260018083015490911684860152600290910154918301919091529083529092019101611610565b505050508152602001600182015481525050905060008160200151116116d55760405160e560020a62461bcd02815260206004820181905260248201527f6e6f206c6f636b6564207472616e73666572732077697468207468697320696460448201526064016108f5565b4281602001511061172b5760405160e560020a62461bcd02815260206004820152601b60248201527f6c6f636b54696d6520686173206e6f742079657420706173736564000000000060448201526064016108f5565b805161173690612255565b600082815260ca602052604081209061174f82826134f2565b50600060019190910181905560405183917f78ff9b3176bb0d6421590f3816e75cb15a9ffa2b7a1a028f40a3f4e029eb39f291a261178e826001614226565b60cb555050565b6000851561182a576000805260cc6020527f435daec636ce435a90bde0aeec309a303a359a854c5a51b7d6a5a941d6db609454600160a060020a038a81169116146118255760405160e560020a62461bcd02815260206004820152601f60248201527f546f6b656e206e6f7420706f696e7420746f206e617469766520746f6b656e0060448201526064016108f5565b611896565b50600160a060020a03808916600090815260cc602052604090205416806118965760405160e560020a62461bcd02815260206004820152601560248201527f556e6b6e6f776e20746f6b656e2061646472657373000000000000000000000060448201526064016108f5565b6118a08284614226565b34146118f15760405160e560020a62461bcd02815260206004820152601160248201527f53656e742076616c756520213d2066656500000000000000000000000000000060448201526064016108f5565b600087116119445760405160e560020a62461bcd02815260206004820152601160248201527f43616e6e6f74207769746864726177203000000000000000000000000000000060448201526064016108f5565b61195289868686868c6124e9565b60ce54604051600160a060020a039091169084156108fc029085906000818181858888f1935050505015801561198c573d6000803e3d6000fd5b5060cf54604051600160a060020a039091169083156108fc029084906000818181858888f193505050501580156119c7573d6000803e3d6000fd5b506040517f23b872dd00000000000000000000000000000000000000000000000000000000815233600482015230602482015260448101889052600160a060020a038a16906323b872dd90606401602060405180830381600087803b158015611a2f57600080fd5b505af1158015611a43573d6000803e3d6000fd5b505050506040513d601f19601f82011682018060405250810190611a6791906138db565b611ab65760405160e560020a62461bcd02815260206004820152601360248201527f4661696c207472616e7366657220636f696e730000000000000000000000000060448201526064016108f5565b6040805160608082018352600160a060020a038481168084528c821660208086019182528587018e815260c98054600181018255600091909152965160039097027f66be4f155c5ef2ebd3772b228f2f00681e4ed5826cdb3b1943cc11ad15ad1d2881018054988716600160a060020a0319998a1617905592517f66be4f155c5ef2ebd3772b228f2f00681e4ed5826cdb3b1943cc11ad15ad1d2984018054918716919098161790965594517f66be4f155c5ef2ebd3772b228f2f00681e4ed5826cdb3b1943cc11ad15ad1d2a9091015560d5548551908152918e16938201939093529283019190915281018890526080810184905260a0810183905233907f3b823d3b837159352faddd1e0b9e9f584ca2bfe976238f6a9e6da4615cf2f4449060c00160405180910390a2611bea612684565b505050505050505050565b60008051602061453f833981519152611c0e8133611c14565b5060d155565b611c1e82826112a4565b610ba057611c3681600160a060020a03166014612c0a565b611c41836020612c0a565b604051602001611c52929190613e4d565b60408051601f198184030181529082905260e560020a62461bcd0282526108f591600401613f51565b8051825114611cf55760405160e560020a62461bcd02815260206004820152603f60248201527f73697a6573206f6620746f6b656e5468697341646472657373657320616e642060448201527f746f6b656e53696465416464726573736573206d7573742062652073616d650060648201526084016108f5565b815160005b81811015610cc057828181518110611d1457611d146144c9565b602002602001015160cc6000868481518110611d3257611d326144c9565b6020026020010151600160a060020a0316600160a060020a0316815260200190815260200160002060006101000a815481600160a060020a030219169083600160a060020a031602179055508080611d8990614468565b915050611cfa565b600054610100900460ff1680611daa575060005460ff16155b611dc95760405160e560020a62461bcd0281526004016108f590613fbb565b600054610100900460ff16158015611deb576000805461ffff19166101011790555b611df6600033612df7565b611e1260008051602061451f8339815191528360400151612df7565b611e2e60008051602061453f8339815191528360200151612df7565b611e4082608001518360a00151611c7b565b606082015160cd8054600160a060020a03928316600160a060020a031991821617909155835160d0805491841691831691909117905560c084015160ce805491841691831691909117905560e084015160cf805491909316911617905561014082015160d15561010082015160d281905561012083015160d355600160cb81905560d555600360d755611ed3904261423e565b60d6558015610ba0576000805461ff00191690555050565b600054610100900460ff1680611f04575060005460ff16155b611f235760405160e560020a62461bcd0281526004016108f590613fbb565b600054610100900460ff16158015611f45576000805461ffff19166101011790555b6000845111611fbf5760405160e560020a62461bcd02815260206004820152603260248201527f4c656e677468206f66205f696e697469616c56616c696461746f7273206d757360448201527f7420626520626967676572207468616e2030000000000000000000000000000060648201526084016108f5565b60ea805460ff191660f860020a840417905560e8839055835160e95560005b845181101561205657600160e7600060e85481526020019081526020016000206000878481518110612012576120126144c9565b602090810291909101810151600160a060020a03168252810191909152604001600020805460ff19169115159190911790558061204e81614468565b915050611fde565b508015610cc0576000805461ff001916905550505050565b61207882826112a4565b610ba0576000828152606560209081526040808320600160a060020a03851684529091529020805460ff191660011790556120b03390565b600160a060020a031681600160a060020a0316837f2f8788117e7eff1d82e926ec794901d17c78024a50270940304540a733656f0d60405160405180910390a45050565b6120fe82826112a4565b15610ba0576000828152606560209081526040808320600160a060020a0385168085529252808320805460ff1916905551339285917ff6391f5c32d9c69d2a47ea670b442974b53935d1edc7fd64eb21e047a839171b9190a45050565b60975460ff166121b05760405160e560020a62461bcd02815260206004820152601460248201527f5061757361626c653a206e6f742070617573656400000000000000000000000060448201526064016108f5565b6097805460ff191690557f5db9ee0a495bf2e6ff9c91a7834c1ba4fdd244a5e8aa4e537bd38aeae4b073aa335b604051600160a060020a03909116815260200160405180910390a1565b60975460ff16156122205760405160e560020a62461bcd0281526004016108f590613f84565b6097805460ff191660011790557f62e78cea01bee320cd4e420270b5ea74000d11b0c9f74754ebdbfc544b05a2586121dd3390565b60005b8151811015610ba0576000600160a060020a031682828151811061227e5761227e6144c9565b602002602001015160000151600160a060020a0316141561239a5760cd548251600160a060020a0390911690632e1a7d4d908490849081106122c2576122c26144c9565b6020026020010151604001516040518263ffffffff1660e060020a0281526004016122ef91815260200190565b600060405180830381600087803b15801561230957600080fd5b505af115801561231d573d6000803e3d6000fd5b50505050818181518110612333576123336144c9565b602002602001015160200151600160a060020a03166108fc83838151811061235d5761235d6144c9565b6020026020010151604001519081150290604051600060405180830381858888f19350505050158015612394573d6000803e3d6000fd5b506124d7565b8181815181106123ac576123ac6144c9565b602002602001015160000151600160a060020a031663a9059cbb8383815181106123d8576123d86144c9565b6020026020010151602001518484815181106123f6576123f66144c9565b6020026020010151604001516040518363ffffffff1660e060020a028152600401612436929190600160a060020a03929092168252602082015260400190565b602060405180830381600087803b15801561245057600080fd5b505af1158015612464573d6000803e3d6000fd5b505050506040513d601f19601f8201168201806040525081019061248891906138db565b6124d75760405160e560020a62461bcd02815260206004820152601360248201527f4661696c207472616e7366657220636f696e730000000000000000000000000060448201526064016108f5565b806124e181614468565b915050612258565b600080806124f96107084261423e565b905060005b60d754811015612630576040516c01000000000000000000000000600160a060020a038c160260208201526034810183905260548101889052607481018790526094810186905260b40160408051601f198184030181529082905280516020918201207f19457468657265756d205369676e6564204d6573736167653a0a33320000000091830191909152603c820152605c016040516020818303038152906040528051906020012093506125e9848a8a8080601f016020809104026020016040519081016040528093929190818152602001838380828437600092019190915250612e0192505050565b925061260360008051602061451f833981519152846112a4565b15612611575050505061267c565b8161261b81614451565b9250508061262881614468565b9150506124fe565b5060405160e560020a62461bcd02815260206004820152601660248201527f5369676e617475726520636865636b206661696c65640000000000000000000060448201526064016108f5565b505050505050565b600060d25442612694919061423e565b905060d6548114610c015760d580549060006126af83614468565b919050557fe15729a2f427aa4572dab35eb692c902fcbce57d41642013259c741380809ae260c96040516126e39190613ee1565b60405180910390a26126f760c960006134f2565b60d655565b60d46000815461270b90614468565b91829055508114610c015760405160e560020a62461bcd02815260206004820152601460248201527f4576656e744964206f7574206f66206f7264657200000000000000000000000060448201526064016108f5565b60008080806127766060880160408901613b67565b67ffffffffffffffff16156128c55760006127a661279760208a018a614144565b6127a0906142e9565b87612e8c565b9050806127b3898061404a565b6127c360608c0160408d01613b67565b67ffffffffffffffff168181106127dc576127dc6144c9565b90506020028101906127ee9190614123565b60800135146128425760405160e560020a62461bcd02815260206004820181905260248201527f5472616e73666572206576656e742076616c69646174696f6e206661696c656460448201526064016108f5565b8661285360608a0160408b01613b67565b67ffffffffffffffff166128678a8061404a565b612872929150614271565b10156128c35760405160e560020a62461bcd02815260206004820152601860248201527f4e6f7420656e6f7567682073616665747920626c6f636b73000000000000000060448201526064016108f5565b505b60005b6128d2888061404a565b9050811015612b3d57366128e6898061404a565b838181106128f6576128f66144c9565b90506020028101906129089190614123565b9050841561296657848160400135146129665760405160e560020a62461bcd02815260206004820152601160248201527f57726f6e6720706172656e74206861736800000000000000000000000000000060448201526064016108f5565b61296f81612f81565b90965094506129938661298e6129896101408501856140dc565b6130fa565b613163565b6129e25760405160e560020a62461bcd02815260206004820152601160248201527f696e76616c6964207369676e617475726500000000000000000000000000000060448201526064016108f5565b6000612a2e6129f460c08401846140dc565b8080601f0160208091040260200160405190810160405280939291908181526020018383808284376000920191909152506131a292505050565b9050612a3b60c882614483565b612ae05760e854612a4d906001614226565b612a5860c88361423e565b14612aa85760405160e560020a62461bcd02815260206004820152600d60248201527f696e76616c69642065706f63680000000000000000000000000000000000000060448201526064016108f5565b612abe612ab96101408401846140dc565b6131d5565b9350600260e954612acf919061423e565b612ad99082614226565b9450612b28565b84811415612b285760e88054906000612af883614468565b909155505060e9849055612b1260608b0160408c01613b67565b67ffffffffffffffff16831015612b2857600095505b50508080612b3590614468565b9150506128c8565b5050505050505050565b60d354612b549042614226565b600082815260ca60205260408120600101919091555b825181101561088c57600082815260ca602052604090208351849083908110612b9557612b956144c9565b60209081029190910181015182546001808201855560009485529383902082516003909202018054600160a060020a0319908116600160a060020a0393841617825593830151948101805490941694909116939093179091556040015160029091015580612c0281614468565b915050612b6a565b60606000612c19836002614252565b612c24906002614226565b67ffffffffffffffff811115612c3c57612c3c6144e2565b6040519080825280601f01601f191660200182016040528015612c66576020820181803683370190505b5090507f300000000000000000000000000000000000000000000000000000000000000081600081518110612c9d57612c9d6144c9565b6020010190600160f860020a031916908160001a9053507f780000000000000000000000000000000000000000000000000000000000000081600181518110612ce857612ce86144c9565b6020010190600160f860020a031916908160001a9053506000612d0c846002614252565b612d17906001614226565b90505b6001811115612d9e577f303132333435363738396162636465660000000000000000000000000000000085600f1660108110612d5857612d586144c9565b1a60f860020a02828281518110612d7157612d716144c9565b6020010190600160f860020a031916908160001a905350601090940493612d9781614451565b9050612d1a565b508315612df05760405160e560020a62461bcd02815260206004820181905260248201527f537472696e67733a20686578206c656e67746820696e73756666696369656e7460448201526064016108f5565b9392505050565b610ba0828261206e565b6020810151604082015160608301516000929190831a601b811015612e2457601b015b60408051600081526020810180835288905260ff831691810191909152606081018490526080810183905260019060a0016020604051602081039080840390855afa158015612e77573d6000803e3d6000fd5b5050604051601f190151979650505050505050565b6000808360000151600081518110612ea657612ea66144c9565b6020026020010151838560000151600181518110612ec657612ec66144c9565b6020026020010151612edb8760200151613298565b875180516002908110612ef057612ef06144c9565b60200260200101518860400151604051602001612f0d9190613ece565b6040516020818303038152906040528960000151600381518110612f3357612f336144c9565b6020026020010151604051602001612f519796959493929190613d6b565b604051602081830303815290604052805190602001209050612f7984600001518260046133e8565b949350505050565b600080807fa0000000000000000000000000000000000000000000000000000000000000006040850135612fb860608701876140dc565b6080880135612fca60a08a018a6140dc565b612fd760c08c018c6140dc565b612fe460e08e018e6140dc565b604051602001612ffe9b9a99989796959493929190613bee565b60408051601f19818403018152918152909150613020908501602086016138f8565b60ea5460f860020a02826130386101208801886140dc565b61304e6130496101408b018b6140dc565b613498565b61305c6101608b018b6140dc565b604051602001613073989796959493929190613c5b565b60408051601f19818403018152919052805160209182012090613098908601866138f8565b826130a76101008801886140dc565b6130b56101408a018a6140dc565b6130c36101608c018c6140dc565b6040516020016130da989796959493929190613cee565b604051602081830303815290604052805190602001209250925050915091565b60606000613109604184614271565b9050838184613119604183614226565b92613126939291906141fc565b8080601f01602080910402602001604051908101604052809392919081815260200183838082843760009201919091525092979650505050505050565b6000806131708484612e01565b60e854600090815260e760209081526040808320600160a060020a039094168352929052205460ff1691505092915050565b6000815160086131b29190614252565b6131be90610100614271565b6131c7836142c0565b60029190910a900492915050565b60008060e85460016131e79190614226565b905060006131f6604185614271565b9050600060205b8281101561328e576000878288613215601483614226565b92613222939291906141fc565b61322b91614288565b600086815260e760209081526040808320600160a060020a036c0100000000000000000000000090950494851684529091529020805460ff1916600117905590508261327681614468565b935050506014816132879190614226565b90506131fd565b5095945050505050565b6040805160208082528183019092526060916000919060208201818036833701905050905082602082015260005b6020811015613317578181815181106132e1576132e16144c9565b60209101015160f860020a9081900402600160f860020a0319161561330557613317565b8061330f81614468565b9150506132c6565b6000613324826020614271565b67ffffffffffffffff81111561333c5761333c6144e2565b6040519080825280601f01601f191660200182016040528015613366576020820181803683370190505b50905060005b81518110156133df57838361338081614468565b945081518110613392576133926144c9565b602001015160f860020a900460f860020a028282815181106133b6576133b66144c9565b6020010190600160f860020a031916908160001a905350806133d781614468565b91505061336c565b50949350505050565b60006060825b855181101561348e57858181518110613409576134096144c9565b602002602001015185878360016134209190614226565b81518110613430576134306144c9565b602002602001015160405160200161344a93929190613e16565b604051602081830303815290604052915060208251116134725761346d826142c0565b61347a565b815160208301205b9450613487600282614226565b90506133ee565b5092949350505050565b6060826000836134a9604182614271565b926134b6939291906141fc565b8080601f016020809104026020016040519081016040528093929190818152602001838380828437600092019190915250929695505050505050565b5080546000825560030290600052602060002090810190610c0191905b80821115613541578054600160a060020a0319908116825560018201805490911690556000600282015560030161350f565b5090565b8035613550816144fb565b919050565b600082601f83011261356657600080fd5b8135602061357b613576836141d8565b6141a7565b828152818101908583018385028701840188101561359857600080fd5b60005b858110156135c05781356135ae816144fb565b8452928401929084019060010161359b565b5090979650505050505050565b600082601f8301126135de57600080fd5b813560206135ee613576836141d8565b8281528181019085830160608086028801850189101561360d57600080fd5b60005b86811015613634576136228a846136a3565b85529385019391810191600101613610565b509198975050505050505050565b8035600160f860020a03198116811461355057600080fd5b60008083601f84011261366c57600080fd5b50813567ffffffffffffffff81111561368457600080fd5b60208301915083602082850101111561369c57600080fd5b9250929050565b6000606082840312156136b557600080fd5b6136bd61415a565b905081356136ca816144fb565b815260208201356136da816144fb565b806020830152506040820135604082015292915050565b60006020828403121561370357600080fd5b8135612df0816144fb565b6000806040838503121561372157600080fd5b823561372c816144fb565b9150602083013561373c816144fb565b809150509250929050565b60008060008060008060008060e0898b03121561376357600080fd5b883561376e816144fb565b9750602089013561377e816144fb565b965060408901359550606089013561379581614510565b9450608089013567ffffffffffffffff8111156137b157600080fd5b6137bd8b828c0161365a565b999c989b5096999598969760a08701359660c0013595509350505050565b6000806000806000608086880312156137f357600080fd5b85356137fe816144fb565b9450602086013567ffffffffffffffff81111561381a57600080fd5b6138268882890161365a565b9699909850959660408101359660609091013595509350505050565b60006020828403121561385457600080fd5b813567ffffffffffffffff81111561386b57600080fd5b612f7984828501613555565b6000806040838503121561388a57600080fd5b823567ffffffffffffffff808211156138a257600080fd5b6138ae86838701613555565b935060208501359150808211156138c457600080fd5b506138d185828601613555565b9150509250929050565b6000602082840312156138ed57600080fd5b8151612df081614510565b60006020828403121561390a57600080fd5b81357cffffffffffffffffffffffffffffffffffffffffffffffffffffffffff1981168114612df057600080fd5b60006020828403121561394a57600080fd5b5035919050565b6000806040838503121561396457600080fd5b82359150602083013561373c816144fb565b60006020828403121561398857600080fd5b81357bffffffffffffffffffffffffffffffffffffffffffffffffffffffff1981168114612df057600080fd5b600080600080608085870312156139cb57600080fd5b843567ffffffffffffffff808211156139e357600080fd5b9086019061016082890312156139f857600080fd5b613a00614183565b613a0983613545565b8152613a1760208401613545565b6020820152613a2860408401613545565b6040820152613a3960608401613545565b6060820152608083013582811115613a5057600080fd5b613a5c8a828601613555565b60808301525060a083013582811115613a7457600080fd5b613a808a828601613555565b60a083015250613a9260c08401613545565b60c0820152613aa360e08401613545565b60e082015261010083810135908201526101208084013590820152610140928301359281019290925290945060208601359080821115613ae257600080fd5b50613aef87828801613555565b93505060408501359150613b0560608601613642565b905092959194509250565b600060208284031215613b2257600080fd5b813567ffffffffffffffff811115613b3957600080fd5b820160608185031215612df057600080fd5b600060608284031215613b5d57600080fd5b612df083836136a3565b600060208284031215613b7957600080fd5b813567ffffffffffffffff81168114612df057600080fd5b600081518084526020808501945080840160005b83811015613be35781518051600160a060020a0390811689528482015116848901526040908101519088015260609096019590820190600101613ba5565b509495945050505050565b600160f860020a03198c1681528a6001820152888a602183013788810160218101899052600090878960418301378781019050604181016000815286888237508581019050604181016000815284868237506000930160410192835250909b9a5050505050505050505050565b7cffffffffffffffffffffffffffffffffffffffffffffffffffffffffff1989168152600160f860020a03198816600382015260008751613ca3816004850160208c01614425565b820186886004830137868101905060048101600081528651613cc9818360208b01614425565b9190910190508385600483013760009301600401928352509098975050505050505050565b7cffffffffffffffffffffffffffffffffffffffffffffffffffffffffff198916815260008851613d26816003850160208d01614425565b82018789600383013787810190506003810160008152868882375085810190506003810160008152848682375060009301600301928352509098975050505050505050565b600088516020613d7e8285838e01614425565b81840191506c01000000000000000000000000600160a060020a038b1602825260148951613db181838601858e01614425565b8951930192613dc581838601858d01614425565b8851930192613dd981838601858c01614425565b8751930192613ded81838601858b01614425565b8651930192613e0181838601858a01614425565b929092019091019a9950505050505050505050565b60008451613e28818460208901614425565b82018481528351613e40816020808501908801614425565b0160200195945050505050565b7f416363657373436f6e74726f6c3a206163636f756e7420000000000000000000815260008351613e85816017850160208801614425565b7f206973206d697373696e6720726f6c65200000000000000000000000000000006017918401918201528351613ec2816028840160208801614425565b01602801949350505050565b602081526000612df06020830184613b91565b60006020808301818452808554808352604092508286019150866000528360002060005b82811015613f44578154600160a060020a0390811685526001808401549091168786015260028301548686015260609094019360039092019101613f05565b5091979650505050505050565b6020815260008251806020840152613f70816040850160208701614425565b601f01601f19169190910160400192915050565b60208082526010908201527f5061757361626c653a2070617573656400000000000000000000000000000000604082015260600190565b6020808252602e908201527f496e697469616c697a61626c653a20636f6e747261637420697320616c72656160408201527f647920696e697469616c697a6564000000000000000000000000000000000000606082015260800190565b6020815260008251604060208401526140346060840182613b91565b9050602084015160408401528091505092915050565b6000808335601e1984360301811261406157600080fd5b83018035915067ffffffffffffffff82111561407c57600080fd5b602090810192508102360382131561369c57600080fd5b6000808335601e198436030181126140aa57600080fd5b83018035915067ffffffffffffffff8211156140c557600080fd5b602001915060608102360382131561369c57600080fd5b6000808335601e198436030181126140f357600080fd5b83018035915067ffffffffffffffff82111561410e57600080fd5b60200191503681900382131561369c57600080fd5b6000823561017e1983360301811261413a57600080fd5b9190910192915050565b60008235605e1983360301811261413a57600080fd5b6040516060810167ffffffffffffffff8111828210171561417d5761417d6144e2565b60405290565b604051610160810167ffffffffffffffff8111828210171561417d5761417d6144e2565b604051601f8201601f1916810167ffffffffffffffff811182821017156141d0576141d06144e2565b604052919050565b600067ffffffffffffffff8211156141f2576141f26144e2565b5060209081020190565b6000808585111561420c57600080fd5b8386111561421957600080fd5b5050820193919092039150565b6000821982111561423957614239614497565b500190565b60008261424d5761424d6144b0565b500490565b600081600019048311821515161561426c5761426c614497565b500290565b60008282101561428357614283614497565b500390565b6bffffffffffffffffffffffff1981358181169160148510156142b857808560140360080260020a820283161692505b505092915050565b805160208083015191908110156142e3578060200360080260020a600003821691505b50919050565b6000606082360312156142fb57600080fd5b61430361415a565b823567ffffffffffffffff8082111561431b57600080fd5b90840190601f368184011261432f57600080fd5b8235602061433f613576836141d8565b828152818101908683013684860289018501111561435c57600080fd5b60005b858110156143e95781358881111561437657600080fd5b890136603f82011261438757600080fd5b8581013560408a82111561439d5761439d6144e2565b6143ae828b01601f191689016141a7565b82815236828486010111156143c257600080fd5b828285018a830137600092810189019290925250855250928401929084019060010161435f565b505087525087810135908601525050604085013591508082111561440c57600080fd5b50614419368286016135cd565b60408301525092915050565b60005b83811015614440578181015183820152602001614428565b83811115610cc05750506000910152565b60008161446057614460614497565b506000190190565b600060001982141561447c5761447c614497565b5060010190565b600082614492576144926144b0565b500690565b60e060020a634e487b7102600052601160045260246000fd5b60e060020a634e487b7102600052601260045260246000fd5b60e060020a634e487b7102600052603260045260246000fd5b60e060020a634e487b7102600052604160045260246000fd5b600160a060020a0381168114610c0157600080fd5b8015158114610c0157600080fdfe077a1d526a4ce8a773632ab13b4fbbf1fcc954c3dab26cd27ea0e2a6750da5d7a49807205ce4d355092ef5a8a18f56e8913cf4a201fbe287825b095693c21775a26469706673582212206c4b39ab63b94c6860e33b68287ab7f2854db460df91cc387a38a2d4b28bb3a164736f6c63430008060033",
  "devdoc": {
    "kind": "dev",
    "methods": {
      "getRoleAdmin(bytes32)": {
        "details": "Returns the admin role that controls `role`. See {grantRole} and {revokeRole}. To change a role's admin, use {_setRoleAdmin}."
      },
      "grantRole(bytes32,address)": {
        "details": "Grants `role` to `account`. If `account` had not been already granted `role`, emits a {RoleGranted} event. Requirements: - the caller must have ``role``'s admin role."
      },
      "hasRole(bytes32,address)": {
        "details": "Returns `true` if `account` has been granted `role`."
      },
      "paused()": {
        "details": "Returns true if the contract is paused, and false otherwise."
      },
      "renounceRole(bytes32,address)": {
        "details": "Revokes `role` from the calling account. Roles are often managed via {grantRole} and {revokeRole}: this function's purpose is to provide a mechanism for accounts to lose their privileges if they are compromised (such as when a trusted device is misplaced). If the calling account had been granted `role`, emits a {RoleRevoked} event. Requirements: - the caller must be `account`."
      },
      "revokeRole(bytes32,address)": {
        "details": "Revokes `role` from `account`. If `account` had been granted `role`, emits a {RoleRevoked} event. Requirements: - the caller must have ``role``'s admin role."
      },
      "supportsInterface(bytes4)": {
        "details": "See {IERC165-supportsInterface}."
      }
    },
    "version": 1
  },
  "userdoc": {
    "kind": "user",
    "methods": {},
    "version": 1
  },
  "storageLayout": {
    "storage": [
      {
        "astId": 413,
        "contract": "contracts/networks/BSC_AmbBridge.sol:BSC_AmbBridge",
        "label": "_initialized",
        "offset": 0,
        "slot": "0",
        "type": "t_bool"
      },
      {
        "astId": 416,
        "contract": "contracts/networks/BSC_AmbBridge.sol:BSC_AmbBridge",
        "label": "_initializing",
        "offset": 1,
        "slot": "0",
        "type": "t_bool"
      },
      {
        "astId": 609,
        "contract": "contracts/networks/BSC_AmbBridge.sol:BSC_AmbBridge",
        "label": "__gap",
        "offset": 0,
        "slot": "1",
        "type": "t_array(t_uint256)50_storage"
      },
      {
        "astId": 858,
        "contract": "contracts/networks/BSC_AmbBridge.sol:BSC_AmbBridge",
        "label": "__gap",
        "offset": 0,
        "slot": "51",
        "type": "t_array(t_uint256)50_storage"
      },
      {
        "astId": 48,
        "contract": "contracts/networks/BSC_AmbBridge.sol:BSC_AmbBridge",
        "label": "_roles",
        "offset": 0,
        "slot": "101",
        "type": "t_mapping(t_bytes32,t_struct(RoleData)43_storage)"
      },
      {
        "astId": 333,
        "contract": "contracts/networks/BSC_AmbBridge.sol:BSC_AmbBridge",
        "label": "__gap",
        "offset": 0,
        "slot": "102",
        "type": "t_array(t_uint256)49_storage"
      },
      {
        "astId": 474,
        "contract": "contracts/networks/BSC_AmbBridge.sol:BSC_AmbBridge",
        "label": "_paused",
        "offset": 0,
        "slot": "151",
        "type": "t_bool"
      },
      {
        "astId": 565,
        "contract": "contracts/networks/BSC_AmbBridge.sol:BSC_AmbBridge",
        "label": "__gap",
        "offset": 0,
        "slot": "152",
        "type": "t_array(t_uint256)49_storage"
      },
      {
        "astId": 6808,
        "contract": "contracts/networks/BSC_AmbBridge.sol:BSC_AmbBridge",
        "label": "queue",
        "offset": 0,
        "slot": "201",
        "type": "t_array(t_struct(Transfer)7888_storage)dyn_storage"
      },
      {
        "astId": 6813,
        "contract": "contracts/networks/BSC_AmbBridge.sol:BSC_AmbBridge",
        "label": "lockedTransfers",
        "offset": 0,
        "slot": "202",
        "type": "t_mapping(t_uint256,t_struct(LockedTransfers)7905_storage)"
      },
      {
        "astId": 6815,
        "contract": "contracts/networks/BSC_AmbBridge.sol:BSC_AmbBridge",
        "label": "oldestLockedEventId",
        "offset": 0,
        "slot": "203",
        "type": "t_uint256"
      },
      {
        "astId": 6819,
        "contract": "contracts/networks/BSC_AmbBridge.sol:BSC_AmbBridge",
        "label": "tokenAddresses",
        "offset": 0,
        "slot": "204",
        "type": "t_mapping(t_address,t_address)"
      },
      {
        "astId": 6821,
        "contract": "contracts/networks/BSC_AmbBridge.sol:BSC_AmbBridge",
        "label": "wrapperAddress",
        "offset": 0,
        "slot": "205",
        "type": "t_address"
      },
      {
        "astId": 6823,
        "contract": "contracts/networks/BSC_AmbBridge.sol:BSC_AmbBridge",
        "label": "transferFeeRecipient",
        "offset": 0,
        "slot": "206",
        "type": "t_address_payable"
      },
      {
        "astId": 6825,
        "contract": "contracts/networks/BSC_AmbBridge.sol:BSC_AmbBridge",
        "label": "bridgeFeeRecipient",
        "offset": 0,
        "slot": "207",
        "type": "t_address_payable"
      },
      {
        "astId": 6827,
        "contract": "contracts/networks/BSC_AmbBridge.sol:BSC_AmbBridge",
        "label": "sideBridgeAddress",
        "offset": 0,
        "slot": "208",
        "type": "t_address"
      },
      {
        "astId": 6829,
        "contract": "contracts/networks/BSC_AmbBridge.sol:BSC_AmbBridge",
        "label": "minSafetyBlocks",
        "offset": 0,
        "slot": "209",
        "type": "t_uint256"
      },
      {
        "astId": 6831,
        "contract": "contracts/networks/BSC_AmbBridge.sol:BSC_AmbBridge",
        "label": "timeframeSeconds",
        "offset": 0,
        "slot": "210",
        "type": "t_uint256"
      },
      {
        "astId": 6833,
        "contract": "contracts/networks/BSC_AmbBridge.sol:BSC_AmbBridge",
        "label": "lockTime",
        "offset": 0,
        "slot": "211",
        "type": "t_uint256"
      },
      {
        "astId": 6835,
        "contract": "contracts/networks/BSC_AmbBridge.sol:BSC_AmbBridge",
        "label": "inputEventId",
        "offset": 0,
        "slot": "212",
        "type": "t_uint256"
      },
      {
        "astId": 6837,
        "contract": "contracts/networks/BSC_AmbBridge.sol:BSC_AmbBridge",
        "label": "outputEventId",
        "offset": 0,
        "slot": "213",
        "type": "t_uint256"
      },
      {
        "astId": 6839,
        "contract": "contracts/networks/BSC_AmbBridge.sol:BSC_AmbBridge",
        "label": "lastTimeframe",
        "offset": 0,
        "slot": "214",
        "type": "t_uint256"
      },
      {
        "astId": 6841,
        "contract": "contracts/networks/BSC_AmbBridge.sol:BSC_AmbBridge",
        "label": "signatureFeeCheckNumber",
        "offset": 0,
        "slot": "215",
        "type": "t_uint256"
      },
      {
        "astId": 7878,
        "contract": "contracts/networks/BSC_AmbBridge.sol:BSC_AmbBridge",
        "label": "__gap",
        "offset": 0,
        "slot": "216",
        "type": "t_array(t_uint256)15_storage"
      },
      {
        "astId": 2709,
        "contract": "contracts/networks/BSC_AmbBridge.sol:BSC_AmbBridge",
        "label": "allValidators",
        "offset": 0,
        "slot": "231",
        "type": "t_mapping(t_uint256,t_mapping(t_address,t_bool))"
      },
      {
        "astId": 2711,
        "contract": "contracts/networks/BSC_AmbBridge.sol:BSC_AmbBridge",
        "label": "currentEpoch",
        "offset": 0,
        "slot": "232",
        "type": "t_uint256"
      },
      {
        "astId": 2713,
        "contract": "contracts/networks/BSC_AmbBridge.sol:BSC_AmbBridge",
        "label": "currentValidatorSetSize",
        "offset": 0,
        "slot": "233",
        "type": "t_uint256"
      },
      {
        "astId": 2715,
        "contract": "contracts/networks/BSC_AmbBridge.sol:BSC_AmbBridge",
        "label": "chainId",
        "offset": 0,
        "slot": "234",
        "type": "t_bytes1"
      }
    ],
    "types": {
      "t_address": {
        "encoding": "inplace",
        "label": "address",
        "numberOfBytes": "20"
      },
      "t_address_payable": {
        "encoding": "inplace",
        "label": "address payable",
        "numberOfBytes": "20"
      },
      "t_array(t_struct(Transfer)7888_storage)dyn_storage": {
        "base": "t_struct(Transfer)7888_storage",
        "encoding": "dynamic_array",
        "label": "struct CommonStructs.Transfer[]",
        "numberOfBytes": "32"
      },
      "t_array(t_uint256)15_storage": {
        "base": "t_uint256",
        "encoding": "inplace",
        "label": "uint256[15]",
        "numberOfBytes": "480"
      },
      "t_array(t_uint256)49_storage": {
        "base": "t_uint256",
        "encoding": "inplace",
        "label": "uint256[49]",
        "numberOfBytes": "1568"
      },
      "t_array(t_uint256)50_storage": {
        "base": "t_uint256",
        "encoding": "inplace",
        "label": "uint256[50]",
        "numberOfBytes": "1600"
      },
      "t_bool": {
        "encoding": "inplace",
        "label": "bool",
        "numberOfBytes": "1"
      },
      "t_bytes1": {
        "encoding": "inplace",
        "label": "bytes1",
        "numberOfBytes": "1"
      },
      "t_bytes32": {
        "encoding": "inplace",
        "label": "bytes32",
        "numberOfBytes": "32"
      },
      "t_mapping(t_address,t_address)": {
        "encoding": "mapping",
        "key": "t_address",
        "label": "mapping(address => address)",
        "numberOfBytes": "32",
        "value": "t_address"
      },
      "t_mapping(t_address,t_bool)": {
        "encoding": "mapping",
        "key": "t_address",
        "label": "mapping(address => bool)",
        "numberOfBytes": "32",
        "value": "t_bool"
      },
      "t_mapping(t_bytes32,t_struct(RoleData)43_storage)": {
        "encoding": "mapping",
        "key": "t_bytes32",
        "label": "mapping(bytes32 => struct AccessControlUpgradeable.RoleData)",
        "numberOfBytes": "32",
        "value": "t_struct(RoleData)43_storage"
      },
      "t_mapping(t_uint256,t_mapping(t_address,t_bool))": {
        "encoding": "mapping",
        "key": "t_uint256",
        "label": "mapping(uint256 => mapping(address => bool))",
        "numberOfBytes": "32",
        "value": "t_mapping(t_address,t_bool)"
      },
      "t_mapping(t_uint256,t_struct(LockedTransfers)7905_storage)": {
        "encoding": "mapping",
        "key": "t_uint256",
        "label": "mapping(uint256 => struct CommonStructs.LockedTransfers)",
        "numberOfBytes": "32",
        "value": "t_struct(LockedTransfers)7905_storage"
      },
      "t_struct(LockedTransfers)7905_storage": {
        "encoding": "inplace",
        "label": "struct CommonStructs.LockedTransfers",
        "members": [
          {
            "astId": 7902,
            "contract": "contracts/networks/BSC_AmbBridge.sol:BSC_AmbBridge",
            "label": "transfers",
            "offset": 0,
            "slot": "0",
            "type": "t_array(t_struct(Transfer)7888_storage)dyn_storage"
          },
          {
            "astId": 7904,
            "contract": "contracts/networks/BSC_AmbBridge.sol:BSC_AmbBridge",
            "label": "endTimestamp",
            "offset": 0,
            "slot": "1",
            "type": "t_uint256"
          }
        ],
        "numberOfBytes": "64"
      },
      "t_struct(RoleData)43_storage": {
        "encoding": "inplace",
        "label": "struct AccessControlUpgradeable.RoleData",
        "members": [
          {
            "astId": 40,
            "contract": "contracts/networks/BSC_AmbBridge.sol:BSC_AmbBridge",
            "label": "members",
            "offset": 0,
            "slot": "0",
            "type": "t_mapping(t_address,t_bool)"
          },
          {
            "astId": 42,
            "contract": "contracts/networks/BSC_AmbBridge.sol:BSC_AmbBridge",
            "label": "adminRole",
            "offset": 0,
            "slot": "1",
            "type": "t_bytes32"
          }
        ],
        "numberOfBytes": "64"
      },
      "t_struct(Transfer)7888_storage": {
        "encoding": "inplace",
        "label": "struct CommonStructs.Transfer",
        "members": [
          {
            "astId": 7883,
            "contract": "contracts/networks/BSC_AmbBridge.sol:BSC_AmbBridge",
            "label": "tokenAddress",
            "offset": 0,
            "slot": "0",
            "type": "t_address"
          },
          {
            "astId": 7885,
            "contract": "contracts/networks/BSC_AmbBridge.sol:BSC_AmbBridge",
            "label": "toAddress",
            "offset": 0,
            "slot": "1",
            "type": "t_address"
          },
          {
            "astId": 7887,
            "contract": "contracts/networks/BSC_AmbBridge.sol:BSC_AmbBridge",
            "label": "amount",
            "offset": 0,
            "slot": "2",
            "type": "t_uint256"
          }
        ],
        "numberOfBytes": "96"
      },
      "t_uint256": {
        "encoding": "inplace",
        "label": "uint256",
        "numberOfBytes": "32"
      }
    }
  }
}