{
  "address": "0x009C4D1d8663A66672d1a76Bee464Ab589Fc5A69",
  "abi": [
    {
      "anonymous": false,
      "inputs": [
        {
          "indexed": false,
          "internalType": "address",
          "name": "account",
          "type": "address"
        }
      ],
      "name": "Paused",
      "type": "event"
    },
    {
      "anonymous": false,
      "inputs": [
        {
          "indexed": true,
          "internalType": "bytes32",
          "name": "role",
          "type": "bytes32"
        },
        {
          "indexed": true,
          "internalType": "bytes32",
          "name": "previousAdminRole",
          "type": "bytes32"
        },
        {
          "indexed": true,
          "internalType": "bytes32",
          "name": "newAdminRole",
          "type": "bytes32"
        }
      ],
      "name": "RoleAdminChanged",
      "type": "event"
    },
    {
      "anonymous": false,
      "inputs": [
        {
          "indexed": true,
          "internalType": "bytes32",
          "name": "role",
          "type": "bytes32"
        },
        {
          "indexed": true,
          "internalType": "address",
          "name": "account",
          "type": "address"
        },
        {
          "indexed": true,
          "internalType": "address",
          "name": "sender",
          "type": "address"
        }
      ],
      "name": "RoleGranted",
      "type": "event"
    },
    {
      "anonymous": false,
      "inputs": [
        {
          "indexed": true,
          "internalType": "bytes32",
          "name": "role",
          "type": "bytes32"
        },
        {
          "indexed": true,
          "internalType": "address",
          "name": "account",
          "type": "address"
        },
        {
          "indexed": true,
          "internalType": "address",
          "name": "sender",
          "type": "address"
        }
      ],
      "name": "RoleRevoked",
      "type": "event"
    },
    {
      "anonymous": false,
      "inputs": [
        {
          "indexed": true,
          "internalType": "uint256",
          "name": "eventId",
          "type": "uint256"
        },
        {
          "components": [
            {
              "internalType": "address",
              "name": "tokenAddress",
              "type": "address"
            },
            {
              "internalType": "address",
              "name": "toAddress",
              "type": "address"
            },
            {
              "internalType": "uint256",
              "name": "amount",
              "type": "uint256"
            }
          ],
          "indexed": false,
          "internalType": "struct CommonStructs.Transfer[]",
          "name": "queue",
          "type": "tuple[]"
        }
      ],
      "name": "Transfer",
      "type": "event"
    },
    {
      "anonymous": false,
      "inputs": [
        {
          "indexed": true,
          "internalType": "uint256",
          "name": "eventId",
          "type": "uint256"
        }
      ],
      "name": "TransferFinish",
      "type": "event"
    },
    {
      "anonymous": false,
      "inputs": [
        {
          "indexed": true,
          "internalType": "uint256",
          "name": "eventId",
          "type": "uint256"
        }
      ],
      "name": "TransferSubmit",
      "type": "event"
    },
    {
      "anonymous": false,
      "inputs": [
        {
          "indexed": false,
          "internalType": "address",
          "name": "account",
          "type": "address"
        }
      ],
      "name": "Unpaused",
      "type": "event"
    },
    {
      "anonymous": false,
      "inputs": [
        {
          "indexed": true,
          "internalType": "address",
          "name": "from",
          "type": "address"
        },
        {
          "indexed": false,
          "internalType": "uint256",
          "name": "eventId",
          "type": "uint256"
        },
        {
          "indexed": false,
          "internalType": "address",
          "name": "tokenFrom",
          "type": "address"
        },
        {
          "indexed": false,
          "internalType": "address",
          "name": "tokenTo",
          "type": "address"
        },
        {
          "indexed": false,
          "internalType": "uint256",
          "name": "amount",
          "type": "uint256"
        },
        {
          "indexed": false,
          "internalType": "uint256",
          "name": "transferFeeAmount",
          "type": "uint256"
        },
        {
          "indexed": false,
          "internalType": "uint256",
          "name": "bridgeFeeAmount",
          "type": "uint256"
        }
      ],
      "name": "Withdraw",
      "type": "event"
    },
    {
      "inputs": [],
      "name": "ADMIN_ROLE",
      "outputs": [
        {
          "internalType": "bytes32",
          "name": "",
          "type": "bytes32"
        }
      ],
      "stateMutability": "view",
      "type": "function"
    },
    {
      "inputs": [],
      "name": "DEFAULT_ADMIN_ROLE",
      "outputs": [
        {
          "internalType": "bytes32",
          "name": "",
          "type": "bytes32"
        }
      ],
      "stateMutability": "view",
      "type": "function"
    },
    {
      "inputs": [],
      "name": "RELAY_ROLE",
      "outputs": [
        {
          "internalType": "bytes32",
          "name": "",
          "type": "bytes32"
        }
      ],
      "stateMutability": "view",
      "type": "function"
    },
    {
      "inputs": [
        {
          "internalType": "address payable",
          "name": "feeRecipient_",
          "type": "address"
        }
      ],
      "name": "changeBridgeFeeRecipient",
      "outputs": [],
      "stateMutability": "nonpayable",
      "type": "function"
    },
    {
      "inputs": [
        {
          "internalType": "uint256",
          "name": "lockTime_",
          "type": "uint256"
        }
      ],
      "name": "changeLockTime",
      "outputs": [],
      "stateMutability": "nonpayable",
      "type": "function"
    },
    {
      "inputs": [
        {
          "internalType": "uint256",
          "name": "minSafetyBlocks_",
          "type": "uint256"
        }
      ],
      "name": "changeMinSafetyBlocks",
      "outputs": [],
      "stateMutability": "nonpayable",
      "type": "function"
    },
    {
      "inputs": [
        {
          "internalType": "uint256",
          "name": "signatureFeeCheckNumber_",
          "type": "uint256"
        }
      ],
      "name": "changeSignatureFeeCheckNumber",
      "outputs": [],
      "stateMutability": "nonpayable",
      "type": "function"
    },
    {
      "inputs": [
        {
          "internalType": "uint256",
          "name": "timeframeSeconds_",
          "type": "uint256"
        }
      ],
      "name": "changeTimeframeSeconds",
      "outputs": [],
      "stateMutability": "nonpayable",
      "type": "function"
    },
    {
      "inputs": [
        {
          "internalType": "address payable",
          "name": "feeRecipient_",
          "type": "address"
        }
      ],
      "name": "changeTransferFeeRecipient",
      "outputs": [],
      "stateMutability": "nonpayable",
      "type": "function"
    },
    {
      "inputs": [],
      "name": "currentEpoch",
      "outputs": [
        {
          "internalType": "uint256",
          "name": "",
          "type": "uint256"
        }
      ],
      "stateMutability": "view",
      "type": "function"
    },
    {
      "inputs": [
        {
          "internalType": "uint256",
          "name": "eventId",
          "type": "uint256"
        }
      ],
      "name": "getLockedTransfers",
      "outputs": [
        {
          "components": [
            {
              "components": [
                {
                  "internalType": "address",
                  "name": "tokenAddress",
                  "type": "address"
                },
                {
                  "internalType": "address",
                  "name": "toAddress",
                  "type": "address"
                },
                {
                  "internalType": "uint256",
                  "name": "amount",
                  "type": "uint256"
                }
              ],
              "internalType": "struct CommonStructs.Transfer[]",
              "name": "transfers",
              "type": "tuple[]"
            },
            {
              "internalType": "uint256",
              "name": "endTimestamp",
              "type": "uint256"
            }
          ],
          "internalType": "struct CommonStructs.LockedTransfers",
          "name": "",
          "type": "tuple"
        }
      ],
      "stateMutability": "view",
      "type": "function"
    },
    {
      "inputs": [
        {
          "internalType": "bytes32",
          "name": "role",
          "type": "bytes32"
        }
      ],
      "name": "getRoleAdmin",
      "outputs": [
        {
          "internalType": "bytes32",
          "name": "",
          "type": "bytes32"
        }
      ],
      "stateMutability": "view",
      "type": "function"
    },
    {
      "inputs": [
        {
          "internalType": "bytes32",
          "name": "role",
          "type": "bytes32"
        },
        {
          "internalType": "address",
          "name": "account",
          "type": "address"
        }
      ],
      "name": "grantRole",
      "outputs": [],
      "stateMutability": "nonpayable",
      "type": "function"
    },
    {
      "inputs": [
        {
          "internalType": "bytes32",
          "name": "role",
          "type": "bytes32"
        },
        {
          "internalType": "address",
          "name": "account",
          "type": "address"
        }
      ],
      "name": "hasRole",
      "outputs": [
        {
          "internalType": "bool",
          "name": "",
          "type": "bool"
        }
      ],
      "stateMutability": "view",
      "type": "function"
    },
    {
      "inputs": [
        {
          "components": [
            {
              "internalType": "address",
              "name": "sideBridgeAddress",
              "type": "address"
            },
            {
              "internalType": "address",
              "name": "adminAddress",
              "type": "address"
            },
            {
              "internalType": "address",
              "name": "relayAddress",
              "type": "address"
            },
            {
              "internalType": "address",
              "name": "wrappingTokenAddress",
              "type": "address"
            },
            {
              "internalType": "address[]",
              "name": "tokenThisAddresses",
              "type": "address[]"
            },
            {
              "internalType": "address[]",
              "name": "tokenSideAddresses",
              "type": "address[]"
            },
            {
              "internalType": "address payable",
              "name": "transferFeeRecipient",
              "type": "address"
            },
            {
              "internalType": "address payable",
              "name": "bridgeFeeRecipient",
              "type": "address"
            },
            {
              "internalType": "uint256",
              "name": "timeframeSeconds",
              "type": "uint256"
            },
            {
              "internalType": "uint256",
              "name": "lockTime",
              "type": "uint256"
            },
            {
              "internalType": "uint256",
              "name": "minSafetyBlocks",
              "type": "uint256"
            }
          ],
          "internalType": "struct CommonStructs.ConstructorArgs",
          "name": "args",
          "type": "tuple"
        },
        {
          "internalType": "address[]",
          "name": "initialValidators",
          "type": "address[]"
        },
        {
          "internalType": "uint256",
          "name": "initialEpoch",
          "type": "uint256"
        },
        {
          "internalType": "bytes1",
          "name": "chainId",
          "type": "bytes1"
        }
      ],
      "name": "initialize",
      "outputs": [],
      "stateMutability": "nonpayable",
      "type": "function"
    },
    {
      "inputs": [],
      "name": "inputEventId",
      "outputs": [
        {
          "internalType": "uint256",
          "name": "",
          "type": "uint256"
        }
      ],
      "stateMutability": "view",
      "type": "function"
    },
    {
      "inputs": [],
      "name": "isQueueEmpty",
      "outputs": [
        {
          "internalType": "bool",
          "name": "",
          "type": "bool"
        }
      ],
      "stateMutability": "view",
      "type": "function"
    },
    {
      "inputs": [],
      "name": "lastTimeframe",
      "outputs": [
        {
          "internalType": "uint256",
          "name": "",
          "type": "uint256"
        }
      ],
      "stateMutability": "view",
      "type": "function"
    },
    {
      "inputs": [],
      "name": "lockTime",
      "outputs": [
        {
          "internalType": "uint256",
          "name": "",
          "type": "uint256"
        }
      ],
      "stateMutability": "view",
      "type": "function"
    },
    {
      "inputs": [
        {
          "internalType": "uint256",
          "name": "",
          "type": "uint256"
        }
      ],
      "name": "lockedTransfers",
      "outputs": [
        {
          "internalType": "uint256",
          "name": "endTimestamp",
          "type": "uint256"
        }
      ],
      "stateMutability": "view",
      "type": "function"
    },
    {
      "inputs": [],
      "name": "minSafetyBlocks",
      "outputs": [
        {
          "internalType": "uint256",
          "name": "",
          "type": "uint256"
        }
      ],
      "stateMutability": "view",
      "type": "function"
    },
    {
      "inputs": [],
      "name": "oldestLockedEventId",
      "outputs": [
        {
          "internalType": "uint256",
          "name": "",
          "type": "uint256"
        }
      ],
      "stateMutability": "view",
      "type": "function"
    },
    {
      "inputs": [],
      "name": "pause",
      "outputs": [],
      "stateMutability": "nonpayable",
      "type": "function"
    },
    {
      "inputs": [],
      "name": "paused",
      "outputs": [
        {
          "internalType": "bool",
          "name": "",
          "type": "bool"
        }
      ],
      "stateMutability": "view",
      "type": "function"
    },
    {
      "inputs": [
        {
          "internalType": "uint256",
          "name": "eventId",
          "type": "uint256"
        }
      ],
      "name": "removeLockedTransfers",
      "outputs": [],
      "stateMutability": "nonpayable",
      "type": "function"
    },
    {
      "inputs": [
        {
          "internalType": "bytes32",
          "name": "role",
          "type": "bytes32"
        },
        {
          "internalType": "address",
          "name": "account",
          "type": "address"
        }
      ],
      "name": "renounceRole",
      "outputs": [],
      "stateMutability": "nonpayable",
      "type": "function"
    },
    {
      "inputs": [
        {
          "internalType": "bytes32",
          "name": "role",
          "type": "bytes32"
        },
        {
          "internalType": "address",
          "name": "account",
          "type": "address"
        }
      ],
      "name": "revokeRole",
      "outputs": [],
      "stateMutability": "nonpayable",
      "type": "function"
    },
    {
      "inputs": [
        {
          "internalType": "address",
          "name": "_sideBridgeAddress",
          "type": "address"
        }
      ],
      "name": "setSideBridge",
      "outputs": [],
      "stateMutability": "nonpayable",
      "type": "function"
    },
    {
      "inputs": [],
      "name": "sideBridgeAddress",
      "outputs": [
        {
          "internalType": "address",
          "name": "",
          "type": "address"
        }
      ],
      "stateMutability": "view",
      "type": "function"
    },
    {
      "inputs": [
        {
          "components": [
            {
              "components": [
                {
                  "internalType": "bytes3",
                  "name": "p0Signed",
                  "type": "bytes3"
                },
                {
                  "internalType": "bytes3",
                  "name": "p0Unsigned",
                  "type": "bytes3"
                },
                {
                  "internalType": "bytes32",
                  "name": "parentHash",
                  "type": "bytes32"
                },
                {
                  "internalType": "bytes",
                  "name": "p1",
                  "type": "bytes"
                },
                {
                  "internalType": "bytes32",
                  "name": "receiptHash",
                  "type": "bytes32"
                },
                {
                  "internalType": "bytes",
                  "name": "p2",
                  "type": "bytes"
                },
                {
                  "internalType": "bytes",
                  "name": "number",
                  "type": "bytes"
                },
                {
                  "internalType": "bytes",
                  "name": "p3",
                  "type": "bytes"
                },
                {
                  "internalType": "bytes",
                  "name": "p4Signed",
                  "type": "bytes"
                },
                {
                  "internalType": "bytes",
                  "name": "p4Unsigned",
                  "type": "bytes"
                },
                {
                  "internalType": "bytes",
                  "name": "extraData",
                  "type": "bytes"
                },
                {
                  "internalType": "bytes",
                  "name": "p5",
                  "type": "bytes"
                }
              ],
              "internalType": "struct CheckPoSA.BlockPoSA[]",
              "name": "blocks",
              "type": "tuple[]"
            },
            {
              "components": [
                {
                  "internalType": "bytes[]",
                  "name": "receiptProof",
                  "type": "bytes[]"
                },
                {
                  "internalType": "uint256",
                  "name": "eventId",
                  "type": "uint256"
                },
                {
                  "components": [
                    {
                      "internalType": "address",
                      "name": "tokenAddress",
                      "type": "address"
                    },
                    {
                      "internalType": "address",
                      "name": "toAddress",
                      "type": "address"
                    },
                    {
                      "internalType": "uint256",
                      "name": "amount",
                      "type": "uint256"
                    }
                  ],
                  "internalType": "struct CommonStructs.Transfer[]",
                  "name": "transfers",
                  "type": "tuple[]"
                }
              ],
              "internalType": "struct CommonStructs.TransferProof",
              "name": "transfer",
              "type": "tuple"
            },
            {
              "internalType": "uint64",
              "name": "transferEventBlock",
              "type": "uint64"
            }
          ],
          "internalType": "struct CheckPoSA.PoSAProof",
          "name": "posaProof",
          "type": "tuple"
        }
      ],
      "name": "submitTransferPoSA",
      "outputs": [],
      "stateMutability": "nonpayable",
      "type": "function"
    },
    {
      "inputs": [
        {
          "components": [
            {
              "components": [
                {
                  "internalType": "bytes3",
                  "name": "p0Signed",
                  "type": "bytes3"
                },
                {
                  "internalType": "bytes3",
                  "name": "p0Unsigned",
                  "type": "bytes3"
                },
                {
                  "internalType": "bytes32",
                  "name": "parentHash",
                  "type": "bytes32"
                },
                {
                  "internalType": "bytes",
                  "name": "p1",
                  "type": "bytes"
                },
                {
                  "internalType": "bytes32",
                  "name": "receiptHash",
                  "type": "bytes32"
                },
                {
                  "internalType": "bytes",
                  "name": "p2",
                  "type": "bytes"
                },
                {
                  "internalType": "bytes",
                  "name": "number",
                  "type": "bytes"
                },
                {
                  "internalType": "bytes",
                  "name": "p3",
                  "type": "bytes"
                },
                {
                  "internalType": "bytes",
                  "name": "p4Signed",
                  "type": "bytes"
                },
                {
                  "internalType": "bytes",
                  "name": "p4Unsigned",
                  "type": "bytes"
                },
                {
                  "internalType": "bytes",
                  "name": "extraData",
                  "type": "bytes"
                },
                {
                  "internalType": "bytes",
                  "name": "p5",
                  "type": "bytes"
                }
              ],
              "internalType": "struct CheckPoSA.BlockPoSA[]",
              "name": "blocks",
              "type": "tuple[]"
            },
            {
              "components": [
                {
                  "internalType": "bytes[]",
                  "name": "receiptProof",
                  "type": "bytes[]"
                },
                {
                  "internalType": "uint256",
                  "name": "eventId",
                  "type": "uint256"
                },
                {
                  "components": [
                    {
                      "internalType": "address",
                      "name": "tokenAddress",
                      "type": "address"
                    },
                    {
                      "internalType": "address",
                      "name": "toAddress",
                      "type": "address"
                    },
                    {
                      "internalType": "uint256",
                      "name": "amount",
                      "type": "uint256"
                    }
                  ],
                  "internalType": "struct CommonStructs.Transfer[]",
                  "name": "transfers",
                  "type": "tuple[]"
                }
              ],
              "internalType": "struct CommonStructs.TransferProof",
              "name": "transfer",
              "type": "tuple"
            },
            {
              "internalType": "uint64",
              "name": "transferEventBlock",
              "type": "uint64"
            }
          ],
          "internalType": "struct CheckPoSA.PoSAProof",
          "name": "posaProof",
          "type": "tuple"
        }
      ],
      "name": "submitValidatorSetChangesPoSA",
      "outputs": [],
      "stateMutability": "nonpayable",
      "type": "function"
    },
    {
      "inputs": [
        {
          "internalType": "bytes4",
          "name": "interfaceId",
          "type": "bytes4"
        }
      ],
      "name": "supportsInterface",
      "outputs": [
        {
          "internalType": "bool",
          "name": "",
          "type": "bool"
        }
      ],
      "stateMutability": "view",
      "type": "function"
    },
    {
      "inputs": [],
      "name": "timeframeSeconds",
      "outputs": [
        {
          "internalType": "uint256",
          "name": "",
          "type": "uint256"
        }
      ],
      "stateMutability": "view",
      "type": "function"
    },
    {
      "inputs": [
        {
          "internalType": "address",
          "name": "",
          "type": "address"
        }
      ],
      "name": "tokenAddresses",
      "outputs": [
        {
          "internalType": "address",
          "name": "",
          "type": "address"
        }
      ],
      "stateMutability": "view",
      "type": "function"
    },
    {
      "inputs": [
        {
          "internalType": "address",
          "name": "tokenThisAddress",
          "type": "address"
        },
        {
          "internalType": "address",
          "name": "tokenSideAddress",
          "type": "address"
        }
      ],
      "name": "tokensAdd",
      "outputs": [],
      "stateMutability": "nonpayable",
      "type": "function"
    },
    {
      "inputs": [
        {
          "internalType": "address[]",
          "name": "tokenThisAddresses",
          "type": "address[]"
        },
        {
          "internalType": "address[]",
          "name": "tokenSideAddresses",
          "type": "address[]"
        }
      ],
      "name": "tokensAddBatch",
      "outputs": [],
      "stateMutability": "nonpayable",
      "type": "function"
    },
    {
      "inputs": [
        {
          "internalType": "address",
          "name": "tokenThisAddress",
          "type": "address"
        }
      ],
      "name": "tokensRemove",
      "outputs": [],
      "stateMutability": "nonpayable",
      "type": "function"
    },
    {
      "inputs": [
        {
          "internalType": "address[]",
          "name": "tokenThisAddresses",
          "type": "address[]"
        }
      ],
      "name": "tokensRemoveBatch",
      "outputs": [],
      "stateMutability": "nonpayable",
      "type": "function"
    },
    {
      "inputs": [],
      "name": "triggerTransfers",
      "outputs": [],
      "stateMutability": "nonpayable",
      "type": "function"
    },
    {
      "inputs": [
        {
          "internalType": "uint256",
          "name": "eventId",
          "type": "uint256"
        }
      ],
      "name": "unlockTransfers",
      "outputs": [],
      "stateMutability": "nonpayable",
      "type": "function"
    },
    {
      "inputs": [],
      "name": "unlockTransfersBatch",
      "outputs": [],
      "stateMutability": "nonpayable",
      "type": "function"
    },
    {
      "inputs": [],
      "name": "unpause",
      "outputs": [],
      "stateMutability": "nonpayable",
      "type": "function"
    },
    {
      "inputs": [
        {
          "internalType": "address",
          "name": "tokenThisAddress",
          "type": "address"
        },
        {
          "internalType": "address",
          "name": "toAddress",
          "type": "address"
        },
        {
          "internalType": "uint256",
          "name": "amount",
          "type": "uint256"
        },
        {
          "internalType": "bool",
          "name": "unwrapSide",
          "type": "bool"
        },
        {
          "internalType": "bytes",
          "name": "feeSignature",
          "type": "bytes"
        },
        {
          "internalType": "uint256",
          "name": "transferFee",
          "type": "uint256"
        },
        {
          "internalType": "uint256",
          "name": "bridgeFee",
          "type": "uint256"
        }
      ],
      "name": "withdraw",
      "outputs": [],
      "stateMutability": "payable",
      "type": "function"
    },
    {
      "inputs": [
        {
          "internalType": "address",
          "name": "toAddress",
          "type": "address"
        },
        {
          "internalType": "bytes",
          "name": "feeSignature",
          "type": "bytes"
        },
        {
          "internalType": "uint256",
          "name": "transferFee",
          "type": "uint256"
        },
        {
          "internalType": "uint256",
          "name": "bridgeFee",
          "type": "uint256"
        }
      ],
      "name": "wrapWithdraw",
      "outputs": [],
      "stateMutability": "payable",
      "type": "function"
    },
    {
      "inputs": [],
      "name": "wrapperAddress",
      "outputs": [
        {
          "internalType": "address",
          "name": "",
          "type": "address"
        }
      ],
      "stateMutability": "view",
      "type": "function"
    },
    {
      "stateMutability": "payable",
      "type": "receive"
    }
  ],
  "transactionHash": "0xc9fe453d123a80ea2594f7749369bff6bd25d6bdf5a413fb0c5aacd17f4c506f",
  "args": [],
  "numDeployments": 1,
  "solcInputHash": "71582ad3f2ac294151e6af9da78e7748",
  "bytecode": "0x608060405234801561001057600080fd5b50614329806100206000396000f3fe60806040526004361061027a5760003560e060020a90048063853890ae11610153578063b6d3385e116100c5578063e31be0871161007e578063e31be08714610741578063f33fe10f1461076e578063f70055871461078e578063f862b7eb146107ae578063f8b74433146107ce578063fd5d2ef3146107e157600080fd5b8063b6d3385e1461067f578063b87330e9146106b5578063ba8bbbe0146106d5578063baeebe75146106eb578063d547741f14610701578063d83a358f1461072157600080fd5b806391d148541161011757806391d14854146105de578063924cf6e0146105fe57806396cf52271461061457806399b5bb6414610634578063a217fddf1461064a578063aa9cea381461065f57600080fd5b8063853890ae1461056057806386d7679e146105805780638ac1f86f146105965780638e5df9c7146105ab57806391c5bc0a146105cb57600080fd5b80633928b296116101ec5780635c975abb116101b05780635c975abb146104ae578063746b5c42146104c657806375b238fc146104db57806376671808146104fd5780637df8b802146105135780638456cb591461054b57600080fd5b80633928b296146104095780633f4ba83a1461042957806342180fb81461043e5780634a1856de1461045e5780635249a7051461048e57600080fd5b8063248a9ca31161023e578063248a9ca31461034357806329a9659d146103735780632bbba847146103935780632f2ff15d146103a9578063331a891a146103c957806336568abe146103e957600080fd5b806301ffc9a71461028657806304421823146102bb57806309fce356146102eb5780630d6680871461030d57806321d3d5361461032357600080fd5b3661028157005b600080fd5b34801561029257600080fd5b506102a66102a1366004613917565b610801565b60405190151581526020015b60405180910390f35b3480156102c757600080fd5b506102dd6000805160206142b483398151915281565b6040519081526020016102b2565b3480156102f757600080fd5b5061030b610306366004613810565b610894565b005b34801561031957600080fd5b506102dd60d45481565b34801561032f57600080fd5b5061030b61033e36600461367d565b6108c0565b34801561034f57600080fd5b506102dd61035e3660046138d9565b60009081526065602052604090206001015490565b34801561037f57600080fd5b5061030b61038e366004613956565b610950565b34801561039f57600080fd5b5060ca54156102a6565b3480156103b557600080fd5b5061030b6103c43660046138f2565b6109d9565b3480156103d557600080fd5b5061030b6103e43660046138d9565b610a04565b3480156103f557600080fd5b5061030b6104043660046138f2565b610b4b565b34801561041557600080fd5b5061030b61042436600461367d565b610bda565b34801561043557600080fd5b5061030b610c16565b34801561044a57600080fd5b5061030b6104593660046138d9565b610c3a565b34801561046a57600080fd5b506102dd6104793660046138d9565b60cb6020526000908152604090206001015481565b34801561049a57600080fd5b5061030b6104a93660046137ce565b610c77565b3480156104ba57600080fd5b5060975460ff166102a6565b3480156104d257600080fd5b5061030b610d00565b3480156104e757600080fd5b506102dd6000805160206142d483398151915281565b34801561050957600080fd5b506102dd60e85481565b34801561051f57600080fd5b5060ce5461053390600160a060020a031681565b604051600160a060020a0390911681526020016102b2565b34801561055757600080fd5b5061030b610dac565b34801561056c57600080fd5b5061030b61057b36600461369a565b610dcd565b34801561058c57600080fd5b506102dd60d75481565b3480156105a257600080fd5b5061030b610e15565b3480156105b757600080fd5b5061030b6105c636600461367d565b610f6d565b61030b6105d9366004613767565b610fae565b3480156105ea57600080fd5b506102a66105f93660046138f2565b6112de565b34801561060a57600080fd5b506102dd60d25481565b34801561062057600080fd5b5061030b61062f3660046138d9565b611309565b34801561064057600080fd5b506102dd60d55481565b34801561065657600080fd5b506102dd600081565b34801561066b57600080fd5b5061030b61067a3660046139f4565b611328565b34801561068b57600080fd5b5061053361069a36600461367d565b60cd60205260009081526040902054600160a060020a031681565b3480156106c157600080fd5b5061030b6106d036600461367d565b61140b565b3480156106e157600080fd5b506102dd60cc5481565b3480156106f757600080fd5b506102dd60d35481565b34801561070d57600080fd5b5061030b61071c3660046138f2565b611447565b34801561072d57600080fd5b5061030b61073c3660046139f4565b61146d565b34801561074d57600080fd5b5061076161075c3660046138d9565b6114c6565b6040516102b29190613ec0565b34801561077a57600080fd5b5060d15461053390600160a060020a031681565b34801561079a57600080fd5b5061030b6107a93660046138d9565b611582565b3480156107ba57600080fd5b5061030b6107c93660046138d9565b6115a1565b61030b6107dc3660046136d3565b6117d4565b3480156107ed57600080fd5b5061030b6107fc3660046138d9565b611c34565b60007bffffffffffffffffffffffffffffffffffffffffffffffffffffffff1982167f7965db0b00000000000000000000000000000000000000000000000000000000148061088e57507f01ffc9a7000000000000000000000000000000000000000000000000000000007bffffffffffffffffffffffffffffffffffffffffffffffffffffffff198316145b92915050565b6000805160206142d48339815191526108ad8133611c53565b6108b985858585611cba565b5050505050565b60006108cc8133611c53565b60d154600160a060020a03161561092d5760405160e560020a62461bcd02815260206004820152601d60248201527f736964654272696467654164647265737320616c72656164792073657400000060448201526064015b60405180910390fd5b5060d18054600160a060020a031916600160a060020a0392909216919091179055565b600054610100900460ff1680610969575060005460ff16155b6109885760405160e560020a62461bcd02815260040161092490613e63565b600054610100900460ff161580156109aa576000805461ffff19166101011790555b6109b386611dd3565b6109bf85858585611faf565b80156109d1576000805461ff00191690555b505050505050565b6000828152606560205260409020600101546109f58133611c53565b6109ff8383612134565b505050565b6000805160206142d4833981519152610a1d8133611c53565b60975460ff16610a725760405160e560020a62461bcd02815260206004820152601460248201527f5061757361626c653a206e6f74207061757365640000000000000000000000006044820152606401610924565b60cc54821015610aed5760405160e560020a62461bcd02815260206004820152602660248201527f6576656e744964206d757374206265203e3d206f6c646573744c6f636b65644560448201527f76656e74496400000000000000000000000000000000000000000000000000006064820152608401610924565b600082815260cb602052604090206001015415610b3957600082815260cb6020526040812090610b1d82826135a4565b5060006001919091015581610b318161419e565b925050610aed565b610b446001836140c3565b60d5555050565b600160a060020a0381163314610bcc5760405160e560020a62461bcd02815260206004820152602f60248201527f416363657373436f6e74726f6c3a2063616e206f6e6c792072656e6f756e636560448201527f20726f6c657320666f722073656c6600000000000000000000000000000000006064820152608401610924565b610bd682826121ba565b5050565b6000805160206142d4833981519152610bf38133611c53565b5060d08054600160a060020a031916600160a060020a0392909216919091179055565b6000805160206142d4833981519152610c2f8133611c53565b610c37612221565b50565b6000805160206142d4833981519152610c538133611c53565b8160d35460d754610c6491906140a4565b610c6e9190614090565b60d7555060d355565b6000805160206142d4833981519152610c908133611c53565b8160005b818110156108b95760cd6000868684818110610cb257610cb26141ff565b9050602002016020810190610cc7919061367d565b600160a060020a0316815260208101919091526040016000208054600160a060020a031916905580610cf88161419e565b915050610c94565b60ca54610d525760405160e560020a62461bcd02815260206004820152600e60248201527f517565756520697320656d7074790000000000000000000000000000000000006044820152606401610924565b60d68054906000610d628361419e565b919050557fe15729a2f427aa4572dab35eb692c902fcbce57d41642013259c741380809ae260ca604051610d969190613d89565b60405180910390a2610daa60ca60006135a4565b565b6000805160206142d4833981519152610dc58133611c53565b610c376122c0565b6000805160206142d4833981519152610de68133611c53565b50600160a060020a03918216600090815260cd602052604090208054600160a060020a03191691909216179055565b60975460ff1615610e3b5760405160e560020a62461bcd02815260040161092490613e2c565b60cc545b600081815260cb60209081526040808320815181546060948102820185018452928101838152909391928492849190879085015b82821015610ecd57600084815260209081902060408051606081018252600386029092018054600160a060020a03908116845260018083015490911684860152600290910154918301919091529083529092019101610e73565b5050505081526020016001820154815250509050806020015160001480610ef75750428160200151115b15610f02575060cc55565b8051610f0d9061231b565b600082815260cb6020526040812090610f2682826135a4565b50600060019190910181905560405183917f78ff9b3176bb0d6421590f3816e75cb15a9ffa2b7a1a028f40a3f4e029eb39f291a25080610f658161419e565b915050610e3f565b6000805160206142d4833981519152610f868133611c53565b50600160a060020a0316600090815260cd602052604090208054600160a060020a0319169055565b60ce54600160a060020a03908116600090815260cd6020526040902054168061101c5760405160e560020a62461bcd02815260206004820152601560248201527f556e6b6e6f776e20746f6b656e206164647265737300000000000000000000006044820152606401610924565b6110268284614078565b34116110775760405160e560020a62461bcd02815260206004820152601160248201527f53656e742076616c7565203c3d206665650000000000000000000000000000006044820152606401610924565b60008261108485346140c3565b61108e91906140c3565b60ce549091506110ab90600160a060020a031687878787866125af565b60cf54604051600160a060020a039091169085156108fc029086906000818181858888f193505050501580156110e5573d6000803e3d6000fd5b5060d054604051600160a060020a039091169084156108fc029085906000818181858888f19350505050158015611120573d6000803e3d6000fd5b5060ce60009054906101000a9004600160a060020a0316600160a060020a031663d0e30db0826040518263ffffffff1660e060020a0281526004016000604051808303818588803b15801561117457600080fd5b505af1158015611188573d6000803e3d6000fd5b505060408051606081018252600160a060020a0380881682528c81166020830190815282840188815260ca80546001810182556000918252945160039095027f42d72674974f694b5f5159593243114d38a5c39c89d6b62fee061ff523240ee181018054968616600160a060020a031997881617905592517f42d72674974f694b5f5159593243114d38a5c39c89d6b62fee061ff523240ee2840180549190951695169490941790925590517f42d72674974f694b5f5159593243114d38a5c39c89d6b62fee061ff523240ee39091015560d65491513395507f3b823d3b837159352faddd1e0b9e9f584ca2bfe976238f6a9e6da4615cf2f44494506112c59350879087908b908b90958652600160a060020a0394851660208701529290931660408501526060840152608083019190915260a082015260c00190565b60405180910390a26112d5612743565b50505050505050565b6000918252606560209081526040808420600160a060020a0393909316845291905290205460ff1690565b6000805160206142d48339815191526113228133611c53565b5060d455565b6000805160206142b48339815191526113418133611c53565b60975460ff16156113675760405160e560020a62461bcd02815260040161092490613e2c565b6113746020830183614038565b602001357f196c47048e38df7a4fe6e581c8f4f2e2ba67ac0dd45b90da756e97bd61d9dd3b60405160405180910390a26113bd6113b46020840184614038565b602001356127bb565b60d25460d1546113d7918491600160a060020a0316612820565b610bd66113e76020840184614038565b6113f5906040810190613f87565b6114026020860186614038565b60200135612bbf565b6000805160206142d48339815191526114248133611c53565b5060cf8054600160a060020a031916600160a060020a0392909216919091179055565b6000828152606560205260409020600101546114638133611c53565b6109ff83836121ba565b6000805160206142b48339815191526114868133611c53565b60975460ff16156114ac5760405160e560020a62461bcd02815260040161092490613e2c565b60d25460d154610bd6918491600160a060020a0316612820565b604080518082019091526060815260006020820152600082815260cb60209081526040808320815181546060948102820185018452928101838152909491938593919285929185015b8282101561156957600084815260209081902060408051606081018252600386029092018054600160a060020a0390811684526001808301549091168486015260029091015491830191909152908352909201910161150f565b5050505081526020016001820154815250509050919050565b6000805160206142d483398151915261159b8133611c53565b5060c955565b60975460ff16156115c75760405160e560020a62461bcd02815260040161092490613e2c565b60cc54811461161b5760405160e560020a62461bcd02815260206004820152601c60248201527f63616e20756e6c6f636b206f6e6c79206f6c64657374206576656e74000000006044820152606401610924565b600081815260cb60209081526040808320815181546060948102820185018452928101838152909391928492849190879085015b828210156116a957600084815260209081902060408051606081018252600386029092018054600160a060020a0390811684526001808301549091168486015260029091015491830191909152908352909201910161164f565b505050508152602001600182015481525050905060008160200151116117145760405160e560020a62461bcd02815260206004820181905260248201527f6e6f206c6f636b6564207472616e7366657273207769746820746869732069646044820152606401610924565b4281602001511061176a5760405160e560020a62461bcd02815260206004820152601b60248201527f6c6f636b54696d6520686173206e6f74207965742070617373656400000000006044820152606401610924565b80516117759061231b565b600082815260cb602052604081209061178e82826135a4565b50600060019190910181905560405183917f78ff9b3176bb0d6421590f3816e75cb15a9ffa2b7a1a028f40a3f4e029eb39f291a26117cd826001614078565b60cc555050565b60008515611869576000805260cd6020527fcd565b10a72538d86f6d352f37ebc5dff31587960b12c0afe00fd03947a6932a54600160a060020a038a81169116146118645760405160e560020a62461bcd02815260206004820152601f60248201527f546f6b656e206e6f7420706f696e7420746f206e617469766520746f6b656e006044820152606401610924565b6118d5565b50600160a060020a03808916600090815260cd602052604090205416806118d55760405160e560020a62461bcd02815260206004820152601560248201527f556e6b6e6f776e20746f6b656e206164647265737300000000000000000000006044820152606401610924565b6118df8284614078565b34146119305760405160e560020a62461bcd02815260206004820152601160248201527f53656e742076616c756520213d206665650000000000000000000000000000006044820152606401610924565b600087116119835760405160e560020a62461bcd02815260206004820152601160248201527f43616e6e6f7420776974686472617720300000000000000000000000000000006044820152606401610924565b61199189868686868c6125af565b60cf54604051600160a060020a039091169084156108fc029085906000818181858888f193505050501580156119cb573d6000803e3d6000fd5b5060d054604051600160a060020a039091169083156108fc029084906000818181858888f19350505050158015611a06573d6000803e3d6000fd5b506040517f23b872dd00000000000000000000000000000000000000000000000000000000815233600482015230602482015260448101889052600160a060020a038a16906323b872dd90606401602060405180830381600087803b158015611a6e57600080fd5b505af1158015611a82573d6000803e3d6000fd5b505050506040513d601f19601f82011682018060405250810190611aa6919061387c565b611af55760405160e560020a62461bcd02815260206004820152601360248201527f4661696c207472616e7366657220636f696e73000000000000000000000000006044820152606401610924565b6040805160608082018352600160a060020a038481168084528c821660208086019182528587018e815260ca8054600181018255600091909152965160039097027f42d72674974f694b5f5159593243114d38a5c39c89d6b62fee061ff523240ee181018054988716600160a060020a0319998a1617905592517f42d72674974f694b5f5159593243114d38a5c39c89d6b62fee061ff523240ee284018054918716919098161790965594517f42d72674974f694b5f5159593243114d38a5c39c89d6b62fee061ff523240ee39091015560d6548551908152918e16938201939093529283019190915281018890526080810184905260a0810183905233907f3b823d3b837159352faddd1e0b9e9f584ca2bfe976238f6a9e6da4615cf2f4449060c00160405180910390a2611c29612743565b505050505050505050565b6000805160206142d4833981519152611c4d8133611c53565b5060d255565b611c5d82826112de565b610bd657611c7581600160a060020a03166014612c53565b611c80836020612c53565b604051602001611c91929190613c98565b60408051601f198184030181529082905260e560020a62461bcd02825261092491600401613df9565b828114611d325760405160e560020a62461bcd02815260206004820152603f60248201527f73697a6573206f6620746f6b656e5468697341646472657373657320616e642060448201527f746f6b656e53696465416464726573736573206d7573742062652073616d65006064820152608401610924565b8260005b818110156109d157838382818110611d5057611d506141ff565b9050602002016020810190611d65919061367d565b60cd6000888885818110611d7b57611d7b6141ff565b9050602002016020810190611d90919061367d565b600160a060020a03908116825260208201929092526040016000208054600160a060020a0319169290911691909117905580611dcb8161419e565b915050611d36565b600054610100900460ff1680611dec575060005460ff16155b611e0b5760405160e560020a62461bcd02815260040161092490613e63565b600054610100900460ff16158015611e2d576000805461ffff19166101011790555b611e38600033612e40565b611e5f6000805160206142b4833981519152611e5a606085016040860161367d565b612e40565b611e816000805160206142d4833981519152611e5a604085016020860161367d565b611ea3611e916080840184613f3e565b611e9e60a0860186613f3e565b611cba565b611eb3608083016060840161367d565b60ce8054600160a060020a031916600160a060020a0392909216919091179055611ee0602083018361367d565b60d18054600160a060020a031916600160a060020a0392909216919091179055611f1060e0830160c0840161367d565b60cf8054600160a060020a031916600160a060020a0392909216919091179055611f41610100830160e0840161367d565b60d08054600160a060020a031916600160a060020a039290921691909117905561014082013560d25561010082013560d381905561012083013560d455600160cc81905560d655600360c955611f979042614090565b60d7558015610bd6576000805461ff00191690555050565b600054610100900460ff1680611fc8575060005460ff16155b611fe75760405160e560020a62461bcd02815260040161092490613e63565b600054610100900460ff16158015612009576000805461ffff19166101011790555b8361207f5760405160e560020a62461bcd02815260206004820152603260248201527f4c656e677468206f66205f696e697469616c56616c696461746f7273206d757360448201527f7420626520626967676572207468616e203000000000000000000000000000006064820152608401610924565b60ea805460ff191660f860020a840417905560e883905560e984905560005b8481101561211b5760e854600090815260e7602052604081206001918888858181106120cc576120cc6141ff565b90506020020160208101906120e1919061367d565b600160a060020a031681526020810191909152604001600020805460ff1916911515919091179055806121138161419e565b91505061209e565b5080156108b9576000805461ff00191690555050505050565b61213e82826112de565b610bd6576000828152606560209081526040808320600160a060020a03851684529091529020805460ff191660011790556121763390565b600160a060020a031681600160a060020a0316837f2f8788117e7eff1d82e926ec794901d17c78024a50270940304540a733656f0d60405160405180910390a45050565b6121c482826112de565b15610bd6576000828152606560209081526040808320600160a060020a0385168085529252808320805460ff1916905551339285917ff6391f5c32d9c69d2a47ea670b442974b53935d1edc7fd64eb21e047a839171b9190a45050565b60975460ff166122765760405160e560020a62461bcd02815260206004820152601460248201527f5061757361626c653a206e6f74207061757365640000000000000000000000006044820152606401610924565b6097805460ff191690557f5db9ee0a495bf2e6ff9c91a7834c1ba4fdd244a5e8aa4e537bd38aeae4b073aa335b604051600160a060020a03909116815260200160405180910390a1565b60975460ff16156122e65760405160e560020a62461bcd02815260040161092490613e2c565b6097805460ff191660011790557f62e78cea01bee320cd4e420270b5ea74000d11b0c9f74754ebdbfc544b05a2586122a33390565b60005b8151811015610bd6576000600160a060020a0316828281518110612344576123446141ff565b602002602001015160000151600160a060020a031614156124605760ce548251600160a060020a0390911690632e1a7d4d90849084908110612388576123886141ff565b6020026020010151604001516040518263ffffffff1660e060020a0281526004016123b591815260200190565b600060405180830381600087803b1580156123cf57600080fd5b505af11580156123e3573d6000803e3d6000fd5b505050508181815181106123f9576123f96141ff565b602002602001015160200151600160a060020a03166108fc838381518110612423576124236141ff565b6020026020010151604001519081150290604051600060405180830381858888f1935050505015801561245a573d6000803e3d6000fd5b5061259d565b818181518110612472576124726141ff565b602002602001015160000151600160a060020a031663a9059cbb83838151811061249e5761249e6141ff565b6020026020010151602001518484815181106124bc576124bc6141ff565b6020026020010151604001516040518363ffffffff1660e060020a0281526004016124fc929190600160a060020a03929092168252602082015260400190565b602060405180830381600087803b15801561251657600080fd5b505af115801561252a573d6000803e3d6000fd5b505050506040513d601f19601f8201168201806040525081019061254e919061387c565b61259d5760405160e560020a62461bcd02815260206004820152601360248201527f4661696c207472616e7366657220636f696e73000000000000000000000000006044820152606401610924565b806125a78161419e565b91505061231e565b600080806125bf61070842614090565b905060005b60c9548110156126f7576040516c01000000000000000000000000600160a060020a038c160260208201526034810183905260548101889052607481018790526094810186905260b40160408051601f198184030181529082905280516020918201207f19457468657265756d205369676e6564204d6573736167653a0a33320000000091830191909152603c820152605c016040516020818303038152906040528051906020012093506126af848a8a8080601f016020809104026020016040519081016040528093929190818152602001838380828437600092019190915250612e4a92505050565b92506126c96000805160206142b4833981519152846112de565b156126d757505050506109d1565b816126e181614187565b92505080806126ef9061419e565b9150506125c4565b5060405160e560020a62461bcd02815260206004820152601660248201527f5369676e617475726520636865636b206661696c6564000000000000000000006044820152606401610924565b600060d354426127539190614090565b905060d7548114610c375760d6805490600061276e8361419e565b919050557fe15729a2f427aa4572dab35eb692c902fcbce57d41642013259c741380809ae260ca6040516127a29190613d89565b60405180910390a26127b660ca60006135a4565b60d755565b60d5600081546127ca9061419e565b91829055508114610c375760405160e560020a62461bcd02815260206004820152601460248201527f4576656e744964206f7574206f66206f726465720000000000000000000000006044820152606401610924565b60008080806128326020880188614038565b602001351561297257600061285361284d60208a018a614038565b87612ed5565b9050806128608980613f3e565b61287060608c0160408d01613a2f565b67ffffffffffffffff16818110612889576128896141ff565b905060200281019061289b9190614017565b60800135146128ef5760405160e560020a62461bcd02815260206004820181905260248201527f5472616e73666572206576656e742076616c69646174696f6e206661696c65646044820152606401610924565b8661290060608a0160408b01613a2f565b67ffffffffffffffff166129148a80613f3e565b61291f9291506140c3565b10156129705760405160e560020a62461bcd02815260206004820152601860248201527f4e6f7420656e6f7567682073616665747920626c6f636b7300000000000000006044820152606401610924565b505b60005b61297f8880613f3e565b9050811015612bb557366129938980613f3e565b838181106129a3576129a36141ff565b90506020028101906129b59190614017565b90508415612a135784816040013514612a135760405160e560020a62461bcd02815260206004820152601160248201527f57726f6e6720706172656e7420686173680000000000000000000000000000006044820152606401610924565b612a1c81613019565b9096509450612a4086612a3b612a36610140850185613fd0565b613192565b6131cb565b612a8f5760405160e560020a62461bcd02815260206004820152601160248201527f696e76616c6964207369676e61747572650000000000000000000000000000006044820152606401610924565b6000612aa6612aa160c0840184613fd0565b613241565b9050612ab360c8826141b9565b612b585760e854612ac5906001614078565b612ad060c883614090565b14612b205760405160e560020a62461bcd02815260206004820152600d60248201527f696e76616c69642065706f6368000000000000000000000000000000000000006044820152606401610924565b612b36612b31610140840184613fd0565b613273565b9350600260e954612b479190614090565b612b519082614078565b9450612ba0565b84811415612ba05760e88054906000612b708361419e565b909155505060e9849055612b8a60608b0160408c01613a2f565b67ffffffffffffffff16831015612ba057600095505b50508080612bad9061419e565b915050612975565b5050505050505050565b60d454612bcc9042614078565b600082815260cb60205260408120600101919091555b82811015612c4d57600082815260cb60205260409020848483818110612c0a57612c0a6141ff565b835460018101855560009485526020909420606090910292909201926003029091019050612c388282614231565b50508080612c459061419e565b915050612be2565b50505050565b60606000612c628360026140a4565b612c6d906002614078565b67ffffffffffffffff811115612c8557612c85614218565b6040519080825280601f01601f191660200182016040528015612caf576020820181803683370190505b5090507f300000000000000000000000000000000000000000000000000000000000000081600081518110612ce657612ce66141ff565b6020010190600160f860020a031916908160001a9053507f780000000000000000000000000000000000000000000000000000000000000081600181518110612d3157612d316141ff565b6020010190600160f860020a031916908160001a9053506000612d558460026140a4565b612d60906001614078565b90505b6001811115612de7577f303132333435363738396162636465660000000000000000000000000000000085600f1660108110612da157612da16141ff565b1a60f860020a02828281518110612dba57612dba6141ff565b6020010190600160f860020a031916908160001a905350601090940493612de081614187565b9050612d63565b508315612e395760405160e560020a62461bcd02815260206004820181905260248201527f537472696e67733a20686578206c656e67746820696e73756666696369656e746044820152606401610924565b9392505050565b610bd68282612134565b6020810151604082015160608301516000929190831a601b811015612e6d57601b015b60408051600081526020810180835288905260ff831691810191909152606081018490526080810183905260019060a0016020604051602081039080840390855afa158015612ec0573d6000803e3d6000fd5b5050604051601f190151979650505050505050565b600080612ee28480613f3e565b6000818110612ef357612ef36141ff565b9050602002810190612f059190613fd0565b84612f108780613f3e565b6001818110612f2157612f216141ff565b9050602002810190612f339190613fd0565b612f408960200135613336565b612f4a8a80613f3e565b6002818110612f5b57612f5b6141ff565b9050602002810190612f6d9190613fd0565b612f7a60408d018d613f87565b604051602001612f8b929190613d19565b60408051601f19818403018152919052612fa58d80613f3e565b6003818110612fb657612fb66141ff565b9050602002810190612fc89190613fd0565b604051602001612fe29b9a99989796959493929190613bd6565b60408051601f19818403018152919052805160209091012090506130116130098580613f3e565b836004613486565b949350505050565b600080807fa00000000000000000000000000000000000000000000000000000000000000060408501356130506060870187613fd0565b608088013561306260a08a018a613fd0565b61306f60c08c018c613fd0565b61307c60e08e018e613fd0565b6040516020016130969b9a99989796959493929190613a59565b60408051601f198184030181529181529091506130b890850160208601613899565b60ea5460f860020a02826130d0610120880188613fd0565b6130e66130e16101408b018b613fd0565b61354a565b6130f46101608b018b613fd0565b60405160200161310b989796959493929190613ac6565b60408051601f1981840301815291905280516020918201209061313090860186613899565b8261313f610100880188613fd0565b61314d6101408a018a613fd0565b61315b6101608c018c613fd0565b604051602001613172989796959493929190613b59565b604051602081830303815290604052805190602001209250925050915091565b366000806131a16041856140c3565b90508481856131b1604183614078565b926131be9392919061404e565b92509250505b9250929050565b60008061320e8585858080601f016020809104026020016040519081016040528093929190818152602001838380828437600092019190915250612e4a92505050565b60e854600090815260e760209081526040808320600160a060020a039094168352929052205460ff169150509392505050565b600061324e8260086140a4565b61325a906101006140c3565b6132648385614112565b60029190910a90049392505050565b60008060e85460016132859190614078565b905060006132946041856140c3565b9050600060205b8281101561332c5760008782886132b3601483614078565b926132c09392919061404e565b6132c9916140da565b600086815260e760209081526040808320600160a060020a036c0100000000000000000000000090950494851684529091529020805460ff191660011790559050826133148161419e565b935050506014816133259190614078565b905061329b565b5095945050505050565b6040805160208082528183019092526060916000919060208201818036833701905050905082602082015260005b60208110156133b55781818151811061337f5761337f6141ff565b60209101015160f860020a9081900402600160f860020a031916156133a3576133b5565b806133ad8161419e565b915050613364565b60006133c28260206140c3565b67ffffffffffffffff8111156133da576133da614218565b6040519080825280601f01601f191660200182016040528015613404576020820181803683370190505b50905060005b815181101561347d57838361341e8161419e565b945081518110613430576134306141ff565b602001015160f860020a900460f860020a02828281518110613454576134546141ff565b6020010190600160f860020a031916908160001a905350806134758161419e565b91505061340a565b50949350505050565b60006060825b8581101561353f578686828181106134a6576134a66141ff565b90506020028101906134b89190613fd0565b8689896134c6866001614078565b8181106134d5576134d56141ff565b90506020028101906134e79190613fd0565b6040516020016134fb959493929190613c6f565b604051602081830303815290604052915060208251116135235761351e82614132565b61352b565b815160208301205b9450613538600282614078565b905061348c565b509295945050505050565b60608260008361355b6041826140c3565b926135689392919061404e565b8080601f016020809104026020016040519081016040528093929190818152602001838380828437600092019190915250929695505050505050565b5080546000825560030290600052602060002090810190610c3791905b808211156135f3578054600160a060020a031990811682556001820180549091169055600060028201556003016135c1565b5090565b60008083601f84011261360957600080fd5b50813567ffffffffffffffff81111561362157600080fd5b60208301915083602080830285010111156131c457600080fd5b60008083601f84011261364d57600080fd5b50813567ffffffffffffffff81111561366557600080fd5b6020830191508360208285010111156131c457600080fd5b60006020828403121561368f57600080fd5b8135612e3981614290565b600080604083850312156136ad57600080fd5b82356136b881614290565b915060208301356136c881614290565b809150509250929050565b60008060008060008060008060e0898b0312156136ef57600080fd5b88356136fa81614290565b9750602089013561370a81614290565b9650604089013595506060890135613721816142a5565b9450608089013567ffffffffffffffff81111561373d57600080fd5b6137498b828c0161363b565b999c989b5096999598969760a08701359660c0013595509350505050565b60008060008060006080868803121561377f57600080fd5b853561378a81614290565b9450602086013567ffffffffffffffff8111156137a657600080fd5b6137b28882890161363b565b9699909850959660408101359660609091013595509350505050565b600080602083850312156137e157600080fd5b823567ffffffffffffffff8111156137f857600080fd5b613804858286016135f7565b90969095509350505050565b6000806000806040858703121561382657600080fd5b843567ffffffffffffffff8082111561383e57600080fd5b61384a888389016135f7565b9096509450602087013591508082111561386357600080fd5b50613870878288016135f7565b95989497509550505050565b60006020828403121561388e57600080fd5b8151612e39816142a5565b6000602082840312156138ab57600080fd5b81357cffffffffffffffffffffffffffffffffffffffffffffffffffffffffff1981168114612e3957600080fd5b6000602082840312156138eb57600080fd5b5035919050565b6000806040838503121561390557600080fd5b8235915060208301356136c881614290565b60006020828403121561392957600080fd5b81357bffffffffffffffffffffffffffffffffffffffffffffffffffffffff1981168114612e3957600080fd5b60008060008060006080868803121561396e57600080fd5b853567ffffffffffffffff8082111561398657600080fd5b90870190610160828a03121561399b57600080fd5b909550602087013590808211156139b157600080fd5b506139be888289016135f7565b909550935050604086013591506060860135600160f860020a0319811681146139e657600080fd5b809150509295509295909350565b600060208284031215613a0657600080fd5b813567ffffffffffffffff811115613a1d57600080fd5b820160608185031215612e3957600080fd5b600060208284031215613a4157600080fd5b813567ffffffffffffffff81168114612e3957600080fd5b600160f860020a03198c1681528a6001820152888a602183013788810160218101899052600090878960418301378781019050604181016000815286888237508581019050604181016000815284868237506000930160410192835250909b9a5050505050505050505050565b7cffffffffffffffffffffffffffffffffffffffffffffffffffffffffff1989168152600160f860020a03198816600382015260008751613b0e816004850160208c0161415b565b820186886004830137868101905060048101600081528651613b34818360208b0161415b565b9190910190508385600483013760009301600401928352509098975050505050505050565b7cffffffffffffffffffffffffffffffffffffffffffffffffffffffffff198916815260008851613b91816003850160208d0161415b565b82018789600383013787810190506003810160008152868882375085810190506003810160008152848682375060009301600301928352509098975050505050505050565b8a8c8237600160a060020a038a166c0100000000000000000000000002818c0190815260009060148a8c828401378a82019150808201600081528a51613c20818360208f0161415b565b9290920191508789828401378782019150808201600081528751613c48818360208c0161415b565b9290920191508486828401376000949091010192835250909b9a5050505050505050505050565b848682378085018481526000908385602083013760009301602001928352509095945050505050565b7f416363657373436f6e74726f6c3a206163636f756e7420000000000000000000815260008351613cd081601785016020880161415b565b7f206973206d697373696e6720726f6c65200000000000000000000000000000006017918401918201528351613d0d81602884016020880161415b565b01602801949350505050565b6020808252818101839052600090604080840186845b87811015613d7c578135613d4281614290565b600160a060020a0390811684528286013590613d5d82614290565b1683860152818401358484015260609283019290910190600101613d2f565b5090979650505050505050565b60006020808301818452808554808352604092508286019150866000528360002060005b82811015613dec578154600160a060020a0390811685526001808401549091168786015260028301548686015260609094019360039092019101613dad565b5091979650505050505050565b6020815260008251806020840152613e1881604085016020870161415b565b601f01601f19169190910160400192915050565b60208082526010908201527f5061757361626c653a2070617573656400000000000000000000000000000000604082015260600190565b6020808252602e908201527f496e697469616c697a61626c653a20636f6e747261637420697320616c72656160408201527f647920696e697469616c697a6564000000000000000000000000000000000000606082015260800190565b6000602080835260608084018551604080858801528282518085526080890191508684019450600093505b80841015613f285784518051600160a060020a03908116845288820151168884015283015183830152938601936001939093019290850190613eeb565b5094909701519590960194909452509392505050565b6000808335601e19843603018112613f5557600080fd5b83018035915067ffffffffffffffff821115613f7057600080fd5b60209081019250810236038213156131c457600080fd5b6000808335601e19843603018112613f9e57600080fd5b83018035915067ffffffffffffffff821115613fb957600080fd5b60200191506060810236038213156131c457600080fd5b6000808335601e19843603018112613fe757600080fd5b83018035915067ffffffffffffffff82111561400257600080fd5b6020019150368190038213156131c457600080fd5b6000823561017e1983360301811261402e57600080fd5b9190910192915050565b60008235605e1983360301811261402e57600080fd5b6000808585111561405e57600080fd5b8386111561406b57600080fd5b5050820193919092039150565b6000821982111561408b5761408b6141cd565b500190565b60008261409f5761409f6141e6565b500490565b60008160001904831182151516156140be576140be6141cd565b500290565b6000828210156140d5576140d56141cd565b500390565b6bffffffffffffffffffffffff19813581811691601485101561410a57808560140360080260020a820283161692505b505092915050565b8035602083101561088e57600860208490030260020a6000031692915050565b80516020808301519190811015614155578060200360080260020a600003821691505b50919050565b60005b8381101561417657818101518382015260200161415e565b83811115612c4d5750506000910152565b600081614196576141966141cd565b506000190190565b60006000198214156141b2576141b26141cd565b5060010190565b6000826141c8576141c86141e6565b500690565b60e060020a634e487b7102600052601160045260246000fd5b60e060020a634e487b7102600052601260045260246000fd5b60e060020a634e487b7102600052603260045260246000fd5b60e060020a634e487b7102600052604160045260246000fd5b813561423c81614290565b8154600160a060020a031916600160a060020a03821617825550602082013561426481614290565b600182018054600160a060020a031916600160a060020a03831617905550604082013560028201555050565b600160a060020a0381168114610c3757600080fd5b8015158114610c3757600080fdfe077a1d526a4ce8a773632ab13b4fbbf1fcc954c3dab26cd27ea0e2a6750da5d7a49807205ce4d355092ef5a8a18f56e8913cf4a201fbe287825b095693c21775a264697066735822122055fa0d59adfdcd382e0ce13dd92c0c721de4f115bdb5128ca47fe29c232dcdb564736f6c63430008060033",
  "devdoc": {
    "kind": "dev",
    "methods": {
      "getRoleAdmin(bytes32)": {
        "details": "Returns the admin role that controls `role`. See {grantRole} and {revokeRole}. To change a role's admin, use {_setRoleAdmin}."
      },
      "grantRole(bytes32,address)": {
        "details": "Grants `role` to `account`. If `account` had not been already granted `role`, emits a {RoleGranted} event. Requirements: - the caller must have ``role``'s admin role."
      },
      "hasRole(bytes32,address)": {
        "details": "Returns `true` if `account` has been granted `role`."
      },
      "paused()": {
        "details": "Returns true if the contract is paused, and false otherwise."
      },
      "renounceRole(bytes32,address)": {
        "details": "Revokes `role` from the calling account. Roles are often managed via {grantRole} and {revokeRole}: this function's purpose is to provide a mechanism for accounts to lose their privileges if they are compromised (such as when a trusted device is misplaced). If the calling account had been granted `role`, emits a {RoleRevoked} event. Requirements: - the caller must be `account`."
      },
      "revokeRole(bytes32,address)": {
        "details": "Revokes `role` from `account`. If `account` had been granted `role`, emits a {RoleRevoked} event. Requirements: - the caller must have ``role``'s admin role."
      },
      "supportsInterface(bytes4)": {
        "details": "See {IERC165-supportsInterface}."
      },
      "withdraw(address,address,uint256,bool,bytes,uint256,uint256)": {
        "params": {
          "bridgeFee": "Amount (in native coins), payed as bridge earnings",
          "feeSignature": "Signature signed by relay that confirms that the fee values are valid",
          "transferFee": "Amount (in native coins), payed to compensate gas fees in side network"
        }
      },
      "wrapWithdraw(address,bytes,uint256,uint256)": {
        "params": {
          "bridgeFee": "Amount (in native coins), payed as bridge earnings",
          "feeSignature": "Signature signed by relay that confirms that the fee values are valid",
          "toAddress": "Address in side network that will receive the tokens",
          "transferFee": "Amount (in native coins), payed to compensate gas fees in side network"
        }
      }
    },
    "version": 1
  },
  "userdoc": {
    "kind": "user",
    "methods": {},
    "version": 1
  },
  "storageLayout": {
    "storage": [
      {
        "astId": 413,
        "contract": "contracts/networks/BSC_AmbBridge.sol:BSC_AmbBridge",
        "label": "_initialized",
        "offset": 0,
        "slot": "0",
        "type": "t_bool"
      },
      {
        "astId": 416,
        "contract": "contracts/networks/BSC_AmbBridge.sol:BSC_AmbBridge",
        "label": "_initializing",
        "offset": 1,
        "slot": "0",
        "type": "t_bool"
      },
      {
        "astId": 609,
        "contract": "contracts/networks/BSC_AmbBridge.sol:BSC_AmbBridge",
        "label": "__gap",
        "offset": 0,
        "slot": "1",
        "type": "t_array(t_uint256)50_storage"
      },
      {
        "astId": 858,
        "contract": "contracts/networks/BSC_AmbBridge.sol:BSC_AmbBridge",
        "label": "__gap",
        "offset": 0,
        "slot": "51",
        "type": "t_array(t_uint256)50_storage"
      },
      {
        "astId": 48,
        "contract": "contracts/networks/BSC_AmbBridge.sol:BSC_AmbBridge",
        "label": "_roles",
        "offset": 0,
        "slot": "101",
        "type": "t_mapping(t_bytes32,t_struct(RoleData)43_storage)"
      },
      {
        "astId": 333,
        "contract": "contracts/networks/BSC_AmbBridge.sol:BSC_AmbBridge",
        "label": "__gap",
        "offset": 0,
        "slot": "102",
        "type": "t_array(t_uint256)49_storage"
      },
      {
        "astId": 474,
        "contract": "contracts/networks/BSC_AmbBridge.sol:BSC_AmbBridge",
        "label": "_paused",
        "offset": 0,
        "slot": "151",
        "type": "t_bool"
      },
      {
        "astId": 565,
        "contract": "contracts/networks/BSC_AmbBridge.sol:BSC_AmbBridge",
        "label": "__gap",
        "offset": 0,
        "slot": "152",
        "type": "t_array(t_uint256)49_storage"
      },
      {
        "astId": 6834,
        "contract": "contracts/networks/BSC_AmbBridge.sol:BSC_AmbBridge",
        "label": "signatureFeeCheckNumber",
        "offset": 0,
        "slot": "201",
        "type": "t_uint256"
      },
      {
        "astId": 6838,
        "contract": "contracts/networks/BSC_AmbBridge.sol:BSC_AmbBridge",
        "label": "queue",
        "offset": 0,
        "slot": "202",
        "type": "t_array(t_struct(Transfer)7916_storage)dyn_storage"
      },
      {
        "astId": 6843,
        "contract": "contracts/networks/BSC_AmbBridge.sol:BSC_AmbBridge",
        "label": "lockedTransfers",
        "offset": 0,
        "slot": "203",
        "type": "t_mapping(t_uint256,t_struct(LockedTransfers)7933_storage)"
      },
      {
        "astId": 6845,
        "contract": "contracts/networks/BSC_AmbBridge.sol:BSC_AmbBridge",
        "label": "oldestLockedEventId",
        "offset": 0,
        "slot": "204",
        "type": "t_uint256"
      },
      {
        "astId": 6849,
        "contract": "contracts/networks/BSC_AmbBridge.sol:BSC_AmbBridge",
        "label": "tokenAddresses",
        "offset": 0,
        "slot": "205",
        "type": "t_mapping(t_address,t_address)"
      },
      {
        "astId": 6851,
        "contract": "contracts/networks/BSC_AmbBridge.sol:BSC_AmbBridge",
        "label": "wrapperAddress",
        "offset": 0,
        "slot": "206",
        "type": "t_address"
      },
      {
        "astId": 6853,
        "contract": "contracts/networks/BSC_AmbBridge.sol:BSC_AmbBridge",
        "label": "transferFeeRecipient",
        "offset": 0,
        "slot": "207",
        "type": "t_address_payable"
      },
      {
        "astId": 6855,
        "contract": "contracts/networks/BSC_AmbBridge.sol:BSC_AmbBridge",
        "label": "bridgeFeeRecipient",
        "offset": 0,
        "slot": "208",
        "type": "t_address_payable"
      },
      {
        "astId": 6857,
        "contract": "contracts/networks/BSC_AmbBridge.sol:BSC_AmbBridge",
        "label": "sideBridgeAddress",
        "offset": 0,
        "slot": "209",
        "type": "t_address"
      },
      {
        "astId": 6859,
        "contract": "contracts/networks/BSC_AmbBridge.sol:BSC_AmbBridge",
        "label": "minSafetyBlocks",
        "offset": 0,
        "slot": "210",
        "type": "t_uint256"
      },
      {
        "astId": 6861,
        "contract": "contracts/networks/BSC_AmbBridge.sol:BSC_AmbBridge",
        "label": "timeframeSeconds",
        "offset": 0,
        "slot": "211",
        "type": "t_uint256"
      },
      {
        "astId": 6863,
        "contract": "contracts/networks/BSC_AmbBridge.sol:BSC_AmbBridge",
        "label": "lockTime",
        "offset": 0,
        "slot": "212",
        "type": "t_uint256"
      },
      {
        "astId": 6865,
        "contract": "contracts/networks/BSC_AmbBridge.sol:BSC_AmbBridge",
        "label": "inputEventId",
        "offset": 0,
        "slot": "213",
        "type": "t_uint256"
      },
      {
        "astId": 6867,
        "contract": "contracts/networks/BSC_AmbBridge.sol:BSC_AmbBridge",
        "label": "outputEventId",
        "offset": 0,
        "slot": "214",
        "type": "t_uint256"
      },
      {
        "astId": 6869,
        "contract": "contracts/networks/BSC_AmbBridge.sol:BSC_AmbBridge",
        "label": "lastTimeframe",
        "offset": 0,
        "slot": "215",
        "type": "t_uint256"
      },
      {
        "astId": 7906,
        "contract": "contracts/networks/BSC_AmbBridge.sol:BSC_AmbBridge",
        "label": "__gap",
        "offset": 0,
        "slot": "216",
        "type": "t_array(t_uint256)15_storage"
      },
      {
        "astId": 2740,
        "contract": "contracts/networks/BSC_AmbBridge.sol:BSC_AmbBridge",
        "label": "allValidators",
        "offset": 0,
        "slot": "231",
        "type": "t_mapping(t_uint256,t_mapping(t_address,t_bool))"
      },
      {
        "astId": 2742,
        "contract": "contracts/networks/BSC_AmbBridge.sol:BSC_AmbBridge",
        "label": "currentEpoch",
        "offset": 0,
        "slot": "232",
        "type": "t_uint256"
      },
      {
        "astId": 2744,
        "contract": "contracts/networks/BSC_AmbBridge.sol:BSC_AmbBridge",
        "label": "currentValidatorSetSize",
        "offset": 0,
        "slot": "233",
        "type": "t_uint256"
      },
      {
        "astId": 2746,
        "contract": "contracts/networks/BSC_AmbBridge.sol:BSC_AmbBridge",
        "label": "chainId",
        "offset": 0,
        "slot": "234",
        "type": "t_bytes1"
      }
    ],
    "types": {
      "t_address": {
        "encoding": "inplace",
        "label": "address",
        "numberOfBytes": "20"
      },
      "t_address_payable": {
        "encoding": "inplace",
        "label": "address payable",
        "numberOfBytes": "20"
      },
      "t_array(t_struct(Transfer)7916_storage)dyn_storage": {
        "base": "t_struct(Transfer)7916_storage",
        "encoding": "dynamic_array",
        "label": "struct CommonStructs.Transfer[]",
        "numberOfBytes": "32"
      },
      "t_array(t_uint256)15_storage": {
        "base": "t_uint256",
        "encoding": "inplace",
        "label": "uint256[15]",
        "numberOfBytes": "480"
      },
      "t_array(t_uint256)49_storage": {
        "base": "t_uint256",
        "encoding": "inplace",
        "label": "uint256[49]",
        "numberOfBytes": "1568"
      },
      "t_array(t_uint256)50_storage": {
        "base": "t_uint256",
        "encoding": "inplace",
        "label": "uint256[50]",
        "numberOfBytes": "1600"
      },
      "t_bool": {
        "encoding": "inplace",
        "label": "bool",
        "numberOfBytes": "1"
      },
      "t_bytes1": {
        "encoding": "inplace",
        "label": "bytes1",
        "numberOfBytes": "1"
      },
      "t_bytes32": {
        "encoding": "inplace",
        "label": "bytes32",
        "numberOfBytes": "32"
      },
      "t_mapping(t_address,t_address)": {
        "encoding": "mapping",
        "key": "t_address",
        "label": "mapping(address => address)",
        "numberOfBytes": "32",
        "value": "t_address"
      },
      "t_mapping(t_address,t_bool)": {
        "encoding": "mapping",
        "key": "t_address",
        "label": "mapping(address => bool)",
        "numberOfBytes": "32",
        "value": "t_bool"
      },
      "t_mapping(t_bytes32,t_struct(RoleData)43_storage)": {
        "encoding": "mapping",
        "key": "t_bytes32",
        "label": "mapping(bytes32 => struct AccessControlUpgradeable.RoleData)",
        "numberOfBytes": "32",
        "value": "t_struct(RoleData)43_storage"
      },
      "t_mapping(t_uint256,t_mapping(t_address,t_bool))": {
        "encoding": "mapping",
        "key": "t_uint256",
        "label": "mapping(uint256 => mapping(address => bool))",
        "numberOfBytes": "32",
        "value": "t_mapping(t_address,t_bool)"
      },
      "t_mapping(t_uint256,t_struct(LockedTransfers)7933_storage)": {
        "encoding": "mapping",
        "key": "t_uint256",
        "label": "mapping(uint256 => struct CommonStructs.LockedTransfers)",
        "numberOfBytes": "32",
        "value": "t_struct(LockedTransfers)7933_storage"
      },
      "t_struct(LockedTransfers)7933_storage": {
        "encoding": "inplace",
        "label": "struct CommonStructs.LockedTransfers",
        "members": [
          {
            "astId": 7930,
            "contract": "contracts/networks/BSC_AmbBridge.sol:BSC_AmbBridge",
            "label": "transfers",
            "offset": 0,
            "slot": "0",
            "type": "t_array(t_struct(Transfer)7916_storage)dyn_storage"
          },
          {
            "astId": 7932,
            "contract": "contracts/networks/BSC_AmbBridge.sol:BSC_AmbBridge",
            "label": "endTimestamp",
            "offset": 0,
            "slot": "1",
            "type": "t_uint256"
          }
        ],
        "numberOfBytes": "64"
      },
      "t_struct(RoleData)43_storage": {
        "encoding": "inplace",
        "label": "struct AccessControlUpgradeable.RoleData",
        "members": [
          {
            "astId": 40,
            "contract": "contracts/networks/BSC_AmbBridge.sol:BSC_AmbBridge",
            "label": "members",
            "offset": 0,
            "slot": "0",
            "type": "t_mapping(t_address,t_bool)"
          },
          {
            "astId": 42,
            "contract": "contracts/networks/BSC_AmbBridge.sol:BSC_AmbBridge",
            "label": "adminRole",
            "offset": 0,
            "slot": "1",
            "type": "t_bytes32"
          }
        ],
        "numberOfBytes": "64"
      },
      "t_struct(Transfer)7916_storage": {
        "encoding": "inplace",
        "label": "struct CommonStructs.Transfer",
        "members": [
          {
            "astId": 7911,
            "contract": "contracts/networks/BSC_AmbBridge.sol:BSC_AmbBridge",
            "label": "tokenAddress",
            "offset": 0,
            "slot": "0",
            "type": "t_address"
          },
          {
            "astId": 7913,
            "contract": "contracts/networks/BSC_AmbBridge.sol:BSC_AmbBridge",
            "label": "toAddress",
            "offset": 0,
            "slot": "1",
            "type": "t_address"
          },
          {
            "astId": 7915,
            "contract": "contracts/networks/BSC_AmbBridge.sol:BSC_AmbBridge",
            "label": "amount",
            "offset": 0,
            "slot": "2",
            "type": "t_uint256"
          }
        ],
        "numberOfBytes": "96"
      },
      "t_uint256": {
        "encoding": "inplace",
        "label": "uint256",
        "numberOfBytes": "32"
      }
    }
  }
}