{
  "address": "0xd390d1bFd4AAeCd1635da5dDa419d388a7CF8766",
  "abi": [
    {
      "anonymous": false,
      "inputs": [
        {
          "indexed": false,
          "internalType": "address",
          "name": "account",
          "type": "address"
        }
      ],
      "name": "Paused",
      "type": "event"
    },
    {
      "anonymous": false,
      "inputs": [
        {
          "indexed": true,
          "internalType": "bytes32",
          "name": "role",
          "type": "bytes32"
        },
        {
          "indexed": true,
          "internalType": "bytes32",
          "name": "previousAdminRole",
          "type": "bytes32"
        },
        {
          "indexed": true,
          "internalType": "bytes32",
          "name": "newAdminRole",
          "type": "bytes32"
        }
      ],
      "name": "RoleAdminChanged",
      "type": "event"
    },
    {
      "anonymous": false,
      "inputs": [
        {
          "indexed": true,
          "internalType": "bytes32",
          "name": "role",
          "type": "bytes32"
        },
        {
          "indexed": true,
          "internalType": "address",
          "name": "account",
          "type": "address"
        },
        {
          "indexed": true,
          "internalType": "address",
          "name": "sender",
          "type": "address"
        }
      ],
      "name": "RoleGranted",
      "type": "event"
    },
    {
      "anonymous": false,
      "inputs": [
        {
          "indexed": true,
          "internalType": "bytes32",
          "name": "role",
          "type": "bytes32"
        },
        {
          "indexed": true,
          "internalType": "address",
          "name": "account",
          "type": "address"
        },
        {
          "indexed": true,
          "internalType": "address",
          "name": "sender",
          "type": "address"
        }
      ],
      "name": "RoleRevoked",
      "type": "event"
    },
    {
      "anonymous": false,
      "inputs": [
        {
          "indexed": true,
          "internalType": "uint256",
          "name": "eventId",
          "type": "uint256"
        },
        {
          "components": [
            {
              "internalType": "address",
              "name": "tokenAddress",
              "type": "address"
            },
            {
              "internalType": "address",
              "name": "toAddress",
              "type": "address"
            },
            {
              "internalType": "uint256",
              "name": "amount",
              "type": "uint256"
            }
          ],
          "indexed": false,
          "internalType": "struct CommonStructs.Transfer[]",
          "name": "queue",
          "type": "tuple[]"
        }
      ],
      "name": "Transfer",
      "type": "event"
    },
    {
      "anonymous": false,
      "inputs": [
        {
          "indexed": true,
          "internalType": "uint256",
          "name": "eventId",
          "type": "uint256"
        }
      ],
      "name": "TransferFinish",
      "type": "event"
    },
    {
      "anonymous": false,
      "inputs": [
        {
          "indexed": true,
          "internalType": "uint256",
          "name": "eventId",
          "type": "uint256"
        }
      ],
      "name": "TransferSubmit",
      "type": "event"
    },
    {
      "anonymous": false,
      "inputs": [
        {
          "indexed": false,
          "internalType": "address",
          "name": "account",
          "type": "address"
        }
      ],
      "name": "Unpaused",
      "type": "event"
    },
    {
      "anonymous": false,
      "inputs": [
        {
          "indexed": true,
          "internalType": "address",
          "name": "from",
          "type": "address"
        },
        {
          "indexed": false,
          "internalType": "uint256",
          "name": "eventId",
          "type": "uint256"
        },
        {
          "indexed": false,
          "internalType": "address",
          "name": "tokenFrom",
          "type": "address"
        },
        {
          "indexed": false,
          "internalType": "address",
          "name": "tokenTo",
          "type": "address"
        },
        {
          "indexed": false,
          "internalType": "uint256",
          "name": "amount",
          "type": "uint256"
        },
        {
          "indexed": false,
          "internalType": "uint256",
          "name": "feeAmount",
          "type": "uint256"
        }
      ],
      "name": "Withdraw",
      "type": "event"
    },
    {
      "inputs": [],
      "name": "ADMIN_ROLE",
      "outputs": [
        {
          "internalType": "bytes32",
          "name": "",
          "type": "bytes32"
        }
      ],
      "stateMutability": "view",
      "type": "function"
    },
    {
      "inputs": [],
      "name": "DEFAULT_ADMIN_ROLE",
      "outputs": [
        {
          "internalType": "bytes32",
          "name": "",
          "type": "bytes32"
        }
      ],
      "stateMutability": "view",
      "type": "function"
    },
    {
      "inputs": [],
      "name": "RELAY_ROLE",
      "outputs": [
        {
          "internalType": "bytes32",
          "name": "",
          "type": "bytes32"
        }
      ],
      "stateMutability": "view",
      "type": "function"
    },
    {
      "inputs": [
        {
          "internalType": "uint256",
          "name": "fee_",
          "type": "uint256"
        }
      ],
      "name": "changeFee",
      "outputs": [],
      "stateMutability": "nonpayable",
      "type": "function"
    },
    {
      "inputs": [
        {
          "internalType": "address payable",
          "name": "feeRecipient_",
          "type": "address"
        }
      ],
      "name": "changeFeeRecipient",
      "outputs": [],
      "stateMutability": "nonpayable",
      "type": "function"
    },
    {
      "inputs": [
        {
          "internalType": "uint256",
          "name": "lockTime_",
          "type": "uint256"
        }
      ],
      "name": "changeLockTime",
      "outputs": [],
      "stateMutability": "nonpayable",
      "type": "function"
    },
    {
      "inputs": [
        {
          "internalType": "uint256",
          "name": "minSafetyBlocks_",
          "type": "uint256"
        }
      ],
      "name": "changeMinSafetyBlocks",
      "outputs": [],
      "stateMutability": "nonpayable",
      "type": "function"
    },
    {
      "inputs": [
        {
          "internalType": "uint256",
          "name": "timeframeSeconds_",
          "type": "uint256"
        }
      ],
      "name": "changeTimeframeSeconds",
      "outputs": [],
      "stateMutability": "nonpayable",
      "type": "function"
    },
    {
      "inputs": [],
      "name": "fee",
      "outputs": [
        {
          "internalType": "uint256",
          "name": "",
          "type": "uint256"
        }
      ],
      "stateMutability": "view",
      "type": "function"
    },
    {
      "inputs": [
        {
          "internalType": "uint256",
          "name": "eventId",
          "type": "uint256"
        }
      ],
      "name": "getLockedTransfers",
      "outputs": [
        {
          "components": [
            {
              "components": [
                {
                  "internalType": "address",
                  "name": "tokenAddress",
                  "type": "address"
                },
                {
                  "internalType": "address",
                  "name": "toAddress",
                  "type": "address"
                },
                {
                  "internalType": "uint256",
                  "name": "amount",
                  "type": "uint256"
                }
              ],
              "internalType": "struct CommonStructs.Transfer[]",
              "name": "transfers",
              "type": "tuple[]"
            },
            {
              "internalType": "uint256",
              "name": "endTimestamp",
              "type": "uint256"
            }
          ],
          "internalType": "struct CommonStructs.LockedTransfers",
          "name": "",
          "type": "tuple"
        }
      ],
      "stateMutability": "view",
      "type": "function"
    },
    {
      "inputs": [
        {
          "internalType": "bytes32",
          "name": "role",
          "type": "bytes32"
        }
      ],
      "name": "getRoleAdmin",
      "outputs": [
        {
          "internalType": "bytes32",
          "name": "",
          "type": "bytes32"
        }
      ],
      "stateMutability": "view",
      "type": "function"
    },
    {
      "inputs": [
        {
          "internalType": "bytes32",
          "name": "role",
          "type": "bytes32"
        },
        {
          "internalType": "address",
          "name": "account",
          "type": "address"
        }
      ],
      "name": "grantRole",
      "outputs": [],
      "stateMutability": "nonpayable",
      "type": "function"
    },
    {
      "inputs": [
        {
          "internalType": "bytes32",
          "name": "role",
          "type": "bytes32"
        },
        {
          "internalType": "address",
          "name": "account",
          "type": "address"
        }
      ],
      "name": "hasRole",
      "outputs": [
        {
          "internalType": "bool",
          "name": "",
          "type": "bool"
        }
      ],
      "stateMutability": "view",
      "type": "function"
    },
    {
      "inputs": [
        {
          "components": [
            {
              "internalType": "address",
              "name": "sideBridgeAddress",
              "type": "address"
            },
            {
              "internalType": "address",
              "name": "adminAddress",
              "type": "address"
            },
            {
              "internalType": "address",
              "name": "relayAddress",
              "type": "address"
            },
            {
              "internalType": "address",
              "name": "wrappingTokenAddress",
              "type": "address"
            },
            {
              "internalType": "address[]",
              "name": "tokenThisAddresses",
              "type": "address[]"
            },
            {
              "internalType": "address[]",
              "name": "tokenSideAddresses",
              "type": "address[]"
            },
            {
              "internalType": "uint256",
              "name": "fee",
              "type": "uint256"
            },
            {
              "internalType": "address payable",
              "name": "feeRecipient",
              "type": "address"
            },
            {
              "internalType": "uint256",
              "name": "timeframeSeconds",
              "type": "uint256"
            },
            {
              "internalType": "uint256",
              "name": "lockTime",
              "type": "uint256"
            },
            {
              "internalType": "uint256",
              "name": "minSafetyBlocks",
              "type": "uint256"
            }
          ],
          "internalType": "struct CommonStructs.ConstructorArgs",
          "name": "args",
          "type": "tuple"
        },
        {
          "internalType": "uint256",
          "name": "minimumDifficulty",
          "type": "uint256"
        }
      ],
      "name": "initialize",
      "outputs": [],
      "stateMutability": "nonpayable",
      "type": "function"
    },
    {
      "inputs": [],
      "name": "inputEventId",
      "outputs": [
        {
          "internalType": "uint256",
          "name": "",
          "type": "uint256"
        }
      ],
      "stateMutability": "view",
      "type": "function"
    },
    {
      "inputs": [
        {
          "internalType": "uint256",
          "name": "epochIndex",
          "type": "uint256"
        }
      ],
      "name": "isEpochDataSet",
      "outputs": [
        {
          "internalType": "bool",
          "name": "",
          "type": "bool"
        }
      ],
      "stateMutability": "view",
      "type": "function"
    },
    {
      "inputs": [],
      "name": "lockTime",
      "outputs": [
        {
          "internalType": "uint256",
          "name": "",
          "type": "uint256"
        }
      ],
      "stateMutability": "view",
      "type": "function"
    },
    {
      "inputs": [
        {
          "internalType": "uint256",
          "name": "",
          "type": "uint256"
        }
      ],
      "name": "lockedTransfers",
      "outputs": [
        {
          "internalType": "uint256",
          "name": "endTimestamp",
          "type": "uint256"
        }
      ],
      "stateMutability": "view",
      "type": "function"
    },
    {
      "inputs": [],
      "name": "minSafetyBlocks",
      "outputs": [
        {
          "internalType": "uint256",
          "name": "",
          "type": "uint256"
        }
      ],
      "stateMutability": "view",
      "type": "function"
    },
    {
      "inputs": [],
      "name": "oldestLockedEventId",
      "outputs": [
        {
          "internalType": "uint256",
          "name": "",
          "type": "uint256"
        }
      ],
      "stateMutability": "view",
      "type": "function"
    },
    {
      "inputs": [],
      "name": "pause",
      "outputs": [],
      "stateMutability": "nonpayable",
      "type": "function"
    },
    {
      "inputs": [],
      "name": "paused",
      "outputs": [
        {
          "internalType": "bool",
          "name": "",
          "type": "bool"
        }
      ],
      "stateMutability": "view",
      "type": "function"
    },
    {
      "inputs": [
        {
          "internalType": "uint256",
          "name": "eventId",
          "type": "uint256"
        }
      ],
      "name": "removeLockedTransfers",
      "outputs": [],
      "stateMutability": "nonpayable",
      "type": "function"
    },
    {
      "inputs": [
        {
          "internalType": "bytes32",
          "name": "role",
          "type": "bytes32"
        },
        {
          "internalType": "address",
          "name": "account",
          "type": "address"
        }
      ],
      "name": "renounceRole",
      "outputs": [],
      "stateMutability": "nonpayable",
      "type": "function"
    },
    {
      "inputs": [
        {
          "internalType": "bytes32",
          "name": "role",
          "type": "bytes32"
        },
        {
          "internalType": "address",
          "name": "account",
          "type": "address"
        }
      ],
      "name": "revokeRole",
      "outputs": [],
      "stateMutability": "nonpayable",
      "type": "function"
    },
    {
      "inputs": [
        {
          "internalType": "uint256",
          "name": "epochNum",
          "type": "uint256"
        },
        {
          "internalType": "uint256",
          "name": "fullSizeIn128Resultion",
          "type": "uint256"
        },
        {
          "internalType": "uint256",
          "name": "branchDepth",
          "type": "uint256"
        },
        {
          "internalType": "uint256[]",
          "name": "merkleNodes",
          "type": "uint256[]"
        }
      ],
      "name": "setEpochData",
      "outputs": [],
      "stateMutability": "nonpayable",
      "type": "function"
    },
    {
      "inputs": [
        {
          "internalType": "address",
          "name": "_sideBridgeAddress",
          "type": "address"
        }
      ],
      "name": "setSideBridge",
      "outputs": [],
      "stateMutability": "nonpayable",
      "type": "function"
    },
    {
      "inputs": [],
      "name": "sideBridgeAddress",
      "outputs": [
        {
          "internalType": "address",
          "name": "",
          "type": "address"
        }
      ],
      "stateMutability": "view",
      "type": "function"
    },
    {
      "inputs": [
        {
          "components": [
            {
              "components": [
                {
                  "internalType": "bytes3",
                  "name": "p0WithNonce",
                  "type": "bytes3"
                },
                {
                  "internalType": "bytes3",
                  "name": "p0WithoutNonce",
                  "type": "bytes3"
                },
                {
                  "internalType": "bytes",
                  "name": "p1",
                  "type": "bytes"
                },
                {
                  "internalType": "bytes32",
                  "name": "parentOrReceiptHash",
                  "type": "bytes32"
                },
                {
                  "internalType": "bytes",
                  "name": "p2",
                  "type": "bytes"
                },
                {
                  "internalType": "bytes",
                  "name": "difficulty",
                  "type": "bytes"
                },
                {
                  "internalType": "bytes",
                  "name": "p3",
                  "type": "bytes"
                },
                {
                  "internalType": "bytes",
                  "name": "number",
                  "type": "bytes"
                },
                {
                  "internalType": "bytes",
                  "name": "p4",
                  "type": "bytes"
                },
                {
                  "internalType": "bytes",
                  "name": "p5",
                  "type": "bytes"
                },
                {
                  "internalType": "bytes",
                  "name": "nonce",
                  "type": "bytes"
                },
                {
                  "internalType": "bytes",
                  "name": "p6",
                  "type": "bytes"
                },
                {
                  "internalType": "uint256[]",
                  "name": "dataSetLookup",
                  "type": "uint256[]"
                },
                {
                  "internalType": "uint256[]",
                  "name": "witnessForLookup",
                  "type": "uint256[]"
                }
              ],
              "internalType": "struct CheckPoW.BlockPoW[]",
              "name": "blocks",
              "type": "tuple[]"
            },
            {
              "components": [
                {
                  "internalType": "bytes[]",
                  "name": "receiptProof",
                  "type": "bytes[]"
                },
                {
                  "internalType": "uint256",
                  "name": "eventId",
                  "type": "uint256"
                },
                {
                  "components": [
                    {
                      "internalType": "address",
                      "name": "tokenAddress",
                      "type": "address"
                    },
                    {
                      "internalType": "address",
                      "name": "toAddress",
                      "type": "address"
                    },
                    {
                      "internalType": "uint256",
                      "name": "amount",
                      "type": "uint256"
                    }
                  ],
                  "internalType": "struct CommonStructs.Transfer[]",
                  "name": "transfers",
                  "type": "tuple[]"
                }
              ],
              "internalType": "struct CommonStructs.TransferProof",
              "name": "transfer",
              "type": "tuple"
            }
          ],
          "internalType": "struct CheckPoW.PoWProof",
          "name": "powProof",
          "type": "tuple"
        }
      ],
      "name": "submitTransferPoW",
      "outputs": [],
      "stateMutability": "nonpayable",
      "type": "function"
    },
    {
      "inputs": [
        {
          "internalType": "bytes4",
          "name": "interfaceId",
          "type": "bytes4"
        }
      ],
      "name": "supportsInterface",
      "outputs": [
        {
          "internalType": "bool",
          "name": "",
          "type": "bool"
        }
      ],
      "stateMutability": "view",
      "type": "function"
    },
    {
      "inputs": [],
      "name": "timeframeSeconds",
      "outputs": [
        {
          "internalType": "uint256",
          "name": "",
          "type": "uint256"
        }
      ],
      "stateMutability": "view",
      "type": "function"
    },
    {
      "inputs": [
        {
          "internalType": "address",
          "name": "",
          "type": "address"
        }
      ],
      "name": "tokenAddresses",
      "outputs": [
        {
          "internalType": "address",
          "name": "",
          "type": "address"
        }
      ],
      "stateMutability": "view",
      "type": "function"
    },
    {
      "inputs": [
        {
          "internalType": "address",
          "name": "tokenThisAddress",
          "type": "address"
        },
        {
          "internalType": "address",
          "name": "tokenSideAddress",
          "type": "address"
        }
      ],
      "name": "tokensAdd",
      "outputs": [],
      "stateMutability": "nonpayable",
      "type": "function"
    },
    {
      "inputs": [
        {
          "internalType": "address[]",
          "name": "tokenThisAddresses",
          "type": "address[]"
        },
        {
          "internalType": "address[]",
          "name": "tokenSideAddresses",
          "type": "address[]"
        }
      ],
      "name": "tokensAddBatch",
      "outputs": [],
      "stateMutability": "nonpayable",
      "type": "function"
    },
    {
      "inputs": [
        {
          "internalType": "address",
          "name": "tokenThisAddress",
          "type": "address"
        }
      ],
      "name": "tokensRemove",
      "outputs": [],
      "stateMutability": "nonpayable",
      "type": "function"
    },
    {
      "inputs": [
        {
          "internalType": "address[]",
          "name": "tokenThisAddresses",
          "type": "address[]"
        }
      ],
      "name": "tokensRemoveBatch",
      "outputs": [],
      "stateMutability": "nonpayable",
      "type": "function"
    },
    {
      "inputs": [],
      "name": "triggerTransfers",
      "outputs": [],
      "stateMutability": "payable",
      "type": "function"
    },
    {
      "inputs": [
        {
          "internalType": "uint256",
          "name": "eventId",
          "type": "uint256"
        }
      ],
      "name": "unlockTransfers",
      "outputs": [],
      "stateMutability": "nonpayable",
      "type": "function"
    },
    {
      "inputs": [],
      "name": "unlockTransfersBatch",
      "outputs": [],
      "stateMutability": "nonpayable",
      "type": "function"
    },
    {
      "inputs": [],
      "name": "unpause",
      "outputs": [],
      "stateMutability": "nonpayable",
      "type": "function"
    },
    {
      "inputs": [
        {
          "internalType": "address",
          "name": "tokenThisAddress",
          "type": "address"
        },
        {
          "internalType": "address",
          "name": "toAddress",
          "type": "address"
        },
        {
          "internalType": "uint256",
          "name": "amount",
          "type": "uint256"
        },
        {
          "internalType": "bool",
          "name": "unwrapSide",
          "type": "bool"
        }
      ],
      "name": "withdraw",
      "outputs": [],
      "stateMutability": "payable",
      "type": "function"
    },
    {
      "inputs": [
        {
          "internalType": "address",
          "name": "toAddress",
          "type": "address"
        }
      ],
      "name": "wrapWithdraw",
      "outputs": [],
      "stateMutability": "payable",
      "type": "function"
    },
    {
      "inputs": [],
      "name": "wrapperAddress",
      "outputs": [
        {
          "internalType": "address",
          "name": "",
          "type": "address"
        }
      ],
      "stateMutability": "view",
      "type": "function"
    },
    {
      "stateMutability": "payable",
      "type": "receive"
    }
  ],
  "transactionHash": "0x2a43105dbde2e319ef6bf68b4cb410653fd0a2db8917600ac40bcabdcdbfb692",
  "args": [],
  "numDeployments": 1,
  "solcInputHash": "9a5ac528b29851c45957f3c253897af4",
  "bytecode": "0x608060405234801561001057600080fd5b50615b0780620000216000396000f3fe6080604052600436106102645760003560e060020a90048063853890ae11610148578063baeebe75116100ba578063e31be0871161007e578063e31be08714610705578063e4e6bba614610732578063e88b662614610745578063f33fe10f14610765578063f862b7eb14610785578063fd5d2ef3146107a557600080fd5b8063baeebe7514610666578063c7b81f4f1461067c578063d547741f146106af578063ddca3f43146106cf578063e1d862be146106e557600080fd5b8063934785b71161010c578063934785b7146105bc57806396cf5227146105cf57806399b5bb64146105ef578063a217fddf14610605578063b6d3385e1461061a578063ba8bbbe01461065057600080fd5b8063853890ae146105315780638ac1f86f146105515780638e5df9c71461056657806391d1485414610586578063924cf6e0146105a657600080fd5b806336568abe116101e15780635c975abb116101a55780635c975abb146104825780636a1db1bf1461049a578063746b5c42146104ba57806375b238fc146104c25780637df8b802146104e45780638456cb591461051c57600080fd5b806336568abe146103dd5780633f4ba83a146103fd57806342180fb8146104125780634a1856de146104325780635249a7051461046257600080fd5b80632360407111610228578063236040711461032d578063248a9ca31461034d57806327ab61fb1461037d5780632f2ff15d1461039d578063331a891a146103bd57600080fd5b806301ffc9a71461027057806304421823146102a557806309fce356146102d55780630d668087146102f757806321d3d5361461030d57600080fd5b3661026b57005b600080fd5b34801561027c57600080fd5b5061029061028b366004614f5b565b6107c5565b60405190151581526020015b60405180910390f35b3480156102b157600080fd5b506102c7600080516020615a9283398151915281565b60405190815260200161029c565b3480156102e157600080fd5b506102f56102f0366004614e5c565b610858565b005b34801561030357600080fd5b506102c760d35481565b34801561031957600080fd5b506102f5610328366004614d7e565b610880565b34801561033957600080fd5b506102f5610348366004614d7e565b610910565b34801561035957600080fd5b506102c7610368366004614f1d565b60009081526065602052604090206001015490565b34801561038957600080fd5b506102f5610398366004614f9a565b61094c565b3480156103a957600080fd5b506102f56103b8366004614f36565b610a08565b3480156103c957600080fd5b506102f56103d8366004614f1d565b610a2e565b3480156103e957600080fd5b506102f56103f8366004614f36565b610b75565b34801561040957600080fd5b506102f5610c04565b34801561041e57600080fd5b506102f561042d366004614f1d565b610c28565b34801561043e57600080fd5b506102c761044d366004614f1d565b60ca6020526000908152604090206001015481565b34801561046e57600080fd5b506102f561047d366004614e27565b610c47565b34801561048e57600080fd5b5060975460ff16610290565b3480156104a657600080fd5b506102f56104b5366004614f1d565b610ccc565b6102f5610ceb565b3480156104ce57600080fd5b506102c7600080516020615ab283398151915281565b3480156104f057600080fd5b5060cd5461050490600160a060020a031681565b604051600160a060020a03909116815260200161029c565b34801561052857600080fd5b506102f5610df3565b34801561053d57600080fd5b506102f561054c366004614d9b565b610e14565b34801561055d57600080fd5b506102f5610e5c565b34801561057257600080fd5b506102f5610581366004614d7e565b610fb4565b34801561059257600080fd5b506102906105a1366004614f36565b610ff5565b3480156105b257600080fd5b506102c760d15481565b6102f56105ca366004614dd4565b611020565b3480156105db57600080fd5b506102f56105ea366004614f1d565b611428565b3480156105fb57600080fd5b506102c760d45481565b34801561061157600080fd5b506102c7600081565b34801561062657600080fd5b50610504610635366004614d7e565b60cc60205260009081526040902054600160a060020a031681565b34801561065c57600080fd5b506102c760cb5481565b34801561067257600080fd5b506102c760d25481565b34801561068857600080fd5b50610290610697366004614f1d565b600090815260e6602052604090206102000154151590565b3480156106bb57600080fd5b506102f56106ca366004614f36565b611447565b3480156106db57600080fd5b506102c760ce5481565b3480156106f157600080fd5b506102f56107003660046150b6565b61146d565b34801561071157600080fd5b50610725610720366004614f1d565b6115a1565b60405161029c91906155e6565b6102f5610740366004614d7e565b61165d565b34801561075157600080fd5b506102f561076036600461510d565b61190a565b34801561077157600080fd5b5060d05461050490600160a060020a031681565b34801561079157600080fd5b506102f56107a0366004614f1d565b6119d0565b3480156107b157600080fd5b506102f56107c0366004614f1d565b611c03565b60007bffffffffffffffffffffffffffffffffffffffffffffffffffffffff1982167f7965db0b00000000000000000000000000000000000000000000000000000000148061085257507f01ffc9a7000000000000000000000000000000000000000000000000000000007bffffffffffffffffffffffffffffffffffffffffffffffffffffffff198316145b92915050565b600080516020615ab28339815191526108718133611c22565b61087b8383611c89565b505050565b600061088c8133611c22565b60d054600160a060020a0316156108ed5760405160e560020a62461bcd02815260206004820152601d60248201527f736964654272696467654164647265737320616c72656164792073657400000060448201526064015b60405180910390fd5b5060d08054600160a060020a031916600160a060020a0392909216919091179055565b600080516020615ab28339815191526109298133611c22565b5060cf8054600160a060020a031916600160a060020a0392909216919091179055565b600054610100900460ff1680610965575060005460ff16155b6109845760405160e560020a62461bcd0281526004016108e490615589565b600054610100900460ff161580156109a6576000805461ffff19166101011790555b6109af83611d9f565b6109b882611ed8565b60007fe15729a2f427aa4572dab35eb692c902fcbce57d41642013259c741380809ae260c96040516109ea91906154af565b60405180910390a2801561087b576000805461ff0019169055505050565b600082815260656020526040902060010154610a248133611c22565b61087b8383611f4c565b600080516020615ab2833981519152610a478133611c22565b60975460ff16610a9c5760405160e560020a62461bcd02815260206004820152601460248201527f5061757361626c653a206e6f742070617573656400000000000000000000000060448201526064016108e4565b60cb54821015610b175760405160e560020a62461bcd02815260206004820152602660248201527f6576656e744964206d757374206265203e3d206f6c646573744c6f636b65644560448201527f76656e744964000000000000000000000000000000000000000000000000000060648201526084016108e4565b600082815260ca602052604090206001015415610b6357600082815260ca6020526040812090610b478282614afd565b5060006001919091015581610b5b816159db565b925050610b17565b610b6e60018361581c565b60d4555050565b600160a060020a0381163314610bf65760405160e560020a62461bcd02815260206004820152602f60248201527f416363657373436f6e74726f6c3a2063616e206f6e6c792072656e6f756e636560448201527f20726f6c657320666f722073656c66000000000000000000000000000000000060648201526084016108e4565b610c008282611fd2565b5050565b600080516020615ab2833981519152610c1d8133611c22565b610c25612039565b50565b600080516020615ab2833981519152610c418133611c22565b5060d255565b600080516020615ab2833981519152610c608133611c22565b815160005b81811015610cc65760cc6000858381518110610c8357610c83615a3c565b602090810291909101810151600160a060020a031682528101919091526040016000208054600160a060020a031916905580610cbe816159db565b915050610c65565b50505050565b600080516020615ab2833981519152610ce58133611c22565b5060ce55565b610d03600080516020615a9283398151915233610ff5565b610d995760ce543414610d5b5760405160e560020a62461bcd02815260206004820152601b60248201527f53656e742076616c7565206973206e6f7420657175616c20666565000000000060448201526064016108e4565b60cf5460ce54604051600160a060020a039092169181156108fc0291906000818181858888f19350505050158015610d97573d6000803e3d6000fd5b505b60d58054906000610da9836159db565b919050557fe15729a2f427aa4572dab35eb692c902fcbce57d41642013259c741380809ae260c9604051610ddd91906154af565b60405180910390a2610df160c96000614afd565b565b600080516020615ab2833981519152610e0c8133611c22565b610c256120d8565b600080516020615ab2833981519152610e2d8133611c22565b50600160a060020a03918216600090815260cc602052604090208054600160a060020a03191691909216179055565b60975460ff1615610e825760405160e560020a62461bcd0281526004016108e490615552565b60cb545b600081815260ca60209081526040808320815181546060948102820185018452928101838152909391928492849190879085015b82821015610f1457600084815260209081902060408051606081018252600386029092018054600160a060020a03908116845260018083015490911684860152600290910154918301919091529083529092019101610eba565b5050505081526020016001820154815250509050806020015160001480610f3e5750428160200151115b15610f49575060cb55565b8051610f5490612133565b600082815260ca6020526040812090610f6d8282614afd565b50600060019190910181905560405183917f78ff9b3176bb0d6421590f3816e75cb15a9ffa2b7a1a028f40a3f4e029eb39f291a25080610fac816159db565b915050610e86565b600080516020615ab2833981519152610fcd8133611c22565b50600160a060020a0316600090815260cc602052604090208054600160a060020a0319169055565b6000918252606560209081526040808420600160a060020a0393909316845291905290205460ff1690565b600081156110b5576000805260cc6020527f435daec636ce435a90bde0aeec309a303a359a854c5a51b7d6a5a941d6db609454600160a060020a038681169116146110b05760405160e560020a62461bcd02815260206004820152601f60248201527f546f6b656e206e6f7420706f696e7420746f206e617469766520746f6b656e0060448201526064016108e4565b611121565b50600160a060020a03808516600090815260cc602052604090205416806111215760405160e560020a62461bcd02815260206004820152601560248201527f556e6b6e6f776e20746f6b656e2061646472657373000000000000000000000060448201526064016108e4565b600083116111745760405160e560020a62461bcd02815260206004820152601160248201527f43616e6e6f74207769746864726177203000000000000000000000000000000060448201526064016108e4565b60ce5434146111c85760405160e560020a62461bcd02815260206004820152601160248201527f53656e742076616c756520213d2066656500000000000000000000000000000060448201526064016108e4565b60cf54604051600160a060020a03909116903480156108fc02916000818181858888f19350505050158015611201573d6000803e3d6000fd5b506040517f23b872dd00000000000000000000000000000000000000000000000000000000815233600482015230602482015260448101849052600160a060020a038616906323b872dd90606401602060405180830381600087803b15801561126957600080fd5b505af115801561127d573d6000803e3d6000fd5b505050506040513d601f19601f820116820180604052508101906112a19190614ec0565b6112f05760405160e560020a62461bcd02815260206004820152601360248201527f4661696c207472616e7366657220636f696e730000000000000000000000000060448201526064016108e4565b6040805160608082018352600160a060020a0384811680845288821660208086019182528587018a815260c98054600181018255600091909152965160039097027f66be4f155c5ef2ebd3772b228f2f00681e4ed5826cdb3b1943cc11ad15ad1d2881018054988716600160a060020a0319998a1617905592517f66be4f155c5ef2ebd3772b228f2f00681e4ed5826cdb3b1943cc11ad15ad1d2984018054918716919098161790965594517f66be4f155c5ef2ebd3772b228f2f00681e4ed5826cdb3b1943cc11ad15ad1d2a9091015560d55460ce548651918252928b1694810194909452938301939093528101859052608081019190915233907f396a477f1cc45749b4f1db2dfdf2ca466f53c3b26ab0b5452c2aaaf7f5ac9c439060a00160405180910390a26114216123c7565b5050505050565b600080516020615ab28339815191526114418133611c22565b5060d355565b6000828152606560205260409020600101546114638133611c22565b61087b8383611fd2565b600080516020615a928339815191526114868133611c22565b60975460ff16156114ac5760405160e560020a62461bcd0281526004016108e490615552565b6114b96020830183615719565b602001357f196c47048e38df7a4fe6e581c8f4f2e2ba67ac0dd45b90da756e97bd61d9dd3b60405160405180910390a26115026114f96020840184615719565b6020013561243f565b60d054611519908390600160a060020a03166124a4565b610c006115296020840184615719565b611537906040810190615668565b808060200260200160405190810160405280939291908181526020016000905b8282101561158357611574606083028601368190038101906150f1565b81526020019060010190611557565b50505050508380602001906115989190615719565b602001356125da565b604080518082019091526060815260006020820152600082815260ca60209081526040808320815181546060948102820185018452928101838152909491938593919285929185015b8282101561164457600084815260209081902060408051606081018252600386029092018054600160a060020a039081168452600180830154909116848601526002909101549183019190915290835290920191016115ea565b5050505081526020016001820154815250509050919050565b60cd54600160a060020a03908116600090815260cc602052604090205416806116cb5760405160e560020a62461bcd02815260206004820152601560248201527f556e6b6e6f776e20746f6b656e2061646472657373000000000000000000000060448201526064016108e4565b60ce54341161171f5760405160e560020a62461bcd02815260206004820152601160248201527f53656e742076616c7565203c3d2066656500000000000000000000000000000060448201526064016108e4565b60cf5460ce54604051600160a060020a039092169181156108fc0291906000818181858888f1935050505015801561175b573d6000803e3d6000fd5b50600060ce543461176c919061581c565b905060cd60009054906101000a9004600160a060020a0316600160a060020a031663d0e30db0826040518263ffffffff1660e060020a0281526004016000604051808303818588803b1580156117c157600080fd5b505af11580156117d5573d6000803e3d6000fd5b50506040805160608082018352600160a060020a038881168084528a821660208086019182528587018b815260c980546001810182556000918252975160039098027f66be4f155c5ef2ebd3772b228f2f00681e4ed5826cdb3b1943cc11ad15ad1d2881018054998816600160a060020a03199a8b1617905593517f66be4f155c5ef2ebd3772b228f2f00681e4ed5826cdb3b1943cc11ad15ad1d29850180549190971698169790971790945592517f66be4f155c5ef2ebd3772b228f2f00681e4ed5826cdb3b1943cc11ad15ad1d2a9091015560d55460ce5486519182529281019490945293830193909352810186905260808101919091523393507f396a477f1cc45749b4f1db2dfdf2ca466f53c3b26ab0b5452c2aaaf7f5ac9c43925060a001905060405180910390a261087b6123c7565b600285106119535760e6600061192160028861581c565b8152602001908152602001600020600080820160006119409190614b1e565b5060006102008201819055610201909101555b600085815260e66020526040812082915b828110156119ac5784848281811061197e5761197e615a3c565b905060200201358282610200811061199857611998615a3c565b0155806119a4816159db565b915050611964565b5050506000948552505060e660205260409092206102008101919091556102010155565b60975460ff16156119f65760405160e560020a62461bcd0281526004016108e490615552565b60cb548114611a4a5760405160e560020a62461bcd02815260206004820152601c60248201527f63616e20756e6c6f636b206f6e6c79206f6c64657374206576656e740000000060448201526064016108e4565b600081815260ca60209081526040808320815181546060948102820185018452928101838152909391928492849190879085015b82821015611ad857600084815260209081902060408051606081018252600386029092018054600160a060020a03908116845260018083015490911684860152600290910154918301919091529083529092019101611a7e565b50505050815260200160018201548152505090506000816020015111611b435760405160e560020a62461bcd02815260206004820181905260248201527f6e6f206c6f636b6564207472616e73666572732077697468207468697320696460448201526064016108e4565b42816020015110611b995760405160e560020a62461bcd02815260206004820152601b60248201527f6c6f636b54696d6520686173206e6f742079657420706173736564000000000060448201526064016108e4565b8051611ba490612133565b600082815260ca6020526040812090611bbd8282614afd565b50600060019190910181905560405183917f78ff9b3176bb0d6421590f3816e75cb15a9ffa2b7a1a028f40a3f4e029eb39f291a2611bfc8260016157d1565b60cb555050565b600080516020615ab2833981519152611c1c8133611c22565b5060d155565b611c2c8282610ff5565b610c0057611c4481600160a060020a0316601461269d565b611c4f83602061269d565b604051602001611c6092919061541b565b60408051601f198184030181529082905260e560020a62461bcd0282526108e49160040161551f565b8051825114611d035760405160e560020a62461bcd02815260206004820152603f60248201527f73697a6573206f6620746f6b656e5468697341646472657373657320616e642060448201527f746f6b656e53696465416464726573736573206d7573742062652073616d650060648201526084016108e4565b815160005b81811015610cc657828181518110611d2257611d22615a3c565b602002602001015160cc6000868481518110611d4057611d40615a3c565b6020026020010151600160a060020a0316600160a060020a0316815260200190815260200160002060006101000a815481600160a060020a030219169083600160a060020a031602179055508080611d97906159db565b915050611d08565b600054610100900460ff1680611db8575060005460ff16155b611dd75760405160e560020a62461bcd0281526004016108e490615589565b600054610100900460ff16158015611df9576000805461ffff19166101011790555b611e0460003361288a565b611e20600080516020615a92833981519152836040015161288a565b611e3c600080516020615ab2833981519152836020015161288a565b611e4e82608001518360a00151611c89565b606082015160cd8054600160a060020a03928316600160a060020a031991821617909155835160d0805491841691831691909117905560c084015160ce5560e084015160cf805491909316911617905561014082015160d15561010082015160d25561012082015160d355600160cb81905560d5558015610c00576000805461ff00191690555050565b600054610100900460ff1680611ef1575060005460ff16155b611f105760405160e560020a62461bcd0281526004016108e490615589565b600054610100900460ff16158015611f32576000805461ffff19166101011790555b60e78290558015610c00576000805461ff00191690555050565b611f568282610ff5565b610c00576000828152606560209081526040808320600160a060020a03851684529091529020805460ff19166001179055611f8e3390565b600160a060020a031681600160a060020a0316837f2f8788117e7eff1d82e926ec794901d17c78024a50270940304540a733656f0d60405160405180910390a45050565b611fdc8282610ff5565b15610c00576000828152606560209081526040808320600160a060020a0385168085529252808320805460ff1916905551339285917ff6391f5c32d9c69d2a47ea670b442974b53935d1edc7fd64eb21e047a839171b9190a45050565b60975460ff1661208e5760405160e560020a62461bcd02815260206004820152601460248201527f5061757361626c653a206e6f742070617573656400000000000000000000000060448201526064016108e4565b6097805460ff191690557f5db9ee0a495bf2e6ff9c91a7834c1ba4fdd244a5e8aa4e537bd38aeae4b073aa335b604051600160a060020a03909116815260200160405180910390a1565b60975460ff16156120fe5760405160e560020a62461bcd0281526004016108e490615552565b6097805460ff191660011790557f62e78cea01bee320cd4e420270b5ea74000d11b0c9f74754ebdbfc544b05a2586120bb3390565b60005b8151811015610c00576000600160a060020a031682828151811061215c5761215c615a3c565b602002602001015160000151600160a060020a031614156122785760cd548251600160a060020a0390911690632e1a7d4d908490849081106121a0576121a0615a3c565b6020026020010151604001516040518263ffffffff1660e060020a0281526004016121cd91815260200190565b600060405180830381600087803b1580156121e757600080fd5b505af11580156121fb573d6000803e3d6000fd5b5050505081818151811061221157612211615a3c565b602002602001015160200151600160a060020a03166108fc83838151811061223b5761223b615a3c565b6020026020010151604001519081150290604051600060405180830381858888f19350505050158015612272573d6000803e3d6000fd5b506123b5565b81818151811061228a5761228a615a3c565b602002602001015160000151600160a060020a031663a9059cbb8383815181106122b6576122b6615a3c565b6020026020010151602001518484815181106122d4576122d4615a3c565b6020026020010151604001516040518363ffffffff1660e060020a028152600401612314929190600160a060020a03929092168252602082015260400190565b602060405180830381600087803b15801561232e57600080fd5b505af1158015612342573d6000803e3d6000fd5b505050506040513d601f19601f820116820180604052508101906123669190614ec0565b6123b55760405160e560020a62461bcd02815260206004820152601360248201527f4661696c207472616e7366657220636f696e730000000000000000000000000060448201526064016108e4565b806123bf816159db565b915050612136565b600060d254426123d791906157e9565b905060d6548114610c255760d580549060006123f2836159db565b919050557fe15729a2f427aa4572dab35eb692c902fcbce57d41642013259c741380809ae260c960405161242691906154af565b60405180910390a261243a60c96000614afd565b60d655565b60d46000815461244e906159db565b91829055508114610c255760405160e560020a62461bcd02815260206004820152601460248201527f4576656e744964206f7574206f66206f7264657200000000000000000000000060448201526064016108e4565b60006124c56124b66020850185615719565b6124bf9061585c565b83612894565b905060005b6124d48480615618565b9050811015610cc657816124e88580615618565b838181106124f8576124f8615a3c565b905060200281019061250a91906156f8565b606001351461255e5760405160e560020a62461bcd02815260206004820152601f60248201527f706172656e7448617368206f722072656365697074486173682077726f6e670060448201526064016108e4565b61259261256b8580615618565b8381811061257b5761257b615a3c565b905060200281019061258d91906156f8565b612989565b91506125c86125a18580615618565b838181106125b1576125b1615a3c565b90506020028101906125c391906156f8565b612a93565b806125d2816159db565b9150506124ca565b60d3546125e790426157d1565b600082815260ca60205260408120600101919091555b825181101561087b57600082815260ca60205260409020835184908390811061262857612628615a3c565b60209081029190910181015182546001808201855560009485529383902082516003909202018054600160a060020a0319908116600160a060020a0393841617825593830151948101805490941694909116939093179091556040015160029091015580612695816159db565b9150506125fd565b606060006126ac8360026157fd565b6126b79060026157d1565b67ffffffffffffffff8111156126cf576126cf615a55565b6040519080825280601f01601f1916602001820160405280156126f9576020820181803683370190505b5090507f30000000000000000000000000000000000000000000000000000000000000008160008151811061273057612730615a3c565b6020010190600160f860020a031916908160001a9053507f78000000000000000000000000000000000000000000000000000000000000008160018151811061277b5761277b615a3c565b6020010190600160f860020a031916908160001a905350600061279f8460026157fd565b6127aa9060016157d1565b90505b6001811115612831577f303132333435363738396162636465660000000000000000000000000000000085600f16601081106127eb576127eb615a3c565b1a60f860020a0282828151811061280457612804615a3c565b6020010190600160f860020a031916908160001a90535060109094049361282a816159c4565b90506127ad565b5083156128835760405160e560020a62461bcd02815260206004820181905260248201527f537472696e67733a20686578206c656e67746820696e73756666696369656e7460448201526064016108e4565b9392505050565b610c008282611f4c565b60008083600001516000815181106128ae576128ae615a3c565b60200260200101518385600001516001815181106128ce576128ce615a3c565b60200260200101516128e38760200151612be9565b8751805160029081106128f8576128f8615a3c565b60200260200101518860400151604051602001612915919061549c565b604051602081830303815290604052896000015160038151811061293b5761293b615a3c565b6020026020010151604051602001612959979695949392919061530a565b6040516020818303038152906040528051906020012090506129818460000151826004612d51565b949350505050565b60006129986020830183614edd565b6129a560408401846156b1565b60608501356129b760808701876156b1565b6129c460a08901896156b1565b6129d160c08b018b6156b1565b6040516020016129ea9a99989796959493929190615242565b60408051601f19818403018152919052612a0760e08401846156b1565b612a156101008601866156b1565b612a236101208801886156b1565b612a316101408a018a6156b1565b612a3f6101608c018c6156b1565b604051602001612a589a999897969594939291906152be565b60408051601f1981840301815290829052612a7692916020016153ec565b604051602081830303815290604052805190602001209050919050565b6000612adf612aa560a08401846156b1565b8080601f016020809104026020016040519081016040528093929190818152602001838380828437600092019190915250612e0192505050565b905060e754811015612b365760405160e560020a62461bcd02815260206004820152601260248201527f646966666963756c747920746f6f206c6f77000000000000000000000000000060448201526064016108e4565b610c00612b49612aa560e08501856156b1565b612b5284612e34565b612b63612aa56101408701876156b1565b84612b72610180880188615618565b80806020026020016040519081016040528093929190818152602001838360200280828437600092019190915250612bb2925050506101a0890189615618565b80806020026020016040519081016040528093929190818152602001838360200280828437600092019190915250612f2492505050565b6040805160208082528183019092526060916000919060208201818036833701905050905082602082015260005b6020811015612c8057818181518110612c3257612c32615a3c565b60209101015160f860020a90819004027fff000000000000000000000000000000000000000000000000000000000000001615612c6e57612c80565b80612c78816159db565b915050612c17565b6000612c8d82602061581c565b67ffffffffffffffff811115612ca557612ca5615a55565b6040519080825280601f01601f191660200182016040528015612ccf576020820181803683370190505b50905060005b8151811015612d48578383612ce9816159db565b945081518110612cfb57612cfb615a3c565b602001015160f860020a900460f860020a02828281518110612d1f57612d1f615a3c565b6020010190600160f860020a031916908160001a90535080612d40816159db565b915050612cd5565b50949350505050565b60006060825b8551811015612df757858181518110612d7257612d72615a3c565b60200260200101518587836001612d8991906157d1565b81518110612d9957612d99615a3c565b6020026020010151604051602001612db3939291906153b5565b60405160208183030381529060405291506020825111612ddb57612dd682615833565b612de3565b815160208301205b9450612df06002826157d1565b9050612d57565b5092949350505050565b600081516008612e1191906157fd565b612e1d9061010061581c565b612e2683615833565b60029190910a900492915050565b600080612e476040840160208501614edd565b612e5460408501856156b1565b6060860135612e6660808801886156b1565b604051602001612e7b969594939291906151ee565b60408051601f19818403018152919052612e9860a08501856156b1565b612ea560c08701876156b1565b612eb260e08901896156b1565b612ec06101008b018b6156b1565b612ece6101608d018d6156b1565b604051602001612ee79a999897969594939291906152be565b60408051601f1981840301815290829052612f0592916020016153ec565b60408051601f1981840301815291905280516020909101209392505050565b6000612f32617530886157e9565b90506000612f438787868686612fad565b9050612f51856000196157e9565b811115612fa35760405160e560020a62461bcd02815260206004820152601960248201527f45746861736820646966666963756c747920746f6f206c6f770000000000000060448201526064016108e4565b5050505050505050565b600080612fba878761329a565b9050612fc4614b2e565b612fcc614b4d565b600085815260e660205260408120610201810154610200909101549091808261303a5760405160e560020a62461bcd02815260206004820152601160248201527f45706f636844617461206e6f742073657400000000000000000000000000000060448201526064016108e4565b600091505b601082101561307157602082028781018051918801918252516102009091015281613069816159db565b92505061303f565b600091505b60408210156131fa57865160009084906130b2908518896130986020886159f6565b602081106130a8576130a8615a3c565b6020020151613341565b6130bc91906159f6565b90506130c88a82613361565b6130d582858f8f8a6133c6565b146131255760405160e560020a62461bcd02815260206004820152600a60248201527f506f57206661696c65640000000000000000000000000000000000000000000060448201526064016108e4565b600091505b60088210156131e757602060808481028e0182810180519386028b01805163ffffffff9586166301000193918202188616825260408401805161010084018051918916918402919091188816905260608501805161020085018051918a169185029190911889169052949095018051610300909301805193881693909202929092189095169094528051640100000000908190049091528251819004909252805182900490528151049052816131df816159db565b92505061312a565b50816131f2816159db565b925050613076565b600091505b602082101561327f5761324c61324061323488856020811061322357613223615a3c565b6020020151896130988760016157d1565b886130988660026157d1565b876130988560036157d1565b856132586004856157e9565b6008811061326857613268615a3c565b60200201526132786004836157d1565b91506131ff565b61328987866135a1565b9d9c50505050505050505050505050565b6132a2614b6c565b6132aa614b8b565b6132b3846138d9565b67ffffffffffffffff8116825293506132d568010000000000000000856157e9565b67ffffffffffffffff8116602083015293506132fa68010000000000000000856157e9565b67ffffffffffffffff81166040830152935061331f68010000000000000000856157e9565b67ffffffffffffffff811660608301526080820184905293506129818161391b565b6000816133528463010001936157fd565b1863ffffffff16905092915050565b600082815260e660205260408120610201810154600290810a84049183918304610200811061339257613392615a3c565b015490506133a16002836159f6565b6133b7576001608060020a031691506108529050565b608060020a9004949350505050565b6000806133d38587613c30565b6001608060020a031690506000808080806133ef6002896159f6565b6002909804971190506000613404888c6157fd565b90508115613419576134168b826157d1565b90505b60005b888110156135145760208282010260208b01015193508c60011660001415613452578695506001608060020a0384169450613462565b6001608060020a03841695508694505b604080516020810188905290810186905260600160408051601f1981840301815291905280516020909101206002909d049c6001608060020a0316965060018d166134b857869550608060020a840494506134c5565b608060020a840495508694505b604080516020810188905290810186905260600160408051601f1981840301815291905280516020909101206002909d049c6001608060020a031696508061350c816159db565b91505061341c565b82156135905760208282010260208b01015193508c60011660001415613548578695506001608060020a0384169450613558565b6001608060020a03841695508694505b604080516020810188905290810186905260600160408051601f1981840301815291905280516020909101206001608060020a031696505b50949b9a5050505050505050505050565b60008083600760200201516135c3906c010000000000000000000000006157fd565b60c08501516135db90680100000000000000006157fd565b60a08601516135ef906401000000006157fd565b60808701516135fe91906157d1565b61360891906157d1565b61361291906157d1565b61362090608060020a6157fd565b606085015161363c906c010000000000000000000000006157fd565b604086015161365490680100000000000000006157fd565b6020870151613668906401000000006157fd565b875161367491906157d1565b61367e91906157d1565b61368891906157d1565b61369291906157d1565b9050600084600f60200201516136b5906c010000000000000000000000006157fd565b6101c08601516136ce90680100000000000000006157fd565b6101a08701516136e3906401000000006157fd565b6101808801516136f391906157d1565b6136fd91906157d1565b61370791906157d1565b61371590608060020a6157fd565b610160860151613732906c010000000000000000000000006157fd565b61014087015161374b90680100000000000000006157fd565b610120880151613760906401000000006157fd565b61010089015161377091906157d1565b61377a91906157d1565b61378491906157d1565b61378e91906157d1565b9050600084600760200201516137b1906c010000000000000000000000006157fd565b60c08601516137c990680100000000000000006157fd565b60a08701516137dd906401000000006157fd565b60808801516137ec91906157d1565b6137f691906157d1565b61380091906157d1565b61380e90608060020a6157fd565b606086015161382a906c010000000000000000000000006157fd565b604087015161384290680100000000000000006157fd565b6020880151613856906401000000006157fd565b885161386291906157d1565b61386c91906157d1565b61387691906157d1565b61388091906157d1565b905061388b836138d9565b613894836138d9565b61389d836138d9565b604080516020810194909452830191909152606082015260800160408051808303601f1901815291905280516020909101209695505050505050565b60008060005b6020811015613914576138f960ff851661010084026157d1565b6101009094049391508061390c816159db565b9150506138df565b5092915050565b613923614b6c565b61392f600960086157fd565b6048146139815760405160e560020a62461bcd02815260206004820152600c60248201527f73706f6e6765206572726f72000000000000000000000000000000000000000060448201526064016108e4565b600160a08301526780000000000000006101008301526048600860006139a86009836157fd565b90506139b2614baa565b600080805b6139c187866157e9565b831015613ae457600091505b6005821015613ac7575060005b6005811015613ab5576139ed86886157e9565b6139f88360056157fd565b613a0290836157d1565b1015613aa35788613a148360056157fd565b82613a208660096157fd565b613a2a91906157d1565b613a3491906157d1565b60098110613a4457613a44615a3c565b60200201518483613a568460056157fd565b613a6091906157d1565b60198110613a7057613a70615a3c565b6020020151188483613a838460056157fd565b613a8d91906157d1565b60198110613a9d57613a9d615a3c565b60200201525b80613aad816159db565b9150506139da565b81613abf816159db565b9250506139cd565b613ad084613d31565b935082613adc816159db565b9350506139b7565b613aec614b6c565b60005b6010811015613c2257600093505b6005841015613c1d57600092505b6005831015613c0b57613b1e888a6157e9565b613b298560056157fd565b613b3390856157d1565b108015613b405750601081105b15613bf9578584613b528560056157fd565b613b5c91906157d1565b60198110613b6c57613b6c615a3c565b602002015163ffffffff16828260108110613b8957613b89615a3c565b60200201526401000000008685613ba18660056157fd565b613bab91906157d1565b60198110613bbb57613bbb615a3c565b6020020151613bca91906157e9565b82613bd68360016157d1565b60108110613be657613be6615a3c565b6020020152613bf66002826157d1565b90505b82613c03816159db565b935050613b0b565b83613c15816159db565b945050613afd565b613aef565b509998505050505050505050565b600082613c3e8360046157fd565b81518110613c4e57613c4e615a3c565b602002602001015183836004613c6491906157fd565b613c6f9060016157d1565b81518110613c7f57613c7f615a3c565b602002602001015184846004613c9591906157fd565b613ca09060026157d1565b81518110613cb057613cb0615a3c565b602002602001015185856004613cc691906157fd565b613cd19060036157d1565b81518110613ce157613ce1615a3c565b6020026020010151604051602001613d12949392919093845260208401929092526040830152606082015260800190565b60408051808303601f1901815291905280516020909101209392505050565b613d39614baa565b613d41614baa565b613d49614bc9565b613d51614bc9565b600060405180610300016040528060018152602001618082815260200167800000000000808a8152602001678000000080008000815260200161808b81526020016380000001815260200167800000008000808181526020016780000000000080098152602001608a81526020016088815260200163800080098152602001638000000a8152602001638000808b815260200167800000000000008b8152602001678000000000008089815260200167800000000000800381526020016780000000000080028152602001678000000000000080815260200161800a815260200167800000008000000a81526020016780000000800080818152602001678000000000008080815260200163800000018152602001678000000080008008815250905060005b6018811015614af2576080808801516060808a01516040808c01516020808e01518e511890911890921890931888526101208b01516101008c015160e08d015160c08e015160a08f0151181818189088018190526101c08b01516101a08c01516101808d01516101608e01516101408f015118181818928801929092526102608a01516102408b01516102208c01516102008d01516101e08e015118181818908701526103008901516102e08a01516102c08b01516102a08c01516102808d01511818181891860191909152613f5690678000000000000000906157e9565b6020850151613f669060026157fd565b608086015167ffffffffffffffff91909116919091171883526040840151613f9790678000000000000000906157e9565b6040850151613fa79060026157fd565b855167ffffffffffffffff91909116919091171860208401526060840151613fd890678000000000000000906157e9565b6060850151613fe89060026157fd565b67ffffffffffffffff16178460016020020151188360026020020152678000000000000000846004602002015161401f91906157e9565b608085015161402f9060026157fd565b604086015167ffffffffffffffff9190911691909117186060840152835161406090678000000000000000906157e9565b845161406d9060026157fd565b60608087015167ffffffffffffffff929092169290921718608080860191825285518a5118808b52865160208c81018051909218825288516040808f01805190921890915289518e8801805190911890528951948e0180519095189094528801805160a08e0180519091189052805160c08e0180519091189052805160e08e018051909118905280516101008e0180519091189052516101208d018051909118905291870180516101408d018051909118905280516101608d018051909118905280516101808d018051909118905280516101a08d0180519091189052516101c08c018051909118905292860180516101e08c018051909118905280516102008c018051909118905280516102208c018051909118905280516102408c0180519091189052516102608b018051909118905281516102808b018051909118905281516102a08b018051909118905281516102c08b018051909118905281516102e08b018051909118905290516103008a0180519091189052908652516141f8906310000000906157e9565b602088015161420c906410000000006157fd565b67ffffffffffffffff1617610100860152604087015161423590672000000000000000906157e9565b60408801516142459060086157fd565b67ffffffffffffffff161761016086015260608701516142699062800000906157e9565b606088015161427e90650200000000006157fd565b67ffffffffffffffff161761026086015260808701516142a59065400000000000906157e9565b60808801516142b790620400006157fd565b67ffffffffffffffff16176102c086015260a08701516142e090678000000000000000906157e9565b60a08801516142f09060026157fd565b67ffffffffffffffff1617604086015260c08701516143139062100000906157e9565b60c088015161432890651000000000006157fd565b67ffffffffffffffff161760a086015260e087015161434f906640000000000000906157e9565b60e0880151614360906104006157fd565b67ffffffffffffffff16176101a08601526101008701516143859062080000906157e9565b61010088015161439b90652000000000006157fd565b67ffffffffffffffff16176102008601526101208701516143c590674000000000000000906157e9565b6101208801516143d69060046157fd565b67ffffffffffffffff16176103008601526101408701516143f9906004906157e9565b610140880151614411906740000000000000006157fd565b67ffffffffffffffff1617608086015261016087015161443a90670400000000000000906157e9565b61016088015161444b9060406157fd565b67ffffffffffffffff161760e086015261018087015161446f9062200000906157e9565b61018088015161448590650800000000006157fd565b67ffffffffffffffff16176101408601526101a08701516144ae906602000000000000906157e9565b6101a08801516144c0906180006157fd565b67ffffffffffffffff16176102408601526101c08701516144e3906008906157e9565b6101c08801516144fb906720000000000000006157fd565b67ffffffffffffffff16176102a08601526101e087015161452290641000000000906157e9565b6101e08801516145369063100000006157fd565b67ffffffffffffffff161760208601526102008781015161455791906157e9565b61020088015161456e9066800000000000006157fd565b67ffffffffffffffff161761012086015261022087015161459590648000000000906157e9565b6102208801516145a99063020000006157fd565b67ffffffffffffffff16176101808601526102408701516145d19065080000000000906157e9565b6102408801516145e490622000006157fd565b67ffffffffffffffff16176101e086015261026087015161460890610100906157e9565b610260880151614620906701000000000000006157fd565b67ffffffffffffffff16176102e086015261028087015161464790642000000000906157e9565b61028088015161465b9063080000006157fd565b67ffffffffffffffff161760608601526102a08701516146829065100000000000906157e9565b6102a088015161469590621000006157fd565b67ffffffffffffffff161760c08601526102c08701516146ba906302000000906157e9565b6102c08801516146cf906480000000006157fd565b67ffffffffffffffff16176101c08601526102e08701516146f990670100000000000000906157e9565b6102e088015161470b906101006157fd565b67ffffffffffffffff1617610220860152610300870151614734906604000000000000906157e9565b610300880151614746906140006157fd565b67ffffffffffffffff1617856014602002015284600a602002015185600560200201511916856000602002015118876000602002015284600b602002015185600660200201511916856001602002015118876001602002015284600c602002015185600760200201511916856002602002015118876002602002015284600d602002015185600860200201511916856003602002015118876003602002015284600e602002015185600960200201511916856004602002015118876004602002015284600f602002015185600a602002015119168560056020020151188760056020020152846010602002015185600b602002015119168560066020020151188760066020020152846011602002015185600c602002015119168560076020020151188760076020020152846012602002015185600d602002015119168560086020020151188760086020020152846013602002015185600e602002015119168560096020020151188760096020020152846014602002015185600f6020020151191685600a60200201511887600a602002015284601560200201518560106020020151191685600b60200201511887600b602002015284601660200201518560116020020151191685600c60200201511887600c602002015284601760200201518560126020020151191685600d60200201511887600d602002015284601860200201518560136020020151191685600e60200201511887600e602002015284600060200201518560146020020151191685600f60200201511887600f6020020152846001602002015185601560200201511916856010602002015118876010602002015284600260200201518560166020020151191685601160200201511887601160200201528460036020020151856017602002015119168560126020020151188760126020020152846004602002015185601860200201511916856013602002015118876013602002015284600560200201518560006020020151191685601460200201511887601460200201528460066020020151856001602002015119168560156020020151188760156020020152846007602002015185600260200201511916856016602002015118876016602002015284600860200201518560036020020151191685601760200201511887601760200201528460096020020151856004602002015119168560186020020151188760186020020152818160188110614ad657614ad6615a3c565b6020020151875118875280614aea816159db565b915050613e77565b509495945050505050565b5080546000825560030290600052602060002090810190610c259190614be7565b50610c2590610200810190614c1e565b6040518061040001604052806020906020820280368337509192915050565b6040518061010001604052806008906020820280368337509192915050565b6040518061020001604052806010906020820280368337509192915050565b6040518061012001604052806009906020820280368337509192915050565b6040518061032001604052806019906020820280368337509192915050565b6040518060a001604052806005906020820280368337509192915050565b5b80821115614c1a578054600160a060020a03199081168255600182018054909116905560006002820155600301614be8565b5090565b5b80821115614c1a5760008155600101614c1f565b8035614c3e81615a6e565b919050565b600082601f830112614c5457600080fd5b81356020614c69614c64836157ad565b61577c565b8281528181019085830183850287018401881015614c8657600080fd5b60005b85811015614cae578135614c9c81615a6e565b84529284019290840190600101614c89565b5090979650505050505050565b600082601f830112614ccc57600080fd5b81356020614cdc614c64836157ad565b82815281810190858301606080860288018501891015614cfb57600080fd5b60005b86811015614d2257614d108a84614d30565b85529385019391810191600101614cfe565b509198975050505050505050565b600060608284031215614d4257600080fd5b614d4a61572f565b90508135614d5781615a6e565b81526020820135614d6781615a6e565b806020830152506040820135604082015292915050565b600060208284031215614d9057600080fd5b813561288381615a6e565b60008060408385031215614dae57600080fd5b8235614db981615a6e565b91506020830135614dc981615a6e565b809150509250929050565b60008060008060808587031215614dea57600080fd5b8435614df581615a6e565b93506020850135614e0581615a6e565b9250604085013591506060850135614e1c81615a83565b939692955090935050565b600060208284031215614e3957600080fd5b813567ffffffffffffffff811115614e5057600080fd5b61298184828501614c43565b60008060408385031215614e6f57600080fd5b823567ffffffffffffffff80821115614e8757600080fd5b614e9386838701614c43565b93506020850135915080821115614ea957600080fd5b50614eb685828601614c43565b9150509250929050565b600060208284031215614ed257600080fd5b815161288381615a83565b600060208284031215614eef57600080fd5b81357cffffffffffffffffffffffffffffffffffffffffffffffffffffffffff198116811461288357600080fd5b600060208284031215614f2f57600080fd5b5035919050565b60008060408385031215614f4957600080fd5b823591506020830135614dc981615a6e565b600060208284031215614f6d57600080fd5b81357bffffffffffffffffffffffffffffffffffffffffffffffffffffffff198116811461288357600080fd5b60008060408385031215614fad57600080fd5b823567ffffffffffffffff80821115614fc557600080fd5b908401906101608287031215614fda57600080fd5b614fe2615758565b614feb83614c33565b8152614ff960208401614c33565b602082015261500a60408401614c33565b604082015261501b60608401614c33565b606082015260808301358281111561503257600080fd5b61503e88828601614c43565b60808301525060a08301358281111561505657600080fd5b61506288828601614c43565b60a08301525060c083013560c082015261507e60e08401614c33565b60e082015261010083810135908201526101208084013590820152610140928301359281019290925250946020939093013593505050565b6000602082840312156150c857600080fd5b813567ffffffffffffffff8111156150df57600080fd5b82016040818503121561288357600080fd5b60006060828403121561510357600080fd5b6128838383614d30565b60008060008060006080868803121561512557600080fd5b853594506020860135935060408601359250606086013567ffffffffffffffff8082111561515257600080fd5b818801915088601f83011261516657600080fd5b81358181111561517557600080fd5b896020808302850101111561518957600080fd5b9699959850939650602001949392505050565b600081518084526020808501945080840160005b83811015614af25781518051600160a060020a03908116895284820151168489015260409081015190880152606090960195908201906001016151b0565b7cffffffffffffffffffffffffffffffffffffffffffffffffffffffffff19871681528486600383013784810160038101859052600090838560238301376000930160230192835250909695505050505050565b7cffffffffffffffffffffffffffffffffffffffffffffffffffffffffff198b168152888a600383013788810160038101899052600090878960238301378781019050602381016000815286888237508581019050602381016000815284868237506000930160230192835250909a9950505050505050505050565b898b823760008a820160008152898b82376000908a01908152878982376000908801908152858782376000908601908152838582376000930192835250909a9950505050505050505050565b60008851602061531d8285838e01615998565b81840191506c01000000000000000000000000600160a060020a038b160282526014895161535081838601858e01615998565b895193019261536481838601858d01615998565b885193019261537881838601858c01615998565b875193019261538c81838601858b01615998565b86519301926153a081838601858a01615998565b929092019091019a9950505050505050505050565b600084516153c7818460208901615998565b820184815283516153df816020808501908801615998565b0160200195945050505050565b600083516153fe818460208801615998565b835190830190615412818360208801615998565b01949350505050565b7f416363657373436f6e74726f6c3a206163636f756e7420000000000000000000815260008351615453816017850160208801615998565b7f206973206d697373696e6720726f6c65200000000000000000000000000000006017918401918201528351615490816028840160208801615998565b01602801949350505050565b602081526000612883602083018461519c565b60006020808301818452808554808352604092508286019150866000528360002060005b82811015615512578154600160a060020a03908116855260018084015490911687860152600283015486860152606090940193600390920191016154d3565b5091979650505050505050565b602081526000825180602084015261553e816040850160208701615998565b601f01601f19169190910160400192915050565b60208082526010908201527f5061757361626c653a2070617573656400000000000000000000000000000000604082015260600190565b6020808252602e908201527f496e697469616c697a61626c653a20636f6e747261637420697320616c72656160408201527f647920696e697469616c697a6564000000000000000000000000000000000000606082015260800190565b602081526000825160406020840152615602606084018261519c565b9050602084015160408401528091505092915050565b6000808335601e1984360301811261562f57600080fd5b83018035915067ffffffffffffffff82111561564a57600080fd5b602090810192508102360382131561566157600080fd5b9250929050565b6000808335601e1984360301811261567f57600080fd5b83018035915067ffffffffffffffff82111561569a57600080fd5b602001915060608102360382131561566157600080fd5b6000808335601e198436030181126156c857600080fd5b83018035915067ffffffffffffffff8211156156e357600080fd5b60200191503681900382131561566157600080fd5b600082356101be1983360301811261570f57600080fd5b9190910192915050565b60008235605e1983360301811261570f57600080fd5b6040516060810167ffffffffffffffff8111828210171561575257615752615a55565b60405290565b604051610160810167ffffffffffffffff8111828210171561575257615752615a55565b604051601f8201601f1916810167ffffffffffffffff811182821017156157a5576157a5615a55565b604052919050565b600067ffffffffffffffff8211156157c7576157c7615a55565b5060209081020190565b600082198211156157e4576157e4615a0a565b500190565b6000826157f8576157f8615a23565b500490565b600081600019048311821515161561581757615817615a0a565b500290565b60008282101561582e5761582e615a0a565b500390565b80516020808301519190811015615856578060200360080260020a600003821691505b50919050565b60006060823603121561586e57600080fd5b61587661572f565b823567ffffffffffffffff8082111561588e57600080fd5b90840190601f36818401126158a257600080fd5b823560206158b2614c64836157ad565b82815281810190868301368486028901850111156158cf57600080fd5b60005b8581101561595c578135888111156158e957600080fd5b890136603f8201126158fa57600080fd5b8581013560408a82111561591057615910615a55565b615921828b01601f1916890161577c565b828152368284860101111561593557600080fd5b828285018a83013760009281018901929092525085525092840192908401906001016158d2565b505087525087810135908601525050604085013591508082111561597f57600080fd5b5061598c36828601614cbb565b60408301525092915050565b60005b838110156159b357818101518382015260200161599b565b83811115610cc65750506000910152565b6000816159d3576159d3615a0a565b506000190190565b60006000198214156159ef576159ef615a0a565b5060010190565b600082615a0557615a05615a23565b500690565b60e060020a634e487b7102600052601160045260246000fd5b60e060020a634e487b7102600052601260045260246000fd5b60e060020a634e487b7102600052603260045260246000fd5b60e060020a634e487b7102600052604160045260246000fd5b600160a060020a0381168114610c2557600080fd5b8015158114610c2557600080fdfe077a1d526a4ce8a773632ab13b4fbbf1fcc954c3dab26cd27ea0e2a6750da5d7a49807205ce4d355092ef5a8a18f56e8913cf4a201fbe287825b095693c21775a264697066735822122065a6bcf3161797900b92fdebb876b6480c91eabb0ba3c81300b31c07d11f1bc864736f6c63430008060033",
  "devdoc": {
    "kind": "dev",
    "methods": {
      "getRoleAdmin(bytes32)": {
        "details": "Returns the admin role that controls `role`. See {grantRole} and {revokeRole}. To change a role's admin, use {_setRoleAdmin}."
      },
      "grantRole(bytes32,address)": {
        "details": "Grants `role` to `account`. If `account` had not been already granted `role`, emits a {RoleGranted} event. Requirements: - the caller must have ``role``'s admin role."
      },
      "hasRole(bytes32,address)": {
        "details": "Returns `true` if `account` has been granted `role`."
      },
      "paused()": {
        "details": "Returns true if the contract is paused, and false otherwise."
      },
      "renounceRole(bytes32,address)": {
        "details": "Revokes `role` from the calling account. Roles are often managed via {grantRole} and {revokeRole}: this function's purpose is to provide a mechanism for accounts to lose their privileges if they are compromised (such as when a trusted device is misplaced). If the calling account had been granted `role`, emits a {RoleRevoked} event. Requirements: - the caller must be `account`."
      },
      "revokeRole(bytes32,address)": {
        "details": "Revokes `role` from `account`. If `account` had been granted `role`, emits a {RoleRevoked} event. Requirements: - the caller must have ``role``'s admin role."
      },
      "supportsInterface(bytes4)": {
        "details": "See {IERC165-supportsInterface}."
      }
    },
    "version": 1
  },
  "userdoc": {
    "kind": "user",
    "methods": {},
    "version": 1
  },
  "storageLayout": {
    "storage": [
      {
        "astId": 413,
        "contract": "contracts/networks/ETH_AmbBridge.sol:ETH_AmbBridge",
        "label": "_initialized",
        "offset": 0,
        "slot": "0",
        "type": "t_bool"
      },
      {
        "astId": 416,
        "contract": "contracts/networks/ETH_AmbBridge.sol:ETH_AmbBridge",
        "label": "_initializing",
        "offset": 1,
        "slot": "0",
        "type": "t_bool"
      },
      {
        "astId": 609,
        "contract": "contracts/networks/ETH_AmbBridge.sol:ETH_AmbBridge",
        "label": "__gap",
        "offset": 0,
        "slot": "1",
        "type": "t_array(t_uint256)50_storage"
      },
      {
        "astId": 858,
        "contract": "contracts/networks/ETH_AmbBridge.sol:ETH_AmbBridge",
        "label": "__gap",
        "offset": 0,
        "slot": "51",
        "type": "t_array(t_uint256)50_storage"
      },
      {
        "astId": 48,
        "contract": "contracts/networks/ETH_AmbBridge.sol:ETH_AmbBridge",
        "label": "_roles",
        "offset": 0,
        "slot": "101",
        "type": "t_mapping(t_bytes32,t_struct(RoleData)43_storage)"
      },
      {
        "astId": 333,
        "contract": "contracts/networks/ETH_AmbBridge.sol:ETH_AmbBridge",
        "label": "__gap",
        "offset": 0,
        "slot": "102",
        "type": "t_array(t_uint256)49_storage"
      },
      {
        "astId": 474,
        "contract": "contracts/networks/ETH_AmbBridge.sol:ETH_AmbBridge",
        "label": "_paused",
        "offset": 0,
        "slot": "151",
        "type": "t_bool"
      },
      {
        "astId": 565,
        "contract": "contracts/networks/ETH_AmbBridge.sol:ETH_AmbBridge",
        "label": "__gap",
        "offset": 0,
        "slot": "152",
        "type": "t_array(t_uint256)49_storage"
      },
      {
        "astId": 6798,
        "contract": "contracts/networks/ETH_AmbBridge.sol:ETH_AmbBridge",
        "label": "queue",
        "offset": 0,
        "slot": "201",
        "type": "t_array(t_struct(Transfer)7717_storage)dyn_storage"
      },
      {
        "astId": 6803,
        "contract": "contracts/networks/ETH_AmbBridge.sol:ETH_AmbBridge",
        "label": "lockedTransfers",
        "offset": 0,
        "slot": "202",
        "type": "t_mapping(t_uint256,t_struct(LockedTransfers)7734_storage)"
      },
      {
        "astId": 6805,
        "contract": "contracts/networks/ETH_AmbBridge.sol:ETH_AmbBridge",
        "label": "oldestLockedEventId",
        "offset": 0,
        "slot": "203",
        "type": "t_uint256"
      },
      {
        "astId": 6809,
        "contract": "contracts/networks/ETH_AmbBridge.sol:ETH_AmbBridge",
        "label": "tokenAddresses",
        "offset": 0,
        "slot": "204",
        "type": "t_mapping(t_address,t_address)"
      },
      {
        "astId": 6811,
        "contract": "contracts/networks/ETH_AmbBridge.sol:ETH_AmbBridge",
        "label": "wrapperAddress",
        "offset": 0,
        "slot": "205",
        "type": "t_address"
      },
      {
        "astId": 6813,
        "contract": "contracts/networks/ETH_AmbBridge.sol:ETH_AmbBridge",
        "label": "fee",
        "offset": 0,
        "slot": "206",
        "type": "t_uint256"
      },
      {
        "astId": 6815,
        "contract": "contracts/networks/ETH_AmbBridge.sol:ETH_AmbBridge",
        "label": "feeRecipient",
        "offset": 0,
        "slot": "207",
        "type": "t_address_payable"
      },
      {
        "astId": 6817,
        "contract": "contracts/networks/ETH_AmbBridge.sol:ETH_AmbBridge",
        "label": "sideBridgeAddress",
        "offset": 0,
        "slot": "208",
        "type": "t_address"
      },
      {
        "astId": 6819,
        "contract": "contracts/networks/ETH_AmbBridge.sol:ETH_AmbBridge",
        "label": "minSafetyBlocks",
        "offset": 0,
        "slot": "209",
        "type": "t_uint256"
      },
      {
        "astId": 6821,
        "contract": "contracts/networks/ETH_AmbBridge.sol:ETH_AmbBridge",
        "label": "timeframeSeconds",
        "offset": 0,
        "slot": "210",
        "type": "t_uint256"
      },
      {
        "astId": 6823,
        "contract": "contracts/networks/ETH_AmbBridge.sol:ETH_AmbBridge",
        "label": "lockTime",
        "offset": 0,
        "slot": "211",
        "type": "t_uint256"
      },
      {
        "astId": 6825,
        "contract": "contracts/networks/ETH_AmbBridge.sol:ETH_AmbBridge",
        "label": "inputEventId",
        "offset": 0,
        "slot": "212",
        "type": "t_uint256"
      },
      {
        "astId": 6827,
        "contract": "contracts/networks/ETH_AmbBridge.sol:ETH_AmbBridge",
        "label": "outputEventId",
        "offset": 0,
        "slot": "213",
        "type": "t_uint256"
      },
      {
        "astId": 6829,
        "contract": "contracts/networks/ETH_AmbBridge.sol:ETH_AmbBridge",
        "label": "lastTimeframe",
        "offset": 0,
        "slot": "214",
        "type": "t_uint256"
      },
      {
        "astId": 7707,
        "contract": "contracts/networks/ETH_AmbBridge.sol:ETH_AmbBridge",
        "label": "__gap",
        "offset": 0,
        "slot": "215",
        "type": "t_array(t_uint256)15_storage"
      },
      {
        "astId": 5561,
        "contract": "contracts/networks/ETH_AmbBridge.sol:ETH_AmbBridge",
        "label": "epochData",
        "offset": 0,
        "slot": "230",
        "type": "t_mapping(t_uint256,t_struct(EthashCacheOptData)5556_storage)"
      },
      {
        "astId": 3275,
        "contract": "contracts/networks/ETH_AmbBridge.sol:ETH_AmbBridge",
        "label": "minimumDifficulty",
        "offset": 0,
        "slot": "231",
        "type": "t_uint256"
      },
      {
        "astId": 3499,
        "contract": "contracts/networks/ETH_AmbBridge.sol:ETH_AmbBridge",
        "label": "___gap",
        "offset": 0,
        "slot": "232",
        "type": "t_array(t_uint256)15_storage"
      }
    ],
    "types": {
      "t_address": {
        "encoding": "inplace",
        "label": "address",
        "numberOfBytes": "20"
      },
      "t_address_payable": {
        "encoding": "inplace",
        "label": "address payable",
        "numberOfBytes": "20"
      },
      "t_array(t_struct(Transfer)7717_storage)dyn_storage": {
        "base": "t_struct(Transfer)7717_storage",
        "encoding": "dynamic_array",
        "label": "struct CommonStructs.Transfer[]",
        "numberOfBytes": "32"
      },
      "t_array(t_uint256)15_storage": {
        "base": "t_uint256",
        "encoding": "inplace",
        "label": "uint256[15]",
        "numberOfBytes": "480"
      },
      "t_array(t_uint256)49_storage": {
        "base": "t_uint256",
        "encoding": "inplace",
        "label": "uint256[49]",
        "numberOfBytes": "1568"
      },
      "t_array(t_uint256)50_storage": {
        "base": "t_uint256",
        "encoding": "inplace",
        "label": "uint256[50]",
        "numberOfBytes": "1600"
      },
      "t_array(t_uint256)512_storage": {
        "base": "t_uint256",
        "encoding": "inplace",
        "label": "uint256[512]",
        "numberOfBytes": "16384"
      },
      "t_bool": {
        "encoding": "inplace",
        "label": "bool",
        "numberOfBytes": "1"
      },
      "t_bytes32": {
        "encoding": "inplace",
        "label": "bytes32",
        "numberOfBytes": "32"
      },
      "t_mapping(t_address,t_address)": {
        "encoding": "mapping",
        "key": "t_address",
        "label": "mapping(address => address)",
        "numberOfBytes": "32",
        "value": "t_address"
      },
      "t_mapping(t_address,t_bool)": {
        "encoding": "mapping",
        "key": "t_address",
        "label": "mapping(address => bool)",
        "numberOfBytes": "32",
        "value": "t_bool"
      },
      "t_mapping(t_bytes32,t_struct(RoleData)43_storage)": {
        "encoding": "mapping",
        "key": "t_bytes32",
        "label": "mapping(bytes32 => struct AccessControlUpgradeable.RoleData)",
        "numberOfBytes": "32",
        "value": "t_struct(RoleData)43_storage"
      },
      "t_mapping(t_uint256,t_struct(EthashCacheOptData)5556_storage)": {
        "encoding": "mapping",
        "key": "t_uint256",
        "label": "mapping(uint256 => struct Ethash.EthashCacheOptData)",
        "numberOfBytes": "32",
        "value": "t_struct(EthashCacheOptData)5556_storage"
      },
      "t_mapping(t_uint256,t_struct(LockedTransfers)7734_storage)": {
        "encoding": "mapping",
        "key": "t_uint256",
        "label": "mapping(uint256 => struct CommonStructs.LockedTransfers)",
        "numberOfBytes": "32",
        "value": "t_struct(LockedTransfers)7734_storage"
      },
      "t_struct(EthashCacheOptData)5556_storage": {
        "encoding": "inplace",
        "label": "struct Ethash.EthashCacheOptData",
        "members": [
          {
            "astId": 5551,
            "contract": "contracts/networks/ETH_AmbBridge.sol:ETH_AmbBridge",
            "label": "merkleNodes",
            "offset": 0,
            "slot": "0",
            "type": "t_array(t_uint256)512_storage"
          },
          {
            "astId": 5553,
            "contract": "contracts/networks/ETH_AmbBridge.sol:ETH_AmbBridge",
            "label": "fullSizeIn128Resultion",
            "offset": 0,
            "slot": "512",
            "type": "t_uint256"
          },
          {
            "astId": 5555,
            "contract": "contracts/networks/ETH_AmbBridge.sol:ETH_AmbBridge",
            "label": "branchDepth",
            "offset": 0,
            "slot": "513",
            "type": "t_uint256"
          }
        ],
        "numberOfBytes": "16448"
      },
      "t_struct(LockedTransfers)7734_storage": {
        "encoding": "inplace",
        "label": "struct CommonStructs.LockedTransfers",
        "members": [
          {
            "astId": 7731,
            "contract": "contracts/networks/ETH_AmbBridge.sol:ETH_AmbBridge",
            "label": "transfers",
            "offset": 0,
            "slot": "0",
            "type": "t_array(t_struct(Transfer)7717_storage)dyn_storage"
          },
          {
            "astId": 7733,
            "contract": "contracts/networks/ETH_AmbBridge.sol:ETH_AmbBridge",
            "label": "endTimestamp",
            "offset": 0,
            "slot": "1",
            "type": "t_uint256"
          }
        ],
        "numberOfBytes": "64"
      },
      "t_struct(RoleData)43_storage": {
        "encoding": "inplace",
        "label": "struct AccessControlUpgradeable.RoleData",
        "members": [
          {
            "astId": 40,
            "contract": "contracts/networks/ETH_AmbBridge.sol:ETH_AmbBridge",
            "label": "members",
            "offset": 0,
            "slot": "0",
            "type": "t_mapping(t_address,t_bool)"
          },
          {
            "astId": 42,
            "contract": "contracts/networks/ETH_AmbBridge.sol:ETH_AmbBridge",
            "label": "adminRole",
            "offset": 0,
            "slot": "1",
            "type": "t_bytes32"
          }
        ],
        "numberOfBytes": "64"
      },
      "t_struct(Transfer)7717_storage": {
        "encoding": "inplace",
        "label": "struct CommonStructs.Transfer",
        "members": [
          {
            "astId": 7712,
            "contract": "contracts/networks/ETH_AmbBridge.sol:ETH_AmbBridge",
            "label": "tokenAddress",
            "offset": 0,
            "slot": "0",
            "type": "t_address"
          },
          {
            "astId": 7714,
            "contract": "contracts/networks/ETH_AmbBridge.sol:ETH_AmbBridge",
            "label": "toAddress",
            "offset": 0,
            "slot": "1",
            "type": "t_address"
          },
          {
            "astId": 7716,
            "contract": "contracts/networks/ETH_AmbBridge.sol:ETH_AmbBridge",
            "label": "amount",
            "offset": 0,
            "slot": "2",
            "type": "t_uint256"
          }
        ],
        "numberOfBytes": "96"
      },
      "t_uint256": {
        "encoding": "inplace",
        "label": "uint256",
        "numberOfBytes": "32"
      }
    }
  }
}