{
  "address": "0x91b054b82D3DE9DC9Fa771A07aC1355BDD86aE00",
  "abi": [
    {
      "anonymous": false,
      "inputs": [
        {
          "indexed": false,
          "internalType": "address",
          "name": "account",
          "type": "address"
        }
      ],
      "name": "Paused",
      "type": "event"
    },
    {
      "anonymous": false,
      "inputs": [
        {
          "indexed": true,
          "internalType": "bytes32",
          "name": "role",
          "type": "bytes32"
        },
        {
          "indexed": true,
          "internalType": "bytes32",
          "name": "previousAdminRole",
          "type": "bytes32"
        },
        {
          "indexed": true,
          "internalType": "bytes32",
          "name": "newAdminRole",
          "type": "bytes32"
        }
      ],
      "name": "RoleAdminChanged",
      "type": "event"
    },
    {
      "anonymous": false,
      "inputs": [
        {
          "indexed": true,
          "internalType": "bytes32",
          "name": "role",
          "type": "bytes32"
        },
        {
          "indexed": true,
          "internalType": "address",
          "name": "account",
          "type": "address"
        },
        {
          "indexed": true,
          "internalType": "address",
          "name": "sender",
          "type": "address"
        }
      ],
      "name": "RoleGranted",
      "type": "event"
    },
    {
      "anonymous": false,
      "inputs": [
        {
          "indexed": true,
          "internalType": "bytes32",
          "name": "role",
          "type": "bytes32"
        },
        {
          "indexed": true,
          "internalType": "address",
          "name": "account",
          "type": "address"
        },
        {
          "indexed": true,
          "internalType": "address",
          "name": "sender",
          "type": "address"
        }
      ],
      "name": "RoleRevoked",
      "type": "event"
    },
    {
      "anonymous": false,
      "inputs": [
        {
          "indexed": true,
          "internalType": "uint256",
          "name": "eventId",
          "type": "uint256"
        },
        {
          "components": [
            {
              "internalType": "address",
              "name": "tokenAddress",
              "type": "address"
            },
            {
              "internalType": "address",
              "name": "toAddress",
              "type": "address"
            },
            {
              "internalType": "uint256",
              "name": "amount",
              "type": "uint256"
            }
          ],
          "indexed": false,
          "internalType": "struct CommonStructs.Transfer[]",
          "name": "queue",
          "type": "tuple[]"
        }
      ],
      "name": "Transfer",
      "type": "event"
    },
    {
      "anonymous": false,
      "inputs": [
        {
          "indexed": true,
          "internalType": "uint256",
          "name": "eventId",
          "type": "uint256"
        }
      ],
      "name": "TransferFinish",
      "type": "event"
    },
    {
      "anonymous": false,
      "inputs": [
        {
          "indexed": true,
          "internalType": "uint256",
          "name": "eventId",
          "type": "uint256"
        }
      ],
      "name": "TransferSubmit",
      "type": "event"
    },
    {
      "anonymous": false,
      "inputs": [
        {
          "indexed": false,
          "internalType": "address",
          "name": "account",
          "type": "address"
        }
      ],
      "name": "Unpaused",
      "type": "event"
    },
    {
      "anonymous": false,
      "inputs": [
        {
          "indexed": true,
          "internalType": "address",
          "name": "from",
          "type": "address"
        },
        {
          "indexed": false,
          "internalType": "uint256",
          "name": "eventId",
          "type": "uint256"
        },
        {
          "indexed": false,
          "internalType": "address",
          "name": "tokenFrom",
          "type": "address"
        },
        {
          "indexed": false,
          "internalType": "address",
          "name": "tokenTo",
          "type": "address"
        },
        {
          "indexed": false,
          "internalType": "uint256",
          "name": "amount",
          "type": "uint256"
        },
        {
          "indexed": false,
          "internalType": "uint256",
          "name": "transferFeeAmount",
          "type": "uint256"
        },
        {
          "indexed": false,
          "internalType": "uint256",
          "name": "bridgeFeeAmount",
          "type": "uint256"
        }
      ],
      "name": "Withdraw",
      "type": "event"
    },
    {
      "inputs": [],
      "name": "ADMIN_ROLE",
      "outputs": [
        {
          "internalType": "bytes32",
          "name": "",
          "type": "bytes32"
        }
      ],
      "stateMutability": "view",
      "type": "function"
    },
    {
      "inputs": [],
      "name": "DEFAULT_ADMIN_ROLE",
      "outputs": [
        {
          "internalType": "bytes32",
          "name": "",
          "type": "bytes32"
        }
      ],
      "stateMutability": "view",
      "type": "function"
    },
    {
      "inputs": [],
      "name": "RELAY_ROLE",
      "outputs": [
        {
          "internalType": "bytes32",
          "name": "",
          "type": "bytes32"
        }
      ],
      "stateMutability": "view",
      "type": "function"
    },
    {
      "inputs": [
        {
          "internalType": "address payable",
          "name": "feeRecipient_",
          "type": "address"
        }
      ],
      "name": "changeBridgeFeeRecipient",
      "outputs": [],
      "stateMutability": "nonpayable",
      "type": "function"
    },
    {
      "inputs": [
        {
          "internalType": "uint256",
          "name": "lockTime_",
          "type": "uint256"
        }
      ],
      "name": "changeLockTime",
      "outputs": [],
      "stateMutability": "nonpayable",
      "type": "function"
    },
    {
      "inputs": [
        {
          "internalType": "uint256",
          "name": "minSafetyBlocks_",
          "type": "uint256"
        }
      ],
      "name": "changeMinSafetyBlocks",
      "outputs": [],
      "stateMutability": "nonpayable",
      "type": "function"
    },
    {
      "inputs": [
        {
          "internalType": "uint256",
          "name": "signatureFeeCheckNumber_",
          "type": "uint256"
        }
      ],
      "name": "changeSignatureFeeCheckNumber",
      "outputs": [],
      "stateMutability": "nonpayable",
      "type": "function"
    },
    {
      "inputs": [
        {
          "internalType": "uint256",
          "name": "timeframeSeconds_",
          "type": "uint256"
        }
      ],
      "name": "changeTimeframeSeconds",
      "outputs": [],
      "stateMutability": "nonpayable",
      "type": "function"
    },
    {
      "inputs": [
        {
          "internalType": "address payable",
          "name": "feeRecipient_",
          "type": "address"
        }
      ],
      "name": "changeTransferFeeRecipient",
      "outputs": [],
      "stateMutability": "nonpayable",
      "type": "function"
    },
    {
      "inputs": [
        {
          "internalType": "uint256",
          "name": "eventId",
          "type": "uint256"
        }
      ],
      "name": "getLockedTransfers",
      "outputs": [
        {
          "components": [
            {
              "components": [
                {
                  "internalType": "address",
                  "name": "tokenAddress",
                  "type": "address"
                },
                {
                  "internalType": "address",
                  "name": "toAddress",
                  "type": "address"
                },
                {
                  "internalType": "uint256",
                  "name": "amount",
                  "type": "uint256"
                }
              ],
              "internalType": "struct CommonStructs.Transfer[]",
              "name": "transfers",
              "type": "tuple[]"
            },
            {
              "internalType": "uint256",
              "name": "endTimestamp",
              "type": "uint256"
            }
          ],
          "internalType": "struct CommonStructs.LockedTransfers",
          "name": "",
          "type": "tuple"
        }
      ],
      "stateMutability": "view",
      "type": "function"
    },
    {
      "inputs": [
        {
          "internalType": "bytes32",
          "name": "role",
          "type": "bytes32"
        }
      ],
      "name": "getRoleAdmin",
      "outputs": [
        {
          "internalType": "bytes32",
          "name": "",
          "type": "bytes32"
        }
      ],
      "stateMutability": "view",
      "type": "function"
    },
    {
      "inputs": [
        {
          "internalType": "bytes32",
          "name": "role",
          "type": "bytes32"
        },
        {
          "internalType": "address",
          "name": "account",
          "type": "address"
        }
      ],
      "name": "grantRole",
      "outputs": [],
      "stateMutability": "nonpayable",
      "type": "function"
    },
    {
      "inputs": [
        {
          "internalType": "bytes32",
          "name": "role",
          "type": "bytes32"
        },
        {
          "internalType": "address",
          "name": "account",
          "type": "address"
        }
      ],
      "name": "hasRole",
      "outputs": [
        {
          "internalType": "bool",
          "name": "",
          "type": "bool"
        }
      ],
      "stateMutability": "view",
      "type": "function"
    },
    {
      "inputs": [
        {
          "components": [
            {
              "internalType": "address",
              "name": "sideBridgeAddress",
              "type": "address"
            },
            {
              "internalType": "address",
              "name": "adminAddress",
              "type": "address"
            },
            {
              "internalType": "address",
              "name": "relayAddress",
              "type": "address"
            },
            {
              "internalType": "address",
              "name": "wrappingTokenAddress",
              "type": "address"
            },
            {
              "internalType": "address[]",
              "name": "tokenThisAddresses",
              "type": "address[]"
            },
            {
              "internalType": "address[]",
              "name": "tokenSideAddresses",
              "type": "address[]"
            },
            {
              "internalType": "address payable",
              "name": "transferFeeRecipient",
              "type": "address"
            },
            {
              "internalType": "address payable",
              "name": "bridgeFeeRecipient",
              "type": "address"
            },
            {
              "internalType": "uint256",
              "name": "timeframeSeconds",
              "type": "uint256"
            },
            {
              "internalType": "uint256",
              "name": "lockTime",
              "type": "uint256"
            },
            {
              "internalType": "uint256",
              "name": "minSafetyBlocks",
              "type": "uint256"
            }
          ],
          "internalType": "struct CommonStructs.ConstructorArgs",
          "name": "args",
          "type": "tuple"
        },
        {
          "internalType": "uint256",
          "name": "minimumDifficulty",
          "type": "uint256"
        }
      ],
      "name": "initialize",
      "outputs": [],
      "stateMutability": "nonpayable",
      "type": "function"
    },
    {
      "inputs": [],
      "name": "inputEventId",
      "outputs": [
        {
          "internalType": "uint256",
          "name": "",
          "type": "uint256"
        }
      ],
      "stateMutability": "view",
      "type": "function"
    },
    {
      "inputs": [
        {
          "internalType": "uint256",
          "name": "epochIndex",
          "type": "uint256"
        }
      ],
      "name": "isEpochDataSet",
      "outputs": [
        {
          "internalType": "bool",
          "name": "",
          "type": "bool"
        }
      ],
      "stateMutability": "view",
      "type": "function"
    },
    {
      "inputs": [],
      "name": "isQueueEmpty",
      "outputs": [
        {
          "internalType": "bool",
          "name": "",
          "type": "bool"
        }
      ],
      "stateMutability": "view",
      "type": "function"
    },
    {
      "inputs": [],
      "name": "lastTimeframe",
      "outputs": [
        {
          "internalType": "uint256",
          "name": "",
          "type": "uint256"
        }
      ],
      "stateMutability": "view",
      "type": "function"
    },
    {
      "inputs": [],
      "name": "lockTime",
      "outputs": [
        {
          "internalType": "uint256",
          "name": "",
          "type": "uint256"
        }
      ],
      "stateMutability": "view",
      "type": "function"
    },
    {
      "inputs": [
        {
          "internalType": "uint256",
          "name": "",
          "type": "uint256"
        }
      ],
      "name": "lockedTransfers",
      "outputs": [
        {
          "internalType": "uint256",
          "name": "endTimestamp",
          "type": "uint256"
        }
      ],
      "stateMutability": "view",
      "type": "function"
    },
    {
      "inputs": [],
      "name": "minSafetyBlocks",
      "outputs": [
        {
          "internalType": "uint256",
          "name": "",
          "type": "uint256"
        }
      ],
      "stateMutability": "view",
      "type": "function"
    },
    {
      "inputs": [],
      "name": "oldestLockedEventId",
      "outputs": [
        {
          "internalType": "uint256",
          "name": "",
          "type": "uint256"
        }
      ],
      "stateMutability": "view",
      "type": "function"
    },
    {
      "inputs": [],
      "name": "pause",
      "outputs": [],
      "stateMutability": "nonpayable",
      "type": "function"
    },
    {
      "inputs": [],
      "name": "paused",
      "outputs": [
        {
          "internalType": "bool",
          "name": "",
          "type": "bool"
        }
      ],
      "stateMutability": "view",
      "type": "function"
    },
    {
      "inputs": [
        {
          "internalType": "uint256",
          "name": "eventId",
          "type": "uint256"
        }
      ],
      "name": "removeLockedTransfers",
      "outputs": [],
      "stateMutability": "nonpayable",
      "type": "function"
    },
    {
      "inputs": [
        {
          "internalType": "bytes32",
          "name": "role",
          "type": "bytes32"
        },
        {
          "internalType": "address",
          "name": "account",
          "type": "address"
        }
      ],
      "name": "renounceRole",
      "outputs": [],
      "stateMutability": "nonpayable",
      "type": "function"
    },
    {
      "inputs": [
        {
          "internalType": "bytes32",
          "name": "role",
          "type": "bytes32"
        },
        {
          "internalType": "address",
          "name": "account",
          "type": "address"
        }
      ],
      "name": "revokeRole",
      "outputs": [],
      "stateMutability": "nonpayable",
      "type": "function"
    },
    {
      "inputs": [
        {
          "internalType": "uint256",
          "name": "epochNum",
          "type": "uint256"
        },
        {
          "internalType": "uint256",
          "name": "fullSizeIn128Resultion",
          "type": "uint256"
        },
        {
          "internalType": "uint256",
          "name": "branchDepth",
          "type": "uint256"
        },
        {
          "internalType": "uint256[]",
          "name": "merkleNodes",
          "type": "uint256[]"
        }
      ],
      "name": "setEpochData",
      "outputs": [],
      "stateMutability": "nonpayable",
      "type": "function"
    },
    {
      "inputs": [
        {
          "internalType": "address",
          "name": "_sideBridgeAddress",
          "type": "address"
        }
      ],
      "name": "setSideBridge",
      "outputs": [],
      "stateMutability": "nonpayable",
      "type": "function"
    },
    {
      "inputs": [],
      "name": "sideBridgeAddress",
      "outputs": [
        {
          "internalType": "address",
          "name": "",
          "type": "address"
        }
      ],
      "stateMutability": "view",
      "type": "function"
    },
    {
      "inputs": [
        {
          "components": [
            {
              "components": [
                {
                  "internalType": "bytes3",
                  "name": "p0WithNonce",
                  "type": "bytes3"
                },
                {
                  "internalType": "bytes3",
                  "name": "p0WithoutNonce",
                  "type": "bytes3"
                },
                {
                  "internalType": "bytes",
                  "name": "p1",
                  "type": "bytes"
                },
                {
                  "internalType": "bytes32",
                  "name": "parentOrReceiptHash",
                  "type": "bytes32"
                },
                {
                  "internalType": "bytes",
                  "name": "p2",
                  "type": "bytes"
                },
                {
                  "internalType": "bytes",
                  "name": "difficulty",
                  "type": "bytes"
                },
                {
                  "internalType": "bytes",
                  "name": "p3",
                  "type": "bytes"
                },
                {
                  "internalType": "bytes",
                  "name": "number",
                  "type": "bytes"
                },
                {
                  "internalType": "bytes",
                  "name": "p4",
                  "type": "bytes"
                },
                {
                  "internalType": "bytes",
                  "name": "p5",
                  "type": "bytes"
                },
                {
                  "internalType": "bytes",
                  "name": "nonce",
                  "type": "bytes"
                },
                {
                  "internalType": "bytes",
                  "name": "p6",
                  "type": "bytes"
                },
                {
                  "internalType": "uint256[]",
                  "name": "dataSetLookup",
                  "type": "uint256[]"
                },
                {
                  "internalType": "uint256[]",
                  "name": "witnessForLookup",
                  "type": "uint256[]"
                }
              ],
              "internalType": "struct CheckPoW.BlockPoW[]",
              "name": "blocks",
              "type": "tuple[]"
            },
            {
              "components": [
                {
                  "internalType": "bytes[]",
                  "name": "receiptProof",
                  "type": "bytes[]"
                },
                {
                  "internalType": "uint256",
                  "name": "eventId",
                  "type": "uint256"
                },
                {
                  "components": [
                    {
                      "internalType": "address",
                      "name": "tokenAddress",
                      "type": "address"
                    },
                    {
                      "internalType": "address",
                      "name": "toAddress",
                      "type": "address"
                    },
                    {
                      "internalType": "uint256",
                      "name": "amount",
                      "type": "uint256"
                    }
                  ],
                  "internalType": "struct CommonStructs.Transfer[]",
                  "name": "transfers",
                  "type": "tuple[]"
                }
              ],
              "internalType": "struct CommonStructs.TransferProof",
              "name": "transfer",
              "type": "tuple"
            }
          ],
          "internalType": "struct CheckPoW.PoWProof",
          "name": "powProof",
          "type": "tuple"
        }
      ],
      "name": "submitTransferPoW",
      "outputs": [],
      "stateMutability": "nonpayable",
      "type": "function"
    },
    {
      "inputs": [
        {
          "internalType": "bytes4",
          "name": "interfaceId",
          "type": "bytes4"
        }
      ],
      "name": "supportsInterface",
      "outputs": [
        {
          "internalType": "bool",
          "name": "",
          "type": "bool"
        }
      ],
      "stateMutability": "view",
      "type": "function"
    },
    {
      "inputs": [],
      "name": "timeframeSeconds",
      "outputs": [
        {
          "internalType": "uint256",
          "name": "",
          "type": "uint256"
        }
      ],
      "stateMutability": "view",
      "type": "function"
    },
    {
      "inputs": [
        {
          "internalType": "address",
          "name": "",
          "type": "address"
        }
      ],
      "name": "tokenAddresses",
      "outputs": [
        {
          "internalType": "address",
          "name": "",
          "type": "address"
        }
      ],
      "stateMutability": "view",
      "type": "function"
    },
    {
      "inputs": [
        {
          "internalType": "address",
          "name": "tokenThisAddress",
          "type": "address"
        },
        {
          "internalType": "address",
          "name": "tokenSideAddress",
          "type": "address"
        }
      ],
      "name": "tokensAdd",
      "outputs": [],
      "stateMutability": "nonpayable",
      "type": "function"
    },
    {
      "inputs": [
        {
          "internalType": "address[]",
          "name": "tokenThisAddresses",
          "type": "address[]"
        },
        {
          "internalType": "address[]",
          "name": "tokenSideAddresses",
          "type": "address[]"
        }
      ],
      "name": "tokensAddBatch",
      "outputs": [],
      "stateMutability": "nonpayable",
      "type": "function"
    },
    {
      "inputs": [
        {
          "internalType": "address",
          "name": "tokenThisAddress",
          "type": "address"
        }
      ],
      "name": "tokensRemove",
      "outputs": [],
      "stateMutability": "nonpayable",
      "type": "function"
    },
    {
      "inputs": [
        {
          "internalType": "address[]",
          "name": "tokenThisAddresses",
          "type": "address[]"
        }
      ],
      "name": "tokensRemoveBatch",
      "outputs": [],
      "stateMutability": "nonpayable",
      "type": "function"
    },
    {
      "inputs": [],
      "name": "triggerTransfers",
      "outputs": [],
      "stateMutability": "nonpayable",
      "type": "function"
    },
    {
      "inputs": [
        {
          "internalType": "uint256",
          "name": "eventId",
          "type": "uint256"
        }
      ],
      "name": "unlockTransfers",
      "outputs": [],
      "stateMutability": "nonpayable",
      "type": "function"
    },
    {
      "inputs": [],
      "name": "unlockTransfersBatch",
      "outputs": [],
      "stateMutability": "nonpayable",
      "type": "function"
    },
    {
      "inputs": [],
      "name": "unpause",
      "outputs": [],
      "stateMutability": "nonpayable",
      "type": "function"
    },
    {
      "inputs": [
        {
          "internalType": "address",
          "name": "tokenThisAddress",
          "type": "address"
        },
        {
          "internalType": "address",
          "name": "toAddress",
          "type": "address"
        },
        {
          "internalType": "uint256",
          "name": "amount",
          "type": "uint256"
        },
        {
          "internalType": "bool",
          "name": "unwrapSide",
          "type": "bool"
        },
        {
          "internalType": "bytes",
          "name": "feeSignature",
          "type": "bytes"
        },
        {
          "internalType": "uint256",
          "name": "transferFee",
          "type": "uint256"
        },
        {
          "internalType": "uint256",
          "name": "bridgeFee",
          "type": "uint256"
        }
      ],
      "name": "withdraw",
      "outputs": [],
      "stateMutability": "payable",
      "type": "function"
    },
    {
      "inputs": [
        {
          "internalType": "address",
          "name": "toAddress",
          "type": "address"
        },
        {
          "internalType": "bytes",
          "name": "feeSignature",
          "type": "bytes"
        },
        {
          "internalType": "uint256",
          "name": "transferFee",
          "type": "uint256"
        },
        {
          "internalType": "uint256",
          "name": "bridgeFee",
          "type": "uint256"
        }
      ],
      "name": "wrapWithdraw",
      "outputs": [],
      "stateMutability": "payable",
      "type": "function"
    },
    {
      "inputs": [],
      "name": "wrapperAddress",
      "outputs": [
        {
          "internalType": "address",
          "name": "",
          "type": "address"
        }
      ],
      "stateMutability": "view",
      "type": "function"
    },
    {
      "stateMutability": "payable",
      "type": "receive"
    }
  ],
  "transactionHash": "0xd14e413a5543fddb58b5a6a748737b75014702523ab135d57aa451ed759a170a",
  "args": [],
  "numDeployments": 1,
  "solcInputHash": "a879025b7a6c7028a07ea2fe487679b3",
  "bytecode": "0x608060405234801561001057600080fd5b50613480806100206000396000f3fe60806040526004361061027a5760003560e060020a9004806386d7679e11610153578063ba8bbbe0116100c5578063e88b66261161007e578063e88b66261461076b578063f33fe10f1461078b578063f7005587146107ab578063f862b7eb146107cb578063f8b74433146107eb578063fd5d2ef3146107fe57600080fd5b8063ba8bbbe01461069f578063baeebe75146106b5578063c7b81f4f146106cb578063d547741f146106fe578063e1d862be1461071e578063e31be0871461073e57600080fd5b8063924cf6e011610117578063924cf6e0146105e857806396cf5227146105fe57806399b5bb641461061e578063a217fddf14610634578063b6d3385e14610649578063b87330e91461067f57600080fd5b806386d7679e1461056a5780638ac1f86f146105805780638e5df9c71461059557806391c5bc0a146105b557806391d14854146105c857600080fd5b80633f45c799116101ec5780635c975abb116101b05780635c975abb146104ae578063746b5c42146104c657806375b238fc146104db5780637df8b802146104fd5780638456cb5914610535578063853890ae1461054a57600080fd5b80633f45c799146104095780633f4ba83a1461042957806342180fb81461043e5780634a1856de1461045e5780635249a7051461048e57600080fd5b8063248a9ca31161023e578063248a9ca3146103435780632bbba847146103735780632f2ff15d14610389578063331a891a146103a957806336568abe146103c95780633928b296146103e957600080fd5b806301ffc9a71461028657806304421823146102bb57806309fce356146102eb5780630d6680871461030d57806321d3d5361461032357600080fd5b3661028157005b600080fd5b34801561029257600080fd5b506102a66102a1366004612e5e565b61081e565b60405190151581526020015b60405180910390f35b3480156102c757600080fd5b506102dd60008051602061340b83398151915281565b6040519081526020016102b2565b3480156102f757600080fd5b5061030b610306366004612d97565b6108b1565b005b34801561031957600080fd5b506102dd60d45481565b34801561032f57600080fd5b5061030b61033e366004612c04565b6108dd565b34801561034f57600080fd5b506102dd61035e366004612e20565b60009081526065602052604090206001015490565b34801561037f57600080fd5b5060ca54156102a6565b34801561039557600080fd5b5061030b6103a4366004612e39565b61096d565b3480156103b557600080fd5b5061030b6103c4366004612e20565b610998565b3480156103d557600080fd5b5061030b6103e4366004612e39565b610adf565b3480156103f557600080fd5b5061030b610404366004612c04565b610b6e565b34801561041557600080fd5b5061030b610424366004612e9d565b610baa565b34801561043557600080fd5b5061030b610c2c565b34801561044a57600080fd5b5061030b610459366004612e20565b610c50565b34801561046a57600080fd5b506102dd610479366004612e20565b60cb6020526000908152604090206001015481565b34801561049a57600080fd5b5061030b6104a9366004612d55565b610c8d565b3480156104ba57600080fd5b5060975460ff166102a6565b3480156104d257600080fd5b5061030b610d16565b3480156104e757600080fd5b506102dd60008051602061342b83398151915281565b34801561050957600080fd5b5060ce5461051d90600160a060020a031681565b604051600160a060020a0390911681526020016102b2565b34801561054157600080fd5b5061030b610dc2565b34801561055657600080fd5b5061030b610565366004612c21565b610de3565b34801561057657600080fd5b506102dd60d75481565b34801561058c57600080fd5b5061030b610e2b565b3480156105a157600080fd5b5061030b6105b0366004612c04565b610f83565b61030b6105c3366004612cee565b610fc4565b3480156105d457600080fd5b506102a66105e3366004612e39565b6112f4565b3480156105f457600080fd5b506102dd60d25481565b34801561060a57600080fd5b5061030b610619366004612e20565b61131f565b34801561062a57600080fd5b506102dd60d55481565b34801561064057600080fd5b506102dd600081565b34801561065557600080fd5b5061051d610664366004612c04565b60cd60205260009081526040902054600160a060020a031681565b34801561068b57600080fd5b5061030b61069a366004612c04565b61133e565b3480156106ab57600080fd5b506102dd60cc5481565b3480156106c157600080fd5b506102dd60d35481565b3480156106d757600080fd5b506102a66106e6366004612e20565b600090815260e7602052604090206102000154151590565b34801561070a57600080fd5b5061030b610719366004612e39565b61137a565b34801561072a57600080fd5b5061030b610739366004612ee8565b6113a0565b34801561074a57600080fd5b5061075e610759366004612e20565b611469565b6040516102b2919061313c565b34801561077757600080fd5b5061030b610786366004612f23565b611525565b34801561079757600080fd5b5060d15461051d90600160a060020a031681565b3480156107b757600080fd5b5061030b6107c6366004612e20565b6115eb565b3480156107d757600080fd5b5061030b6107e6366004612e20565b61160a565b61030b6107f9366004612c5a565b61183d565b34801561080a57600080fd5b5061030b610819366004612e20565b611c9d565b60007bffffffffffffffffffffffffffffffffffffffffffffffffffffffff1982167f7965db0b0000000000000000000000000000000000000000000000000000000014806108ab57507f01ffc9a7000000000000000000000000000000000000000000000000000000007bffffffffffffffffffffffffffffffffffffffffffffffffffffffff198316145b92915050565b60008051602061342b8339815191526108ca8133611cbc565b6108d685858585611d23565b5050505050565b60006108e98133611cbc565b60d154600160a060020a03161561094a5760405160e560020a62461bcd02815260206004820152601d60248201527f736964654272696467654164647265737320616c72656164792073657400000060448201526064015b60405180910390fd5b5060d18054600160a060020a031916600160a060020a0392909216919091179055565b6000828152606560205260409020600101546109898133611cbc565b6109938383611e44565b505050565b60008051602061342b8339815191526109b18133611cbc565b60975460ff16610a065760405160e560020a62461bcd02815260206004820152601460248201527f5061757361626c653a206e6f74207061757365640000000000000000000000006044820152606401610941565b60cc54821015610a815760405160e560020a62461bcd02815260206004820152602660248201527f6576656e744964206d757374206265203e3d206f6c646573744c6f636b65644560448201527f76656e74496400000000000000000000000000000000000000000000000000006064820152608401610941565b600082815260cb602052604090206001015415610acd57600082815260cb6020526040812090610ab18282612afa565b5060006001919091015581610ac581613322565b925050610a81565b610ad86001836132c8565b60d5555050565b600160a060020a0381163314610b605760405160e560020a62461bcd02815260206004820152602f60248201527f416363657373436f6e74726f6c3a2063616e206f6e6c792072656e6f756e636560448201527f20726f6c657320666f722073656c6600000000000000000000000000000000006064820152608401610941565b610b6a8282611eca565b5050565b60008051602061342b833981519152610b878133611cbc565b5060d08054600160a060020a031916600160a060020a0392909216919091179055565b600054610100900460ff1680610bc3575060005460ff16155b610be25760405160e560020a62461bcd028152600401610941906130df565b600054610100900460ff16158015610c04576000805461ffff19166101011790555b610c0d83611f31565b610c168261210d565b8015610993576000805461ff0019169055505050565b60008051602061342b833981519152610c458133611cbc565b610c4d612181565b50565b60008051602061342b833981519152610c698133611cbc565b8160d35460d754610c7a91906132a9565b610c849190613284565b60d7555060d355565b60008051602061342b833981519152610ca68133611cbc565b8160005b818110156108d65760cd6000868684818110610cc857610cc8613356565b9050602002016020810190610cdd9190612c04565b600160a060020a0316815260208101919091526040016000208054600160a060020a031916905580610d0e81613322565b915050610caa565b60ca54610d685760405160e560020a62461bcd02815260206004820152600e60248201527f517565756520697320656d7074790000000000000000000000000000000000006044820152606401610941565b60d68054906000610d7883613322565b919050557fe15729a2f427aa4572dab35eb692c902fcbce57d41642013259c741380809ae260ca604051610dac9190613005565b60405180910390a2610dc060ca6000612afa565b565b60008051602061342b833981519152610ddb8133611cbc565b610c4d612220565b60008051602061342b833981519152610dfc8133611cbc565b50600160a060020a03918216600090815260cd602052604090208054600160a060020a03191691909216179055565b60975460ff1615610e515760405160e560020a62461bcd028152600401610941906130a8565b60cc545b600081815260cb60209081526040808320815181546060948102820185018452928101838152909391928492849190879085015b82821015610ee357600084815260209081902060408051606081018252600386029092018054600160a060020a03908116845260018083015490911684860152600290910154918301919091529083529092019101610e89565b5050505081526020016001820154815250509050806020015160001480610f0d5750428160200151115b15610f18575060cc55565b8051610f239061227b565b600082815260cb6020526040812090610f3c8282612afa565b50600060019190910181905560405183917f78ff9b3176bb0d6421590f3816e75cb15a9ffa2b7a1a028f40a3f4e029eb39f291a25080610f7b81613322565b915050610e55565b60008051602061342b833981519152610f9c8133611cbc565b50600160a060020a0316600090815260cd602052604090208054600160a060020a0319169055565b60ce54600160a060020a03908116600090815260cd602052604090205416806110325760405160e560020a62461bcd02815260206004820152601560248201527f556e6b6e6f776e20746f6b656e206164647265737300000000000000000000006044820152606401610941565b61103c828461326c565b341161108d5760405160e560020a62461bcd02815260206004820152601160248201527f53656e742076616c7565203c3d206665650000000000000000000000000000006044820152606401610941565b60008261109a85346132c8565b6110a491906132c8565b60ce549091506110c190600160a060020a0316878787878661250f565b60cf54604051600160a060020a039091169085156108fc029086906000818181858888f193505050501580156110fb573d6000803e3d6000fd5b5060d054604051600160a060020a039091169084156108fc029085906000818181858888f19350505050158015611136573d6000803e3d6000fd5b5060ce60009054906101000a9004600160a060020a0316600160a060020a031663d0e30db0826040518263ffffffff1660e060020a0281526004016000604051808303818588803b15801561118a57600080fd5b505af115801561119e573d6000803e3d6000fd5b505060408051606081018252600160a060020a0380881682528c81166020830190815282840188815260ca80546001810182556000918252945160039095027f42d72674974f694b5f5159593243114d38a5c39c89d6b62fee061ff523240ee181018054968616600160a060020a031997881617905592517f42d72674974f694b5f5159593243114d38a5c39c89d6b62fee061ff523240ee2840180549190951695169490941790925590517f42d72674974f694b5f5159593243114d38a5c39c89d6b62fee061ff523240ee39091015560d65491513395507f3b823d3b837159352faddd1e0b9e9f584ca2bfe976238f6a9e6da4615cf2f44494506112db9350879087908b908b90958652600160a060020a0394851660208701529290931660408501526060840152608083019190915260a082015260c00190565b60405180910390a26112eb6126a3565b50505050505050565b6000918252606560209081526040808420600160a060020a0393909316845291905290205460ff1690565b60008051602061342b8339815191526113388133611cbc565b5060d455565b60008051602061342b8339815191526113578133611cbc565b5060cf8054600160a060020a031916600160a060020a0392909216919091179055565b6000828152606560205260409020600101546113968133611cbc565b6109938383611eca565b60008051602061340b8339815191526113b98133611cbc565b60975460ff16156113df5760405160e560020a62461bcd028152600401610941906130a8565b6113ec602083018361324c565b602001357f196c47048e38df7a4fe6e581c8f4f2e2ba67ac0dd45b90da756e97bd61d9dd3b60405160405180910390a261143561142c602084018461324c565b6020013561271b565b610b6a611445602084018461324c565b611453906040810190613203565b611460602086018661324c565b60200135612780565b604080518082019091526060815260006020820152600082815260cb60209081526040808320815181546060948102820185018452928101838152909491938593919285929185015b8282101561150c57600084815260209081902060408051606081018252600386029092018054600160a060020a039081168452600180830154909116848601526002909101549183019190915290835290920191016114b2565b5050505081526020016001820154815250509050919050565b6002851061156e5760e7600061153c6002886132c8565b81526020019081526020016000206000808201600061155b9190612b1b565b5060006102008201819055610201909101555b600085815260e76020526040812082915b828110156115c75784848281811061159957611599613356565b90506020020135828261020081106115b3576115b3613356565b0155806115bf81613322565b91505061157f565b5050506000948552505060e760205260409092206102008101919091556102010155565b60008051602061342b8339815191526116048133611cbc565b5060c955565b60975460ff16156116305760405160e560020a62461bcd028152600401610941906130a8565b60cc5481146116845760405160e560020a62461bcd02815260206004820152601c60248201527f63616e20756e6c6f636b206f6e6c79206f6c64657374206576656e74000000006044820152606401610941565b600081815260cb60209081526040808320815181546060948102820185018452928101838152909391928492849190879085015b8282101561171257600084815260209081902060408051606081018252600386029092018054600160a060020a039081168452600180830154909116848601526002909101549183019190915290835290920191016116b8565b5050505081526020016001820154815250509050600081602001511161177d5760405160e560020a62461bcd02815260206004820181905260248201527f6e6f206c6f636b6564207472616e7366657273207769746820746869732069646044820152606401610941565b428160200151106117d35760405160e560020a62461bcd02815260206004820152601b60248201527f6c6f636b54696d6520686173206e6f74207965742070617373656400000000006044820152606401610941565b80516117de9061227b565b600082815260cb60205260408120906117f78282612afa565b50600060019190910181905560405183917f78ff9b3176bb0d6421590f3816e75cb15a9ffa2b7a1a028f40a3f4e029eb39f291a261183682600161326c565b60cc555050565b600085156118d2576000805260cd6020527fcd565b10a72538d86f6d352f37ebc5dff31587960b12c0afe00fd03947a6932a54600160a060020a038a81169116146118cd5760405160e560020a62461bcd02815260206004820152601f60248201527f546f6b656e206e6f7420706f696e7420746f206e617469766520746f6b656e006044820152606401610941565b61193e565b50600160a060020a03808916600090815260cd6020526040902054168061193e5760405160e560020a62461bcd02815260206004820152601560248201527f556e6b6e6f776e20746f6b656e206164647265737300000000000000000000006044820152606401610941565b611948828461326c565b34146119995760405160e560020a62461bcd02815260206004820152601160248201527f53656e742076616c756520213d206665650000000000000000000000000000006044820152606401610941565b600087116119ec5760405160e560020a62461bcd02815260206004820152601160248201527f43616e6e6f7420776974686472617720300000000000000000000000000000006044820152606401610941565b6119fa89868686868c61250f565b60cf54604051600160a060020a039091169084156108fc029085906000818181858888f19350505050158015611a34573d6000803e3d6000fd5b5060d054604051600160a060020a039091169083156108fc029084906000818181858888f19350505050158015611a6f573d6000803e3d6000fd5b506040517f23b872dd00000000000000000000000000000000000000000000000000000000815233600482015230602482015260448101889052600160a060020a038a16906323b872dd90606401602060405180830381600087803b158015611ad757600080fd5b505af1158015611aeb573d6000803e3d6000fd5b505050506040513d601f19601f82011682018060405250810190611b0f9190612e03565b611b5e5760405160e560020a62461bcd02815260206004820152601360248201527f4661696c207472616e7366657220636f696e73000000000000000000000000006044820152606401610941565b6040805160608082018352600160a060020a038481168084528c821660208086019182528587018e815260ca8054600181018255600091909152965160039097027f42d72674974f694b5f5159593243114d38a5c39c89d6b62fee061ff523240ee181018054988716600160a060020a0319998a1617905592517f42d72674974f694b5f5159593243114d38a5c39c89d6b62fee061ff523240ee284018054918716919098161790965594517f42d72674974f694b5f5159593243114d38a5c39c89d6b62fee061ff523240ee39091015560d6548551908152918e16938201939093529283019190915281018890526080810184905260a0810183905233907f3b823d3b837159352faddd1e0b9e9f584ca2bfe976238f6a9e6da4615cf2f4449060c00160405180910390a2611c926126a3565b505050505050505050565b60008051602061342b833981519152611cb68133611cbc565b5060d255565b611cc682826112f4565b610b6a57611cde81600160a060020a03166014612814565b611ce9836020612814565b604051602001611cfa929190612f84565b60408051601f198184030181529082905260e560020a62461bcd02825261094191600401613075565b828114611d9b5760405160e560020a62461bcd02815260206004820152603f60248201527f73697a6573206f6620746f6b656e5468697341646472657373657320616e642060448201527f746f6b656e53696465416464726573736573206d7573742062652073616d65006064820152608401610941565b8260005b81811015611e3c57838382818110611db957611db9613356565b9050602002016020810190611dce9190612c04565b60cd6000888885818110611de457611de4613356565b9050602002016020810190611df99190612c04565b600160a060020a03908116825260208201929092526040016000208054600160a060020a0319169290911691909117905580611e3481613322565b915050611d9f565b505050505050565b611e4e82826112f4565b610b6a576000828152606560209081526040808320600160a060020a03851684529091529020805460ff19166001179055611e863390565b600160a060020a031681600160a060020a0316837f2f8788117e7eff1d82e926ec794901d17c78024a50270940304540a733656f0d60405160405180910390a45050565b611ed482826112f4565b15610b6a576000828152606560209081526040808320600160a060020a0385168085529252808320805460ff1916905551339285917ff6391f5c32d9c69d2a47ea670b442974b53935d1edc7fd64eb21e047a839171b9190a45050565b600054610100900460ff1680611f4a575060005460ff16155b611f695760405160e560020a62461bcd028152600401610941906130df565b600054610100900460ff16158015611f8b576000805461ffff19166101011790555b611f96600033612a65565b611fbd60008051602061340b833981519152611fb86060850160408601612c04565b612a65565b611fdf60008051602061342b833981519152611fb86040850160208601612c04565b612001611fef60808401846131ba565b611ffc60a08601866131ba565b611d23565b6120116080830160608401612c04565b60ce8054600160a060020a031916600160a060020a039290921691909117905561203e6020830183612c04565b60d18054600160a060020a031916600160a060020a039290921691909117905561206e60e0830160c08401612c04565b60cf8054600160a060020a031916600160a060020a039290921691909117905561209f610100830160e08401612c04565b60d08054600160a060020a031916600160a060020a039290921691909117905561014082013560d25561010082013560d381905561012083013560d455600160cc81905560d655600360c9556120f59042613284565b60d7558015610b6a576000805461ff00191690555050565b600054610100900460ff1680612126575060005460ff16155b6121455760405160e560020a62461bcd028152600401610941906130df565b600054610100900460ff16158015612167576000805461ffff19166101011790555b60e88290558015610b6a576000805461ff00191690555050565b60975460ff166121d65760405160e560020a62461bcd02815260206004820152601460248201527f5061757361626c653a206e6f74207061757365640000000000000000000000006044820152606401610941565b6097805460ff191690557f5db9ee0a495bf2e6ff9c91a7834c1ba4fdd244a5e8aa4e537bd38aeae4b073aa335b604051600160a060020a03909116815260200160405180910390a1565b60975460ff16156122465760405160e560020a62461bcd028152600401610941906130a8565b6097805460ff191660011790557f62e78cea01bee320cd4e420270b5ea74000d11b0c9f74754ebdbfc544b05a2586122033390565b60005b8151811015610b6a576000600160a060020a03168282815181106122a4576122a4613356565b602002602001015160000151600160a060020a031614156123c05760ce548251600160a060020a0390911690632e1a7d4d908490849081106122e8576122e8613356565b6020026020010151604001516040518263ffffffff1660e060020a02815260040161231591815260200190565b600060405180830381600087803b15801561232f57600080fd5b505af1158015612343573d6000803e3d6000fd5b5050505081818151811061235957612359613356565b602002602001015160200151600160a060020a03166108fc83838151811061238357612383613356565b6020026020010151604001519081150290604051600060405180830381858888f193505050501580156123ba573d6000803e3d6000fd5b506124fd565b8181815181106123d2576123d2613356565b602002602001015160000151600160a060020a031663a9059cbb8383815181106123fe576123fe613356565b60200260200101516020015184848151811061241c5761241c613356565b6020026020010151604001516040518363ffffffff1660e060020a02815260040161245c929190600160a060020a03929092168252602082015260400190565b602060405180830381600087803b15801561247657600080fd5b505af115801561248a573d6000803e3d6000fd5b505050506040513d601f19601f820116820180604052508101906124ae9190612e03565b6124fd5760405160e560020a62461bcd02815260206004820152601360248201527f4661696c207472616e7366657220636f696e73000000000000000000000000006044820152606401610941565b8061250781613322565b91505061227e565b6000808061251f61070842613284565b905060005b60c954811015612657576040516c01000000000000000000000000600160a060020a038c160260208201526034810183905260548101889052607481018790526094810186905260b40160408051601f198184030181529082905280516020918201207f19457468657265756d205369676e6564204d6573736167653a0a33320000000091830191909152603c820152605c0160405160208183030381529060405280519060200120935061260f848a8a8080601f016020809104026020016040519081016040528093929190818152602001838380828437600092019190915250612a6f92505050565b925061262960008051602061340b833981519152846112f4565b156126375750505050611e3c565b816126418161330b565b925050808061264f90613322565b915050612524565b5060405160e560020a62461bcd02815260206004820152601660248201527f5369676e617475726520636865636b206661696c6564000000000000000000006044820152606401610941565b600060d354426126b39190613284565b905060d7548114610c4d5760d680549060006126ce83613322565b919050557fe15729a2f427aa4572dab35eb692c902fcbce57d41642013259c741380809ae260ca6040516127029190613005565b60405180910390a261271660ca6000612afa565b60d755565b60d56000815461272a90613322565b91829055508114610c4d5760405160e560020a62461bcd02815260206004820152601460248201527f4576656e744964206f7574206f66206f726465720000000000000000000000006044820152606401610941565b60d45461278d904261326c565b600082815260cb60205260408120600101919091555b8281101561280e57600082815260cb602052604090208484838181106127cb576127cb613356565b8354600181018555600094855260209094206060909102929092019260030290910190506127f98282613388565b5050808061280690613322565b9150506127a3565b50505050565b606060006128238360026132a9565b61282e90600261326c565b67ffffffffffffffff8111156128465761284661336f565b6040519080825280601f01601f191660200182016040528015612870576020820181803683370190505b5090507f3000000000000000000000000000000000000000000000000000000000000000816000815181106128a7576128a7613356565b60200101907effffffffffffffffffffffffffffffffffffffffffffffffffffffffffffff1916908160001a9053507f78000000000000000000000000000000000000000000000000000000000000008160018151811061290a5761290a613356565b60200101907effffffffffffffffffffffffffffffffffffffffffffffffffffffffffffff1916908160001a90535060006129468460026132a9565b61295190600161326c565b90505b6001811115612a0c577f303132333435363738396162636465660000000000000000000000000000000085600f166010811061299257612992613356565b1a7f0100000000000000000000000000000000000000000000000000000000000000028282815181106129c7576129c7613356565b60200101907effffffffffffffffffffffffffffffffffffffffffffffffffffffffffffff1916908160001a905350601090940493612a058161330b565b9050612954565b508315612a5e5760405160e560020a62461bcd02815260206004820181905260248201527f537472696e67733a20686578206c656e67746820696e73756666696369656e746044820152606401610941565b9392505050565b610b6a8282611e44565b6020810151604082015160608301516000929190831a601b811015612a9257601b015b60408051600081526020810180835288905260ff831691810191909152606081018490526080810183905260019060a0016020604051602081039080840390855afa158015612ae5573d6000803e3d6000fd5b5050604051601f190151979650505050505050565b5080546000825560030290600052602060002090810190610c4d9190612b2b565b50610c4d90610200810190612b62565b5b80821115612b5e578054600160a060020a03199081168255600182018054909116905560006002820155600301612b2c565b5090565b5b80821115612b5e5760008155600101612b63565b60008083601f840112612b8957600080fd5b50813567ffffffffffffffff811115612ba157600080fd5b6020830191508360208083028501011115612bbb57600080fd5b9250929050565b60008083601f840112612bd457600080fd5b50813567ffffffffffffffff811115612bec57600080fd5b602083019150836020828501011115612bbb57600080fd5b600060208284031215612c1657600080fd5b8135612a5e816133e7565b60008060408385031215612c3457600080fd5b8235612c3f816133e7565b91506020830135612c4f816133e7565b809150509250929050565b60008060008060008060008060e0898b031215612c7657600080fd5b8835612c81816133e7565b97506020890135612c91816133e7565b9650604089013595506060890135612ca8816133fc565b9450608089013567ffffffffffffffff811115612cc457600080fd5b612cd08b828c01612bc2565b999c989b5096999598969760a08701359660c0013595509350505050565b600080600080600060808688031215612d0657600080fd5b8535612d11816133e7565b9450602086013567ffffffffffffffff811115612d2d57600080fd5b612d3988828901612bc2565b9699909850959660408101359660609091013595509350505050565b60008060208385031215612d6857600080fd5b823567ffffffffffffffff811115612d7f57600080fd5b612d8b85828601612b77565b90969095509350505050565b60008060008060408587031215612dad57600080fd5b843567ffffffffffffffff80821115612dc557600080fd5b612dd188838901612b77565b90965094506020870135915080821115612dea57600080fd5b50612df787828801612b77565b95989497509550505050565b600060208284031215612e1557600080fd5b8151612a5e816133fc565b600060208284031215612e3257600080fd5b5035919050565b60008060408385031215612e4c57600080fd5b823591506020830135612c4f816133e7565b600060208284031215612e7057600080fd5b81357bffffffffffffffffffffffffffffffffffffffffffffffffffffffff1981168114612a5e57600080fd5b60008060408385031215612eb057600080fd5b823567ffffffffffffffff811115612ec757600080fd5b83016101608186031215612eda57600080fd5b946020939093013593505050565b600060208284031215612efa57600080fd5b813567ffffffffffffffff811115612f1157600080fd5b820160408185031215612a5e57600080fd5b600080600080600060808688031215612f3b57600080fd5b853594506020860135935060408601359250606086013567ffffffffffffffff811115612f6757600080fd5b612f7388828901612b77565b969995985093965092949392505050565b7f416363657373436f6e74726f6c3a206163636f756e7420000000000000000000815260008351612fbc8160178501602088016132df565b7f206973206d697373696e6720726f6c65200000000000000000000000000000006017918401918201528351612ff98160288401602088016132df565b01602801949350505050565b60006020808301818452808554808352604092508286019150866000528360002060005b82811015613068578154600160a060020a0390811685526001808401549091168786015260028301548686015260609094019360039092019101613029565b5091979650505050505050565b60208152600082518060208401526130948160408501602087016132df565b601f01601f19169190910160400192915050565b60208082526010908201527f5061757361626c653a2070617573656400000000000000000000000000000000604082015260600190565b6020808252602e908201527f496e697469616c697a61626c653a20636f6e747261637420697320616c72656160408201527f647920696e697469616c697a6564000000000000000000000000000000000000606082015260800190565b6000602080835260608084018551604080858801528282518085526080890191508684019450600093505b808410156131a45784518051600160a060020a03908116845288820151168884015283015183830152938601936001939093019290850190613167565b5094909701519590960194909452509392505050565b6000808335601e198436030181126131d157600080fd5b83018035915067ffffffffffffffff8211156131ec57600080fd5b6020908101925081023603821315612bbb57600080fd5b6000808335601e1984360301811261321a57600080fd5b83018035915067ffffffffffffffff82111561323557600080fd5b6020019150606081023603821315612bbb57600080fd5b60008235605e1983360301811261326257600080fd5b9190910192915050565b6000821982111561327f5761327f61333d565b500190565b6000826132a45760e060020a634e487b7102600052601260045260246000fd5b500490565b60008160001904831182151516156132c3576132c361333d565b500290565b6000828210156132da576132da61333d565b500390565b60005b838110156132fa5781810151838201526020016132e2565b8381111561280e5750506000910152565b60008161331a5761331a61333d565b506000190190565b60006000198214156133365761333661333d565b5060010190565b60e060020a634e487b7102600052601160045260246000fd5b60e060020a634e487b7102600052603260045260246000fd5b60e060020a634e487b7102600052604160045260246000fd5b8135613393816133e7565b8154600160a060020a031916600160a060020a0382161782555060208201356133bb816133e7565b600182018054600160a060020a031916600160a060020a03831617905550604082013560028201555050565b600160a060020a0381168114610c4d57600080fd5b8015158114610c4d57600080fdfe077a1d526a4ce8a773632ab13b4fbbf1fcc954c3dab26cd27ea0e2a6750da5d7a49807205ce4d355092ef5a8a18f56e8913cf4a201fbe287825b095693c21775a26469706673582212200c208f2f0d3fb317bf92210845230e454d5a29352d223fbadffd2a0d01f088bd64736f6c63430008060033",
  "devdoc": {
    "kind": "dev",
    "methods": {
      "getRoleAdmin(bytes32)": {
        "details": "Returns the admin role that controls `role`. See {grantRole} and {revokeRole}. To change a role's admin, use {_setRoleAdmin}."
      },
      "grantRole(bytes32,address)": {
        "details": "Grants `role` to `account`. If `account` had not been already granted `role`, emits a {RoleGranted} event. Requirements: - the caller must have ``role``'s admin role."
      },
      "hasRole(bytes32,address)": {
        "details": "Returns `true` if `account` has been granted `role`."
      },
      "paused()": {
        "details": "Returns true if the contract is paused, and false otherwise."
      },
      "renounceRole(bytes32,address)": {
        "details": "Revokes `role` from the calling account. Roles are often managed via {grantRole} and {revokeRole}: this function's purpose is to provide a mechanism for accounts to lose their privileges if they are compromised (such as when a trusted device is misplaced). If the calling account had been granted `role`, emits a {RoleRevoked} event. Requirements: - the caller must be `account`."
      },
      "revokeRole(bytes32,address)": {
        "details": "Revokes `role` from `account`. If `account` had been granted `role`, emits a {RoleRevoked} event. Requirements: - the caller must have ``role``'s admin role."
      },
      "supportsInterface(bytes4)": {
        "details": "See {IERC165-supportsInterface}."
      },
      "withdraw(address,address,uint256,bool,bytes,uint256,uint256)": {
        "params": {
          "bridgeFee": "Amount (in native coins), payed as bridge earnings",
          "feeSignature": "Signature signed by relay that confirms that the fee values are valid",
          "transferFee": "Amount (in native coins), payed to compensate gas fees in side network"
        }
      },
      "wrapWithdraw(address,bytes,uint256,uint256)": {
        "params": {
          "bridgeFee": "Amount (in native coins), payed as bridge earnings",
          "feeSignature": "Signature signed by relay that confirms that the fee values are valid",
          "toAddress": "Address in side network that will receive the tokens",
          "transferFee": "Amount (in native coins), payed to compensate gas fees in side network"
        }
      }
    },
    "version": 1
  },
  "userdoc": {
    "kind": "user",
    "methods": {},
    "version": 1
  },
  "storageLayout": {
    "storage": [
      {
        "astId": 413,
        "contract": "contracts/networks/ETH_AmbBridge.sol:ETH_AmbBridge",
        "label": "_initialized",
        "offset": 0,
        "slot": "0",
        "type": "t_bool"
      },
      {
        "astId": 416,
        "contract": "contracts/networks/ETH_AmbBridge.sol:ETH_AmbBridge",
        "label": "_initializing",
        "offset": 1,
        "slot": "0",
        "type": "t_bool"
      },
      {
        "astId": 609,
        "contract": "contracts/networks/ETH_AmbBridge.sol:ETH_AmbBridge",
        "label": "__gap",
        "offset": 0,
        "slot": "1",
        "type": "t_array(t_uint256)50_storage"
      },
      {
        "astId": 858,
        "contract": "contracts/networks/ETH_AmbBridge.sol:ETH_AmbBridge",
        "label": "__gap",
        "offset": 0,
        "slot": "51",
        "type": "t_array(t_uint256)50_storage"
      },
      {
        "astId": 48,
        "contract": "contracts/networks/ETH_AmbBridge.sol:ETH_AmbBridge",
        "label": "_roles",
        "offset": 0,
        "slot": "101",
        "type": "t_mapping(t_bytes32,t_struct(RoleData)43_storage)"
      },
      {
        "astId": 333,
        "contract": "contracts/networks/ETH_AmbBridge.sol:ETH_AmbBridge",
        "label": "__gap",
        "offset": 0,
        "slot": "102",
        "type": "t_array(t_uint256)49_storage"
      },
      {
        "astId": 474,
        "contract": "contracts/networks/ETH_AmbBridge.sol:ETH_AmbBridge",
        "label": "_paused",
        "offset": 0,
        "slot": "151",
        "type": "t_bool"
      },
      {
        "astId": 565,
        "contract": "contracts/networks/ETH_AmbBridge.sol:ETH_AmbBridge",
        "label": "__gap",
        "offset": 0,
        "slot": "152",
        "type": "t_array(t_uint256)49_storage"
      },
      {
        "astId": 6829,
        "contract": "contracts/networks/ETH_AmbBridge.sol:ETH_AmbBridge",
        "label": "signatureFeeCheckNumber",
        "offset": 0,
        "slot": "201",
        "type": "t_uint256"
      },
      {
        "astId": 6833,
        "contract": "contracts/networks/ETH_AmbBridge.sol:ETH_AmbBridge",
        "label": "queue",
        "offset": 0,
        "slot": "202",
        "type": "t_array(t_struct(Transfer)7911_storage)dyn_storage"
      },
      {
        "astId": 6838,
        "contract": "contracts/networks/ETH_AmbBridge.sol:ETH_AmbBridge",
        "label": "lockedTransfers",
        "offset": 0,
        "slot": "203",
        "type": "t_mapping(t_uint256,t_struct(LockedTransfers)7928_storage)"
      },
      {
        "astId": 6840,
        "contract": "contracts/networks/ETH_AmbBridge.sol:ETH_AmbBridge",
        "label": "oldestLockedEventId",
        "offset": 0,
        "slot": "204",
        "type": "t_uint256"
      },
      {
        "astId": 6844,
        "contract": "contracts/networks/ETH_AmbBridge.sol:ETH_AmbBridge",
        "label": "tokenAddresses",
        "offset": 0,
        "slot": "205",
        "type": "t_mapping(t_address,t_address)"
      },
      {
        "astId": 6846,
        "contract": "contracts/networks/ETH_AmbBridge.sol:ETH_AmbBridge",
        "label": "wrapperAddress",
        "offset": 0,
        "slot": "206",
        "type": "t_address"
      },
      {
        "astId": 6848,
        "contract": "contracts/networks/ETH_AmbBridge.sol:ETH_AmbBridge",
        "label": "transferFeeRecipient",
        "offset": 0,
        "slot": "207",
        "type": "t_address_payable"
      },
      {
        "astId": 6850,
        "contract": "contracts/networks/ETH_AmbBridge.sol:ETH_AmbBridge",
        "label": "bridgeFeeRecipient",
        "offset": 0,
        "slot": "208",
        "type": "t_address_payable"
      },
      {
        "astId": 6852,
        "contract": "contracts/networks/ETH_AmbBridge.sol:ETH_AmbBridge",
        "label": "sideBridgeAddress",
        "offset": 0,
        "slot": "209",
        "type": "t_address"
      },
      {
        "astId": 6854,
        "contract": "contracts/networks/ETH_AmbBridge.sol:ETH_AmbBridge",
        "label": "minSafetyBlocks",
        "offset": 0,
        "slot": "210",
        "type": "t_uint256"
      },
      {
        "astId": 6856,
        "contract": "contracts/networks/ETH_AmbBridge.sol:ETH_AmbBridge",
        "label": "timeframeSeconds",
        "offset": 0,
        "slot": "211",
        "type": "t_uint256"
      },
      {
        "astId": 6858,
        "contract": "contracts/networks/ETH_AmbBridge.sol:ETH_AmbBridge",
        "label": "lockTime",
        "offset": 0,
        "slot": "212",
        "type": "t_uint256"
      },
      {
        "astId": 6860,
        "contract": "contracts/networks/ETH_AmbBridge.sol:ETH_AmbBridge",
        "label": "inputEventId",
        "offset": 0,
        "slot": "213",
        "type": "t_uint256"
      },
      {
        "astId": 6862,
        "contract": "contracts/networks/ETH_AmbBridge.sol:ETH_AmbBridge",
        "label": "outputEventId",
        "offset": 0,
        "slot": "214",
        "type": "t_uint256"
      },
      {
        "astId": 6864,
        "contract": "contracts/networks/ETH_AmbBridge.sol:ETH_AmbBridge",
        "label": "lastTimeframe",
        "offset": 0,
        "slot": "215",
        "type": "t_uint256"
      },
      {
        "astId": 7901,
        "contract": "contracts/networks/ETH_AmbBridge.sol:ETH_AmbBridge",
        "label": "__gap",
        "offset": 0,
        "slot": "216",
        "type": "t_array(t_uint256)15_storage"
      },
      {
        "astId": 5561,
        "contract": "contracts/networks/ETH_AmbBridge.sol:ETH_AmbBridge",
        "label": "epochData",
        "offset": 0,
        "slot": "231",
        "type": "t_mapping(t_uint256,t_struct(EthashCacheOptData)5556_storage)"
      },
      {
        "astId": 3279,
        "contract": "contracts/networks/ETH_AmbBridge.sol:ETH_AmbBridge",
        "label": "minimumDifficulty",
        "offset": 0,
        "slot": "232",
        "type": "t_uint256"
      },
      {
        "astId": 3499,
        "contract": "contracts/networks/ETH_AmbBridge.sol:ETH_AmbBridge",
        "label": "___gap",
        "offset": 0,
        "slot": "233",
        "type": "t_array(t_uint256)15_storage"
      }
    ],
    "types": {
      "t_address": {
        "encoding": "inplace",
        "label": "address",
        "numberOfBytes": "20"
      },
      "t_address_payable": {
        "encoding": "inplace",
        "label": "address payable",
        "numberOfBytes": "20"
      },
      "t_array(t_struct(Transfer)7911_storage)dyn_storage": {
        "base": "t_struct(Transfer)7911_storage",
        "encoding": "dynamic_array",
        "label": "struct CommonStructs.Transfer[]",
        "numberOfBytes": "32"
      },
      "t_array(t_uint256)15_storage": {
        "base": "t_uint256",
        "encoding": "inplace",
        "label": "uint256[15]",
        "numberOfBytes": "480"
      },
      "t_array(t_uint256)49_storage": {
        "base": "t_uint256",
        "encoding": "inplace",
        "label": "uint256[49]",
        "numberOfBytes": "1568"
      },
      "t_array(t_uint256)50_storage": {
        "base": "t_uint256",
        "encoding": "inplace",
        "label": "uint256[50]",
        "numberOfBytes": "1600"
      },
      "t_array(t_uint256)512_storage": {
        "base": "t_uint256",
        "encoding": "inplace",
        "label": "uint256[512]",
        "numberOfBytes": "16384"
      },
      "t_bool": {
        "encoding": "inplace",
        "label": "bool",
        "numberOfBytes": "1"
      },
      "t_bytes32": {
        "encoding": "inplace",
        "label": "bytes32",
        "numberOfBytes": "32"
      },
      "t_mapping(t_address,t_address)": {
        "encoding": "mapping",
        "key": "t_address",
        "label": "mapping(address => address)",
        "numberOfBytes": "32",
        "value": "t_address"
      },
      "t_mapping(t_address,t_bool)": {
        "encoding": "mapping",
        "key": "t_address",
        "label": "mapping(address => bool)",
        "numberOfBytes": "32",
        "value": "t_bool"
      },
      "t_mapping(t_bytes32,t_struct(RoleData)43_storage)": {
        "encoding": "mapping",
        "key": "t_bytes32",
        "label": "mapping(bytes32 => struct AccessControlUpgradeable.RoleData)",
        "numberOfBytes": "32",
        "value": "t_struct(RoleData)43_storage"
      },
      "t_mapping(t_uint256,t_struct(EthashCacheOptData)5556_storage)": {
        "encoding": "mapping",
        "key": "t_uint256",
        "label": "mapping(uint256 => struct Ethash.EthashCacheOptData)",
        "numberOfBytes": "32",
        "value": "t_struct(EthashCacheOptData)5556_storage"
      },
      "t_mapping(t_uint256,t_struct(LockedTransfers)7928_storage)": {
        "encoding": "mapping",
        "key": "t_uint256",
        "label": "mapping(uint256 => struct CommonStructs.LockedTransfers)",
        "numberOfBytes": "32",
        "value": "t_struct(LockedTransfers)7928_storage"
      },
      "t_struct(EthashCacheOptData)5556_storage": {
        "encoding": "inplace",
        "label": "struct Ethash.EthashCacheOptData",
        "members": [
          {
            "astId": 5551,
            "contract": "contracts/networks/ETH_AmbBridge.sol:ETH_AmbBridge",
            "label": "merkleNodes",
            "offset": 0,
            "slot": "0",
            "type": "t_array(t_uint256)512_storage"
          },
          {
            "astId": 5553,
            "contract": "contracts/networks/ETH_AmbBridge.sol:ETH_AmbBridge",
            "label": "fullSizeIn128Resultion",
            "offset": 0,
            "slot": "512",
            "type": "t_uint256"
          },
          {
            "astId": 5555,
            "contract": "contracts/networks/ETH_AmbBridge.sol:ETH_AmbBridge",
            "label": "branchDepth",
            "offset": 0,
            "slot": "513",
            "type": "t_uint256"
          }
        ],
        "numberOfBytes": "16448"
      },
      "t_struct(LockedTransfers)7928_storage": {
        "encoding": "inplace",
        "label": "struct CommonStructs.LockedTransfers",
        "members": [
          {
            "astId": 7925,
            "contract": "contracts/networks/ETH_AmbBridge.sol:ETH_AmbBridge",
            "label": "transfers",
            "offset": 0,
            "slot": "0",
            "type": "t_array(t_struct(Transfer)7911_storage)dyn_storage"
          },
          {
            "astId": 7927,
            "contract": "contracts/networks/ETH_AmbBridge.sol:ETH_AmbBridge",
            "label": "endTimestamp",
            "offset": 0,
            "slot": "1",
            "type": "t_uint256"
          }
        ],
        "numberOfBytes": "64"
      },
      "t_struct(RoleData)43_storage": {
        "encoding": "inplace",
        "label": "struct AccessControlUpgradeable.RoleData",
        "members": [
          {
            "astId": 40,
            "contract": "contracts/networks/ETH_AmbBridge.sol:ETH_AmbBridge",
            "label": "members",
            "offset": 0,
            "slot": "0",
            "type": "t_mapping(t_address,t_bool)"
          },
          {
            "astId": 42,
            "contract": "contracts/networks/ETH_AmbBridge.sol:ETH_AmbBridge",
            "label": "adminRole",
            "offset": 0,
            "slot": "1",
            "type": "t_bytes32"
          }
        ],
        "numberOfBytes": "64"
      },
      "t_struct(Transfer)7911_storage": {
        "encoding": "inplace",
        "label": "struct CommonStructs.Transfer",
        "members": [
          {
            "astId": 7906,
            "contract": "contracts/networks/ETH_AmbBridge.sol:ETH_AmbBridge",
            "label": "tokenAddress",
            "offset": 0,
            "slot": "0",
            "type": "t_address"
          },
          {
            "astId": 7908,
            "contract": "contracts/networks/ETH_AmbBridge.sol:ETH_AmbBridge",
            "label": "toAddress",
            "offset": 0,
            "slot": "1",
            "type": "t_address"
          },
          {
            "astId": 7910,
            "contract": "contracts/networks/ETH_AmbBridge.sol:ETH_AmbBridge",
            "label": "amount",
            "offset": 0,
            "slot": "2",
            "type": "t_uint256"
          }
        ],
        "numberOfBytes": "96"
      },
      "t_uint256": {
        "encoding": "inplace",
        "label": "uint256",
        "numberOfBytes": "32"
      }
    }
  }
}