{
  "address": "0x088f64638BF0ba326A3e12AD72fc1BcE7058Eb4E",
  "abi": [
    {
      "anonymous": false,
      "inputs": [
        {
          "indexed": false,
          "internalType": "address",
          "name": "account",
          "type": "address"
        }
      ],
      "name": "Paused",
      "type": "event"
    },
    {
      "anonymous": false,
      "inputs": [
        {
          "indexed": true,
          "internalType": "bytes32",
          "name": "role",
          "type": "bytes32"
        },
        {
          "indexed": true,
          "internalType": "bytes32",
          "name": "previousAdminRole",
          "type": "bytes32"
        },
        {
          "indexed": true,
          "internalType": "bytes32",
          "name": "newAdminRole",
          "type": "bytes32"
        }
      ],
      "name": "RoleAdminChanged",
      "type": "event"
    },
    {
      "anonymous": false,
      "inputs": [
        {
          "indexed": true,
          "internalType": "bytes32",
          "name": "role",
          "type": "bytes32"
        },
        {
          "indexed": true,
          "internalType": "address",
          "name": "account",
          "type": "address"
        },
        {
          "indexed": true,
          "internalType": "address",
          "name": "sender",
          "type": "address"
        }
      ],
      "name": "RoleGranted",
      "type": "event"
    },
    {
      "anonymous": false,
      "inputs": [
        {
          "indexed": true,
          "internalType": "bytes32",
          "name": "role",
          "type": "bytes32"
        },
        {
          "indexed": true,
          "internalType": "address",
          "name": "account",
          "type": "address"
        },
        {
          "indexed": true,
          "internalType": "address",
          "name": "sender",
          "type": "address"
        }
      ],
      "name": "RoleRevoked",
      "type": "event"
    },
    {
      "anonymous": false,
      "inputs": [
        {
          "indexed": true,
          "internalType": "uint256",
          "name": "eventId",
          "type": "uint256"
        },
        {
          "components": [
            {
              "internalType": "address",
              "name": "tokenAddress",
              "type": "address"
            },
            {
              "internalType": "address",
              "name": "toAddress",
              "type": "address"
            },
            {
              "internalType": "uint256",
              "name": "amount",
              "type": "uint256"
            }
          ],
          "indexed": false,
          "internalType": "struct CommonStructs.Transfer[]",
          "name": "queue",
          "type": "tuple[]"
        }
      ],
      "name": "Transfer",
      "type": "event"
    },
    {
      "anonymous": false,
      "inputs": [
        {
          "indexed": true,
          "internalType": "uint256",
          "name": "eventId",
          "type": "uint256"
        }
      ],
      "name": "TransferFinish",
      "type": "event"
    },
    {
      "anonymous": false,
      "inputs": [
        {
          "indexed": true,
          "internalType": "uint256",
          "name": "eventId",
          "type": "uint256"
        }
      ],
      "name": "TransferSubmit",
      "type": "event"
    },
    {
      "anonymous": false,
      "inputs": [
        {
          "indexed": false,
          "internalType": "address",
          "name": "account",
          "type": "address"
        }
      ],
      "name": "Unpaused",
      "type": "event"
    },
    {
      "anonymous": false,
      "inputs": [
        {
          "indexed": true,
          "internalType": "address",
          "name": "from",
          "type": "address"
        },
        {
          "indexed": false,
          "internalType": "address",
          "name": "tokenFrom",
          "type": "address"
        },
        {
          "indexed": false,
          "internalType": "address",
          "name": "tokenTo",
          "type": "address"
        },
        {
          "indexed": false,
          "internalType": "uint256",
          "name": "eventId",
          "type": "uint256"
        },
        {
          "indexed": false,
          "internalType": "uint256",
          "name": "feeAmount",
          "type": "uint256"
        }
      ],
      "name": "Withdraw",
      "type": "event"
    },
    {
      "inputs": [],
      "name": "ADMIN_ROLE",
      "outputs": [
        {
          "internalType": "bytes32",
          "name": "",
          "type": "bytes32"
        }
      ],
      "stateMutability": "view",
      "type": "function"
    },
    {
      "inputs": [],
      "name": "DEFAULT_ADMIN_ROLE",
      "outputs": [
        {
          "internalType": "bytes32",
          "name": "",
          "type": "bytes32"
        }
      ],
      "stateMutability": "view",
      "type": "function"
    },
    {
      "inputs": [],
      "name": "RELAY_ROLE",
      "outputs": [
        {
          "internalType": "bytes32",
          "name": "",
          "type": "bytes32"
        }
      ],
      "stateMutability": "view",
      "type": "function"
    },
    {
      "inputs": [
        {
          "internalType": "uint256",
          "name": "fee_",
          "type": "uint256"
        }
      ],
      "name": "changeFee",
      "outputs": [],
      "stateMutability": "nonpayable",
      "type": "function"
    },
    {
      "inputs": [
        {
          "internalType": "address payable",
          "name": "feeRecipient_",
          "type": "address"
        }
      ],
      "name": "changeFeeRecipient",
      "outputs": [],
      "stateMutability": "nonpayable",
      "type": "function"
    },
    {
      "inputs": [
        {
          "internalType": "uint256",
          "name": "lockTime_",
          "type": "uint256"
        }
      ],
      "name": "changeLockTime",
      "outputs": [],
      "stateMutability": "nonpayable",
      "type": "function"
    },
    {
      "inputs": [
        {
          "internalType": "uint256",
          "name": "minSafetyBlocks_",
          "type": "uint256"
        }
      ],
      "name": "changeMinSafetyBlocks",
      "outputs": [],
      "stateMutability": "nonpayable",
      "type": "function"
    },
    {
      "inputs": [
        {
          "internalType": "uint256",
          "name": "timeframeSeconds_",
          "type": "uint256"
        }
      ],
      "name": "changeTimeframeSeconds",
      "outputs": [],
      "stateMutability": "nonpayable",
      "type": "function"
    },
    {
      "inputs": [],
      "name": "fee",
      "outputs": [
        {
          "internalType": "uint256",
          "name": "",
          "type": "uint256"
        }
      ],
      "stateMutability": "view",
      "type": "function"
    },
    {
      "inputs": [
        {
          "internalType": "uint256",
          "name": "eventId",
          "type": "uint256"
        }
      ],
      "name": "getLockedTransfers",
      "outputs": [
        {
          "components": [
            {
              "components": [
                {
                  "internalType": "address",
                  "name": "tokenAddress",
                  "type": "address"
                },
                {
                  "internalType": "address",
                  "name": "toAddress",
                  "type": "address"
                },
                {
                  "internalType": "uint256",
                  "name": "amount",
                  "type": "uint256"
                }
              ],
              "internalType": "struct CommonStructs.Transfer[]",
              "name": "transfers",
              "type": "tuple[]"
            },
            {
              "internalType": "uint256",
              "name": "endTimestamp",
              "type": "uint256"
            }
          ],
          "internalType": "struct CommonStructs.LockedTransfers",
          "name": "",
          "type": "tuple"
        }
      ],
      "stateMutability": "view",
      "type": "function"
    },
    {
      "inputs": [
        {
          "internalType": "bytes32",
          "name": "role",
          "type": "bytes32"
        }
      ],
      "name": "getRoleAdmin",
      "outputs": [
        {
          "internalType": "bytes32",
          "name": "",
          "type": "bytes32"
        }
      ],
      "stateMutability": "view",
      "type": "function"
    },
    {
      "inputs": [
        {
          "internalType": "bytes32",
          "name": "role",
          "type": "bytes32"
        },
        {
          "internalType": "address",
          "name": "account",
          "type": "address"
        }
      ],
      "name": "grantRole",
      "outputs": [],
      "stateMutability": "nonpayable",
      "type": "function"
    },
    {
      "inputs": [
        {
          "internalType": "bytes32",
          "name": "role",
          "type": "bytes32"
        },
        {
          "internalType": "address",
          "name": "account",
          "type": "address"
        }
      ],
      "name": "hasRole",
      "outputs": [
        {
          "internalType": "bool",
          "name": "",
          "type": "bool"
        }
      ],
      "stateMutability": "view",
      "type": "function"
    },
    {
      "inputs": [
        {
          "components": [
            {
              "internalType": "address",
              "name": "sideBridgeAddress",
              "type": "address"
            },
            {
              "internalType": "address",
              "name": "adminAddress",
              "type": "address"
            },
            {
              "internalType": "address",
              "name": "relayAddress",
              "type": "address"
            },
            {
              "internalType": "address",
              "name": "wrappingTokenAddress",
              "type": "address"
            },
            {
              "internalType": "address[]",
              "name": "tokenThisAddresses",
              "type": "address[]"
            },
            {
              "internalType": "address[]",
              "name": "tokenSideAddresses",
              "type": "address[]"
            },
            {
              "internalType": "uint256",
              "name": "fee",
              "type": "uint256"
            },
            {
              "internalType": "address payable",
              "name": "feeRecipient",
              "type": "address"
            },
            {
              "internalType": "uint256",
              "name": "timeframeSeconds",
              "type": "uint256"
            },
            {
              "internalType": "uint256",
              "name": "lockTime",
              "type": "uint256"
            },
            {
              "internalType": "uint256",
              "name": "minSafetyBlocks",
              "type": "uint256"
            }
          ],
          "internalType": "struct CommonStructs.ConstructorArgs",
          "name": "args",
          "type": "tuple"
        },
        {
          "internalType": "uint256",
          "name": "minimumDifficulty",
          "type": "uint256"
        }
      ],
      "name": "initialize",
      "outputs": [],
      "stateMutability": "nonpayable",
      "type": "function"
    },
    {
      "inputs": [],
      "name": "inputEventId",
      "outputs": [
        {
          "internalType": "uint256",
          "name": "",
          "type": "uint256"
        }
      ],
      "stateMutability": "view",
      "type": "function"
    },
    {
      "inputs": [
        {
          "internalType": "uint256",
          "name": "epochIndex",
          "type": "uint256"
        }
      ],
      "name": "isEpochDataSet",
      "outputs": [
        {
          "internalType": "bool",
          "name": "",
          "type": "bool"
        }
      ],
      "stateMutability": "view",
      "type": "function"
    },
    {
      "inputs": [],
      "name": "lockTime",
      "outputs": [
        {
          "internalType": "uint256",
          "name": "",
          "type": "uint256"
        }
      ],
      "stateMutability": "view",
      "type": "function"
    },
    {
      "inputs": [
        {
          "internalType": "uint256",
          "name": "",
          "type": "uint256"
        }
      ],
      "name": "lockedTransfers",
      "outputs": [
        {
          "internalType": "uint256",
          "name": "endTimestamp",
          "type": "uint256"
        }
      ],
      "stateMutability": "view",
      "type": "function"
    },
    {
      "inputs": [],
      "name": "minSafetyBlocks",
      "outputs": [
        {
          "internalType": "uint256",
          "name": "",
          "type": "uint256"
        }
      ],
      "stateMutability": "view",
      "type": "function"
    },
    {
      "inputs": [],
      "name": "oldestLockedEventId",
      "outputs": [
        {
          "internalType": "uint256",
          "name": "",
          "type": "uint256"
        }
      ],
      "stateMutability": "view",
      "type": "function"
    },
    {
      "inputs": [],
      "name": "pause",
      "outputs": [],
      "stateMutability": "nonpayable",
      "type": "function"
    },
    {
      "inputs": [],
      "name": "paused",
      "outputs": [
        {
          "internalType": "bool",
          "name": "",
          "type": "bool"
        }
      ],
      "stateMutability": "view",
      "type": "function"
    },
    {
      "inputs": [
        {
          "internalType": "uint256",
          "name": "eventId",
          "type": "uint256"
        }
      ],
      "name": "removeLockedTransfers",
      "outputs": [],
      "stateMutability": "nonpayable",
      "type": "function"
    },
    {
      "inputs": [
        {
          "internalType": "bytes32",
          "name": "role",
          "type": "bytes32"
        },
        {
          "internalType": "address",
          "name": "account",
          "type": "address"
        }
      ],
      "name": "renounceRole",
      "outputs": [],
      "stateMutability": "nonpayable",
      "type": "function"
    },
    {
      "inputs": [
        {
          "internalType": "bytes32",
          "name": "role",
          "type": "bytes32"
        },
        {
          "internalType": "address",
          "name": "account",
          "type": "address"
        }
      ],
      "name": "revokeRole",
      "outputs": [],
      "stateMutability": "nonpayable",
      "type": "function"
    },
    {
      "inputs": [
        {
          "internalType": "uint256",
          "name": "epochNum",
          "type": "uint256"
        },
        {
          "internalType": "uint256",
          "name": "fullSizeIn128Resultion",
          "type": "uint256"
        },
        {
          "internalType": "uint256",
          "name": "branchDepth",
          "type": "uint256"
        },
        {
          "internalType": "uint256[]",
          "name": "merkleNodes",
          "type": "uint256[]"
        }
      ],
      "name": "setEpochData",
      "outputs": [],
      "stateMutability": "nonpayable",
      "type": "function"
    },
    {
      "inputs": [
        {
          "internalType": "address",
          "name": "_sideBridgeAddress",
          "type": "address"
        }
      ],
      "name": "setSideBridge",
      "outputs": [],
      "stateMutability": "nonpayable",
      "type": "function"
    },
    {
      "inputs": [],
      "name": "sideBridgeAddress",
      "outputs": [
        {
          "internalType": "address",
          "name": "",
          "type": "address"
        }
      ],
      "stateMutability": "view",
      "type": "function"
    },
    {
      "inputs": [
        {
          "components": [
            {
              "components": [
                {
                  "internalType": "bytes3",
                  "name": "p0WithNonce",
                  "type": "bytes3"
                },
                {
                  "internalType": "bytes3",
                  "name": "p0WithoutNonce",
                  "type": "bytes3"
                },
                {
                  "internalType": "bytes",
                  "name": "p1",
                  "type": "bytes"
                },
                {
                  "internalType": "bytes32",
                  "name": "parentOrReceiptHash",
                  "type": "bytes32"
                },
                {
                  "internalType": "bytes",
                  "name": "p2",
                  "type": "bytes"
                },
                {
                  "internalType": "bytes",
                  "name": "difficulty",
                  "type": "bytes"
                },
                {
                  "internalType": "bytes",
                  "name": "p3",
                  "type": "bytes"
                },
                {
                  "internalType": "bytes",
                  "name": "number",
                  "type": "bytes"
                },
                {
                  "internalType": "bytes",
                  "name": "p4",
                  "type": "bytes"
                },
                {
                  "internalType": "bytes",
                  "name": "p5",
                  "type": "bytes"
                },
                {
                  "internalType": "bytes",
                  "name": "nonce",
                  "type": "bytes"
                },
                {
                  "internalType": "bytes",
                  "name": "p6",
                  "type": "bytes"
                },
                {
                  "internalType": "uint256[]",
                  "name": "dataSetLookup",
                  "type": "uint256[]"
                },
                {
                  "internalType": "uint256[]",
                  "name": "witnessForLookup",
                  "type": "uint256[]"
                }
              ],
              "internalType": "struct CheckPoW.BlockPoW[]",
              "name": "blocks",
              "type": "tuple[]"
            },
            {
              "components": [
                {
                  "internalType": "bytes[]",
                  "name": "receiptProof",
                  "type": "bytes[]"
                },
                {
                  "internalType": "uint256",
                  "name": "eventId",
                  "type": "uint256"
                },
                {
                  "components": [
                    {
                      "internalType": "address",
                      "name": "tokenAddress",
                      "type": "address"
                    },
                    {
                      "internalType": "address",
                      "name": "toAddress",
                      "type": "address"
                    },
                    {
                      "internalType": "uint256",
                      "name": "amount",
                      "type": "uint256"
                    }
                  ],
                  "internalType": "struct CommonStructs.Transfer[]",
                  "name": "transfers",
                  "type": "tuple[]"
                }
              ],
              "internalType": "struct CommonStructs.TransferProof",
              "name": "transfer",
              "type": "tuple"
            }
          ],
          "internalType": "struct CheckPoW.PoWProof",
          "name": "powProof",
          "type": "tuple"
        }
      ],
      "name": "submitTransferPoW",
      "outputs": [],
      "stateMutability": "nonpayable",
      "type": "function"
    },
    {
      "inputs": [
        {
          "internalType": "bytes4",
          "name": "interfaceId",
          "type": "bytes4"
        }
      ],
      "name": "supportsInterface",
      "outputs": [
        {
          "internalType": "bool",
          "name": "",
          "type": "bool"
        }
      ],
      "stateMutability": "view",
      "type": "function"
    },
    {
      "inputs": [],
      "name": "timeframeSeconds",
      "outputs": [
        {
          "internalType": "uint256",
          "name": "",
          "type": "uint256"
        }
      ],
      "stateMutability": "view",
      "type": "function"
    },
    {
      "inputs": [
        {
          "internalType": "address",
          "name": "",
          "type": "address"
        }
      ],
      "name": "tokenAddresses",
      "outputs": [
        {
          "internalType": "address",
          "name": "",
          "type": "address"
        }
      ],
      "stateMutability": "view",
      "type": "function"
    },
    {
      "inputs": [
        {
          "internalType": "address",
          "name": "tokenThisAddress",
          "type": "address"
        },
        {
          "internalType": "address",
          "name": "tokenSideAddress",
          "type": "address"
        }
      ],
      "name": "tokensAdd",
      "outputs": [],
      "stateMutability": "nonpayable",
      "type": "function"
    },
    {
      "inputs": [
        {
          "internalType": "address[]",
          "name": "tokenThisAddresses",
          "type": "address[]"
        },
        {
          "internalType": "address[]",
          "name": "tokenSideAddresses",
          "type": "address[]"
        }
      ],
      "name": "tokensAddBatch",
      "outputs": [],
      "stateMutability": "nonpayable",
      "type": "function"
    },
    {
      "inputs": [
        {
          "internalType": "address",
          "name": "tokenThisAddress",
          "type": "address"
        }
      ],
      "name": "tokensRemove",
      "outputs": [],
      "stateMutability": "nonpayable",
      "type": "function"
    },
    {
      "inputs": [
        {
          "internalType": "address[]",
          "name": "tokenThisAddresses",
          "type": "address[]"
        }
      ],
      "name": "tokensRemoveBatch",
      "outputs": [],
      "stateMutability": "nonpayable",
      "type": "function"
    },
    {
      "inputs": [],
      "name": "triggerTransfers",
      "outputs": [],
      "stateMutability": "payable",
      "type": "function"
    },
    {
      "inputs": [
        {
          "internalType": "uint256",
          "name": "eventId",
          "type": "uint256"
        }
      ],
      "name": "unlockTransfers",
      "outputs": [],
      "stateMutability": "nonpayable",
      "type": "function"
    },
    {
      "inputs": [],
      "name": "unlockTransfersBatch",
      "outputs": [],
      "stateMutability": "nonpayable",
      "type": "function"
    },
    {
      "inputs": [],
      "name": "unpause",
      "outputs": [],
      "stateMutability": "nonpayable",
      "type": "function"
    },
    {
      "inputs": [
        {
          "internalType": "address",
          "name": "tokenThisAddress",
          "type": "address"
        },
        {
          "internalType": "address",
          "name": "toAddress",
          "type": "address"
        },
        {
          "internalType": "uint256",
          "name": "amount",
          "type": "uint256"
        },
        {
          "internalType": "bool",
          "name": "unwrapSide",
          "type": "bool"
        }
      ],
      "name": "withdraw",
      "outputs": [],
      "stateMutability": "payable",
      "type": "function"
    },
    {
      "inputs": [
        {
          "internalType": "address",
          "name": "toAddress",
          "type": "address"
        }
      ],
      "name": "wrapWithdraw",
      "outputs": [],
      "stateMutability": "payable",
      "type": "function"
    },
    {
      "inputs": [],
      "name": "wrapperAddress",
      "outputs": [
        {
          "internalType": "address",
          "name": "",
          "type": "address"
        }
      ],
      "stateMutability": "view",
      "type": "function"
    },
    {
      "stateMutability": "payable",
      "type": "receive"
    }
  ],
  "transactionHash": "0x9710b8e9ebf9e4f0dfdc70af6a32c62f1841f7fb58c60d975f5c4cdb57b0dd44",
  "args": [],
  "numDeployments": 1,
  "solcInputHash": "0ae1c281e1ddcc44c23d738b0f3d2f57",
  "bytecode": "0x608060405234801561001057600080fd5b50615af580620000216000396000f3fe6080604052600436106102645760003560e060020a90048063853890ae11610148578063baeebe75116100ba578063e31be0871161007e578063e31be08714610705578063e4e6bba614610732578063e88b662614610745578063f33fe10f14610765578063f862b7eb14610785578063fd5d2ef3146107a557600080fd5b8063baeebe7514610666578063c7b81f4f1461067c578063d547741f146106af578063ddca3f43146106cf578063e1d862be146106e557600080fd5b8063934785b71161010c578063934785b7146105bc57806396cf5227146105cf57806399b5bb64146105ef578063a217fddf14610605578063b6d3385e1461061a578063ba8bbbe01461065057600080fd5b8063853890ae146105315780638ac1f86f146105515780638e5df9c71461056657806391d1485414610586578063924cf6e0146105a657600080fd5b806336568abe116101e15780635c975abb116101a55780635c975abb146104825780636a1db1bf1461049a578063746b5c42146104ba57806375b238fc146104c25780637df8b802146104e45780638456cb591461051c57600080fd5b806336568abe146103dd5780633f4ba83a146103fd57806342180fb8146104125780634a1856de146104325780635249a7051461046257600080fd5b80632360407111610228578063236040711461032d578063248a9ca31461034d57806327ab61fb1461037d5780632f2ff15d1461039d578063331a891a146103bd57600080fd5b806301ffc9a71461027057806304421823146102a557806309fce356146102d55780630d668087146102f757806321d3d5361461030d57600080fd5b3661026b57005b600080fd5b34801561027c57600080fd5b5061029061028b366004614f49565b6107c5565b60405190151581526020015b60405180910390f35b3480156102b157600080fd5b506102c7600080516020615a8083398151915281565b60405190815260200161029c565b3480156102e157600080fd5b506102f56102f0366004614e4a565b610858565b005b34801561030357600080fd5b506102c760d35481565b34801561031957600080fd5b506102f5610328366004614d6c565b610880565b34801561033957600080fd5b506102f5610348366004614d6c565b610910565b34801561035957600080fd5b506102c7610368366004614f0b565b60009081526065602052604090206001015490565b34801561038957600080fd5b506102f5610398366004614f88565b61094c565b3480156103a957600080fd5b506102f56103b8366004614f24565b610a08565b3480156103c957600080fd5b506102f56103d8366004614f0b565b610a2e565b3480156103e957600080fd5b506102f56103f8366004614f24565b610b75565b34801561040957600080fd5b506102f5610c04565b34801561041e57600080fd5b506102f561042d366004614f0b565b610c28565b34801561043e57600080fd5b506102c761044d366004614f0b565b60ca6020526000908152604090206001015481565b34801561046e57600080fd5b506102f561047d366004614e15565b610c47565b34801561048e57600080fd5b5060975460ff16610290565b3480156104a657600080fd5b506102f56104b5366004614f0b565b610ccc565b6102f5610ceb565b3480156104ce57600080fd5b506102c7600080516020615aa083398151915281565b3480156104f057600080fd5b5060cd5461050490600160a060020a031681565b604051600160a060020a03909116815260200161029c565b34801561052857600080fd5b506102f5610df3565b34801561053d57600080fd5b506102f561054c366004614d89565b610e14565b34801561055d57600080fd5b506102f5610e5c565b34801561057257600080fd5b506102f5610581366004614d6c565b610fb4565b34801561059257600080fd5b506102906105a1366004614f24565b610ff5565b3480156105b257600080fd5b506102c760d15481565b6102f56105ca366004614dc2565b611020565b3480156105db57600080fd5b506102f56105ea366004614f0b565b61141d565b3480156105fb57600080fd5b506102c760d45481565b34801561061157600080fd5b506102c7600081565b34801561062657600080fd5b50610504610635366004614d6c565b60cc60205260009081526040902054600160a060020a031681565b34801561065c57600080fd5b506102c760cb5481565b34801561067257600080fd5b506102c760d25481565b34801561068857600080fd5b50610290610697366004614f0b565b600090815260d7602052604090206102000154151590565b3480156106bb57600080fd5b506102f56106ca366004614f24565b61143c565b3480156106db57600080fd5b506102c760ce5481565b3480156106f157600080fd5b506102f56107003660046150a4565b611462565b34801561071157600080fd5b50610725610720366004614f0b565b611596565b60405161029c91906155d4565b6102f5610740366004614d6c565b611652565b34801561075157600080fd5b506102f56107603660046150fb565b6118f8565b34801561077157600080fd5b5060d05461050490600160a060020a031681565b34801561079157600080fd5b506102f56107a0366004614f0b565b6119be565b3480156107b157600080fd5b506102f56107c0366004614f0b565b611bf1565b60007bffffffffffffffffffffffffffffffffffffffffffffffffffffffff1982167f7965db0b00000000000000000000000000000000000000000000000000000000148061085257507f01ffc9a7000000000000000000000000000000000000000000000000000000007bffffffffffffffffffffffffffffffffffffffffffffffffffffffff198316145b92915050565b600080516020615aa08339815191526108718133611c10565b61087b8383611c77565b505050565b600061088c8133611c10565b60d054600160a060020a0316156108ed5760405160e560020a62461bcd02815260206004820152601d60248201527f736964654272696467654164647265737320616c72656164792073657400000060448201526064015b60405180910390fd5b5060d08054600160a060020a031916600160a060020a0392909216919091179055565b600080516020615aa08339815191526109298133611c10565b5060cf8054600160a060020a031916600160a060020a0392909216919091179055565b600054610100900460ff1680610965575060005460ff16155b6109845760405160e560020a62461bcd0281526004016108e490615577565b600054610100900460ff161580156109a6576000805461ffff19166101011790555b6109af83611d8d565b6109b882611ec6565b60007fe15729a2f427aa4572dab35eb692c902fcbce57d41642013259c741380809ae260c96040516109ea919061549d565b60405180910390a2801561087b576000805461ff0019169055505050565b600082815260656020526040902060010154610a248133611c10565b61087b8383611f3a565b600080516020615aa0833981519152610a478133611c10565b60975460ff16610a9c5760405160e560020a62461bcd02815260206004820152601460248201527f5061757361626c653a206e6f742070617573656400000000000000000000000060448201526064016108e4565b60cb54821015610b175760405160e560020a62461bcd02815260206004820152602660248201527f6576656e744964206d757374206265203e3d206f6c646573744c6f636b65644560448201527f76656e744964000000000000000000000000000000000000000000000000000060648201526084016108e4565b600082815260ca602052604090206001015415610b6357600082815260ca6020526040812090610b478282614aeb565b5060006001919091015581610b5b816159c9565b925050610b17565b610b6e60018361580a565b60d4555050565b600160a060020a0381163314610bf65760405160e560020a62461bcd02815260206004820152602f60248201527f416363657373436f6e74726f6c3a2063616e206f6e6c792072656e6f756e636560448201527f20726f6c657320666f722073656c66000000000000000000000000000000000060648201526084016108e4565b610c008282611fc0565b5050565b600080516020615aa0833981519152610c1d8133611c10565b610c25612027565b50565b600080516020615aa0833981519152610c418133611c10565b5060d255565b600080516020615aa0833981519152610c608133611c10565b815160005b81811015610cc65760cc6000858381518110610c8357610c83615a2a565b602090810291909101810151600160a060020a031682528101919091526040016000208054600160a060020a031916905580610cbe816159c9565b915050610c65565b50505050565b600080516020615aa0833981519152610ce58133611c10565b5060ce55565b610d03600080516020615a8083398151915233610ff5565b610d995760ce543414610d5b5760405160e560020a62461bcd02815260206004820152601b60248201527f53656e742076616c7565206973206e6f7420657175616c20666565000000000060448201526064016108e4565b60cf5460ce54604051600160a060020a039092169181156108fc0291906000818181858888f19350505050158015610d97573d6000803e3d6000fd5b505b60d58054906000610da9836159c9565b919050557fe15729a2f427aa4572dab35eb692c902fcbce57d41642013259c741380809ae260c9604051610ddd919061549d565b60405180910390a2610df160c96000614aeb565b565b600080516020615aa0833981519152610e0c8133611c10565b610c256120c6565b600080516020615aa0833981519152610e2d8133611c10565b50600160a060020a03918216600090815260cc602052604090208054600160a060020a03191691909216179055565b60975460ff1615610e825760405160e560020a62461bcd0281526004016108e490615540565b60cb545b600081815260ca60209081526040808320815181546060948102820185018452928101838152909391928492849190879085015b82821015610f1457600084815260209081902060408051606081018252600386029092018054600160a060020a03908116845260018083015490911684860152600290910154918301919091529083529092019101610eba565b5050505081526020016001820154815250509050806020015160001480610f3e5750428160200151115b15610f49575060cb55565b8051610f5490612121565b600082815260ca6020526040812090610f6d8282614aeb565b50600060019190910181905560405183917f78ff9b3176bb0d6421590f3816e75cb15a9ffa2b7a1a028f40a3f4e029eb39f291a25080610fac816159c9565b915050610e86565b600080516020615aa0833981519152610fcd8133611c10565b50600160a060020a0316600090815260cc602052604090208054600160a060020a0319169055565b6000918252606560209081526040808420600160a060020a0393909316845291905290205460ff1690565b600081156110b5576000805260cc6020527f435daec636ce435a90bde0aeec309a303a359a854c5a51b7d6a5a941d6db609454600160a060020a038681169116146110b05760405160e560020a62461bcd02815260206004820152601f60248201527f546f6b656e206e6f7420706f696e7420746f206e617469766520746f6b656e0060448201526064016108e4565b611121565b50600160a060020a03808516600090815260cc602052604090205416806111215760405160e560020a62461bcd02815260206004820152601560248201527f556e6b6e6f776e20746f6b656e2061646472657373000000000000000000000060448201526064016108e4565b600083116111745760405160e560020a62461bcd02815260206004820152601160248201527f43616e6e6f74207769746864726177203000000000000000000000000000000060448201526064016108e4565b60ce5434146111c85760405160e560020a62461bcd02815260206004820152601160248201527f53656e742076616c756520213d2066656500000000000000000000000000000060448201526064016108e4565b60cf54604051600160a060020a03909116903480156108fc02916000818181858888f19350505050158015611201573d6000803e3d6000fd5b506040517f23b872dd00000000000000000000000000000000000000000000000000000000815233600482015230602482015260448101849052600160a060020a038616906323b872dd90606401602060405180830381600087803b15801561126957600080fd5b505af115801561127d573d6000803e3d6000fd5b505050506040513d601f19601f820116820180604052508101906112a19190614eae565b6112f05760405160e560020a62461bcd02815260206004820152601360248201527f4661696c207472616e7366657220636f696e730000000000000000000000000060448201526064016108e4565b6040805160608082018352600160a060020a0384811680845288821660208086019182528587018a815260c98054600181018255600091909152965160039097027f66be4f155c5ef2ebd3772b228f2f00681e4ed5826cdb3b1943cc11ad15ad1d2881018054988716600160a060020a0319998a1617905592517f66be4f155c5ef2ebd3772b228f2f00681e4ed5826cdb3b1943cc11ad15ad1d2984018054918716919098161790965594517f66be4f155c5ef2ebd3772b228f2f00681e4ed5826cdb3b1943cc11ad15ad1d2a9091015560d55460ce548651938c168452948301919091529381019390935282015233907ffbde797d201c681b91056529119e0b02407c7bb96a4a2c75c01fc9667232c8db9060800160405180910390a26114166123b5565b5050505050565b600080516020615aa08339815191526114368133611c10565b5060d355565b6000828152606560205260409020600101546114588133611c10565b61087b8383611fc0565b600080516020615a8083398151915261147b8133611c10565b60975460ff16156114a15760405160e560020a62461bcd0281526004016108e490615540565b6114ae6020830183615707565b602001357f196c47048e38df7a4fe6e581c8f4f2e2ba67ac0dd45b90da756e97bd61d9dd3b60405160405180910390a26114f76114ee6020840184615707565b6020013561242d565b60d05461150e908390600160a060020a0316612492565b610c0061151e6020840184615707565b61152c906040810190615656565b808060200260200160405190810160405280939291908181526020016000905b8282101561157857611569606083028601368190038101906150df565b8152602001906001019061154c565b505050505083806020019061158d9190615707565b602001356125c8565b604080518082019091526060815260006020820152600082815260ca60209081526040808320815181546060948102820185018452928101838152909491938593919285929185015b8282101561163957600084815260209081902060408051606081018252600386029092018054600160a060020a039081168452600180830154909116848601526002909101549183019190915290835290920191016115df565b5050505081526020016001820154815250509050919050565b60cd54600160a060020a03908116600090815260cc602052604090205416806116c05760405160e560020a62461bcd02815260206004820152601560248201527f556e6b6e6f776e20746f6b656e2061646472657373000000000000000000000060448201526064016108e4565b60ce5434116117145760405160e560020a62461bcd02815260206004820152601160248201527f53656e742076616c7565203c3d2066656500000000000000000000000000000060448201526064016108e4565b60cf5460ce54604051600160a060020a039092169181156108fc0291906000818181858888f19350505050158015611750573d6000803e3d6000fd5b50600060ce5434611761919061580a565b905060cd60009054906101000a9004600160a060020a0316600160a060020a031663d0e30db0826040518263ffffffff1660e060020a0281526004016000604051808303818588803b1580156117b657600080fd5b505af11580156117ca573d6000803e3d6000fd5b50506040805160608082018352600160a060020a038881168084528a821660208086019182528587018b815260c980546001810182556000918252975160039098027f66be4f155c5ef2ebd3772b228f2f00681e4ed5826cdb3b1943cc11ad15ad1d2881018054998816600160a060020a03199a8b1617905593517f66be4f155c5ef2ebd3772b228f2f00681e4ed5826cdb3b1943cc11ad15ad1d29850180549190971698169790971790945592517f66be4f155c5ef2ebd3772b228f2f00681e4ed5826cdb3b1943cc11ad15ad1d2a9091015560d55460ce54865195865292850191909152938301939093528101919091523393507ffbde797d201c681b91056529119e0b02407c7bb96a4a2c75c01fc9667232c8db9250608001905060405180910390a261087b6123b5565b600285106119415760d7600061190f60028861580a565b81526020019081526020016000206000808201600061192e9190614b0c565b5060006102008201819055610201909101555b600085815260d76020526040812082915b8281101561199a5784848281811061196c5761196c615a2a565b905060200201358282610200811061198657611986615a2a565b015580611992816159c9565b915050611952565b5050506000948552505060d760205260409092206102008101919091556102010155565b60975460ff16156119e45760405160e560020a62461bcd0281526004016108e490615540565b60cb548114611a385760405160e560020a62461bcd02815260206004820152601c60248201527f63616e20756e6c6f636b206f6e6c79206f6c64657374206576656e740000000060448201526064016108e4565b600081815260ca60209081526040808320815181546060948102820185018452928101838152909391928492849190879085015b82821015611ac657600084815260209081902060408051606081018252600386029092018054600160a060020a03908116845260018083015490911684860152600290910154918301919091529083529092019101611a6c565b50505050815260200160018201548152505090506000816020015111611b315760405160e560020a62461bcd02815260206004820181905260248201527f6e6f206c6f636b6564207472616e73666572732077697468207468697320696460448201526064016108e4565b42816020015110611b875760405160e560020a62461bcd02815260206004820152601b60248201527f6c6f636b54696d6520686173206e6f742079657420706173736564000000000060448201526064016108e4565b8051611b9290612121565b600082815260ca6020526040812090611bab8282614aeb565b50600060019190910181905560405183917f78ff9b3176bb0d6421590f3816e75cb15a9ffa2b7a1a028f40a3f4e029eb39f291a2611bea8260016157bf565b60cb555050565b600080516020615aa0833981519152611c0a8133611c10565b5060d155565b611c1a8282610ff5565b610c0057611c3281600160a060020a0316601461268b565b611c3d83602061268b565b604051602001611c4e929190615409565b60408051601f198184030181529082905260e560020a62461bcd0282526108e49160040161550d565b8051825114611cf15760405160e560020a62461bcd02815260206004820152603f60248201527f73697a6573206f6620746f6b656e5468697341646472657373657320616e642060448201527f746f6b656e53696465416464726573736573206d7573742062652073616d650060648201526084016108e4565b815160005b81811015610cc657828181518110611d1057611d10615a2a565b602002602001015160cc6000868481518110611d2e57611d2e615a2a565b6020026020010151600160a060020a0316600160a060020a0316815260200190815260200160002060006101000a815481600160a060020a030219169083600160a060020a031602179055508080611d85906159c9565b915050611cf6565b600054610100900460ff1680611da6575060005460ff16155b611dc55760405160e560020a62461bcd0281526004016108e490615577565b600054610100900460ff16158015611de7576000805461ffff19166101011790555b611df2600033612878565b611e0e600080516020615a808339815191528360400151612878565b611e2a600080516020615aa08339815191528360200151612878565b611e3c82608001518360a00151611c77565b606082015160cd8054600160a060020a03928316600160a060020a031991821617909155835160d0805491841691831691909117905560c084015160ce5560e084015160cf805491909316911617905561014082015160d15561010082015160d25561012082015160d355600160cb81905560d5558015610c00576000805461ff00191690555050565b600054610100900460ff1680611edf575060005460ff16155b611efe5760405160e560020a62461bcd0281526004016108e490615577565b600054610100900460ff16158015611f20576000805461ffff19166101011790555b60d88290558015610c00576000805461ff00191690555050565b611f448282610ff5565b610c00576000828152606560209081526040808320600160a060020a03851684529091529020805460ff19166001179055611f7c3390565b600160a060020a031681600160a060020a0316837f2f8788117e7eff1d82e926ec794901d17c78024a50270940304540a733656f0d60405160405180910390a45050565b611fca8282610ff5565b15610c00576000828152606560209081526040808320600160a060020a0385168085529252808320805460ff1916905551339285917ff6391f5c32d9c69d2a47ea670b442974b53935d1edc7fd64eb21e047a839171b9190a45050565b60975460ff1661207c5760405160e560020a62461bcd02815260206004820152601460248201527f5061757361626c653a206e6f742070617573656400000000000000000000000060448201526064016108e4565b6097805460ff191690557f5db9ee0a495bf2e6ff9c91a7834c1ba4fdd244a5e8aa4e537bd38aeae4b073aa335b604051600160a060020a03909116815260200160405180910390a1565b60975460ff16156120ec5760405160e560020a62461bcd0281526004016108e490615540565b6097805460ff191660011790557f62e78cea01bee320cd4e420270b5ea74000d11b0c9f74754ebdbfc544b05a2586120a93390565b60005b8151811015610c00576000600160a060020a031682828151811061214a5761214a615a2a565b602002602001015160000151600160a060020a031614156122665760cd548251600160a060020a0390911690632e1a7d4d9084908490811061218e5761218e615a2a565b6020026020010151604001516040518263ffffffff1660e060020a0281526004016121bb91815260200190565b600060405180830381600087803b1580156121d557600080fd5b505af11580156121e9573d6000803e3d6000fd5b505050508181815181106121ff576121ff615a2a565b602002602001015160200151600160a060020a03166108fc83838151811061222957612229615a2a565b6020026020010151604001519081150290604051600060405180830381858888f19350505050158015612260573d6000803e3d6000fd5b506123a3565b81818151811061227857612278615a2a565b602002602001015160000151600160a060020a031663a9059cbb8383815181106122a4576122a4615a2a565b6020026020010151602001518484815181106122c2576122c2615a2a565b6020026020010151604001516040518363ffffffff1660e060020a028152600401612302929190600160a060020a03929092168252602082015260400190565b602060405180830381600087803b15801561231c57600080fd5b505af1158015612330573d6000803e3d6000fd5b505050506040513d601f19601f820116820180604052508101906123549190614eae565b6123a35760405160e560020a62461bcd02815260206004820152601360248201527f4661696c207472616e7366657220636f696e730000000000000000000000000060448201526064016108e4565b806123ad816159c9565b915050612124565b600060d254426123c591906157d7565b905060d6548114610c255760d580549060006123e0836159c9565b919050557fe15729a2f427aa4572dab35eb692c902fcbce57d41642013259c741380809ae260c9604051612414919061549d565b60405180910390a261242860c96000614aeb565b60d655565b60d46000815461243c906159c9565b91829055508114610c255760405160e560020a62461bcd02815260206004820152601460248201527f4576656e744964206f7574206f66206f7264657200000000000000000000000060448201526064016108e4565b60006124b36124a46020850185615707565b6124ad9061584a565b83612882565b905060005b6124c28480615606565b9050811015610cc657816124d68580615606565b838181106124e6576124e6615a2a565b90506020028101906124f891906156e6565b606001351461254c5760405160e560020a62461bcd02815260206004820152601f60248201527f706172656e7448617368206f722072656365697074486173682077726f6e670060448201526064016108e4565b6125806125598580615606565b8381811061256957612569615a2a565b905060200281019061257b91906156e6565b612977565b91506125b661258f8580615606565b8381811061259f5761259f615a2a565b90506020028101906125b191906156e6565b612a81565b806125c0816159c9565b9150506124b8565b60d3546125d590426157bf565b600082815260ca60205260408120600101919091555b825181101561087b57600082815260ca60205260409020835184908390811061261657612616615a2a565b60209081029190910181015182546001808201855560009485529383902082516003909202018054600160a060020a0319908116600160a060020a0393841617825593830151948101805490941694909116939093179091556040015160029091015580612683816159c9565b9150506125eb565b6060600061269a8360026157eb565b6126a59060026157bf565b67ffffffffffffffff8111156126bd576126bd615a43565b6040519080825280601f01601f1916602001820160405280156126e7576020820181803683370190505b5090507f30000000000000000000000000000000000000000000000000000000000000008160008151811061271e5761271e615a2a565b6020010190600160f860020a031916908160001a9053507f78000000000000000000000000000000000000000000000000000000000000008160018151811061276957612769615a2a565b6020010190600160f860020a031916908160001a905350600061278d8460026157eb565b6127989060016157bf565b90505b600181111561281f577f303132333435363738396162636465660000000000000000000000000000000085600f16601081106127d9576127d9615a2a565b1a60f860020a028282815181106127f2576127f2615a2a565b6020010190600160f860020a031916908160001a905350601090940493612818816159b2565b905061279b565b5083156128715760405160e560020a62461bcd02815260206004820181905260248201527f537472696e67733a20686578206c656e67746820696e73756666696369656e7460448201526064016108e4565b9392505050565b610c008282611f3a565b600080836000015160008151811061289c5761289c615a2a565b60200260200101518385600001516001815181106128bc576128bc615a2a565b60200260200101516128d18760200151612bd7565b8751805160029081106128e6576128e6615a2a565b60200260200101518860400151604051602001612903919061548a565b604051602081830303815290604052896000015160038151811061292957612929615a2a565b602002602001015160405160200161294797969594939291906152f8565b60405160208183030381529060405280519060200120905061296f8460000151826004612d3f565b949350505050565b60006129866020830183614ecb565b612993604084018461569f565b60608501356129a5608087018761569f565b6129b260a089018961569f565b6129bf60c08b018b61569f565b6040516020016129d89a99989796959493929190615230565b60408051601f198184030181529190526129f560e084018461569f565b612a0361010086018661569f565b612a1161012088018861569f565b612a1f6101408a018a61569f565b612a2d6101608c018c61569f565b604051602001612a469a999897969594939291906152ac565b60408051601f1981840301815290829052612a6492916020016153da565b604051602081830303815290604052805190602001209050919050565b6000612acd612a9360a084018461569f565b8080601f016020809104026020016040519081016040528093929190818152602001838380828437600092019190915250612def92505050565b905060d854811015612b245760405160e560020a62461bcd02815260206004820152601260248201527f646966666963756c747920746f6f206c6f77000000000000000000000000000060448201526064016108e4565b610c00612b37612a9360e085018561569f565b612b4084612e22565b612b51612a9361014087018761569f565b84612b60610180880188615606565b80806020026020016040519081016040528093929190818152602001838360200280828437600092019190915250612ba0925050506101a0890189615606565b80806020026020016040519081016040528093929190818152602001838360200280828437600092019190915250612f1292505050565b6040805160208082528183019092526060916000919060208201818036833701905050905082602082015260005b6020811015612c6e57818181518110612c2057612c20615a2a565b60209101015160f860020a90819004027fff000000000000000000000000000000000000000000000000000000000000001615612c5c57612c6e565b80612c66816159c9565b915050612c05565b6000612c7b82602061580a565b67ffffffffffffffff811115612c9357612c93615a43565b6040519080825280601f01601f191660200182016040528015612cbd576020820181803683370190505b50905060005b8151811015612d36578383612cd7816159c9565b945081518110612ce957612ce9615a2a565b602001015160f860020a900460f860020a02828281518110612d0d57612d0d615a2a565b6020010190600160f860020a031916908160001a90535080612d2e816159c9565b915050612cc3565b50949350505050565b60006060825b8551811015612de557858181518110612d6057612d60615a2a565b60200260200101518587836001612d7791906157bf565b81518110612d8757612d87615a2a565b6020026020010151604051602001612da1939291906153a3565b60405160208183030381529060405291506020825111612dc957612dc482615821565b612dd1565b815160208301205b9450612dde6002826157bf565b9050612d45565b5092949350505050565b600081516008612dff91906157eb565b612e0b9061010061580a565b612e1483615821565b60029190910a900492915050565b600080612e356040840160208501614ecb565b612e42604085018561569f565b6060860135612e54608088018861569f565b604051602001612e69969594939291906151dc565b60408051601f19818403018152919052612e8660a085018561569f565b612e9360c087018761569f565b612ea060e089018961569f565b612eae6101008b018b61569f565b612ebc6101608d018d61569f565b604051602001612ed59a999897969594939291906152ac565b60408051601f1981840301815290829052612ef392916020016153da565b60408051601f1981840301815291905280516020909101209392505050565b6000612f20617530886157d7565b90506000612f318787868686612f9b565b9050612f3f856000196157d7565b811115612f915760405160e560020a62461bcd02815260206004820152601960248201527f45746861736820646966666963756c747920746f6f206c6f770000000000000060448201526064016108e4565b5050505050505050565b600080612fa88787613288565b9050612fb2614b1c565b612fba614b3b565b600085815260d76020526040812061020181015461020090910154909180826130285760405160e560020a62461bcd02815260206004820152601160248201527f45706f636844617461206e6f742073657400000000000000000000000000000060448201526064016108e4565b600091505b601082101561305f57602082028781018051918801918252516102009091015281613057816159c9565b92505061302d565b600091505b60408210156131e857865160009084906130a0908518896130866020886159e4565b6020811061309657613096615a2a565b602002015161332f565b6130aa91906159e4565b90506130b68a8261334f565b6130c382858f8f8a6133b4565b146131135760405160e560020a62461bcd02815260206004820152600a60248201527f506f57206661696c65640000000000000000000000000000000000000000000060448201526064016108e4565b600091505b60088210156131d557602060808481028e0182810180519386028b01805163ffffffff9586166301000193918202188616825260408401805161010084018051918916918402919091188816905260608501805161020085018051918a169185029190911889169052949095018051610300909301805193881693909202929092189095169094528051640100000000908190049091528251819004909252805182900490528151049052816131cd816159c9565b925050613118565b50816131e0816159c9565b925050613064565b600091505b602082101561326d5761323a61322e61322288856020811061321157613211615a2a565b6020020151896130868760016157bf565b886130868660026157bf565b876130868560036157bf565b856132466004856157d7565b6008811061325657613256615a2a565b60200201526132666004836157bf565b91506131ed565b613277878661358f565b9d9c50505050505050505050505050565b613290614b5a565b613298614b79565b6132a1846138c7565b67ffffffffffffffff8116825293506132c368010000000000000000856157d7565b67ffffffffffffffff8116602083015293506132e868010000000000000000856157d7565b67ffffffffffffffff81166040830152935061330d68010000000000000000856157d7565b67ffffffffffffffff8116606083015260808201849052935061296f81613909565b6000816133408463010001936157eb565b1863ffffffff16905092915050565b600082815260d760205260408120610201810154600290810a84049183918304610200811061338057613380615a2a565b0154905061338f6002836159e4565b6133a5576001608060020a031691506108529050565b608060020a9004949350505050565b6000806133c18587613c1e565b6001608060020a031690506000808080806133dd6002896159e4565b60029098049711905060006133f2888c6157eb565b90508115613407576134048b826157bf565b90505b60005b888110156135025760208282010260208b01015193508c60011660001415613440578695506001608060020a0384169450613450565b6001608060020a03841695508694505b604080516020810188905290810186905260600160408051601f1981840301815291905280516020909101206002909d049c6001608060020a0316965060018d166134a657869550608060020a840494506134b3565b608060020a840495508694505b604080516020810188905290810186905260600160408051601f1981840301815291905280516020909101206002909d049c6001608060020a03169650806134fa816159c9565b91505061340a565b821561357e5760208282010260208b01015193508c60011660001415613536578695506001608060020a0384169450613546565b6001608060020a03841695508694505b604080516020810188905290810186905260600160408051601f1981840301815291905280516020909101206001608060020a031696505b50949b9a5050505050505050505050565b60008083600760200201516135b1906c010000000000000000000000006157eb565b60c08501516135c990680100000000000000006157eb565b60a08601516135dd906401000000006157eb565b60808701516135ec91906157bf565b6135f691906157bf565b61360091906157bf565b61360e90608060020a6157eb565b606085015161362a906c010000000000000000000000006157eb565b604086015161364290680100000000000000006157eb565b6020870151613656906401000000006157eb565b875161366291906157bf565b61366c91906157bf565b61367691906157bf565b61368091906157bf565b9050600084600f60200201516136a3906c010000000000000000000000006157eb565b6101c08601516136bc90680100000000000000006157eb565b6101a08701516136d1906401000000006157eb565b6101808801516136e191906157bf565b6136eb91906157bf565b6136f591906157bf565b61370390608060020a6157eb565b610160860151613720906c010000000000000000000000006157eb565b61014087015161373990680100000000000000006157eb565b61012088015161374e906401000000006157eb565b61010089015161375e91906157bf565b61376891906157bf565b61377291906157bf565b61377c91906157bf565b90506000846007602002015161379f906c010000000000000000000000006157eb565b60c08601516137b790680100000000000000006157eb565b60a08701516137cb906401000000006157eb565b60808801516137da91906157bf565b6137e491906157bf565b6137ee91906157bf565b6137fc90608060020a6157eb565b6060860151613818906c010000000000000000000000006157eb565b604087015161383090680100000000000000006157eb565b6020880151613844906401000000006157eb565b885161385091906157bf565b61385a91906157bf565b61386491906157bf565b61386e91906157bf565b9050613879836138c7565b613882836138c7565b61388b836138c7565b604080516020810194909452830191909152606082015260800160408051808303601f1901815291905280516020909101209695505050505050565b60008060005b6020811015613902576138e760ff851661010084026157bf565b610100909404939150806138fa816159c9565b9150506138cd565b5092915050565b613911614b5a565b61391d600960086157eb565b60481461396f5760405160e560020a62461bcd02815260206004820152600c60248201527f73706f6e6765206572726f72000000000000000000000000000000000000000060448201526064016108e4565b600160a08301526780000000000000006101008301526048600860006139966009836157eb565b90506139a0614b98565b600080805b6139af87866157d7565b831015613ad257600091505b6005821015613ab5575060005b6005811015613aa3576139db86886157d7565b6139e68360056157eb565b6139f090836157bf565b1015613a915788613a028360056157eb565b82613a0e8660096157eb565b613a1891906157bf565b613a2291906157bf565b60098110613a3257613a32615a2a565b60200201518483613a448460056157eb565b613a4e91906157bf565b60198110613a5e57613a5e615a2a565b6020020151188483613a718460056157eb565b613a7b91906157bf565b60198110613a8b57613a8b615a2a565b60200201525b80613a9b816159c9565b9150506139c8565b81613aad816159c9565b9250506139bb565b613abe84613d1f565b935082613aca816159c9565b9350506139a5565b613ada614b5a565b60005b6010811015613c1057600093505b6005841015613c0b57600092505b6005831015613bf957613b0c888a6157d7565b613b178560056157eb565b613b2190856157bf565b108015613b2e5750601081105b15613be7578584613b408560056157eb565b613b4a91906157bf565b60198110613b5a57613b5a615a2a565b602002015163ffffffff16828260108110613b7757613b77615a2a565b60200201526401000000008685613b8f8660056157eb565b613b9991906157bf565b60198110613ba957613ba9615a2a565b6020020151613bb891906157d7565b82613bc48360016157bf565b60108110613bd457613bd4615a2a565b6020020152613be46002826157bf565b90505b82613bf1816159c9565b935050613af9565b83613c03816159c9565b945050613aeb565b613add565b509998505050505050505050565b600082613c2c8360046157eb565b81518110613c3c57613c3c615a2a565b602002602001015183836004613c5291906157eb565b613c5d9060016157bf565b81518110613c6d57613c6d615a2a565b602002602001015184846004613c8391906157eb565b613c8e9060026157bf565b81518110613c9e57613c9e615a2a565b602002602001015185856004613cb491906157eb565b613cbf9060036157bf565b81518110613ccf57613ccf615a2a565b6020026020010151604051602001613d00949392919093845260208401929092526040830152606082015260800190565b60408051808303601f1901815291905280516020909101209392505050565b613d27614b98565b613d2f614b98565b613d37614bb7565b613d3f614bb7565b600060405180610300016040528060018152602001618082815260200167800000000000808a8152602001678000000080008000815260200161808b81526020016380000001815260200167800000008000808181526020016780000000000080098152602001608a81526020016088815260200163800080098152602001638000000a8152602001638000808b815260200167800000000000008b8152602001678000000000008089815260200167800000000000800381526020016780000000000080028152602001678000000000000080815260200161800a815260200167800000008000000a81526020016780000000800080818152602001678000000000008080815260200163800000018152602001678000000080008008815250905060005b6018811015614ae0576080808801516060808a01516040808c01516020808e01518e511890911890921890931888526101208b01516101008c015160e08d015160c08e015160a08f0151181818189088018190526101c08b01516101a08c01516101808d01516101608e01516101408f015118181818928801929092526102608a01516102408b01516102208c01516102008d01516101e08e015118181818908701526103008901516102e08a01516102c08b01516102a08c01516102808d01511818181891860191909152613f4490678000000000000000906157d7565b6020850151613f549060026157eb565b608086015167ffffffffffffffff91909116919091171883526040840151613f8590678000000000000000906157d7565b6040850151613f959060026157eb565b855167ffffffffffffffff91909116919091171860208401526060840151613fc690678000000000000000906157d7565b6060850151613fd69060026157eb565b67ffffffffffffffff16178460016020020151188360026020020152678000000000000000846004602002015161400d91906157d7565b608085015161401d9060026157eb565b604086015167ffffffffffffffff9190911691909117186060840152835161404e90678000000000000000906157d7565b845161405b9060026157eb565b60608087015167ffffffffffffffff929092169290921718608080860191825285518a5118808b52865160208c81018051909218825288516040808f01805190921890915289518e8801805190911890528951948e0180519095189094528801805160a08e0180519091189052805160c08e0180519091189052805160e08e018051909118905280516101008e0180519091189052516101208d018051909118905291870180516101408d018051909118905280516101608d018051909118905280516101808d018051909118905280516101a08d0180519091189052516101c08c018051909118905292860180516101e08c018051909118905280516102008c018051909118905280516102208c018051909118905280516102408c0180519091189052516102608b018051909118905281516102808b018051909118905281516102a08b018051909118905281516102c08b018051909118905281516102e08b018051909118905290516103008a0180519091189052908652516141e6906310000000906157d7565b60208801516141fa906410000000006157eb565b67ffffffffffffffff1617610100860152604087015161422390672000000000000000906157d7565b60408801516142339060086157eb565b67ffffffffffffffff161761016086015260608701516142579062800000906157d7565b606088015161426c90650200000000006157eb565b67ffffffffffffffff161761026086015260808701516142939065400000000000906157d7565b60808801516142a590620400006157eb565b67ffffffffffffffff16176102c086015260a08701516142ce90678000000000000000906157d7565b60a08801516142de9060026157eb565b67ffffffffffffffff1617604086015260c08701516143019062100000906157d7565b60c088015161431690651000000000006157eb565b67ffffffffffffffff161760a086015260e087015161433d906640000000000000906157d7565b60e088015161434e906104006157eb565b67ffffffffffffffff16176101a08601526101008701516143739062080000906157d7565b61010088015161438990652000000000006157eb565b67ffffffffffffffff16176102008601526101208701516143b390674000000000000000906157d7565b6101208801516143c49060046157eb565b67ffffffffffffffff16176103008601526101408701516143e7906004906157d7565b6101408801516143ff906740000000000000006157eb565b67ffffffffffffffff1617608086015261016087015161442890670400000000000000906157d7565b6101608801516144399060406157eb565b67ffffffffffffffff161760e086015261018087015161445d9062200000906157d7565b61018088015161447390650800000000006157eb565b67ffffffffffffffff16176101408601526101a087015161449c906602000000000000906157d7565b6101a08801516144ae906180006157eb565b67ffffffffffffffff16176102408601526101c08701516144d1906008906157d7565b6101c08801516144e9906720000000000000006157eb565b67ffffffffffffffff16176102a08601526101e087015161451090641000000000906157d7565b6101e08801516145249063100000006157eb565b67ffffffffffffffff161760208601526102008781015161454591906157d7565b61020088015161455c9066800000000000006157eb565b67ffffffffffffffff161761012086015261022087015161458390648000000000906157d7565b6102208801516145979063020000006157eb565b67ffffffffffffffff16176101808601526102408701516145bf9065080000000000906157d7565b6102408801516145d290622000006157eb565b67ffffffffffffffff16176101e08601526102608701516145f690610100906157d7565b61026088015161460e906701000000000000006157eb565b67ffffffffffffffff16176102e086015261028087015161463590642000000000906157d7565b6102808801516146499063080000006157eb565b67ffffffffffffffff161760608601526102a08701516146709065100000000000906157d7565b6102a088015161468390621000006157eb565b67ffffffffffffffff161760c08601526102c08701516146a8906302000000906157d7565b6102c08801516146bd906480000000006157eb565b67ffffffffffffffff16176101c08601526102e08701516146e790670100000000000000906157d7565b6102e08801516146f9906101006157eb565b67ffffffffffffffff1617610220860152610300870151614722906604000000000000906157d7565b610300880151614734906140006157eb565b67ffffffffffffffff1617856014602002015284600a602002015185600560200201511916856000602002015118876000602002015284600b602002015185600660200201511916856001602002015118876001602002015284600c602002015185600760200201511916856002602002015118876002602002015284600d602002015185600860200201511916856003602002015118876003602002015284600e602002015185600960200201511916856004602002015118876004602002015284600f602002015185600a602002015119168560056020020151188760056020020152846010602002015185600b602002015119168560066020020151188760066020020152846011602002015185600c602002015119168560076020020151188760076020020152846012602002015185600d602002015119168560086020020151188760086020020152846013602002015185600e602002015119168560096020020151188760096020020152846014602002015185600f6020020151191685600a60200201511887600a602002015284601560200201518560106020020151191685600b60200201511887600b602002015284601660200201518560116020020151191685600c60200201511887600c602002015284601760200201518560126020020151191685600d60200201511887600d602002015284601860200201518560136020020151191685600e60200201511887600e602002015284600060200201518560146020020151191685600f60200201511887600f6020020152846001602002015185601560200201511916856010602002015118876010602002015284600260200201518560166020020151191685601160200201511887601160200201528460036020020151856017602002015119168560126020020151188760126020020152846004602002015185601860200201511916856013602002015118876013602002015284600560200201518560006020020151191685601460200201511887601460200201528460066020020151856001602002015119168560156020020151188760156020020152846007602002015185600260200201511916856016602002015118876016602002015284600860200201518560036020020151191685601760200201511887601760200201528460096020020151856004602002015119168560186020020151188760186020020152818160188110614ac457614ac4615a2a565b6020020151875118875280614ad8816159c9565b915050613e65565b509495945050505050565b5080546000825560030290600052602060002090810190610c259190614bd5565b50610c2590610200810190614c0c565b6040518061040001604052806020906020820280368337509192915050565b6040518061010001604052806008906020820280368337509192915050565b6040518061020001604052806010906020820280368337509192915050565b6040518061012001604052806009906020820280368337509192915050565b6040518061032001604052806019906020820280368337509192915050565b6040518060a001604052806005906020820280368337509192915050565b5b80821115614c08578054600160a060020a03199081168255600182018054909116905560006002820155600301614bd6565b5090565b5b80821115614c085760008155600101614c0d565b8035614c2c81615a5c565b919050565b600082601f830112614c4257600080fd5b81356020614c57614c528361579b565b61576a565b8281528181019085830183850287018401881015614c7457600080fd5b60005b85811015614c9c578135614c8a81615a5c565b84529284019290840190600101614c77565b5090979650505050505050565b600082601f830112614cba57600080fd5b81356020614cca614c528361579b565b82815281810190858301606080860288018501891015614ce957600080fd5b60005b86811015614d1057614cfe8a84614d1e565b85529385019391810191600101614cec565b509198975050505050505050565b600060608284031215614d3057600080fd5b614d3861571d565b90508135614d4581615a5c565b81526020820135614d5581615a5c565b806020830152506040820135604082015292915050565b600060208284031215614d7e57600080fd5b813561287181615a5c565b60008060408385031215614d9c57600080fd5b8235614da781615a5c565b91506020830135614db781615a5c565b809150509250929050565b60008060008060808587031215614dd857600080fd5b8435614de381615a5c565b93506020850135614df381615a5c565b9250604085013591506060850135614e0a81615a71565b939692955090935050565b600060208284031215614e2757600080fd5b813567ffffffffffffffff811115614e3e57600080fd5b61296f84828501614c31565b60008060408385031215614e5d57600080fd5b823567ffffffffffffffff80821115614e7557600080fd5b614e8186838701614c31565b93506020850135915080821115614e9757600080fd5b50614ea485828601614c31565b9150509250929050565b600060208284031215614ec057600080fd5b815161287181615a71565b600060208284031215614edd57600080fd5b81357cffffffffffffffffffffffffffffffffffffffffffffffffffffffffff198116811461287157600080fd5b600060208284031215614f1d57600080fd5b5035919050565b60008060408385031215614f3757600080fd5b823591506020830135614db781615a5c565b600060208284031215614f5b57600080fd5b81357bffffffffffffffffffffffffffffffffffffffffffffffffffffffff198116811461287157600080fd5b60008060408385031215614f9b57600080fd5b823567ffffffffffffffff80821115614fb357600080fd5b908401906101608287031215614fc857600080fd5b614fd0615746565b614fd983614c21565b8152614fe760208401614c21565b6020820152614ff860408401614c21565b604082015261500960608401614c21565b606082015260808301358281111561502057600080fd5b61502c88828601614c31565b60808301525060a08301358281111561504457600080fd5b61505088828601614c31565b60a08301525060c083013560c082015261506c60e08401614c21565b60e082015261010083810135908201526101208084013590820152610140928301359281019290925250946020939093013593505050565b6000602082840312156150b657600080fd5b813567ffffffffffffffff8111156150cd57600080fd5b82016040818503121561287157600080fd5b6000606082840312156150f157600080fd5b6128718383614d1e565b60008060008060006080868803121561511357600080fd5b853594506020860135935060408601359250606086013567ffffffffffffffff8082111561514057600080fd5b818801915088601f83011261515457600080fd5b81358181111561516357600080fd5b896020808302850101111561517757600080fd5b9699959850939650602001949392505050565b600081518084526020808501945080840160005b83811015614ae05781518051600160a060020a039081168952848201511684890152604090810151908801526060909601959082019060010161519e565b7cffffffffffffffffffffffffffffffffffffffffffffffffffffffffff19871681528486600383013784810160038101859052600090838560238301376000930160230192835250909695505050505050565b7cffffffffffffffffffffffffffffffffffffffffffffffffffffffffff198b168152888a600383013788810160038101899052600090878960238301378781019050602381016000815286888237508581019050602381016000815284868237506000930160230192835250909a9950505050505050505050565b898b823760008a820160008152898b82376000908a01908152878982376000908801908152858782376000908601908152838582376000930192835250909a9950505050505050505050565b60008851602061530b8285838e01615986565b81840191506c01000000000000000000000000600160a060020a038b160282526014895161533e81838601858e01615986565b895193019261535281838601858d01615986565b885193019261536681838601858c01615986565b875193019261537a81838601858b01615986565b865193019261538e81838601858a01615986565b929092019091019a9950505050505050505050565b600084516153b5818460208901615986565b820184815283516153cd816020808501908801615986565b0160200195945050505050565b600083516153ec818460208801615986565b835190830190615400818360208801615986565b01949350505050565b7f416363657373436f6e74726f6c3a206163636f756e7420000000000000000000815260008351615441816017850160208801615986565b7f206973206d697373696e6720726f6c6520000000000000000000000000000000601791840191820152835161547e816028840160208801615986565b01602801949350505050565b602081526000612871602083018461518a565b60006020808301818452808554808352604092508286019150866000528360002060005b82811015615500578154600160a060020a03908116855260018084015490911687860152600283015486860152606090940193600390920191016154c1565b5091979650505050505050565b602081526000825180602084015261552c816040850160208701615986565b601f01601f19169190910160400192915050565b60208082526010908201527f5061757361626c653a2070617573656400000000000000000000000000000000604082015260600190565b6020808252602e908201527f496e697469616c697a61626c653a20636f6e747261637420697320616c72656160408201527f647920696e697469616c697a6564000000000000000000000000000000000000606082015260800190565b6020815260008251604060208401526155f0606084018261518a565b9050602084015160408401528091505092915050565b6000808335601e1984360301811261561d57600080fd5b83018035915067ffffffffffffffff82111561563857600080fd5b602090810192508102360382131561564f57600080fd5b9250929050565b6000808335601e1984360301811261566d57600080fd5b83018035915067ffffffffffffffff82111561568857600080fd5b602001915060608102360382131561564f57600080fd5b6000808335601e198436030181126156b657600080fd5b83018035915067ffffffffffffffff8211156156d157600080fd5b60200191503681900382131561564f57600080fd5b600082356101be198336030181126156fd57600080fd5b9190910192915050565b60008235605e198336030181126156fd57600080fd5b6040516060810167ffffffffffffffff8111828210171561574057615740615a43565b60405290565b604051610160810167ffffffffffffffff8111828210171561574057615740615a43565b604051601f8201601f1916810167ffffffffffffffff8111828210171561579357615793615a43565b604052919050565b600067ffffffffffffffff8211156157b5576157b5615a43565b5060209081020190565b600082198211156157d2576157d26159f8565b500190565b6000826157e6576157e6615a11565b500490565b6000816000190483118215151615615805576158056159f8565b500290565b60008282101561581c5761581c6159f8565b500390565b80516020808301519190811015615844578060200360080260020a600003821691505b50919050565b60006060823603121561585c57600080fd5b61586461571d565b823567ffffffffffffffff8082111561587c57600080fd5b90840190601f368184011261589057600080fd5b823560206158a0614c528361579b565b82815281810190868301368486028901850111156158bd57600080fd5b60005b8581101561594a578135888111156158d757600080fd5b890136603f8201126158e857600080fd5b8581013560408a8211156158fe576158fe615a43565b61590f828b01601f1916890161576a565b828152368284860101111561592357600080fd5b828285018a83013760009281018901929092525085525092840192908401906001016158c0565b505087525087810135908601525050604085013591508082111561596d57600080fd5b5061597a36828601614ca9565b60408301525092915050565b60005b838110156159a1578181015183820152602001615989565b83811115610cc65750506000910152565b6000816159c1576159c16159f8565b506000190190565b60006000198214156159dd576159dd6159f8565b5060010190565b6000826159f3576159f3615a11565b500690565b60e060020a634e487b7102600052601160045260246000fd5b60e060020a634e487b7102600052601260045260246000fd5b60e060020a634e487b7102600052603260045260246000fd5b60e060020a634e487b7102600052604160045260246000fd5b600160a060020a0381168114610c2557600080fd5b8015158114610c2557600080fdfe077a1d526a4ce8a773632ab13b4fbbf1fcc954c3dab26cd27ea0e2a6750da5d7a49807205ce4d355092ef5a8a18f56e8913cf4a201fbe287825b095693c21775a2646970667358221220618d4ed91c7bcf98a4f868f49e41fad4b2ece8a3cacd4a6068e7080af150dcf764736f6c63430008060033",
  "devdoc": {
    "kind": "dev",
    "methods": {
      "getRoleAdmin(bytes32)": {
        "details": "Returns the admin role that controls `role`. See {grantRole} and {revokeRole}. To change a role's admin, use {_setRoleAdmin}."
      },
      "grantRole(bytes32,address)": {
        "details": "Grants `role` to `account`. If `account` had not been already granted `role`, emits a {RoleGranted} event. Requirements: - the caller must have ``role``'s admin role."
      },
      "hasRole(bytes32,address)": {
        "details": "Returns `true` if `account` has been granted `role`."
      },
      "paused()": {
        "details": "Returns true if the contract is paused, and false otherwise."
      },
      "renounceRole(bytes32,address)": {
        "details": "Revokes `role` from the calling account. Roles are often managed via {grantRole} and {revokeRole}: this function's purpose is to provide a mechanism for accounts to lose their privileges if they are compromised (such as when a trusted device is misplaced). If the calling account had been granted `role`, emits a {RoleRevoked} event. Requirements: - the caller must be `account`."
      },
      "revokeRole(bytes32,address)": {
        "details": "Revokes `role` from `account`. If `account` had been granted `role`, emits a {RoleRevoked} event. Requirements: - the caller must have ``role``'s admin role."
      },
      "supportsInterface(bytes4)": {
        "details": "See {IERC165-supportsInterface}."
      }
    },
    "version": 1
  },
  "userdoc": {
    "kind": "user",
    "methods": {},
    "version": 1
  },
  "storageLayout": {
    "storage": [
      {
        "astId": 413,
        "contract": "contracts/networks/ETH_AmbBridge.sol:ETH_AmbBridge",
        "label": "_initialized",
        "offset": 0,
        "slot": "0",
        "type": "t_bool"
      },
      {
        "astId": 416,
        "contract": "contracts/networks/ETH_AmbBridge.sol:ETH_AmbBridge",
        "label": "_initializing",
        "offset": 1,
        "slot": "0",
        "type": "t_bool"
      },
      {
        "astId": 609,
        "contract": "contracts/networks/ETH_AmbBridge.sol:ETH_AmbBridge",
        "label": "__gap",
        "offset": 0,
        "slot": "1",
        "type": "t_array(t_uint256)50_storage"
      },
      {
        "astId": 858,
        "contract": "contracts/networks/ETH_AmbBridge.sol:ETH_AmbBridge",
        "label": "__gap",
        "offset": 0,
        "slot": "51",
        "type": "t_array(t_uint256)50_storage"
      },
      {
        "astId": 48,
        "contract": "contracts/networks/ETH_AmbBridge.sol:ETH_AmbBridge",
        "label": "_roles",
        "offset": 0,
        "slot": "101",
        "type": "t_mapping(t_bytes32,t_struct(RoleData)43_storage)"
      },
      {
        "astId": 333,
        "contract": "contracts/networks/ETH_AmbBridge.sol:ETH_AmbBridge",
        "label": "__gap",
        "offset": 0,
        "slot": "102",
        "type": "t_array(t_uint256)49_storage"
      },
      {
        "astId": 474,
        "contract": "contracts/networks/ETH_AmbBridge.sol:ETH_AmbBridge",
        "label": "_paused",
        "offset": 0,
        "slot": "151",
        "type": "t_bool"
      },
      {
        "astId": 565,
        "contract": "contracts/networks/ETH_AmbBridge.sol:ETH_AmbBridge",
        "label": "__gap",
        "offset": 0,
        "slot": "152",
        "type": "t_array(t_uint256)49_storage"
      },
      {
        "astId": 6811,
        "contract": "contracts/networks/ETH_AmbBridge.sol:ETH_AmbBridge",
        "label": "queue",
        "offset": 0,
        "slot": "201",
        "type": "t_array(t_struct(Transfer)7722_storage)dyn_storage"
      },
      {
        "astId": 6816,
        "contract": "contracts/networks/ETH_AmbBridge.sol:ETH_AmbBridge",
        "label": "lockedTransfers",
        "offset": 0,
        "slot": "202",
        "type": "t_mapping(t_uint256,t_struct(LockedTransfers)7739_storage)"
      },
      {
        "astId": 6818,
        "contract": "contracts/networks/ETH_AmbBridge.sol:ETH_AmbBridge",
        "label": "oldestLockedEventId",
        "offset": 0,
        "slot": "203",
        "type": "t_uint256"
      },
      {
        "astId": 6822,
        "contract": "contracts/networks/ETH_AmbBridge.sol:ETH_AmbBridge",
        "label": "tokenAddresses",
        "offset": 0,
        "slot": "204",
        "type": "t_mapping(t_address,t_address)"
      },
      {
        "astId": 6824,
        "contract": "contracts/networks/ETH_AmbBridge.sol:ETH_AmbBridge",
        "label": "wrapperAddress",
        "offset": 0,
        "slot": "205",
        "type": "t_address"
      },
      {
        "astId": 6826,
        "contract": "contracts/networks/ETH_AmbBridge.sol:ETH_AmbBridge",
        "label": "fee",
        "offset": 0,
        "slot": "206",
        "type": "t_uint256"
      },
      {
        "astId": 6828,
        "contract": "contracts/networks/ETH_AmbBridge.sol:ETH_AmbBridge",
        "label": "feeRecipient",
        "offset": 0,
        "slot": "207",
        "type": "t_address_payable"
      },
      {
        "astId": 6830,
        "contract": "contracts/networks/ETH_AmbBridge.sol:ETH_AmbBridge",
        "label": "sideBridgeAddress",
        "offset": 0,
        "slot": "208",
        "type": "t_address"
      },
      {
        "astId": 6832,
        "contract": "contracts/networks/ETH_AmbBridge.sol:ETH_AmbBridge",
        "label": "minSafetyBlocks",
        "offset": 0,
        "slot": "209",
        "type": "t_uint256"
      },
      {
        "astId": 6834,
        "contract": "contracts/networks/ETH_AmbBridge.sol:ETH_AmbBridge",
        "label": "timeframeSeconds",
        "offset": 0,
        "slot": "210",
        "type": "t_uint256"
      },
      {
        "astId": 6836,
        "contract": "contracts/networks/ETH_AmbBridge.sol:ETH_AmbBridge",
        "label": "lockTime",
        "offset": 0,
        "slot": "211",
        "type": "t_uint256"
      },
      {
        "astId": 6838,
        "contract": "contracts/networks/ETH_AmbBridge.sol:ETH_AmbBridge",
        "label": "inputEventId",
        "offset": 0,
        "slot": "212",
        "type": "t_uint256"
      },
      {
        "astId": 6840,
        "contract": "contracts/networks/ETH_AmbBridge.sol:ETH_AmbBridge",
        "label": "outputEventId",
        "offset": 0,
        "slot": "213",
        "type": "t_uint256"
      },
      {
        "astId": 6842,
        "contract": "contracts/networks/ETH_AmbBridge.sol:ETH_AmbBridge",
        "label": "lastTimeframe",
        "offset": 0,
        "slot": "214",
        "type": "t_uint256"
      },
      {
        "astId": 5573,
        "contract": "contracts/networks/ETH_AmbBridge.sol:ETH_AmbBridge",
        "label": "epochData",
        "offset": 0,
        "slot": "215",
        "type": "t_mapping(t_uint256,t_struct(EthashCacheOptData)5568_storage)"
      },
      {
        "astId": 3291,
        "contract": "contracts/networks/ETH_AmbBridge.sol:ETH_AmbBridge",
        "label": "minimumDifficulty",
        "offset": 0,
        "slot": "216",
        "type": "t_uint256"
      }
    ],
    "types": {
      "t_address": {
        "encoding": "inplace",
        "label": "address",
        "numberOfBytes": "20"
      },
      "t_address_payable": {
        "encoding": "inplace",
        "label": "address payable",
        "numberOfBytes": "20"
      },
      "t_array(t_struct(Transfer)7722_storage)dyn_storage": {
        "base": "t_struct(Transfer)7722_storage",
        "encoding": "dynamic_array",
        "label": "struct CommonStructs.Transfer[]",
        "numberOfBytes": "32"
      },
      "t_array(t_uint256)49_storage": {
        "base": "t_uint256",
        "encoding": "inplace",
        "label": "uint256[49]",
        "numberOfBytes": "1568"
      },
      "t_array(t_uint256)50_storage": {
        "base": "t_uint256",
        "encoding": "inplace",
        "label": "uint256[50]",
        "numberOfBytes": "1600"
      },
      "t_array(t_uint256)512_storage": {
        "base": "t_uint256",
        "encoding": "inplace",
        "label": "uint256[512]",
        "numberOfBytes": "16384"
      },
      "t_bool": {
        "encoding": "inplace",
        "label": "bool",
        "numberOfBytes": "1"
      },
      "t_bytes32": {
        "encoding": "inplace",
        "label": "bytes32",
        "numberOfBytes": "32"
      },
      "t_mapping(t_address,t_address)": {
        "encoding": "mapping",
        "key": "t_address",
        "label": "mapping(address => address)",
        "numberOfBytes": "32",
        "value": "t_address"
      },
      "t_mapping(t_address,t_bool)": {
        "encoding": "mapping",
        "key": "t_address",
        "label": "mapping(address => bool)",
        "numberOfBytes": "32",
        "value": "t_bool"
      },
      "t_mapping(t_bytes32,t_struct(RoleData)43_storage)": {
        "encoding": "mapping",
        "key": "t_bytes32",
        "label": "mapping(bytes32 => struct AccessControlUpgradeable.RoleData)",
        "numberOfBytes": "32",
        "value": "t_struct(RoleData)43_storage"
      },
      "t_mapping(t_uint256,t_struct(EthashCacheOptData)5568_storage)": {
        "encoding": "mapping",
        "key": "t_uint256",
        "label": "mapping(uint256 => struct Ethash.EthashCacheOptData)",
        "numberOfBytes": "32",
        "value": "t_struct(EthashCacheOptData)5568_storage"
      },
      "t_mapping(t_uint256,t_struct(LockedTransfers)7739_storage)": {
        "encoding": "mapping",
        "key": "t_uint256",
        "label": "mapping(uint256 => struct CommonStructs.LockedTransfers)",
        "numberOfBytes": "32",
        "value": "t_struct(LockedTransfers)7739_storage"
      },
      "t_struct(EthashCacheOptData)5568_storage": {
        "encoding": "inplace",
        "label": "struct Ethash.EthashCacheOptData",
        "members": [
          {
            "astId": 5563,
            "contract": "contracts/networks/ETH_AmbBridge.sol:ETH_AmbBridge",
            "label": "merkleNodes",
            "offset": 0,
            "slot": "0",
            "type": "t_array(t_uint256)512_storage"
          },
          {
            "astId": 5565,
            "contract": "contracts/networks/ETH_AmbBridge.sol:ETH_AmbBridge",
            "label": "fullSizeIn128Resultion",
            "offset": 0,
            "slot": "512",
            "type": "t_uint256"
          },
          {
            "astId": 5567,
            "contract": "contracts/networks/ETH_AmbBridge.sol:ETH_AmbBridge",
            "label": "branchDepth",
            "offset": 0,
            "slot": "513",
            "type": "t_uint256"
          }
        ],
        "numberOfBytes": "16448"
      },
      "t_struct(LockedTransfers)7739_storage": {
        "encoding": "inplace",
        "label": "struct CommonStructs.LockedTransfers",
        "members": [
          {
            "astId": 7736,
            "contract": "contracts/networks/ETH_AmbBridge.sol:ETH_AmbBridge",
            "label": "transfers",
            "offset": 0,
            "slot": "0",
            "type": "t_array(t_struct(Transfer)7722_storage)dyn_storage"
          },
          {
            "astId": 7738,
            "contract": "contracts/networks/ETH_AmbBridge.sol:ETH_AmbBridge",
            "label": "endTimestamp",
            "offset": 0,
            "slot": "1",
            "type": "t_uint256"
          }
        ],
        "numberOfBytes": "64"
      },
      "t_struct(RoleData)43_storage": {
        "encoding": "inplace",
        "label": "struct AccessControlUpgradeable.RoleData",
        "members": [
          {
            "astId": 40,
            "contract": "contracts/networks/ETH_AmbBridge.sol:ETH_AmbBridge",
            "label": "members",
            "offset": 0,
            "slot": "0",
            "type": "t_mapping(t_address,t_bool)"
          },
          {
            "astId": 42,
            "contract": "contracts/networks/ETH_AmbBridge.sol:ETH_AmbBridge",
            "label": "adminRole",
            "offset": 0,
            "slot": "1",
            "type": "t_bytes32"
          }
        ],
        "numberOfBytes": "64"
      },
      "t_struct(Transfer)7722_storage": {
        "encoding": "inplace",
        "label": "struct CommonStructs.Transfer",
        "members": [
          {
            "astId": 7717,
            "contract": "contracts/networks/ETH_AmbBridge.sol:ETH_AmbBridge",
            "label": "tokenAddress",
            "offset": 0,
            "slot": "0",
            "type": "t_address"
          },
          {
            "astId": 7719,
            "contract": "contracts/networks/ETH_AmbBridge.sol:ETH_AmbBridge",
            "label": "toAddress",
            "offset": 0,
            "slot": "1",
            "type": "t_address"
          },
          {
            "astId": 7721,
            "contract": "contracts/networks/ETH_AmbBridge.sol:ETH_AmbBridge",
            "label": "amount",
            "offset": 0,
            "slot": "2",
            "type": "t_uint256"
          }
        ],
        "numberOfBytes": "96"
      },
      "t_uint256": {
        "encoding": "inplace",
        "label": "uint256",
        "numberOfBytes": "32"
      }
    }
  }
}