{
  "address": "0x0d728C951BFC4701256Ca7C4975F85229D9885c8",
  "abi": [
    {
      "inputs": [
        {
          "internalType": "string",
          "name": "name_",
          "type": "string"
        },
        {
          "internalType": "string",
          "name": "symbol_",
          "type": "string"
        },
        {
          "internalType": "uint8",
          "name": "decimals_",
          "type": "uint8"
        },
        {
          "internalType": "address[]",
          "name": "bridgeAddresses",
          "type": "address[]"
        }
      ],
      "stateMutability": "nonpayable",
      "type": "constructor"
    },
    {
      "anonymous": false,
      "inputs": [
        {
          "indexed": true,
          "internalType": "address",
          "name": "owner",
          "type": "address"
        },
        {
          "indexed": true,
          "internalType": "address",
          "name": "spender",
          "type": "address"
        },
        {
          "indexed": false,
          "internalType": "uint256",
          "name": "value",
          "type": "uint256"
        }
      ],
      "name": "Approval",
      "type": "event"
    },
    {
      "anonymous": false,
      "inputs": [
        {
          "indexed": true,
          "internalType": "bytes32",
          "name": "role",
          "type": "bytes32"
        },
        {
          "indexed": true,
          "internalType": "bytes32",
          "name": "previousAdminRole",
          "type": "bytes32"
        },
        {
          "indexed": true,
          "internalType": "bytes32",
          "name": "newAdminRole",
          "type": "bytes32"
        }
      ],
      "name": "RoleAdminChanged",
      "type": "event"
    },
    {
      "anonymous": false,
      "inputs": [
        {
          "indexed": true,
          "internalType": "bytes32",
          "name": "role",
          "type": "bytes32"
        },
        {
          "indexed": true,
          "internalType": "address",
          "name": "account",
          "type": "address"
        },
        {
          "indexed": true,
          "internalType": "address",
          "name": "sender",
          "type": "address"
        }
      ],
      "name": "RoleGranted",
      "type": "event"
    },
    {
      "anonymous": false,
      "inputs": [
        {
          "indexed": true,
          "internalType": "bytes32",
          "name": "role",
          "type": "bytes32"
        },
        {
          "indexed": true,
          "internalType": "address",
          "name": "account",
          "type": "address"
        },
        {
          "indexed": true,
          "internalType": "address",
          "name": "sender",
          "type": "address"
        }
      ],
      "name": "RoleRevoked",
      "type": "event"
    },
    {
      "anonymous": false,
      "inputs": [
        {
          "indexed": true,
          "internalType": "address",
          "name": "from",
          "type": "address"
        },
        {
          "indexed": true,
          "internalType": "address",
          "name": "to",
          "type": "address"
        },
        {
          "indexed": false,
          "internalType": "uint256",
          "name": "value",
          "type": "uint256"
        }
      ],
      "name": "Transfer",
      "type": "event"
    },
    {
      "inputs": [],
      "name": "BRIDGE_ROLE",
      "outputs": [
        {
          "internalType": "bytes32",
          "name": "",
          "type": "bytes32"
        }
      ],
      "stateMutability": "view",
      "type": "function"
    },
    {
      "inputs": [],
      "name": "DEFAULT_ADMIN_ROLE",
      "outputs": [
        {
          "internalType": "bytes32",
          "name": "",
          "type": "bytes32"
        }
      ],
      "stateMutability": "view",
      "type": "function"
    },
    {
      "inputs": [
        {
          "internalType": "address",
          "name": "owner",
          "type": "address"
        },
        {
          "internalType": "address",
          "name": "spender",
          "type": "address"
        }
      ],
      "name": "allowance",
      "outputs": [
        {
          "internalType": "uint256",
          "name": "",
          "type": "uint256"
        }
      ],
      "stateMutability": "view",
      "type": "function"
    },
    {
      "inputs": [
        {
          "internalType": "address",
          "name": "spender",
          "type": "address"
        },
        {
          "internalType": "uint256",
          "name": "amount",
          "type": "uint256"
        }
      ],
      "name": "approve",
      "outputs": [
        {
          "internalType": "bool",
          "name": "",
          "type": "bool"
        }
      ],
      "stateMutability": "nonpayable",
      "type": "function"
    },
    {
      "inputs": [
        {
          "internalType": "address",
          "name": "account",
          "type": "address"
        }
      ],
      "name": "balanceOf",
      "outputs": [
        {
          "internalType": "uint256",
          "name": "",
          "type": "uint256"
        }
      ],
      "stateMutability": "view",
      "type": "function"
    },
    {
      "inputs": [
        {
          "internalType": "address",
          "name": "",
          "type": "address"
        }
      ],
      "name": "bridgeBalances",
      "outputs": [
        {
          "internalType": "uint256",
          "name": "",
          "type": "uint256"
        }
      ],
      "stateMutability": "view",
      "type": "function"
    },
    {
      "inputs": [],
      "name": "decimals",
      "outputs": [
        {
          "internalType": "uint8",
          "name": "",
          "type": "uint8"
        }
      ],
      "stateMutability": "view",
      "type": "function"
    },
    {
      "inputs": [
        {
          "internalType": "address",
          "name": "spender",
          "type": "address"
        },
        {
          "internalType": "uint256",
          "name": "subtractedValue",
          "type": "uint256"
        }
      ],
      "name": "decreaseAllowance",
      "outputs": [
        {
          "internalType": "bool",
          "name": "",
          "type": "bool"
        }
      ],
      "stateMutability": "nonpayable",
      "type": "function"
    },
    {
      "inputs": [
        {
          "internalType": "bytes32",
          "name": "role",
          "type": "bytes32"
        }
      ],
      "name": "getRoleAdmin",
      "outputs": [
        {
          "internalType": "bytes32",
          "name": "",
          "type": "bytes32"
        }
      ],
      "stateMutability": "view",
      "type": "function"
    },
    {
      "inputs": [
        {
          "internalType": "bytes32",
          "name": "role",
          "type": "bytes32"
        },
        {
          "internalType": "address",
          "name": "account",
          "type": "address"
        }
      ],
      "name": "grantRole",
      "outputs": [],
      "stateMutability": "nonpayable",
      "type": "function"
    },
    {
      "inputs": [
        {
          "internalType": "bytes32",
          "name": "role",
          "type": "bytes32"
        },
        {
          "internalType": "address",
          "name": "account",
          "type": "address"
        }
      ],
      "name": "hasRole",
      "outputs": [
        {
          "internalType": "bool",
          "name": "",
          "type": "bool"
        }
      ],
      "stateMutability": "view",
      "type": "function"
    },
    {
      "inputs": [
        {
          "internalType": "address",
          "name": "spender",
          "type": "address"
        },
        {
          "internalType": "uint256",
          "name": "addedValue",
          "type": "uint256"
        }
      ],
      "name": "increaseAllowance",
      "outputs": [
        {
          "internalType": "bool",
          "name": "",
          "type": "bool"
        }
      ],
      "stateMutability": "nonpayable",
      "type": "function"
    },
    {
      "inputs": [
        {
          "internalType": "address",
          "name": "to",
          "type": "address"
        },
        {
          "internalType": "uint256",
          "name": "amount",
          "type": "uint256"
        }
      ],
      "name": "mint",
      "outputs": [],
      "stateMutability": "nonpayable",
      "type": "function"
    },
    {
      "inputs": [],
      "name": "name",
      "outputs": [
        {
          "internalType": "string",
          "name": "",
          "type": "string"
        }
      ],
      "stateMutability": "view",
      "type": "function"
    },
    {
      "inputs": [
        {
          "internalType": "bytes32",
          "name": "role",
          "type": "bytes32"
        },
        {
          "internalType": "address",
          "name": "account",
          "type": "address"
        }
      ],
      "name": "renounceRole",
      "outputs": [],
      "stateMutability": "nonpayable",
      "type": "function"
    },
    {
      "inputs": [
        {
          "internalType": "bytes32",
          "name": "role",
          "type": "bytes32"
        },
        {
          "internalType": "address",
          "name": "account",
          "type": "address"
        }
      ],
      "name": "revokeRole",
      "outputs": [],
      "stateMutability": "nonpayable",
      "type": "function"
    },
    {
      "inputs": [
        {
          "internalType": "address[]",
          "name": "bridgeAddresses",
          "type": "address[]"
        }
      ],
      "name": "setBridgeAddressesRole",
      "outputs": [],
      "stateMutability": "nonpayable",
      "type": "function"
    },
    {
      "inputs": [
        {
          "internalType": "bytes4",
          "name": "interfaceId",
          "type": "bytes4"
        }
      ],
      "name": "supportsInterface",
      "outputs": [
        {
          "internalType": "bool",
          "name": "",
          "type": "bool"
        }
      ],
      "stateMutability": "view",
      "type": "function"
    },
    {
      "inputs": [],
      "name": "symbol",
      "outputs": [
        {
          "internalType": "string",
          "name": "",
          "type": "string"
        }
      ],
      "stateMutability": "view",
      "type": "function"
    },
    {
      "inputs": [],
      "name": "totalSupply",
      "outputs": [
        {
          "internalType": "uint256",
          "name": "",
          "type": "uint256"
        }
      ],
      "stateMutability": "view",
      "type": "function"
    },
    {
      "inputs": [
        {
          "internalType": "address",
          "name": "recipient",
          "type": "address"
        },
        {
          "internalType": "uint256",
          "name": "amount",
          "type": "uint256"
        }
      ],
      "name": "transfer",
      "outputs": [
        {
          "internalType": "bool",
          "name": "",
          "type": "bool"
        }
      ],
      "stateMutability": "nonpayable",
      "type": "function"
    },
    {
      "inputs": [
        {
          "internalType": "address",
          "name": "sender",
          "type": "address"
        },
        {
          "internalType": "address",
          "name": "recipient",
          "type": "address"
        },
        {
          "internalType": "uint256",
          "name": "amount",
          "type": "uint256"
        }
      ],
      "name": "transferFrom",
      "outputs": [
        {
          "internalType": "bool",
          "name": "",
          "type": "bool"
        }
      ],
      "stateMutability": "nonpayable",
      "type": "function"
    }
  ],
  "transactionHash": "0x23c5d080fa2febc4f3fcc880482d097934ed9fed40488da9b0aa6cd0b16fad3a",
  "args": [
    "Wrapped BNB",
    "WBNB",
    18,
    []
  ],
  "numDeployments": 1,
  "solcInputHash": "be703f04b989cd2563b5aa9bbf70fb32",
  "bytecode": "0x60806040523480156200001157600080fd5b5060405162001cd538038062001cd5833981016040819052620000349162000353565b83838383838381600390805190602001906200005292919062000218565b5080516200006890600490602084019062000218565b506200008391506000905033640100000000620000b9810204565b6200009781640100000000620000d2810204565b506007805460ff191660ff9290921691909117905550620005b1945050505050565b620000ce82826401000000006200014b810204565b5050565b60005b8151811015620000ce57620001367f52ba824bfabc2bcfcdf7f0edbb486ebb05e1836c90e78047efeb949990f72e5f83838151811062000119576200011962000553565b6020026020010151620000b9640100000000026401000000009004565b80620001428162000510565b915050620000d5565b620001608282640100000000620001e9810204565b620000ce576000828152600560209081526040808320600160a060020a03851684529091529020805460ff19166001179055620001a564010000000062000214810204565b600160a060020a031681600160a060020a0316837f2f8788117e7eff1d82e926ec794901d17c78024a50270940304540a733656f0d60405160405180910390a45050565b6000918252600560209081526040808420600160a060020a0393909316845291905290205460ff1690565b3390565b8280546200022690620004ba565b90600052602060002090601f0160209004810192826200024a576000855562000295565b82601f106200026557805160ff191683800117855562000295565b8280016001018555821562000295579182015b828111156200029557825182559160200191906001019062000278565b50620002a3929150620002a7565b5090565b5b80821115620002a35760008155600101620002a8565b600082601f830112620002d057600080fd5b81516001604060020a03811115620002ec57620002ec62000582565b602062000302601f8301601f1916820162000487565b82815285828487010111156200031757600080fd5b60005b83811015620003375785810183015182820184015282016200031a565b83811115620003495760008385840101525b5095945050505050565b600080600080608085870312156200036a57600080fd5b84516001604060020a03808211156200038257600080fd5b6200039088838901620002be565b9550602091508187015181811115620003a857600080fd5b620003b689828a01620002be565b955050604087015160ff81168114620003ce57600080fd5b606088015190945081811115620003e457600080fd5b8701601f81018913620003f657600080fd5b8051828111156200040b576200040b62000582565b83810292506200041d84840162000487565b8181528481019083860185850187018d10156200043957600080fd5b600095508594505b8385101562000476578051600160a060020a038116811462000461578687fd5b83526001949094019391860191860162000441565b50989b979a50959850505050505050565b604051601f8201601f191681016001604060020a0381118282101715620004b257620004b262000582565b604052919050565b600281046001821680620004cf57607f821691505b602082108114156200050a577f4e487b7100000000000000000000000000000000000000000000000000000000600052602260045260246000fd5b50919050565b60006000198214156200054c577f4e487b7100000000000000000000000000000000000000000000000000000000600052601160045260246000fd5b5060010190565b7f4e487b7100000000000000000000000000000000000000000000000000000000600052603260045260246000fd5b7f4e487b7100000000000000000000000000000000000000000000000000000000600052604160045260246000fd5b61171480620005c16000396000f3fe608060405234801561001057600080fd5b506004361061015f576000357c01000000000000000000000000000000000000000000000000000000009004806370a08231116100d5578063a9059cbb11610099578063a9059cbb146102be578063b0ee95f6146102d1578063b5bfddea146102e4578063d547741f146102f9578063dc1ab98a1461030c578063dd62ed3e1461032c57600080fd5b806370a082311461025f57806391d148541461028857806395d89b411461029b578063a217fddf146102a3578063a457c2d7146102ab57600080fd5b8063248a9ca311610127578063248a9ca3146101d95780632f2ff15d146101fc578063313ce5671461021157806336568abe14610226578063395093511461023957806340c10f191461024c57600080fd5b806301ffc9a71461016457806306fdde031461018c578063095ea7b3146101a157806318160ddd146101b457806323b872dd146101c6575b600080fd5b610177610172366004611496565b610365565b60405190151581526020015b60405180910390f35b6101946103f8565b6040516101839190611556565b6101776101af366004611365565b61048a565b6002545b604051908152602001610183565b6101776101d4366004611329565b6104a0565b6101b86101e736600461145a565b60009081526005602052604090206001015490565b61020f61020a366004611473565b610567565b005b60075460405160ff9091168152602001610183565b61020f610234366004611473565b610592565b610177610247366004611365565b610621565b61020f61025a366004611365565b61065d565b6101b861026d3660046112db565b600160a060020a031660009081526020819052604090205490565b610177610296366004611473565b610667565b610194610692565b6101b8600081565b6101776102b9366004611365565b6106a1565b6101776102cc366004611365565b610755565b61020f6102df36600461138f565b610762565b6101b86000805160206116bf83398151915281565b61020f610307366004611473565b610777565b6101b861031a3660046112db565b60066020526000908152604090205481565b6101b861033a3660046112f6565b600160a060020a03918216600090815260016020908152604080832093909416825291909152205490565b60007bffffffffffffffffffffffffffffffffffffffffffffffffffffffff1982167f7965db0b0000000000000000000000000000000000000000000000000000000014806103f257507f01ffc9a7000000000000000000000000000000000000000000000000000000007bffffffffffffffffffffffffffffffffffffffffffffffffffffffff198316145b92915050565b6060600380546104079061161a565b80601f01602080910402602001604051908101604052809291908181526020018280546104339061161a565b80156104805780601f1061045557610100808354040283529160200191610480565b820191906000526020600020905b81548152906001019060200180831161046357829003601f168201915b5050505050905090565b600061049733848461079d565b50600192915050565b60006104ad8484846108fb565b600160a060020a03841660009081526001602090815260408083203384529091529020548281101561054f5760405160e560020a62461bcd02815260206004820152602860248201527f45524332303a207472616e7366657220616d6f756e742065786365656473206160448201527f6c6c6f77616e636500000000000000000000000000000000000000000000000060648201526084015b60405180910390fd5b61055c853385840361079d565b506001949350505050565b6000828152600560205260409020600101546105838133610954565b61058d83836109bb565b505050565b600160a060020a03811633146106135760405160e560020a62461bcd02815260206004820152602f60248201527f416363657373436f6e74726f6c3a2063616e206f6e6c792072656e6f756e636560448201527f20726f6c657320666f722073656c6600000000000000000000000000000000006064820152608401610546565b61061d8282610a41565b5050565b336000818152600160209081526040808320600160a060020a03871684529091528120549091610497918590610658908690611589565b61079d565b61061d8282610aa8565b6000918252600560209081526040808420600160a060020a0393909316845291905290205460ff1690565b6060600480546104079061161a565b336000908152600160209081526040808320600160a060020a03861684529091528120548281101561073e5760405160e560020a62461bcd02815260206004820152602560248201527f45524332303a2064656372656173656420616c6c6f77616e63652062656c6f7760448201527f207a65726f0000000000000000000000000000000000000000000000000000006064820152608401610546565b61074b338585840361079d565b5060019392505050565b60006104973384846108fb565b600061076e8133610954565b61061d82610ae3565b6000828152600560205260409020600101546107938133610954565b61058d8383610a41565b600160a060020a03831661081b5760405160e560020a62461bcd028152602060048201526024808201527f45524332303a20617070726f76652066726f6d20746865207a65726f2061646460448201527f72657373000000000000000000000000000000000000000000000000000000006064820152608401610546565b600160a060020a03821661089a5760405160e560020a62461bcd02815260206004820152602260248201527f45524332303a20617070726f766520746f20746865207a65726f20616464726560448201527f73730000000000000000000000000000000000000000000000000000000000006064820152608401610546565b600160a060020a0383811660008181526001602090815260408083209487168084529482529182902085905590518481527f8c5be1e5ebec7d5bd14f71427d1e84f3dd0314c0f7b2291e5b200ac8c7c3b925910160405180910390a3505050565b6109136000805160206116bf83398151915284610667565b156109225761058d8282610aa8565b61093a6000805160206116bf83398151915283610667565b156109495761058d8382610b32565b61058d838383610bd5565b61095e8282610667565b61061d5761097681600160a060020a03166014610df7565b610981836020610df7565b6040516020016109929291906114d5565b60408051601f198184030181529082905260e560020a62461bcd02825261054691600401611556565b6109c58282610667565b61061d576000828152600560209081526040808320600160a060020a03851684529091529020805460ff191660011790556109fd3390565b600160a060020a031681600160a060020a0316837f2f8788117e7eff1d82e926ec794901d17c78024a50270940304540a733656f0d60405160405180910390a45050565b610a4b8282610667565b1561061d576000828152600560209081526040808320600160a060020a0385168085529252808320805460ff1916905551339285917ff6391f5c32d9c69d2a47ea670b442974b53935d1edc7fd64eb21e047a839171b9190a45050565b610ab28282611048565b600160a060020a03821660009081526006602052604081208054839290610ada908490611589565b90915550505050565b60005b815181101561061d57610b206000805160206116bf833981519152838381518110610b1357610b1361168c565b602002602001015161112a565b80610b2a81611658565b915050610ae6565b600160a060020a038216600090815260066020526040902054811115610b9d5760405160e560020a62461bcd02815260206004820152601d60248201527f616d6f756e7420697320626967676572207468616e2062616c616e63650000006044820152606401610546565b600160a060020a03821660009081526006602052604081208054839290610bc59084906115c0565b9091555061061d90508282611134565b600160a060020a038316610c545760405160e560020a62461bcd02815260206004820152602560248201527f45524332303a207472616e736665722066726f6d20746865207a65726f20616460448201527f64726573730000000000000000000000000000000000000000000000000000006064820152608401610546565b600160a060020a038216610cd35760405160e560020a62461bcd02815260206004820152602360248201527f45524332303a207472616e7366657220746f20746865207a65726f206164647260448201527f65737300000000000000000000000000000000000000000000000000000000006064820152608401610546565b600160a060020a03831660009081526020819052604090205481811015610d655760405160e560020a62461bcd02815260206004820152602660248201527f45524332303a207472616e7366657220616d6f756e742065786365656473206260448201527f616c616e636500000000000000000000000000000000000000000000000000006064820152608401610546565b600160a060020a03808516600090815260208190526040808220858503905591851681529081208054849290610d9c908490611589565b9250508190555082600160a060020a031684600160a060020a03167fddf252ad1be2c89b69c2b068fc378daa952ba7f163c4a11628f55a4df523b3ef84604051610de891815260200190565b60405180910390a35b50505050565b60606000610e068360026115a1565b610e11906002611589565b67ffffffffffffffff811115610e2957610e296116a5565b6040519080825280601f01601f191660200182016040528015610e53576020820181803683370190505b5090507f300000000000000000000000000000000000000000000000000000000000000081600081518110610e8a57610e8a61168c565b60200101907effffffffffffffffffffffffffffffffffffffffffffffffffffffffffffff1916908160001a9053507f780000000000000000000000000000000000000000000000000000000000000081600181518110610eed57610eed61168c565b60200101907effffffffffffffffffffffffffffffffffffffffffffffffffffffffffffff1916908160001a9053506000610f298460026115a1565b610f34906001611589565b90505b6001811115610fef577f303132333435363738396162636465660000000000000000000000000000000085600f1660108110610f7557610f7561168c565b1a7f010000000000000000000000000000000000000000000000000000000000000002828281518110610faa57610faa61168c565b60200101907effffffffffffffffffffffffffffffffffffffffffffffffffffffffffffff1916908160001a905350601090940493610fe881611603565b9050610f37565b5083156110415760405160e560020a62461bcd02815260206004820181905260248201527f537472696e67733a20686578206c656e67746820696e73756666696369656e746044820152606401610546565b9392505050565b600160a060020a0382166110a15760405160e560020a62461bcd02815260206004820152601f60248201527f45524332303a206d696e7420746f20746865207a65726f2061646472657373006044820152606401610546565b80600260008282546110b39190611589565b9091555050600160a060020a038216600090815260208190526040812080548392906110e0908490611589565b9091555050604051818152600160a060020a038316906000907fddf252ad1be2c89b69c2b068fc378daa952ba7f163c4a11628f55a4df523b3ef9060200160405180910390a35050565b61061d82826109bb565b600160a060020a0382166111b35760405160e560020a62461bcd02815260206004820152602160248201527f45524332303a206275726e2066726f6d20746865207a65726f2061646472657360448201527f73000000000000000000000000000000000000000000000000000000000000006064820152608401610546565b600160a060020a038216600090815260208190526040902054818110156112455760405160e560020a62461bcd02815260206004820152602260248201527f45524332303a206275726e20616d6f756e7420657863656564732062616c616e60448201527f63650000000000000000000000000000000000000000000000000000000000006064820152608401610546565b600160a060020a03831660009081526020819052604081208383039055600280548492906112749084906115c0565b9091555050604051828152600090600160a060020a038516907fddf252ad1be2c89b69c2b068fc378daa952ba7f163c4a11628f55a4df523b3ef9060200160405180910390a3505050565b8035600160a060020a03811681146112d657600080fd5b919050565b6000602082840312156112ed57600080fd5b611041826112bf565b6000806040838503121561130957600080fd5b611312836112bf565b9150611320602084016112bf565b90509250929050565b60008060006060848603121561133e57600080fd5b611347846112bf565b9250611355602085016112bf565b9150604084013590509250925092565b6000806040838503121561137857600080fd5b611381836112bf565b946020939093013593505050565b600060208083850312156113a257600080fd5b823567ffffffffffffffff808211156113ba57600080fd5b818501915085601f8301126113ce57600080fd5b8135818111156113e0576113e06116a5565b838102604051601f19603f83011681018181108582111715611404576114046116a5565b604052828152858101935084860182860187018a101561142357600080fd5b600095505b8386101561144d57611439816112bf565b855260019590950194938601938601611428565b5098975050505050505050565b60006020828403121561146c57600080fd5b5035919050565b6000806040838503121561148657600080fd5b82359150611320602084016112bf565b6000602082840312156114a857600080fd5b81357bffffffffffffffffffffffffffffffffffffffffffffffffffffffff198116811461104157600080fd5b7f416363657373436f6e74726f6c3a206163636f756e742000000000000000000081526000835161150d8160178501602088016115d7565b7f206973206d697373696e6720726f6c6520000000000000000000000000000000601791840191820152835161154a8160288401602088016115d7565b01602801949350505050565b60208152600082518060208401526115758160408501602087016115d7565b601f01601f19169190910160400192915050565b6000821982111561159c5761159c611673565b500190565b60008160001904831182151516156115bb576115bb611673565b500290565b6000828210156115d2576115d2611673565b500390565b60005b838110156115f25781810151838201526020016115da565b83811115610df15750506000910152565b60008161161257611612611673565b506000190190565b60028104600182168061162e57607f821691505b602082108114156116525760e060020a634e487b7102600052602260045260246000fd5b50919050565b600060001982141561166c5761166c611673565b5060010190565b60e060020a634e487b7102600052601160045260246000fd5b60e060020a634e487b7102600052603260045260246000fd5b60e060020a634e487b7102600052604160045260246000fdfe52ba824bfabc2bcfcdf7f0edbb486ebb05e1836c90e78047efeb949990f72e5fa2646970667358221220e0c5c2269f917499b7e2fa255d594b03cd1c9ed7a96249f4cd3fab63d56bcbde64736f6c63430008060033",
  "devdoc": {
    "kind": "dev",
    "methods": {
      "allowance(address,address)": {
        "details": "See {IERC20-allowance}."
      },
      "approve(address,uint256)": {
        "details": "See {IERC20-approve}. Requirements: - `spender` cannot be the zero address."
      },
      "balanceOf(address)": {
        "details": "See {IERC20-balanceOf}."
      },
      "decimals()": {
        "details": "Returns the number of decimals used to get its user representation. For example, if `decimals` equals `2`, a balance of `505` tokens should be displayed to a user as `5.05` (`505 / 10 ** 2`). Tokens usually opt for a value of 18, imitating the relationship between Ether and Wei. This is the value {ERC20} uses, unless this function is overridden; NOTE: This information is only used for _display_ purposes: it in no way affects any of the arithmetic of the contract, including {IERC20-balanceOf} and {IERC20-transfer}."
      },
      "decreaseAllowance(address,uint256)": {
        "details": "Atomically decreases the allowance granted to `spender` by the caller. This is an alternative to {approve} that can be used as a mitigation for problems described in {IERC20-approve}. Emits an {Approval} event indicating the updated allowance. Requirements: - `spender` cannot be the zero address. - `spender` must have allowance for the caller of at least `subtractedValue`."
      },
      "getRoleAdmin(bytes32)": {
        "details": "Returns the admin role that controls `role`. See {grantRole} and {revokeRole}. To change a role's admin, use {_setRoleAdmin}."
      },
      "grantRole(bytes32,address)": {
        "details": "Grants `role` to `account`. If `account` had not been already granted `role`, emits a {RoleGranted} event. Requirements: - the caller must have ``role``'s admin role."
      },
      "hasRole(bytes32,address)": {
        "details": "Returns `true` if `account` has been granted `role`."
      },
      "increaseAllowance(address,uint256)": {
        "details": "Atomically increases the allowance granted to `spender` by the caller. This is an alternative to {approve} that can be used as a mitigation for problems described in {IERC20-approve}. Emits an {Approval} event indicating the updated allowance. Requirements: - `spender` cannot be the zero address."
      },
      "name()": {
        "details": "Returns the name of the token."
      },
      "renounceRole(bytes32,address)": {
        "details": "Revokes `role` from the calling account. Roles are often managed via {grantRole} and {revokeRole}: this function's purpose is to provide a mechanism for accounts to lose their privileges if they are compromised (such as when a trusted device is misplaced). If the calling account had been granted `role`, emits a {RoleRevoked} event. Requirements: - the caller must be `account`."
      },
      "revokeRole(bytes32,address)": {
        "details": "Revokes `role` from `account`. If `account` had been granted `role`, emits a {RoleRevoked} event. Requirements: - the caller must have ``role``'s admin role."
      },
      "supportsInterface(bytes4)": {
        "details": "See {IERC165-supportsInterface}."
      },
      "symbol()": {
        "details": "Returns the symbol of the token, usually a shorter version of the name."
      },
      "totalSupply()": {
        "details": "See {IERC20-totalSupply}."
      },
      "transfer(address,uint256)": {
        "details": "See {IERC20-transfer}. Requirements: - `recipient` cannot be the zero address. - the caller must have a balance of at least `amount`."
      },
      "transferFrom(address,address,uint256)": {
        "details": "See {IERC20-transferFrom}. Emits an {Approval} event indicating the updated allowance. This is not required by the EIP. See the note at the beginning of {ERC20}. Requirements: - `sender` and `recipient` cannot be the zero address. - `sender` must have a balance of at least `amount`. - the caller must have allowance for ``sender``'s tokens of at least `amount`."
      }
    },
    "version": 1
  },
  "userdoc": {
    "kind": "user",
    "methods": {},
    "version": 1
  },
  "storageLayout": {
    "storage": [
      {
        "astId": 1267,
        "contract": "contracts/contracts_for_tests/BridgeERC20Test.sol:BridgeERC20Test",
        "label": "_balances",
        "offset": 0,
        "slot": "0",
        "type": "t_mapping(t_address,t_uint256)"
      },
      {
        "astId": 1273,
        "contract": "contracts/contracts_for_tests/BridgeERC20Test.sol:BridgeERC20Test",
        "label": "_allowances",
        "offset": 0,
        "slot": "1",
        "type": "t_mapping(t_address,t_mapping(t_address,t_uint256))"
      },
      {
        "astId": 1275,
        "contract": "contracts/contracts_for_tests/BridgeERC20Test.sol:BridgeERC20Test",
        "label": "_totalSupply",
        "offset": 0,
        "slot": "2",
        "type": "t_uint256"
      },
      {
        "astId": 1277,
        "contract": "contracts/contracts_for_tests/BridgeERC20Test.sol:BridgeERC20Test",
        "label": "_name",
        "offset": 0,
        "slot": "3",
        "type": "t_string_storage"
      },
      {
        "astId": 1279,
        "contract": "contracts/contracts_for_tests/BridgeERC20Test.sol:BridgeERC20Test",
        "label": "_symbol",
        "offset": 0,
        "slot": "4",
        "type": "t_string_storage"
      },
      {
        "astId": 896,
        "contract": "contracts/contracts_for_tests/BridgeERC20Test.sol:BridgeERC20Test",
        "label": "_roles",
        "offset": 0,
        "slot": "5",
        "type": "t_mapping(t_bytes32,t_struct(RoleData)891_storage)"
      },
      {
        "astId": 8708,
        "contract": "contracts/contracts_for_tests/BridgeERC20Test.sol:BridgeERC20Test",
        "label": "bridgeBalances",
        "offset": 0,
        "slot": "6",
        "type": "t_mapping(t_address,t_uint256)"
      },
      {
        "astId": 8715,
        "contract": "contracts/contracts_for_tests/BridgeERC20Test.sol:BridgeERC20Test",
        "label": "_decimals",
        "offset": 0,
        "slot": "7",
        "type": "t_uint8"
      }
    ],
    "types": {
      "t_address": {
        "encoding": "inplace",
        "label": "address",
        "numberOfBytes": "20"
      },
      "t_bool": {
        "encoding": "inplace",
        "label": "bool",
        "numberOfBytes": "1"
      },
      "t_bytes32": {
        "encoding": "inplace",
        "label": "bytes32",
        "numberOfBytes": "32"
      },
      "t_mapping(t_address,t_bool)": {
        "encoding": "mapping",
        "key": "t_address",
        "label": "mapping(address => bool)",
        "numberOfBytes": "32",
        "value": "t_bool"
      },
      "t_mapping(t_address,t_mapping(t_address,t_uint256))": {
        "encoding": "mapping",
        "key": "t_address",
        "label": "mapping(address => mapping(address => uint256))",
        "numberOfBytes": "32",
        "value": "t_mapping(t_address,t_uint256)"
      },
      "t_mapping(t_address,t_uint256)": {
        "encoding": "mapping",
        "key": "t_address",
        "label": "mapping(address => uint256)",
        "numberOfBytes": "32",
        "value": "t_uint256"
      },
      "t_mapping(t_bytes32,t_struct(RoleData)891_storage)": {
        "encoding": "mapping",
        "key": "t_bytes32",
        "label": "mapping(bytes32 => struct AccessControl.RoleData)",
        "numberOfBytes": "32",
        "value": "t_struct(RoleData)891_storage"
      },
      "t_string_storage": {
        "encoding": "bytes",
        "label": "string",
        "numberOfBytes": "32"
      },
      "t_struct(RoleData)891_storage": {
        "encoding": "inplace",
        "label": "struct AccessControl.RoleData",
        "members": [
          {
            "astId": 888,
            "contract": "contracts/contracts_for_tests/BridgeERC20Test.sol:BridgeERC20Test",
            "label": "members",
            "offset": 0,
            "slot": "0",
            "type": "t_mapping(t_address,t_bool)"
          },
          {
            "astId": 890,
            "contract": "contracts/contracts_for_tests/BridgeERC20Test.sol:BridgeERC20Test",
            "label": "adminRole",
            "offset": 0,
            "slot": "1",
            "type": "t_bytes32"
          }
        ],
        "numberOfBytes": "64"
      },
      "t_uint256": {
        "encoding": "inplace",
        "label": "uint256",
        "numberOfBytes": "32"
      },
      "t_uint8": {
        "encoding": "inplace",
        "label": "uint8",
        "numberOfBytes": "1"
      }
    }
  }
}