{
  "address": "0x6C5750Be93De7a4A3072bA10A6610C23e8399df1",
  "abi": [
    {
      "anonymous": false,
      "inputs": [
        {
          "indexed": false,
          "internalType": "address",
          "name": "account",
          "type": "address"
        }
      ],
      "name": "Paused",
      "type": "event"
    },
    {
      "anonymous": false,
      "inputs": [
        {
          "indexed": true,
          "internalType": "bytes32",
          "name": "role",
          "type": "bytes32"
        },
        {
          "indexed": true,
          "internalType": "bytes32",
          "name": "previousAdminRole",
          "type": "bytes32"
        },
        {
          "indexed": true,
          "internalType": "bytes32",
          "name": "newAdminRole",
          "type": "bytes32"
        }
      ],
      "name": "RoleAdminChanged",
      "type": "event"
    },
    {
      "anonymous": false,
      "inputs": [
        {
          "indexed": true,
          "internalType": "bytes32",
          "name": "role",
          "type": "bytes32"
        },
        {
          "indexed": true,
          "internalType": "address",
          "name": "account",
          "type": "address"
        },
        {
          "indexed": true,
          "internalType": "address",
          "name": "sender",
          "type": "address"
        }
      ],
      "name": "RoleGranted",
      "type": "event"
    },
    {
      "anonymous": false,
      "inputs": [
        {
          "indexed": true,
          "internalType": "bytes32",
          "name": "role",
          "type": "bytes32"
        },
        {
          "indexed": true,
          "internalType": "address",
          "name": "account",
          "type": "address"
        },
        {
          "indexed": true,
          "internalType": "address",
          "name": "sender",
          "type": "address"
        }
      ],
      "name": "RoleRevoked",
      "type": "event"
    },
    {
      "anonymous": false,
      "inputs": [
        {
          "indexed": true,
          "internalType": "uint256",
          "name": "eventId",
          "type": "uint256"
        },
        {
          "components": [
            {
              "internalType": "address",
              "name": "tokenAddress",
              "type": "address"
            },
            {
              "internalType": "address",
              "name": "toAddress",
              "type": "address"
            },
            {
              "internalType": "uint256",
              "name": "amount",
              "type": "uint256"
            }
          ],
          "indexed": false,
          "internalType": "struct CommonStructs.Transfer[]",
          "name": "queue",
          "type": "tuple[]"
        }
      ],
      "name": "Transfer",
      "type": "event"
    },
    {
      "anonymous": false,
      "inputs": [
        {
          "indexed": true,
          "internalType": "uint256",
          "name": "eventId",
          "type": "uint256"
        }
      ],
      "name": "TransferFinish",
      "type": "event"
    },
    {
      "anonymous": false,
      "inputs": [
        {
          "indexed": true,
          "internalType": "uint256",
          "name": "eventId",
          "type": "uint256"
        }
      ],
      "name": "TransferSubmit",
      "type": "event"
    },
    {
      "anonymous": false,
      "inputs": [
        {
          "indexed": false,
          "internalType": "address",
          "name": "account",
          "type": "address"
        }
      ],
      "name": "Unpaused",
      "type": "event"
    },
    {
      "anonymous": false,
      "inputs": [
        {
          "indexed": true,
          "internalType": "address",
          "name": "from",
          "type": "address"
        },
        {
          "indexed": false,
          "internalType": "uint256",
          "name": "eventId",
          "type": "uint256"
        },
        {
          "indexed": false,
          "internalType": "address",
          "name": "tokenFrom",
          "type": "address"
        },
        {
          "indexed": false,
          "internalType": "address",
          "name": "tokenTo",
          "type": "address"
        },
        {
          "indexed": false,
          "internalType": "uint256",
          "name": "amount",
          "type": "uint256"
        },
        {
          "indexed": false,
          "internalType": "uint256",
          "name": "transferFeeAmount",
          "type": "uint256"
        },
        {
          "indexed": false,
          "internalType": "uint256",
          "name": "bridgeFeeAmount",
          "type": "uint256"
        }
      ],
      "name": "Withdraw",
      "type": "event"
    },
    {
      "inputs": [],
      "name": "ADMIN_ROLE",
      "outputs": [
        {
          "internalType": "bytes32",
          "name": "",
          "type": "bytes32"
        }
      ],
      "stateMutability": "view",
      "type": "function"
    },
    {
      "inputs": [],
      "name": "DEFAULT_ADMIN_ROLE",
      "outputs": [
        {
          "internalType": "bytes32",
          "name": "",
          "type": "bytes32"
        }
      ],
      "stateMutability": "view",
      "type": "function"
    },
    {
      "inputs": [],
      "name": "FEE_PROVIDER_ROLE",
      "outputs": [
        {
          "internalType": "bytes32",
          "name": "",
          "type": "bytes32"
        }
      ],
      "stateMutability": "view",
      "type": "function"
    },
    {
      "inputs": [],
      "name": "RELAY_ROLE",
      "outputs": [
        {
          "internalType": "bytes32",
          "name": "",
          "type": "bytes32"
        }
      ],
      "stateMutability": "view",
      "type": "function"
    },
    {
      "inputs": [],
      "name": "WATCHDOG_ROLE",
      "outputs": [
        {
          "internalType": "bytes32",
          "name": "",
          "type": "bytes32"
        }
      ],
      "stateMutability": "view",
      "type": "function"
    },
    {
      "inputs": [],
      "name": "bridgeFeeRecipient",
      "outputs": [
        {
          "internalType": "address payable",
          "name": "",
          "type": "address"
        }
      ],
      "stateMutability": "view",
      "type": "function"
    },
    {
      "inputs": [
        {
          "internalType": "address payable",
          "name": "feeRecipient_",
          "type": "address"
        }
      ],
      "name": "changeBridgeFeeRecipient",
      "outputs": [],
      "stateMutability": "nonpayable",
      "type": "function"
    },
    {
      "inputs": [
        {
          "internalType": "uint256",
          "name": "lockTime_",
          "type": "uint256"
        }
      ],
      "name": "changeLockTime",
      "outputs": [],
      "stateMutability": "nonpayable",
      "type": "function"
    },
    {
      "inputs": [
        {
          "internalType": "uint256",
          "name": "minSafetyBlocks_",
          "type": "uint256"
        }
      ],
      "name": "changeMinSafetyBlocks",
      "outputs": [],
      "stateMutability": "nonpayable",
      "type": "function"
    },
    {
      "inputs": [
        {
          "internalType": "uint256",
          "name": "minSafetyBlocksValidators_",
          "type": "uint256"
        }
      ],
      "name": "changeMinSafetyBlocksValidators",
      "outputs": [],
      "stateMutability": "nonpayable",
      "type": "function"
    },
    {
      "inputs": [
        {
          "internalType": "uint256",
          "name": "signatureFeeCheckNumber_",
          "type": "uint256"
        }
      ],
      "name": "changeSignatureFeeCheckNumber",
      "outputs": [],
      "stateMutability": "nonpayable",
      "type": "function"
    },
    {
      "inputs": [
        {
          "internalType": "uint256",
          "name": "timeframeSeconds_",
          "type": "uint256"
        }
      ],
      "name": "changeTimeframeSeconds",
      "outputs": [],
      "stateMutability": "nonpayable",
      "type": "function"
    },
    {
      "inputs": [
        {
          "internalType": "address payable",
          "name": "feeRecipient_",
          "type": "address"
        }
      ],
      "name": "changeTransferFeeRecipient",
      "outputs": [],
      "stateMutability": "nonpayable",
      "type": "function"
    },
    {
      "inputs": [
        {
          "internalType": "uint256",
          "name": "eventId",
          "type": "uint256"
        }
      ],
      "name": "getLockedTransfers",
      "outputs": [
        {
          "components": [
            {
              "components": [
                {
                  "internalType": "address",
                  "name": "tokenAddress",
                  "type": "address"
                },
                {
                  "internalType": "address",
                  "name": "toAddress",
                  "type": "address"
                },
                {
                  "internalType": "uint256",
                  "name": "amount",
                  "type": "uint256"
                }
              ],
              "internalType": "struct CommonStructs.Transfer[]",
              "name": "transfers",
              "type": "tuple[]"
            },
            {
              "internalType": "uint256",
              "name": "endTimestamp",
              "type": "uint256"
            }
          ],
          "internalType": "struct CommonStructs.LockedTransfers",
          "name": "",
          "type": "tuple"
        }
      ],
      "stateMutability": "view",
      "type": "function"
    },
    {
      "inputs": [
        {
          "internalType": "bytes32",
          "name": "role",
          "type": "bytes32"
        }
      ],
      "name": "getRoleAdmin",
      "outputs": [
        {
          "internalType": "bytes32",
          "name": "",
          "type": "bytes32"
        }
      ],
      "stateMutability": "view",
      "type": "function"
    },
    {
      "inputs": [],
      "name": "getValidatorSet",
      "outputs": [
        {
          "internalType": "address[]",
          "name": "",
          "type": "address[]"
        }
      ],
      "stateMutability": "view",
      "type": "function"
    },
    {
      "inputs": [
        {
          "internalType": "bytes32",
          "name": "role",
          "type": "bytes32"
        },
        {
          "internalType": "address",
          "name": "account",
          "type": "address"
        }
      ],
      "name": "grantRole",
      "outputs": [],
      "stateMutability": "nonpayable",
      "type": "function"
    },
    {
      "inputs": [
        {
          "internalType": "bytes32",
          "name": "role",
          "type": "bytes32"
        },
        {
          "internalType": "address[]",
          "name": "accounts",
          "type": "address[]"
        }
      ],
      "name": "grantRoles",
      "outputs": [],
      "stateMutability": "nonpayable",
      "type": "function"
    },
    {
      "inputs": [
        {
          "internalType": "bytes32",
          "name": "role",
          "type": "bytes32"
        },
        {
          "internalType": "address",
          "name": "account",
          "type": "address"
        }
      ],
      "name": "hasRole",
      "outputs": [
        {
          "internalType": "bool",
          "name": "",
          "type": "bool"
        }
      ],
      "stateMutability": "view",
      "type": "function"
    },
    {
      "inputs": [
        {
          "components": [
            {
              "internalType": "address",
              "name": "sideBridgeAddress",
              "type": "address"
            },
            {
              "internalType": "address",
              "name": "relayAddress",
              "type": "address"
            },
            {
              "internalType": "address[]",
              "name": "watchdogsAddresses",
              "type": "address[]"
            },
            {
              "internalType": "address",
              "name": "feeProviderAddress",
              "type": "address"
            },
            {
              "internalType": "address",
              "name": "wrappingTokenAddress",
              "type": "address"
            },
            {
              "internalType": "address[]",
              "name": "tokenThisAddresses",
              "type": "address[]"
            },
            {
              "internalType": "address[]",
              "name": "tokenSideAddresses",
              "type": "address[]"
            },
            {
              "internalType": "address payable",
              "name": "transferFeeRecipient",
              "type": "address"
            },
            {
              "internalType": "address payable",
              "name": "bridgeFeeRecipient",
              "type": "address"
            },
            {
              "internalType": "uint256",
              "name": "timeframeSeconds",
              "type": "uint256"
            },
            {
              "internalType": "uint256",
              "name": "lockTime",
              "type": "uint256"
            },
            {
              "internalType": "uint256",
              "name": "minSafetyBlocks",
              "type": "uint256"
            }
          ],
          "internalType": "struct CommonStructs.ConstructorArgs",
          "name": "args",
          "type": "tuple"
        },
        {
          "internalType": "address[]",
          "name": "initialValidators",
          "type": "address[]"
        },
        {
          "internalType": "address",
          "name": "validatorSetAddress",
          "type": "address"
        },
        {
          "internalType": "bytes32",
          "name": "lastProcessedBlock",
          "type": "bytes32"
        },
        {
          "internalType": "uint256",
          "name": "minSafetyBlocksValidators",
          "type": "uint256"
        }
      ],
      "name": "initialize",
      "outputs": [],
      "stateMutability": "nonpayable",
      "type": "function"
    },
    {
      "inputs": [],
      "name": "inputEventId",
      "outputs": [
        {
          "internalType": "uint256",
          "name": "",
          "type": "uint256"
        }
      ],
      "stateMutability": "view",
      "type": "function"
    },
    {
      "inputs": [],
      "name": "isQueueEmpty",
      "outputs": [
        {
          "internalType": "bool",
          "name": "",
          "type": "bool"
        }
      ],
      "stateMutability": "view",
      "type": "function"
    },
    {
      "inputs": [],
      "name": "lastProcessedBlock",
      "outputs": [
        {
          "internalType": "bytes32",
          "name": "",
          "type": "bytes32"
        }
      ],
      "stateMutability": "view",
      "type": "function"
    },
    {
      "inputs": [],
      "name": "lastTimeframe",
      "outputs": [
        {
          "internalType": "uint256",
          "name": "",
          "type": "uint256"
        }
      ],
      "stateMutability": "view",
      "type": "function"
    },
    {
      "inputs": [],
      "name": "lockTime",
      "outputs": [
        {
          "internalType": "uint256",
          "name": "",
          "type": "uint256"
        }
      ],
      "stateMutability": "view",
      "type": "function"
    },
    {
      "inputs": [
        {
          "internalType": "uint256",
          "name": "",
          "type": "uint256"
        }
      ],
      "name": "lockedTransfers",
      "outputs": [
        {
          "internalType": "uint256",
          "name": "endTimestamp",
          "type": "uint256"
        }
      ],
      "stateMutability": "view",
      "type": "function"
    },
    {
      "inputs": [],
      "name": "minSafetyBlocks",
      "outputs": [
        {
          "internalType": "uint256",
          "name": "",
          "type": "uint256"
        }
      ],
      "stateMutability": "view",
      "type": "function"
    },
    {
      "inputs": [],
      "name": "minSafetyBlocksValidators",
      "outputs": [
        {
          "internalType": "uint256",
          "name": "",
          "type": "uint256"
        }
      ],
      "stateMutability": "view",
      "type": "function"
    },
    {
      "inputs": [],
      "name": "oldestLockedEventId",
      "outputs": [
        {
          "internalType": "uint256",
          "name": "",
          "type": "uint256"
        }
      ],
      "stateMutability": "view",
      "type": "function"
    },
    {
      "inputs": [],
      "name": "outputEventId",
      "outputs": [
        {
          "internalType": "uint256",
          "name": "",
          "type": "uint256"
        }
      ],
      "stateMutability": "view",
      "type": "function"
    },
    {
      "inputs": [],
      "name": "pause",
      "outputs": [],
      "stateMutability": "nonpayable",
      "type": "function"
    },
    {
      "inputs": [],
      "name": "paused",
      "outputs": [
        {
          "internalType": "bool",
          "name": "",
          "type": "bool"
        }
      ],
      "stateMutability": "view",
      "type": "function"
    },
    {
      "inputs": [
        {
          "internalType": "uint256",
          "name": "eventId",
          "type": "uint256"
        }
      ],
      "name": "removeLockedTransfers",
      "outputs": [],
      "stateMutability": "nonpayable",
      "type": "function"
    },
    {
      "inputs": [
        {
          "internalType": "bytes32",
          "name": "role",
          "type": "bytes32"
        },
        {
          "internalType": "address",
          "name": "account",
          "type": "address"
        }
      ],
      "name": "renounceRole",
      "outputs": [],
      "stateMutability": "nonpayable",
      "type": "function"
    },
    {
      "inputs": [
        {
          "internalType": "bytes32",
          "name": "role",
          "type": "bytes32"
        },
        {
          "internalType": "address",
          "name": "account",
          "type": "address"
        }
      ],
      "name": "revokeRole",
      "outputs": [],
      "stateMutability": "nonpayable",
      "type": "function"
    },
    {
      "inputs": [
        {
          "internalType": "bytes32",
          "name": "role",
          "type": "bytes32"
        },
        {
          "internalType": "address[]",
          "name": "accounts",
          "type": "address[]"
        }
      ],
      "name": "revokeRoles",
      "outputs": [],
      "stateMutability": "nonpayable",
      "type": "function"
    },
    {
      "inputs": [],
      "name": "sideBridgeAddress",
      "outputs": [
        {
          "internalType": "address",
          "name": "",
          "type": "address"
        }
      ],
      "stateMutability": "view",
      "type": "function"
    },
    {
      "inputs": [
        {
          "internalType": "uint256",
          "name": "eventId",
          "type": "uint256"
        }
      ],
      "name": "skipTransfers",
      "outputs": [],
      "stateMutability": "nonpayable",
      "type": "function"
    },
    {
      "inputs": [
        {
          "components": [
            {
              "components": [
                {
                  "internalType": "bytes3",
                  "name": "p0Seal",
                  "type": "bytes3"
                },
                {
                  "internalType": "bytes3",
                  "name": "p0Bare",
                  "type": "bytes3"
                },
                {
                  "internalType": "bytes32",
                  "name": "parentHash",
                  "type": "bytes32"
                },
                {
                  "internalType": "bytes",
                  "name": "p2",
                  "type": "bytes"
                },
                {
                  "internalType": "bytes32",
                  "name": "receiptHash",
                  "type": "bytes32"
                },
                {
                  "internalType": "bytes",
                  "name": "p3",
                  "type": "bytes"
                },
                {
                  "internalType": "bytes4",
                  "name": "step",
                  "type": "bytes4"
                },
                {
                  "internalType": "bytes",
                  "name": "signature",
                  "type": "bytes"
                },
                {
                  "internalType": "uint64",
                  "name": "finalizedVs",
                  "type": "uint64"
                }
              ],
              "internalType": "struct CheckAura.BlockAura[]",
              "name": "blocks",
              "type": "tuple[]"
            },
            {
              "components": [
                {
                  "internalType": "bytes[]",
                  "name": "receiptProof",
                  "type": "bytes[]"
                },
                {
                  "internalType": "uint256",
                  "name": "eventId",
                  "type": "uint256"
                },
                {
                  "components": [
                    {
                      "internalType": "address",
                      "name": "tokenAddress",
                      "type": "address"
                    },
                    {
                      "internalType": "address",
                      "name": "toAddress",
                      "type": "address"
                    },
                    {
                      "internalType": "uint256",
                      "name": "amount",
                      "type": "uint256"
                    }
                  ],
                  "internalType": "struct CommonStructs.Transfer[]",
                  "name": "transfers",
                  "type": "tuple[]"
                }
              ],
              "internalType": "struct CommonStructs.TransferProof",
              "name": "transfer",
              "type": "tuple"
            },
            {
              "components": [
                {
                  "internalType": "bytes[]",
                  "name": "receiptProof",
                  "type": "bytes[]"
                },
                {
                  "components": [
                    {
                      "internalType": "address",
                      "name": "deltaAddress",
                      "type": "address"
                    },
                    {
                      "internalType": "uint16",
                      "name": "deltaIndex",
                      "type": "uint16"
                    }
                  ],
                  "internalType": "struct CheckAura.ValidatorSetChange[]",
                  "name": "changes",
                  "type": "tuple[]"
                },
                {
                  "internalType": "uint64",
                  "name": "eventBlock",
                  "type": "uint64"
                }
              ],
              "internalType": "struct CheckAura.ValidatorSetProof[]",
              "name": "vsChanges",
              "type": "tuple[]"
            },
            {
              "internalType": "uint64",
              "name": "transferEventBlock",
              "type": "uint64"
            }
          ],
          "internalType": "struct CheckAura.AuraProof",
          "name": "auraProof",
          "type": "tuple"
        }
      ],
      "name": "submitTransferAura",
      "outputs": [],
      "stateMutability": "nonpayable",
      "type": "function"
    },
    {
      "inputs": [
        {
          "components": [
            {
              "components": [
                {
                  "internalType": "bytes3",
                  "name": "p0Seal",
                  "type": "bytes3"
                },
                {
                  "internalType": "bytes3",
                  "name": "p0Bare",
                  "type": "bytes3"
                },
                {
                  "internalType": "bytes32",
                  "name": "parentHash",
                  "type": "bytes32"
                },
                {
                  "internalType": "bytes",
                  "name": "p2",
                  "type": "bytes"
                },
                {
                  "internalType": "bytes32",
                  "name": "receiptHash",
                  "type": "bytes32"
                },
                {
                  "internalType": "bytes",
                  "name": "p3",
                  "type": "bytes"
                },
                {
                  "internalType": "bytes4",
                  "name": "step",
                  "type": "bytes4"
                },
                {
                  "internalType": "bytes",
                  "name": "signature",
                  "type": "bytes"
                },
                {
                  "internalType": "uint64",
                  "name": "finalizedVs",
                  "type": "uint64"
                }
              ],
              "internalType": "struct CheckAura.BlockAura[]",
              "name": "blocks",
              "type": "tuple[]"
            },
            {
              "components": [
                {
                  "internalType": "bytes[]",
                  "name": "receiptProof",
                  "type": "bytes[]"
                },
                {
                  "internalType": "uint256",
                  "name": "eventId",
                  "type": "uint256"
                },
                {
                  "components": [
                    {
                      "internalType": "address",
                      "name": "tokenAddress",
                      "type": "address"
                    },
                    {
                      "internalType": "address",
                      "name": "toAddress",
                      "type": "address"
                    },
                    {
                      "internalType": "uint256",
                      "name": "amount",
                      "type": "uint256"
                    }
                  ],
                  "internalType": "struct CommonStructs.Transfer[]",
                  "name": "transfers",
                  "type": "tuple[]"
                }
              ],
              "internalType": "struct CommonStructs.TransferProof",
              "name": "transfer",
              "type": "tuple"
            },
            {
              "components": [
                {
                  "internalType": "bytes[]",
                  "name": "receiptProof",
                  "type": "bytes[]"
                },
                {
                  "components": [
                    {
                      "internalType": "address",
                      "name": "deltaAddress",
                      "type": "address"
                    },
                    {
                      "internalType": "uint16",
                      "name": "deltaIndex",
                      "type": "uint16"
                    }
                  ],
                  "internalType": "struct CheckAura.ValidatorSetChange[]",
                  "name": "changes",
                  "type": "tuple[]"
                },
                {
                  "internalType": "uint64",
                  "name": "eventBlock",
                  "type": "uint64"
                }
              ],
              "internalType": "struct CheckAura.ValidatorSetProof[]",
              "name": "vsChanges",
              "type": "tuple[]"
            },
            {
              "internalType": "uint64",
              "name": "transferEventBlock",
              "type": "uint64"
            }
          ],
          "internalType": "struct CheckAura.AuraProof",
          "name": "auraProof",
          "type": "tuple"
        }
      ],
      "name": "submitValidatorSetChangesAura",
      "outputs": [],
      "stateMutability": "nonpayable",
      "type": "function"
    },
    {
      "inputs": [
        {
          "internalType": "bytes4",
          "name": "interfaceId",
          "type": "bytes4"
        }
      ],
      "name": "supportsInterface",
      "outputs": [
        {
          "internalType": "bool",
          "name": "",
          "type": "bool"
        }
      ],
      "stateMutability": "view",
      "type": "function"
    },
    {
      "inputs": [],
      "name": "timeframeSeconds",
      "outputs": [
        {
          "internalType": "uint256",
          "name": "",
          "type": "uint256"
        }
      ],
      "stateMutability": "view",
      "type": "function"
    },
    {
      "inputs": [
        {
          "internalType": "address",
          "name": "",
          "type": "address"
        }
      ],
      "name": "tokenAddresses",
      "outputs": [
        {
          "internalType": "address",
          "name": "",
          "type": "address"
        }
      ],
      "stateMutability": "view",
      "type": "function"
    },
    {
      "inputs": [
        {
          "internalType": "address",
          "name": "tokenThisAddress",
          "type": "address"
        },
        {
          "internalType": "address",
          "name": "tokenSideAddress",
          "type": "address"
        }
      ],
      "name": "tokensAdd",
      "outputs": [],
      "stateMutability": "nonpayable",
      "type": "function"
    },
    {
      "inputs": [
        {
          "internalType": "address[]",
          "name": "tokenThisAddresses",
          "type": "address[]"
        },
        {
          "internalType": "address[]",
          "name": "tokenSideAddresses",
          "type": "address[]"
        }
      ],
      "name": "tokensAddBatch",
      "outputs": [],
      "stateMutability": "nonpayable",
      "type": "function"
    },
    {
      "inputs": [
        {
          "internalType": "address",
          "name": "tokenThisAddress",
          "type": "address"
        }
      ],
      "name": "tokensRemove",
      "outputs": [],
      "stateMutability": "nonpayable",
      "type": "function"
    },
    {
      "inputs": [
        {
          "internalType": "address[]",
          "name": "tokenThisAddresses",
          "type": "address[]"
        }
      ],
      "name": "tokensRemoveBatch",
      "outputs": [],
      "stateMutability": "nonpayable",
      "type": "function"
    },
    {
      "inputs": [],
      "name": "transferFeeRecipient",
      "outputs": [
        {
          "internalType": "address payable",
          "name": "",
          "type": "address"
        }
      ],
      "stateMutability": "view",
      "type": "function"
    },
    {
      "inputs": [],
      "name": "triggerTransfers",
      "outputs": [],
      "stateMutability": "nonpayable",
      "type": "function"
    },
    {
      "inputs": [
        {
          "internalType": "uint256",
          "name": "eventId",
          "type": "uint256"
        }
      ],
      "name": "unlockTransfers",
      "outputs": [],
      "stateMutability": "nonpayable",
      "type": "function"
    },
    {
      "inputs": [],
      "name": "unlockTransfersBatch",
      "outputs": [],
      "stateMutability": "nonpayable",
      "type": "function"
    },
    {
      "inputs": [],
      "name": "unpause",
      "outputs": [],
      "stateMutability": "nonpayable",
      "type": "function"
    },
    {
      "inputs": [
        {
          "internalType": "uint256",
          "name": "",
          "type": "uint256"
        }
      ],
      "name": "validatorSet",
      "outputs": [
        {
          "internalType": "address",
          "name": "",
          "type": "address"
        }
      ],
      "stateMutability": "view",
      "type": "function"
    },
    {
      "inputs": [
        {
          "internalType": "address",
          "name": "tokenThisAddress",
          "type": "address"
        },
        {
          "internalType": "address",
          "name": "toAddress",
          "type": "address"
        },
        {
          "internalType": "uint256",
          "name": "amount",
          "type": "uint256"
        },
        {
          "internalType": "bool",
          "name": "unwrapSide",
          "type": "bool"
        },
        {
          "internalType": "bytes",
          "name": "feeSignature",
          "type": "bytes"
        },
        {
          "internalType": "uint256",
          "name": "transferFee",
          "type": "uint256"
        },
        {
          "internalType": "uint256",
          "name": "bridgeFee",
          "type": "uint256"
        }
      ],
      "name": "withdraw",
      "outputs": [],
      "stateMutability": "payable",
      "type": "function"
    },
    {
      "inputs": [
        {
          "internalType": "address",
          "name": "toAddress",
          "type": "address"
        },
        {
          "internalType": "bytes",
          "name": "feeSignature",
          "type": "bytes"
        },
        {
          "internalType": "uint256",
          "name": "transferFee",
          "type": "uint256"
        },
        {
          "internalType": "uint256",
          "name": "bridgeFee",
          "type": "uint256"
        }
      ],
      "name": "wrapWithdraw",
      "outputs": [],
      "stateMutability": "payable",
      "type": "function"
    },
    {
      "inputs": [],
      "name": "wrapperAddress",
      "outputs": [
        {
          "internalType": "address",
          "name": "",
          "type": "address"
        }
      ],
      "stateMutability": "view",
      "type": "function"
    },
    {
      "stateMutability": "payable",
      "type": "receive"
    }
  ],
  "transactionHash": "0xfe5ff0c82477d91b31af45d6230b1fd13c482f5be956a01ad645797e20736c4d",
  "args": [],
  "numDeployments": 1,
  "solcInputHash": "14835e48c656ebed02c4fc9389a12566",
  "bytecode": "0x608060405234801561001057600080fd5b50614bd2806100206000396000f3fe6080604052600436106103735760003560e060020a900480638e5df9c7116101ca578063c4bcb13f116100fb578063e64808f311610099578063f862b7eb11610073578063f862b7eb14610a07578063f8ae31bf14610a27578063f8b7443314610a3d578063fd5d2ef314610a5057600080fd5b8063e64808f3146109a7578063f33fe10f146109c7578063f7005587146109e757600080fd5b8063d3b89f49116100d5578063d3b89f4914610906578063d547741f1461093a578063deb9a3a21461095a578063e31be0871461097a57600080fd5b8063c4bcb13f146108a4578063cf331250146108c4578063cf3317d3146108e657600080fd5b8063a217fddf11610168578063b6d3385e11610142578063b6d3385e14610822578063b87330e914610858578063ba8bbbe014610878578063baeebe751461088e57600080fd5b8063a217fddf146107b9578063a7dc9b7c146107ce578063a9b1cf0b146107ee57600080fd5b8063924473a6116101a4578063924473a61461074d578063924cf6e01461076d57806396cf52271461078357806399b5bb64146107a357600080fd5b80638e5df9c7146106fa57806391c5bc0a1461071a57806391d148541461072d57600080fd5b80633928b296116102a4578063746b5c42116102425780638456cb591161021c5780638456cb591461069a578063853890ae146106af57806386d7679e146106cf5780638ac1f86f146106e557600080fd5b8063746b5c421461064357806375b238fc146106585780637df8b8021461067a57600080fd5b80634a1856de1161027e5780634a1856de146105bb5780635249a705146105eb5780635c975abb1461060b5780636ff7c5461461062357600080fd5b80633928b296146105665780633f4ba83a1461058657806342180fb81461059b57600080fd5b80632bbba84711610311578063331a891a116102eb578063331a891a146104f057806333de61d21461051057806336568abe14610526578063390d53881461054657600080fd5b80632bbba847146104825780632f2ff15d14610498578063304561bb146104b857600080fd5b80630d6680871161034d5780630d66808714610406578063196f0f621461041c578063248a9ca31461043c578063297c26771461046c57600080fd5b806301ffc9a71461037f57806304421823146103b457806309fce356146103e457600080fd5b3661037a57005b600080fd5b34801561038b57600080fd5b5061039f61039a366004614020565b610a70565b60405190151581526020015b60405180910390f35b3480156103c057600080fd5b506103d6600080516020614b5d83398151915281565b6040519081526020016103ab565b3480156103f057600080fd5b506104046103ff366004613ecd565b610ad9565b005b34801561041257600080fd5b506103d660d45481565b34801561042857600080fd5b50610404610437366004613fd4565b610b05565b34801561044857600080fd5b506103d6610457366004613f96565b60009081526065602052604090206001015490565b34801561047857600080fd5b506103d660d65481565b34801561048e57600080fd5b5060ca541561039f565b3480156104a457600080fd5b506104046104b3366004613faf565b610b53565b3480156104c457600080fd5b5060cf546104d890600160a060020a031681565b604051600160a060020a0390911681526020016103ab565b3480156104fc57600080fd5b5061040461050b366004613f96565b610b7e565b34801561051c57600080fd5b506103d660e95481565b34801561053257600080fd5b50610404610541366004613faf565b610c9e565b34801561055257600080fd5b5060d0546104d890600160a060020a031681565b34801561057257600080fd5b50610404610581366004613d3a565b610d29565b34801561059257600080fd5b50610404610d65565b3480156105a757600080fd5b506104046105b6366004613f96565b610d89565b3480156105c757600080fd5b506103d66105d6366004613f96565b60cb6020526000908152604090206001015481565b3480156105f757600080fd5b50610404610606366004613e8b565b610dc6565b34801561061757600080fd5b5060975460ff1661039f565b34801561062f57600080fd5b5061040461063e366004613f96565b610e4f565b34801561064f57600080fd5b50610404610e6e565b34801561066457600080fd5b506103d6600080516020614b7d83398151915281565b34801561068657600080fd5b5060ce546104d890600160a060020a031681565b3480156106a657600080fd5b50610404610f1a565b3480156106bb57600080fd5b506104046106ca366004613d57565b610f4d565b3480156106db57600080fd5b506103d660d75481565b3480156106f157600080fd5b50610404610f95565b34801561070657600080fd5b50610404610715366004613d3a565b6110ed565b610404610728366004613e24565b61112e565b34801561073957600080fd5b5061039f610748366004613faf565b61145e565b34801561075957600080fd5b5061040461076836600461404a565b611489565b34801561077957600080fd5b506103d660d25481565b34801561078f57600080fd5b5061040461079e366004613f96565b61156c565b3480156107af57600080fd5b506103d660d55481565b3480156107c557600080fd5b506103d6600081565b3480156107da57600080fd5b506104046107e9366004614085565b61158b565b3480156107fa57600080fd5b506103d67fb7f2fcb7a10916921b74b9baa8ea85f89b12ab12f6ededa160998f8b20e65f9581565b34801561082e57600080fd5b506104d861083d366004613d3a565b60cd60205260009081526040902054600160a060020a031681565b34801561086457600080fd5b50610404610873366004613d3a565b611615565b34801561088457600080fd5b506103d660cc5481565b34801561089a57600080fd5b506103d660d35481565b3480156108b057600080fd5b506104046108bf36600461404a565b611651565b3480156108d057600080fd5b506108d96116aa565b6040516103ab9190614479565b3480156108f257600080fd5b50610404610901366004613f96565b61170c565b34801561091257600080fd5b506103d67f516d5e7ed3e60a6b2804c1554cd94bc2eb576e44b192a0e069d4c527589a887e81565b34801561094657600080fd5b50610404610955366004613faf565b611783565b34801561096657600080fd5b50610404610975366004613fd4565b6117a9565b34801561098657600080fd5b5061099a610995366004613f96565b6117d0565b6040516103ab9190614745565b3480156109b357600080fd5b506104d86109c2366004613f96565b61188c565b3480156109d357600080fd5b5060d1546104d890600160a060020a031681565b3480156109f357600080fd5b50610404610a02366004613f96565b6118b6565b348015610a1357600080fd5b50610404610a22366004613f96565b6118d5565b348015610a3357600080fd5b506103d660ea5481565b610404610a4b366004613d90565b611b08565b348015610a5c57600080fd5b50610404610a6b366004613f96565b611f68565b6000600160e060020a031982167f7965db0b000000000000000000000000000000000000000000000000000000001480610ad357507f01ffc9a700000000000000000000000000000000000000000000000000000000600160e060020a03198316145b92915050565b600080516020614b7d833981519152610af28133611f87565b610afe85858585611fee565b5050505050565b60005b81811015610b4d57610b3b84848484818110610b2657610b26614aa8565b90506020020160208101906109559190613d3a565b80610b4581614a2e565b915050610b08565b50505050565b600082815260656020526040902060010154610b6f8133611f87565b610b79838361210f565b505050565b600080516020614b7d833981519152610b978133611f87565b60975460ff16610bc55760405160e560020a62461bcd028152600401610bbc9061461d565b60405180910390fd5b60cc54821015610bea5760405160e560020a62461bcd028152600401610bbc906146e8565b60d554821115610c3f5760405160e560020a62461bcd02815260206004820152601f60248201527f6576656e744964206d757374206265203c3d20696e7075744576656e744964006044820152606401610bbc565b610c4a60018361498a565b60d5555b600082815260cb602052604090206001015415610c9a57600082815260cb6020526040812090610c7e8282613be1565b5060006001919091015581610c9281614a2e565b925050610c4e565b5050565b600160a060020a0381163314610d1f5760405160e560020a62461bcd02815260206004820152602f60248201527f416363657373436f6e74726f6c3a2063616e206f6e6c792072656e6f756e636560448201527f20726f6c657320666f722073656c6600000000000000000000000000000000006064820152608401610bbc565b610c9a8282612195565b600080516020614b7d833981519152610d428133611f87565b5060d08054600160a060020a031916600160a060020a0392909216919091179055565b600080516020614b7d833981519152610d7e8133611f87565b610d866121fc565b50565b600080516020614b7d833981519152610da28133611f87565b8160d35460d754610db39190614948565b610dbd9190614934565b60d7555060d355565b600080516020614b7d833981519152610ddf8133611f87565b8160005b81811015610afe5760cd6000868684818110610e0157610e01614aa8565b9050602002016020810190610e169190613d3a565b600160a060020a0316815260208101919091526040016000208054600160a060020a031916905580610e4781614a2e565b915050610de3565b600080516020614b7d833981519152610e688133611f87565b5060ea55565b60ca54610ec05760405160e560020a62461bcd02815260206004820152600e60248201527f517565756520697320656d7074790000000000000000000000000000000000006044820152606401610bbc565b60d68054906000610ed083614a2e565b919050557fe15729a2f427aa4572dab35eb692c902fcbce57d41642013259c741380809ae260ca604051610f04919061457a565b60405180910390a2610f1860ca6000613be1565b565b7fb7f2fcb7a10916921b74b9baa8ea85f89b12ab12f6ededa160998f8b20e65f95610f458133611f87565b610d8661226b565b600080516020614b7d833981519152610f668133611f87565b50600160a060020a03918216600090815260cd602052604090208054600160a060020a03191691909216179055565b60975460ff1615610fbb5760405160e560020a62461bcd028152600401610bbc90614654565b60cc545b600081815260cb60209081526040808320815181546060948102820185018452928101838152909391928492849190879085015b8282101561104d57600084815260209081902060408051606081018252600386029092018054600160a060020a03908116845260018083015490911684860152600290910154918301919091529083529092019101610ff3565b50505050815260200160018201548152505090508060200151600014806110775750428160200151115b15611082575060cc55565b805161108d906122c6565b600082815260cb60205260408120906110a68282613be1565b50600060019190910181905560405183917f78ff9b3176bb0d6421590f3816e75cb15a9ffa2b7a1a028f40a3f4e029eb39f291a250806110e581614a2e565b915050610fbf565b600080516020614b7d8339815191526111068133611f87565b50600160a060020a0316600090815260cd602052604090208054600160a060020a0319169055565b60ce54600160a060020a03908116600090815260cd6020526040902054168061119c5760405160e560020a62461bcd02815260206004820152601560248201527f556e6b6e6f776e20746f6b656e206164647265737300000000000000000000006044820152606401610bbc565b6111a6828461491c565b34116111f75760405160e560020a62461bcd02815260206004820152601160248201527f53656e742076616c7565203c3d206665650000000000000000000000000000006044820152606401610bbc565b600082611204853461498a565b61120e919061498a565b60ce5490915061122b90600160a060020a0316878787878661255a565b60cf54604051600160a060020a039091169085156108fc029086906000818181858888f19350505050158015611265573d6000803e3d6000fd5b5060d054604051600160a060020a039091169084156108fc029085906000818181858888f193505050501580156112a0573d6000803e3d6000fd5b5060ce60009054906101000a9004600160a060020a0316600160a060020a031663d0e30db0826040518263ffffffff1660e060020a0281526004016000604051808303818588803b1580156112f457600080fd5b505af1158015611308573d6000803e3d6000fd5b505060408051606081018252600160a060020a0380881682528c81166020830190815282840188815260ca80546001810182556000918252945160039095027f42d72674974f694b5f5159593243114d38a5c39c89d6b62fee061ff523240ee181018054968616600160a060020a031997881617905592517f42d72674974f694b5f5159593243114d38a5c39c89d6b62fee061ff523240ee2840180549190951695169490941790925590517f42d72674974f694b5f5159593243114d38a5c39c89d6b62fee061ff523240ee39091015560d65491513395507f3b823d3b837159352faddd1e0b9e9f584ca2bfe976238f6a9e6da4615cf2f44494506114459350879087908b908b90958652600160a060020a0394851660208701529290931660408501526060840152608083019190915260a082015260c00190565b60405180910390a2611455612700565b50505050505050565b6000918252606560209081526040808420600160a060020a0393909316845291905290205460ff1690565b600080516020614b5d8339815191526114a28133611f87565b60975460ff16156114c85760405160e560020a62461bcd028152600401610bbc90614654565b6114d56020830183614906565b602001357f196c47048e38df7a4fe6e581c8f4f2e2ba67ac0dd45b90da756e97bd61d9dd3b60405160405180910390a261151e6115156020840184614906565b60200135612778565b60d25460d154611538918491600160a060020a03166127dd565b610c9a6115486020840184614906565b61155690604081019061480c565b6115636020860186614906565b60200135612d48565b600080516020614b7d8339815191526115858133611f87565b5060d455565b600054610100900460ff16806115a4575060005460ff16155b6115c35760405160e560020a62461bcd028152600401610bbc9061468b565b600054610100900460ff161580156115e5576000805461ffff19166101011790555b6115ee87612dd6565b6115fb8686868686613014565b8015611455576000805461ff001916905550505050505050565b600080516020614b7d83398151915261162e8133611f87565b5060cf8054600160a060020a031916600160a060020a0392909216919091179055565b600080516020614b5d83398151915261166a8133611f87565b60975460ff16156116905760405160e560020a62461bcd028152600401610bbc90614654565b60d25460d154610c9a918491600160a060020a03166127dd565b606060e780548060200260200160405190810160405280929190818152602001828054801561170257602002820191906000526020600020905b8154600160a060020a031681526001909101906020018083116116e4575b5050505050905090565b600080516020614b7d8339815191526117258133611f87565b60975460ff1661174a5760405160e560020a62461bcd028152600401610bbc9061461d565b60cc5482101561176f5760405160e560020a62461bcd028152600401610bbc906146e8565b61177a60018361498a565b60d5555060cc55565b60008281526065602052604090206001015461179f8133611f87565b610b798383612195565b6000838152606560205260409020600101546117c58133611f87565b610b4d84848461312f565b604080518082019091526060815260006020820152600082815260cb60209081526040808320815181546060948102820185018452928101838152909491938593919285929185015b8282101561187357600084815260209081902060408051606081018252600386029092018054600160a060020a03908116845260018083015490911684860152600290910154918301919091529083529092019101611819565b5050505081526020016001820154815250509050919050565b60e7818154811061189c57600080fd5b600091825260209091200154600160a060020a0316905081565b600080516020614b7d8339815191526118cf8133611f87565b5060c955565b60975460ff16156118fb5760405160e560020a62461bcd028152600401610bbc90614654565b60cc54811461194f5760405160e560020a62461bcd02815260206004820152601c60248201527f63616e20756e6c6f636b206f6e6c79206f6c64657374206576656e74000000006044820152606401610bbc565b600081815260cb60209081526040808320815181546060948102820185018452928101838152909391928492849190879085015b828210156119dd57600084815260209081902060408051606081018252600386029092018054600160a060020a03908116845260018083015490911684860152600290910154918301919091529083529092019101611983565b50505050815260200160018201548152505090506000816020015111611a485760405160e560020a62461bcd02815260206004820181905260248201527f6e6f206c6f636b6564207472616e7366657273207769746820746869732069646044820152606401610bbc565b42816020015110611a9e5760405160e560020a62461bcd02815260206004820152601b60248201527f6c6f636b54696d6520686173206e6f74207965742070617373656400000000006044820152606401610bbc565b8051611aa9906122c6565b600082815260cb6020526040812090611ac28282613be1565b50600060019190910181905560405183917f78ff9b3176bb0d6421590f3816e75cb15a9ffa2b7a1a028f40a3f4e029eb39f291a2611b0182600161491c565b60cc555050565b60008515611b9d576000805260cd6020527fcd565b10a72538d86f6d352f37ebc5dff31587960b12c0afe00fd03947a6932a54600160a060020a038a8116911614611b985760405160e560020a62461bcd02815260206004820152601f60248201527f546f6b656e206e6f7420706f696e7420746f206e617469766520746f6b656e006044820152606401610bbc565b611c09565b50600160a060020a03808916600090815260cd60205260409020541680611c095760405160e560020a62461bcd02815260206004820152601560248201527f556e6b6e6f776e20746f6b656e206164647265737300000000000000000000006044820152606401610bbc565b611c13828461491c565b3414611c645760405160e560020a62461bcd02815260206004820152601160248201527f53656e742076616c756520213d206665650000000000000000000000000000006044820152606401610bbc565b60008711611cb75760405160e560020a62461bcd02815260206004820152601160248201527f43616e6e6f7420776974686472617720300000000000000000000000000000006044820152606401610bbc565b611cc589868686868c61255a565b60cf54604051600160a060020a039091169084156108fc029085906000818181858888f19350505050158015611cff573d6000803e3d6000fd5b5060d054604051600160a060020a039091169083156108fc029084906000818181858888f19350505050158015611d3a573d6000803e3d6000fd5b506040517f23b872dd00000000000000000000000000000000000000000000000000000000815233600482015230602482015260448101889052600160a060020a038a16906323b872dd90606401602060405180830381600087803b158015611da257600080fd5b505af1158015611db6573d6000803e3d6000fd5b505050506040513d601f19601f82011682018060405250810190611dda9190613f39565b611e295760405160e560020a62461bcd02815260206004820152601360248201527f4661696c207472616e7366657220636f696e73000000000000000000000000006044820152606401610bbc565b6040805160608082018352600160a060020a038481168084528c821660208086019182528587018e815260ca8054600181018255600091909152965160039097027f42d72674974f694b5f5159593243114d38a5c39c89d6b62fee061ff523240ee181018054988716600160a060020a0319998a1617905592517f42d72674974f694b5f5159593243114d38a5c39c89d6b62fee061ff523240ee284018054918716919098161790965594517f42d72674974f694b5f5159593243114d38a5c39c89d6b62fee061ff523240ee39091015560d6548551908152918e16938201939093529283019190915281018890526080810184905260a0810183905233907f3b823d3b837159352faddd1e0b9e9f584ca2bfe976238f6a9e6da4615cf2f4449060c00160405180910390a2611f5d612700565b505050505050505050565b600080516020614b7d833981519152611f818133611f87565b5060d255565b611f91828261145e565b610c9a57611fa981600160a060020a03166014613177565b611fb4836020613177565b604051602001611fc59291906143f8565b60408051601f198184030181529082905260e560020a62461bcd028252610bbc916004016145ea565b8281146120665760405160e560020a62461bcd02815260206004820152603f60248201527f73697a6573206f6620746f6b656e5468697341646472657373657320616e642060448201527f746f6b656e53696465416464726573736573206d7573742062652073616d65006064820152608401610bbc565b8260005b818110156121075783838281811061208457612084614aa8565b90506020020160208101906120999190613d3a565b60cd60008888858181106120af576120af614aa8565b90506020020160208101906120c49190613d3a565b600160a060020a03908116825260208201929092526040016000208054600160a060020a03191692909116919091179055806120ff81614a2e565b91505061206a565b505050505050565b612119828261145e565b610c9a576000828152606560209081526040808320600160a060020a03851684529091529020805460ff191660011790556121513390565b600160a060020a031681600160a060020a0316837f2f8788117e7eff1d82e926ec794901d17c78024a50270940304540a733656f0d60405160405180910390a45050565b61219f828261145e565b15610c9a576000828152606560209081526040808320600160a060020a0385168085529252808320805460ff1916905551339285917ff6391f5c32d9c69d2a47ea670b442974b53935d1edc7fd64eb21e047a839171b9190a45050565b60975460ff166122215760405160e560020a62461bcd028152600401610bbc9061461d565b6097805460ff191690557f5db9ee0a495bf2e6ff9c91a7834c1ba4fdd244a5e8aa4e537bd38aeae4b073aa335b604051600160a060020a03909116815260200160405180910390a1565b60975460ff16156122915760405160e560020a62461bcd028152600401610bbc90614654565b6097805460ff191660011790557f62e78cea01bee320cd4e420270b5ea74000d11b0c9f74754ebdbfc544b05a25861224e3390565b60005b8151811015610c9a576000600160a060020a03168282815181106122ef576122ef614aa8565b602002602001015160000151600160a060020a0316141561240b5760ce548251600160a060020a0390911690632e1a7d4d9084908490811061233357612333614aa8565b6020026020010151604001516040518263ffffffff1660e060020a02815260040161236091815260200190565b600060405180830381600087803b15801561237a57600080fd5b505af115801561238e573d6000803e3d6000fd5b505050508181815181106123a4576123a4614aa8565b602002602001015160200151600160a060020a03166108fc8383815181106123ce576123ce614aa8565b6020026020010151604001519081150290604051600060405180830381858888f19350505050158015612405573d6000803e3d6000fd5b50612548565b81818151811061241d5761241d614aa8565b602002602001015160000151600160a060020a031663a9059cbb83838151811061244957612449614aa8565b60200260200101516020015184848151811061246757612467614aa8565b6020026020010151604001516040518363ffffffff1660e060020a0281526004016124a7929190600160a060020a03929092168252602082015260400190565b602060405180830381600087803b1580156124c157600080fd5b505af11580156124d5573d6000803e3d6000fd5b505050506040513d601f19601f820116820180604052508101906124f99190613f39565b6125485760405160e560020a62461bcd02815260206004820152601360248201527f4661696c207472616e7366657220636f696e73000000000000000000000000006044820152606401610bbc565b8061255281614a2e565b9150506122c9565b6000808061256a61070842614934565b905060005b60c9548110156126b4576040516c01000000000000000000000000600160a060020a038c160260208201526034810183905260548101889052607481018790526094810186905260b40160408051601f198184030181529082905280516020918201207f19457468657265756d205369676e6564204d6573736167653a0a33320000000091830191909152603c820152605c0160405160208183030381529060405280519060200120935061265a848a8a8080601f01602080910402602001604051908101604052809392919081815260200183838082843760009201919091525061336492505050565b92506126867f516d5e7ed3e60a6b2804c1554cd94bc2eb576e44b192a0e069d4c527589a887e8461145e565b156126945750505050612107565b8161269e81614a17565b92505080806126ac90614a2e565b91505061256f565b5060405160e560020a62461bcd02815260206004820152601660248201527f5369676e617475726520636865636b206661696c6564000000000000000000006044820152606401610bbc565b600060d354426127109190614934565b905060d7548114610d865760d6805490600061272b83614a2e565b919050557fe15729a2f427aa4572dab35eb692c902fcbce57d41642013259c741380809ae260ca60405161275f919061457a565b60405180910390a261277360ca6000613be1565b60d755565b60d56000815461278790614a2e565b91829055508114610d865760405160e560020a62461bcd02815260206004820152601460248201527f4576656e744964206f7574206f66206f726465720000000000000000000000006044820152606401610bbc565b6000806127ed6020860186614906565b60200135156129295761280c6128066020870187614906565b846133ef565b90508061281986806147c3565b6128296080890160608a01614140565b67ffffffffffffffff1681811061284257612842614aa8565b905060200281019061285491906148e5565b60800135146128a85760405160e560020a62461bcd02815260206004820181905260248201527f5472616e73666572206576656e742076616c69646174696f6e206661696c65646044820152606401610bbc565b836128b96080870160608801614140565b67ffffffffffffffff166128cd87806147c3565b6128d892915061498a565b10156129295760405160e560020a62461bcd02815260206004820152601860248201527f4e6f7420656e6f7567682073616665747920626c6f636b7300000000000000006044820152606401610bbc565b60005b61293686806147c3565b9050811015612c94573661294a87806147c3565b8381811061295a5761295a614aa8565b905060200281019061296c91906148e5565b905083816040013514612a6f576129896080880160608901614140565b67ffffffffffffffff16821180612a1f575081158015906129c357506129b761012082016101008301614140565b67ffffffffffffffff16155b8015612a1f57506129d487806147c3565b6129df60018561498a565b8181106129ee576129ee614aa8565b9050602002810190612a0091906148e5565b612a139061012081019061010001614140565b67ffffffffffffffff16155b15612a6f5760405160e560020a62461bcd02815260206004820152601160248201527f57726f6e6720706172656e7420686173680000000000000000000000000000006044820152606401610bbc565b612a7881613533565b9350612a8c61012082016101008301614140565b67ffffffffffffffff1615612c815736612aa960408901896147c3565b6001612abd61012086016101008701614140565b612ac791906149a1565b67ffffffffffffffff16818110612ae057612ae0614aa8565b9050602002810190612af29190614906565b905060005b612b046020830183614855565b9050811015612b4a57612b38612b1d6020840184614855565b83818110612b2d57612b2d614aa8565b90506040020161364f565b80612b4281614a2e565b915050612af7565b50612b6b612b5882806147c3565b60e854600160a060020a031660e7613784565b935083612b7889806147c3565b612b886060850160408601614140565b67ffffffffffffffff16818110612ba157612ba1614aa8565b9050602002810190612bb391906148e5565b6080013514612c075760405160e560020a62461bcd02815260206004820152601560248201527f57726f6e672056532072656365697074206861736800000000000000000000006044820152606401610bbc565b60ea54612c1a6060830160408401614140565b612c2e9067ffffffffffffffff168561498a565b1015612c7f5760405160e560020a62461bcd02815260206004820152601c60248201527f4665772073616665747920626c6f636b732076616c696461746f7273000000006044820152606401610bbc565b505b5080612c8c81614a2e565b91505061292c565b506000612ca460408701876147c3565b90501115610afe57612cb685806147c3565b612cc360408801886147c3565b6001612cd260408b018b6147c3565b612cdd92915061498a565b818110612cec57612cec614aa8565b9050602002810190612cfe9190614906565b612d0f906060810190604001614140565b67ffffffffffffffff16818110612d2857612d28614aa8565b9050602002810190612d3a91906148e5565b6040013560e9555050505050565b60d454612d55904261491c565b600082815260cb60205260408120600101919091555b82811015610b4d57600082815260cb60205260409020848483818110612d9357612d93614aa8565b835460018101855560009485526020909420606090910292909201926003029091019050612dc18282614ada565b50508080612dce90614a2e565b915050612d6b565b600054610100900460ff1680612def575060005460ff16155b612e0e5760405160e560020a62461bcd028152600401610bbc9061468b565b600054610100900460ff16158015612e30576000805461ffff19166101011790555b612e3b60003061385d565b612e53600080516020614b7d8339815191523361385d565b612e7a600080516020614b5d833981519152612e756040850160208601613d3a565b61385d565b612eb07fb7f2fcb7a10916921b74b9baa8ea85f89b12ab12f6ededa160998f8b20e65f95612eab60408501856147c3565b61312f565b612ee47f516d5e7ed3e60a6b2804c1554cd94bc2eb576e44b192a0e069d4c527589a887e612e756080850160608601613d3a565b612f06612ef460a08401846147c3565b612f0160c08601866147c3565b611fee565b612f1660a0830160808401613d3a565b60ce8054600160a060020a031916600160a060020a0392909216919091179055612f436020830183613d3a565b60d18054600160a060020a031916600160a060020a0392909216919091179055612f74610100830160e08401613d3a565b60cf8054600160a060020a031916600160a060020a0392909216919091179055612fa661012083016101008401613d3a565b60d08054600160a060020a031916600160a060020a039290921691909117905561016082013560d25561012082013560d381905561014083013560d455600160cc81905560d655600360c955612ffc9042614934565b60d7558015610c9a576000805461ff00191690555050565b600054610100900460ff168061302d575060005460ff16155b61304c5760405160e560020a62461bcd028152600401610bbc9061468b565b600054610100900460ff1615801561306e576000805461ffff19166101011790555b846130e45760405160e560020a62461bcd02815260206004820152603260248201527f4c656e677468206f66205f696e697469616c56616c696461746f7273206d757360448201527f7420626520626967676572207468616e203000000000000000000000000000006064820152608401610bbc565b6130f060e78787613c02565b5060e88054600160a060020a031916600160a060020a03861617905560e983905560ea8290558015612107576000805461ff0019169055505050505050565b60005b81811015610b4d576131658484848481811061315057613150614aa8565b9050602002016020810190612e759190613d3a565b8061316f81614a2e565b915050613132565b60606000613186836002614948565b61319190600261491c565b67ffffffffffffffff8111156131a9576131a9614ac1565b6040519080825280601f01601f1916602001820160405280156131d3576020820181803683370190505b5090507f30000000000000000000000000000000000000000000000000000000000000008160008151811061320a5761320a614aa8565b6020010190600160f860020a031916908160001a9053507f78000000000000000000000000000000000000000000000000000000000000008160018151811061325557613255614aa8565b6020010190600160f860020a031916908160001a9053506000613279846002614948565b61328490600161491c565b90505b600181111561330b577f303132333435363738396162636465660000000000000000000000000000000085600f16601081106132c5576132c5614aa8565b1a60f860020a028282815181106132de576132de614aa8565b6020010190600160f860020a031916908160001a90535060109094049361330481614a17565b9050613287565b50831561335d5760405160e560020a62461bcd02815260206004820181905260248201527f537472696e67733a20686578206c656e67746820696e73756666696369656e746044820152606401610bbc565b9392505050565b6020810151604082015160608301516000929190831a601b81101561338757601b015b60408051600081526020810180835288905260ff831691810191909152606081018490526080810183905260019060a0016020604051602081039080840390855afa1580156133da573d6000803e3d6000fd5b5050604051601f190151979650505050505050565b6000806133fc84806147c3565b600081811061340d5761340d614aa8565b905060200281019061341f919061489e565b8461342a87806147c3565b600181811061343b5761343b614aa8565b905060200281019061344d919061489e565b61345a8960200135613867565b6134648a806147c3565b600281811061347557613475614aa8565b9050602002810190613487919061489e565b61349460408d018d61480c565b6040516020016134a592919061450a565b60408051601f198184030181529190526134bf8d806147c3565b60038181106134d0576134d0614aa8565b90506020028101906134e2919061489e565b6040516020016134fc9b9a99989796959493929190614336565b60408051601f198184030181529190528051602090910120905061352b61352385806147c3565b8360046139cf565b949350505050565b600080600061354184613a93565b60e7805492945090925060009161357161356160e0890160c08a01614020565b60e060020a900463ffffffff1690565b61357b9190614a49565b8154811061358b5761358b614aa8565b600091825260209091200154600160a060020a03169050806135ee846135b460e089018961489e565b8080601f01602080910402602001604051908101604052809392919081815260200183838082843760009201919091525061336492505050565b600160a060020a0316146136475760405160e560020a62461bcd02815260206004820152601560248201527f4661696c656420746f20766572696679207369676e00000000000000000000006044820152606401610bbc565b509392505050565b61365f604082016020830161411c565b61ffff166136ab5760e76136766020830183613d3a565b8154600181018355600092835260209092209091018054600160a060020a031916600160a060020a0390921691909117905550565b600060016136bf604084016020850161411c565b6136c99190614967565b61ffff16905060e7600160e7805490506136e3919061498a565b815481106136f3576136f3614aa8565b60009182526020909120015460e78054600160a060020a03909216918390811061371f5761371f614aa8565b9060005260206000200160006101000a815481600160a060020a030219169083600160a060020a0316021790555060e780548061375e5761375e614a8f565b60008281526020902081016000199081018054600160a060020a03191690550190555050565b6000808585600081811061379a5761379a614aa8565b90506020028101906137ac919061489e565b85888860018181106137c0576137c0614aa8565b90506020028101906137d2919061489e565b876040516020016137e391906144c6565b6040516020818303038152906040528b8b600281811061380557613805614aa8565b9050602002810190613817919061489e565b60405160200161382e9897969594939291906142c7565b60405160208183030381529060405280519060200120905061385386868360036139cf565b9695505050505050565b610c9a828261210f565b6040805160208082528183019092526060916000919060208201818036833701905050905082602082015260005b60208110156138fe578181815181106138b0576138b0614aa8565b60209101015160f860020a90819004027fff0000000000000000000000000000000000000000000000000000000000000016156138ec576138fe565b806138f681614a2e565b915050613895565b600061390b82602061498a565b67ffffffffffffffff81111561392357613923614ac1565b6040519080825280601f01601f19166020018201604052801561394d576020820181803683370190505b50905060005b81518110156139c657838361396781614a2e565b94508151811061397957613979614aa8565b602001015160f860020a900460f860020a0282828151811061399d5761399d614aa8565b6020010190600160f860020a031916908160001a905350806139be81614a2e565b915050613953565b50949350505050565b60006060825b85811015613a88578686828181106139ef576139ef614aa8565b9050602002810190613a01919061489e565b868989613a0f86600161491c565b818110613a1e57613a1e614aa8565b9050602002810190613a30919061489e565b604051602001613a449594939291906143cf565b60405160208183030381529060405291506020825111613a6c57613a67826149c2565b613a74565b815160208301205b9450613a8160028261491c565b90506139d5565b509295945050505050565b600080807fa0000000000000000000000000000000000000000000000000000000000000006040850135613aca606087018761489e565b6080880135613adc60a08a018a61489e565b604051602001613af2979695949392919061416a565b60408051601f19818403018152918152909150613b1490850160208601613f56565b81604051602001613b269291906141c7565b60408051601f19818403018152919052805160209182012090613b4b90860186613f56565b827f8400000000000000000000000000000000000000000000000000000000000000613b7d60e0890160c08a01614020565b7fb841000000000000000000000000000000000000000000000000000000000000613bab60e08b018b61489e565b604051602001613bc1979695949392919061420d565b604051602081830303815290604052805190602001209250925050915091565b5080546000825560030290600052602060002090810190610d869190613c65565b828054828255906000526020600020908101928215613c55579160200282015b82811115613c55578154600160a060020a031916600160a060020a03843516178255602090920191600190910190613c22565b50613c61929150613c98565b5090565b5b80821115613c61578054600160a060020a03199081168255600182018054909116905560006002820155600301613c66565b5b80821115613c615760008155600101613c99565b60008083601f840112613cbf57600080fd5b50813567ffffffffffffffff811115613cd757600080fd5b6020830191508360208083028501011115613cf157600080fd5b9250929050565b60008083601f840112613d0a57600080fd5b50813567ffffffffffffffff811115613d2257600080fd5b602083019150836020828501011115613cf157600080fd5b600060208284031215613d4c57600080fd5b813561335d81614b39565b60008060408385031215613d6a57600080fd5b8235613d7581614b39565b91506020830135613d8581614b39565b809150509250929050565b60008060008060008060008060e0898b031215613dac57600080fd5b8835613db781614b39565b97506020890135613dc781614b39565b9650604089013595506060890135613dde81614b4e565b9450608089013567ffffffffffffffff811115613dfa57600080fd5b613e068b828c01613cf8565b999c989b5096999598969760a08701359660c0013595509350505050565b600080600080600060808688031215613e3c57600080fd5b8535613e4781614b39565b9450602086013567ffffffffffffffff811115613e6357600080fd5b613e6f88828901613cf8565b9699909850959660408101359660609091013595509350505050565b60008060208385031215613e9e57600080fd5b823567ffffffffffffffff811115613eb557600080fd5b613ec185828601613cad565b90969095509350505050565b60008060008060408587031215613ee357600080fd5b843567ffffffffffffffff80821115613efb57600080fd5b613f0788838901613cad565b90965094506020870135915080821115613f2057600080fd5b50613f2d87828801613cad565b95989497509550505050565b600060208284031215613f4b57600080fd5b815161335d81614b4e565b600060208284031215613f6857600080fd5b81357cffffffffffffffffffffffffffffffffffffffffffffffffffffffffff198116811461335d57600080fd5b600060208284031215613fa857600080fd5b5035919050565b60008060408385031215613fc257600080fd5b823591506020830135613d8581614b39565b600080600060408486031215613fe957600080fd5b83359250602084013567ffffffffffffffff81111561400757600080fd5b61401386828701613cad565b9497909650939450505050565b60006020828403121561403257600080fd5b8135600160e060020a03198116811461335d57600080fd5b60006020828403121561405c57600080fd5b813567ffffffffffffffff81111561407357600080fd5b82016080818503121561335d57600080fd5b60008060008060008060a0878903121561409e57600080fd5b863567ffffffffffffffff808211156140b657600080fd5b90880190610180828b0312156140cb57600080fd5b909650602088013590808211156140e157600080fd5b506140ee89828a01613cad565b909650945050604087013561410281614b39565b959894975092956060810135946080909101359350915050565b60006020828403121561412e57600080fd5b813561ffff8116811461335d57600080fd5b60006020828403121561415257600080fd5b813567ffffffffffffffff8116811461335d57600080fd5b7fff0000000000000000000000000000000000000000000000000000000000000088168152866001820152848660218301378481016021810185905260009083856041830137600093016041019283525090979650505050505050565b7cffffffffffffffffffffffffffffffffffffffffffffffffffffffffff1983168152600082516141ff8160038501602087016149eb565b919091016003019392505050565b7cffffffffffffffffffffffffffffffffffffffffffffffffffffffffff198816815260008751614245816003850160208c016149eb565b7fff000000000000000000000000000000000000000000000000000000000000008816600391840191820152600160e060020a0319871660048201527fffff000000000000000000000000000000000000000000000000000000000000861660088201528385600a83013760009301600a019283525090979650505050505050565b87898237600160a060020a0387166c010000000000000000000000000281890190815260009086886014830137868101905060148101600081528651614311818360208b016149eb565b9190910190508385601483013760009301601401928352509098975050505050505050565b8a8c8237600160a060020a038a166c0100000000000000000000000002818c0190815260009060148a8c828401378a82019150808201600081528a51614380818360208f016149eb565b92909201915087898284013787820191508082016000815287516143a8818360208c016149eb565b9290920191508486828401376000949091010192835250909b9a5050505050505050505050565b848682378085018481526000908385602083013760009301602001928352509095945050505050565b7f416363657373436f6e74726f6c3a206163636f756e74200000000000000000008152600083516144308160178501602088016149eb565b7f206973206d697373696e6720726f6c6520000000000000000000000000000000601791840191820152835161446d8160288401602088016149eb565b01602801949350505050565b6020808252825182820181905260009190848201906040850190845b818110156144ba578351600160a060020a031683529284019291840191600101614495565b50909695505050505050565b6020808252825482820181905260008481528281209092916040850190845b818110156144ba578354600160a060020a0316835260019384019392850192016144e5565b6020808252818101839052600090604080840186845b8781101561456d57813561453381614b39565b600160a060020a039081168452828601359061454e82614b39565b1683860152818401358484015260609283019290910190600101614520565b5090979650505050505050565b60006020808301818452808554808352604092508286019150866000528360002060005b828110156145dd578154600160a060020a039081168552600180840154909116878601526002830154868601526060909401936003909201910161459e565b5091979650505050505050565b60208152600082518060208401526146098160408501602087016149eb565b601f01601f19169190910160400192915050565b60208082526014908201527f5061757361626c653a206e6f7420706175736564000000000000000000000000604082015260600190565b60208082526010908201527f5061757361626c653a2070617573656400000000000000000000000000000000604082015260600190565b6020808252602e908201527f496e697469616c697a61626c653a20636f6e747261637420697320616c72656160408201527f647920696e697469616c697a6564000000000000000000000000000000000000606082015260800190565b60208082526026908201527f6576656e744964206d757374206265203e3d206f6c646573744c6f636b65644560408201527f76656e7449640000000000000000000000000000000000000000000000000000606082015260800190565b6000602080835260608084018551604080858801528282518085526080890191508684019450600093505b808410156147ad5784518051600160a060020a03908116845288820151168884015283015183830152938601936001939093019290850190614770565b5094909701519590960194909452509392505050565b6000808335601e198436030181126147da57600080fd5b83018035915067ffffffffffffffff8211156147f557600080fd5b6020908101925081023603821315613cf157600080fd5b6000808335601e1984360301811261482357600080fd5b83018035915067ffffffffffffffff82111561483e57600080fd5b6020019150606081023603821315613cf157600080fd5b6000808335601e1984360301811261486c57600080fd5b83018035915067ffffffffffffffff82111561488757600080fd5b6020019150604081023603821315613cf157600080fd5b6000808335601e198436030181126148b557600080fd5b83018035915067ffffffffffffffff8211156148d057600080fd5b602001915036819003821315613cf157600080fd5b6000823561011e198336030181126148fc57600080fd5b9190910192915050565b60008235605e198336030181126148fc57600080fd5b6000821982111561492f5761492f614a5d565b500190565b60008261494357614943614a76565b500490565b600081600019048311821515161561496257614962614a5d565b500290565b600061ffff8381169083168181101561498257614982614a5d565b039392505050565b60008282101561499c5761499c614a5d565b500390565b600067ffffffffffffffff8381169083168181101561498257614982614a5d565b805160208083015191908110156149e5578060200360080260020a600003821691505b50919050565b60005b83811015614a065781810151838201526020016149ee565b83811115610b4d5750506000910152565b600081614a2657614a26614a5d565b506000190190565b6000600019821415614a4257614a42614a5d565b5060010190565b600082614a5857614a58614a76565b500690565b60e060020a634e487b7102600052601160045260246000fd5b60e060020a634e487b7102600052601260045260246000fd5b60e060020a634e487b7102600052603160045260246000fd5b60e060020a634e487b7102600052603260045260246000fd5b60e060020a634e487b7102600052604160045260246000fd5b8135614ae581614b39565b8154600160a060020a031916600160a060020a038216178255506020820135614b0d81614b39565b600182018054600160a060020a031916600160a060020a03831617905550604082013560028201555050565b600160a060020a0381168114610d8657600080fd5b8015158114610d8657600080fdfe077a1d526a4ce8a773632ab13b4fbbf1fcc954c3dab26cd27ea0e2a6750da5d7a49807205ce4d355092ef5a8a18f56e8913cf4a201fbe287825b095693c21775a26469706673582212201d86c9ff683ff6ddc5ec86c98ee93e28936385a182f43a142ea7d6caa8928f9d64736f6c63430008060033",
  "devdoc": {
    "kind": "dev",
    "methods": {
      "getRoleAdmin(bytes32)": {
        "details": "Returns the admin role that controls `role`. See {grantRole} and {revokeRole}. To change a role's admin, use {_setRoleAdmin}."
      },
      "grantRole(bytes32,address)": {
        "details": "Grants `role` to `account`. If `account` had not been already granted `role`, emits a {RoleGranted} event. Requirements: - the caller must have ``role``'s admin role."
      },
      "hasRole(bytes32,address)": {
        "details": "Returns `true` if `account` has been granted `role`."
      },
      "paused()": {
        "details": "Returns true if the contract is paused, and false otherwise."
      },
      "renounceRole(bytes32,address)": {
        "details": "Revokes `role` from the calling account. Roles are often managed via {grantRole} and {revokeRole}: this function's purpose is to provide a mechanism for accounts to lose their privileges if they are compromised (such as when a trusted device is misplaced). If the calling account had been granted `role`, emits a {RoleRevoked} event. Requirements: - the caller must be `account`."
      },
      "revokeRole(bytes32,address)": {
        "details": "Revokes `role` from `account`. If `account` had been granted `role`, emits a {RoleRevoked} event. Requirements: - the caller must have ``role``'s admin role."
      },
      "supportsInterface(bytes4)": {
        "details": "See {IERC165-supportsInterface}."
      },
      "withdraw(address,address,uint256,bool,bytes,uint256,uint256)": {
        "params": {
          "bridgeFee": "Amount (in native coins), payed as bridge earnings",
          "feeSignature": "Signature signed by relay that confirms that the fee values are valid",
          "transferFee": "Amount (in native coins), payed to compensate gas fees in side network"
        }
      },
      "wrapWithdraw(address,bytes,uint256,uint256)": {
        "params": {
          "bridgeFee": "Amount (in native coins), payed as bridge earnings",
          "feeSignature": "Signature signed by relay that confirms that the fee values are valid",
          "toAddress": "Address in side network that will receive the tokens",
          "transferFee": "Amount (in native coins), payed to compensate gas fees in side network"
        }
      }
    },
    "version": 1
  },
  "userdoc": {
    "kind": "user",
    "methods": {},
    "version": 1
  },
  "storageLayout": {
    "storage": [
      {
        "astId": 413,
        "contract": "contracts/networks/BSC_BscBridge.sol:BSC_BscBridge",
        "label": "_initialized",
        "offset": 0,
        "slot": "0",
        "type": "t_bool"
      },
      {
        "astId": 416,
        "contract": "contracts/networks/BSC_BscBridge.sol:BSC_BscBridge",
        "label": "_initializing",
        "offset": 1,
        "slot": "0",
        "type": "t_bool"
      },
      {
        "astId": 609,
        "contract": "contracts/networks/BSC_BscBridge.sol:BSC_BscBridge",
        "label": "__gap",
        "offset": 0,
        "slot": "1",
        "type": "t_array(t_uint256)50_storage"
      },
      {
        "astId": 858,
        "contract": "contracts/networks/BSC_BscBridge.sol:BSC_BscBridge",
        "label": "__gap",
        "offset": 0,
        "slot": "51",
        "type": "t_array(t_uint256)50_storage"
      },
      {
        "astId": 48,
        "contract": "contracts/networks/BSC_BscBridge.sol:BSC_BscBridge",
        "label": "_roles",
        "offset": 0,
        "slot": "101",
        "type": "t_mapping(t_bytes32,t_struct(RoleData)43_storage)"
      },
      {
        "astId": 333,
        "contract": "contracts/networks/BSC_BscBridge.sol:BSC_BscBridge",
        "label": "__gap",
        "offset": 0,
        "slot": "102",
        "type": "t_array(t_uint256)49_storage"
      },
      {
        "astId": 474,
        "contract": "contracts/networks/BSC_BscBridge.sol:BSC_BscBridge",
        "label": "_paused",
        "offset": 0,
        "slot": "151",
        "type": "t_bool"
      },
      {
        "astId": 565,
        "contract": "contracts/networks/BSC_BscBridge.sol:BSC_BscBridge",
        "label": "__gap",
        "offset": 0,
        "slot": "152",
        "type": "t_array(t_uint256)49_storage"
      },
      {
        "astId": 6726,
        "contract": "contracts/networks/BSC_BscBridge.sol:BSC_BscBridge",
        "label": "signatureFeeCheckNumber",
        "offset": 0,
        "slot": "201",
        "type": "t_uint256"
      },
      {
        "astId": 6730,
        "contract": "contracts/networks/BSC_BscBridge.sol:BSC_BscBridge",
        "label": "queue",
        "offset": 0,
        "slot": "202",
        "type": "t_array(t_struct(Transfer)7932_storage)dyn_storage"
      },
      {
        "astId": 6735,
        "contract": "contracts/networks/BSC_BscBridge.sol:BSC_BscBridge",
        "label": "lockedTransfers",
        "offset": 0,
        "slot": "203",
        "type": "t_mapping(t_uint256,t_struct(LockedTransfers)7949_storage)"
      },
      {
        "astId": 6737,
        "contract": "contracts/networks/BSC_BscBridge.sol:BSC_BscBridge",
        "label": "oldestLockedEventId",
        "offset": 0,
        "slot": "204",
        "type": "t_uint256"
      },
      {
        "astId": 6741,
        "contract": "contracts/networks/BSC_BscBridge.sol:BSC_BscBridge",
        "label": "tokenAddresses",
        "offset": 0,
        "slot": "205",
        "type": "t_mapping(t_address,t_address)"
      },
      {
        "astId": 6743,
        "contract": "contracts/networks/BSC_BscBridge.sol:BSC_BscBridge",
        "label": "wrapperAddress",
        "offset": 0,
        "slot": "206",
        "type": "t_address"
      },
      {
        "astId": 6745,
        "contract": "contracts/networks/BSC_BscBridge.sol:BSC_BscBridge",
        "label": "transferFeeRecipient",
        "offset": 0,
        "slot": "207",
        "type": "t_address_payable"
      },
      {
        "astId": 6747,
        "contract": "contracts/networks/BSC_BscBridge.sol:BSC_BscBridge",
        "label": "bridgeFeeRecipient",
        "offset": 0,
        "slot": "208",
        "type": "t_address_payable"
      },
      {
        "astId": 6749,
        "contract": "contracts/networks/BSC_BscBridge.sol:BSC_BscBridge",
        "label": "sideBridgeAddress",
        "offset": 0,
        "slot": "209",
        "type": "t_address"
      },
      {
        "astId": 6751,
        "contract": "contracts/networks/BSC_BscBridge.sol:BSC_BscBridge",
        "label": "minSafetyBlocks",
        "offset": 0,
        "slot": "210",
        "type": "t_uint256"
      },
      {
        "astId": 6753,
        "contract": "contracts/networks/BSC_BscBridge.sol:BSC_BscBridge",
        "label": "timeframeSeconds",
        "offset": 0,
        "slot": "211",
        "type": "t_uint256"
      },
      {
        "astId": 6755,
        "contract": "contracts/networks/BSC_BscBridge.sol:BSC_BscBridge",
        "label": "lockTime",
        "offset": 0,
        "slot": "212",
        "type": "t_uint256"
      },
      {
        "astId": 6757,
        "contract": "contracts/networks/BSC_BscBridge.sol:BSC_BscBridge",
        "label": "inputEventId",
        "offset": 0,
        "slot": "213",
        "type": "t_uint256"
      },
      {
        "astId": 6759,
        "contract": "contracts/networks/BSC_BscBridge.sol:BSC_BscBridge",
        "label": "outputEventId",
        "offset": 0,
        "slot": "214",
        "type": "t_uint256"
      },
      {
        "astId": 6761,
        "contract": "contracts/networks/BSC_BscBridge.sol:BSC_BscBridge",
        "label": "lastTimeframe",
        "offset": 0,
        "slot": "215",
        "type": "t_uint256"
      },
      {
        "astId": 7922,
        "contract": "contracts/networks/BSC_BscBridge.sol:BSC_BscBridge",
        "label": "__gap",
        "offset": 0,
        "slot": "216",
        "type": "t_array(t_uint256)15_storage"
      },
      {
        "astId": 1665,
        "contract": "contracts/networks/BSC_BscBridge.sol:BSC_BscBridge",
        "label": "validatorSet",
        "offset": 0,
        "slot": "231",
        "type": "t_array(t_address)dyn_storage"
      },
      {
        "astId": 1667,
        "contract": "contracts/networks/BSC_BscBridge.sol:BSC_BscBridge",
        "label": "validatorSetAddress",
        "offset": 0,
        "slot": "232",
        "type": "t_address"
      },
      {
        "astId": 1669,
        "contract": "contracts/networks/BSC_BscBridge.sol:BSC_BscBridge",
        "label": "lastProcessedBlock",
        "offset": 0,
        "slot": "233",
        "type": "t_bytes32"
      },
      {
        "astId": 1671,
        "contract": "contracts/networks/BSC_BscBridge.sol:BSC_BscBridge",
        "label": "minSafetyBlocksValidators",
        "offset": 0,
        "slot": "234",
        "type": "t_uint256"
      },
      {
        "astId": 2178,
        "contract": "contracts/networks/BSC_BscBridge.sol:BSC_BscBridge",
        "label": "___gap",
        "offset": 0,
        "slot": "235",
        "type": "t_array(t_uint256)15_storage"
      }
    ],
    "types": {
      "t_address": {
        "encoding": "inplace",
        "label": "address",
        "numberOfBytes": "20"
      },
      "t_address_payable": {
        "encoding": "inplace",
        "label": "address payable",
        "numberOfBytes": "20"
      },
      "t_array(t_address)dyn_storage": {
        "base": "t_address",
        "encoding": "dynamic_array",
        "label": "address[]",
        "numberOfBytes": "32"
      },
      "t_array(t_struct(Transfer)7932_storage)dyn_storage": {
        "base": "t_struct(Transfer)7932_storage",
        "encoding": "dynamic_array",
        "label": "struct CommonStructs.Transfer[]",
        "numberOfBytes": "32"
      },
      "t_array(t_uint256)15_storage": {
        "base": "t_uint256",
        "encoding": "inplace",
        "label": "uint256[15]",
        "numberOfBytes": "480"
      },
      "t_array(t_uint256)49_storage": {
        "base": "t_uint256",
        "encoding": "inplace",
        "label": "uint256[49]",
        "numberOfBytes": "1568"
      },
      "t_array(t_uint256)50_storage": {
        "base": "t_uint256",
        "encoding": "inplace",
        "label": "uint256[50]",
        "numberOfBytes": "1600"
      },
      "t_bool": {
        "encoding": "inplace",
        "label": "bool",
        "numberOfBytes": "1"
      },
      "t_bytes32": {
        "encoding": "inplace",
        "label": "bytes32",
        "numberOfBytes": "32"
      },
      "t_mapping(t_address,t_address)": {
        "encoding": "mapping",
        "key": "t_address",
        "label": "mapping(address => address)",
        "numberOfBytes": "32",
        "value": "t_address"
      },
      "t_mapping(t_address,t_bool)": {
        "encoding": "mapping",
        "key": "t_address",
        "label": "mapping(address => bool)",
        "numberOfBytes": "32",
        "value": "t_bool"
      },
      "t_mapping(t_bytes32,t_struct(RoleData)43_storage)": {
        "encoding": "mapping",
        "key": "t_bytes32",
        "label": "mapping(bytes32 => struct AccessControlUpgradeable.RoleData)",
        "numberOfBytes": "32",
        "value": "t_struct(RoleData)43_storage"
      },
      "t_mapping(t_uint256,t_struct(LockedTransfers)7949_storage)": {
        "encoding": "mapping",
        "key": "t_uint256",
        "label": "mapping(uint256 => struct CommonStructs.LockedTransfers)",
        "numberOfBytes": "32",
        "value": "t_struct(LockedTransfers)7949_storage"
      },
      "t_struct(LockedTransfers)7949_storage": {
        "encoding": "inplace",
        "label": "struct CommonStructs.LockedTransfers",
        "members": [
          {
            "astId": 7946,
            "contract": "contracts/networks/BSC_BscBridge.sol:BSC_BscBridge",
            "label": "transfers",
            "offset": 0,
            "slot": "0",
            "type": "t_array(t_struct(Transfer)7932_storage)dyn_storage"
          },
          {
            "astId": 7948,
            "contract": "contracts/networks/BSC_BscBridge.sol:BSC_BscBridge",
            "label": "endTimestamp",
            "offset": 0,
            "slot": "1",
            "type": "t_uint256"
          }
        ],
        "numberOfBytes": "64"
      },
      "t_struct(RoleData)43_storage": {
        "encoding": "inplace",
        "label": "struct AccessControlUpgradeable.RoleData",
        "members": [
          {
            "astId": 40,
            "contract": "contracts/networks/BSC_BscBridge.sol:BSC_BscBridge",
            "label": "members",
            "offset": 0,
            "slot": "0",
            "type": "t_mapping(t_address,t_bool)"
          },
          {
            "astId": 42,
            "contract": "contracts/networks/BSC_BscBridge.sol:BSC_BscBridge",
            "label": "adminRole",
            "offset": 0,
            "slot": "1",
            "type": "t_bytes32"
          }
        ],
        "numberOfBytes": "64"
      },
      "t_struct(Transfer)7932_storage": {
        "encoding": "inplace",
        "label": "struct CommonStructs.Transfer",
        "members": [
          {
            "astId": 7927,
            "contract": "contracts/networks/BSC_BscBridge.sol:BSC_BscBridge",
            "label": "tokenAddress",
            "offset": 0,
            "slot": "0",
            "type": "t_address"
          },
          {
            "astId": 7929,
            "contract": "contracts/networks/BSC_BscBridge.sol:BSC_BscBridge",
            "label": "toAddress",
            "offset": 0,
            "slot": "1",
            "type": "t_address"
          },
          {
            "astId": 7931,
            "contract": "contracts/networks/BSC_BscBridge.sol:BSC_BscBridge",
            "label": "amount",
            "offset": 0,
            "slot": "2",
            "type": "t_uint256"
          }
        ],
        "numberOfBytes": "96"
      },
      "t_uint256": {
        "encoding": "inplace",
        "label": "uint256",
        "numberOfBytes": "32"
      }
    }
  }
}