{
  "address": "0x278a8c33Ef2A7D7C682f458C85E9447ce3645188",
  "abi": [
    {
      "inputs": [
        {
          "internalType": "string",
          "name": "name_",
          "type": "string"
        },
        {
          "internalType": "string",
          "name": "symbol_",
          "type": "string"
        },
        {
          "internalType": "uint8",
          "name": "decimals_",
          "type": "uint8"
        },
        {
          "internalType": "address[]",
          "name": "bridgeAddresses",
          "type": "address[]"
        }
      ],
      "stateMutability": "nonpayable",
      "type": "constructor"
    },
    {
      "anonymous": false,
      "inputs": [
        {
          "indexed": true,
          "internalType": "address",
          "name": "owner",
          "type": "address"
        },
        {
          "indexed": true,
          "internalType": "address",
          "name": "spender",
          "type": "address"
        },
        {
          "indexed": false,
          "internalType": "uint256",
          "name": "value",
          "type": "uint256"
        }
      ],
      "name": "Approval",
      "type": "event"
    },
    {
      "anonymous": false,
      "inputs": [
        {
          "indexed": true,
          "internalType": "bytes32",
          "name": "role",
          "type": "bytes32"
        },
        {
          "indexed": true,
          "internalType": "bytes32",
          "name": "previousAdminRole",
          "type": "bytes32"
        },
        {
          "indexed": true,
          "internalType": "bytes32",
          "name": "newAdminRole",
          "type": "bytes32"
        }
      ],
      "name": "RoleAdminChanged",
      "type": "event"
    },
    {
      "anonymous": false,
      "inputs": [
        {
          "indexed": true,
          "internalType": "bytes32",
          "name": "role",
          "type": "bytes32"
        },
        {
          "indexed": true,
          "internalType": "address",
          "name": "account",
          "type": "address"
        },
        {
          "indexed": true,
          "internalType": "address",
          "name": "sender",
          "type": "address"
        }
      ],
      "name": "RoleGranted",
      "type": "event"
    },
    {
      "anonymous": false,
      "inputs": [
        {
          "indexed": true,
          "internalType": "bytes32",
          "name": "role",
          "type": "bytes32"
        },
        {
          "indexed": true,
          "internalType": "address",
          "name": "account",
          "type": "address"
        },
        {
          "indexed": true,
          "internalType": "address",
          "name": "sender",
          "type": "address"
        }
      ],
      "name": "RoleRevoked",
      "type": "event"
    },
    {
      "anonymous": false,
      "inputs": [
        {
          "indexed": true,
          "internalType": "address",
          "name": "from",
          "type": "address"
        },
        {
          "indexed": true,
          "internalType": "address",
          "name": "to",
          "type": "address"
        },
        {
          "indexed": false,
          "internalType": "uint256",
          "name": "value",
          "type": "uint256"
        }
      ],
      "name": "Transfer",
      "type": "event"
    },
    {
      "inputs": [],
      "name": "BRIDGE_ROLE",
      "outputs": [
        {
          "internalType": "bytes32",
          "name": "",
          "type": "bytes32"
        }
      ],
      "stateMutability": "view",
      "type": "function"
    },
    {
      "inputs": [],
      "name": "DEFAULT_ADMIN_ROLE",
      "outputs": [
        {
          "internalType": "bytes32",
          "name": "",
          "type": "bytes32"
        }
      ],
      "stateMutability": "view",
      "type": "function"
    },
    {
      "inputs": [
        {
          "internalType": "address",
          "name": "owner",
          "type": "address"
        },
        {
          "internalType": "address",
          "name": "spender",
          "type": "address"
        }
      ],
      "name": "allowance",
      "outputs": [
        {
          "internalType": "uint256",
          "name": "",
          "type": "uint256"
        }
      ],
      "stateMutability": "view",
      "type": "function"
    },
    {
      "inputs": [
        {
          "internalType": "address",
          "name": "spender",
          "type": "address"
        },
        {
          "internalType": "uint256",
          "name": "amount",
          "type": "uint256"
        }
      ],
      "name": "approve",
      "outputs": [
        {
          "internalType": "bool",
          "name": "",
          "type": "bool"
        }
      ],
      "stateMutability": "nonpayable",
      "type": "function"
    },
    {
      "inputs": [
        {
          "internalType": "address",
          "name": "account",
          "type": "address"
        }
      ],
      "name": "balanceOf",
      "outputs": [
        {
          "internalType": "uint256",
          "name": "",
          "type": "uint256"
        }
      ],
      "stateMutability": "view",
      "type": "function"
    },
    {
      "inputs": [
        {
          "internalType": "address",
          "name": "",
          "type": "address"
        }
      ],
      "name": "bridgeBalances",
      "outputs": [
        {
          "internalType": "uint256",
          "name": "",
          "type": "uint256"
        }
      ],
      "stateMutability": "view",
      "type": "function"
    },
    {
      "inputs": [],
      "name": "decimals",
      "outputs": [
        {
          "internalType": "uint8",
          "name": "",
          "type": "uint8"
        }
      ],
      "stateMutability": "view",
      "type": "function"
    },
    {
      "inputs": [
        {
          "internalType": "address",
          "name": "spender",
          "type": "address"
        },
        {
          "internalType": "uint256",
          "name": "subtractedValue",
          "type": "uint256"
        }
      ],
      "name": "decreaseAllowance",
      "outputs": [
        {
          "internalType": "bool",
          "name": "",
          "type": "bool"
        }
      ],
      "stateMutability": "nonpayable",
      "type": "function"
    },
    {
      "inputs": [
        {
          "internalType": "bytes32",
          "name": "role",
          "type": "bytes32"
        }
      ],
      "name": "getRoleAdmin",
      "outputs": [
        {
          "internalType": "bytes32",
          "name": "",
          "type": "bytes32"
        }
      ],
      "stateMutability": "view",
      "type": "function"
    },
    {
      "inputs": [
        {
          "internalType": "bytes32",
          "name": "role",
          "type": "bytes32"
        },
        {
          "internalType": "address",
          "name": "account",
          "type": "address"
        }
      ],
      "name": "grantRole",
      "outputs": [],
      "stateMutability": "nonpayable",
      "type": "function"
    },
    {
      "inputs": [
        {
          "internalType": "bytes32",
          "name": "role",
          "type": "bytes32"
        },
        {
          "internalType": "address",
          "name": "account",
          "type": "address"
        }
      ],
      "name": "hasRole",
      "outputs": [
        {
          "internalType": "bool",
          "name": "",
          "type": "bool"
        }
      ],
      "stateMutability": "view",
      "type": "function"
    },
    {
      "inputs": [
        {
          "internalType": "address",
          "name": "spender",
          "type": "address"
        },
        {
          "internalType": "uint256",
          "name": "addedValue",
          "type": "uint256"
        }
      ],
      "name": "increaseAllowance",
      "outputs": [
        {
          "internalType": "bool",
          "name": "",
          "type": "bool"
        }
      ],
      "stateMutability": "nonpayable",
      "type": "function"
    },
    {
      "inputs": [],
      "name": "name",
      "outputs": [
        {
          "internalType": "string",
          "name": "",
          "type": "string"
        }
      ],
      "stateMutability": "view",
      "type": "function"
    },
    {
      "inputs": [
        {
          "internalType": "bytes32",
          "name": "role",
          "type": "bytes32"
        },
        {
          "internalType": "address",
          "name": "account",
          "type": "address"
        }
      ],
      "name": "renounceRole",
      "outputs": [],
      "stateMutability": "nonpayable",
      "type": "function"
    },
    {
      "inputs": [
        {
          "internalType": "bytes32",
          "name": "role",
          "type": "bytes32"
        },
        {
          "internalType": "address",
          "name": "account",
          "type": "address"
        }
      ],
      "name": "revokeRole",
      "outputs": [],
      "stateMutability": "nonpayable",
      "type": "function"
    },
    {
      "inputs": [
        {
          "internalType": "address[]",
          "name": "bridgeAddresses",
          "type": "address[]"
        }
      ],
      "name": "setBridgeAddressesRole",
      "outputs": [],
      "stateMutability": "nonpayable",
      "type": "function"
    },
    {
      "inputs": [
        {
          "internalType": "bytes4",
          "name": "interfaceId",
          "type": "bytes4"
        }
      ],
      "name": "supportsInterface",
      "outputs": [
        {
          "internalType": "bool",
          "name": "",
          "type": "bool"
        }
      ],
      "stateMutability": "view",
      "type": "function"
    },
    {
      "inputs": [],
      "name": "symbol",
      "outputs": [
        {
          "internalType": "string",
          "name": "",
          "type": "string"
        }
      ],
      "stateMutability": "view",
      "type": "function"
    },
    {
      "inputs": [],
      "name": "totalSupply",
      "outputs": [
        {
          "internalType": "uint256",
          "name": "",
          "type": "uint256"
        }
      ],
      "stateMutability": "view",
      "type": "function"
    },
    {
      "inputs": [
        {
          "internalType": "address",
          "name": "recipient",
          "type": "address"
        },
        {
          "internalType": "uint256",
          "name": "amount",
          "type": "uint256"
        }
      ],
      "name": "transfer",
      "outputs": [
        {
          "internalType": "bool",
          "name": "",
          "type": "bool"
        }
      ],
      "stateMutability": "nonpayable",
      "type": "function"
    },
    {
      "inputs": [
        {
          "internalType": "address",
          "name": "sender",
          "type": "address"
        },
        {
          "internalType": "address",
          "name": "recipient",
          "type": "address"
        },
        {
          "internalType": "uint256",
          "name": "amount",
          "type": "uint256"
        }
      ],
      "name": "transferFrom",
      "outputs": [
        {
          "internalType": "bool",
          "name": "",
          "type": "bool"
        }
      ],
      "stateMutability": "nonpayable",
      "type": "function"
    }
  ],
  "transactionHash": "0xc2f043e1a89dd9c4d93108b99a55cfaa33bcaab38f7bb54af5fcd10ab73a200e",
  "args": [
    "Synthetic Amber",
    "SAMB",
    18,
    []
  ],
  "numDeployments": 1,
  "solcInputHash": "bee797caaf794b23c6cb4343915d7f3e",
  "bytecode": "0x60806040523480156200001157600080fd5b5060405162001ca438038062001ca483398101604081905262000034916200034a565b8351849084906200004d9060039060208501906200020f565b508051620000639060049060208401906200020f565b506200007e91506000905033640100000000620000b0810204565b6200009281640100000000620000c9810204565b506007805460ff191660ff9290921691909117905550620005a89050565b620000c5828264010000000062000142810204565b5050565b60005b8151811015620000c5576200012d7f52ba824bfabc2bcfcdf7f0edbb486ebb05e1836c90e78047efeb949990f72e5f8383815181106200011057620001106200054a565b6020026020010151620000b0640100000000026401000000009004565b80620001398162000507565b915050620000cc565b620001578282640100000000620001e0810204565b620000c5576000828152600560209081526040808320600160a060020a03851684529091529020805460ff191660011790556200019c6401000000006200020b810204565b600160a060020a031681600160a060020a0316837f2f8788117e7eff1d82e926ec794901d17c78024a50270940304540a733656f0d60405160405180910390a45050565b6000918252600560209081526040808420600160a060020a0393909316845291905290205460ff1690565b3390565b8280546200021d90620004b1565b90600052602060002090601f0160209004810192826200024157600085556200028c565b82601f106200025c57805160ff19168380011785556200028c565b828001600101855582156200028c579182015b828111156200028c5782518255916020019190600101906200026f565b506200029a9291506200029e565b5090565b5b808211156200029a57600081556001016200029f565b600082601f830112620002c757600080fd5b81516001604060020a03811115620002e357620002e362000579565b6020620002f9601f8301601f191682016200047e565b82815285828487010111156200030e57600080fd5b60005b838110156200032e57858101830151828201840152820162000311565b83811115620003405760008385840101525b5095945050505050565b600080600080608085870312156200036157600080fd5b84516001604060020a03808211156200037957600080fd5b6200038788838901620002b5565b95506020915081870151818111156200039f57600080fd5b620003ad89828a01620002b5565b955050604087015160ff81168114620003c557600080fd5b606088015190945081811115620003db57600080fd5b8701601f81018913620003ed57600080fd5b80518281111562000402576200040262000579565b8381029250620004148484016200047e565b8181528481019083860185850187018d10156200043057600080fd5b600095508594505b838510156200046d578051600160a060020a038116811462000458578687fd5b83526001949094019391860191860162000438565b50989b979a50959850505050505050565b604051601f8201601f191681016001604060020a0381118282101715620004a957620004a962000579565b604052919050565b600281046001821680620004c657607f821691505b6020821081141562000501577f4e487b7100000000000000000000000000000000000000000000000000000000600052602260045260246000fd5b50919050565b600060001982141562000543577f4e487b7100000000000000000000000000000000000000000000000000000000600052601160045260246000fd5b5060010190565b7f4e487b7100000000000000000000000000000000000000000000000000000000600052603260045260246000fd5b7f4e487b7100000000000000000000000000000000000000000000000000000000600052604160045260246000fd5b6116ec80620005b86000396000f3fe608060405234801561001057600080fd5b5060043610610154576000357c01000000000000000000000000000000000000000000000000000000009004806370a08231116100d5578063a9059cbb11610099578063a9059cbb146102a0578063b0ee95f6146102b3578063b5bfddea146102c6578063d547741f146102db578063dc1ab98a146102ee578063dd62ed3e1461030e57600080fd5b806370a082311461024157806391d148541461026a57806395d89b411461027d578063a217fddf14610285578063a457c2d71461028d57600080fd5b8063248a9ca31161011c578063248a9ca3146101ce5780632f2ff15d146101f1578063313ce5671461020657806336568abe1461021b578063395093511461022e57600080fd5b806301ffc9a71461015957806306fdde0314610181578063095ea7b31461019657806318160ddd146101a957806323b872dd146101bb575b600080fd5b61016c61016736600461146e565b610347565b60405190151581526020015b60405180910390f35b6101896103da565b604051610178919061152e565b61016c6101a436600461133d565b61046c565b6002545b604051908152602001610178565b61016c6101c9366004611301565b610482565b6101ad6101dc366004611432565b60009081526005602052604090206001015490565b6102046101ff36600461144b565b610549565b005b60075460405160ff9091168152602001610178565b61020461022936600461144b565b610574565b61016c61023c36600461133d565b610603565b6101ad61024f3660046112b3565b600160a060020a031660009081526020819052604090205490565b61016c61027836600461144b565b61063f565b61018961066a565b6101ad600081565b61016c61029b36600461133d565b610679565b61016c6102ae36600461133d565b61072d565b6102046102c1366004611367565b61073a565b6101ad60008051602061169783398151915281565b6102046102e936600461144b565b61074f565b6101ad6102fc3660046112b3565b60066020526000908152604090205481565b6101ad61031c3660046112ce565b600160a060020a03918216600090815260016020908152604080832093909416825291909152205490565b60007bffffffffffffffffffffffffffffffffffffffffffffffffffffffff1982167f7965db0b0000000000000000000000000000000000000000000000000000000014806103d457507f01ffc9a7000000000000000000000000000000000000000000000000000000007bffffffffffffffffffffffffffffffffffffffffffffffffffffffff198316145b92915050565b6060600380546103e9906115f2565b80601f0160208091040260200160405190810160405280929190818152602001828054610415906115f2565b80156104625780601f1061043757610100808354040283529160200191610462565b820191906000526020600020905b81548152906001019060200180831161044557829003601f168201915b5050505050905090565b6000610479338484610775565b50600192915050565b600061048f8484846108d3565b600160a060020a0384166000908152600160209081526040808320338452909152902054828110156105315760405160e560020a62461bcd02815260206004820152602860248201527f45524332303a207472616e7366657220616d6f756e742065786365656473206160448201527f6c6c6f77616e636500000000000000000000000000000000000000000000000060648201526084015b60405180910390fd5b61053e8533858403610775565b506001949350505050565b600082815260056020526040902060010154610565813361092c565b61056f8383610993565b505050565b600160a060020a03811633146105f55760405160e560020a62461bcd02815260206004820152602f60248201527f416363657373436f6e74726f6c3a2063616e206f6e6c792072656e6f756e636560448201527f20726f6c657320666f722073656c6600000000000000000000000000000000006064820152608401610528565b6105ff8282610a19565b5050565b336000818152600160209081526040808320600160a060020a0387168452909152812054909161047991859061063a908690611561565b610775565b6000918252600560209081526040808420600160a060020a0393909316845291905290205460ff1690565b6060600480546103e9906115f2565b336000908152600160209081526040808320600160a060020a0386168452909152812054828110156107165760405160e560020a62461bcd02815260206004820152602560248201527f45524332303a2064656372656173656420616c6c6f77616e63652062656c6f7760448201527f207a65726f0000000000000000000000000000000000000000000000000000006064820152608401610528565b6107233385858403610775565b5060019392505050565b60006104793384846108d3565b6000610746813361092c565b6105ff82610a80565b60008281526005602052604090206001015461076b813361092c565b61056f8383610a19565b600160a060020a0383166107f35760405160e560020a62461bcd028152602060048201526024808201527f45524332303a20617070726f76652066726f6d20746865207a65726f2061646460448201527f72657373000000000000000000000000000000000000000000000000000000006064820152608401610528565b600160a060020a0382166108725760405160e560020a62461bcd02815260206004820152602260248201527f45524332303a20617070726f766520746f20746865207a65726f20616464726560448201527f73730000000000000000000000000000000000000000000000000000000000006064820152608401610528565b600160a060020a0383811660008181526001602090815260408083209487168084529482529182902085905590518481527f8c5be1e5ebec7d5bd14f71427d1e84f3dd0314c0f7b2291e5b200ac8c7c3b925910160405180910390a3505050565b6108eb6000805160206116978339815191528461063f565b156108fa5761056f8282610acf565b6109126000805160206116978339815191528361063f565b156109215761056f8382610b0a565b61056f838383610bad565b610936828261063f565b6105ff5761094e81600160a060020a03166014610dcf565b610959836020610dcf565b60405160200161096a9291906114ad565b60408051601f198184030181529082905260e560020a62461bcd0282526105289160040161152e565b61099d828261063f565b6105ff576000828152600560209081526040808320600160a060020a03851684529091529020805460ff191660011790556109d53390565b600160a060020a031681600160a060020a0316837f2f8788117e7eff1d82e926ec794901d17c78024a50270940304540a733656f0d60405160405180910390a45050565b610a23828261063f565b156105ff576000828152600560209081526040808320600160a060020a0385168085529252808320805460ff1916905551339285917ff6391f5c32d9c69d2a47ea670b442974b53935d1edc7fd64eb21e047a839171b9190a45050565b60005b81518110156105ff57610abd600080516020611697833981519152838381518110610ab057610ab0611664565b6020026020010151611020565b80610ac781611630565b915050610a83565b610ad9828261102a565b600160a060020a03821660009081526006602052604081208054839290610b01908490611561565b90915550505050565b600160a060020a038216600090815260066020526040902054811115610b755760405160e560020a62461bcd02815260206004820152601d60248201527f616d6f756e7420697320626967676572207468616e2062616c616e63650000006044820152606401610528565b600160a060020a03821660009081526006602052604081208054839290610b9d908490611598565b909155506105ff9050828261110c565b600160a060020a038316610c2c5760405160e560020a62461bcd02815260206004820152602560248201527f45524332303a207472616e736665722066726f6d20746865207a65726f20616460448201527f64726573730000000000000000000000000000000000000000000000000000006064820152608401610528565b600160a060020a038216610cab5760405160e560020a62461bcd02815260206004820152602360248201527f45524332303a207472616e7366657220746f20746865207a65726f206164647260448201527f65737300000000000000000000000000000000000000000000000000000000006064820152608401610528565b600160a060020a03831660009081526020819052604090205481811015610d3d5760405160e560020a62461bcd02815260206004820152602660248201527f45524332303a207472616e7366657220616d6f756e742065786365656473206260448201527f616c616e636500000000000000000000000000000000000000000000000000006064820152608401610528565b600160a060020a03808516600090815260208190526040808220858503905591851681529081208054849290610d74908490611561565b9250508190555082600160a060020a031684600160a060020a03167fddf252ad1be2c89b69c2b068fc378daa952ba7f163c4a11628f55a4df523b3ef84604051610dc091815260200190565b60405180910390a35b50505050565b60606000610dde836002611579565b610de9906002611561565b67ffffffffffffffff811115610e0157610e0161167d565b6040519080825280601f01601f191660200182016040528015610e2b576020820181803683370190505b5090507f300000000000000000000000000000000000000000000000000000000000000081600081518110610e6257610e62611664565b60200101907effffffffffffffffffffffffffffffffffffffffffffffffffffffffffffff1916908160001a9053507f780000000000000000000000000000000000000000000000000000000000000081600181518110610ec557610ec5611664565b60200101907effffffffffffffffffffffffffffffffffffffffffffffffffffffffffffff1916908160001a9053506000610f01846002611579565b610f0c906001611561565b90505b6001811115610fc7577f303132333435363738396162636465660000000000000000000000000000000085600f1660108110610f4d57610f4d611664565b1a7f010000000000000000000000000000000000000000000000000000000000000002828281518110610f8257610f82611664565b60200101907effffffffffffffffffffffffffffffffffffffffffffffffffffffffffffff1916908160001a905350601090940493610fc0816115db565b9050610f0f565b5083156110195760405160e560020a62461bcd02815260206004820181905260248201527f537472696e67733a20686578206c656e67746820696e73756666696369656e746044820152606401610528565b9392505050565b6105ff8282610993565b600160a060020a0382166110835760405160e560020a62461bcd02815260206004820152601f60248201527f45524332303a206d696e7420746f20746865207a65726f2061646472657373006044820152606401610528565b80600260008282546110959190611561565b9091555050600160a060020a038216600090815260208190526040812080548392906110c2908490611561565b9091555050604051818152600160a060020a038316906000907fddf252ad1be2c89b69c2b068fc378daa952ba7f163c4a11628f55a4df523b3ef9060200160405180910390a35050565b600160a060020a03821661118b5760405160e560020a62461bcd02815260206004820152602160248201527f45524332303a206275726e2066726f6d20746865207a65726f2061646472657360448201527f73000000000000000000000000000000000000000000000000000000000000006064820152608401610528565b600160a060020a0382166000908152602081905260409020548181101561121d5760405160e560020a62461bcd02815260206004820152602260248201527f45524332303a206275726e20616d6f756e7420657863656564732062616c616e60448201527f63650000000000000000000000000000000000000000000000000000000000006064820152608401610528565b600160a060020a038316600090815260208190526040812083830390556002805484929061124c908490611598565b9091555050604051828152600090600160a060020a038516907fddf252ad1be2c89b69c2b068fc378daa952ba7f163c4a11628f55a4df523b3ef9060200160405180910390a3505050565b8035600160a060020a03811681146112ae57600080fd5b919050565b6000602082840312156112c557600080fd5b61101982611297565b600080604083850312156112e157600080fd5b6112ea83611297565b91506112f860208401611297565b90509250929050565b60008060006060848603121561131657600080fd5b61131f84611297565b925061132d60208501611297565b9150604084013590509250925092565b6000806040838503121561135057600080fd5b61135983611297565b946020939093013593505050565b6000602080838503121561137a57600080fd5b823567ffffffffffffffff8082111561139257600080fd5b818501915085601f8301126113a657600080fd5b8135818111156113b8576113b861167d565b838102604051601f19603f830116810181811085821117156113dc576113dc61167d565b604052828152858101935084860182860187018a10156113fb57600080fd5b600095505b838610156114255761141181611297565b855260019590950194938601938601611400565b5098975050505050505050565b60006020828403121561144457600080fd5b5035919050565b6000806040838503121561145e57600080fd5b823591506112f860208401611297565b60006020828403121561148057600080fd5b81357bffffffffffffffffffffffffffffffffffffffffffffffffffffffff198116811461101957600080fd5b7f416363657373436f6e74726f6c3a206163636f756e74200000000000000000008152600083516114e58160178501602088016115af565b7f206973206d697373696e6720726f6c652000000000000000000000000000000060179184019182015283516115228160288401602088016115af565b01602801949350505050565b602081526000825180602084015261154d8160408501602087016115af565b601f01601f19169190910160400192915050565b600082198211156115745761157461164b565b500190565b60008160001904831182151516156115935761159361164b565b500290565b6000828210156115aa576115aa61164b565b500390565b60005b838110156115ca5781810151838201526020016115b2565b83811115610dc95750506000910152565b6000816115ea576115ea61164b565b506000190190565b60028104600182168061160657607f821691505b6020821081141561162a5760e060020a634e487b7102600052602260045260246000fd5b50919050565b60006000198214156116445761164461164b565b5060010190565b60e060020a634e487b7102600052601160045260246000fd5b60e060020a634e487b7102600052603260045260246000fd5b60e060020a634e487b7102600052604160045260246000fdfe52ba824bfabc2bcfcdf7f0edbb486ebb05e1836c90e78047efeb949990f72e5fa2646970667358221220890c22f7360ac2055bda9a8b21b46dfc4b2917a0e6476841c65e9c8271ca688d64736f6c63430008060033",
  "devdoc": {
    "kind": "dev",
    "methods": {
      "allowance(address,address)": {
        "details": "See {IERC20-allowance}."
      },
      "approve(address,uint256)": {
        "details": "See {IERC20-approve}. Requirements: - `spender` cannot be the zero address."
      },
      "balanceOf(address)": {
        "details": "See {IERC20-balanceOf}."
      },
      "decimals()": {
        "details": "Returns the number of decimals used to get its user representation. For example, if `decimals` equals `2`, a balance of `505` tokens should be displayed to a user as `5.05` (`505 / 10 ** 2`). Tokens usually opt for a value of 18, imitating the relationship between Ether and Wei. This is the value {ERC20} uses, unless this function is overridden; NOTE: This information is only used for _display_ purposes: it in no way affects any of the arithmetic of the contract, including {IERC20-balanceOf} and {IERC20-transfer}."
      },
      "decreaseAllowance(address,uint256)": {
        "details": "Atomically decreases the allowance granted to `spender` by the caller. This is an alternative to {approve} that can be used as a mitigation for problems described in {IERC20-approve}. Emits an {Approval} event indicating the updated allowance. Requirements: - `spender` cannot be the zero address. - `spender` must have allowance for the caller of at least `subtractedValue`."
      },
      "getRoleAdmin(bytes32)": {
        "details": "Returns the admin role that controls `role`. See {grantRole} and {revokeRole}. To change a role's admin, use {_setRoleAdmin}."
      },
      "grantRole(bytes32,address)": {
        "details": "Grants `role` to `account`. If `account` had not been already granted `role`, emits a {RoleGranted} event. Requirements: - the caller must have ``role``'s admin role."
      },
      "hasRole(bytes32,address)": {
        "details": "Returns `true` if `account` has been granted `role`."
      },
      "increaseAllowance(address,uint256)": {
        "details": "Atomically increases the allowance granted to `spender` by the caller. This is an alternative to {approve} that can be used as a mitigation for problems described in {IERC20-approve}. Emits an {Approval} event indicating the updated allowance. Requirements: - `spender` cannot be the zero address."
      },
      "name()": {
        "details": "Returns the name of the token."
      },
      "renounceRole(bytes32,address)": {
        "details": "Revokes `role` from the calling account. Roles are often managed via {grantRole} and {revokeRole}: this function's purpose is to provide a mechanism for accounts to lose their privileges if they are compromised (such as when a trusted device is misplaced). If the calling account had been granted `role`, emits a {RoleRevoked} event. Requirements: - the caller must be `account`."
      },
      "revokeRole(bytes32,address)": {
        "details": "Revokes `role` from `account`. If `account` had been granted `role`, emits a {RoleRevoked} event. Requirements: - the caller must have ``role``'s admin role."
      },
      "supportsInterface(bytes4)": {
        "details": "See {IERC165-supportsInterface}."
      },
      "symbol()": {
        "details": "Returns the symbol of the token, usually a shorter version of the name."
      },
      "totalSupply()": {
        "details": "See {IERC20-totalSupply}."
      },
      "transfer(address,uint256)": {
        "details": "See {IERC20-transfer}. Requirements: - `recipient` cannot be the zero address. - the caller must have a balance of at least `amount`."
      },
      "transferFrom(address,address,uint256)": {
        "details": "See {IERC20-transferFrom}. Emits an {Approval} event indicating the updated allowance. This is not required by the EIP. See the note at the beginning of {ERC20}. Requirements: - `sender` and `recipient` cannot be the zero address. - `sender` must have a balance of at least `amount`. - the caller must have allowance for ``sender``'s tokens of at least `amount`."
      }
    },
    "version": 1
  },
  "userdoc": {
    "kind": "user",
    "methods": {},
    "version": 1
  },
  "storageLayout": {
    "storage": [
      {
        "astId": 1267,
        "contract": "contracts/tokens/BridgeERC20.sol:BridgeERC20",
        "label": "_balances",
        "offset": 0,
        "slot": "0",
        "type": "t_mapping(t_address,t_uint256)"
      },
      {
        "astId": 1273,
        "contract": "contracts/tokens/BridgeERC20.sol:BridgeERC20",
        "label": "_allowances",
        "offset": 0,
        "slot": "1",
        "type": "t_mapping(t_address,t_mapping(t_address,t_uint256))"
      },
      {
        "astId": 1275,
        "contract": "contracts/tokens/BridgeERC20.sol:BridgeERC20",
        "label": "_totalSupply",
        "offset": 0,
        "slot": "2",
        "type": "t_uint256"
      },
      {
        "astId": 1277,
        "contract": "contracts/tokens/BridgeERC20.sol:BridgeERC20",
        "label": "_name",
        "offset": 0,
        "slot": "3",
        "type": "t_string_storage"
      },
      {
        "astId": 1279,
        "contract": "contracts/tokens/BridgeERC20.sol:BridgeERC20",
        "label": "_symbol",
        "offset": 0,
        "slot": "4",
        "type": "t_string_storage"
      },
      {
        "astId": 896,
        "contract": "contracts/tokens/BridgeERC20.sol:BridgeERC20",
        "label": "_roles",
        "offset": 0,
        "slot": "5",
        "type": "t_mapping(t_bytes32,t_struct(RoleData)891_storage)"
      },
      {
        "astId": 8738,
        "contract": "contracts/tokens/BridgeERC20.sol:BridgeERC20",
        "label": "bridgeBalances",
        "offset": 0,
        "slot": "6",
        "type": "t_mapping(t_address,t_uint256)"
      },
      {
        "astId": 8745,
        "contract": "contracts/tokens/BridgeERC20.sol:BridgeERC20",
        "label": "_decimals",
        "offset": 0,
        "slot": "7",
        "type": "t_uint8"
      }
    ],
    "types": {
      "t_address": {
        "encoding": "inplace",
        "label": "address",
        "numberOfBytes": "20"
      },
      "t_bool": {
        "encoding": "inplace",
        "label": "bool",
        "numberOfBytes": "1"
      },
      "t_bytes32": {
        "encoding": "inplace",
        "label": "bytes32",
        "numberOfBytes": "32"
      },
      "t_mapping(t_address,t_bool)": {
        "encoding": "mapping",
        "key": "t_address",
        "label": "mapping(address => bool)",
        "numberOfBytes": "32",
        "value": "t_bool"
      },
      "t_mapping(t_address,t_mapping(t_address,t_uint256))": {
        "encoding": "mapping",
        "key": "t_address",
        "label": "mapping(address => mapping(address => uint256))",
        "numberOfBytes": "32",
        "value": "t_mapping(t_address,t_uint256)"
      },
      "t_mapping(t_address,t_uint256)": {
        "encoding": "mapping",
        "key": "t_address",
        "label": "mapping(address => uint256)",
        "numberOfBytes": "32",
        "value": "t_uint256"
      },
      "t_mapping(t_bytes32,t_struct(RoleData)891_storage)": {
        "encoding": "mapping",
        "key": "t_bytes32",
        "label": "mapping(bytes32 => struct AccessControl.RoleData)",
        "numberOfBytes": "32",
        "value": "t_struct(RoleData)891_storage"
      },
      "t_string_storage": {
        "encoding": "bytes",
        "label": "string",
        "numberOfBytes": "32"
      },
      "t_struct(RoleData)891_storage": {
        "encoding": "inplace",
        "label": "struct AccessControl.RoleData",
        "members": [
          {
            "astId": 888,
            "contract": "contracts/tokens/BridgeERC20.sol:BridgeERC20",
            "label": "members",
            "offset": 0,
            "slot": "0",
            "type": "t_mapping(t_address,t_bool)"
          },
          {
            "astId": 890,
            "contract": "contracts/tokens/BridgeERC20.sol:BridgeERC20",
            "label": "adminRole",
            "offset": 0,
            "slot": "1",
            "type": "t_bytes32"
          }
        ],
        "numberOfBytes": "64"
      },
      "t_uint256": {
        "encoding": "inplace",
        "label": "uint256",
        "numberOfBytes": "32"
      },
      "t_uint8": {
        "encoding": "inplace",
        "label": "uint8",
        "numberOfBytes": "1"
      }
    }
  }
}