{
  "_format": "hh-sol-artifact-1",
  "contractName": "proxyMultiSig",
  "sourceName": "contracts/utils/Proxy.sol",
  "abi": [
    {
      "inputs": [
        {
          "internalType": "address",
          "name": "_logic",
          "type": "address"
        },
        {
          "internalType": "bytes",
          "name": "_data",
          "type": "bytes"
        },
        {
          "internalType": "address[]",
          "name": "owners",
          "type": "address[]"
        },
        {
          "internalType": "uint256",
          "name": "_required",
          "type": "uint256"
        }
      ],
      "stateMutability": "nonpayable",
      "type": "constructor"
    },
    {
      "anonymous": false,
      "inputs": [
        {
          "indexed": true,
          "internalType": "address",
          "name": "sender",
          "type": "address"
        },
        {
          "indexed": true,
          "internalType": "uint256",
          "name": "transactionId",
          "type": "uint256"
        }
      ],
      "name": "Confirmation",
      "type": "event"
    },
    {
      "anonymous": false,
      "inputs": [
        {
          "indexed": true,
          "internalType": "address",
          "name": "sender",
          "type": "address"
        },
        {
          "indexed": false,
          "internalType": "uint256",
          "name": "value",
          "type": "uint256"
        }
      ],
      "name": "Deposit",
      "type": "event"
    },
    {
      "anonymous": false,
      "inputs": [
        {
          "indexed": true,
          "internalType": "uint256",
          "name": "transactionId",
          "type": "uint256"
        }
      ],
      "name": "Execution",
      "type": "event"
    },
    {
      "anonymous": false,
      "inputs": [
        {
          "indexed": true,
          "internalType": "uint256",
          "name": "transactionId",
          "type": "uint256"
        }
      ],
      "name": "ExecutionFailure",
      "type": "event"
    },
    {
      "anonymous": false,
      "inputs": [
        {
          "indexed": true,
          "internalType": "address",
          "name": "owner",
          "type": "address"
        }
      ],
      "name": "OwnerAddition",
      "type": "event"
    },
    {
      "anonymous": false,
      "inputs": [
        {
          "indexed": true,
          "internalType": "address",
          "name": "owner",
          "type": "address"
        }
      ],
      "name": "OwnerRemoval",
      "type": "event"
    },
    {
      "anonymous": false,
      "inputs": [
        {
          "indexed": false,
          "internalType": "uint256",
          "name": "required",
          "type": "uint256"
        }
      ],
      "name": "RequirementChange",
      "type": "event"
    },
    {
      "anonymous": false,
      "inputs": [
        {
          "indexed": true,
          "internalType": "address",
          "name": "sender",
          "type": "address"
        },
        {
          "indexed": true,
          "internalType": "uint256",
          "name": "transactionId",
          "type": "uint256"
        }
      ],
      "name": "Revocation",
      "type": "event"
    },
    {
      "anonymous": false,
      "inputs": [
        {
          "indexed": true,
          "internalType": "uint256",
          "name": "transactionId",
          "type": "uint256"
        }
      ],
      "name": "Submission",
      "type": "event"
    },
    {
      "anonymous": false,
      "inputs": [
        {
          "indexed": true,
          "internalType": "address",
          "name": "implementation",
          "type": "address"
        }
      ],
      "name": "Upgraded",
      "type": "event"
    },
    {
      "stateMutability": "payable",
      "type": "fallback"
    },
    {
      "inputs": [],
      "name": "MAX_OWNER_COUNT",
      "outputs": [
        {
          "internalType": "uint256",
          "name": "",
          "type": "uint256"
        }
      ],
      "stateMutability": "view",
      "type": "function"
    },
    {
      "inputs": [
        {
          "internalType": "address",
          "name": "owner",
          "type": "address"
        }
      ],
      "name": "addOwner",
      "outputs": [],
      "stateMutability": "nonpayable",
      "type": "function"
    },
    {
      "inputs": [
        {
          "internalType": "uint256",
          "name": "_required",
          "type": "uint256"
        }
      ],
      "name": "changeRequirement",
      "outputs": [],
      "stateMutability": "nonpayable",
      "type": "function"
    },
    {
      "inputs": [
        {
          "internalType": "uint256",
          "name": "transactionId",
          "type": "uint256"
        }
      ],
      "name": "confirmTransaction",
      "outputs": [],
      "stateMutability": "nonpayable",
      "type": "function"
    },
    {
      "inputs": [
        {
          "internalType": "uint256",
          "name": "",
          "type": "uint256"
        },
        {
          "internalType": "address",
          "name": "",
          "type": "address"
        }
      ],
      "name": "confirmations",
      "outputs": [
        {
          "internalType": "bool",
          "name": "",
          "type": "bool"
        }
      ],
      "stateMutability": "view",
      "type": "function"
    },
    {
      "inputs": [
        {
          "internalType": "uint256",
          "name": "transactionId",
          "type": "uint256"
        }
      ],
      "name": "executeTransaction",
      "outputs": [],
      "stateMutability": "nonpayable",
      "type": "function"
    },
    {
      "inputs": [
        {
          "internalType": "uint256",
          "name": "transactionId",
          "type": "uint256"
        }
      ],
      "name": "getConfirmationCount",
      "outputs": [
        {
          "internalType": "uint256",
          "name": "count",
          "type": "uint256"
        }
      ],
      "stateMutability": "view",
      "type": "function"
    },
    {
      "inputs": [
        {
          "internalType": "uint256",
          "name": "transactionId",
          "type": "uint256"
        }
      ],
      "name": "getConfirmations",
      "outputs": [
        {
          "internalType": "address[]",
          "name": "_confirmations",
          "type": "address[]"
        }
      ],
      "stateMutability": "view",
      "type": "function"
    },
    {
      "inputs": [],
      "name": "getOwners",
      "outputs": [
        {
          "internalType": "address[]",
          "name": "",
          "type": "address[]"
        }
      ],
      "stateMutability": "view",
      "type": "function"
    },
    {
      "inputs": [
        {
          "internalType": "bool",
          "name": "pending",
          "type": "bool"
        },
        {
          "internalType": "bool",
          "name": "executed",
          "type": "bool"
        }
      ],
      "name": "getTransactionCount",
      "outputs": [
        {
          "internalType": "uint256",
          "name": "count",
          "type": "uint256"
        }
      ],
      "stateMutability": "view",
      "type": "function"
    },
    {
      "inputs": [
        {
          "internalType": "uint256",
          "name": "from",
          "type": "uint256"
        },
        {
          "internalType": "uint256",
          "name": "to",
          "type": "uint256"
        },
        {
          "internalType": "bool",
          "name": "pending",
          "type": "bool"
        },
        {
          "internalType": "bool",
          "name": "executed",
          "type": "bool"
        }
      ],
      "name": "getTransactionIds",
      "outputs": [
        {
          "internalType": "uint256[]",
          "name": "_transactionIds",
          "type": "uint256[]"
        }
      ],
      "stateMutability": "view",
      "type": "function"
    },
    {
      "inputs": [],
      "name": "implementation",
      "outputs": [
        {
          "internalType": "address",
          "name": "implementation_",
          "type": "address"
        }
      ],
      "stateMutability": "nonpayable",
      "type": "function"
    },
    {
      "inputs": [
        {
          "internalType": "uint256",
          "name": "transactionId",
          "type": "uint256"
        }
      ],
      "name": "isConfirmed",
      "outputs": [
        {
          "internalType": "bool",
          "name": "",
          "type": "bool"
        }
      ],
      "stateMutability": "view",
      "type": "function"
    },
    {
      "inputs": [
        {
          "internalType": "address",
          "name": "",
          "type": "address"
        }
      ],
      "name": "isOwner",
      "outputs": [
        {
          "internalType": "bool",
          "name": "",
          "type": "bool"
        }
      ],
      "stateMutability": "view",
      "type": "function"
    },
    {
      "inputs": [
        {
          "internalType": "uint256",
          "name": "",
          "type": "uint256"
        }
      ],
      "name": "owners",
      "outputs": [
        {
          "internalType": "address",
          "name": "",
          "type": "address"
        }
      ],
      "stateMutability": "view",
      "type": "function"
    },
    {
      "inputs": [
        {
          "internalType": "address",
          "name": "owner",
          "type": "address"
        }
      ],
      "name": "removeOwner",
      "outputs": [],
      "stateMutability": "nonpayable",
      "type": "function"
    },
    {
      "inputs": [
        {
          "internalType": "address",
          "name": "owner",
          "type": "address"
        },
        {
          "internalType": "address",
          "name": "newOwner",
          "type": "address"
        }
      ],
      "name": "replaceOwner",
      "outputs": [],
      "stateMutability": "nonpayable",
      "type": "function"
    },
    {
      "inputs": [],
      "name": "required",
      "outputs": [
        {
          "internalType": "uint256",
          "name": "",
          "type": "uint256"
        }
      ],
      "stateMutability": "view",
      "type": "function"
    },
    {
      "inputs": [
        {
          "internalType": "uint256",
          "name": "transactionId",
          "type": "uint256"
        }
      ],
      "name": "revokeConfirmation",
      "outputs": [],
      "stateMutability": "nonpayable",
      "type": "function"
    },
    {
      "inputs": [
        {
          "internalType": "address",
          "name": "destination",
          "type": "address"
        },
        {
          "internalType": "uint256",
          "name": "value",
          "type": "uint256"
        },
        {
          "internalType": "bytes",
          "name": "data",
          "type": "bytes"
        }
      ],
      "name": "submitTransaction",
      "outputs": [
        {
          "internalType": "uint256",
          "name": "transactionId",
          "type": "uint256"
        }
      ],
      "stateMutability": "nonpayable",
      "type": "function"
    },
    {
      "inputs": [],
      "name": "transactionCount",
      "outputs": [
        {
          "internalType": "uint256",
          "name": "",
          "type": "uint256"
        }
      ],
      "stateMutability": "view",
      "type": "function"
    },
    {
      "inputs": [
        {
          "internalType": "uint256",
          "name": "",
          "type": "uint256"
        }
      ],
      "name": "transactions",
      "outputs": [
        {
          "internalType": "address",
          "name": "destination",
          "type": "address"
        },
        {
          "internalType": "uint256",
          "name": "value",
          "type": "uint256"
        },
        {
          "internalType": "bytes",
          "name": "data",
          "type": "bytes"
        },
        {
          "internalType": "bool",
          "name": "executed",
          "type": "bool"
        }
      ],
      "stateMutability": "view",
      "type": "function"
    },
    {
      "inputs": [
        {
          "internalType": "address",
          "name": "newImplementation",
          "type": "address"
        }
      ],
      "name": "upgradeTo",
      "outputs": [],
      "stateMutability": "payable",
      "type": "function"
    },
    {
      "inputs": [
        {
          "internalType": "address",
          "name": "newImplementation",
          "type": "address"
        },
        {
          "internalType": "bytes",
          "name": "data",
          "type": "bytes"
        }
      ],
      "name": "upgradeToAndCall",
      "outputs": [],
      "stateMutability": "payable",
      "type": "function"
    },
    {
      "inputs": [
        {
          "internalType": "address",
          "name": "newImplementation",
          "type": "address"
        },
        {
          "internalType": "bytes",
          "name": "data",
          "type": "bytes"
        }
      ],
      "name": "upgradeToAndCall_",
      "outputs": [],
      "stateMutability": "payable",
      "type": "function"
    },
    {
      "stateMutability": "payable",
      "type": "receive"
    }
  ],
  "bytecode": "0x60806040523480156200001157600080fd5b50604051620028f4380380620028f4833981016040819052620000349162000698565b8181815181603282111580156200004b5750818111155b80156200005757508015155b80156200006357508115155b6200006d57600080fd5b60005b845181101562000163576002600086838151811062000093576200009362000870565b602090810291909101810151600160a060020a031682528101919091526040016000205460ff16158015620000f757506000600160a060020a0316858281518110620000e357620000e362000870565b6020026020010151600160a060020a031614155b6200010157600080fd5b6001600260008784815181106200011c576200011c62000870565b602090810291909101810151600160a060020a03168252810191909152604001600020805460ff1916911515919091179055806200015a816200082d565b91505062000070565b5083516200017990600390602087019062000564565b505050600455506200019784846000640100000000620001fa810204565b33620001d17fb53127684a568b3173ae13b9f8a6016e243e63b6e8ee1178d6a717850b5d6103640100000000620015bb6200024382021704565b8054600160a060020a031916600160a060020a039290921691909117905550620008ce92505050565b6200020e8364010000000062000246810204565b6000825111806200021c5750805b156200023e576200023c8383640100000000620015be6200029182021704565b505b505050565b90565b6200025a81640100000000620002c9810204565b604051600160a060020a038216907fbc7cd75a20ee27fd9adebab32041f755214dbc6bffa90cc0225b39da2e5c2d3b90600090a250565b6060620002c28383604051806060016040528060278152602001620028cd60279139640100000000620003cf810204565b9392505050565b620002e281640100000000620015e3620004fd82021704565b62000374576040517f08c379a000000000000000000000000000000000000000000000000000000000815260206004820152602d60248201527f455243313936373a206e657720696d706c656d656e746174696f6e206973206e60448201527f6f74206120636f6e74726163740000000000000000000000000000000000000060648201526084015b60405180910390fd5b80620003ae7f360894a13ba1a3210667c828492db98dca3e2076cc3735a920a3ca505d382bbc640100000000620015bb6200024382021704565b8054600160a060020a031916600160a060020a039290921691909117905550565b6060620003e584640100000000620004fd810204565b62000473576040517f08c379a000000000000000000000000000000000000000000000000000000000815260206004820152602660248201527f416464726573733a2064656c65676174652063616c6c20746f206e6f6e2d636f60448201527f6e7472616374000000000000000000000000000000000000000000000000000060648201526084016200036b565b60008085600160a060020a03168560405162000490919062000778565b600060405180830381855af49150503d8060008114620004cd576040519150601f19603f3d011682016040523d82523d6000602084013e620004d2565b606091505b5091509150620004f38282866200050c640100000000026401000000009004565b9695505050505050565b600160a060020a03163b151590565b606083156200051d575081620002c2565b8251156200052e5782518084602001fd5b816040517f08c379a00000000000000000000000000000000000000000000000000000000081526004016200036b919062000796565b828054828255906000526020600020908101928215620005bc579160200282015b82811115620005bc5782518254600160a060020a031916600160a060020a0390911617825560209092019160019091019062000585565b50620005ca929150620005ce565b5090565b5b80821115620005ca5760008155600101620005cf565b8051600160a060020a0381168114620005fd57600080fd5b919050565b600082601f8301126200061457600080fd5b815160206001604060020a038211156200063257620006326200089f565b80820262000642828201620007cb565b8381528281019086840183880185018910156200065e57600080fd5b600093505b858410156200068c576200067781620005e5565b83526001939093019291840191840162000663565b50979650505050505050565b60008060008060808587031215620006af57600080fd5b620006ba85620005e5565b935060208501516001604060020a0380821115620006d757600080fd5b818701915087601f830112620006ec57600080fd5b8151818111156200070157620007016200089f565b62000716601f8201601f1916602001620007cb565b8181528960208386010111156200072c57600080fd5b6200073f826020830160208701620007fe565b6040890151909650925050808211156200075857600080fd5b50620007678782880162000602565b606096909601519497939650505050565b600082516200078c818460208701620007fe565b9190910192915050565b6020815260008251806020840152620007b7816040850160208701620007fe565b601f01601f19169190910160400192915050565b604051601f8201601f191681016001604060020a0381118282101715620007f657620007f66200089f565b604052919050565b60005b838110156200081b57818101518382015260200162000801565b838111156200023c5750506000910152565b600060001982141562000869577f4e487b7100000000000000000000000000000000000000000000000000000000600052601160045260246000fd5b5060010190565b7f4e487b7100000000000000000000000000000000000000000000000000000000600052603260045260246000fd5b7f4e487b7100000000000000000000000000000000000000000000000000000000600052604160045260246000fd5b611fef80620008de6000396000f3fe608060405260043610610187576000357c0100000000000000000000000000000000000000000000000000000000900480638b51d13f116100ee578063ba51a6df116100a7578063d74f8edd11610081578063d74f8edd146104bb578063dc8452cd146104d0578063e20056e6146104e6578063ee22610b14610506576101c8565b8063ba51a6df1461045b578063c01a8c841461047b578063c64274741461049b576101c8565b80638b51d13f146103865780639ace38c2146103a6578063a0e67e2b146103d6578063a8abe69a146103f8578063b5dc40c314610425578063b77bf60014610445576101c8565b80633659cfe6116101405780633659cfe6146102dd5780634f1ef286146102f057806354741525146103035780635c60da1b146103315780637065cb4814610346578063784547a714610366576101c8565b8063025e7c27146101d2578063173825d91461020f57806320ea8d861461022f5780632f54bf6e1461024f5780633393e57a1461028f5780633411c81c146102a2576101c8565b366101c85734156101c85760405134815233907fe1fffcc4923d04b559f4d29a8bfc6cda04eb5b0d3c460751c2402c5c5cc9109c9060200160405180910390a25b6101d0610526565b005b3480156101de57600080fd5b506101f26101ed366004611c7a565b610561565b604051600160a060020a0390911681526020015b60405180910390f35b34801561021b57600080fd5b506101d061022a366004611ab4565b61058b565b34801561023b57600080fd5b506101d061024a366004611c7a565b61074f565b34801561025b57600080fd5b5061027f61026a366004611ab4565b60026020526000908152604090205460ff1681565b6040519015158152602001610206565b6101d061029d366004611b02565b610805565b3480156102ae57600080fd5b5061027f6102bd366004611c93565b600160209081526000928352604080842090915290825290205460ff1681565b6101d06102eb366004611ab4565b610856565b6101d06102fe366004611b02565b61091e565b34801561030f57600080fd5b5061032361031e366004611c50565b61097c565b604051908152602001610206565b34801561033d57600080fd5b506101f26109f9565b34801561035257600080fd5b506101d0610361366004611ab4565b610a31565b34801561037257600080fd5b5061027f610381366004611c7a565b610b57565b34801561039257600080fd5b506103236103a1366004611c7a565b610bf3565b3480156103b257600080fd5b506103c66103c1366004611c7a565b610c79565b6040516102069493929190611dad565b3480156103e257600080fd5b506103eb610d37565b6040516102069190611de8565b34801561040457600080fd5b50610418610413366004611cb6565b610d99565b6040516102069190611e35565b34801561043157600080fd5b506103eb610440366004611c7a565b610f31565b34801561045157600080fd5b5061032360055481565b34801561046757600080fd5b506101d0610476366004611c7a565b611109565b34801561048757600080fd5b506101d0610496366004611c7a565b611186565b3480156104a757600080fd5b506103236104b6366004611b85565b611246565b3480156104c757600080fd5b50610323603281565b3480156104dc57600080fd5b5061032360045481565b3480156104f257600080fd5b506101d0610501366004611acf565b611265565b34801561051257600080fd5b506101d0610521366004611c7a565b6113f8565b61055f61055a7f360894a13ba1a3210667c828492db98dca3e2076cc3735a920a3ca505d382bbc54600160a060020a031690565b6115f2565b565b6003818154811061057157600080fd5b600091825260209091200154600160a060020a0316905081565b33301461059757600080fd5b600160a060020a038116600090815260026020526040902054819060ff166105be57600080fd5b600160a060020a0382166000908152600260205260408120805460ff191690555b6003546105ee90600190611e98565b8110156106be5782600160a060020a03166003828154811061061257610612611f60565b600091825260209091200154600160a060020a031614156106ac576003805461063d90600190611e98565b8154811061064d5761064d611f60565b60009182526020909120015460038054600160a060020a03909216918390811061067957610679611f60565b9060005260206000200160006101000a815481600160a060020a030219169083600160a060020a031602179055506106be565b806106b681611f13565b9150506105df565b5060038054806106d0576106d0611f47565b6000828152602090208101600019908101805473ffffffffffffffffffffffffffffffffffffffff1916905501905560035460045411156107175760035461071790611109565b604051600160a060020a038316907f8001553a916ef2f495d26a907cc54d96ed840d7bda71e73194bf5a9df7a76b9090600090a25050565b3360008181526002602052604090205460ff1661076b57600080fd5b60008281526001602090815260408083203380855292529091205483919060ff1661079557600080fd5b600084815260208190526040902060030154849060ff16156107b657600080fd5b6000858152600160209081526040808320338085529252808320805460ff191690555187927ff6a317157440607f36269043eb55f1287a5a19ba2216afeab88cd46cbcfb88e991a35050505050565b33301461081157600080fd5b6108518383838080601f01602080910402602001604051908101604052809392919081815260200183838082843760009201829052509250611616915050565b505050565b3360008181526002602052604090205460ff1661087257600080fd5b61085130347f3393e57ad43fbff31a7682cca45edcd1a521b8df877217c7c7c9fe077c2ba83e85604051806020016040528060008152506040516024016108ba929190611d83565b60408051601f198184030181529190526020810180517bffffffffffffffffffffffffffffffffffffffffffffffffffffffff167fffffffff0000000000000000000000000000000000000000000000000000000090931692909217909152611246565b3360008181526002602052604090205460ff1661093a57600080fd5b61097530347f3393e57ad43fbff31a7682cca45edcd1a521b8df877217c7c7c9fe077c2ba83e8787876040516024016108ba93929190611d44565b5050505050565b6000805b6005548110156109f2578380156109a9575060008181526020819052604090206003015460ff16155b806109cd57508280156109cd575060008181526020819052604090206003015460ff165b156109e0576109dd600183611e80565b91505b806109ea81611f13565b915050610980565b5092915050565b6000610a2c7f360894a13ba1a3210667c828492db98dca3e2076cc3735a920a3ca505d382bbc54600160a060020a031690565b905090565b333014610a3d57600080fd5b600160a060020a038116600090815260026020526040902054819060ff1615610a6557600080fd5b81600160a060020a038116610a7957600080fd5b600354610a87906001611e80565b60045460328211158015610a9b5750818111155b8015610aa657508015155b8015610ab157508115155b610aba57600080fd5b600160a060020a038516600081815260026020526040808220805460ff1916600190811790915560038054918201815583527fc2575a0e9e593c00f959f8c92f12db2869c3395a3b0502d05e2516446f71f85b01805473ffffffffffffffffffffffffffffffffffffffff191684179055517ff39e6e1eb0edcf53c221607b54b00cd28f3196fed0a24994dc308b8f611b682d9190a25050505050565b600080805b600354811015610bec5760008481526001602052604081206003805491929184908110610b8b57610b8b611f60565b6000918252602080832090910154600160a060020a0316835282019290925260400190205460ff1615610bc657610bc3600183611e80565b91505b600454821415610bda575060019392505050565b80610be481611f13565b915050610b5c565b5050919050565b6000805b600354811015610c735760008381526001602052604081206003805491929184908110610c2657610c26611f60565b6000918252602080832090910154600160a060020a0316835282019290925260400190205460ff1615610c6157610c5e600183611e80565b91505b80610c6b81611f13565b915050610bf7565b50919050565b600060208190529081526040902080546001820154600283018054600160a060020a03909316939192610cab90611edb565b80601f0160208091040260200160405190810160405280929190818152602001828054610cd790611edb565b8015610d245780601f10610cf957610100808354040283529160200191610d24565b820191906000526020600020905b815481529060010190602001808311610d0757829003601f168201915b5050506003909301549192505060ff1684565b60606003805480602002602001604051908101604052809291908181526020018280548015610d8f57602002820191906000526020600020905b8154600160a060020a03168152600190910190602001808311610d71575b5050505050905090565b6060600060055467ffffffffffffffff811115610db857610db8611f79565b604051908082528060200260200182016040528015610de1578160200160208202803683370190505b5090506000805b600554811015610e7857858015610e11575060008181526020819052604090206003015460ff16155b80610e355750848015610e35575060008181526020819052604090206003015460ff165b15610e665780838381518110610e4d57610e4d611f60565b6020908102919091010152610e63600183611e80565b91505b80610e7081611f13565b915050610de8565b610e828888611e98565b67ffffffffffffffff811115610e9a57610e9a611f79565b604051908082528060200260200182016040528015610ec3578160200160208202803683370190505b5093508790505b86811015610f2657828181518110610ee457610ee4611f60565b6020026020010151848983610ef99190611e98565b81518110610f0957610f09611f60565b602090810291909101015280610f1e81611f13565b915050610eca565b505050949350505050565b60035460609060009067ffffffffffffffff811115610f5257610f52611f79565b604051908082528060200260200182016040528015610f7b578160200160208202803683370190505b5090506000805b6003548110156110595760008581526001602052604081206003805491929184908110610fb157610fb1611f60565b6000918252602080832090910154600160a060020a0316835282019290925260400190205460ff16156110475760038181548110610ff157610ff1611f60565b9060005260206000200160009054906101000a9004600160a060020a031683838151811061102157611021611f60565b600160a060020a0390921660209283029190910190910152611044600183611e80565b91505b8061105181611f13565b915050610f82565b8167ffffffffffffffff81111561107257611072611f79565b60405190808252806020026020018201604052801561109b578160200160208202803683370190505b509350600090505b81811015611101578281815181106110bd576110bd611f60565b60200260200101518482815181106110d7576110d7611f60565b600160a060020a0390921660209283029190910190910152806110f981611f13565b9150506110a3565b505050919050565b33301461111557600080fd5b600354816032821180159061112a5750818111155b801561113557508015155b801561114057508115155b61114957600080fd5b60048390556040518381527fa3f1ee9126a074d9326c682f561767f710e927faa811f7a99829d49dc421797a9060200160405180910390a1505050565b3360008181526002602052604090205460ff166111a257600080fd5b6000828152602081905260409020548290600160a060020a03166111c557600080fd5b60008381526001602090815260408083203380855292529091205484919060ff16156111f057600080fd5b6000858152600160208181526040808420338086529252808420805460ff1916909317909255905187927f4a504a94899432a9846e1aa406dceb1bcfd538bb839071d49d1e5e23f5be30ef91a3610975856113f8565b6000611253848484611641565b905061125e81611186565b9392505050565b33301461127157600080fd5b600160a060020a038216600090815260026020526040902054829060ff1661129857600080fd5b600160a060020a038216600090815260026020526040902054829060ff16156112c057600080fd5b60005b60035481101561135e5784600160a060020a0316600382815481106112ea576112ea611f60565b600091825260209091200154600160a060020a0316141561134c57836003828154811061131957611319611f60565b9060005260206000200160006101000a815481600160a060020a030219169083600160a060020a0316021790555061135e565b8061135681611f13565b9150506112c3565b50600160a060020a03808516600081815260026020526040808220805460ff1990811690915593871682528082208054909416600117909355915190917f8001553a916ef2f495d26a907cc54d96ed840d7bda71e73194bf5a9df7a76b9091a2604051600160a060020a038416907ff39e6e1eb0edcf53c221607b54b00cd28f3196fed0a24994dc308b8f611b682d90600090a250505050565b3360008181526002602052604090205460ff1661141457600080fd5b60008281526001602090815260408083203380855292529091205483919060ff1661143e57600080fd5b600084815260208190526040902060030154849060ff161561145f57600080fd5b61146885610b57565b1561097557600085815260208190526040902060038101805460ff1916600190811790915581549082015460028301805461154693600160a060020a03169291906114b290611edb565b90508460020180546114c390611edb565b80601f01602080910402602001604051908101604052809291908181526020018280546114ef90611edb565b801561153c5780601f106115115761010080835404028352916020019161153c565b820191906000526020600020905b81548152906001019060200180831161151f57829003601f168201915b5050505050611741565b1561157b5760405186907f33e13ecb54c3076d8e8bb8c2881800a4d972b792045ffae98fdf46df365fed7590600090a26115b3565b60405186907f526441bb6c1aba3c9a4a6ca1d6545da9c2333c8c48343ef398eb858d72b7923690600090a260038101805460ff191690555b505050505050565b90565b606061125e8383604051806060016040528060278152602001611f9360279139611764565b600160a060020a03163b151590565b3660008037600080366000845af43d6000803e808015611611573d6000f35b3d6000fd5b61161f83611877565b60008251118061162c5750805b156108515761163b83836115be565b50505050565b600083600160a060020a03811661165757600080fd5b60055460408051608081018252600160a060020a0388811682526020808301898152838501898152600060608601819052878152808452959095208451815473ffffffffffffffffffffffffffffffffffffffff1916941693909317835551600183015592518051949650919390926116d79260028501929101906119ef565b50606091909101516003909101805460ff19169115159190911790556005805460019190600090611709908490611e80565b909155505060405182907fc0ba8fe4b176c1714197d43b9cc6bcf797a4a7461c5fe8d0ef6e184ae7601e5190600090a2509392505050565b6000806040516020840160008287838a8c618fca5a03f198975050505050505050565b6060600160a060020a0384163b611802576040517f08c379a000000000000000000000000000000000000000000000000000000000815260206004820152602660248201527f416464726573733a2064656c65676174652063616c6c20746f206e6f6e2d636f60448201527f6e7472616374000000000000000000000000000000000000000000000000000060648201526084015b60405180910390fd5b60008085600160a060020a03168560405161181d9190611d28565b600060405180830381855af49150503d8060008114611858576040519150601f19603f3d011682016040523d82523d6000602084013e61185d565b606091505b509150915061186d8282866118b7565b9695505050505050565b6118808161190a565b604051600160a060020a038216907fbc7cd75a20ee27fd9adebab32041f755214dbc6bffa90cc0225b39da2e5c2d3b90600090a250565b606083156118c657508161125e565b8251156118d65782518084602001fd5b816040517f08c379a00000000000000000000000000000000000000000000000000000000081526004016117f99190611e6d565b600160a060020a0381163b6119a1576040517f08c379a000000000000000000000000000000000000000000000000000000000815260206004820152602d60248201527f455243313936373a206e657720696d706c656d656e746174696f6e206973206e60448201527f6f74206120636f6e74726163740000000000000000000000000000000000000060648201526084016117f9565b7f360894a13ba1a3210667c828492db98dca3e2076cc3735a920a3ca505d382bbc805473ffffffffffffffffffffffffffffffffffffffff1916600160a060020a0392909216919091179055565b8280546119fb90611edb565b90600052602060002090601f016020900481019282611a1d5760008555611a63565b82601f10611a3657805160ff1916838001178555611a63565b82800160010185558215611a63579182015b82811115611a63578251825591602001919060010190611a48565b50611a6f929150611a73565b5090565b5b80821115611a6f5760008155600101611a74565b8035600160a060020a0381168114611a9f57600080fd5b919050565b80358015158114611a9f57600080fd5b600060208284031215611ac657600080fd5b61125e82611a88565b60008060408385031215611ae257600080fd5b611aeb83611a88565b9150611af960208401611a88565b90509250929050565b600080600060408486031215611b1757600080fd5b611b2084611a88565b9250602084013567ffffffffffffffff80821115611b3d57600080fd5b818601915086601f830112611b5157600080fd5b813581811115611b6057600080fd5b876020828501011115611b7257600080fd5b6020830194508093505050509250925092565b600080600060608486031215611b9a57600080fd5b611ba384611a88565b925060208401359150604084013567ffffffffffffffff80821115611bc757600080fd5b818601915086601f830112611bdb57600080fd5b813581811115611bed57611bed611f79565b604051601f8201601f19908116603f01168101908382118183101715611c1557611c15611f79565b81604052828152896020848701011115611c2e57600080fd5b8260208601602083013760006020848301015280955050505050509250925092565b60008060408385031215611c6357600080fd5b611c6c83611aa4565b9150611af960208401611aa4565b600060208284031215611c8c57600080fd5b5035919050565b60008060408385031215611ca657600080fd5b82359150611af960208401611a88565b60008060008060808587031215611ccc57600080fd5b8435935060208501359250611ce360408601611aa4565b9150611cf160608601611aa4565b905092959194509250565b60008151808452611d14816020860160208601611eaf565b601f01601f19169290920160200192915050565b60008251611d3a818460208701611eaf565b9190910192915050565b600160a060020a038416815260406020820152816040820152818360608301376000818301606090810191909152601f909201601f1916010192915050565b600160a060020a0383168152604060208201526000611da56040830184611cfc565b949350505050565b600160a060020a0385168152836020820152608060408201526000611dd56080830185611cfc565b9050821515606083015295945050505050565b6020808252825182820181905260009190848201906040850190845b81811015611e29578351600160a060020a031683529284019291840191600101611e04565b50909695505050505050565b6020808252825182820181905260009190848201906040850190845b81811015611e2957835183529284019291840191600101611e51565b60208152600061125e6020830184611cfc565b60008219821115611e9357611e93611f2e565b500190565b600082821015611eaa57611eaa611f2e565b500390565b60005b83811015611eca578181015183820152602001611eb2565b8381111561163b5750506000910152565b600281046001821680611eef57607f821691505b60208210811415610c735760e060020a634e487b7102600052602260045260246000fd5b6000600019821415611f2757611f27611f2e565b5060010190565b60e060020a634e487b7102600052601160045260246000fd5b60e060020a634e487b7102600052603160045260246000fd5b60e060020a634e487b7102600052603260045260246000fd5b60e060020a634e487b7102600052604160045260246000fdfe416464726573733a206c6f772d6c6576656c2064656c65676174652063616c6c206661696c6564a2646970667358221220bd00686c93ce85c9809c54927b8321577282bc7ed0d03937e0c51cd6511f9fdb64736f6c63430008060033416464726573733a206c6f772d6c6576656c2064656c65676174652063616c6c206661696c6564",
  "linkReferences": {},
  "deployedLinkReferences": {}
}