{
  "address": "0x55Be7dd776fAbe89d93bAC66ed1cf0Ab31bdd6eB",
  "abi": [
    {
      "anonymous": false,
      "inputs": [
        {
          "indexed": false,
          "internalType": "address",
          "name": "account",
          "type": "address"
        }
      ],
      "name": "Paused",
      "type": "event"
    },
    {
      "anonymous": false,
      "inputs": [
        {
          "indexed": true,
          "internalType": "bytes32",
          "name": "role",
          "type": "bytes32"
        },
        {
          "indexed": true,
          "internalType": "bytes32",
          "name": "previousAdminRole",
          "type": "bytes32"
        },
        {
          "indexed": true,
          "internalType": "bytes32",
          "name": "newAdminRole",
          "type": "bytes32"
        }
      ],
      "name": "RoleAdminChanged",
      "type": "event"
    },
    {
      "anonymous": false,
      "inputs": [
        {
          "indexed": true,
          "internalType": "bytes32",
          "name": "role",
          "type": "bytes32"
        },
        {
          "indexed": true,
          "internalType": "address",
          "name": "account",
          "type": "address"
        },
        {
          "indexed": true,
          "internalType": "address",
          "name": "sender",
          "type": "address"
        }
      ],
      "name": "RoleGranted",
      "type": "event"
    },
    {
      "anonymous": false,
      "inputs": [
        {
          "indexed": true,
          "internalType": "bytes32",
          "name": "role",
          "type": "bytes32"
        },
        {
          "indexed": true,
          "internalType": "address",
          "name": "account",
          "type": "address"
        },
        {
          "indexed": true,
          "internalType": "address",
          "name": "sender",
          "type": "address"
        }
      ],
      "name": "RoleRevoked",
      "type": "event"
    },
    {
      "anonymous": false,
      "inputs": [
        {
          "indexed": true,
          "internalType": "uint256",
          "name": "eventId",
          "type": "uint256"
        },
        {
          "components": [
            {
              "internalType": "address",
              "name": "tokenAddress",
              "type": "address"
            },
            {
              "internalType": "address",
              "name": "toAddress",
              "type": "address"
            },
            {
              "internalType": "uint256",
              "name": "amount",
              "type": "uint256"
            }
          ],
          "indexed": false,
          "internalType": "struct CommonStructs.Transfer[]",
          "name": "queue",
          "type": "tuple[]"
        }
      ],
      "name": "Transfer",
      "type": "event"
    },
    {
      "anonymous": false,
      "inputs": [
        {
          "indexed": true,
          "internalType": "uint256",
          "name": "eventId",
          "type": "uint256"
        }
      ],
      "name": "TransferFinish",
      "type": "event"
    },
    {
      "anonymous": false,
      "inputs": [
        {
          "indexed": true,
          "internalType": "uint256",
          "name": "eventId",
          "type": "uint256"
        }
      ],
      "name": "TransferSubmit",
      "type": "event"
    },
    {
      "anonymous": false,
      "inputs": [
        {
          "indexed": false,
          "internalType": "address",
          "name": "account",
          "type": "address"
        }
      ],
      "name": "Unpaused",
      "type": "event"
    },
    {
      "anonymous": false,
      "inputs": [
        {
          "indexed": true,
          "internalType": "address",
          "name": "from",
          "type": "address"
        },
        {
          "indexed": false,
          "internalType": "uint256",
          "name": "eventId",
          "type": "uint256"
        },
        {
          "indexed": false,
          "internalType": "address",
          "name": "tokenFrom",
          "type": "address"
        },
        {
          "indexed": false,
          "internalType": "address",
          "name": "tokenTo",
          "type": "address"
        },
        {
          "indexed": false,
          "internalType": "uint256",
          "name": "amount",
          "type": "uint256"
        },
        {
          "indexed": false,
          "internalType": "uint256",
          "name": "transferFeeAmount",
          "type": "uint256"
        },
        {
          "indexed": false,
          "internalType": "uint256",
          "name": "bridgeFeeAmount",
          "type": "uint256"
        }
      ],
      "name": "Withdraw",
      "type": "event"
    },
    {
      "inputs": [],
      "name": "ADMIN_ROLE",
      "outputs": [
        {
          "internalType": "bytes32",
          "name": "",
          "type": "bytes32"
        }
      ],
      "stateMutability": "view",
      "type": "function"
    },
    {
      "inputs": [],
      "name": "DEFAULT_ADMIN_ROLE",
      "outputs": [
        {
          "internalType": "bytes32",
          "name": "",
          "type": "bytes32"
        }
      ],
      "stateMutability": "view",
      "type": "function"
    },
    {
      "inputs": [],
      "name": "FEE_PROVIDER_ROLE",
      "outputs": [
        {
          "internalType": "bytes32",
          "name": "",
          "type": "bytes32"
        }
      ],
      "stateMutability": "view",
      "type": "function"
    },
    {
      "inputs": [],
      "name": "RELAY_ROLE",
      "outputs": [
        {
          "internalType": "bytes32",
          "name": "",
          "type": "bytes32"
        }
      ],
      "stateMutability": "view",
      "type": "function"
    },
    {
      "inputs": [],
      "name": "WATCHDOG_ROLE",
      "outputs": [
        {
          "internalType": "bytes32",
          "name": "",
          "type": "bytes32"
        }
      ],
      "stateMutability": "view",
      "type": "function"
    },
    {
      "inputs": [],
      "name": "bridgeFeeRecipient",
      "outputs": [
        {
          "internalType": "address payable",
          "name": "",
          "type": "address"
        }
      ],
      "stateMutability": "view",
      "type": "function"
    },
    {
      "inputs": [
        {
          "internalType": "address payable",
          "name": "feeRecipient_",
          "type": "address"
        }
      ],
      "name": "changeBridgeFeeRecipient",
      "outputs": [],
      "stateMutability": "nonpayable",
      "type": "function"
    },
    {
      "inputs": [
        {
          "internalType": "uint256",
          "name": "lockTime_",
          "type": "uint256"
        }
      ],
      "name": "changeLockTime",
      "outputs": [],
      "stateMutability": "nonpayable",
      "type": "function"
    },
    {
      "inputs": [
        {
          "internalType": "uint256",
          "name": "minSafetyBlocks_",
          "type": "uint256"
        }
      ],
      "name": "changeMinSafetyBlocks",
      "outputs": [],
      "stateMutability": "nonpayable",
      "type": "function"
    },
    {
      "inputs": [
        {
          "internalType": "uint256",
          "name": "signatureFeeCheckNumber_",
          "type": "uint256"
        }
      ],
      "name": "changeSignatureFeeCheckNumber",
      "outputs": [],
      "stateMutability": "nonpayable",
      "type": "function"
    },
    {
      "inputs": [
        {
          "internalType": "uint256",
          "name": "timeframeSeconds_",
          "type": "uint256"
        }
      ],
      "name": "changeTimeframeSeconds",
      "outputs": [],
      "stateMutability": "nonpayable",
      "type": "function"
    },
    {
      "inputs": [
        {
          "internalType": "address payable",
          "name": "feeRecipient_",
          "type": "address"
        }
      ],
      "name": "changeTransferFeeRecipient",
      "outputs": [],
      "stateMutability": "nonpayable",
      "type": "function"
    },
    {
      "inputs": [
        {
          "internalType": "uint256",
          "name": "eventId",
          "type": "uint256"
        }
      ],
      "name": "getLockedTransfers",
      "outputs": [
        {
          "components": [
            {
              "components": [
                {
                  "internalType": "address",
                  "name": "tokenAddress",
                  "type": "address"
                },
                {
                  "internalType": "address",
                  "name": "toAddress",
                  "type": "address"
                },
                {
                  "internalType": "uint256",
                  "name": "amount",
                  "type": "uint256"
                }
              ],
              "internalType": "struct CommonStructs.Transfer[]",
              "name": "transfers",
              "type": "tuple[]"
            },
            {
              "internalType": "uint256",
              "name": "endTimestamp",
              "type": "uint256"
            }
          ],
          "internalType": "struct CommonStructs.LockedTransfers",
          "name": "",
          "type": "tuple"
        }
      ],
      "stateMutability": "view",
      "type": "function"
    },
    {
      "inputs": [
        {
          "internalType": "bytes32",
          "name": "role",
          "type": "bytes32"
        }
      ],
      "name": "getRoleAdmin",
      "outputs": [
        {
          "internalType": "bytes32",
          "name": "",
          "type": "bytes32"
        }
      ],
      "stateMutability": "view",
      "type": "function"
    },
    {
      "inputs": [
        {
          "internalType": "bytes32",
          "name": "role",
          "type": "bytes32"
        },
        {
          "internalType": "address",
          "name": "account",
          "type": "address"
        }
      ],
      "name": "grantRole",
      "outputs": [],
      "stateMutability": "nonpayable",
      "type": "function"
    },
    {
      "inputs": [
        {
          "internalType": "bytes32",
          "name": "role",
          "type": "bytes32"
        },
        {
          "internalType": "address[]",
          "name": "accounts",
          "type": "address[]"
        }
      ],
      "name": "grantRoles",
      "outputs": [],
      "stateMutability": "nonpayable",
      "type": "function"
    },
    {
      "inputs": [
        {
          "internalType": "bytes32",
          "name": "role",
          "type": "bytes32"
        },
        {
          "internalType": "address",
          "name": "account",
          "type": "address"
        }
      ],
      "name": "hasRole",
      "outputs": [
        {
          "internalType": "bool",
          "name": "",
          "type": "bool"
        }
      ],
      "stateMutability": "view",
      "type": "function"
    },
    {
      "inputs": [
        {
          "components": [
            {
              "internalType": "address",
              "name": "sideBridgeAddress",
              "type": "address"
            },
            {
              "internalType": "address",
              "name": "relayAddress",
              "type": "address"
            },
            {
              "internalType": "address[]",
              "name": "watchdogsAddresses",
              "type": "address[]"
            },
            {
              "internalType": "address",
              "name": "feeProviderAddress",
              "type": "address"
            },
            {
              "internalType": "address",
              "name": "wrappingTokenAddress",
              "type": "address"
            },
            {
              "internalType": "address[]",
              "name": "tokenThisAddresses",
              "type": "address[]"
            },
            {
              "internalType": "address[]",
              "name": "tokenSideAddresses",
              "type": "address[]"
            },
            {
              "internalType": "address payable",
              "name": "transferFeeRecipient",
              "type": "address"
            },
            {
              "internalType": "address payable",
              "name": "bridgeFeeRecipient",
              "type": "address"
            },
            {
              "internalType": "uint256",
              "name": "timeframeSeconds",
              "type": "uint256"
            },
            {
              "internalType": "uint256",
              "name": "lockTime",
              "type": "uint256"
            },
            {
              "internalType": "uint256",
              "name": "minSafetyBlocks",
              "type": "uint256"
            }
          ],
          "internalType": "struct CommonStructs.ConstructorArgs",
          "name": "args",
          "type": "tuple"
        }
      ],
      "name": "initialize",
      "outputs": [],
      "stateMutability": "nonpayable",
      "type": "function"
    },
    {
      "inputs": [],
      "name": "inputEventId",
      "outputs": [
        {
          "internalType": "uint256",
          "name": "",
          "type": "uint256"
        }
      ],
      "stateMutability": "view",
      "type": "function"
    },
    {
      "inputs": [],
      "name": "isQueueEmpty",
      "outputs": [
        {
          "internalType": "bool",
          "name": "",
          "type": "bool"
        }
      ],
      "stateMutability": "view",
      "type": "function"
    },
    {
      "inputs": [],
      "name": "lastTimeframe",
      "outputs": [
        {
          "internalType": "uint256",
          "name": "",
          "type": "uint256"
        }
      ],
      "stateMutability": "view",
      "type": "function"
    },
    {
      "inputs": [],
      "name": "lockTime",
      "outputs": [
        {
          "internalType": "uint256",
          "name": "",
          "type": "uint256"
        }
      ],
      "stateMutability": "view",
      "type": "function"
    },
    {
      "inputs": [
        {
          "internalType": "uint256",
          "name": "",
          "type": "uint256"
        }
      ],
      "name": "lockedTransfers",
      "outputs": [
        {
          "internalType": "uint256",
          "name": "endTimestamp",
          "type": "uint256"
        }
      ],
      "stateMutability": "view",
      "type": "function"
    },
    {
      "inputs": [],
      "name": "minSafetyBlocks",
      "outputs": [
        {
          "internalType": "uint256",
          "name": "",
          "type": "uint256"
        }
      ],
      "stateMutability": "view",
      "type": "function"
    },
    {
      "inputs": [],
      "name": "oldestLockedEventId",
      "outputs": [
        {
          "internalType": "uint256",
          "name": "",
          "type": "uint256"
        }
      ],
      "stateMutability": "view",
      "type": "function"
    },
    {
      "inputs": [],
      "name": "outputEventId",
      "outputs": [
        {
          "internalType": "uint256",
          "name": "",
          "type": "uint256"
        }
      ],
      "stateMutability": "view",
      "type": "function"
    },
    {
      "inputs": [],
      "name": "pause",
      "outputs": [],
      "stateMutability": "nonpayable",
      "type": "function"
    },
    {
      "inputs": [],
      "name": "paused",
      "outputs": [
        {
          "internalType": "bool",
          "name": "",
          "type": "bool"
        }
      ],
      "stateMutability": "view",
      "type": "function"
    },
    {
      "inputs": [
        {
          "internalType": "uint256",
          "name": "eventId",
          "type": "uint256"
        }
      ],
      "name": "removeLockedTransfers",
      "outputs": [],
      "stateMutability": "nonpayable",
      "type": "function"
    },
    {
      "inputs": [
        {
          "internalType": "bytes32",
          "name": "role",
          "type": "bytes32"
        },
        {
          "internalType": "address",
          "name": "account",
          "type": "address"
        }
      ],
      "name": "renounceRole",
      "outputs": [],
      "stateMutability": "nonpayable",
      "type": "function"
    },
    {
      "inputs": [
        {
          "internalType": "bytes32",
          "name": "role",
          "type": "bytes32"
        },
        {
          "internalType": "address",
          "name": "account",
          "type": "address"
        }
      ],
      "name": "revokeRole",
      "outputs": [],
      "stateMutability": "nonpayable",
      "type": "function"
    },
    {
      "inputs": [
        {
          "internalType": "bytes32",
          "name": "role",
          "type": "bytes32"
        },
        {
          "internalType": "address[]",
          "name": "accounts",
          "type": "address[]"
        }
      ],
      "name": "revokeRoles",
      "outputs": [],
      "stateMutability": "nonpayable",
      "type": "function"
    },
    {
      "inputs": [],
      "name": "sideBridgeAddress",
      "outputs": [
        {
          "internalType": "address",
          "name": "",
          "type": "address"
        }
      ],
      "stateMutability": "view",
      "type": "function"
    },
    {
      "inputs": [
        {
          "internalType": "uint256",
          "name": "eventId",
          "type": "uint256"
        }
      ],
      "name": "skipTransfers",
      "outputs": [],
      "stateMutability": "nonpayable",
      "type": "function"
    },
    {
      "inputs": [
        {
          "internalType": "uint256",
          "name": "eventId",
          "type": "uint256"
        },
        {
          "components": [
            {
              "internalType": "address",
              "name": "tokenAddress",
              "type": "address"
            },
            {
              "internalType": "address",
              "name": "toAddress",
              "type": "address"
            },
            {
              "internalType": "uint256",
              "name": "amount",
              "type": "uint256"
            }
          ],
          "internalType": "struct CommonStructs.Transfer[]",
          "name": "transfers",
          "type": "tuple[]"
        }
      ],
      "name": "submitTransferUntrustless",
      "outputs": [],
      "stateMutability": "nonpayable",
      "type": "function"
    },
    {
      "inputs": [
        {
          "internalType": "bytes4",
          "name": "interfaceId",
          "type": "bytes4"
        }
      ],
      "name": "supportsInterface",
      "outputs": [
        {
          "internalType": "bool",
          "name": "",
          "type": "bool"
        }
      ],
      "stateMutability": "view",
      "type": "function"
    },
    {
      "inputs": [],
      "name": "timeframeSeconds",
      "outputs": [
        {
          "internalType": "uint256",
          "name": "",
          "type": "uint256"
        }
      ],
      "stateMutability": "view",
      "type": "function"
    },
    {
      "inputs": [
        {
          "internalType": "address",
          "name": "",
          "type": "address"
        }
      ],
      "name": "tokenAddresses",
      "outputs": [
        {
          "internalType": "address",
          "name": "",
          "type": "address"
        }
      ],
      "stateMutability": "view",
      "type": "function"
    },
    {
      "inputs": [
        {
          "internalType": "address",
          "name": "tokenThisAddress",
          "type": "address"
        },
        {
          "internalType": "address",
          "name": "tokenSideAddress",
          "type": "address"
        }
      ],
      "name": "tokensAdd",
      "outputs": [],
      "stateMutability": "nonpayable",
      "type": "function"
    },
    {
      "inputs": [
        {
          "internalType": "address[]",
          "name": "tokenThisAddresses",
          "type": "address[]"
        },
        {
          "internalType": "address[]",
          "name": "tokenSideAddresses",
          "type": "address[]"
        }
      ],
      "name": "tokensAddBatch",
      "outputs": [],
      "stateMutability": "nonpayable",
      "type": "function"
    },
    {
      "inputs": [
        {
          "internalType": "address",
          "name": "tokenThisAddress",
          "type": "address"
        }
      ],
      "name": "tokensRemove",
      "outputs": [],
      "stateMutability": "nonpayable",
      "type": "function"
    },
    {
      "inputs": [
        {
          "internalType": "address[]",
          "name": "tokenThisAddresses",
          "type": "address[]"
        }
      ],
      "name": "tokensRemoveBatch",
      "outputs": [],
      "stateMutability": "nonpayable",
      "type": "function"
    },
    {
      "inputs": [],
      "name": "transferFeeRecipient",
      "outputs": [
        {
          "internalType": "address payable",
          "name": "",
          "type": "address"
        }
      ],
      "stateMutability": "view",
      "type": "function"
    },
    {
      "inputs": [],
      "name": "triggerTransfers",
      "outputs": [],
      "stateMutability": "nonpayable",
      "type": "function"
    },
    {
      "inputs": [
        {
          "internalType": "uint256",
          "name": "eventId",
          "type": "uint256"
        }
      ],
      "name": "unlockTransfers",
      "outputs": [],
      "stateMutability": "nonpayable",
      "type": "function"
    },
    {
      "inputs": [],
      "name": "unlockTransfersBatch",
      "outputs": [],
      "stateMutability": "nonpayable",
      "type": "function"
    },
    {
      "inputs": [],
      "name": "unpause",
      "outputs": [],
      "stateMutability": "nonpayable",
      "type": "function"
    },
    {
      "inputs": [
        {
          "internalType": "address",
          "name": "tokenThisAddress",
          "type": "address"
        },
        {
          "internalType": "address",
          "name": "toAddress",
          "type": "address"
        },
        {
          "internalType": "uint256",
          "name": "amount",
          "type": "uint256"
        },
        {
          "internalType": "bool",
          "name": "unwrapSide",
          "type": "bool"
        },
        {
          "internalType": "bytes",
          "name": "feeSignature",
          "type": "bytes"
        },
        {
          "internalType": "uint256",
          "name": "transferFee",
          "type": "uint256"
        },
        {
          "internalType": "uint256",
          "name": "bridgeFee",
          "type": "uint256"
        }
      ],
      "name": "withdraw",
      "outputs": [],
      "stateMutability": "payable",
      "type": "function"
    },
    {
      "inputs": [
        {
          "internalType": "address",
          "name": "toAddress",
          "type": "address"
        },
        {
          "internalType": "bytes",
          "name": "feeSignature",
          "type": "bytes"
        },
        {
          "internalType": "uint256",
          "name": "transferFee",
          "type": "uint256"
        },
        {
          "internalType": "uint256",
          "name": "bridgeFee",
          "type": "uint256"
        }
      ],
      "name": "wrapWithdraw",
      "outputs": [],
      "stateMutability": "payable",
      "type": "function"
    },
    {
      "inputs": [],
      "name": "wrapperAddress",
      "outputs": [
        {
          "internalType": "address",
          "name": "",
          "type": "address"
        }
      ],
      "stateMutability": "view",
      "type": "function"
    },
    {
      "stateMutability": "payable",
      "type": "receive"
    }
  ],
  "transactionHash": "0xe0e40fa19a6d255e6a835a058b8ccfe7a293c8f5d80761f35221356bb0af28b8",
  "args": [],
  "numDeployments": 1,
  "solcInputHash": "93c643e30390f17c9d1c7863ec027044",
  "bytecode": "0x608060405234801561001057600080fd5b506134f3806100206000396000f3fe6080604052600436106102d15760003560e060020a90048063853890ae11610179578063b87330e9116100e0578063deb9a3a211610099578063f700558711610073578063f7005587146108bf578063f862b7eb146108df578063f8b74433146108ff578063fd5d2ef31461091257600080fd5b8063deb9a3a214610852578063e31be08714610872578063f33fe10f1461089f57600080fd5b8063b87330e914610792578063ba8bbbe0146107b2578063baeebe75146107c8578063cf3317d3146107de578063d3b89f49146107fe578063d547741f1461083257600080fd5b8063924cf6e011610132578063924cf6e0146106c757806396cf5227146106dd57806399b5bb64146106fd578063a217fddf14610713578063a9b1cf0b14610728578063b6d3385e1461075c57600080fd5b8063853890ae1461062957806386d7679e146106495780638ac1f86f1461065f5780638e5df9c71461067457806391c5bc0a1461069457806391d14854146106a757600080fd5b8063390d5388116102385780635249a705116101f1578063746b5c42116101cb578063746b5c42146105bd57806375b238fc146105d25780637df8b802146105f45780638456cb591461061457600080fd5b80635249a705146105655780635a5f55bf146105855780635c975abb146105a557600080fd5b8063390d5388146104a05780633928b296146104c05780633f4ba83a146104e057806342180fb8146104f55780634a1856de146105155780635119b0ef1461054557600080fd5b8063297c26771161028a578063297c2677146103dc5780632bbba847146103f25780632f2ff15d14610408578063304561bb14610428578063331a891a1461046057806336568abe1461048057600080fd5b806301ffc9a7146102dd578063044218231461031257806309fce356146103545780630d66808714610376578063196f0f621461038c578063248a9ca3146103ac57600080fd5b366102d857005b600080fd5b3480156102e957600080fd5b506102fd6102f8366004612ef2565b610932565b60405190151581526020015b60405180910390f35b34801561031e57600080fd5b506103467f077a1d526a4ce8a773632ab13b4fbbf1fcc954c3dab26cd27ea0e2a6750da5d781565b604051908152602001610309565b34801561036057600080fd5b5061037461036f366004612ddf565b6109c5565b005b34801561038257600080fd5b5061034660d45481565b34801561039857600080fd5b506103746103a7366004612ea6565b6109f1565b3480156103b857600080fd5b506103466103c7366004612e68565b60009081526065602052604090206001015490565b3480156103e857600080fd5b5061034660d65481565b3480156103fe57600080fd5b5060ca54156102fd565b34801561041457600080fd5b50610374610423366004612e81565b610a3f565b34801561043457600080fd5b5060cf5461044890600160a060020a031681565b604051600160a060020a039091168152602001610309565b34801561046c57600080fd5b5061037461047b366004612e68565b610a6a565b34801561048c57600080fd5b5061037461049b366004612e81565b610b8a565b3480156104ac57600080fd5b5060d05461044890600160a060020a031681565b3480156104cc57600080fd5b506103746104db366004612c4c565b610c15565b3480156104ec57600080fd5b50610374610c51565b34801561050157600080fd5b50610374610510366004612e68565b610c75565b34801561052157600080fd5b50610346610530366004612e68565b60cb6020526000908152604090206001015481565b34801561055157600080fd5b50610374610560366004612f6d565b610cb2565b34801561057157600080fd5b50610374610580366004612d9d565b610d42565b34801561059157600080fd5b506103746105a0366004612f31565b610dcb565b3480156105b157600080fd5b5060975460ff166102fd565b3480156105c957600080fd5b50610374610e43565b3480156105de57600080fd5b5061034660008051602061349e83398151915281565b34801561060057600080fd5b5060ce5461044890600160a060020a031681565b34801561062057600080fd5b50610374610eef565b34801561063557600080fd5b50610374610644366004612c69565b610f22565b34801561065557600080fd5b5061034660d75481565b34801561066b57600080fd5b50610374610f6a565b34801561068057600080fd5b5061037461068f366004612c4c565b6110c2565b6103746106a2366004612d36565b611103565b3480156106b357600080fd5b506102fd6106c2366004612e81565b611433565b3480156106d357600080fd5b5061034660d25481565b3480156106e957600080fd5b506103746106f8366004612e68565b61145e565b34801561070957600080fd5b5061034660d55481565b34801561071f57600080fd5b50610346600081565b34801561073457600080fd5b506103467fb7f2fcb7a10916921b74b9baa8ea85f89b12ab12f6ededa160998f8b20e65f9581565b34801561076857600080fd5b50610448610777366004612c4c565b60cd60205260009081526040902054600160a060020a031681565b34801561079e57600080fd5b506103746107ad366004612c4c565b61147d565b3480156107be57600080fd5b5061034660cc5481565b3480156107d457600080fd5b5061034660d35481565b3480156107ea57600080fd5b506103746107f9366004612e68565b6114b9565b34801561080a57600080fd5b506103467f516d5e7ed3e60a6b2804c1554cd94bc2eb576e44b192a0e069d4c527589a887e81565b34801561083e57600080fd5b5061037461084d366004612e81565b611530565b34801561085e57600080fd5b5061037461086d366004612ea6565b611556565b34801561087e57600080fd5b5061089261088d366004612e68565b61157d565b6040516103099190613238565b3480156108ab57600080fd5b5060d15461044890600160a060020a031681565b3480156108cb57600080fd5b506103746108da366004612e68565b611639565b3480156108eb57600080fd5b506103746108fa366004612e68565b611658565b61037461090d366004612ca2565b61188b565b34801561091e57600080fd5b5061037461092d366004612e68565b611ceb565b60007bffffffffffffffffffffffffffffffffffffffffffffffffffffffff1982167f7965db0b0000000000000000000000000000000000000000000000000000000014806109bf57507f01ffc9a7000000000000000000000000000000000000000000000000000000007bffffffffffffffffffffffffffffffffffffffffffffffffffffffff198316145b92915050565b60008051602061349e8339815191526109de8133611d0a565b6109ea85858585611d71565b5050505050565b60005b81811015610a3957610a2784848484818110610a1257610a126133e9565b905060200201602081019061084d9190612c4c565b80610a31816133b5565b9150506109f4565b50505050565b600082815260656020526040902060010154610a5b8133611d0a565b610a658383611e92565b505050565b60008051602061349e833981519152610a838133611d0a565b60975460ff16610ab15760405160e560020a62461bcd028152600401610aa890613110565b60405180910390fd5b60cc54821015610ad65760405160e560020a62461bcd028152600401610aa8906131db565b60d554821115610b2b5760405160e560020a62461bcd02815260206004820152601f60248201527f6576656e744964206d757374206265203c3d20696e7075744576656e744964006044820152606401610aa8565b610b3660018361335b565b60d5555b600082815260cb602052604090206001015415610b8657600082815260cb6020526040812090610b6a8282612b6c565b5060006001919091015581610b7e816133b5565b925050610b3a565b5050565b600160a060020a0381163314610c0b5760405160e560020a62461bcd02815260206004820152602f60248201527f416363657373436f6e74726f6c3a2063616e206f6e6c792072656e6f756e636560448201527f20726f6c657320666f722073656c6600000000000000000000000000000000006064820152608401610aa8565b610b868282611f18565b60008051602061349e833981519152610c2e8133611d0a565b5060d08054600160a060020a031916600160a060020a0392909216919091179055565b60008051602061349e833981519152610c6a8133611d0a565b610c72611f7f565b50565b60008051602061349e833981519152610c8e8133611d0a565b8160d35460d754610c9f919061333c565b610ca99190613317565b60d7555060d355565b7f077a1d526a4ce8a773632ab13b4fbbf1fcc954c3dab26cd27ea0e2a6750da5d7610cdd8133611d0a565b60975460ff1615610d035760405160e560020a62461bcd028152600401610aa890613147565b610d0c84611fee565b60405184907f196c47048e38df7a4fe6e581c8f4f2e2ba67ac0dd45b90da756e97bd61d9dd3b90600090a2610a39838386612053565b60008051602061349e833981519152610d5b8133611d0a565b8160005b818110156109ea5760cd6000868684818110610d7d57610d7d6133e9565b9050602002016020810190610d929190612c4c565b600160a060020a0316815260208101919091526040016000208054600160a060020a031916905580610dc3816133b5565b915050610d5f565b600054610100900460ff1680610de4575060005460ff16155b610e035760405160e560020a62461bcd028152600401610aa89061317e565b600054610100900460ff16158015610e25576000805461ffff19166101011790555b610e2e826120e1565b8015610b86576000805461ff00191690555050565b60ca54610e955760405160e560020a62461bcd02815260206004820152600e60248201527f517565756520697320656d7074790000000000000000000000000000000000006044820152606401610aa8565b60d68054906000610ea5836133b5565b919050557fe15729a2f427aa4572dab35eb692c902fcbce57d41642013259c741380809ae260ca604051610ed9919061306d565b60405180910390a2610eed60ca6000612b6c565b565b7fb7f2fcb7a10916921b74b9baa8ea85f89b12ab12f6ededa160998f8b20e65f95610f1a8133611d0a565b610c72612331565b60008051602061349e833981519152610f3b8133611d0a565b50600160a060020a03918216600090815260cd602052604090208054600160a060020a03191691909216179055565b60975460ff1615610f905760405160e560020a62461bcd028152600401610aa890613147565b60cc545b600081815260cb60209081526040808320815181546060948102820185018452928101838152909391928492849190879085015b8282101561102257600084815260209081902060408051606081018252600386029092018054600160a060020a03908116845260018083015490911684860152600290910154918301919091529083529092019101610fc8565b505050508152602001600182015481525050905080602001516000148061104c5750428160200151115b15611057575060cc55565b80516110629061238c565b600082815260cb602052604081209061107b8282612b6c565b50600060019190910181905560405183917f78ff9b3176bb0d6421590f3816e75cb15a9ffa2b7a1a028f40a3f4e029eb39f291a250806110ba816133b5565b915050610f94565b60008051602061349e8339815191526110db8133611d0a565b50600160a060020a0316600090815260cd602052604090208054600160a060020a0319169055565b60ce54600160a060020a03908116600090815260cd602052604090205416806111715760405160e560020a62461bcd02815260206004820152601560248201527f556e6b6e6f776e20746f6b656e206164647265737300000000000000000000006044820152606401610aa8565b61117b82846132ff565b34116111cc5760405160e560020a62461bcd02815260206004820152601160248201527f53656e742076616c7565203c3d206665650000000000000000000000000000006044820152606401610aa8565b6000826111d9853461335b565b6111e3919061335b565b60ce5490915061120090600160a060020a03168787878786612620565b60cf54604051600160a060020a039091169085156108fc029086906000818181858888f1935050505015801561123a573d6000803e3d6000fd5b5060d054604051600160a060020a039091169084156108fc029085906000818181858888f19350505050158015611275573d6000803e3d6000fd5b5060ce60009054906101000a9004600160a060020a0316600160a060020a031663d0e30db0826040518263ffffffff1660e060020a0281526004016000604051808303818588803b1580156112c957600080fd5b505af11580156112dd573d6000803e3d6000fd5b505060408051606081018252600160a060020a0380881682528c81166020830190815282840188815260ca80546001810182556000918252945160039095027f42d72674974f694b5f5159593243114d38a5c39c89d6b62fee061ff523240ee181018054968616600160a060020a031997881617905592517f42d72674974f694b5f5159593243114d38a5c39c89d6b62fee061ff523240ee2840180549190951695169490941790925590517f42d72674974f694b5f5159593243114d38a5c39c89d6b62fee061ff523240ee39091015560d65491513395507f3b823d3b837159352faddd1e0b9e9f584ca2bfe976238f6a9e6da4615cf2f444945061141a9350879087908b908b90958652600160a060020a0394851660208701529290931660408501526060840152608083019190915260a082015260c00190565b60405180910390a261142a6127c6565b50505050505050565b6000918252606560209081526040808420600160a060020a0393909316845291905290205460ff1690565b60008051602061349e8339815191526114778133611d0a565b5060d455565b60008051602061349e8339815191526114968133611d0a565b5060cf8054600160a060020a031916600160a060020a0392909216919091179055565b60008051602061349e8339815191526114d28133611d0a565b60975460ff166114f75760405160e560020a62461bcd028152600401610aa890613110565b60cc5482101561151c5760405160e560020a62461bcd028152600401610aa8906131db565b61152760018361335b565b60d5555060cc55565b60008281526065602052604090206001015461154c8133611d0a565b610a658383611f18565b6000838152606560205260409020600101546115728133611d0a565b610a3984848461283e565b604080518082019091526060815260006020820152600082815260cb60209081526040808320815181546060948102820185018452928101838152909491938593919285929185015b8282101561162057600084815260209081902060408051606081018252600386029092018054600160a060020a039081168452600180830154909116848601526002909101549183019190915290835290920191016115c6565b5050505081526020016001820154815250509050919050565b60008051602061349e8339815191526116528133611d0a565b5060c955565b60975460ff161561167e5760405160e560020a62461bcd028152600401610aa890613147565b60cc5481146116d25760405160e560020a62461bcd02815260206004820152601c60248201527f63616e20756e6c6f636b206f6e6c79206f6c64657374206576656e74000000006044820152606401610aa8565b600081815260cb60209081526040808320815181546060948102820185018452928101838152909391928492849190879085015b8282101561176057600084815260209081902060408051606081018252600386029092018054600160a060020a03908116845260018083015490911684860152600290910154918301919091529083529092019101611706565b505050508152602001600182015481525050905060008160200151116117cb5760405160e560020a62461bcd02815260206004820181905260248201527f6e6f206c6f636b6564207472616e7366657273207769746820746869732069646044820152606401610aa8565b428160200151106118215760405160e560020a62461bcd02815260206004820152601b60248201527f6c6f636b54696d6520686173206e6f74207965742070617373656400000000006044820152606401610aa8565b805161182c9061238c565b600082815260cb60205260408120906118458282612b6c565b50600060019190910181905560405183917f78ff9b3176bb0d6421590f3816e75cb15a9ffa2b7a1a028f40a3f4e029eb39f291a26118848260016132ff565b60cc555050565b60008515611920576000805260cd6020527fcd565b10a72538d86f6d352f37ebc5dff31587960b12c0afe00fd03947a6932a54600160a060020a038a811691161461191b5760405160e560020a62461bcd02815260206004820152601f60248201527f546f6b656e206e6f7420706f696e7420746f206e617469766520746f6b656e006044820152606401610aa8565b61198c565b50600160a060020a03808916600090815260cd6020526040902054168061198c5760405160e560020a62461bcd02815260206004820152601560248201527f556e6b6e6f776e20746f6b656e206164647265737300000000000000000000006044820152606401610aa8565b61199682846132ff565b34146119e75760405160e560020a62461bcd02815260206004820152601160248201527f53656e742076616c756520213d206665650000000000000000000000000000006044820152606401610aa8565b60008711611a3a5760405160e560020a62461bcd02815260206004820152601160248201527f43616e6e6f7420776974686472617720300000000000000000000000000000006044820152606401610aa8565b611a4889868686868c612620565b60cf54604051600160a060020a039091169084156108fc029085906000818181858888f19350505050158015611a82573d6000803e3d6000fd5b5060d054604051600160a060020a039091169083156108fc029084906000818181858888f19350505050158015611abd573d6000803e3d6000fd5b506040517f23b872dd00000000000000000000000000000000000000000000000000000000815233600482015230602482015260448101889052600160a060020a038a16906323b872dd90606401602060405180830381600087803b158015611b2557600080fd5b505af1158015611b39573d6000803e3d6000fd5b505050506040513d601f19601f82011682018060405250810190611b5d9190612e4b565b611bac5760405160e560020a62461bcd02815260206004820152601360248201527f4661696c207472616e7366657220636f696e73000000000000000000000000006044820152606401610aa8565b6040805160608082018352600160a060020a038481168084528c821660208086019182528587018e815260ca8054600181018255600091909152965160039097027f42d72674974f694b5f5159593243114d38a5c39c89d6b62fee061ff523240ee181018054988716600160a060020a0319998a1617905592517f42d72674974f694b5f5159593243114d38a5c39c89d6b62fee061ff523240ee284018054918716919098161790965594517f42d72674974f694b5f5159593243114d38a5c39c89d6b62fee061ff523240ee39091015560d6548551908152918e16938201939093529283019190915281018890526080810184905260a0810183905233907f3b823d3b837159352faddd1e0b9e9f584ca2bfe976238f6a9e6da4615cf2f4449060c00160405180910390a2611ce06127c6565b505050505050505050565b60008051602061349e833981519152611d048133611d0a565b5060d255565b611d148282611433565b610b8657611d2c81600160a060020a03166014612886565b611d37836020612886565b604051602001611d48929190612fec565b60408051601f198184030181529082905260e560020a62461bcd028252610aa8916004016130dd565b828114611de95760405160e560020a62461bcd02815260206004820152603f60248201527f73697a6573206f6620746f6b656e5468697341646472657373657320616e642060448201527f746f6b656e53696465416464726573736573206d7573742062652073616d65006064820152608401610aa8565b8260005b81811015611e8a57838382818110611e0757611e076133e9565b9050602002016020810190611e1c9190612c4c565b60cd6000888885818110611e3257611e326133e9565b9050602002016020810190611e479190612c4c565b600160a060020a03908116825260208201929092526040016000208054600160a060020a0319169290911691909117905580611e82816133b5565b915050611ded565b505050505050565b611e9c8282611433565b610b86576000828152606560209081526040808320600160a060020a03851684529091529020805460ff19166001179055611ed43390565b600160a060020a031681600160a060020a0316837f2f8788117e7eff1d82e926ec794901d17c78024a50270940304540a733656f0d60405160405180910390a45050565b611f228282611433565b15610b86576000828152606560209081526040808320600160a060020a0385168085529252808320805460ff1916905551339285917ff6391f5c32d9c69d2a47ea670b442974b53935d1edc7fd64eb21e047a839171b9190a45050565b60975460ff16611fa45760405160e560020a62461bcd028152600401610aa890613110565b6097805460ff191690557f5db9ee0a495bf2e6ff9c91a7834c1ba4fdd244a5e8aa4e537bd38aeae4b073aa335b604051600160a060020a03909116815260200160405180910390a1565b60d560008154611ffd906133b5565b91829055508114610c725760405160e560020a62461bcd02815260206004820152601460248201527f4576656e744964206f7574206f66206f726465720000000000000000000000006044820152606401610aa8565b60d45461206090426132ff565b600082815260cb60205260408120600101919091555b82811015610a3957600082815260cb6020526040902084848381811061209e5761209e6133e9565b8354600181018555600094855260209094206060909102929092019260030290910190506120cc828261341b565b505080806120d9906133b5565b915050612076565b600054610100900460ff16806120fa575060005460ff16155b6121195760405160e560020a62461bcd028152600401610aa89061317e565b600054610100900460ff1615801561213b576000805461ffff19166101011790555b612146600030612ad7565b61215e60008051602061349e83398151915233612ad7565b6121977f077a1d526a4ce8a773632ab13b4fbbf1fcc954c3dab26cd27ea0e2a6750da5d76121926040850160208601612c4c565b612ad7565b6121cd7fb7f2fcb7a10916921b74b9baa8ea85f89b12ab12f6ededa160998f8b20e65f956121c860408501856132b6565b61283e565b6122017f516d5e7ed3e60a6b2804c1554cd94bc2eb576e44b192a0e069d4c527589a887e6121926080850160608601612c4c565b61222361221160a08401846132b6565b61221e60c08601866132b6565b611d71565b61223360a0830160808401612c4c565b60ce8054600160a060020a031916600160a060020a03929092169190911790556122606020830183612c4c565b60d18054600160a060020a031916600160a060020a0392909216919091179055612291610100830160e08401612c4c565b60cf8054600160a060020a031916600160a060020a03929092169190911790556122c361012083016101008401612c4c565b60d08054600160a060020a031916600160a060020a039290921691909117905561016082013560d25561012082013560d381905561014083013560d455600160cc81905560d655600360c9556123199042613317565b60d7558015610b86576000805461ff00191690555050565b60975460ff16156123575760405160e560020a62461bcd028152600401610aa890613147565b6097805460ff191660011790557f62e78cea01bee320cd4e420270b5ea74000d11b0c9f74754ebdbfc544b05a258611fd13390565b60005b8151811015610b86576000600160a060020a03168282815181106123b5576123b56133e9565b602002602001015160000151600160a060020a031614156124d15760ce548251600160a060020a0390911690632e1a7d4d908490849081106123f9576123f96133e9565b6020026020010151604001516040518263ffffffff1660e060020a02815260040161242691815260200190565b600060405180830381600087803b15801561244057600080fd5b505af1158015612454573d6000803e3d6000fd5b5050505081818151811061246a5761246a6133e9565b602002602001015160200151600160a060020a03166108fc838381518110612494576124946133e9565b6020026020010151604001519081150290604051600060405180830381858888f193505050501580156124cb573d6000803e3d6000fd5b5061260e565b8181815181106124e3576124e36133e9565b602002602001015160000151600160a060020a031663a9059cbb83838151811061250f5761250f6133e9565b60200260200101516020015184848151811061252d5761252d6133e9565b6020026020010151604001516040518363ffffffff1660e060020a02815260040161256d929190600160a060020a03929092168252602082015260400190565b602060405180830381600087803b15801561258757600080fd5b505af115801561259b573d6000803e3d6000fd5b505050506040513d601f19601f820116820180604052508101906125bf9190612e4b565b61260e5760405160e560020a62461bcd02815260206004820152601360248201527f4661696c207472616e7366657220636f696e73000000000000000000000000006044820152606401610aa8565b80612618816133b5565b91505061238f565b6000808061263061070842613317565b905060005b60c95481101561277a576040516c01000000000000000000000000600160a060020a038c160260208201526034810183905260548101889052607481018790526094810186905260b40160408051601f198184030181529082905280516020918201207f19457468657265756d205369676e6564204d6573736167653a0a33320000000091830191909152603c820152605c01604051602081830303815290604052805190602001209350612720848a8a8080601f016020809104026020016040519081016040528093929190818152602001838380828437600092019190915250612ae192505050565b925061274c7f516d5e7ed3e60a6b2804c1554cd94bc2eb576e44b192a0e069d4c527589a887e84611433565b1561275a5750505050611e8a565b816127648161339e565b9250508080612772906133b5565b915050612635565b5060405160e560020a62461bcd02815260206004820152601660248201527f5369676e617475726520636865636b206661696c6564000000000000000000006044820152606401610aa8565b600060d354426127d69190613317565b905060d7548114610c725760d680549060006127f1836133b5565b919050557fe15729a2f427aa4572dab35eb692c902fcbce57d41642013259c741380809ae260ca604051612825919061306d565b60405180910390a261283960ca6000612b6c565b60d755565b60005b81811015610a39576128748484848481811061285f5761285f6133e9565b90506020020160208101906121929190612c4c565b8061287e816133b5565b915050612841565b6060600061289583600261333c565b6128a09060026132ff565b67ffffffffffffffff8111156128b8576128b8613402565b6040519080825280601f01601f1916602001820160405280156128e2576020820181803683370190505b5090507f300000000000000000000000000000000000000000000000000000000000000081600081518110612919576129196133e9565b60200101907effffffffffffffffffffffffffffffffffffffffffffffffffffffffffffff1916908160001a9053507f78000000000000000000000000000000000000000000000000000000000000008160018151811061297c5761297c6133e9565b60200101907effffffffffffffffffffffffffffffffffffffffffffffffffffffffffffff1916908160001a90535060006129b884600261333c565b6129c39060016132ff565b90505b6001811115612a7e577f303132333435363738396162636465660000000000000000000000000000000085600f1660108110612a0457612a046133e9565b1a7f010000000000000000000000000000000000000000000000000000000000000002828281518110612a3957612a396133e9565b60200101907effffffffffffffffffffffffffffffffffffffffffffffffffffffffffffff1916908160001a905350601090940493612a778161339e565b90506129c6565b508315612ad05760405160e560020a62461bcd02815260206004820181905260248201527f537472696e67733a20686578206c656e67746820696e73756666696369656e746044820152606401610aa8565b9392505050565b610b868282611e92565b6020810151604082015160608301516000929190831a601b811015612b0457601b015b60408051600081526020810180835288905260ff831691810191909152606081018490526080810183905260019060a0016020604051602081039080840390855afa158015612b57573d6000803e3d6000fd5b5050604051601f190151979650505050505050565b5080546000825560030290600052602060002090810190610c7291905b80821115612bbb578054600160a060020a03199081168255600182018054909116905560006002820155600301612b89565b5090565b60008083601f840112612bd157600080fd5b50813567ffffffffffffffff811115612be957600080fd5b6020830191508360208083028501011115612c0357600080fd5b9250929050565b60008083601f840112612c1c57600080fd5b50813567ffffffffffffffff811115612c3457600080fd5b602083019150836020828501011115612c0357600080fd5b600060208284031215612c5e57600080fd5b8135612ad08161347a565b60008060408385031215612c7c57600080fd5b8235612c878161347a565b91506020830135612c978161347a565b809150509250929050565b60008060008060008060008060e0898b031215612cbe57600080fd5b8835612cc98161347a565b97506020890135612cd98161347a565b9650604089013595506060890135612cf08161348f565b9450608089013567ffffffffffffffff811115612d0c57600080fd5b612d188b828c01612c0a565b999c989b5096999598969760a08701359660c0013595509350505050565b600080600080600060808688031215612d4e57600080fd5b8535612d598161347a565b9450602086013567ffffffffffffffff811115612d7557600080fd5b612d8188828901612c0a565b9699909850959660408101359660609091013595509350505050565b60008060208385031215612db057600080fd5b823567ffffffffffffffff811115612dc757600080fd5b612dd385828601612bbf565b90969095509350505050565b60008060008060408587031215612df557600080fd5b843567ffffffffffffffff80821115612e0d57600080fd5b612e1988838901612bbf565b90965094506020870135915080821115612e3257600080fd5b50612e3f87828801612bbf565b95989497509550505050565b600060208284031215612e5d57600080fd5b8151612ad08161348f565b600060208284031215612e7a57600080fd5b5035919050565b60008060408385031215612e9457600080fd5b823591506020830135612c978161347a565b600080600060408486031215612ebb57600080fd5b83359250602084013567ffffffffffffffff811115612ed957600080fd5b612ee586828701612bbf565b9497909650939450505050565b600060208284031215612f0457600080fd5b81357bffffffffffffffffffffffffffffffffffffffffffffffffffffffff1981168114612ad057600080fd5b600060208284031215612f4357600080fd5b813567ffffffffffffffff811115612f5a57600080fd5b82016101808185031215612ad057600080fd5b600080600060408486031215612f8257600080fd5b83359250602084013567ffffffffffffffff80821115612fa157600080fd5b818601915086601f830112612fb557600080fd5b813581811115612fc457600080fd5b876020606083028501011115612fd957600080fd5b6020830194508093505050509250925092565b7f416363657373436f6e74726f6c3a206163636f756e7420000000000000000000815260008351613024816017850160208801613372565b7f206973206d697373696e6720726f6c65200000000000000000000000000000006017918401918201528351613061816028840160208801613372565b01602801949350505050565b60006020808301818452808554808352604092508286019150866000528360002060005b828110156130d0578154600160a060020a0390811685526001808401549091168786015260028301548686015260609094019360039092019101613091565b5091979650505050505050565b60208152600082518060208401526130fc816040850160208701613372565b601f01601f19169190910160400192915050565b60208082526014908201527f5061757361626c653a206e6f7420706175736564000000000000000000000000604082015260600190565b60208082526010908201527f5061757361626c653a2070617573656400000000000000000000000000000000604082015260600190565b6020808252602e908201527f496e697469616c697a61626c653a20636f6e747261637420697320616c72656160408201527f647920696e697469616c697a6564000000000000000000000000000000000000606082015260800190565b60208082526026908201527f6576656e744964206d757374206265203e3d206f6c646573744c6f636b65644560408201527f76656e7449640000000000000000000000000000000000000000000000000000606082015260800190565b6000602080835260608084018551604080858801528282518085526080890191508684019450600093505b808410156132a05784518051600160a060020a03908116845288820151168884015283015183830152938601936001939093019290850190613263565b5094909701519590960194909452509392505050565b6000808335601e198436030181126132cd57600080fd5b83018035915067ffffffffffffffff8211156132e857600080fd5b6020908101925081023603821315612c0357600080fd5b60008219821115613312576133126133d0565b500190565b6000826133375760e060020a634e487b7102600052601260045260246000fd5b500490565b6000816000190483118215151615613356576133566133d0565b500290565b60008282101561336d5761336d6133d0565b500390565b60005b8381101561338d578181015183820152602001613375565b83811115610a395750506000910152565b6000816133ad576133ad6133d0565b506000190190565b60006000198214156133c9576133c96133d0565b5060010190565b60e060020a634e487b7102600052601160045260246000fd5b60e060020a634e487b7102600052603260045260246000fd5b60e060020a634e487b7102600052604160045260246000fd5b81356134268161347a565b8154600160a060020a031916600160a060020a03821617825550602082013561344e8161347a565b600182018054600160a060020a031916600160a060020a03831617905550604082013560028201555050565b600160a060020a0381168114610c7257600080fd5b8015158114610c7257600080fdfea49807205ce4d355092ef5a8a18f56e8913cf4a201fbe287825b095693c21775a264697066735822122088109047a2eb4a3e107ed2ca57f5cbc51d4dd2a674c16016da6d89abef44fe2464736f6c63430008060033",
  "devdoc": {
    "kind": "dev",
    "methods": {
      "getRoleAdmin(bytes32)": {
        "details": "Returns the admin role that controls `role`. See {grantRole} and {revokeRole}. To change a role's admin, use {_setRoleAdmin}."
      },
      "grantRole(bytes32,address)": {
        "details": "Grants `role` to `account`. If `account` had not been already granted `role`, emits a {RoleGranted} event. Requirements: - the caller must have ``role``'s admin role."
      },
      "hasRole(bytes32,address)": {
        "details": "Returns `true` if `account` has been granted `role`."
      },
      "paused()": {
        "details": "Returns true if the contract is paused, and false otherwise."
      },
      "renounceRole(bytes32,address)": {
        "details": "Revokes `role` from the calling account. Roles are often managed via {grantRole} and {revokeRole}: this function's purpose is to provide a mechanism for accounts to lose their privileges if they are compromised (such as when a trusted device is misplaced). If the calling account had been granted `role`, emits a {RoleRevoked} event. Requirements: - the caller must be `account`."
      },
      "revokeRole(bytes32,address)": {
        "details": "Revokes `role` from `account`. If `account` had been granted `role`, emits a {RoleRevoked} event. Requirements: - the caller must have ``role``'s admin role."
      },
      "supportsInterface(bytes4)": {
        "details": "See {IERC165-supportsInterface}."
      },
      "withdraw(address,address,uint256,bool,bytes,uint256,uint256)": {
        "params": {
          "bridgeFee": "Amount (in native coins), payed as bridge earnings",
          "feeSignature": "Signature signed by relay that confirms that the fee values are valid",
          "transferFee": "Amount (in native coins), payed to compensate gas fees in side network"
        }
      },
      "wrapWithdraw(address,bytes,uint256,uint256)": {
        "params": {
          "bridgeFee": "Amount (in native coins), payed as bridge earnings",
          "feeSignature": "Signature signed by relay that confirms that the fee values are valid",
          "toAddress": "Address in side network that will receive the tokens",
          "transferFee": "Amount (in native coins), payed to compensate gas fees in side network"
        }
      }
    },
    "version": 1
  },
  "userdoc": {
    "kind": "user",
    "methods": {},
    "version": 1
  },
  "storageLayout": {
    "storage": [
      {
        "astId": 413,
        "contract": "contracts/networks/optimism/OPTIMISM_OptimismBridge.sol:OPTIMISM_OptimismBridge",
        "label": "_initialized",
        "offset": 0,
        "slot": "0",
        "type": "t_bool"
      },
      {
        "astId": 416,
        "contract": "contracts/networks/optimism/OPTIMISM_OptimismBridge.sol:OPTIMISM_OptimismBridge",
        "label": "_initializing",
        "offset": 1,
        "slot": "0",
        "type": "t_bool"
      },
      {
        "astId": 609,
        "contract": "contracts/networks/optimism/OPTIMISM_OptimismBridge.sol:OPTIMISM_OptimismBridge",
        "label": "__gap",
        "offset": 0,
        "slot": "1",
        "type": "t_array(t_uint256)50_storage"
      },
      {
        "astId": 858,
        "contract": "contracts/networks/optimism/OPTIMISM_OptimismBridge.sol:OPTIMISM_OptimismBridge",
        "label": "__gap",
        "offset": 0,
        "slot": "51",
        "type": "t_array(t_uint256)50_storage"
      },
      {
        "astId": 48,
        "contract": "contracts/networks/optimism/OPTIMISM_OptimismBridge.sol:OPTIMISM_OptimismBridge",
        "label": "_roles",
        "offset": 0,
        "slot": "101",
        "type": "t_mapping(t_bytes32,t_struct(RoleData)43_storage)"
      },
      {
        "astId": 333,
        "contract": "contracts/networks/optimism/OPTIMISM_OptimismBridge.sol:OPTIMISM_OptimismBridge",
        "label": "__gap",
        "offset": 0,
        "slot": "102",
        "type": "t_array(t_uint256)49_storage"
      },
      {
        "astId": 474,
        "contract": "contracts/networks/optimism/OPTIMISM_OptimismBridge.sol:OPTIMISM_OptimismBridge",
        "label": "_paused",
        "offset": 0,
        "slot": "151",
        "type": "t_bool"
      },
      {
        "astId": 565,
        "contract": "contracts/networks/optimism/OPTIMISM_OptimismBridge.sol:OPTIMISM_OptimismBridge",
        "label": "__gap",
        "offset": 0,
        "slot": "152",
        "type": "t_array(t_uint256)49_storage"
      },
      {
        "astId": 6726,
        "contract": "contracts/networks/optimism/OPTIMISM_OptimismBridge.sol:OPTIMISM_OptimismBridge",
        "label": "signatureFeeCheckNumber",
        "offset": 0,
        "slot": "201",
        "type": "t_uint256"
      },
      {
        "astId": 6730,
        "contract": "contracts/networks/optimism/OPTIMISM_OptimismBridge.sol:OPTIMISM_OptimismBridge",
        "label": "queue",
        "offset": 0,
        "slot": "202",
        "type": "t_array(t_struct(Transfer)7932_storage)dyn_storage"
      },
      {
        "astId": 6735,
        "contract": "contracts/networks/optimism/OPTIMISM_OptimismBridge.sol:OPTIMISM_OptimismBridge",
        "label": "lockedTransfers",
        "offset": 0,
        "slot": "203",
        "type": "t_mapping(t_uint256,t_struct(LockedTransfers)7949_storage)"
      },
      {
        "astId": 6737,
        "contract": "contracts/networks/optimism/OPTIMISM_OptimismBridge.sol:OPTIMISM_OptimismBridge",
        "label": "oldestLockedEventId",
        "offset": 0,
        "slot": "204",
        "type": "t_uint256"
      },
      {
        "astId": 6741,
        "contract": "contracts/networks/optimism/OPTIMISM_OptimismBridge.sol:OPTIMISM_OptimismBridge",
        "label": "tokenAddresses",
        "offset": 0,
        "slot": "205",
        "type": "t_mapping(t_address,t_address)"
      },
      {
        "astId": 6743,
        "contract": "contracts/networks/optimism/OPTIMISM_OptimismBridge.sol:OPTIMISM_OptimismBridge",
        "label": "wrapperAddress",
        "offset": 0,
        "slot": "206",
        "type": "t_address"
      },
      {
        "astId": 6745,
        "contract": "contracts/networks/optimism/OPTIMISM_OptimismBridge.sol:OPTIMISM_OptimismBridge",
        "label": "transferFeeRecipient",
        "offset": 0,
        "slot": "207",
        "type": "t_address_payable"
      },
      {
        "astId": 6747,
        "contract": "contracts/networks/optimism/OPTIMISM_OptimismBridge.sol:OPTIMISM_OptimismBridge",
        "label": "bridgeFeeRecipient",
        "offset": 0,
        "slot": "208",
        "type": "t_address_payable"
      },
      {
        "astId": 6749,
        "contract": "contracts/networks/optimism/OPTIMISM_OptimismBridge.sol:OPTIMISM_OptimismBridge",
        "label": "sideBridgeAddress",
        "offset": 0,
        "slot": "209",
        "type": "t_address"
      },
      {
        "astId": 6751,
        "contract": "contracts/networks/optimism/OPTIMISM_OptimismBridge.sol:OPTIMISM_OptimismBridge",
        "label": "minSafetyBlocks",
        "offset": 0,
        "slot": "210",
        "type": "t_uint256"
      },
      {
        "astId": 6753,
        "contract": "contracts/networks/optimism/OPTIMISM_OptimismBridge.sol:OPTIMISM_OptimismBridge",
        "label": "timeframeSeconds",
        "offset": 0,
        "slot": "211",
        "type": "t_uint256"
      },
      {
        "astId": 6755,
        "contract": "contracts/networks/optimism/OPTIMISM_OptimismBridge.sol:OPTIMISM_OptimismBridge",
        "label": "lockTime",
        "offset": 0,
        "slot": "212",
        "type": "t_uint256"
      },
      {
        "astId": 6757,
        "contract": "contracts/networks/optimism/OPTIMISM_OptimismBridge.sol:OPTIMISM_OptimismBridge",
        "label": "inputEventId",
        "offset": 0,
        "slot": "213",
        "type": "t_uint256"
      },
      {
        "astId": 6759,
        "contract": "contracts/networks/optimism/OPTIMISM_OptimismBridge.sol:OPTIMISM_OptimismBridge",
        "label": "outputEventId",
        "offset": 0,
        "slot": "214",
        "type": "t_uint256"
      },
      {
        "astId": 6761,
        "contract": "contracts/networks/optimism/OPTIMISM_OptimismBridge.sol:OPTIMISM_OptimismBridge",
        "label": "lastTimeframe",
        "offset": 0,
        "slot": "215",
        "type": "t_uint256"
      },
      {
        "astId": 7922,
        "contract": "contracts/networks/optimism/OPTIMISM_OptimismBridge.sol:OPTIMISM_OptimismBridge",
        "label": "__gap",
        "offset": 0,
        "slot": "216",
        "type": "t_array(t_uint256)15_storage"
      },
      {
        "astId": 6656,
        "contract": "contracts/networks/optimism/OPTIMISM_OptimismBridge.sol:OPTIMISM_OptimismBridge",
        "label": "___gap",
        "offset": 0,
        "slot": "231",
        "type": "t_array(t_uint256)15_storage"
      }
    ],
    "types": {
      "t_address": {
        "encoding": "inplace",
        "label": "address",
        "numberOfBytes": "20"
      },
      "t_address_payable": {
        "encoding": "inplace",
        "label": "address payable",
        "numberOfBytes": "20"
      },
      "t_array(t_struct(Transfer)7932_storage)dyn_storage": {
        "base": "t_struct(Transfer)7932_storage",
        "encoding": "dynamic_array",
        "label": "struct CommonStructs.Transfer[]",
        "numberOfBytes": "32"
      },
      "t_array(t_uint256)15_storage": {
        "base": "t_uint256",
        "encoding": "inplace",
        "label": "uint256[15]",
        "numberOfBytes": "480"
      },
      "t_array(t_uint256)49_storage": {
        "base": "t_uint256",
        "encoding": "inplace",
        "label": "uint256[49]",
        "numberOfBytes": "1568"
      },
      "t_array(t_uint256)50_storage": {
        "base": "t_uint256",
        "encoding": "inplace",
        "label": "uint256[50]",
        "numberOfBytes": "1600"
      },
      "t_bool": {
        "encoding": "inplace",
        "label": "bool",
        "numberOfBytes": "1"
      },
      "t_bytes32": {
        "encoding": "inplace",
        "label": "bytes32",
        "numberOfBytes": "32"
      },
      "t_mapping(t_address,t_address)": {
        "encoding": "mapping",
        "key": "t_address",
        "label": "mapping(address => address)",
        "numberOfBytes": "32",
        "value": "t_address"
      },
      "t_mapping(t_address,t_bool)": {
        "encoding": "mapping",
        "key": "t_address",
        "label": "mapping(address => bool)",
        "numberOfBytes": "32",
        "value": "t_bool"
      },
      "t_mapping(t_bytes32,t_struct(RoleData)43_storage)": {
        "encoding": "mapping",
        "key": "t_bytes32",
        "label": "mapping(bytes32 => struct AccessControlUpgradeable.RoleData)",
        "numberOfBytes": "32",
        "value": "t_struct(RoleData)43_storage"
      },
      "t_mapping(t_uint256,t_struct(LockedTransfers)7949_storage)": {
        "encoding": "mapping",
        "key": "t_uint256",
        "label": "mapping(uint256 => struct CommonStructs.LockedTransfers)",
        "numberOfBytes": "32",
        "value": "t_struct(LockedTransfers)7949_storage"
      },
      "t_struct(LockedTransfers)7949_storage": {
        "encoding": "inplace",
        "label": "struct CommonStructs.LockedTransfers",
        "members": [
          {
            "astId": 7946,
            "contract": "contracts/networks/optimism/OPTIMISM_OptimismBridge.sol:OPTIMISM_OptimismBridge",
            "label": "transfers",
            "offset": 0,
            "slot": "0",
            "type": "t_array(t_struct(Transfer)7932_storage)dyn_storage"
          },
          {
            "astId": 7948,
            "contract": "contracts/networks/optimism/OPTIMISM_OptimismBridge.sol:OPTIMISM_OptimismBridge",
            "label": "endTimestamp",
            "offset": 0,
            "slot": "1",
            "type": "t_uint256"
          }
        ],
        "numberOfBytes": "64"
      },
      "t_struct(RoleData)43_storage": {
        "encoding": "inplace",
        "label": "struct AccessControlUpgradeable.RoleData",
        "members": [
          {
            "astId": 40,
            "contract": "contracts/networks/optimism/OPTIMISM_OptimismBridge.sol:OPTIMISM_OptimismBridge",
            "label": "members",
            "offset": 0,
            "slot": "0",
            "type": "t_mapping(t_address,t_bool)"
          },
          {
            "astId": 42,
            "contract": "contracts/networks/optimism/OPTIMISM_OptimismBridge.sol:OPTIMISM_OptimismBridge",
            "label": "adminRole",
            "offset": 0,
            "slot": "1",
            "type": "t_bytes32"
          }
        ],
        "numberOfBytes": "64"
      },
      "t_struct(Transfer)7932_storage": {
        "encoding": "inplace",
        "label": "struct CommonStructs.Transfer",
        "members": [
          {
            "astId": 7927,
            "contract": "contracts/networks/optimism/OPTIMISM_OptimismBridge.sol:OPTIMISM_OptimismBridge",
            "label": "tokenAddress",
            "offset": 0,
            "slot": "0",
            "type": "t_address"
          },
          {
            "astId": 7929,
            "contract": "contracts/networks/optimism/OPTIMISM_OptimismBridge.sol:OPTIMISM_OptimismBridge",
            "label": "toAddress",
            "offset": 0,
            "slot": "1",
            "type": "t_address"
          },
          {
            "astId": 7931,
            "contract": "contracts/networks/optimism/OPTIMISM_OptimismBridge.sol:OPTIMISM_OptimismBridge",
            "label": "amount",
            "offset": 0,
            "slot": "2",
            "type": "t_uint256"
          }
        ],
        "numberOfBytes": "96"
      },
      "t_uint256": {
        "encoding": "inplace",
        "label": "uint256",
        "numberOfBytes": "32"
      }
    }
  }
}