{
  "address": "0x37A715513f6DdEb9db9235f82dd823f5923791C4",
  "abi": [
    {
      "inputs": [
        {
          "components": [
            {
              "internalType": "address",
              "name": "sideBridgeAddress",
              "type": "address"
            },
            {
              "internalType": "address",
              "name": "adminAddress",
              "type": "address"
            },
            {
              "internalType": "address",
              "name": "relayAddress",
              "type": "address"
            },
            {
              "internalType": "address",
              "name": "wrappingTokenAddress",
              "type": "address"
            },
            {
              "internalType": "address[]",
              "name": "tokenThisAddresses",
              "type": "address[]"
            },
            {
              "internalType": "address[]",
              "name": "tokenSideAddresses",
              "type": "address[]"
            },
            {
              "internalType": "uint256",
              "name": "fee",
              "type": "uint256"
            },
            {
              "internalType": "address payable",
              "name": "feeRecipient",
              "type": "address"
            },
            {
              "internalType": "uint256",
              "name": "timeframeSeconds",
              "type": "uint256"
            },
            {
              "internalType": "uint256",
              "name": "lockTime",
              "type": "uint256"
            },
            {
              "internalType": "uint256",
              "name": "minSafetyBlocks",
              "type": "uint256"
            }
          ],
          "internalType": "struct CommonStructs.ConstructorArgs",
          "name": "args",
          "type": "tuple"
        },
        {
          "internalType": "address[]",
          "name": "initialValidators",
          "type": "address[]"
        },
        {
          "internalType": "address",
          "name": "validatorSetAddress_",
          "type": "address"
        },
        {
          "internalType": "bytes32",
          "name": "lastProcessedBlock_",
          "type": "bytes32"
        }
      ],
      "stateMutability": "nonpayable",
      "type": "constructor"
    },
    {
      "anonymous": false,
      "inputs": [
        {
          "indexed": false,
          "internalType": "address",
          "name": "account",
          "type": "address"
        }
      ],
      "name": "Paused",
      "type": "event"
    },
    {
      "anonymous": false,
      "inputs": [
        {
          "indexed": true,
          "internalType": "bytes32",
          "name": "role",
          "type": "bytes32"
        },
        {
          "indexed": true,
          "internalType": "bytes32",
          "name": "previousAdminRole",
          "type": "bytes32"
        },
        {
          "indexed": true,
          "internalType": "bytes32",
          "name": "newAdminRole",
          "type": "bytes32"
        }
      ],
      "name": "RoleAdminChanged",
      "type": "event"
    },
    {
      "anonymous": false,
      "inputs": [
        {
          "indexed": true,
          "internalType": "bytes32",
          "name": "role",
          "type": "bytes32"
        },
        {
          "indexed": true,
          "internalType": "address",
          "name": "account",
          "type": "address"
        },
        {
          "indexed": true,
          "internalType": "address",
          "name": "sender",
          "type": "address"
        }
      ],
      "name": "RoleGranted",
      "type": "event"
    },
    {
      "anonymous": false,
      "inputs": [
        {
          "indexed": true,
          "internalType": "bytes32",
          "name": "role",
          "type": "bytes32"
        },
        {
          "indexed": true,
          "internalType": "address",
          "name": "account",
          "type": "address"
        },
        {
          "indexed": true,
          "internalType": "address",
          "name": "sender",
          "type": "address"
        }
      ],
      "name": "RoleRevoked",
      "type": "event"
    },
    {
      "anonymous": false,
      "inputs": [
        {
          "indexed": true,
          "internalType": "uint256",
          "name": "eventId",
          "type": "uint256"
        },
        {
          "components": [
            {
              "internalType": "address",
              "name": "tokenAddress",
              "type": "address"
            },
            {
              "internalType": "address",
              "name": "toAddress",
              "type": "address"
            },
            {
              "internalType": "uint256",
              "name": "amount",
              "type": "uint256"
            }
          ],
          "indexed": false,
          "internalType": "struct CommonStructs.Transfer[]",
          "name": "queue",
          "type": "tuple[]"
        }
      ],
      "name": "Transfer",
      "type": "event"
    },
    {
      "anonymous": false,
      "inputs": [
        {
          "indexed": true,
          "internalType": "uint256",
          "name": "eventId",
          "type": "uint256"
        }
      ],
      "name": "TransferFinish",
      "type": "event"
    },
    {
      "anonymous": false,
      "inputs": [
        {
          "indexed": true,
          "internalType": "uint256",
          "name": "eventId",
          "type": "uint256"
        }
      ],
      "name": "TransferSubmit",
      "type": "event"
    },
    {
      "anonymous": false,
      "inputs": [
        {
          "indexed": false,
          "internalType": "address",
          "name": "account",
          "type": "address"
        }
      ],
      "name": "Unpaused",
      "type": "event"
    },
    {
      "anonymous": false,
      "inputs": [
        {
          "indexed": true,
          "internalType": "address",
          "name": "from",
          "type": "address"
        },
        {
          "indexed": false,
          "internalType": "address",
          "name": "tokenFrom",
          "type": "address"
        },
        {
          "indexed": false,
          "internalType": "address",
          "name": "tokentTo",
          "type": "address"
        },
        {
          "indexed": false,
          "internalType": "uint256",
          "name": "eventId",
          "type": "uint256"
        },
        {
          "indexed": false,
          "internalType": "uint256",
          "name": "feeAmount",
          "type": "uint256"
        }
      ],
      "name": "Withdraw",
      "type": "event"
    },
    {
      "inputs": [],
      "name": "ADMIN_ROLE",
      "outputs": [
        {
          "internalType": "bytes32",
          "name": "",
          "type": "bytes32"
        }
      ],
      "stateMutability": "view",
      "type": "function"
    },
    {
      "inputs": [],
      "name": "DEFAULT_ADMIN_ROLE",
      "outputs": [
        {
          "internalType": "bytes32",
          "name": "",
          "type": "bytes32"
        }
      ],
      "stateMutability": "view",
      "type": "function"
    },
    {
      "inputs": [],
      "name": "RELAY_ROLE",
      "outputs": [
        {
          "internalType": "bytes32",
          "name": "",
          "type": "bytes32"
        }
      ],
      "stateMutability": "view",
      "type": "function"
    },
    {
      "inputs": [
        {
          "internalType": "uint256",
          "name": "fee_",
          "type": "uint256"
        }
      ],
      "name": "changeFee",
      "outputs": [],
      "stateMutability": "nonpayable",
      "type": "function"
    },
    {
      "inputs": [
        {
          "internalType": "address payable",
          "name": "feeRecipient_",
          "type": "address"
        }
      ],
      "name": "changeFeeRecipient",
      "outputs": [],
      "stateMutability": "nonpayable",
      "type": "function"
    },
    {
      "inputs": [
        {
          "internalType": "uint256",
          "name": "lockTime_",
          "type": "uint256"
        }
      ],
      "name": "changeLockTime",
      "outputs": [],
      "stateMutability": "nonpayable",
      "type": "function"
    },
    {
      "inputs": [
        {
          "internalType": "uint256",
          "name": "minSafetyBlocks_",
          "type": "uint256"
        }
      ],
      "name": "changeMinSafetyBlocks",
      "outputs": [],
      "stateMutability": "nonpayable",
      "type": "function"
    },
    {
      "inputs": [
        {
          "internalType": "uint256",
          "name": "timeframeSeconds_",
          "type": "uint256"
        }
      ],
      "name": "changeTimeframeSeconds",
      "outputs": [],
      "stateMutability": "nonpayable",
      "type": "function"
    },
    {
      "inputs": [],
      "name": "fee",
      "outputs": [
        {
          "internalType": "uint256",
          "name": "",
          "type": "uint256"
        }
      ],
      "stateMutability": "view",
      "type": "function"
    },
    {
      "inputs": [
        {
          "internalType": "uint256",
          "name": "eventId",
          "type": "uint256"
        }
      ],
      "name": "getLockedTransfers",
      "outputs": [
        {
          "components": [
            {
              "components": [
                {
                  "internalType": "address",
                  "name": "tokenAddress",
                  "type": "address"
                },
                {
                  "internalType": "address",
                  "name": "toAddress",
                  "type": "address"
                },
                {
                  "internalType": "uint256",
                  "name": "amount",
                  "type": "uint256"
                }
              ],
              "internalType": "struct CommonStructs.Transfer[]",
              "name": "transfers",
              "type": "tuple[]"
            },
            {
              "internalType": "uint256",
              "name": "endTimestamp",
              "type": "uint256"
            }
          ],
          "internalType": "struct CommonStructs.LockedTransfers",
          "name": "",
          "type": "tuple"
        }
      ],
      "stateMutability": "view",
      "type": "function"
    },
    {
      "inputs": [
        {
          "internalType": "bytes32",
          "name": "role",
          "type": "bytes32"
        }
      ],
      "name": "getRoleAdmin",
      "outputs": [
        {
          "internalType": "bytes32",
          "name": "",
          "type": "bytes32"
        }
      ],
      "stateMutability": "view",
      "type": "function"
    },
    {
      "inputs": [],
      "name": "getValidatorSet",
      "outputs": [
        {
          "internalType": "address[]",
          "name": "",
          "type": "address[]"
        }
      ],
      "stateMutability": "view",
      "type": "function"
    },
    {
      "inputs": [
        {
          "internalType": "bytes32",
          "name": "role",
          "type": "bytes32"
        },
        {
          "internalType": "address",
          "name": "account",
          "type": "address"
        }
      ],
      "name": "grantRole",
      "outputs": [],
      "stateMutability": "nonpayable",
      "type": "function"
    },
    {
      "inputs": [
        {
          "internalType": "bytes32",
          "name": "role",
          "type": "bytes32"
        },
        {
          "internalType": "address",
          "name": "account",
          "type": "address"
        }
      ],
      "name": "hasRole",
      "outputs": [
        {
          "internalType": "bool",
          "name": "",
          "type": "bool"
        }
      ],
      "stateMutability": "view",
      "type": "function"
    },
    {
      "inputs": [],
      "name": "inputEventId",
      "outputs": [
        {
          "internalType": "uint256",
          "name": "",
          "type": "uint256"
        }
      ],
      "stateMutability": "view",
      "type": "function"
    },
    {
      "inputs": [],
      "name": "lastProcessedBlock",
      "outputs": [
        {
          "internalType": "bytes32",
          "name": "",
          "type": "bytes32"
        }
      ],
      "stateMutability": "view",
      "type": "function"
    },
    {
      "inputs": [],
      "name": "lockTime",
      "outputs": [
        {
          "internalType": "uint256",
          "name": "",
          "type": "uint256"
        }
      ],
      "stateMutability": "view",
      "type": "function"
    },
    {
      "inputs": [
        {
          "internalType": "uint256",
          "name": "",
          "type": "uint256"
        }
      ],
      "name": "lockedTransfers",
      "outputs": [
        {
          "internalType": "uint256",
          "name": "endTimestamp",
          "type": "uint256"
        }
      ],
      "stateMutability": "view",
      "type": "function"
    },
    {
      "inputs": [],
      "name": "minSafetyBlocks",
      "outputs": [
        {
          "internalType": "uint256",
          "name": "",
          "type": "uint256"
        }
      ],
      "stateMutability": "view",
      "type": "function"
    },
    {
      "inputs": [],
      "name": "oldestLockedEventId",
      "outputs": [
        {
          "internalType": "uint256",
          "name": "",
          "type": "uint256"
        }
      ],
      "stateMutability": "view",
      "type": "function"
    },
    {
      "inputs": [],
      "name": "pause",
      "outputs": [],
      "stateMutability": "nonpayable",
      "type": "function"
    },
    {
      "inputs": [],
      "name": "paused",
      "outputs": [
        {
          "internalType": "bool",
          "name": "",
          "type": "bool"
        }
      ],
      "stateMutability": "view",
      "type": "function"
    },
    {
      "inputs": [
        {
          "internalType": "uint256",
          "name": "eventId",
          "type": "uint256"
        }
      ],
      "name": "removeLockedTransfers",
      "outputs": [],
      "stateMutability": "nonpayable",
      "type": "function"
    },
    {
      "inputs": [
        {
          "internalType": "bytes32",
          "name": "role",
          "type": "bytes32"
        },
        {
          "internalType": "address",
          "name": "account",
          "type": "address"
        }
      ],
      "name": "renounceRole",
      "outputs": [],
      "stateMutability": "nonpayable",
      "type": "function"
    },
    {
      "inputs": [
        {
          "internalType": "bytes32",
          "name": "role",
          "type": "bytes32"
        },
        {
          "internalType": "address",
          "name": "account",
          "type": "address"
        }
      ],
      "name": "revokeRole",
      "outputs": [],
      "stateMutability": "nonpayable",
      "type": "function"
    },
    {
      "inputs": [],
      "name": "sideBridgeAddress",
      "outputs": [
        {
          "internalType": "address",
          "name": "",
          "type": "address"
        }
      ],
      "stateMutability": "view",
      "type": "function"
    },
    {
      "inputs": [
        {
          "components": [
            {
              "components": [
                {
                  "internalType": "bytes3",
                  "name": "p0Seal",
                  "type": "bytes3"
                },
                {
                  "internalType": "bytes3",
                  "name": "p0Bare",
                  "type": "bytes3"
                },
                {
                  "internalType": "bytes32",
                  "name": "parentHash",
                  "type": "bytes32"
                },
                {
                  "internalType": "bytes",
                  "name": "p2",
                  "type": "bytes"
                },
                {
                  "internalType": "bytes32",
                  "name": "receiptHash",
                  "type": "bytes32"
                },
                {
                  "internalType": "bytes",
                  "name": "p3",
                  "type": "bytes"
                },
                {
                  "internalType": "bytes4",
                  "name": "step",
                  "type": "bytes4"
                },
                {
                  "internalType": "bytes",
                  "name": "signature",
                  "type": "bytes"
                },
                {
                  "internalType": "uint64",
                  "name": "finalizedVs",
                  "type": "uint64"
                }
              ],
              "internalType": "struct CheckAura.BlockAura[]",
              "name": "blocks",
              "type": "tuple[]"
            },
            {
              "components": [
                {
                  "internalType": "bytes[]",
                  "name": "receiptProof",
                  "type": "bytes[]"
                },
                {
                  "internalType": "uint256",
                  "name": "eventId",
                  "type": "uint256"
                },
                {
                  "components": [
                    {
                      "internalType": "address",
                      "name": "tokenAddress",
                      "type": "address"
                    },
                    {
                      "internalType": "address",
                      "name": "toAddress",
                      "type": "address"
                    },
                    {
                      "internalType": "uint256",
                      "name": "amount",
                      "type": "uint256"
                    }
                  ],
                  "internalType": "struct CommonStructs.Transfer[]",
                  "name": "transfers",
                  "type": "tuple[]"
                }
              ],
              "internalType": "struct CommonStructs.TransferProof",
              "name": "transfer",
              "type": "tuple"
            },
            {
              "components": [
                {
                  "internalType": "bytes[]",
                  "name": "receiptProof",
                  "type": "bytes[]"
                },
                {
                  "internalType": "address",
                  "name": "deltaAddress",
                  "type": "address"
                },
                {
                  "internalType": "int64",
                  "name": "deltaIndex",
                  "type": "int64"
                }
              ],
              "internalType": "struct CheckAura.ValidatorSetProof[]",
              "name": "vsChanges",
              "type": "tuple[]"
            },
            {
              "internalType": "uint64",
              "name": "transferEventBlock",
              "type": "uint64"
            }
          ],
          "internalType": "struct CheckAura.AuraProof",
          "name": "auraProof",
          "type": "tuple"
        }
      ],
      "name": "submitTransferAura",
      "outputs": [],
      "stateMutability": "nonpayable",
      "type": "function"
    },
    {
      "inputs": [
        {
          "internalType": "bytes4",
          "name": "interfaceId",
          "type": "bytes4"
        }
      ],
      "name": "supportsInterface",
      "outputs": [
        {
          "internalType": "bool",
          "name": "",
          "type": "bool"
        }
      ],
      "stateMutability": "view",
      "type": "function"
    },
    {
      "inputs": [],
      "name": "timeframeSeconds",
      "outputs": [
        {
          "internalType": "uint256",
          "name": "",
          "type": "uint256"
        }
      ],
      "stateMutability": "view",
      "type": "function"
    },
    {
      "inputs": [
        {
          "internalType": "address",
          "name": "",
          "type": "address"
        }
      ],
      "name": "tokenAddresses",
      "outputs": [
        {
          "internalType": "address",
          "name": "",
          "type": "address"
        }
      ],
      "stateMutability": "view",
      "type": "function"
    },
    {
      "inputs": [
        {
          "internalType": "address",
          "name": "tokenThisAddress",
          "type": "address"
        },
        {
          "internalType": "address",
          "name": "tokenSideAddress",
          "type": "address"
        }
      ],
      "name": "tokensAdd",
      "outputs": [],
      "stateMutability": "nonpayable",
      "type": "function"
    },
    {
      "inputs": [
        {
          "internalType": "address[]",
          "name": "tokenThisAddresses",
          "type": "address[]"
        },
        {
          "internalType": "address[]",
          "name": "tokenSideAddresses",
          "type": "address[]"
        }
      ],
      "name": "tokensAddBatch",
      "outputs": [],
      "stateMutability": "nonpayable",
      "type": "function"
    },
    {
      "inputs": [
        {
          "internalType": "address",
          "name": "tokenThisAddress",
          "type": "address"
        }
      ],
      "name": "tokensRemove",
      "outputs": [],
      "stateMutability": "nonpayable",
      "type": "function"
    },
    {
      "inputs": [
        {
          "internalType": "address[]",
          "name": "tokenThisAddresses",
          "type": "address[]"
        }
      ],
      "name": "tokensRemoveBatch",
      "outputs": [],
      "stateMutability": "nonpayable",
      "type": "function"
    },
    {
      "inputs": [
        {
          "internalType": "uint256",
          "name": "eventId",
          "type": "uint256"
        }
      ],
      "name": "unlockTransfers",
      "outputs": [],
      "stateMutability": "nonpayable",
      "type": "function"
    },
    {
      "inputs": [],
      "name": "unlockTransfersBatch",
      "outputs": [],
      "stateMutability": "nonpayable",
      "type": "function"
    },
    {
      "inputs": [],
      "name": "unpause",
      "outputs": [],
      "stateMutability": "nonpayable",
      "type": "function"
    },
    {
      "inputs": [
        {
          "internalType": "uint256",
          "name": "",
          "type": "uint256"
        }
      ],
      "name": "validatorSet",
      "outputs": [
        {
          "internalType": "address",
          "name": "",
          "type": "address"
        }
      ],
      "stateMutability": "view",
      "type": "function"
    },
    {
      "inputs": [
        {
          "internalType": "address",
          "name": "tokenThisAddress",
          "type": "address"
        },
        {
          "internalType": "address",
          "name": "toAddress",
          "type": "address"
        },
        {
          "internalType": "uint256",
          "name": "amount",
          "type": "uint256"
        },
        {
          "internalType": "bool",
          "name": "unwrapSide",
          "type": "bool"
        }
      ],
      "name": "withdraw",
      "outputs": [],
      "stateMutability": "payable",
      "type": "function"
    },
    {
      "inputs": [
        {
          "internalType": "address",
          "name": "toAddress",
          "type": "address"
        }
      ],
      "name": "wrapWithdraw",
      "outputs": [],
      "stateMutability": "payable",
      "type": "function"
    },
    {
      "inputs": [],
      "name": "wrapperAddress",
      "outputs": [
        {
          "internalType": "address",
          "name": "",
          "type": "address"
        }
      ],
      "stateMutability": "view",
      "type": "function"
    },
    {
      "stateMutability": "payable",
      "type": "receive"
    }
  ],
  "transactionHash": "0xdf9ace006a450b209d54ea7207feb105ee0536ded5d67ad20afe85268b7df77b",
  "args": [
    {
      "sideBridgeAddress": "0xbE9dF3849853D47C1a4cAba6C14c163E295F6093",
      "adminAddress": "0x295C2707319ad4BecA6b5bb4086617fD6F240CfE",
      "relayAddress": "0x295C2707319ad4BecA6b5bb4086617fD6F240CfE",
      "wrappingTokenAddress": "0xc778417E063141139Fce010982780140Aa0cD5Ab",
      "tokenThisAddresses": [
        "0xd390d1bFd4AAeCd1635da5dDa419d388a7CF8766",
        "0x0000000000000000000000000000000000000000",
        "0xc778417E063141139Fce010982780140Aa0cD5Ab"
      ],
      "tokenSideAddresses": [
        "0x37A715513f6DdEb9db9235f82dd823f5923791C4",
        "0xd390d1bFd4AAeCd1635da5dDa419d388a7CF8766",
        "0xE0b5DfA73BF1299e131000d5279a871c0ae1c17e"
      ],
      "fee": 10,
      "feeRecipient": "0x295C2707319ad4BecA6b5bb4086617fD6F240CfE",
      "timeframeSeconds": 1,
      "lockTime": 1,
      "minSafetyBlocks": 10
    },
    [
      "0x30C587199dfC2a82Cf6d087827A472aEebb5063e",
      "0xee02ACc1Ae6919eBB8ef3424b443a0F2718C255d",
      "0xe5c2feB69dF22E3a755e5f10FECc677DfBDAD8C2",
      "0xf4B075fDF227219fF2f72fE87641aDCdFDc019BC",
      "0xc1E639642a242396C420C4880ABB3599Fb69d242",
      "0x4137e5c2D3a17E931F96Ef4eAe7F34985d4e6FED",
      "0xe58647A6dB76F3e7eaA6c2dB86239E73e99ebE03"
    ],
    "0x0000000000000000000000000000000000000F00",
    "0xb861655608f605de0d3f9754139e879e3b3ce1fb590ac66cbdc1e8af66b4b403"
  ],
  "numDeployments": 1,
  "solcInputHash": "549d25a6050cc7ed47b2c185cce5290b",
  "bytecode": "0x608060405260016004556001600e553480156200001b57600080fd5b50604051620045a7380380620045a78339810160408190526200003e91620005ab565b6001805460ff1916905582846200006060003364010000000062000243810204565b6200009f7f077a1d526a4ce8a773632ab13b4fbbf1fcc954c3dab26cd27ea0e2a6750da5d7826040015162000243640100000000026401000000009004565b620000de7fa49807205ce4d355092ef5a8a18f56e8913cf4a201fbe287825b095693c21775826020015162000243640100000000026401000000009004565b6200010181608001518260a001516200025c640100000000026401000000009004565b606081015160068054600160a060020a03928316600160a060020a03199182161790915582516009805491841691831691909117905560c083015160075560e083015160088054919093169116179055610140810151600a55610100810151600b556101200151600c558051620001ff576040517f08c379a000000000000000000000000000000000000000000000000000000000815260206004820152603260248201527f4c656e677468206f66205f696e697469616c56616c696461746f7273206d757360448201527f7420626520626967676572207468616e2030000000000000000000000000000060648201526084015b60405180910390fd5b80516200021490601190602084019062000464565b505060128054600160a060020a031916600160a060020a03939093169290921790915560105550620007fb9050565b6200025882826401000000006200039b810204565b5050565b8051825114620002ef576040517f08c379a000000000000000000000000000000000000000000000000000000000815260206004820152603f60248201527f73697a6573206f6620746f6b656e5468697341646472657373657320616e642060448201527f746f6b656e53696465416464726573736573206d7573742062652073616d65006064820152608401620001f6565b815160005b81811015620003955782818151811062000312576200031262000784565b60200260200101516005600086848151811062000333576200033362000784565b6020026020010151600160a060020a0316600160a060020a0316815260200190815260200160002060006101000a815481600160a060020a030219169083600160a060020a0316021790555080806200038c9062000741565b915050620002f4565b50505050565b620003b0828264010000000062000437810204565b6200025857600082815260208181526040808320600160a060020a03851684529091529020805460ff19166001179055620003f364010000000062000460810204565b600160a060020a031681600160a060020a0316837f2f8788117e7eff1d82e926ec794901d17c78024a50270940304540a733656f0d60405160405180910390a45050565b600091825260208281526040808420600160a060020a0393909316845291905290205460ff1690565b3390565b828054828255906000526020600020908101928215620004bc579160200282015b82811115620004bc5782518254600160a060020a031916600160a060020a0390911617825560209092019160019091019062000485565b50620004ca929150620004ce565b5090565b5b80821115620004ca5760008155600101620004cf565b8051620004f281620007e2565b919050565b600082601f8301126200050957600080fd5b815160206001604060020a0380831115620005285762000528620007b3565b818302604051601f19603f830116810181811084821117156200054f576200054f620007b3565b604052848152838101925086840182880185018910156200056f57600080fd5b600092505b858310156200059f5780516200058a81620007e2565b84529284019260019290920191840162000574565b50979650505050505050565b60008060008060808587031215620005c257600080fd5b84516001604060020a0380821115620005da57600080fd5b908601906101608289031215620005f057600080fd5b620005fa62000715565b6200060583620004e5565b81526200061560208401620004e5565b60208201526200062860408401620004e5565b60408201526200063b60608401620004e5565b60608201526080830151828111156200065357600080fd5b620006618a828601620004f7565b60808301525060a0830151828111156200067a57600080fd5b620006888a828601620004f7565b60a08301525060c083015160c0820152620006a660e08401620004e5565b60e0820152610100838101519082015261012080840151908201526101409283015192810192909252602087015191955080821115620006e557600080fd5b50620006f487828801620004f7565b9350506200070560408601620004e5565b6060959095015193969295505050565b60405161016081016001604060020a03811182821017156200073b576200073b620007b3565b60405290565b60006000198214156200077d577f4e487b7100000000000000000000000000000000000000000000000000000000600052601160045260246000fd5b5060010190565b7f4e487b7100000000000000000000000000000000000000000000000000000000600052603260045260246000fd5b7f4e487b7100000000000000000000000000000000000000000000000000000000600052604160045260246000fd5b600160a060020a0381168114620007f857600080fd5b50565b613d9c806200080b6000396000f3fe60806040526004361061024e5760003560e060020a900480638ac1f86f1161013d578063ba8bbbe0116100ba578063e31be0871161007e578063e31be087146106be578063e4e6bba6146106eb578063e64808f3146106fe578063f33fe10f1461071e578063f862b7eb1461073e578063fd5d2ef31461075e57600080fd5b8063ba8bbbe01461063a578063baeebe7514610650578063cf33125014610666578063d547741f14610688578063ddca3f43146106a857600080fd5b8063934785b711610101578063934785b7146105a657806396cf5227146105b957806399b5bb64146105d9578063a217fddf146105ef578063b6d3385e1461060457600080fd5b80638ac1f86f1461051b5780638e5df9c7146105305780638ee112751461055057806391d1485414610570578063924cf6e01461059057600080fd5b80633f4ba83a116101cb5780636a1db1bf1161018f5780636a1db1bf1461046c57806375b238fc1461048c5780637df8b802146104ae5780638456cb59146104e6578063853890ae146104fb57600080fd5b80633f4ba83a146103cf57806342180fb8146103e45780634a1856de146104045780635249a705146104345780635c975abb1461045457600080fd5b8063248a9ca311610212578063248a9ca3146103295780632f2ff15d14610359578063331a891a1461037957806333de61d21461039957806336568abe146103af57600080fd5b806301ffc9a71461025a578063044218231461028f57806309fce356146102d15780630d668087146102f3578063236040711461030957600080fd5b3661025557005b600080fd5b34801561026657600080fd5b5061027a610275366004613282565b61077e565b60405190151581526020015b60405180910390f35b34801561029b57600080fd5b506102c37f077a1d526a4ce8a773632ab13b4fbbf1fcc954c3dab26cd27ea0e2a6750da5d781565b604051908152602001610286565b3480156102dd57600080fd5b506102f16102ec3660046131c3565b6107e7565b005b3480156102ff57600080fd5b506102c3600c5481565b34801561031557600080fd5b506102f16103243660046130e5565b61080f565b34801561033557600080fd5b506102c3610344366004613244565b60009081526020819052604090206001015490565b34801561036557600080fd5b506102f161037436600461325d565b61084b565b34801561038557600080fd5b506102f1610394366004613244565b610871565b3480156103a557600080fd5b506102c360105481565b3480156103bb57600080fd5b506102f16103ca36600461325d565b6109af565b3480156103db57600080fd5b506102f1610a3a565b3480156103f057600080fd5b506102f16103ff366004613244565b610a5e565b34801561041057600080fd5b506102c361041f366004613244565b60036020526000908152604090206001015481565b34801561044057600080fd5b506102f161044f36600461318e565b610a7d565b34801561046057600080fd5b5060015460ff1661027a565b34801561047857600080fd5b506102f1610487366004613244565b610b02565b34801561049857600080fd5b506102c3600080516020613d4783398151915281565b3480156104ba57600080fd5b506006546104ce90600160a060020a031681565b604051600160a060020a039091168152602001610286565b3480156104f257600080fd5b506102f1610b21565b34801561050757600080fd5b506102f1610516366004613102565b610b42565b34801561052757600080fd5b506102f1610b8a565b34801561053c57600080fd5b506102f161054b3660046130e5565b610ce2565b34801561055c57600080fd5b506102f161056b36600461329d565b610d23565b34801561057c57600080fd5b5061027a61058b36600461325d565b610df3565b34801561059c57600080fd5b506102c3600a5481565b6102f16105b436600461313b565b610e1c565b3480156105c557600080fd5b506102f16105d4366004613244565b6111c6565b3480156105e557600080fd5b506102c3600d5481565b3480156105fb57600080fd5b506102c3600081565b34801561061057600080fd5b506104ce61061f3660046130e5565b600560205260009081526040902054600160a060020a031681565b34801561064657600080fd5b506102c360045481565b34801561065c57600080fd5b506102c3600b5481565b34801561067257600080fd5b5061067b6111e5565b6040516102869190613866565b34801561069457600080fd5b506102f16106a336600461325d565b611247565b3480156106b457600080fd5b506102c360075481565b3480156106ca57600080fd5b506106de6106d9366004613244565b61126d565b60405161028691906139a0565b6102f16106f93660046130e5565b611329565b34801561070a57600080fd5b506104ce610719366004613244565b6115d1565b34801561072a57600080fd5b506009546104ce90600160a060020a031681565b34801561074a57600080fd5b506102f1610759366004613244565b6115fb565b34801561076a57600080fd5b506102f1610779366004613244565b61182e565b6000600160e060020a031982167f7965db0b0000000000000000000000000000000000000000000000000000000014806107e157507f01ffc9a700000000000000000000000000000000000000000000000000000000600160e060020a03198316145b92915050565b600080516020613d47833981519152610800813361184d565b61080a83836118b4565b505050565b600080516020613d47833981519152610828813361184d565b5060088054600160a060020a031916600160a060020a0392909216919091179055565b600082815260208190526040902060010154610867813361184d565b61080a83836119ca565b600080516020613d4783398151915261088a813361184d565b60015460ff166108e45760405160e560020a62461bcd02815260206004820152601460248201527f5061757361626c653a206e6f742070617573656400000000000000000000000060448201526064015b60405180910390fd5b60045482101561095f5760405160e560020a62461bcd02815260206004820152602660248201527f6576656e744964206d757374206265203e3d206f6c646573744c6f636b65644560448201527f76656e744964000000000000000000000000000000000000000000000000000060648201526084016108db565b600082815260036020526040902060010154156109ab5760008281526003602052604081209061098f8282612cc0565b50600060019190910155816109a381613c77565b92505061095f565b5050565b600160a060020a0381163314610a305760405160e560020a62461bcd02815260206004820152602f60248201527f416363657373436f6e74726f6c3a2063616e206f6e6c792072656e6f756e636560448201527f20726f6c657320666f722073656c66000000000000000000000000000000000060648201526084016108db565b6109ab8282611a4e565b600080516020613d47833981519152610a53813361184d565b610a5b611ab3565b50565b600080516020613d47833981519152610a77813361184d565b50600b55565b600080516020613d47833981519152610a96813361184d565b815160005b81811015610afc5760056000858381518110610ab957610ab9613cf1565b602090810291909101810151600160a060020a031682528101919091526040016000208054600160a060020a031916905580610af481613c77565b915050610a9b565b50505050565b600080516020613d47833981519152610b1b813361184d565b50600755565b600080516020613d47833981519152610b3a813361184d565b610a5b611b52565b600080516020613d47833981519152610b5b813361184d565b50600160a060020a0391821660009081526005602052604090208054600160a060020a03191691909216179055565b60015460ff1615610bb05760405160e560020a62461bcd0281526004016108db90613969565b6004545b6000818152600360209081526040808320815181546060948102820185018452928101838152909391928492849190879085015b82821015610c4257600084815260209081902060408051606081018252600386029092018054600160a060020a03908116845260018083015490911684860152600290910154918301919091529083529092019101610be8565b5050505081526020016001820154815250509050806020015160001480610c6c5750428160200151115b15610c775750600455565b8051610c8290611bab565b600082815260036020526040812090610c9b8282612cc0565b50600060019190910181905560405183917f78ff9b3176bb0d6421590f3816e75cb15a9ffa2b7a1a028f40a3f4e029eb39f291a25080610cda81613c77565b915050610bb4565b600080516020613d47833981519152610cfb813361184d565b50600160a060020a031660009081526005602052604090208054600160a060020a0319169055565b7f077a1d526a4ce8a773632ab13b4fbbf1fcc954c3dab26cd27ea0e2a6750da5d7610d4e813361184d565b60015460ff1615610d745760405160e560020a62461bcd0281526004016108db90613969565b60208083015101516040517f196c47048e38df7a4fe6e581c8f4f2e2ba67ac0dd45b90da756e97bd61d9dd3b90600090a2610db6826020015160200151611e3f565b600a54600954601254610dd99285929091600160a060020a039182169116611ea4565b6109ab8260200151604001518360200151602001516121e0565b600091825260208281526040808420600160a060020a0393909316845291905290205460ff1690565b60008115610eb1576000805260056020527f05b8ccbb9d4d8fb16ea74ce3c29a41f1b461fbdaff4714a0d9a8eb05499746bc54600160a060020a03868116911614610eac5760405160e560020a62461bcd02815260206004820152601f60248201527f546f6b656e206e6f7420706f696e7420746f206e617469766520746f6b656e0060448201526064016108db565b610f1d565b50600160a060020a038085166000908152600560205260409020541680610f1d5760405160e560020a62461bcd02815260206004820152601560248201527f556e6b6e6f776e20746f6b656e2061646472657373000000000000000000000060448201526064016108db565b6007543414610f715760405160e560020a62461bcd02815260206004820152601160248201527f53656e742076616c756520213d2066656500000000000000000000000000000060448201526064016108db565b600854604051600160a060020a03909116903480156108fc02916000818181858888f19350505050158015610faa573d6000803e3d6000fd5b506040517f23b872dd00000000000000000000000000000000000000000000000000000000815233600482015230602482015260448101849052600160a060020a038616906323b872dd90606401602060405180830381600087803b15801561101257600080fd5b505af1158015611026573d6000803e3d6000fd5b505050506040513d601f19601f8201168201806040525081019061104a9190613227565b6110995760405160e560020a62461bcd02815260206004820152601360248201527f4661696c207472616e7366657220636f696e730000000000000000000000000060448201526064016108db565b6040805160608082018352600160a060020a0384811680845288821660208086019182528587018a815260028054600181018255600091909152965160039097027f405787fa12a823e0f2b7631cc41b3ba8828b3321ca811111fa75cd3aa3bb5ace81018054988716600160a060020a0319998a1617905592517f405787fa12a823e0f2b7631cc41b3ba8828b3321ca811111fa75cd3aa3bb5acf84018054918716919098161790965594517f405787fa12a823e0f2b7631cc41b3ba8828b3321ca811111fa75cd3aa3bb5ad090910155600e546007548651938c168452948301919091529381019390935282015233907ffbde797d201c681b91056529119e0b02407c7bb96a4a2c75c01fc9667232c8db9060800160405180910390a26111bf6122a3565b5050505050565b600080516020613d478339815191526111df813361184d565b50600c55565b6060601180548060200260200160405190810160405280929190818152602001828054801561123d57602002820191906000526020600020905b8154600160a060020a0316815260019091019060200180831161121f575b5050505050905090565b600082815260208190526040902060010154611263813361184d565b61080a8383611a4e565b6040805180820190915260608152600060208201526000828152600360209081526040808320815181546060948102820185018452928101838152909491938593919285929185015b8282101561131057600084815260209081902060408051606081018252600386029092018054600160a060020a039081168452600180830154909116848601526002909101549183019190915290835290920191016112b6565b5050505081526020016001820154815250509050919050565b600654600160a060020a0390811660009081526005602052604090205416806113975760405160e560020a62461bcd02815260206004820152601560248201527f556e6b6e6f776e20746f6b656e2061646472657373000000000000000000000060448201526064016108db565b60075434116113eb5760405160e560020a62461bcd02815260206004820152601060248201527f53656e742076616c7565203c206665650000000000000000000000000000000060448201526064016108db565b600854600754604051600160a060020a039092169181156108fc0291906000818181858888f19350505050158015611427573d6000803e3d6000fd5b506000600754346114389190613bcb565b9050600660009054906101000a9004600160a060020a0316600160a060020a031663d0e30db0826040518263ffffffff1660e060020a0281526004016000604051808303818588803b15801561148d57600080fd5b505af11580156114a1573d6000803e3d6000fd5b50506040805160608082018352600160a060020a038881168084528a821660208086019182528587018b815260028054600181018255600091909152965160039097027f405787fa12a823e0f2b7631cc41b3ba8828b3321ca811111fa75cd3aa3bb5ace81018054988716600160a060020a0319998a1617905592517f405787fa12a823e0f2b7631cc41b3ba8828b3321ca811111fa75cd3aa3bb5acf84018054918716919098161790965594517f405787fa12a823e0f2b7631cc41b3ba8828b3321ca811111fa75cd3aa3bb5ad090910155600654600e54600754875192909416825294810191909152938401929092528201523393507ffbde797d201c681b91056529119e0b02407c7bb96a4a2c75c01fc9667232c8db9250608001905060405180910390a261080a6122a3565b601181815481106115e157600080fd5b600091825260209091200154600160a060020a0316905081565b60015460ff16156116215760405160e560020a62461bcd0281526004016108db90613969565b60045481146116755760405160e560020a62461bcd02815260206004820152601c60248201527f63616e20756e6c6f636b206f6e6c79206f6c64657374206576656e740000000060448201526064016108db565b6000818152600360209081526040808320815181546060948102820185018452928101838152909391928492849190879085015b8282101561170357600084815260209081902060408051606081018252600386029092018054600160a060020a039081168452600180830154909116848601526002909101549183019190915290835290920191016116a9565b5050505081526020016001820154815250509050600081602001511161176e5760405160e560020a62461bcd02815260206004820181905260248201527f6e6f206c6f636b6564207472616e73666572732077697468207468697320696460448201526064016108db565b428160200151106117c45760405160e560020a62461bcd02815260206004820152601b60248201527f6c6f636b54696d6520686173206e6f742079657420706173736564000000000060448201526064016108db565b80516117cf90611bab565b6000828152600360205260408120906117e88282612cc0565b50600060019190910181905560405183917f78ff9b3176bb0d6421590f3816e75cb15a9ffa2b7a1a028f40a3f4e029eb39f291a2611827826001613a97565b6004555050565b600080516020613d47833981519152611847813361184d565b50600a55565b6118578282610df3565b6109ab5761186f81600160a060020a0316601461231b565b61187a83602061231b565b60405160200161188b9291906137e5565b60408051601f198184030181529082905260e560020a62461bcd0282526108db91600401613936565b805182511461192e5760405160e560020a62461bcd02815260206004820152603f60248201527f73697a6573206f6620746f6b656e5468697341646472657373657320616e642060448201527f746f6b656e53696465416464726573736573206d7573742062652073616d650060648201526084016108db565b815160005b81811015610afc5782818151811061194d5761194d613cf1565b60200260200101516005600086848151811061196b5761196b613cf1565b6020026020010151600160a060020a0316600160a060020a0316815260200190815260200160002060006101000a815481600160a060020a030219169083600160a060020a0316021790555080806119c290613c77565b915050611933565b6119d48282610df3565b6109ab57600082815260208181526040808320600160a060020a03851684529091529020805460ff19166001179055611a0a3390565b600160a060020a031681600160a060020a0316837f2f8788117e7eff1d82e926ec794901d17c78024a50270940304540a733656f0d60405160405180910390a45050565b611a588282610df3565b156109ab57600082815260208181526040808320600160a060020a0385168085529252808320805460ff1916905551339285917ff6391f5c32d9c69d2a47ea670b442974b53935d1edc7fd64eb21e047a839171b9190a45050565b60015460ff16611b085760405160e560020a62461bcd02815260206004820152601460248201527f5061757361626c653a206e6f742070617573656400000000000000000000000060448201526064016108db565b6001805460ff191690557f5db9ee0a495bf2e6ff9c91a7834c1ba4fdd244a5e8aa4e537bd38aeae4b073aa335b604051600160a060020a03909116815260200160405180910390a1565b60015460ff1615611b785760405160e560020a62461bcd0281526004016108db90613969565b6001805460ff1916811790557f62e78cea01bee320cd4e420270b5ea74000d11b0c9f74754ebdbfc544b05a25833611b35565b60005b81518110156109ab576000600160a060020a0316828281518110611bd457611bd4613cf1565b602002602001015160000151600160a060020a03161415611cf0576006548251600160a060020a0390911690632e1a7d4d90849084908110611c1857611c18613cf1565b6020026020010151604001516040518263ffffffff1660e060020a028152600401611c4591815260200190565b600060405180830381600087803b158015611c5f57600080fd5b505af1158015611c73573d6000803e3d6000fd5b50505050818181518110611c8957611c89613cf1565b602002602001015160200151600160a060020a03166108fc838381518110611cb357611cb3613cf1565b6020026020010151604001519081150290604051600060405180830381858888f19350505050158015611cea573d6000803e3d6000fd5b50611e2d565b818181518110611d0257611d02613cf1565b602002602001015160000151600160a060020a031663a9059cbb838381518110611d2e57611d2e613cf1565b602002602001015160200151848481518110611d4c57611d4c613cf1565b6020026020010151604001516040518363ffffffff1660e060020a028152600401611d8c929190600160a060020a03929092168252602082015260400190565b602060405180830381600087803b158015611da657600080fd5b505af1158015611dba573d6000803e3d6000fd5b505050506040513d601f19601f82011682018060405250810190611dde9190613227565b611e2d5760405160e560020a62461bcd02815260206004820152601360248201527f4661696c207472616e7366657220636f696e730000000000000000000000000060448201526064016108db565b80611e3781613c77565b915050611bae565b600d60008154611e4e90613c77565b91829055508114610a5b5760405160e560020a62461bcd02815260206004820152601460248201527f4576656e744964206f7574206f66206f7264657200000000000000000000000060448201526064016108db565b600080600080611eb8886020015187612508565b9050808860000151896060015167ffffffffffffffff1681518110611edf57611edf613cf1565b60200260200101516080015114611f3b5760405160e560020a62461bcd02815260206004820181905260248201527f5472616e73666572206576656e742076616c69646174696f6e206661696c656460448201526064016108db565b60005b8851518110156121d357600089600001518281518110611f6057611f60613cf1565b6020026020010151905080610100015167ffffffffffffffff166000146120ec57835b81610100015167ffffffffffffffff168110156120cc5760008b604001518281518110611fb257611fb2613cf1565b60200260200101519050611fc5816125fd565b805151156120b95761203681600001518a601180548060200260200160405190810160405280929190818152602001828054801561202c57602002820191906000526020600020905b8154600160a060020a0316815260019091019060200180831161200e575b505050505061278d565b8c519095508590612048600287613bcb565b8151811061205857612058613cf1565b602002602001015160800151146120b45760405160e560020a62461bcd02815260206004820152601560248201527f57726f6e6720565320726563656970742068617368000000000000000000000060448201526064016108db565b600297505b50806120c481613c77565b915050611f83565b5060018161010001516120df9190613be2565b67ffffffffffffffff1693505b6120f581612843565b8a5151909550612106836001613a97565b1415801561213b5750895161211c836001613a97565b8151811061212c5761212c613cf1565b60200260200101516040015185145b15612152578561214a81613c77565b9650506121c0565b896060015167ffffffffffffffff1682141561216d576121c0565b888610156121c05760405160e560020a62461bcd02815260206004820152601160248201527f77726f6e6720706172656e74206861736800000000000000000000000000000060448201526064016108db565b50806121cb81613c77565b915050611f3e565b5050506010555050505050565b600c546121ed9042613a97565b6000828152600360205260408120600101919091555b825181101561080a576000828152600360205260409020835184908390811061222e5761222e613cf1565b60209081029190910181015182546001808201855560009485529383902082516003909202018054600160a060020a0319908116600160a060020a039384161782559383015194810180549094169490911693909317909155604001516002909101558061229b81613c77565b915050612203565b6000600b54426122b39190613aaf565b9050600f548114610a5b57600e80549060006122ce83613c77565b919050557fe15729a2f427aa4572dab35eb692c902fcbce57d41642013259c741380809ae2600260405161230291906138c6565b60405180910390a261231660026000612cc0565b600f55565b6060600061232a836002613b5a565b612335906002613a97565b67ffffffffffffffff81111561234d5761234d613d0a565b6040519080825280601f01601f191660200182016040528015612377576020820181803683370190505b5090507f3000000000000000000000000000000000000000000000000000000000000000816000815181106123ae576123ae613cf1565b6020010190600160f860020a031916908160001a9053507f7800000000000000000000000000000000000000000000000000000000000000816001815181106123f9576123f9613cf1565b6020010190600160f860020a031916908160001a905350600061241d846002613b5a565b612428906001613a97565b90505b60018111156124af577f303132333435363738396162636465660000000000000000000000000000000085600f166010811061246957612469613cf1565b1a60f860020a0282828151811061248257612482613cf1565b6020010190600160f860020a031916908160001a9053506010909404936124a881613c60565b905061242b565b5083156125015760405160e560020a62461bcd02815260206004820181905260248201527f537472696e67733a20686578206c656e67746820696e73756666696369656e7460448201526064016108db565b9392505050565b600080836000015160008151811061252257612522613cf1565b602002602001015183856000015160018151811061254257612542613cf1565b602002602001015161255787602001516128c8565b87518051600290811061256c5761256c613cf1565b6020026020010151886040015160405160200161258991906138b3565b60405160208183030381529060405289600001516003815181106125af576125af613cf1565b60200260200101516040516020016125cd9796959493929190613703565b6040516020818303038152906040528051906020012090506125f58460000151826004612a30565b949350505050565b6000816040015160070b12156126e7576000600182604001516000196126239190613ac3565b61262d9190613b79565b60070b9050601160016011805490506126469190613bcb565b8154811061265657612656613cf1565b60009182526020909120015460118054600160a060020a03909216918390811061268257612682613cf1565b9060005260206000200160006101000a815481600160a060020a030219169083600160a060020a0316021790555060118054806126c1576126c1613cd8565b60008281526020902081016000199081018054600160a060020a03191690550190555050565b6000816040015160070b9050601180828154811061270757612707613cf1565b60009182526020808320909101548354600181018555938352918190209092018054600160a060020a031916600160a060020a03909216919091179055820151601180548390811061275b5761275b613cf1565b9060005260206000200160006101000a815481600160a060020a030219169083600160a060020a031602179055505050565b600080846000815181106127a3576127a3613cf1565b602002602001015184866001815181106127bf576127bf613cf1565b6020026020010151856040516020016127d89190613866565b604051602081830303815290604052886002815181106127fa576127fa613cf1565b6020026020010151604051602001612816959493929190613684565b60405160208183030381529060405280519060200120905061283a85826003612a30565b95945050505050565b600080600061285184612ae0565b915091506000601180805490506128778760c0015163ffffffff60e060020a9091041690565b6128819190613c92565b8154811061289157612891613cf1565b9060005260206000200160009054906101000a9004600160a060020a031690506128c081848760e00151612bd8565b509392505050565b6040805160208082528183019092526060916000919060208201818036833701905050905082602082015260005b602081101561295f5781818151811061291157612911613cf1565b60209101015160f860020a90819004027fff00000000000000000000000000000000000000000000000000000000000000161561294d5761295f565b8061295781613c77565b9150506128f6565b600061296c826020613bcb565b67ffffffffffffffff81111561298457612984613d0a565b6040519080825280601f01601f1916602001820160405280156129ae576020820181803683370190505b50905060005b8151811015612a275783836129c881613c77565b9450815181106129da576129da613cf1565b602001015160f860020a900460f860020a028282815181106129fe576129fe613cf1565b6020010190600160f860020a031916908160001a90535080612a1f81613c77565b9150506129b4565b50949350505050565b60006060825b8551811015612ad657858181518110612a5157612a51613cf1565b60200260200101518587836001612a689190613a97565b81518110612a7857612a78613cf1565b6020026020010151604051602001612a92939291906137ae565b60405160208183030381529060405291506020825111612aba57612ab582613c0b565b612ac2565b815160208301205b9450612acf600282613a97565b9050612a36565b5092949350505050565b600080600060a060f860020a028460400151856060015186608001518760a00151604051602001612b15959493929190613512565b6040516020818303038152906040529050836020015181604051602001612b3d92919061357f565b60408051601f19818403018152908290528051602091820120865160c088015160e08901519294612bb894929387937f840000000000000000000000000000000000000000000000000000000000000093927fb8410000000000000000000000000000000000000000000000000000000000009291016135c5565b604051602081830303815290604052805190602001209250925050915091565b60208101516040820151606083015160001a601b811015612bf757601b015b60408051600081526020810180835287905260ff8316918101919091526060810184905260808101839052600160a060020a0387169060019060a0016020604051602081039080840390855afa158015612c55573d6000803e3d6000fd5b50505060206040510351600160a060020a031614612cb85760405160e560020a62461bcd02815260206004820152601560248201527f4661696c656420746f20766572696679207369676e000000000000000000000060448201526064016108db565b505050505050565b5080546000825560030290600052602060002090810190610a5b91905b80821115612d0f578054600160a060020a03199081168255600182018054909116905560006002820155600301612cdd565b5090565b600082601f830112612d2457600080fd5b81356020612d39612d3483613a73565b613a42565b8281528181019085830183850287018401881015612d5657600080fd5b60005b85811015612d7e578135612d6c81613d23565b84529284019290840190600101612d59565b5090979650505050505050565b600082601f830112612d9c57600080fd5b81356020612dac612d3483613a73565b8281528181019085830183850287018401881015612dc957600080fd5b6000805b86811015612e0c57823567ffffffffffffffff811115612deb578283fd5b612df98b88838d0101612f4d565b8652509385019391850191600101612dcd565b509198975050505050505050565b600082601f830112612e2b57600080fd5b81356020612e3b612d3483613a73565b8281528181019085830183850287018401881015612e5857600080fd5b60005b85811015612d7e57813567ffffffffffffffff80821115612e7b57600080fd5b908901906060828c03601f1901811315612e9457600080fd5b612e9c6139d2565b8884013583811115612ead57600080fd5b612ebb8e8b83880101612d8b565b8252506040925082840135612ecf81613d23565b818a01529281013592600784900b8414612ee857600080fd5b918201929092528552509284019290840190600101612e5b565b80357cffffffffffffffffffffffffffffffffffffffffffffffffffffffffff1981168114612f3057600080fd5b919050565b8035600160e060020a031981168114612f3057600080fd5b600082601f830112612f5e57600080fd5b813567ffffffffffffffff811115612f7857612f78613d0a565b612f8b601f8201601f1916602001613a42565b818152846020838601011115612fa057600080fd5b816020850160208301376000918101602001919091529392505050565b60006060808385031215612fd057600080fd5b612fd86139d2565b9150823567ffffffffffffffff80821115612ff257600080fd5b612ffe86838701612d8b565b84526020915081850135828501526040808601358281111561301f57600080fd5b86019150601f8201871361303257600080fd5b8135613040612d3482613a73565b81815284810190848601878402860187018b101561305d57600080fd5b60009550855b848110156130b95788828d031215613079578687fd5b6130816139d2565b823561308c81613d23565b81528289013561309b81613d23565b818a0152828701358782015284529287019290880190600101613063565b505080848901525050505050505092915050565b803567ffffffffffffffff81168114612f3057600080fd5b6000602082840312156130f757600080fd5b813561250181613d23565b6000806040838503121561311557600080fd5b823561312081613d23565b9150602083013561313081613d23565b809150509250929050565b6000806000806080858703121561315157600080fd5b843561315c81613d23565b9350602085013561316c81613d23565b925060408501359150606085013561318381613d38565b939692955090935050565b6000602082840312156131a057600080fd5b813567ffffffffffffffff8111156131b757600080fd5b6125f584828501612d13565b600080604083850312156131d657600080fd5b823567ffffffffffffffff808211156131ee57600080fd5b6131fa86838701612d13565b9350602085013591508082111561321057600080fd5b5061321d85828601612d13565b9150509250929050565b60006020828403121561323957600080fd5b815161250181613d38565b60006020828403121561325657600080fd5b5035919050565b6000806040838503121561327057600080fd5b82359150602083013561313081613d23565b60006020828403121561329457600080fd5b61250182612f35565b600060208083850312156132b057600080fd5b67ffffffffffffffff80843511156132c757600080fd5b83358401608081870312156132db57600080fd5b6132e36139fb565b82823511156132f157600080fd5b8135820187601f82011261330457600080fd5b613311612d348235613a73565b808235825286820191508683018a8889863502860101111561333257600080fd5b60005b843581101561344c57878235111561334c57600080fd5b81358501610120818e03601f1901121561336557600080fd5b61336d613a1e565b6133788b8301612f02565b815261338660408301612f02565b8b8201526060820135604082015289608083013511156133a557600080fd5b6133b78e8c6080850135850101612f4d565b606082015260a082013560808201528960c083013511156133d757600080fd5b6133e98e8c60c0850135850101612f4d565b60a08201526133fa60e08301612f35565b60c08201526101008201358a81111561341257600080fd5b6134208f8d83860101612f4d565b60e08301525061343361012083016130cd565b6101008201528552509288019290880190600101613335565b505083525050818401358381111561346357600080fd5b61346f88828501612fbd565b8583015250826040830135111561348557600080fd5b6134958760408401358401612e1a565b60408201526134a6606083016130cd565b60608201529695505050505050565b600081518084526020808501945080840160005b838110156135075781518051600160a060020a03908116895284820151168489015260409081015190880152606090960195908201906001016134c9565b509495945050505050565b7fff000000000000000000000000000000000000000000000000000000000000008616815284600182015260008451613552816021850160208901613c34565b80830190508460218201528351613570816041840160208801613c34565b01604101979650505050505050565b7cffffffffffffffffffffffffffffffffffffffffffffffffffffffffff1983168152600082516135b7816003850160208701613c34565b919091016003019392505050565b7cffffffffffffffffffffffffffffffffffffffffffffffffffffffffff1987168152600086516135fd816003850160208b01613c34565b7fff000000000000000000000000000000000000000000000000000000000000008716600391840191820152600160e060020a0319861660048201527fffff00000000000000000000000000000000000000000000000000000000000085166008820152835161367481600a840160208801613c34565b01600a0198975050505050505050565b60008651613696818460208b01613c34565b600160a060020a0387166c010000000000000000000000000290830190815285516136c8816014840160208a01613c34565b85519101906136de816014840160208901613c34565b84519101906136f4816014840160208801613c34565b01601401979650505050505050565b6000885160206137168285838e01613c34565b81840191506c01000000000000000000000000600160a060020a038b160282526014895161374981838601858e01613c34565b895193019261375d81838601858d01613c34565b885193019261377181838601858c01613c34565b875193019261378581838601858b01613c34565b865193019261379981838601858a01613c34565b929092019091019a9950505050505050505050565b600084516137c0818460208901613c34565b820184815283516137d8816020808501908801613c34565b0160200195945050505050565b7f416363657373436f6e74726f6c3a206163636f756e742000000000000000000081526000835161381d816017850160208801613c34565b7f206973206d697373696e6720726f6c6520000000000000000000000000000000601791840191820152835161385a816028840160208801613c34565b01602801949350505050565b6020808252825182820181905260009190848201906040850190845b818110156138a7578351600160a060020a031683529284019291840191600101613882565b50909695505050505050565b60208152600061250160208301846134b5565b60006020808301818452808554808352604092508286019150866000528360002060005b82811015613929578154600160a060020a03908116855260018084015490911687860152600283015486860152606090940193600390920191016138ea565b5091979650505050505050565b6020815260008251806020840152613955816040850160208701613c34565b601f01601f19169190910160400192915050565b60208082526010908201527f5061757361626c653a2070617573656400000000000000000000000000000000604082015260600190565b6020815260008251604060208401526139bc60608401826134b5565b9050602084015160408401528091505092915050565b6040516060810167ffffffffffffffff811182821017156139f5576139f5613d0a565b60405290565b6040516080810167ffffffffffffffff811182821017156139f5576139f5613d0a565b604051610120810167ffffffffffffffff811182821017156139f5576139f5613d0a565b604051601f8201601f1916810167ffffffffffffffff81118282101715613a6b57613a6b613d0a565b604052919050565b600067ffffffffffffffff821115613a8d57613a8d613d0a565b5060209081020190565b60008219821115613aaa57613aaa613ca6565b500190565b600082613abe57613abe613cbf565b500490565b60008160070b8360070b677fffffffffffffff600082136000841383830485118282161615613af457613af4613ca6565b677fffffffffffffff196000851282811687830587121615613b1857613b18613ca6565b60008712925085820587128484161615613b3457613b34613ca6565b85850587128184161615613b4a57613b4a613ca6565b5050509290910295945050505050565b6000816000190483118215151615613b7457613b74613ca6565b500290565b60008160070b8360070b6000811281677fffffffffffffff1901831281151615613ba557613ba5613ca6565b81677fffffffffffffff018313811615613bc157613bc1613ca6565b5090039392505050565b600082821015613bdd57613bdd613ca6565b500390565b600067ffffffffffffffff83811690831681811015613c0357613c03613ca6565b039392505050565b80516020808301519190811015613c2e578060200360080260020a600003821691505b50919050565b60005b83811015613c4f578181015183820152602001613c37565b83811115610afc5750506000910152565b600081613c6f57613c6f613ca6565b506000190190565b6000600019821415613c8b57613c8b613ca6565b5060010190565b600082613ca157613ca1613cbf565b500690565b60e060020a634e487b7102600052601160045260246000fd5b60e060020a634e487b7102600052601260045260246000fd5b60e060020a634e487b7102600052603160045260246000fd5b60e060020a634e487b7102600052603260045260246000fd5b60e060020a634e487b7102600052604160045260246000fd5b600160a060020a0381168114610a5b57600080fd5b8015158114610a5b57600080fdfea49807205ce4d355092ef5a8a18f56e8913cf4a201fbe287825b095693c21775a264697066735822122054a3022b328d14d3e1182c0bbc033bf6aaa9891a52f58e896a39c2fd7158a65764736f6c63430008060033",
  "devdoc": {
    "kind": "dev",
    "methods": {
      "getRoleAdmin(bytes32)": {
        "details": "Returns the admin role that controls `role`. See {grantRole} and {revokeRole}. To change a role's admin, use {_setRoleAdmin}."
      },
      "grantRole(bytes32,address)": {
        "details": "Grants `role` to `account`. If `account` had not been already granted `role`, emits a {RoleGranted} event. Requirements: - the caller must have ``role``'s admin role."
      },
      "hasRole(bytes32,address)": {
        "details": "Returns `true` if `account` has been granted `role`."
      },
      "paused()": {
        "details": "Returns true if the contract is paused, and false otherwise."
      },
      "renounceRole(bytes32,address)": {
        "details": "Revokes `role` from the calling account. Roles are often managed via {grantRole} and {revokeRole}: this function's purpose is to provide a mechanism for accounts to lose their privileges if they are compromised (such as when a trusted device is misplaced). If the calling account had been revoked `role`, emits a {RoleRevoked} event. Requirements: - the caller must be `account`."
      },
      "revokeRole(bytes32,address)": {
        "details": "Revokes `role` from `account`. If `account` had been granted `role`, emits a {RoleRevoked} event. Requirements: - the caller must have ``role``'s admin role."
      },
      "supportsInterface(bytes4)": {
        "details": "See {IERC165-supportsInterface}."
      }
    },
    "version": 1
  },
  "userdoc": {
    "kind": "user",
    "methods": {},
    "version": 1
  },
  "storageLayout": {
    "storage": [
      {
        "astId": 24,
        "contract": "contracts/eth/EthBridge.sol:EthBridge",
        "label": "_roles",
        "offset": 0,
        "slot": "0",
        "type": "t_mapping(t_bytes32,t_struct(RoleData)19_storage)"
      },
      {
        "astId": 399,
        "contract": "contracts/eth/EthBridge.sol:EthBridge",
        "label": "_paused",
        "offset": 0,
        "slot": "1",
        "type": "t_bool"
      },
      {
        "astId": 5488,
        "contract": "contracts/eth/EthBridge.sol:EthBridge",
        "label": "queue",
        "offset": 0,
        "slot": "2",
        "type": "t_array(t_struct(Transfer)6340_storage)dyn_storage"
      },
      {
        "astId": 5493,
        "contract": "contracts/eth/EthBridge.sol:EthBridge",
        "label": "lockedTransfers",
        "offset": 0,
        "slot": "3",
        "type": "t_mapping(t_uint256,t_struct(LockedTransfers)6357_storage)"
      },
      {
        "astId": 5496,
        "contract": "contracts/eth/EthBridge.sol:EthBridge",
        "label": "oldestLockedEventId",
        "offset": 0,
        "slot": "4",
        "type": "t_uint256"
      },
      {
        "astId": 5500,
        "contract": "contracts/eth/EthBridge.sol:EthBridge",
        "label": "tokenAddresses",
        "offset": 0,
        "slot": "5",
        "type": "t_mapping(t_address,t_address)"
      },
      {
        "astId": 5502,
        "contract": "contracts/eth/EthBridge.sol:EthBridge",
        "label": "wrapperAddress",
        "offset": 0,
        "slot": "6",
        "type": "t_address"
      },
      {
        "astId": 5504,
        "contract": "contracts/eth/EthBridge.sol:EthBridge",
        "label": "fee",
        "offset": 0,
        "slot": "7",
        "type": "t_uint256"
      },
      {
        "astId": 5506,
        "contract": "contracts/eth/EthBridge.sol:EthBridge",
        "label": "feeRecipient",
        "offset": 0,
        "slot": "8",
        "type": "t_address_payable"
      },
      {
        "astId": 5508,
        "contract": "contracts/eth/EthBridge.sol:EthBridge",
        "label": "sideBridgeAddress",
        "offset": 0,
        "slot": "9",
        "type": "t_address"
      },
      {
        "astId": 5510,
        "contract": "contracts/eth/EthBridge.sol:EthBridge",
        "label": "minSafetyBlocks",
        "offset": 0,
        "slot": "10",
        "type": "t_uint256"
      },
      {
        "astId": 5512,
        "contract": "contracts/eth/EthBridge.sol:EthBridge",
        "label": "timeframeSeconds",
        "offset": 0,
        "slot": "11",
        "type": "t_uint256"
      },
      {
        "astId": 5514,
        "contract": "contracts/eth/EthBridge.sol:EthBridge",
        "label": "lockTime",
        "offset": 0,
        "slot": "12",
        "type": "t_uint256"
      },
      {
        "astId": 5516,
        "contract": "contracts/eth/EthBridge.sol:EthBridge",
        "label": "inputEventId",
        "offset": 0,
        "slot": "13",
        "type": "t_uint256"
      },
      {
        "astId": 5519,
        "contract": "contracts/eth/EthBridge.sol:EthBridge",
        "label": "outputEventId",
        "offset": 0,
        "slot": "14",
        "type": "t_uint256"
      },
      {
        "astId": 5521,
        "contract": "contracts/eth/EthBridge.sol:EthBridge",
        "label": "lastTimeframe",
        "offset": 0,
        "slot": "15",
        "type": "t_uint256"
      },
      {
        "astId": 1442,
        "contract": "contracts/eth/EthBridge.sol:EthBridge",
        "label": "lastProcessedBlock",
        "offset": 0,
        "slot": "16",
        "type": "t_bytes32"
      },
      {
        "astId": 1445,
        "contract": "contracts/eth/EthBridge.sol:EthBridge",
        "label": "validatorSet",
        "offset": 0,
        "slot": "17",
        "type": "t_array(t_address)dyn_storage"
      },
      {
        "astId": 6665,
        "contract": "contracts/eth/EthBridge.sol:EthBridge",
        "label": "validatorSetAddress",
        "offset": 0,
        "slot": "18",
        "type": "t_address"
      }
    ],
    "types": {
      "t_address": {
        "encoding": "inplace",
        "label": "address",
        "numberOfBytes": "20"
      },
      "t_address_payable": {
        "encoding": "inplace",
        "label": "address payable",
        "numberOfBytes": "20"
      },
      "t_array(t_address)dyn_storage": {
        "base": "t_address",
        "encoding": "dynamic_array",
        "label": "address[]",
        "numberOfBytes": "32"
      },
      "t_array(t_struct(Transfer)6340_storage)dyn_storage": {
        "base": "t_struct(Transfer)6340_storage",
        "encoding": "dynamic_array",
        "label": "struct CommonStructs.Transfer[]",
        "numberOfBytes": "32"
      },
      "t_bool": {
        "encoding": "inplace",
        "label": "bool",
        "numberOfBytes": "1"
      },
      "t_bytes32": {
        "encoding": "inplace",
        "label": "bytes32",
        "numberOfBytes": "32"
      },
      "t_mapping(t_address,t_address)": {
        "encoding": "mapping",
        "key": "t_address",
        "label": "mapping(address => address)",
        "numberOfBytes": "32",
        "value": "t_address"
      },
      "t_mapping(t_address,t_bool)": {
        "encoding": "mapping",
        "key": "t_address",
        "label": "mapping(address => bool)",
        "numberOfBytes": "32",
        "value": "t_bool"
      },
      "t_mapping(t_bytes32,t_struct(RoleData)19_storage)": {
        "encoding": "mapping",
        "key": "t_bytes32",
        "label": "mapping(bytes32 => struct AccessControl.RoleData)",
        "numberOfBytes": "32",
        "value": "t_struct(RoleData)19_storage"
      },
      "t_mapping(t_uint256,t_struct(LockedTransfers)6357_storage)": {
        "encoding": "mapping",
        "key": "t_uint256",
        "label": "mapping(uint256 => struct CommonStructs.LockedTransfers)",
        "numberOfBytes": "32",
        "value": "t_struct(LockedTransfers)6357_storage"
      },
      "t_struct(LockedTransfers)6357_storage": {
        "encoding": "inplace",
        "label": "struct CommonStructs.LockedTransfers",
        "members": [
          {
            "astId": 6354,
            "contract": "contracts/eth/EthBridge.sol:EthBridge",
            "label": "transfers",
            "offset": 0,
            "slot": "0",
            "type": "t_array(t_struct(Transfer)6340_storage)dyn_storage"
          },
          {
            "astId": 6356,
            "contract": "contracts/eth/EthBridge.sol:EthBridge",
            "label": "endTimestamp",
            "offset": 0,
            "slot": "1",
            "type": "t_uint256"
          }
        ],
        "numberOfBytes": "64"
      },
      "t_struct(RoleData)19_storage": {
        "encoding": "inplace",
        "label": "struct AccessControl.RoleData",
        "members": [
          {
            "astId": 16,
            "contract": "contracts/eth/EthBridge.sol:EthBridge",
            "label": "members",
            "offset": 0,
            "slot": "0",
            "type": "t_mapping(t_address,t_bool)"
          },
          {
            "astId": 18,
            "contract": "contracts/eth/EthBridge.sol:EthBridge",
            "label": "adminRole",
            "offset": 0,
            "slot": "1",
            "type": "t_bytes32"
          }
        ],
        "numberOfBytes": "64"
      },
      "t_struct(Transfer)6340_storage": {
        "encoding": "inplace",
        "label": "struct CommonStructs.Transfer",
        "members": [
          {
            "astId": 6335,
            "contract": "contracts/eth/EthBridge.sol:EthBridge",
            "label": "tokenAddress",
            "offset": 0,
            "slot": "0",
            "type": "t_address"
          },
          {
            "astId": 6337,
            "contract": "contracts/eth/EthBridge.sol:EthBridge",
            "label": "toAddress",
            "offset": 0,
            "slot": "1",
            "type": "t_address"
          },
          {
            "astId": 6339,
            "contract": "contracts/eth/EthBridge.sol:EthBridge",
            "label": "amount",
            "offset": 0,
            "slot": "2",
            "type": "t_uint256"
          }
        ],
        "numberOfBytes": "96"
      },
      "t_uint256": {
        "encoding": "inplace",
        "label": "uint256",
        "numberOfBytes": "32"
      }
    }
  }
}