{
  "address": "0xeCb3696b5865fEebe96C781269BB3108D9D88033",
  "abi": [
    {
      "anonymous": false,
      "inputs": [
        {
          "indexed": false,
          "internalType": "address",
          "name": "account",
          "type": "address"
        }
      ],
      "name": "Paused",
      "type": "event"
    },
    {
      "anonymous": false,
      "inputs": [
        {
          "indexed": true,
          "internalType": "bytes32",
          "name": "role",
          "type": "bytes32"
        },
        {
          "indexed": true,
          "internalType": "bytes32",
          "name": "previousAdminRole",
          "type": "bytes32"
        },
        {
          "indexed": true,
          "internalType": "bytes32",
          "name": "newAdminRole",
          "type": "bytes32"
        }
      ],
      "name": "RoleAdminChanged",
      "type": "event"
    },
    {
      "anonymous": false,
      "inputs": [
        {
          "indexed": true,
          "internalType": "bytes32",
          "name": "role",
          "type": "bytes32"
        },
        {
          "indexed": true,
          "internalType": "address",
          "name": "account",
          "type": "address"
        },
        {
          "indexed": true,
          "internalType": "address",
          "name": "sender",
          "type": "address"
        }
      ],
      "name": "RoleGranted",
      "type": "event"
    },
    {
      "anonymous": false,
      "inputs": [
        {
          "indexed": true,
          "internalType": "bytes32",
          "name": "role",
          "type": "bytes32"
        },
        {
          "indexed": true,
          "internalType": "address",
          "name": "account",
          "type": "address"
        },
        {
          "indexed": true,
          "internalType": "address",
          "name": "sender",
          "type": "address"
        }
      ],
      "name": "RoleRevoked",
      "type": "event"
    },
    {
      "anonymous": false,
      "inputs": [
        {
          "indexed": true,
          "internalType": "uint256",
          "name": "eventId",
          "type": "uint256"
        },
        {
          "components": [
            {
              "internalType": "address",
              "name": "tokenAddress",
              "type": "address"
            },
            {
              "internalType": "address",
              "name": "toAddress",
              "type": "address"
            },
            {
              "internalType": "uint256",
              "name": "amount",
              "type": "uint256"
            }
          ],
          "indexed": false,
          "internalType": "struct CommonStructs.Transfer[]",
          "name": "queue",
          "type": "tuple[]"
        }
      ],
      "name": "Transfer",
      "type": "event"
    },
    {
      "anonymous": false,
      "inputs": [
        {
          "indexed": true,
          "internalType": "uint256",
          "name": "eventId",
          "type": "uint256"
        }
      ],
      "name": "TransferFinish",
      "type": "event"
    },
    {
      "anonymous": false,
      "inputs": [
        {
          "indexed": true,
          "internalType": "uint256",
          "name": "eventId",
          "type": "uint256"
        }
      ],
      "name": "TransferSubmit",
      "type": "event"
    },
    {
      "anonymous": false,
      "inputs": [
        {
          "indexed": false,
          "internalType": "address",
          "name": "account",
          "type": "address"
        }
      ],
      "name": "Unpaused",
      "type": "event"
    },
    {
      "anonymous": false,
      "inputs": [
        {
          "indexed": true,
          "internalType": "address",
          "name": "from",
          "type": "address"
        },
        {
          "indexed": false,
          "internalType": "uint256",
          "name": "eventId",
          "type": "uint256"
        },
        {
          "indexed": false,
          "internalType": "address",
          "name": "tokenFrom",
          "type": "address"
        },
        {
          "indexed": false,
          "internalType": "address",
          "name": "tokenTo",
          "type": "address"
        },
        {
          "indexed": false,
          "internalType": "uint256",
          "name": "amount",
          "type": "uint256"
        },
        {
          "indexed": false,
          "internalType": "uint256",
          "name": "transferFeeAmount",
          "type": "uint256"
        },
        {
          "indexed": false,
          "internalType": "uint256",
          "name": "bridgeFeeAmount",
          "type": "uint256"
        }
      ],
      "name": "Withdraw",
      "type": "event"
    },
    {
      "inputs": [],
      "name": "ADMIN_ROLE",
      "outputs": [
        {
          "internalType": "bytes32",
          "name": "",
          "type": "bytes32"
        }
      ],
      "stateMutability": "view",
      "type": "function"
    },
    {
      "inputs": [],
      "name": "DEFAULT_ADMIN_ROLE",
      "outputs": [
        {
          "internalType": "bytes32",
          "name": "",
          "type": "bytes32"
        }
      ],
      "stateMutability": "view",
      "type": "function"
    },
    {
      "inputs": [],
      "name": "FEE_PROVIDER_ROLE",
      "outputs": [
        {
          "internalType": "bytes32",
          "name": "",
          "type": "bytes32"
        }
      ],
      "stateMutability": "view",
      "type": "function"
    },
    {
      "inputs": [],
      "name": "RELAY_ROLE",
      "outputs": [
        {
          "internalType": "bytes32",
          "name": "",
          "type": "bytes32"
        }
      ],
      "stateMutability": "view",
      "type": "function"
    },
    {
      "inputs": [],
      "name": "WATCHDOG_ROLE",
      "outputs": [
        {
          "internalType": "bytes32",
          "name": "",
          "type": "bytes32"
        }
      ],
      "stateMutability": "view",
      "type": "function"
    },
    {
      "inputs": [],
      "name": "bridgeFeeRecipient",
      "outputs": [
        {
          "internalType": "address payable",
          "name": "",
          "type": "address"
        }
      ],
      "stateMutability": "view",
      "type": "function"
    },
    {
      "inputs": [
        {
          "internalType": "address payable",
          "name": "feeRecipient_",
          "type": "address"
        }
      ],
      "name": "changeBridgeFeeRecipient",
      "outputs": [],
      "stateMutability": "nonpayable",
      "type": "function"
    },
    {
      "inputs": [
        {
          "internalType": "uint256",
          "name": "lockTime_",
          "type": "uint256"
        }
      ],
      "name": "changeLockTime",
      "outputs": [],
      "stateMutability": "nonpayable",
      "type": "function"
    },
    {
      "inputs": [
        {
          "internalType": "uint256",
          "name": "minSafetyBlocks_",
          "type": "uint256"
        }
      ],
      "name": "changeMinSafetyBlocks",
      "outputs": [],
      "stateMutability": "nonpayable",
      "type": "function"
    },
    {
      "inputs": [
        {
          "internalType": "uint256",
          "name": "signatureFeeCheckNumber_",
          "type": "uint256"
        }
      ],
      "name": "changeSignatureFeeCheckNumber",
      "outputs": [],
      "stateMutability": "nonpayable",
      "type": "function"
    },
    {
      "inputs": [
        {
          "internalType": "uint256",
          "name": "timeframeSeconds_",
          "type": "uint256"
        }
      ],
      "name": "changeTimeframeSeconds",
      "outputs": [],
      "stateMutability": "nonpayable",
      "type": "function"
    },
    {
      "inputs": [
        {
          "internalType": "address payable",
          "name": "feeRecipient_",
          "type": "address"
        }
      ],
      "name": "changeTransferFeeRecipient",
      "outputs": [],
      "stateMutability": "nonpayable",
      "type": "function"
    },
    {
      "inputs": [
        {
          "internalType": "uint256",
          "name": "eventId",
          "type": "uint256"
        }
      ],
      "name": "getLockedTransfers",
      "outputs": [
        {
          "components": [
            {
              "components": [
                {
                  "internalType": "address",
                  "name": "tokenAddress",
                  "type": "address"
                },
                {
                  "internalType": "address",
                  "name": "toAddress",
                  "type": "address"
                },
                {
                  "internalType": "uint256",
                  "name": "amount",
                  "type": "uint256"
                }
              ],
              "internalType": "struct CommonStructs.Transfer[]",
              "name": "transfers",
              "type": "tuple[]"
            },
            {
              "internalType": "uint256",
              "name": "endTimestamp",
              "type": "uint256"
            }
          ],
          "internalType": "struct CommonStructs.LockedTransfers",
          "name": "",
          "type": "tuple"
        }
      ],
      "stateMutability": "view",
      "type": "function"
    },
    {
      "inputs": [
        {
          "internalType": "bytes32",
          "name": "role",
          "type": "bytes32"
        }
      ],
      "name": "getRoleAdmin",
      "outputs": [
        {
          "internalType": "bytes32",
          "name": "",
          "type": "bytes32"
        }
      ],
      "stateMutability": "view",
      "type": "function"
    },
    {
      "inputs": [
        {
          "internalType": "bytes32",
          "name": "role",
          "type": "bytes32"
        },
        {
          "internalType": "address",
          "name": "account",
          "type": "address"
        }
      ],
      "name": "grantRole",
      "outputs": [],
      "stateMutability": "nonpayable",
      "type": "function"
    },
    {
      "inputs": [
        {
          "internalType": "bytes32",
          "name": "role",
          "type": "bytes32"
        },
        {
          "internalType": "address",
          "name": "account",
          "type": "address"
        }
      ],
      "name": "hasRole",
      "outputs": [
        {
          "internalType": "bool",
          "name": "",
          "type": "bool"
        }
      ],
      "stateMutability": "view",
      "type": "function"
    },
    {
      "inputs": [
        {
          "components": [
            {
              "internalType": "address",
              "name": "sideBridgeAddress",
              "type": "address"
            },
            {
              "internalType": "address",
              "name": "adminAddress",
              "type": "address"
            },
            {
              "internalType": "address",
              "name": "relayAddress",
              "type": "address"
            },
            {
              "internalType": "address",
              "name": "wrappingTokenAddress",
              "type": "address"
            },
            {
              "internalType": "address[]",
              "name": "tokenThisAddresses",
              "type": "address[]"
            },
            {
              "internalType": "address[]",
              "name": "tokenSideAddresses",
              "type": "address[]"
            },
            {
              "internalType": "address payable",
              "name": "transferFeeRecipient",
              "type": "address"
            },
            {
              "internalType": "address payable",
              "name": "bridgeFeeRecipient",
              "type": "address"
            },
            {
              "internalType": "uint256",
              "name": "timeframeSeconds",
              "type": "uint256"
            },
            {
              "internalType": "uint256",
              "name": "lockTime",
              "type": "uint256"
            },
            {
              "internalType": "uint256",
              "name": "minSafetyBlocks",
              "type": "uint256"
            }
          ],
          "internalType": "struct CommonStructs.ConstructorArgs",
          "name": "args",
          "type": "tuple"
        }
      ],
      "name": "initialize",
      "outputs": [],
      "stateMutability": "nonpayable",
      "type": "function"
    },
    {
      "inputs": [],
      "name": "inputEventId",
      "outputs": [
        {
          "internalType": "uint256",
          "name": "",
          "type": "uint256"
        }
      ],
      "stateMutability": "view",
      "type": "function"
    },
    {
      "inputs": [],
      "name": "isQueueEmpty",
      "outputs": [
        {
          "internalType": "bool",
          "name": "",
          "type": "bool"
        }
      ],
      "stateMutability": "view",
      "type": "function"
    },
    {
      "inputs": [],
      "name": "lastTimeframe",
      "outputs": [
        {
          "internalType": "uint256",
          "name": "",
          "type": "uint256"
        }
      ],
      "stateMutability": "view",
      "type": "function"
    },
    {
      "inputs": [],
      "name": "lockTime",
      "outputs": [
        {
          "internalType": "uint256",
          "name": "",
          "type": "uint256"
        }
      ],
      "stateMutability": "view",
      "type": "function"
    },
    {
      "inputs": [
        {
          "internalType": "uint256",
          "name": "",
          "type": "uint256"
        }
      ],
      "name": "lockedTransfers",
      "outputs": [
        {
          "internalType": "uint256",
          "name": "endTimestamp",
          "type": "uint256"
        }
      ],
      "stateMutability": "view",
      "type": "function"
    },
    {
      "inputs": [],
      "name": "minSafetyBlocks",
      "outputs": [
        {
          "internalType": "uint256",
          "name": "",
          "type": "uint256"
        }
      ],
      "stateMutability": "view",
      "type": "function"
    },
    {
      "inputs": [],
      "name": "oldestLockedEventId",
      "outputs": [
        {
          "internalType": "uint256",
          "name": "",
          "type": "uint256"
        }
      ],
      "stateMutability": "view",
      "type": "function"
    },
    {
      "inputs": [],
      "name": "outputEventId",
      "outputs": [
        {
          "internalType": "uint256",
          "name": "",
          "type": "uint256"
        }
      ],
      "stateMutability": "view",
      "type": "function"
    },
    {
      "inputs": [],
      "name": "pause",
      "outputs": [],
      "stateMutability": "nonpayable",
      "type": "function"
    },
    {
      "inputs": [],
      "name": "paused",
      "outputs": [
        {
          "internalType": "bool",
          "name": "",
          "type": "bool"
        }
      ],
      "stateMutability": "view",
      "type": "function"
    },
    {
      "inputs": [
        {
          "internalType": "uint256",
          "name": "eventId",
          "type": "uint256"
        }
      ],
      "name": "removeLockedTransfers",
      "outputs": [],
      "stateMutability": "nonpayable",
      "type": "function"
    },
    {
      "inputs": [
        {
          "internalType": "bytes32",
          "name": "role",
          "type": "bytes32"
        },
        {
          "internalType": "address",
          "name": "account",
          "type": "address"
        }
      ],
      "name": "renounceRole",
      "outputs": [],
      "stateMutability": "nonpayable",
      "type": "function"
    },
    {
      "inputs": [
        {
          "internalType": "bytes32",
          "name": "role",
          "type": "bytes32"
        },
        {
          "internalType": "address",
          "name": "account",
          "type": "address"
        }
      ],
      "name": "revokeRole",
      "outputs": [],
      "stateMutability": "nonpayable",
      "type": "function"
    },
    {
      "inputs": [],
      "name": "sideBridgeAddress",
      "outputs": [
        {
          "internalType": "address",
          "name": "",
          "type": "address"
        }
      ],
      "stateMutability": "view",
      "type": "function"
    },
    {
      "inputs": [
        {
          "internalType": "uint256",
          "name": "eventId",
          "type": "uint256"
        }
      ],
      "name": "skipTransfers",
      "outputs": [],
      "stateMutability": "nonpayable",
      "type": "function"
    },
    {
      "inputs": [
        {
          "internalType": "uint256",
          "name": "eventId",
          "type": "uint256"
        },
        {
          "components": [
            {
              "internalType": "address",
              "name": "tokenAddress",
              "type": "address"
            },
            {
              "internalType": "address",
              "name": "toAddress",
              "type": "address"
            },
            {
              "internalType": "uint256",
              "name": "amount",
              "type": "uint256"
            }
          ],
          "internalType": "struct CommonStructs.Transfer[]",
          "name": "transfers",
          "type": "tuple[]"
        }
      ],
      "name": "submitTransferUntrustless",
      "outputs": [],
      "stateMutability": "nonpayable",
      "type": "function"
    },
    {
      "inputs": [
        {
          "internalType": "bytes4",
          "name": "interfaceId",
          "type": "bytes4"
        }
      ],
      "name": "supportsInterface",
      "outputs": [
        {
          "internalType": "bool",
          "name": "",
          "type": "bool"
        }
      ],
      "stateMutability": "view",
      "type": "function"
    },
    {
      "inputs": [],
      "name": "timeframeSeconds",
      "outputs": [
        {
          "internalType": "uint256",
          "name": "",
          "type": "uint256"
        }
      ],
      "stateMutability": "view",
      "type": "function"
    },
    {
      "inputs": [
        {
          "internalType": "address",
          "name": "",
          "type": "address"
        }
      ],
      "name": "tokenAddresses",
      "outputs": [
        {
          "internalType": "address",
          "name": "",
          "type": "address"
        }
      ],
      "stateMutability": "view",
      "type": "function"
    },
    {
      "inputs": [
        {
          "internalType": "address",
          "name": "tokenThisAddress",
          "type": "address"
        },
        {
          "internalType": "address",
          "name": "tokenSideAddress",
          "type": "address"
        }
      ],
      "name": "tokensAdd",
      "outputs": [],
      "stateMutability": "nonpayable",
      "type": "function"
    },
    {
      "inputs": [
        {
          "internalType": "address[]",
          "name": "tokenThisAddresses",
          "type": "address[]"
        },
        {
          "internalType": "address[]",
          "name": "tokenSideAddresses",
          "type": "address[]"
        }
      ],
      "name": "tokensAddBatch",
      "outputs": [],
      "stateMutability": "nonpayable",
      "type": "function"
    },
    {
      "inputs": [
        {
          "internalType": "address",
          "name": "tokenThisAddress",
          "type": "address"
        }
      ],
      "name": "tokensRemove",
      "outputs": [],
      "stateMutability": "nonpayable",
      "type": "function"
    },
    {
      "inputs": [
        {
          "internalType": "address[]",
          "name": "tokenThisAddresses",
          "type": "address[]"
        }
      ],
      "name": "tokensRemoveBatch",
      "outputs": [],
      "stateMutability": "nonpayable",
      "type": "function"
    },
    {
      "inputs": [],
      "name": "transferFeeRecipient",
      "outputs": [
        {
          "internalType": "address payable",
          "name": "",
          "type": "address"
        }
      ],
      "stateMutability": "view",
      "type": "function"
    },
    {
      "inputs": [],
      "name": "triggerTransfers",
      "outputs": [],
      "stateMutability": "nonpayable",
      "type": "function"
    },
    {
      "inputs": [
        {
          "internalType": "uint256",
          "name": "eventId",
          "type": "uint256"
        }
      ],
      "name": "unlockTransfers",
      "outputs": [],
      "stateMutability": "nonpayable",
      "type": "function"
    },
    {
      "inputs": [],
      "name": "unlockTransfersBatch",
      "outputs": [],
      "stateMutability": "nonpayable",
      "type": "function"
    },
    {
      "inputs": [],
      "name": "unpause",
      "outputs": [],
      "stateMutability": "nonpayable",
      "type": "function"
    },
    {
      "inputs": [
        {
          "internalType": "address[]",
          "name": "_watchdogs",
          "type": "address[]"
        },
        {
          "internalType": "address",
          "name": "_fee_provider",
          "type": "address"
        }
      ],
      "name": "upgrade",
      "outputs": [],
      "stateMutability": "nonpayable",
      "type": "function"
    },
    {
      "inputs": [
        {
          "internalType": "address",
          "name": "tokenThisAddress",
          "type": "address"
        },
        {
          "internalType": "address",
          "name": "toAddress",
          "type": "address"
        },
        {
          "internalType": "uint256",
          "name": "amount",
          "type": "uint256"
        },
        {
          "internalType": "bool",
          "name": "unwrapSide",
          "type": "bool"
        },
        {
          "internalType": "bytes",
          "name": "feeSignature",
          "type": "bytes"
        },
        {
          "internalType": "uint256",
          "name": "transferFee",
          "type": "uint256"
        },
        {
          "internalType": "uint256",
          "name": "bridgeFee",
          "type": "uint256"
        }
      ],
      "name": "withdraw",
      "outputs": [],
      "stateMutability": "payable",
      "type": "function"
    },
    {
      "inputs": [
        {
          "internalType": "address",
          "name": "toAddress",
          "type": "address"
        },
        {
          "internalType": "bytes",
          "name": "feeSignature",
          "type": "bytes"
        },
        {
          "internalType": "uint256",
          "name": "transferFee",
          "type": "uint256"
        },
        {
          "internalType": "uint256",
          "name": "bridgeFee",
          "type": "uint256"
        }
      ],
      "name": "wrapWithdraw",
      "outputs": [],
      "stateMutability": "payable",
      "type": "function"
    },
    {
      "inputs": [],
      "name": "wrapperAddress",
      "outputs": [
        {
          "internalType": "address",
          "name": "",
          "type": "address"
        }
      ],
      "stateMutability": "view",
      "type": "function"
    },
    {
      "stateMutability": "payable",
      "type": "receive"
    }
  ],
  "transactionHash": "0x7edaf8a4da0577689c70c774e7a20873ae0305159873c21041adb308551984de",
  "args": [],
  "numDeployments": 4,
  "solcInputHash": "70bb6e544db3e918ac2489968ae6b251",
  "bytecode": "0x608060405234801561001057600080fd5b5061348c806100206000396000f3fe6080604052600436106102b65760003560e060020a900480638456cb5911610179578063b6d3385e116100e0578063d547741f11610099578063f700558711610073578063f700558714610884578063f862b7eb146108a4578063f8b74433146108c4578063fd5d2ef3146108d757600080fd5b8063d547741f14610817578063e31be08714610837578063f33fe10f1461086457600080fd5b8063b6d3385e14610741578063b87330e914610777578063ba8bbbe014610797578063baeebe75146107ad578063cf3317d3146107c3578063d3b89f49146107e357600080fd5b806391d148541161013257806391d148541461068c578063924cf6e0146106ac57806396cf5227146106c257806399b5bb64146106e2578063a217fddf146106f8578063a9b1cf0b1461070d57600080fd5b80638456cb59146105f9578063853890ae1461060e57806386d7679e1461062e5780638ac1f86f146106445780638e5df9c71461065957806391c5bc0a1461067957600080fd5b8063390d53881161021d5780635249a705116101d65780635249a7051461054a57806358e81b4e1461056a5780635c975abb1461058a578063746b5c42146105a257806375b238fc146105b75780637df8b802146105d957600080fd5b8063390d5388146104855780633928b296146104a55780633f4ba83a146104c557806342180fb8146104da5780634a1856de146104fa5780635119b0ef1461052a57600080fd5b8063297c26771161026f578063297c2677146103c15780632bbba847146103d75780632f2ff15d146103ed578063304561bb1461040d578063331a891a1461044557806336568abe1461046557600080fd5b806301ffc9a7146102c257806304421823146102f757806309fce356146103395780630d6680871461035b5780631d8f18f914610371578063248a9ca31461039157600080fd5b366102bd57005b600080fd5b3480156102ce57600080fd5b506102e26102dd366004612e8b565b6108f7565b60405190151581526020015b60405180910390f35b34801561030357600080fd5b5061032b7f077a1d526a4ce8a773632ab13b4fbbf1fcc954c3dab26cd27ea0e2a6750da5d781565b6040519081526020016102ee565b34801561034557600080fd5b50610359610354366004612dc4565b61098a565b005b34801561036757600080fd5b5061032b60d45481565b34801561037d57600080fd5b5061035961038c366004612eca565b6109b6565b34801561039d57600080fd5b5061032b6103ac366004612e4d565b60009081526065602052604090206001015490565b3480156103cd57600080fd5b5061032b60d65481565b3480156103e357600080fd5b5060ca54156102e2565b3480156103f957600080fd5b50610359610408366004612e66565b610a38565b34801561041957600080fd5b5060cf5461042d90600160a060020a031681565b604051600160a060020a0390911681526020016102ee565b34801561045157600080fd5b50610359610460366004612e4d565b610a63565b34801561047157600080fd5b50610359610480366004612e66565b610b76565b34801561049157600080fd5b5060d05461042d90600160a060020a031681565b3480156104b157600080fd5b506103596104c0366004612bda565b610c01565b3480156104d157600080fd5b50610359610c3d565b3480156104e657600080fd5b506103596104f5366004612e4d565b610c61565b34801561050657600080fd5b5061032b610515366004612e4d565b60cb6020526000908152604090206001015481565b34801561053657600080fd5b50610359610545366004612f06565b610c9e565b34801561055657600080fd5b50610359610565366004612d2b565b610d34565b34801561057657600080fd5b50610359610585366004612d6d565b610dbd565b34801561059657600080fd5b5060975460ff166102e2565b3480156105ae57600080fd5b50610359610ea7565b3480156105c357600080fd5b5061032b60008051602061343783398151915281565b3480156105e557600080fd5b5060ce5461042d90600160a060020a031681565b34801561060557600080fd5b50610359610f53565b34801561061a57600080fd5b50610359610629366004612bf7565b610f86565b34801561063a57600080fd5b5061032b60d75481565b34801561065057600080fd5b50610359610fce565b34801561066557600080fd5b50610359610674366004612bda565b611126565b610359610687366004612cc4565b611167565b34801561069857600080fd5b506102e26106a7366004612e66565b611497565b3480156106b857600080fd5b5061032b60d25481565b3480156106ce57600080fd5b506103596106dd366004612e4d565b6114c2565b3480156106ee57600080fd5b5061032b60d55481565b34801561070457600080fd5b5061032b600081565b34801561071957600080fd5b5061032b7fb7f2fcb7a10916921b74b9baa8ea85f89b12ab12f6ededa160998f8b20e65f9581565b34801561074d57600080fd5b5061042d61075c366004612bda565b60cd60205260009081526040902054600160a060020a031681565b34801561078357600080fd5b50610359610792366004612bda565b6114e1565b3480156107a357600080fd5b5061032b60cc5481565b3480156107b957600080fd5b5061032b60d35481565b3480156107cf57600080fd5b506103596107de366004612e4d565b61151d565b3480156107ef57600080fd5b5061032b7f516d5e7ed3e60a6b2804c1554cd94bc2eb576e44b192a0e069d4c527589a887e81565b34801561082357600080fd5b50610359610832366004612e66565b611594565b34801561084357600080fd5b50610857610852366004612e4d565b6115ba565b6040516102ee91906131d1565b34801561087057600080fd5b5060d15461042d90600160a060020a031681565b34801561089057600080fd5b5061035961089f366004612e4d565b611676565b3480156108b057600080fd5b506103596108bf366004612e4d565b611695565b6103596108d2366004612c30565b6118c8565b3480156108e357600080fd5b506103596108f2366004612e4d565b611d28565b60007bffffffffffffffffffffffffffffffffffffffffffffffffffffffff1982167f7965db0b00000000000000000000000000000000000000000000000000000000148061098457507f01ffc9a7000000000000000000000000000000000000000000000000000000007bffffffffffffffffffffffffffffffffffffffffffffffffffffffff198316145b92915050565b6000805160206134378339815191526109a38133611d47565b6109af85858585611dae565b5050505050565b600054610100900460ff16806109cf575060005460ff16155b6109f75760405160e560020a62461bcd0281526004016109ee90613117565b60405180910390fd5b600054610100900460ff16158015610a19576000805461ffff19166101011790555b610a2282611ecf565b8015610a34576000805461ff00191690555b5050565b600082815260656020526040902060010154610a548133611d47565b610a5e83836120b8565b505050565b600080516020613437833981519152610a7c8133611d47565b60975460ff16610aa15760405160e560020a62461bcd0281526004016109ee906130a9565b60cc54821015610ac65760405160e560020a62461bcd0281526004016109ee90613174565b60d554821115610b1b5760405160e560020a62461bcd02815260206004820152601f60248201527f6576656e744964206d757374206265203c3d20696e7075744576656e7449640060448201526064016109ee565b610b266001836132f4565b60d5555b600082815260cb602052604090206001015415610a3457600082815260cb6020526040812090610b5a8282612afa565b5060006001919091015581610b6e8161334e565b925050610b2a565b600160a060020a0381163314610bf75760405160e560020a62461bcd02815260206004820152602f60248201527f416363657373436f6e74726f6c3a2063616e206f6e6c792072656e6f756e636560448201527f20726f6c657320666f722073656c66000000000000000000000000000000000060648201526084016109ee565b610a34828261213e565b600080516020613437833981519152610c1a8133611d47565b5060d08054600160a060020a031916600160a060020a0392909216919091179055565b600080516020613437833981519152610c568133611d47565b610c5e6121a5565b50565b600080516020613437833981519152610c7a8133611d47565b8160d35460d754610c8b91906132d5565b610c9591906132b0565b60d7555060d355565b7f077a1d526a4ce8a773632ab13b4fbbf1fcc954c3dab26cd27ea0e2a6750da5d7610cc98133611d47565b60975460ff1615610cef5760405160e560020a62461bcd0281526004016109ee906130e0565b610cf884612214565b60405184907f196c47048e38df7a4fe6e581c8f4f2e2ba67ac0dd45b90da756e97bd61d9dd3b90600090a2610d2e838386612279565b50505050565b600080516020613437833981519152610d4d8133611d47565b8160005b818110156109af5760cd6000868684818110610d6f57610d6f613382565b9050602002016020810190610d849190612bda565b600160a060020a0316815260208101919091526040016000208054600160a060020a031916905580610db58161334e565b915050610d51565b333014610e0f5760405160e560020a62461bcd02815260206004820152601c60248201527f54686973206d6574686f642072657175697265206d756c74697369670000000060448201526064016109ee565b60005b82811015610e7c57610e6a7fb7f2fcb7a10916921b74b9baa8ea85f89b12ab12f6ededa160998f8b20e65f95858584818110610e5057610e50613382565b9050602002016020810190610e659190612bda565b612307565b80610e748161334e565b915050610e12565b50610a5e7f516d5e7ed3e60a6b2804c1554cd94bc2eb576e44b192a0e069d4c527589a887e82612307565b60ca54610ef95760405160e560020a62461bcd02815260206004820152600e60248201527f517565756520697320656d70747900000000000000000000000000000000000060448201526064016109ee565b60d68054906000610f098361334e565b919050557fe15729a2f427aa4572dab35eb692c902fcbce57d41642013259c741380809ae260ca604051610f3d9190613006565b60405180910390a2610f5160ca6000612afa565b565b7fb7f2fcb7a10916921b74b9baa8ea85f89b12ab12f6ededa160998f8b20e65f95610f7e8133611d47565b610c5e612311565b600080516020613437833981519152610f9f8133611d47565b50600160a060020a03918216600090815260cd602052604090208054600160a060020a03191691909216179055565b60975460ff1615610ff45760405160e560020a62461bcd0281526004016109ee906130e0565b60cc545b600081815260cb60209081526040808320815181546060948102820185018452928101838152909391928492849190879085015b8282101561108657600084815260209081902060408051606081018252600386029092018054600160a060020a0390811684526001808301549091168486015260029091015491830191909152908352909201910161102c565b50505050815260200160018201548152505090508060200151600014806110b05750428160200151115b156110bb575060cc55565b80516110c69061236c565b600082815260cb60205260408120906110df8282612afa565b50600060019190910181905560405183917f78ff9b3176bb0d6421590f3816e75cb15a9ffa2b7a1a028f40a3f4e029eb39f291a2508061111e8161334e565b915050610ff8565b60008051602061343783398151915261113f8133611d47565b50600160a060020a0316600090815260cd602052604090208054600160a060020a0319169055565b60ce54600160a060020a03908116600090815260cd602052604090205416806111d55760405160e560020a62461bcd02815260206004820152601560248201527f556e6b6e6f776e20746f6b656e2061646472657373000000000000000000000060448201526064016109ee565b6111df8284613298565b34116112305760405160e560020a62461bcd02815260206004820152601160248201527f53656e742076616c7565203c3d2066656500000000000000000000000000000060448201526064016109ee565b60008261123d85346132f4565b61124791906132f4565b60ce5490915061126490600160a060020a03168787878786612600565b60cf54604051600160a060020a039091169085156108fc029086906000818181858888f1935050505015801561129e573d6000803e3d6000fd5b5060d054604051600160a060020a039091169084156108fc029085906000818181858888f193505050501580156112d9573d6000803e3d6000fd5b5060ce60009054906101000a9004600160a060020a0316600160a060020a031663d0e30db0826040518263ffffffff1660e060020a0281526004016000604051808303818588803b15801561132d57600080fd5b505af1158015611341573d6000803e3d6000fd5b505060408051606081018252600160a060020a0380881682528c81166020830190815282840188815260ca80546001810182556000918252945160039095027f42d72674974f694b5f5159593243114d38a5c39c89d6b62fee061ff523240ee181018054968616600160a060020a031997881617905592517f42d72674974f694b5f5159593243114d38a5c39c89d6b62fee061ff523240ee2840180549190951695169490941790925590517f42d72674974f694b5f5159593243114d38a5c39c89d6b62fee061ff523240ee39091015560d65491513395507f3b823d3b837159352faddd1e0b9e9f584ca2bfe976238f6a9e6da4615cf2f444945061147e9350879087908b908b90958652600160a060020a0394851660208701529290931660408501526060840152608083019190915260a082015260c00190565b60405180910390a261148e6127a6565b50505050505050565b6000918252606560209081526040808420600160a060020a0393909316845291905290205460ff1690565b6000805160206134378339815191526114db8133611d47565b5060d455565b6000805160206134378339815191526114fa8133611d47565b5060cf8054600160a060020a031916600160a060020a0392909216919091179055565b6000805160206134378339815191526115368133611d47565b60975460ff1661155b5760405160e560020a62461bcd0281526004016109ee906130a9565b60cc548210156115805760405160e560020a62461bcd0281526004016109ee90613174565b61158b6001836132f4565b60d5555060cc55565b6000828152606560205260409020600101546115b08133611d47565b610a5e838361213e565b604080518082019091526060815260006020820152600082815260cb60209081526040808320815181546060948102820185018452928101838152909491938593919285929185015b8282101561165d57600084815260209081902060408051606081018252600386029092018054600160a060020a03908116845260018083015490911684860152600290910154918301919091529083529092019101611603565b5050505081526020016001820154815250509050919050565b60008051602061343783398151915261168f8133611d47565b5060c955565b60975460ff16156116bb5760405160e560020a62461bcd0281526004016109ee906130e0565b60cc54811461170f5760405160e560020a62461bcd02815260206004820152601c60248201527f63616e20756e6c6f636b206f6e6c79206f6c64657374206576656e740000000060448201526064016109ee565b600081815260cb60209081526040808320815181546060948102820185018452928101838152909391928492849190879085015b8282101561179d57600084815260209081902060408051606081018252600386029092018054600160a060020a03908116845260018083015490911684860152600290910154918301919091529083529092019101611743565b505050508152602001600182015481525050905060008160200151116118085760405160e560020a62461bcd02815260206004820181905260248201527f6e6f206c6f636b6564207472616e73666572732077697468207468697320696460448201526064016109ee565b4281602001511061185e5760405160e560020a62461bcd02815260206004820152601b60248201527f6c6f636b54696d6520686173206e6f742079657420706173736564000000000060448201526064016109ee565b80516118699061236c565b600082815260cb60205260408120906118828282612afa565b50600060019190910181905560405183917f78ff9b3176bb0d6421590f3816e75cb15a9ffa2b7a1a028f40a3f4e029eb39f291a26118c1826001613298565b60cc555050565b6000851561195d576000805260cd6020527fcd565b10a72538d86f6d352f37ebc5dff31587960b12c0afe00fd03947a6932a54600160a060020a038a81169116146119585760405160e560020a62461bcd02815260206004820152601f60248201527f546f6b656e206e6f7420706f696e7420746f206e617469766520746f6b656e0060448201526064016109ee565b6119c9565b50600160a060020a03808916600090815260cd602052604090205416806119c95760405160e560020a62461bcd02815260206004820152601560248201527f556e6b6e6f776e20746f6b656e2061646472657373000000000000000000000060448201526064016109ee565b6119d38284613298565b3414611a245760405160e560020a62461bcd02815260206004820152601160248201527f53656e742076616c756520213d2066656500000000000000000000000000000060448201526064016109ee565b60008711611a775760405160e560020a62461bcd02815260206004820152601160248201527f43616e6e6f74207769746864726177203000000000000000000000000000000060448201526064016109ee565b611a8589868686868c612600565b60cf54604051600160a060020a039091169084156108fc029085906000818181858888f19350505050158015611abf573d6000803e3d6000fd5b5060d054604051600160a060020a039091169083156108fc029084906000818181858888f19350505050158015611afa573d6000803e3d6000fd5b506040517f23b872dd00000000000000000000000000000000000000000000000000000000815233600482015230602482015260448101889052600160a060020a038a16906323b872dd90606401602060405180830381600087803b158015611b6257600080fd5b505af1158015611b76573d6000803e3d6000fd5b505050506040513d601f19601f82011682018060405250810190611b9a9190612e30565b611be95760405160e560020a62461bcd02815260206004820152601360248201527f4661696c207472616e7366657220636f696e730000000000000000000000000060448201526064016109ee565b6040805160608082018352600160a060020a038481168084528c821660208086019182528587018e815260ca8054600181018255600091909152965160039097027f42d72674974f694b5f5159593243114d38a5c39c89d6b62fee061ff523240ee181018054988716600160a060020a0319998a1617905592517f42d72674974f694b5f5159593243114d38a5c39c89d6b62fee061ff523240ee284018054918716919098161790965594517f42d72674974f694b5f5159593243114d38a5c39c89d6b62fee061ff523240ee39091015560d6548551908152918e16938201939093529283019190915281018890526080810184905260a0810183905233907f3b823d3b837159352faddd1e0b9e9f584ca2bfe976238f6a9e6da4615cf2f4449060c00160405180910390a2611d1d6127a6565b505050505050505050565b600080516020613437833981519152611d418133611d47565b5060d255565b611d518282611497565b610a3457611d6981600160a060020a0316601461281e565b611d7483602061281e565b604051602001611d85929190612f85565b60408051601f198184030181529082905260e560020a62461bcd0282526109ee91600401613076565b828114611e265760405160e560020a62461bcd02815260206004820152603f60248201527f73697a6573206f6620746f6b656e5468697341646472657373657320616e642060448201527f746f6b656e53696465416464726573736573206d7573742062652073616d650060648201526084016109ee565b8260005b81811015611ec757838382818110611e4457611e44613382565b9050602002016020810190611e599190612bda565b60cd6000888885818110611e6f57611e6f613382565b9050602002016020810190611e849190612bda565b600160a060020a03908116825260208201929092526040016000208054600160a060020a0319169290911691909117905580611ebf8161334e565b915050611e2a565b505050505050565b600054610100900460ff1680611ee8575060005460ff16155b611f075760405160e560020a62461bcd0281526004016109ee90613117565b600054610100900460ff16158015611f29576000805461ffff19166101011790555b611f34600033612307565b611f687f077a1d526a4ce8a773632ab13b4fbbf1fcc954c3dab26cd27ea0e2a6750da5d7610e656060850160408601612bda565b611f8a600080516020613437833981519152610e656040850160208601612bda565b611fac611f9a608084018461324f565b611fa760a086018661324f565b611dae565b611fbc6080830160608401612bda565b60ce8054600160a060020a031916600160a060020a0392909216919091179055611fe96020830183612bda565b60d18054600160a060020a031916600160a060020a039290921691909117905561201960e0830160c08401612bda565b60cf8054600160a060020a031916600160a060020a039290921691909117905561204a610100830160e08401612bda565b60d08054600160a060020a031916600160a060020a039290921691909117905561014082013560d25561010082013560d381905561012083013560d455600160cc81905560d655600360c9556120a090426132b0565b60d7558015610a34576000805461ff00191690555050565b6120c28282611497565b610a34576000828152606560209081526040808320600160a060020a03851684529091529020805460ff191660011790556120fa3390565b600160a060020a031681600160a060020a0316837f2f8788117e7eff1d82e926ec794901d17c78024a50270940304540a733656f0d60405160405180910390a45050565b6121488282611497565b15610a34576000828152606560209081526040808320600160a060020a0385168085529252808320805460ff1916905551339285917ff6391f5c32d9c69d2a47ea670b442974b53935d1edc7fd64eb21e047a839171b9190a45050565b60975460ff166121ca5760405160e560020a62461bcd0281526004016109ee906130a9565b6097805460ff191690557f5db9ee0a495bf2e6ff9c91a7834c1ba4fdd244a5e8aa4e537bd38aeae4b073aa335b604051600160a060020a03909116815260200160405180910390a1565b60d5600081546122239061334e565b91829055508114610c5e5760405160e560020a62461bcd02815260206004820152601460248201527f4576656e744964206f7574206f66206f7264657200000000000000000000000060448201526064016109ee565b60d4546122869042613298565b600082815260cb60205260408120600101919091555b82811015610d2e57600082815260cb602052604090208484838181106122c4576122c4613382565b8354600181018555600094855260209094206060909102929092019260030290910190506122f282826133b4565b505080806122ff9061334e565b91505061229c565b610a3482826120b8565b60975460ff16156123375760405160e560020a62461bcd0281526004016109ee906130e0565b6097805460ff191660011790557f62e78cea01bee320cd4e420270b5ea74000d11b0c9f74754ebdbfc544b05a2586121f73390565b60005b8151811015610a34576000600160a060020a031682828151811061239557612395613382565b602002602001015160000151600160a060020a031614156124b15760ce548251600160a060020a0390911690632e1a7d4d908490849081106123d9576123d9613382565b6020026020010151604001516040518263ffffffff1660e060020a02815260040161240691815260200190565b600060405180830381600087803b15801561242057600080fd5b505af1158015612434573d6000803e3d6000fd5b5050505081818151811061244a5761244a613382565b602002602001015160200151600160a060020a03166108fc83838151811061247457612474613382565b6020026020010151604001519081150290604051600060405180830381858888f193505050501580156124ab573d6000803e3d6000fd5b506125ee565b8181815181106124c3576124c3613382565b602002602001015160000151600160a060020a031663a9059cbb8383815181106124ef576124ef613382565b60200260200101516020015184848151811061250d5761250d613382565b6020026020010151604001516040518363ffffffff1660e060020a02815260040161254d929190600160a060020a03929092168252602082015260400190565b602060405180830381600087803b15801561256757600080fd5b505af115801561257b573d6000803e3d6000fd5b505050506040513d601f19601f8201168201806040525081019061259f9190612e30565b6125ee5760405160e560020a62461bcd02815260206004820152601360248201527f4661696c207472616e7366657220636f696e730000000000000000000000000060448201526064016109ee565b806125f88161334e565b91505061236f565b60008080612610610708426132b0565b905060005b60c95481101561275a576040516c01000000000000000000000000600160a060020a038c160260208201526034810183905260548101889052607481018790526094810186905260b40160408051601f198184030181529082905280516020918201207f19457468657265756d205369676e6564204d6573736167653a0a33320000000091830191909152603c820152605c01604051602081830303815290604052805190602001209350612700848a8a8080601f016020809104026020016040519081016040528093929190818152602001838380828437600092019190915250612a6f92505050565b925061272c7f516d5e7ed3e60a6b2804c1554cd94bc2eb576e44b192a0e069d4c527589a887e84611497565b1561273a5750505050611ec7565b8161274481613337565b92505080806127529061334e565b915050612615565b5060405160e560020a62461bcd02815260206004820152601660248201527f5369676e617475726520636865636b206661696c65640000000000000000000060448201526064016109ee565b600060d354426127b691906132b0565b905060d7548114610c5e5760d680549060006127d18361334e565b919050557fe15729a2f427aa4572dab35eb692c902fcbce57d41642013259c741380809ae260ca6040516128059190613006565b60405180910390a261281960ca6000612afa565b60d755565b6060600061282d8360026132d5565b612838906002613298565b67ffffffffffffffff8111156128505761285061339b565b6040519080825280601f01601f19166020018201604052801561287a576020820181803683370190505b5090507f3000000000000000000000000000000000000000000000000000000000000000816000815181106128b1576128b1613382565b60200101907effffffffffffffffffffffffffffffffffffffffffffffffffffffffffffff1916908160001a9053507f78000000000000000000000000000000000000000000000000000000000000008160018151811061291457612914613382565b60200101907effffffffffffffffffffffffffffffffffffffffffffffffffffffffffffff1916908160001a90535060006129508460026132d5565b61295b906001613298565b90505b6001811115612a16577f303132333435363738396162636465660000000000000000000000000000000085600f166010811061299c5761299c613382565b1a7f0100000000000000000000000000000000000000000000000000000000000000028282815181106129d1576129d1613382565b60200101907effffffffffffffffffffffffffffffffffffffffffffffffffffffffffffff1916908160001a905350601090940493612a0f81613337565b905061295e565b508315612a685760405160e560020a62461bcd02815260206004820181905260248201527f537472696e67733a20686578206c656e67746820696e73756666696369656e7460448201526064016109ee565b9392505050565b6020810151604082015160608301516000929190831a601b811015612a9257601b015b60408051600081526020810180835288905260ff831691810191909152606081018490526080810183905260019060a0016020604051602081039080840390855afa158015612ae5573d6000803e3d6000fd5b5050604051601f190151979650505050505050565b5080546000825560030290600052602060002090810190610c5e91905b80821115612b49578054600160a060020a03199081168255600182018054909116905560006002820155600301612b17565b5090565b60008083601f840112612b5f57600080fd5b50813567ffffffffffffffff811115612b7757600080fd5b6020830191508360208083028501011115612b9157600080fd5b9250929050565b60008083601f840112612baa57600080fd5b50813567ffffffffffffffff811115612bc257600080fd5b602083019150836020828501011115612b9157600080fd5b600060208284031215612bec57600080fd5b8135612a6881613413565b60008060408385031215612c0a57600080fd5b8235612c1581613413565b91506020830135612c2581613413565b809150509250929050565b60008060008060008060008060e0898b031215612c4c57600080fd5b8835612c5781613413565b97506020890135612c6781613413565b9650604089013595506060890135612c7e81613428565b9450608089013567ffffffffffffffff811115612c9a57600080fd5b612ca68b828c01612b98565b999c989b5096999598969760a08701359660c0013595509350505050565b600080600080600060808688031215612cdc57600080fd5b8535612ce781613413565b9450602086013567ffffffffffffffff811115612d0357600080fd5b612d0f88828901612b98565b9699909850959660408101359660609091013595509350505050565b60008060208385031215612d3e57600080fd5b823567ffffffffffffffff811115612d5557600080fd5b612d6185828601612b4d565b90969095509350505050565b600080600060408486031215612d8257600080fd5b833567ffffffffffffffff811115612d9957600080fd5b612da586828701612b4d565b9094509250506020840135612db981613413565b809150509250925092565b60008060008060408587031215612dda57600080fd5b843567ffffffffffffffff80821115612df257600080fd5b612dfe88838901612b4d565b90965094506020870135915080821115612e1757600080fd5b50612e2487828801612b4d565b95989497509550505050565b600060208284031215612e4257600080fd5b8151612a6881613428565b600060208284031215612e5f57600080fd5b5035919050565b60008060408385031215612e7957600080fd5b823591506020830135612c2581613413565b600060208284031215612e9d57600080fd5b81357bffffffffffffffffffffffffffffffffffffffffffffffffffffffff1981168114612a6857600080fd5b600060208284031215612edc57600080fd5b813567ffffffffffffffff811115612ef357600080fd5b82016101608185031215612a6857600080fd5b600080600060408486031215612f1b57600080fd5b83359250602084013567ffffffffffffffff80821115612f3a57600080fd5b818601915086601f830112612f4e57600080fd5b813581811115612f5d57600080fd5b876020606083028501011115612f7257600080fd5b6020830194508093505050509250925092565b7f416363657373436f6e74726f6c3a206163636f756e7420000000000000000000815260008351612fbd81601785016020880161330b565b7f206973206d697373696e6720726f6c65200000000000000000000000000000006017918401918201528351612ffa81602884016020880161330b565b01602801949350505050565b60006020808301818452808554808352604092508286019150866000528360002060005b82811015613069578154600160a060020a039081168552600180840154909116878601526002830154868601526060909401936003909201910161302a565b5091979650505050505050565b602081526000825180602084015261309581604085016020870161330b565b601f01601f19169190910160400192915050565b60208082526014908201527f5061757361626c653a206e6f7420706175736564000000000000000000000000604082015260600190565b60208082526010908201527f5061757361626c653a2070617573656400000000000000000000000000000000604082015260600190565b6020808252602e908201527f496e697469616c697a61626c653a20636f6e747261637420697320616c72656160408201527f647920696e697469616c697a6564000000000000000000000000000000000000606082015260800190565b60208082526026908201527f6576656e744964206d757374206265203e3d206f6c646573744c6f636b65644560408201527f76656e7449640000000000000000000000000000000000000000000000000000606082015260800190565b6000602080835260608084018551604080858801528282518085526080890191508684019450600093505b808410156132395784518051600160a060020a039081168452888201511688840152830151838301529386019360019390930192908501906131fc565b5094909701519590960194909452509392505050565b6000808335601e1984360301811261326657600080fd5b83018035915067ffffffffffffffff82111561328157600080fd5b6020908101925081023603821315612b9157600080fd5b600082198211156132ab576132ab613369565b500190565b6000826132d05760e060020a634e487b7102600052601260045260246000fd5b500490565b60008160001904831182151516156132ef576132ef613369565b500290565b60008282101561330657613306613369565b500390565b60005b8381101561332657818101518382015260200161330e565b83811115610d2e5750506000910152565b60008161334657613346613369565b506000190190565b600060001982141561336257613362613369565b5060010190565b60e060020a634e487b7102600052601160045260246000fd5b60e060020a634e487b7102600052603260045260246000fd5b60e060020a634e487b7102600052604160045260246000fd5b81356133bf81613413565b8154600160a060020a031916600160a060020a0382161782555060208201356133e781613413565b600182018054600160a060020a031916600160a060020a03831617905550604082013560028201555050565b600160a060020a0381168114610c5e57600080fd5b8015158114610c5e57600080fdfea49807205ce4d355092ef5a8a18f56e8913cf4a201fbe287825b095693c21775a2646970667358221220aab793e4b88a6b9b746436c13910dd39ac6de797eee556e0c0c1abdc4582c7c364736f6c63430008060033",
  "devdoc": {
    "kind": "dev",
    "methods": {
      "getRoleAdmin(bytes32)": {
        "details": "Returns the admin role that controls `role`. See {grantRole} and {revokeRole}. To change a role's admin, use {_setRoleAdmin}."
      },
      "grantRole(bytes32,address)": {
        "details": "Grants `role` to `account`. If `account` had not been already granted `role`, emits a {RoleGranted} event. Requirements: - the caller must have ``role``'s admin role."
      },
      "hasRole(bytes32,address)": {
        "details": "Returns `true` if `account` has been granted `role`."
      },
      "paused()": {
        "details": "Returns true if the contract is paused, and false otherwise."
      },
      "renounceRole(bytes32,address)": {
        "details": "Revokes `role` from the calling account. Roles are often managed via {grantRole} and {revokeRole}: this function's purpose is to provide a mechanism for accounts to lose their privileges if they are compromised (such as when a trusted device is misplaced). If the calling account had been granted `role`, emits a {RoleRevoked} event. Requirements: - the caller must be `account`."
      },
      "revokeRole(bytes32,address)": {
        "details": "Revokes `role` from `account`. If `account` had been granted `role`, emits a {RoleRevoked} event. Requirements: - the caller must have ``role``'s admin role."
      },
      "supportsInterface(bytes4)": {
        "details": "See {IERC165-supportsInterface}."
      },
      "withdraw(address,address,uint256,bool,bytes,uint256,uint256)": {
        "params": {
          "bridgeFee": "Amount (in native coins), payed as bridge earnings",
          "feeSignature": "Signature signed by relay that confirms that the fee values are valid",
          "transferFee": "Amount (in native coins), payed to compensate gas fees in side network"
        }
      },
      "wrapWithdraw(address,bytes,uint256,uint256)": {
        "params": {
          "bridgeFee": "Amount (in native coins), payed as bridge earnings",
          "feeSignature": "Signature signed by relay that confirms that the fee values are valid",
          "toAddress": "Address in side network that will receive the tokens",
          "transferFee": "Amount (in native coins), payed to compensate gas fees in side network"
        }
      }
    },
    "version": 1
  },
  "userdoc": {
    "kind": "user",
    "methods": {},
    "version": 1
  },
  "storageLayout": {
    "storage": [
      {
        "astId": 413,
        "contract": "contracts/networks/ETH_EthBridge.sol:ETH_EthBridge",
        "label": "_initialized",
        "offset": 0,
        "slot": "0",
        "type": "t_bool"
      },
      {
        "astId": 416,
        "contract": "contracts/networks/ETH_EthBridge.sol:ETH_EthBridge",
        "label": "_initializing",
        "offset": 1,
        "slot": "0",
        "type": "t_bool"
      },
      {
        "astId": 609,
        "contract": "contracts/networks/ETH_EthBridge.sol:ETH_EthBridge",
        "label": "__gap",
        "offset": 0,
        "slot": "1",
        "type": "t_array(t_uint256)50_storage"
      },
      {
        "astId": 858,
        "contract": "contracts/networks/ETH_EthBridge.sol:ETH_EthBridge",
        "label": "__gap",
        "offset": 0,
        "slot": "51",
        "type": "t_array(t_uint256)50_storage"
      },
      {
        "astId": 48,
        "contract": "contracts/networks/ETH_EthBridge.sol:ETH_EthBridge",
        "label": "_roles",
        "offset": 0,
        "slot": "101",
        "type": "t_mapping(t_bytes32,t_struct(RoleData)43_storage)"
      },
      {
        "astId": 333,
        "contract": "contracts/networks/ETH_EthBridge.sol:ETH_EthBridge",
        "label": "__gap",
        "offset": 0,
        "slot": "102",
        "type": "t_array(t_uint256)49_storage"
      },
      {
        "astId": 474,
        "contract": "contracts/networks/ETH_EthBridge.sol:ETH_EthBridge",
        "label": "_paused",
        "offset": 0,
        "slot": "151",
        "type": "t_bool"
      },
      {
        "astId": 565,
        "contract": "contracts/networks/ETH_EthBridge.sol:ETH_EthBridge",
        "label": "__gap",
        "offset": 0,
        "slot": "152",
        "type": "t_array(t_uint256)49_storage"
      },
      {
        "astId": 6726,
        "contract": "contracts/networks/ETH_EthBridge.sol:ETH_EthBridge",
        "label": "signatureFeeCheckNumber",
        "offset": 0,
        "slot": "201",
        "type": "t_uint256"
      },
      {
        "astId": 6730,
        "contract": "contracts/networks/ETH_EthBridge.sol:ETH_EthBridge",
        "label": "queue",
        "offset": 0,
        "slot": "202",
        "type": "t_array(t_struct(Transfer)7843_storage)dyn_storage"
      },
      {
        "astId": 6735,
        "contract": "contracts/networks/ETH_EthBridge.sol:ETH_EthBridge",
        "label": "lockedTransfers",
        "offset": 0,
        "slot": "203",
        "type": "t_mapping(t_uint256,t_struct(LockedTransfers)7860_storage)"
      },
      {
        "astId": 6737,
        "contract": "contracts/networks/ETH_EthBridge.sol:ETH_EthBridge",
        "label": "oldestLockedEventId",
        "offset": 0,
        "slot": "204",
        "type": "t_uint256"
      },
      {
        "astId": 6741,
        "contract": "contracts/networks/ETH_EthBridge.sol:ETH_EthBridge",
        "label": "tokenAddresses",
        "offset": 0,
        "slot": "205",
        "type": "t_mapping(t_address,t_address)"
      },
      {
        "astId": 6743,
        "contract": "contracts/networks/ETH_EthBridge.sol:ETH_EthBridge",
        "label": "wrapperAddress",
        "offset": 0,
        "slot": "206",
        "type": "t_address"
      },
      {
        "astId": 6745,
        "contract": "contracts/networks/ETH_EthBridge.sol:ETH_EthBridge",
        "label": "transferFeeRecipient",
        "offset": 0,
        "slot": "207",
        "type": "t_address_payable"
      },
      {
        "astId": 6747,
        "contract": "contracts/networks/ETH_EthBridge.sol:ETH_EthBridge",
        "label": "bridgeFeeRecipient",
        "offset": 0,
        "slot": "208",
        "type": "t_address_payable"
      },
      {
        "astId": 6749,
        "contract": "contracts/networks/ETH_EthBridge.sol:ETH_EthBridge",
        "label": "sideBridgeAddress",
        "offset": 0,
        "slot": "209",
        "type": "t_address"
      },
      {
        "astId": 6751,
        "contract": "contracts/networks/ETH_EthBridge.sol:ETH_EthBridge",
        "label": "minSafetyBlocks",
        "offset": 0,
        "slot": "210",
        "type": "t_uint256"
      },
      {
        "astId": 6753,
        "contract": "contracts/networks/ETH_EthBridge.sol:ETH_EthBridge",
        "label": "timeframeSeconds",
        "offset": 0,
        "slot": "211",
        "type": "t_uint256"
      },
      {
        "astId": 6755,
        "contract": "contracts/networks/ETH_EthBridge.sol:ETH_EthBridge",
        "label": "lockTime",
        "offset": 0,
        "slot": "212",
        "type": "t_uint256"
      },
      {
        "astId": 6757,
        "contract": "contracts/networks/ETH_EthBridge.sol:ETH_EthBridge",
        "label": "inputEventId",
        "offset": 0,
        "slot": "213",
        "type": "t_uint256"
      },
      {
        "astId": 6759,
        "contract": "contracts/networks/ETH_EthBridge.sol:ETH_EthBridge",
        "label": "outputEventId",
        "offset": 0,
        "slot": "214",
        "type": "t_uint256"
      },
      {
        "astId": 6761,
        "contract": "contracts/networks/ETH_EthBridge.sol:ETH_EthBridge",
        "label": "lastTimeframe",
        "offset": 0,
        "slot": "215",
        "type": "t_uint256"
      },
      {
        "astId": 7833,
        "contract": "contracts/networks/ETH_EthBridge.sol:ETH_EthBridge",
        "label": "__gap",
        "offset": 0,
        "slot": "216",
        "type": "t_array(t_uint256)15_storage"
      },
      {
        "astId": 6656,
        "contract": "contracts/networks/ETH_EthBridge.sol:ETH_EthBridge",
        "label": "___gap",
        "offset": 0,
        "slot": "231",
        "type": "t_array(t_uint256)15_storage"
      }
    ],
    "types": {
      "t_address": {
        "encoding": "inplace",
        "label": "address",
        "numberOfBytes": "20"
      },
      "t_address_payable": {
        "encoding": "inplace",
        "label": "address payable",
        "numberOfBytes": "20"
      },
      "t_array(t_struct(Transfer)7843_storage)dyn_storage": {
        "base": "t_struct(Transfer)7843_storage",
        "encoding": "dynamic_array",
        "label": "struct CommonStructs.Transfer[]",
        "numberOfBytes": "32"
      },
      "t_array(t_uint256)15_storage": {
        "base": "t_uint256",
        "encoding": "inplace",
        "label": "uint256[15]",
        "numberOfBytes": "480"
      },
      "t_array(t_uint256)49_storage": {
        "base": "t_uint256",
        "encoding": "inplace",
        "label": "uint256[49]",
        "numberOfBytes": "1568"
      },
      "t_array(t_uint256)50_storage": {
        "base": "t_uint256",
        "encoding": "inplace",
        "label": "uint256[50]",
        "numberOfBytes": "1600"
      },
      "t_bool": {
        "encoding": "inplace",
        "label": "bool",
        "numberOfBytes": "1"
      },
      "t_bytes32": {
        "encoding": "inplace",
        "label": "bytes32",
        "numberOfBytes": "32"
      },
      "t_mapping(t_address,t_address)": {
        "encoding": "mapping",
        "key": "t_address",
        "label": "mapping(address => address)",
        "numberOfBytes": "32",
        "value": "t_address"
      },
      "t_mapping(t_address,t_bool)": {
        "encoding": "mapping",
        "key": "t_address",
        "label": "mapping(address => bool)",
        "numberOfBytes": "32",
        "value": "t_bool"
      },
      "t_mapping(t_bytes32,t_struct(RoleData)43_storage)": {
        "encoding": "mapping",
        "key": "t_bytes32",
        "label": "mapping(bytes32 => struct AccessControlUpgradeable.RoleData)",
        "numberOfBytes": "32",
        "value": "t_struct(RoleData)43_storage"
      },
      "t_mapping(t_uint256,t_struct(LockedTransfers)7860_storage)": {
        "encoding": "mapping",
        "key": "t_uint256",
        "label": "mapping(uint256 => struct CommonStructs.LockedTransfers)",
        "numberOfBytes": "32",
        "value": "t_struct(LockedTransfers)7860_storage"
      },
      "t_struct(LockedTransfers)7860_storage": {
        "encoding": "inplace",
        "label": "struct CommonStructs.LockedTransfers",
        "members": [
          {
            "astId": 7857,
            "contract": "contracts/networks/ETH_EthBridge.sol:ETH_EthBridge",
            "label": "transfers",
            "offset": 0,
            "slot": "0",
            "type": "t_array(t_struct(Transfer)7843_storage)dyn_storage"
          },
          {
            "astId": 7859,
            "contract": "contracts/networks/ETH_EthBridge.sol:ETH_EthBridge",
            "label": "endTimestamp",
            "offset": 0,
            "slot": "1",
            "type": "t_uint256"
          }
        ],
        "numberOfBytes": "64"
      },
      "t_struct(RoleData)43_storage": {
        "encoding": "inplace",
        "label": "struct AccessControlUpgradeable.RoleData",
        "members": [
          {
            "astId": 40,
            "contract": "contracts/networks/ETH_EthBridge.sol:ETH_EthBridge",
            "label": "members",
            "offset": 0,
            "slot": "0",
            "type": "t_mapping(t_address,t_bool)"
          },
          {
            "astId": 42,
            "contract": "contracts/networks/ETH_EthBridge.sol:ETH_EthBridge",
            "label": "adminRole",
            "offset": 0,
            "slot": "1",
            "type": "t_bytes32"
          }
        ],
        "numberOfBytes": "64"
      },
      "t_struct(Transfer)7843_storage": {
        "encoding": "inplace",
        "label": "struct CommonStructs.Transfer",
        "members": [
          {
            "astId": 7838,
            "contract": "contracts/networks/ETH_EthBridge.sol:ETH_EthBridge",
            "label": "tokenAddress",
            "offset": 0,
            "slot": "0",
            "type": "t_address"
          },
          {
            "astId": 7840,
            "contract": "contracts/networks/ETH_EthBridge.sol:ETH_EthBridge",
            "label": "toAddress",
            "offset": 0,
            "slot": "1",
            "type": "t_address"
          },
          {
            "astId": 7842,
            "contract": "contracts/networks/ETH_EthBridge.sol:ETH_EthBridge",
            "label": "amount",
            "offset": 0,
            "slot": "2",
            "type": "t_uint256"
          }
        ],
        "numberOfBytes": "96"
      },
      "t_uint256": {
        "encoding": "inplace",
        "label": "uint256",
        "numberOfBytes": "32"
      }
    }
  }
}