{
  "address": "0xf4B5713CaC918C9755B8aFF2EB5ae14c5991b7B5",
  "abi": [
    {
      "anonymous": false,
      "inputs": [
        {
          "indexed": false,
          "internalType": "address",
          "name": "account",
          "type": "address"
        }
      ],
      "name": "Paused",
      "type": "event"
    },
    {
      "anonymous": false,
      "inputs": [
        {
          "indexed": true,
          "internalType": "bytes32",
          "name": "role",
          "type": "bytes32"
        },
        {
          "indexed": true,
          "internalType": "bytes32",
          "name": "previousAdminRole",
          "type": "bytes32"
        },
        {
          "indexed": true,
          "internalType": "bytes32",
          "name": "newAdminRole",
          "type": "bytes32"
        }
      ],
      "name": "RoleAdminChanged",
      "type": "event"
    },
    {
      "anonymous": false,
      "inputs": [
        {
          "indexed": true,
          "internalType": "bytes32",
          "name": "role",
          "type": "bytes32"
        },
        {
          "indexed": true,
          "internalType": "address",
          "name": "account",
          "type": "address"
        },
        {
          "indexed": true,
          "internalType": "address",
          "name": "sender",
          "type": "address"
        }
      ],
      "name": "RoleGranted",
      "type": "event"
    },
    {
      "anonymous": false,
      "inputs": [
        {
          "indexed": true,
          "internalType": "bytes32",
          "name": "role",
          "type": "bytes32"
        },
        {
          "indexed": true,
          "internalType": "address",
          "name": "account",
          "type": "address"
        },
        {
          "indexed": true,
          "internalType": "address",
          "name": "sender",
          "type": "address"
        }
      ],
      "name": "RoleRevoked",
      "type": "event"
    },
    {
      "anonymous": false,
      "inputs": [
        {
          "indexed": true,
          "internalType": "uint256",
          "name": "eventId",
          "type": "uint256"
        },
        {
          "components": [
            {
              "internalType": "address",
              "name": "tokenAddress",
              "type": "address"
            },
            {
              "internalType": "address",
              "name": "toAddress",
              "type": "address"
            },
            {
              "internalType": "uint256",
              "name": "amount",
              "type": "uint256"
            }
          ],
          "indexed": false,
          "internalType": "struct CommonStructs.Transfer[]",
          "name": "queue",
          "type": "tuple[]"
        }
      ],
      "name": "Transfer",
      "type": "event"
    },
    {
      "anonymous": false,
      "inputs": [
        {
          "indexed": true,
          "internalType": "uint256",
          "name": "eventId",
          "type": "uint256"
        }
      ],
      "name": "TransferFinish",
      "type": "event"
    },
    {
      "anonymous": false,
      "inputs": [
        {
          "indexed": true,
          "internalType": "uint256",
          "name": "eventId",
          "type": "uint256"
        }
      ],
      "name": "TransferSubmit",
      "type": "event"
    },
    {
      "anonymous": false,
      "inputs": [
        {
          "indexed": false,
          "internalType": "address",
          "name": "account",
          "type": "address"
        }
      ],
      "name": "Unpaused",
      "type": "event"
    },
    {
      "anonymous": false,
      "inputs": [
        {
          "indexed": true,
          "internalType": "address",
          "name": "from",
          "type": "address"
        },
        {
          "indexed": false,
          "internalType": "uint256",
          "name": "eventId",
          "type": "uint256"
        },
        {
          "indexed": false,
          "internalType": "address",
          "name": "tokenFrom",
          "type": "address"
        },
        {
          "indexed": false,
          "internalType": "address",
          "name": "tokenTo",
          "type": "address"
        },
        {
          "indexed": false,
          "internalType": "uint256",
          "name": "amount",
          "type": "uint256"
        },
        {
          "indexed": false,
          "internalType": "uint256",
          "name": "transferFeeAmount",
          "type": "uint256"
        },
        {
          "indexed": false,
          "internalType": "uint256",
          "name": "bridgeFeeAmount",
          "type": "uint256"
        }
      ],
      "name": "Withdraw",
      "type": "event"
    },
    {
      "inputs": [],
      "name": "ADMIN_ROLE",
      "outputs": [
        {
          "internalType": "bytes32",
          "name": "",
          "type": "bytes32"
        }
      ],
      "stateMutability": "view",
      "type": "function"
    },
    {
      "inputs": [],
      "name": "DEFAULT_ADMIN_ROLE",
      "outputs": [
        {
          "internalType": "bytes32",
          "name": "",
          "type": "bytes32"
        }
      ],
      "stateMutability": "view",
      "type": "function"
    },
    {
      "inputs": [],
      "name": "FEE_PROVIDER_ROLE",
      "outputs": [
        {
          "internalType": "bytes32",
          "name": "",
          "type": "bytes32"
        }
      ],
      "stateMutability": "view",
      "type": "function"
    },
    {
      "inputs": [],
      "name": "RELAY_ROLE",
      "outputs": [
        {
          "internalType": "bytes32",
          "name": "",
          "type": "bytes32"
        }
      ],
      "stateMutability": "view",
      "type": "function"
    },
    {
      "inputs": [],
      "name": "WATCHDOG_ROLE",
      "outputs": [
        {
          "internalType": "bytes32",
          "name": "",
          "type": "bytes32"
        }
      ],
      "stateMutability": "view",
      "type": "function"
    },
    {
      "inputs": [],
      "name": "bridgeFeeRecipient",
      "outputs": [
        {
          "internalType": "address payable",
          "name": "",
          "type": "address"
        }
      ],
      "stateMutability": "view",
      "type": "function"
    },
    {
      "inputs": [
        {
          "internalType": "address payable",
          "name": "feeRecipient_",
          "type": "address"
        }
      ],
      "name": "changeBridgeFeeRecipient",
      "outputs": [],
      "stateMutability": "nonpayable",
      "type": "function"
    },
    {
      "inputs": [
        {
          "internalType": "uint256",
          "name": "lockTime_",
          "type": "uint256"
        }
      ],
      "name": "changeLockTime",
      "outputs": [],
      "stateMutability": "nonpayable",
      "type": "function"
    },
    {
      "inputs": [
        {
          "internalType": "uint256",
          "name": "minSafetyBlocks_",
          "type": "uint256"
        }
      ],
      "name": "changeMinSafetyBlocks",
      "outputs": [],
      "stateMutability": "nonpayable",
      "type": "function"
    },
    {
      "inputs": [
        {
          "internalType": "uint256",
          "name": "signatureFeeCheckNumber_",
          "type": "uint256"
        }
      ],
      "name": "changeSignatureFeeCheckNumber",
      "outputs": [],
      "stateMutability": "nonpayable",
      "type": "function"
    },
    {
      "inputs": [
        {
          "internalType": "uint256",
          "name": "timeframeSeconds_",
          "type": "uint256"
        }
      ],
      "name": "changeTimeframeSeconds",
      "outputs": [],
      "stateMutability": "nonpayable",
      "type": "function"
    },
    {
      "inputs": [
        {
          "internalType": "address payable",
          "name": "feeRecipient_",
          "type": "address"
        }
      ],
      "name": "changeTransferFeeRecipient",
      "outputs": [],
      "stateMutability": "nonpayable",
      "type": "function"
    },
    {
      "inputs": [
        {
          "internalType": "uint256",
          "name": "eventId",
          "type": "uint256"
        }
      ],
      "name": "getLockedTransfers",
      "outputs": [
        {
          "components": [
            {
              "components": [
                {
                  "internalType": "address",
                  "name": "tokenAddress",
                  "type": "address"
                },
                {
                  "internalType": "address",
                  "name": "toAddress",
                  "type": "address"
                },
                {
                  "internalType": "uint256",
                  "name": "amount",
                  "type": "uint256"
                }
              ],
              "internalType": "struct CommonStructs.Transfer[]",
              "name": "transfers",
              "type": "tuple[]"
            },
            {
              "internalType": "uint256",
              "name": "endTimestamp",
              "type": "uint256"
            }
          ],
          "internalType": "struct CommonStructs.LockedTransfers",
          "name": "",
          "type": "tuple"
        }
      ],
      "stateMutability": "view",
      "type": "function"
    },
    {
      "inputs": [
        {
          "internalType": "bytes32",
          "name": "role",
          "type": "bytes32"
        }
      ],
      "name": "getRoleAdmin",
      "outputs": [
        {
          "internalType": "bytes32",
          "name": "",
          "type": "bytes32"
        }
      ],
      "stateMutability": "view",
      "type": "function"
    },
    {
      "inputs": [
        {
          "internalType": "bytes32",
          "name": "role",
          "type": "bytes32"
        },
        {
          "internalType": "address",
          "name": "account",
          "type": "address"
        }
      ],
      "name": "grantRole",
      "outputs": [],
      "stateMutability": "nonpayable",
      "type": "function"
    },
    {
      "inputs": [
        {
          "internalType": "bytes32",
          "name": "role",
          "type": "bytes32"
        },
        {
          "internalType": "address",
          "name": "account",
          "type": "address"
        }
      ],
      "name": "hasRole",
      "outputs": [
        {
          "internalType": "bool",
          "name": "",
          "type": "bool"
        }
      ],
      "stateMutability": "view",
      "type": "function"
    },
    {
      "inputs": [
        {
          "components": [
            {
              "internalType": "address",
              "name": "sideBridgeAddress",
              "type": "address"
            },
            {
              "internalType": "address",
              "name": "adminAddress",
              "type": "address"
            },
            {
              "internalType": "address",
              "name": "relayAddress",
              "type": "address"
            },
            {
              "internalType": "address",
              "name": "wrappingTokenAddress",
              "type": "address"
            },
            {
              "internalType": "address[]",
              "name": "tokenThisAddresses",
              "type": "address[]"
            },
            {
              "internalType": "address[]",
              "name": "tokenSideAddresses",
              "type": "address[]"
            },
            {
              "internalType": "address payable",
              "name": "transferFeeRecipient",
              "type": "address"
            },
            {
              "internalType": "address payable",
              "name": "bridgeFeeRecipient",
              "type": "address"
            },
            {
              "internalType": "uint256",
              "name": "timeframeSeconds",
              "type": "uint256"
            },
            {
              "internalType": "uint256",
              "name": "lockTime",
              "type": "uint256"
            },
            {
              "internalType": "uint256",
              "name": "minSafetyBlocks",
              "type": "uint256"
            }
          ],
          "internalType": "struct CommonStructs.ConstructorArgs",
          "name": "args",
          "type": "tuple"
        },
        {
          "internalType": "address[]",
          "name": "_watchdogs",
          "type": "address[]"
        },
        {
          "internalType": "address",
          "name": "_fee_provider",
          "type": "address"
        }
      ],
      "name": "initialize",
      "outputs": [],
      "stateMutability": "nonpayable",
      "type": "function"
    },
    {
      "inputs": [],
      "name": "inputEventId",
      "outputs": [
        {
          "internalType": "uint256",
          "name": "",
          "type": "uint256"
        }
      ],
      "stateMutability": "view",
      "type": "function"
    },
    {
      "inputs": [],
      "name": "isQueueEmpty",
      "outputs": [
        {
          "internalType": "bool",
          "name": "",
          "type": "bool"
        }
      ],
      "stateMutability": "view",
      "type": "function"
    },
    {
      "inputs": [],
      "name": "lastTimeframe",
      "outputs": [
        {
          "internalType": "uint256",
          "name": "",
          "type": "uint256"
        }
      ],
      "stateMutability": "view",
      "type": "function"
    },
    {
      "inputs": [],
      "name": "lockTime",
      "outputs": [
        {
          "internalType": "uint256",
          "name": "",
          "type": "uint256"
        }
      ],
      "stateMutability": "view",
      "type": "function"
    },
    {
      "inputs": [
        {
          "internalType": "uint256",
          "name": "",
          "type": "uint256"
        }
      ],
      "name": "lockedTransfers",
      "outputs": [
        {
          "internalType": "uint256",
          "name": "endTimestamp",
          "type": "uint256"
        }
      ],
      "stateMutability": "view",
      "type": "function"
    },
    {
      "inputs": [],
      "name": "minSafetyBlocks",
      "outputs": [
        {
          "internalType": "uint256",
          "name": "",
          "type": "uint256"
        }
      ],
      "stateMutability": "view",
      "type": "function"
    },
    {
      "inputs": [],
      "name": "oldestLockedEventId",
      "outputs": [
        {
          "internalType": "uint256",
          "name": "",
          "type": "uint256"
        }
      ],
      "stateMutability": "view",
      "type": "function"
    },
    {
      "inputs": [],
      "name": "outputEventId",
      "outputs": [
        {
          "internalType": "uint256",
          "name": "",
          "type": "uint256"
        }
      ],
      "stateMutability": "view",
      "type": "function"
    },
    {
      "inputs": [],
      "name": "pause",
      "outputs": [],
      "stateMutability": "nonpayable",
      "type": "function"
    },
    {
      "inputs": [],
      "name": "paused",
      "outputs": [
        {
          "internalType": "bool",
          "name": "",
          "type": "bool"
        }
      ],
      "stateMutability": "view",
      "type": "function"
    },
    {
      "inputs": [
        {
          "internalType": "uint256",
          "name": "eventId",
          "type": "uint256"
        }
      ],
      "name": "removeLockedTransfers",
      "outputs": [],
      "stateMutability": "nonpayable",
      "type": "function"
    },
    {
      "inputs": [
        {
          "internalType": "bytes32",
          "name": "role",
          "type": "bytes32"
        },
        {
          "internalType": "address",
          "name": "account",
          "type": "address"
        }
      ],
      "name": "renounceRole",
      "outputs": [],
      "stateMutability": "nonpayable",
      "type": "function"
    },
    {
      "inputs": [
        {
          "internalType": "bytes32",
          "name": "role",
          "type": "bytes32"
        },
        {
          "internalType": "address",
          "name": "account",
          "type": "address"
        }
      ],
      "name": "revokeRole",
      "outputs": [],
      "stateMutability": "nonpayable",
      "type": "function"
    },
    {
      "inputs": [
        {
          "internalType": "address[]",
          "name": "_watchdogs",
          "type": "address[]"
        },
        {
          "internalType": "address",
          "name": "_fee_provider",
          "type": "address"
        }
      ],
      "name": "setWatchdogsAndFeeProvider",
      "outputs": [],
      "stateMutability": "nonpayable",
      "type": "function"
    },
    {
      "inputs": [],
      "name": "sideBridgeAddress",
      "outputs": [
        {
          "internalType": "address",
          "name": "",
          "type": "address"
        }
      ],
      "stateMutability": "view",
      "type": "function"
    },
    {
      "inputs": [
        {
          "internalType": "uint256",
          "name": "eventId",
          "type": "uint256"
        }
      ],
      "name": "skipTransfers",
      "outputs": [],
      "stateMutability": "nonpayable",
      "type": "function"
    },
    {
      "inputs": [
        {
          "internalType": "uint256",
          "name": "eventId",
          "type": "uint256"
        },
        {
          "components": [
            {
              "internalType": "address",
              "name": "tokenAddress",
              "type": "address"
            },
            {
              "internalType": "address",
              "name": "toAddress",
              "type": "address"
            },
            {
              "internalType": "uint256",
              "name": "amount",
              "type": "uint256"
            }
          ],
          "internalType": "struct CommonStructs.Transfer[]",
          "name": "transfers",
          "type": "tuple[]"
        }
      ],
      "name": "submitTransferUntrustless",
      "outputs": [],
      "stateMutability": "nonpayable",
      "type": "function"
    },
    {
      "inputs": [
        {
          "internalType": "bytes4",
          "name": "interfaceId",
          "type": "bytes4"
        }
      ],
      "name": "supportsInterface",
      "outputs": [
        {
          "internalType": "bool",
          "name": "",
          "type": "bool"
        }
      ],
      "stateMutability": "view",
      "type": "function"
    },
    {
      "inputs": [],
      "name": "timeframeSeconds",
      "outputs": [
        {
          "internalType": "uint256",
          "name": "",
          "type": "uint256"
        }
      ],
      "stateMutability": "view",
      "type": "function"
    },
    {
      "inputs": [
        {
          "internalType": "address",
          "name": "",
          "type": "address"
        }
      ],
      "name": "tokenAddresses",
      "outputs": [
        {
          "internalType": "address",
          "name": "",
          "type": "address"
        }
      ],
      "stateMutability": "view",
      "type": "function"
    },
    {
      "inputs": [
        {
          "internalType": "address",
          "name": "tokenThisAddress",
          "type": "address"
        },
        {
          "internalType": "address",
          "name": "tokenSideAddress",
          "type": "address"
        }
      ],
      "name": "tokensAdd",
      "outputs": [],
      "stateMutability": "nonpayable",
      "type": "function"
    },
    {
      "inputs": [
        {
          "internalType": "address[]",
          "name": "tokenThisAddresses",
          "type": "address[]"
        },
        {
          "internalType": "address[]",
          "name": "tokenSideAddresses",
          "type": "address[]"
        }
      ],
      "name": "tokensAddBatch",
      "outputs": [],
      "stateMutability": "nonpayable",
      "type": "function"
    },
    {
      "inputs": [
        {
          "internalType": "address",
          "name": "tokenThisAddress",
          "type": "address"
        }
      ],
      "name": "tokensRemove",
      "outputs": [],
      "stateMutability": "nonpayable",
      "type": "function"
    },
    {
      "inputs": [
        {
          "internalType": "address[]",
          "name": "tokenThisAddresses",
          "type": "address[]"
        }
      ],
      "name": "tokensRemoveBatch",
      "outputs": [],
      "stateMutability": "nonpayable",
      "type": "function"
    },
    {
      "inputs": [],
      "name": "transferFeeRecipient",
      "outputs": [
        {
          "internalType": "address payable",
          "name": "",
          "type": "address"
        }
      ],
      "stateMutability": "view",
      "type": "function"
    },
    {
      "inputs": [],
      "name": "triggerTransfers",
      "outputs": [],
      "stateMutability": "nonpayable",
      "type": "function"
    },
    {
      "inputs": [
        {
          "internalType": "uint256",
          "name": "eventId",
          "type": "uint256"
        }
      ],
      "name": "unlockTransfers",
      "outputs": [],
      "stateMutability": "nonpayable",
      "type": "function"
    },
    {
      "inputs": [],
      "name": "unlockTransfersBatch",
      "outputs": [],
      "stateMutability": "nonpayable",
      "type": "function"
    },
    {
      "inputs": [],
      "name": "unpause",
      "outputs": [],
      "stateMutability": "nonpayable",
      "type": "function"
    },
    {
      "inputs": [
        {
          "internalType": "address[]",
          "name": "_watchdogs",
          "type": "address[]"
        },
        {
          "internalType": "address",
          "name": "_fee_provider",
          "type": "address"
        }
      ],
      "name": "upgrade",
      "outputs": [],
      "stateMutability": "nonpayable",
      "type": "function"
    },
    {
      "inputs": [
        {
          "internalType": "address",
          "name": "tokenThisAddress",
          "type": "address"
        },
        {
          "internalType": "address",
          "name": "toAddress",
          "type": "address"
        },
        {
          "internalType": "uint256",
          "name": "amount",
          "type": "uint256"
        },
        {
          "internalType": "bool",
          "name": "unwrapSide",
          "type": "bool"
        },
        {
          "internalType": "bytes",
          "name": "feeSignature",
          "type": "bytes"
        },
        {
          "internalType": "uint256",
          "name": "transferFee",
          "type": "uint256"
        },
        {
          "internalType": "uint256",
          "name": "bridgeFee",
          "type": "uint256"
        }
      ],
      "name": "withdraw",
      "outputs": [],
      "stateMutability": "payable",
      "type": "function"
    },
    {
      "inputs": [
        {
          "internalType": "address",
          "name": "toAddress",
          "type": "address"
        },
        {
          "internalType": "bytes",
          "name": "feeSignature",
          "type": "bytes"
        },
        {
          "internalType": "uint256",
          "name": "transferFee",
          "type": "uint256"
        },
        {
          "internalType": "uint256",
          "name": "bridgeFee",
          "type": "uint256"
        }
      ],
      "name": "wrapWithdraw",
      "outputs": [],
      "stateMutability": "payable",
      "type": "function"
    },
    {
      "inputs": [],
      "name": "wrapperAddress",
      "outputs": [
        {
          "internalType": "address",
          "name": "",
          "type": "address"
        }
      ],
      "stateMutability": "view",
      "type": "function"
    },
    {
      "stateMutability": "payable",
      "type": "receive"
    }
  ],
  "transactionHash": "0x9ec65a381f3da8118ba26d4fe3f0eaea57d6e1b6bac94abed1f08f56880960a3",
  "args": [],
  "numDeployments": 1,
  "solcInputHash": "13963204c1e3ae6f33bd8024ced50cd9",
  "bytecode": "0x608060405234801561001057600080fd5b5061356b806100206000396000f3fe6080604052600436106102d15760003560e060020a900480638456cb5911610179578063b6d3385e116100e0578063d547741f11610099578063f700558711610073578063f7005587146108bf578063f862b7eb146108df578063f8b74433146108ff578063fd5d2ef31461091257600080fd5b8063d547741f14610852578063e31be08714610872578063f33fe10f1461089f57600080fd5b8063b6d3385e1461077c578063b87330e9146107b2578063ba8bbbe0146107d2578063baeebe75146107e8578063cf3317d3146107fe578063d3b89f491461081e57600080fd5b806391d148541161013257806391d14854146106c7578063924cf6e0146106e757806396cf5227146106fd57806399b5bb641461071d578063a217fddf14610733578063a9b1cf0b1461074857600080fd5b80638456cb5914610634578063853890ae1461064957806386d7679e146106695780638ac1f86f1461067f5780638e5df9c71461069457806391c5bc0a146106b457600080fd5b80633928b296116102385780635249a705116101f1578063746b5c42116101cb578063746b5c42146105bd57806375b238fc146105d257806378368698146105f45780637df8b8021461061457600080fd5b80635249a7051461056557806358e81b4e146105855780635c975abb146105a557600080fd5b80633928b296146104a05780633f4ba83a146104c057806342180fb8146104d557806344f8b73f146104f55780634a1856de146105155780635119b0ef1461054557600080fd5b80632bbba8471161028a5780632bbba847146103d25780632f2ff15d146103e8578063304561bb14610408578063331a891a1461044057806336568abe14610460578063390d53881461048057600080fd5b806301ffc9a7146102dd578063044218231461031257806309fce356146103545780630d66808714610376578063248a9ca31461038c578063297c2677146103bc57600080fd5b366102d857005b600080fd5b3480156102e957600080fd5b506102fd6102f8366004612f21565b610932565b60405190151581526020015b60405180910390f35b34801561031e57600080fd5b506103467f077a1d526a4ce8a773632ab13b4fbbf1fcc954c3dab26cd27ea0e2a6750da5d781565b604051908152602001610309565b34801561036057600080fd5b5061037461036f366004612e5a565b6109c5565b005b34801561038257600080fd5b5061034660d45481565b34801561039857600080fd5b506103466103a7366004612ee3565b60009081526065602052604090206001015490565b3480156103c857600080fd5b5061034660d65481565b3480156103de57600080fd5b5060ca54156102fd565b3480156103f457600080fd5b50610374610403366004612efc565b6109f1565b34801561041457600080fd5b5060cf5461042890600160a060020a031681565b604051600160a060020a039091168152602001610309565b34801561044c57600080fd5b5061037461045b366004612ee3565b610a1c565b34801561046c57600080fd5b5061037461047b366004612efc565b610b3c565b34801561048c57600080fd5b5060d05461042890600160a060020a031681565b3480156104ac57600080fd5b506103746104bb366004612c70565b610bc7565b3480156104cc57600080fd5b50610374610c03565b3480156104e157600080fd5b506103746104f0366004612ee3565b610c27565b34801561050157600080fd5b50610374610510366004612e03565b610c64565b34801561052157600080fd5b50610346610530366004612ee3565b60cb6020526000908152604090206001015481565b34801561055157600080fd5b50610374610560366004612fe5565b610d41565b34801561057157600080fd5b50610374610580366004612dc1565b610dd1565b34801561059157600080fd5b506103746105a0366004612e03565b610e5a565b3480156105b157600080fd5b5060975460ff166102fd565b3480156105c957600080fd5b50610374610eb7565b3480156105de57600080fd5b5061034660008051602061351683398151915281565b34801561060057600080fd5b5061037461060f366004612f60565b610f63565b34801561062057600080fd5b5060ce5461042890600160a060020a031681565b34801561064057600080fd5b50610374610fe9565b34801561065557600080fd5b50610374610664366004612c8d565b61101c565b34801561067557600080fd5b5061034660d75481565b34801561068b57600080fd5b50610374611064565b3480156106a057600080fd5b506103746106af366004612c70565b6111bc565b6103746106c2366004612d5a565b6111fd565b3480156106d357600080fd5b506102fd6106e2366004612efc565b61152d565b3480156106f357600080fd5b5061034660d25481565b34801561070957600080fd5b50610374610718366004612ee3565b611558565b34801561072957600080fd5b5061034660d55481565b34801561073f57600080fd5b50610346600081565b34801561075457600080fd5b506103467fb7f2fcb7a10916921b74b9baa8ea85f89b12ab12f6ededa160998f8b20e65f9581565b34801561078857600080fd5b50610428610797366004612c70565b60cd60205260009081526040902054600160a060020a031681565b3480156107be57600080fd5b506103746107cd366004612c70565b611577565b3480156107de57600080fd5b5061034660cc5481565b3480156107f457600080fd5b5061034660d35481565b34801561080a57600080fd5b50610374610819366004612ee3565b6115b3565b34801561082a57600080fd5b506103467f516d5e7ed3e60a6b2804c1554cd94bc2eb576e44b192a0e069d4c527589a887e81565b34801561085e57600080fd5b5061037461086d366004612efc565b61162a565b34801561087e57600080fd5b5061089261088d366004612ee3565b611650565b60405161030991906132b0565b3480156108ab57600080fd5b5060d15461042890600160a060020a031681565b3480156108cb57600080fd5b506103746108da366004612ee3565b61170c565b3480156108eb57600080fd5b506103746108fa366004612ee3565b61172b565b61037461090d366004612cc6565b61195e565b34801561091e57600080fd5b5061037461092d366004612ee3565b611dbe565b60007bffffffffffffffffffffffffffffffffffffffffffffffffffffffff1982167f7965db0b0000000000000000000000000000000000000000000000000000000014806109bf57507f01ffc9a7000000000000000000000000000000000000000000000000000000007bffffffffffffffffffffffffffffffffffffffffffffffffffffffff198316145b92915050565b6000805160206135168339815191526109de8133611ddd565b6109ea85858585611e44565b5050505050565b600082815260656020526040902060010154610a0d8133611ddd565b610a178383611f65565b505050565b600080516020613516833981519152610a358133611ddd565b60975460ff16610a635760405160e560020a62461bcd028152600401610a5a90613188565b60405180910390fd5b60cc54821015610a885760405160e560020a62461bcd028152600401610a5a90613253565b60d554821115610add5760405160e560020a62461bcd02815260206004820152601f60248201527f6576656e744964206d757374206265203c3d20696e7075744576656e744964006044820152606401610a5a565b610ae86001836133d3565b60d5555b600082815260cb602052604090206001015415610b3857600082815260cb6020526040812090610b1c8282612b90565b5060006001919091015581610b308161342d565b925050610aec565b5050565b600160a060020a0381163314610bbd5760405160e560020a62461bcd02815260206004820152602f60248201527f416363657373436f6e74726f6c3a2063616e206f6e6c792072656e6f756e636560448201527f20726f6c657320666f722073656c6600000000000000000000000000000000006064820152608401610a5a565b610b388282611feb565b600080516020613516833981519152610be08133611ddd565b5060d08054600160a060020a031916600160a060020a0392909216919091179055565b600080516020613516833981519152610c1c8133611ddd565b610c24612052565b50565b600080516020613516833981519152610c408133611ddd565b8160d35460d754610c5191906133b4565b610c5b919061338f565b60d7555060d355565b600080516020613516833981519152610c7d8133611ddd565b60975460ff1615610ca35760405160e560020a62461bcd028152600401610a5a906131bf565b60005b83811015610d1057610cfe7fb7f2fcb7a10916921b74b9baa8ea85f89b12ab12f6ededa160998f8b20e65f95868684818110610ce457610ce4613461565b9050602002016020810190610cf99190612c70565b6120c1565b80610d088161342d565b915050610ca6565b50610d3b7f516d5e7ed3e60a6b2804c1554cd94bc2eb576e44b192a0e069d4c527589a887e836120c1565b50505050565b7f077a1d526a4ce8a773632ab13b4fbbf1fcc954c3dab26cd27ea0e2a6750da5d7610d6c8133611ddd565b60975460ff1615610d925760405160e560020a62461bcd028152600401610a5a906131bf565b610d9b846120cb565b60405184907f196c47048e38df7a4fe6e581c8f4f2e2ba67ac0dd45b90da756e97bd61d9dd3b90600090a2610d3b838386612130565b600080516020613516833981519152610dea8133611ddd565b8160005b818110156109ea5760cd6000868684818110610e0c57610e0c613461565b9050602002016020810190610e219190612c70565b600160a060020a0316815260208101919091526040016000208054600160a060020a031916905580610e528161342d565b915050610dee565b333014610eac5760405160e560020a62461bcd02815260206004820152601c60248201527f54686973206d6574686f642072657175697265206d756c7469736967000000006044820152606401610a5a565b610a17838383610c64565b60ca54610f095760405160e560020a62461bcd02815260206004820152600e60248201527f517565756520697320656d7074790000000000000000000000000000000000006044820152606401610a5a565b60d68054906000610f198361342d565b919050557fe15729a2f427aa4572dab35eb692c902fcbce57d41642013259c741380809ae260ca604051610f4d91906130e5565b60405180910390a2610f6160ca6000612b90565b565b600054610100900460ff1680610f7c575060005460ff16155b610f9b5760405160e560020a62461bcd028152600401610a5a906131f6565b600054610100900460ff16158015610fbd576000805461ffff19166101011790555b610fc6856121be565b610fd1848484610c64565b80156109ea576000805461ff00191690555050505050565b7fb7f2fcb7a10916921b74b9baa8ea85f89b12ab12f6ededa160998f8b20e65f956110148133611ddd565b610c246123a7565b6000805160206135168339815191526110358133611ddd565b50600160a060020a03918216600090815260cd602052604090208054600160a060020a03191691909216179055565b60975460ff161561108a5760405160e560020a62461bcd028152600401610a5a906131bf565b60cc545b600081815260cb60209081526040808320815181546060948102820185018452928101838152909391928492849190879085015b8282101561111c57600084815260209081902060408051606081018252600386029092018054600160a060020a039081168452600180830154909116848601526002909101549183019190915290835290920191016110c2565b50505050815260200160018201548152505090508060200151600014806111465750428160200151115b15611151575060cc55565b805161115c90612402565b600082815260cb60205260408120906111758282612b90565b50600060019190910181905560405183917f78ff9b3176bb0d6421590f3816e75cb15a9ffa2b7a1a028f40a3f4e029eb39f291a250806111b48161342d565b91505061108e565b6000805160206135168339815191526111d58133611ddd565b50600160a060020a0316600090815260cd602052604090208054600160a060020a0319169055565b60ce54600160a060020a03908116600090815260cd6020526040902054168061126b5760405160e560020a62461bcd02815260206004820152601560248201527f556e6b6e6f776e20746f6b656e206164647265737300000000000000000000006044820152606401610a5a565b6112758284613377565b34116112c65760405160e560020a62461bcd02815260206004820152601160248201527f53656e742076616c7565203c3d206665650000000000000000000000000000006044820152606401610a5a565b6000826112d385346133d3565b6112dd91906133d3565b60ce549091506112fa90600160a060020a03168787878786612696565b60cf54604051600160a060020a039091169085156108fc029086906000818181858888f19350505050158015611334573d6000803e3d6000fd5b5060d054604051600160a060020a039091169084156108fc029085906000818181858888f1935050505015801561136f573d6000803e3d6000fd5b5060ce60009054906101000a9004600160a060020a0316600160a060020a031663d0e30db0826040518263ffffffff1660e060020a0281526004016000604051808303818588803b1580156113c357600080fd5b505af11580156113d7573d6000803e3d6000fd5b505060408051606081018252600160a060020a0380881682528c81166020830190815282840188815260ca80546001810182556000918252945160039095027f42d72674974f694b5f5159593243114d38a5c39c89d6b62fee061ff523240ee181018054968616600160a060020a031997881617905592517f42d72674974f694b5f5159593243114d38a5c39c89d6b62fee061ff523240ee2840180549190951695169490941790925590517f42d72674974f694b5f5159593243114d38a5c39c89d6b62fee061ff523240ee39091015560d65491513395507f3b823d3b837159352faddd1e0b9e9f584ca2bfe976238f6a9e6da4615cf2f44494506115149350879087908b908b90958652600160a060020a0394851660208701529290931660408501526060840152608083019190915260a082015260c00190565b60405180910390a261152461283c565b50505050505050565b6000918252606560209081526040808420600160a060020a0393909316845291905290205460ff1690565b6000805160206135168339815191526115718133611ddd565b5060d455565b6000805160206135168339815191526115908133611ddd565b5060cf8054600160a060020a031916600160a060020a0392909216919091179055565b6000805160206135168339815191526115cc8133611ddd565b60975460ff166115f15760405160e560020a62461bcd028152600401610a5a90613188565b60cc548210156116165760405160e560020a62461bcd028152600401610a5a90613253565b6116216001836133d3565b60d5555060cc55565b6000828152606560205260409020600101546116468133611ddd565b610a178383611feb565b604080518082019091526060815260006020820152600082815260cb60209081526040808320815181546060948102820185018452928101838152909491938593919285929185015b828210156116f357600084815260209081902060408051606081018252600386029092018054600160a060020a03908116845260018083015490911684860152600290910154918301919091529083529092019101611699565b5050505081526020016001820154815250509050919050565b6000805160206135168339815191526117258133611ddd565b5060c955565b60975460ff16156117515760405160e560020a62461bcd028152600401610a5a906131bf565b60cc5481146117a55760405160e560020a62461bcd02815260206004820152601c60248201527f63616e20756e6c6f636b206f6e6c79206f6c64657374206576656e74000000006044820152606401610a5a565b600081815260cb60209081526040808320815181546060948102820185018452928101838152909391928492849190879085015b8282101561183357600084815260209081902060408051606081018252600386029092018054600160a060020a039081168452600180830154909116848601526002909101549183019190915290835290920191016117d9565b5050505081526020016001820154815250509050600081602001511161189e5760405160e560020a62461bcd02815260206004820181905260248201527f6e6f206c6f636b6564207472616e7366657273207769746820746869732069646044820152606401610a5a565b428160200151106118f45760405160e560020a62461bcd02815260206004820152601b60248201527f6c6f636b54696d6520686173206e6f74207965742070617373656400000000006044820152606401610a5a565b80516118ff90612402565b600082815260cb60205260408120906119188282612b90565b50600060019190910181905560405183917f78ff9b3176bb0d6421590f3816e75cb15a9ffa2b7a1a028f40a3f4e029eb39f291a2611957826001613377565b60cc555050565b600085156119f3576000805260cd6020527fcd565b10a72538d86f6d352f37ebc5dff31587960b12c0afe00fd03947a6932a54600160a060020a038a81169116146119ee5760405160e560020a62461bcd02815260206004820152601f60248201527f546f6b656e206e6f7420706f696e7420746f206e617469766520746f6b656e006044820152606401610a5a565b611a5f565b50600160a060020a03808916600090815260cd60205260409020541680611a5f5760405160e560020a62461bcd02815260206004820152601560248201527f556e6b6e6f776e20746f6b656e206164647265737300000000000000000000006044820152606401610a5a565b611a698284613377565b3414611aba5760405160e560020a62461bcd02815260206004820152601160248201527f53656e742076616c756520213d206665650000000000000000000000000000006044820152606401610a5a565b60008711611b0d5760405160e560020a62461bcd02815260206004820152601160248201527f43616e6e6f7420776974686472617720300000000000000000000000000000006044820152606401610a5a565b611b1b89868686868c612696565b60cf54604051600160a060020a039091169084156108fc029085906000818181858888f19350505050158015611b55573d6000803e3d6000fd5b5060d054604051600160a060020a039091169083156108fc029084906000818181858888f19350505050158015611b90573d6000803e3d6000fd5b506040517f23b872dd00000000000000000000000000000000000000000000000000000000815233600482015230602482015260448101889052600160a060020a038a16906323b872dd90606401602060405180830381600087803b158015611bf857600080fd5b505af1158015611c0c573d6000803e3d6000fd5b505050506040513d601f19601f82011682018060405250810190611c309190612ec6565b611c7f5760405160e560020a62461bcd02815260206004820152601360248201527f4661696c207472616e7366657220636f696e73000000000000000000000000006044820152606401610a5a565b6040805160608082018352600160a060020a038481168084528c821660208086019182528587018e815260ca8054600181018255600091909152965160039097027f42d72674974f694b5f5159593243114d38a5c39c89d6b62fee061ff523240ee181018054988716600160a060020a0319998a1617905592517f42d72674974f694b5f5159593243114d38a5c39c89d6b62fee061ff523240ee284018054918716919098161790965594517f42d72674974f694b5f5159593243114d38a5c39c89d6b62fee061ff523240ee39091015560d6548551908152918e16938201939093529283019190915281018890526080810184905260a0810183905233907f3b823d3b837159352faddd1e0b9e9f584ca2bfe976238f6a9e6da4615cf2f4449060c00160405180910390a2611db361283c565b505050505050505050565b600080516020613516833981519152611dd78133611ddd565b5060d255565b611de7828261152d565b610b3857611dff81600160a060020a031660146128b4565b611e0a8360206128b4565b604051602001611e1b929190613064565b60408051601f198184030181529082905260e560020a62461bcd028252610a5a91600401613155565b828114611ebc5760405160e560020a62461bcd02815260206004820152603f60248201527f73697a6573206f6620746f6b656e5468697341646472657373657320616e642060448201527f746f6b656e53696465416464726573736573206d7573742062652073616d65006064820152608401610a5a565b8260005b81811015611f5d57838382818110611eda57611eda613461565b9050602002016020810190611eef9190612c70565b60cd6000888885818110611f0557611f05613461565b9050602002016020810190611f1a9190612c70565b600160a060020a03908116825260208201929092526040016000208054600160a060020a0319169290911691909117905580611f558161342d565b915050611ec0565b505050505050565b611f6f828261152d565b610b38576000828152606560209081526040808320600160a060020a03851684529091529020805460ff19166001179055611fa73390565b600160a060020a031681600160a060020a0316837f2f8788117e7eff1d82e926ec794901d17c78024a50270940304540a733656f0d60405160405180910390a45050565b611ff5828261152d565b15610b38576000828152606560209081526040808320600160a060020a0385168085529252808320805460ff1916905551339285917ff6391f5c32d9c69d2a47ea670b442974b53935d1edc7fd64eb21e047a839171b9190a45050565b60975460ff166120775760405160e560020a62461bcd028152600401610a5a90613188565b6097805460ff191690557f5db9ee0a495bf2e6ff9c91a7834c1ba4fdd244a5e8aa4e537bd38aeae4b073aa335b604051600160a060020a03909116815260200160405180910390a1565b610b388282611f65565b60d5600081546120da9061342d565b91829055508114610c245760405160e560020a62461bcd02815260206004820152601460248201527f4576656e744964206f7574206f66206f726465720000000000000000000000006044820152606401610a5a565b60d45461213d9042613377565b600082815260cb60205260408120600101919091555b82811015610d3b57600082815260cb6020526040902084848381811061217b5761217b613461565b8354600181018555600094855260209094206060909102929092019260030290910190506121a98282613493565b505080806121b69061342d565b915050612153565b600054610100900460ff16806121d7575060005460ff16155b6121f65760405160e560020a62461bcd028152600401610a5a906131f6565b600054610100900460ff16158015612218576000805461ffff19166101011790555b6122236000336120c1565b6122577f077a1d526a4ce8a773632ab13b4fbbf1fcc954c3dab26cd27ea0e2a6750da5d7610cf96060850160408601612c70565b612279600080516020613516833981519152610cf96040850160208601612c70565b61229b612289608084018461332e565b61229660a086018661332e565b611e44565b6122ab6080830160608401612c70565b60ce8054600160a060020a031916600160a060020a03929092169190911790556122d86020830183612c70565b60d18054600160a060020a031916600160a060020a039290921691909117905561230860e0830160c08401612c70565b60cf8054600160a060020a031916600160a060020a0392909216919091179055612339610100830160e08401612c70565b60d08054600160a060020a031916600160a060020a039290921691909117905561014082013560d25561010082013560d381905561012083013560d455600160cc81905560d655600360c95561238f904261338f565b60d7558015610b38576000805461ff00191690555050565b60975460ff16156123cd5760405160e560020a62461bcd028152600401610a5a906131bf565b6097805460ff191660011790557f62e78cea01bee320cd4e420270b5ea74000d11b0c9f74754ebdbfc544b05a2586120a43390565b60005b8151811015610b38576000600160a060020a031682828151811061242b5761242b613461565b602002602001015160000151600160a060020a031614156125475760ce548251600160a060020a0390911690632e1a7d4d9084908490811061246f5761246f613461565b6020026020010151604001516040518263ffffffff1660e060020a02815260040161249c91815260200190565b600060405180830381600087803b1580156124b657600080fd5b505af11580156124ca573d6000803e3d6000fd5b505050508181815181106124e0576124e0613461565b602002602001015160200151600160a060020a03166108fc83838151811061250a5761250a613461565b6020026020010151604001519081150290604051600060405180830381858888f19350505050158015612541573d6000803e3d6000fd5b50612684565b81818151811061255957612559613461565b602002602001015160000151600160a060020a031663a9059cbb83838151811061258557612585613461565b6020026020010151602001518484815181106125a3576125a3613461565b6020026020010151604001516040518363ffffffff1660e060020a0281526004016125e3929190600160a060020a03929092168252602082015260400190565b602060405180830381600087803b1580156125fd57600080fd5b505af1158015612611573d6000803e3d6000fd5b505050506040513d601f19601f820116820180604052508101906126359190612ec6565b6126845760405160e560020a62461bcd02815260206004820152601360248201527f4661696c207472616e7366657220636f696e73000000000000000000000000006044820152606401610a5a565b8061268e8161342d565b915050612405565b600080806126a66107084261338f565b905060005b60c9548110156127f0576040516c01000000000000000000000000600160a060020a038c160260208201526034810183905260548101889052607481018790526094810186905260b40160408051601f198184030181529082905280516020918201207f19457468657265756d205369676e6564204d6573736167653a0a33320000000091830191909152603c820152605c01604051602081830303815290604052805190602001209350612796848a8a8080601f016020809104026020016040519081016040528093929190818152602001838380828437600092019190915250612b0592505050565b92506127c27f516d5e7ed3e60a6b2804c1554cd94bc2eb576e44b192a0e069d4c527589a887e8461152d565b156127d05750505050611f5d565b816127da81613416565b92505080806127e89061342d565b9150506126ab565b5060405160e560020a62461bcd02815260206004820152601660248201527f5369676e617475726520636865636b206661696c6564000000000000000000006044820152606401610a5a565b600060d3544261284c919061338f565b905060d7548114610c245760d680549060006128678361342d565b919050557fe15729a2f427aa4572dab35eb692c902fcbce57d41642013259c741380809ae260ca60405161289b91906130e5565b60405180910390a26128af60ca6000612b90565b60d755565b606060006128c38360026133b4565b6128ce906002613377565b67ffffffffffffffff8111156128e6576128e661347a565b6040519080825280601f01601f191660200182016040528015612910576020820181803683370190505b5090507f30000000000000000000000000000000000000000000000000000000000000008160008151811061294757612947613461565b60200101907effffffffffffffffffffffffffffffffffffffffffffffffffffffffffffff1916908160001a9053507f7800000000000000000000000000000000000000000000000000000000000000816001815181106129aa576129aa613461565b60200101907effffffffffffffffffffffffffffffffffffffffffffffffffffffffffffff1916908160001a90535060006129e68460026133b4565b6129f1906001613377565b90505b6001811115612aac577f303132333435363738396162636465660000000000000000000000000000000085600f1660108110612a3257612a32613461565b1a7f010000000000000000000000000000000000000000000000000000000000000002828281518110612a6757612a67613461565b60200101907effffffffffffffffffffffffffffffffffffffffffffffffffffffffffffff1916908160001a905350601090940493612aa581613416565b90506129f4565b508315612afe5760405160e560020a62461bcd02815260206004820181905260248201527f537472696e67733a20686578206c656e67746820696e73756666696369656e746044820152606401610a5a565b9392505050565b6020810151604082015160608301516000929190831a601b811015612b2857601b015b60408051600081526020810180835288905260ff831691810191909152606081018490526080810183905260019060a0016020604051602081039080840390855afa158015612b7b573d6000803e3d6000fd5b5050604051601f190151979650505050505050565b5080546000825560030290600052602060002090810190610c2491905b80821115612bdf578054600160a060020a03199081168255600182018054909116905560006002820155600301612bad565b5090565b60008083601f840112612bf557600080fd5b50813567ffffffffffffffff811115612c0d57600080fd5b6020830191508360208083028501011115612c2757600080fd5b9250929050565b60008083601f840112612c4057600080fd5b50813567ffffffffffffffff811115612c5857600080fd5b602083019150836020828501011115612c2757600080fd5b600060208284031215612c8257600080fd5b8135612afe816134f2565b60008060408385031215612ca057600080fd5b8235612cab816134f2565b91506020830135612cbb816134f2565b809150509250929050565b60008060008060008060008060e0898b031215612ce257600080fd5b8835612ced816134f2565b97506020890135612cfd816134f2565b9650604089013595506060890135612d1481613507565b9450608089013567ffffffffffffffff811115612d3057600080fd5b612d3c8b828c01612c2e565b999c989b5096999598969760a08701359660c0013595509350505050565b600080600080600060808688031215612d7257600080fd5b8535612d7d816134f2565b9450602086013567ffffffffffffffff811115612d9957600080fd5b612da588828901612c2e565b9699909850959660408101359660609091013595509350505050565b60008060208385031215612dd457600080fd5b823567ffffffffffffffff811115612deb57600080fd5b612df785828601612be3565b90969095509350505050565b600080600060408486031215612e1857600080fd5b833567ffffffffffffffff811115612e2f57600080fd5b612e3b86828701612be3565b9094509250506020840135612e4f816134f2565b809150509250925092565b60008060008060408587031215612e7057600080fd5b843567ffffffffffffffff80821115612e8857600080fd5b612e9488838901612be3565b90965094506020870135915080821115612ead57600080fd5b50612eba87828801612be3565b95989497509550505050565b600060208284031215612ed857600080fd5b8151612afe81613507565b600060208284031215612ef557600080fd5b5035919050565b60008060408385031215612f0f57600080fd5b823591506020830135612cbb816134f2565b600060208284031215612f3357600080fd5b81357bffffffffffffffffffffffffffffffffffffffffffffffffffffffff1981168114612afe57600080fd5b60008060008060608587031215612f7657600080fd5b843567ffffffffffffffff80821115612f8e57600080fd5b908601906101608289031215612fa357600080fd5b90945060208601359080821115612fb957600080fd5b50612fc687828801612be3565b9094509250506040850135612fda816134f2565b939692955090935050565b600080600060408486031215612ffa57600080fd5b83359250602084013567ffffffffffffffff8082111561301957600080fd5b818601915086601f83011261302d57600080fd5b81358181111561303c57600080fd5b87602060608302850101111561305157600080fd5b6020830194508093505050509250925092565b7f416363657373436f6e74726f6c3a206163636f756e742000000000000000000081526000835161309c8160178501602088016133ea565b7f206973206d697373696e6720726f6c652000000000000000000000000000000060179184019182015283516130d98160288401602088016133ea565b01602801949350505050565b60006020808301818452808554808352604092508286019150866000528360002060005b82811015613148578154600160a060020a0390811685526001808401549091168786015260028301548686015260609094019360039092019101613109565b5091979650505050505050565b60208152600082518060208401526131748160408501602087016133ea565b601f01601f19169190910160400192915050565b60208082526014908201527f5061757361626c653a206e6f7420706175736564000000000000000000000000604082015260600190565b60208082526010908201527f5061757361626c653a2070617573656400000000000000000000000000000000604082015260600190565b6020808252602e908201527f496e697469616c697a61626c653a20636f6e747261637420697320616c72656160408201527f647920696e697469616c697a6564000000000000000000000000000000000000606082015260800190565b60208082526026908201527f6576656e744964206d757374206265203e3d206f6c646573744c6f636b65644560408201527f76656e7449640000000000000000000000000000000000000000000000000000606082015260800190565b6000602080835260608084018551604080858801528282518085526080890191508684019450600093505b808410156133185784518051600160a060020a039081168452888201511688840152830151838301529386019360019390930192908501906132db565b5094909701519590960194909452509392505050565b6000808335601e1984360301811261334557600080fd5b83018035915067ffffffffffffffff82111561336057600080fd5b6020908101925081023603821315612c2757600080fd5b6000821982111561338a5761338a613448565b500190565b6000826133af5760e060020a634e487b7102600052601260045260246000fd5b500490565b60008160001904831182151516156133ce576133ce613448565b500290565b6000828210156133e5576133e5613448565b500390565b60005b838110156134055781810151838201526020016133ed565b83811115610d3b5750506000910152565b60008161342557613425613448565b506000190190565b600060001982141561344157613441613448565b5060010190565b60e060020a634e487b7102600052601160045260246000fd5b60e060020a634e487b7102600052603260045260246000fd5b60e060020a634e487b7102600052604160045260246000fd5b813561349e816134f2565b8154600160a060020a031916600160a060020a0382161782555060208201356134c6816134f2565b600182018054600160a060020a031916600160a060020a03831617905550604082013560028201555050565b600160a060020a0381168114610c2457600080fd5b8015158114610c2457600080fdfea49807205ce4d355092ef5a8a18f56e8913cf4a201fbe287825b095693c21775a2646970667358221220da19017bfce17c5711d46c79b155719c5abf8ab818b995a1a6527a579108cbeb64736f6c63430008060033",
  "devdoc": {
    "kind": "dev",
    "methods": {
      "getRoleAdmin(bytes32)": {
        "details": "Returns the admin role that controls `role`. See {grantRole} and {revokeRole}. To change a role's admin, use {_setRoleAdmin}."
      },
      "grantRole(bytes32,address)": {
        "details": "Grants `role` to `account`. If `account` had not been already granted `role`, emits a {RoleGranted} event. Requirements: - the caller must have ``role``'s admin role."
      },
      "hasRole(bytes32,address)": {
        "details": "Returns `true` if `account` has been granted `role`."
      },
      "paused()": {
        "details": "Returns true if the contract is paused, and false otherwise."
      },
      "renounceRole(bytes32,address)": {
        "details": "Revokes `role` from the calling account. Roles are often managed via {grantRole} and {revokeRole}: this function's purpose is to provide a mechanism for accounts to lose their privileges if they are compromised (such as when a trusted device is misplaced). If the calling account had been granted `role`, emits a {RoleRevoked} event. Requirements: - the caller must be `account`."
      },
      "revokeRole(bytes32,address)": {
        "details": "Revokes `role` from `account`. If `account` had been granted `role`, emits a {RoleRevoked} event. Requirements: - the caller must have ``role``'s admin role."
      },
      "supportsInterface(bytes4)": {
        "details": "See {IERC165-supportsInterface}."
      },
      "withdraw(address,address,uint256,bool,bytes,uint256,uint256)": {
        "params": {
          "bridgeFee": "Amount (in native coins), payed as bridge earnings",
          "feeSignature": "Signature signed by relay that confirms that the fee values are valid",
          "transferFee": "Amount (in native coins), payed to compensate gas fees in side network"
        }
      },
      "wrapWithdraw(address,bytes,uint256,uint256)": {
        "params": {
          "bridgeFee": "Amount (in native coins), payed as bridge earnings",
          "feeSignature": "Signature signed by relay that confirms that the fee values are valid",
          "toAddress": "Address in side network that will receive the tokens",
          "transferFee": "Amount (in native coins), payed to compensate gas fees in side network"
        }
      }
    },
    "version": 1
  },
  "userdoc": {
    "kind": "user",
    "methods": {},
    "version": 1
  },
  "storageLayout": {
    "storage": [
      {
        "astId": 413,
        "contract": "contracts/networks/ETH_EthBridge.sol:ETH_EthBridge",
        "label": "_initialized",
        "offset": 0,
        "slot": "0",
        "type": "t_bool"
      },
      {
        "astId": 416,
        "contract": "contracts/networks/ETH_EthBridge.sol:ETH_EthBridge",
        "label": "_initializing",
        "offset": 1,
        "slot": "0",
        "type": "t_bool"
      },
      {
        "astId": 609,
        "contract": "contracts/networks/ETH_EthBridge.sol:ETH_EthBridge",
        "label": "__gap",
        "offset": 0,
        "slot": "1",
        "type": "t_array(t_uint256)50_storage"
      },
      {
        "astId": 858,
        "contract": "contracts/networks/ETH_EthBridge.sol:ETH_EthBridge",
        "label": "__gap",
        "offset": 0,
        "slot": "51",
        "type": "t_array(t_uint256)50_storage"
      },
      {
        "astId": 48,
        "contract": "contracts/networks/ETH_EthBridge.sol:ETH_EthBridge",
        "label": "_roles",
        "offset": 0,
        "slot": "101",
        "type": "t_mapping(t_bytes32,t_struct(RoleData)43_storage)"
      },
      {
        "astId": 333,
        "contract": "contracts/networks/ETH_EthBridge.sol:ETH_EthBridge",
        "label": "__gap",
        "offset": 0,
        "slot": "102",
        "type": "t_array(t_uint256)49_storage"
      },
      {
        "astId": 474,
        "contract": "contracts/networks/ETH_EthBridge.sol:ETH_EthBridge",
        "label": "_paused",
        "offset": 0,
        "slot": "151",
        "type": "t_bool"
      },
      {
        "astId": 565,
        "contract": "contracts/networks/ETH_EthBridge.sol:ETH_EthBridge",
        "label": "__gap",
        "offset": 0,
        "slot": "152",
        "type": "t_array(t_uint256)49_storage"
      },
      {
        "astId": 6726,
        "contract": "contracts/networks/ETH_EthBridge.sol:ETH_EthBridge",
        "label": "signatureFeeCheckNumber",
        "offset": 0,
        "slot": "201",
        "type": "t_uint256"
      },
      {
        "astId": 6730,
        "contract": "contracts/networks/ETH_EthBridge.sol:ETH_EthBridge",
        "label": "queue",
        "offset": 0,
        "slot": "202",
        "type": "t_array(t_struct(Transfer)7843_storage)dyn_storage"
      },
      {
        "astId": 6735,
        "contract": "contracts/networks/ETH_EthBridge.sol:ETH_EthBridge",
        "label": "lockedTransfers",
        "offset": 0,
        "slot": "203",
        "type": "t_mapping(t_uint256,t_struct(LockedTransfers)7860_storage)"
      },
      {
        "astId": 6737,
        "contract": "contracts/networks/ETH_EthBridge.sol:ETH_EthBridge",
        "label": "oldestLockedEventId",
        "offset": 0,
        "slot": "204",
        "type": "t_uint256"
      },
      {
        "astId": 6741,
        "contract": "contracts/networks/ETH_EthBridge.sol:ETH_EthBridge",
        "label": "tokenAddresses",
        "offset": 0,
        "slot": "205",
        "type": "t_mapping(t_address,t_address)"
      },
      {
        "astId": 6743,
        "contract": "contracts/networks/ETH_EthBridge.sol:ETH_EthBridge",
        "label": "wrapperAddress",
        "offset": 0,
        "slot": "206",
        "type": "t_address"
      },
      {
        "astId": 6745,
        "contract": "contracts/networks/ETH_EthBridge.sol:ETH_EthBridge",
        "label": "transferFeeRecipient",
        "offset": 0,
        "slot": "207",
        "type": "t_address_payable"
      },
      {
        "astId": 6747,
        "contract": "contracts/networks/ETH_EthBridge.sol:ETH_EthBridge",
        "label": "bridgeFeeRecipient",
        "offset": 0,
        "slot": "208",
        "type": "t_address_payable"
      },
      {
        "astId": 6749,
        "contract": "contracts/networks/ETH_EthBridge.sol:ETH_EthBridge",
        "label": "sideBridgeAddress",
        "offset": 0,
        "slot": "209",
        "type": "t_address"
      },
      {
        "astId": 6751,
        "contract": "contracts/networks/ETH_EthBridge.sol:ETH_EthBridge",
        "label": "minSafetyBlocks",
        "offset": 0,
        "slot": "210",
        "type": "t_uint256"
      },
      {
        "astId": 6753,
        "contract": "contracts/networks/ETH_EthBridge.sol:ETH_EthBridge",
        "label": "timeframeSeconds",
        "offset": 0,
        "slot": "211",
        "type": "t_uint256"
      },
      {
        "astId": 6755,
        "contract": "contracts/networks/ETH_EthBridge.sol:ETH_EthBridge",
        "label": "lockTime",
        "offset": 0,
        "slot": "212",
        "type": "t_uint256"
      },
      {
        "astId": 6757,
        "contract": "contracts/networks/ETH_EthBridge.sol:ETH_EthBridge",
        "label": "inputEventId",
        "offset": 0,
        "slot": "213",
        "type": "t_uint256"
      },
      {
        "astId": 6759,
        "contract": "contracts/networks/ETH_EthBridge.sol:ETH_EthBridge",
        "label": "outputEventId",
        "offset": 0,
        "slot": "214",
        "type": "t_uint256"
      },
      {
        "astId": 6761,
        "contract": "contracts/networks/ETH_EthBridge.sol:ETH_EthBridge",
        "label": "lastTimeframe",
        "offset": 0,
        "slot": "215",
        "type": "t_uint256"
      },
      {
        "astId": 7833,
        "contract": "contracts/networks/ETH_EthBridge.sol:ETH_EthBridge",
        "label": "__gap",
        "offset": 0,
        "slot": "216",
        "type": "t_array(t_uint256)15_storage"
      },
      {
        "astId": 6656,
        "contract": "contracts/networks/ETH_EthBridge.sol:ETH_EthBridge",
        "label": "___gap",
        "offset": 0,
        "slot": "231",
        "type": "t_array(t_uint256)15_storage"
      }
    ],
    "types": {
      "t_address": {
        "encoding": "inplace",
        "label": "address",
        "numberOfBytes": "20"
      },
      "t_address_payable": {
        "encoding": "inplace",
        "label": "address payable",
        "numberOfBytes": "20"
      },
      "t_array(t_struct(Transfer)7843_storage)dyn_storage": {
        "base": "t_struct(Transfer)7843_storage",
        "encoding": "dynamic_array",
        "label": "struct CommonStructs.Transfer[]",
        "numberOfBytes": "32"
      },
      "t_array(t_uint256)15_storage": {
        "base": "t_uint256",
        "encoding": "inplace",
        "label": "uint256[15]",
        "numberOfBytes": "480"
      },
      "t_array(t_uint256)49_storage": {
        "base": "t_uint256",
        "encoding": "inplace",
        "label": "uint256[49]",
        "numberOfBytes": "1568"
      },
      "t_array(t_uint256)50_storage": {
        "base": "t_uint256",
        "encoding": "inplace",
        "label": "uint256[50]",
        "numberOfBytes": "1600"
      },
      "t_bool": {
        "encoding": "inplace",
        "label": "bool",
        "numberOfBytes": "1"
      },
      "t_bytes32": {
        "encoding": "inplace",
        "label": "bytes32",
        "numberOfBytes": "32"
      },
      "t_mapping(t_address,t_address)": {
        "encoding": "mapping",
        "key": "t_address",
        "label": "mapping(address => address)",
        "numberOfBytes": "32",
        "value": "t_address"
      },
      "t_mapping(t_address,t_bool)": {
        "encoding": "mapping",
        "key": "t_address",
        "label": "mapping(address => bool)",
        "numberOfBytes": "32",
        "value": "t_bool"
      },
      "t_mapping(t_bytes32,t_struct(RoleData)43_storage)": {
        "encoding": "mapping",
        "key": "t_bytes32",
        "label": "mapping(bytes32 => struct AccessControlUpgradeable.RoleData)",
        "numberOfBytes": "32",
        "value": "t_struct(RoleData)43_storage"
      },
      "t_mapping(t_uint256,t_struct(LockedTransfers)7860_storage)": {
        "encoding": "mapping",
        "key": "t_uint256",
        "label": "mapping(uint256 => struct CommonStructs.LockedTransfers)",
        "numberOfBytes": "32",
        "value": "t_struct(LockedTransfers)7860_storage"
      },
      "t_struct(LockedTransfers)7860_storage": {
        "encoding": "inplace",
        "label": "struct CommonStructs.LockedTransfers",
        "members": [
          {
            "astId": 7857,
            "contract": "contracts/networks/ETH_EthBridge.sol:ETH_EthBridge",
            "label": "transfers",
            "offset": 0,
            "slot": "0",
            "type": "t_array(t_struct(Transfer)7843_storage)dyn_storage"
          },
          {
            "astId": 7859,
            "contract": "contracts/networks/ETH_EthBridge.sol:ETH_EthBridge",
            "label": "endTimestamp",
            "offset": 0,
            "slot": "1",
            "type": "t_uint256"
          }
        ],
        "numberOfBytes": "64"
      },
      "t_struct(RoleData)43_storage": {
        "encoding": "inplace",
        "label": "struct AccessControlUpgradeable.RoleData",
        "members": [
          {
            "astId": 40,
            "contract": "contracts/networks/ETH_EthBridge.sol:ETH_EthBridge",
            "label": "members",
            "offset": 0,
            "slot": "0",
            "type": "t_mapping(t_address,t_bool)"
          },
          {
            "astId": 42,
            "contract": "contracts/networks/ETH_EthBridge.sol:ETH_EthBridge",
            "label": "adminRole",
            "offset": 0,
            "slot": "1",
            "type": "t_bytes32"
          }
        ],
        "numberOfBytes": "64"
      },
      "t_struct(Transfer)7843_storage": {
        "encoding": "inplace",
        "label": "struct CommonStructs.Transfer",
        "members": [
          {
            "astId": 7838,
            "contract": "contracts/networks/ETH_EthBridge.sol:ETH_EthBridge",
            "label": "tokenAddress",
            "offset": 0,
            "slot": "0",
            "type": "t_address"
          },
          {
            "astId": 7840,
            "contract": "contracts/networks/ETH_EthBridge.sol:ETH_EthBridge",
            "label": "toAddress",
            "offset": 0,
            "slot": "1",
            "type": "t_address"
          },
          {
            "astId": 7842,
            "contract": "contracts/networks/ETH_EthBridge.sol:ETH_EthBridge",
            "label": "amount",
            "offset": 0,
            "slot": "2",
            "type": "t_uint256"
          }
        ],
        "numberOfBytes": "96"
      },
      "t_uint256": {
        "encoding": "inplace",
        "label": "uint256",
        "numberOfBytes": "32"
      }
    }
  }
}