{
  "address": "0x61Fd038f39C80409d8D95f99A293CeC567F5e55C",
  "abi": [
    {
      "anonymous": false,
      "inputs": [
        {
          "indexed": false,
          "internalType": "address",
          "name": "account",
          "type": "address"
        }
      ],
      "name": "Paused",
      "type": "event"
    },
    {
      "anonymous": false,
      "inputs": [
        {
          "indexed": true,
          "internalType": "bytes32",
          "name": "role",
          "type": "bytes32"
        },
        {
          "indexed": true,
          "internalType": "bytes32",
          "name": "previousAdminRole",
          "type": "bytes32"
        },
        {
          "indexed": true,
          "internalType": "bytes32",
          "name": "newAdminRole",
          "type": "bytes32"
        }
      ],
      "name": "RoleAdminChanged",
      "type": "event"
    },
    {
      "anonymous": false,
      "inputs": [
        {
          "indexed": true,
          "internalType": "bytes32",
          "name": "role",
          "type": "bytes32"
        },
        {
          "indexed": true,
          "internalType": "address",
          "name": "account",
          "type": "address"
        },
        {
          "indexed": true,
          "internalType": "address",
          "name": "sender",
          "type": "address"
        }
      ],
      "name": "RoleGranted",
      "type": "event"
    },
    {
      "anonymous": false,
      "inputs": [
        {
          "indexed": true,
          "internalType": "bytes32",
          "name": "role",
          "type": "bytes32"
        },
        {
          "indexed": true,
          "internalType": "address",
          "name": "account",
          "type": "address"
        },
        {
          "indexed": true,
          "internalType": "address",
          "name": "sender",
          "type": "address"
        }
      ],
      "name": "RoleRevoked",
      "type": "event"
    },
    {
      "anonymous": false,
      "inputs": [
        {
          "indexed": true,
          "internalType": "uint256",
          "name": "eventId",
          "type": "uint256"
        },
        {
          "components": [
            {
              "internalType": "address",
              "name": "tokenAddress",
              "type": "address"
            },
            {
              "internalType": "address",
              "name": "toAddress",
              "type": "address"
            },
            {
              "internalType": "uint256",
              "name": "amount",
              "type": "uint256"
            }
          ],
          "indexed": false,
          "internalType": "struct CommonStructs.Transfer[]",
          "name": "queue",
          "type": "tuple[]"
        }
      ],
      "name": "Transfer",
      "type": "event"
    },
    {
      "anonymous": false,
      "inputs": [
        {
          "indexed": true,
          "internalType": "uint256",
          "name": "eventId",
          "type": "uint256"
        }
      ],
      "name": "TransferFinish",
      "type": "event"
    },
    {
      "anonymous": false,
      "inputs": [
        {
          "indexed": true,
          "internalType": "uint256",
          "name": "eventId",
          "type": "uint256"
        }
      ],
      "name": "TransferSubmit",
      "type": "event"
    },
    {
      "anonymous": false,
      "inputs": [
        {
          "indexed": false,
          "internalType": "address",
          "name": "account",
          "type": "address"
        }
      ],
      "name": "Unpaused",
      "type": "event"
    },
    {
      "anonymous": false,
      "inputs": [
        {
          "indexed": true,
          "internalType": "address",
          "name": "from",
          "type": "address"
        },
        {
          "indexed": false,
          "internalType": "uint256",
          "name": "eventId",
          "type": "uint256"
        },
        {
          "indexed": false,
          "internalType": "address",
          "name": "tokenFrom",
          "type": "address"
        },
        {
          "indexed": false,
          "internalType": "address",
          "name": "tokenTo",
          "type": "address"
        },
        {
          "indexed": false,
          "internalType": "uint256",
          "name": "amount",
          "type": "uint256"
        },
        {
          "indexed": false,
          "internalType": "uint256",
          "name": "transferFeeAmount",
          "type": "uint256"
        },
        {
          "indexed": false,
          "internalType": "uint256",
          "name": "bridgeFeeAmount",
          "type": "uint256"
        }
      ],
      "name": "Withdraw",
      "type": "event"
    },
    {
      "inputs": [],
      "name": "ADMIN_ROLE",
      "outputs": [
        {
          "internalType": "bytes32",
          "name": "",
          "type": "bytes32"
        }
      ],
      "stateMutability": "view",
      "type": "function"
    },
    {
      "inputs": [],
      "name": "DEFAULT_ADMIN_ROLE",
      "outputs": [
        {
          "internalType": "bytes32",
          "name": "",
          "type": "bytes32"
        }
      ],
      "stateMutability": "view",
      "type": "function"
    },
    {
      "inputs": [],
      "name": "FEE_PROVIDER_ROLE",
      "outputs": [
        {
          "internalType": "bytes32",
          "name": "",
          "type": "bytes32"
        }
      ],
      "stateMutability": "view",
      "type": "function"
    },
    {
      "inputs": [],
      "name": "RELAY_ROLE",
      "outputs": [
        {
          "internalType": "bytes32",
          "name": "",
          "type": "bytes32"
        }
      ],
      "stateMutability": "view",
      "type": "function"
    },
    {
      "inputs": [],
      "name": "WATCHDOG_ROLE",
      "outputs": [
        {
          "internalType": "bytes32",
          "name": "",
          "type": "bytes32"
        }
      ],
      "stateMutability": "view",
      "type": "function"
    },
    {
      "inputs": [],
      "name": "bridgeFeeRecipient",
      "outputs": [
        {
          "internalType": "address payable",
          "name": "",
          "type": "address"
        }
      ],
      "stateMutability": "view",
      "type": "function"
    },
    {
      "inputs": [
        {
          "internalType": "address payable",
          "name": "feeRecipient_",
          "type": "address"
        }
      ],
      "name": "changeBridgeFeeRecipient",
      "outputs": [],
      "stateMutability": "nonpayable",
      "type": "function"
    },
    {
      "inputs": [
        {
          "internalType": "uint256",
          "name": "lockTime_",
          "type": "uint256"
        }
      ],
      "name": "changeLockTime",
      "outputs": [],
      "stateMutability": "nonpayable",
      "type": "function"
    },
    {
      "inputs": [
        {
          "internalType": "uint256",
          "name": "minSafetyBlocks_",
          "type": "uint256"
        }
      ],
      "name": "changeMinSafetyBlocks",
      "outputs": [],
      "stateMutability": "nonpayable",
      "type": "function"
    },
    {
      "inputs": [
        {
          "internalType": "uint256",
          "name": "minSafetyBlocksValidators_",
          "type": "uint256"
        }
      ],
      "name": "changeMinSafetyBlocksValidators",
      "outputs": [],
      "stateMutability": "nonpayable",
      "type": "function"
    },
    {
      "inputs": [
        {
          "internalType": "uint256",
          "name": "signatureFeeCheckNumber_",
          "type": "uint256"
        }
      ],
      "name": "changeSignatureFeeCheckNumber",
      "outputs": [],
      "stateMutability": "nonpayable",
      "type": "function"
    },
    {
      "inputs": [
        {
          "internalType": "uint256",
          "name": "timeframeSeconds_",
          "type": "uint256"
        }
      ],
      "name": "changeTimeframeSeconds",
      "outputs": [],
      "stateMutability": "nonpayable",
      "type": "function"
    },
    {
      "inputs": [
        {
          "internalType": "address payable",
          "name": "feeRecipient_",
          "type": "address"
        }
      ],
      "name": "changeTransferFeeRecipient",
      "outputs": [],
      "stateMutability": "nonpayable",
      "type": "function"
    },
    {
      "inputs": [
        {
          "internalType": "uint256",
          "name": "eventId",
          "type": "uint256"
        }
      ],
      "name": "getLockedTransfers",
      "outputs": [
        {
          "components": [
            {
              "components": [
                {
                  "internalType": "address",
                  "name": "tokenAddress",
                  "type": "address"
                },
                {
                  "internalType": "address",
                  "name": "toAddress",
                  "type": "address"
                },
                {
                  "internalType": "uint256",
                  "name": "amount",
                  "type": "uint256"
                }
              ],
              "internalType": "struct CommonStructs.Transfer[]",
              "name": "transfers",
              "type": "tuple[]"
            },
            {
              "internalType": "uint256",
              "name": "endTimestamp",
              "type": "uint256"
            }
          ],
          "internalType": "struct CommonStructs.LockedTransfers",
          "name": "",
          "type": "tuple"
        }
      ],
      "stateMutability": "view",
      "type": "function"
    },
    {
      "inputs": [
        {
          "internalType": "bytes32",
          "name": "role",
          "type": "bytes32"
        }
      ],
      "name": "getRoleAdmin",
      "outputs": [
        {
          "internalType": "bytes32",
          "name": "",
          "type": "bytes32"
        }
      ],
      "stateMutability": "view",
      "type": "function"
    },
    {
      "inputs": [],
      "name": "getValidatorSet",
      "outputs": [
        {
          "internalType": "address[]",
          "name": "",
          "type": "address[]"
        }
      ],
      "stateMutability": "view",
      "type": "function"
    },
    {
      "inputs": [
        {
          "internalType": "bytes32",
          "name": "role",
          "type": "bytes32"
        },
        {
          "internalType": "address",
          "name": "account",
          "type": "address"
        }
      ],
      "name": "grantRole",
      "outputs": [],
      "stateMutability": "nonpayable",
      "type": "function"
    },
    {
      "inputs": [
        {
          "internalType": "bytes32",
          "name": "role",
          "type": "bytes32"
        },
        {
          "internalType": "address",
          "name": "account",
          "type": "address"
        }
      ],
      "name": "hasRole",
      "outputs": [
        {
          "internalType": "bool",
          "name": "",
          "type": "bool"
        }
      ],
      "stateMutability": "view",
      "type": "function"
    },
    {
      "inputs": [
        {
          "components": [
            {
              "internalType": "address",
              "name": "sideBridgeAddress",
              "type": "address"
            },
            {
              "internalType": "address",
              "name": "adminAddress",
              "type": "address"
            },
            {
              "internalType": "address",
              "name": "relayAddress",
              "type": "address"
            },
            {
              "internalType": "address",
              "name": "feeProviderAddress",
              "type": "address"
            },
            {
              "internalType": "address[]",
              "name": "watchdogsAddresses",
              "type": "address[]"
            },
            {
              "internalType": "address",
              "name": "wrappingTokenAddress",
              "type": "address"
            },
            {
              "internalType": "address[]",
              "name": "tokenThisAddresses",
              "type": "address[]"
            },
            {
              "internalType": "address[]",
              "name": "tokenSideAddresses",
              "type": "address[]"
            },
            {
              "internalType": "address payable",
              "name": "transferFeeRecipient",
              "type": "address"
            },
            {
              "internalType": "address payable",
              "name": "bridgeFeeRecipient",
              "type": "address"
            },
            {
              "internalType": "uint256",
              "name": "timeframeSeconds",
              "type": "uint256"
            },
            {
              "internalType": "uint256",
              "name": "lockTime",
              "type": "uint256"
            },
            {
              "internalType": "uint256",
              "name": "minSafetyBlocks",
              "type": "uint256"
            }
          ],
          "internalType": "struct CommonStructs.ConstructorArgs",
          "name": "args",
          "type": "tuple"
        },
        {
          "internalType": "address[]",
          "name": "initialValidators",
          "type": "address[]"
        },
        {
          "internalType": "address",
          "name": "validatorSetAddress",
          "type": "address"
        },
        {
          "internalType": "bytes32",
          "name": "lastProcessedBlock",
          "type": "bytes32"
        },
        {
          "internalType": "uint256",
          "name": "minSafetyBlocksValidators",
          "type": "uint256"
        }
      ],
      "name": "initialize",
      "outputs": [],
      "stateMutability": "nonpayable",
      "type": "function"
    },
    {
      "inputs": [],
      "name": "inputEventId",
      "outputs": [
        {
          "internalType": "uint256",
          "name": "",
          "type": "uint256"
        }
      ],
      "stateMutability": "view",
      "type": "function"
    },
    {
      "inputs": [],
      "name": "isQueueEmpty",
      "outputs": [
        {
          "internalType": "bool",
          "name": "",
          "type": "bool"
        }
      ],
      "stateMutability": "view",
      "type": "function"
    },
    {
      "inputs": [],
      "name": "lastProcessedBlock",
      "outputs": [
        {
          "internalType": "bytes32",
          "name": "",
          "type": "bytes32"
        }
      ],
      "stateMutability": "view",
      "type": "function"
    },
    {
      "inputs": [],
      "name": "lastTimeframe",
      "outputs": [
        {
          "internalType": "uint256",
          "name": "",
          "type": "uint256"
        }
      ],
      "stateMutability": "view",
      "type": "function"
    },
    {
      "inputs": [],
      "name": "lockTime",
      "outputs": [
        {
          "internalType": "uint256",
          "name": "",
          "type": "uint256"
        }
      ],
      "stateMutability": "view",
      "type": "function"
    },
    {
      "inputs": [
        {
          "internalType": "uint256",
          "name": "",
          "type": "uint256"
        }
      ],
      "name": "lockedTransfers",
      "outputs": [
        {
          "internalType": "uint256",
          "name": "endTimestamp",
          "type": "uint256"
        }
      ],
      "stateMutability": "view",
      "type": "function"
    },
    {
      "inputs": [],
      "name": "minSafetyBlocks",
      "outputs": [
        {
          "internalType": "uint256",
          "name": "",
          "type": "uint256"
        }
      ],
      "stateMutability": "view",
      "type": "function"
    },
    {
      "inputs": [],
      "name": "minSafetyBlocksValidators",
      "outputs": [
        {
          "internalType": "uint256",
          "name": "",
          "type": "uint256"
        }
      ],
      "stateMutability": "view",
      "type": "function"
    },
    {
      "inputs": [],
      "name": "oldestLockedEventId",
      "outputs": [
        {
          "internalType": "uint256",
          "name": "",
          "type": "uint256"
        }
      ],
      "stateMutability": "view",
      "type": "function"
    },
    {
      "inputs": [],
      "name": "outputEventId",
      "outputs": [
        {
          "internalType": "uint256",
          "name": "",
          "type": "uint256"
        }
      ],
      "stateMutability": "view",
      "type": "function"
    },
    {
      "inputs": [],
      "name": "pause",
      "outputs": [],
      "stateMutability": "nonpayable",
      "type": "function"
    },
    {
      "inputs": [],
      "name": "paused",
      "outputs": [
        {
          "internalType": "bool",
          "name": "",
          "type": "bool"
        }
      ],
      "stateMutability": "view",
      "type": "function"
    },
    {
      "inputs": [
        {
          "internalType": "uint256",
          "name": "eventId",
          "type": "uint256"
        }
      ],
      "name": "removeLockedTransfers",
      "outputs": [],
      "stateMutability": "nonpayable",
      "type": "function"
    },
    {
      "inputs": [
        {
          "internalType": "bytes32",
          "name": "role",
          "type": "bytes32"
        },
        {
          "internalType": "address",
          "name": "account",
          "type": "address"
        }
      ],
      "name": "renounceRole",
      "outputs": [],
      "stateMutability": "nonpayable",
      "type": "function"
    },
    {
      "inputs": [
        {
          "internalType": "bytes32",
          "name": "role",
          "type": "bytes32"
        },
        {
          "internalType": "address",
          "name": "account",
          "type": "address"
        }
      ],
      "name": "revokeRole",
      "outputs": [],
      "stateMutability": "nonpayable",
      "type": "function"
    },
    {
      "inputs": [
        {
          "internalType": "address",
          "name": "_fee_provider",
          "type": "address"
        },
        {
          "internalType": "address[]",
          "name": "_watchdogs",
          "type": "address[]"
        }
      ],
      "name": "setFeeProviderAndWatchdogs",
      "outputs": [],
      "stateMutability": "nonpayable",
      "type": "function"
    },
    {
      "inputs": [],
      "name": "sideBridgeAddress",
      "outputs": [
        {
          "internalType": "address",
          "name": "",
          "type": "address"
        }
      ],
      "stateMutability": "view",
      "type": "function"
    },
    {
      "inputs": [
        {
          "internalType": "uint256",
          "name": "eventId",
          "type": "uint256"
        }
      ],
      "name": "skipTransfers",
      "outputs": [],
      "stateMutability": "nonpayable",
      "type": "function"
    },
    {
      "inputs": [
        {
          "components": [
            {
              "components": [
                {
                  "internalType": "bytes3",
                  "name": "p0Seal",
                  "type": "bytes3"
                },
                {
                  "internalType": "bytes3",
                  "name": "p0Bare",
                  "type": "bytes3"
                },
                {
                  "internalType": "bytes32",
                  "name": "parentHash",
                  "type": "bytes32"
                },
                {
                  "internalType": "bytes",
                  "name": "p2",
                  "type": "bytes"
                },
                {
                  "internalType": "bytes32",
                  "name": "receiptHash",
                  "type": "bytes32"
                },
                {
                  "internalType": "bytes",
                  "name": "p3",
                  "type": "bytes"
                },
                {
                  "internalType": "bytes4",
                  "name": "step",
                  "type": "bytes4"
                },
                {
                  "internalType": "bytes",
                  "name": "signature",
                  "type": "bytes"
                },
                {
                  "internalType": "uint64",
                  "name": "finalizedVs",
                  "type": "uint64"
                }
              ],
              "internalType": "struct CheckAura.BlockAura[]",
              "name": "blocks",
              "type": "tuple[]"
            },
            {
              "components": [
                {
                  "internalType": "bytes[]",
                  "name": "receiptProof",
                  "type": "bytes[]"
                },
                {
                  "internalType": "uint256",
                  "name": "eventId",
                  "type": "uint256"
                },
                {
                  "components": [
                    {
                      "internalType": "address",
                      "name": "tokenAddress",
                      "type": "address"
                    },
                    {
                      "internalType": "address",
                      "name": "toAddress",
                      "type": "address"
                    },
                    {
                      "internalType": "uint256",
                      "name": "amount",
                      "type": "uint256"
                    }
                  ],
                  "internalType": "struct CommonStructs.Transfer[]",
                  "name": "transfers",
                  "type": "tuple[]"
                }
              ],
              "internalType": "struct CommonStructs.TransferProof",
              "name": "transfer",
              "type": "tuple"
            },
            {
              "components": [
                {
                  "internalType": "bytes[]",
                  "name": "receiptProof",
                  "type": "bytes[]"
                },
                {
                  "components": [
                    {
                      "internalType": "address",
                      "name": "deltaAddress",
                      "type": "address"
                    },
                    {
                      "internalType": "uint16",
                      "name": "deltaIndex",
                      "type": "uint16"
                    }
                  ],
                  "internalType": "struct CheckAura.ValidatorSetChange[]",
                  "name": "changes",
                  "type": "tuple[]"
                },
                {
                  "internalType": "uint64",
                  "name": "eventBlock",
                  "type": "uint64"
                }
              ],
              "internalType": "struct CheckAura.ValidatorSetProof[]",
              "name": "vsChanges",
              "type": "tuple[]"
            },
            {
              "internalType": "uint64",
              "name": "transferEventBlock",
              "type": "uint64"
            }
          ],
          "internalType": "struct CheckAura.AuraProof",
          "name": "auraProof",
          "type": "tuple"
        }
      ],
      "name": "submitTransferAura",
      "outputs": [],
      "stateMutability": "nonpayable",
      "type": "function"
    },
    {
      "inputs": [
        {
          "components": [
            {
              "components": [
                {
                  "internalType": "bytes3",
                  "name": "p0Seal",
                  "type": "bytes3"
                },
                {
                  "internalType": "bytes3",
                  "name": "p0Bare",
                  "type": "bytes3"
                },
                {
                  "internalType": "bytes32",
                  "name": "parentHash",
                  "type": "bytes32"
                },
                {
                  "internalType": "bytes",
                  "name": "p2",
                  "type": "bytes"
                },
                {
                  "internalType": "bytes32",
                  "name": "receiptHash",
                  "type": "bytes32"
                },
                {
                  "internalType": "bytes",
                  "name": "p3",
                  "type": "bytes"
                },
                {
                  "internalType": "bytes4",
                  "name": "step",
                  "type": "bytes4"
                },
                {
                  "internalType": "bytes",
                  "name": "signature",
                  "type": "bytes"
                },
                {
                  "internalType": "uint64",
                  "name": "finalizedVs",
                  "type": "uint64"
                }
              ],
              "internalType": "struct CheckAura.BlockAura[]",
              "name": "blocks",
              "type": "tuple[]"
            },
            {
              "components": [
                {
                  "internalType": "bytes[]",
                  "name": "receiptProof",
                  "type": "bytes[]"
                },
                {
                  "internalType": "uint256",
                  "name": "eventId",
                  "type": "uint256"
                },
                {
                  "components": [
                    {
                      "internalType": "address",
                      "name": "tokenAddress",
                      "type": "address"
                    },
                    {
                      "internalType": "address",
                      "name": "toAddress",
                      "type": "address"
                    },
                    {
                      "internalType": "uint256",
                      "name": "amount",
                      "type": "uint256"
                    }
                  ],
                  "internalType": "struct CommonStructs.Transfer[]",
                  "name": "transfers",
                  "type": "tuple[]"
                }
              ],
              "internalType": "struct CommonStructs.TransferProof",
              "name": "transfer",
              "type": "tuple"
            },
            {
              "components": [
                {
                  "internalType": "bytes[]",
                  "name": "receiptProof",
                  "type": "bytes[]"
                },
                {
                  "components": [
                    {
                      "internalType": "address",
                      "name": "deltaAddress",
                      "type": "address"
                    },
                    {
                      "internalType": "uint16",
                      "name": "deltaIndex",
                      "type": "uint16"
                    }
                  ],
                  "internalType": "struct CheckAura.ValidatorSetChange[]",
                  "name": "changes",
                  "type": "tuple[]"
                },
                {
                  "internalType": "uint64",
                  "name": "eventBlock",
                  "type": "uint64"
                }
              ],
              "internalType": "struct CheckAura.ValidatorSetProof[]",
              "name": "vsChanges",
              "type": "tuple[]"
            },
            {
              "internalType": "uint64",
              "name": "transferEventBlock",
              "type": "uint64"
            }
          ],
          "internalType": "struct CheckAura.AuraProof",
          "name": "auraProof",
          "type": "tuple"
        }
      ],
      "name": "submitValidatorSetChangesAura",
      "outputs": [],
      "stateMutability": "nonpayable",
      "type": "function"
    },
    {
      "inputs": [
        {
          "internalType": "bytes4",
          "name": "interfaceId",
          "type": "bytes4"
        }
      ],
      "name": "supportsInterface",
      "outputs": [
        {
          "internalType": "bool",
          "name": "",
          "type": "bool"
        }
      ],
      "stateMutability": "view",
      "type": "function"
    },
    {
      "inputs": [],
      "name": "timeframeSeconds",
      "outputs": [
        {
          "internalType": "uint256",
          "name": "",
          "type": "uint256"
        }
      ],
      "stateMutability": "view",
      "type": "function"
    },
    {
      "inputs": [
        {
          "internalType": "address",
          "name": "",
          "type": "address"
        }
      ],
      "name": "tokenAddresses",
      "outputs": [
        {
          "internalType": "address",
          "name": "",
          "type": "address"
        }
      ],
      "stateMutability": "view",
      "type": "function"
    },
    {
      "inputs": [
        {
          "internalType": "address",
          "name": "tokenThisAddress",
          "type": "address"
        },
        {
          "internalType": "address",
          "name": "tokenSideAddress",
          "type": "address"
        }
      ],
      "name": "tokensAdd",
      "outputs": [],
      "stateMutability": "nonpayable",
      "type": "function"
    },
    {
      "inputs": [
        {
          "internalType": "address[]",
          "name": "tokenThisAddresses",
          "type": "address[]"
        },
        {
          "internalType": "address[]",
          "name": "tokenSideAddresses",
          "type": "address[]"
        }
      ],
      "name": "tokensAddBatch",
      "outputs": [],
      "stateMutability": "nonpayable",
      "type": "function"
    },
    {
      "inputs": [
        {
          "internalType": "address",
          "name": "tokenThisAddress",
          "type": "address"
        }
      ],
      "name": "tokensRemove",
      "outputs": [],
      "stateMutability": "nonpayable",
      "type": "function"
    },
    {
      "inputs": [
        {
          "internalType": "address[]",
          "name": "tokenThisAddresses",
          "type": "address[]"
        }
      ],
      "name": "tokensRemoveBatch",
      "outputs": [],
      "stateMutability": "nonpayable",
      "type": "function"
    },
    {
      "inputs": [],
      "name": "transferFeeRecipient",
      "outputs": [
        {
          "internalType": "address payable",
          "name": "",
          "type": "address"
        }
      ],
      "stateMutability": "view",
      "type": "function"
    },
    {
      "inputs": [],
      "name": "triggerTransfers",
      "outputs": [],
      "stateMutability": "nonpayable",
      "type": "function"
    },
    {
      "inputs": [
        {
          "internalType": "uint256",
          "name": "eventId",
          "type": "uint256"
        }
      ],
      "name": "unlockTransfers",
      "outputs": [],
      "stateMutability": "nonpayable",
      "type": "function"
    },
    {
      "inputs": [],
      "name": "unlockTransfersBatch",
      "outputs": [],
      "stateMutability": "nonpayable",
      "type": "function"
    },
    {
      "inputs": [],
      "name": "unpause",
      "outputs": [],
      "stateMutability": "nonpayable",
      "type": "function"
    },
    {
      "inputs": [
        {
          "internalType": "uint256",
          "name": "",
          "type": "uint256"
        }
      ],
      "name": "validatorSet",
      "outputs": [
        {
          "internalType": "address",
          "name": "",
          "type": "address"
        }
      ],
      "stateMutability": "view",
      "type": "function"
    },
    {
      "inputs": [
        {
          "internalType": "address",
          "name": "tokenThisAddress",
          "type": "address"
        },
        {
          "internalType": "address",
          "name": "toAddress",
          "type": "address"
        },
        {
          "internalType": "uint256",
          "name": "amount",
          "type": "uint256"
        },
        {
          "internalType": "bool",
          "name": "unwrapSide",
          "type": "bool"
        },
        {
          "internalType": "bytes",
          "name": "feeSignature",
          "type": "bytes"
        },
        {
          "internalType": "uint256",
          "name": "transferFee",
          "type": "uint256"
        },
        {
          "internalType": "uint256",
          "name": "bridgeFee",
          "type": "uint256"
        }
      ],
      "name": "withdraw",
      "outputs": [],
      "stateMutability": "payable",
      "type": "function"
    },
    {
      "inputs": [
        {
          "internalType": "address",
          "name": "toAddress",
          "type": "address"
        },
        {
          "internalType": "bytes",
          "name": "feeSignature",
          "type": "bytes"
        },
        {
          "internalType": "uint256",
          "name": "transferFee",
          "type": "uint256"
        },
        {
          "internalType": "uint256",
          "name": "bridgeFee",
          "type": "uint256"
        }
      ],
      "name": "wrapWithdraw",
      "outputs": [],
      "stateMutability": "payable",
      "type": "function"
    },
    {
      "inputs": [],
      "name": "wrapperAddress",
      "outputs": [
        {
          "internalType": "address",
          "name": "",
          "type": "address"
        }
      ],
      "stateMutability": "view",
      "type": "function"
    },
    {
      "stateMutability": "payable",
      "type": "receive"
    }
  ],
  "transactionHash": "0xd55a0527f001e41bdd3c973c5c02a565d78277b5ecf9d877f8117ce9737dd29a",
  "args": [],
  "numDeployments": 3,
  "solcInputHash": "f2c587eeec228323e52d71e9eac53718",
  "bytecode": "0x608060405234801561001057600080fd5b50614b73806100206000396000f3fe6080604052600436106103585760003560e060020a900480638ac1f86f116101ca578063c4bcb13f116100fb578063e64808f311610099578063f862b7eb11610073578063f862b7eb146109cc578063f8ae31bf146109ec578063f8b7443314610a02578063fd5d2ef314610a1557600080fd5b8063e64808f31461096c578063f33fe10f1461098c578063f7005587146109ac57600080fd5b8063d3b89f49116100d5578063d3b89f49146108cb578063d547741f146108ff578063df9b709e1461091f578063e31be0871461093f57600080fd5b8063c4bcb13f14610869578063cf33125014610889578063cf3317d3146108ab57600080fd5b806399b5bb6411610168578063b6d3385e11610142578063b6d3385e146107e7578063b87330e91461081d578063ba8bbbe01461083d578063baeebe751461085357600080fd5b806399b5bb6414610788578063a217fddf1461079e578063a9b1cf0b146107b357600080fd5b806391d14854116101a457806391d1485414610712578063924473a614610732578063924cf6e01461075257806396cf52271461076857600080fd5b80638ac1f86f146106ca5780638e5df9c7146106df57806391c5bc0a146106ff57600080fd5b80633928b296116102a45780636ff7c546116102425780637df8b8021161021c5780637df8b8021461065f5780638456cb591461067f578063853890ae1461069457806386d7679e146106b457600080fd5b80636ff7c54614610608578063746b5c421461062857806375b238fc1461063d57600080fd5b80634a1856de1161027e5780634a1856de146105805780635249a705146105b05780635c975abb146105d057806369fb7212146105e857600080fd5b80633928b2961461052b5780633f4ba83a1461054b57806342180fb81461056057600080fd5b80632bbba84711610311578063331a891a116102eb578063331a891a146104b557806333de61d2146104d557806336568abe146104eb578063390d53881461050b57600080fd5b80632bbba847146104475780632f2ff15d1461045d578063304561bb1461047d57600080fd5b806301ffc9a714610364578063044218231461039957806309fce356146103c95780630d668087146103eb578063248a9ca314610401578063297c26771461043157600080fd5b3661035f57005b600080fd5b34801561037057600080fd5b5061038461037f366004613fc1565b610a35565b60405190151581526020015b60405180910390f35b3480156103a557600080fd5b506103bb600080516020614afe83398151915281565b604051908152602001610390565b3480156103d557600080fd5b506103e96103e4366004613eba565b610a9e565b005b3480156103f757600080fd5b506103bb60d45481565b34801561040d57600080fd5b506103bb61041c366004613f83565b60009081526065602052604090206001015490565b34801561043d57600080fd5b506103bb60d65481565b34801561045357600080fd5b5060ca5415610384565b34801561046957600080fd5b506103e9610478366004613f9c565b610aca565b34801561048957600080fd5b5060cf5461049d90600160a060020a031681565b604051600160a060020a039091168152602001610390565b3480156104c157600080fd5b506103e96104d0366004613f83565b610af5565b3480156104e157600080fd5b506103bb60e95481565b3480156104f757600080fd5b506103e9610506366004613f9c565b610c15565b34801561051757600080fd5b5060d05461049d90600160a060020a031681565b34801561053757600080fd5b506103e9610546366004613cd2565b610ca0565b34801561055757600080fd5b506103e9610cdc565b34801561056c57600080fd5b506103e961057b366004613f83565b610d00565b34801561058c57600080fd5b506103bb61059b366004613f83565b60cb6020526000908152604090206001015481565b3480156105bc57600080fd5b506103e96105cb366004613e78565b610d3d565b3480156105dc57600080fd5b5060975460ff16610384565b3480156105f457600080fd5b506103e9610603366004614026565b610dc6565b34801561061457600080fd5b506103e9610623366004613f83565b610e51565b34801561063457600080fd5b506103e9610e70565b34801561064957600080fd5b506103bb600080516020614b1e83398151915281565b34801561066b57600080fd5b5060ce5461049d90600160a060020a031681565b34801561068b57600080fd5b506103e9610f1c565b3480156106a057600080fd5b506103e96106af366004613cef565b610f4f565b3480156106c057600080fd5b506103bb60d75481565b3480156106d657600080fd5b506103e9610f97565b3480156106eb57600080fd5b506103e96106fa366004613cd2565b6110ef565b6103e961070d366004613e11565b611130565b34801561071e57600080fd5b5061038461072d366004613f9c565b611457565b34801561073e57600080fd5b506103e961074d366004613feb565b611482565b34801561075e57600080fd5b506103bb60d25481565b34801561077457600080fd5b506103e9610783366004613f83565b611565565b34801561079457600080fd5b506103bb60d55481565b3480156107aa57600080fd5b506103bb600081565b3480156107bf57600080fd5b506103bb7fb7f2fcb7a10916921b74b9baa8ea85f89b12ab12f6ededa160998f8b20e65f9581565b3480156107f357600080fd5b5061049d610802366004613cd2565b60cd60205260009081526040902054600160a060020a031681565b34801561082957600080fd5b506103e9610838366004613cd2565b611584565b34801561084957600080fd5b506103bb60cc5481565b34801561085f57600080fd5b506103bb60d35481565b34801561087557600080fd5b506103e9610884366004613feb565b6115c0565b34801561089557600080fd5b5061089e611619565b604051610390919061441a565b3480156108b757600080fd5b506103e96108c6366004613f83565b61167b565b3480156108d757600080fd5b506103bb7f516d5e7ed3e60a6b2804c1554cd94bc2eb576e44b192a0e069d4c527589a887e81565b34801561090b57600080fd5b506103e961091a366004613f9c565b6116f2565b34801561092b57600080fd5b506103e961093a366004613dbc565b611718565b34801561094b57600080fd5b5061095f61095a366004613f83565b6117ee565b60405161039091906146e6565b34801561097857600080fd5b5061049d610987366004613f83565b6118aa565b34801561099857600080fd5b5060d15461049d90600160a060020a031681565b3480156109b857600080fd5b506103e96109c7366004613f83565b6118d4565b3480156109d857600080fd5b506103e96109e7366004613f83565b6118f3565b3480156109f857600080fd5b506103bb60ea5481565b6103e9610a10366004613d28565b611b26565b348015610a2157600080fd5b506103e9610a30366004613f83565b611f86565b6000600160e060020a031982167f7965db0b000000000000000000000000000000000000000000000000000000001480610a9857507f01ffc9a700000000000000000000000000000000000000000000000000000000600160e060020a03198316145b92915050565b600080516020614b1e833981519152610ab78133611fa5565b610ac38585858561200c565b5050505050565b600082815260656020526040902060010154610ae68133611fa5565b610af0838361212d565b505050565b600080516020614b1e833981519152610b0e8133611fa5565b60975460ff16610b3c5760405160e560020a62461bcd028152600401610b33906145be565b60405180910390fd5b60cc54821015610b615760405160e560020a62461bcd028152600401610b3390614689565b60d554821115610bb65760405160e560020a62461bcd02815260206004820152601f60248201527f6576656e744964206d757374206265203c3d20696e7075744576656e744964006044820152606401610b33565b610bc160018361492b565b60d5555b600082815260cb602052604090206001015415610c1157600082815260cb6020526040812090610bf58282613b79565b5060006001919091015581610c09816149cf565b925050610bc5565b5050565b600160a060020a0381163314610c965760405160e560020a62461bcd02815260206004820152602f60248201527f416363657373436f6e74726f6c3a2063616e206f6e6c792072656e6f756e636560448201527f20726f6c657320666f722073656c6600000000000000000000000000000000006064820152608401610b33565b610c1182826121b3565b600080516020614b1e833981519152610cb98133611fa5565b5060d08054600160a060020a031916600160a060020a0392909216919091179055565b600080516020614b1e833981519152610cf58133611fa5565b610cfd61221a565b50565b600080516020614b1e833981519152610d198133611fa5565b8160d35460d754610d2a91906148e9565b610d3491906148d5565b60d7555060d355565b600080516020614b1e833981519152610d568133611fa5565b8160005b81811015610ac35760cd6000868684818110610d7857610d78614a49565b9050602002016020810190610d8d9190613cd2565b600160a060020a0316815260208101919091526040016000208054600160a060020a031916905580610dbe816149cf565b915050610d5a565b600054610100900460ff1680610ddf575060005460ff16155b610dfe5760405160e560020a62461bcd028152600401610b339061462c565b600054610100900460ff16158015610e20576000805461ffff19166101011790555b610e2987612289565b610e368686868686612483565b8015610e48576000805461ff00191690555b50505050505050565b600080516020614b1e833981519152610e6a8133611fa5565b5060ea55565b60ca54610ec25760405160e560020a62461bcd02815260206004820152600e60248201527f517565756520697320656d7074790000000000000000000000000000000000006044820152606401610b33565b60d68054906000610ed2836149cf565b919050557fe15729a2f427aa4572dab35eb692c902fcbce57d41642013259c741380809ae260ca604051610f06919061451b565b60405180910390a2610f1a60ca6000613b79565b565b7fb7f2fcb7a10916921b74b9baa8ea85f89b12ab12f6ededa160998f8b20e65f95610f478133611fa5565b610cfd61259e565b600080516020614b1e833981519152610f688133611fa5565b50600160a060020a03918216600090815260cd602052604090208054600160a060020a03191691909216179055565b60975460ff1615610fbd5760405160e560020a62461bcd028152600401610b33906145f5565b60cc545b600081815260cb60209081526040808320815181546060948102820185018452928101838152909391928492849190879085015b8282101561104f57600084815260209081902060408051606081018252600386029092018054600160a060020a03908116845260018083015490911684860152600290910154918301919091529083529092019101610ff5565b50505050815260200160018201548152505090508060200151600014806110795750428160200151115b15611084575060cc55565b805161108f906125f9565b600082815260cb60205260408120906110a88282613b79565b50600060019190910181905560405183917f78ff9b3176bb0d6421590f3816e75cb15a9ffa2b7a1a028f40a3f4e029eb39f291a250806110e7816149cf565b915050610fc1565b600080516020614b1e8339815191526111088133611fa5565b50600160a060020a0316600090815260cd602052604090208054600160a060020a0319169055565b60ce54600160a060020a03908116600090815260cd6020526040902054168061119e5760405160e560020a62461bcd02815260206004820152601560248201527f556e6b6e6f776e20746f6b656e206164647265737300000000000000000000006044820152606401610b33565b6111a882846148bd565b34116111f95760405160e560020a62461bcd02815260206004820152601160248201527f53656e742076616c7565203c3d206665650000000000000000000000000000006044820152606401610b33565b600082611206853461492b565b611210919061492b565b60ce5490915061122d90600160a060020a0316878787878661288d565b60cf54604051600160a060020a039091169085156108fc029086906000818181858888f19350505050158015611267573d6000803e3d6000fd5b5060d054604051600160a060020a039091169084156108fc029085906000818181858888f193505050501580156112a2573d6000803e3d6000fd5b5060ce60009054906101000a9004600160a060020a0316600160a060020a031663d0e30db0826040518263ffffffff1660e060020a0281526004016000604051808303818588803b1580156112f657600080fd5b505af115801561130a573d6000803e3d6000fd5b505060408051606081018252600160a060020a0380881682528c81166020830190815282840188815260ca80546001810182556000918252945160039095027f42d72674974f694b5f5159593243114d38a5c39c89d6b62fee061ff523240ee181018054968616600160a060020a031997881617905592517f42d72674974f694b5f5159593243114d38a5c39c89d6b62fee061ff523240ee2840180549190951695169490941790925590517f42d72674974f694b5f5159593243114d38a5c39c89d6b62fee061ff523240ee39091015560d65491513395507f3b823d3b837159352faddd1e0b9e9f584ca2bfe976238f6a9e6da4615cf2f44494506114479350879087908b908b90958652600160a060020a0394851660208701529290931660408501526060840152608083019190915260a082015260c00190565b60405180910390a2610e48612a33565b6000918252606560209081526040808420600160a060020a0393909316845291905290205460ff1690565b600080516020614afe83398151915261149b8133611fa5565b60975460ff16156114c15760405160e560020a62461bcd028152600401610b33906145f5565b6114ce60208301836148a7565b602001357f196c47048e38df7a4fe6e581c8f4f2e2ba67ac0dd45b90da756e97bd61d9dd3b60405160405180910390a261151761150e60208401846148a7565b60200135612aab565b60d25460d154611531918491600160a060020a0316612b10565b610c1161154160208401846148a7565b61154f9060408101906147ad565b61155c60208601866148a7565b6020013561307b565b600080516020614b1e83398151915261157e8133611fa5565b5060d455565b600080516020614b1e83398151915261159d8133611fa5565b5060cf8054600160a060020a031916600160a060020a0392909216919091179055565b600080516020614afe8339815191526115d98133611fa5565b60975460ff16156115ff5760405160e560020a62461bcd028152600401610b33906145f5565b60d25460d154610c11918491600160a060020a0316612b10565b606060e780548060200260200160405190810160405280929190818152602001828054801561167157602002820191906000526020600020905b8154600160a060020a03168152600190910190602001808311611653575b5050505050905090565b600080516020614b1e8339815191526116948133611fa5565b60975460ff166116b95760405160e560020a62461bcd028152600401610b33906145be565b60cc548210156116de5760405160e560020a62461bcd028152600401610b3390614689565b6116e960018361492b565b60d5555060cc55565b60008281526065602052604090206001015461170e8133611fa5565b610af083836121b3565b600080516020614b1e8339815191526117318133611fa5565b60975460ff16156117575760405160e560020a62461bcd028152600401610b33906145f5565b6117817f516d5e7ed3e60a6b2804c1554cd94bc2eb576e44b192a0e069d4c527589a887e8561310f565b60005b82811015610ac3576117dc7fb7f2fcb7a10916921b74b9baa8ea85f89b12ab12f6ededa160998f8b20e65f958585848181106117c2576117c2614a49565b90506020020160208101906117d79190613cd2565b61310f565b806117e6816149cf565b915050611784565b604080518082019091526060815260006020820152600082815260cb60209081526040808320815181546060948102820185018452928101838152909491938593919285929185015b8282101561189157600084815260209081902060408051606081018252600386029092018054600160a060020a03908116845260018083015490911684860152600290910154918301919091529083529092019101611837565b5050505081526020016001820154815250509050919050565b60e781815481106118ba57600080fd5b600091825260209091200154600160a060020a0316905081565b600080516020614b1e8339815191526118ed8133611fa5565b5060c955565b60975460ff16156119195760405160e560020a62461bcd028152600401610b33906145f5565b60cc54811461196d5760405160e560020a62461bcd02815260206004820152601c60248201527f63616e20756e6c6f636b206f6e6c79206f6c64657374206576656e74000000006044820152606401610b33565b600081815260cb60209081526040808320815181546060948102820185018452928101838152909391928492849190879085015b828210156119fb57600084815260209081902060408051606081018252600386029092018054600160a060020a039081168452600180830154909116848601526002909101549183019190915290835290920191016119a1565b50505050815260200160018201548152505090506000816020015111611a665760405160e560020a62461bcd02815260206004820181905260248201527f6e6f206c6f636b6564207472616e7366657273207769746820746869732069646044820152606401610b33565b42816020015110611abc5760405160e560020a62461bcd02815260206004820152601b60248201527f6c6f636b54696d6520686173206e6f74207965742070617373656400000000006044820152606401610b33565b8051611ac7906125f9565b600082815260cb6020526040812090611ae08282613b79565b50600060019190910181905560405183917f78ff9b3176bb0d6421590f3816e75cb15a9ffa2b7a1a028f40a3f4e029eb39f291a2611b1f8260016148bd565b60cc555050565b60008515611bbb576000805260cd6020527fcd565b10a72538d86f6d352f37ebc5dff31587960b12c0afe00fd03947a6932a54600160a060020a038a8116911614611bb65760405160e560020a62461bcd02815260206004820152601f60248201527f546f6b656e206e6f7420706f696e7420746f206e617469766520746f6b656e006044820152606401610b33565b611c27565b50600160a060020a03808916600090815260cd60205260409020541680611c275760405160e560020a62461bcd02815260206004820152601560248201527f556e6b6e6f776e20746f6b656e206164647265737300000000000000000000006044820152606401610b33565b611c3182846148bd565b3414611c825760405160e560020a62461bcd02815260206004820152601160248201527f53656e742076616c756520213d206665650000000000000000000000000000006044820152606401610b33565b60008711611cd55760405160e560020a62461bcd02815260206004820152601160248201527f43616e6e6f7420776974686472617720300000000000000000000000000000006044820152606401610b33565b611ce389868686868c61288d565b60cf54604051600160a060020a039091169084156108fc029085906000818181858888f19350505050158015611d1d573d6000803e3d6000fd5b5060d054604051600160a060020a039091169083156108fc029084906000818181858888f19350505050158015611d58573d6000803e3d6000fd5b506040517f23b872dd00000000000000000000000000000000000000000000000000000000815233600482015230602482015260448101889052600160a060020a038a16906323b872dd90606401602060405180830381600087803b158015611dc057600080fd5b505af1158015611dd4573d6000803e3d6000fd5b505050506040513d601f19601f82011682018060405250810190611df89190613f26565b611e475760405160e560020a62461bcd02815260206004820152601360248201527f4661696c207472616e7366657220636f696e73000000000000000000000000006044820152606401610b33565b6040805160608082018352600160a060020a038481168084528c821660208086019182528587018e815260ca8054600181018255600091909152965160039097027f42d72674974f694b5f5159593243114d38a5c39c89d6b62fee061ff523240ee181018054988716600160a060020a0319998a1617905592517f42d72674974f694b5f5159593243114d38a5c39c89d6b62fee061ff523240ee284018054918716919098161790965594517f42d72674974f694b5f5159593243114d38a5c39c89d6b62fee061ff523240ee39091015560d6548551908152918e16938201939093529283019190915281018890526080810184905260a0810183905233907f3b823d3b837159352faddd1e0b9e9f584ca2bfe976238f6a9e6da4615cf2f4449060c00160405180910390a2611f7b612a33565b505050505050505050565b600080516020614b1e833981519152611f9f8133611fa5565b5060d255565b611faf8282611457565b610c1157611fc781600160a060020a03166014613119565b611fd2836020613119565b604051602001611fe3929190614399565b60408051601f198184030181529082905260e560020a62461bcd028252610b339160040161458b565b8281146120845760405160e560020a62461bcd02815260206004820152603f60248201527f73697a6573206f6620746f6b656e5468697341646472657373657320616e642060448201527f746f6b656e53696465416464726573736573206d7573742062652073616d65006064820152608401610b33565b8260005b81811015612125578383828181106120a2576120a2614a49565b90506020020160208101906120b79190613cd2565b60cd60008888858181106120cd576120cd614a49565b90506020020160208101906120e29190613cd2565b600160a060020a03908116825260208201929092526040016000208054600160a060020a031916929091169190911790558061211d816149cf565b915050612088565b505050505050565b6121378282611457565b610c11576000828152606560209081526040808320600160a060020a03851684529091529020805460ff1916600117905561216f3390565b600160a060020a031681600160a060020a0316837f2f8788117e7eff1d82e926ec794901d17c78024a50270940304540a733656f0d60405160405180910390a45050565b6121bd8282611457565b15610c11576000828152606560209081526040808320600160a060020a0385168085529252808320805460ff1916905551339285917ff6391f5c32d9c69d2a47ea670b442974b53935d1edc7fd64eb21e047a839171b9190a45050565b60975460ff1661223f5760405160e560020a62461bcd028152600401610b33906145be565b6097805460ff191690557f5db9ee0a495bf2e6ff9c91a7834c1ba4fdd244a5e8aa4e537bd38aeae4b073aa335b604051600160a060020a03909116815260200160405180910390a1565b600054610100900460ff16806122a2575060005460ff16155b6122c15760405160e560020a62461bcd028152600401610b339061462c565b600054610100900460ff161580156122e3576000805461ffff19166101011790555b6122ee60003361310f565b612310600080516020614afe8339815191526117d76060850160408601613cd2565b612332600080516020614b1e8339815191526117d76040850160208601613cd2565b6123526123456080840160608501613cd2565b61093a6080850185614764565b61237461236260c0840184614764565b61236f60e0860186614764565b61200c565b61238460c0830160a08401613cd2565b60ce8054600160a060020a031916600160a060020a03929092169190911790556123b16020830183613cd2565b60d18054600160a060020a031916600160a060020a03929092169190911790556123e361012083016101008401613cd2565b60cf8054600160a060020a031916600160a060020a039290921691909117905561241561014083016101208401613cd2565b60d08054600160a060020a031916600160a060020a039290921691909117905561018082013560d25561014082013560d381905561016083013560d455600160cc81905560d655600360c95561246b90426148d5565b60d7558015610c11576000805461ff00191690555050565b600054610100900460ff168061249c575060005460ff16155b6124bb5760405160e560020a62461bcd028152600401610b339061462c565b600054610100900460ff161580156124dd576000805461ffff19166101011790555b846125535760405160e560020a62461bcd02815260206004820152603260248201527f4c656e677468206f66205f696e697469616c56616c696461746f7273206d757360448201527f7420626520626967676572207468616e203000000000000000000000000000006064820152608401610b33565b61255f60e78787613b9a565b5060e88054600160a060020a031916600160a060020a03861617905560e983905560ea8290558015612125576000805461ff0019169055505050505050565b60975460ff16156125c45760405160e560020a62461bcd028152600401610b33906145f5565b6097805460ff191660011790557f62e78cea01bee320cd4e420270b5ea74000d11b0c9f74754ebdbfc544b05a25861226c3390565b60005b8151811015610c11576000600160a060020a031682828151811061262257612622614a49565b602002602001015160000151600160a060020a0316141561273e5760ce548251600160a060020a0390911690632e1a7d4d9084908490811061266657612666614a49565b6020026020010151604001516040518263ffffffff1660e060020a02815260040161269391815260200190565b600060405180830381600087803b1580156126ad57600080fd5b505af11580156126c1573d6000803e3d6000fd5b505050508181815181106126d7576126d7614a49565b602002602001015160200151600160a060020a03166108fc83838151811061270157612701614a49565b6020026020010151604001519081150290604051600060405180830381858888f19350505050158015612738573d6000803e3d6000fd5b5061287b565b81818151811061275057612750614a49565b602002602001015160000151600160a060020a031663a9059cbb83838151811061277c5761277c614a49565b60200260200101516020015184848151811061279a5761279a614a49565b6020026020010151604001516040518363ffffffff1660e060020a0281526004016127da929190600160a060020a03929092168252602082015260400190565b602060405180830381600087803b1580156127f457600080fd5b505af1158015612808573d6000803e3d6000fd5b505050506040513d601f19601f8201168201806040525081019061282c9190613f26565b61287b5760405160e560020a62461bcd02815260206004820152601360248201527f4661696c207472616e7366657220636f696e73000000000000000000000000006044820152606401610b33565b80612885816149cf565b9150506125fc565b6000808061289d610708426148d5565b905060005b60c9548110156129e7576040516c01000000000000000000000000600160a060020a038c160260208201526034810183905260548101889052607481018790526094810186905260b40160408051601f198184030181529082905280516020918201207f19457468657265756d205369676e6564204d6573736167653a0a33320000000091830191909152603c820152605c0160405160208183030381529060405280519060200120935061298d848a8a8080601f01602080910402602001604051908101604052809392919081815260200183838082843760009201919091525061330692505050565b92506129b97f516d5e7ed3e60a6b2804c1554cd94bc2eb576e44b192a0e069d4c527589a887e84611457565b156129c75750505050612125565b816129d1816149b8565b92505080806129df906149cf565b9150506128a2565b5060405160e560020a62461bcd02815260206004820152601660248201527f5369676e617475726520636865636b206661696c6564000000000000000000006044820152606401610b33565b600060d35442612a4391906148d5565b905060d7548114610cfd5760d68054906000612a5e836149cf565b919050557fe15729a2f427aa4572dab35eb692c902fcbce57d41642013259c741380809ae260ca604051612a92919061451b565b60405180910390a2612aa660ca6000613b79565b60d755565b60d560008154612aba906149cf565b91829055508114610cfd5760405160e560020a62461bcd02815260206004820152601460248201527f4576656e744964206f7574206f66206f726465720000000000000000000000006044820152606401610b33565b600080612b2060208601866148a7565b6020013515612c5c57612b3f612b3960208701876148a7565b84613391565b905080612b4c8680614764565b612b5c6080890160608a016140e1565b67ffffffffffffffff16818110612b7557612b75614a49565b9050602002810190612b879190614886565b6080013514612bdb5760405160e560020a62461bcd02815260206004820181905260248201527f5472616e73666572206576656e742076616c69646174696f6e206661696c65646044820152606401610b33565b83612bec60808701606088016140e1565b67ffffffffffffffff16612c008780614764565b612c0b92915061492b565b1015612c5c5760405160e560020a62461bcd02815260206004820152601860248201527f4e6f7420656e6f7567682073616665747920626c6f636b7300000000000000006044820152606401610b33565b60005b612c698680614764565b9050811015612fc75736612c7d8780614764565b83818110612c8d57612c8d614a49565b9050602002810190612c9f9190614886565b905083816040013514612da257612cbc60808801606089016140e1565b67ffffffffffffffff16821180612d5257508115801590612cf65750612cea610120820161010083016140e1565b67ffffffffffffffff16155b8015612d525750612d078780614764565b612d1260018561492b565b818110612d2157612d21614a49565b9050602002810190612d339190614886565b612d4690610120810190610100016140e1565b67ffffffffffffffff16155b15612da25760405160e560020a62461bcd02815260206004820152601160248201527f57726f6e6720706172656e7420686173680000000000000000000000000000006044820152606401610b33565b612dab816134d5565b9350612dbf610120820161010083016140e1565b67ffffffffffffffff1615612fb45736612ddc6040890189614764565b6001612df0610120860161010087016140e1565b612dfa9190614942565b67ffffffffffffffff16818110612e1357612e13614a49565b9050602002810190612e2591906148a7565b905060005b612e3760208301836147f6565b9050811015612e7d57612e6b612e5060208401846147f6565b83818110612e6057612e60614a49565b9050604002016135f1565b80612e75816149cf565b915050612e2a565b50612e9e612e8b8280614764565b60e854600160a060020a031660e7613726565b935083612eab8980614764565b612ebb60608501604086016140e1565b67ffffffffffffffff16818110612ed457612ed4614a49565b9050602002810190612ee69190614886565b6080013514612f3a5760405160e560020a62461bcd02815260206004820152601560248201527f57726f6e672056532072656365697074206861736800000000000000000000006044820152606401610b33565b60ea54612f4d60608301604084016140e1565b612f619067ffffffffffffffff168561492b565b1015612fb25760405160e560020a62461bcd02815260206004820152601c60248201527f4665772073616665747920626c6f636b732076616c696461746f7273000000006044820152606401610b33565b505b5080612fbf816149cf565b915050612c5f565b506000612fd76040870187614764565b90501115610ac357612fe98580614764565b612ff66040880188614764565b600161300560408b018b614764565b61301092915061492b565b81811061301f5761301f614a49565b905060200281019061303191906148a7565b6130429060608101906040016140e1565b67ffffffffffffffff1681811061305b5761305b614a49565b905060200281019061306d9190614886565b6040013560e9555050505050565b60d45461308890426148bd565b600082815260cb60205260408120600101919091555b8281101561310957600082815260cb602052604090208484838181106130c6576130c6614a49565b8354600181018555600094855260209094206060909102929092019260030290910190506130f48282614a7b565b50508080613101906149cf565b91505061309e565b50505050565b610c11828261212d565b606060006131288360026148e9565b6131339060026148bd565b67ffffffffffffffff81111561314b5761314b614a62565b6040519080825280601f01601f191660200182016040528015613175576020820181803683370190505b5090507f3000000000000000000000000000000000000000000000000000000000000000816000815181106131ac576131ac614a49565b6020010190600160f860020a031916908160001a9053507f7800000000000000000000000000000000000000000000000000000000000000816001815181106131f7576131f7614a49565b6020010190600160f860020a031916908160001a905350600061321b8460026148e9565b6132269060016148bd565b90505b60018111156132ad577f303132333435363738396162636465660000000000000000000000000000000085600f166010811061326757613267614a49565b1a60f860020a0282828151811061328057613280614a49565b6020010190600160f860020a031916908160001a9053506010909404936132a6816149b8565b9050613229565b5083156132ff5760405160e560020a62461bcd02815260206004820181905260248201527f537472696e67733a20686578206c656e67746820696e73756666696369656e746044820152606401610b33565b9392505050565b6020810151604082015160608301516000929190831a601b81101561332957601b015b60408051600081526020810180835288905260ff831691810191909152606081018490526080810183905260019060a0016020604051602081039080840390855afa15801561337c573d6000803e3d6000fd5b5050604051601f190151979650505050505050565b60008061339e8480614764565b60008181106133af576133af614a49565b90506020028101906133c1919061483f565b846133cc8780614764565b60018181106133dd576133dd614a49565b90506020028101906133ef919061483f565b6133fc89602001356137ff565b6134068a80614764565b600281811061341757613417614a49565b9050602002810190613429919061483f565b61343660408d018d6147ad565b6040516020016134479291906144ab565b60408051601f198184030181529190526134618d80614764565b600381811061347257613472614a49565b9050602002810190613484919061483f565b60405160200161349e9b9a999897969594939291906142d7565b60408051601f19818403018152919052805160209091012090506134cd6134c58580614764565b836004613967565b949350505050565b60008060006134e384613a2b565b60e7805492945090925060009161351361350360e0890160c08a01613fc1565b60e060020a900463ffffffff1690565b61351d91906149ea565b8154811061352d5761352d614a49565b600091825260209091200154600160a060020a03169050806135908461355660e089018961483f565b8080601f01602080910402602001604051908101604052809392919081815260200183838082843760009201919091525061330692505050565b600160a060020a0316146135e95760405160e560020a62461bcd02815260206004820152601560248201527f4661696c656420746f20766572696679207369676e00000000000000000000006044820152606401610b33565b509392505050565b61360160408201602083016140bd565b61ffff1661364d5760e76136186020830183613cd2565b8154600181018355600092835260209092209091018054600160a060020a031916600160a060020a0390921691909117905550565b6000600161366160408401602085016140bd565b61366b9190614908565b61ffff16905060e7600160e780549050613685919061492b565b8154811061369557613695614a49565b60009182526020909120015460e78054600160a060020a0390921691839081106136c1576136c1614a49565b9060005260206000200160006101000a815481600160a060020a030219169083600160a060020a0316021790555060e780548061370057613700614a30565b60008281526020902081016000199081018054600160a060020a03191690550190555050565b6000808585600081811061373c5761373c614a49565b905060200281019061374e919061483f565b858888600181811061376257613762614a49565b9050602002810190613774919061483f565b876040516020016137859190614467565b6040516020818303038152906040528b8b60028181106137a7576137a7614a49565b90506020028101906137b9919061483f565b6040516020016137d0989796959493929190614268565b6040516020818303038152906040528051906020012090506137f58686836003613967565b9695505050505050565b6040805160208082528183019092526060916000919060208201818036833701905050905082602082015260005b60208110156138965781818151811061384857613848614a49565b60209101015160f860020a90819004027fff00000000000000000000000000000000000000000000000000000000000000161561388457613896565b8061388e816149cf565b91505061382d565b60006138a382602061492b565b67ffffffffffffffff8111156138bb576138bb614a62565b6040519080825280601f01601f1916602001820160405280156138e5576020820181803683370190505b50905060005b815181101561395e5783836138ff816149cf565b94508151811061391157613911614a49565b602001015160f860020a900460f860020a0282828151811061393557613935614a49565b6020010190600160f860020a031916908160001a90535080613956816149cf565b9150506138eb565b50949350505050565b60006060825b85811015613a205786868281811061398757613987614a49565b9050602002810190613999919061483f565b8689896139a78660016148bd565b8181106139b6576139b6614a49565b90506020028101906139c8919061483f565b6040516020016139dc959493929190614370565b60405160208183030381529060405291506020825111613a04576139ff82614963565b613a0c565b815160208301205b9450613a196002826148bd565b905061396d565b509295945050505050565b600080807fa0000000000000000000000000000000000000000000000000000000000000006040850135613a62606087018761483f565b6080880135613a7460a08a018a61483f565b604051602001613a8a979695949392919061410b565b60408051601f19818403018152918152909150613aac90850160208601613f43565b81604051602001613abe929190614168565b60408051601f19818403018152919052805160209182012090613ae390860186613f43565b827f8400000000000000000000000000000000000000000000000000000000000000613b1560e0890160c08a01613fc1565b7fb841000000000000000000000000000000000000000000000000000000000000613b4360e08b018b61483f565b604051602001613b5997969594939291906141ae565b604051602081830303815290604052805190602001209250925050915091565b5080546000825560030290600052602060002090810190610cfd9190613bfd565b828054828255906000526020600020908101928215613bed579160200282015b82811115613bed578154600160a060020a031916600160a060020a03843516178255602090920191600190910190613bba565b50613bf9929150613c30565b5090565b5b80821115613bf9578054600160a060020a03199081168255600182018054909116905560006002820155600301613bfe565b5b80821115613bf95760008155600101613c31565b60008083601f840112613c5757600080fd5b50813567ffffffffffffffff811115613c6f57600080fd5b6020830191508360208083028501011115613c8957600080fd5b9250929050565b60008083601f840112613ca257600080fd5b50813567ffffffffffffffff811115613cba57600080fd5b602083019150836020828501011115613c8957600080fd5b600060208284031215613ce457600080fd5b81356132ff81614ada565b60008060408385031215613d0257600080fd5b8235613d0d81614ada565b91506020830135613d1d81614ada565b809150509250929050565b60008060008060008060008060e0898b031215613d4457600080fd5b8835613d4f81614ada565b97506020890135613d5f81614ada565b9650604089013595506060890135613d7681614aef565b9450608089013567ffffffffffffffff811115613d9257600080fd5b613d9e8b828c01613c90565b999c989b5096999598969760a08701359660c0013595509350505050565b600080600060408486031215613dd157600080fd5b8335613ddc81614ada565b9250602084013567ffffffffffffffff811115613df857600080fd5b613e0486828701613c45565b9497909650939450505050565b600080600080600060808688031215613e2957600080fd5b8535613e3481614ada565b9450602086013567ffffffffffffffff811115613e5057600080fd5b613e5c88828901613c90565b9699909850959660408101359660609091013595509350505050565b60008060208385031215613e8b57600080fd5b823567ffffffffffffffff811115613ea257600080fd5b613eae85828601613c45565b90969095509350505050565b60008060008060408587031215613ed057600080fd5b843567ffffffffffffffff80821115613ee857600080fd5b613ef488838901613c45565b90965094506020870135915080821115613f0d57600080fd5b50613f1a87828801613c45565b95989497509550505050565b600060208284031215613f3857600080fd5b81516132ff81614aef565b600060208284031215613f5557600080fd5b81357cffffffffffffffffffffffffffffffffffffffffffffffffffffffffff19811681146132ff57600080fd5b600060208284031215613f9557600080fd5b5035919050565b60008060408385031215613faf57600080fd5b823591506020830135613d1d81614ada565b600060208284031215613fd357600080fd5b8135600160e060020a0319811681146132ff57600080fd5b600060208284031215613ffd57600080fd5b813567ffffffffffffffff81111561401457600080fd5b8201608081850312156132ff57600080fd5b60008060008060008060a0878903121561403f57600080fd5b863567ffffffffffffffff8082111561405757600080fd5b908801906101a0828b03121561406c57600080fd5b9096506020880135908082111561408257600080fd5b5061408f89828a01613c45565b90965094505060408701356140a381614ada565b959894975092956060810135946080909101359350915050565b6000602082840312156140cf57600080fd5b813561ffff811681146132ff57600080fd5b6000602082840312156140f357600080fd5b813567ffffffffffffffff811681146132ff57600080fd5b7fff0000000000000000000000000000000000000000000000000000000000000088168152866001820152848660218301378481016021810185905260009083856041830137600093016041019283525090979650505050505050565b7cffffffffffffffffffffffffffffffffffffffffffffffffffffffffff1983168152600082516141a081600385016020870161498c565b919091016003019392505050565b7cffffffffffffffffffffffffffffffffffffffffffffffffffffffffff1988168152600087516141e6816003850160208c0161498c565b7fff000000000000000000000000000000000000000000000000000000000000008816600391840191820152600160e060020a0319871660048201527fffff000000000000000000000000000000000000000000000000000000000000861660088201528385600a83013760009301600a019283525090979650505050505050565b87898237600160a060020a0387166c0100000000000000000000000002818901908152600090868860148301378681019050601481016000815286516142b2818360208b0161498c565b9190910190508385601483013760009301601401928352509098975050505050505050565b8a8c8237600160a060020a038a166c0100000000000000000000000002818c0190815260009060148a8c828401378a82019150808201600081528a51614321818360208f0161498c565b9290920191508789828401378782019150808201600081528751614349818360208c0161498c565b9290920191508486828401376000949091010192835250909b9a5050505050505050505050565b848682378085018481526000908385602083013760009301602001928352509095945050505050565b7f416363657373436f6e74726f6c3a206163636f756e74200000000000000000008152600083516143d181601785016020880161498c565b7f206973206d697373696e6720726f6c6520000000000000000000000000000000601791840191820152835161440e81602884016020880161498c565b01602801949350505050565b6020808252825182820181905260009190848201906040850190845b8181101561445b578351600160a060020a031683529284019291840191600101614436565b50909695505050505050565b6020808252825482820181905260008481528281209092916040850190845b8181101561445b578354600160a060020a031683526001938401939285019201614486565b6020808252818101839052600090604080840186845b8781101561450e5781356144d481614ada565b600160a060020a03908116845282860135906144ef82614ada565b16838601528184013584840152606092830192909101906001016144c1565b5090979650505050505050565b60006020808301818452808554808352604092508286019150866000528360002060005b8281101561457e578154600160a060020a039081168552600180840154909116878601526002830154868601526060909401936003909201910161453f565b5091979650505050505050565b60208152600082518060208401526145aa81604085016020870161498c565b601f01601f19169190910160400192915050565b60208082526014908201527f5061757361626c653a206e6f7420706175736564000000000000000000000000604082015260600190565b60208082526010908201527f5061757361626c653a2070617573656400000000000000000000000000000000604082015260600190565b6020808252602e908201527f496e697469616c697a61626c653a20636f6e747261637420697320616c72656160408201527f647920696e697469616c697a6564000000000000000000000000000000000000606082015260800190565b60208082526026908201527f6576656e744964206d757374206265203e3d206f6c646573744c6f636b65644560408201527f76656e7449640000000000000000000000000000000000000000000000000000606082015260800190565b6000602080835260608084018551604080858801528282518085526080890191508684019450600093505b8084101561474e5784518051600160a060020a03908116845288820151168884015283015183830152938601936001939093019290850190614711565b5094909701519590960194909452509392505050565b6000808335601e1984360301811261477b57600080fd5b83018035915067ffffffffffffffff82111561479657600080fd5b6020908101925081023603821315613c8957600080fd5b6000808335601e198436030181126147c457600080fd5b83018035915067ffffffffffffffff8211156147df57600080fd5b6020019150606081023603821315613c8957600080fd5b6000808335601e1984360301811261480d57600080fd5b83018035915067ffffffffffffffff82111561482857600080fd5b6020019150604081023603821315613c8957600080fd5b6000808335601e1984360301811261485657600080fd5b83018035915067ffffffffffffffff82111561487157600080fd5b602001915036819003821315613c8957600080fd5b6000823561011e1983360301811261489d57600080fd5b9190910192915050565b60008235605e1983360301811261489d57600080fd5b600082198211156148d0576148d06149fe565b500190565b6000826148e4576148e4614a17565b500490565b6000816000190483118215151615614903576149036149fe565b500290565b600061ffff83811690831681811015614923576149236149fe565b039392505050565b60008282101561493d5761493d6149fe565b500390565b600067ffffffffffffffff83811690831681811015614923576149236149fe565b80516020808301519190811015614986578060200360080260020a600003821691505b50919050565b60005b838110156149a757818101518382015260200161498f565b838111156131095750506000910152565b6000816149c7576149c76149fe565b506000190190565b60006000198214156149e3576149e36149fe565b5060010190565b6000826149f9576149f9614a17565b500690565b60e060020a634e487b7102600052601160045260246000fd5b60e060020a634e487b7102600052601260045260246000fd5b60e060020a634e487b7102600052603160045260246000fd5b60e060020a634e487b7102600052603260045260246000fd5b60e060020a634e487b7102600052604160045260246000fd5b8135614a8681614ada565b8154600160a060020a031916600160a060020a038216178255506020820135614aae81614ada565b600182018054600160a060020a031916600160a060020a03831617905550604082013560028201555050565b600160a060020a0381168114610cfd57600080fd5b8015158114610cfd57600080fdfe077a1d526a4ce8a773632ab13b4fbbf1fcc954c3dab26cd27ea0e2a6750da5d7a49807205ce4d355092ef5a8a18f56e8913cf4a201fbe287825b095693c21775a2646970667358221220c4ac8c1df04f490b59647dfbdfd20fc76f34b771573e2a7c5c485abc32c8560664736f6c63430008060033",
  "devdoc": {
    "kind": "dev",
    "methods": {
      "getRoleAdmin(bytes32)": {
        "details": "Returns the admin role that controls `role`. See {grantRole} and {revokeRole}. To change a role's admin, use {_setRoleAdmin}."
      },
      "grantRole(bytes32,address)": {
        "details": "Grants `role` to `account`. If `account` had not been already granted `role`, emits a {RoleGranted} event. Requirements: - the caller must have ``role``'s admin role."
      },
      "hasRole(bytes32,address)": {
        "details": "Returns `true` if `account` has been granted `role`."
      },
      "paused()": {
        "details": "Returns true if the contract is paused, and false otherwise."
      },
      "renounceRole(bytes32,address)": {
        "details": "Revokes `role` from the calling account. Roles are often managed via {grantRole} and {revokeRole}: this function's purpose is to provide a mechanism for accounts to lose their privileges if they are compromised (such as when a trusted device is misplaced). If the calling account had been granted `role`, emits a {RoleRevoked} event. Requirements: - the caller must be `account`."
      },
      "revokeRole(bytes32,address)": {
        "details": "Revokes `role` from `account`. If `account` had been granted `role`, emits a {RoleRevoked} event. Requirements: - the caller must have ``role``'s admin role."
      },
      "supportsInterface(bytes4)": {
        "details": "See {IERC165-supportsInterface}."
      },
      "withdraw(address,address,uint256,bool,bytes,uint256,uint256)": {
        "params": {
          "bridgeFee": "Amount (in native coins), payed as bridge earnings",
          "feeSignature": "Signature signed by relay that confirms that the fee values are valid",
          "transferFee": "Amount (in native coins), payed to compensate gas fees in side network"
        }
      },
      "wrapWithdraw(address,bytes,uint256,uint256)": {
        "params": {
          "bridgeFee": "Amount (in native coins), payed as bridge earnings",
          "feeSignature": "Signature signed by relay that confirms that the fee values are valid",
          "toAddress": "Address in side network that will receive the tokens",
          "transferFee": "Amount (in native coins), payed to compensate gas fees in side network"
        }
      }
    },
    "version": 1
  },
  "userdoc": {
    "kind": "user",
    "methods": {},
    "version": 1
  },
  "storageLayout": {
    "storage": [
      {
        "astId": 413,
        "contract": "contracts/networks/BSC_BscBridge.sol:BSC_BscBridge",
        "label": "_initialized",
        "offset": 0,
        "slot": "0",
        "type": "t_bool"
      },
      {
        "astId": 416,
        "contract": "contracts/networks/BSC_BscBridge.sol:BSC_BscBridge",
        "label": "_initializing",
        "offset": 1,
        "slot": "0",
        "type": "t_bool"
      },
      {
        "astId": 609,
        "contract": "contracts/networks/BSC_BscBridge.sol:BSC_BscBridge",
        "label": "__gap",
        "offset": 0,
        "slot": "1",
        "type": "t_array(t_uint256)50_storage"
      },
      {
        "astId": 858,
        "contract": "contracts/networks/BSC_BscBridge.sol:BSC_BscBridge",
        "label": "__gap",
        "offset": 0,
        "slot": "51",
        "type": "t_array(t_uint256)50_storage"
      },
      {
        "astId": 48,
        "contract": "contracts/networks/BSC_BscBridge.sol:BSC_BscBridge",
        "label": "_roles",
        "offset": 0,
        "slot": "101",
        "type": "t_mapping(t_bytes32,t_struct(RoleData)43_storage)"
      },
      {
        "astId": 333,
        "contract": "contracts/networks/BSC_BscBridge.sol:BSC_BscBridge",
        "label": "__gap",
        "offset": 0,
        "slot": "102",
        "type": "t_array(t_uint256)49_storage"
      },
      {
        "astId": 474,
        "contract": "contracts/networks/BSC_BscBridge.sol:BSC_BscBridge",
        "label": "_paused",
        "offset": 0,
        "slot": "151",
        "type": "t_bool"
      },
      {
        "astId": 565,
        "contract": "contracts/networks/BSC_BscBridge.sol:BSC_BscBridge",
        "label": "__gap",
        "offset": 0,
        "slot": "152",
        "type": "t_array(t_uint256)49_storage"
      },
      {
        "astId": 6726,
        "contract": "contracts/networks/BSC_BscBridge.sol:BSC_BscBridge",
        "label": "signatureFeeCheckNumber",
        "offset": 0,
        "slot": "201",
        "type": "t_uint256"
      },
      {
        "astId": 6730,
        "contract": "contracts/networks/BSC_BscBridge.sol:BSC_BscBridge",
        "label": "queue",
        "offset": 0,
        "slot": "202",
        "type": "t_array(t_struct(Transfer)7888_storage)dyn_storage"
      },
      {
        "astId": 6735,
        "contract": "contracts/networks/BSC_BscBridge.sol:BSC_BscBridge",
        "label": "lockedTransfers",
        "offset": 0,
        "slot": "203",
        "type": "t_mapping(t_uint256,t_struct(LockedTransfers)7905_storage)"
      },
      {
        "astId": 6737,
        "contract": "contracts/networks/BSC_BscBridge.sol:BSC_BscBridge",
        "label": "oldestLockedEventId",
        "offset": 0,
        "slot": "204",
        "type": "t_uint256"
      },
      {
        "astId": 6741,
        "contract": "contracts/networks/BSC_BscBridge.sol:BSC_BscBridge",
        "label": "tokenAddresses",
        "offset": 0,
        "slot": "205",
        "type": "t_mapping(t_address,t_address)"
      },
      {
        "astId": 6743,
        "contract": "contracts/networks/BSC_BscBridge.sol:BSC_BscBridge",
        "label": "wrapperAddress",
        "offset": 0,
        "slot": "206",
        "type": "t_address"
      },
      {
        "astId": 6745,
        "contract": "contracts/networks/BSC_BscBridge.sol:BSC_BscBridge",
        "label": "transferFeeRecipient",
        "offset": 0,
        "slot": "207",
        "type": "t_address_payable"
      },
      {
        "astId": 6747,
        "contract": "contracts/networks/BSC_BscBridge.sol:BSC_BscBridge",
        "label": "bridgeFeeRecipient",
        "offset": 0,
        "slot": "208",
        "type": "t_address_payable"
      },
      {
        "astId": 6749,
        "contract": "contracts/networks/BSC_BscBridge.sol:BSC_BscBridge",
        "label": "sideBridgeAddress",
        "offset": 0,
        "slot": "209",
        "type": "t_address"
      },
      {
        "astId": 6751,
        "contract": "contracts/networks/BSC_BscBridge.sol:BSC_BscBridge",
        "label": "minSafetyBlocks",
        "offset": 0,
        "slot": "210",
        "type": "t_uint256"
      },
      {
        "astId": 6753,
        "contract": "contracts/networks/BSC_BscBridge.sol:BSC_BscBridge",
        "label": "timeframeSeconds",
        "offset": 0,
        "slot": "211",
        "type": "t_uint256"
      },
      {
        "astId": 6755,
        "contract": "contracts/networks/BSC_BscBridge.sol:BSC_BscBridge",
        "label": "lockTime",
        "offset": 0,
        "slot": "212",
        "type": "t_uint256"
      },
      {
        "astId": 6757,
        "contract": "contracts/networks/BSC_BscBridge.sol:BSC_BscBridge",
        "label": "inputEventId",
        "offset": 0,
        "slot": "213",
        "type": "t_uint256"
      },
      {
        "astId": 6759,
        "contract": "contracts/networks/BSC_BscBridge.sol:BSC_BscBridge",
        "label": "outputEventId",
        "offset": 0,
        "slot": "214",
        "type": "t_uint256"
      },
      {
        "astId": 6761,
        "contract": "contracts/networks/BSC_BscBridge.sol:BSC_BscBridge",
        "label": "lastTimeframe",
        "offset": 0,
        "slot": "215",
        "type": "t_uint256"
      },
      {
        "astId": 7878,
        "contract": "contracts/networks/BSC_BscBridge.sol:BSC_BscBridge",
        "label": "__gap",
        "offset": 0,
        "slot": "216",
        "type": "t_array(t_uint256)15_storage"
      },
      {
        "astId": 1665,
        "contract": "contracts/networks/BSC_BscBridge.sol:BSC_BscBridge",
        "label": "validatorSet",
        "offset": 0,
        "slot": "231",
        "type": "t_array(t_address)dyn_storage"
      },
      {
        "astId": 1667,
        "contract": "contracts/networks/BSC_BscBridge.sol:BSC_BscBridge",
        "label": "validatorSetAddress",
        "offset": 0,
        "slot": "232",
        "type": "t_address"
      },
      {
        "astId": 1669,
        "contract": "contracts/networks/BSC_BscBridge.sol:BSC_BscBridge",
        "label": "lastProcessedBlock",
        "offset": 0,
        "slot": "233",
        "type": "t_bytes32"
      },
      {
        "astId": 1671,
        "contract": "contracts/networks/BSC_BscBridge.sol:BSC_BscBridge",
        "label": "minSafetyBlocksValidators",
        "offset": 0,
        "slot": "234",
        "type": "t_uint256"
      },
      {
        "astId": 2178,
        "contract": "contracts/networks/BSC_BscBridge.sol:BSC_BscBridge",
        "label": "___gap",
        "offset": 0,
        "slot": "235",
        "type": "t_array(t_uint256)15_storage"
      }
    ],
    "types": {
      "t_address": {
        "encoding": "inplace",
        "label": "address",
        "numberOfBytes": "20"
      },
      "t_address_payable": {
        "encoding": "inplace",
        "label": "address payable",
        "numberOfBytes": "20"
      },
      "t_array(t_address)dyn_storage": {
        "base": "t_address",
        "encoding": "dynamic_array",
        "label": "address[]",
        "numberOfBytes": "32"
      },
      "t_array(t_struct(Transfer)7888_storage)dyn_storage": {
        "base": "t_struct(Transfer)7888_storage",
        "encoding": "dynamic_array",
        "label": "struct CommonStructs.Transfer[]",
        "numberOfBytes": "32"
      },
      "t_array(t_uint256)15_storage": {
        "base": "t_uint256",
        "encoding": "inplace",
        "label": "uint256[15]",
        "numberOfBytes": "480"
      },
      "t_array(t_uint256)49_storage": {
        "base": "t_uint256",
        "encoding": "inplace",
        "label": "uint256[49]",
        "numberOfBytes": "1568"
      },
      "t_array(t_uint256)50_storage": {
        "base": "t_uint256",
        "encoding": "inplace",
        "label": "uint256[50]",
        "numberOfBytes": "1600"
      },
      "t_bool": {
        "encoding": "inplace",
        "label": "bool",
        "numberOfBytes": "1"
      },
      "t_bytes32": {
        "encoding": "inplace",
        "label": "bytes32",
        "numberOfBytes": "32"
      },
      "t_mapping(t_address,t_address)": {
        "encoding": "mapping",
        "key": "t_address",
        "label": "mapping(address => address)",
        "numberOfBytes": "32",
        "value": "t_address"
      },
      "t_mapping(t_address,t_bool)": {
        "encoding": "mapping",
        "key": "t_address",
        "label": "mapping(address => bool)",
        "numberOfBytes": "32",
        "value": "t_bool"
      },
      "t_mapping(t_bytes32,t_struct(RoleData)43_storage)": {
        "encoding": "mapping",
        "key": "t_bytes32",
        "label": "mapping(bytes32 => struct AccessControlUpgradeable.RoleData)",
        "numberOfBytes": "32",
        "value": "t_struct(RoleData)43_storage"
      },
      "t_mapping(t_uint256,t_struct(LockedTransfers)7905_storage)": {
        "encoding": "mapping",
        "key": "t_uint256",
        "label": "mapping(uint256 => struct CommonStructs.LockedTransfers)",
        "numberOfBytes": "32",
        "value": "t_struct(LockedTransfers)7905_storage"
      },
      "t_struct(LockedTransfers)7905_storage": {
        "encoding": "inplace",
        "label": "struct CommonStructs.LockedTransfers",
        "members": [
          {
            "astId": 7902,
            "contract": "contracts/networks/BSC_BscBridge.sol:BSC_BscBridge",
            "label": "transfers",
            "offset": 0,
            "slot": "0",
            "type": "t_array(t_struct(Transfer)7888_storage)dyn_storage"
          },
          {
            "astId": 7904,
            "contract": "contracts/networks/BSC_BscBridge.sol:BSC_BscBridge",
            "label": "endTimestamp",
            "offset": 0,
            "slot": "1",
            "type": "t_uint256"
          }
        ],
        "numberOfBytes": "64"
      },
      "t_struct(RoleData)43_storage": {
        "encoding": "inplace",
        "label": "struct AccessControlUpgradeable.RoleData",
        "members": [
          {
            "astId": 40,
            "contract": "contracts/networks/BSC_BscBridge.sol:BSC_BscBridge",
            "label": "members",
            "offset": 0,
            "slot": "0",
            "type": "t_mapping(t_address,t_bool)"
          },
          {
            "astId": 42,
            "contract": "contracts/networks/BSC_BscBridge.sol:BSC_BscBridge",
            "label": "adminRole",
            "offset": 0,
            "slot": "1",
            "type": "t_bytes32"
          }
        ],
        "numberOfBytes": "64"
      },
      "t_struct(Transfer)7888_storage": {
        "encoding": "inplace",
        "label": "struct CommonStructs.Transfer",
        "members": [
          {
            "astId": 7883,
            "contract": "contracts/networks/BSC_BscBridge.sol:BSC_BscBridge",
            "label": "tokenAddress",
            "offset": 0,
            "slot": "0",
            "type": "t_address"
          },
          {
            "astId": 7885,
            "contract": "contracts/networks/BSC_BscBridge.sol:BSC_BscBridge",
            "label": "toAddress",
            "offset": 0,
            "slot": "1",
            "type": "t_address"
          },
          {
            "astId": 7887,
            "contract": "contracts/networks/BSC_BscBridge.sol:BSC_BscBridge",
            "label": "amount",
            "offset": 0,
            "slot": "2",
            "type": "t_uint256"
          }
        ],
        "numberOfBytes": "96"
      },
      "t_uint256": {
        "encoding": "inplace",
        "label": "uint256",
        "numberOfBytes": "32"
      }
    }
  }
}