{
  "address": "0xc3B24De6c62f16A2D6D8AB334F9b2c92D826BD74",
  "abi": [
    {
      "anonymous": false,
      "inputs": [
        {
          "indexed": false,
          "internalType": "address",
          "name": "account",
          "type": "address"
        }
      ],
      "name": "Paused",
      "type": "event"
    },
    {
      "anonymous": false,
      "inputs": [
        {
          "indexed": true,
          "internalType": "bytes32",
          "name": "role",
          "type": "bytes32"
        },
        {
          "indexed": true,
          "internalType": "bytes32",
          "name": "previousAdminRole",
          "type": "bytes32"
        },
        {
          "indexed": true,
          "internalType": "bytes32",
          "name": "newAdminRole",
          "type": "bytes32"
        }
      ],
      "name": "RoleAdminChanged",
      "type": "event"
    },
    {
      "anonymous": false,
      "inputs": [
        {
          "indexed": true,
          "internalType": "bytes32",
          "name": "role",
          "type": "bytes32"
        },
        {
          "indexed": true,
          "internalType": "address",
          "name": "account",
          "type": "address"
        },
        {
          "indexed": true,
          "internalType": "address",
          "name": "sender",
          "type": "address"
        }
      ],
      "name": "RoleGranted",
      "type": "event"
    },
    {
      "anonymous": false,
      "inputs": [
        {
          "indexed": true,
          "internalType": "bytes32",
          "name": "role",
          "type": "bytes32"
        },
        {
          "indexed": true,
          "internalType": "address",
          "name": "account",
          "type": "address"
        },
        {
          "indexed": true,
          "internalType": "address",
          "name": "sender",
          "type": "address"
        }
      ],
      "name": "RoleRevoked",
      "type": "event"
    },
    {
      "anonymous": false,
      "inputs": [
        {
          "indexed": true,
          "internalType": "uint256",
          "name": "eventId",
          "type": "uint256"
        },
        {
          "components": [
            {
              "internalType": "address",
              "name": "tokenAddress",
              "type": "address"
            },
            {
              "internalType": "address",
              "name": "toAddress",
              "type": "address"
            },
            {
              "internalType": "uint256",
              "name": "amount",
              "type": "uint256"
            }
          ],
          "indexed": false,
          "internalType": "struct CommonStructs.Transfer[]",
          "name": "queue",
          "type": "tuple[]"
        }
      ],
      "name": "Transfer",
      "type": "event"
    },
    {
      "anonymous": false,
      "inputs": [
        {
          "indexed": true,
          "internalType": "uint256",
          "name": "eventId",
          "type": "uint256"
        }
      ],
      "name": "TransferFinish",
      "type": "event"
    },
    {
      "anonymous": false,
      "inputs": [
        {
          "indexed": true,
          "internalType": "uint256",
          "name": "eventId",
          "type": "uint256"
        }
      ],
      "name": "TransferSubmit",
      "type": "event"
    },
    {
      "anonymous": false,
      "inputs": [
        {
          "indexed": false,
          "internalType": "address",
          "name": "account",
          "type": "address"
        }
      ],
      "name": "Unpaused",
      "type": "event"
    },
    {
      "anonymous": false,
      "inputs": [
        {
          "indexed": true,
          "internalType": "address",
          "name": "from",
          "type": "address"
        },
        {
          "indexed": false,
          "internalType": "uint256",
          "name": "eventId",
          "type": "uint256"
        },
        {
          "indexed": false,
          "internalType": "address",
          "name": "tokenFrom",
          "type": "address"
        },
        {
          "indexed": false,
          "internalType": "address",
          "name": "tokenTo",
          "type": "address"
        },
        {
          "indexed": false,
          "internalType": "uint256",
          "name": "amount",
          "type": "uint256"
        },
        {
          "indexed": false,
          "internalType": "uint256",
          "name": "transferFeeAmount",
          "type": "uint256"
        },
        {
          "indexed": false,
          "internalType": "uint256",
          "name": "bridgeFeeAmount",
          "type": "uint256"
        }
      ],
      "name": "Withdraw",
      "type": "event"
    },
    {
      "inputs": [],
      "name": "ADMIN_ROLE",
      "outputs": [
        {
          "internalType": "bytes32",
          "name": "",
          "type": "bytes32"
        }
      ],
      "stateMutability": "view",
      "type": "function"
    },
    {
      "inputs": [],
      "name": "DEFAULT_ADMIN_ROLE",
      "outputs": [
        {
          "internalType": "bytes32",
          "name": "",
          "type": "bytes32"
        }
      ],
      "stateMutability": "view",
      "type": "function"
    },
    {
      "inputs": [],
      "name": "FEE_PROVIDER_ROLE",
      "outputs": [
        {
          "internalType": "bytes32",
          "name": "",
          "type": "bytes32"
        }
      ],
      "stateMutability": "view",
      "type": "function"
    },
    {
      "inputs": [],
      "name": "RELAY_ROLE",
      "outputs": [
        {
          "internalType": "bytes32",
          "name": "",
          "type": "bytes32"
        }
      ],
      "stateMutability": "view",
      "type": "function"
    },
    {
      "inputs": [],
      "name": "WATCHDOG_ROLE",
      "outputs": [
        {
          "internalType": "bytes32",
          "name": "",
          "type": "bytes32"
        }
      ],
      "stateMutability": "view",
      "type": "function"
    },
    {
      "inputs": [],
      "name": "bridgeFeeRecipient",
      "outputs": [
        {
          "internalType": "address payable",
          "name": "",
          "type": "address"
        }
      ],
      "stateMutability": "view",
      "type": "function"
    },
    {
      "inputs": [
        {
          "internalType": "address payable",
          "name": "feeRecipient_",
          "type": "address"
        }
      ],
      "name": "changeBridgeFeeRecipient",
      "outputs": [],
      "stateMutability": "nonpayable",
      "type": "function"
    },
    {
      "inputs": [
        {
          "internalType": "uint256",
          "name": "lockTime_",
          "type": "uint256"
        }
      ],
      "name": "changeLockTime",
      "outputs": [],
      "stateMutability": "nonpayable",
      "type": "function"
    },
    {
      "inputs": [
        {
          "internalType": "uint256",
          "name": "minSafetyBlocks_",
          "type": "uint256"
        }
      ],
      "name": "changeMinSafetyBlocks",
      "outputs": [],
      "stateMutability": "nonpayable",
      "type": "function"
    },
    {
      "inputs": [
        {
          "internalType": "uint256",
          "name": "signatureFeeCheckNumber_",
          "type": "uint256"
        }
      ],
      "name": "changeSignatureFeeCheckNumber",
      "outputs": [],
      "stateMutability": "nonpayable",
      "type": "function"
    },
    {
      "inputs": [
        {
          "internalType": "uint256",
          "name": "timeframeSeconds_",
          "type": "uint256"
        }
      ],
      "name": "changeTimeframeSeconds",
      "outputs": [],
      "stateMutability": "nonpayable",
      "type": "function"
    },
    {
      "inputs": [
        {
          "internalType": "address payable",
          "name": "feeRecipient_",
          "type": "address"
        }
      ],
      "name": "changeTransferFeeRecipient",
      "outputs": [],
      "stateMutability": "nonpayable",
      "type": "function"
    },
    {
      "inputs": [
        {
          "internalType": "uint256",
          "name": "eventId",
          "type": "uint256"
        }
      ],
      "name": "getLockedTransfers",
      "outputs": [
        {
          "components": [
            {
              "components": [
                {
                  "internalType": "address",
                  "name": "tokenAddress",
                  "type": "address"
                },
                {
                  "internalType": "address",
                  "name": "toAddress",
                  "type": "address"
                },
                {
                  "internalType": "uint256",
                  "name": "amount",
                  "type": "uint256"
                }
              ],
              "internalType": "struct CommonStructs.Transfer[]",
              "name": "transfers",
              "type": "tuple[]"
            },
            {
              "internalType": "uint256",
              "name": "endTimestamp",
              "type": "uint256"
            }
          ],
          "internalType": "struct CommonStructs.LockedTransfers",
          "name": "",
          "type": "tuple"
        }
      ],
      "stateMutability": "view",
      "type": "function"
    },
    {
      "inputs": [
        {
          "internalType": "bytes32",
          "name": "role",
          "type": "bytes32"
        }
      ],
      "name": "getRoleAdmin",
      "outputs": [
        {
          "internalType": "bytes32",
          "name": "",
          "type": "bytes32"
        }
      ],
      "stateMutability": "view",
      "type": "function"
    },
    {
      "inputs": [
        {
          "internalType": "bytes32",
          "name": "role",
          "type": "bytes32"
        },
        {
          "internalType": "address",
          "name": "account",
          "type": "address"
        }
      ],
      "name": "grantRole",
      "outputs": [],
      "stateMutability": "nonpayable",
      "type": "function"
    },
    {
      "inputs": [
        {
          "internalType": "bytes32",
          "name": "role",
          "type": "bytes32"
        },
        {
          "internalType": "address[]",
          "name": "accounts",
          "type": "address[]"
        }
      ],
      "name": "grantRoles",
      "outputs": [],
      "stateMutability": "nonpayable",
      "type": "function"
    },
    {
      "inputs": [
        {
          "internalType": "bytes32",
          "name": "role",
          "type": "bytes32"
        },
        {
          "internalType": "address",
          "name": "account",
          "type": "address"
        }
      ],
      "name": "hasRole",
      "outputs": [
        {
          "internalType": "bool",
          "name": "",
          "type": "bool"
        }
      ],
      "stateMutability": "view",
      "type": "function"
    },
    {
      "inputs": [
        {
          "components": [
            {
              "internalType": "address",
              "name": "sideBridgeAddress",
              "type": "address"
            },
            {
              "internalType": "address",
              "name": "relayAddress",
              "type": "address"
            },
            {
              "internalType": "address[]",
              "name": "watchdogsAddresses",
              "type": "address[]"
            },
            {
              "internalType": "address",
              "name": "feeProviderAddress",
              "type": "address"
            },
            {
              "internalType": "address",
              "name": "wrappingTokenAddress",
              "type": "address"
            },
            {
              "internalType": "address[]",
              "name": "tokenThisAddresses",
              "type": "address[]"
            },
            {
              "internalType": "address[]",
              "name": "tokenSideAddresses",
              "type": "address[]"
            },
            {
              "internalType": "address payable",
              "name": "transferFeeRecipient",
              "type": "address"
            },
            {
              "internalType": "address payable",
              "name": "bridgeFeeRecipient",
              "type": "address"
            },
            {
              "internalType": "uint256",
              "name": "timeframeSeconds",
              "type": "uint256"
            },
            {
              "internalType": "uint256",
              "name": "lockTime",
              "type": "uint256"
            },
            {
              "internalType": "uint256",
              "name": "minSafetyBlocks",
              "type": "uint256"
            }
          ],
          "internalType": "struct CommonStructs.ConstructorArgs",
          "name": "args",
          "type": "tuple"
        }
      ],
      "name": "initialize",
      "outputs": [],
      "stateMutability": "nonpayable",
      "type": "function"
    },
    {
      "inputs": [],
      "name": "inputEventId",
      "outputs": [
        {
          "internalType": "uint256",
          "name": "",
          "type": "uint256"
        }
      ],
      "stateMutability": "view",
      "type": "function"
    },
    {
      "inputs": [],
      "name": "isQueueEmpty",
      "outputs": [
        {
          "internalType": "bool",
          "name": "",
          "type": "bool"
        }
      ],
      "stateMutability": "view",
      "type": "function"
    },
    {
      "inputs": [],
      "name": "lastTimeframe",
      "outputs": [
        {
          "internalType": "uint256",
          "name": "",
          "type": "uint256"
        }
      ],
      "stateMutability": "view",
      "type": "function"
    },
    {
      "inputs": [],
      "name": "lockTime",
      "outputs": [
        {
          "internalType": "uint256",
          "name": "",
          "type": "uint256"
        }
      ],
      "stateMutability": "view",
      "type": "function"
    },
    {
      "inputs": [
        {
          "internalType": "uint256",
          "name": "",
          "type": "uint256"
        }
      ],
      "name": "lockedTransfers",
      "outputs": [
        {
          "internalType": "uint256",
          "name": "endTimestamp",
          "type": "uint256"
        }
      ],
      "stateMutability": "view",
      "type": "function"
    },
    {
      "inputs": [],
      "name": "minSafetyBlocks",
      "outputs": [
        {
          "internalType": "uint256",
          "name": "",
          "type": "uint256"
        }
      ],
      "stateMutability": "view",
      "type": "function"
    },
    {
      "inputs": [],
      "name": "oldestLockedEventId",
      "outputs": [
        {
          "internalType": "uint256",
          "name": "",
          "type": "uint256"
        }
      ],
      "stateMutability": "view",
      "type": "function"
    },
    {
      "inputs": [],
      "name": "outputEventId",
      "outputs": [
        {
          "internalType": "uint256",
          "name": "",
          "type": "uint256"
        }
      ],
      "stateMutability": "view",
      "type": "function"
    },
    {
      "inputs": [],
      "name": "pause",
      "outputs": [],
      "stateMutability": "nonpayable",
      "type": "function"
    },
    {
      "inputs": [],
      "name": "paused",
      "outputs": [
        {
          "internalType": "bool",
          "name": "",
          "type": "bool"
        }
      ],
      "stateMutability": "view",
      "type": "function"
    },
    {
      "inputs": [
        {
          "internalType": "uint256",
          "name": "eventId",
          "type": "uint256"
        }
      ],
      "name": "removeLockedTransfers",
      "outputs": [],
      "stateMutability": "nonpayable",
      "type": "function"
    },
    {
      "inputs": [
        {
          "internalType": "bytes32",
          "name": "role",
          "type": "bytes32"
        },
        {
          "internalType": "address",
          "name": "account",
          "type": "address"
        }
      ],
      "name": "renounceRole",
      "outputs": [],
      "stateMutability": "nonpayable",
      "type": "function"
    },
    {
      "inputs": [
        {
          "internalType": "bytes32",
          "name": "role",
          "type": "bytes32"
        },
        {
          "internalType": "address",
          "name": "account",
          "type": "address"
        }
      ],
      "name": "revokeRole",
      "outputs": [],
      "stateMutability": "nonpayable",
      "type": "function"
    },
    {
      "inputs": [
        {
          "internalType": "bytes32",
          "name": "role",
          "type": "bytes32"
        },
        {
          "internalType": "address[]",
          "name": "accounts",
          "type": "address[]"
        }
      ],
      "name": "revokeRoles",
      "outputs": [],
      "stateMutability": "nonpayable",
      "type": "function"
    },
    {
      "inputs": [],
      "name": "sideBridgeAddress",
      "outputs": [
        {
          "internalType": "address",
          "name": "",
          "type": "address"
        }
      ],
      "stateMutability": "view",
      "type": "function"
    },
    {
      "inputs": [
        {
          "internalType": "uint256",
          "name": "eventId",
          "type": "uint256"
        }
      ],
      "name": "skipTransfers",
      "outputs": [],
      "stateMutability": "nonpayable",
      "type": "function"
    },
    {
      "inputs": [
        {
          "internalType": "uint256",
          "name": "eventId",
          "type": "uint256"
        },
        {
          "components": [
            {
              "internalType": "address",
              "name": "tokenAddress",
              "type": "address"
            },
            {
              "internalType": "address",
              "name": "toAddress",
              "type": "address"
            },
            {
              "internalType": "uint256",
              "name": "amount",
              "type": "uint256"
            }
          ],
          "internalType": "struct CommonStructs.Transfer[]",
          "name": "transfers",
          "type": "tuple[]"
        }
      ],
      "name": "submitTransferUntrustless",
      "outputs": [],
      "stateMutability": "nonpayable",
      "type": "function"
    },
    {
      "inputs": [
        {
          "internalType": "bytes4",
          "name": "interfaceId",
          "type": "bytes4"
        }
      ],
      "name": "supportsInterface",
      "outputs": [
        {
          "internalType": "bool",
          "name": "",
          "type": "bool"
        }
      ],
      "stateMutability": "view",
      "type": "function"
    },
    {
      "inputs": [],
      "name": "timeframeSeconds",
      "outputs": [
        {
          "internalType": "uint256",
          "name": "",
          "type": "uint256"
        }
      ],
      "stateMutability": "view",
      "type": "function"
    },
    {
      "inputs": [
        {
          "internalType": "address",
          "name": "",
          "type": "address"
        }
      ],
      "name": "tokenAddresses",
      "outputs": [
        {
          "internalType": "address",
          "name": "",
          "type": "address"
        }
      ],
      "stateMutability": "view",
      "type": "function"
    },
    {
      "inputs": [
        {
          "internalType": "address",
          "name": "tokenThisAddress",
          "type": "address"
        },
        {
          "internalType": "address",
          "name": "tokenSideAddress",
          "type": "address"
        }
      ],
      "name": "tokensAdd",
      "outputs": [],
      "stateMutability": "nonpayable",
      "type": "function"
    },
    {
      "inputs": [
        {
          "internalType": "address[]",
          "name": "tokenThisAddresses",
          "type": "address[]"
        },
        {
          "internalType": "address[]",
          "name": "tokenSideAddresses",
          "type": "address[]"
        }
      ],
      "name": "tokensAddBatch",
      "outputs": [],
      "stateMutability": "nonpayable",
      "type": "function"
    },
    {
      "inputs": [
        {
          "internalType": "address",
          "name": "tokenThisAddress",
          "type": "address"
        }
      ],
      "name": "tokensRemove",
      "outputs": [],
      "stateMutability": "nonpayable",
      "type": "function"
    },
    {
      "inputs": [
        {
          "internalType": "address[]",
          "name": "tokenThisAddresses",
          "type": "address[]"
        }
      ],
      "name": "tokensRemoveBatch",
      "outputs": [],
      "stateMutability": "nonpayable",
      "type": "function"
    },
    {
      "inputs": [],
      "name": "transferFeeRecipient",
      "outputs": [
        {
          "internalType": "address payable",
          "name": "",
          "type": "address"
        }
      ],
      "stateMutability": "view",
      "type": "function"
    },
    {
      "inputs": [],
      "name": "triggerTransfers",
      "outputs": [],
      "stateMutability": "nonpayable",
      "type": "function"
    },
    {
      "inputs": [
        {
          "internalType": "uint256",
          "name": "eventId",
          "type": "uint256"
        }
      ],
      "name": "unlockTransfers",
      "outputs": [],
      "stateMutability": "nonpayable",
      "type": "function"
    },
    {
      "inputs": [],
      "name": "unlockTransfersBatch",
      "outputs": [],
      "stateMutability": "nonpayable",
      "type": "function"
    },
    {
      "inputs": [],
      "name": "unpause",
      "outputs": [],
      "stateMutability": "nonpayable",
      "type": "function"
    },
    {
      "inputs": [
        {
          "internalType": "address[]",
          "name": "_watchdogs",
          "type": "address[]"
        },
        {
          "internalType": "address",
          "name": "_fee_provider",
          "type": "address"
        },
        {
          "internalType": "address",
          "name": "mpcRelay",
          "type": "address"
        },
        {
          "internalType": "address",
          "name": "oldDefaultAdmin",
          "type": "address"
        },
        {
          "internalType": "address",
          "name": "oldRelay",
          "type": "address"
        }
      ],
      "name": "upgrade",
      "outputs": [],
      "stateMutability": "nonpayable",
      "type": "function"
    },
    {
      "inputs": [
        {
          "internalType": "address",
          "name": "tokenThisAddress",
          "type": "address"
        },
        {
          "internalType": "address",
          "name": "toAddress",
          "type": "address"
        },
        {
          "internalType": "uint256",
          "name": "amount",
          "type": "uint256"
        },
        {
          "internalType": "bool",
          "name": "unwrapSide",
          "type": "bool"
        },
        {
          "internalType": "bytes",
          "name": "feeSignature",
          "type": "bytes"
        },
        {
          "internalType": "uint256",
          "name": "transferFee",
          "type": "uint256"
        },
        {
          "internalType": "uint256",
          "name": "bridgeFee",
          "type": "uint256"
        }
      ],
      "name": "withdraw",
      "outputs": [],
      "stateMutability": "payable",
      "type": "function"
    },
    {
      "inputs": [
        {
          "internalType": "address",
          "name": "toAddress",
          "type": "address"
        },
        {
          "internalType": "bytes",
          "name": "feeSignature",
          "type": "bytes"
        },
        {
          "internalType": "uint256",
          "name": "transferFee",
          "type": "uint256"
        },
        {
          "internalType": "uint256",
          "name": "bridgeFee",
          "type": "uint256"
        }
      ],
      "name": "wrapWithdraw",
      "outputs": [],
      "stateMutability": "payable",
      "type": "function"
    },
    {
      "inputs": [],
      "name": "wrapperAddress",
      "outputs": [
        {
          "internalType": "address",
          "name": "",
          "type": "address"
        }
      ],
      "stateMutability": "view",
      "type": "function"
    },
    {
      "stateMutability": "payable",
      "type": "receive"
    }
  ],
  "transactionHash": "0x8fdbe585c5459b39c5abe221ccdc6c6810bb640a088f2cb1fc1541b65c893ee0",
  "args": [],
  "numDeployments": 1,
  "solcInputHash": "af3862e0ddcca2861ee723b668139921",
  "bytecode": "0x608060405234801561001057600080fd5b50613643806100206000396000f3fe6080604052600436106102ec5760003560e060020a90048063853890ae11610194578063b87330e9116100e0578063deb9a3a211610099578063f700558711610073578063f7005587146108c4578063f862b7eb146108e4578063f8b7443314610904578063fd5d2ef31461091757600080fd5b8063deb9a3a214610857578063e31be08714610877578063f33fe10f146108a457600080fd5b8063b87330e9146107a9578063ba8bbbe0146107c9578063baeebe75146107df578063cf3317d3146107f5578063d3b89f4914610815578063d547741f1461083757600080fd5b806391d148541161014d57806399b5bb641161012757806399b5bb6414610726578063a217fddf1461073c578063a9b1cf0b14610751578063b6d3385e1461077357600080fd5b806391d14854146106d0578063924cf6e0146106f057806396cf52271461070657600080fd5b8063853890ae1461063257806386d7679e146106525780638ac1f86f146106685780638e5df9c71461067d5780638ff550e81461069d57806391c5bc0a146106bd57600080fd5b8063390d5388116102535780635249a7051161020c578063746b5c42116101e6578063746b5c42146105c657806375b238fc146105db5780637df8b802146105fd5780638456cb591461061d57600080fd5b80635249a7051461056e5780635a5f55bf1461058e5780635c975abb146105ae57600080fd5b8063390d5388146104a95780633928b296146104c95780633f4ba83a146104e957806342180fb8146104fe5780634a1856de1461051e5780635119b0ef1461054e57600080fd5b8063297c2677116102a5578063297c2677146103e55780632bbba847146103fb5780632f2ff15d14610411578063304561bb14610431578063331a891a1461046957806336568abe1461048957600080fd5b806301ffc9a7146102f8578063044218231461032d57806309fce3561461035d5780630d6680871461037f578063196f0f6214610395578063248a9ca3146103b557600080fd5b366102f357005b600080fd5b34801561030457600080fd5b50610318610313366004612fe2565b610937565b60405190151581526020015b60405180910390f35b34801561033957600080fd5b5061034f6000805160206135ae83398151915281565b604051908152602001610324565b34801561036957600080fd5b5061037d610378366004612ecf565b6109ca565b005b34801561038b57600080fd5b5061034f60d45481565b3480156103a157600080fd5b5061037d6103b0366004612f96565b6109f6565b3480156103c157600080fd5b5061034f6103d0366004612f58565b60009081526065602052604090206001015490565b3480156103f157600080fd5b5061034f60d65481565b34801561040757600080fd5b5060ca5415610318565b34801561041d57600080fd5b5061037d61042c366004612f71565b610a44565b34801561043d57600080fd5b5060cf5461045190600160a060020a031681565b604051600160a060020a039091168152602001610324565b34801561047557600080fd5b5061037d610484366004612f58565b610a6f565b34801561049557600080fd5b5061037d6104a4366004612f71565b610b8f565b3480156104b557600080fd5b5060d05461045190600160a060020a031681565b3480156104d557600080fd5b5061037d6104e4366004612cae565b610c1a565b3480156104f557600080fd5b5061037d610c56565b34801561050a57600080fd5b5061037d610519366004612f58565b610c7a565b34801561052a57600080fd5b5061034f610539366004612f58565b60cb6020526000908152604090206001015481565b34801561055a57600080fd5b5061037d61056936600461305d565b610cb7565b34801561057a57600080fd5b5061037d610589366004612dff565b610d35565b34801561059a57600080fd5b5061037d6105a9366004613021565b610dbe565b3480156105ba57600080fd5b5060975460ff16610318565b3480156105d257600080fd5b5061037d610e36565b3480156105e757600080fd5b5061034f6000805160206135ee83398151915281565b34801561060957600080fd5b5060ce5461045190600160a060020a031681565b34801561062957600080fd5b5061037d610ee2565b34801561063e57600080fd5b5061037d61064d366004612ccb565b610f03565b34801561065e57600080fd5b5061034f60d75481565b34801561067457600080fd5b5061037d610f4b565b34801561068957600080fd5b5061037d610698366004612cae565b6110a3565b3480156106a957600080fd5b5061037d6106b8366004612e41565b6110e4565b61037d6106cb366004612d98565b6111b5565b3480156106dc57600080fd5b506103186106eb366004612f71565b6114e5565b3480156106fc57600080fd5b5061034f60d25481565b34801561071257600080fd5b5061037d610721366004612f58565b611510565b34801561073257600080fd5b5061034f60d55481565b34801561074857600080fd5b5061034f600081565b34801561075d57600080fd5b5061034f60008051602061358e83398151915281565b34801561077f57600080fd5b5061045161078e366004612cae565b60cd60205260009081526040902054600160a060020a031681565b3480156107b557600080fd5b5061037d6107c4366004612cae565b61152f565b3480156107d557600080fd5b5061034f60cc5481565b3480156107eb57600080fd5b5061034f60d35481565b34801561080157600080fd5b5061037d610810366004612f58565b61156b565b34801561082157600080fd5b5061034f6000805160206135ce83398151915281565b34801561084357600080fd5b5061037d610852366004612f71565b6115e2565b34801561086357600080fd5b5061037d610872366004612f96565b611608565b34801561088357600080fd5b50610897610892366004612f58565b61162f565b6040516103249190613328565b3480156108b057600080fd5b5060d15461045190600160a060020a031681565b3480156108d057600080fd5b5061037d6108df366004612f58565b6116eb565b3480156108f057600080fd5b5061037d6108ff366004612f58565b61170a565b61037d610912366004612d04565b61193d565b34801561092357600080fd5b5061037d610932366004612f58565b611d9d565b60007bffffffffffffffffffffffffffffffffffffffffffffffffffffffff1982167f7965db0b0000000000000000000000000000000000000000000000000000000014806109c457507f01ffc9a7000000000000000000000000000000000000000000000000000000007bffffffffffffffffffffffffffffffffffffffffffffffffffffffff198316145b92915050565b6000805160206135ee8339815191526109e38133611dbc565b6109ef85858585611e23565b5050505050565b60005b81811015610a3e57610a2c84848484818110610a1757610a176134d9565b90506020020160208101906108529190612cae565b80610a36816134a5565b9150506109f9565b50505050565b600082815260656020526040902060010154610a608133611dbc565b610a6a8383611f3c565b505050565b6000805160206135ee833981519152610a888133611dbc565b60975460ff16610ab65760405160e560020a62461bcd028152600401610aad90613200565b60405180910390fd5b60cc54821015610adb5760405160e560020a62461bcd028152600401610aad906132cb565b60d554821115610b305760405160e560020a62461bcd02815260206004820152601f60248201527f6576656e744964206d757374206265203c3d20696e7075744576656e744964006044820152606401610aad565b610b3b60018361344b565b60d5555b600082815260cb602052604090206001015415610b8b57600082815260cb6020526040812090610b6f8282612bce565b5060006001919091015581610b83816134a5565b925050610b3f565b5050565b600160a060020a0381163314610c105760405160e560020a62461bcd02815260206004820152602f60248201527f416363657373436f6e74726f6c3a2063616e206f6e6c792072656e6f756e636560448201527f20726f6c657320666f722073656c6600000000000000000000000000000000006064820152608401610aad565b610b8b8282611fc2565b6000805160206135ee833981519152610c338133611dbc565b5060d08054600160a060020a031916600160a060020a0392909216919091179055565b6000805160206135ee833981519152610c6f8133611dbc565b610c77612029565b50565b6000805160206135ee833981519152610c938133611dbc565b8160d35460d754610ca4919061342c565b610cae9190613407565b60d7555060d355565b6000805160206135ae833981519152610cd08133611dbc565b60975460ff1615610cf65760405160e560020a62461bcd028152600401610aad90613237565b610cff84612098565b60405184907f196c47048e38df7a4fe6e581c8f4f2e2ba67ac0dd45b90da756e97bd61d9dd3b90600090a2610a3e8383866120fd565b6000805160206135ee833981519152610d4e8133611dbc565b8160005b818110156109ef5760cd6000868684818110610d7057610d706134d9565b9050602002016020810190610d859190612cae565b600160a060020a0316815260208101919091526040016000208054600160a060020a031916905580610db6816134a5565b915050610d52565b600054610100900460ff1680610dd7575060005460ff16155b610df65760405160e560020a62461bcd028152600401610aad9061326e565b600054610100900460ff16158015610e18576000805461ffff19166101011790555b610e218261218b565b8015610b8b576000805461ff00191690555050565b60ca54610e885760405160e560020a62461bcd02815260206004820152600e60248201527f517565756520697320656d7074790000000000000000000000000000000000006044820152606401610aad565b60d68054906000610e98836134a5565b919050557fe15729a2f427aa4572dab35eb692c902fcbce57d41642013259c741380809ae260ca604051610ecc919061315d565b60405180910390a2610ee060ca6000612bce565b565b60008051602061358e833981519152610efb8133611dbc565b610c776123a5565b6000805160206135ee833981519152610f1c8133611dbc565b50600160a060020a03918216600090815260cd602052604090208054600160a060020a03191691909216179055565b60975460ff1615610f715760405160e560020a62461bcd028152600401610aad90613237565b60cc545b600081815260cb60209081526040808320815181546060948102820185018452928101838152909391928492849190879085015b8282101561100357600084815260209081902060408051606081018252600386029092018054600160a060020a03908116845260018083015490911684860152600290910154918301919091529083529092019101610fa9565b505050508152602001600182015481525050905080602001516000148061102d5750428160200151115b15611038575060cc55565b805161104390612400565b600082815260cb602052604081209061105c8282612bce565b50600060019190910181905560405183917f78ff9b3176bb0d6421590f3816e75cb15a9ffa2b7a1a028f40a3f4e029eb39f291a2508061109b816134a5565b915050610f75565b6000805160206135ee8339815191526110bc8133611dbc565b50600160a060020a0316600090815260cd602052604090208054600160a060020a0319169055565b3330146111365760405160e560020a62461bcd02815260206004820152601c60248201527f54686973206d6574686f642072657175697265206d756c7469736967000000006044820152606401610aad565b611141600033612694565b6111596000805160206135ae833981519152826115e2565b61117260008051602061358e833981519152878761269e565b61118a6000805160206135ce83398151915285612694565b6111a26000805160206135ae83398151915284612694565b6111ad6000836115e2565b505050505050565b60ce54600160a060020a03908116600090815260cd602052604090205416806112235760405160e560020a62461bcd02815260206004820152601560248201527f556e6b6e6f776e20746f6b656e206164647265737300000000000000000000006044820152606401610aad565b61122d82846133ef565b341161127e5760405160e560020a62461bcd02815260206004820152601160248201527f53656e742076616c7565203c3d206665650000000000000000000000000000006044820152606401610aad565b60008261128b853461344b565b611295919061344b565b60ce549091506112b290600160a060020a031687878787866126e6565b60cf54604051600160a060020a039091169085156108fc029086906000818181858888f193505050501580156112ec573d6000803e3d6000fd5b5060d054604051600160a060020a039091169084156108fc029085906000818181858888f19350505050158015611327573d6000803e3d6000fd5b5060ce60009054906101000a9004600160a060020a0316600160a060020a031663d0e30db0826040518263ffffffff1660e060020a0281526004016000604051808303818588803b15801561137b57600080fd5b505af115801561138f573d6000803e3d6000fd5b505060408051606081018252600160a060020a0380881682528c81166020830190815282840188815260ca80546001810182556000918252945160039095027f42d72674974f694b5f5159593243114d38a5c39c89d6b62fee061ff523240ee181018054968616600160a060020a031997881617905592517f42d72674974f694b5f5159593243114d38a5c39c89d6b62fee061ff523240ee2840180549190951695169490941790925590517f42d72674974f694b5f5159593243114d38a5c39c89d6b62fee061ff523240ee39091015560d65491513395507f3b823d3b837159352faddd1e0b9e9f584ca2bfe976238f6a9e6da4615cf2f44494506114cc9350879087908b908b90958652600160a060020a0394851660208701529290931660408501526060840152608083019190915260a082015260c00190565b60405180910390a26114dc61287a565b50505050505050565b6000918252606560209081526040808420600160a060020a0393909316845291905290205460ff1690565b6000805160206135ee8339815191526115298133611dbc565b5060d455565b6000805160206135ee8339815191526115488133611dbc565b5060cf8054600160a060020a031916600160a060020a0392909216919091179055565b6000805160206135ee8339815191526115848133611dbc565b60975460ff166115a95760405160e560020a62461bcd028152600401610aad90613200565b60cc548210156115ce5760405160e560020a62461bcd028152600401610aad906132cb565b6115d960018361344b565b60d5555060cc55565b6000828152606560205260409020600101546115fe8133611dbc565b610a6a8383611fc2565b6000838152606560205260409020600101546116248133611dbc565b610a3e84848461269e565b604080518082019091526060815260006020820152600082815260cb60209081526040808320815181546060948102820185018452928101838152909491938593919285929185015b828210156116d257600084815260209081902060408051606081018252600386029092018054600160a060020a03908116845260018083015490911684860152600290910154918301919091529083529092019101611678565b5050505081526020016001820154815250509050919050565b6000805160206135ee8339815191526117048133611dbc565b5060c955565b60975460ff16156117305760405160e560020a62461bcd028152600401610aad90613237565b60cc5481146117845760405160e560020a62461bcd02815260206004820152601c60248201527f63616e20756e6c6f636b206f6e6c79206f6c64657374206576656e74000000006044820152606401610aad565b600081815260cb60209081526040808320815181546060948102820185018452928101838152909391928492849190879085015b8282101561181257600084815260209081902060408051606081018252600386029092018054600160a060020a039081168452600180830154909116848601526002909101549183019190915290835290920191016117b8565b5050505081526020016001820154815250509050600081602001511161187d5760405160e560020a62461bcd02815260206004820181905260248201527f6e6f206c6f636b6564207472616e7366657273207769746820746869732069646044820152606401610aad565b428160200151106118d35760405160e560020a62461bcd02815260206004820152601b60248201527f6c6f636b54696d6520686173206e6f74207965742070617373656400000000006044820152606401610aad565b80516118de90612400565b600082815260cb60205260408120906118f78282612bce565b50600060019190910181905560405183917f78ff9b3176bb0d6421590f3816e75cb15a9ffa2b7a1a028f40a3f4e029eb39f291a26119368260016133ef565b60cc555050565b600085156119d2576000805260cd6020527fcd565b10a72538d86f6d352f37ebc5dff31587960b12c0afe00fd03947a6932a54600160a060020a038a81169116146119cd5760405160e560020a62461bcd02815260206004820152601f60248201527f546f6b656e206e6f7420706f696e7420746f206e617469766520746f6b656e006044820152606401610aad565b611a3e565b50600160a060020a03808916600090815260cd60205260409020541680611a3e5760405160e560020a62461bcd02815260206004820152601560248201527f556e6b6e6f776e20746f6b656e206164647265737300000000000000000000006044820152606401610aad565b611a4882846133ef565b3414611a995760405160e560020a62461bcd02815260206004820152601160248201527f53656e742076616c756520213d206665650000000000000000000000000000006044820152606401610aad565b60008711611aec5760405160e560020a62461bcd02815260206004820152601160248201527f43616e6e6f7420776974686472617720300000000000000000000000000000006044820152606401610aad565b611afa89868686868c6126e6565b60cf54604051600160a060020a039091169084156108fc029085906000818181858888f19350505050158015611b34573d6000803e3d6000fd5b5060d054604051600160a060020a039091169083156108fc029084906000818181858888f19350505050158015611b6f573d6000803e3d6000fd5b506040517f23b872dd00000000000000000000000000000000000000000000000000000000815233600482015230602482015260448101889052600160a060020a038a16906323b872dd90606401602060405180830381600087803b158015611bd757600080fd5b505af1158015611beb573d6000803e3d6000fd5b505050506040513d601f19601f82011682018060405250810190611c0f9190612f3b565b611c5e5760405160e560020a62461bcd02815260206004820152601360248201527f4661696c207472616e7366657220636f696e73000000000000000000000000006044820152606401610aad565b6040805160608082018352600160a060020a038481168084528c821660208086019182528587018e815260ca8054600181018255600091909152965160039097027f42d72674974f694b5f5159593243114d38a5c39c89d6b62fee061ff523240ee181018054988716600160a060020a0319998a1617905592517f42d72674974f694b5f5159593243114d38a5c39c89d6b62fee061ff523240ee284018054918716919098161790965594517f42d72674974f694b5f5159593243114d38a5c39c89d6b62fee061ff523240ee39091015560d6548551908152918e16938201939093529283019190915281018890526080810184905260a0810183905233907f3b823d3b837159352faddd1e0b9e9f584ca2bfe976238f6a9e6da4615cf2f4449060c00160405180910390a2611d9261287a565b505050505050505050565b6000805160206135ee833981519152611db68133611dbc565b5060d255565b611dc682826114e5565b610b8b57611dde81600160a060020a031660146128f2565b611de98360206128f2565b604051602001611dfa9291906130dc565b60408051601f198184030181529082905260e560020a62461bcd028252610aad916004016131cd565b828114611e9b5760405160e560020a62461bcd02815260206004820152603f60248201527f73697a6573206f6620746f6b656e5468697341646472657373657320616e642060448201527f746f6b656e53696465416464726573736573206d7573742062652073616d65006064820152608401610aad565b8260005b818110156111ad57838382818110611eb957611eb96134d9565b9050602002016020810190611ece9190612cae565b60cd6000888885818110611ee457611ee46134d9565b9050602002016020810190611ef99190612cae565b600160a060020a03908116825260208201929092526040016000208054600160a060020a0319169290911691909117905580611f34816134a5565b915050611e9f565b611f4682826114e5565b610b8b576000828152606560209081526040808320600160a060020a03851684529091529020805460ff19166001179055611f7e3390565b600160a060020a031681600160a060020a0316837f2f8788117e7eff1d82e926ec794901d17c78024a50270940304540a733656f0d60405160405180910390a45050565b611fcc82826114e5565b15610b8b576000828152606560209081526040808320600160a060020a0385168085529252808320805460ff1916905551339285917ff6391f5c32d9c69d2a47ea670b442974b53935d1edc7fd64eb21e047a839171b9190a45050565b60975460ff1661204e5760405160e560020a62461bcd028152600401610aad90613200565b6097805460ff191690557f5db9ee0a495bf2e6ff9c91a7834c1ba4fdd244a5e8aa4e537bd38aeae4b073aa335b604051600160a060020a03909116815260200160405180910390a1565b60d5600081546120a7906134a5565b91829055508114610c775760405160e560020a62461bcd02815260206004820152601460248201527f4576656e744964206f7574206f66206f726465720000000000000000000000006044820152606401610aad565b60d45461210a90426133ef565b600082815260cb60205260408120600101919091555b82811015610a3e57600082815260cb60205260409020848483818110612148576121486134d9565b835460018101855560009485526020909420606090910292909201926003029091019050612176828261350b565b50508080612183906134a5565b915050612120565b600054610100900460ff16806121a4575060005460ff16155b6121c35760405160e560020a62461bcd028152600401610aad9061326e565b600054610100900460ff161580156121e5576000805461ffff19166101011790555b6121f0600030612694565b6122086000805160206135ee83398151915233612694565b61222f6000805160206135ae83398151915261222a6040850160208601612cae565b612694565b61225360008051602061358e83398151915261224e60408501856133a6565b61269e565b6122756000805160206135ce83398151915261222a6080850160608601612cae565b61229761228560a08401846133a6565b61229260c08601866133a6565b611e23565b6122a760a0830160808401612cae565b60ce8054600160a060020a031916600160a060020a03929092169190911790556122d46020830183612cae565b60d18054600160a060020a031916600160a060020a0392909216919091179055612305610100830160e08401612cae565b60cf8054600160a060020a031916600160a060020a039290921691909117905561233761012083016101008401612cae565b60d08054600160a060020a031916600160a060020a039290921691909117905561016082013560d25561012082013560d381905561014083013560d455600160cc81905560d655600360c95561238d9042613407565b60d7558015610b8b576000805461ff00191690555050565b60975460ff16156123cb5760405160e560020a62461bcd028152600401610aad90613237565b6097805460ff191660011790557f62e78cea01bee320cd4e420270b5ea74000d11b0c9f74754ebdbfc544b05a25861207b3390565b60005b8151811015610b8b576000600160a060020a0316828281518110612429576124296134d9565b602002602001015160000151600160a060020a031614156125455760ce548251600160a060020a0390911690632e1a7d4d9084908490811061246d5761246d6134d9565b6020026020010151604001516040518263ffffffff1660e060020a02815260040161249a91815260200190565b600060405180830381600087803b1580156124b457600080fd5b505af11580156124c8573d6000803e3d6000fd5b505050508181815181106124de576124de6134d9565b602002602001015160200151600160a060020a03166108fc838381518110612508576125086134d9565b6020026020010151604001519081150290604051600060405180830381858888f1935050505015801561253f573d6000803e3d6000fd5b50612682565b818181518110612557576125576134d9565b602002602001015160000151600160a060020a031663a9059cbb838381518110612583576125836134d9565b6020026020010151602001518484815181106125a1576125a16134d9565b6020026020010151604001516040518363ffffffff1660e060020a0281526004016125e1929190600160a060020a03929092168252602082015260400190565b602060405180830381600087803b1580156125fb57600080fd5b505af115801561260f573d6000803e3d6000fd5b505050506040513d601f19601f820116820180604052508101906126339190612f3b565b6126825760405160e560020a62461bcd02815260206004820152601360248201527f4661696c207472616e7366657220636f696e73000000000000000000000000006044820152606401610aad565b8061268c816134a5565b915050612403565b610b8b8282611f3c565b60005b81811015610a3e576126d4848484848181106126bf576126bf6134d9565b905060200201602081019061222a9190612cae565b806126de816134a5565b9150506126a1565b600080806126f661070842613407565b905060005b60c95481101561282e576040516c01000000000000000000000000600160a060020a038c160260208201526034810183905260548101889052607481018790526094810186905260b40160408051601f198184030181529082905280516020918201207f19457468657265756d205369676e6564204d6573736167653a0a33320000000091830191909152603c820152605c016040516020818303038152906040528051906020012093506127e6848a8a8080601f016020809104026020016040519081016040528093929190818152602001838380828437600092019190915250612b4392505050565b92506128006000805160206135ce833981519152846114e5565b1561280e57505050506111ad565b816128188161348e565b9250508080612826906134a5565b9150506126fb565b5060405160e560020a62461bcd02815260206004820152601660248201527f5369676e617475726520636865636b206661696c6564000000000000000000006044820152606401610aad565b600060d3544261288a9190613407565b905060d7548114610c775760d680549060006128a5836134a5565b919050557fe15729a2f427aa4572dab35eb692c902fcbce57d41642013259c741380809ae260ca6040516128d9919061315d565b60405180910390a26128ed60ca6000612bce565b60d755565b6060600061290183600261342c565b61290c9060026133ef565b67ffffffffffffffff811115612924576129246134f2565b6040519080825280601f01601f19166020018201604052801561294e576020820181803683370190505b5090507f300000000000000000000000000000000000000000000000000000000000000081600081518110612985576129856134d9565b60200101907effffffffffffffffffffffffffffffffffffffffffffffffffffffffffffff1916908160001a9053507f7800000000000000000000000000000000000000000000000000000000000000816001815181106129e8576129e86134d9565b60200101907effffffffffffffffffffffffffffffffffffffffffffffffffffffffffffff1916908160001a9053506000612a2484600261342c565b612a2f9060016133ef565b90505b6001811115612aea577f303132333435363738396162636465660000000000000000000000000000000085600f1660108110612a7057612a706134d9565b1a7f010000000000000000000000000000000000000000000000000000000000000002828281518110612aa557612aa56134d9565b60200101907effffffffffffffffffffffffffffffffffffffffffffffffffffffffffffff1916908160001a905350601090940493612ae38161348e565b9050612a32565b508315612b3c5760405160e560020a62461bcd02815260206004820181905260248201527f537472696e67733a20686578206c656e67746820696e73756666696369656e746044820152606401610aad565b9392505050565b6020810151604082015160608301516000929190831a601b811015612b6657601b015b60408051600081526020810180835288905260ff831691810191909152606081018490526080810183905260019060a0016020604051602081039080840390855afa158015612bb9573d6000803e3d6000fd5b5050604051601f190151979650505050505050565b5080546000825560030290600052602060002090810190610c7791905b80821115612c1d578054600160a060020a03199081168255600182018054909116905560006002820155600301612beb565b5090565b60008083601f840112612c3357600080fd5b50813567ffffffffffffffff811115612c4b57600080fd5b6020830191508360208083028501011115612c6557600080fd5b9250929050565b60008083601f840112612c7e57600080fd5b50813567ffffffffffffffff811115612c9657600080fd5b602083019150836020828501011115612c6557600080fd5b600060208284031215612cc057600080fd5b8135612b3c8161356a565b60008060408385031215612cde57600080fd5b8235612ce98161356a565b91506020830135612cf98161356a565b809150509250929050565b60008060008060008060008060e0898b031215612d2057600080fd5b8835612d2b8161356a565b97506020890135612d3b8161356a565b9650604089013595506060890135612d528161357f565b9450608089013567ffffffffffffffff811115612d6e57600080fd5b612d7a8b828c01612c6c565b999c989b5096999598969760a08701359660c0013595509350505050565b600080600080600060808688031215612db057600080fd5b8535612dbb8161356a565b9450602086013567ffffffffffffffff811115612dd757600080fd5b612de388828901612c6c565b9699909850959660408101359660609091013595509350505050565b60008060208385031215612e1257600080fd5b823567ffffffffffffffff811115612e2957600080fd5b612e3585828601612c21565b90969095509350505050565b60008060008060008060a08789031215612e5a57600080fd5b863567ffffffffffffffff811115612e7157600080fd5b612e7d89828a01612c21565b9097509550506020870135612e918161356a565b93506040870135612ea18161356a565b92506060870135612eb18161356a565b91506080870135612ec18161356a565b809150509295509295509295565b60008060008060408587031215612ee557600080fd5b843567ffffffffffffffff80821115612efd57600080fd5b612f0988838901612c21565b90965094506020870135915080821115612f2257600080fd5b50612f2f87828801612c21565b95989497509550505050565b600060208284031215612f4d57600080fd5b8151612b3c8161357f565b600060208284031215612f6a57600080fd5b5035919050565b60008060408385031215612f8457600080fd5b823591506020830135612cf98161356a565b600080600060408486031215612fab57600080fd5b83359250602084013567ffffffffffffffff811115612fc957600080fd5b612fd586828701612c21565b9497909650939450505050565b600060208284031215612ff457600080fd5b81357bffffffffffffffffffffffffffffffffffffffffffffffffffffffff1981168114612b3c57600080fd5b60006020828403121561303357600080fd5b813567ffffffffffffffff81111561304a57600080fd5b82016101808185031215612b3c57600080fd5b60008060006040848603121561307257600080fd5b83359250602084013567ffffffffffffffff8082111561309157600080fd5b818601915086601f8301126130a557600080fd5b8135818111156130b457600080fd5b8760206060830285010111156130c957600080fd5b6020830194508093505050509250925092565b7f416363657373436f6e74726f6c3a206163636f756e7420000000000000000000815260008351613114816017850160208801613462565b7f206973206d697373696e6720726f6c65200000000000000000000000000000006017918401918201528351613151816028840160208801613462565b01602801949350505050565b60006020808301818452808554808352604092508286019150866000528360002060005b828110156131c0578154600160a060020a0390811685526001808401549091168786015260028301548686015260609094019360039092019101613181565b5091979650505050505050565b60208152600082518060208401526131ec816040850160208701613462565b601f01601f19169190910160400192915050565b60208082526014908201527f5061757361626c653a206e6f7420706175736564000000000000000000000000604082015260600190565b60208082526010908201527f5061757361626c653a2070617573656400000000000000000000000000000000604082015260600190565b6020808252602e908201527f496e697469616c697a61626c653a20636f6e747261637420697320616c72656160408201527f647920696e697469616c697a6564000000000000000000000000000000000000606082015260800190565b60208082526026908201527f6576656e744964206d757374206265203e3d206f6c646573744c6f636b65644560408201527f76656e7449640000000000000000000000000000000000000000000000000000606082015260800190565b6000602080835260608084018551604080858801528282518085526080890191508684019450600093505b808410156133905784518051600160a060020a03908116845288820151168884015283015183830152938601936001939093019290850190613353565b5094909701519590960194909452509392505050565b6000808335601e198436030181126133bd57600080fd5b83018035915067ffffffffffffffff8211156133d857600080fd5b6020908101925081023603821315612c6557600080fd5b60008219821115613402576134026134c0565b500190565b6000826134275760e060020a634e487b7102600052601260045260246000fd5b500490565b6000816000190483118215151615613446576134466134c0565b500290565b60008282101561345d5761345d6134c0565b500390565b60005b8381101561347d578181015183820152602001613465565b83811115610a3e5750506000910152565b60008161349d5761349d6134c0565b506000190190565b60006000198214156134b9576134b96134c0565b5060010190565b60e060020a634e487b7102600052601160045260246000fd5b60e060020a634e487b7102600052603260045260246000fd5b60e060020a634e487b7102600052604160045260246000fd5b81356135168161356a565b8154600160a060020a031916600160a060020a03821617825550602082013561353e8161356a565b600182018054600160a060020a031916600160a060020a03831617905550604082013560028201555050565b600160a060020a0381168114610c7757600080fd5b8015158114610c7757600080fdfeb7f2fcb7a10916921b74b9baa8ea85f89b12ab12f6ededa160998f8b20e65f95077a1d526a4ce8a773632ab13b4fbbf1fcc954c3dab26cd27ea0e2a6750da5d7516d5e7ed3e60a6b2804c1554cd94bc2eb576e44b192a0e069d4c527589a887ea49807205ce4d355092ef5a8a18f56e8913cf4a201fbe287825b095693c21775a2646970667358221220f119cfdf09ef1c5c8647b046a35b30b1c02a33d603e5f16512bf2873ac3ddf4464736f6c63430008060033",
  "devdoc": {
    "kind": "dev",
    "methods": {
      "getRoleAdmin(bytes32)": {
        "details": "Returns the admin role that controls `role`. See {grantRole} and {revokeRole}. To change a role's admin, use {_setRoleAdmin}."
      },
      "grantRole(bytes32,address)": {
        "details": "Grants `role` to `account`. If `account` had not been already granted `role`, emits a {RoleGranted} event. Requirements: - the caller must have ``role``'s admin role."
      },
      "hasRole(bytes32,address)": {
        "details": "Returns `true` if `account` has been granted `role`."
      },
      "paused()": {
        "details": "Returns true if the contract is paused, and false otherwise."
      },
      "renounceRole(bytes32,address)": {
        "details": "Revokes `role` from the calling account. Roles are often managed via {grantRole} and {revokeRole}: this function's purpose is to provide a mechanism for accounts to lose their privileges if they are compromised (such as when a trusted device is misplaced). If the calling account had been granted `role`, emits a {RoleRevoked} event. Requirements: - the caller must be `account`."
      },
      "revokeRole(bytes32,address)": {
        "details": "Revokes `role` from `account`. If `account` had been granted `role`, emits a {RoleRevoked} event. Requirements: - the caller must have ``role``'s admin role."
      },
      "supportsInterface(bytes4)": {
        "details": "See {IERC165-supportsInterface}."
      },
      "withdraw(address,address,uint256,bool,bytes,uint256,uint256)": {
        "params": {
          "bridgeFee": "Amount (in native coins), payed as bridge earnings",
          "feeSignature": "Signature signed by relay that confirms that the fee values are valid",
          "transferFee": "Amount (in native coins), payed to compensate gas fees in side network"
        }
      },
      "wrapWithdraw(address,bytes,uint256,uint256)": {
        "params": {
          "bridgeFee": "Amount (in native coins), payed as bridge earnings",
          "feeSignature": "Signature signed by relay that confirms that the fee values are valid",
          "toAddress": "Address in side network that will receive the tokens",
          "transferFee": "Amount (in native coins), payed to compensate gas fees in side network"
        }
      }
    },
    "version": 1
  },
  "userdoc": {
    "kind": "user",
    "methods": {},
    "version": 1
  },
  "storageLayout": {
    "storage": [
      {
        "astId": 413,
        "contract": "contracts/networks/BSC_BscBridge.sol:BSC_BscBridge",
        "label": "_initialized",
        "offset": 0,
        "slot": "0",
        "type": "t_bool"
      },
      {
        "astId": 416,
        "contract": "contracts/networks/BSC_BscBridge.sol:BSC_BscBridge",
        "label": "_initializing",
        "offset": 1,
        "slot": "0",
        "type": "t_bool"
      },
      {
        "astId": 609,
        "contract": "contracts/networks/BSC_BscBridge.sol:BSC_BscBridge",
        "label": "__gap",
        "offset": 0,
        "slot": "1",
        "type": "t_array(t_uint256)50_storage"
      },
      {
        "astId": 858,
        "contract": "contracts/networks/BSC_BscBridge.sol:BSC_BscBridge",
        "label": "__gap",
        "offset": 0,
        "slot": "51",
        "type": "t_array(t_uint256)50_storage"
      },
      {
        "astId": 48,
        "contract": "contracts/networks/BSC_BscBridge.sol:BSC_BscBridge",
        "label": "_roles",
        "offset": 0,
        "slot": "101",
        "type": "t_mapping(t_bytes32,t_struct(RoleData)43_storage)"
      },
      {
        "astId": 333,
        "contract": "contracts/networks/BSC_BscBridge.sol:BSC_BscBridge",
        "label": "__gap",
        "offset": 0,
        "slot": "102",
        "type": "t_array(t_uint256)49_storage"
      },
      {
        "astId": 474,
        "contract": "contracts/networks/BSC_BscBridge.sol:BSC_BscBridge",
        "label": "_paused",
        "offset": 0,
        "slot": "151",
        "type": "t_bool"
      },
      {
        "astId": 565,
        "contract": "contracts/networks/BSC_BscBridge.sol:BSC_BscBridge",
        "label": "__gap",
        "offset": 0,
        "slot": "152",
        "type": "t_array(t_uint256)49_storage"
      },
      {
        "astId": 2748,
        "contract": "contracts/networks/BSC_BscBridge.sol:BSC_BscBridge",
        "label": "signatureFeeCheckNumber",
        "offset": 0,
        "slot": "201",
        "type": "t_uint256"
      },
      {
        "astId": 2752,
        "contract": "contracts/networks/BSC_BscBridge.sol:BSC_BscBridge",
        "label": "queue",
        "offset": 0,
        "slot": "202",
        "type": "t_array(t_struct(Transfer)3954_storage)dyn_storage"
      },
      {
        "astId": 2757,
        "contract": "contracts/networks/BSC_BscBridge.sol:BSC_BscBridge",
        "label": "lockedTransfers",
        "offset": 0,
        "slot": "203",
        "type": "t_mapping(t_uint256,t_struct(LockedTransfers)3971_storage)"
      },
      {
        "astId": 2759,
        "contract": "contracts/networks/BSC_BscBridge.sol:BSC_BscBridge",
        "label": "oldestLockedEventId",
        "offset": 0,
        "slot": "204",
        "type": "t_uint256"
      },
      {
        "astId": 2763,
        "contract": "contracts/networks/BSC_BscBridge.sol:BSC_BscBridge",
        "label": "tokenAddresses",
        "offset": 0,
        "slot": "205",
        "type": "t_mapping(t_address,t_address)"
      },
      {
        "astId": 2765,
        "contract": "contracts/networks/BSC_BscBridge.sol:BSC_BscBridge",
        "label": "wrapperAddress",
        "offset": 0,
        "slot": "206",
        "type": "t_address"
      },
      {
        "astId": 2767,
        "contract": "contracts/networks/BSC_BscBridge.sol:BSC_BscBridge",
        "label": "transferFeeRecipient",
        "offset": 0,
        "slot": "207",
        "type": "t_address_payable"
      },
      {
        "astId": 2769,
        "contract": "contracts/networks/BSC_BscBridge.sol:BSC_BscBridge",
        "label": "bridgeFeeRecipient",
        "offset": 0,
        "slot": "208",
        "type": "t_address_payable"
      },
      {
        "astId": 2771,
        "contract": "contracts/networks/BSC_BscBridge.sol:BSC_BscBridge",
        "label": "sideBridgeAddress",
        "offset": 0,
        "slot": "209",
        "type": "t_address"
      },
      {
        "astId": 2773,
        "contract": "contracts/networks/BSC_BscBridge.sol:BSC_BscBridge",
        "label": "minSafetyBlocks",
        "offset": 0,
        "slot": "210",
        "type": "t_uint256"
      },
      {
        "astId": 2775,
        "contract": "contracts/networks/BSC_BscBridge.sol:BSC_BscBridge",
        "label": "timeframeSeconds",
        "offset": 0,
        "slot": "211",
        "type": "t_uint256"
      },
      {
        "astId": 2777,
        "contract": "contracts/networks/BSC_BscBridge.sol:BSC_BscBridge",
        "label": "lockTime",
        "offset": 0,
        "slot": "212",
        "type": "t_uint256"
      },
      {
        "astId": 2779,
        "contract": "contracts/networks/BSC_BscBridge.sol:BSC_BscBridge",
        "label": "inputEventId",
        "offset": 0,
        "slot": "213",
        "type": "t_uint256"
      },
      {
        "astId": 2781,
        "contract": "contracts/networks/BSC_BscBridge.sol:BSC_BscBridge",
        "label": "outputEventId",
        "offset": 0,
        "slot": "214",
        "type": "t_uint256"
      },
      {
        "astId": 2783,
        "contract": "contracts/networks/BSC_BscBridge.sol:BSC_BscBridge",
        "label": "lastTimeframe",
        "offset": 0,
        "slot": "215",
        "type": "t_uint256"
      },
      {
        "astId": 3944,
        "contract": "contracts/networks/BSC_BscBridge.sol:BSC_BscBridge",
        "label": "__gap",
        "offset": 0,
        "slot": "216",
        "type": "t_array(t_uint256)15_storage"
      },
      {
        "astId": 2678,
        "contract": "contracts/networks/BSC_BscBridge.sol:BSC_BscBridge",
        "label": "___gap",
        "offset": 0,
        "slot": "231",
        "type": "t_array(t_uint256)15_storage"
      }
    ],
    "types": {
      "t_address": {
        "encoding": "inplace",
        "label": "address",
        "numberOfBytes": "20"
      },
      "t_address_payable": {
        "encoding": "inplace",
        "label": "address payable",
        "numberOfBytes": "20"
      },
      "t_array(t_struct(Transfer)3954_storage)dyn_storage": {
        "base": "t_struct(Transfer)3954_storage",
        "encoding": "dynamic_array",
        "label": "struct CommonStructs.Transfer[]",
        "numberOfBytes": "32"
      },
      "t_array(t_uint256)15_storage": {
        "base": "t_uint256",
        "encoding": "inplace",
        "label": "uint256[15]",
        "numberOfBytes": "480"
      },
      "t_array(t_uint256)49_storage": {
        "base": "t_uint256",
        "encoding": "inplace",
        "label": "uint256[49]",
        "numberOfBytes": "1568"
      },
      "t_array(t_uint256)50_storage": {
        "base": "t_uint256",
        "encoding": "inplace",
        "label": "uint256[50]",
        "numberOfBytes": "1600"
      },
      "t_bool": {
        "encoding": "inplace",
        "label": "bool",
        "numberOfBytes": "1"
      },
      "t_bytes32": {
        "encoding": "inplace",
        "label": "bytes32",
        "numberOfBytes": "32"
      },
      "t_mapping(t_address,t_address)": {
        "encoding": "mapping",
        "key": "t_address",
        "label": "mapping(address => address)",
        "numberOfBytes": "32",
        "value": "t_address"
      },
      "t_mapping(t_address,t_bool)": {
        "encoding": "mapping",
        "key": "t_address",
        "label": "mapping(address => bool)",
        "numberOfBytes": "32",
        "value": "t_bool"
      },
      "t_mapping(t_bytes32,t_struct(RoleData)43_storage)": {
        "encoding": "mapping",
        "key": "t_bytes32",
        "label": "mapping(bytes32 => struct AccessControlUpgradeable.RoleData)",
        "numberOfBytes": "32",
        "value": "t_struct(RoleData)43_storage"
      },
      "t_mapping(t_uint256,t_struct(LockedTransfers)3971_storage)": {
        "encoding": "mapping",
        "key": "t_uint256",
        "label": "mapping(uint256 => struct CommonStructs.LockedTransfers)",
        "numberOfBytes": "32",
        "value": "t_struct(LockedTransfers)3971_storage"
      },
      "t_struct(LockedTransfers)3971_storage": {
        "encoding": "inplace",
        "label": "struct CommonStructs.LockedTransfers",
        "members": [
          {
            "astId": 3968,
            "contract": "contracts/networks/BSC_BscBridge.sol:BSC_BscBridge",
            "label": "transfers",
            "offset": 0,
            "slot": "0",
            "type": "t_array(t_struct(Transfer)3954_storage)dyn_storage"
          },
          {
            "astId": 3970,
            "contract": "contracts/networks/BSC_BscBridge.sol:BSC_BscBridge",
            "label": "endTimestamp",
            "offset": 0,
            "slot": "1",
            "type": "t_uint256"
          }
        ],
        "numberOfBytes": "64"
      },
      "t_struct(RoleData)43_storage": {
        "encoding": "inplace",
        "label": "struct AccessControlUpgradeable.RoleData",
        "members": [
          {
            "astId": 40,
            "contract": "contracts/networks/BSC_BscBridge.sol:BSC_BscBridge",
            "label": "members",
            "offset": 0,
            "slot": "0",
            "type": "t_mapping(t_address,t_bool)"
          },
          {
            "astId": 42,
            "contract": "contracts/networks/BSC_BscBridge.sol:BSC_BscBridge",
            "label": "adminRole",
            "offset": 0,
            "slot": "1",
            "type": "t_bytes32"
          }
        ],
        "numberOfBytes": "64"
      },
      "t_struct(Transfer)3954_storage": {
        "encoding": "inplace",
        "label": "struct CommonStructs.Transfer",
        "members": [
          {
            "astId": 3949,
            "contract": "contracts/networks/BSC_BscBridge.sol:BSC_BscBridge",
            "label": "tokenAddress",
            "offset": 0,
            "slot": "0",
            "type": "t_address"
          },
          {
            "astId": 3951,
            "contract": "contracts/networks/BSC_BscBridge.sol:BSC_BscBridge",
            "label": "toAddress",
            "offset": 0,
            "slot": "1",
            "type": "t_address"
          },
          {
            "astId": 3953,
            "contract": "contracts/networks/BSC_BscBridge.sol:BSC_BscBridge",
            "label": "amount",
            "offset": 0,
            "slot": "2",
            "type": "t_uint256"
          }
        ],
        "numberOfBytes": "96"
      },
      "t_uint256": {
        "encoding": "inplace",
        "label": "uint256",
        "numberOfBytes": "32"
      }
    }
  }
}