{
  "address": "0x4F30e523254d5d609D17BFa610Be5A39bDA40166",
  "abi": [
    {
      "anonymous": false,
      "inputs": [
        {
          "indexed": false,
          "internalType": "address",
          "name": "account",
          "type": "address"
        }
      ],
      "name": "Paused",
      "type": "event"
    },
    {
      "anonymous": false,
      "inputs": [
        {
          "indexed": true,
          "internalType": "bytes32",
          "name": "role",
          "type": "bytes32"
        },
        {
          "indexed": true,
          "internalType": "bytes32",
          "name": "previousAdminRole",
          "type": "bytes32"
        },
        {
          "indexed": true,
          "internalType": "bytes32",
          "name": "newAdminRole",
          "type": "bytes32"
        }
      ],
      "name": "RoleAdminChanged",
      "type": "event"
    },
    {
      "anonymous": false,
      "inputs": [
        {
          "indexed": true,
          "internalType": "bytes32",
          "name": "role",
          "type": "bytes32"
        },
        {
          "indexed": true,
          "internalType": "address",
          "name": "account",
          "type": "address"
        },
        {
          "indexed": true,
          "internalType": "address",
          "name": "sender",
          "type": "address"
        }
      ],
      "name": "RoleGranted",
      "type": "event"
    },
    {
      "anonymous": false,
      "inputs": [
        {
          "indexed": true,
          "internalType": "bytes32",
          "name": "role",
          "type": "bytes32"
        },
        {
          "indexed": true,
          "internalType": "address",
          "name": "account",
          "type": "address"
        },
        {
          "indexed": true,
          "internalType": "address",
          "name": "sender",
          "type": "address"
        }
      ],
      "name": "RoleRevoked",
      "type": "event"
    },
    {
      "anonymous": false,
      "inputs": [
        {
          "indexed": true,
          "internalType": "uint256",
          "name": "eventId",
          "type": "uint256"
        },
        {
          "components": [
            {
              "internalType": "address",
              "name": "tokenAddress",
              "type": "address"
            },
            {
              "internalType": "address",
              "name": "toAddress",
              "type": "address"
            },
            {
              "internalType": "uint256",
              "name": "amount",
              "type": "uint256"
            }
          ],
          "indexed": false,
          "internalType": "struct CommonStructs.Transfer[]",
          "name": "queue",
          "type": "tuple[]"
        }
      ],
      "name": "Transfer",
      "type": "event"
    },
    {
      "anonymous": false,
      "inputs": [
        {
          "indexed": true,
          "internalType": "uint256",
          "name": "eventId",
          "type": "uint256"
        }
      ],
      "name": "TransferFinish",
      "type": "event"
    },
    {
      "anonymous": false,
      "inputs": [
        {
          "indexed": true,
          "internalType": "uint256",
          "name": "eventId",
          "type": "uint256"
        }
      ],
      "name": "TransferSubmit",
      "type": "event"
    },
    {
      "anonymous": false,
      "inputs": [
        {
          "indexed": false,
          "internalType": "address",
          "name": "account",
          "type": "address"
        }
      ],
      "name": "Unpaused",
      "type": "event"
    },
    {
      "anonymous": false,
      "inputs": [
        {
          "indexed": true,
          "internalType": "address",
          "name": "from",
          "type": "address"
        },
        {
          "indexed": false,
          "internalType": "uint256",
          "name": "eventId",
          "type": "uint256"
        },
        {
          "indexed": false,
          "internalType": "address",
          "name": "tokenFrom",
          "type": "address"
        },
        {
          "indexed": false,
          "internalType": "address",
          "name": "tokenTo",
          "type": "address"
        },
        {
          "indexed": false,
          "internalType": "uint256",
          "name": "amount",
          "type": "uint256"
        },
        {
          "indexed": false,
          "internalType": "uint256",
          "name": "transferFeeAmount",
          "type": "uint256"
        },
        {
          "indexed": false,
          "internalType": "uint256",
          "name": "bridgeFeeAmount",
          "type": "uint256"
        }
      ],
      "name": "Withdraw",
      "type": "event"
    },
    {
      "inputs": [],
      "name": "ADMIN_ROLE",
      "outputs": [
        {
          "internalType": "bytes32",
          "name": "",
          "type": "bytes32"
        }
      ],
      "stateMutability": "view",
      "type": "function"
    },
    {
      "inputs": [],
      "name": "DEFAULT_ADMIN_ROLE",
      "outputs": [
        {
          "internalType": "bytes32",
          "name": "",
          "type": "bytes32"
        }
      ],
      "stateMutability": "view",
      "type": "function"
    },
    {
      "inputs": [],
      "name": "FEE_PROVIDER_ROLE",
      "outputs": [
        {
          "internalType": "bytes32",
          "name": "",
          "type": "bytes32"
        }
      ],
      "stateMutability": "view",
      "type": "function"
    },
    {
      "inputs": [],
      "name": "RELAY_ROLE",
      "outputs": [
        {
          "internalType": "bytes32",
          "name": "",
          "type": "bytes32"
        }
      ],
      "stateMutability": "view",
      "type": "function"
    },
    {
      "inputs": [],
      "name": "WATCHDOG_ROLE",
      "outputs": [
        {
          "internalType": "bytes32",
          "name": "",
          "type": "bytes32"
        }
      ],
      "stateMutability": "view",
      "type": "function"
    },
    {
      "inputs": [],
      "name": "bridgeFeeRecipient",
      "outputs": [
        {
          "internalType": "address payable",
          "name": "",
          "type": "address"
        }
      ],
      "stateMutability": "view",
      "type": "function"
    },
    {
      "inputs": [
        {
          "internalType": "address payable",
          "name": "feeRecipient_",
          "type": "address"
        }
      ],
      "name": "changeBridgeFeeRecipient",
      "outputs": [],
      "stateMutability": "nonpayable",
      "type": "function"
    },
    {
      "inputs": [
        {
          "internalType": "uint256",
          "name": "lockTime_",
          "type": "uint256"
        }
      ],
      "name": "changeLockTime",
      "outputs": [],
      "stateMutability": "nonpayable",
      "type": "function"
    },
    {
      "inputs": [
        {
          "internalType": "uint256",
          "name": "minSafetyBlocks_",
          "type": "uint256"
        }
      ],
      "name": "changeMinSafetyBlocks",
      "outputs": [],
      "stateMutability": "nonpayable",
      "type": "function"
    },
    {
      "inputs": [
        {
          "internalType": "uint256",
          "name": "minSafetyBlocksValidators_",
          "type": "uint256"
        }
      ],
      "name": "changeMinSafetyBlocksValidators",
      "outputs": [],
      "stateMutability": "nonpayable",
      "type": "function"
    },
    {
      "inputs": [
        {
          "internalType": "uint256",
          "name": "signatureFeeCheckNumber_",
          "type": "uint256"
        }
      ],
      "name": "changeSignatureFeeCheckNumber",
      "outputs": [],
      "stateMutability": "nonpayable",
      "type": "function"
    },
    {
      "inputs": [
        {
          "internalType": "uint256",
          "name": "timeframeSeconds_",
          "type": "uint256"
        }
      ],
      "name": "changeTimeframeSeconds",
      "outputs": [],
      "stateMutability": "nonpayable",
      "type": "function"
    },
    {
      "inputs": [
        {
          "internalType": "address payable",
          "name": "feeRecipient_",
          "type": "address"
        }
      ],
      "name": "changeTransferFeeRecipient",
      "outputs": [],
      "stateMutability": "nonpayable",
      "type": "function"
    },
    {
      "inputs": [
        {
          "internalType": "uint256",
          "name": "eventId",
          "type": "uint256"
        }
      ],
      "name": "getLockedTransfers",
      "outputs": [
        {
          "components": [
            {
              "components": [
                {
                  "internalType": "address",
                  "name": "tokenAddress",
                  "type": "address"
                },
                {
                  "internalType": "address",
                  "name": "toAddress",
                  "type": "address"
                },
                {
                  "internalType": "uint256",
                  "name": "amount",
                  "type": "uint256"
                }
              ],
              "internalType": "struct CommonStructs.Transfer[]",
              "name": "transfers",
              "type": "tuple[]"
            },
            {
              "internalType": "uint256",
              "name": "endTimestamp",
              "type": "uint256"
            }
          ],
          "internalType": "struct CommonStructs.LockedTransfers",
          "name": "",
          "type": "tuple"
        }
      ],
      "stateMutability": "view",
      "type": "function"
    },
    {
      "inputs": [
        {
          "internalType": "bytes32",
          "name": "role",
          "type": "bytes32"
        }
      ],
      "name": "getRoleAdmin",
      "outputs": [
        {
          "internalType": "bytes32",
          "name": "",
          "type": "bytes32"
        }
      ],
      "stateMutability": "view",
      "type": "function"
    },
    {
      "inputs": [],
      "name": "getValidatorSet",
      "outputs": [
        {
          "internalType": "address[]",
          "name": "",
          "type": "address[]"
        }
      ],
      "stateMutability": "view",
      "type": "function"
    },
    {
      "inputs": [
        {
          "internalType": "bytes32",
          "name": "role",
          "type": "bytes32"
        },
        {
          "internalType": "address",
          "name": "account",
          "type": "address"
        }
      ],
      "name": "grantRole",
      "outputs": [],
      "stateMutability": "nonpayable",
      "type": "function"
    },
    {
      "inputs": [
        {
          "internalType": "bytes32",
          "name": "role",
          "type": "bytes32"
        },
        {
          "internalType": "address",
          "name": "account",
          "type": "address"
        }
      ],
      "name": "hasRole",
      "outputs": [
        {
          "internalType": "bool",
          "name": "",
          "type": "bool"
        }
      ],
      "stateMutability": "view",
      "type": "function"
    },
    {
      "inputs": [
        {
          "components": [
            {
              "internalType": "address",
              "name": "sideBridgeAddress",
              "type": "address"
            },
            {
              "internalType": "address",
              "name": "adminAddress",
              "type": "address"
            },
            {
              "internalType": "address",
              "name": "relayAddress",
              "type": "address"
            },
            {
              "internalType": "address",
              "name": "wrappingTokenAddress",
              "type": "address"
            },
            {
              "internalType": "address[]",
              "name": "tokenThisAddresses",
              "type": "address[]"
            },
            {
              "internalType": "address[]",
              "name": "tokenSideAddresses",
              "type": "address[]"
            },
            {
              "internalType": "address payable",
              "name": "transferFeeRecipient",
              "type": "address"
            },
            {
              "internalType": "address payable",
              "name": "bridgeFeeRecipient",
              "type": "address"
            },
            {
              "internalType": "uint256",
              "name": "timeframeSeconds",
              "type": "uint256"
            },
            {
              "internalType": "uint256",
              "name": "lockTime",
              "type": "uint256"
            },
            {
              "internalType": "uint256",
              "name": "minSafetyBlocks",
              "type": "uint256"
            }
          ],
          "internalType": "struct CommonStructs.ConstructorArgs",
          "name": "args",
          "type": "tuple"
        },
        {
          "internalType": "address[]",
          "name": "initialValidators",
          "type": "address[]"
        },
        {
          "internalType": "address",
          "name": "validatorSetAddress",
          "type": "address"
        },
        {
          "internalType": "bytes32",
          "name": "lastProcessedBlock",
          "type": "bytes32"
        },
        {
          "internalType": "uint256",
          "name": "minSafetyBlocksValidators",
          "type": "uint256"
        }
      ],
      "name": "initialize",
      "outputs": [],
      "stateMutability": "nonpayable",
      "type": "function"
    },
    {
      "inputs": [],
      "name": "inputEventId",
      "outputs": [
        {
          "internalType": "uint256",
          "name": "",
          "type": "uint256"
        }
      ],
      "stateMutability": "view",
      "type": "function"
    },
    {
      "inputs": [],
      "name": "isQueueEmpty",
      "outputs": [
        {
          "internalType": "bool",
          "name": "",
          "type": "bool"
        }
      ],
      "stateMutability": "view",
      "type": "function"
    },
    {
      "inputs": [],
      "name": "lastProcessedBlock",
      "outputs": [
        {
          "internalType": "bytes32",
          "name": "",
          "type": "bytes32"
        }
      ],
      "stateMutability": "view",
      "type": "function"
    },
    {
      "inputs": [],
      "name": "lastTimeframe",
      "outputs": [
        {
          "internalType": "uint256",
          "name": "",
          "type": "uint256"
        }
      ],
      "stateMutability": "view",
      "type": "function"
    },
    {
      "inputs": [],
      "name": "lockTime",
      "outputs": [
        {
          "internalType": "uint256",
          "name": "",
          "type": "uint256"
        }
      ],
      "stateMutability": "view",
      "type": "function"
    },
    {
      "inputs": [
        {
          "internalType": "uint256",
          "name": "",
          "type": "uint256"
        }
      ],
      "name": "lockedTransfers",
      "outputs": [
        {
          "internalType": "uint256",
          "name": "endTimestamp",
          "type": "uint256"
        }
      ],
      "stateMutability": "view",
      "type": "function"
    },
    {
      "inputs": [],
      "name": "minSafetyBlocks",
      "outputs": [
        {
          "internalType": "uint256",
          "name": "",
          "type": "uint256"
        }
      ],
      "stateMutability": "view",
      "type": "function"
    },
    {
      "inputs": [],
      "name": "minSafetyBlocksValidators",
      "outputs": [
        {
          "internalType": "uint256",
          "name": "",
          "type": "uint256"
        }
      ],
      "stateMutability": "view",
      "type": "function"
    },
    {
      "inputs": [],
      "name": "oldestLockedEventId",
      "outputs": [
        {
          "internalType": "uint256",
          "name": "",
          "type": "uint256"
        }
      ],
      "stateMutability": "view",
      "type": "function"
    },
    {
      "inputs": [],
      "name": "outputEventId",
      "outputs": [
        {
          "internalType": "uint256",
          "name": "",
          "type": "uint256"
        }
      ],
      "stateMutability": "view",
      "type": "function"
    },
    {
      "inputs": [],
      "name": "pause",
      "outputs": [],
      "stateMutability": "nonpayable",
      "type": "function"
    },
    {
      "inputs": [],
      "name": "paused",
      "outputs": [
        {
          "internalType": "bool",
          "name": "",
          "type": "bool"
        }
      ],
      "stateMutability": "view",
      "type": "function"
    },
    {
      "inputs": [
        {
          "internalType": "uint256",
          "name": "eventId",
          "type": "uint256"
        }
      ],
      "name": "removeLockedTransfers",
      "outputs": [],
      "stateMutability": "nonpayable",
      "type": "function"
    },
    {
      "inputs": [
        {
          "internalType": "bytes32",
          "name": "role",
          "type": "bytes32"
        },
        {
          "internalType": "address",
          "name": "account",
          "type": "address"
        }
      ],
      "name": "renounceRole",
      "outputs": [],
      "stateMutability": "nonpayable",
      "type": "function"
    },
    {
      "inputs": [
        {
          "internalType": "bytes32",
          "name": "role",
          "type": "bytes32"
        },
        {
          "internalType": "address",
          "name": "account",
          "type": "address"
        }
      ],
      "name": "revokeRole",
      "outputs": [],
      "stateMutability": "nonpayable",
      "type": "function"
    },
    {
      "inputs": [],
      "name": "sideBridgeAddress",
      "outputs": [
        {
          "internalType": "address",
          "name": "",
          "type": "address"
        }
      ],
      "stateMutability": "view",
      "type": "function"
    },
    {
      "inputs": [
        {
          "internalType": "uint256",
          "name": "eventId",
          "type": "uint256"
        }
      ],
      "name": "skipTransfers",
      "outputs": [],
      "stateMutability": "nonpayable",
      "type": "function"
    },
    {
      "inputs": [
        {
          "components": [
            {
              "components": [
                {
                  "internalType": "bytes3",
                  "name": "p0Seal",
                  "type": "bytes3"
                },
                {
                  "internalType": "bytes3",
                  "name": "p0Bare",
                  "type": "bytes3"
                },
                {
                  "internalType": "bytes32",
                  "name": "parentHash",
                  "type": "bytes32"
                },
                {
                  "internalType": "bytes",
                  "name": "p2",
                  "type": "bytes"
                },
                {
                  "internalType": "bytes32",
                  "name": "receiptHash",
                  "type": "bytes32"
                },
                {
                  "internalType": "bytes",
                  "name": "p3",
                  "type": "bytes"
                },
                {
                  "internalType": "bytes4",
                  "name": "step",
                  "type": "bytes4"
                },
                {
                  "internalType": "bytes",
                  "name": "signature",
                  "type": "bytes"
                },
                {
                  "internalType": "uint64",
                  "name": "finalizedVs",
                  "type": "uint64"
                }
              ],
              "internalType": "struct CheckAura.BlockAura[]",
              "name": "blocks",
              "type": "tuple[]"
            },
            {
              "components": [
                {
                  "internalType": "bytes[]",
                  "name": "receiptProof",
                  "type": "bytes[]"
                },
                {
                  "internalType": "uint256",
                  "name": "eventId",
                  "type": "uint256"
                },
                {
                  "components": [
                    {
                      "internalType": "address",
                      "name": "tokenAddress",
                      "type": "address"
                    },
                    {
                      "internalType": "address",
                      "name": "toAddress",
                      "type": "address"
                    },
                    {
                      "internalType": "uint256",
                      "name": "amount",
                      "type": "uint256"
                    }
                  ],
                  "internalType": "struct CommonStructs.Transfer[]",
                  "name": "transfers",
                  "type": "tuple[]"
                }
              ],
              "internalType": "struct CommonStructs.TransferProof",
              "name": "transfer",
              "type": "tuple"
            },
            {
              "components": [
                {
                  "internalType": "bytes[]",
                  "name": "receiptProof",
                  "type": "bytes[]"
                },
                {
                  "components": [
                    {
                      "internalType": "address",
                      "name": "deltaAddress",
                      "type": "address"
                    },
                    {
                      "internalType": "uint16",
                      "name": "deltaIndex",
                      "type": "uint16"
                    }
                  ],
                  "internalType": "struct CheckAura.ValidatorSetChange[]",
                  "name": "changes",
                  "type": "tuple[]"
                },
                {
                  "internalType": "uint64",
                  "name": "eventBlock",
                  "type": "uint64"
                }
              ],
              "internalType": "struct CheckAura.ValidatorSetProof[]",
              "name": "vsChanges",
              "type": "tuple[]"
            },
            {
              "internalType": "uint64",
              "name": "transferEventBlock",
              "type": "uint64"
            }
          ],
          "internalType": "struct CheckAura.AuraProof",
          "name": "auraProof",
          "type": "tuple"
        }
      ],
      "name": "submitTransferAura",
      "outputs": [],
      "stateMutability": "nonpayable",
      "type": "function"
    },
    {
      "inputs": [
        {
          "components": [
            {
              "components": [
                {
                  "internalType": "bytes3",
                  "name": "p0Seal",
                  "type": "bytes3"
                },
                {
                  "internalType": "bytes3",
                  "name": "p0Bare",
                  "type": "bytes3"
                },
                {
                  "internalType": "bytes32",
                  "name": "parentHash",
                  "type": "bytes32"
                },
                {
                  "internalType": "bytes",
                  "name": "p2",
                  "type": "bytes"
                },
                {
                  "internalType": "bytes32",
                  "name": "receiptHash",
                  "type": "bytes32"
                },
                {
                  "internalType": "bytes",
                  "name": "p3",
                  "type": "bytes"
                },
                {
                  "internalType": "bytes4",
                  "name": "step",
                  "type": "bytes4"
                },
                {
                  "internalType": "bytes",
                  "name": "signature",
                  "type": "bytes"
                },
                {
                  "internalType": "uint64",
                  "name": "finalizedVs",
                  "type": "uint64"
                }
              ],
              "internalType": "struct CheckAura.BlockAura[]",
              "name": "blocks",
              "type": "tuple[]"
            },
            {
              "components": [
                {
                  "internalType": "bytes[]",
                  "name": "receiptProof",
                  "type": "bytes[]"
                },
                {
                  "internalType": "uint256",
                  "name": "eventId",
                  "type": "uint256"
                },
                {
                  "components": [
                    {
                      "internalType": "address",
                      "name": "tokenAddress",
                      "type": "address"
                    },
                    {
                      "internalType": "address",
                      "name": "toAddress",
                      "type": "address"
                    },
                    {
                      "internalType": "uint256",
                      "name": "amount",
                      "type": "uint256"
                    }
                  ],
                  "internalType": "struct CommonStructs.Transfer[]",
                  "name": "transfers",
                  "type": "tuple[]"
                }
              ],
              "internalType": "struct CommonStructs.TransferProof",
              "name": "transfer",
              "type": "tuple"
            },
            {
              "components": [
                {
                  "internalType": "bytes[]",
                  "name": "receiptProof",
                  "type": "bytes[]"
                },
                {
                  "components": [
                    {
                      "internalType": "address",
                      "name": "deltaAddress",
                      "type": "address"
                    },
                    {
                      "internalType": "uint16",
                      "name": "deltaIndex",
                      "type": "uint16"
                    }
                  ],
                  "internalType": "struct CheckAura.ValidatorSetChange[]",
                  "name": "changes",
                  "type": "tuple[]"
                },
                {
                  "internalType": "uint64",
                  "name": "eventBlock",
                  "type": "uint64"
                }
              ],
              "internalType": "struct CheckAura.ValidatorSetProof[]",
              "name": "vsChanges",
              "type": "tuple[]"
            },
            {
              "internalType": "uint64",
              "name": "transferEventBlock",
              "type": "uint64"
            }
          ],
          "internalType": "struct CheckAura.AuraProof",
          "name": "auraProof",
          "type": "tuple"
        }
      ],
      "name": "submitValidatorSetChangesAura",
      "outputs": [],
      "stateMutability": "nonpayable",
      "type": "function"
    },
    {
      "inputs": [
        {
          "internalType": "bytes4",
          "name": "interfaceId",
          "type": "bytes4"
        }
      ],
      "name": "supportsInterface",
      "outputs": [
        {
          "internalType": "bool",
          "name": "",
          "type": "bool"
        }
      ],
      "stateMutability": "view",
      "type": "function"
    },
    {
      "inputs": [],
      "name": "timeframeSeconds",
      "outputs": [
        {
          "internalType": "uint256",
          "name": "",
          "type": "uint256"
        }
      ],
      "stateMutability": "view",
      "type": "function"
    },
    {
      "inputs": [
        {
          "internalType": "address",
          "name": "",
          "type": "address"
        }
      ],
      "name": "tokenAddresses",
      "outputs": [
        {
          "internalType": "address",
          "name": "",
          "type": "address"
        }
      ],
      "stateMutability": "view",
      "type": "function"
    },
    {
      "inputs": [
        {
          "internalType": "address",
          "name": "tokenThisAddress",
          "type": "address"
        },
        {
          "internalType": "address",
          "name": "tokenSideAddress",
          "type": "address"
        }
      ],
      "name": "tokensAdd",
      "outputs": [],
      "stateMutability": "nonpayable",
      "type": "function"
    },
    {
      "inputs": [
        {
          "internalType": "address[]",
          "name": "tokenThisAddresses",
          "type": "address[]"
        },
        {
          "internalType": "address[]",
          "name": "tokenSideAddresses",
          "type": "address[]"
        }
      ],
      "name": "tokensAddBatch",
      "outputs": [],
      "stateMutability": "nonpayable",
      "type": "function"
    },
    {
      "inputs": [
        {
          "internalType": "address",
          "name": "tokenThisAddress",
          "type": "address"
        }
      ],
      "name": "tokensRemove",
      "outputs": [],
      "stateMutability": "nonpayable",
      "type": "function"
    },
    {
      "inputs": [
        {
          "internalType": "address[]",
          "name": "tokenThisAddresses",
          "type": "address[]"
        }
      ],
      "name": "tokensRemoveBatch",
      "outputs": [],
      "stateMutability": "nonpayable",
      "type": "function"
    },
    {
      "inputs": [],
      "name": "transferFeeRecipient",
      "outputs": [
        {
          "internalType": "address payable",
          "name": "",
          "type": "address"
        }
      ],
      "stateMutability": "view",
      "type": "function"
    },
    {
      "inputs": [],
      "name": "triggerTransfers",
      "outputs": [],
      "stateMutability": "nonpayable",
      "type": "function"
    },
    {
      "inputs": [
        {
          "internalType": "uint256",
          "name": "eventId",
          "type": "uint256"
        }
      ],
      "name": "unlockTransfers",
      "outputs": [],
      "stateMutability": "nonpayable",
      "type": "function"
    },
    {
      "inputs": [],
      "name": "unlockTransfersBatch",
      "outputs": [],
      "stateMutability": "nonpayable",
      "type": "function"
    },
    {
      "inputs": [],
      "name": "unpause",
      "outputs": [],
      "stateMutability": "nonpayable",
      "type": "function"
    },
    {
      "inputs": [
        {
          "internalType": "uint256",
          "name": "",
          "type": "uint256"
        }
      ],
      "name": "validatorSet",
      "outputs": [
        {
          "internalType": "address",
          "name": "",
          "type": "address"
        }
      ],
      "stateMutability": "view",
      "type": "function"
    },
    {
      "inputs": [
        {
          "internalType": "address",
          "name": "tokenThisAddress",
          "type": "address"
        },
        {
          "internalType": "address",
          "name": "toAddress",
          "type": "address"
        },
        {
          "internalType": "uint256",
          "name": "amount",
          "type": "uint256"
        },
        {
          "internalType": "bool",
          "name": "unwrapSide",
          "type": "bool"
        },
        {
          "internalType": "bytes",
          "name": "feeSignature",
          "type": "bytes"
        },
        {
          "internalType": "uint256",
          "name": "transferFee",
          "type": "uint256"
        },
        {
          "internalType": "uint256",
          "name": "bridgeFee",
          "type": "uint256"
        }
      ],
      "name": "withdraw",
      "outputs": [],
      "stateMutability": "payable",
      "type": "function"
    },
    {
      "inputs": [
        {
          "internalType": "address",
          "name": "toAddress",
          "type": "address"
        },
        {
          "internalType": "bytes",
          "name": "feeSignature",
          "type": "bytes"
        },
        {
          "internalType": "uint256",
          "name": "transferFee",
          "type": "uint256"
        },
        {
          "internalType": "uint256",
          "name": "bridgeFee",
          "type": "uint256"
        }
      ],
      "name": "wrapWithdraw",
      "outputs": [],
      "stateMutability": "payable",
      "type": "function"
    },
    {
      "inputs": [],
      "name": "wrapperAddress",
      "outputs": [
        {
          "internalType": "address",
          "name": "",
          "type": "address"
        }
      ],
      "stateMutability": "view",
      "type": "function"
    },
    {
      "stateMutability": "payable",
      "type": "receive"
    }
  ],
  "transactionHash": "0xc3cba20d01609aff19286b4e2fc1b4db894ac510d15bec0bb1bf7dbf292ca91e",
  "args": [],
  "numDeployments": 1,
  "solcInputHash": "13963204c1e3ae6f33bd8024ced50cd9",
  "bytecode": "0x608060405234801561001057600080fd5b506149ef806100206000396000f3fe60806040526004361061033d5760003560e060020a900480638ac1f86f116101af578063baeebe75116100fb578063e64808f311610099578063f862b7eb11610073578063f862b7eb14610991578063f8ae31bf146109b1578063f8b74433146109c7578063fd5d2ef3146109da57600080fd5b8063e64808f314610931578063f33fe10f14610951578063f70055871461097157600080fd5b8063cf3317d3116100d5578063cf3317d314610890578063d3b89f49146108b0578063d547741f146108e4578063e31be0871461090457600080fd5b8063baeebe7514610838578063c4bcb13f1461084e578063cf3312501461086e57600080fd5b806396cf522711610168578063a9b1cf0b11610142578063a9b1cf0b14610798578063b6d3385e146107cc578063b87330e914610802578063ba8bbbe01461082257600080fd5b806396cf52271461074d57806399b5bb641461076d578063a217fddf1461078357600080fd5b80638ac1f86f146106af5780638e5df9c7146106c457806391c5bc0a146106e457806391d14854146106f7578063924473a614610717578063924cf6e01461073757600080fd5b8063390d5388116102895780636ff7c546116102275780637df8b802116102015780637df8b802146106445780638456cb5914610664578063853890ae1461067957806386d7679e1461069957600080fd5b80636ff7c546146105ed578063746b5c421461060d57806375b238fc1461062257600080fd5b806342180fb81161026357806342180fb8146105655780634a1856de146105855780635249a705146105b55780635c975abb146105d557600080fd5b8063390d5388146105105780633928b296146105305780633f4ba83a1461055057600080fd5b8063297c2677116102f6578063304561bb116102d0578063304561bb14610482578063331a891a146104ba57806333de61d2146104da57806336568abe146104f057600080fd5b8063297c2677146104365780632bbba8471461044c5780632f2ff15d1461046257600080fd5b806301ffc9a714610349578063044218231461037e57806309fce356146103ae5780630d668087146103d0578063169e7a99146103e6578063248a9ca31461040657600080fd5b3661034457005b600080fd5b34801561035557600080fd5b50610369610364366004613e3d565b6109fa565b60405190151581526020015b60405180910390f35b34801561038a57600080fd5b506103a060008051602061497a83398151915281565b604051908152602001610375565b3480156103ba57600080fd5b506103ce6103c9366004613d36565b610a63565b005b3480156103dc57600080fd5b506103a060d45481565b3480156103f257600080fd5b506103ce610401366004613ea2565b610a8f565b34801561041257600080fd5b506103a0610421366004613dff565b60009081526065602052604090206001015490565b34801561044257600080fd5b506103a060d65481565b34801561045857600080fd5b5060ca5415610369565b34801561046e57600080fd5b506103ce61047d366004613e18565b610b23565b34801561048e57600080fd5b5060cf546104a290600160a060020a031681565b604051600160a060020a039091168152602001610375565b3480156104c657600080fd5b506103ce6104d5366004613dff565b610b4e565b3480156104e657600080fd5b506103a060e95481565b3480156104fc57600080fd5b506103ce61050b366004613e18565b610c65565b34801561051c57600080fd5b5060d0546104a290600160a060020a031681565b34801561053c57600080fd5b506103ce61054b366004613ba3565b610cf0565b34801561055c57600080fd5b506103ce610d2c565b34801561057157600080fd5b506103ce610580366004613dff565b610d50565b34801561059157600080fd5b506103a06105a0366004613dff565b60cb6020526000908152604090206001015481565b3480156105c157600080fd5b506103ce6105d0366004613cf4565b610d8d565b3480156105e157600080fd5b5060975460ff16610369565b3480156105f957600080fd5b506103ce610608366004613dff565b610e16565b34801561061957600080fd5b506103ce610e35565b34801561062e57600080fd5b506103a060008051602061499a83398151915281565b34801561065057600080fd5b5060ce546104a290600160a060020a031681565b34801561067057600080fd5b506103ce610ee1565b34801561068557600080fd5b506103ce610694366004613bc0565b610f14565b3480156106a557600080fd5b506103a060d75481565b3480156106bb57600080fd5b506103ce610f5c565b3480156106d057600080fd5b506103ce6106df366004613ba3565b6110b4565b6103ce6106f2366004613c8d565b6110f5565b34801561070357600080fd5b50610369610712366004613e18565b61141c565b34801561072357600080fd5b506103ce610732366004613e67565b611447565b34801561074357600080fd5b506103a060d25481565b34801561075957600080fd5b506103ce610768366004613dff565b61152a565b34801561077957600080fd5b506103a060d55481565b34801561078f57600080fd5b506103a0600081565b3480156107a457600080fd5b506103a07fb7f2fcb7a10916921b74b9baa8ea85f89b12ab12f6ededa160998f8b20e65f9581565b3480156107d857600080fd5b506104a26107e7366004613ba3565b60cd60205260009081526040902054600160a060020a031681565b34801561080e57600080fd5b506103ce61081d366004613ba3565b611549565b34801561082e57600080fd5b506103a060cc5481565b34801561084457600080fd5b506103a060d35481565b34801561085a57600080fd5b506103ce610869366004613e67565b611585565b34801561087a57600080fd5b506108836115de565b6040516103759190614296565b34801561089c57600080fd5b506103ce6108ab366004613dff565b611640565b3480156108bc57600080fd5b506103a07f516d5e7ed3e60a6b2804c1554cd94bc2eb576e44b192a0e069d4c527589a887e81565b3480156108f057600080fd5b506103ce6108ff366004613e18565b6116b7565b34801561091057600080fd5b5061092461091f366004613dff565b6116dd565b6040516103759190614562565b34801561093d57600080fd5b506104a261094c366004613dff565b611799565b34801561095d57600080fd5b5060d1546104a290600160a060020a031681565b34801561097d57600080fd5b506103ce61098c366004613dff565b6117c3565b34801561099d57600080fd5b506103ce6109ac366004613dff565b6117e2565b3480156109bd57600080fd5b506103a060ea5481565b6103ce6109d5366004613bf9565b611a15565b3480156109e657600080fd5b506103ce6109f5366004613dff565b611e75565b6000600160e060020a031982167f7965db0b000000000000000000000000000000000000000000000000000000001480610a5d57507f01ffc9a700000000000000000000000000000000000000000000000000000000600160e060020a03198316145b92915050565b60008051602061499a833981519152610a7c8133611e94565b610a8885858585611efb565b5050505050565b600054610100900460ff1680610aa8575060005460ff16155b610ad05760405160e560020a62461bcd028152600401610ac7906144a8565b60405180910390fd5b600054610100900460ff16158015610af2576000805461ffff19166101011790555b610afb8761201c565b610b0886868686866121f8565b8015610b1a576000805461ff00191690555b50505050505050565b600082815260656020526040902060010154610b3f8133611e94565b610b498383612313565b505050565b60008051602061499a833981519152610b678133611e94565b60975460ff16610b8c5760405160e560020a62461bcd028152600401610ac79061443a565b60cc54821015610bb15760405160e560020a62461bcd028152600401610ac790614505565b60d554821115610c065760405160e560020a62461bcd02815260206004820152601f60248201527f6576656e744964206d757374206265203c3d20696e7075744576656e744964006044820152606401610ac7565b610c116001836147a7565b60d5555b600082815260cb602052604090206001015415610c6157600082815260cb6020526040812090610c458282613a4a565b5060006001919091015581610c598161484b565b925050610c15565b5050565b600160a060020a0381163314610ce65760405160e560020a62461bcd02815260206004820152602f60248201527f416363657373436f6e74726f6c3a2063616e206f6e6c792072656e6f756e636560448201527f20726f6c657320666f722073656c6600000000000000000000000000000000006064820152608401610ac7565b610c618282612399565b60008051602061499a833981519152610d098133611e94565b5060d08054600160a060020a031916600160a060020a0392909216919091179055565b60008051602061499a833981519152610d458133611e94565b610d4d612400565b50565b60008051602061499a833981519152610d698133611e94565b8160d35460d754610d7a9190614765565b610d849190614751565b60d7555060d355565b60008051602061499a833981519152610da68133611e94565b8160005b81811015610a885760cd6000868684818110610dc857610dc86148c5565b9050602002016020810190610ddd9190613ba3565b600160a060020a0316815260208101919091526040016000208054600160a060020a031916905580610e0e8161484b565b915050610daa565b60008051602061499a833981519152610e2f8133611e94565b5060ea55565b60ca54610e875760405160e560020a62461bcd02815260206004820152600e60248201527f517565756520697320656d7074790000000000000000000000000000000000006044820152606401610ac7565b60d68054906000610e978361484b565b919050557fe15729a2f427aa4572dab35eb692c902fcbce57d41642013259c741380809ae260ca604051610ecb9190614397565b60405180910390a2610edf60ca6000613a4a565b565b7fb7f2fcb7a10916921b74b9baa8ea85f89b12ab12f6ededa160998f8b20e65f95610f0c8133611e94565b610d4d61246f565b60008051602061499a833981519152610f2d8133611e94565b50600160a060020a03918216600090815260cd602052604090208054600160a060020a03191691909216179055565b60975460ff1615610f825760405160e560020a62461bcd028152600401610ac790614471565b60cc545b600081815260cb60209081526040808320815181546060948102820185018452928101838152909391928492849190879085015b8282101561101457600084815260209081902060408051606081018252600386029092018054600160a060020a03908116845260018083015490911684860152600290910154918301919091529083529092019101610fba565b505050508152602001600182015481525050905080602001516000148061103e5750428160200151115b15611049575060cc55565b8051611054906124ca565b600082815260cb602052604081209061106d8282613a4a565b50600060019190910181905560405183917f78ff9b3176bb0d6421590f3816e75cb15a9ffa2b7a1a028f40a3f4e029eb39f291a250806110ac8161484b565b915050610f86565b60008051602061499a8339815191526110cd8133611e94565b50600160a060020a0316600090815260cd602052604090208054600160a060020a0319169055565b60ce54600160a060020a03908116600090815260cd602052604090205416806111635760405160e560020a62461bcd02815260206004820152601560248201527f556e6b6e6f776e20746f6b656e206164647265737300000000000000000000006044820152606401610ac7565b61116d8284614739565b34116111be5760405160e560020a62461bcd02815260206004820152601160248201527f53656e742076616c7565203c3d206665650000000000000000000000000000006044820152606401610ac7565b6000826111cb85346147a7565b6111d591906147a7565b60ce549091506111f290600160a060020a0316878787878661275e565b60cf54604051600160a060020a039091169085156108fc029086906000818181858888f1935050505015801561122c573d6000803e3d6000fd5b5060d054604051600160a060020a039091169084156108fc029085906000818181858888f19350505050158015611267573d6000803e3d6000fd5b5060ce60009054906101000a9004600160a060020a0316600160a060020a031663d0e30db0826040518263ffffffff1660e060020a0281526004016000604051808303818588803b1580156112bb57600080fd5b505af11580156112cf573d6000803e3d6000fd5b505060408051606081018252600160a060020a0380881682528c81166020830190815282840188815260ca80546001810182556000918252945160039095027f42d72674974f694b5f5159593243114d38a5c39c89d6b62fee061ff523240ee181018054968616600160a060020a031997881617905592517f42d72674974f694b5f5159593243114d38a5c39c89d6b62fee061ff523240ee2840180549190951695169490941790925590517f42d72674974f694b5f5159593243114d38a5c39c89d6b62fee061ff523240ee39091015560d65491513395507f3b823d3b837159352faddd1e0b9e9f584ca2bfe976238f6a9e6da4615cf2f444945061140c9350879087908b908b90958652600160a060020a0394851660208701529290931660408501526060840152608083019190915260a082015260c00190565b60405180910390a2610b1a612904565b6000918252606560209081526040808420600160a060020a0393909316845291905290205460ff1690565b60008051602061497a8339815191526114608133611e94565b60975460ff16156114865760405160e560020a62461bcd028152600401610ac790614471565b6114936020830183614723565b602001357f196c47048e38df7a4fe6e581c8f4f2e2ba67ac0dd45b90da756e97bd61d9dd3b60405160405180910390a26114dc6114d36020840184614723565b6020013561297c565b60d25460d1546114f6918491600160a060020a03166129e1565b610c616115066020840184614723565b611514906040810190614629565b6115216020860186614723565b60200135612f4c565b60008051602061499a8339815191526115438133611e94565b5060d455565b60008051602061499a8339815191526115628133611e94565b5060cf8054600160a060020a031916600160a060020a0392909216919091179055565b60008051602061497a83398151915261159e8133611e94565b60975460ff16156115c45760405160e560020a62461bcd028152600401610ac790614471565b60d25460d154610c61918491600160a060020a03166129e1565b606060e780548060200260200160405190810160405280929190818152602001828054801561163657602002820191906000526020600020905b8154600160a060020a03168152600190910190602001808311611618575b5050505050905090565b60008051602061499a8339815191526116598133611e94565b60975460ff1661167e5760405160e560020a62461bcd028152600401610ac79061443a565b60cc548210156116a35760405160e560020a62461bcd028152600401610ac790614505565b6116ae6001836147a7565b60d5555060cc55565b6000828152606560205260409020600101546116d38133611e94565b610b498383612399565b604080518082019091526060815260006020820152600082815260cb60209081526040808320815181546060948102820185018452928101838152909491938593919285929185015b8282101561178057600084815260209081902060408051606081018252600386029092018054600160a060020a03908116845260018083015490911684860152600290910154918301919091529083529092019101611726565b5050505081526020016001820154815250509050919050565b60e781815481106117a957600080fd5b600091825260209091200154600160a060020a0316905081565b60008051602061499a8339815191526117dc8133611e94565b5060c955565b60975460ff16156118085760405160e560020a62461bcd028152600401610ac790614471565b60cc54811461185c5760405160e560020a62461bcd02815260206004820152601c60248201527f63616e20756e6c6f636b206f6e6c79206f6c64657374206576656e74000000006044820152606401610ac7565b600081815260cb60209081526040808320815181546060948102820185018452928101838152909391928492849190879085015b828210156118ea57600084815260209081902060408051606081018252600386029092018054600160a060020a03908116845260018083015490911684860152600290910154918301919091529083529092019101611890565b505050508152602001600182015481525050905060008160200151116119555760405160e560020a62461bcd02815260206004820181905260248201527f6e6f206c6f636b6564207472616e7366657273207769746820746869732069646044820152606401610ac7565b428160200151106119ab5760405160e560020a62461bcd02815260206004820152601b60248201527f6c6f636b54696d6520686173206e6f74207965742070617373656400000000006044820152606401610ac7565b80516119b6906124ca565b600082815260cb60205260408120906119cf8282613a4a565b50600060019190910181905560405183917f78ff9b3176bb0d6421590f3816e75cb15a9ffa2b7a1a028f40a3f4e029eb39f291a2611a0e826001614739565b60cc555050565b60008515611aaa576000805260cd6020527fcd565b10a72538d86f6d352f37ebc5dff31587960b12c0afe00fd03947a6932a54600160a060020a038a8116911614611aa55760405160e560020a62461bcd02815260206004820152601f60248201527f546f6b656e206e6f7420706f696e7420746f206e617469766520746f6b656e006044820152606401610ac7565b611b16565b50600160a060020a03808916600090815260cd60205260409020541680611b165760405160e560020a62461bcd02815260206004820152601560248201527f556e6b6e6f776e20746f6b656e206164647265737300000000000000000000006044820152606401610ac7565b611b208284614739565b3414611b715760405160e560020a62461bcd02815260206004820152601160248201527f53656e742076616c756520213d206665650000000000000000000000000000006044820152606401610ac7565b60008711611bc45760405160e560020a62461bcd02815260206004820152601160248201527f43616e6e6f7420776974686472617720300000000000000000000000000000006044820152606401610ac7565b611bd289868686868c61275e565b60cf54604051600160a060020a039091169084156108fc029085906000818181858888f19350505050158015611c0c573d6000803e3d6000fd5b5060d054604051600160a060020a039091169083156108fc029084906000818181858888f19350505050158015611c47573d6000803e3d6000fd5b506040517f23b872dd00000000000000000000000000000000000000000000000000000000815233600482015230602482015260448101889052600160a060020a038a16906323b872dd90606401602060405180830381600087803b158015611caf57600080fd5b505af1158015611cc3573d6000803e3d6000fd5b505050506040513d601f19601f82011682018060405250810190611ce79190613da2565b611d365760405160e560020a62461bcd02815260206004820152601360248201527f4661696c207472616e7366657220636f696e73000000000000000000000000006044820152606401610ac7565b6040805160608082018352600160a060020a038481168084528c821660208086019182528587018e815260ca8054600181018255600091909152965160039097027f42d72674974f694b5f5159593243114d38a5c39c89d6b62fee061ff523240ee181018054988716600160a060020a0319998a1617905592517f42d72674974f694b5f5159593243114d38a5c39c89d6b62fee061ff523240ee284018054918716919098161790965594517f42d72674974f694b5f5159593243114d38a5c39c89d6b62fee061ff523240ee39091015560d6548551908152918e16938201939093529283019190915281018890526080810184905260a0810183905233907f3b823d3b837159352faddd1e0b9e9f584ca2bfe976238f6a9e6da4615cf2f4449060c00160405180910390a2611e6a612904565b505050505050505050565b60008051602061499a833981519152611e8e8133611e94565b5060d255565b611e9e828261141c565b610c6157611eb681600160a060020a03166014612fe0565b611ec1836020612fe0565b604051602001611ed2929190614215565b60408051601f198184030181529082905260e560020a62461bcd028252610ac791600401614407565b828114611f735760405160e560020a62461bcd02815260206004820152603f60248201527f73697a6573206f6620746f6b656e5468697341646472657373657320616e642060448201527f746f6b656e53696465416464726573736573206d7573742062652073616d65006064820152608401610ac7565b8260005b8181101561201457838382818110611f9157611f916148c5565b9050602002016020810190611fa69190613ba3565b60cd6000888885818110611fbc57611fbc6148c5565b9050602002016020810190611fd19190613ba3565b600160a060020a03908116825260208201929092526040016000208054600160a060020a031916929091169190911790558061200c8161484b565b915050611f77565b505050505050565b600054610100900460ff1680612035575060005460ff16155b6120545760405160e560020a62461bcd028152600401610ac7906144a8565b600054610100900460ff16158015612076576000805461ffff19166101011790555b6120816000336131cd565b6120a860008051602061497a8339815191526120a36060850160408601613ba3565b6131cd565b6120ca60008051602061499a8339815191526120a36040850160208601613ba3565b6120ec6120da60808401846145e0565b6120e760a08601866145e0565b611efb565b6120fc6080830160608401613ba3565b60ce8054600160a060020a031916600160a060020a03929092169190911790556121296020830183613ba3565b60d18054600160a060020a031916600160a060020a039290921691909117905561215960e0830160c08401613ba3565b60cf8054600160a060020a031916600160a060020a039290921691909117905561218a610100830160e08401613ba3565b60d08054600160a060020a031916600160a060020a039290921691909117905561014082013560d25561010082013560d381905561012083013560d455600160cc81905560d655600360c9556121e09042614751565b60d7558015610c61576000805461ff00191690555050565b600054610100900460ff1680612211575060005460ff16155b6122305760405160e560020a62461bcd028152600401610ac7906144a8565b600054610100900460ff16158015612252576000805461ffff19166101011790555b846122c85760405160e560020a62461bcd02815260206004820152603260248201527f4c656e677468206f66205f696e697469616c56616c696461746f7273206d757360448201527f7420626520626967676572207468616e203000000000000000000000000000006064820152608401610ac7565b6122d460e78787613a6b565b5060e88054600160a060020a031916600160a060020a03861617905560e983905560ea8290558015612014576000805461ff0019169055505050505050565b61231d828261141c565b610c61576000828152606560209081526040808320600160a060020a03851684529091529020805460ff191660011790556123553390565b600160a060020a031681600160a060020a0316837f2f8788117e7eff1d82e926ec794901d17c78024a50270940304540a733656f0d60405160405180910390a45050565b6123a3828261141c565b15610c61576000828152606560209081526040808320600160a060020a0385168085529252808320805460ff1916905551339285917ff6391f5c32d9c69d2a47ea670b442974b53935d1edc7fd64eb21e047a839171b9190a45050565b60975460ff166124255760405160e560020a62461bcd028152600401610ac79061443a565b6097805460ff191690557f5db9ee0a495bf2e6ff9c91a7834c1ba4fdd244a5e8aa4e537bd38aeae4b073aa335b604051600160a060020a03909116815260200160405180910390a1565b60975460ff16156124955760405160e560020a62461bcd028152600401610ac790614471565b6097805460ff191660011790557f62e78cea01bee320cd4e420270b5ea74000d11b0c9f74754ebdbfc544b05a2586124523390565b60005b8151811015610c61576000600160a060020a03168282815181106124f3576124f36148c5565b602002602001015160000151600160a060020a0316141561260f5760ce548251600160a060020a0390911690632e1a7d4d90849084908110612537576125376148c5565b6020026020010151604001516040518263ffffffff1660e060020a02815260040161256491815260200190565b600060405180830381600087803b15801561257e57600080fd5b505af1158015612592573d6000803e3d6000fd5b505050508181815181106125a8576125a86148c5565b602002602001015160200151600160a060020a03166108fc8383815181106125d2576125d26148c5565b6020026020010151604001519081150290604051600060405180830381858888f19350505050158015612609573d6000803e3d6000fd5b5061274c565b818181518110612621576126216148c5565b602002602001015160000151600160a060020a031663a9059cbb83838151811061264d5761264d6148c5565b60200260200101516020015184848151811061266b5761266b6148c5565b6020026020010151604001516040518363ffffffff1660e060020a0281526004016126ab929190600160a060020a03929092168252602082015260400190565b602060405180830381600087803b1580156126c557600080fd5b505af11580156126d9573d6000803e3d6000fd5b505050506040513d601f19601f820116820180604052508101906126fd9190613da2565b61274c5760405160e560020a62461bcd02815260206004820152601360248201527f4661696c207472616e7366657220636f696e73000000000000000000000000006044820152606401610ac7565b806127568161484b565b9150506124cd565b6000808061276e61070842614751565b905060005b60c9548110156128b8576040516c01000000000000000000000000600160a060020a038c160260208201526034810183905260548101889052607481018790526094810186905260b40160408051601f198184030181529082905280516020918201207f19457468657265756d205369676e6564204d6573736167653a0a33320000000091830191909152603c820152605c0160405160208183030381529060405280519060200120935061285e848a8a8080601f0160208091040260200160405190810160405280939291908181526020018383808284376000920191909152506131d792505050565b925061288a7f516d5e7ed3e60a6b2804c1554cd94bc2eb576e44b192a0e069d4c527589a887e8461141c565b156128985750505050612014565b816128a281614834565b92505080806128b09061484b565b915050612773565b5060405160e560020a62461bcd02815260206004820152601660248201527f5369676e617475726520636865636b206661696c6564000000000000000000006044820152606401610ac7565b600060d354426129149190614751565b905060d7548114610d4d5760d6805490600061292f8361484b565b919050557fe15729a2f427aa4572dab35eb692c902fcbce57d41642013259c741380809ae260ca6040516129639190614397565b60405180910390a261297760ca6000613a4a565b60d755565b60d56000815461298b9061484b565b91829055508114610d4d5760405160e560020a62461bcd02815260206004820152601460248201527f4576656e744964206f7574206f66206f726465720000000000000000000000006044820152606401610ac7565b6000806129f16020860186614723565b6020013515612b2d57612a10612a0a6020870187614723565b84613262565b905080612a1d86806145e0565b612a2d6080890160608a01613f5d565b67ffffffffffffffff16818110612a4657612a466148c5565b9050602002810190612a589190614702565b6080013514612aac5760405160e560020a62461bcd02815260206004820181905260248201527f5472616e73666572206576656e742076616c69646174696f6e206661696c65646044820152606401610ac7565b83612abd6080870160608801613f5d565b67ffffffffffffffff16612ad187806145e0565b612adc9291506147a7565b1015612b2d5760405160e560020a62461bcd02815260206004820152601860248201527f4e6f7420656e6f7567682073616665747920626c6f636b7300000000000000006044820152606401610ac7565b60005b612b3a86806145e0565b9050811015612e985736612b4e87806145e0565b83818110612b5e57612b5e6148c5565b9050602002810190612b709190614702565b905083816040013514612c7357612b8d6080880160608901613f5d565b67ffffffffffffffff16821180612c2357508115801590612bc75750612bbb61012082016101008301613f5d565b67ffffffffffffffff16155b8015612c235750612bd887806145e0565b612be36001856147a7565b818110612bf257612bf26148c5565b9050602002810190612c049190614702565b612c179061012081019061010001613f5d565b67ffffffffffffffff16155b15612c735760405160e560020a62461bcd02815260206004820152601160248201527f57726f6e6720706172656e7420686173680000000000000000000000000000006044820152606401610ac7565b612c7c816133a6565b9350612c9061012082016101008301613f5d565b67ffffffffffffffff1615612e855736612cad60408901896145e0565b6001612cc161012086016101008701613f5d565b612ccb91906147be565b67ffffffffffffffff16818110612ce457612ce46148c5565b9050602002810190612cf69190614723565b905060005b612d086020830183614672565b9050811015612d4e57612d3c612d216020840184614672565b83818110612d3157612d316148c5565b9050604002016134c2565b80612d468161484b565b915050612cfb565b50612d6f612d5c82806145e0565b60e854600160a060020a031660e76135f7565b935083612d7c89806145e0565b612d8c6060850160408601613f5d565b67ffffffffffffffff16818110612da557612da56148c5565b9050602002810190612db79190614702565b6080013514612e0b5760405160e560020a62461bcd02815260206004820152601560248201527f57726f6e672056532072656365697074206861736800000000000000000000006044820152606401610ac7565b60ea54612e1e6060830160408401613f5d565b612e329067ffffffffffffffff16856147a7565b1015612e835760405160e560020a62461bcd02815260206004820152601c60248201527f4665772073616665747920626c6f636b732076616c696461746f7273000000006044820152606401610ac7565b505b5080612e908161484b565b915050612b30565b506000612ea860408701876145e0565b90501115610a8857612eba85806145e0565b612ec760408801886145e0565b6001612ed660408b018b6145e0565b612ee19291506147a7565b818110612ef057612ef06148c5565b9050602002810190612f029190614723565b612f13906060810190604001613f5d565b67ffffffffffffffff16818110612f2c57612f2c6148c5565b9050602002810190612f3e9190614702565b6040013560e9555050505050565b60d454612f599042614739565b600082815260cb60205260408120600101919091555b82811015612fda57600082815260cb60205260409020848483818110612f9757612f976148c5565b835460018101855560009485526020909420606090910292909201926003029091019050612fc582826148f7565b50508080612fd29061484b565b915050612f6f565b50505050565b60606000612fef836002614765565b612ffa906002614739565b67ffffffffffffffff811115613012576130126148de565b6040519080825280601f01601f19166020018201604052801561303c576020820181803683370190505b5090507f300000000000000000000000000000000000000000000000000000000000000081600081518110613073576130736148c5565b6020010190600160f860020a031916908160001a9053507f7800000000000000000000000000000000000000000000000000000000000000816001815181106130be576130be6148c5565b6020010190600160f860020a031916908160001a90535060006130e2846002614765565b6130ed906001614739565b90505b6001811115613174577f303132333435363738396162636465660000000000000000000000000000000085600f166010811061312e5761312e6148c5565b1a60f860020a02828281518110613147576131476148c5565b6020010190600160f860020a031916908160001a90535060109094049361316d81614834565b90506130f0565b5083156131c65760405160e560020a62461bcd02815260206004820181905260248201527f537472696e67733a20686578206c656e67746820696e73756666696369656e746044820152606401610ac7565b9392505050565b610c618282612313565b6020810151604082015160608301516000929190831a601b8110156131fa57601b015b60408051600081526020810180835288905260ff831691810191909152606081018490526080810183905260019060a0016020604051602081039080840390855afa15801561324d573d6000803e3d6000fd5b5050604051601f190151979650505050505050565b60008061326f84806145e0565b6000818110613280576132806148c5565b905060200281019061329291906146bb565b8461329d87806145e0565b60018181106132ae576132ae6148c5565b90506020028101906132c091906146bb565b6132cd89602001356136d0565b6132d78a806145e0565b60028181106132e8576132e86148c5565b90506020028101906132fa91906146bb565b61330760408d018d614629565b604051602001613318929190614327565b60408051601f198184030181529190526133328d806145e0565b6003818110613343576133436148c5565b905060200281019061335591906146bb565b60405160200161336f9b9a99989796959493929190614153565b60408051601f198184030181529190528051602090910120905061339e61339685806145e0565b836004613838565b949350505050565b60008060006133b4846138fc565b60e780549294509092506000916133e46133d460e0890160c08a01613e3d565b60e060020a900463ffffffff1690565b6133ee9190614866565b815481106133fe576133fe6148c5565b600091825260209091200154600160a060020a03169050806134618461342760e08901896146bb565b8080601f0160208091040260200160405190810160405280939291908181526020018383808284376000920191909152506131d792505050565b600160a060020a0316146134ba5760405160e560020a62461bcd02815260206004820152601560248201527f4661696c656420746f20766572696679207369676e00000000000000000000006044820152606401610ac7565b509392505050565b6134d26040820160208301613f39565b61ffff1661351e5760e76134e96020830183613ba3565b8154600181018355600092835260209092209091018054600160a060020a031916600160a060020a0390921691909117905550565b600060016135326040840160208501613f39565b61353c9190614784565b61ffff16905060e7600160e78054905061355691906147a7565b81548110613566576135666148c5565b60009182526020909120015460e78054600160a060020a039092169183908110613592576135926148c5565b9060005260206000200160006101000a815481600160a060020a030219169083600160a060020a0316021790555060e78054806135d1576135d16148ac565b60008281526020902081016000199081018054600160a060020a03191690550190555050565b6000808585600081811061360d5761360d6148c5565b905060200281019061361f91906146bb565b8588886001818110613633576136336148c5565b905060200281019061364591906146bb565b8760405160200161365691906142e3565b6040516020818303038152906040528b8b6002818110613678576136786148c5565b905060200281019061368a91906146bb565b6040516020016136a19897969594939291906140e4565b6040516020818303038152906040528051906020012090506136c68686836003613838565b9695505050505050565b6040805160208082528183019092526060916000919060208201818036833701905050905082602082015260005b602081101561376757818181518110613719576137196148c5565b60209101015160f860020a90819004027fff00000000000000000000000000000000000000000000000000000000000000161561375557613767565b8061375f8161484b565b9150506136fe565b60006137748260206147a7565b67ffffffffffffffff81111561378c5761378c6148de565b6040519080825280601f01601f1916602001820160405280156137b6576020820181803683370190505b50905060005b815181101561382f5783836137d08161484b565b9450815181106137e2576137e26148c5565b602001015160f860020a900460f860020a02828281518110613806576138066148c5565b6020010190600160f860020a031916908160001a905350806138278161484b565b9150506137bc565b50949350505050565b60006060825b858110156138f157868682818110613858576138586148c5565b905060200281019061386a91906146bb565b868989613878866001614739565b818110613887576138876148c5565b905060200281019061389991906146bb565b6040516020016138ad9594939291906141ec565b604051602081830303815290604052915060208251116138d5576138d0826147df565b6138dd565b815160208301205b94506138ea600282614739565b905061383e565b509295945050505050565b600080807fa000000000000000000000000000000000000000000000000000000000000000604085013561393360608701876146bb565b608088013561394560a08a018a6146bb565b60405160200161395b9796959493929190613f87565b60408051601f1981840301815291815290915061397d90850160208601613dbf565b8160405160200161398f929190613fe4565b60408051601f198184030181529190528051602091820120906139b490860186613dbf565b827f84000000000000000000000000000000000000000000000000000000000000006139e660e0890160c08a01613e3d565b7fb841000000000000000000000000000000000000000000000000000000000000613a1460e08b018b6146bb565b604051602001613a2a979695949392919061402a565b604051602081830303815290604052805190602001209250925050915091565b5080546000825560030290600052602060002090810190610d4d9190613ace565b828054828255906000526020600020908101928215613abe579160200282015b82811115613abe578154600160a060020a031916600160a060020a03843516178255602090920191600190910190613a8b565b50613aca929150613b01565b5090565b5b80821115613aca578054600160a060020a03199081168255600182018054909116905560006002820155600301613acf565b5b80821115613aca5760008155600101613b02565b60008083601f840112613b2857600080fd5b50813567ffffffffffffffff811115613b4057600080fd5b6020830191508360208083028501011115613b5a57600080fd5b9250929050565b60008083601f840112613b7357600080fd5b50813567ffffffffffffffff811115613b8b57600080fd5b602083019150836020828501011115613b5a57600080fd5b600060208284031215613bb557600080fd5b81356131c681614956565b60008060408385031215613bd357600080fd5b8235613bde81614956565b91506020830135613bee81614956565b809150509250929050565b60008060008060008060008060e0898b031215613c1557600080fd5b8835613c2081614956565b97506020890135613c3081614956565b9650604089013595506060890135613c478161496b565b9450608089013567ffffffffffffffff811115613c6357600080fd5b613c6f8b828c01613b61565b999c989b5096999598969760a08701359660c0013595509350505050565b600080600080600060808688031215613ca557600080fd5b8535613cb081614956565b9450602086013567ffffffffffffffff811115613ccc57600080fd5b613cd888828901613b61565b9699909850959660408101359660609091013595509350505050565b60008060208385031215613d0757600080fd5b823567ffffffffffffffff811115613d1e57600080fd5b613d2a85828601613b16565b90969095509350505050565b60008060008060408587031215613d4c57600080fd5b843567ffffffffffffffff80821115613d6457600080fd5b613d7088838901613b16565b90965094506020870135915080821115613d8957600080fd5b50613d9687828801613b16565b95989497509550505050565b600060208284031215613db457600080fd5b81516131c68161496b565b600060208284031215613dd157600080fd5b81357cffffffffffffffffffffffffffffffffffffffffffffffffffffffffff19811681146131c657600080fd5b600060208284031215613e1157600080fd5b5035919050565b60008060408385031215613e2b57600080fd5b823591506020830135613bee81614956565b600060208284031215613e4f57600080fd5b8135600160e060020a0319811681146131c657600080fd5b600060208284031215613e7957600080fd5b813567ffffffffffffffff811115613e9057600080fd5b8201608081850312156131c657600080fd5b60008060008060008060a08789031215613ebb57600080fd5b863567ffffffffffffffff80821115613ed357600080fd5b90880190610160828b031215613ee857600080fd5b90965060208801359080821115613efe57600080fd5b50613f0b89828a01613b16565b9096509450506040870135613f1f81614956565b959894975092956060810135946080909101359350915050565b600060208284031215613f4b57600080fd5b813561ffff811681146131c657600080fd5b600060208284031215613f6f57600080fd5b813567ffffffffffffffff811681146131c657600080fd5b7fff0000000000000000000000000000000000000000000000000000000000000088168152866001820152848660218301378481016021810185905260009083856041830137600093016041019283525090979650505050505050565b7cffffffffffffffffffffffffffffffffffffffffffffffffffffffffff19831681526000825161401c816003850160208701614808565b919091016003019392505050565b7cffffffffffffffffffffffffffffffffffffffffffffffffffffffffff198816815260008751614062816003850160208c01614808565b7fff000000000000000000000000000000000000000000000000000000000000008816600391840191820152600160e060020a0319871660048201527fffff000000000000000000000000000000000000000000000000000000000000861660088201528385600a83013760009301600a019283525090979650505050505050565b87898237600160a060020a0387166c01000000000000000000000000028189019081526000908688601483013786810190506014810160008152865161412e818360208b01614808565b9190910190508385601483013760009301601401928352509098975050505050505050565b8a8c8237600160a060020a038a166c0100000000000000000000000002818c0190815260009060148a8c828401378a82019150808201600081528a5161419d818360208f01614808565b92909201915087898284013787820191508082016000815287516141c5818360208c01614808565b9290920191508486828401376000949091010192835250909b9a5050505050505050505050565b848682378085018481526000908385602083013760009301602001928352509095945050505050565b7f416363657373436f6e74726f6c3a206163636f756e742000000000000000000081526000835161424d816017850160208801614808565b7f206973206d697373696e6720726f6c6520000000000000000000000000000000601791840191820152835161428a816028840160208801614808565b01602801949350505050565b6020808252825182820181905260009190848201906040850190845b818110156142d7578351600160a060020a0316835292840192918401916001016142b2565b50909695505050505050565b6020808252825482820181905260008481528281209092916040850190845b818110156142d7578354600160a060020a031683526001938401939285019201614302565b6020808252818101839052600090604080840186845b8781101561438a57813561435081614956565b600160a060020a039081168452828601359061436b82614956565b168386015281840135848401526060928301929091019060010161433d565b5090979650505050505050565b60006020808301818452808554808352604092508286019150866000528360002060005b828110156143fa578154600160a060020a03908116855260018084015490911687860152600283015486860152606090940193600390920191016143bb565b5091979650505050505050565b6020815260008251806020840152614426816040850160208701614808565b601f01601f19169190910160400192915050565b60208082526014908201527f5061757361626c653a206e6f7420706175736564000000000000000000000000604082015260600190565b60208082526010908201527f5061757361626c653a2070617573656400000000000000000000000000000000604082015260600190565b6020808252602e908201527f496e697469616c697a61626c653a20636f6e747261637420697320616c72656160408201527f647920696e697469616c697a6564000000000000000000000000000000000000606082015260800190565b60208082526026908201527f6576656e744964206d757374206265203e3d206f6c646573744c6f636b65644560408201527f76656e7449640000000000000000000000000000000000000000000000000000606082015260800190565b6000602080835260608084018551604080858801528282518085526080890191508684019450600093505b808410156145ca5784518051600160a060020a0390811684528882015116888401528301518383015293860193600193909301929085019061458d565b5094909701519590960194909452509392505050565b6000808335601e198436030181126145f757600080fd5b83018035915067ffffffffffffffff82111561461257600080fd5b6020908101925081023603821315613b5a57600080fd5b6000808335601e1984360301811261464057600080fd5b83018035915067ffffffffffffffff82111561465b57600080fd5b6020019150606081023603821315613b5a57600080fd5b6000808335601e1984360301811261468957600080fd5b83018035915067ffffffffffffffff8211156146a457600080fd5b6020019150604081023603821315613b5a57600080fd5b6000808335601e198436030181126146d257600080fd5b83018035915067ffffffffffffffff8211156146ed57600080fd5b602001915036819003821315613b5a57600080fd5b6000823561011e1983360301811261471957600080fd5b9190910192915050565b60008235605e1983360301811261471957600080fd5b6000821982111561474c5761474c61487a565b500190565b60008261476057614760614893565b500490565b600081600019048311821515161561477f5761477f61487a565b500290565b600061ffff8381169083168181101561479f5761479f61487a565b039392505050565b6000828210156147b9576147b961487a565b500390565b600067ffffffffffffffff8381169083168181101561479f5761479f61487a565b80516020808301519190811015614802578060200360080260020a600003821691505b50919050565b60005b8381101561482357818101518382015260200161480b565b83811115612fda5750506000910152565b6000816148435761484361487a565b506000190190565b600060001982141561485f5761485f61487a565b5060010190565b60008261487557614875614893565b500690565b60e060020a634e487b7102600052601160045260246000fd5b60e060020a634e487b7102600052601260045260246000fd5b60e060020a634e487b7102600052603160045260246000fd5b60e060020a634e487b7102600052603260045260246000fd5b60e060020a634e487b7102600052604160045260246000fd5b813561490281614956565b8154600160a060020a031916600160a060020a03821617825550602082013561492a81614956565b600182018054600160a060020a031916600160a060020a03831617905550604082013560028201555050565b600160a060020a0381168114610d4d57600080fd5b8015158114610d4d57600080fdfe077a1d526a4ce8a773632ab13b4fbbf1fcc954c3dab26cd27ea0e2a6750da5d7a49807205ce4d355092ef5a8a18f56e8913cf4a201fbe287825b095693c21775a2646970667358221220e9f1aaaa121e7393bc1c0e4e93864d61c7ec901af406bfd6710375fa478efbe564736f6c63430008060033",
  "devdoc": {
    "kind": "dev",
    "methods": {
      "getRoleAdmin(bytes32)": {
        "details": "Returns the admin role that controls `role`. See {grantRole} and {revokeRole}. To change a role's admin, use {_setRoleAdmin}."
      },
      "grantRole(bytes32,address)": {
        "details": "Grants `role` to `account`. If `account` had not been already granted `role`, emits a {RoleGranted} event. Requirements: - the caller must have ``role``'s admin role."
      },
      "hasRole(bytes32,address)": {
        "details": "Returns `true` if `account` has been granted `role`."
      },
      "paused()": {
        "details": "Returns true if the contract is paused, and false otherwise."
      },
      "renounceRole(bytes32,address)": {
        "details": "Revokes `role` from the calling account. Roles are often managed via {grantRole} and {revokeRole}: this function's purpose is to provide a mechanism for accounts to lose their privileges if they are compromised (such as when a trusted device is misplaced). If the calling account had been granted `role`, emits a {RoleRevoked} event. Requirements: - the caller must be `account`."
      },
      "revokeRole(bytes32,address)": {
        "details": "Revokes `role` from `account`. If `account` had been granted `role`, emits a {RoleRevoked} event. Requirements: - the caller must have ``role``'s admin role."
      },
      "supportsInterface(bytes4)": {
        "details": "See {IERC165-supportsInterface}."
      },
      "withdraw(address,address,uint256,bool,bytes,uint256,uint256)": {
        "params": {
          "bridgeFee": "Amount (in native coins), payed as bridge earnings",
          "feeSignature": "Signature signed by relay that confirms that the fee values are valid",
          "transferFee": "Amount (in native coins), payed to compensate gas fees in side network"
        }
      },
      "wrapWithdraw(address,bytes,uint256,uint256)": {
        "params": {
          "bridgeFee": "Amount (in native coins), payed as bridge earnings",
          "feeSignature": "Signature signed by relay that confirms that the fee values are valid",
          "toAddress": "Address in side network that will receive the tokens",
          "transferFee": "Amount (in native coins), payed to compensate gas fees in side network"
        }
      }
    },
    "version": 1
  },
  "userdoc": {
    "kind": "user",
    "methods": {},
    "version": 1
  },
  "storageLayout": {
    "storage": [
      {
        "astId": 413,
        "contract": "contracts/networks/BSC_BscBridge.sol:BSC_BscBridge",
        "label": "_initialized",
        "offset": 0,
        "slot": "0",
        "type": "t_bool"
      },
      {
        "astId": 416,
        "contract": "contracts/networks/BSC_BscBridge.sol:BSC_BscBridge",
        "label": "_initializing",
        "offset": 1,
        "slot": "0",
        "type": "t_bool"
      },
      {
        "astId": 609,
        "contract": "contracts/networks/BSC_BscBridge.sol:BSC_BscBridge",
        "label": "__gap",
        "offset": 0,
        "slot": "1",
        "type": "t_array(t_uint256)50_storage"
      },
      {
        "astId": 858,
        "contract": "contracts/networks/BSC_BscBridge.sol:BSC_BscBridge",
        "label": "__gap",
        "offset": 0,
        "slot": "51",
        "type": "t_array(t_uint256)50_storage"
      },
      {
        "astId": 48,
        "contract": "contracts/networks/BSC_BscBridge.sol:BSC_BscBridge",
        "label": "_roles",
        "offset": 0,
        "slot": "101",
        "type": "t_mapping(t_bytes32,t_struct(RoleData)43_storage)"
      },
      {
        "astId": 333,
        "contract": "contracts/networks/BSC_BscBridge.sol:BSC_BscBridge",
        "label": "__gap",
        "offset": 0,
        "slot": "102",
        "type": "t_array(t_uint256)49_storage"
      },
      {
        "astId": 474,
        "contract": "contracts/networks/BSC_BscBridge.sol:BSC_BscBridge",
        "label": "_paused",
        "offset": 0,
        "slot": "151",
        "type": "t_bool"
      },
      {
        "astId": 565,
        "contract": "contracts/networks/BSC_BscBridge.sol:BSC_BscBridge",
        "label": "__gap",
        "offset": 0,
        "slot": "152",
        "type": "t_array(t_uint256)49_storage"
      },
      {
        "astId": 6726,
        "contract": "contracts/networks/BSC_BscBridge.sol:BSC_BscBridge",
        "label": "signatureFeeCheckNumber",
        "offset": 0,
        "slot": "201",
        "type": "t_uint256"
      },
      {
        "astId": 6730,
        "contract": "contracts/networks/BSC_BscBridge.sol:BSC_BscBridge",
        "label": "queue",
        "offset": 0,
        "slot": "202",
        "type": "t_array(t_struct(Transfer)7843_storage)dyn_storage"
      },
      {
        "astId": 6735,
        "contract": "contracts/networks/BSC_BscBridge.sol:BSC_BscBridge",
        "label": "lockedTransfers",
        "offset": 0,
        "slot": "203",
        "type": "t_mapping(t_uint256,t_struct(LockedTransfers)7860_storage)"
      },
      {
        "astId": 6737,
        "contract": "contracts/networks/BSC_BscBridge.sol:BSC_BscBridge",
        "label": "oldestLockedEventId",
        "offset": 0,
        "slot": "204",
        "type": "t_uint256"
      },
      {
        "astId": 6741,
        "contract": "contracts/networks/BSC_BscBridge.sol:BSC_BscBridge",
        "label": "tokenAddresses",
        "offset": 0,
        "slot": "205",
        "type": "t_mapping(t_address,t_address)"
      },
      {
        "astId": 6743,
        "contract": "contracts/networks/BSC_BscBridge.sol:BSC_BscBridge",
        "label": "wrapperAddress",
        "offset": 0,
        "slot": "206",
        "type": "t_address"
      },
      {
        "astId": 6745,
        "contract": "contracts/networks/BSC_BscBridge.sol:BSC_BscBridge",
        "label": "transferFeeRecipient",
        "offset": 0,
        "slot": "207",
        "type": "t_address_payable"
      },
      {
        "astId": 6747,
        "contract": "contracts/networks/BSC_BscBridge.sol:BSC_BscBridge",
        "label": "bridgeFeeRecipient",
        "offset": 0,
        "slot": "208",
        "type": "t_address_payable"
      },
      {
        "astId": 6749,
        "contract": "contracts/networks/BSC_BscBridge.sol:BSC_BscBridge",
        "label": "sideBridgeAddress",
        "offset": 0,
        "slot": "209",
        "type": "t_address"
      },
      {
        "astId": 6751,
        "contract": "contracts/networks/BSC_BscBridge.sol:BSC_BscBridge",
        "label": "minSafetyBlocks",
        "offset": 0,
        "slot": "210",
        "type": "t_uint256"
      },
      {
        "astId": 6753,
        "contract": "contracts/networks/BSC_BscBridge.sol:BSC_BscBridge",
        "label": "timeframeSeconds",
        "offset": 0,
        "slot": "211",
        "type": "t_uint256"
      },
      {
        "astId": 6755,
        "contract": "contracts/networks/BSC_BscBridge.sol:BSC_BscBridge",
        "label": "lockTime",
        "offset": 0,
        "slot": "212",
        "type": "t_uint256"
      },
      {
        "astId": 6757,
        "contract": "contracts/networks/BSC_BscBridge.sol:BSC_BscBridge",
        "label": "inputEventId",
        "offset": 0,
        "slot": "213",
        "type": "t_uint256"
      },
      {
        "astId": 6759,
        "contract": "contracts/networks/BSC_BscBridge.sol:BSC_BscBridge",
        "label": "outputEventId",
        "offset": 0,
        "slot": "214",
        "type": "t_uint256"
      },
      {
        "astId": 6761,
        "contract": "contracts/networks/BSC_BscBridge.sol:BSC_BscBridge",
        "label": "lastTimeframe",
        "offset": 0,
        "slot": "215",
        "type": "t_uint256"
      },
      {
        "astId": 7833,
        "contract": "contracts/networks/BSC_BscBridge.sol:BSC_BscBridge",
        "label": "__gap",
        "offset": 0,
        "slot": "216",
        "type": "t_array(t_uint256)15_storage"
      },
      {
        "astId": 1665,
        "contract": "contracts/networks/BSC_BscBridge.sol:BSC_BscBridge",
        "label": "validatorSet",
        "offset": 0,
        "slot": "231",
        "type": "t_array(t_address)dyn_storage"
      },
      {
        "astId": 1667,
        "contract": "contracts/networks/BSC_BscBridge.sol:BSC_BscBridge",
        "label": "validatorSetAddress",
        "offset": 0,
        "slot": "232",
        "type": "t_address"
      },
      {
        "astId": 1669,
        "contract": "contracts/networks/BSC_BscBridge.sol:BSC_BscBridge",
        "label": "lastProcessedBlock",
        "offset": 0,
        "slot": "233",
        "type": "t_bytes32"
      },
      {
        "astId": 1671,
        "contract": "contracts/networks/BSC_BscBridge.sol:BSC_BscBridge",
        "label": "minSafetyBlocksValidators",
        "offset": 0,
        "slot": "234",
        "type": "t_uint256"
      },
      {
        "astId": 2178,
        "contract": "contracts/networks/BSC_BscBridge.sol:BSC_BscBridge",
        "label": "___gap",
        "offset": 0,
        "slot": "235",
        "type": "t_array(t_uint256)15_storage"
      }
    ],
    "types": {
      "t_address": {
        "encoding": "inplace",
        "label": "address",
        "numberOfBytes": "20"
      },
      "t_address_payable": {
        "encoding": "inplace",
        "label": "address payable",
        "numberOfBytes": "20"
      },
      "t_array(t_address)dyn_storage": {
        "base": "t_address",
        "encoding": "dynamic_array",
        "label": "address[]",
        "numberOfBytes": "32"
      },
      "t_array(t_struct(Transfer)7843_storage)dyn_storage": {
        "base": "t_struct(Transfer)7843_storage",
        "encoding": "dynamic_array",
        "label": "struct CommonStructs.Transfer[]",
        "numberOfBytes": "32"
      },
      "t_array(t_uint256)15_storage": {
        "base": "t_uint256",
        "encoding": "inplace",
        "label": "uint256[15]",
        "numberOfBytes": "480"
      },
      "t_array(t_uint256)49_storage": {
        "base": "t_uint256",
        "encoding": "inplace",
        "label": "uint256[49]",
        "numberOfBytes": "1568"
      },
      "t_array(t_uint256)50_storage": {
        "base": "t_uint256",
        "encoding": "inplace",
        "label": "uint256[50]",
        "numberOfBytes": "1600"
      },
      "t_bool": {
        "encoding": "inplace",
        "label": "bool",
        "numberOfBytes": "1"
      },
      "t_bytes32": {
        "encoding": "inplace",
        "label": "bytes32",
        "numberOfBytes": "32"
      },
      "t_mapping(t_address,t_address)": {
        "encoding": "mapping",
        "key": "t_address",
        "label": "mapping(address => address)",
        "numberOfBytes": "32",
        "value": "t_address"
      },
      "t_mapping(t_address,t_bool)": {
        "encoding": "mapping",
        "key": "t_address",
        "label": "mapping(address => bool)",
        "numberOfBytes": "32",
        "value": "t_bool"
      },
      "t_mapping(t_bytes32,t_struct(RoleData)43_storage)": {
        "encoding": "mapping",
        "key": "t_bytes32",
        "label": "mapping(bytes32 => struct AccessControlUpgradeable.RoleData)",
        "numberOfBytes": "32",
        "value": "t_struct(RoleData)43_storage"
      },
      "t_mapping(t_uint256,t_struct(LockedTransfers)7860_storage)": {
        "encoding": "mapping",
        "key": "t_uint256",
        "label": "mapping(uint256 => struct CommonStructs.LockedTransfers)",
        "numberOfBytes": "32",
        "value": "t_struct(LockedTransfers)7860_storage"
      },
      "t_struct(LockedTransfers)7860_storage": {
        "encoding": "inplace",
        "label": "struct CommonStructs.LockedTransfers",
        "members": [
          {
            "astId": 7857,
            "contract": "contracts/networks/BSC_BscBridge.sol:BSC_BscBridge",
            "label": "transfers",
            "offset": 0,
            "slot": "0",
            "type": "t_array(t_struct(Transfer)7843_storage)dyn_storage"
          },
          {
            "astId": 7859,
            "contract": "contracts/networks/BSC_BscBridge.sol:BSC_BscBridge",
            "label": "endTimestamp",
            "offset": 0,
            "slot": "1",
            "type": "t_uint256"
          }
        ],
        "numberOfBytes": "64"
      },
      "t_struct(RoleData)43_storage": {
        "encoding": "inplace",
        "label": "struct AccessControlUpgradeable.RoleData",
        "members": [
          {
            "astId": 40,
            "contract": "contracts/networks/BSC_BscBridge.sol:BSC_BscBridge",
            "label": "members",
            "offset": 0,
            "slot": "0",
            "type": "t_mapping(t_address,t_bool)"
          },
          {
            "astId": 42,
            "contract": "contracts/networks/BSC_BscBridge.sol:BSC_BscBridge",
            "label": "adminRole",
            "offset": 0,
            "slot": "1",
            "type": "t_bytes32"
          }
        ],
        "numberOfBytes": "64"
      },
      "t_struct(Transfer)7843_storage": {
        "encoding": "inplace",
        "label": "struct CommonStructs.Transfer",
        "members": [
          {
            "astId": 7838,
            "contract": "contracts/networks/BSC_BscBridge.sol:BSC_BscBridge",
            "label": "tokenAddress",
            "offset": 0,
            "slot": "0",
            "type": "t_address"
          },
          {
            "astId": 7840,
            "contract": "contracts/networks/BSC_BscBridge.sol:BSC_BscBridge",
            "label": "toAddress",
            "offset": 0,
            "slot": "1",
            "type": "t_address"
          },
          {
            "astId": 7842,
            "contract": "contracts/networks/BSC_BscBridge.sol:BSC_BscBridge",
            "label": "amount",
            "offset": 0,
            "slot": "2",
            "type": "t_uint256"
          }
        ],
        "numberOfBytes": "96"
      },
      "t_uint256": {
        "encoding": "inplace",
        "label": "uint256",
        "numberOfBytes": "32"
      }
    }
  }
}