{
  "address": "0xD3A7E420Aa128Cb6AcFDd998258Ea938E50Ae600",
  "abi": [
    {
      "anonymous": false,
      "inputs": [
        {
          "indexed": false,
          "internalType": "address",
          "name": "account",
          "type": "address"
        }
      ],
      "name": "Paused",
      "type": "event"
    },
    {
      "anonymous": false,
      "inputs": [
        {
          "indexed": true,
          "internalType": "bytes32",
          "name": "role",
          "type": "bytes32"
        },
        {
          "indexed": true,
          "internalType": "bytes32",
          "name": "previousAdminRole",
          "type": "bytes32"
        },
        {
          "indexed": true,
          "internalType": "bytes32",
          "name": "newAdminRole",
          "type": "bytes32"
        }
      ],
      "name": "RoleAdminChanged",
      "type": "event"
    },
    {
      "anonymous": false,
      "inputs": [
        {
          "indexed": true,
          "internalType": "bytes32",
          "name": "role",
          "type": "bytes32"
        },
        {
          "indexed": true,
          "internalType": "address",
          "name": "account",
          "type": "address"
        },
        {
          "indexed": true,
          "internalType": "address",
          "name": "sender",
          "type": "address"
        }
      ],
      "name": "RoleGranted",
      "type": "event"
    },
    {
      "anonymous": false,
      "inputs": [
        {
          "indexed": true,
          "internalType": "bytes32",
          "name": "role",
          "type": "bytes32"
        },
        {
          "indexed": true,
          "internalType": "address",
          "name": "account",
          "type": "address"
        },
        {
          "indexed": true,
          "internalType": "address",
          "name": "sender",
          "type": "address"
        }
      ],
      "name": "RoleRevoked",
      "type": "event"
    },
    {
      "anonymous": false,
      "inputs": [
        {
          "indexed": true,
          "internalType": "uint256",
          "name": "eventId",
          "type": "uint256"
        },
        {
          "components": [
            {
              "internalType": "address",
              "name": "tokenAddress",
              "type": "address"
            },
            {
              "internalType": "address",
              "name": "toAddress",
              "type": "address"
            },
            {
              "internalType": "uint256",
              "name": "amount",
              "type": "uint256"
            }
          ],
          "indexed": false,
          "internalType": "struct CommonStructs.Transfer[]",
          "name": "queue",
          "type": "tuple[]"
        }
      ],
      "name": "Transfer",
      "type": "event"
    },
    {
      "anonymous": false,
      "inputs": [
        {
          "indexed": true,
          "internalType": "uint256",
          "name": "eventId",
          "type": "uint256"
        }
      ],
      "name": "TransferFinish",
      "type": "event"
    },
    {
      "anonymous": false,
      "inputs": [
        {
          "indexed": true,
          "internalType": "uint256",
          "name": "eventId",
          "type": "uint256"
        }
      ],
      "name": "TransferSubmit",
      "type": "event"
    },
    {
      "anonymous": false,
      "inputs": [
        {
          "indexed": false,
          "internalType": "address",
          "name": "account",
          "type": "address"
        }
      ],
      "name": "Unpaused",
      "type": "event"
    },
    {
      "anonymous": false,
      "inputs": [
        {
          "indexed": true,
          "internalType": "address",
          "name": "from",
          "type": "address"
        },
        {
          "indexed": false,
          "internalType": "uint256",
          "name": "eventId",
          "type": "uint256"
        },
        {
          "indexed": false,
          "internalType": "address",
          "name": "tokenFrom",
          "type": "address"
        },
        {
          "indexed": false,
          "internalType": "address",
          "name": "tokenTo",
          "type": "address"
        },
        {
          "indexed": false,
          "internalType": "uint256",
          "name": "amount",
          "type": "uint256"
        },
        {
          "indexed": false,
          "internalType": "uint256",
          "name": "transferFeeAmount",
          "type": "uint256"
        },
        {
          "indexed": false,
          "internalType": "uint256",
          "name": "bridgeFeeAmount",
          "type": "uint256"
        }
      ],
      "name": "Withdraw",
      "type": "event"
    },
    {
      "inputs": [],
      "name": "ADMIN_ROLE",
      "outputs": [
        {
          "internalType": "bytes32",
          "name": "",
          "type": "bytes32"
        }
      ],
      "stateMutability": "view",
      "type": "function"
    },
    {
      "inputs": [],
      "name": "DEFAULT_ADMIN_ROLE",
      "outputs": [
        {
          "internalType": "bytes32",
          "name": "",
          "type": "bytes32"
        }
      ],
      "stateMutability": "view",
      "type": "function"
    },
    {
      "inputs": [],
      "name": "RELAY_ROLE",
      "outputs": [
        {
          "internalType": "bytes32",
          "name": "",
          "type": "bytes32"
        }
      ],
      "stateMutability": "view",
      "type": "function"
    },
    {
      "inputs": [],
      "name": "bridgeFeeRecipient",
      "outputs": [
        {
          "internalType": "address payable",
          "name": "",
          "type": "address"
        }
      ],
      "stateMutability": "view",
      "type": "function"
    },
    {
      "inputs": [
        {
          "internalType": "address payable",
          "name": "feeRecipient_",
          "type": "address"
        }
      ],
      "name": "changeBridgeFeeRecipient",
      "outputs": [],
      "stateMutability": "nonpayable",
      "type": "function"
    },
    {
      "inputs": [
        {
          "internalType": "uint256",
          "name": "lockTime_",
          "type": "uint256"
        }
      ],
      "name": "changeLockTime",
      "outputs": [],
      "stateMutability": "nonpayable",
      "type": "function"
    },
    {
      "inputs": [
        {
          "internalType": "uint256",
          "name": "minSafetyBlocks_",
          "type": "uint256"
        }
      ],
      "name": "changeMinSafetyBlocks",
      "outputs": [],
      "stateMutability": "nonpayable",
      "type": "function"
    },
    {
      "inputs": [
        {
          "internalType": "uint256",
          "name": "minSafetyBlocksValidators_",
          "type": "uint256"
        }
      ],
      "name": "changeMinSafetyBlocksValidators",
      "outputs": [],
      "stateMutability": "nonpayable",
      "type": "function"
    },
    {
      "inputs": [
        {
          "internalType": "uint256",
          "name": "signatureFeeCheckNumber_",
          "type": "uint256"
        }
      ],
      "name": "changeSignatureFeeCheckNumber",
      "outputs": [],
      "stateMutability": "nonpayable",
      "type": "function"
    },
    {
      "inputs": [
        {
          "internalType": "uint256",
          "name": "timeframeSeconds_",
          "type": "uint256"
        }
      ],
      "name": "changeTimeframeSeconds",
      "outputs": [],
      "stateMutability": "nonpayable",
      "type": "function"
    },
    {
      "inputs": [
        {
          "internalType": "address payable",
          "name": "feeRecipient_",
          "type": "address"
        }
      ],
      "name": "changeTransferFeeRecipient",
      "outputs": [],
      "stateMutability": "nonpayable",
      "type": "function"
    },
    {
      "inputs": [
        {
          "internalType": "uint256",
          "name": "eventId",
          "type": "uint256"
        }
      ],
      "name": "getLockedTransfers",
      "outputs": [
        {
          "components": [
            {
              "components": [
                {
                  "internalType": "address",
                  "name": "tokenAddress",
                  "type": "address"
                },
                {
                  "internalType": "address",
                  "name": "toAddress",
                  "type": "address"
                },
                {
                  "internalType": "uint256",
                  "name": "amount",
                  "type": "uint256"
                }
              ],
              "internalType": "struct CommonStructs.Transfer[]",
              "name": "transfers",
              "type": "tuple[]"
            },
            {
              "internalType": "uint256",
              "name": "endTimestamp",
              "type": "uint256"
            }
          ],
          "internalType": "struct CommonStructs.LockedTransfers",
          "name": "",
          "type": "tuple"
        }
      ],
      "stateMutability": "view",
      "type": "function"
    },
    {
      "inputs": [
        {
          "internalType": "bytes32",
          "name": "role",
          "type": "bytes32"
        }
      ],
      "name": "getRoleAdmin",
      "outputs": [
        {
          "internalType": "bytes32",
          "name": "",
          "type": "bytes32"
        }
      ],
      "stateMutability": "view",
      "type": "function"
    },
    {
      "inputs": [],
      "name": "getValidatorSet",
      "outputs": [
        {
          "internalType": "address[]",
          "name": "",
          "type": "address[]"
        }
      ],
      "stateMutability": "view",
      "type": "function"
    },
    {
      "inputs": [
        {
          "internalType": "bytes32",
          "name": "role",
          "type": "bytes32"
        },
        {
          "internalType": "address",
          "name": "account",
          "type": "address"
        }
      ],
      "name": "grantRole",
      "outputs": [],
      "stateMutability": "nonpayable",
      "type": "function"
    },
    {
      "inputs": [
        {
          "internalType": "bytes32",
          "name": "role",
          "type": "bytes32"
        },
        {
          "internalType": "address",
          "name": "account",
          "type": "address"
        }
      ],
      "name": "hasRole",
      "outputs": [
        {
          "internalType": "bool",
          "name": "",
          "type": "bool"
        }
      ],
      "stateMutability": "view",
      "type": "function"
    },
    {
      "inputs": [
        {
          "components": [
            {
              "internalType": "address",
              "name": "sideBridgeAddress",
              "type": "address"
            },
            {
              "internalType": "address",
              "name": "adminAddress",
              "type": "address"
            },
            {
              "internalType": "address",
              "name": "relayAddress",
              "type": "address"
            },
            {
              "internalType": "address",
              "name": "wrappingTokenAddress",
              "type": "address"
            },
            {
              "internalType": "address[]",
              "name": "tokenThisAddresses",
              "type": "address[]"
            },
            {
              "internalType": "address[]",
              "name": "tokenSideAddresses",
              "type": "address[]"
            },
            {
              "internalType": "address payable",
              "name": "transferFeeRecipient",
              "type": "address"
            },
            {
              "internalType": "address payable",
              "name": "bridgeFeeRecipient",
              "type": "address"
            },
            {
              "internalType": "uint256",
              "name": "timeframeSeconds",
              "type": "uint256"
            },
            {
              "internalType": "uint256",
              "name": "lockTime",
              "type": "uint256"
            },
            {
              "internalType": "uint256",
              "name": "minSafetyBlocks",
              "type": "uint256"
            }
          ],
          "internalType": "struct CommonStructs.ConstructorArgs",
          "name": "args",
          "type": "tuple"
        },
        {
          "internalType": "address[]",
          "name": "initialValidators",
          "type": "address[]"
        },
        {
          "internalType": "address",
          "name": "validatorSetAddress",
          "type": "address"
        },
        {
          "internalType": "bytes32",
          "name": "lastProcessedBlock",
          "type": "bytes32"
        },
        {
          "internalType": "uint256",
          "name": "minSafetyBlocksValidators",
          "type": "uint256"
        }
      ],
      "name": "initialize",
      "outputs": [],
      "stateMutability": "nonpayable",
      "type": "function"
    },
    {
      "inputs": [],
      "name": "inputEventId",
      "outputs": [
        {
          "internalType": "uint256",
          "name": "",
          "type": "uint256"
        }
      ],
      "stateMutability": "view",
      "type": "function"
    },
    {
      "inputs": [],
      "name": "isQueueEmpty",
      "outputs": [
        {
          "internalType": "bool",
          "name": "",
          "type": "bool"
        }
      ],
      "stateMutability": "view",
      "type": "function"
    },
    {
      "inputs": [],
      "name": "lastProcessedBlock",
      "outputs": [
        {
          "internalType": "bytes32",
          "name": "",
          "type": "bytes32"
        }
      ],
      "stateMutability": "view",
      "type": "function"
    },
    {
      "inputs": [],
      "name": "lastTimeframe",
      "outputs": [
        {
          "internalType": "uint256",
          "name": "",
          "type": "uint256"
        }
      ],
      "stateMutability": "view",
      "type": "function"
    },
    {
      "inputs": [],
      "name": "lockTime",
      "outputs": [
        {
          "internalType": "uint256",
          "name": "",
          "type": "uint256"
        }
      ],
      "stateMutability": "view",
      "type": "function"
    },
    {
      "inputs": [
        {
          "internalType": "uint256",
          "name": "",
          "type": "uint256"
        }
      ],
      "name": "lockedTransfers",
      "outputs": [
        {
          "internalType": "uint256",
          "name": "endTimestamp",
          "type": "uint256"
        }
      ],
      "stateMutability": "view",
      "type": "function"
    },
    {
      "inputs": [],
      "name": "minSafetyBlocks",
      "outputs": [
        {
          "internalType": "uint256",
          "name": "",
          "type": "uint256"
        }
      ],
      "stateMutability": "view",
      "type": "function"
    },
    {
      "inputs": [],
      "name": "minSafetyBlocksValidators",
      "outputs": [
        {
          "internalType": "uint256",
          "name": "",
          "type": "uint256"
        }
      ],
      "stateMutability": "view",
      "type": "function"
    },
    {
      "inputs": [],
      "name": "oldestLockedEventId",
      "outputs": [
        {
          "internalType": "uint256",
          "name": "",
          "type": "uint256"
        }
      ],
      "stateMutability": "view",
      "type": "function"
    },
    {
      "inputs": [],
      "name": "outputEventId",
      "outputs": [
        {
          "internalType": "uint256",
          "name": "",
          "type": "uint256"
        }
      ],
      "stateMutability": "view",
      "type": "function"
    },
    {
      "inputs": [],
      "name": "pause",
      "outputs": [],
      "stateMutability": "nonpayable",
      "type": "function"
    },
    {
      "inputs": [],
      "name": "paused",
      "outputs": [
        {
          "internalType": "bool",
          "name": "",
          "type": "bool"
        }
      ],
      "stateMutability": "view",
      "type": "function"
    },
    {
      "inputs": [
        {
          "internalType": "uint256",
          "name": "eventId",
          "type": "uint256"
        }
      ],
      "name": "removeLockedTransfers",
      "outputs": [],
      "stateMutability": "nonpayable",
      "type": "function"
    },
    {
      "inputs": [
        {
          "internalType": "bytes32",
          "name": "role",
          "type": "bytes32"
        },
        {
          "internalType": "address",
          "name": "account",
          "type": "address"
        }
      ],
      "name": "renounceRole",
      "outputs": [],
      "stateMutability": "nonpayable",
      "type": "function"
    },
    {
      "inputs": [
        {
          "internalType": "bytes32",
          "name": "role",
          "type": "bytes32"
        },
        {
          "internalType": "address",
          "name": "account",
          "type": "address"
        }
      ],
      "name": "revokeRole",
      "outputs": [],
      "stateMutability": "nonpayable",
      "type": "function"
    },
    {
      "inputs": [],
      "name": "sideBridgeAddress",
      "outputs": [
        {
          "internalType": "address",
          "name": "",
          "type": "address"
        }
      ],
      "stateMutability": "view",
      "type": "function"
    },
    {
      "inputs": [
        {
          "internalType": "uint256",
          "name": "eventId",
          "type": "uint256"
        }
      ],
      "name": "skipTransfers",
      "outputs": [],
      "stateMutability": "nonpayable",
      "type": "function"
    },
    {
      "inputs": [
        {
          "components": [
            {
              "components": [
                {
                  "internalType": "bytes3",
                  "name": "p0Seal",
                  "type": "bytes3"
                },
                {
                  "internalType": "bytes3",
                  "name": "p0Bare",
                  "type": "bytes3"
                },
                {
                  "internalType": "bytes32",
                  "name": "parentHash",
                  "type": "bytes32"
                },
                {
                  "internalType": "bytes",
                  "name": "p2",
                  "type": "bytes"
                },
                {
                  "internalType": "bytes32",
                  "name": "receiptHash",
                  "type": "bytes32"
                },
                {
                  "internalType": "bytes",
                  "name": "p3",
                  "type": "bytes"
                },
                {
                  "internalType": "bytes4",
                  "name": "step",
                  "type": "bytes4"
                },
                {
                  "internalType": "bytes",
                  "name": "signature",
                  "type": "bytes"
                },
                {
                  "internalType": "uint64",
                  "name": "finalizedVs",
                  "type": "uint64"
                }
              ],
              "internalType": "struct CheckAura.BlockAura[]",
              "name": "blocks",
              "type": "tuple[]"
            },
            {
              "components": [
                {
                  "internalType": "bytes[]",
                  "name": "receiptProof",
                  "type": "bytes[]"
                },
                {
                  "internalType": "uint256",
                  "name": "eventId",
                  "type": "uint256"
                },
                {
                  "components": [
                    {
                      "internalType": "address",
                      "name": "tokenAddress",
                      "type": "address"
                    },
                    {
                      "internalType": "address",
                      "name": "toAddress",
                      "type": "address"
                    },
                    {
                      "internalType": "uint256",
                      "name": "amount",
                      "type": "uint256"
                    }
                  ],
                  "internalType": "struct CommonStructs.Transfer[]",
                  "name": "transfers",
                  "type": "tuple[]"
                }
              ],
              "internalType": "struct CommonStructs.TransferProof",
              "name": "transfer",
              "type": "tuple"
            },
            {
              "components": [
                {
                  "internalType": "bytes[]",
                  "name": "receiptProof",
                  "type": "bytes[]"
                },
                {
                  "components": [
                    {
                      "internalType": "address",
                      "name": "deltaAddress",
                      "type": "address"
                    },
                    {
                      "internalType": "uint16",
                      "name": "deltaIndex",
                      "type": "uint16"
                    }
                  ],
                  "internalType": "struct CheckAura.ValidatorSetChange[]",
                  "name": "changes",
                  "type": "tuple[]"
                },
                {
                  "internalType": "uint64",
                  "name": "eventBlock",
                  "type": "uint64"
                }
              ],
              "internalType": "struct CheckAura.ValidatorSetProof[]",
              "name": "vsChanges",
              "type": "tuple[]"
            },
            {
              "internalType": "uint64",
              "name": "transferEventBlock",
              "type": "uint64"
            }
          ],
          "internalType": "struct CheckAura.AuraProof",
          "name": "auraProof",
          "type": "tuple"
        }
      ],
      "name": "submitTransferAura",
      "outputs": [],
      "stateMutability": "nonpayable",
      "type": "function"
    },
    {
      "inputs": [
        {
          "components": [
            {
              "components": [
                {
                  "internalType": "bytes3",
                  "name": "p0Seal",
                  "type": "bytes3"
                },
                {
                  "internalType": "bytes3",
                  "name": "p0Bare",
                  "type": "bytes3"
                },
                {
                  "internalType": "bytes32",
                  "name": "parentHash",
                  "type": "bytes32"
                },
                {
                  "internalType": "bytes",
                  "name": "p2",
                  "type": "bytes"
                },
                {
                  "internalType": "bytes32",
                  "name": "receiptHash",
                  "type": "bytes32"
                },
                {
                  "internalType": "bytes",
                  "name": "p3",
                  "type": "bytes"
                },
                {
                  "internalType": "bytes4",
                  "name": "step",
                  "type": "bytes4"
                },
                {
                  "internalType": "bytes",
                  "name": "signature",
                  "type": "bytes"
                },
                {
                  "internalType": "uint64",
                  "name": "finalizedVs",
                  "type": "uint64"
                }
              ],
              "internalType": "struct CheckAura.BlockAura[]",
              "name": "blocks",
              "type": "tuple[]"
            },
            {
              "components": [
                {
                  "internalType": "bytes[]",
                  "name": "receiptProof",
                  "type": "bytes[]"
                },
                {
                  "internalType": "uint256",
                  "name": "eventId",
                  "type": "uint256"
                },
                {
                  "components": [
                    {
                      "internalType": "address",
                      "name": "tokenAddress",
                      "type": "address"
                    },
                    {
                      "internalType": "address",
                      "name": "toAddress",
                      "type": "address"
                    },
                    {
                      "internalType": "uint256",
                      "name": "amount",
                      "type": "uint256"
                    }
                  ],
                  "internalType": "struct CommonStructs.Transfer[]",
                  "name": "transfers",
                  "type": "tuple[]"
                }
              ],
              "internalType": "struct CommonStructs.TransferProof",
              "name": "transfer",
              "type": "tuple"
            },
            {
              "components": [
                {
                  "internalType": "bytes[]",
                  "name": "receiptProof",
                  "type": "bytes[]"
                },
                {
                  "components": [
                    {
                      "internalType": "address",
                      "name": "deltaAddress",
                      "type": "address"
                    },
                    {
                      "internalType": "uint16",
                      "name": "deltaIndex",
                      "type": "uint16"
                    }
                  ],
                  "internalType": "struct CheckAura.ValidatorSetChange[]",
                  "name": "changes",
                  "type": "tuple[]"
                },
                {
                  "internalType": "uint64",
                  "name": "eventBlock",
                  "type": "uint64"
                }
              ],
              "internalType": "struct CheckAura.ValidatorSetProof[]",
              "name": "vsChanges",
              "type": "tuple[]"
            },
            {
              "internalType": "uint64",
              "name": "transferEventBlock",
              "type": "uint64"
            }
          ],
          "internalType": "struct CheckAura.AuraProof",
          "name": "auraProof",
          "type": "tuple"
        }
      ],
      "name": "submitValidatorSetChangesAura",
      "outputs": [],
      "stateMutability": "nonpayable",
      "type": "function"
    },
    {
      "inputs": [
        {
          "internalType": "bytes4",
          "name": "interfaceId",
          "type": "bytes4"
        }
      ],
      "name": "supportsInterface",
      "outputs": [
        {
          "internalType": "bool",
          "name": "",
          "type": "bool"
        }
      ],
      "stateMutability": "view",
      "type": "function"
    },
    {
      "inputs": [],
      "name": "timeframeSeconds",
      "outputs": [
        {
          "internalType": "uint256",
          "name": "",
          "type": "uint256"
        }
      ],
      "stateMutability": "view",
      "type": "function"
    },
    {
      "inputs": [
        {
          "internalType": "address",
          "name": "",
          "type": "address"
        }
      ],
      "name": "tokenAddresses",
      "outputs": [
        {
          "internalType": "address",
          "name": "",
          "type": "address"
        }
      ],
      "stateMutability": "view",
      "type": "function"
    },
    {
      "inputs": [
        {
          "internalType": "address",
          "name": "tokenThisAddress",
          "type": "address"
        },
        {
          "internalType": "address",
          "name": "tokenSideAddress",
          "type": "address"
        }
      ],
      "name": "tokensAdd",
      "outputs": [],
      "stateMutability": "nonpayable",
      "type": "function"
    },
    {
      "inputs": [
        {
          "internalType": "address[]",
          "name": "tokenThisAddresses",
          "type": "address[]"
        },
        {
          "internalType": "address[]",
          "name": "tokenSideAddresses",
          "type": "address[]"
        }
      ],
      "name": "tokensAddBatch",
      "outputs": [],
      "stateMutability": "nonpayable",
      "type": "function"
    },
    {
      "inputs": [
        {
          "internalType": "address",
          "name": "tokenThisAddress",
          "type": "address"
        }
      ],
      "name": "tokensRemove",
      "outputs": [],
      "stateMutability": "nonpayable",
      "type": "function"
    },
    {
      "inputs": [
        {
          "internalType": "address[]",
          "name": "tokenThisAddresses",
          "type": "address[]"
        }
      ],
      "name": "tokensRemoveBatch",
      "outputs": [],
      "stateMutability": "nonpayable",
      "type": "function"
    },
    {
      "inputs": [],
      "name": "transferFeeRecipient",
      "outputs": [
        {
          "internalType": "address payable",
          "name": "",
          "type": "address"
        }
      ],
      "stateMutability": "view",
      "type": "function"
    },
    {
      "inputs": [],
      "name": "triggerTransfers",
      "outputs": [],
      "stateMutability": "nonpayable",
      "type": "function"
    },
    {
      "inputs": [
        {
          "internalType": "uint256",
          "name": "eventId",
          "type": "uint256"
        }
      ],
      "name": "unlockTransfers",
      "outputs": [],
      "stateMutability": "nonpayable",
      "type": "function"
    },
    {
      "inputs": [],
      "name": "unlockTransfersBatch",
      "outputs": [],
      "stateMutability": "nonpayable",
      "type": "function"
    },
    {
      "inputs": [],
      "name": "unpause",
      "outputs": [],
      "stateMutability": "nonpayable",
      "type": "function"
    },
    {
      "inputs": [
        {
          "internalType": "uint256",
          "name": "",
          "type": "uint256"
        }
      ],
      "name": "validatorSet",
      "outputs": [
        {
          "internalType": "address",
          "name": "",
          "type": "address"
        }
      ],
      "stateMutability": "view",
      "type": "function"
    },
    {
      "inputs": [
        {
          "internalType": "address",
          "name": "tokenThisAddress",
          "type": "address"
        },
        {
          "internalType": "address",
          "name": "toAddress",
          "type": "address"
        },
        {
          "internalType": "uint256",
          "name": "amount",
          "type": "uint256"
        },
        {
          "internalType": "bool",
          "name": "unwrapSide",
          "type": "bool"
        },
        {
          "internalType": "bytes",
          "name": "feeSignature",
          "type": "bytes"
        },
        {
          "internalType": "uint256",
          "name": "transferFee",
          "type": "uint256"
        },
        {
          "internalType": "uint256",
          "name": "bridgeFee",
          "type": "uint256"
        }
      ],
      "name": "withdraw",
      "outputs": [],
      "stateMutability": "payable",
      "type": "function"
    },
    {
      "inputs": [
        {
          "internalType": "address",
          "name": "toAddress",
          "type": "address"
        },
        {
          "internalType": "bytes",
          "name": "feeSignature",
          "type": "bytes"
        },
        {
          "internalType": "uint256",
          "name": "transferFee",
          "type": "uint256"
        },
        {
          "internalType": "uint256",
          "name": "bridgeFee",
          "type": "uint256"
        }
      ],
      "name": "wrapWithdraw",
      "outputs": [],
      "stateMutability": "payable",
      "type": "function"
    },
    {
      "inputs": [],
      "name": "wrapperAddress",
      "outputs": [
        {
          "internalType": "address",
          "name": "",
          "type": "address"
        }
      ],
      "stateMutability": "view",
      "type": "function"
    },
    {
      "stateMutability": "payable",
      "type": "receive"
    }
  ],
  "transactionHash": "0xc5cc3e4d3a81ef9fff804201ab2a718f4e29b6095ae34ca61d0545d0e3dc3aff",
  "args": [],
  "numDeployments": 3,
  "solcInputHash": "02f8923ca6dc796edff4412f6a68579d",
  "bytecode": "0x608060405234801561001057600080fd5b5061492d806100206000396000f3fe6080604052600436106103075760003560e060020a9004806386d7679e11610194578063baeebe75116100e0578063e64808f311610099578063f862b7eb11610073578063f862b7eb146108f3578063f8ae31bf14610913578063f8b7443314610929578063fd5d2ef31461093c57600080fd5b8063e64808f314610893578063f33fe10f146108b3578063f7005587146108d357600080fd5b8063baeebe75146107ce578063c4bcb13f146107e4578063cf33125014610804578063cf3317d314610826578063d547741f14610846578063e31be0871461086657600080fd5b8063924cf6e01161014d578063a217fddf11610127578063a217fddf1461074d578063b6d3385e14610762578063b87330e914610798578063ba8bbbe0146107b857600080fd5b8063924cf6e01461070157806396cf52271461071757806399b5bb641461073757600080fd5b806386d7679e146106635780638ac1f86f146106795780638e5df9c71461068e57806391c5bc0a146106ae57806391d14854146106c1578063924473a6146106e157600080fd5b8063390d5388116102535780635c975abb1161020c57806375b238fc116101e657806375b238fc146105ec5780637df8b8021461060e5780638456cb591461062e578063853890ae1461064357600080fd5b80635c975abb1461059f5780636ff7c546146105b7578063746b5c42146105d757600080fd5b8063390d5388146104da5780633928b296146104fa5780633f4ba83a1461051a57806342180fb81461052f5780634a1856de1461054f5780635249a7051461057f57600080fd5b8063297c2677116102c0578063304561bb1161029a578063304561bb1461044c578063331a891a1461048457806333de61d2146104a457806336568abe146104ba57600080fd5b8063297c2677146104005780632bbba847146104165780632f2ff15d1461042c57600080fd5b806301ffc9a714610313578063044218231461034857806309fce356146103785780630d6680871461039a578063169e7a99146103b0578063248a9ca3146103d057600080fd5b3661030e57005b600080fd5b34801561031f57600080fd5b5061033361032e366004613d7b565b61095c565b60405190151581526020015b60405180910390f35b34801561035457600080fd5b5061036a6000805160206148b883398151915281565b60405190815260200161033f565b34801561038457600080fd5b50610398610393366004613c74565b6109c5565b005b3480156103a657600080fd5b5061036a60d45481565b3480156103bc57600080fd5b506103986103cb366004613de0565b6109f1565b3480156103dc57600080fd5b5061036a6103eb366004613d3d565b60009081526065602052604090206001015490565b34801561040c57600080fd5b5061036a60d65481565b34801561042257600080fd5b5060ca5415610333565b34801561043857600080fd5b50610398610447366004613d56565b610a85565b34801561045857600080fd5b5060cf5461046c90600160a060020a031681565b604051600160a060020a03909116815260200161033f565b34801561049057600080fd5b5061039861049f366004613d3d565b610ab0565b3480156104b057600080fd5b5061036a60e95481565b3480156104c657600080fd5b506103986104d5366004613d56565b610bc7565b3480156104e657600080fd5b5060d05461046c90600160a060020a031681565b34801561050657600080fd5b50610398610515366004613ae1565b610c52565b34801561052657600080fd5b50610398610c8e565b34801561053b57600080fd5b5061039861054a366004613d3d565b610cb2565b34801561055b57600080fd5b5061036a61056a366004613d3d565b60cb6020526000908152604090206001015481565b34801561058b57600080fd5b5061039861059a366004613c32565b610cef565b3480156105ab57600080fd5b5060975460ff16610333565b3480156105c357600080fd5b506103986105d2366004613d3d565b610d78565b3480156105e357600080fd5b50610398610d97565b3480156105f857600080fd5b5061036a6000805160206148d883398151915281565b34801561061a57600080fd5b5060ce5461046c90600160a060020a031681565b34801561063a57600080fd5b50610398610e43565b34801561064f57600080fd5b5061039861065e366004613afe565b610e64565b34801561066f57600080fd5b5061036a60d75481565b34801561068557600080fd5b50610398610eac565b34801561069a57600080fd5b506103986106a9366004613ae1565b611004565b6103986106bc366004613bcb565b611045565b3480156106cd57600080fd5b506103336106dc366004613d56565b61136c565b3480156106ed57600080fd5b506103986106fc366004613da5565b611397565b34801561070d57600080fd5b5061036a60d25481565b34801561072357600080fd5b50610398610732366004613d3d565b61147a565b34801561074357600080fd5b5061036a60d55481565b34801561075957600080fd5b5061036a600081565b34801561076e57600080fd5b5061046c61077d366004613ae1565b60cd60205260009081526040902054600160a060020a031681565b3480156107a457600080fd5b506103986107b3366004613ae1565b611499565b3480156107c457600080fd5b5061036a60cc5481565b3480156107da57600080fd5b5061036a60d35481565b3480156107f057600080fd5b506103986107ff366004613da5565b6114d5565b34801561081057600080fd5b5061081961152e565b60405161033f91906141d4565b34801561083257600080fd5b50610398610841366004613d3d565b611590565b34801561085257600080fd5b50610398610861366004613d56565b611607565b34801561087257600080fd5b50610886610881366004613d3d565b61162d565b60405161033f91906144a0565b34801561089f57600080fd5b5061046c6108ae366004613d3d565b6116e9565b3480156108bf57600080fd5b5060d15461046c90600160a060020a031681565b3480156108df57600080fd5b506103986108ee366004613d3d565b611713565b3480156108ff57600080fd5b5061039861090e366004613d3d565b611732565b34801561091f57600080fd5b5061036a60ea5481565b610398610937366004613b37565b611965565b34801561094857600080fd5b50610398610957366004613d3d565b611dc5565b6000600160e060020a031982167f7965db0b0000000000000000000000000000000000000000000000000000000014806109bf57507f01ffc9a700000000000000000000000000000000000000000000000000000000600160e060020a03198316145b92915050565b6000805160206148d88339815191526109de8133611de4565b6109ea85858585611e4b565b5050505050565b600054610100900460ff1680610a0a575060005460ff16155b610a325760405160e560020a62461bcd028152600401610a29906143e6565b60405180910390fd5b600054610100900460ff16158015610a54576000805461ffff19166101011790555b610a5d87611f6c565b610a6a8686868686612148565b8015610a7c576000805461ff00191690555b50505050505050565b600082815260656020526040902060010154610aa18133611de4565b610aab8383612263565b505050565b6000805160206148d8833981519152610ac98133611de4565b60975460ff16610aee5760405160e560020a62461bcd028152600401610a2990614378565b60cc54821015610b135760405160e560020a62461bcd028152600401610a2990614443565b60d554821115610b685760405160e560020a62461bcd02815260206004820152601f60248201527f6576656e744964206d757374206265203c3d20696e7075744576656e744964006044820152606401610a29565b610b736001836146e5565b60d5555b600082815260cb602052604090206001015415610bc357600082815260cb6020526040812090610ba78282613988565b5060006001919091015581610bbb81614789565b925050610b77565b5050565b600160a060020a0381163314610c485760405160e560020a62461bcd02815260206004820152602f60248201527f416363657373436f6e74726f6c3a2063616e206f6e6c792072656e6f756e636560448201527f20726f6c657320666f722073656c6600000000000000000000000000000000006064820152608401610a29565b610bc382826122e9565b6000805160206148d8833981519152610c6b8133611de4565b5060d08054600160a060020a031916600160a060020a0392909216919091179055565b6000805160206148d8833981519152610ca78133611de4565b610caf612350565b50565b6000805160206148d8833981519152610ccb8133611de4565b8160d35460d754610cdc91906146a3565b610ce6919061468f565b60d7555060d355565b6000805160206148d8833981519152610d088133611de4565b8160005b818110156109ea5760cd6000868684818110610d2a57610d2a614803565b9050602002016020810190610d3f9190613ae1565b600160a060020a0316815260208101919091526040016000208054600160a060020a031916905580610d7081614789565b915050610d0c565b6000805160206148d8833981519152610d918133611de4565b5060ea55565b60ca54610de95760405160e560020a62461bcd02815260206004820152600e60248201527f517565756520697320656d7074790000000000000000000000000000000000006044820152606401610a29565b60d68054906000610df983614789565b919050557fe15729a2f427aa4572dab35eb692c902fcbce57d41642013259c741380809ae260ca604051610e2d91906142d5565b60405180910390a2610e4160ca6000613988565b565b6000805160206148d8833981519152610e5c8133611de4565b610caf6123bf565b6000805160206148d8833981519152610e7d8133611de4565b50600160a060020a03918216600090815260cd602052604090208054600160a060020a03191691909216179055565b60975460ff1615610ed25760405160e560020a62461bcd028152600401610a29906143af565b60cc545b600081815260cb60209081526040808320815181546060948102820185018452928101838152909391928492849190879085015b82821015610f6457600084815260209081902060408051606081018252600386029092018054600160a060020a03908116845260018083015490911684860152600290910154918301919091529083529092019101610f0a565b5050505081526020016001820154815250509050806020015160001480610f8e5750428160200151115b15610f99575060cc55565b8051610fa49061241a565b600082815260cb6020526040812090610fbd8282613988565b50600060019190910181905560405183917f78ff9b3176bb0d6421590f3816e75cb15a9ffa2b7a1a028f40a3f4e029eb39f291a25080610ffc81614789565b915050610ed6565b6000805160206148d883398151915261101d8133611de4565b50600160a060020a0316600090815260cd602052604090208054600160a060020a0319169055565b60ce54600160a060020a03908116600090815260cd602052604090205416806110b35760405160e560020a62461bcd02815260206004820152601560248201527f556e6b6e6f776e20746f6b656e206164647265737300000000000000000000006044820152606401610a29565b6110bd8284614677565b341161110e5760405160e560020a62461bcd02815260206004820152601160248201527f53656e742076616c7565203c3d206665650000000000000000000000000000006044820152606401610a29565b60008261111b85346146e5565b61112591906146e5565b60ce5490915061114290600160a060020a031687878787866126ae565b60cf54604051600160a060020a039091169085156108fc029086906000818181858888f1935050505015801561117c573d6000803e3d6000fd5b5060d054604051600160a060020a039091169084156108fc029085906000818181858888f193505050501580156111b7573d6000803e3d6000fd5b5060ce60009054906101000a9004600160a060020a0316600160a060020a031663d0e30db0826040518263ffffffff1660e060020a0281526004016000604051808303818588803b15801561120b57600080fd5b505af115801561121f573d6000803e3d6000fd5b505060408051606081018252600160a060020a0380881682528c81166020830190815282840188815260ca80546001810182556000918252945160039095027f42d72674974f694b5f5159593243114d38a5c39c89d6b62fee061ff523240ee181018054968616600160a060020a031997881617905592517f42d72674974f694b5f5159593243114d38a5c39c89d6b62fee061ff523240ee2840180549190951695169490941790925590517f42d72674974f694b5f5159593243114d38a5c39c89d6b62fee061ff523240ee39091015560d65491513395507f3b823d3b837159352faddd1e0b9e9f584ca2bfe976238f6a9e6da4615cf2f444945061135c9350879087908b908b90958652600160a060020a0394851660208701529290931660408501526060840152608083019190915260a082015260c00190565b60405180910390a2610a7c612842565b6000918252606560209081526040808420600160a060020a0393909316845291905290205460ff1690565b6000805160206148b88339815191526113b08133611de4565b60975460ff16156113d65760405160e560020a62461bcd028152600401610a29906143af565b6113e36020830183614661565b602001357f196c47048e38df7a4fe6e581c8f4f2e2ba67ac0dd45b90da756e97bd61d9dd3b60405160405180910390a261142c6114236020840184614661565b602001356128ba565b60d25460d154611446918491600160a060020a031661291f565b610bc36114566020840184614661565b611464906040810190614567565b6114716020860186614661565b60200135612e8a565b6000805160206148d88339815191526114938133611de4565b5060d455565b6000805160206148d88339815191526114b28133611de4565b5060cf8054600160a060020a031916600160a060020a0392909216919091179055565b6000805160206148b88339815191526114ee8133611de4565b60975460ff16156115145760405160e560020a62461bcd028152600401610a29906143af565b60d25460d154610bc3918491600160a060020a031661291f565b606060e780548060200260200160405190810160405280929190818152602001828054801561158657602002820191906000526020600020905b8154600160a060020a03168152600190910190602001808311611568575b5050505050905090565b6000805160206148d88339815191526115a98133611de4565b60975460ff166115ce5760405160e560020a62461bcd028152600401610a2990614378565b60cc548210156115f35760405160e560020a62461bcd028152600401610a2990614443565b6115fe6001836146e5565b60d5555060cc55565b6000828152606560205260409020600101546116238133611de4565b610aab83836122e9565b604080518082019091526060815260006020820152600082815260cb60209081526040808320815181546060948102820185018452928101838152909491938593919285929185015b828210156116d057600084815260209081902060408051606081018252600386029092018054600160a060020a03908116845260018083015490911684860152600290910154918301919091529083529092019101611676565b5050505081526020016001820154815250509050919050565b60e781815481106116f957600080fd5b600091825260209091200154600160a060020a0316905081565b6000805160206148d883398151915261172c8133611de4565b5060c955565b60975460ff16156117585760405160e560020a62461bcd028152600401610a29906143af565b60cc5481146117ac5760405160e560020a62461bcd02815260206004820152601c60248201527f63616e20756e6c6f636b206f6e6c79206f6c64657374206576656e74000000006044820152606401610a29565b600081815260cb60209081526040808320815181546060948102820185018452928101838152909391928492849190879085015b8282101561183a57600084815260209081902060408051606081018252600386029092018054600160a060020a039081168452600180830154909116848601526002909101549183019190915290835290920191016117e0565b505050508152602001600182015481525050905060008160200151116118a55760405160e560020a62461bcd02815260206004820181905260248201527f6e6f206c6f636b6564207472616e7366657273207769746820746869732069646044820152606401610a29565b428160200151106118fb5760405160e560020a62461bcd02815260206004820152601b60248201527f6c6f636b54696d6520686173206e6f74207965742070617373656400000000006044820152606401610a29565b80516119069061241a565b600082815260cb602052604081209061191f8282613988565b50600060019190910181905560405183917f78ff9b3176bb0d6421590f3816e75cb15a9ffa2b7a1a028f40a3f4e029eb39f291a261195e826001614677565b60cc555050565b600085156119fa576000805260cd6020527fcd565b10a72538d86f6d352f37ebc5dff31587960b12c0afe00fd03947a6932a54600160a060020a038a81169116146119f55760405160e560020a62461bcd02815260206004820152601f60248201527f546f6b656e206e6f7420706f696e7420746f206e617469766520746f6b656e006044820152606401610a29565b611a66565b50600160a060020a03808916600090815260cd60205260409020541680611a665760405160e560020a62461bcd02815260206004820152601560248201527f556e6b6e6f776e20746f6b656e206164647265737300000000000000000000006044820152606401610a29565b611a708284614677565b3414611ac15760405160e560020a62461bcd02815260206004820152601160248201527f53656e742076616c756520213d206665650000000000000000000000000000006044820152606401610a29565b60008711611b145760405160e560020a62461bcd02815260206004820152601160248201527f43616e6e6f7420776974686472617720300000000000000000000000000000006044820152606401610a29565b611b2289868686868c6126ae565b60cf54604051600160a060020a039091169084156108fc029085906000818181858888f19350505050158015611b5c573d6000803e3d6000fd5b5060d054604051600160a060020a039091169083156108fc029084906000818181858888f19350505050158015611b97573d6000803e3d6000fd5b506040517f23b872dd00000000000000000000000000000000000000000000000000000000815233600482015230602482015260448101889052600160a060020a038a16906323b872dd90606401602060405180830381600087803b158015611bff57600080fd5b505af1158015611c13573d6000803e3d6000fd5b505050506040513d601f19601f82011682018060405250810190611c379190613ce0565b611c865760405160e560020a62461bcd02815260206004820152601360248201527f4661696c207472616e7366657220636f696e73000000000000000000000000006044820152606401610a29565b6040805160608082018352600160a060020a038481168084528c821660208086019182528587018e815260ca8054600181018255600091909152965160039097027f42d72674974f694b5f5159593243114d38a5c39c89d6b62fee061ff523240ee181018054988716600160a060020a0319998a1617905592517f42d72674974f694b5f5159593243114d38a5c39c89d6b62fee061ff523240ee284018054918716919098161790965594517f42d72674974f694b5f5159593243114d38a5c39c89d6b62fee061ff523240ee39091015560d6548551908152918e16938201939093529283019190915281018890526080810184905260a0810183905233907f3b823d3b837159352faddd1e0b9e9f584ca2bfe976238f6a9e6da4615cf2f4449060c00160405180910390a2611dba612842565b505050505050505050565b6000805160206148d8833981519152611dde8133611de4565b5060d255565b611dee828261136c565b610bc357611e0681600160a060020a03166014612f1e565b611e11836020612f1e565b604051602001611e22929190614153565b60408051601f198184030181529082905260e560020a62461bcd028252610a2991600401614345565b828114611ec35760405160e560020a62461bcd02815260206004820152603f60248201527f73697a6573206f6620746f6b656e5468697341646472657373657320616e642060448201527f746f6b656e53696465416464726573736573206d7573742062652073616d65006064820152608401610a29565b8260005b81811015611f6457838382818110611ee157611ee1614803565b9050602002016020810190611ef69190613ae1565b60cd6000888885818110611f0c57611f0c614803565b9050602002016020810190611f219190613ae1565b600160a060020a03908116825260208201929092526040016000208054600160a060020a0319169290911691909117905580611f5c81614789565b915050611ec7565b505050505050565b600054610100900460ff1680611f85575060005460ff16155b611fa45760405160e560020a62461bcd028152600401610a29906143e6565b600054610100900460ff16158015611fc6576000805461ffff19166101011790555b611fd160003361310b565b611ff86000805160206148b8833981519152611ff36060850160408601613ae1565b61310b565b61201a6000805160206148d8833981519152611ff36040850160208601613ae1565b61203c61202a608084018461451e565b61203760a086018661451e565b611e4b565b61204c6080830160608401613ae1565b60ce8054600160a060020a031916600160a060020a03929092169190911790556120796020830183613ae1565b60d18054600160a060020a031916600160a060020a03929092169190911790556120a960e0830160c08401613ae1565b60cf8054600160a060020a031916600160a060020a03929092169190911790556120da610100830160e08401613ae1565b60d08054600160a060020a031916600160a060020a039290921691909117905561014082013560d25561010082013560d381905561012083013560d455600160cc81905560d655600360c955612130904261468f565b60d7558015610bc3576000805461ff00191690555050565b600054610100900460ff1680612161575060005460ff16155b6121805760405160e560020a62461bcd028152600401610a29906143e6565b600054610100900460ff161580156121a2576000805461ffff19166101011790555b846122185760405160e560020a62461bcd02815260206004820152603260248201527f4c656e677468206f66205f696e697469616c56616c696461746f7273206d757360448201527f7420626520626967676572207468616e203000000000000000000000000000006064820152608401610a29565b61222460e787876139a9565b5060e88054600160a060020a031916600160a060020a03861617905560e983905560ea8290558015611f64576000805461ff0019169055505050505050565b61226d828261136c565b610bc3576000828152606560209081526040808320600160a060020a03851684529091529020805460ff191660011790556122a53390565b600160a060020a031681600160a060020a0316837f2f8788117e7eff1d82e926ec794901d17c78024a50270940304540a733656f0d60405160405180910390a45050565b6122f3828261136c565b15610bc3576000828152606560209081526040808320600160a060020a0385168085529252808320805460ff1916905551339285917ff6391f5c32d9c69d2a47ea670b442974b53935d1edc7fd64eb21e047a839171b9190a45050565b60975460ff166123755760405160e560020a62461bcd028152600401610a2990614378565b6097805460ff191690557f5db9ee0a495bf2e6ff9c91a7834c1ba4fdd244a5e8aa4e537bd38aeae4b073aa335b604051600160a060020a03909116815260200160405180910390a1565b60975460ff16156123e55760405160e560020a62461bcd028152600401610a29906143af565b6097805460ff191660011790557f62e78cea01bee320cd4e420270b5ea74000d11b0c9f74754ebdbfc544b05a2586123a23390565b60005b8151811015610bc3576000600160a060020a031682828151811061244357612443614803565b602002602001015160000151600160a060020a0316141561255f5760ce548251600160a060020a0390911690632e1a7d4d9084908490811061248757612487614803565b6020026020010151604001516040518263ffffffff1660e060020a0281526004016124b491815260200190565b600060405180830381600087803b1580156124ce57600080fd5b505af11580156124e2573d6000803e3d6000fd5b505050508181815181106124f8576124f8614803565b602002602001015160200151600160a060020a03166108fc83838151811061252257612522614803565b6020026020010151604001519081150290604051600060405180830381858888f19350505050158015612559573d6000803e3d6000fd5b5061269c565b81818151811061257157612571614803565b602002602001015160000151600160a060020a031663a9059cbb83838151811061259d5761259d614803565b6020026020010151602001518484815181106125bb576125bb614803565b6020026020010151604001516040518363ffffffff1660e060020a0281526004016125fb929190600160a060020a03929092168252602082015260400190565b602060405180830381600087803b15801561261557600080fd5b505af1158015612629573d6000803e3d6000fd5b505050506040513d601f19601f8201168201806040525081019061264d9190613ce0565b61269c5760405160e560020a62461bcd02815260206004820152601360248201527f4661696c207472616e7366657220636f696e73000000000000000000000000006044820152606401610a29565b806126a681614789565b91505061241d565b600080806126be6107084261468f565b905060005b60c9548110156127f6576040516c01000000000000000000000000600160a060020a038c160260208201526034810183905260548101889052607481018790526094810186905260b40160408051601f198184030181529082905280516020918201207f19457468657265756d205369676e6564204d6573736167653a0a33320000000091830191909152603c820152605c016040516020818303038152906040528051906020012093506127ae848a8a8080601f01602080910402602001604051908101604052809392919081815260200183838082843760009201919091525061311592505050565b92506127c86000805160206148b88339815191528461136c565b156127d65750505050611f64565b816127e081614772565b92505080806127ee90614789565b9150506126c3565b5060405160e560020a62461bcd02815260206004820152601660248201527f5369676e617475726520636865636b206661696c6564000000000000000000006044820152606401610a29565b600060d35442612852919061468f565b905060d7548114610caf5760d6805490600061286d83614789565b919050557fe15729a2f427aa4572dab35eb692c902fcbce57d41642013259c741380809ae260ca6040516128a191906142d5565b60405180910390a26128b560ca6000613988565b60d755565b60d5600081546128c990614789565b91829055508114610caf5760405160e560020a62461bcd02815260206004820152601460248201527f4576656e744964206f7574206f66206f726465720000000000000000000000006044820152606401610a29565b60008061292f6020860186614661565b6020013515612a6b5761294e6129486020870187614661565b846131a0565b90508061295b868061451e565b61296b6080890160608a01613e9b565b67ffffffffffffffff1681811061298457612984614803565b90506020028101906129969190614640565b60800135146129ea5760405160e560020a62461bcd02815260206004820181905260248201527f5472616e73666572206576656e742076616c69646174696f6e206661696c65646044820152606401610a29565b836129fb6080870160608801613e9b565b67ffffffffffffffff16612a0f878061451e565b612a1a9291506146e5565b1015612a6b5760405160e560020a62461bcd02815260206004820152601860248201527f4e6f7420656e6f7567682073616665747920626c6f636b7300000000000000006044820152606401610a29565b60005b612a78868061451e565b9050811015612dd65736612a8c878061451e565b83818110612a9c57612a9c614803565b9050602002810190612aae9190614640565b905083816040013514612bb157612acb6080880160608901613e9b565b67ffffffffffffffff16821180612b6157508115801590612b055750612af961012082016101008301613e9b565b67ffffffffffffffff16155b8015612b615750612b16878061451e565b612b216001856146e5565b818110612b3057612b30614803565b9050602002810190612b429190614640565b612b559061012081019061010001613e9b565b67ffffffffffffffff16155b15612bb15760405160e560020a62461bcd02815260206004820152601160248201527f57726f6e6720706172656e7420686173680000000000000000000000000000006044820152606401610a29565b612bba816132e4565b9350612bce61012082016101008301613e9b565b67ffffffffffffffff1615612dc35736612beb604089018961451e565b6001612bff61012086016101008701613e9b565b612c0991906146fc565b67ffffffffffffffff16818110612c2257612c22614803565b9050602002810190612c349190614661565b905060005b612c4660208301836145b0565b9050811015612c8c57612c7a612c5f60208401846145b0565b83818110612c6f57612c6f614803565b905060400201613400565b80612c8481614789565b915050612c39565b50612cad612c9a828061451e565b60e854600160a060020a031660e7613535565b935083612cba898061451e565b612cca6060850160408601613e9b565b67ffffffffffffffff16818110612ce357612ce3614803565b9050602002810190612cf59190614640565b6080013514612d495760405160e560020a62461bcd02815260206004820152601560248201527f57726f6e672056532072656365697074206861736800000000000000000000006044820152606401610a29565b60ea54612d5c6060830160408401613e9b565b612d709067ffffffffffffffff16856146e5565b1015612dc15760405160e560020a62461bcd02815260206004820152601c60248201527f4665772073616665747920626c6f636b732076616c696461746f7273000000006044820152606401610a29565b505b5080612dce81614789565b915050612a6e565b506000612de6604087018761451e565b905011156109ea57612df8858061451e565b612e05604088018861451e565b6001612e1460408b018b61451e565b612e1f9291506146e5565b818110612e2e57612e2e614803565b9050602002810190612e409190614661565b612e51906060810190604001613e9b565b67ffffffffffffffff16818110612e6a57612e6a614803565b9050602002810190612e7c9190614640565b6040013560e9555050505050565b60d454612e979042614677565b600082815260cb60205260408120600101919091555b82811015612f1857600082815260cb60205260409020848483818110612ed557612ed5614803565b835460018101855560009485526020909420606090910292909201926003029091019050612f038282614835565b50508080612f1090614789565b915050612ead565b50505050565b60606000612f2d8360026146a3565b612f38906002614677565b67ffffffffffffffff811115612f5057612f5061481c565b6040519080825280601f01601f191660200182016040528015612f7a576020820181803683370190505b5090507f300000000000000000000000000000000000000000000000000000000000000081600081518110612fb157612fb1614803565b6020010190600160f860020a031916908160001a9053507f780000000000000000000000000000000000000000000000000000000000000081600181518110612ffc57612ffc614803565b6020010190600160f860020a031916908160001a90535060006130208460026146a3565b61302b906001614677565b90505b60018111156130b2577f303132333435363738396162636465660000000000000000000000000000000085600f166010811061306c5761306c614803565b1a60f860020a0282828151811061308557613085614803565b6020010190600160f860020a031916908160001a9053506010909404936130ab81614772565b905061302e565b5083156131045760405160e560020a62461bcd02815260206004820181905260248201527f537472696e67733a20686578206c656e67746820696e73756666696369656e746044820152606401610a29565b9392505050565b610bc38282612263565b6020810151604082015160608301516000929190831a601b81101561313857601b015b60408051600081526020810180835288905260ff831691810191909152606081018490526080810183905260019060a0016020604051602081039080840390855afa15801561318b573d6000803e3d6000fd5b5050604051601f190151979650505050505050565b6000806131ad848061451e565b60008181106131be576131be614803565b90506020028101906131d091906145f9565b846131db878061451e565b60018181106131ec576131ec614803565b90506020028101906131fe91906145f9565b61320b896020013561360e565b6132158a8061451e565b600281811061322657613226614803565b905060200281019061323891906145f9565b61324560408d018d614567565b604051602001613256929190614265565b60408051601f198184030181529190526132708d8061451e565b600381811061328157613281614803565b905060200281019061329391906145f9565b6040516020016132ad9b9a99989796959493929190614091565b60408051601f19818403018152919052805160209091012090506132dc6132d4858061451e565b836004613776565b949350505050565b60008060006132f28461383a565b60e7805492945090925060009161332261331260e0890160c08a01613d7b565b60e060020a900463ffffffff1690565b61332c91906147a4565b8154811061333c5761333c614803565b600091825260209091200154600160a060020a031690508061339f8461336560e08901896145f9565b8080601f01602080910402602001604051908101604052809392919081815260200183838082843760009201919091525061311592505050565b600160a060020a0316146133f85760405160e560020a62461bcd02815260206004820152601560248201527f4661696c656420746f20766572696679207369676e00000000000000000000006044820152606401610a29565b509392505050565b6134106040820160208301613e77565b61ffff1661345c5760e76134276020830183613ae1565b8154600181018355600092835260209092209091018054600160a060020a031916600160a060020a0390921691909117905550565b600060016134706040840160208501613e77565b61347a91906146c2565b61ffff16905060e7600160e78054905061349491906146e5565b815481106134a4576134a4614803565b60009182526020909120015460e78054600160a060020a0390921691839081106134d0576134d0614803565b9060005260206000200160006101000a815481600160a060020a030219169083600160a060020a0316021790555060e780548061350f5761350f6147ea565b60008281526020902081016000199081018054600160a060020a03191690550190555050565b6000808585600081811061354b5761354b614803565b905060200281019061355d91906145f9565b858888600181811061357157613571614803565b905060200281019061358391906145f9565b876040516020016135949190614221565b6040516020818303038152906040528b8b60028181106135b6576135b6614803565b90506020028101906135c891906145f9565b6040516020016135df989796959493929190614022565b6040516020818303038152906040528051906020012090506136048686836003613776565b9695505050505050565b6040805160208082528183019092526060916000919060208201818036833701905050905082602082015260005b60208110156136a55781818151811061365757613657614803565b60209101015160f860020a90819004027fff000000000000000000000000000000000000000000000000000000000000001615613693576136a5565b8061369d81614789565b91505061363c565b60006136b28260206146e5565b67ffffffffffffffff8111156136ca576136ca61481c565b6040519080825280601f01601f1916602001820160405280156136f4576020820181803683370190505b50905060005b815181101561376d57838361370e81614789565b94508151811061372057613720614803565b602001015160f860020a900460f860020a0282828151811061374457613744614803565b6020010190600160f860020a031916908160001a9053508061376581614789565b9150506136fa565b50949350505050565b60006060825b8581101561382f5786868281811061379657613796614803565b90506020028101906137a891906145f9565b8689896137b6866001614677565b8181106137c5576137c5614803565b90506020028101906137d791906145f9565b6040516020016137eb95949392919061412a565b604051602081830303815290604052915060208251116138135761380e8261471d565b61381b565b815160208301205b9450613828600282614677565b905061377c565b509295945050505050565b600080807fa000000000000000000000000000000000000000000000000000000000000000604085013561387160608701876145f9565b608088013561388360a08a018a6145f9565b6040516020016138999796959493929190613ec5565b60408051601f198184030181529181529091506138bb90850160208601613cfd565b816040516020016138cd929190613f22565b60408051601f198184030181529190528051602091820120906138f290860186613cfd565b827f840000000000000000000000000000000000000000000000000000000000000061392460e0890160c08a01613d7b565b7fb84100000000000000000000000000000000000000000000000000000000000061395260e08b018b6145f9565b6040516020016139689796959493929190613f68565b604051602081830303815290604052805190602001209250925050915091565b5080546000825560030290600052602060002090810190610caf9190613a0c565b8280548282559060005260206000209081019282156139fc579160200282015b828111156139fc578154600160a060020a031916600160a060020a038435161782556020909201916001909101906139c9565b50613a08929150613a3f565b5090565b5b80821115613a08578054600160a060020a03199081168255600182018054909116905560006002820155600301613a0d565b5b80821115613a085760008155600101613a40565b60008083601f840112613a6657600080fd5b50813567ffffffffffffffff811115613a7e57600080fd5b6020830191508360208083028501011115613a9857600080fd5b9250929050565b60008083601f840112613ab157600080fd5b50813567ffffffffffffffff811115613ac957600080fd5b602083019150836020828501011115613a9857600080fd5b600060208284031215613af357600080fd5b813561310481614894565b60008060408385031215613b1157600080fd5b8235613b1c81614894565b91506020830135613b2c81614894565b809150509250929050565b60008060008060008060008060e0898b031215613b5357600080fd5b8835613b5e81614894565b97506020890135613b6e81614894565b9650604089013595506060890135613b85816148a9565b9450608089013567ffffffffffffffff811115613ba157600080fd5b613bad8b828c01613a9f565b999c989b5096999598969760a08701359660c0013595509350505050565b600080600080600060808688031215613be357600080fd5b8535613bee81614894565b9450602086013567ffffffffffffffff811115613c0a57600080fd5b613c1688828901613a9f565b9699909850959660408101359660609091013595509350505050565b60008060208385031215613c4557600080fd5b823567ffffffffffffffff811115613c5c57600080fd5b613c6885828601613a54565b90969095509350505050565b60008060008060408587031215613c8a57600080fd5b843567ffffffffffffffff80821115613ca257600080fd5b613cae88838901613a54565b90965094506020870135915080821115613cc757600080fd5b50613cd487828801613a54565b95989497509550505050565b600060208284031215613cf257600080fd5b8151613104816148a9565b600060208284031215613d0f57600080fd5b81357cffffffffffffffffffffffffffffffffffffffffffffffffffffffffff198116811461310457600080fd5b600060208284031215613d4f57600080fd5b5035919050565b60008060408385031215613d6957600080fd5b823591506020830135613b2c81614894565b600060208284031215613d8d57600080fd5b8135600160e060020a03198116811461310457600080fd5b600060208284031215613db757600080fd5b813567ffffffffffffffff811115613dce57600080fd5b82016080818503121561310457600080fd5b60008060008060008060a08789031215613df957600080fd5b863567ffffffffffffffff80821115613e1157600080fd5b90880190610160828b031215613e2657600080fd5b90965060208801359080821115613e3c57600080fd5b50613e4989828a01613a54565b9096509450506040870135613e5d81614894565b959894975092956060810135946080909101359350915050565b600060208284031215613e8957600080fd5b813561ffff8116811461310457600080fd5b600060208284031215613ead57600080fd5b813567ffffffffffffffff8116811461310457600080fd5b7fff0000000000000000000000000000000000000000000000000000000000000088168152866001820152848660218301378481016021810185905260009083856041830137600093016041019283525090979650505050505050565b7cffffffffffffffffffffffffffffffffffffffffffffffffffffffffff198316815260008251613f5a816003850160208701614746565b919091016003019392505050565b7cffffffffffffffffffffffffffffffffffffffffffffffffffffffffff198816815260008751613fa0816003850160208c01614746565b7fff000000000000000000000000000000000000000000000000000000000000008816600391840191820152600160e060020a0319871660048201527fffff000000000000000000000000000000000000000000000000000000000000861660088201528385600a83013760009301600a019283525090979650505050505050565b87898237600160a060020a0387166c01000000000000000000000000028189019081526000908688601483013786810190506014810160008152865161406c818360208b01614746565b9190910190508385601483013760009301601401928352509098975050505050505050565b8a8c8237600160a060020a038a166c0100000000000000000000000002818c0190815260009060148a8c828401378a82019150808201600081528a516140db818360208f01614746565b9290920191508789828401378782019150808201600081528751614103818360208c01614746565b9290920191508486828401376000949091010192835250909b9a5050505050505050505050565b848682378085018481526000908385602083013760009301602001928352509095945050505050565b7f416363657373436f6e74726f6c3a206163636f756e742000000000000000000081526000835161418b816017850160208801614746565b7f206973206d697373696e6720726f6c652000000000000000000000000000000060179184019182015283516141c8816028840160208801614746565b01602801949350505050565b6020808252825182820181905260009190848201906040850190845b81811015614215578351600160a060020a0316835292840192918401916001016141f0565b50909695505050505050565b6020808252825482820181905260008481528281209092916040850190845b81811015614215578354600160a060020a031683526001938401939285019201614240565b6020808252818101839052600090604080840186845b878110156142c857813561428e81614894565b600160a060020a03908116845282860135906142a982614894565b168386015281840135848401526060928301929091019060010161427b565b5090979650505050505050565b60006020808301818452808554808352604092508286019150866000528360002060005b82811015614338578154600160a060020a03908116855260018084015490911687860152600283015486860152606090940193600390920191016142f9565b5091979650505050505050565b6020815260008251806020840152614364816040850160208701614746565b601f01601f19169190910160400192915050565b60208082526014908201527f5061757361626c653a206e6f7420706175736564000000000000000000000000604082015260600190565b60208082526010908201527f5061757361626c653a2070617573656400000000000000000000000000000000604082015260600190565b6020808252602e908201527f496e697469616c697a61626c653a20636f6e747261637420697320616c72656160408201527f647920696e697469616c697a6564000000000000000000000000000000000000606082015260800190565b60208082526026908201527f6576656e744964206d757374206265203e3d206f6c646573744c6f636b65644560408201527f76656e7449640000000000000000000000000000000000000000000000000000606082015260800190565b6000602080835260608084018551604080858801528282518085526080890191508684019450600093505b808410156145085784518051600160a060020a039081168452888201511688840152830151838301529386019360019390930192908501906144cb565b5094909701519590960194909452509392505050565b6000808335601e1984360301811261453557600080fd5b83018035915067ffffffffffffffff82111561455057600080fd5b6020908101925081023603821315613a9857600080fd5b6000808335601e1984360301811261457e57600080fd5b83018035915067ffffffffffffffff82111561459957600080fd5b6020019150606081023603821315613a9857600080fd5b6000808335601e198436030181126145c757600080fd5b83018035915067ffffffffffffffff8211156145e257600080fd5b6020019150604081023603821315613a9857600080fd5b6000808335601e1984360301811261461057600080fd5b83018035915067ffffffffffffffff82111561462b57600080fd5b602001915036819003821315613a9857600080fd5b6000823561011e1983360301811261465757600080fd5b9190910192915050565b60008235605e1983360301811261465757600080fd5b6000821982111561468a5761468a6147b8565b500190565b60008261469e5761469e6147d1565b500490565b60008160001904831182151516156146bd576146bd6147b8565b500290565b600061ffff838116908316818110156146dd576146dd6147b8565b039392505050565b6000828210156146f7576146f76147b8565b500390565b600067ffffffffffffffff838116908316818110156146dd576146dd6147b8565b80516020808301519190811015614740578060200360080260020a600003821691505b50919050565b60005b83811015614761578181015183820152602001614749565b83811115612f185750506000910152565b600081614781576147816147b8565b506000190190565b600060001982141561479d5761479d6147b8565b5060010190565b6000826147b3576147b36147d1565b500690565b60e060020a634e487b7102600052601160045260246000fd5b60e060020a634e487b7102600052601260045260246000fd5b60e060020a634e487b7102600052603160045260246000fd5b60e060020a634e487b7102600052603260045260246000fd5b60e060020a634e487b7102600052604160045260246000fd5b813561484081614894565b8154600160a060020a031916600160a060020a03821617825550602082013561486881614894565b600182018054600160a060020a031916600160a060020a03831617905550604082013560028201555050565b600160a060020a0381168114610caf57600080fd5b8015158114610caf57600080fdfe077a1d526a4ce8a773632ab13b4fbbf1fcc954c3dab26cd27ea0e2a6750da5d7a49807205ce4d355092ef5a8a18f56e8913cf4a201fbe287825b095693c21775a2646970667358221220095d3d8e753fc21609c9146b3ee1e33c13d34bf9ffb098007393d66a799df00164736f6c63430008060033",
  "devdoc": {
    "kind": "dev",
    "methods": {
      "getRoleAdmin(bytes32)": {
        "details": "Returns the admin role that controls `role`. See {grantRole} and {revokeRole}. To change a role's admin, use {_setRoleAdmin}."
      },
      "grantRole(bytes32,address)": {
        "details": "Grants `role` to `account`. If `account` had not been already granted `role`, emits a {RoleGranted} event. Requirements: - the caller must have ``role``'s admin role."
      },
      "hasRole(bytes32,address)": {
        "details": "Returns `true` if `account` has been granted `role`."
      },
      "paused()": {
        "details": "Returns true if the contract is paused, and false otherwise."
      },
      "renounceRole(bytes32,address)": {
        "details": "Revokes `role` from the calling account. Roles are often managed via {grantRole} and {revokeRole}: this function's purpose is to provide a mechanism for accounts to lose their privileges if they are compromised (such as when a trusted device is misplaced). If the calling account had been granted `role`, emits a {RoleRevoked} event. Requirements: - the caller must be `account`."
      },
      "revokeRole(bytes32,address)": {
        "details": "Revokes `role` from `account`. If `account` had been granted `role`, emits a {RoleRevoked} event. Requirements: - the caller must have ``role``'s admin role."
      },
      "supportsInterface(bytes4)": {
        "details": "See {IERC165-supportsInterface}."
      },
      "withdraw(address,address,uint256,bool,bytes,uint256,uint256)": {
        "params": {
          "bridgeFee": "Amount (in native coins), payed as bridge earnings",
          "feeSignature": "Signature signed by relay that confirms that the fee values are valid",
          "transferFee": "Amount (in native coins), payed to compensate gas fees in side network"
        }
      },
      "wrapWithdraw(address,bytes,uint256,uint256)": {
        "params": {
          "bridgeFee": "Amount (in native coins), payed as bridge earnings",
          "feeSignature": "Signature signed by relay that confirms that the fee values are valid",
          "toAddress": "Address in side network that will receive the tokens",
          "transferFee": "Amount (in native coins), payed to compensate gas fees in side network"
        }
      }
    },
    "version": 1
  },
  "userdoc": {
    "kind": "user",
    "methods": {},
    "version": 1
  },
  "storageLayout": {
    "storage": [
      {
        "astId": 413,
        "contract": "contracts/networks/BSC_BscBridge.sol:BSC_BscBridge",
        "label": "_initialized",
        "offset": 0,
        "slot": "0",
        "type": "t_bool"
      },
      {
        "astId": 416,
        "contract": "contracts/networks/BSC_BscBridge.sol:BSC_BscBridge",
        "label": "_initializing",
        "offset": 1,
        "slot": "0",
        "type": "t_bool"
      },
      {
        "astId": 609,
        "contract": "contracts/networks/BSC_BscBridge.sol:BSC_BscBridge",
        "label": "__gap",
        "offset": 0,
        "slot": "1",
        "type": "t_array(t_uint256)50_storage"
      },
      {
        "astId": 858,
        "contract": "contracts/networks/BSC_BscBridge.sol:BSC_BscBridge",
        "label": "__gap",
        "offset": 0,
        "slot": "51",
        "type": "t_array(t_uint256)50_storage"
      },
      {
        "astId": 48,
        "contract": "contracts/networks/BSC_BscBridge.sol:BSC_BscBridge",
        "label": "_roles",
        "offset": 0,
        "slot": "101",
        "type": "t_mapping(t_bytes32,t_struct(RoleData)43_storage)"
      },
      {
        "astId": 333,
        "contract": "contracts/networks/BSC_BscBridge.sol:BSC_BscBridge",
        "label": "__gap",
        "offset": 0,
        "slot": "102",
        "type": "t_array(t_uint256)49_storage"
      },
      {
        "astId": 474,
        "contract": "contracts/networks/BSC_BscBridge.sol:BSC_BscBridge",
        "label": "_paused",
        "offset": 0,
        "slot": "151",
        "type": "t_bool"
      },
      {
        "astId": 565,
        "contract": "contracts/networks/BSC_BscBridge.sol:BSC_BscBridge",
        "label": "__gap",
        "offset": 0,
        "slot": "152",
        "type": "t_array(t_uint256)49_storage"
      },
      {
        "astId": 7223,
        "contract": "contracts/networks/BSC_BscBridge.sol:BSC_BscBridge",
        "label": "signatureFeeCheckNumber",
        "offset": 0,
        "slot": "201",
        "type": "t_uint256"
      },
      {
        "astId": 7227,
        "contract": "contracts/networks/BSC_BscBridge.sol:BSC_BscBridge",
        "label": "queue",
        "offset": 0,
        "slot": "202",
        "type": "t_array(t_struct(Transfer)8340_storage)dyn_storage"
      },
      {
        "astId": 7232,
        "contract": "contracts/networks/BSC_BscBridge.sol:BSC_BscBridge",
        "label": "lockedTransfers",
        "offset": 0,
        "slot": "203",
        "type": "t_mapping(t_uint256,t_struct(LockedTransfers)8357_storage)"
      },
      {
        "astId": 7234,
        "contract": "contracts/networks/BSC_BscBridge.sol:BSC_BscBridge",
        "label": "oldestLockedEventId",
        "offset": 0,
        "slot": "204",
        "type": "t_uint256"
      },
      {
        "astId": 7238,
        "contract": "contracts/networks/BSC_BscBridge.sol:BSC_BscBridge",
        "label": "tokenAddresses",
        "offset": 0,
        "slot": "205",
        "type": "t_mapping(t_address,t_address)"
      },
      {
        "astId": 7240,
        "contract": "contracts/networks/BSC_BscBridge.sol:BSC_BscBridge",
        "label": "wrapperAddress",
        "offset": 0,
        "slot": "206",
        "type": "t_address"
      },
      {
        "astId": 7242,
        "contract": "contracts/networks/BSC_BscBridge.sol:BSC_BscBridge",
        "label": "transferFeeRecipient",
        "offset": 0,
        "slot": "207",
        "type": "t_address_payable"
      },
      {
        "astId": 7244,
        "contract": "contracts/networks/BSC_BscBridge.sol:BSC_BscBridge",
        "label": "bridgeFeeRecipient",
        "offset": 0,
        "slot": "208",
        "type": "t_address_payable"
      },
      {
        "astId": 7246,
        "contract": "contracts/networks/BSC_BscBridge.sol:BSC_BscBridge",
        "label": "sideBridgeAddress",
        "offset": 0,
        "slot": "209",
        "type": "t_address"
      },
      {
        "astId": 7248,
        "contract": "contracts/networks/BSC_BscBridge.sol:BSC_BscBridge",
        "label": "minSafetyBlocks",
        "offset": 0,
        "slot": "210",
        "type": "t_uint256"
      },
      {
        "astId": 7250,
        "contract": "contracts/networks/BSC_BscBridge.sol:BSC_BscBridge",
        "label": "timeframeSeconds",
        "offset": 0,
        "slot": "211",
        "type": "t_uint256"
      },
      {
        "astId": 7252,
        "contract": "contracts/networks/BSC_BscBridge.sol:BSC_BscBridge",
        "label": "lockTime",
        "offset": 0,
        "slot": "212",
        "type": "t_uint256"
      },
      {
        "astId": 7254,
        "contract": "contracts/networks/BSC_BscBridge.sol:BSC_BscBridge",
        "label": "inputEventId",
        "offset": 0,
        "slot": "213",
        "type": "t_uint256"
      },
      {
        "astId": 7256,
        "contract": "contracts/networks/BSC_BscBridge.sol:BSC_BscBridge",
        "label": "outputEventId",
        "offset": 0,
        "slot": "214",
        "type": "t_uint256"
      },
      {
        "astId": 7258,
        "contract": "contracts/networks/BSC_BscBridge.sol:BSC_BscBridge",
        "label": "lastTimeframe",
        "offset": 0,
        "slot": "215",
        "type": "t_uint256"
      },
      {
        "astId": 8330,
        "contract": "contracts/networks/BSC_BscBridge.sol:BSC_BscBridge",
        "label": "__gap",
        "offset": 0,
        "slot": "216",
        "type": "t_array(t_uint256)15_storage"
      },
      {
        "astId": 2180,
        "contract": "contracts/networks/BSC_BscBridge.sol:BSC_BscBridge",
        "label": "validatorSet",
        "offset": 0,
        "slot": "231",
        "type": "t_array(t_address)dyn_storage"
      },
      {
        "astId": 2182,
        "contract": "contracts/networks/BSC_BscBridge.sol:BSC_BscBridge",
        "label": "validatorSetAddress",
        "offset": 0,
        "slot": "232",
        "type": "t_address"
      },
      {
        "astId": 2184,
        "contract": "contracts/networks/BSC_BscBridge.sol:BSC_BscBridge",
        "label": "lastProcessedBlock",
        "offset": 0,
        "slot": "233",
        "type": "t_bytes32"
      },
      {
        "astId": 2186,
        "contract": "contracts/networks/BSC_BscBridge.sol:BSC_BscBridge",
        "label": "minSafetyBlocksValidators",
        "offset": 0,
        "slot": "234",
        "type": "t_uint256"
      },
      {
        "astId": 2693,
        "contract": "contracts/networks/BSC_BscBridge.sol:BSC_BscBridge",
        "label": "___gap",
        "offset": 0,
        "slot": "235",
        "type": "t_array(t_uint256)15_storage"
      }
    ],
    "types": {
      "t_address": {
        "encoding": "inplace",
        "label": "address",
        "numberOfBytes": "20"
      },
      "t_address_payable": {
        "encoding": "inplace",
        "label": "address payable",
        "numberOfBytes": "20"
      },
      "t_array(t_address)dyn_storage": {
        "base": "t_address",
        "encoding": "dynamic_array",
        "label": "address[]",
        "numberOfBytes": "32"
      },
      "t_array(t_struct(Transfer)8340_storage)dyn_storage": {
        "base": "t_struct(Transfer)8340_storage",
        "encoding": "dynamic_array",
        "label": "struct CommonStructs.Transfer[]",
        "numberOfBytes": "32"
      },
      "t_array(t_uint256)15_storage": {
        "base": "t_uint256",
        "encoding": "inplace",
        "label": "uint256[15]",
        "numberOfBytes": "480"
      },
      "t_array(t_uint256)49_storage": {
        "base": "t_uint256",
        "encoding": "inplace",
        "label": "uint256[49]",
        "numberOfBytes": "1568"
      },
      "t_array(t_uint256)50_storage": {
        "base": "t_uint256",
        "encoding": "inplace",
        "label": "uint256[50]",
        "numberOfBytes": "1600"
      },
      "t_bool": {
        "encoding": "inplace",
        "label": "bool",
        "numberOfBytes": "1"
      },
      "t_bytes32": {
        "encoding": "inplace",
        "label": "bytes32",
        "numberOfBytes": "32"
      },
      "t_mapping(t_address,t_address)": {
        "encoding": "mapping",
        "key": "t_address",
        "label": "mapping(address => address)",
        "numberOfBytes": "32",
        "value": "t_address"
      },
      "t_mapping(t_address,t_bool)": {
        "encoding": "mapping",
        "key": "t_address",
        "label": "mapping(address => bool)",
        "numberOfBytes": "32",
        "value": "t_bool"
      },
      "t_mapping(t_bytes32,t_struct(RoleData)43_storage)": {
        "encoding": "mapping",
        "key": "t_bytes32",
        "label": "mapping(bytes32 => struct AccessControlUpgradeable.RoleData)",
        "numberOfBytes": "32",
        "value": "t_struct(RoleData)43_storage"
      },
      "t_mapping(t_uint256,t_struct(LockedTransfers)8357_storage)": {
        "encoding": "mapping",
        "key": "t_uint256",
        "label": "mapping(uint256 => struct CommonStructs.LockedTransfers)",
        "numberOfBytes": "32",
        "value": "t_struct(LockedTransfers)8357_storage"
      },
      "t_struct(LockedTransfers)8357_storage": {
        "encoding": "inplace",
        "label": "struct CommonStructs.LockedTransfers",
        "members": [
          {
            "astId": 8354,
            "contract": "contracts/networks/BSC_BscBridge.sol:BSC_BscBridge",
            "label": "transfers",
            "offset": 0,
            "slot": "0",
            "type": "t_array(t_struct(Transfer)8340_storage)dyn_storage"
          },
          {
            "astId": 8356,
            "contract": "contracts/networks/BSC_BscBridge.sol:BSC_BscBridge",
            "label": "endTimestamp",
            "offset": 0,
            "slot": "1",
            "type": "t_uint256"
          }
        ],
        "numberOfBytes": "64"
      },
      "t_struct(RoleData)43_storage": {
        "encoding": "inplace",
        "label": "struct AccessControlUpgradeable.RoleData",
        "members": [
          {
            "astId": 40,
            "contract": "contracts/networks/BSC_BscBridge.sol:BSC_BscBridge",
            "label": "members",
            "offset": 0,
            "slot": "0",
            "type": "t_mapping(t_address,t_bool)"
          },
          {
            "astId": 42,
            "contract": "contracts/networks/BSC_BscBridge.sol:BSC_BscBridge",
            "label": "adminRole",
            "offset": 0,
            "slot": "1",
            "type": "t_bytes32"
          }
        ],
        "numberOfBytes": "64"
      },
      "t_struct(Transfer)8340_storage": {
        "encoding": "inplace",
        "label": "struct CommonStructs.Transfer",
        "members": [
          {
            "astId": 8335,
            "contract": "contracts/networks/BSC_BscBridge.sol:BSC_BscBridge",
            "label": "tokenAddress",
            "offset": 0,
            "slot": "0",
            "type": "t_address"
          },
          {
            "astId": 8337,
            "contract": "contracts/networks/BSC_BscBridge.sol:BSC_BscBridge",
            "label": "toAddress",
            "offset": 0,
            "slot": "1",
            "type": "t_address"
          },
          {
            "astId": 8339,
            "contract": "contracts/networks/BSC_BscBridge.sol:BSC_BscBridge",
            "label": "amount",
            "offset": 0,
            "slot": "2",
            "type": "t_uint256"
          }
        ],
        "numberOfBytes": "96"
      },
      "t_uint256": {
        "encoding": "inplace",
        "label": "uint256",
        "numberOfBytes": "32"
      }
    }
  }
}