{
  "address": "0x32fac62b1196E03Ed3644a40DbFbe5728e31599A",
  "abi": [
    {
      "inputs": [
        {
          "components": [
            {
              "internalType": "address",
              "name": "sideBridgeAddress",
              "type": "address"
            },
            {
              "internalType": "address",
              "name": "adminAddress",
              "type": "address"
            },
            {
              "internalType": "address",
              "name": "relayAddress",
              "type": "address"
            },
            {
              "internalType": "address",
              "name": "wrappingTokenAddress",
              "type": "address"
            },
            {
              "internalType": "address[]",
              "name": "tokenThisAddresses",
              "type": "address[]"
            },
            {
              "internalType": "address[]",
              "name": "tokenSideAddresses",
              "type": "address[]"
            },
            {
              "internalType": "uint256",
              "name": "fee",
              "type": "uint256"
            },
            {
              "internalType": "address payable",
              "name": "feeRecipient",
              "type": "address"
            },
            {
              "internalType": "uint256",
              "name": "timeframeSeconds",
              "type": "uint256"
            },
            {
              "internalType": "uint256",
              "name": "lockTime",
              "type": "uint256"
            },
            {
              "internalType": "uint256",
              "name": "minSafetyBlocks",
              "type": "uint256"
            }
          ],
          "internalType": "struct CommonStructs.ConstructorArgs",
          "name": "args",
          "type": "tuple"
        }
      ],
      "stateMutability": "nonpayable",
      "type": "constructor"
    },
    {
      "anonymous": false,
      "inputs": [
        {
          "indexed": false,
          "internalType": "address",
          "name": "account",
          "type": "address"
        }
      ],
      "name": "Paused",
      "type": "event"
    },
    {
      "anonymous": false,
      "inputs": [
        {
          "indexed": true,
          "internalType": "bytes32",
          "name": "role",
          "type": "bytes32"
        },
        {
          "indexed": true,
          "internalType": "bytes32",
          "name": "previousAdminRole",
          "type": "bytes32"
        },
        {
          "indexed": true,
          "internalType": "bytes32",
          "name": "newAdminRole",
          "type": "bytes32"
        }
      ],
      "name": "RoleAdminChanged",
      "type": "event"
    },
    {
      "anonymous": false,
      "inputs": [
        {
          "indexed": true,
          "internalType": "bytes32",
          "name": "role",
          "type": "bytes32"
        },
        {
          "indexed": true,
          "internalType": "address",
          "name": "account",
          "type": "address"
        },
        {
          "indexed": true,
          "internalType": "address",
          "name": "sender",
          "type": "address"
        }
      ],
      "name": "RoleGranted",
      "type": "event"
    },
    {
      "anonymous": false,
      "inputs": [
        {
          "indexed": true,
          "internalType": "bytes32",
          "name": "role",
          "type": "bytes32"
        },
        {
          "indexed": true,
          "internalType": "address",
          "name": "account",
          "type": "address"
        },
        {
          "indexed": true,
          "internalType": "address",
          "name": "sender",
          "type": "address"
        }
      ],
      "name": "RoleRevoked",
      "type": "event"
    },
    {
      "anonymous": false,
      "inputs": [
        {
          "indexed": true,
          "internalType": "uint256",
          "name": "eventId",
          "type": "uint256"
        },
        {
          "components": [
            {
              "internalType": "address",
              "name": "tokenAddress",
              "type": "address"
            },
            {
              "internalType": "address",
              "name": "toAddress",
              "type": "address"
            },
            {
              "internalType": "uint256",
              "name": "amount",
              "type": "uint256"
            }
          ],
          "indexed": false,
          "internalType": "struct CommonStructs.Transfer[]",
          "name": "queue",
          "type": "tuple[]"
        }
      ],
      "name": "Transfer",
      "type": "event"
    },
    {
      "anonymous": false,
      "inputs": [
        {
          "indexed": true,
          "internalType": "uint256",
          "name": "eventId",
          "type": "uint256"
        }
      ],
      "name": "TransferFinish",
      "type": "event"
    },
    {
      "anonymous": false,
      "inputs": [
        {
          "indexed": true,
          "internalType": "uint256",
          "name": "eventId",
          "type": "uint256"
        }
      ],
      "name": "TransferSubmit",
      "type": "event"
    },
    {
      "anonymous": false,
      "inputs": [
        {
          "indexed": false,
          "internalType": "address",
          "name": "account",
          "type": "address"
        }
      ],
      "name": "Unpaused",
      "type": "event"
    },
    {
      "anonymous": false,
      "inputs": [
        {
          "indexed": true,
          "internalType": "address",
          "name": "from",
          "type": "address"
        },
        {
          "indexed": false,
          "internalType": "uint256",
          "name": "eventId",
          "type": "uint256"
        },
        {
          "indexed": false,
          "internalType": "uint256",
          "name": "feeAmount",
          "type": "uint256"
        }
      ],
      "name": "Withdraw",
      "type": "event"
    },
    {
      "inputs": [],
      "name": "ADMIN_ROLE",
      "outputs": [
        {
          "internalType": "bytes32",
          "name": "",
          "type": "bytes32"
        }
      ],
      "stateMutability": "view",
      "type": "function"
    },
    {
      "inputs": [],
      "name": "DEFAULT_ADMIN_ROLE",
      "outputs": [
        {
          "internalType": "bytes32",
          "name": "",
          "type": "bytes32"
        }
      ],
      "stateMutability": "view",
      "type": "function"
    },
    {
      "inputs": [],
      "name": "RELAY_ROLE",
      "outputs": [
        {
          "internalType": "bytes32",
          "name": "",
          "type": "bytes32"
        }
      ],
      "stateMutability": "view",
      "type": "function"
    },
    {
      "inputs": [
        {
          "internalType": "uint256",
          "name": "fee_",
          "type": "uint256"
        }
      ],
      "name": "changeFee",
      "outputs": [],
      "stateMutability": "nonpayable",
      "type": "function"
    },
    {
      "inputs": [
        {
          "internalType": "address payable",
          "name": "feeRecipient_",
          "type": "address"
        }
      ],
      "name": "changeFeeRecipient",
      "outputs": [],
      "stateMutability": "nonpayable",
      "type": "function"
    },
    {
      "inputs": [
        {
          "internalType": "uint256",
          "name": "lockTime_",
          "type": "uint256"
        }
      ],
      "name": "changeLockTime",
      "outputs": [],
      "stateMutability": "nonpayable",
      "type": "function"
    },
    {
      "inputs": [
        {
          "internalType": "uint256",
          "name": "minSafetyBlocks_",
          "type": "uint256"
        }
      ],
      "name": "changeMinSafetyBlocks",
      "outputs": [],
      "stateMutability": "nonpayable",
      "type": "function"
    },
    {
      "inputs": [
        {
          "internalType": "uint256",
          "name": "timeframeSeconds_",
          "type": "uint256"
        }
      ],
      "name": "changeTimeframeSeconds",
      "outputs": [],
      "stateMutability": "nonpayable",
      "type": "function"
    },
    {
      "inputs": [],
      "name": "fee",
      "outputs": [
        {
          "internalType": "uint256",
          "name": "",
          "type": "uint256"
        }
      ],
      "stateMutability": "view",
      "type": "function"
    },
    {
      "inputs": [
        {
          "internalType": "uint256",
          "name": "eventId",
          "type": "uint256"
        }
      ],
      "name": "getLockedTransfers",
      "outputs": [
        {
          "components": [
            {
              "components": [
                {
                  "internalType": "address",
                  "name": "tokenAddress",
                  "type": "address"
                },
                {
                  "internalType": "address",
                  "name": "toAddress",
                  "type": "address"
                },
                {
                  "internalType": "uint256",
                  "name": "amount",
                  "type": "uint256"
                }
              ],
              "internalType": "struct CommonStructs.Transfer[]",
              "name": "transfers",
              "type": "tuple[]"
            },
            {
              "internalType": "uint256",
              "name": "endTimestamp",
              "type": "uint256"
            }
          ],
          "internalType": "struct CommonStructs.LockedTransfers",
          "name": "",
          "type": "tuple"
        }
      ],
      "stateMutability": "view",
      "type": "function"
    },
    {
      "inputs": [
        {
          "internalType": "bytes32",
          "name": "role",
          "type": "bytes32"
        }
      ],
      "name": "getRoleAdmin",
      "outputs": [
        {
          "internalType": "bytes32",
          "name": "",
          "type": "bytes32"
        }
      ],
      "stateMutability": "view",
      "type": "function"
    },
    {
      "inputs": [
        {
          "internalType": "bytes32",
          "name": "role",
          "type": "bytes32"
        },
        {
          "internalType": "address",
          "name": "account",
          "type": "address"
        }
      ],
      "name": "grantRole",
      "outputs": [],
      "stateMutability": "nonpayable",
      "type": "function"
    },
    {
      "inputs": [
        {
          "internalType": "bytes32",
          "name": "role",
          "type": "bytes32"
        },
        {
          "internalType": "address",
          "name": "account",
          "type": "address"
        }
      ],
      "name": "hasRole",
      "outputs": [
        {
          "internalType": "bool",
          "name": "",
          "type": "bool"
        }
      ],
      "stateMutability": "view",
      "type": "function"
    },
    {
      "inputs": [],
      "name": "inputEventId",
      "outputs": [
        {
          "internalType": "uint256",
          "name": "",
          "type": "uint256"
        }
      ],
      "stateMutability": "view",
      "type": "function"
    },
    {
      "inputs": [
        {
          "internalType": "uint256",
          "name": "epochIndex",
          "type": "uint256"
        }
      ],
      "name": "isEpochDataSet",
      "outputs": [
        {
          "internalType": "bool",
          "name": "",
          "type": "bool"
        }
      ],
      "stateMutability": "view",
      "type": "function"
    },
    {
      "inputs": [],
      "name": "lockTime",
      "outputs": [
        {
          "internalType": "uint256",
          "name": "",
          "type": "uint256"
        }
      ],
      "stateMutability": "view",
      "type": "function"
    },
    {
      "inputs": [
        {
          "internalType": "uint256",
          "name": "",
          "type": "uint256"
        }
      ],
      "name": "lockedTransfers",
      "outputs": [
        {
          "internalType": "uint256",
          "name": "endTimestamp",
          "type": "uint256"
        }
      ],
      "stateMutability": "view",
      "type": "function"
    },
    {
      "inputs": [],
      "name": "minSafetyBlocks",
      "outputs": [
        {
          "internalType": "uint256",
          "name": "",
          "type": "uint256"
        }
      ],
      "stateMutability": "view",
      "type": "function"
    },
    {
      "inputs": [],
      "name": "oldestLockedEventId",
      "outputs": [
        {
          "internalType": "uint256",
          "name": "",
          "type": "uint256"
        }
      ],
      "stateMutability": "view",
      "type": "function"
    },
    {
      "inputs": [],
      "name": "pause",
      "outputs": [],
      "stateMutability": "nonpayable",
      "type": "function"
    },
    {
      "inputs": [],
      "name": "paused",
      "outputs": [
        {
          "internalType": "bool",
          "name": "",
          "type": "bool"
        }
      ],
      "stateMutability": "view",
      "type": "function"
    },
    {
      "inputs": [
        {
          "internalType": "uint256",
          "name": "eventId",
          "type": "uint256"
        }
      ],
      "name": "removeLockedTransfers",
      "outputs": [],
      "stateMutability": "nonpayable",
      "type": "function"
    },
    {
      "inputs": [
        {
          "internalType": "bytes32",
          "name": "role",
          "type": "bytes32"
        },
        {
          "internalType": "address",
          "name": "account",
          "type": "address"
        }
      ],
      "name": "renounceRole",
      "outputs": [],
      "stateMutability": "nonpayable",
      "type": "function"
    },
    {
      "inputs": [
        {
          "internalType": "bytes32",
          "name": "role",
          "type": "bytes32"
        },
        {
          "internalType": "address",
          "name": "account",
          "type": "address"
        }
      ],
      "name": "revokeRole",
      "outputs": [],
      "stateMutability": "nonpayable",
      "type": "function"
    },
    {
      "inputs": [
        {
          "internalType": "uint256",
          "name": "epochNum",
          "type": "uint256"
        },
        {
          "internalType": "uint256",
          "name": "fullSizeIn128Resultion",
          "type": "uint256"
        },
        {
          "internalType": "uint256",
          "name": "branchDepth",
          "type": "uint256"
        },
        {
          "internalType": "uint256[]",
          "name": "merkleNodes",
          "type": "uint256[]"
        }
      ],
      "name": "setEpochData",
      "outputs": [],
      "stateMutability": "nonpayable",
      "type": "function"
    },
    {
      "inputs": [
        {
          "internalType": "address",
          "name": "_sideBridgeAddress",
          "type": "address"
        }
      ],
      "name": "setSideBridge",
      "outputs": [],
      "stateMutability": "nonpayable",
      "type": "function"
    },
    {
      "inputs": [],
      "name": "sideBridgeAddress",
      "outputs": [
        {
          "internalType": "address",
          "name": "",
          "type": "address"
        }
      ],
      "stateMutability": "view",
      "type": "function"
    },
    {
      "inputs": [
        {
          "components": [
            {
              "components": [
                {
                  "internalType": "bytes3",
                  "name": "p0WithNonce",
                  "type": "bytes3"
                },
                {
                  "internalType": "bytes3",
                  "name": "p0WithoutNonce",
                  "type": "bytes3"
                },
                {
                  "internalType": "bytes",
                  "name": "p1",
                  "type": "bytes"
                },
                {
                  "internalType": "bytes32",
                  "name": "parentOrReceiptHash",
                  "type": "bytes32"
                },
                {
                  "internalType": "bytes",
                  "name": "p2",
                  "type": "bytes"
                },
                {
                  "internalType": "bytes",
                  "name": "difficulty",
                  "type": "bytes"
                },
                {
                  "internalType": "bytes",
                  "name": "p3",
                  "type": "bytes"
                },
                {
                  "internalType": "bytes",
                  "name": "number",
                  "type": "bytes"
                },
                {
                  "internalType": "bytes",
                  "name": "p4",
                  "type": "bytes"
                },
                {
                  "internalType": "bytes",
                  "name": "p5",
                  "type": "bytes"
                },
                {
                  "internalType": "bytes",
                  "name": "nonce",
                  "type": "bytes"
                },
                {
                  "internalType": "bytes",
                  "name": "p6",
                  "type": "bytes"
                },
                {
                  "internalType": "uint256[]",
                  "name": "dataSetLookup",
                  "type": "uint256[]"
                },
                {
                  "internalType": "uint256[]",
                  "name": "witnessForLookup",
                  "type": "uint256[]"
                }
              ],
              "internalType": "struct CheckPoW.BlockPoW[]",
              "name": "blocks",
              "type": "tuple[]"
            },
            {
              "components": [
                {
                  "internalType": "bytes[]",
                  "name": "receiptProof",
                  "type": "bytes[]"
                },
                {
                  "internalType": "uint256",
                  "name": "eventId",
                  "type": "uint256"
                },
                {
                  "components": [
                    {
                      "internalType": "address",
                      "name": "tokenAddress",
                      "type": "address"
                    },
                    {
                      "internalType": "address",
                      "name": "toAddress",
                      "type": "address"
                    },
                    {
                      "internalType": "uint256",
                      "name": "amount",
                      "type": "uint256"
                    }
                  ],
                  "internalType": "struct CommonStructs.Transfer[]",
                  "name": "transfers",
                  "type": "tuple[]"
                }
              ],
              "internalType": "struct CommonStructs.TransferProof",
              "name": "transfer",
              "type": "tuple"
            }
          ],
          "internalType": "struct CheckPoW.PoWProof",
          "name": "powProof",
          "type": "tuple"
        }
      ],
      "name": "submitTransferPoW",
      "outputs": [],
      "stateMutability": "nonpayable",
      "type": "function"
    },
    {
      "inputs": [
        {
          "internalType": "bytes4",
          "name": "interfaceId",
          "type": "bytes4"
        }
      ],
      "name": "supportsInterface",
      "outputs": [
        {
          "internalType": "bool",
          "name": "",
          "type": "bool"
        }
      ],
      "stateMutability": "view",
      "type": "function"
    },
    {
      "inputs": [],
      "name": "timeframeSeconds",
      "outputs": [
        {
          "internalType": "uint256",
          "name": "",
          "type": "uint256"
        }
      ],
      "stateMutability": "view",
      "type": "function"
    },
    {
      "inputs": [
        {
          "internalType": "address",
          "name": "",
          "type": "address"
        }
      ],
      "name": "tokenAddresses",
      "outputs": [
        {
          "internalType": "address",
          "name": "",
          "type": "address"
        }
      ],
      "stateMutability": "view",
      "type": "function"
    },
    {
      "inputs": [
        {
          "internalType": "address",
          "name": "tokenThisAddress",
          "type": "address"
        },
        {
          "internalType": "address",
          "name": "tokenSideAddress",
          "type": "address"
        }
      ],
      "name": "tokensAdd",
      "outputs": [],
      "stateMutability": "nonpayable",
      "type": "function"
    },
    {
      "inputs": [
        {
          "internalType": "address[]",
          "name": "tokenThisAddresses",
          "type": "address[]"
        },
        {
          "internalType": "address[]",
          "name": "tokenSideAddresses",
          "type": "address[]"
        }
      ],
      "name": "tokensAddBatch",
      "outputs": [],
      "stateMutability": "nonpayable",
      "type": "function"
    },
    {
      "inputs": [
        {
          "internalType": "address",
          "name": "tokenThisAddress",
          "type": "address"
        }
      ],
      "name": "tokensRemove",
      "outputs": [],
      "stateMutability": "nonpayable",
      "type": "function"
    },
    {
      "inputs": [
        {
          "internalType": "address[]",
          "name": "tokenThisAddresses",
          "type": "address[]"
        }
      ],
      "name": "tokensRemoveBatch",
      "outputs": [],
      "stateMutability": "nonpayable",
      "type": "function"
    },
    {
      "inputs": [
        {
          "internalType": "uint256",
          "name": "eventId",
          "type": "uint256"
        }
      ],
      "name": "unlockTransfers",
      "outputs": [],
      "stateMutability": "nonpayable",
      "type": "function"
    },
    {
      "inputs": [],
      "name": "unlockTransfersBatch",
      "outputs": [],
      "stateMutability": "nonpayable",
      "type": "function"
    },
    {
      "inputs": [],
      "name": "unpause",
      "outputs": [],
      "stateMutability": "nonpayable",
      "type": "function"
    },
    {
      "inputs": [
        {
          "internalType": "address",
          "name": "tokenThisAddress",
          "type": "address"
        },
        {
          "internalType": "address",
          "name": "toAddress",
          "type": "address"
        },
        {
          "internalType": "uint256",
          "name": "amount",
          "type": "uint256"
        },
        {
          "internalType": "bool",
          "name": "unwrapSide",
          "type": "bool"
        }
      ],
      "name": "withdraw",
      "outputs": [],
      "stateMutability": "payable",
      "type": "function"
    },
    {
      "inputs": [
        {
          "internalType": "address",
          "name": "toAddress",
          "type": "address"
        }
      ],
      "name": "wrapWithdraw",
      "outputs": [],
      "stateMutability": "payable",
      "type": "function"
    },
    {
      "inputs": [],
      "name": "wrapperAddress",
      "outputs": [
        {
          "internalType": "address",
          "name": "",
          "type": "address"
        }
      ],
      "stateMutability": "view",
      "type": "function"
    },
    {
      "stateMutability": "payable",
      "type": "receive"
    }
  ],
  "transactionHash": "0x003459f19fafa8f05fc95a19c939f023ad3c2a43cf9e95fbdcabe5f603307142",
  "args": [
    {
      "sideBridgeAddress": "0x0000000000000000000000000000000000000000",
      "adminAddress": "0x295C2707319ad4BecA6b5bb4086617fD6F240CfE",
      "relayAddress": "0x295C2707319ad4BecA6b5bb4086617fD6F240CfE",
      "wrappingTokenAddress": "0x37A715513f6DdEb9db9235f82dd823f5923791C4",
      "tokenThisAddresses": [
        "0x37A715513f6DdEb9db9235f82dd823f5923791C4",
        "0xE0b5DfA73BF1299e131000d5279a871c0ae1c17e",
        "0x0000000000000000000000000000000000000000"
      ],
      "tokenSideAddresses": [
        "0xd390d1bFd4AAeCd1635da5dDa419d388a7CF8766",
        "0xc778417E063141139Fce010982780140Aa0cD5Ab",
        "0xc778417E063141139Fce010982780140Aa0cD5Ab"
      ],
      "fee": 1000,
      "feeRecipient": "0x295C2707319ad4BecA6b5bb4086617fD6F240CfE",
      "timeframeSeconds": 1,
      "lockTime": 1,
      "minSafetyBlocks": 10
    }
  ],
  "numDeployments": 1,
  "solcInputHash": "48a0115daf5673e403fcb870d918396c",
  "bytecode": "0x608060405260016004556001600e553480156200001b57600080fd5b5060405162005b7538038062005b758339810160408190526200003e916200045b565b6001805460ff19169055806200005f60003364010000000062000171810204565b6200009e7f077a1d526a4ce8a773632ab13b4fbbf1fcc954c3dab26cd27ea0e2a6750da5d7826040015162000171640100000000026401000000009004565b620000dd7fa49807205ce4d355092ef5a8a18f56e8913cf4a201fbe287825b095693c21775826020015162000171640100000000026401000000009004565b6200010081608001518260a001516200018a640100000000026401000000009004565b606081015160068054600160a060020a03928316600160a060020a03199182161790915582516009805491841691831691909117905560c083015160075560e083015160088054919093169116179055610140810151600a55610100810151600b556101200151600c555062000669565b620001868282640100000000620002cc810204565b5050565b805182511462000220576040517f08c379a000000000000000000000000000000000000000000000000000000000815260206004820152603f60248201527f73697a6573206f6620746f6b656e5468697341646472657373657320616e642060448201527f746f6b656e53696465416464726573736573206d7573742062652073616d6500606482015260840160405180910390fd5b815160005b81811015620002c657828181518110620002435762000243620005f2565b602002602001015160056000868481518110620002645762000264620005f2565b6020026020010151600160a060020a0316600160a060020a0316815260200190815260200160002060006101000a815481600160a060020a030219169083600160a060020a031602179055508080620002bd90620005af565b91505062000225565b50505050565b620002e1828264010000000062000368810204565b6200018657600082815260208181526040808320600160a060020a03851684529091529020805460ff191660011790556200032464010000000062000391810204565b600160a060020a031681600160a060020a0316837f2f8788117e7eff1d82e926ec794901d17c78024a50270940304540a733656f0d60405160405180910390a45050565b600091825260208281526040808420600160a060020a0393909316845291905290205460ff1690565b3390565b8051620003a28162000650565b919050565b600082601f830112620003b957600080fd5b815160206001604060020a0380831115620003d857620003d862000621565b818302604051601f19603f83011681018181108482111715620003ff57620003ff62000621565b604052848152838101925086840182880185018910156200041f57600080fd5b600092505b858310156200044f5780516200043a8162000650565b84529284019260019290920191840162000424565b50979650505050505050565b6000602082840312156200046e57600080fd5b81516001604060020a03808211156200048657600080fd5b9083019061016082860312156200049c57600080fd5b620004a662000583565b620004b18362000395565b8152620004c16020840162000395565b6020820152620004d46040840162000395565b6040820152620004e76060840162000395565b6060820152608083015182811115620004ff57600080fd5b6200050d87828601620003a7565b60808301525060a0830151828111156200052657600080fd5b6200053487828601620003a7565b60a08301525060c083015160c08201526200055260e0840162000395565b60e0820152610100838101519082015261012080840151908201526101409283015192810192909252509392505050565b60405161016081016001604060020a0381118282101715620005a957620005a962000621565b60405290565b6000600019821415620005eb577f4e487b7100000000000000000000000000000000000000000000000000000000600052601160045260246000fd5b5060010190565b7f4e487b7100000000000000000000000000000000000000000000000000000000600052603260045260246000fd5b7f4e487b7100000000000000000000000000000000000000000000000000000000600052604160045260246000fd5b600160a060020a03811681146200066657600080fd5b50565b6154fc80620006796000396000f3fe60806040526004361061024e5760003560e060020a900480638ac1f86f1161013d578063baeebe75116100ba578063e31be0871161007e578063e31be087146106d9578063e4e6bba614610706578063e88b662614610719578063f33fe10f14610739578063f862b7eb14610759578063fd5d2ef31461077957600080fd5b8063baeebe751461063a578063c7b81f4f14610650578063d547741f14610683578063ddca3f43146106a3578063e1d862be146106b957600080fd5b806396cf52271161010157806396cf5227146105a357806399b5bb64146105c3578063a217fddf146105d9578063b6d3385e146105ee578063ba8bbbe01461062457600080fd5b80638ac1f86f146105255780638e5df9c71461053a57806391d148541461055a578063924cf6e01461057a578063934785b71461059057600080fd5b80633f4ba83a116101cb5780636a1db1bf1161018f5780636a1db1bf1461047657806375b238fc146104965780637df8b802146104b85780638456cb59146104f0578063853890ae1461050557600080fd5b80633f4ba83a146103d957806342180fb8146103ee5780634a1856de1461040e5780635249a7051461043e5780635c975abb1461045e57600080fd5b806323604071116102125780632360407114610329578063248a9ca3146103495780632f2ff15d14610379578063331a891a1461039957806336568abe146103b957600080fd5b806301ffc9a71461025a578063044218231461028f57806309fce356146102d15780630d668087146102f357806321d3d5361461030957600080fd5b3661025557005b600080fd5b34801561026657600080fd5b5061027a610275366004614a03565b610799565b60405190151581526020015b60405180910390f35b34801561029b57600080fd5b506102c37f077a1d526a4ce8a773632ab13b4fbbf1fcc954c3dab26cd27ea0e2a6750da5d781565b604051908152602001610286565b3480156102dd57600080fd5b506102f16102ec366004614944565b61082c565b005b3480156102ff57600080fd5b506102c3600c5481565b34801561031557600080fd5b506102f1610324366004614866565b610854565b34801561033557600080fd5b506102f1610344366004614866565b6108e4565b34801561035557600080fd5b506102c36103643660046149c5565b60009081526020819052604090206001015490565b34801561038557600080fd5b506102f16103943660046149de565b610920565b3480156103a557600080fd5b506102f16103b43660046149c5565b610946565b3480156103c557600080fd5b506102f16103d43660046149de565b610a7f565b3480156103e557600080fd5b506102f1610b0a565b3480156103fa57600080fd5b506102f16104093660046149c5565b610b2e565b34801561041a57600080fd5b506102c36104293660046149c5565b60036020526000908152604090206001015481565b34801561044a57600080fd5b506102f161045936600461490f565b610b4d565b34801561046a57600080fd5b5060015460ff1661027a565b34801561048257600080fd5b506102f16104913660046149c5565b610bd2565b3480156104a257600080fd5b506102c36000805160206154a783398151915281565b3480156104c457600080fd5b506006546104d890600160a060020a031681565b604051600160a060020a039091168152602001610286565b3480156104fc57600080fd5b506102f1610bf1565b34801561051157600080fd5b506102f1610520366004614883565b610c12565b34801561053157600080fd5b506102f1610c5a565b34801561054657600080fd5b506102f1610555366004614866565b610db2565b34801561056657600080fd5b5061027a6105753660046149de565b610df3565b34801561058657600080fd5b506102c3600a5481565b6102f161059e3660046148bc565b610e1c565b3480156105af57600080fd5b506102f16105be3660046149c5565b6111c1565b3480156105cf57600080fd5b506102c3600d5481565b3480156105e557600080fd5b506102c3600081565b3480156105fa57600080fd5b506104d8610609366004614866565b600560205260009081526040902054600160a060020a031681565b34801561063057600080fd5b506102c360045481565b34801561064657600080fd5b506102c3600b5481565b34801561065c57600080fd5b5061027a61066b3660046149c5565b60009081526010602052604090206102000154151590565b34801561068f57600080fd5b506102f161069e3660046149de565b6111e0565b3480156106af57600080fd5b506102c360075481565b3480156106c557600080fd5b506102f16106d4366004614a42565b611206565b3480156106e557600080fd5b506106f96106f43660046149c5565b6112ca565b604051610286919061522b565b6102f1610714366004614866565b611386565b34801561072557600080fd5b506102f1610734366004614d31565b611624565b34801561074557600080fd5b506009546104d890600160a060020a031681565b34801561076557600080fd5b506102f16107743660046149c5565b6116eb565b34801561078557600080fd5b506102f16107943660046149c5565b61191e565b60007bffffffffffffffffffffffffffffffffffffffffffffffffffffffff1982167f7965db0b00000000000000000000000000000000000000000000000000000000148061082657507f01ffc9a7000000000000000000000000000000000000000000000000000000007bffffffffffffffffffffffffffffffffffffffffffffffffffffffff198316145b92915050565b6000805160206154a7833981519152610845813361193d565b61084f83836119a4565b505050565b6000610860813361193d565b600954600160a060020a0316156108c15760405160e560020a62461bcd02815260206004820152601d60248201527f736964654272696467654164647265737320616c72656164792073657400000060448201526064015b60405180910390fd5b5060098054600160a060020a031916600160a060020a0392909216919091179055565b6000805160206154a78339815191526108fd813361193d565b5060088054600160a060020a031916600160a060020a0392909216919091179055565b60008281526020819052604090206001015461093c813361193d565b61084f8383611aba565b6000805160206154a783398151915261095f813361193d565b60015460ff166109b45760405160e560020a62461bcd02815260206004820152601460248201527f5061757361626c653a206e6f742070617573656400000000000000000000000060448201526064016108b8565b600454821015610a2f5760405160e560020a62461bcd02815260206004820152602660248201527f6576656e744964206d757374206265203e3d206f6c646573744c6f636b65644560448201527f76656e744964000000000000000000000000000000000000000000000000000060648201526084016108b8565b60008281526003602052604090206001015415610a7b57600082815260036020526040812090610a5f8282614422565b5060006001919091015581610a73816153f0565b925050610a2f565b5050565b600160a060020a0381163314610b005760405160e560020a62461bcd02815260206004820152602f60248201527f416363657373436f6e74726f6c3a2063616e206f6e6c792072656e6f756e636560448201527f20726f6c657320666f722073656c66000000000000000000000000000000000060648201526084016108b8565b610a7b8282611b3e565b6000805160206154a7833981519152610b23813361193d565b610b2b611ba3565b50565b6000805160206154a7833981519152610b47813361193d565b50600b55565b6000805160206154a7833981519152610b66813361193d565b815160005b81811015610bcc5760056000858381518110610b8957610b89615451565b602090810291909101810151600160a060020a031682528101919091526040016000208054600160a060020a031916905580610bc4816153f0565b915050610b6b565b50505050565b6000805160206154a7833981519152610beb813361193d565b50600755565b6000805160206154a7833981519152610c0a813361193d565b610b2b611c42565b6000805160206154a7833981519152610c2b813361193d565b50600160a060020a0391821660009081526005602052604090208054600160a060020a03191691909216179055565b60015460ff1615610c805760405160e560020a62461bcd0281526004016108b8906151f4565b6004545b6000818152600360209081526040808320815181546060948102820185018452928101838152909391928492849190879085015b82821015610d1257600084815260209081902060408051606081018252600386029092018054600160a060020a03908116845260018083015490911684860152600290910154918301919091529083529092019101610cb8565b5050505081526020016001820154815250509050806020015160001480610d3c5750428160200151115b15610d475750600455565b8051610d5290611c9b565b600082815260036020526040812090610d6b8282614422565b50600060019190910181905560405183917f78ff9b3176bb0d6421590f3816e75cb15a9ffa2b7a1a028f40a3f4e029eb39f291a25080610daa816153f0565b915050610c84565b6000805160206154a7833981519152610dcb813361193d565b50600160a060020a031660009081526005602052604090208054600160a060020a0319169055565b600091825260208281526040808420600160a060020a0393909316845291905290205460ff1690565b60008115610eb1576000805260056020527f05b8ccbb9d4d8fb16ea74ce3c29a41f1b461fbdaff4714a0d9a8eb05499746bc54600160a060020a03868116911614610eac5760405160e560020a62461bcd02815260206004820152601f60248201527f546f6b656e206e6f7420706f696e7420746f206e617469766520746f6b656e0060448201526064016108b8565b610f1d565b50600160a060020a038085166000908152600560205260409020541680610f1d5760405160e560020a62461bcd02815260206004820152601560248201527f556e6b6e6f776e20746f6b656e2061646472657373000000000000000000000060448201526064016108b8565b6007543414610f715760405160e560020a62461bcd02815260206004820152601160248201527f53656e742076616c756520213d2066656500000000000000000000000000000060448201526064016108b8565b600854604051600160a060020a03909116903480156108fc02916000818181858888f19350505050158015610faa573d6000803e3d6000fd5b506040517f23b872dd00000000000000000000000000000000000000000000000000000000815233600482015230602482015260448101849052600160a060020a038616906323b872dd90606401602060405180830381600087803b15801561101257600080fd5b505af1158015611026573d6000803e3d6000fd5b505050506040513d601f19601f8201168201806040525081019061104a91906149a8565b6110995760405160e560020a62461bcd02815260206004820152601360248201527f4661696c207472616e7366657220636f696e730000000000000000000000000060448201526064016108b8565b60408051606081018252600160a060020a0380841682528681166020830190815282840187815260028054600181018255600091909152935160039094027f405787fa12a823e0f2b7631cc41b3ba8828b3321ca811111fa75cd3aa3bb5ace81018054958516600160a060020a031996871617905591517f405787fa12a823e0f2b7631cc41b3ba8828b3321ca811111fa75cd3aa3bb5acf830180549190941694169390931790915590517f405787fa12a823e0f2b7631cc41b3ba8828b3321ca811111fa75cd3aa3bb5ad090910155600e54600754915133927ff279e6a1f5e320cca91135676d9cb6e44ca8a08c0b88342bcdb1144f6511b568926111aa92909190918252602082015260400190565b60405180910390a26111ba611f2f565b5050505050565b6000805160206154a78339815191526111da813361193d565b50600c55565b6000828152602081905260409020600101546111fc813361193d565b61084f8383611b3e565b7f077a1d526a4ce8a773632ab13b4fbbf1fcc954c3dab26cd27ea0e2a6750da5d7611231813361193d565b60015460ff16156112575760405160e560020a62461bcd0281526004016108b8906151f4565b60208083015101516040517f196c47048e38df7a4fe6e581c8f4f2e2ba67ac0dd45b90da756e97bd61d9dd3b90600090a2611299826020015160200151611fa7565b6009546112b0908390600160a060020a031661200c565b610a7b8260200151604001518360200151602001516120fe565b6040805180820190915260608152600060208201526000828152600360209081526040808320815181546060948102820185018452928101838152909491938593919285929185015b8282101561136d57600084815260209081902060408051606081018252600386029092018054600160a060020a03908116845260018083015490911684860152600290910154918301919091529083529092019101611313565b5050505081526020016001820154815250509050919050565b600654600160a060020a0390811660009081526005602052604090205416806113f45760405160e560020a62461bcd02815260206004820152601560248201527f556e6b6e6f776e20746f6b656e2061646472657373000000000000000000000060448201526064016108b8565b60075434116114485760405160e560020a62461bcd02815260206004820152601060248201527f53656e742076616c7565203c206665650000000000000000000000000000000060448201526064016108b8565b600854600754604051600160a060020a039092169181156108fc0291906000818181858888f19350505050158015611484573d6000803e3d6000fd5b50600060075434611495919061536d565b9050600660009054906101000a9004600160a060020a0316600160a060020a031663d0e30db0826040518263ffffffff1660e060020a0281526004016000604051808303818588803b1580156114ea57600080fd5b505af11580156114fe573d6000803e3d6000fd5b505060408051606081018252600160a060020a0380881682528881166020830190815282840188815260028054600181018255600091909152935160039094027f405787fa12a823e0f2b7631cc41b3ba8828b3321ca811111fa75cd3aa3bb5ace81018054958516600160a060020a031996871617905591517f405787fa12a823e0f2b7631cc41b3ba8828b3321ca811111fa75cd3aa3bb5acf830180549190941694169390931790915590517f405787fa12a823e0f2b7631cc41b3ba8828b3321ca811111fa75cd3aa3bb5ad090910155600e5460075491513395507ff279e6a1f5e320cca91135676d9cb6e44ca8a08c0b88342bcdb1144f6511b56894506116149350909190918252602082015260400190565b60405180910390a261084f611f2f565b6002841061166d576010600061163b60028761536d565b81526020019081526020016000206000808201600061165a9190614443565b5060006102008201819055610201909101555b80516000858152601060205260408120905b828110156116c85783818151811061169957611699615451565b6020026020010151828261020081106116b4576116b4615451565b0155806116c0816153f0565b91505061167f565b505050600093845250601060205260409092206102008101919091556102010155565b60015460ff16156117115760405160e560020a62461bcd0281526004016108b8906151f4565b60045481146117655760405160e560020a62461bcd02815260206004820152601c60248201527f63616e20756e6c6f636b206f6e6c79206f6c64657374206576656e740000000060448201526064016108b8565b6000818152600360209081526040808320815181546060948102820185018452928101838152909391928492849190879085015b828210156117f357600084815260209081902060408051606081018252600386029092018054600160a060020a03908116845260018083015490911684860152600290910154918301919091529083529092019101611799565b5050505081526020016001820154815250509050600081602001511161185e5760405160e560020a62461bcd02815260206004820181905260248201527f6e6f206c6f636b6564207472616e73666572732077697468207468697320696460448201526064016108b8565b428160200151106118b45760405160e560020a62461bcd02815260206004820152601b60248201527f6c6f636b54696d6520686173206e6f742079657420706173736564000000000060448201526064016108b8565b80516118bf90611c9b565b6000828152600360205260408120906118d88282614422565b50600060019190910181905560405183917f78ff9b3176bb0d6421590f3816e75cb15a9ffa2b7a1a028f40a3f4e029eb39f291a2611917826001615322565b6004555050565b6000805160206154a7833981519152611937813361193d565b50600a55565b6119478282610df3565b610a7b5761195f81600160a060020a031660146121c1565b61196a8360206121c1565b60405160200161197b9291906150bd565b60408051601f198184030181529082905260e560020a62461bcd0282526108b8916004016151c1565b8051825114611a1e5760405160e560020a62461bcd02815260206004820152603f60248201527f73697a6573206f6620746f6b656e5468697341646472657373657320616e642060448201527f746f6b656e53696465416464726573736573206d7573742062652073616d650060648201526084016108b8565b815160005b81811015610bcc57828181518110611a3d57611a3d615451565b602002602001015160056000868481518110611a5b57611a5b615451565b6020026020010151600160a060020a0316600160a060020a0316815260200190815260200160002060006101000a815481600160a060020a030219169083600160a060020a031602179055508080611ab2906153f0565b915050611a23565b611ac48282610df3565b610a7b57600082815260208181526040808320600160a060020a03851684529091529020805460ff19166001179055611afa3390565b600160a060020a031681600160a060020a0316837f2f8788117e7eff1d82e926ec794901d17c78024a50270940304540a733656f0d60405160405180910390a45050565b611b488282610df3565b15610a7b57600082815260208181526040808320600160a060020a0385168085529252808320805460ff1916905551339285917ff6391f5c32d9c69d2a47ea670b442974b53935d1edc7fd64eb21e047a839171b9190a45050565b60015460ff16611bf85760405160e560020a62461bcd02815260206004820152601460248201527f5061757361626c653a206e6f742070617573656400000000000000000000000060448201526064016108b8565b6001805460ff191690557f5db9ee0a495bf2e6ff9c91a7834c1ba4fdd244a5e8aa4e537bd38aeae4b073aa335b604051600160a060020a03909116815260200160405180910390a1565b60015460ff1615611c685760405160e560020a62461bcd0281526004016108b8906151f4565b6001805460ff1916811790557f62e78cea01bee320cd4e420270b5ea74000d11b0c9f74754ebdbfc544b05a25833611c25565b60005b8151811015610a7b576000600160a060020a0316828281518110611cc457611cc4615451565b602002602001015160000151600160a060020a03161415611de0576006548251600160a060020a0390911690632e1a7d4d90849084908110611d0857611d08615451565b6020026020010151604001516040518263ffffffff1660e060020a028152600401611d3591815260200190565b600060405180830381600087803b158015611d4f57600080fd5b505af1158015611d63573d6000803e3d6000fd5b50505050818181518110611d7957611d79615451565b602002602001015160200151600160a060020a03166108fc838381518110611da357611da3615451565b6020026020010151604001519081150290604051600060405180830381858888f19350505050158015611dda573d6000803e3d6000fd5b50611f1d565b818181518110611df257611df2615451565b602002602001015160000151600160a060020a031663a9059cbb838381518110611e1e57611e1e615451565b602002602001015160200151848481518110611e3c57611e3c615451565b6020026020010151604001516040518363ffffffff1660e060020a028152600401611e7c929190600160a060020a03929092168252602082015260400190565b602060405180830381600087803b158015611e9657600080fd5b505af1158015611eaa573d6000803e3d6000fd5b505050506040513d601f19601f82011682018060405250810190611ece91906149a8565b611f1d5760405160e560020a62461bcd02815260206004820152601360248201527f4661696c207472616e7366657220636f696e730000000000000000000000000060448201526064016108b8565b80611f27816153f0565b915050611c9e565b6000600b5442611f3f919061533a565b9050600f548114610b2b57600e8054906000611f5a836153f0565b919050557fe15729a2f427aa4572dab35eb692c902fcbce57d41642013259c741380809ae26002604051611f8e9190615151565b60405180910390a2611fa260026000614422565b600f55565b600d60008154611fb6906153f0565b91829055508114610b2b5760405160e560020a62461bcd02815260206004820152601460248201527f4576656e744964206f7574206f66206f7264657200000000000000000000000060448201526064016108b8565b600061201c8360200151836123ae565b905060005b835151811015610bcc57818460000151828151811061204257612042615451565b6020026020010151606001511461209e5760405160e560020a62461bcd02815260206004820152601f60248201527f706172656e7448617368206f722072656365697074486173682077726f6e670060448201526064016108b8565b6120c4846000015182815181106120b7576120b7615451565b60200260200101516124a3565b91506120ec846000015182815181106120df576120df615451565b6020026020010151612550565b806120f6816153f0565b915050612021565b600c5461210b9042615322565b6000828152600360205260408120600101919091555b825181101561084f576000828152600360205260409020835184908390811061214c5761214c615451565b60209081029190910181015182546001808201855560009485529383902082516003909202018054600160a060020a0319908116600160a060020a03938416178255938301519481018054909416949091169390931790915560400151600290910155806121b9816153f0565b915050612121565b606060006121d083600261534e565b6121db906002615322565b67ffffffffffffffff8111156121f3576121f361546a565b6040519080825280601f01601f19166020018201604052801561221d576020820181803683370190505b5090507f30000000000000000000000000000000000000000000000000000000000000008160008151811061225457612254615451565b6020010190600160f860020a031916908160001a9053507f78000000000000000000000000000000000000000000000000000000000000008160018151811061229f5761229f615451565b6020010190600160f860020a031916908160001a90535060006122c384600261534e565b6122ce906001615322565b90505b6001811115612355577f303132333435363738396162636465660000000000000000000000000000000085600f166010811061230f5761230f615451565b1a60f860020a0282828151811061232857612328615451565b6020010190600160f860020a031916908160001a90535060109094049361234e816153d9565b90506122d1565b5083156123a75760405160e560020a62461bcd02815260206004820181905260248201527f537472696e67733a20686578206c656e67746820696e73756666696369656e7460448201526064016108b8565b9392505050565b60008083600001516000815181106123c8576123c8615451565b60200260200101518385600001516001815181106123e8576123e8615451565b60200260200101516123fd8760200151612595565b87518051600290811061241257612412615451565b6020026020010151886040015160405160200161242f919061513e565b604051602081830303815290604052896000015160038151811061245557612455615451565b60200260200101516040516020016124739796959493929190614f41565b60405160208183030381529060405280519060200120905061249b84600001518260046126fd565b949350505050565b600081600001518260400151836060015184608001518560a001518660c001516040516020016124d896959493929190614ddd565b60408051601f198184030181529082905260e084015161010085015161012086015161014087015161016088015194956125159590602001615052565b60408051601f19818403018152908290526125339291602001615023565b604051602081830303815290604052805190602001209050919050565b610b2b6125608260e001516127ad565b612569836127e0565b6125778461014001516127ad565b6125848560a001516127ad565b856101800151866101a00151612849565b6040805160208082528183019092526060916000919060208201818036833701905050905082602082015260005b602081101561262c578181815181106125de576125de615451565b60209101015160f860020a90819004027fff00000000000000000000000000000000000000000000000000000000000000161561261a5761262c565b80612624816153f0565b9150506125c3565b600061263982602061536d565b67ffffffffffffffff8111156126515761265161546a565b6040519080825280601f01601f19166020018201604052801561267b576020820181803683370190505b50905060005b81518110156126f4578383612695816153f0565b9450815181106126a7576126a7615451565b602001015160f860020a900460f860020a028282815181106126cb576126cb615451565b6020010190600160f860020a031916908160001a905350806126ec816153f0565b915050612681565b50949350505050565b60006060825b85518110156127a35785818151811061271e5761271e615451565b602002602001015185878360016127359190615322565b8151811061274557612745615451565b602002602001015160405160200161275f93929190614fec565b604051602081830303815290604052915060208251116127875761278282615384565b61278f565b815160208301205b945061279c600282615322565b9050612703565b5092949350505050565b6000815160086127bd919061534e565b6127c99061010061536d565b6127d283615384565b60029190910a900492915050565b60008082602001518360400151846060015185608001518660a001518760c001518860e001518961010001518a610160015160405160200161282a99989796959493929190614e6f565b60408051601f1981840301815291905280516020909101209392505050565b60006128576175308861533a565b9050600061286887878686866128d2565b90506128768560001961533a565b8111156128c85760405160e560020a62461bcd02815260206004820152601960248201527f45746861736820646966666963756c747920746f6f206c6f770000000000000060448201526064016108b8565b5050505050505050565b6000806128df8787612bbf565b90506128e9614453565b6128f1614472565b6000858152601060205260408120610201810154610200909101549091808261295f5760405160e560020a62461bcd02815260206004820152601160248201527f45706f636844617461206e6f742073657400000000000000000000000000000060448201526064016108b8565b600091505b60108210156129965760208202878101805191880191825251610200909101528161298e816153f0565b925050612964565b600091505b6040821015612b1f57865160009084906129d7908518896129bd60208861540b565b602081106129cd576129cd615451565b6020020151612c66565b6129e1919061540b565b90506129ed8a82612c86565b6129fa82858f8f8a612ceb565b14612a4a5760405160e560020a62461bcd02815260206004820152600a60248201527f506f57206661696c65640000000000000000000000000000000000000000000060448201526064016108b8565b600091505b6008821015612b0c57602060808481028e0182810180519386028b01805163ffffffff9586166301000193918202188616825260408401805161010084018051918916918402919091188816905260608501805161020085018051918a16918502919091188916905294909501805161030090930180519388169390920292909218909516909452805164010000000090819004909152825181900490925280518290049052815104905281612b04816153f0565b925050612a4f565b5081612b17816153f0565b92505061299b565b600091505b6020821015612ba457612b71612b65612b59888560208110612b4857612b48615451565b6020020151896129bd876001615322565b886129bd866002615322565b876129bd856003615322565b85612b7d60048561533a565b60088110612b8d57612b8d615451565b6020020152612b9d600483615322565b9150612b24565b612bae8786612ec6565b9d9c50505050505050505050505050565b612bc7614491565b612bcf6144b0565b612bd8846131fe565b67ffffffffffffffff811682529350612bfa680100000000000000008561533a565b67ffffffffffffffff811660208301529350612c1f680100000000000000008561533a565b67ffffffffffffffff811660408301529350612c44680100000000000000008561533a565b67ffffffffffffffff8116606083015260808201849052935061249b81613240565b600081612c7784630100019361534e565b1863ffffffff16905092915050565b6000828152601060205260408120610201810154600290810a840491839183046102008110612cb757612cb7615451565b01549050612cc660028361540b565b612cdc576001608060020a031691506108269050565b608060020a9004949350505050565b600080612cf88587613555565b6001608060020a03169050600080808080612d1460028961540b565b6002909804971190506000612d29888c61534e565b90508115612d3e57612d3b8b82615322565b90505b60005b88811015612e395760208282010260208b01015193508c60011660001415612d77578695506001608060020a0384169450612d87565b6001608060020a03841695508694505b604080516020810188905290810186905260600160408051601f1981840301815291905280516020909101206002909d049c6001608060020a0316965060018d16612ddd57869550608060020a84049450612dea565b608060020a840495508694505b604080516020810188905290810186905260600160408051601f1981840301815291905280516020909101206002909d049c6001608060020a0316965080612e31816153f0565b915050612d41565b8215612eb55760208282010260208b01015193508c60011660001415612e6d578695506001608060020a0384169450612e7d565b6001608060020a03841695508694505b604080516020810188905290810186905260600160408051601f1981840301815291905280516020909101206001608060020a031696505b50949b9a5050505050505050505050565b6000808360076020020151612ee8906c0100000000000000000000000061534e565b60c0850151612f00906801000000000000000061534e565b60a0860151612f149064010000000061534e565b6080870151612f239190615322565b612f2d9190615322565b612f379190615322565b612f4590608060020a61534e565b6060850151612f61906c0100000000000000000000000061534e565b6040860151612f79906801000000000000000061534e565b6020870151612f8d9064010000000061534e565b8751612f999190615322565b612fa39190615322565b612fad9190615322565b612fb79190615322565b9050600084600f6020020151612fda906c0100000000000000000000000061534e565b6101c0860151612ff3906801000000000000000061534e565b6101a08701516130089064010000000061534e565b6101808801516130189190615322565b6130229190615322565b61302c9190615322565b61303a90608060020a61534e565b610160860151613057906c0100000000000000000000000061534e565b610140870151613070906801000000000000000061534e565b6101208801516130859064010000000061534e565b6101008901516130959190615322565b61309f9190615322565b6130a99190615322565b6130b39190615322565b9050600084600760200201516130d6906c0100000000000000000000000061534e565b60c08601516130ee906801000000000000000061534e565b60a08701516131029064010000000061534e565b60808801516131119190615322565b61311b9190615322565b6131259190615322565b61313390608060020a61534e565b606086015161314f906c0100000000000000000000000061534e565b6040870151613167906801000000000000000061534e565b602088015161317b9064010000000061534e565b88516131879190615322565b6131919190615322565b61319b9190615322565b6131a59190615322565b90506131b0836131fe565b6131b9836131fe565b6131c2836131fe565b604080516020810194909452830191909152606082015260800160408051808303601f1901815291905280516020909101209695505050505050565b60008060005b60208110156132395761321e60ff85166101008402615322565b61010090940493915080613231816153f0565b915050613204565b5092915050565b613248614491565b6132546009600861534e565b6048146132a65760405160e560020a62461bcd02815260206004820152600c60248201527f73706f6e6765206572726f72000000000000000000000000000000000000000060448201526064016108b8565b600160a08301526780000000000000006101008301526048600860006132cd60098361534e565b90506132d76144cf565b600080805b6132e6878661533a565b83101561340957600091505b60058210156133ec575060005b60058110156133da57613312868861533a565b61331d83600561534e565b6133279083615322565b10156133c8578861333983600561534e565b8261334586600961534e565b61334f9190615322565b6133599190615322565b6009811061336957613369615451565b6020020151848361337b84600561534e565b6133859190615322565b6019811061339557613395615451565b60200201511884836133a884600561534e565b6133b29190615322565b601981106133c2576133c2615451565b60200201525b806133d2816153f0565b9150506132ff565b816133e4816153f0565b9250506132f2565b6133f584613656565b935082613401816153f0565b9350506132dc565b613411614491565b60005b601081101561354757600093505b600584101561354257600092505b600583101561353057613443888a61533a565b61344e85600561534e565b6134589085615322565b1080156134655750601081105b1561351e57858461347785600561534e565b6134819190615322565b6019811061349157613491615451565b602002015163ffffffff168282601081106134ae576134ae615451565b602002015264010000000086856134c686600561534e565b6134d09190615322565b601981106134e0576134e0615451565b60200201516134ef919061533a565b826134fb836001615322565b6010811061350b5761350b615451565b602002015261351b600282615322565b90505b82613528816153f0565b935050613430565b8361353a816153f0565b945050613422565b613414565b509998505050505050505050565b60008261356383600461534e565b8151811061357357613573615451565b602002602001015183836004613589919061534e565b613594906001615322565b815181106135a4576135a4615451565b6020026020010151848460046135ba919061534e565b6135c5906002615322565b815181106135d5576135d5615451565b6020026020010151858560046135eb919061534e565b6135f6906003615322565b8151811061360657613606615451565b6020026020010151604051602001613637949392919093845260208401929092526040830152606082015260800190565b60408051808303601f1901815291905280516020909101209392505050565b61365e6144cf565b6136666144cf565b61366e6144ee565b6136766144ee565b600060405180610300016040528060018152602001618082815260200167800000000000808a8152602001678000000080008000815260200161808b81526020016380000001815260200167800000008000808181526020016780000000000080098152602001608a81526020016088815260200163800080098152602001638000000a8152602001638000808b815260200167800000000000008b8152602001678000000000008089815260200167800000000000800381526020016780000000000080028152602001678000000000000080815260200161800a815260200167800000008000000a81526020016780000000800080818152602001678000000000008080815260200163800000018152602001678000000080008008815250905060005b6018811015614417576080808801516060808a01516040808c01516020808e01518e511890911890921890931888526101208b01516101008c015160e08d015160c08e015160a08f0151181818189088018190526101c08b01516101a08c01516101808d01516101608e01516101408f015118181818928801929092526102608a01516102408b01516102208c01516102008d01516101e08e015118181818908701526103008901516102e08a01516102c08b01516102a08c01516102808d0151181818189186019190915261387b906780000000000000009061533a565b602085015161388b90600261534e565b608086015167ffffffffffffffff919091169190911718835260408401516138bc906780000000000000009061533a565b60408501516138cc90600261534e565b855167ffffffffffffffff919091169190911718602084015260608401516138fd906780000000000000009061533a565b606085015161390d90600261534e565b67ffffffffffffffff161784600160200201511883600260200201526780000000000000008460046020020151613944919061533a565b608085015161395490600261534e565b604086015167ffffffffffffffff91909116919091171860608401528351613985906780000000000000009061533a565b845161399290600261534e565b60608087015167ffffffffffffffff929092169290921718608080860191825285518a5118808b52865160208c81018051909218825288516040808f01805190921890915289518e8801805190911890528951948e0180519095189094528801805160a08e0180519091189052805160c08e0180519091189052805160e08e018051909118905280516101008e0180519091189052516101208d018051909118905291870180516101408d018051909118905280516101608d018051909118905280516101808d018051909118905280516101a08d0180519091189052516101c08c018051909118905292860180516101e08c018051909118905280516102008c018051909118905280516102208c018051909118905280516102408c0180519091189052516102608b018051909118905281516102808b018051909118905281516102a08b018051909118905281516102c08b018051909118905281516102e08b018051909118905290516103008a018051909118905290865251613b1d9063100000009061533a565b6020880151613b319064100000000061534e565b67ffffffffffffffff16176101008601526040870151613b5a906720000000000000009061533a565b6040880151613b6a90600861534e565b67ffffffffffffffff16176101608601526060870151613b8e90628000009061533a565b6060880151613ba3906502000000000061534e565b67ffffffffffffffff16176102608601526080870151613bca90654000000000009061533a565b6080880151613bdc906204000061534e565b67ffffffffffffffff16176102c086015260a0870151613c05906780000000000000009061533a565b60a0880151613c1590600261534e565b67ffffffffffffffff1617604086015260c0870151613c3890621000009061533a565b60c0880151613c4d906510000000000061534e565b67ffffffffffffffff161760a086015260e0870151613c749066400000000000009061533a565b60e0880151613c859061040061534e565b67ffffffffffffffff16176101a0860152610100870151613caa90620800009061533a565b610100880151613cc0906520000000000061534e565b67ffffffffffffffff1617610200860152610120870151613cea906740000000000000009061533a565b610120880151613cfb90600461534e565b67ffffffffffffffff1617610300860152610140870151613d1e9060049061533a565b610140880151613d369067400000000000000061534e565b67ffffffffffffffff16176080860152610160870151613d5f906704000000000000009061533a565b610160880151613d7090604061534e565b67ffffffffffffffff161760e0860152610180870151613d9490622000009061533a565b610180880151613daa906508000000000061534e565b67ffffffffffffffff16176101408601526101a0870151613dd39066020000000000009061533a565b6101a0880151613de59061800061534e565b67ffffffffffffffff16176102408601526101c0870151613e089060089061533a565b6101c0880151613e209067200000000000000061534e565b67ffffffffffffffff16176102a08601526101e0870151613e47906410000000009061533a565b6101e0880151613e5b90631000000061534e565b67ffffffffffffffff1617602086015261020087810151613e7c919061533a565b610200880151613e9390668000000000000061534e565b67ffffffffffffffff1617610120860152610220870151613eba906480000000009061533a565b610220880151613ece90630200000061534e565b67ffffffffffffffff1617610180860152610240870151613ef690650800000000009061533a565b610240880151613f09906220000061534e565b67ffffffffffffffff16176101e0860152610260870151613f2d906101009061533a565b610260880151613f459067010000000000000061534e565b67ffffffffffffffff16176102e0860152610280870151613f6c906420000000009061533a565b610280880151613f8090630800000061534e565b67ffffffffffffffff161760608601526102a0870151613fa790651000000000009061533a565b6102a0880151613fba906210000061534e565b67ffffffffffffffff161760c08601526102c0870151613fdf9063020000009061533a565b6102c0880151613ff49064800000000061534e565b67ffffffffffffffff16176101c08601526102e087015161401e906701000000000000009061533a565b6102e08801516140309061010061534e565b67ffffffffffffffff16176102208601526103008701516140599066040000000000009061533a565b61030088015161406b9061400061534e565b67ffffffffffffffff1617856014602002015284600a602002015185600560200201511916856000602002015118876000602002015284600b602002015185600660200201511916856001602002015118876001602002015284600c602002015185600760200201511916856002602002015118876002602002015284600d602002015185600860200201511916856003602002015118876003602002015284600e602002015185600960200201511916856004602002015118876004602002015284600f602002015185600a602002015119168560056020020151188760056020020152846010602002015185600b602002015119168560066020020151188760066020020152846011602002015185600c602002015119168560076020020151188760076020020152846012602002015185600d602002015119168560086020020151188760086020020152846013602002015185600e602002015119168560096020020151188760096020020152846014602002015185600f6020020151191685600a60200201511887600a602002015284601560200201518560106020020151191685600b60200201511887600b602002015284601660200201518560116020020151191685600c60200201511887600c602002015284601760200201518560126020020151191685600d60200201511887600d602002015284601860200201518560136020020151191685600e60200201511887600e602002015284600060200201518560146020020151191685600f60200201511887600f60200201528460016020020151856015602002015119168560106020020151188760106020020152846002602002015185601660200201511916856011602002015118876011602002015284600360200201518560176020020151191685601260200201511887601260200201528460046020020151856018602002015119168560136020020151188760136020020152846005602002015185600060200201511916856014602002015118876014602002015284600660200201518560016020020151191685601560200201511887601560200201528460076020020151856002602002015119168560166020020151188760166020020152846008602002015185600360200201511916856017602002015118876017602002015284600960200201518560046020020151191685601860200201511887601860200201528181601881106143fb576143fb615451565b602002015187511887528061440f816153f0565b91505061379c565b509495945050505050565b5080546000825560030290600052602060002090810190610b2b919061450c565b50610b2b90610200810190614543565b6040518061040001604052806020906020820280368337509192915050565b6040518061010001604052806008906020820280368337509192915050565b6040518061020001604052806010906020820280368337509192915050565b6040518061012001604052806009906020820280368337509192915050565b6040518061032001604052806019906020820280368337509192915050565b6040518060a001604052806005906020820280368337509192915050565b5b8082111561453f578054600160a060020a0319908116825560018201805490911690556000600282015560030161450d565b5090565b5b8082111561453f5760008155600101614544565b600082601f83011261456957600080fd5b8135602061457e614579836152fe565b6152cd565b828152818101908583018385028701840188101561459b57600080fd5b60005b858110156145c35781356145b181615483565b8452928401929084019060010161459e565b5090979650505050505050565b600082601f8301126145e157600080fd5b813560206145f1614579836152fe565b8281528181019085830160608086028801850189101561461057600080fd5b6000805b8781101561466c5782848c03121561462a578182fd5b61463261525d565b843561463d81615483565b81528488013561464c81615483565b818901526040858101359082015286529486019492820192600101614614565b50929998505050505050505050565b600082601f83011261468c57600080fd5b8135602061469c614579836152fe565b82815281810190858301838502870184018810156146b957600080fd5b60005b858110156145c3578135845292840192908401906001016146bc565b80357cffffffffffffffffffffffffffffffffffffffffffffffffffffffffff198116811461470657600080fd5b919050565b600082601f83011261471c57600080fd5b813567ffffffffffffffff8111156147365761473661546a565b614749601f8201601f19166020016152cd565b81815284602083860101111561475e57600080fd5b816020850160208301376000918101602001919091529392505050565b60006060828403121561478d57600080fd5b61479561525d565b9050813567ffffffffffffffff808211156147af57600080fd5b818401915084601f8301126147c357600080fd5b813560206147d3614579836152fe565b82815281810190858301838502870184018a10156147f057600080fd5b60005b8581101561482b5781358781111561480a57600080fd5b6148188c87838c010161470b565b85525092840192908401906001016147f3565b5050865250858101359085015250604084013591508082111561484d57600080fd5b5061485a848285016145d0565b60408301525092915050565b60006020828403121561487857600080fd5b81356123a781615483565b6000806040838503121561489657600080fd5b82356148a181615483565b915060208301356148b181615483565b809150509250929050565b600080600080608085870312156148d257600080fd5b84356148dd81615483565b935060208501356148ed81615483565b925060408501359150606085013561490481615498565b939692955090935050565b60006020828403121561492157600080fd5b813567ffffffffffffffff81111561493857600080fd5b61249b84828501614558565b6000806040838503121561495757600080fd5b823567ffffffffffffffff8082111561496f57600080fd5b61497b86838701614558565b9350602085013591508082111561499157600080fd5b5061499e85828601614558565b9150509250929050565b6000602082840312156149ba57600080fd5b81516123a781615498565b6000602082840312156149d757600080fd5b5035919050565b600080604083850312156149f157600080fd5b8235915060208301356148b181615483565b600060208284031215614a1557600080fd5b81357bffffffffffffffffffffffffffffffffffffffffffffffffffffffff19811681146123a757600080fd5b60006020808385031215614a5557600080fd5b67ffffffffffffffff8084351115614a6c57600080fd5b8335840160408187031215614a8057600080fd5b614a88615286565b8282351115614a9657600080fd5b8135820187601f820112614aa957600080fd5b614ab661457982356152fe565b808235825286820191508683018a88898635028601011115614ad757600080fd5b60005b8435811015614cfd578782351115614af157600080fd5b813585016101c0818e03601f19011215614b0a57600080fd5b614b126152a9565b614b1d8b83016146d8565b8152614b2b604083016146d8565b8b82015260608201358a811115614b4157600080fd5b614b4f8f8d8386010161470b565b6040830152506080820135606082015260a08201358a811115614b7157600080fd5b614b7f8f8d8386010161470b565b60808301525060c08201358a811115614b9757600080fd5b614ba58f8d8386010161470b565b60a0830152508960e08301351115614bbc57600080fd5b614bce8e8c60e085013585010161470b565b60c08201526101008201358a811115614be657600080fd5b614bf48f8d8386010161470b565b60e0830152506101208201358a811115614c0d57600080fd5b614c1b8f8d8386010161470b565b610100830152506101408201358a811115614c3557600080fd5b614c438f8d8386010161470b565b610120830152506101608201358a811115614c5d57600080fd5b614c6b8f8d8386010161470b565b610140830152506101808201358a811115614c8557600080fd5b614c938f8d8386010161470b565b610160830152506101a08201358a811115614cad57600080fd5b614cbb8f8d8386010161467b565b610180830152506101c08201358a811115614cd557600080fd5b614ce38f8d8386010161467b565b6101a0830152508552509288019290880190600101614ada565b5050835250508184013583811115614d1457600080fd5b614d208882850161477b565b948201949094529695505050505050565b60008060008060808587031215614d4757600080fd5b843593506020850135925060408501359150606085013567ffffffffffffffff811115614d7357600080fd5b614d7f8782880161467b565b91505092959194509250565b600081518084526020808501945080840160005b838110156144175781518051600160a060020a0390811689528482015116848901526040908101519088015260609096019590820190600101614d9f565b7cffffffffffffffffffffffffffffffffffffffffffffffffffffffffff198716815260008651614e15816003850160208b016153ad565b80830190508660038201528551614e33816023840160208a016153ad565b8551910190614e498160238401602089016153ad565b8451910190614e5f8160238401602088016153ad565b0160230198975050505050505050565b7cffffffffffffffffffffffffffffffffffffffffffffffffffffffffff198a168152600089516020614ea88260038601838f016153ad565b81840191508a600383015260238a51614ec681838601858f016153ad565b8a51930192614eda81838601858e016153ad565b8951930192614eee81838601858d016153ad565b8851930192614f0281838601858c016153ad565b8751930192614f1681838601858b016153ad565b8651930192614f2a81838601858a016153ad565b929092019091019c9b505050505050505050505050565b600088516020614f548285838e016153ad565b81840191506c01000000000000000000000000600160a060020a038b1602825260148951614f8781838601858e016153ad565b8951930192614f9b81838601858d016153ad565b8851930192614faf81838601858c016153ad565b8751930192614fc381838601858b016153ad565b8651930192614fd781838601858a016153ad565b929092019091019a9950505050505050505050565b60008451614ffe8184602089016153ad565b820184815283516150168160208085019088016153ad565b0160200195945050505050565b600083516150358184602088016153ad565b8351908301906150498183602088016153ad565b01949350505050565b60008651615064818460208b016153ad565b865190830190615078818360208b016153ad565b865191019061508b818360208a016153ad565b855191019061509e8183602089016153ad565b84519101906150b18183602088016153ad565b01979650505050505050565b7f416363657373436f6e74726f6c3a206163636f756e74200000000000000000008152600083516150f58160178501602088016153ad565b7f206973206d697373696e6720726f6c652000000000000000000000000000000060179184019182015283516151328160288401602088016153ad565b01602801949350505050565b6020815260006123a76020830184614d8b565b60006020808301818452808554808352604092508286019150866000528360002060005b828110156151b4578154600160a060020a0390811685526001808401549091168786015260028301548686015260609094019360039092019101615175565b5091979650505050505050565b60208152600082518060208401526151e08160408501602087016153ad565b601f01601f19169190910160400192915050565b60208082526010908201527f5061757361626c653a2070617573656400000000000000000000000000000000604082015260600190565b6020815260008251604060208401526152476060840182614d8b565b9050602084015160408401528091505092915050565b6040516060810167ffffffffffffffff811182821017156152805761528061546a565b60405290565b6040805190810167ffffffffffffffff811182821017156152805761528061546a565b6040516101c0810167ffffffffffffffff811182821017156152805761528061546a565b604051601f8201601f1916810167ffffffffffffffff811182821017156152f6576152f661546a565b604052919050565b600067ffffffffffffffff8211156153185761531861546a565b5060209081020190565b600082198211156153355761533561541f565b500190565b60008261534957615349615438565b500490565b60008160001904831182151516156153685761536861541f565b500290565b60008282101561537f5761537f61541f565b500390565b805160208083015191908110156153a7578060200360080260020a600003821691505b50919050565b60005b838110156153c85781810151838201526020016153b0565b83811115610bcc5750506000910152565b6000816153e8576153e861541f565b506000190190565b60006000198214156154045761540461541f565b5060010190565b60008261541a5761541a615438565b500690565b60e060020a634e487b7102600052601160045260246000fd5b60e060020a634e487b7102600052601260045260246000fd5b60e060020a634e487b7102600052603260045260246000fd5b60e060020a634e487b7102600052604160045260246000fd5b600160a060020a0381168114610b2b57600080fd5b8015158114610b2b57600080fdfea49807205ce4d355092ef5a8a18f56e8913cf4a201fbe287825b095693c21775a26469706673582212200fbedb01ec06262568733d6a10a87095dbeb0d4acca2e6bea7c1aa53456a24be64736f6c63430008060033",
  "devdoc": {
    "kind": "dev",
    "methods": {
      "getRoleAdmin(bytes32)": {
        "details": "Returns the admin role that controls `role`. See {grantRole} and {revokeRole}. To change a role's admin, use {_setRoleAdmin}."
      },
      "grantRole(bytes32,address)": {
        "details": "Grants `role` to `account`. If `account` had not been already granted `role`, emits a {RoleGranted} event. Requirements: - the caller must have ``role``'s admin role."
      },
      "hasRole(bytes32,address)": {
        "details": "Returns `true` if `account` has been granted `role`."
      },
      "paused()": {
        "details": "Returns true if the contract is paused, and false otherwise."
      },
      "renounceRole(bytes32,address)": {
        "details": "Revokes `role` from the calling account. Roles are often managed via {grantRole} and {revokeRole}: this function's purpose is to provide a mechanism for accounts to lose their privileges if they are compromised (such as when a trusted device is misplaced). If the calling account had been revoked `role`, emits a {RoleRevoked} event. Requirements: - the caller must be `account`."
      },
      "revokeRole(bytes32,address)": {
        "details": "Revokes `role` from `account`. If `account` had been granted `role`, emits a {RoleRevoked} event. Requirements: - the caller must have ``role``'s admin role."
      },
      "supportsInterface(bytes4)": {
        "details": "See {IERC165-supportsInterface}."
      }
    },
    "version": 1
  },
  "userdoc": {
    "kind": "user",
    "methods": {},
    "version": 1
  },
  "storageLayout": {
    "storage": [
      {
        "astId": 24,
        "contract": "contracts/eth/AmbBridge.sol:AmbBridge",
        "label": "_roles",
        "offset": 0,
        "slot": "0",
        "type": "t_mapping(t_bytes32,t_struct(RoleData)19_storage)"
      },
      {
        "astId": 399,
        "contract": "contracts/eth/AmbBridge.sol:AmbBridge",
        "label": "_paused",
        "offset": 0,
        "slot": "1",
        "type": "t_bool"
      },
      {
        "astId": 5488,
        "contract": "contracts/eth/AmbBridge.sol:AmbBridge",
        "label": "queue",
        "offset": 0,
        "slot": "2",
        "type": "t_array(t_struct(Transfer)6332_storage)dyn_storage"
      },
      {
        "astId": 5493,
        "contract": "contracts/eth/AmbBridge.sol:AmbBridge",
        "label": "lockedTransfers",
        "offset": 0,
        "slot": "3",
        "type": "t_mapping(t_uint256,t_struct(LockedTransfers)6349_storage)"
      },
      {
        "astId": 5496,
        "contract": "contracts/eth/AmbBridge.sol:AmbBridge",
        "label": "oldestLockedEventId",
        "offset": 0,
        "slot": "4",
        "type": "t_uint256"
      },
      {
        "astId": 5500,
        "contract": "contracts/eth/AmbBridge.sol:AmbBridge",
        "label": "tokenAddresses",
        "offset": 0,
        "slot": "5",
        "type": "t_mapping(t_address,t_address)"
      },
      {
        "astId": 5502,
        "contract": "contracts/eth/AmbBridge.sol:AmbBridge",
        "label": "wrapperAddress",
        "offset": 0,
        "slot": "6",
        "type": "t_address"
      },
      {
        "astId": 5504,
        "contract": "contracts/eth/AmbBridge.sol:AmbBridge",
        "label": "fee",
        "offset": 0,
        "slot": "7",
        "type": "t_uint256"
      },
      {
        "astId": 5506,
        "contract": "contracts/eth/AmbBridge.sol:AmbBridge",
        "label": "feeRecipient",
        "offset": 0,
        "slot": "8",
        "type": "t_address_payable"
      },
      {
        "astId": 5508,
        "contract": "contracts/eth/AmbBridge.sol:AmbBridge",
        "label": "sideBridgeAddress",
        "offset": 0,
        "slot": "9",
        "type": "t_address"
      },
      {
        "astId": 5510,
        "contract": "contracts/eth/AmbBridge.sol:AmbBridge",
        "label": "minSafetyBlocks",
        "offset": 0,
        "slot": "10",
        "type": "t_uint256"
      },
      {
        "astId": 5512,
        "contract": "contracts/eth/AmbBridge.sol:AmbBridge",
        "label": "timeframeSeconds",
        "offset": 0,
        "slot": "11",
        "type": "t_uint256"
      },
      {
        "astId": 5514,
        "contract": "contracts/eth/AmbBridge.sol:AmbBridge",
        "label": "lockTime",
        "offset": 0,
        "slot": "12",
        "type": "t_uint256"
      },
      {
        "astId": 5516,
        "contract": "contracts/eth/AmbBridge.sol:AmbBridge",
        "label": "inputEventId",
        "offset": 0,
        "slot": "13",
        "type": "t_uint256"
      },
      {
        "astId": 5519,
        "contract": "contracts/eth/AmbBridge.sol:AmbBridge",
        "label": "outputEventId",
        "offset": 0,
        "slot": "14",
        "type": "t_uint256"
      },
      {
        "astId": 5521,
        "contract": "contracts/eth/AmbBridge.sol:AmbBridge",
        "label": "lastTimeframe",
        "offset": 0,
        "slot": "15",
        "type": "t_uint256"
      },
      {
        "astId": 4253,
        "contract": "contracts/eth/AmbBridge.sol:AmbBridge",
        "label": "epochData",
        "offset": 0,
        "slot": "16",
        "type": "t_mapping(t_uint256,t_struct(EthashCacheOptData)4248_storage)"
      }
    ],
    "types": {
      "t_address": {
        "encoding": "inplace",
        "label": "address",
        "numberOfBytes": "20"
      },
      "t_address_payable": {
        "encoding": "inplace",
        "label": "address payable",
        "numberOfBytes": "20"
      },
      "t_array(t_struct(Transfer)6332_storage)dyn_storage": {
        "base": "t_struct(Transfer)6332_storage",
        "encoding": "dynamic_array",
        "label": "struct CommonStructs.Transfer[]",
        "numberOfBytes": "32"
      },
      "t_array(t_uint256)512_storage": {
        "base": "t_uint256",
        "encoding": "inplace",
        "label": "uint256[512]",
        "numberOfBytes": "16384"
      },
      "t_bool": {
        "encoding": "inplace",
        "label": "bool",
        "numberOfBytes": "1"
      },
      "t_bytes32": {
        "encoding": "inplace",
        "label": "bytes32",
        "numberOfBytes": "32"
      },
      "t_mapping(t_address,t_address)": {
        "encoding": "mapping",
        "key": "t_address",
        "label": "mapping(address => address)",
        "numberOfBytes": "32",
        "value": "t_address"
      },
      "t_mapping(t_address,t_bool)": {
        "encoding": "mapping",
        "key": "t_address",
        "label": "mapping(address => bool)",
        "numberOfBytes": "32",
        "value": "t_bool"
      },
      "t_mapping(t_bytes32,t_struct(RoleData)19_storage)": {
        "encoding": "mapping",
        "key": "t_bytes32",
        "label": "mapping(bytes32 => struct AccessControl.RoleData)",
        "numberOfBytes": "32",
        "value": "t_struct(RoleData)19_storage"
      },
      "t_mapping(t_uint256,t_struct(EthashCacheOptData)4248_storage)": {
        "encoding": "mapping",
        "key": "t_uint256",
        "label": "mapping(uint256 => struct Ethash.EthashCacheOptData)",
        "numberOfBytes": "32",
        "value": "t_struct(EthashCacheOptData)4248_storage"
      },
      "t_mapping(t_uint256,t_struct(LockedTransfers)6349_storage)": {
        "encoding": "mapping",
        "key": "t_uint256",
        "label": "mapping(uint256 => struct CommonStructs.LockedTransfers)",
        "numberOfBytes": "32",
        "value": "t_struct(LockedTransfers)6349_storage"
      },
      "t_struct(EthashCacheOptData)4248_storage": {
        "encoding": "inplace",
        "label": "struct Ethash.EthashCacheOptData",
        "members": [
          {
            "astId": 4243,
            "contract": "contracts/eth/AmbBridge.sol:AmbBridge",
            "label": "merkleNodes",
            "offset": 0,
            "slot": "0",
            "type": "t_array(t_uint256)512_storage"
          },
          {
            "astId": 4245,
            "contract": "contracts/eth/AmbBridge.sol:AmbBridge",
            "label": "fullSizeIn128Resultion",
            "offset": 0,
            "slot": "512",
            "type": "t_uint256"
          },
          {
            "astId": 4247,
            "contract": "contracts/eth/AmbBridge.sol:AmbBridge",
            "label": "branchDepth",
            "offset": 0,
            "slot": "513",
            "type": "t_uint256"
          }
        ],
        "numberOfBytes": "16448"
      },
      "t_struct(LockedTransfers)6349_storage": {
        "encoding": "inplace",
        "label": "struct CommonStructs.LockedTransfers",
        "members": [
          {
            "astId": 6346,
            "contract": "contracts/eth/AmbBridge.sol:AmbBridge",
            "label": "transfers",
            "offset": 0,
            "slot": "0",
            "type": "t_array(t_struct(Transfer)6332_storage)dyn_storage"
          },
          {
            "astId": 6348,
            "contract": "contracts/eth/AmbBridge.sol:AmbBridge",
            "label": "endTimestamp",
            "offset": 0,
            "slot": "1",
            "type": "t_uint256"
          }
        ],
        "numberOfBytes": "64"
      },
      "t_struct(RoleData)19_storage": {
        "encoding": "inplace",
        "label": "struct AccessControl.RoleData",
        "members": [
          {
            "astId": 16,
            "contract": "contracts/eth/AmbBridge.sol:AmbBridge",
            "label": "members",
            "offset": 0,
            "slot": "0",
            "type": "t_mapping(t_address,t_bool)"
          },
          {
            "astId": 18,
            "contract": "contracts/eth/AmbBridge.sol:AmbBridge",
            "label": "adminRole",
            "offset": 0,
            "slot": "1",
            "type": "t_bytes32"
          }
        ],
        "numberOfBytes": "64"
      },
      "t_struct(Transfer)6332_storage": {
        "encoding": "inplace",
        "label": "struct CommonStructs.Transfer",
        "members": [
          {
            "astId": 6327,
            "contract": "contracts/eth/AmbBridge.sol:AmbBridge",
            "label": "tokenAddress",
            "offset": 0,
            "slot": "0",
            "type": "t_address"
          },
          {
            "astId": 6329,
            "contract": "contracts/eth/AmbBridge.sol:AmbBridge",
            "label": "toAddress",
            "offset": 0,
            "slot": "1",
            "type": "t_address"
          },
          {
            "astId": 6331,
            "contract": "contracts/eth/AmbBridge.sol:AmbBridge",
            "label": "amount",
            "offset": 0,
            "slot": "2",
            "type": "t_uint256"
          }
        ],
        "numberOfBytes": "96"
      },
      "t_uint256": {
        "encoding": "inplace",
        "label": "uint256",
        "numberOfBytes": "32"
      }
    }
  }
}