{
  "address": "0x572093975B3092168A2151f2b523206409A35fE7",
  "abi": [
    {
      "anonymous": false,
      "inputs": [
        {
          "indexed": false,
          "internalType": "address",
          "name": "account",
          "type": "address"
        }
      ],
      "name": "Paused",
      "type": "event"
    },
    {
      "anonymous": false,
      "inputs": [
        {
          "indexed": true,
          "internalType": "bytes32",
          "name": "role",
          "type": "bytes32"
        },
        {
          "indexed": true,
          "internalType": "bytes32",
          "name": "previousAdminRole",
          "type": "bytes32"
        },
        {
          "indexed": true,
          "internalType": "bytes32",
          "name": "newAdminRole",
          "type": "bytes32"
        }
      ],
      "name": "RoleAdminChanged",
      "type": "event"
    },
    {
      "anonymous": false,
      "inputs": [
        {
          "indexed": true,
          "internalType": "bytes32",
          "name": "role",
          "type": "bytes32"
        },
        {
          "indexed": true,
          "internalType": "address",
          "name": "account",
          "type": "address"
        },
        {
          "indexed": true,
          "internalType": "address",
          "name": "sender",
          "type": "address"
        }
      ],
      "name": "RoleGranted",
      "type": "event"
    },
    {
      "anonymous": false,
      "inputs": [
        {
          "indexed": true,
          "internalType": "bytes32",
          "name": "role",
          "type": "bytes32"
        },
        {
          "indexed": true,
          "internalType": "address",
          "name": "account",
          "type": "address"
        },
        {
          "indexed": true,
          "internalType": "address",
          "name": "sender",
          "type": "address"
        }
      ],
      "name": "RoleRevoked",
      "type": "event"
    },
    {
      "anonymous": false,
      "inputs": [
        {
          "indexed": true,
          "internalType": "uint256",
          "name": "eventId",
          "type": "uint256"
        },
        {
          "components": [
            {
              "internalType": "address",
              "name": "tokenAddress",
              "type": "address"
            },
            {
              "internalType": "address",
              "name": "toAddress",
              "type": "address"
            },
            {
              "internalType": "uint256",
              "name": "amount",
              "type": "uint256"
            }
          ],
          "indexed": false,
          "internalType": "struct CommonStructs.Transfer[]",
          "name": "queue",
          "type": "tuple[]"
        }
      ],
      "name": "Transfer",
      "type": "event"
    },
    {
      "anonymous": false,
      "inputs": [
        {
          "indexed": true,
          "internalType": "uint256",
          "name": "eventId",
          "type": "uint256"
        }
      ],
      "name": "TransferFinish",
      "type": "event"
    },
    {
      "anonymous": false,
      "inputs": [
        {
          "indexed": true,
          "internalType": "uint256",
          "name": "eventId",
          "type": "uint256"
        }
      ],
      "name": "TransferSubmit",
      "type": "event"
    },
    {
      "anonymous": false,
      "inputs": [
        {
          "indexed": false,
          "internalType": "address",
          "name": "account",
          "type": "address"
        }
      ],
      "name": "Unpaused",
      "type": "event"
    },
    {
      "anonymous": false,
      "inputs": [
        {
          "indexed": true,
          "internalType": "address",
          "name": "from",
          "type": "address"
        },
        {
          "indexed": false,
          "internalType": "uint256",
          "name": "eventId",
          "type": "uint256"
        },
        {
          "indexed": false,
          "internalType": "address",
          "name": "tokenFrom",
          "type": "address"
        },
        {
          "indexed": false,
          "internalType": "address",
          "name": "tokenTo",
          "type": "address"
        },
        {
          "indexed": false,
          "internalType": "uint256",
          "name": "amount",
          "type": "uint256"
        },
        {
          "indexed": false,
          "internalType": "uint256",
          "name": "transferFeeAmount",
          "type": "uint256"
        },
        {
          "indexed": false,
          "internalType": "uint256",
          "name": "bridgeFeeAmount",
          "type": "uint256"
        }
      ],
      "name": "Withdraw",
      "type": "event"
    },
    {
      "inputs": [],
      "name": "ADMIN_ROLE",
      "outputs": [
        {
          "internalType": "bytes32",
          "name": "",
          "type": "bytes32"
        }
      ],
      "stateMutability": "view",
      "type": "function"
    },
    {
      "inputs": [],
      "name": "DEFAULT_ADMIN_ROLE",
      "outputs": [
        {
          "internalType": "bytes32",
          "name": "",
          "type": "bytes32"
        }
      ],
      "stateMutability": "view",
      "type": "function"
    },
    {
      "inputs": [],
      "name": "RELAY_ROLE",
      "outputs": [
        {
          "internalType": "bytes32",
          "name": "",
          "type": "bytes32"
        }
      ],
      "stateMutability": "view",
      "type": "function"
    },
    {
      "inputs": [
        {
          "internalType": "address payable",
          "name": "feeRecipient_",
          "type": "address"
        }
      ],
      "name": "changeBridgeFeeRecipient",
      "outputs": [],
      "stateMutability": "nonpayable",
      "type": "function"
    },
    {
      "inputs": [
        {
          "internalType": "uint256",
          "name": "lockTime_",
          "type": "uint256"
        }
      ],
      "name": "changeLockTime",
      "outputs": [],
      "stateMutability": "nonpayable",
      "type": "function"
    },
    {
      "inputs": [
        {
          "internalType": "uint256",
          "name": "minSafetyBlocks_",
          "type": "uint256"
        }
      ],
      "name": "changeMinSafetyBlocks",
      "outputs": [],
      "stateMutability": "nonpayable",
      "type": "function"
    },
    {
      "inputs": [
        {
          "internalType": "uint256",
          "name": "minSafetyBlocksValidators_",
          "type": "uint256"
        }
      ],
      "name": "changeMinSafetyBlocksValidators",
      "outputs": [],
      "stateMutability": "nonpayable",
      "type": "function"
    },
    {
      "inputs": [
        {
          "internalType": "uint256",
          "name": "signatureFeeCheckNumber_",
          "type": "uint256"
        }
      ],
      "name": "changeSignatureFeeCheckNumber",
      "outputs": [],
      "stateMutability": "nonpayable",
      "type": "function"
    },
    {
      "inputs": [
        {
          "internalType": "uint256",
          "name": "timeframeSeconds_",
          "type": "uint256"
        }
      ],
      "name": "changeTimeframeSeconds",
      "outputs": [],
      "stateMutability": "nonpayable",
      "type": "function"
    },
    {
      "inputs": [
        {
          "internalType": "address payable",
          "name": "feeRecipient_",
          "type": "address"
        }
      ],
      "name": "changeTransferFeeRecipient",
      "outputs": [],
      "stateMutability": "nonpayable",
      "type": "function"
    },
    {
      "inputs": [
        {
          "internalType": "uint256",
          "name": "eventId",
          "type": "uint256"
        }
      ],
      "name": "getLockedTransfers",
      "outputs": [
        {
          "components": [
            {
              "components": [
                {
                  "internalType": "address",
                  "name": "tokenAddress",
                  "type": "address"
                },
                {
                  "internalType": "address",
                  "name": "toAddress",
                  "type": "address"
                },
                {
                  "internalType": "uint256",
                  "name": "amount",
                  "type": "uint256"
                }
              ],
              "internalType": "struct CommonStructs.Transfer[]",
              "name": "transfers",
              "type": "tuple[]"
            },
            {
              "internalType": "uint256",
              "name": "endTimestamp",
              "type": "uint256"
            }
          ],
          "internalType": "struct CommonStructs.LockedTransfers",
          "name": "",
          "type": "tuple"
        }
      ],
      "stateMutability": "view",
      "type": "function"
    },
    {
      "inputs": [
        {
          "internalType": "bytes32",
          "name": "role",
          "type": "bytes32"
        }
      ],
      "name": "getRoleAdmin",
      "outputs": [
        {
          "internalType": "bytes32",
          "name": "",
          "type": "bytes32"
        }
      ],
      "stateMutability": "view",
      "type": "function"
    },
    {
      "inputs": [],
      "name": "getValidatorSet",
      "outputs": [
        {
          "internalType": "address[]",
          "name": "",
          "type": "address[]"
        }
      ],
      "stateMutability": "view",
      "type": "function"
    },
    {
      "inputs": [
        {
          "internalType": "bytes32",
          "name": "role",
          "type": "bytes32"
        },
        {
          "internalType": "address",
          "name": "account",
          "type": "address"
        }
      ],
      "name": "grantRole",
      "outputs": [],
      "stateMutability": "nonpayable",
      "type": "function"
    },
    {
      "inputs": [
        {
          "internalType": "bytes32",
          "name": "role",
          "type": "bytes32"
        },
        {
          "internalType": "address",
          "name": "account",
          "type": "address"
        }
      ],
      "name": "hasRole",
      "outputs": [
        {
          "internalType": "bool",
          "name": "",
          "type": "bool"
        }
      ],
      "stateMutability": "view",
      "type": "function"
    },
    {
      "inputs": [
        {
          "components": [
            {
              "internalType": "address",
              "name": "sideBridgeAddress",
              "type": "address"
            },
            {
              "internalType": "address",
              "name": "adminAddress",
              "type": "address"
            },
            {
              "internalType": "address",
              "name": "relayAddress",
              "type": "address"
            },
            {
              "internalType": "address",
              "name": "wrappingTokenAddress",
              "type": "address"
            },
            {
              "internalType": "address[]",
              "name": "tokenThisAddresses",
              "type": "address[]"
            },
            {
              "internalType": "address[]",
              "name": "tokenSideAddresses",
              "type": "address[]"
            },
            {
              "internalType": "address payable",
              "name": "transferFeeRecipient",
              "type": "address"
            },
            {
              "internalType": "address payable",
              "name": "bridgeFeeRecipient",
              "type": "address"
            },
            {
              "internalType": "uint256",
              "name": "timeframeSeconds",
              "type": "uint256"
            },
            {
              "internalType": "uint256",
              "name": "lockTime",
              "type": "uint256"
            },
            {
              "internalType": "uint256",
              "name": "minSafetyBlocks",
              "type": "uint256"
            }
          ],
          "internalType": "struct CommonStructs.ConstructorArgs",
          "name": "args",
          "type": "tuple"
        },
        {
          "internalType": "address[]",
          "name": "initialValidators",
          "type": "address[]"
        },
        {
          "internalType": "address",
          "name": "validatorSetAddress",
          "type": "address"
        },
        {
          "internalType": "bytes32",
          "name": "lastProcessedBlock",
          "type": "bytes32"
        },
        {
          "internalType": "uint256",
          "name": "minSafetyBlocksValidators",
          "type": "uint256"
        }
      ],
      "name": "initialize",
      "outputs": [],
      "stateMutability": "nonpayable",
      "type": "function"
    },
    {
      "inputs": [],
      "name": "inputEventId",
      "outputs": [
        {
          "internalType": "uint256",
          "name": "",
          "type": "uint256"
        }
      ],
      "stateMutability": "view",
      "type": "function"
    },
    {
      "inputs": [],
      "name": "isQueueEmpty",
      "outputs": [
        {
          "internalType": "bool",
          "name": "",
          "type": "bool"
        }
      ],
      "stateMutability": "view",
      "type": "function"
    },
    {
      "inputs": [],
      "name": "lastProcessedBlock",
      "outputs": [
        {
          "internalType": "bytes32",
          "name": "",
          "type": "bytes32"
        }
      ],
      "stateMutability": "view",
      "type": "function"
    },
    {
      "inputs": [],
      "name": "lastTimeframe",
      "outputs": [
        {
          "internalType": "uint256",
          "name": "",
          "type": "uint256"
        }
      ],
      "stateMutability": "view",
      "type": "function"
    },
    {
      "inputs": [],
      "name": "lockTime",
      "outputs": [
        {
          "internalType": "uint256",
          "name": "",
          "type": "uint256"
        }
      ],
      "stateMutability": "view",
      "type": "function"
    },
    {
      "inputs": [
        {
          "internalType": "uint256",
          "name": "",
          "type": "uint256"
        }
      ],
      "name": "lockedTransfers",
      "outputs": [
        {
          "internalType": "uint256",
          "name": "endTimestamp",
          "type": "uint256"
        }
      ],
      "stateMutability": "view",
      "type": "function"
    },
    {
      "inputs": [],
      "name": "minSafetyBlocks",
      "outputs": [
        {
          "internalType": "uint256",
          "name": "",
          "type": "uint256"
        }
      ],
      "stateMutability": "view",
      "type": "function"
    },
    {
      "inputs": [],
      "name": "minSafetyBlocksValidators",
      "outputs": [
        {
          "internalType": "uint256",
          "name": "",
          "type": "uint256"
        }
      ],
      "stateMutability": "view",
      "type": "function"
    },
    {
      "inputs": [],
      "name": "oldestLockedEventId",
      "outputs": [
        {
          "internalType": "uint256",
          "name": "",
          "type": "uint256"
        }
      ],
      "stateMutability": "view",
      "type": "function"
    },
    {
      "inputs": [],
      "name": "pause",
      "outputs": [],
      "stateMutability": "nonpayable",
      "type": "function"
    },
    {
      "inputs": [],
      "name": "paused",
      "outputs": [
        {
          "internalType": "bool",
          "name": "",
          "type": "bool"
        }
      ],
      "stateMutability": "view",
      "type": "function"
    },
    {
      "inputs": [
        {
          "internalType": "uint256",
          "name": "eventId",
          "type": "uint256"
        }
      ],
      "name": "removeLockedTransfers",
      "outputs": [],
      "stateMutability": "nonpayable",
      "type": "function"
    },
    {
      "inputs": [
        {
          "internalType": "bytes32",
          "name": "role",
          "type": "bytes32"
        },
        {
          "internalType": "address",
          "name": "account",
          "type": "address"
        }
      ],
      "name": "renounceRole",
      "outputs": [],
      "stateMutability": "nonpayable",
      "type": "function"
    },
    {
      "inputs": [
        {
          "internalType": "bytes32",
          "name": "role",
          "type": "bytes32"
        },
        {
          "internalType": "address",
          "name": "account",
          "type": "address"
        }
      ],
      "name": "revokeRole",
      "outputs": [],
      "stateMutability": "nonpayable",
      "type": "function"
    },
    {
      "inputs": [],
      "name": "sideBridgeAddress",
      "outputs": [
        {
          "internalType": "address",
          "name": "",
          "type": "address"
        }
      ],
      "stateMutability": "view",
      "type": "function"
    },
    {
      "inputs": [
        {
          "components": [
            {
              "components": [
                {
                  "internalType": "bytes3",
                  "name": "p0Seal",
                  "type": "bytes3"
                },
                {
                  "internalType": "bytes3",
                  "name": "p0Bare",
                  "type": "bytes3"
                },
                {
                  "internalType": "bytes32",
                  "name": "parentHash",
                  "type": "bytes32"
                },
                {
                  "internalType": "bytes",
                  "name": "p2",
                  "type": "bytes"
                },
                {
                  "internalType": "bytes32",
                  "name": "receiptHash",
                  "type": "bytes32"
                },
                {
                  "internalType": "bytes",
                  "name": "p3",
                  "type": "bytes"
                },
                {
                  "internalType": "bytes4",
                  "name": "step",
                  "type": "bytes4"
                },
                {
                  "internalType": "bytes",
                  "name": "signature",
                  "type": "bytes"
                },
                {
                  "internalType": "uint64",
                  "name": "finalizedVs",
                  "type": "uint64"
                }
              ],
              "internalType": "struct CheckAura.BlockAura[]",
              "name": "blocks",
              "type": "tuple[]"
            },
            {
              "components": [
                {
                  "internalType": "bytes[]",
                  "name": "receiptProof",
                  "type": "bytes[]"
                },
                {
                  "internalType": "uint256",
                  "name": "eventId",
                  "type": "uint256"
                },
                {
                  "components": [
                    {
                      "internalType": "address",
                      "name": "tokenAddress",
                      "type": "address"
                    },
                    {
                      "internalType": "address",
                      "name": "toAddress",
                      "type": "address"
                    },
                    {
                      "internalType": "uint256",
                      "name": "amount",
                      "type": "uint256"
                    }
                  ],
                  "internalType": "struct CommonStructs.Transfer[]",
                  "name": "transfers",
                  "type": "tuple[]"
                }
              ],
              "internalType": "struct CommonStructs.TransferProof",
              "name": "transfer",
              "type": "tuple"
            },
            {
              "components": [
                {
                  "internalType": "bytes[]",
                  "name": "receiptProof",
                  "type": "bytes[]"
                },
                {
                  "components": [
                    {
                      "internalType": "address",
                      "name": "deltaAddress",
                      "type": "address"
                    },
                    {
                      "internalType": "uint16",
                      "name": "deltaIndex",
                      "type": "uint16"
                    }
                  ],
                  "internalType": "struct CheckAura.ValidatorSetChange[]",
                  "name": "changes",
                  "type": "tuple[]"
                },
                {
                  "internalType": "uint64",
                  "name": "eventBlock",
                  "type": "uint64"
                }
              ],
              "internalType": "struct CheckAura.ValidatorSetProof[]",
              "name": "vsChanges",
              "type": "tuple[]"
            },
            {
              "internalType": "uint64",
              "name": "transferEventBlock",
              "type": "uint64"
            }
          ],
          "internalType": "struct CheckAura.AuraProof",
          "name": "auraProof",
          "type": "tuple"
        }
      ],
      "name": "submitTransferAura",
      "outputs": [],
      "stateMutability": "nonpayable",
      "type": "function"
    },
    {
      "inputs": [
        {
          "components": [
            {
              "components": [
                {
                  "internalType": "bytes3",
                  "name": "p0Seal",
                  "type": "bytes3"
                },
                {
                  "internalType": "bytes3",
                  "name": "p0Bare",
                  "type": "bytes3"
                },
                {
                  "internalType": "bytes32",
                  "name": "parentHash",
                  "type": "bytes32"
                },
                {
                  "internalType": "bytes",
                  "name": "p2",
                  "type": "bytes"
                },
                {
                  "internalType": "bytes32",
                  "name": "receiptHash",
                  "type": "bytes32"
                },
                {
                  "internalType": "bytes",
                  "name": "p3",
                  "type": "bytes"
                },
                {
                  "internalType": "bytes4",
                  "name": "step",
                  "type": "bytes4"
                },
                {
                  "internalType": "bytes",
                  "name": "signature",
                  "type": "bytes"
                },
                {
                  "internalType": "uint64",
                  "name": "finalizedVs",
                  "type": "uint64"
                }
              ],
              "internalType": "struct CheckAura.BlockAura[]",
              "name": "blocks",
              "type": "tuple[]"
            },
            {
              "components": [
                {
                  "internalType": "bytes[]",
                  "name": "receiptProof",
                  "type": "bytes[]"
                },
                {
                  "internalType": "uint256",
                  "name": "eventId",
                  "type": "uint256"
                },
                {
                  "components": [
                    {
                      "internalType": "address",
                      "name": "tokenAddress",
                      "type": "address"
                    },
                    {
                      "internalType": "address",
                      "name": "toAddress",
                      "type": "address"
                    },
                    {
                      "internalType": "uint256",
                      "name": "amount",
                      "type": "uint256"
                    }
                  ],
                  "internalType": "struct CommonStructs.Transfer[]",
                  "name": "transfers",
                  "type": "tuple[]"
                }
              ],
              "internalType": "struct CommonStructs.TransferProof",
              "name": "transfer",
              "type": "tuple"
            },
            {
              "components": [
                {
                  "internalType": "bytes[]",
                  "name": "receiptProof",
                  "type": "bytes[]"
                },
                {
                  "components": [
                    {
                      "internalType": "address",
                      "name": "deltaAddress",
                      "type": "address"
                    },
                    {
                      "internalType": "uint16",
                      "name": "deltaIndex",
                      "type": "uint16"
                    }
                  ],
                  "internalType": "struct CheckAura.ValidatorSetChange[]",
                  "name": "changes",
                  "type": "tuple[]"
                },
                {
                  "internalType": "uint64",
                  "name": "eventBlock",
                  "type": "uint64"
                }
              ],
              "internalType": "struct CheckAura.ValidatorSetProof[]",
              "name": "vsChanges",
              "type": "tuple[]"
            },
            {
              "internalType": "uint64",
              "name": "transferEventBlock",
              "type": "uint64"
            }
          ],
          "internalType": "struct CheckAura.AuraProof",
          "name": "auraProof",
          "type": "tuple"
        }
      ],
      "name": "submitValidatorSetChangesAura",
      "outputs": [],
      "stateMutability": "nonpayable",
      "type": "function"
    },
    {
      "inputs": [
        {
          "internalType": "bytes4",
          "name": "interfaceId",
          "type": "bytes4"
        }
      ],
      "name": "supportsInterface",
      "outputs": [
        {
          "internalType": "bool",
          "name": "",
          "type": "bool"
        }
      ],
      "stateMutability": "view",
      "type": "function"
    },
    {
      "inputs": [],
      "name": "timeframeSeconds",
      "outputs": [
        {
          "internalType": "uint256",
          "name": "",
          "type": "uint256"
        }
      ],
      "stateMutability": "view",
      "type": "function"
    },
    {
      "inputs": [
        {
          "internalType": "address",
          "name": "",
          "type": "address"
        }
      ],
      "name": "tokenAddresses",
      "outputs": [
        {
          "internalType": "address",
          "name": "",
          "type": "address"
        }
      ],
      "stateMutability": "view",
      "type": "function"
    },
    {
      "inputs": [
        {
          "internalType": "address",
          "name": "tokenThisAddress",
          "type": "address"
        },
        {
          "internalType": "address",
          "name": "tokenSideAddress",
          "type": "address"
        }
      ],
      "name": "tokensAdd",
      "outputs": [],
      "stateMutability": "nonpayable",
      "type": "function"
    },
    {
      "inputs": [
        {
          "internalType": "address[]",
          "name": "tokenThisAddresses",
          "type": "address[]"
        },
        {
          "internalType": "address[]",
          "name": "tokenSideAddresses",
          "type": "address[]"
        }
      ],
      "name": "tokensAddBatch",
      "outputs": [],
      "stateMutability": "nonpayable",
      "type": "function"
    },
    {
      "inputs": [
        {
          "internalType": "address",
          "name": "tokenThisAddress",
          "type": "address"
        }
      ],
      "name": "tokensRemove",
      "outputs": [],
      "stateMutability": "nonpayable",
      "type": "function"
    },
    {
      "inputs": [
        {
          "internalType": "address[]",
          "name": "tokenThisAddresses",
          "type": "address[]"
        }
      ],
      "name": "tokensRemoveBatch",
      "outputs": [],
      "stateMutability": "nonpayable",
      "type": "function"
    },
    {
      "inputs": [],
      "name": "triggerTransfers",
      "outputs": [],
      "stateMutability": "nonpayable",
      "type": "function"
    },
    {
      "inputs": [
        {
          "internalType": "uint256",
          "name": "eventId",
          "type": "uint256"
        }
      ],
      "name": "unlockTransfers",
      "outputs": [],
      "stateMutability": "nonpayable",
      "type": "function"
    },
    {
      "inputs": [],
      "name": "unlockTransfersBatch",
      "outputs": [],
      "stateMutability": "nonpayable",
      "type": "function"
    },
    {
      "inputs": [],
      "name": "unpause",
      "outputs": [],
      "stateMutability": "nonpayable",
      "type": "function"
    },
    {
      "inputs": [
        {
          "internalType": "uint256",
          "name": "",
          "type": "uint256"
        }
      ],
      "name": "validatorSet",
      "outputs": [
        {
          "internalType": "address",
          "name": "",
          "type": "address"
        }
      ],
      "stateMutability": "view",
      "type": "function"
    },
    {
      "inputs": [
        {
          "internalType": "address",
          "name": "tokenThisAddress",
          "type": "address"
        },
        {
          "internalType": "address",
          "name": "toAddress",
          "type": "address"
        },
        {
          "internalType": "uint256",
          "name": "amount",
          "type": "uint256"
        },
        {
          "internalType": "bool",
          "name": "unwrapSide",
          "type": "bool"
        },
        {
          "internalType": "bytes",
          "name": "feeSignature",
          "type": "bytes"
        },
        {
          "internalType": "uint256",
          "name": "transferFee",
          "type": "uint256"
        },
        {
          "internalType": "uint256",
          "name": "bridgeFee",
          "type": "uint256"
        }
      ],
      "name": "withdraw",
      "outputs": [],
      "stateMutability": "payable",
      "type": "function"
    },
    {
      "inputs": [
        {
          "internalType": "address",
          "name": "toAddress",
          "type": "address"
        },
        {
          "internalType": "bytes",
          "name": "feeSignature",
          "type": "bytes"
        },
        {
          "internalType": "uint256",
          "name": "transferFee",
          "type": "uint256"
        },
        {
          "internalType": "uint256",
          "name": "bridgeFee",
          "type": "uint256"
        }
      ],
      "name": "wrapWithdraw",
      "outputs": [],
      "stateMutability": "payable",
      "type": "function"
    },
    {
      "inputs": [],
      "name": "wrapperAddress",
      "outputs": [
        {
          "internalType": "address",
          "name": "",
          "type": "address"
        }
      ],
      "stateMutability": "view",
      "type": "function"
    },
    {
      "stateMutability": "payable",
      "type": "receive"
    }
  ],
  "transactionHash": "0x5bb048c86fdd569c5abe57b9fede542758e922163162898205baeb8b48aca6e1",
  "args": [],
  "numDeployments": 3,
  "solcInputHash": "c5f792b34e7bd0c2de532a48387c9921",
  "bytecode": "0x608060405234801561001057600080fd5b506147a4806100206000396000f3fe60806040526004361061029b5760003560e060020a900480638ac1f86f1161015e578063baeebe75116100c5578063f33fe10f1161007e578063f33fe10f146107d1578063f7005587146107f1578063f862b7eb14610811578063f8ae31bf14610831578063f8b7443314610847578063fd5d2ef31461085a57600080fd5b8063baeebe751461070c578063c4bcb13f14610722578063cf33125014610742578063d547741f14610764578063e31be08714610784578063e64808f3146107b157600080fd5b806396cf52271161011757806396cf52271461065557806399b5bb6414610675578063a217fddf1461068b578063b6d3385e146106a0578063b87330e9146106d6578063ba8bbbe0146106f657600080fd5b80638ac1f86f146105b75780638e5df9c7146105cc57806391c5bc0a146105ec57806391d14854146105ff578063924473a61461061f578063924cf6e01461063f57600080fd5b80633f4ba83a11610202578063746b5c42116101bb578063746b5c42146104fd57806375b238fc146105125780637df8b802146105345780638456cb591461056c578063853890ae1461058157806386d7679e146105a157600080fd5b80633f4ba83a1461044057806342180fb8146104555780634a1856de146104755780635249a705146104a55780635c975abb146104c55780636ff7c546146104dd57600080fd5b80632bbba847116102545780632bbba847146103945780632f2ff15d146103aa578063331a891a146103ca57806333de61d2146103ea57806336568abe146104005780633928b2961461042057600080fd5b806301ffc9a7146102a757806304421823146102dc57806309fce3561461030c5780630d6680871461032e578063169e7a9914610344578063248a9ca31461036457600080fd5b366102a257005b600080fd5b3480156102b357600080fd5b506102c76102c2366004613c86565b61087a565b60405190151581526020015b60405180910390f35b3480156102e857600080fd5b506102fe60008051602061472f83398151915281565b6040519081526020016102d3565b34801561031857600080fd5b5061032c610327366004613b7f565b6108e3565b005b34801561033a57600080fd5b506102fe60d45481565b34801561035057600080fd5b5061032c61035f366004613ceb565b61090f565b34801561037057600080fd5b506102fe61037f366004613c48565b60009081526065602052604090206001015490565b3480156103a057600080fd5b5060ca54156102c7565b3480156103b657600080fd5b5061032c6103c5366004613c61565b6109a3565b3480156103d657600080fd5b5061032c6103e5366004613c48565b6109ce565b3480156103f657600080fd5b506102fe60e95481565b34801561040c57600080fd5b5061032c61041b366004613c61565b610b15565b34801561042c57600080fd5b5061032c61043b3660046139ec565b610ba4565b34801561044c57600080fd5b5061032c610be0565b34801561046157600080fd5b5061032c610470366004613c48565b610c04565b34801561048157600080fd5b506102fe610490366004613c48565b60cb6020526000908152604090206001015481565b3480156104b157600080fd5b5061032c6104c0366004613b3d565b610c41565b3480156104d157600080fd5b5060975460ff166102c7565b3480156104e957600080fd5b5061032c6104f8366004613c48565b610cca565b34801561050957600080fd5b5061032c610ce9565b34801561051e57600080fd5b506102fe60008051602061474f83398151915281565b34801561054057600080fd5b5060ce5461055490600160a060020a031681565b604051600160a060020a0390911681526020016102d3565b34801561057857600080fd5b5061032c610d95565b34801561058d57600080fd5b5061032c61059c366004613a09565b610db6565b3480156105ad57600080fd5b506102fe60d75481565b3480156105c357600080fd5b5061032c610dfe565b3480156105d857600080fd5b5061032c6105e73660046139ec565b610f56565b61032c6105fa366004613ad6565b610f97565b34801561060b57600080fd5b506102c761061a366004613c61565b6112be565b34801561062b57600080fd5b5061032c61063a366004613cb0565b6112e9565b34801561064b57600080fd5b506102fe60d25481565b34801561066157600080fd5b5061032c610670366004613c48565b6113cc565b34801561068157600080fd5b506102fe60d55481565b34801561069757600080fd5b506102fe600081565b3480156106ac57600080fd5b506105546106bb3660046139ec565b60cd60205260009081526040902054600160a060020a031681565b3480156106e257600080fd5b5061032c6106f13660046139ec565b6113eb565b34801561070257600080fd5b506102fe60cc5481565b34801561071857600080fd5b506102fe60d35481565b34801561072e57600080fd5b5061032c61073d366004613cb0565b611427565b34801561074e57600080fd5b50610757611480565b6040516102d391906140df565b34801561077057600080fd5b5061032c61077f366004613c61565b6114e2565b34801561079057600080fd5b506107a461079f366004613c48565b611508565b6040516102d39190614317565b3480156107bd57600080fd5b506105546107cc366004613c48565b6115c4565b3480156107dd57600080fd5b5060d15461055490600160a060020a031681565b3480156107fd57600080fd5b5061032c61080c366004613c48565b6115ee565b34801561081d57600080fd5b5061032c61082c366004613c48565b61160d565b34801561083d57600080fd5b506102fe60ea5481565b61032c610855366004613a42565b611840565b34801561086657600080fd5b5061032c610875366004613c48565b611ca0565b6000600160e060020a031982167f7965db0b0000000000000000000000000000000000000000000000000000000014806108dd57507f01ffc9a700000000000000000000000000000000000000000000000000000000600160e060020a03198316145b92915050565b60008051602061474f8339815191526108fc8133611cbf565b61090885858585611d26565b5050505050565b600054610100900460ff1680610928575060005460ff16155b6109505760405160e560020a62461bcd028152600401610947906142ba565b60405180910390fd5b600054610100900460ff16158015610972576000805461ffff19166101011790555b61097b87611e47565b6109888686868686612023565b801561099a576000805461ff00191690555b50505050505050565b6000828152606560205260409020600101546109bf8133611cbf565b6109c9838361213e565b505050565b60008051602061474f8339815191526109e78133611cbf565b60975460ff16610a3c5760405160e560020a62461bcd02815260206004820152601460248201527f5061757361626c653a206e6f74207061757365640000000000000000000000006044820152606401610947565b60cc54821015610ab75760405160e560020a62461bcd02815260206004820152602660248201527f6576656e744964206d757374206265203e3d206f6c646573744c6f636b65644560448201527f76656e74496400000000000000000000000000000000000000000000000000006064820152608401610947565b600082815260cb602052604090206001015415610b0357600082815260cb6020526040812090610ae78282613893565b5060006001919091015581610afb81614600565b925050610ab7565b610b0e60018361455c565b60d5555050565b600160a060020a0381163314610b965760405160e560020a62461bcd02815260206004820152602f60248201527f416363657373436f6e74726f6c3a2063616e206f6e6c792072656e6f756e636560448201527f20726f6c657320666f722073656c6600000000000000000000000000000000006064820152608401610947565b610ba082826121c4565b5050565b60008051602061474f833981519152610bbd8133611cbf565b5060d08054600160a060020a031916600160a060020a0392909216919091179055565b60008051602061474f833981519152610bf98133611cbf565b610c0161222b565b50565b60008051602061474f833981519152610c1d8133611cbf565b8160d35460d754610c2e919061451a565b610c389190614506565b60d7555060d355565b60008051602061474f833981519152610c5a8133611cbf565b8160005b818110156109085760cd6000868684818110610c7c57610c7c61467a565b9050602002016020810190610c9191906139ec565b600160a060020a0316815260208101919091526040016000208054600160a060020a031916905580610cc281614600565b915050610c5e565b60008051602061474f833981519152610ce38133611cbf565b5060ea55565b60ca54610d3b5760405160e560020a62461bcd02815260206004820152600e60248201527f517565756520697320656d7074790000000000000000000000000000000000006044820152606401610947565b60d68054906000610d4b83614600565b919050557fe15729a2f427aa4572dab35eb692c902fcbce57d41642013259c741380809ae260ca604051610d7f91906141e0565b60405180910390a2610d9360ca6000613893565b565b60008051602061474f833981519152610dae8133611cbf565b610c016122ca565b60008051602061474f833981519152610dcf8133611cbf565b50600160a060020a03918216600090815260cd602052604090208054600160a060020a03191691909216179055565b60975460ff1615610e245760405160e560020a62461bcd02815260040161094790614283565b60cc545b600081815260cb60209081526040808320815181546060948102820185018452928101838152909391928492849190879085015b82821015610eb657600084815260209081902060408051606081018252600386029092018054600160a060020a03908116845260018083015490911684860152600290910154918301919091529083529092019101610e5c565b5050505081526020016001820154815250509050806020015160001480610ee05750428160200151115b15610eeb575060cc55565b8051610ef690612325565b600082815260cb6020526040812090610f0f8282613893565b50600060019190910181905560405183917f78ff9b3176bb0d6421590f3816e75cb15a9ffa2b7a1a028f40a3f4e029eb39f291a25080610f4e81614600565b915050610e28565b60008051602061474f833981519152610f6f8133611cbf565b50600160a060020a0316600090815260cd602052604090208054600160a060020a0319169055565b60ce54600160a060020a03908116600090815260cd602052604090205416806110055760405160e560020a62461bcd02815260206004820152601560248201527f556e6b6e6f776e20746f6b656e206164647265737300000000000000000000006044820152606401610947565b61100f82846144ee565b34116110605760405160e560020a62461bcd02815260206004820152601160248201527f53656e742076616c7565203c3d206665650000000000000000000000000000006044820152606401610947565b60008261106d853461455c565b611077919061455c565b60ce5490915061109490600160a060020a031687878787866125b9565b60cf54604051600160a060020a039091169085156108fc029086906000818181858888f193505050501580156110ce573d6000803e3d6000fd5b5060d054604051600160a060020a039091169084156108fc029085906000818181858888f19350505050158015611109573d6000803e3d6000fd5b5060ce60009054906101000a9004600160a060020a0316600160a060020a031663d0e30db0826040518263ffffffff1660e060020a0281526004016000604051808303818588803b15801561115d57600080fd5b505af1158015611171573d6000803e3d6000fd5b505060408051606081018252600160a060020a0380881682528c81166020830190815282840188815260ca80546001810182556000918252945160039095027f42d72674974f694b5f5159593243114d38a5c39c89d6b62fee061ff523240ee181018054968616600160a060020a031997881617905592517f42d72674974f694b5f5159593243114d38a5c39c89d6b62fee061ff523240ee2840180549190951695169490941790925590517f42d72674974f694b5f5159593243114d38a5c39c89d6b62fee061ff523240ee39091015560d65491513395507f3b823d3b837159352faddd1e0b9e9f584ca2bfe976238f6a9e6da4615cf2f44494506112ae9350879087908b908b90958652600160a060020a0394851660208701529290931660408501526060840152608083019190915260a082015260c00190565b60405180910390a261099a61274d565b6000918252606560209081526040808420600160a060020a0393909316845291905290205460ff1690565b60008051602061472f8339815191526113028133611cbf565b60975460ff16156113285760405160e560020a62461bcd02815260040161094790614283565b61133560208301836144d8565b602001357f196c47048e38df7a4fe6e581c8f4f2e2ba67ac0dd45b90da756e97bd61d9dd3b60405160405180910390a261137e61137560208401846144d8565b602001356127c5565b60d25460d154611398918491600160a060020a031661282a565b610ba06113a860208401846144d8565b6113b69060408101906143de565b6113c360208601866144d8565b60200135612d95565b60008051602061474f8339815191526113e58133611cbf565b5060d455565b60008051602061474f8339815191526114048133611cbf565b5060cf8054600160a060020a031916600160a060020a0392909216919091179055565b60008051602061472f8339815191526114408133611cbf565b60975460ff16156114665760405160e560020a62461bcd02815260040161094790614283565b60d25460d154610ba0918491600160a060020a031661282a565b606060e78054806020026020016040519081016040528092919081815260200182805480156114d857602002820191906000526020600020905b8154600160a060020a031681526001909101906020018083116114ba575b5050505050905090565b6000828152606560205260409020600101546114fe8133611cbf565b6109c983836121c4565b604080518082019091526060815260006020820152600082815260cb60209081526040808320815181546060948102820185018452928101838152909491938593919285929185015b828210156115ab57600084815260209081902060408051606081018252600386029092018054600160a060020a03908116845260018083015490911684860152600290910154918301919091529083529092019101611551565b5050505081526020016001820154815250509050919050565b60e781815481106115d457600080fd5b600091825260209091200154600160a060020a0316905081565b60008051602061474f8339815191526116078133611cbf565b5060c955565b60975460ff16156116335760405160e560020a62461bcd02815260040161094790614283565b60cc5481146116875760405160e560020a62461bcd02815260206004820152601c60248201527f63616e20756e6c6f636b206f6e6c79206f6c64657374206576656e74000000006044820152606401610947565b600081815260cb60209081526040808320815181546060948102820185018452928101838152909391928492849190879085015b8282101561171557600084815260209081902060408051606081018252600386029092018054600160a060020a039081168452600180830154909116848601526002909101549183019190915290835290920191016116bb565b505050508152602001600182015481525050905060008160200151116117805760405160e560020a62461bcd02815260206004820181905260248201527f6e6f206c6f636b6564207472616e7366657273207769746820746869732069646044820152606401610947565b428160200151106117d65760405160e560020a62461bcd02815260206004820152601b60248201527f6c6f636b54696d6520686173206e6f74207965742070617373656400000000006044820152606401610947565b80516117e190612325565b600082815260cb60205260408120906117fa8282613893565b50600060019190910181905560405183917f78ff9b3176bb0d6421590f3816e75cb15a9ffa2b7a1a028f40a3f4e029eb39f291a26118398260016144ee565b60cc555050565b600085156118d5576000805260cd6020527fcd565b10a72538d86f6d352f37ebc5dff31587960b12c0afe00fd03947a6932a54600160a060020a038a81169116146118d05760405160e560020a62461bcd02815260206004820152601f60248201527f546f6b656e206e6f7420706f696e7420746f206e617469766520746f6b656e006044820152606401610947565b611941565b50600160a060020a03808916600090815260cd602052604090205416806119415760405160e560020a62461bcd02815260206004820152601560248201527f556e6b6e6f776e20746f6b656e206164647265737300000000000000000000006044820152606401610947565b61194b82846144ee565b341461199c5760405160e560020a62461bcd02815260206004820152601160248201527f53656e742076616c756520213d206665650000000000000000000000000000006044820152606401610947565b600087116119ef5760405160e560020a62461bcd02815260206004820152601160248201527f43616e6e6f7420776974686472617720300000000000000000000000000000006044820152606401610947565b6119fd89868686868c6125b9565b60cf54604051600160a060020a039091169084156108fc029085906000818181858888f19350505050158015611a37573d6000803e3d6000fd5b5060d054604051600160a060020a039091169083156108fc029084906000818181858888f19350505050158015611a72573d6000803e3d6000fd5b506040517f23b872dd00000000000000000000000000000000000000000000000000000000815233600482015230602482015260448101889052600160a060020a038a16906323b872dd90606401602060405180830381600087803b158015611ada57600080fd5b505af1158015611aee573d6000803e3d6000fd5b505050506040513d601f19601f82011682018060405250810190611b129190613beb565b611b615760405160e560020a62461bcd02815260206004820152601360248201527f4661696c207472616e7366657220636f696e73000000000000000000000000006044820152606401610947565b6040805160608082018352600160a060020a038481168084528c821660208086019182528587018e815260ca8054600181018255600091909152965160039097027f42d72674974f694b5f5159593243114d38a5c39c89d6b62fee061ff523240ee181018054988716600160a060020a0319998a1617905592517f42d72674974f694b5f5159593243114d38a5c39c89d6b62fee061ff523240ee284018054918716919098161790965594517f42d72674974f694b5f5159593243114d38a5c39c89d6b62fee061ff523240ee39091015560d6548551908152918e16938201939093529283019190915281018890526080810184905260a0810183905233907f3b823d3b837159352faddd1e0b9e9f584ca2bfe976238f6a9e6da4615cf2f4449060c00160405180910390a2611c9561274d565b505050505050505050565b60008051602061474f833981519152611cb98133611cbf565b5060d255565b611cc982826112be565b610ba057611ce181600160a060020a03166014612e29565b611cec836020612e29565b604051602001611cfd92919061405e565b60408051601f198184030181529082905260e560020a62461bcd02825261094791600401614250565b828114611d9e5760405160e560020a62461bcd02815260206004820152603f60248201527f73697a6573206f6620746f6b656e5468697341646472657373657320616e642060448201527f746f6b656e53696465416464726573736573206d7573742062652073616d65006064820152608401610947565b8260005b81811015611e3f57838382818110611dbc57611dbc61467a565b9050602002016020810190611dd191906139ec565b60cd6000888885818110611de757611de761467a565b9050602002016020810190611dfc91906139ec565b600160a060020a03908116825260208201929092526040016000208054600160a060020a0319169290911691909117905580611e3781614600565b915050611da2565b505050505050565b600054610100900460ff1680611e60575060005460ff16155b611e7f5760405160e560020a62461bcd028152600401610947906142ba565b600054610100900460ff16158015611ea1576000805461ffff19166101011790555b611eac600033613016565b611ed360008051602061472f833981519152611ece60608501604086016139ec565b613016565b611ef560008051602061474f833981519152611ece60408501602086016139ec565b611f17611f056080840184614395565b611f1260a0860186614395565b611d26565b611f2760808301606084016139ec565b60ce8054600160a060020a031916600160a060020a0392909216919091179055611f5460208301836139ec565b60d18054600160a060020a031916600160a060020a0392909216919091179055611f8460e0830160c084016139ec565b60cf8054600160a060020a031916600160a060020a0392909216919091179055611fb5610100830160e084016139ec565b60d08054600160a060020a031916600160a060020a039290921691909117905561014082013560d25561010082013560d381905561012083013560d455600160cc81905560d655600360c95561200b9042614506565b60d7558015610ba0576000805461ff00191690555050565b600054610100900460ff168061203c575060005460ff16155b61205b5760405160e560020a62461bcd028152600401610947906142ba565b600054610100900460ff1615801561207d576000805461ffff19166101011790555b846120f35760405160e560020a62461bcd02815260206004820152603260248201527f4c656e677468206f66205f696e697469616c56616c696461746f7273206d757360448201527f7420626520626967676572207468616e203000000000000000000000000000006064820152608401610947565b6120ff60e787876138b4565b5060e88054600160a060020a031916600160a060020a03861617905560e983905560ea8290558015611e3f576000805461ff0019169055505050505050565b61214882826112be565b610ba0576000828152606560209081526040808320600160a060020a03851684529091529020805460ff191660011790556121803390565b600160a060020a031681600160a060020a0316837f2f8788117e7eff1d82e926ec794901d17c78024a50270940304540a733656f0d60405160405180910390a45050565b6121ce82826112be565b15610ba0576000828152606560209081526040808320600160a060020a0385168085529252808320805460ff1916905551339285917ff6391f5c32d9c69d2a47ea670b442974b53935d1edc7fd64eb21e047a839171b9190a45050565b60975460ff166122805760405160e560020a62461bcd02815260206004820152601460248201527f5061757361626c653a206e6f74207061757365640000000000000000000000006044820152606401610947565b6097805460ff191690557f5db9ee0a495bf2e6ff9c91a7834c1ba4fdd244a5e8aa4e537bd38aeae4b073aa335b604051600160a060020a03909116815260200160405180910390a1565b60975460ff16156122f05760405160e560020a62461bcd02815260040161094790614283565b6097805460ff191660011790557f62e78cea01bee320cd4e420270b5ea74000d11b0c9f74754ebdbfc544b05a2586122ad3390565b60005b8151811015610ba0576000600160a060020a031682828151811061234e5761234e61467a565b602002602001015160000151600160a060020a0316141561246a5760ce548251600160a060020a0390911690632e1a7d4d908490849081106123925761239261467a565b6020026020010151604001516040518263ffffffff1660e060020a0281526004016123bf91815260200190565b600060405180830381600087803b1580156123d957600080fd5b505af11580156123ed573d6000803e3d6000fd5b505050508181815181106124035761240361467a565b602002602001015160200151600160a060020a03166108fc83838151811061242d5761242d61467a565b6020026020010151604001519081150290604051600060405180830381858888f19350505050158015612464573d6000803e3d6000fd5b506125a7565b81818151811061247c5761247c61467a565b602002602001015160000151600160a060020a031663a9059cbb8383815181106124a8576124a861467a565b6020026020010151602001518484815181106124c6576124c661467a565b6020026020010151604001516040518363ffffffff1660e060020a028152600401612506929190600160a060020a03929092168252602082015260400190565b602060405180830381600087803b15801561252057600080fd5b505af1158015612534573d6000803e3d6000fd5b505050506040513d601f19601f820116820180604052508101906125589190613beb565b6125a75760405160e560020a62461bcd02815260206004820152601360248201527f4661696c207472616e7366657220636f696e73000000000000000000000000006044820152606401610947565b806125b181614600565b915050612328565b600080806125c961070842614506565b905060005b60c954811015612701576040516c01000000000000000000000000600160a060020a038c160260208201526034810183905260548101889052607481018790526094810186905260b40160408051601f198184030181529082905280516020918201207f19457468657265756d205369676e6564204d6573736167653a0a33320000000091830191909152603c820152605c016040516020818303038152906040528051906020012093506126b9848a8a8080601f01602080910402602001604051908101604052809392919081815260200183838082843760009201919091525061302092505050565b92506126d360008051602061472f833981519152846112be565b156126e15750505050611e3f565b816126eb816145e9565b92505080806126f990614600565b9150506125ce565b5060405160e560020a62461bcd02815260206004820152601660248201527f5369676e617475726520636865636b206661696c6564000000000000000000006044820152606401610947565b600060d3544261275d9190614506565b905060d7548114610c015760d6805490600061277883614600565b919050557fe15729a2f427aa4572dab35eb692c902fcbce57d41642013259c741380809ae260ca6040516127ac91906141e0565b60405180910390a26127c060ca6000613893565b60d755565b60d5600081546127d490614600565b91829055508114610c015760405160e560020a62461bcd02815260206004820152601460248201527f4576656e744964206f7574206f66206f726465720000000000000000000000006044820152606401610947565b60008061283a60208601866144d8565b60200135156129765761285961285360208701876144d8565b846130ab565b9050806128668680614395565b6128766080890160608a01613da6565b67ffffffffffffffff1681811061288f5761288f61467a565b90506020028101906128a191906144b7565b60800135146128f55760405160e560020a62461bcd02815260206004820181905260248201527f5472616e73666572206576656e742076616c69646174696f6e206661696c65646044820152606401610947565b836129066080870160608801613da6565b67ffffffffffffffff1661291a8780614395565b61292592915061455c565b10156129765760405160e560020a62461bcd02815260206004820152601860248201527f4e6f7420656e6f7567682073616665747920626c6f636b7300000000000000006044820152606401610947565b60005b6129838680614395565b9050811015612ce157366129978780614395565b838181106129a7576129a761467a565b90506020028101906129b991906144b7565b905083816040013514612abc576129d66080880160608901613da6565b67ffffffffffffffff16821180612a6c57508115801590612a105750612a0461012082016101008301613da6565b67ffffffffffffffff16155b8015612a6c5750612a218780614395565b612a2c60018561455c565b818110612a3b57612a3b61467a565b9050602002810190612a4d91906144b7565b612a609061012081019061010001613da6565b67ffffffffffffffff16155b15612abc5760405160e560020a62461bcd02815260206004820152601160248201527f57726f6e6720706172656e7420686173680000000000000000000000000000006044820152606401610947565b612ac5816131ef565b9350612ad961012082016101008301613da6565b67ffffffffffffffff1615612cce5736612af66040890189614395565b6001612b0a61012086016101008701613da6565b612b149190614573565b67ffffffffffffffff16818110612b2d57612b2d61467a565b9050602002810190612b3f91906144d8565b905060005b612b516020830183614427565b9050811015612b9757612b85612b6a6020840184614427565b83818110612b7a57612b7a61467a565b90506040020161330b565b80612b8f81614600565b915050612b44565b50612bb8612ba58280614395565b60e854600160a060020a031660e7613440565b935083612bc58980614395565b612bd56060850160408601613da6565b67ffffffffffffffff16818110612bee57612bee61467a565b9050602002810190612c0091906144b7565b6080013514612c545760405160e560020a62461bcd02815260206004820152601560248201527f57726f6e672056532072656365697074206861736800000000000000000000006044820152606401610947565b60ea54612c676060830160408401613da6565b612c7b9067ffffffffffffffff168561455c565b1015612ccc5760405160e560020a62461bcd02815260206004820152601c60248201527f4665772073616665747920626c6f636b732076616c696461746f7273000000006044820152606401610947565b505b5080612cd981614600565b915050612979565b506000612cf16040870187614395565b9050111561090857612d038580614395565b612d106040880188614395565b6001612d1f60408b018b614395565b612d2a92915061455c565b818110612d3957612d3961467a565b9050602002810190612d4b91906144d8565b612d5c906060810190604001613da6565b67ffffffffffffffff16818110612d7557612d7561467a565b9050602002810190612d8791906144b7565b6040013560e9555050505050565b60d454612da290426144ee565b600082815260cb60205260408120600101919091555b82811015612e2357600082815260cb60205260409020848483818110612de057612de061467a565b835460018101855560009485526020909420606090910292909201926003029091019050612e0e82826146ac565b50508080612e1b90614600565b915050612db8565b50505050565b60606000612e3883600261451a565b612e439060026144ee565b67ffffffffffffffff811115612e5b57612e5b614693565b6040519080825280601f01601f191660200182016040528015612e85576020820181803683370190505b5090507f300000000000000000000000000000000000000000000000000000000000000081600081518110612ebc57612ebc61467a565b6020010190600160f860020a031916908160001a9053507f780000000000000000000000000000000000000000000000000000000000000081600181518110612f0757612f0761467a565b6020010190600160f860020a031916908160001a9053506000612f2b84600261451a565b612f369060016144ee565b90505b6001811115612fbd577f303132333435363738396162636465660000000000000000000000000000000085600f1660108110612f7757612f7761467a565b1a60f860020a02828281518110612f9057612f9061467a565b6020010190600160f860020a031916908160001a905350601090940493612fb6816145e9565b9050612f39565b50831561300f5760405160e560020a62461bcd02815260206004820181905260248201527f537472696e67733a20686578206c656e67746820696e73756666696369656e746044820152606401610947565b9392505050565b610ba0828261213e565b6020810151604082015160608301516000929190831a601b81101561304357601b015b60408051600081526020810180835288905260ff831691810191909152606081018490526080810183905260019060a0016020604051602081039080840390855afa158015613096573d6000803e3d6000fd5b5050604051601f190151979650505050505050565b6000806130b88480614395565b60008181106130c9576130c961467a565b90506020028101906130db9190614470565b846130e68780614395565b60018181106130f7576130f761467a565b90506020028101906131099190614470565b6131168960200135613519565b6131208a80614395565b60028181106131315761313161467a565b90506020028101906131439190614470565b61315060408d018d6143de565b604051602001613161929190614170565b60408051601f1981840301815291905261317b8d80614395565b600381811061318c5761318c61467a565b905060200281019061319e9190614470565b6040516020016131b89b9a99989796959493929190613f9c565b60408051601f19818403018152919052805160209091012090506131e76131df8580614395565b836004613681565b949350505050565b60008060006131fd84613745565b60e7805492945090925060009161322d61321d60e0890160c08a01613c86565b60e060020a900463ffffffff1690565b613237919061461b565b815481106132475761324761467a565b600091825260209091200154600160a060020a03169050806132aa8461327060e0890189614470565b8080601f01602080910402602001604051908101604052809392919081815260200183838082843760009201919091525061302092505050565b600160a060020a0316146133035760405160e560020a62461bcd02815260206004820152601560248201527f4661696c656420746f20766572696679207369676e00000000000000000000006044820152606401610947565b509392505050565b61331b6040820160208301613d82565b61ffff166133675760e761333260208301836139ec565b8154600181018355600092835260209092209091018054600160a060020a031916600160a060020a0390921691909117905550565b6000600161337b6040840160208501613d82565b6133859190614539565b61ffff16905060e7600160e78054905061339f919061455c565b815481106133af576133af61467a565b60009182526020909120015460e78054600160a060020a0390921691839081106133db576133db61467a565b9060005260206000200160006101000a815481600160a060020a030219169083600160a060020a0316021790555060e780548061341a5761341a614661565b60008281526020902081016000199081018054600160a060020a03191690550190555050565b600080858560008181106134565761345661467a565b90506020028101906134689190614470565b858888600181811061347c5761347c61467a565b905060200281019061348e9190614470565b8760405160200161349f919061412c565b6040516020818303038152906040528b8b60028181106134c1576134c161467a565b90506020028101906134d39190614470565b6040516020016134ea989796959493929190613f2d565b60405160208183030381529060405280519060200120905061350f8686836003613681565b9695505050505050565b6040805160208082528183019092526060916000919060208201818036833701905050905082602082015260005b60208110156135b0578181815181106135625761356261467a565b60209101015160f860020a90819004027fff00000000000000000000000000000000000000000000000000000000000000161561359e576135b0565b806135a881614600565b915050613547565b60006135bd82602061455c565b67ffffffffffffffff8111156135d5576135d5614693565b6040519080825280601f01601f1916602001820160405280156135ff576020820181803683370190505b50905060005b815181101561367857838361361981614600565b94508151811061362b5761362b61467a565b602001015160f860020a900460f860020a0282828151811061364f5761364f61467a565b6020010190600160f860020a031916908160001a9053508061367081614600565b915050613605565b50949350505050565b60006060825b8581101561373a578686828181106136a1576136a161467a565b90506020028101906136b39190614470565b8689896136c18660016144ee565b8181106136d0576136d061467a565b90506020028101906136e29190614470565b6040516020016136f6959493929190614035565b6040516020818303038152906040529150602082511161371e5761371982614594565b613726565b815160208301205b94506137336002826144ee565b9050613687565b509295945050505050565b600080807fa000000000000000000000000000000000000000000000000000000000000000604085013561377c6060870187614470565b608088013561378e60a08a018a614470565b6040516020016137a49796959493929190613dd0565b60408051601f198184030181529181529091506137c690850160208601613c08565b816040516020016137d8929190613e2d565b60408051601f198184030181529190528051602091820120906137fd90860186613c08565b827f840000000000000000000000000000000000000000000000000000000000000061382f60e0890160c08a01613c86565b7fb84100000000000000000000000000000000000000000000000000000000000061385d60e08b018b614470565b6040516020016138739796959493929190613e73565b604051602081830303815290604052805190602001209250925050915091565b5080546000825560030290600052602060002090810190610c019190613917565b828054828255906000526020600020908101928215613907579160200282015b82811115613907578154600160a060020a031916600160a060020a038435161782556020909201916001909101906138d4565b5061391392915061394a565b5090565b5b80821115613913578054600160a060020a03199081168255600182018054909116905560006002820155600301613918565b5b80821115613913576000815560010161394b565b60008083601f84011261397157600080fd5b50813567ffffffffffffffff81111561398957600080fd5b60208301915083602080830285010111156139a357600080fd5b9250929050565b60008083601f8401126139bc57600080fd5b50813567ffffffffffffffff8111156139d457600080fd5b6020830191508360208285010111156139a357600080fd5b6000602082840312156139fe57600080fd5b813561300f8161470b565b60008060408385031215613a1c57600080fd5b8235613a278161470b565b91506020830135613a378161470b565b809150509250929050565b60008060008060008060008060e0898b031215613a5e57600080fd5b8835613a698161470b565b97506020890135613a798161470b565b9650604089013595506060890135613a9081614720565b9450608089013567ffffffffffffffff811115613aac57600080fd5b613ab88b828c016139aa565b999c989b5096999598969760a08701359660c0013595509350505050565b600080600080600060808688031215613aee57600080fd5b8535613af98161470b565b9450602086013567ffffffffffffffff811115613b1557600080fd5b613b21888289016139aa565b9699909850959660408101359660609091013595509350505050565b60008060208385031215613b5057600080fd5b823567ffffffffffffffff811115613b6757600080fd5b613b738582860161395f565b90969095509350505050565b60008060008060408587031215613b9557600080fd5b843567ffffffffffffffff80821115613bad57600080fd5b613bb98883890161395f565b90965094506020870135915080821115613bd257600080fd5b50613bdf8782880161395f565b95989497509550505050565b600060208284031215613bfd57600080fd5b815161300f81614720565b600060208284031215613c1a57600080fd5b81357cffffffffffffffffffffffffffffffffffffffffffffffffffffffffff198116811461300f57600080fd5b600060208284031215613c5a57600080fd5b5035919050565b60008060408385031215613c7457600080fd5b823591506020830135613a378161470b565b600060208284031215613c9857600080fd5b8135600160e060020a03198116811461300f57600080fd5b600060208284031215613cc257600080fd5b813567ffffffffffffffff811115613cd957600080fd5b82016080818503121561300f57600080fd5b60008060008060008060a08789031215613d0457600080fd5b863567ffffffffffffffff80821115613d1c57600080fd5b90880190610160828b031215613d3157600080fd5b90965060208801359080821115613d4757600080fd5b50613d5489828a0161395f565b9096509450506040870135613d688161470b565b959894975092956060810135946080909101359350915050565b600060208284031215613d9457600080fd5b813561ffff8116811461300f57600080fd5b600060208284031215613db857600080fd5b813567ffffffffffffffff8116811461300f57600080fd5b7fff0000000000000000000000000000000000000000000000000000000000000088168152866001820152848660218301378481016021810185905260009083856041830137600093016041019283525090979650505050505050565b7cffffffffffffffffffffffffffffffffffffffffffffffffffffffffff198316815260008251613e658160038501602087016145bd565b919091016003019392505050565b7cffffffffffffffffffffffffffffffffffffffffffffffffffffffffff198816815260008751613eab816003850160208c016145bd565b7fff000000000000000000000000000000000000000000000000000000000000008816600391840191820152600160e060020a0319871660048201527fffff000000000000000000000000000000000000000000000000000000000000861660088201528385600a83013760009301600a019283525090979650505050505050565b87898237600160a060020a0387166c010000000000000000000000000281890190815260009086886014830137868101905060148101600081528651613f77818360208b016145bd565b9190910190508385601483013760009301601401928352509098975050505050505050565b8a8c8237600160a060020a038a166c0100000000000000000000000002818c0190815260009060148a8c828401378a82019150808201600081528a51613fe6818360208f016145bd565b929092019150878982840137878201915080820160008152875161400e818360208c016145bd565b9290920191508486828401376000949091010192835250909b9a5050505050505050505050565b848682378085018481526000908385602083013760009301602001928352509095945050505050565b7f416363657373436f6e74726f6c3a206163636f756e74200000000000000000008152600083516140968160178501602088016145bd565b7f206973206d697373696e6720726f6c652000000000000000000000000000000060179184019182015283516140d38160288401602088016145bd565b01602801949350505050565b6020808252825182820181905260009190848201906040850190845b81811015614120578351600160a060020a0316835292840192918401916001016140fb565b50909695505050505050565b6020808252825482820181905260008481528281209092916040850190845b81811015614120578354600160a060020a03168352600193840193928501920161414b565b6020808252818101839052600090604080840186845b878110156141d35781356141998161470b565b600160a060020a03908116845282860135906141b48261470b565b1683860152818401358484015260609283019290910190600101614186565b5090979650505050505050565b60006020808301818452808554808352604092508286019150866000528360002060005b82811015614243578154600160a060020a0390811685526001808401549091168786015260028301548686015260609094019360039092019101614204565b5091979650505050505050565b602081526000825180602084015261426f8160408501602087016145bd565b601f01601f19169190910160400192915050565b60208082526010908201527f5061757361626c653a2070617573656400000000000000000000000000000000604082015260600190565b6020808252602e908201527f496e697469616c697a61626c653a20636f6e747261637420697320616c72656160408201527f647920696e697469616c697a6564000000000000000000000000000000000000606082015260800190565b6000602080835260608084018551604080858801528282518085526080890191508684019450600093505b8084101561437f5784518051600160a060020a03908116845288820151168884015283015183830152938601936001939093019290850190614342565b5094909701519590960194909452509392505050565b6000808335601e198436030181126143ac57600080fd5b83018035915067ffffffffffffffff8211156143c757600080fd5b60209081019250810236038213156139a357600080fd5b6000808335601e198436030181126143f557600080fd5b83018035915067ffffffffffffffff82111561441057600080fd5b60200191506060810236038213156139a357600080fd5b6000808335601e1984360301811261443e57600080fd5b83018035915067ffffffffffffffff82111561445957600080fd5b60200191506040810236038213156139a357600080fd5b6000808335601e1984360301811261448757600080fd5b83018035915067ffffffffffffffff8211156144a257600080fd5b6020019150368190038213156139a357600080fd5b6000823561011e198336030181126144ce57600080fd5b9190910192915050565b60008235605e198336030181126144ce57600080fd5b600082198211156145015761450161462f565b500190565b60008261451557614515614648565b500490565b60008160001904831182151516156145345761453461462f565b500290565b600061ffff838116908316818110156145545761455461462f565b039392505050565b60008282101561456e5761456e61462f565b500390565b600067ffffffffffffffff838116908316818110156145545761455461462f565b805160208083015191908110156145b7578060200360080260020a600003821691505b50919050565b60005b838110156145d85781810151838201526020016145c0565b83811115612e235750506000910152565b6000816145f8576145f861462f565b506000190190565b60006000198214156146145761461461462f565b5060010190565b60008261462a5761462a614648565b500690565b60e060020a634e487b7102600052601160045260246000fd5b60e060020a634e487b7102600052601260045260246000fd5b60e060020a634e487b7102600052603160045260246000fd5b60e060020a634e487b7102600052603260045260246000fd5b60e060020a634e487b7102600052604160045260246000fd5b81356146b78161470b565b8154600160a060020a031916600160a060020a0382161782555060208201356146df8161470b565b600182018054600160a060020a031916600160a060020a03831617905550604082013560028201555050565b600160a060020a0381168114610c0157600080fd5b8015158114610c0157600080fdfe077a1d526a4ce8a773632ab13b4fbbf1fcc954c3dab26cd27ea0e2a6750da5d7a49807205ce4d355092ef5a8a18f56e8913cf4a201fbe287825b095693c21775a2646970667358221220d4c565d63aba8eccb9b0b68ec1816f471bb010a082a8cf025ddd63499c2b86cf64736f6c63430008060033",
  "devdoc": {
    "kind": "dev",
    "methods": {
      "getRoleAdmin(bytes32)": {
        "details": "Returns the admin role that controls `role`. See {grantRole} and {revokeRole}. To change a role's admin, use {_setRoleAdmin}."
      },
      "grantRole(bytes32,address)": {
        "details": "Grants `role` to `account`. If `account` had not been already granted `role`, emits a {RoleGranted} event. Requirements: - the caller must have ``role``'s admin role."
      },
      "hasRole(bytes32,address)": {
        "details": "Returns `true` if `account` has been granted `role`."
      },
      "paused()": {
        "details": "Returns true if the contract is paused, and false otherwise."
      },
      "renounceRole(bytes32,address)": {
        "details": "Revokes `role` from the calling account. Roles are often managed via {grantRole} and {revokeRole}: this function's purpose is to provide a mechanism for accounts to lose their privileges if they are compromised (such as when a trusted device is misplaced). If the calling account had been granted `role`, emits a {RoleRevoked} event. Requirements: - the caller must be `account`."
      },
      "revokeRole(bytes32,address)": {
        "details": "Revokes `role` from `account`. If `account` had been granted `role`, emits a {RoleRevoked} event. Requirements: - the caller must have ``role``'s admin role."
      },
      "supportsInterface(bytes4)": {
        "details": "See {IERC165-supportsInterface}."
      },
      "withdraw(address,address,uint256,bool,bytes,uint256,uint256)": {
        "params": {
          "bridgeFee": "Amount (in native coins), payed as bridge earnings",
          "feeSignature": "Signature signed by relay that confirms that the fee values are valid",
          "transferFee": "Amount (in native coins), payed to compensate gas fees in side network"
        }
      },
      "wrapWithdraw(address,bytes,uint256,uint256)": {
        "params": {
          "bridgeFee": "Amount (in native coins), payed as bridge earnings",
          "feeSignature": "Signature signed by relay that confirms that the fee values are valid",
          "toAddress": "Address in side network that will receive the tokens",
          "transferFee": "Amount (in native coins), payed to compensate gas fees in side network"
        }
      }
    },
    "version": 1
  },
  "userdoc": {
    "kind": "user",
    "methods": {},
    "version": 1
  },
  "storageLayout": {
    "storage": [
      {
        "astId": 413,
        "contract": "contracts/networks/ETH_EthBridge.sol:ETH_EthBridge",
        "label": "_initialized",
        "offset": 0,
        "slot": "0",
        "type": "t_bool"
      },
      {
        "astId": 416,
        "contract": "contracts/networks/ETH_EthBridge.sol:ETH_EthBridge",
        "label": "_initializing",
        "offset": 1,
        "slot": "0",
        "type": "t_bool"
      },
      {
        "astId": 609,
        "contract": "contracts/networks/ETH_EthBridge.sol:ETH_EthBridge",
        "label": "__gap",
        "offset": 0,
        "slot": "1",
        "type": "t_array(t_uint256)50_storage"
      },
      {
        "astId": 858,
        "contract": "contracts/networks/ETH_EthBridge.sol:ETH_EthBridge",
        "label": "__gap",
        "offset": 0,
        "slot": "51",
        "type": "t_array(t_uint256)50_storage"
      },
      {
        "astId": 48,
        "contract": "contracts/networks/ETH_EthBridge.sol:ETH_EthBridge",
        "label": "_roles",
        "offset": 0,
        "slot": "101",
        "type": "t_mapping(t_bytes32,t_struct(RoleData)43_storage)"
      },
      {
        "astId": 333,
        "contract": "contracts/networks/ETH_EthBridge.sol:ETH_EthBridge",
        "label": "__gap",
        "offset": 0,
        "slot": "102",
        "type": "t_array(t_uint256)49_storage"
      },
      {
        "astId": 474,
        "contract": "contracts/networks/ETH_EthBridge.sol:ETH_EthBridge",
        "label": "_paused",
        "offset": 0,
        "slot": "151",
        "type": "t_bool"
      },
      {
        "astId": 565,
        "contract": "contracts/networks/ETH_EthBridge.sol:ETH_EthBridge",
        "label": "__gap",
        "offset": 0,
        "slot": "152",
        "type": "t_array(t_uint256)49_storage"
      },
      {
        "astId": 6817,
        "contract": "contracts/networks/ETH_EthBridge.sol:ETH_EthBridge",
        "label": "signatureFeeCheckNumber",
        "offset": 0,
        "slot": "201",
        "type": "t_uint256"
      },
      {
        "astId": 6821,
        "contract": "contracts/networks/ETH_EthBridge.sol:ETH_EthBridge",
        "label": "queue",
        "offset": 0,
        "slot": "202",
        "type": "t_array(t_struct(Transfer)7899_storage)dyn_storage"
      },
      {
        "astId": 6826,
        "contract": "contracts/networks/ETH_EthBridge.sol:ETH_EthBridge",
        "label": "lockedTransfers",
        "offset": 0,
        "slot": "203",
        "type": "t_mapping(t_uint256,t_struct(LockedTransfers)7916_storage)"
      },
      {
        "astId": 6828,
        "contract": "contracts/networks/ETH_EthBridge.sol:ETH_EthBridge",
        "label": "oldestLockedEventId",
        "offset": 0,
        "slot": "204",
        "type": "t_uint256"
      },
      {
        "astId": 6832,
        "contract": "contracts/networks/ETH_EthBridge.sol:ETH_EthBridge",
        "label": "tokenAddresses",
        "offset": 0,
        "slot": "205",
        "type": "t_mapping(t_address,t_address)"
      },
      {
        "astId": 6834,
        "contract": "contracts/networks/ETH_EthBridge.sol:ETH_EthBridge",
        "label": "wrapperAddress",
        "offset": 0,
        "slot": "206",
        "type": "t_address"
      },
      {
        "astId": 6836,
        "contract": "contracts/networks/ETH_EthBridge.sol:ETH_EthBridge",
        "label": "transferFeeRecipient",
        "offset": 0,
        "slot": "207",
        "type": "t_address_payable"
      },
      {
        "astId": 6838,
        "contract": "contracts/networks/ETH_EthBridge.sol:ETH_EthBridge",
        "label": "bridgeFeeRecipient",
        "offset": 0,
        "slot": "208",
        "type": "t_address_payable"
      },
      {
        "astId": 6840,
        "contract": "contracts/networks/ETH_EthBridge.sol:ETH_EthBridge",
        "label": "sideBridgeAddress",
        "offset": 0,
        "slot": "209",
        "type": "t_address"
      },
      {
        "astId": 6842,
        "contract": "contracts/networks/ETH_EthBridge.sol:ETH_EthBridge",
        "label": "minSafetyBlocks",
        "offset": 0,
        "slot": "210",
        "type": "t_uint256"
      },
      {
        "astId": 6844,
        "contract": "contracts/networks/ETH_EthBridge.sol:ETH_EthBridge",
        "label": "timeframeSeconds",
        "offset": 0,
        "slot": "211",
        "type": "t_uint256"
      },
      {
        "astId": 6846,
        "contract": "contracts/networks/ETH_EthBridge.sol:ETH_EthBridge",
        "label": "lockTime",
        "offset": 0,
        "slot": "212",
        "type": "t_uint256"
      },
      {
        "astId": 6848,
        "contract": "contracts/networks/ETH_EthBridge.sol:ETH_EthBridge",
        "label": "inputEventId",
        "offset": 0,
        "slot": "213",
        "type": "t_uint256"
      },
      {
        "astId": 6850,
        "contract": "contracts/networks/ETH_EthBridge.sol:ETH_EthBridge",
        "label": "outputEventId",
        "offset": 0,
        "slot": "214",
        "type": "t_uint256"
      },
      {
        "astId": 6852,
        "contract": "contracts/networks/ETH_EthBridge.sol:ETH_EthBridge",
        "label": "lastTimeframe",
        "offset": 0,
        "slot": "215",
        "type": "t_uint256"
      },
      {
        "astId": 7889,
        "contract": "contracts/networks/ETH_EthBridge.sol:ETH_EthBridge",
        "label": "__gap",
        "offset": 0,
        "slot": "216",
        "type": "t_array(t_uint256)15_storage"
      },
      {
        "astId": 2180,
        "contract": "contracts/networks/ETH_EthBridge.sol:ETH_EthBridge",
        "label": "validatorSet",
        "offset": 0,
        "slot": "231",
        "type": "t_array(t_address)dyn_storage"
      },
      {
        "astId": 2182,
        "contract": "contracts/networks/ETH_EthBridge.sol:ETH_EthBridge",
        "label": "validatorSetAddress",
        "offset": 0,
        "slot": "232",
        "type": "t_address"
      },
      {
        "astId": 2184,
        "contract": "contracts/networks/ETH_EthBridge.sol:ETH_EthBridge",
        "label": "lastProcessedBlock",
        "offset": 0,
        "slot": "233",
        "type": "t_bytes32"
      },
      {
        "astId": 2186,
        "contract": "contracts/networks/ETH_EthBridge.sol:ETH_EthBridge",
        "label": "minSafetyBlocksValidators",
        "offset": 0,
        "slot": "234",
        "type": "t_uint256"
      },
      {
        "astId": 2693,
        "contract": "contracts/networks/ETH_EthBridge.sol:ETH_EthBridge",
        "label": "___gap",
        "offset": 0,
        "slot": "235",
        "type": "t_array(t_uint256)15_storage"
      }
    ],
    "types": {
      "t_address": {
        "encoding": "inplace",
        "label": "address",
        "numberOfBytes": "20"
      },
      "t_address_payable": {
        "encoding": "inplace",
        "label": "address payable",
        "numberOfBytes": "20"
      },
      "t_array(t_address)dyn_storage": {
        "base": "t_address",
        "encoding": "dynamic_array",
        "label": "address[]",
        "numberOfBytes": "32"
      },
      "t_array(t_struct(Transfer)7899_storage)dyn_storage": {
        "base": "t_struct(Transfer)7899_storage",
        "encoding": "dynamic_array",
        "label": "struct CommonStructs.Transfer[]",
        "numberOfBytes": "32"
      },
      "t_array(t_uint256)15_storage": {
        "base": "t_uint256",
        "encoding": "inplace",
        "label": "uint256[15]",
        "numberOfBytes": "480"
      },
      "t_array(t_uint256)49_storage": {
        "base": "t_uint256",
        "encoding": "inplace",
        "label": "uint256[49]",
        "numberOfBytes": "1568"
      },
      "t_array(t_uint256)50_storage": {
        "base": "t_uint256",
        "encoding": "inplace",
        "label": "uint256[50]",
        "numberOfBytes": "1600"
      },
      "t_bool": {
        "encoding": "inplace",
        "label": "bool",
        "numberOfBytes": "1"
      },
      "t_bytes32": {
        "encoding": "inplace",
        "label": "bytes32",
        "numberOfBytes": "32"
      },
      "t_mapping(t_address,t_address)": {
        "encoding": "mapping",
        "key": "t_address",
        "label": "mapping(address => address)",
        "numberOfBytes": "32",
        "value": "t_address"
      },
      "t_mapping(t_address,t_bool)": {
        "encoding": "mapping",
        "key": "t_address",
        "label": "mapping(address => bool)",
        "numberOfBytes": "32",
        "value": "t_bool"
      },
      "t_mapping(t_bytes32,t_struct(RoleData)43_storage)": {
        "encoding": "mapping",
        "key": "t_bytes32",
        "label": "mapping(bytes32 => struct AccessControlUpgradeable.RoleData)",
        "numberOfBytes": "32",
        "value": "t_struct(RoleData)43_storage"
      },
      "t_mapping(t_uint256,t_struct(LockedTransfers)7916_storage)": {
        "encoding": "mapping",
        "key": "t_uint256",
        "label": "mapping(uint256 => struct CommonStructs.LockedTransfers)",
        "numberOfBytes": "32",
        "value": "t_struct(LockedTransfers)7916_storage"
      },
      "t_struct(LockedTransfers)7916_storage": {
        "encoding": "inplace",
        "label": "struct CommonStructs.LockedTransfers",
        "members": [
          {
            "astId": 7913,
            "contract": "contracts/networks/ETH_EthBridge.sol:ETH_EthBridge",
            "label": "transfers",
            "offset": 0,
            "slot": "0",
            "type": "t_array(t_struct(Transfer)7899_storage)dyn_storage"
          },
          {
            "astId": 7915,
            "contract": "contracts/networks/ETH_EthBridge.sol:ETH_EthBridge",
            "label": "endTimestamp",
            "offset": 0,
            "slot": "1",
            "type": "t_uint256"
          }
        ],
        "numberOfBytes": "64"
      },
      "t_struct(RoleData)43_storage": {
        "encoding": "inplace",
        "label": "struct AccessControlUpgradeable.RoleData",
        "members": [
          {
            "astId": 40,
            "contract": "contracts/networks/ETH_EthBridge.sol:ETH_EthBridge",
            "label": "members",
            "offset": 0,
            "slot": "0",
            "type": "t_mapping(t_address,t_bool)"
          },
          {
            "astId": 42,
            "contract": "contracts/networks/ETH_EthBridge.sol:ETH_EthBridge",
            "label": "adminRole",
            "offset": 0,
            "slot": "1",
            "type": "t_bytes32"
          }
        ],
        "numberOfBytes": "64"
      },
      "t_struct(Transfer)7899_storage": {
        "encoding": "inplace",
        "label": "struct CommonStructs.Transfer",
        "members": [
          {
            "astId": 7894,
            "contract": "contracts/networks/ETH_EthBridge.sol:ETH_EthBridge",
            "label": "tokenAddress",
            "offset": 0,
            "slot": "0",
            "type": "t_address"
          },
          {
            "astId": 7896,
            "contract": "contracts/networks/ETH_EthBridge.sol:ETH_EthBridge",
            "label": "toAddress",
            "offset": 0,
            "slot": "1",
            "type": "t_address"
          },
          {
            "astId": 7898,
            "contract": "contracts/networks/ETH_EthBridge.sol:ETH_EthBridge",
            "label": "amount",
            "offset": 0,
            "slot": "2",
            "type": "t_uint256"
          }
        ],
        "numberOfBytes": "96"
      },
      "t_uint256": {
        "encoding": "inplace",
        "label": "uint256",
        "numberOfBytes": "32"
      }
    }
  }
}