{
  "address": "0xCdC3C3E517E60BEEdeBddD32569a4581F26B2BD6",
  "abi": [
    {
      "anonymous": false,
      "inputs": [
        {
          "indexed": false,
          "internalType": "address",
          "name": "account",
          "type": "address"
        }
      ],
      "name": "Paused",
      "type": "event"
    },
    {
      "anonymous": false,
      "inputs": [
        {
          "indexed": true,
          "internalType": "bytes32",
          "name": "role",
          "type": "bytes32"
        },
        {
          "indexed": true,
          "internalType": "bytes32",
          "name": "previousAdminRole",
          "type": "bytes32"
        },
        {
          "indexed": true,
          "internalType": "bytes32",
          "name": "newAdminRole",
          "type": "bytes32"
        }
      ],
      "name": "RoleAdminChanged",
      "type": "event"
    },
    {
      "anonymous": false,
      "inputs": [
        {
          "indexed": true,
          "internalType": "bytes32",
          "name": "role",
          "type": "bytes32"
        },
        {
          "indexed": true,
          "internalType": "address",
          "name": "account",
          "type": "address"
        },
        {
          "indexed": true,
          "internalType": "address",
          "name": "sender",
          "type": "address"
        }
      ],
      "name": "RoleGranted",
      "type": "event"
    },
    {
      "anonymous": false,
      "inputs": [
        {
          "indexed": true,
          "internalType": "bytes32",
          "name": "role",
          "type": "bytes32"
        },
        {
          "indexed": true,
          "internalType": "address",
          "name": "account",
          "type": "address"
        },
        {
          "indexed": true,
          "internalType": "address",
          "name": "sender",
          "type": "address"
        }
      ],
      "name": "RoleRevoked",
      "type": "event"
    },
    {
      "anonymous": false,
      "inputs": [
        {
          "indexed": true,
          "internalType": "uint256",
          "name": "eventId",
          "type": "uint256"
        },
        {
          "components": [
            {
              "internalType": "address",
              "name": "tokenAddress",
              "type": "address"
            },
            {
              "internalType": "address",
              "name": "toAddress",
              "type": "address"
            },
            {
              "internalType": "uint256",
              "name": "amount",
              "type": "uint256"
            }
          ],
          "indexed": false,
          "internalType": "struct CommonStructs.Transfer[]",
          "name": "queue",
          "type": "tuple[]"
        }
      ],
      "name": "Transfer",
      "type": "event"
    },
    {
      "anonymous": false,
      "inputs": [
        {
          "indexed": true,
          "internalType": "uint256",
          "name": "eventId",
          "type": "uint256"
        }
      ],
      "name": "TransferFinish",
      "type": "event"
    },
    {
      "anonymous": false,
      "inputs": [
        {
          "indexed": true,
          "internalType": "uint256",
          "name": "eventId",
          "type": "uint256"
        }
      ],
      "name": "TransferSubmit",
      "type": "event"
    },
    {
      "anonymous": false,
      "inputs": [
        {
          "indexed": false,
          "internalType": "address",
          "name": "account",
          "type": "address"
        }
      ],
      "name": "Unpaused",
      "type": "event"
    },
    {
      "anonymous": false,
      "inputs": [
        {
          "indexed": true,
          "internalType": "address",
          "name": "from",
          "type": "address"
        },
        {
          "indexed": false,
          "internalType": "uint256",
          "name": "eventId",
          "type": "uint256"
        },
        {
          "indexed": false,
          "internalType": "address",
          "name": "tokenFrom",
          "type": "address"
        },
        {
          "indexed": false,
          "internalType": "address",
          "name": "tokenTo",
          "type": "address"
        },
        {
          "indexed": false,
          "internalType": "uint256",
          "name": "amount",
          "type": "uint256"
        },
        {
          "indexed": false,
          "internalType": "uint256",
          "name": "transferFeeAmount",
          "type": "uint256"
        },
        {
          "indexed": false,
          "internalType": "uint256",
          "name": "bridgeFeeAmount",
          "type": "uint256"
        }
      ],
      "name": "Withdraw",
      "type": "event"
    },
    {
      "inputs": [],
      "name": "ADMIN_ROLE",
      "outputs": [
        {
          "internalType": "bytes32",
          "name": "",
          "type": "bytes32"
        }
      ],
      "stateMutability": "view",
      "type": "function"
    },
    {
      "inputs": [],
      "name": "DEFAULT_ADMIN_ROLE",
      "outputs": [
        {
          "internalType": "bytes32",
          "name": "",
          "type": "bytes32"
        }
      ],
      "stateMutability": "view",
      "type": "function"
    },
    {
      "inputs": [],
      "name": "RELAY_ROLE",
      "outputs": [
        {
          "internalType": "bytes32",
          "name": "",
          "type": "bytes32"
        }
      ],
      "stateMutability": "view",
      "type": "function"
    },
    {
      "inputs": [
        {
          "internalType": "address payable",
          "name": "feeRecipient_",
          "type": "address"
        }
      ],
      "name": "changeBridgeFeeRecipient",
      "outputs": [],
      "stateMutability": "nonpayable",
      "type": "function"
    },
    {
      "inputs": [
        {
          "internalType": "uint256",
          "name": "lockTime_",
          "type": "uint256"
        }
      ],
      "name": "changeLockTime",
      "outputs": [],
      "stateMutability": "nonpayable",
      "type": "function"
    },
    {
      "inputs": [
        {
          "internalType": "uint256",
          "name": "minSafetyBlocks_",
          "type": "uint256"
        }
      ],
      "name": "changeMinSafetyBlocks",
      "outputs": [],
      "stateMutability": "nonpayable",
      "type": "function"
    },
    {
      "inputs": [
        {
          "internalType": "uint256",
          "name": "signatureFeeCheckNumber_",
          "type": "uint256"
        }
      ],
      "name": "changeSignatureFeeCheckNumber",
      "outputs": [],
      "stateMutability": "nonpayable",
      "type": "function"
    },
    {
      "inputs": [
        {
          "internalType": "uint256",
          "name": "timeframeSeconds_",
          "type": "uint256"
        }
      ],
      "name": "changeTimeframeSeconds",
      "outputs": [],
      "stateMutability": "nonpayable",
      "type": "function"
    },
    {
      "inputs": [
        {
          "internalType": "address payable",
          "name": "feeRecipient_",
          "type": "address"
        }
      ],
      "name": "changeTransferFeeRecipient",
      "outputs": [],
      "stateMutability": "nonpayable",
      "type": "function"
    },
    {
      "inputs": [
        {
          "internalType": "uint256",
          "name": "eventId",
          "type": "uint256"
        }
      ],
      "name": "getLockedTransfers",
      "outputs": [
        {
          "components": [
            {
              "components": [
                {
                  "internalType": "address",
                  "name": "tokenAddress",
                  "type": "address"
                },
                {
                  "internalType": "address",
                  "name": "toAddress",
                  "type": "address"
                },
                {
                  "internalType": "uint256",
                  "name": "amount",
                  "type": "uint256"
                }
              ],
              "internalType": "struct CommonStructs.Transfer[]",
              "name": "transfers",
              "type": "tuple[]"
            },
            {
              "internalType": "uint256",
              "name": "endTimestamp",
              "type": "uint256"
            }
          ],
          "internalType": "struct CommonStructs.LockedTransfers",
          "name": "",
          "type": "tuple"
        }
      ],
      "stateMutability": "view",
      "type": "function"
    },
    {
      "inputs": [
        {
          "internalType": "bytes32",
          "name": "role",
          "type": "bytes32"
        }
      ],
      "name": "getRoleAdmin",
      "outputs": [
        {
          "internalType": "bytes32",
          "name": "",
          "type": "bytes32"
        }
      ],
      "stateMutability": "view",
      "type": "function"
    },
    {
      "inputs": [],
      "name": "getValidatorSet",
      "outputs": [
        {
          "internalType": "address[]",
          "name": "",
          "type": "address[]"
        }
      ],
      "stateMutability": "view",
      "type": "function"
    },
    {
      "inputs": [
        {
          "internalType": "bytes32",
          "name": "role",
          "type": "bytes32"
        },
        {
          "internalType": "address",
          "name": "account",
          "type": "address"
        }
      ],
      "name": "grantRole",
      "outputs": [],
      "stateMutability": "nonpayable",
      "type": "function"
    },
    {
      "inputs": [
        {
          "internalType": "bytes32",
          "name": "role",
          "type": "bytes32"
        },
        {
          "internalType": "address",
          "name": "account",
          "type": "address"
        }
      ],
      "name": "hasRole",
      "outputs": [
        {
          "internalType": "bool",
          "name": "",
          "type": "bool"
        }
      ],
      "stateMutability": "view",
      "type": "function"
    },
    {
      "inputs": [
        {
          "components": [
            {
              "internalType": "address",
              "name": "sideBridgeAddress",
              "type": "address"
            },
            {
              "internalType": "address",
              "name": "adminAddress",
              "type": "address"
            },
            {
              "internalType": "address",
              "name": "relayAddress",
              "type": "address"
            },
            {
              "internalType": "address",
              "name": "wrappingTokenAddress",
              "type": "address"
            },
            {
              "internalType": "address[]",
              "name": "tokenThisAddresses",
              "type": "address[]"
            },
            {
              "internalType": "address[]",
              "name": "tokenSideAddresses",
              "type": "address[]"
            },
            {
              "internalType": "address payable",
              "name": "transferFeeRecipient",
              "type": "address"
            },
            {
              "internalType": "address payable",
              "name": "bridgeFeeRecipient",
              "type": "address"
            },
            {
              "internalType": "uint256",
              "name": "timeframeSeconds",
              "type": "uint256"
            },
            {
              "internalType": "uint256",
              "name": "lockTime",
              "type": "uint256"
            },
            {
              "internalType": "uint256",
              "name": "minSafetyBlocks",
              "type": "uint256"
            }
          ],
          "internalType": "struct CommonStructs.ConstructorArgs",
          "name": "args",
          "type": "tuple"
        },
        {
          "internalType": "address[]",
          "name": "initialValidators",
          "type": "address[]"
        },
        {
          "internalType": "address",
          "name": "validatorSetAddress",
          "type": "address"
        },
        {
          "internalType": "bytes32",
          "name": "lastProcessedBlock",
          "type": "bytes32"
        }
      ],
      "name": "initialize",
      "outputs": [],
      "stateMutability": "nonpayable",
      "type": "function"
    },
    {
      "inputs": [],
      "name": "inputEventId",
      "outputs": [
        {
          "internalType": "uint256",
          "name": "",
          "type": "uint256"
        }
      ],
      "stateMutability": "view",
      "type": "function"
    },
    {
      "inputs": [],
      "name": "lastProcessedBlock",
      "outputs": [
        {
          "internalType": "bytes32",
          "name": "",
          "type": "bytes32"
        }
      ],
      "stateMutability": "view",
      "type": "function"
    },
    {
      "inputs": [],
      "name": "lockTime",
      "outputs": [
        {
          "internalType": "uint256",
          "name": "",
          "type": "uint256"
        }
      ],
      "stateMutability": "view",
      "type": "function"
    },
    {
      "inputs": [
        {
          "internalType": "uint256",
          "name": "",
          "type": "uint256"
        }
      ],
      "name": "lockedTransfers",
      "outputs": [
        {
          "internalType": "uint256",
          "name": "endTimestamp",
          "type": "uint256"
        }
      ],
      "stateMutability": "view",
      "type": "function"
    },
    {
      "inputs": [],
      "name": "minSafetyBlocks",
      "outputs": [
        {
          "internalType": "uint256",
          "name": "",
          "type": "uint256"
        }
      ],
      "stateMutability": "view",
      "type": "function"
    },
    {
      "inputs": [],
      "name": "oldestLockedEventId",
      "outputs": [
        {
          "internalType": "uint256",
          "name": "",
          "type": "uint256"
        }
      ],
      "stateMutability": "view",
      "type": "function"
    },
    {
      "inputs": [],
      "name": "pause",
      "outputs": [],
      "stateMutability": "nonpayable",
      "type": "function"
    },
    {
      "inputs": [],
      "name": "paused",
      "outputs": [
        {
          "internalType": "bool",
          "name": "",
          "type": "bool"
        }
      ],
      "stateMutability": "view",
      "type": "function"
    },
    {
      "inputs": [
        {
          "internalType": "uint256",
          "name": "eventId",
          "type": "uint256"
        }
      ],
      "name": "removeLockedTransfers",
      "outputs": [],
      "stateMutability": "nonpayable",
      "type": "function"
    },
    {
      "inputs": [
        {
          "internalType": "bytes32",
          "name": "role",
          "type": "bytes32"
        },
        {
          "internalType": "address",
          "name": "account",
          "type": "address"
        }
      ],
      "name": "renounceRole",
      "outputs": [],
      "stateMutability": "nonpayable",
      "type": "function"
    },
    {
      "inputs": [
        {
          "internalType": "bytes32",
          "name": "role",
          "type": "bytes32"
        },
        {
          "internalType": "address",
          "name": "account",
          "type": "address"
        }
      ],
      "name": "revokeRole",
      "outputs": [],
      "stateMutability": "nonpayable",
      "type": "function"
    },
    {
      "inputs": [],
      "name": "sideBridgeAddress",
      "outputs": [
        {
          "internalType": "address",
          "name": "",
          "type": "address"
        }
      ],
      "stateMutability": "view",
      "type": "function"
    },
    {
      "inputs": [
        {
          "components": [
            {
              "components": [
                {
                  "internalType": "bytes3",
                  "name": "p0Seal",
                  "type": "bytes3"
                },
                {
                  "internalType": "bytes3",
                  "name": "p0Bare",
                  "type": "bytes3"
                },
                {
                  "internalType": "bytes32",
                  "name": "parentHash",
                  "type": "bytes32"
                },
                {
                  "internalType": "bytes",
                  "name": "p2",
                  "type": "bytes"
                },
                {
                  "internalType": "bytes32",
                  "name": "receiptHash",
                  "type": "bytes32"
                },
                {
                  "internalType": "bytes",
                  "name": "p3",
                  "type": "bytes"
                },
                {
                  "internalType": "bytes4",
                  "name": "step",
                  "type": "bytes4"
                },
                {
                  "internalType": "bytes",
                  "name": "signature",
                  "type": "bytes"
                },
                {
                  "internalType": "uint64",
                  "name": "finalizedVs",
                  "type": "uint64"
                }
              ],
              "internalType": "struct CheckAura.BlockAura[]",
              "name": "blocks",
              "type": "tuple[]"
            },
            {
              "components": [
                {
                  "internalType": "bytes[]",
                  "name": "receiptProof",
                  "type": "bytes[]"
                },
                {
                  "internalType": "uint256",
                  "name": "eventId",
                  "type": "uint256"
                },
                {
                  "components": [
                    {
                      "internalType": "address",
                      "name": "tokenAddress",
                      "type": "address"
                    },
                    {
                      "internalType": "address",
                      "name": "toAddress",
                      "type": "address"
                    },
                    {
                      "internalType": "uint256",
                      "name": "amount",
                      "type": "uint256"
                    }
                  ],
                  "internalType": "struct CommonStructs.Transfer[]",
                  "name": "transfers",
                  "type": "tuple[]"
                }
              ],
              "internalType": "struct CommonStructs.TransferProof",
              "name": "transfer",
              "type": "tuple"
            },
            {
              "components": [
                {
                  "internalType": "bytes[]",
                  "name": "receiptProof",
                  "type": "bytes[]"
                },
                {
                  "components": [
                    {
                      "internalType": "address",
                      "name": "deltaAddress",
                      "type": "address"
                    },
                    {
                      "internalType": "int64",
                      "name": "deltaIndex",
                      "type": "int64"
                    }
                  ],
                  "internalType": "struct CheckAura.ValidatorSetChange[]",
                  "name": "changes",
                  "type": "tuple[]"
                }
              ],
              "internalType": "struct CheckAura.ValidatorSetProof[]",
              "name": "vsChanges",
              "type": "tuple[]"
            },
            {
              "internalType": "uint64",
              "name": "transferEventBlock",
              "type": "uint64"
            }
          ],
          "internalType": "struct CheckAura.AuraProof",
          "name": "auraProof",
          "type": "tuple"
        }
      ],
      "name": "submitTransferAura",
      "outputs": [],
      "stateMutability": "nonpayable",
      "type": "function"
    },
    {
      "inputs": [
        {
          "internalType": "bytes4",
          "name": "interfaceId",
          "type": "bytes4"
        }
      ],
      "name": "supportsInterface",
      "outputs": [
        {
          "internalType": "bool",
          "name": "",
          "type": "bool"
        }
      ],
      "stateMutability": "view",
      "type": "function"
    },
    {
      "inputs": [],
      "name": "timeframeSeconds",
      "outputs": [
        {
          "internalType": "uint256",
          "name": "",
          "type": "uint256"
        }
      ],
      "stateMutability": "view",
      "type": "function"
    },
    {
      "inputs": [
        {
          "internalType": "address",
          "name": "",
          "type": "address"
        }
      ],
      "name": "tokenAddresses",
      "outputs": [
        {
          "internalType": "address",
          "name": "",
          "type": "address"
        }
      ],
      "stateMutability": "view",
      "type": "function"
    },
    {
      "inputs": [
        {
          "internalType": "address",
          "name": "tokenThisAddress",
          "type": "address"
        },
        {
          "internalType": "address",
          "name": "tokenSideAddress",
          "type": "address"
        }
      ],
      "name": "tokensAdd",
      "outputs": [],
      "stateMutability": "nonpayable",
      "type": "function"
    },
    {
      "inputs": [
        {
          "internalType": "address[]",
          "name": "tokenThisAddresses",
          "type": "address[]"
        },
        {
          "internalType": "address[]",
          "name": "tokenSideAddresses",
          "type": "address[]"
        }
      ],
      "name": "tokensAddBatch",
      "outputs": [],
      "stateMutability": "nonpayable",
      "type": "function"
    },
    {
      "inputs": [
        {
          "internalType": "address",
          "name": "tokenThisAddress",
          "type": "address"
        }
      ],
      "name": "tokensRemove",
      "outputs": [],
      "stateMutability": "nonpayable",
      "type": "function"
    },
    {
      "inputs": [
        {
          "internalType": "address[]",
          "name": "tokenThisAddresses",
          "type": "address[]"
        }
      ],
      "name": "tokensRemoveBatch",
      "outputs": [],
      "stateMutability": "nonpayable",
      "type": "function"
    },
    {
      "inputs": [],
      "name": "triggerTransfers",
      "outputs": [],
      "stateMutability": "nonpayable",
      "type": "function"
    },
    {
      "inputs": [
        {
          "internalType": "uint256",
          "name": "eventId",
          "type": "uint256"
        }
      ],
      "name": "unlockTransfers",
      "outputs": [],
      "stateMutability": "nonpayable",
      "type": "function"
    },
    {
      "inputs": [],
      "name": "unlockTransfersBatch",
      "outputs": [],
      "stateMutability": "nonpayable",
      "type": "function"
    },
    {
      "inputs": [],
      "name": "unpause",
      "outputs": [],
      "stateMutability": "nonpayable",
      "type": "function"
    },
    {
      "inputs": [
        {
          "internalType": "uint256",
          "name": "",
          "type": "uint256"
        }
      ],
      "name": "validatorSet",
      "outputs": [
        {
          "internalType": "address",
          "name": "",
          "type": "address"
        }
      ],
      "stateMutability": "view",
      "type": "function"
    },
    {
      "inputs": [
        {
          "internalType": "address",
          "name": "tokenThisAddress",
          "type": "address"
        },
        {
          "internalType": "address",
          "name": "toAddress",
          "type": "address"
        },
        {
          "internalType": "uint256",
          "name": "amount",
          "type": "uint256"
        },
        {
          "internalType": "bool",
          "name": "unwrapSide",
          "type": "bool"
        },
        {
          "internalType": "bytes",
          "name": "signature",
          "type": "bytes"
        },
        {
          "internalType": "uint256",
          "name": "transferFee",
          "type": "uint256"
        },
        {
          "internalType": "uint256",
          "name": "bridgeFee",
          "type": "uint256"
        }
      ],
      "name": "withdraw",
      "outputs": [],
      "stateMutability": "payable",
      "type": "function"
    },
    {
      "inputs": [
        {
          "internalType": "address",
          "name": "toAddress",
          "type": "address"
        },
        {
          "internalType": "bytes",
          "name": "signature",
          "type": "bytes"
        },
        {
          "internalType": "uint256",
          "name": "transferFee",
          "type": "uint256"
        },
        {
          "internalType": "uint256",
          "name": "bridgeFee",
          "type": "uint256"
        }
      ],
      "name": "wrapWithdraw",
      "outputs": [],
      "stateMutability": "payable",
      "type": "function"
    },
    {
      "inputs": [],
      "name": "wrapperAddress",
      "outputs": [
        {
          "internalType": "address",
          "name": "",
          "type": "address"
        }
      ],
      "stateMutability": "view",
      "type": "function"
    },
    {
      "stateMutability": "payable",
      "type": "receive"
    }
  ],
  "transactionHash": "0xba155f75605bd83b3068e29cfde2a280f4350bda99bc13f38527ea369c317c88",
  "args": [],
  "numDeployments": 1,
  "solcInputHash": "ac6034c4272e3eaeaf9c437c709946f1",
  "bytecode": "0x608060405234801561001057600080fd5b50614922806100206000396000f3fe6080604052600436106102645760003560e060020a90048063853890ae11610148578063ba8bbbe0116100ba578063e64808f31161007e578063e64808f31461070e578063f33fe10f1461072e578063f70055871461074e578063f862b7eb1461076e578063f8b744331461078e578063fd5d2ef3146107a157600080fd5b8063ba8bbbe014610673578063baeebe7514610689578063cf3312501461069f578063d547741f146106c1578063e31be087146106e157600080fd5b8063924cf6e01161010c578063924cf6e0146105bc57806396cf5227146105d257806399b5bb64146105f2578063a217fddf14610608578063b6d3385e1461061d578063b87330e91461065357600080fd5b8063853890ae146105345780638ac1f86f146105545780638e5df9c71461056957806391c5bc0a1461058957806391d148541461059c57600080fd5b806336568abe116101e15780635249a705116101a55780635249a705146104785780635c975abb14610498578063746b5c42146104b057806375b238fc146104c55780637df8b802146104e75780638456cb591461051f57600080fd5b806336568abe146103d35780633928b296146103f35780633f4ba83a1461041357806342180fb8146104285780634a1856de1461044857600080fd5b806312c5efb81161022857806312c5efb81461032d578063248a9ca31461034d5780632f2ff15d1461037d578063331a891a1461039d57806333de61d2146103bd57600080fd5b806301ffc9a71461027057806304421823146102a557806309fce356146102d55780630d668087146102f7578063119b980d1461030d57600080fd5b3661026b57005b600080fd5b34801561027c57600080fd5b5061029061028b366004613acb565b6107c1565b60405190151581526020015b60405180910390f35b3480156102b157600080fd5b506102c76000805160206148ad83398151915281565b60405190815260200161029c565b3480156102e157600080fd5b506102f56102f03660046139cc565b61082a565b005b34801561030357600080fd5b506102c760d35481565b34801561031957600080fd5b506102f5610328366004613af5565b610852565b34801561033957600080fd5b506102f5610348366004613b30565b610996565b34801561035957600080fd5b506102c7610368366004613a8d565b60009081526065602052604090206001015490565b34801561038957600080fd5b506102f5610398366004613aa6565b610a1d565b3480156103a957600080fd5b506102f56103b8366004613a8d565b610a43565b3480156103c957600080fd5b506102c760e95481565b3480156103df57600080fd5b506102f56103ee366004613aa6565b610b8a565b3480156103ff57600080fd5b506102f561040e366004613846565b610c15565b34801561041f57600080fd5b506102f5610c51565b34801561043457600080fd5b506102f5610443366004613a8d565b610c75565b34801561045457600080fd5b506102c7610463366004613a8d565b60ca6020526000908152604090206001015481565b34801561048457600080fd5b506102f5610493366004613997565b610c94565b3480156104a457600080fd5b5060975460ff16610290565b3480156104bc57600080fd5b506102f5610d19565b3480156104d157600080fd5b506102c76000805160206148cd83398151915281565b3480156104f357600080fd5b5060cd5461050790600160a060020a031681565b604051600160a060020a03909116815260200161029c565b34801561052b57600080fd5b506102f5610dc5565b34801561054057600080fd5b506102f561054f366004613863565b610de6565b34801561056057600080fd5b506102f5610e2e565b34801561057557600080fd5b506102f5610584366004613846565b610f86565b6102f5610597366004613930565b610fc7565b3480156105a857600080fd5b506102906105b7366004613aa6565b6112f5565b3480156105c857600080fd5b506102c760d15481565b3480156105de57600080fd5b506102f56105ed366004613a8d565b611320565b3480156105fe57600080fd5b506102c760d45481565b34801561061457600080fd5b506102c7600081565b34801561062957600080fd5b50610507610638366004613846565b60cc60205260009081526040902054600160a060020a031681565b34801561065f57600080fd5b506102f561066e366004613846565b61133f565b34801561067f57600080fd5b506102c760cb5481565b34801561069557600080fd5b506102c760d25481565b3480156106ab57600080fd5b506106b461137b565b60405161029c919061406b565b3480156106cd57600080fd5b506102f56106dc366004613aa6565b6113dd565b3480156106ed57600080fd5b506107016106fc366004613a8d565b611403565b60405161029c9190614202565b34801561071a57600080fd5b50610507610729366004613a8d565b6114bf565b34801561073a57600080fd5b5060d05461050790600160a060020a031681565b34801561075a57600080fd5b506102f5610769366004613a8d565b6114e9565b34801561077a57600080fd5b506102f5610789366004613a8d565b611508565b6102f561079c36600461389c565b61173b565b3480156107ad57600080fd5b506102f56107bc366004613a8d565b611b9a565b6000600160e060020a031982167f7965db0b00000000000000000000000000000000000000000000000000000000148061082457507f01ffc9a700000000000000000000000000000000000000000000000000000000600160e060020a03198316145b92915050565b6000805160206148cd8339815191526108438133611bb9565b61084d8383611c20565b505050565b6000805160206148ad83398151915261086b8133611bb9565b60975460ff161561089a5760405160e560020a62461bcd0281526004016108919061416e565b60405180910390fd5b6108a7602083018361432e565b602001357f196c47048e38df7a4fe6e581c8f4f2e2ba67ac0dd45b90da756e97bd61d9dd3b60405160405180910390a26108f06108e7602084018461432e565b60200135611d36565b60d15460d05461090a918491600160a060020a0316611d9b565b61099261091a602084018461432e565b61092890604081019061427d565b808060200260200160405190810160405280939291908181526020016000905b828210156109745761096560608302860136819003810190613c89565b81526020019060010190610948565b5050505050838060200190610989919061432e565b602001356121dd565b5050565b600054610100900460ff16806109af575060005460ff16155b6109ce5760405160e560020a62461bcd028152600401610891906141a5565b600054610100900460ff161580156109f0576000805461ffff19166101011790555b6109f9856122a0565b610a048484846123eb565b8015610a16576000805461ff00191690555b5050505050565b600082815260656020526040902060010154610a398133611bb9565b61084d838361250a565b6000805160206148cd833981519152610a5c8133611bb9565b60975460ff16610ab15760405160e560020a62461bcd02815260206004820152601460248201527f5061757361626c653a206e6f74207061757365640000000000000000000000006044820152606401610891565b60cb54821015610b2c5760405160e560020a62461bcd02815260206004820152602660248201527f6576656e744964206d757374206265203e3d206f6c646573744c6f636b65644560448201527f76656e74496400000000000000000000000000000000000000000000000000006064820152608401610891565b600082815260ca602052604090206001015415610b7857600082815260ca6020526040812090610b5c8282613574565b5060006001919091015581610b70816147dd565b925050610b2c565b610b83600183614553565b60d4555050565b600160a060020a0381163314610c0b5760405160e560020a62461bcd02815260206004820152602f60248201527f416363657373436f6e74726f6c3a2063616e206f6e6c792072656e6f756e636560448201527f20726f6c657320666f722073656c6600000000000000000000000000000000006064820152608401610891565b6109928282612590565b6000805160206148cd833981519152610c2e8133611bb9565b5060cf8054600160a060020a031916600160a060020a0392909216919091179055565b6000805160206148cd833981519152610c6a8133611bb9565b610c726125f7565b50565b6000805160206148cd833981519152610c8e8133611bb9565b5060d255565b6000805160206148cd833981519152610cad8133611bb9565b815160005b81811015610d135760cc6000858381518110610cd057610cd0614857565b602090810291909101810151600160a060020a031682528101919091526040016000208054600160a060020a031916905580610d0b816147dd565b915050610cb2565b50505050565b60c954610d6b5760405160e560020a62461bcd02815260206004820152600e60248201527f517565756520697320656d7074790000000000000000000000000000000000006044820152606401610891565b60d58054906000610d7b836147dd565b919050557fe15729a2f427aa4572dab35eb692c902fcbce57d41642013259c741380809ae260c9604051610daf91906140cb565b60405180910390a2610dc360c96000613574565b565b6000805160206148cd833981519152610dde8133611bb9565b610c72612696565b6000805160206148cd833981519152610dff8133611bb9565b50600160a060020a03918216600090815260cc602052604090208054600160a060020a03191691909216179055565b60975460ff1615610e545760405160e560020a62461bcd0281526004016108919061416e565b60cb545b600081815260ca60209081526040808320815181546060948102820185018452928101838152909391928492849190879085015b82821015610ee657600084815260209081902060408051606081018252600386029092018054600160a060020a03908116845260018083015490911684860152600290910154918301919091529083529092019101610e8c565b5050505081526020016001820154815250509050806020015160001480610f105750428160200151115b15610f1b575060cb55565b8051610f26906126f1565b600082815260ca6020526040812090610f3f8282613574565b50600060019190910181905560405183917f78ff9b3176bb0d6421590f3816e75cb15a9ffa2b7a1a028f40a3f4e029eb39f291a25080610f7e816147dd565b915050610e58565b6000805160206148cd833981519152610f9f8133611bb9565b50600160a060020a0316600090815260cc602052604090208054600160a060020a0319169055565b60cd54600160a060020a03908116600090815260cc602052604090205416806110355760405160e560020a62461bcd02815260206004820152601560248201527f556e6b6e6f776e20746f6b656e206164647265737300000000000000000000006044820152606401610891565b61103f828461441f565b34116110905760405160e560020a62461bcd02815260206004820152601160248201527f53656e742076616c7565203c3d206665650000000000000000000000000000006044820152606401610891565b60cd546110a990600160a060020a031686868686612985565b60ce54604051600160a060020a039091169084156108fc029085906000818181858888f193505050501580156110e3573d6000803e3d6000fd5b5060cf54604051600160a060020a039091169083156108fc029084906000818181858888f1935050505015801561111e573d6000803e3d6000fd5b5060008261112c8534614553565b6111369190614553565b905060cd60009054906101000a9004600160a060020a0316600160a060020a031663d0e30db0826040518263ffffffff1660e060020a0281526004016000604051808303818588803b15801561118b57600080fd5b505af115801561119f573d6000803e3d6000fd5b505060408051606081018252600160a060020a0380881682528c81166020830190815282840188815260c980546001810182556000918252945160039095027f66be4f155c5ef2ebd3772b228f2f00681e4ed5826cdb3b1943cc11ad15ad1d2881018054968616600160a060020a031997881617905592517f66be4f155c5ef2ebd3772b228f2f00681e4ed5826cdb3b1943cc11ad15ad1d29840180549190951695169490941790925590517f66be4f155c5ef2ebd3772b228f2f00681e4ed5826cdb3b1943cc11ad15ad1d2a9091015560d55491513395507f3b823d3b837159352faddd1e0b9e9f584ca2bfe976238f6a9e6da4615cf2f44494506112dc9350879087908b908b90958652600160a060020a0394851660208701529290931660408501526060840152608083019190915260a082015260c00190565b60405180910390a26112ec612b11565b50505050505050565b6000918252606560209081526040808420600160a060020a0393909316845291905290205460ff1690565b6000805160206148cd8339815191526113398133611bb9565b5060d355565b6000805160206148cd8339815191526113588133611bb9565b5060ce8054600160a060020a031916600160a060020a0392909216919091179055565b606060e78054806020026020016040519081016040528092919081815260200182805480156113d357602002820191906000526020600020905b8154600160a060020a031681526001909101906020018083116113b5575b5050505050905090565b6000828152606560205260409020600101546113f98133611bb9565b61084d8383612590565b604080518082019091526060815260006020820152600082815260ca60209081526040808320815181546060948102820185018452928101838152909491938593919285929185015b828210156114a657600084815260209081902060408051606081018252600386029092018054600160a060020a0390811684526001808301549091168486015260029091015491830191909152908352909201910161144c565b5050505081526020016001820154815250509050919050565b60e781815481106114cf57600080fd5b600091825260209091200154600160a060020a0316905081565b6000805160206148cd8339815191526115028133611bb9565b5060d755565b60975460ff161561152e5760405160e560020a62461bcd0281526004016108919061416e565b60cb5481146115825760405160e560020a62461bcd02815260206004820152601c60248201527f63616e20756e6c6f636b206f6e6c79206f6c64657374206576656e74000000006044820152606401610891565b600081815260ca60209081526040808320815181546060948102820185018452928101838152909391928492849190879085015b8282101561161057600084815260209081902060408051606081018252600386029092018054600160a060020a039081168452600180830154909116848601526002909101549183019190915290835290920191016115b6565b5050505081526020016001820154815250509050600081602001511161167b5760405160e560020a62461bcd02815260206004820181905260248201527f6e6f206c6f636b6564207472616e7366657273207769746820746869732069646044820152606401610891565b428160200151106116d15760405160e560020a62461bcd02815260206004820152601b60248201527f6c6f636b54696d6520686173206e6f74207965742070617373656400000000006044820152606401610891565b80516116dc906126f1565b600082815260ca60205260408120906116f58282613574565b50600060019190910181905560405183917f78ff9b3176bb0d6421590f3816e75cb15a9ffa2b7a1a028f40a3f4e029eb39f291a261173482600161441f565b60cb555050565b600085156117d0576000805260cc6020527f435daec636ce435a90bde0aeec309a303a359a854c5a51b7d6a5a941d6db609454600160a060020a038a81169116146117cb5760405160e560020a62461bcd02815260206004820152601f60248201527f546f6b656e206e6f7420706f696e7420746f206e617469766520746f6b656e006044820152606401610891565b61183c565b50600160a060020a03808916600090815260cc6020526040902054168061183c5760405160e560020a62461bcd02815260206004820152601560248201527f556e6b6e6f776e20746f6b656e206164647265737300000000000000000000006044820152606401610891565b611846828461441f565b34146118975760405160e560020a62461bcd02815260206004820152601160248201527f53656e742076616c756520213d206665650000000000000000000000000000006044820152606401610891565b600087116118ea5760405160e560020a62461bcd02815260206004820152601160248201527f43616e6e6f7420776974686472617720300000000000000000000000000000006044820152606401610891565b6118f78986868686612985565b60ce54604051600160a060020a039091169084156108fc029085906000818181858888f19350505050158015611931573d6000803e3d6000fd5b5060cf54604051600160a060020a039091169083156108fc029084906000818181858888f1935050505015801561196c573d6000803e3d6000fd5b506040517f23b872dd00000000000000000000000000000000000000000000000000000000815233600482015230602482015260448101889052600160a060020a038a16906323b872dd90606401602060405180830381600087803b1580156119d457600080fd5b505af11580156119e8573d6000803e3d6000fd5b505050506040513d601f19601f82011682018060405250810190611a0c9190613a30565b611a5b5760405160e560020a62461bcd02815260206004820152601360248201527f4661696c207472616e7366657220636f696e73000000000000000000000000006044820152606401610891565b6040805160608082018352600160a060020a038481168084528c821660208086019182528587018e815260c98054600181018255600091909152965160039097027f66be4f155c5ef2ebd3772b228f2f00681e4ed5826cdb3b1943cc11ad15ad1d2881018054988716600160a060020a0319998a1617905592517f66be4f155c5ef2ebd3772b228f2f00681e4ed5826cdb3b1943cc11ad15ad1d2984018054918716919098161790965594517f66be4f155c5ef2ebd3772b228f2f00681e4ed5826cdb3b1943cc11ad15ad1d2a9091015560d5548551908152918e16938201939093529283019190915281018890526080810184905260a0810183905233907f3b823d3b837159352faddd1e0b9e9f584ca2bfe976238f6a9e6da4615cf2f4449060c00160405180910390a2611b8f612b11565b505050505050505050565b6000805160206148cd833981519152611bb38133611bb9565b5060d155565b611bc382826112f5565b61099257611bdb81600160a060020a03166014612b89565b611be6836020612b89565b604051602001611bf7929190613fea565b60408051601f198184030181529082905260e560020a62461bcd0282526108919160040161413b565b8051825114611c9a5760405160e560020a62461bcd02815260206004820152603f60248201527f73697a6573206f6620746f6b656e5468697341646472657373657320616e642060448201527f746f6b656e53696465416464726573736573206d7573742062652073616d65006064820152608401610891565b815160005b81811015610d1357828181518110611cb957611cb9614857565b602002602001015160cc6000868481518110611cd757611cd7614857565b6020026020010151600160a060020a0316600160a060020a0316815260200190815260200160002060006101000a815481600160a060020a030219169083600160a060020a031602179055508080611d2e906147dd565b915050611c9f565b60d460008154611d45906147dd565b91829055508114610c725760405160e560020a62461bcd02815260206004820152601460248201527f4576656e744964206f7574206f66206f726465720000000000000000000000006044820152606401610891565b600080611dbd611dae602087018761432e565b611db7906145bc565b84612d76565b905080611dca8680614234565b611dda6080890160608a01613ca5565b67ffffffffffffffff16818110611df357611df3614857565b9050602002810190611e05919061430d565b6080013514611e595760405160e560020a62461bcd02815260206004820181905260248201527f5472616e73666572206576656e742076616c69646174696f6e206661696c65646044820152606401610891565b83611e6a6080870160608801613ca5565b67ffffffffffffffff16611e7e8780614234565b611e89929150614553565b1015611eda5760405160e560020a62461bcd02815260206004820152601860248201527f4e6f7420656e6f7567682073616665747920626c6f636b7300000000000000006044820152606401610891565b60005b611ee78680614234565b90508110156121d35736611efb8780614234565b83818110611f0b57611f0b614857565b9050602002810190611f1d919061430d565b9050611f3161012082016101008301613ca5565b67ffffffffffffffff161561210d576000611f4f6040890189614234565b6001611f6361012086016101008701613ca5565b611f6d919061456a565b67ffffffffffffffff16818110611f8657611f86614857565b9050602002810190611f989190614344565b611fa190614696565b60e754909150600090611fb690600290614437565b611fc190600161441f565b905060005b82602001515181101561200b57611ff983602001518281518110611fec57611fec614857565b6020026020010151612e6b565b80612003816147dd565b915050611fc6565b50815160e85460e780546040805160208084028201810190925282815261207e9594600160a060020a0316939092909183018282801561207457602002820191906000526020600020905b8154600160a060020a03168152600190910190602001808311612056575b5050505050612fa7565b94508461208b8a80614234565b6120958488614553565b8181106120a4576120a4614857565b90506020028101906120b6919061430d565b608001351461210a5760405160e560020a62461bcd02815260206004820152601560248201527f57726f6e672056532072656365697074206861736800000000000000000000006044820152606401610891565b50505b831561216957838160400135146121695760405160e560020a62461bcd02815260206004820152601160248201527f57726f6e6720706172656e7420686173680000000000000000000000000000006044820152606401610891565b6121728161305d565b935061218661012082016101008301613ca5565b67ffffffffffffffff16158015906121b657506121a96080880160608901613ca5565b67ffffffffffffffff1682105b156121c057600093505b50806121cb816147dd565b915050611edd565b505060e955505050565b60d3546121ea904261441f565b600082815260ca60205260408120600101919091555b825181101561084d57600082815260ca60205260409020835184908390811061222b5761222b614857565b60209081029190910181015182546001808201855560009485529383902082516003909202018054600160a060020a0319908116600160a060020a0393841617825593830151948101805490941694909116939093179091556040015160029091015580612298816147dd565b915050612200565b600054610100900460ff16806122b9575060005460ff16155b6122d85760405160e560020a62461bcd028152600401610891906141a5565b600054610100900460ff161580156122fa576000805461ffff19166101011790555b612305600033613179565b6123216000805160206148ad8339815191528360400151613179565b61233d6000805160206148cd8339815191528360200151613179565b61234f82608001518360a00151611c20565b606082015160cd8054600160a060020a03928316600160a060020a031991821617909155835160d0805491841691831691909117905560c084015160ce805491841691831691909117905560e084015160cf805491909316911617905561014082015160d15561010082015160d25561012082015160d355600160cb81905560d555600360d7558015610992576000805461ff00191690555050565b600054610100900460ff1680612404575060005460ff16155b6124235760405160e560020a62461bcd028152600401610891906141a5565b600054610100900460ff16158015612445576000805461ffff19166101011790555b60008451116124bf5760405160e560020a62461bcd02815260206004820152603260248201527f4c656e677468206f66205f696e697469616c56616c696461746f7273206d757360448201527f7420626520626967676572207468616e203000000000000000000000000000006064820152608401610891565b83516124d29060e7906020870190613595565b5060e88054600160a060020a031916600160a060020a03851617905560e98290558015610d13576000805461ff001916905550505050565b61251482826112f5565b610992576000828152606560209081526040808320600160a060020a03851684529091529020805460ff1916600117905561254c3390565b600160a060020a031681600160a060020a0316837f2f8788117e7eff1d82e926ec794901d17c78024a50270940304540a733656f0d60405160405180910390a45050565b61259a82826112f5565b15610992576000828152606560209081526040808320600160a060020a0385168085529252808320805460ff1916905551339285917ff6391f5c32d9c69d2a47ea670b442974b53935d1edc7fd64eb21e047a839171b9190a45050565b60975460ff1661264c5760405160e560020a62461bcd02815260206004820152601460248201527f5061757361626c653a206e6f74207061757365640000000000000000000000006044820152606401610891565b6097805460ff191690557f5db9ee0a495bf2e6ff9c91a7834c1ba4fdd244a5e8aa4e537bd38aeae4b073aa335b604051600160a060020a03909116815260200160405180910390a1565b60975460ff16156126bc5760405160e560020a62461bcd0281526004016108919061416e565b6097805460ff191660011790557f62e78cea01bee320cd4e420270b5ea74000d11b0c9f74754ebdbfc544b05a2586126793390565b60005b8151811015610992576000600160a060020a031682828151811061271a5761271a614857565b602002602001015160000151600160a060020a031614156128365760cd548251600160a060020a0390911690632e1a7d4d9084908490811061275e5761275e614857565b6020026020010151604001516040518263ffffffff1660e060020a02815260040161278b91815260200190565b600060405180830381600087803b1580156127a557600080fd5b505af11580156127b9573d6000803e3d6000fd5b505050508181815181106127cf576127cf614857565b602002602001015160200151600160a060020a03166108fc8383815181106127f9576127f9614857565b6020026020010151604001519081150290604051600060405180830381858888f19350505050158015612830573d6000803e3d6000fd5b50612973565b81818151811061284857612848614857565b602002602001015160000151600160a060020a031663a9059cbb83838151811061287457612874614857565b60200260200101516020015184848151811061289257612892614857565b6020026020010151604001516040518363ffffffff1660e060020a0281526004016128d2929190600160a060020a03929092168252602082015260400190565b602060405180830381600087803b1580156128ec57600080fd5b505af1158015612900573d6000803e3d6000fd5b505050506040513d601f19601f820116820180604052508101906129249190613a30565b6129735760405160e560020a62461bcd02815260206004820152601360248201527f4661696c207472616e7366657220636f696e73000000000000000000000000006044820152606401610891565b8061297d816147dd565b9150506126f4565b6000808061299561070842614437565b905060005b60d754811015612ac5576040516c01000000000000000000000000600160a060020a038b1602602082015260348101839052605481018790526074810186905260940160408051601f198184030181529082905280516020918201207f19457468657265756d205369676e6564204d6573736167653a0a33320000000091830191909152603c820152605c01604051602081830303815290604052805190602001209350612a7e8489898080601f01602080910402602001604051908101604052809392919081815260200183838082843760009201919091525061318392505050565b9250612a986000805160206148ad833981519152846112f5565b15612aa65750505050610a16565b81612ab0816147c6565b92505080612abd816147dd565b91505061299a565b5060405160e560020a62461bcd02815260206004820152601660248201527f5369676e617475726520636865636b206661696c6564000000000000000000006044820152606401610891565b600060d25442612b219190614437565b905060d6548114610c725760d58054906000612b3c836147dd565b919050557fe15729a2f427aa4572dab35eb692c902fcbce57d41642013259c741380809ae260c9604051612b7091906140cb565b60405180910390a2612b8460c96000613574565b60d655565b60606000612b988360026144e2565b612ba390600261441f565b67ffffffffffffffff811115612bbb57612bbb614870565b6040519080825280601f01601f191660200182016040528015612be5576020820181803683370190505b5090507f300000000000000000000000000000000000000000000000000000000000000081600081518110612c1c57612c1c614857565b6020010190600160f860020a031916908160001a9053507f780000000000000000000000000000000000000000000000000000000000000081600181518110612c6757612c67614857565b6020010190600160f860020a031916908160001a9053506000612c8b8460026144e2565b612c9690600161441f565b90505b6001811115612d1d577f303132333435363738396162636465660000000000000000000000000000000085600f1660108110612cd757612cd7614857565b1a60f860020a02828281518110612cf057612cf0614857565b6020010190600160f860020a031916908160001a905350601090940493612d16816147c6565b9050612c99565b508315612d6f5760405160e560020a62461bcd02815260206004820181905260248201527f537472696e67733a20686578206c656e67746820696e73756666696369656e746044820152606401610891565b9392505050565b6000808360000151600081518110612d9057612d90614857565b6020026020010151838560000151600181518110612db057612db0614857565b6020026020010151612dc5876020015161320e565b875180516002908110612dda57612dda614857565b60200260200101518860400151604051602001612df791906140b8565b6040516020818303038152906040528960000151600381518110612e1d57612e1d614857565b6020026020010151604051602001612e3b9796959493929190613f08565b604051602081830303815290604052805190602001209050612e638460000151826004613376565b949350505050565b6000816020015160070b1215612f5557600060018260200151600019612e91919061444b565b612e9b9190614501565b60070b905060e7600160e780549050612eb49190614553565b81548110612ec457612ec4614857565b60009182526020909120015460e78054600160a060020a039092169183908110612ef057612ef0614857565b9060005260206000200160006101000a815481600160a060020a030219169083600160a060020a0316021790555060e7805480612f2f57612f2f61483e565b60008281526020902081016000199081018054600160a060020a03191690550190555050565b5160e780546001810182556000919091527f6cb0db1d7354dfb4a1464318006df0643cafe2002a86a29ff8560f900fef28a1018054600160a060020a031916600160a060020a03909216919091179055565b60008084600081518110612fbd57612fbd614857565b60200260200101518486600181518110612fd957612fd9614857565b602002602001015185604051602001612ff2919061406b565b6040516020818303038152906040528860028151811061301457613014614857565b6020026020010151604051602001613030959493929190613e89565b60405160208183030381529060405280519060200120905061305485826003613376565b95945050505050565b600080600061306b84613426565b60e7805492945090925060009161309b61308b60e0890160c08a01613acb565b60e060020a900463ffffffff1690565b6130a591906147f8565b815481106130b5576130b5614857565b600091825260209091200154600160a060020a0316905080613118846130de60e08901896142c6565b8080601f01602080910402602001604051908101604052809392919081815260200183838082843760009201919091525061318392505050565b600160a060020a0316146131715760405160e560020a62461bcd02815260206004820152601560248201527f4661696c656420746f20766572696679207369676e00000000000000000000006044820152606401610891565b509392505050565b610992828261250a565b6020810151604082015160608301516000929190831a601b8110156131a657601b015b60408051600081526020810180835288905260ff831691810191909152606081018490526080810183905260019060a0016020604051602081039080840390855afa1580156131f9573d6000803e3d6000fd5b5050604051601f190151979650505050505050565b6040805160208082528183019092526060916000919060208201818036833701905050905082602082015260005b60208110156132a55781818151811061325757613257614857565b60209101015160f860020a90819004027fff000000000000000000000000000000000000000000000000000000000000001615613293576132a5565b8061329d816147dd565b91505061323c565b60006132b2826020614553565b67ffffffffffffffff8111156132ca576132ca614870565b6040519080825280601f01601f1916602001820160405280156132f4576020820181803683370190505b50905060005b815181101561336d57838361330e816147dd565b94508151811061332057613320614857565b602001015160f860020a900460f860020a0282828151811061334457613344614857565b6020010190600160f860020a031916908160001a90535080613365816147dd565b9150506132fa565b50949350505050565b60006060825b855181101561341c5785818151811061339757613397614857565b602002602001015185878360016133ae919061441f565b815181106133be576133be614857565b60200260200101516040516020016133d893929190613fb3565b60405160208183030381529060405291506020825111613400576133fb82614593565b613408565b815160208301205b945061341560028261441f565b905061337c565b5092949350505050565b600080807fa000000000000000000000000000000000000000000000000000000000000000604085013561345d60608701876142c6565b608088013561346f60a08a018a6142c6565b6040516020016134859796959493929190613d2c565b60408051601f198184030181529181529091506134a790850160208601613a4d565b816040516020016134b9929190613d89565b60408051601f198184030181529190528051602091820120906134de90860186613a4d565b827f840000000000000000000000000000000000000000000000000000000000000061351060e0890160c08a01613acb565b7fb84100000000000000000000000000000000000000000000000000000000000061353e60e08b018b6142c6565b6040516020016135549796959493929190613dcf565b604051602081830303815290604052805190602001209250925050915091565b5080546000825560030290600052602060002090810190610c7291906135fa565b8280548282559060005260206000209081019282156135ea579160200282015b828111156135ea5782518254600160a060020a031916600160a060020a039091161782556020909201916001909101906135b5565b506135f692915061362d565b5090565b5b808211156135f6578054600160a060020a031990811682556001820180549091169055600060028201556003016135fb565b5b808211156135f6576000815560010161362e565b803561364d81614889565b919050565b600082601f83011261366357600080fd5b81356020613678613673836143fb565b6143ca565b828152818101908583018385028701840188101561369557600080fd5b60005b858110156136bd5781356136ab81614889565b84529284019290840190600101613698565b5090979650505050505050565b6000601f83818401126136dc57600080fd5b823560206136ec613673836143fb565b828152818101908683018385028801840189101561370957600080fd5b60005b858110156137a157813567ffffffffffffffff8082111561372c57600080fd5b818b0191508b603f83011261374057600080fd5b8682013560408282111561375657613756614870565b613767828c01601f19168a016143ca565b92508183528d8183860101111561377d57600080fd5b818185018a850137506000908201880152855250928401929084019060010161370c565b509098975050505050505050565b60008083601f8401126137c157600080fd5b50813567ffffffffffffffff8111156137d957600080fd5b6020830191508360208285010111156137f157600080fd5b9250929050565b60006060828403121561380a57600080fd5b61381261435a565b9050813561381f81614889565b8152602082013561382f81614889565b806020830152506040820135604082015292915050565b60006020828403121561385857600080fd5b8135612d6f81614889565b6000806040838503121561387657600080fd5b823561388181614889565b9150602083013561389181614889565b809150509250929050565b60008060008060008060008060e0898b0312156138b857600080fd5b88356138c381614889565b975060208901356138d381614889565b96506040890135955060608901356138ea8161489e565b9450608089013567ffffffffffffffff81111561390657600080fd5b6139128b828c016137af565b999c989b5096999598969760a08701359660c0013595509350505050565b60008060008060006080868803121561394857600080fd5b853561395381614889565b9450602086013567ffffffffffffffff81111561396f57600080fd5b61397b888289016137af565b9699909850959660408101359660609091013595509350505050565b6000602082840312156139a957600080fd5b813567ffffffffffffffff8111156139c057600080fd5b612e6384828501613652565b600080604083850312156139df57600080fd5b823567ffffffffffffffff808211156139f757600080fd5b613a0386838701613652565b93506020850135915080821115613a1957600080fd5b50613a2685828601613652565b9150509250929050565b600060208284031215613a4257600080fd5b8151612d6f8161489e565b600060208284031215613a5f57600080fd5b81357cffffffffffffffffffffffffffffffffffffffffffffffffffffffffff1981168114612d6f57600080fd5b600060208284031215613a9f57600080fd5b5035919050565b60008060408385031215613ab957600080fd5b82359150602083013561389181614889565b600060208284031215613add57600080fd5b8135600160e060020a031981168114612d6f57600080fd5b600060208284031215613b0757600080fd5b813567ffffffffffffffff811115613b1e57600080fd5b820160808185031215612d6f57600080fd5b60008060008060808587031215613b4657600080fd5b843567ffffffffffffffff80821115613b5e57600080fd5b908601906101608289031215613b7357600080fd5b613b7b614383565b613b8483613642565b8152613b9260208401613642565b6020820152613ba360408401613642565b6040820152613bb460608401613642565b6060820152608083013582811115613bcb57600080fd5b613bd78a828601613652565b60808301525060a083013582811115613bef57600080fd5b613bfb8a828601613652565b60a083015250613c0d60c08401613642565b60c0820152613c1e60e08401613642565b60e082015261010083810135908201526101208084013590820152610140928301359281019290925290945060208601359080821115613c5d57600080fd5b50613c6a87828801613652565b935050613c7960408601613642565b9396929550929360600135925050565b600060608284031215613c9b57600080fd5b612d6f83836137f8565b600060208284031215613cb757600080fd5b813567ffffffffffffffff81168114612d6f57600080fd5b600081518084526020808501945080840160005b83811015613d215781518051600160a060020a0390811689528482015116848901526040908101519088015260609096019590820190600101613ce3565b509495945050505050565b7fff0000000000000000000000000000000000000000000000000000000000000088168152866001820152848660218301378481016021810185905260009083856041830137600093016041019283525090979650505050505050565b7cffffffffffffffffffffffffffffffffffffffffffffffffffffffffff198316815260008251613dc181600385016020870161479a565b919091016003019392505050565b7cffffffffffffffffffffffffffffffffffffffffffffffffffffffffff198816815260008751613e07816003850160208c0161479a565b7fff000000000000000000000000000000000000000000000000000000000000008816600391840191820152600160e060020a0319871660048201527fffff000000000000000000000000000000000000000000000000000000000000861660088201528385600a83013760009301600a019283525090979650505050505050565b60008651613e9b818460208b0161479a565b600160a060020a0387166c01000000000000000000000000029083019081528551613ecd816014840160208a0161479a565b8551910190613ee381601484016020890161479a565b8451910190613ef981601484016020880161479a565b01601401979650505050505050565b600088516020613f1b8285838e0161479a565b81840191506c01000000000000000000000000600160a060020a038b1602825260148951613f4e81838601858e0161479a565b8951930192613f6281838601858d0161479a565b8851930192613f7681838601858c0161479a565b8751930192613f8a81838601858b0161479a565b8651930192613f9e81838601858a0161479a565b929092019091019a9950505050505050505050565b60008451613fc581846020890161479a565b82018481528351613fdd81602080850190880161479a565b0160200195945050505050565b7f416363657373436f6e74726f6c3a206163636f756e742000000000000000000081526000835161402281601785016020880161479a565b7f206973206d697373696e6720726f6c6520000000000000000000000000000000601791840191820152835161405f81602884016020880161479a565b01602801949350505050565b6020808252825182820181905260009190848201906040850190845b818110156140ac578351600160a060020a031683529284019291840191600101614087565b50909695505050505050565b602081526000612d6f6020830184613ccf565b60006020808301818452808554808352604092508286019150866000528360002060005b8281101561412e578154600160a060020a03908116855260018084015490911687860152600283015486860152606090940193600390920191016140ef565b5091979650505050505050565b602081526000825180602084015261415a81604085016020870161479a565b601f01601f19169190910160400192915050565b60208082526010908201527f5061757361626c653a2070617573656400000000000000000000000000000000604082015260600190565b6020808252602e908201527f496e697469616c697a61626c653a20636f6e747261637420697320616c72656160408201527f647920696e697469616c697a6564000000000000000000000000000000000000606082015260800190565b60208152600082516040602084015261421e6060840182613ccf565b9050602084015160408401528091505092915050565b6000808335601e1984360301811261424b57600080fd5b83018035915067ffffffffffffffff82111561426657600080fd5b60209081019250810236038213156137f157600080fd5b6000808335601e1984360301811261429457600080fd5b83018035915067ffffffffffffffff8211156142af57600080fd5b60200191506060810236038213156137f157600080fd5b6000808335601e198436030181126142dd57600080fd5b83018035915067ffffffffffffffff8211156142f857600080fd5b6020019150368190038213156137f157600080fd5b6000823561011e1983360301811261432457600080fd5b9190910192915050565b60008235605e1983360301811261432457600080fd5b60008235603e1983360301811261432457600080fd5b6040516060810167ffffffffffffffff8111828210171561437d5761437d614870565b60405290565b604051610160810167ffffffffffffffff8111828210171561437d5761437d614870565b6040805190810167ffffffffffffffff8111828210171561437d5761437d614870565b604051601f8201601f1916810167ffffffffffffffff811182821017156143f3576143f3614870565b604052919050565b600067ffffffffffffffff82111561441557614415614870565b5060209081020190565b600082198211156144325761443261480c565b500190565b60008261444657614446614825565b500490565b60008160070b8360070b677fffffffffffffff60008213600084138383048511828216161561447c5761447c61480c565b677fffffffffffffff1960008512828116878305871216156144a0576144a061480c565b600087129250858205871284841616156144bc576144bc61480c565b858505871281841616156144d2576144d261480c565b5050509290910295945050505050565b60008160001904831182151516156144fc576144fc61480c565b500290565b60008160070b8360070b6000811281677fffffffffffffff190183128115161561452d5761452d61480c565b81677fffffffffffffff0183138116156145495761454961480c565b5090039392505050565b6000828210156145655761456561480c565b500390565b600067ffffffffffffffff8381169083168181101561458b5761458b61480c565b039392505050565b805160208083015191908110156145b6578060200360080260020a600003821691505b50919050565b600060608083360312156145cf57600080fd5b6145d761435a565b833567ffffffffffffffff808211156145ef57600080fd5b6145fb368388016136ca565b835260209150818601358284015260408601358181111561461b57600080fd5b8601905036601f82011261462e57600080fd5b803561463c613673826143fb565b818152838101908385013688850286018701111561465957600080fd5b600094505b838510156146845761467036826137f8565b83526001949094019391850191870161465e565b50604086015250929695505050505050565b600060408083360312156146a957600080fd5b6146b16143a7565b833567ffffffffffffffff808211156146c957600080fd5b6146d5368388016136ca565b83526020915081860135818111156146ec57600080fd5b8601905036601f8201126146ff57600080fd5b803561470d613673826143fb565b818152838101908385013688850286018701111561472a57600080fd5b600094505b838510156147875787813603121561474657600080fd5b61474e6143a7565b813561475981614889565b815281870135600781900b811461476f57600080fd5b8188015283526001949094019391850191870161472f565b5093850193909352509195945050505050565b60005b838110156147b557818101518382015260200161479d565b83811115610d135750506000910152565b6000816147d5576147d561480c565b506000190190565b60006000198214156147f1576147f161480c565b5060010190565b60008261480757614807614825565b500690565b60e060020a634e487b7102600052601160045260246000fd5b60e060020a634e487b7102600052601260045260246000fd5b60e060020a634e487b7102600052603160045260246000fd5b60e060020a634e487b7102600052603260045260246000fd5b60e060020a634e487b7102600052604160045260246000fd5b600160a060020a0381168114610c7257600080fd5b8015158114610c7257600080fdfe077a1d526a4ce8a773632ab13b4fbbf1fcc954c3dab26cd27ea0e2a6750da5d7a49807205ce4d355092ef5a8a18f56e8913cf4a201fbe287825b095693c21775a26469706673582212204c3b313ac77630fe404e4df2f8cddd6330eb8d12c13aabe78a32ded5038e7d8064736f6c63430008060033",
  "devdoc": {
    "kind": "dev",
    "methods": {
      "getRoleAdmin(bytes32)": {
        "details": "Returns the admin role that controls `role`. See {grantRole} and {revokeRole}. To change a role's admin, use {_setRoleAdmin}."
      },
      "grantRole(bytes32,address)": {
        "details": "Grants `role` to `account`. If `account` had not been already granted `role`, emits a {RoleGranted} event. Requirements: - the caller must have ``role``'s admin role."
      },
      "hasRole(bytes32,address)": {
        "details": "Returns `true` if `account` has been granted `role`."
      },
      "paused()": {
        "details": "Returns true if the contract is paused, and false otherwise."
      },
      "renounceRole(bytes32,address)": {
        "details": "Revokes `role` from the calling account. Roles are often managed via {grantRole} and {revokeRole}: this function's purpose is to provide a mechanism for accounts to lose their privileges if they are compromised (such as when a trusted device is misplaced). If the calling account had been granted `role`, emits a {RoleRevoked} event. Requirements: - the caller must be `account`."
      },
      "revokeRole(bytes32,address)": {
        "details": "Revokes `role` from `account`. If `account` had been granted `role`, emits a {RoleRevoked} event. Requirements: - the caller must have ``role``'s admin role."
      },
      "supportsInterface(bytes4)": {
        "details": "See {IERC165-supportsInterface}."
      }
    },
    "version": 1
  },
  "userdoc": {
    "kind": "user",
    "methods": {},
    "version": 1
  },
  "storageLayout": {
    "storage": [
      {
        "astId": 413,
        "contract": "contracts/networks/ETH_EthBridge.sol:ETH_EthBridge",
        "label": "_initialized",
        "offset": 0,
        "slot": "0",
        "type": "t_bool"
      },
      {
        "astId": 416,
        "contract": "contracts/networks/ETH_EthBridge.sol:ETH_EthBridge",
        "label": "_initializing",
        "offset": 1,
        "slot": "0",
        "type": "t_bool"
      },
      {
        "astId": 609,
        "contract": "contracts/networks/ETH_EthBridge.sol:ETH_EthBridge",
        "label": "__gap",
        "offset": 0,
        "slot": "1",
        "type": "t_array(t_uint256)50_storage"
      },
      {
        "astId": 858,
        "contract": "contracts/networks/ETH_EthBridge.sol:ETH_EthBridge",
        "label": "__gap",
        "offset": 0,
        "slot": "51",
        "type": "t_array(t_uint256)50_storage"
      },
      {
        "astId": 48,
        "contract": "contracts/networks/ETH_EthBridge.sol:ETH_EthBridge",
        "label": "_roles",
        "offset": 0,
        "slot": "101",
        "type": "t_mapping(t_bytes32,t_struct(RoleData)43_storage)"
      },
      {
        "astId": 333,
        "contract": "contracts/networks/ETH_EthBridge.sol:ETH_EthBridge",
        "label": "__gap",
        "offset": 0,
        "slot": "102",
        "type": "t_array(t_uint256)49_storage"
      },
      {
        "astId": 474,
        "contract": "contracts/networks/ETH_EthBridge.sol:ETH_EthBridge",
        "label": "_paused",
        "offset": 0,
        "slot": "151",
        "type": "t_bool"
      },
      {
        "astId": 565,
        "contract": "contracts/networks/ETH_EthBridge.sol:ETH_EthBridge",
        "label": "__gap",
        "offset": 0,
        "slot": "152",
        "type": "t_array(t_uint256)49_storage"
      },
      {
        "astId": 6774,
        "contract": "contracts/networks/ETH_EthBridge.sol:ETH_EthBridge",
        "label": "queue",
        "offset": 0,
        "slot": "201",
        "type": "t_array(t_struct(Transfer)7822_storage)dyn_storage"
      },
      {
        "astId": 6779,
        "contract": "contracts/networks/ETH_EthBridge.sol:ETH_EthBridge",
        "label": "lockedTransfers",
        "offset": 0,
        "slot": "202",
        "type": "t_mapping(t_uint256,t_struct(LockedTransfers)7839_storage)"
      },
      {
        "astId": 6781,
        "contract": "contracts/networks/ETH_EthBridge.sol:ETH_EthBridge",
        "label": "oldestLockedEventId",
        "offset": 0,
        "slot": "203",
        "type": "t_uint256"
      },
      {
        "astId": 6785,
        "contract": "contracts/networks/ETH_EthBridge.sol:ETH_EthBridge",
        "label": "tokenAddresses",
        "offset": 0,
        "slot": "204",
        "type": "t_mapping(t_address,t_address)"
      },
      {
        "astId": 6787,
        "contract": "contracts/networks/ETH_EthBridge.sol:ETH_EthBridge",
        "label": "wrapperAddress",
        "offset": 0,
        "slot": "205",
        "type": "t_address"
      },
      {
        "astId": 6789,
        "contract": "contracts/networks/ETH_EthBridge.sol:ETH_EthBridge",
        "label": "transferFeeRecipient",
        "offset": 0,
        "slot": "206",
        "type": "t_address_payable"
      },
      {
        "astId": 6791,
        "contract": "contracts/networks/ETH_EthBridge.sol:ETH_EthBridge",
        "label": "bridgeFeeRecipient",
        "offset": 0,
        "slot": "207",
        "type": "t_address_payable"
      },
      {
        "astId": 6793,
        "contract": "contracts/networks/ETH_EthBridge.sol:ETH_EthBridge",
        "label": "sideBridgeAddress",
        "offset": 0,
        "slot": "208",
        "type": "t_address"
      },
      {
        "astId": 6795,
        "contract": "contracts/networks/ETH_EthBridge.sol:ETH_EthBridge",
        "label": "minSafetyBlocks",
        "offset": 0,
        "slot": "209",
        "type": "t_uint256"
      },
      {
        "astId": 6797,
        "contract": "contracts/networks/ETH_EthBridge.sol:ETH_EthBridge",
        "label": "timeframeSeconds",
        "offset": 0,
        "slot": "210",
        "type": "t_uint256"
      },
      {
        "astId": 6799,
        "contract": "contracts/networks/ETH_EthBridge.sol:ETH_EthBridge",
        "label": "lockTime",
        "offset": 0,
        "slot": "211",
        "type": "t_uint256"
      },
      {
        "astId": 6801,
        "contract": "contracts/networks/ETH_EthBridge.sol:ETH_EthBridge",
        "label": "inputEventId",
        "offset": 0,
        "slot": "212",
        "type": "t_uint256"
      },
      {
        "astId": 6803,
        "contract": "contracts/networks/ETH_EthBridge.sol:ETH_EthBridge",
        "label": "outputEventId",
        "offset": 0,
        "slot": "213",
        "type": "t_uint256"
      },
      {
        "astId": 6805,
        "contract": "contracts/networks/ETH_EthBridge.sol:ETH_EthBridge",
        "label": "lastTimeframe",
        "offset": 0,
        "slot": "214",
        "type": "t_uint256"
      },
      {
        "astId": 6807,
        "contract": "contracts/networks/ETH_EthBridge.sol:ETH_EthBridge",
        "label": "signatureFeeCheckNumber",
        "offset": 0,
        "slot": "215",
        "type": "t_uint256"
      },
      {
        "astId": 7812,
        "contract": "contracts/networks/ETH_EthBridge.sol:ETH_EthBridge",
        "label": "__gap",
        "offset": 0,
        "slot": "216",
        "type": "t_array(t_uint256)15_storage"
      },
      {
        "astId": 2180,
        "contract": "contracts/networks/ETH_EthBridge.sol:ETH_EthBridge",
        "label": "validatorSet",
        "offset": 0,
        "slot": "231",
        "type": "t_array(t_address)dyn_storage"
      },
      {
        "astId": 2182,
        "contract": "contracts/networks/ETH_EthBridge.sol:ETH_EthBridge",
        "label": "validatorSetAddress",
        "offset": 0,
        "slot": "232",
        "type": "t_address"
      },
      {
        "astId": 2184,
        "contract": "contracts/networks/ETH_EthBridge.sol:ETH_EthBridge",
        "label": "lastProcessedBlock",
        "offset": 0,
        "slot": "233",
        "type": "t_bytes32"
      },
      {
        "astId": 2670,
        "contract": "contracts/networks/ETH_EthBridge.sol:ETH_EthBridge",
        "label": "___gap",
        "offset": 0,
        "slot": "234",
        "type": "t_array(t_uint256)15_storage"
      }
    ],
    "types": {
      "t_address": {
        "encoding": "inplace",
        "label": "address",
        "numberOfBytes": "20"
      },
      "t_address_payable": {
        "encoding": "inplace",
        "label": "address payable",
        "numberOfBytes": "20"
      },
      "t_array(t_address)dyn_storage": {
        "base": "t_address",
        "encoding": "dynamic_array",
        "label": "address[]",
        "numberOfBytes": "32"
      },
      "t_array(t_struct(Transfer)7822_storage)dyn_storage": {
        "base": "t_struct(Transfer)7822_storage",
        "encoding": "dynamic_array",
        "label": "struct CommonStructs.Transfer[]",
        "numberOfBytes": "32"
      },
      "t_array(t_uint256)15_storage": {
        "base": "t_uint256",
        "encoding": "inplace",
        "label": "uint256[15]",
        "numberOfBytes": "480"
      },
      "t_array(t_uint256)49_storage": {
        "base": "t_uint256",
        "encoding": "inplace",
        "label": "uint256[49]",
        "numberOfBytes": "1568"
      },
      "t_array(t_uint256)50_storage": {
        "base": "t_uint256",
        "encoding": "inplace",
        "label": "uint256[50]",
        "numberOfBytes": "1600"
      },
      "t_bool": {
        "encoding": "inplace",
        "label": "bool",
        "numberOfBytes": "1"
      },
      "t_bytes32": {
        "encoding": "inplace",
        "label": "bytes32",
        "numberOfBytes": "32"
      },
      "t_mapping(t_address,t_address)": {
        "encoding": "mapping",
        "key": "t_address",
        "label": "mapping(address => address)",
        "numberOfBytes": "32",
        "value": "t_address"
      },
      "t_mapping(t_address,t_bool)": {
        "encoding": "mapping",
        "key": "t_address",
        "label": "mapping(address => bool)",
        "numberOfBytes": "32",
        "value": "t_bool"
      },
      "t_mapping(t_bytes32,t_struct(RoleData)43_storage)": {
        "encoding": "mapping",
        "key": "t_bytes32",
        "label": "mapping(bytes32 => struct AccessControlUpgradeable.RoleData)",
        "numberOfBytes": "32",
        "value": "t_struct(RoleData)43_storage"
      },
      "t_mapping(t_uint256,t_struct(LockedTransfers)7839_storage)": {
        "encoding": "mapping",
        "key": "t_uint256",
        "label": "mapping(uint256 => struct CommonStructs.LockedTransfers)",
        "numberOfBytes": "32",
        "value": "t_struct(LockedTransfers)7839_storage"
      },
      "t_struct(LockedTransfers)7839_storage": {
        "encoding": "inplace",
        "label": "struct CommonStructs.LockedTransfers",
        "members": [
          {
            "astId": 7836,
            "contract": "contracts/networks/ETH_EthBridge.sol:ETH_EthBridge",
            "label": "transfers",
            "offset": 0,
            "slot": "0",
            "type": "t_array(t_struct(Transfer)7822_storage)dyn_storage"
          },
          {
            "astId": 7838,
            "contract": "contracts/networks/ETH_EthBridge.sol:ETH_EthBridge",
            "label": "endTimestamp",
            "offset": 0,
            "slot": "1",
            "type": "t_uint256"
          }
        ],
        "numberOfBytes": "64"
      },
      "t_struct(RoleData)43_storage": {
        "encoding": "inplace",
        "label": "struct AccessControlUpgradeable.RoleData",
        "members": [
          {
            "astId": 40,
            "contract": "contracts/networks/ETH_EthBridge.sol:ETH_EthBridge",
            "label": "members",
            "offset": 0,
            "slot": "0",
            "type": "t_mapping(t_address,t_bool)"
          },
          {
            "astId": 42,
            "contract": "contracts/networks/ETH_EthBridge.sol:ETH_EthBridge",
            "label": "adminRole",
            "offset": 0,
            "slot": "1",
            "type": "t_bytes32"
          }
        ],
        "numberOfBytes": "64"
      },
      "t_struct(Transfer)7822_storage": {
        "encoding": "inplace",
        "label": "struct CommonStructs.Transfer",
        "members": [
          {
            "astId": 7817,
            "contract": "contracts/networks/ETH_EthBridge.sol:ETH_EthBridge",
            "label": "tokenAddress",
            "offset": 0,
            "slot": "0",
            "type": "t_address"
          },
          {
            "astId": 7819,
            "contract": "contracts/networks/ETH_EthBridge.sol:ETH_EthBridge",
            "label": "toAddress",
            "offset": 0,
            "slot": "1",
            "type": "t_address"
          },
          {
            "astId": 7821,
            "contract": "contracts/networks/ETH_EthBridge.sol:ETH_EthBridge",
            "label": "amount",
            "offset": 0,
            "slot": "2",
            "type": "t_uint256"
          }
        ],
        "numberOfBytes": "96"
      },
      "t_uint256": {
        "encoding": "inplace",
        "label": "uint256",
        "numberOfBytes": "32"
      }
    }
  }
}