{
  "address": "0xFEa54dAd85B06e2713324748699Bb45E78134B1d",
  "abi": [
    {
      "anonymous": false,
      "inputs": [
        {
          "indexed": false,
          "internalType": "address",
          "name": "account",
          "type": "address"
        }
      ],
      "name": "Paused",
      "type": "event"
    },
    {
      "anonymous": false,
      "inputs": [
        {
          "indexed": true,
          "internalType": "bytes32",
          "name": "role",
          "type": "bytes32"
        },
        {
          "indexed": true,
          "internalType": "bytes32",
          "name": "previousAdminRole",
          "type": "bytes32"
        },
        {
          "indexed": true,
          "internalType": "bytes32",
          "name": "newAdminRole",
          "type": "bytes32"
        }
      ],
      "name": "RoleAdminChanged",
      "type": "event"
    },
    {
      "anonymous": false,
      "inputs": [
        {
          "indexed": true,
          "internalType": "bytes32",
          "name": "role",
          "type": "bytes32"
        },
        {
          "indexed": true,
          "internalType": "address",
          "name": "account",
          "type": "address"
        },
        {
          "indexed": true,
          "internalType": "address",
          "name": "sender",
          "type": "address"
        }
      ],
      "name": "RoleGranted",
      "type": "event"
    },
    {
      "anonymous": false,
      "inputs": [
        {
          "indexed": true,
          "internalType": "bytes32",
          "name": "role",
          "type": "bytes32"
        },
        {
          "indexed": true,
          "internalType": "address",
          "name": "account",
          "type": "address"
        },
        {
          "indexed": true,
          "internalType": "address",
          "name": "sender",
          "type": "address"
        }
      ],
      "name": "RoleRevoked",
      "type": "event"
    },
    {
      "anonymous": false,
      "inputs": [
        {
          "indexed": true,
          "internalType": "uint256",
          "name": "eventId",
          "type": "uint256"
        },
        {
          "components": [
            {
              "internalType": "address",
              "name": "tokenAddress",
              "type": "address"
            },
            {
              "internalType": "address",
              "name": "toAddress",
              "type": "address"
            },
            {
              "internalType": "uint256",
              "name": "amount",
              "type": "uint256"
            }
          ],
          "indexed": false,
          "internalType": "struct CommonStructs.Transfer[]",
          "name": "queue",
          "type": "tuple[]"
        }
      ],
      "name": "Transfer",
      "type": "event"
    },
    {
      "anonymous": false,
      "inputs": [
        {
          "indexed": true,
          "internalType": "uint256",
          "name": "eventId",
          "type": "uint256"
        }
      ],
      "name": "TransferFinish",
      "type": "event"
    },
    {
      "anonymous": false,
      "inputs": [
        {
          "indexed": true,
          "internalType": "uint256",
          "name": "eventId",
          "type": "uint256"
        }
      ],
      "name": "TransferSubmit",
      "type": "event"
    },
    {
      "anonymous": false,
      "inputs": [
        {
          "indexed": false,
          "internalType": "address",
          "name": "account",
          "type": "address"
        }
      ],
      "name": "Unpaused",
      "type": "event"
    },
    {
      "anonymous": false,
      "inputs": [
        {
          "indexed": true,
          "internalType": "address",
          "name": "from",
          "type": "address"
        },
        {
          "indexed": false,
          "internalType": "uint256",
          "name": "eventId",
          "type": "uint256"
        },
        {
          "indexed": false,
          "internalType": "address",
          "name": "tokenFrom",
          "type": "address"
        },
        {
          "indexed": false,
          "internalType": "address",
          "name": "tokenTo",
          "type": "address"
        },
        {
          "indexed": false,
          "internalType": "uint256",
          "name": "amount",
          "type": "uint256"
        },
        {
          "indexed": false,
          "internalType": "uint256",
          "name": "transferFeeAmount",
          "type": "uint256"
        },
        {
          "indexed": false,
          "internalType": "uint256",
          "name": "bridgeFeeAmount",
          "type": "uint256"
        }
      ],
      "name": "Withdraw",
      "type": "event"
    },
    {
      "inputs": [],
      "name": "ADMIN_ROLE",
      "outputs": [
        {
          "internalType": "bytes32",
          "name": "",
          "type": "bytes32"
        }
      ],
      "stateMutability": "view",
      "type": "function"
    },
    {
      "inputs": [],
      "name": "DEFAULT_ADMIN_ROLE",
      "outputs": [
        {
          "internalType": "bytes32",
          "name": "",
          "type": "bytes32"
        }
      ],
      "stateMutability": "view",
      "type": "function"
    },
    {
      "inputs": [],
      "name": "RELAY_ROLE",
      "outputs": [
        {
          "internalType": "bytes32",
          "name": "",
          "type": "bytes32"
        }
      ],
      "stateMutability": "view",
      "type": "function"
    },
    {
      "inputs": [
        {
          "internalType": "address payable",
          "name": "feeRecipient_",
          "type": "address"
        }
      ],
      "name": "changeBridgeFeeRecipient",
      "outputs": [],
      "stateMutability": "nonpayable",
      "type": "function"
    },
    {
      "inputs": [
        {
          "internalType": "uint256",
          "name": "lockTime_",
          "type": "uint256"
        }
      ],
      "name": "changeLockTime",
      "outputs": [],
      "stateMutability": "nonpayable",
      "type": "function"
    },
    {
      "inputs": [
        {
          "internalType": "uint256",
          "name": "minSafetyBlocks_",
          "type": "uint256"
        }
      ],
      "name": "changeMinSafetyBlocks",
      "outputs": [],
      "stateMutability": "nonpayable",
      "type": "function"
    },
    {
      "inputs": [
        {
          "internalType": "uint256",
          "name": "minSafetyBlocksValidators_",
          "type": "uint256"
        }
      ],
      "name": "changeMinSafetyBlocksValidators",
      "outputs": [],
      "stateMutability": "nonpayable",
      "type": "function"
    },
    {
      "inputs": [
        {
          "internalType": "uint256",
          "name": "signatureFeeCheckNumber_",
          "type": "uint256"
        }
      ],
      "name": "changeSignatureFeeCheckNumber",
      "outputs": [],
      "stateMutability": "nonpayable",
      "type": "function"
    },
    {
      "inputs": [
        {
          "internalType": "uint256",
          "name": "timeframeSeconds_",
          "type": "uint256"
        }
      ],
      "name": "changeTimeframeSeconds",
      "outputs": [],
      "stateMutability": "nonpayable",
      "type": "function"
    },
    {
      "inputs": [
        {
          "internalType": "address payable",
          "name": "feeRecipient_",
          "type": "address"
        }
      ],
      "name": "changeTransferFeeRecipient",
      "outputs": [],
      "stateMutability": "nonpayable",
      "type": "function"
    },
    {
      "inputs": [
        {
          "internalType": "uint256",
          "name": "eventId",
          "type": "uint256"
        }
      ],
      "name": "getLockedTransfers",
      "outputs": [
        {
          "components": [
            {
              "components": [
                {
                  "internalType": "address",
                  "name": "tokenAddress",
                  "type": "address"
                },
                {
                  "internalType": "address",
                  "name": "toAddress",
                  "type": "address"
                },
                {
                  "internalType": "uint256",
                  "name": "amount",
                  "type": "uint256"
                }
              ],
              "internalType": "struct CommonStructs.Transfer[]",
              "name": "transfers",
              "type": "tuple[]"
            },
            {
              "internalType": "uint256",
              "name": "endTimestamp",
              "type": "uint256"
            }
          ],
          "internalType": "struct CommonStructs.LockedTransfers",
          "name": "",
          "type": "tuple"
        }
      ],
      "stateMutability": "view",
      "type": "function"
    },
    {
      "inputs": [
        {
          "internalType": "bytes32",
          "name": "role",
          "type": "bytes32"
        }
      ],
      "name": "getRoleAdmin",
      "outputs": [
        {
          "internalType": "bytes32",
          "name": "",
          "type": "bytes32"
        }
      ],
      "stateMutability": "view",
      "type": "function"
    },
    {
      "inputs": [],
      "name": "getValidatorSet",
      "outputs": [
        {
          "internalType": "address[]",
          "name": "",
          "type": "address[]"
        }
      ],
      "stateMutability": "view",
      "type": "function"
    },
    {
      "inputs": [
        {
          "internalType": "bytes32",
          "name": "role",
          "type": "bytes32"
        },
        {
          "internalType": "address",
          "name": "account",
          "type": "address"
        }
      ],
      "name": "grantRole",
      "outputs": [],
      "stateMutability": "nonpayable",
      "type": "function"
    },
    {
      "inputs": [
        {
          "internalType": "bytes32",
          "name": "role",
          "type": "bytes32"
        },
        {
          "internalType": "address",
          "name": "account",
          "type": "address"
        }
      ],
      "name": "hasRole",
      "outputs": [
        {
          "internalType": "bool",
          "name": "",
          "type": "bool"
        }
      ],
      "stateMutability": "view",
      "type": "function"
    },
    {
      "inputs": [
        {
          "components": [
            {
              "internalType": "address",
              "name": "sideBridgeAddress",
              "type": "address"
            },
            {
              "internalType": "address",
              "name": "adminAddress",
              "type": "address"
            },
            {
              "internalType": "address",
              "name": "relayAddress",
              "type": "address"
            },
            {
              "internalType": "address",
              "name": "wrappingTokenAddress",
              "type": "address"
            },
            {
              "internalType": "address[]",
              "name": "tokenThisAddresses",
              "type": "address[]"
            },
            {
              "internalType": "address[]",
              "name": "tokenSideAddresses",
              "type": "address[]"
            },
            {
              "internalType": "address payable",
              "name": "transferFeeRecipient",
              "type": "address"
            },
            {
              "internalType": "address payable",
              "name": "bridgeFeeRecipient",
              "type": "address"
            },
            {
              "internalType": "uint256",
              "name": "timeframeSeconds",
              "type": "uint256"
            },
            {
              "internalType": "uint256",
              "name": "lockTime",
              "type": "uint256"
            },
            {
              "internalType": "uint256",
              "name": "minSafetyBlocks",
              "type": "uint256"
            }
          ],
          "internalType": "struct CommonStructs.ConstructorArgs",
          "name": "args",
          "type": "tuple"
        },
        {
          "internalType": "address[]",
          "name": "initialValidators",
          "type": "address[]"
        },
        {
          "internalType": "address",
          "name": "validatorSetAddress",
          "type": "address"
        },
        {
          "internalType": "bytes32",
          "name": "lastProcessedBlock",
          "type": "bytes32"
        },
        {
          "internalType": "uint256",
          "name": "minSafetyBlocksValidators",
          "type": "uint256"
        }
      ],
      "name": "initialize",
      "outputs": [],
      "stateMutability": "nonpayable",
      "type": "function"
    },
    {
      "inputs": [],
      "name": "inputEventId",
      "outputs": [
        {
          "internalType": "uint256",
          "name": "",
          "type": "uint256"
        }
      ],
      "stateMutability": "view",
      "type": "function"
    },
    {
      "inputs": [],
      "name": "isQueueEmpty",
      "outputs": [
        {
          "internalType": "bool",
          "name": "",
          "type": "bool"
        }
      ],
      "stateMutability": "view",
      "type": "function"
    },
    {
      "inputs": [],
      "name": "lastProcessedBlock",
      "outputs": [
        {
          "internalType": "bytes32",
          "name": "",
          "type": "bytes32"
        }
      ],
      "stateMutability": "view",
      "type": "function"
    },
    {
      "inputs": [],
      "name": "lastTimeframe",
      "outputs": [
        {
          "internalType": "uint256",
          "name": "",
          "type": "uint256"
        }
      ],
      "stateMutability": "view",
      "type": "function"
    },
    {
      "inputs": [],
      "name": "lockTime",
      "outputs": [
        {
          "internalType": "uint256",
          "name": "",
          "type": "uint256"
        }
      ],
      "stateMutability": "view",
      "type": "function"
    },
    {
      "inputs": [
        {
          "internalType": "uint256",
          "name": "",
          "type": "uint256"
        }
      ],
      "name": "lockedTransfers",
      "outputs": [
        {
          "internalType": "uint256",
          "name": "endTimestamp",
          "type": "uint256"
        }
      ],
      "stateMutability": "view",
      "type": "function"
    },
    {
      "inputs": [],
      "name": "minSafetyBlocks",
      "outputs": [
        {
          "internalType": "uint256",
          "name": "",
          "type": "uint256"
        }
      ],
      "stateMutability": "view",
      "type": "function"
    },
    {
      "inputs": [],
      "name": "minSafetyBlocksValidators",
      "outputs": [
        {
          "internalType": "uint256",
          "name": "",
          "type": "uint256"
        }
      ],
      "stateMutability": "view",
      "type": "function"
    },
    {
      "inputs": [],
      "name": "oldestLockedEventId",
      "outputs": [
        {
          "internalType": "uint256",
          "name": "",
          "type": "uint256"
        }
      ],
      "stateMutability": "view",
      "type": "function"
    },
    {
      "inputs": [],
      "name": "pause",
      "outputs": [],
      "stateMutability": "nonpayable",
      "type": "function"
    },
    {
      "inputs": [],
      "name": "paused",
      "outputs": [
        {
          "internalType": "bool",
          "name": "",
          "type": "bool"
        }
      ],
      "stateMutability": "view",
      "type": "function"
    },
    {
      "inputs": [
        {
          "internalType": "uint256",
          "name": "eventId",
          "type": "uint256"
        }
      ],
      "name": "removeLockedTransfers",
      "outputs": [],
      "stateMutability": "nonpayable",
      "type": "function"
    },
    {
      "inputs": [
        {
          "internalType": "bytes32",
          "name": "role",
          "type": "bytes32"
        },
        {
          "internalType": "address",
          "name": "account",
          "type": "address"
        }
      ],
      "name": "renounceRole",
      "outputs": [],
      "stateMutability": "nonpayable",
      "type": "function"
    },
    {
      "inputs": [
        {
          "internalType": "bytes32",
          "name": "role",
          "type": "bytes32"
        },
        {
          "internalType": "address",
          "name": "account",
          "type": "address"
        }
      ],
      "name": "revokeRole",
      "outputs": [],
      "stateMutability": "nonpayable",
      "type": "function"
    },
    {
      "inputs": [],
      "name": "sideBridgeAddress",
      "outputs": [
        {
          "internalType": "address",
          "name": "",
          "type": "address"
        }
      ],
      "stateMutability": "view",
      "type": "function"
    },
    {
      "inputs": [
        {
          "components": [
            {
              "components": [
                {
                  "internalType": "bytes3",
                  "name": "p0Seal",
                  "type": "bytes3"
                },
                {
                  "internalType": "bytes3",
                  "name": "p0Bare",
                  "type": "bytes3"
                },
                {
                  "internalType": "bytes32",
                  "name": "parentHash",
                  "type": "bytes32"
                },
                {
                  "internalType": "bytes",
                  "name": "p2",
                  "type": "bytes"
                },
                {
                  "internalType": "bytes32",
                  "name": "receiptHash",
                  "type": "bytes32"
                },
                {
                  "internalType": "bytes",
                  "name": "p3",
                  "type": "bytes"
                },
                {
                  "internalType": "bytes4",
                  "name": "step",
                  "type": "bytes4"
                },
                {
                  "internalType": "bytes",
                  "name": "signature",
                  "type": "bytes"
                },
                {
                  "internalType": "uint64",
                  "name": "finalizedVs",
                  "type": "uint64"
                }
              ],
              "internalType": "struct CheckAura.BlockAura[]",
              "name": "blocks",
              "type": "tuple[]"
            },
            {
              "components": [
                {
                  "internalType": "bytes[]",
                  "name": "receiptProof",
                  "type": "bytes[]"
                },
                {
                  "internalType": "uint256",
                  "name": "eventId",
                  "type": "uint256"
                },
                {
                  "components": [
                    {
                      "internalType": "address",
                      "name": "tokenAddress",
                      "type": "address"
                    },
                    {
                      "internalType": "address",
                      "name": "toAddress",
                      "type": "address"
                    },
                    {
                      "internalType": "uint256",
                      "name": "amount",
                      "type": "uint256"
                    }
                  ],
                  "internalType": "struct CommonStructs.Transfer[]",
                  "name": "transfers",
                  "type": "tuple[]"
                }
              ],
              "internalType": "struct CommonStructs.TransferProof",
              "name": "transfer",
              "type": "tuple"
            },
            {
              "components": [
                {
                  "internalType": "bytes[]",
                  "name": "receiptProof",
                  "type": "bytes[]"
                },
                {
                  "components": [
                    {
                      "internalType": "address",
                      "name": "deltaAddress",
                      "type": "address"
                    },
                    {
                      "internalType": "int64",
                      "name": "deltaIndex",
                      "type": "int64"
                    }
                  ],
                  "internalType": "struct CheckAura.ValidatorSetChange[]",
                  "name": "changes",
                  "type": "tuple[]"
                },
                {
                  "internalType": "uint256",
                  "name": "eventBlock",
                  "type": "uint256"
                }
              ],
              "internalType": "struct CheckAura.ValidatorSetProof[]",
              "name": "vsChanges",
              "type": "tuple[]"
            },
            {
              "internalType": "uint64",
              "name": "transferEventBlock",
              "type": "uint64"
            }
          ],
          "internalType": "struct CheckAura.AuraProof",
          "name": "auraProof",
          "type": "tuple"
        }
      ],
      "name": "submitTransferAura",
      "outputs": [],
      "stateMutability": "nonpayable",
      "type": "function"
    },
    {
      "inputs": [
        {
          "internalType": "bytes4",
          "name": "interfaceId",
          "type": "bytes4"
        }
      ],
      "name": "supportsInterface",
      "outputs": [
        {
          "internalType": "bool",
          "name": "",
          "type": "bool"
        }
      ],
      "stateMutability": "view",
      "type": "function"
    },
    {
      "inputs": [],
      "name": "timeframeSeconds",
      "outputs": [
        {
          "internalType": "uint256",
          "name": "",
          "type": "uint256"
        }
      ],
      "stateMutability": "view",
      "type": "function"
    },
    {
      "inputs": [
        {
          "internalType": "address",
          "name": "",
          "type": "address"
        }
      ],
      "name": "tokenAddresses",
      "outputs": [
        {
          "internalType": "address",
          "name": "",
          "type": "address"
        }
      ],
      "stateMutability": "view",
      "type": "function"
    },
    {
      "inputs": [
        {
          "internalType": "address",
          "name": "tokenThisAddress",
          "type": "address"
        },
        {
          "internalType": "address",
          "name": "tokenSideAddress",
          "type": "address"
        }
      ],
      "name": "tokensAdd",
      "outputs": [],
      "stateMutability": "nonpayable",
      "type": "function"
    },
    {
      "inputs": [
        {
          "internalType": "address[]",
          "name": "tokenThisAddresses",
          "type": "address[]"
        },
        {
          "internalType": "address[]",
          "name": "tokenSideAddresses",
          "type": "address[]"
        }
      ],
      "name": "tokensAddBatch",
      "outputs": [],
      "stateMutability": "nonpayable",
      "type": "function"
    },
    {
      "inputs": [
        {
          "internalType": "address",
          "name": "tokenThisAddress",
          "type": "address"
        }
      ],
      "name": "tokensRemove",
      "outputs": [],
      "stateMutability": "nonpayable",
      "type": "function"
    },
    {
      "inputs": [
        {
          "internalType": "address[]",
          "name": "tokenThisAddresses",
          "type": "address[]"
        }
      ],
      "name": "tokensRemoveBatch",
      "outputs": [],
      "stateMutability": "nonpayable",
      "type": "function"
    },
    {
      "inputs": [],
      "name": "triggerTransfers",
      "outputs": [],
      "stateMutability": "nonpayable",
      "type": "function"
    },
    {
      "inputs": [
        {
          "internalType": "uint256",
          "name": "eventId",
          "type": "uint256"
        }
      ],
      "name": "unlockTransfers",
      "outputs": [],
      "stateMutability": "nonpayable",
      "type": "function"
    },
    {
      "inputs": [],
      "name": "unlockTransfersBatch",
      "outputs": [],
      "stateMutability": "nonpayable",
      "type": "function"
    },
    {
      "inputs": [],
      "name": "unpause",
      "outputs": [],
      "stateMutability": "nonpayable",
      "type": "function"
    },
    {
      "inputs": [
        {
          "internalType": "uint256",
          "name": "",
          "type": "uint256"
        }
      ],
      "name": "validatorSet",
      "outputs": [
        {
          "internalType": "address",
          "name": "",
          "type": "address"
        }
      ],
      "stateMutability": "view",
      "type": "function"
    },
    {
      "inputs": [
        {
          "internalType": "address",
          "name": "tokenThisAddress",
          "type": "address"
        },
        {
          "internalType": "address",
          "name": "toAddress",
          "type": "address"
        },
        {
          "internalType": "uint256",
          "name": "amount",
          "type": "uint256"
        },
        {
          "internalType": "bool",
          "name": "unwrapSide",
          "type": "bool"
        },
        {
          "internalType": "bytes",
          "name": "feeSignature",
          "type": "bytes"
        },
        {
          "internalType": "uint256",
          "name": "transferFee",
          "type": "uint256"
        },
        {
          "internalType": "uint256",
          "name": "bridgeFee",
          "type": "uint256"
        }
      ],
      "name": "withdraw",
      "outputs": [],
      "stateMutability": "payable",
      "type": "function"
    },
    {
      "inputs": [
        {
          "internalType": "address",
          "name": "toAddress",
          "type": "address"
        },
        {
          "internalType": "bytes",
          "name": "feeSignature",
          "type": "bytes"
        },
        {
          "internalType": "uint256",
          "name": "transferFee",
          "type": "uint256"
        },
        {
          "internalType": "uint256",
          "name": "bridgeFee",
          "type": "uint256"
        }
      ],
      "name": "wrapWithdraw",
      "outputs": [],
      "stateMutability": "payable",
      "type": "function"
    },
    {
      "inputs": [],
      "name": "wrapperAddress",
      "outputs": [
        {
          "internalType": "address",
          "name": "",
          "type": "address"
        }
      ],
      "stateMutability": "view",
      "type": "function"
    },
    {
      "stateMutability": "payable",
      "type": "receive"
    }
  ],
  "transactionHash": "0xbebdf8b90d1c0762b16dea92db515d25aa4756c531492c86dda8ffab9a317260",
  "args": [],
  "numDeployments": 1,
  "solcInputHash": "aacf6544da14e49263296bcc3ab49502",
  "bytecode": "0x608060405234801561001057600080fd5b5061470e806100206000396000f3fe6080604052600436106102905760003560e060020a9004806386d7679e1161015e578063baeebe75116100c5578063f33fe10f1161007e578063f33fe10f146107a6578063f7005587146107c6578063f862b7eb146107e6578063f8ae31bf14610806578063f8b744331461081c578063fd5d2ef31461082f57600080fd5b8063baeebe75146106e1578063cf331250146106f7578063d547741f14610719578063da15e11a14610739578063e31be08714610759578063e64808f31461078657600080fd5b806396cf52271161011757806396cf52271461062a57806399b5bb641461064a578063a217fddf14610660578063b6d3385e14610675578063b87330e9146106ab578063ba8bbbe0146106cb57600080fd5b806386d7679e146105965780638ac1f86f146105ac5780638e5df9c7146105c157806391c5bc0a146105e157806391d14854146105f4578063924cf6e01461061457600080fd5b80633928b296116102025780636ff7c546116101bb5780636ff7c546146104d2578063746b5c42146104f257806375b238fc146105075780637df8b802146105295780638456cb5914610561578063853890ae1461057657600080fd5b80633928b296146104155780633f4ba83a1461043557806342180fb81461044a5780634a1856de1461046a5780635249a7051461049a5780635c975abb146104ba57600080fd5b8063248a9ca311610254578063248a9ca3146103595780632bbba847146103895780632f2ff15d1461039f578063331a891a146103bf57806333de61d2146103df57806336568abe146103f557600080fd5b806301ffc9a71461029c57806304421823146102d157806309fce356146103015780630d66808714610323578063169e7a991461033957600080fd5b3661029757005b600080fd5b3480156102a857600080fd5b506102bc6102b7366004613b23565b61084f565b60405190151581526020015b60405180910390f35b3480156102dd57600080fd5b506102f360008051602061469983398151915281565b6040519081526020016102c8565b34801561030d57600080fd5b5061032161031c366004613a1c565b6108b8565b005b34801561032f57600080fd5b506102f360d45481565b34801561034557600080fd5b50610321610354366004613bab565b6108e4565b34801561036557600080fd5b506102f3610374366004613ae5565b60009081526065602052604090206001015490565b34801561039557600080fd5b5060ca54156102bc565b3480156103ab57600080fd5b506103216103ba366004613afe565b610978565b3480156103cb57600080fd5b506103216103da366004613ae5565b6109a3565b3480156103eb57600080fd5b506102f360e95481565b34801561040157600080fd5b50610321610410366004613afe565b610aea565b34801561042157600080fd5b50610321610430366004613889565b610b79565b34801561044157600080fd5b50610321610bb5565b34801561045657600080fd5b50610321610465366004613ae5565b610bd9565b34801561047657600080fd5b506102f3610485366004613ae5565b60cb6020526000908152604090206001015481565b3480156104a657600080fd5b506103216104b53660046139da565b610c16565b3480156104c657600080fd5b5060975460ff166102bc565b3480156104de57600080fd5b506103216104ed366004613ae5565b610c9f565b3480156104fe57600080fd5b50610321610cbe565b34801561051357600080fd5b506102f36000805160206146b983398151915281565b34801561053557600080fd5b5060ce5461054990600160a060020a031681565b604051600160a060020a0390911681526020016102c8565b34801561056d57600080fd5b50610321610d6a565b34801561058257600080fd5b506103216105913660046138a6565b610d8b565b3480156105a257600080fd5b506102f360d75481565b3480156105b857600080fd5b50610321610dd3565b3480156105cd57600080fd5b506103216105dc366004613889565b610f2b565b6103216105ef366004613973565b610f6c565b34801561060057600080fd5b506102bc61060f366004613afe565b611293565b34801561062057600080fd5b506102f360d25481565b34801561063657600080fd5b50610321610645366004613ae5565b6112be565b34801561065657600080fd5b506102f360d55481565b34801561066c57600080fd5b506102f3600081565b34801561068157600080fd5b50610549610690366004613889565b60cd60205260009081526040902054600160a060020a031681565b3480156106b757600080fd5b506103216106c6366004613889565b6112dd565b3480156106d757600080fd5b506102f360cc5481565b3480156106ed57600080fd5b506102f360d35481565b34801561070357600080fd5b5061070c611319565b6040516102c89190613f7b565b34801561072557600080fd5b50610321610734366004613afe565b61137b565b34801561074557600080fd5b50610321610754366004613b70565b6113a1565b34801561076557600080fd5b50610779610774366004613ae5565b611484565b6040516102c891906141b3565b34801561079257600080fd5b506105496107a1366004613ae5565b611540565b3480156107b257600080fd5b5060d15461054990600160a060020a031681565b3480156107d257600080fd5b506103216107e1366004613ae5565b61156a565b3480156107f257600080fd5b50610321610801366004613ae5565b611589565b34801561081257600080fd5b506102f360ea5481565b61032161082a3660046138df565b6117bc565b34801561083b57600080fd5b5061032161084a366004613ae5565b611c1c565b6000600160e060020a031982167f7965db0b0000000000000000000000000000000000000000000000000000000014806108b257507f01ffc9a700000000000000000000000000000000000000000000000000000000600160e060020a03198316145b92915050565b6000805160206146b98339815191526108d18133611c3b565b6108dd85858585611ca2565b5050505050565b600054610100900460ff16806108fd575060005460ff16155b6109255760405160e560020a62461bcd02815260040161091c90614156565b60405180910390fd5b600054610100900460ff16158015610947576000805461ffff19166101011790555b61095087611dc3565b61095d8686868686611f9f565b801561096f576000805461ff00191690555b50505050505050565b6000828152606560205260409020600101546109948133611c3b565b61099e83836120ba565b505050565b6000805160206146b98339815191526109bc8133611c3b565b60975460ff16610a115760405160e560020a62461bcd02815260206004820152601460248201527f5061757361626c653a206e6f7420706175736564000000000000000000000000604482015260640161091c565b60cc54821015610a8c5760405160e560020a62461bcd02815260206004820152602660248201527f6576656e744964206d757374206265203e3d206f6c646573744c6f636b65644560448201527f76656e7449640000000000000000000000000000000000000000000000000000606482015260840161091c565b600082815260cb602052604090206001015415610ad857600082815260cb6020526040812090610abc8282613730565b5060006001919091015581610ad08161456a565b925050610a8c565b610ae36001836144be565b60d5555050565b600160a060020a0381163314610b6b5760405160e560020a62461bcd02815260206004820152602f60248201527f416363657373436f6e74726f6c3a2063616e206f6e6c792072656e6f756e636560448201527f20726f6c657320666f722073656c660000000000000000000000000000000000606482015260840161091c565b610b758282612140565b5050565b6000805160206146b9833981519152610b928133611c3b565b5060d08054600160a060020a031916600160a060020a0392909216919091179055565b6000805160206146b9833981519152610bce8133611c3b565b610bd66121a7565b50565b6000805160206146b9833981519152610bf28133611c3b565b8160d35460d754610c03919061444d565b610c0d91906143a2565b60d7555060d355565b6000805160206146b9833981519152610c2f8133611c3b565b8160005b818110156108dd5760cd6000868684818110610c5157610c516145e4565b9050602002016020810190610c669190613889565b600160a060020a0316815260208101919091526040016000208054600160a060020a031916905580610c978161456a565b915050610c33565b6000805160206146b9833981519152610cb88133611c3b565b5060ea55565b60ca54610d105760405160e560020a62461bcd02815260206004820152600e60248201527f517565756520697320656d707479000000000000000000000000000000000000604482015260640161091c565b60d68054906000610d208361456a565b919050557fe15729a2f427aa4572dab35eb692c902fcbce57d41642013259c741380809ae260ca604051610d54919061407c565b60405180910390a2610d6860ca6000613730565b565b6000805160206146b9833981519152610d838133611c3b565b610bd6612246565b6000805160206146b9833981519152610da48133611c3b565b50600160a060020a03918216600090815260cd602052604090208054600160a060020a03191691909216179055565b60975460ff1615610df95760405160e560020a62461bcd02815260040161091c9061411f565b60cc545b600081815260cb60209081526040808320815181546060948102820185018452928101838152909391928492849190879085015b82821015610e8b57600084815260209081902060408051606081018252600386029092018054600160a060020a03908116845260018083015490911684860152600290910154918301919091529083529092019101610e31565b5050505081526020016001820154815250509050806020015160001480610eb55750428160200151115b15610ec0575060cc55565b8051610ecb906122a1565b600082815260cb6020526040812090610ee48282613730565b50600060019190910181905560405183917f78ff9b3176bb0d6421590f3816e75cb15a9ffa2b7a1a028f40a3f4e029eb39f291a25080610f238161456a565b915050610dfd565b6000805160206146b9833981519152610f448133611c3b565b50600160a060020a0316600090815260cd602052604090208054600160a060020a0319169055565b60ce54600160a060020a03908116600090815260cd60205260409020541680610fda5760405160e560020a62461bcd02815260206004820152601560248201527f556e6b6e6f776e20746f6b656e20616464726573730000000000000000000000604482015260640161091c565b610fe4828461438a565b34116110355760405160e560020a62461bcd02815260206004820152601160248201527f53656e742076616c7565203c3d20666565000000000000000000000000000000604482015260640161091c565b60008261104285346144be565b61104c91906144be565b60ce5490915061106990600160a060020a03168787878786612535565b60cf54604051600160a060020a039091169085156108fc029086906000818181858888f193505050501580156110a3573d6000803e3d6000fd5b5060d054604051600160a060020a039091169084156108fc029085906000818181858888f193505050501580156110de573d6000803e3d6000fd5b5060ce60009054906101000a9004600160a060020a0316600160a060020a031663d0e30db0826040518263ffffffff1660e060020a0281526004016000604051808303818588803b15801561113257600080fd5b505af1158015611146573d6000803e3d6000fd5b505060408051606081018252600160a060020a0380881682528c81166020830190815282840188815260ca80546001810182556000918252945160039095027f42d72674974f694b5f5159593243114d38a5c39c89d6b62fee061ff523240ee181018054968616600160a060020a031997881617905592517f42d72674974f694b5f5159593243114d38a5c39c89d6b62fee061ff523240ee2840180549190951695169490941790925590517f42d72674974f694b5f5159593243114d38a5c39c89d6b62fee061ff523240ee39091015560d65491513395507f3b823d3b837159352faddd1e0b9e9f584ca2bfe976238f6a9e6da4615cf2f44494506112839350879087908b908b90958652600160a060020a0394851660208701529290931660408501526060840152608083019190915260a082015260c00190565b60405180910390a261096f6126c9565b6000918252606560209081526040808420600160a060020a0393909316845291905290205460ff1690565b6000805160206146b98339815191526112d78133611c3b565b5060d455565b6000805160206146b98339815191526112f68133611c3b565b5060cf8054600160a060020a031916600160a060020a0392909216919091179055565b606060e780548060200260200160405190810160405280929190818152602001828054801561137157602002820191906000526020600020905b8154600160a060020a03168152600190910190602001808311611353575b5050505050905090565b6000828152606560205260409020600101546113978133611c3b565b61099e8383612140565b6000805160206146998339815191526113ba8133611c3b565b60975460ff16156113e05760405160e560020a62461bcd02815260040161091c9061411f565b6113ed6020830183614374565b602001357f196c47048e38df7a4fe6e581c8f4f2e2ba67ac0dd45b90da756e97bd61d9dd3b60405160405180910390a261143661142d6020840184614374565b60200135612741565b60d25460d154611450918491600160a060020a03166127a6565b610b756114606020840184614374565b61146e90604081019061427a565b61147b6020860186614374565b60200135612c24565b604080518082019091526060815260006020820152600082815260cb60209081526040808320815181546060948102820185018452928101838152909491938593919285929185015b8282101561152757600084815260209081902060408051606081018252600386029092018054600160a060020a039081168452600180830154909116848601526002909101549183019190915290835290920191016114cd565b5050505081526020016001820154815250509050919050565b60e7818154811061155057600080fd5b600091825260209091200154600160a060020a0316905081565b6000805160206146b98339815191526115838133611c3b565b5060c955565b60975460ff16156115af5760405160e560020a62461bcd02815260040161091c9061411f565b60cc5481146116035760405160e560020a62461bcd02815260206004820152601c60248201527f63616e20756e6c6f636b206f6e6c79206f6c64657374206576656e7400000000604482015260640161091c565b600081815260cb60209081526040808320815181546060948102820185018452928101838152909391928492849190879085015b8282101561169157600084815260209081902060408051606081018252600386029092018054600160a060020a03908116845260018083015490911684860152600290910154918301919091529083529092019101611637565b505050508152602001600182015481525050905060008160200151116116fc5760405160e560020a62461bcd02815260206004820181905260248201527f6e6f206c6f636b6564207472616e736665727320776974682074686973206964604482015260640161091c565b428160200151106117525760405160e560020a62461bcd02815260206004820152601b60248201527f6c6f636b54696d6520686173206e6f7420796574207061737365640000000000604482015260640161091c565b805161175d906122a1565b600082815260cb60205260408120906117768282613730565b50600060019190910181905560405183917f78ff9b3176bb0d6421590f3816e75cb15a9ffa2b7a1a028f40a3f4e029eb39f291a26117b582600161438a565b60cc555050565b60008515611851576000805260cd6020527fcd565b10a72538d86f6d352f37ebc5dff31587960b12c0afe00fd03947a6932a54600160a060020a038a811691161461184c5760405160e560020a62461bcd02815260206004820152601f60248201527f546f6b656e206e6f7420706f696e7420746f206e617469766520746f6b656e00604482015260640161091c565b6118bd565b50600160a060020a03808916600090815260cd602052604090205416806118bd5760405160e560020a62461bcd02815260206004820152601560248201527f556e6b6e6f776e20746f6b656e20616464726573730000000000000000000000604482015260640161091c565b6118c7828461438a565b34146119185760405160e560020a62461bcd02815260206004820152601160248201527f53656e742076616c756520213d20666565000000000000000000000000000000604482015260640161091c565b6000871161196b5760405160e560020a62461bcd02815260206004820152601160248201527f43616e6e6f742077697468647261772030000000000000000000000000000000604482015260640161091c565b61197989868686868c612535565b60cf54604051600160a060020a039091169084156108fc029085906000818181858888f193505050501580156119b3573d6000803e3d6000fd5b5060d054604051600160a060020a039091169083156108fc029084906000818181858888f193505050501580156119ee573d6000803e3d6000fd5b506040517f23b872dd00000000000000000000000000000000000000000000000000000000815233600482015230602482015260448101889052600160a060020a038a16906323b872dd90606401602060405180830381600087803b158015611a5657600080fd5b505af1158015611a6a573d6000803e3d6000fd5b505050506040513d601f19601f82011682018060405250810190611a8e9190613a88565b611add5760405160e560020a62461bcd02815260206004820152601360248201527f4661696c207472616e7366657220636f696e7300000000000000000000000000604482015260640161091c565b6040805160608082018352600160a060020a038481168084528c821660208086019182528587018e815260ca8054600181018255600091909152965160039097027f42d72674974f694b5f5159593243114d38a5c39c89d6b62fee061ff523240ee181018054988716600160a060020a0319998a1617905592517f42d72674974f694b5f5159593243114d38a5c39c89d6b62fee061ff523240ee284018054918716919098161790965594517f42d72674974f694b5f5159593243114d38a5c39c89d6b62fee061ff523240ee39091015560d6548551908152918e16938201939093529283019190915281018890526080810184905260a0810183905233907f3b823d3b837159352faddd1e0b9e9f584ca2bfe976238f6a9e6da4615cf2f4449060c00160405180910390a2611c116126c9565b505050505050505050565b6000805160206146b9833981519152611c358133611c3b565b5060d255565b611c458282611293565b610b7557611c5d81600160a060020a03166014612cb8565b611c68836020612cb8565b604051602001611c79929190613efa565b60408051601f198184030181529082905260e560020a62461bcd02825261091c916004016140ec565b828114611d1a5760405160e560020a62461bcd02815260206004820152603f60248201527f73697a6573206f6620746f6b656e5468697341646472657373657320616e642060448201527f746f6b656e53696465416464726573736573206d7573742062652073616d6500606482015260840161091c565b8260005b81811015611dbb57838382818110611d3857611d386145e4565b9050602002016020810190611d4d9190613889565b60cd6000888885818110611d6357611d636145e4565b9050602002016020810190611d789190613889565b600160a060020a03908116825260208201929092526040016000208054600160a060020a0319169290911691909117905580611db38161456a565b915050611d1e565b505050505050565b600054610100900460ff1680611ddc575060005460ff16155b611dfb5760405160e560020a62461bcd02815260040161091c90614156565b600054610100900460ff16158015611e1d576000805461ffff19166101011790555b611e28600033612ea5565b611e4f600080516020614699833981519152611e4a6060850160408601613889565b612ea5565b611e716000805160206146b9833981519152611e4a6040850160208601613889565b611e93611e816080840184614231565b611e8e60a0860186614231565b611ca2565b611ea36080830160608401613889565b60ce8054600160a060020a031916600160a060020a0392909216919091179055611ed06020830183613889565b60d18054600160a060020a031916600160a060020a0392909216919091179055611f0060e0830160c08401613889565b60cf8054600160a060020a031916600160a060020a0392909216919091179055611f31610100830160e08401613889565b60d08054600160a060020a031916600160a060020a039290921691909117905561014082013560d25561010082013560d381905561012083013560d455600160cc81905560d655600360c955611f8790426143a2565b60d7558015610b75576000805461ff00191690555050565b600054610100900460ff1680611fb8575060005460ff16155b611fd75760405160e560020a62461bcd02815260040161091c90614156565b600054610100900460ff16158015611ff9576000805461ffff19166101011790555b8461206f5760405160e560020a62461bcd02815260206004820152603260248201527f4c656e677468206f66205f696e697469616c56616c696461746f7273206d757360448201527f7420626520626967676572207468616e20300000000000000000000000000000606482015260840161091c565b61207b60e78787613751565b5060e88054600160a060020a031916600160a060020a03861617905560e983905560ea8290558015611dbb576000805461ff0019169055505050505050565b6120c48282611293565b610b75576000828152606560209081526040808320600160a060020a03851684529091529020805460ff191660011790556120fc3390565b600160a060020a031681600160a060020a0316837f2f8788117e7eff1d82e926ec794901d17c78024a50270940304540a733656f0d60405160405180910390a45050565b61214a8282611293565b15610b75576000828152606560209081526040808320600160a060020a0385168085529252808320805460ff1916905551339285917ff6391f5c32d9c69d2a47ea670b442974b53935d1edc7fd64eb21e047a839171b9190a45050565b60975460ff166121fc5760405160e560020a62461bcd02815260206004820152601460248201527f5061757361626c653a206e6f7420706175736564000000000000000000000000604482015260640161091c565b6097805460ff191690557f5db9ee0a495bf2e6ff9c91a7834c1ba4fdd244a5e8aa4e537bd38aeae4b073aa335b604051600160a060020a03909116815260200160405180910390a1565b60975460ff161561226c5760405160e560020a62461bcd02815260040161091c9061411f565b6097805460ff191660011790557f62e78cea01bee320cd4e420270b5ea74000d11b0c9f74754ebdbfc544b05a2586122293390565b60005b8151811015610b75576000600160a060020a03168282815181106122ca576122ca6145e4565b602002602001015160000151600160a060020a031614156123e65760ce548251600160a060020a0390911690632e1a7d4d9084908490811061230e5761230e6145e4565b6020026020010151604001516040518263ffffffff1660e060020a02815260040161233b91815260200190565b600060405180830381600087803b15801561235557600080fd5b505af1158015612369573d6000803e3d6000fd5b5050505081818151811061237f5761237f6145e4565b602002602001015160200151600160a060020a03166108fc8383815181106123a9576123a96145e4565b6020026020010151604001519081150290604051600060405180830381858888f193505050501580156123e0573d6000803e3d6000fd5b50612523565b8181815181106123f8576123f86145e4565b602002602001015160000151600160a060020a031663a9059cbb838381518110612424576124246145e4565b602002602001015160200151848481518110612442576124426145e4565b6020026020010151604001516040518363ffffffff1660e060020a028152600401612482929190600160a060020a03929092168252602082015260400190565b602060405180830381600087803b15801561249c57600080fd5b505af11580156124b0573d6000803e3d6000fd5b505050506040513d601f19601f820116820180604052508101906124d49190613a88565b6125235760405160e560020a62461bcd02815260206004820152601360248201527f4661696c207472616e7366657220636f696e7300000000000000000000000000604482015260640161091c565b8061252d8161456a565b9150506122a4565b60008080612545610708426143a2565b905060005b60c95481101561267d576040516c01000000000000000000000000600160a060020a038c160260208201526034810183905260548101889052607481018790526094810186905260b40160408051601f198184030181529082905280516020918201207f19457468657265756d205369676e6564204d6573736167653a0a33320000000091830191909152603c820152605c01604051602081830303815290604052805190602001209350612635848a8a8080601f016020809104026020016040519081016040528093929190818152602001838380828437600092019190915250612eaf92505050565b925061264f60008051602061469983398151915284611293565b1561265d5750505050611dbb565b8161266781614553565b92505080806126759061456a565b91505061254a565b5060405160e560020a62461bcd02815260206004820152601660248201527f5369676e617475726520636865636b206661696c656400000000000000000000604482015260640161091c565b600060d354426126d991906143a2565b905060d7548114610bd65760d680549060006126f48361456a565b919050557fe15729a2f427aa4572dab35eb692c902fcbce57d41642013259c741380809ae260ca604051612728919061407c565b60405180910390a261273c60ca6000613730565b60d755565b60d5600081546127509061456a565b91829055508114610bd65760405160e560020a62461bcd02815260206004820152601460248201527f4576656e744964206f7574206f66206f72646572000000000000000000000000604482015260640161091c565b600080806127ba6080870160608801613c42565b67ffffffffffffffff16156128fc576127df6127d96020880188614374565b85612f3a565b9150816127ec8780614231565b6127fc60808a0160608b01613c42565b67ffffffffffffffff16818110612815576128156145e4565b90506020028101906128279190614353565b608001351461287b5760405160e560020a62461bcd02815260206004820181905260248201527f5472616e73666572206576656e742076616c69646174696f6e206661696c6564604482015260640161091c565b8461288c6080880160608901613c42565b67ffffffffffffffff166128a08880614231565b6128ab9291506144be565b10156128fc5760405160e560020a62461bcd02815260206004820152601860248201527f4e6f7420656e6f7567682073616665747920626c6f636b730000000000000000604482015260640161091c565b60005b6129098780614231565b9050811015612c13573661291d8880614231565b8381811061292d5761292d6145e4565b905060200281019061293f9190614353565b905061294a8161307e565b5061295d61012082016101008301613c42565b67ffffffffffffffff1615612b4d573661297a60408a018a614231565b600161298e61012086016101008701613c42565b61299891906144d5565b67ffffffffffffffff168181106129b1576129b16145e4565b90506020028101906129c39190614374565b905060005b6129d560208301836142c3565b9050811015612a1b57612a096129ee60208401846142c3565b838181106129fe576129fe6145e4565b90506040020161319a565b80612a138161456a565b9150506129c8565b50612a3c612a298280614231565b60e854600160a060020a031660e76132dd565b945084612a498a80614231565b8360400135818110612a5d57612a5d6145e4565b9050602002810190612a6f9190614353565b6080013514612ac35760405160e560020a62461bcd02815260206004820152601560248201527f57726f6e67205653207265636569707420686173680000000000000000000000604482015260640161091c565b60ea54612ad46040830135856144be565b1015612b255760405160e560020a62461bcd02815260206004820152601c60248201527f4665772073616665747920626c6f636b732076616c696461746f727300000000604482015260640161091c565b612b3560808a0160608b01613c42565b67ffffffffffffffff16831015612b4b57600095505b505b8415612ba95784816040013514612ba95760405160e560020a62461bcd02815260206004820152601160248201527f57726f6e6720706172656e742068617368000000000000000000000000000000604482015260640161091c565b612bb2816133b6565b9550612bc8905061012082016101008301613c42565b67ffffffffffffffff1615612c0057849250612bea6080890160608a01613c42565b67ffffffffffffffff16821015612c0057600094505b5080612c0b8161456a565b9150506128ff565b508015611dbb5760e9555050505050565b60d454612c31904261438a565b600082815260cb60205260408120600101919091555b82811015612cb257600082815260cb60205260409020848483818110612c6f57612c6f6145e4565b835460018101855560009485526020909420606090910292909201926003029091019050612c9d8282614616565b50508080612caa9061456a565b915050612c47565b50505050565b60606000612cc783600261444d565b612cd290600261438a565b67ffffffffffffffff811115612cea57612cea6145fd565b6040519080825280601f01601f191660200182016040528015612d14576020820181803683370190505b5090507f300000000000000000000000000000000000000000000000000000000000000081600081518110612d4b57612d4b6145e4565b6020010190600160f860020a031916908160001a9053507f780000000000000000000000000000000000000000000000000000000000000081600181518110612d9657612d966145e4565b6020010190600160f860020a031916908160001a9053506000612dba84600261444d565b612dc590600161438a565b90505b6001811115612e4c577f303132333435363738396162636465660000000000000000000000000000000085600f1660108110612e0657612e066145e4565b1a60f860020a02828281518110612e1f57612e1f6145e4565b6020010190600160f860020a031916908160001a905350601090940493612e4581614553565b9050612dc8565b508315612e9e5760405160e560020a62461bcd02815260206004820181905260248201527f537472696e67733a20686578206c656e67746820696e73756666696369656e74604482015260640161091c565b9392505050565b610b7582826120ba565b6020810151604082015160608301516000929190831a601b811015612ed257601b015b60408051600081526020810180835288905260ff831691810191909152606081018490526080810183905260019060a0016020604051602081039080840390855afa158015612f25573d6000803e3d6000fd5b5050604051601f190151979650505050505050565b600080612f478480614231565b6000818110612f5857612f586145e4565b9050602002810190612f6a919061430c565b84612f758780614231565b6001818110612f8657612f866145e4565b9050602002810190612f98919061430c565b612fa58960200135613504565b612faf8a80614231565b6002818110612fc057612fc06145e4565b9050602002810190612fd2919061430c565b612fdf60408d018d61427a565b604051602001612ff092919061400c565b60408051601f1981840301815291905261300a8d80614231565b600381811061301b5761301b6145e4565b905060200281019061302d919061430c565b6040516020016130479b9a99989796959493929190613e38565b60408051601f198184030181529190528051602090910120905061307661306e8580614231565b83600461366c565b949350505050565b600080600061308c846133b6565b60e780549294509092506000916130bc6130ac60e0890160c08a01613b23565b60e060020a900463ffffffff1690565b6130c69190614585565b815481106130d6576130d66145e4565b600091825260209091200154600160a060020a0316905080613139846130ff60e089018961430c565b8080601f016020809104026020016040519081016040528093929190818152602001838380828437600092019190915250612eaf92505050565b600160a060020a0316146131925760405160e560020a62461bcd02815260206004820152601560248201527f4661696c656420746f20766572696679207369676e0000000000000000000000604482015260640161091c565b509392505050565b60006131ac6040830160208401613b4d565b60070b121561329957600060016131c96040840160208501613b4d565b6131d5906000196143b6565b6131df919061446c565b60070b905060e7600160e7805490506131f891906144be565b81548110613208576132086145e4565b60009182526020909120015460e78054600160a060020a039092169183908110613234576132346145e4565b9060005260206000200160006101000a815481600160a060020a030219169083600160a060020a0316021790555060e7805480613273576132736145cb565b60008281526020902081016000199081018054600160a060020a03191690550190555050565b60e76132a86020830183613889565b8154600181018355600092835260209092209091018054600160a060020a031916600160a060020a0390921691909117905550565b600080858560008181106132f3576132f36145e4565b9050602002810190613305919061430c565b8588886001818110613319576133196145e4565b905060200281019061332b919061430c565b8760405160200161333c9190613fc8565b6040516020818303038152906040528b8b600281811061335e5761335e6145e4565b9050602002810190613370919061430c565b604051602001613387989796959493929190613dc9565b6040516020818303038152906040528051906020012090506133ac868683600361366c565b9695505050505050565b600080807fa00000000000000000000000000000000000000000000000000000000000000060408501356133ed606087018761430c565b60808801356133ff60a08a018a61430c565b6040516020016134159796959493929190613c6c565b60408051601f1981840301815291815290915061343790850160208601613aa5565b81604051602001613449929190613cc9565b60408051601f1981840301815291905280516020918201209061346e90860186613aa5565b827f84000000000000000000000000000000000000000000000000000000000000006134a060e0890160c08a01613b23565b7fb8410000000000000000000000000000000000000000000000000000000000006134ce60e08b018b61430c565b6040516020016134e49796959493929190613d0f565b604051602081830303815290604052805190602001209250925050915091565b6040805160208082528183019092526060916000919060208201818036833701905050905082602082015260005b602081101561359b5781818151811061354d5761354d6145e4565b60209101015160f860020a90819004027fff0000000000000000000000000000000000000000000000000000000000000016156135895761359b565b806135938161456a565b915050613532565b60006135a88260206144be565b67ffffffffffffffff8111156135c0576135c06145fd565b6040519080825280601f01601f1916602001820160405280156135ea576020820181803683370190505b50905060005b81518110156136635783836136048161456a565b945081518110613616576136166145e4565b602001015160f860020a900460f860020a0282828151811061363a5761363a6145e4565b6020010190600160f860020a031916908160001a9053508061365b8161456a565b9150506135f0565b50949350505050565b60006060825b858110156137255786868281811061368c5761368c6145e4565b905060200281019061369e919061430c565b8689896136ac86600161438a565b8181106136bb576136bb6145e4565b90506020028101906136cd919061430c565b6040516020016136e1959493929190613ed1565b6040516020818303038152906040529150602082511161370957613704826144fe565b613711565b815160208301205b945061371e60028261438a565b9050613672565b509295945050505050565b5080546000825560030290600052602060002090810190610bd691906137b4565b8280548282559060005260206000209081019282156137a4579160200282015b828111156137a4578154600160a060020a031916600160a060020a03843516178255602090920191600190910190613771565b506137b09291506137e7565b5090565b5b808211156137b0578054600160a060020a031990811682556001820180549091169055600060028201556003016137b5565b5b808211156137b057600081556001016137e8565b60008083601f84011261380e57600080fd5b50813567ffffffffffffffff81111561382657600080fd5b602083019150836020808302850101111561384057600080fd5b9250929050565b60008083601f84011261385957600080fd5b50813567ffffffffffffffff81111561387157600080fd5b60208301915083602082850101111561384057600080fd5b60006020828403121561389b57600080fd5b8135612e9e81614675565b600080604083850312156138b957600080fd5b82356138c481614675565b915060208301356138d481614675565b809150509250929050565b60008060008060008060008060e0898b0312156138fb57600080fd5b883561390681614675565b9750602089013561391681614675565b965060408901359550606089013561392d8161468a565b9450608089013567ffffffffffffffff81111561394957600080fd5b6139558b828c01613847565b999c989b5096999598969760a08701359660c0013595509350505050565b60008060008060006080868803121561398b57600080fd5b853561399681614675565b9450602086013567ffffffffffffffff8111156139b257600080fd5b6139be88828901613847565b9699909850959660408101359660609091013595509350505050565b600080602083850312156139ed57600080fd5b823567ffffffffffffffff811115613a0457600080fd5b613a10858286016137fc565b90969095509350505050565b60008060008060408587031215613a3257600080fd5b843567ffffffffffffffff80821115613a4a57600080fd5b613a56888389016137fc565b90965094506020870135915080821115613a6f57600080fd5b50613a7c878288016137fc565b95989497509550505050565b600060208284031215613a9a57600080fd5b8151612e9e8161468a565b600060208284031215613ab757600080fd5b81357cffffffffffffffffffffffffffffffffffffffffffffffffffffffffff1981168114612e9e57600080fd5b600060208284031215613af757600080fd5b5035919050565b60008060408385031215613b1157600080fd5b8235915060208301356138d481614675565b600060208284031215613b3557600080fd5b8135600160e060020a031981168114612e9e57600080fd5b600060208284031215613b5f57600080fd5b81358060070b8114612e9e57600080fd5b600060208284031215613b8257600080fd5b813567ffffffffffffffff811115613b9957600080fd5b820160808185031215612e9e57600080fd5b60008060008060008060a08789031215613bc457600080fd5b863567ffffffffffffffff80821115613bdc57600080fd5b90880190610160828b031215613bf157600080fd5b90965060208801359080821115613c0757600080fd5b50613c1489828a016137fc565b9096509450506040870135613c2881614675565b959894975092956060810135946080909101359350915050565b600060208284031215613c5457600080fd5b813567ffffffffffffffff81168114612e9e57600080fd5b7fff0000000000000000000000000000000000000000000000000000000000000088168152866001820152848660218301378481016021810185905260009083856041830137600093016041019283525090979650505050505050565b7cffffffffffffffffffffffffffffffffffffffffffffffffffffffffff198316815260008251613d01816003850160208701614527565b919091016003019392505050565b7cffffffffffffffffffffffffffffffffffffffffffffffffffffffffff198816815260008751613d47816003850160208c01614527565b7fff000000000000000000000000000000000000000000000000000000000000008816600391840191820152600160e060020a0319871660048201527fffff000000000000000000000000000000000000000000000000000000000000861660088201528385600a83013760009301600a019283525090979650505050505050565b87898237600160a060020a0387166c010000000000000000000000000281890190815260009086886014830137868101905060148101600081528651613e13818360208b01614527565b9190910190508385601483013760009301601401928352509098975050505050505050565b8a8c8237600160a060020a038a166c0100000000000000000000000002818c0190815260009060148a8c828401378a82019150808201600081528a51613e82818360208f01614527565b9290920191508789828401378782019150808201600081528751613eaa818360208c01614527565b9290920191508486828401376000949091010192835250909b9a5050505050505050505050565b848682378085018481526000908385602083013760009301602001928352509095945050505050565b7f416363657373436f6e74726f6c3a206163636f756e7420000000000000000000815260008351613f32816017850160208801614527565b7f206973206d697373696e6720726f6c65200000000000000000000000000000006017918401918201528351613f6f816028840160208801614527565b01602801949350505050565b6020808252825182820181905260009190848201906040850190845b81811015613fbc578351600160a060020a031683529284019291840191600101613f97565b50909695505050505050565b6020808252825482820181905260008481528281209092916040850190845b81811015613fbc578354600160a060020a031683526001938401939285019201613fe7565b6020808252818101839052600090604080840186845b8781101561406f57813561403581614675565b600160a060020a039081168452828601359061405082614675565b1683860152818401358484015260609283019290910190600101614022565b5090979650505050505050565b60006020808301818452808554808352604092508286019150866000528360002060005b828110156140df578154600160a060020a03908116855260018084015490911687860152600283015486860152606090940193600390920191016140a0565b5091979650505050505050565b602081526000825180602084015261410b816040850160208701614527565b601f01601f19169190910160400192915050565b60208082526010908201527f5061757361626c653a2070617573656400000000000000000000000000000000604082015260600190565b6020808252602e908201527f496e697469616c697a61626c653a20636f6e747261637420697320616c72656160408201527f647920696e697469616c697a6564000000000000000000000000000000000000606082015260800190565b6000602080835260608084018551604080858801528282518085526080890191508684019450600093505b8084101561421b5784518051600160a060020a039081168452888201511688840152830151838301529386019360019390930192908501906141de565b5094909701519590960194909452509392505050565b6000808335601e1984360301811261424857600080fd5b83018035915067ffffffffffffffff82111561426357600080fd5b602090810192508102360382131561384057600080fd5b6000808335601e1984360301811261429157600080fd5b83018035915067ffffffffffffffff8211156142ac57600080fd5b602001915060608102360382131561384057600080fd5b6000808335601e198436030181126142da57600080fd5b83018035915067ffffffffffffffff8211156142f557600080fd5b602001915060408102360382131561384057600080fd5b6000808335601e1984360301811261432357600080fd5b83018035915067ffffffffffffffff82111561433e57600080fd5b60200191503681900382131561384057600080fd5b6000823561011e1983360301811261436a57600080fd5b9190910192915050565b60008235605e1983360301811261436a57600080fd5b6000821982111561439d5761439d614599565b500190565b6000826143b1576143b16145b2565b500490565b60008160070b8360070b677fffffffffffffff6000821360008413838304851182821616156143e7576143e7614599565b677fffffffffffffff19600085128281168783058712161561440b5761440b614599565b6000871292508582058712848416161561442757614427614599565b8585058712818416161561443d5761443d614599565b5050509290910295945050505050565b600081600019048311821515161561446757614467614599565b500290565b60008160070b8360070b6000811281677fffffffffffffff190183128115161561449857614498614599565b81677fffffffffffffff0183138116156144b4576144b4614599565b5090039392505050565b6000828210156144d0576144d0614599565b500390565b600067ffffffffffffffff838116908316818110156144f6576144f6614599565b039392505050565b80516020808301519190811015614521578060200360080260020a600003821691505b50919050565b60005b8381101561454257818101518382015260200161452a565b83811115612cb25750506000910152565b60008161456257614562614599565b506000190190565b600060001982141561457e5761457e614599565b5060010190565b600082614594576145946145b2565b500690565b60e060020a634e487b7102600052601160045260246000fd5b60e060020a634e487b7102600052601260045260246000fd5b60e060020a634e487b7102600052603160045260246000fd5b60e060020a634e487b7102600052603260045260246000fd5b60e060020a634e487b7102600052604160045260246000fd5b813561462181614675565b8154600160a060020a031916600160a060020a03821617825550602082013561464981614675565b600182018054600160a060020a031916600160a060020a03831617905550604082013560028201555050565b600160a060020a0381168114610bd657600080fd5b8015158114610bd657600080fdfe077a1d526a4ce8a773632ab13b4fbbf1fcc954c3dab26cd27ea0e2a6750da5d7a49807205ce4d355092ef5a8a18f56e8913cf4a201fbe287825b095693c21775a2646970667358221220b0e4f361dd5857740febe90b537325ffe4ea43323015bb3e097d39ddc564488e64736f6c63430008060033",
  "devdoc": {
    "kind": "dev",
    "methods": {
      "getRoleAdmin(bytes32)": {
        "details": "Returns the admin role that controls `role`. See {grantRole} and {revokeRole}. To change a role's admin, use {_setRoleAdmin}."
      },
      "grantRole(bytes32,address)": {
        "details": "Grants `role` to `account`. If `account` had not been already granted `role`, emits a {RoleGranted} event. Requirements: - the caller must have ``role``'s admin role."
      },
      "hasRole(bytes32,address)": {
        "details": "Returns `true` if `account` has been granted `role`."
      },
      "paused()": {
        "details": "Returns true if the contract is paused, and false otherwise."
      },
      "renounceRole(bytes32,address)": {
        "details": "Revokes `role` from the calling account. Roles are often managed via {grantRole} and {revokeRole}: this function's purpose is to provide a mechanism for accounts to lose their privileges if they are compromised (such as when a trusted device is misplaced). If the calling account had been granted `role`, emits a {RoleRevoked} event. Requirements: - the caller must be `account`."
      },
      "revokeRole(bytes32,address)": {
        "details": "Revokes `role` from `account`. If `account` had been granted `role`, emits a {RoleRevoked} event. Requirements: - the caller must have ``role``'s admin role."
      },
      "supportsInterface(bytes4)": {
        "details": "See {IERC165-supportsInterface}."
      },
      "withdraw(address,address,uint256,bool,bytes,uint256,uint256)": {
        "params": {
          "bridgeFee": "Amount (in native coins), payed as bridge earnings",
          "feeSignature": "Signature signed by relay that confirms that the fee values are valid",
          "transferFee": "Amount (in native coins), payed to compensate gas fees in side network"
        }
      },
      "wrapWithdraw(address,bytes,uint256,uint256)": {
        "params": {
          "bridgeFee": "Amount (in native coins), payed as bridge earnings",
          "feeSignature": "Signature signed by relay that confirms that the fee values are valid",
          "toAddress": "Address in side network that will receive the tokens",
          "transferFee": "Amount (in native coins), payed to compensate gas fees in side network"
        }
      }
    },
    "version": 1
  },
  "userdoc": {
    "kind": "user",
    "methods": {},
    "version": 1
  },
  "storageLayout": {
    "storage": [
      {
        "astId": 413,
        "contract": "contracts/networks/ETH_EthBridge.sol:ETH_EthBridge",
        "label": "_initialized",
        "offset": 0,
        "slot": "0",
        "type": "t_bool"
      },
      {
        "astId": 416,
        "contract": "contracts/networks/ETH_EthBridge.sol:ETH_EthBridge",
        "label": "_initializing",
        "offset": 1,
        "slot": "0",
        "type": "t_bool"
      },
      {
        "astId": 609,
        "contract": "contracts/networks/ETH_EthBridge.sol:ETH_EthBridge",
        "label": "__gap",
        "offset": 0,
        "slot": "1",
        "type": "t_array(t_uint256)50_storage"
      },
      {
        "astId": 858,
        "contract": "contracts/networks/ETH_EthBridge.sol:ETH_EthBridge",
        "label": "__gap",
        "offset": 0,
        "slot": "51",
        "type": "t_array(t_uint256)50_storage"
      },
      {
        "astId": 48,
        "contract": "contracts/networks/ETH_EthBridge.sol:ETH_EthBridge",
        "label": "_roles",
        "offset": 0,
        "slot": "101",
        "type": "t_mapping(t_bytes32,t_struct(RoleData)43_storage)"
      },
      {
        "astId": 333,
        "contract": "contracts/networks/ETH_EthBridge.sol:ETH_EthBridge",
        "label": "__gap",
        "offset": 0,
        "slot": "102",
        "type": "t_array(t_uint256)49_storage"
      },
      {
        "astId": 474,
        "contract": "contracts/networks/ETH_EthBridge.sol:ETH_EthBridge",
        "label": "_paused",
        "offset": 0,
        "slot": "151",
        "type": "t_bool"
      },
      {
        "astId": 565,
        "contract": "contracts/networks/ETH_EthBridge.sol:ETH_EthBridge",
        "label": "__gap",
        "offset": 0,
        "slot": "152",
        "type": "t_array(t_uint256)49_storage"
      },
      {
        "astId": 6833,
        "contract": "contracts/networks/ETH_EthBridge.sol:ETH_EthBridge",
        "label": "signatureFeeCheckNumber",
        "offset": 0,
        "slot": "201",
        "type": "t_uint256"
      },
      {
        "astId": 6837,
        "contract": "contracts/networks/ETH_EthBridge.sol:ETH_EthBridge",
        "label": "queue",
        "offset": 0,
        "slot": "202",
        "type": "t_array(t_struct(Transfer)7915_storage)dyn_storage"
      },
      {
        "astId": 6842,
        "contract": "contracts/networks/ETH_EthBridge.sol:ETH_EthBridge",
        "label": "lockedTransfers",
        "offset": 0,
        "slot": "203",
        "type": "t_mapping(t_uint256,t_struct(LockedTransfers)7932_storage)"
      },
      {
        "astId": 6844,
        "contract": "contracts/networks/ETH_EthBridge.sol:ETH_EthBridge",
        "label": "oldestLockedEventId",
        "offset": 0,
        "slot": "204",
        "type": "t_uint256"
      },
      {
        "astId": 6848,
        "contract": "contracts/networks/ETH_EthBridge.sol:ETH_EthBridge",
        "label": "tokenAddresses",
        "offset": 0,
        "slot": "205",
        "type": "t_mapping(t_address,t_address)"
      },
      {
        "astId": 6850,
        "contract": "contracts/networks/ETH_EthBridge.sol:ETH_EthBridge",
        "label": "wrapperAddress",
        "offset": 0,
        "slot": "206",
        "type": "t_address"
      },
      {
        "astId": 6852,
        "contract": "contracts/networks/ETH_EthBridge.sol:ETH_EthBridge",
        "label": "transferFeeRecipient",
        "offset": 0,
        "slot": "207",
        "type": "t_address_payable"
      },
      {
        "astId": 6854,
        "contract": "contracts/networks/ETH_EthBridge.sol:ETH_EthBridge",
        "label": "bridgeFeeRecipient",
        "offset": 0,
        "slot": "208",
        "type": "t_address_payable"
      },
      {
        "astId": 6856,
        "contract": "contracts/networks/ETH_EthBridge.sol:ETH_EthBridge",
        "label": "sideBridgeAddress",
        "offset": 0,
        "slot": "209",
        "type": "t_address"
      },
      {
        "astId": 6858,
        "contract": "contracts/networks/ETH_EthBridge.sol:ETH_EthBridge",
        "label": "minSafetyBlocks",
        "offset": 0,
        "slot": "210",
        "type": "t_uint256"
      },
      {
        "astId": 6860,
        "contract": "contracts/networks/ETH_EthBridge.sol:ETH_EthBridge",
        "label": "timeframeSeconds",
        "offset": 0,
        "slot": "211",
        "type": "t_uint256"
      },
      {
        "astId": 6862,
        "contract": "contracts/networks/ETH_EthBridge.sol:ETH_EthBridge",
        "label": "lockTime",
        "offset": 0,
        "slot": "212",
        "type": "t_uint256"
      },
      {
        "astId": 6864,
        "contract": "contracts/networks/ETH_EthBridge.sol:ETH_EthBridge",
        "label": "inputEventId",
        "offset": 0,
        "slot": "213",
        "type": "t_uint256"
      },
      {
        "astId": 6866,
        "contract": "contracts/networks/ETH_EthBridge.sol:ETH_EthBridge",
        "label": "outputEventId",
        "offset": 0,
        "slot": "214",
        "type": "t_uint256"
      },
      {
        "astId": 6868,
        "contract": "contracts/networks/ETH_EthBridge.sol:ETH_EthBridge",
        "label": "lastTimeframe",
        "offset": 0,
        "slot": "215",
        "type": "t_uint256"
      },
      {
        "astId": 7905,
        "contract": "contracts/networks/ETH_EthBridge.sol:ETH_EthBridge",
        "label": "__gap",
        "offset": 0,
        "slot": "216",
        "type": "t_array(t_uint256)15_storage"
      },
      {
        "astId": 2180,
        "contract": "contracts/networks/ETH_EthBridge.sol:ETH_EthBridge",
        "label": "validatorSet",
        "offset": 0,
        "slot": "231",
        "type": "t_array(t_address)dyn_storage"
      },
      {
        "astId": 2182,
        "contract": "contracts/networks/ETH_EthBridge.sol:ETH_EthBridge",
        "label": "validatorSetAddress",
        "offset": 0,
        "slot": "232",
        "type": "t_address"
      },
      {
        "astId": 2184,
        "contract": "contracts/networks/ETH_EthBridge.sol:ETH_EthBridge",
        "label": "lastProcessedBlock",
        "offset": 0,
        "slot": "233",
        "type": "t_bytes32"
      },
      {
        "astId": 2186,
        "contract": "contracts/networks/ETH_EthBridge.sol:ETH_EthBridge",
        "label": "minSafetyBlocksValidators",
        "offset": 0,
        "slot": "234",
        "type": "t_uint256"
      },
      {
        "astId": 2710,
        "contract": "contracts/networks/ETH_EthBridge.sol:ETH_EthBridge",
        "label": "___gap",
        "offset": 0,
        "slot": "235",
        "type": "t_array(t_uint256)15_storage"
      }
    ],
    "types": {
      "t_address": {
        "encoding": "inplace",
        "label": "address",
        "numberOfBytes": "20"
      },
      "t_address_payable": {
        "encoding": "inplace",
        "label": "address payable",
        "numberOfBytes": "20"
      },
      "t_array(t_address)dyn_storage": {
        "base": "t_address",
        "encoding": "dynamic_array",
        "label": "address[]",
        "numberOfBytes": "32"
      },
      "t_array(t_struct(Transfer)7915_storage)dyn_storage": {
        "base": "t_struct(Transfer)7915_storage",
        "encoding": "dynamic_array",
        "label": "struct CommonStructs.Transfer[]",
        "numberOfBytes": "32"
      },
      "t_array(t_uint256)15_storage": {
        "base": "t_uint256",
        "encoding": "inplace",
        "label": "uint256[15]",
        "numberOfBytes": "480"
      },
      "t_array(t_uint256)49_storage": {
        "base": "t_uint256",
        "encoding": "inplace",
        "label": "uint256[49]",
        "numberOfBytes": "1568"
      },
      "t_array(t_uint256)50_storage": {
        "base": "t_uint256",
        "encoding": "inplace",
        "label": "uint256[50]",
        "numberOfBytes": "1600"
      },
      "t_bool": {
        "encoding": "inplace",
        "label": "bool",
        "numberOfBytes": "1"
      },
      "t_bytes32": {
        "encoding": "inplace",
        "label": "bytes32",
        "numberOfBytes": "32"
      },
      "t_mapping(t_address,t_address)": {
        "encoding": "mapping",
        "key": "t_address",
        "label": "mapping(address => address)",
        "numberOfBytes": "32",
        "value": "t_address"
      },
      "t_mapping(t_address,t_bool)": {
        "encoding": "mapping",
        "key": "t_address",
        "label": "mapping(address => bool)",
        "numberOfBytes": "32",
        "value": "t_bool"
      },
      "t_mapping(t_bytes32,t_struct(RoleData)43_storage)": {
        "encoding": "mapping",
        "key": "t_bytes32",
        "label": "mapping(bytes32 => struct AccessControlUpgradeable.RoleData)",
        "numberOfBytes": "32",
        "value": "t_struct(RoleData)43_storage"
      },
      "t_mapping(t_uint256,t_struct(LockedTransfers)7932_storage)": {
        "encoding": "mapping",
        "key": "t_uint256",
        "label": "mapping(uint256 => struct CommonStructs.LockedTransfers)",
        "numberOfBytes": "32",
        "value": "t_struct(LockedTransfers)7932_storage"
      },
      "t_struct(LockedTransfers)7932_storage": {
        "encoding": "inplace",
        "label": "struct CommonStructs.LockedTransfers",
        "members": [
          {
            "astId": 7929,
            "contract": "contracts/networks/ETH_EthBridge.sol:ETH_EthBridge",
            "label": "transfers",
            "offset": 0,
            "slot": "0",
            "type": "t_array(t_struct(Transfer)7915_storage)dyn_storage"
          },
          {
            "astId": 7931,
            "contract": "contracts/networks/ETH_EthBridge.sol:ETH_EthBridge",
            "label": "endTimestamp",
            "offset": 0,
            "slot": "1",
            "type": "t_uint256"
          }
        ],
        "numberOfBytes": "64"
      },
      "t_struct(RoleData)43_storage": {
        "encoding": "inplace",
        "label": "struct AccessControlUpgradeable.RoleData",
        "members": [
          {
            "astId": 40,
            "contract": "contracts/networks/ETH_EthBridge.sol:ETH_EthBridge",
            "label": "members",
            "offset": 0,
            "slot": "0",
            "type": "t_mapping(t_address,t_bool)"
          },
          {
            "astId": 42,
            "contract": "contracts/networks/ETH_EthBridge.sol:ETH_EthBridge",
            "label": "adminRole",
            "offset": 0,
            "slot": "1",
            "type": "t_bytes32"
          }
        ],
        "numberOfBytes": "64"
      },
      "t_struct(Transfer)7915_storage": {
        "encoding": "inplace",
        "label": "struct CommonStructs.Transfer",
        "members": [
          {
            "astId": 7910,
            "contract": "contracts/networks/ETH_EthBridge.sol:ETH_EthBridge",
            "label": "tokenAddress",
            "offset": 0,
            "slot": "0",
            "type": "t_address"
          },
          {
            "astId": 7912,
            "contract": "contracts/networks/ETH_EthBridge.sol:ETH_EthBridge",
            "label": "toAddress",
            "offset": 0,
            "slot": "1",
            "type": "t_address"
          },
          {
            "astId": 7914,
            "contract": "contracts/networks/ETH_EthBridge.sol:ETH_EthBridge",
            "label": "amount",
            "offset": 0,
            "slot": "2",
            "type": "t_uint256"
          }
        ],
        "numberOfBytes": "96"
      },
      "t_uint256": {
        "encoding": "inplace",
        "label": "uint256",
        "numberOfBytes": "32"
      }
    }
  }
}