{
  "address": "0x2252d62C34D6BF7A32074CEA08111C5b36a57471",
  "abi": [
    {
      "anonymous": false,
      "inputs": [
        {
          "indexed": false,
          "internalType": "address",
          "name": "account",
          "type": "address"
        }
      ],
      "name": "Paused",
      "type": "event"
    },
    {
      "anonymous": false,
      "inputs": [
        {
          "indexed": true,
          "internalType": "bytes32",
          "name": "role",
          "type": "bytes32"
        },
        {
          "indexed": true,
          "internalType": "bytes32",
          "name": "previousAdminRole",
          "type": "bytes32"
        },
        {
          "indexed": true,
          "internalType": "bytes32",
          "name": "newAdminRole",
          "type": "bytes32"
        }
      ],
      "name": "RoleAdminChanged",
      "type": "event"
    },
    {
      "anonymous": false,
      "inputs": [
        {
          "indexed": true,
          "internalType": "bytes32",
          "name": "role",
          "type": "bytes32"
        },
        {
          "indexed": true,
          "internalType": "address",
          "name": "account",
          "type": "address"
        },
        {
          "indexed": true,
          "internalType": "address",
          "name": "sender",
          "type": "address"
        }
      ],
      "name": "RoleGranted",
      "type": "event"
    },
    {
      "anonymous": false,
      "inputs": [
        {
          "indexed": true,
          "internalType": "bytes32",
          "name": "role",
          "type": "bytes32"
        },
        {
          "indexed": true,
          "internalType": "address",
          "name": "account",
          "type": "address"
        },
        {
          "indexed": true,
          "internalType": "address",
          "name": "sender",
          "type": "address"
        }
      ],
      "name": "RoleRevoked",
      "type": "event"
    },
    {
      "anonymous": false,
      "inputs": [
        {
          "indexed": true,
          "internalType": "uint256",
          "name": "eventId",
          "type": "uint256"
        },
        {
          "components": [
            {
              "internalType": "address",
              "name": "tokenAddress",
              "type": "address"
            },
            {
              "internalType": "address",
              "name": "toAddress",
              "type": "address"
            },
            {
              "internalType": "uint256",
              "name": "amount",
              "type": "uint256"
            }
          ],
          "indexed": false,
          "internalType": "struct CommonStructs.Transfer[]",
          "name": "queue",
          "type": "tuple[]"
        }
      ],
      "name": "Transfer",
      "type": "event"
    },
    {
      "anonymous": false,
      "inputs": [
        {
          "indexed": true,
          "internalType": "uint256",
          "name": "eventId",
          "type": "uint256"
        }
      ],
      "name": "TransferFinish",
      "type": "event"
    },
    {
      "anonymous": false,
      "inputs": [
        {
          "indexed": true,
          "internalType": "uint256",
          "name": "eventId",
          "type": "uint256"
        }
      ],
      "name": "TransferSubmit",
      "type": "event"
    },
    {
      "anonymous": false,
      "inputs": [
        {
          "indexed": false,
          "internalType": "address",
          "name": "account",
          "type": "address"
        }
      ],
      "name": "Unpaused",
      "type": "event"
    },
    {
      "anonymous": false,
      "inputs": [
        {
          "indexed": true,
          "internalType": "address",
          "name": "from",
          "type": "address"
        },
        {
          "indexed": false,
          "internalType": "address",
          "name": "tokenFrom",
          "type": "address"
        },
        {
          "indexed": false,
          "internalType": "address",
          "name": "tokenTo",
          "type": "address"
        },
        {
          "indexed": false,
          "internalType": "uint256",
          "name": "eventId",
          "type": "uint256"
        },
        {
          "indexed": false,
          "internalType": "uint256",
          "name": "feeAmount",
          "type": "uint256"
        }
      ],
      "name": "Withdraw",
      "type": "event"
    },
    {
      "inputs": [],
      "name": "ADMIN_ROLE",
      "outputs": [
        {
          "internalType": "bytes32",
          "name": "",
          "type": "bytes32"
        }
      ],
      "stateMutability": "view",
      "type": "function"
    },
    {
      "inputs": [],
      "name": "DEFAULT_ADMIN_ROLE",
      "outputs": [
        {
          "internalType": "bytes32",
          "name": "",
          "type": "bytes32"
        }
      ],
      "stateMutability": "view",
      "type": "function"
    },
    {
      "inputs": [],
      "name": "RELAY_ROLE",
      "outputs": [
        {
          "internalType": "bytes32",
          "name": "",
          "type": "bytes32"
        }
      ],
      "stateMutability": "view",
      "type": "function"
    },
    {
      "inputs": [
        {
          "internalType": "uint256",
          "name": "fee_",
          "type": "uint256"
        }
      ],
      "name": "changeFee",
      "outputs": [],
      "stateMutability": "nonpayable",
      "type": "function"
    },
    {
      "inputs": [
        {
          "internalType": "address payable",
          "name": "feeRecipient_",
          "type": "address"
        }
      ],
      "name": "changeFeeRecipient",
      "outputs": [],
      "stateMutability": "nonpayable",
      "type": "function"
    },
    {
      "inputs": [
        {
          "internalType": "uint256",
          "name": "lockTime_",
          "type": "uint256"
        }
      ],
      "name": "changeLockTime",
      "outputs": [],
      "stateMutability": "nonpayable",
      "type": "function"
    },
    {
      "inputs": [
        {
          "internalType": "uint256",
          "name": "minSafetyBlocks_",
          "type": "uint256"
        }
      ],
      "name": "changeMinSafetyBlocks",
      "outputs": [],
      "stateMutability": "nonpayable",
      "type": "function"
    },
    {
      "inputs": [
        {
          "internalType": "uint256",
          "name": "timeframeSeconds_",
          "type": "uint256"
        }
      ],
      "name": "changeTimeframeSeconds",
      "outputs": [],
      "stateMutability": "nonpayable",
      "type": "function"
    },
    {
      "inputs": [],
      "name": "fee",
      "outputs": [
        {
          "internalType": "uint256",
          "name": "",
          "type": "uint256"
        }
      ],
      "stateMutability": "view",
      "type": "function"
    },
    {
      "inputs": [
        {
          "internalType": "uint256",
          "name": "eventId",
          "type": "uint256"
        }
      ],
      "name": "getLockedTransfers",
      "outputs": [
        {
          "components": [
            {
              "components": [
                {
                  "internalType": "address",
                  "name": "tokenAddress",
                  "type": "address"
                },
                {
                  "internalType": "address",
                  "name": "toAddress",
                  "type": "address"
                },
                {
                  "internalType": "uint256",
                  "name": "amount",
                  "type": "uint256"
                }
              ],
              "internalType": "struct CommonStructs.Transfer[]",
              "name": "transfers",
              "type": "tuple[]"
            },
            {
              "internalType": "uint256",
              "name": "endTimestamp",
              "type": "uint256"
            }
          ],
          "internalType": "struct CommonStructs.LockedTransfers",
          "name": "",
          "type": "tuple"
        }
      ],
      "stateMutability": "view",
      "type": "function"
    },
    {
      "inputs": [
        {
          "internalType": "bytes32",
          "name": "role",
          "type": "bytes32"
        }
      ],
      "name": "getRoleAdmin",
      "outputs": [
        {
          "internalType": "bytes32",
          "name": "",
          "type": "bytes32"
        }
      ],
      "stateMutability": "view",
      "type": "function"
    },
    {
      "inputs": [],
      "name": "getValidatorSet",
      "outputs": [
        {
          "internalType": "address[]",
          "name": "",
          "type": "address[]"
        }
      ],
      "stateMutability": "view",
      "type": "function"
    },
    {
      "inputs": [
        {
          "internalType": "bytes32",
          "name": "role",
          "type": "bytes32"
        },
        {
          "internalType": "address",
          "name": "account",
          "type": "address"
        }
      ],
      "name": "grantRole",
      "outputs": [],
      "stateMutability": "nonpayable",
      "type": "function"
    },
    {
      "inputs": [
        {
          "internalType": "bytes32",
          "name": "role",
          "type": "bytes32"
        },
        {
          "internalType": "address",
          "name": "account",
          "type": "address"
        }
      ],
      "name": "hasRole",
      "outputs": [
        {
          "internalType": "bool",
          "name": "",
          "type": "bool"
        }
      ],
      "stateMutability": "view",
      "type": "function"
    },
    {
      "inputs": [
        {
          "components": [
            {
              "internalType": "address",
              "name": "sideBridgeAddress",
              "type": "address"
            },
            {
              "internalType": "address",
              "name": "adminAddress",
              "type": "address"
            },
            {
              "internalType": "address",
              "name": "relayAddress",
              "type": "address"
            },
            {
              "internalType": "address",
              "name": "wrappingTokenAddress",
              "type": "address"
            },
            {
              "internalType": "address[]",
              "name": "tokenThisAddresses",
              "type": "address[]"
            },
            {
              "internalType": "address[]",
              "name": "tokenSideAddresses",
              "type": "address[]"
            },
            {
              "internalType": "uint256",
              "name": "fee",
              "type": "uint256"
            },
            {
              "internalType": "address payable",
              "name": "feeRecipient",
              "type": "address"
            },
            {
              "internalType": "uint256",
              "name": "timeframeSeconds",
              "type": "uint256"
            },
            {
              "internalType": "uint256",
              "name": "lockTime",
              "type": "uint256"
            },
            {
              "internalType": "uint256",
              "name": "minSafetyBlocks",
              "type": "uint256"
            }
          ],
          "internalType": "struct CommonStructs.ConstructorArgs",
          "name": "args",
          "type": "tuple"
        },
        {
          "internalType": "address[]",
          "name": "initialValidators",
          "type": "address[]"
        },
        {
          "internalType": "address",
          "name": "validatorSetAddress",
          "type": "address"
        }
      ],
      "name": "initialize",
      "outputs": [],
      "stateMutability": "nonpayable",
      "type": "function"
    },
    {
      "inputs": [],
      "name": "inputEventId",
      "outputs": [
        {
          "internalType": "uint256",
          "name": "",
          "type": "uint256"
        }
      ],
      "stateMutability": "view",
      "type": "function"
    },
    {
      "inputs": [],
      "name": "lockTime",
      "outputs": [
        {
          "internalType": "uint256",
          "name": "",
          "type": "uint256"
        }
      ],
      "stateMutability": "view",
      "type": "function"
    },
    {
      "inputs": [
        {
          "internalType": "uint256",
          "name": "",
          "type": "uint256"
        }
      ],
      "name": "lockedTransfers",
      "outputs": [
        {
          "internalType": "uint256",
          "name": "endTimestamp",
          "type": "uint256"
        }
      ],
      "stateMutability": "view",
      "type": "function"
    },
    {
      "inputs": [],
      "name": "minSafetyBlocks",
      "outputs": [
        {
          "internalType": "uint256",
          "name": "",
          "type": "uint256"
        }
      ],
      "stateMutability": "view",
      "type": "function"
    },
    {
      "inputs": [],
      "name": "oldestLockedEventId",
      "outputs": [
        {
          "internalType": "uint256",
          "name": "",
          "type": "uint256"
        }
      ],
      "stateMutability": "view",
      "type": "function"
    },
    {
      "inputs": [],
      "name": "pause",
      "outputs": [],
      "stateMutability": "nonpayable",
      "type": "function"
    },
    {
      "inputs": [],
      "name": "paused",
      "outputs": [
        {
          "internalType": "bool",
          "name": "",
          "type": "bool"
        }
      ],
      "stateMutability": "view",
      "type": "function"
    },
    {
      "inputs": [
        {
          "internalType": "uint256",
          "name": "eventId",
          "type": "uint256"
        }
      ],
      "name": "removeLockedTransfers",
      "outputs": [],
      "stateMutability": "nonpayable",
      "type": "function"
    },
    {
      "inputs": [
        {
          "internalType": "bytes32",
          "name": "role",
          "type": "bytes32"
        },
        {
          "internalType": "address",
          "name": "account",
          "type": "address"
        }
      ],
      "name": "renounceRole",
      "outputs": [],
      "stateMutability": "nonpayable",
      "type": "function"
    },
    {
      "inputs": [
        {
          "internalType": "bytes32",
          "name": "role",
          "type": "bytes32"
        },
        {
          "internalType": "address",
          "name": "account",
          "type": "address"
        }
      ],
      "name": "revokeRole",
      "outputs": [],
      "stateMutability": "nonpayable",
      "type": "function"
    },
    {
      "inputs": [],
      "name": "sideBridgeAddress",
      "outputs": [
        {
          "internalType": "address",
          "name": "",
          "type": "address"
        }
      ],
      "stateMutability": "view",
      "type": "function"
    },
    {
      "inputs": [
        {
          "components": [
            {
              "components": [
                {
                  "internalType": "bytes3",
                  "name": "p0Seal",
                  "type": "bytes3"
                },
                {
                  "internalType": "bytes3",
                  "name": "p0Bare",
                  "type": "bytes3"
                },
                {
                  "internalType": "bytes32",
                  "name": "parentHash",
                  "type": "bytes32"
                },
                {
                  "internalType": "bytes",
                  "name": "p2",
                  "type": "bytes"
                },
                {
                  "internalType": "bytes32",
                  "name": "receiptHash",
                  "type": "bytes32"
                },
                {
                  "internalType": "bytes",
                  "name": "p3",
                  "type": "bytes"
                },
                {
                  "internalType": "bytes4",
                  "name": "step",
                  "type": "bytes4"
                },
                {
                  "internalType": "bytes",
                  "name": "signature",
                  "type": "bytes"
                },
                {
                  "internalType": "uint64",
                  "name": "finalizedVs",
                  "type": "uint64"
                }
              ],
              "internalType": "struct CheckAura.BlockAura[]",
              "name": "blocks",
              "type": "tuple[]"
            },
            {
              "components": [
                {
                  "internalType": "bytes[]",
                  "name": "receiptProof",
                  "type": "bytes[]"
                },
                {
                  "internalType": "uint256",
                  "name": "eventId",
                  "type": "uint256"
                },
                {
                  "components": [
                    {
                      "internalType": "address",
                      "name": "tokenAddress",
                      "type": "address"
                    },
                    {
                      "internalType": "address",
                      "name": "toAddress",
                      "type": "address"
                    },
                    {
                      "internalType": "uint256",
                      "name": "amount",
                      "type": "uint256"
                    }
                  ],
                  "internalType": "struct CommonStructs.Transfer[]",
                  "name": "transfers",
                  "type": "tuple[]"
                }
              ],
              "internalType": "struct CommonStructs.TransferProof",
              "name": "transfer",
              "type": "tuple"
            },
            {
              "components": [
                {
                  "internalType": "bytes[]",
                  "name": "receiptProof",
                  "type": "bytes[]"
                },
                {
                  "components": [
                    {
                      "internalType": "address",
                      "name": "deltaAddress",
                      "type": "address"
                    },
                    {
                      "internalType": "int64",
                      "name": "deltaIndex",
                      "type": "int64"
                    }
                  ],
                  "internalType": "struct CheckAura.ValidatorSetChange[]",
                  "name": "changes",
                  "type": "tuple[]"
                }
              ],
              "internalType": "struct CheckAura.ValidatorSetProof[]",
              "name": "vsChanges",
              "type": "tuple[]"
            },
            {
              "internalType": "uint64",
              "name": "transferEventBlock",
              "type": "uint64"
            }
          ],
          "internalType": "struct CheckAura.AuraProof",
          "name": "auraProof",
          "type": "tuple"
        }
      ],
      "name": "submitTransferAura",
      "outputs": [],
      "stateMutability": "nonpayable",
      "type": "function"
    },
    {
      "inputs": [
        {
          "internalType": "bytes4",
          "name": "interfaceId",
          "type": "bytes4"
        }
      ],
      "name": "supportsInterface",
      "outputs": [
        {
          "internalType": "bool",
          "name": "",
          "type": "bool"
        }
      ],
      "stateMutability": "view",
      "type": "function"
    },
    {
      "inputs": [],
      "name": "timeframeSeconds",
      "outputs": [
        {
          "internalType": "uint256",
          "name": "",
          "type": "uint256"
        }
      ],
      "stateMutability": "view",
      "type": "function"
    },
    {
      "inputs": [
        {
          "internalType": "address",
          "name": "",
          "type": "address"
        }
      ],
      "name": "tokenAddresses",
      "outputs": [
        {
          "internalType": "address",
          "name": "",
          "type": "address"
        }
      ],
      "stateMutability": "view",
      "type": "function"
    },
    {
      "inputs": [
        {
          "internalType": "address",
          "name": "tokenThisAddress",
          "type": "address"
        },
        {
          "internalType": "address",
          "name": "tokenSideAddress",
          "type": "address"
        }
      ],
      "name": "tokensAdd",
      "outputs": [],
      "stateMutability": "nonpayable",
      "type": "function"
    },
    {
      "inputs": [
        {
          "internalType": "address[]",
          "name": "tokenThisAddresses",
          "type": "address[]"
        },
        {
          "internalType": "address[]",
          "name": "tokenSideAddresses",
          "type": "address[]"
        }
      ],
      "name": "tokensAddBatch",
      "outputs": [],
      "stateMutability": "nonpayable",
      "type": "function"
    },
    {
      "inputs": [
        {
          "internalType": "address",
          "name": "tokenThisAddress",
          "type": "address"
        }
      ],
      "name": "tokensRemove",
      "outputs": [],
      "stateMutability": "nonpayable",
      "type": "function"
    },
    {
      "inputs": [
        {
          "internalType": "address[]",
          "name": "tokenThisAddresses",
          "type": "address[]"
        }
      ],
      "name": "tokensRemoveBatch",
      "outputs": [],
      "stateMutability": "nonpayable",
      "type": "function"
    },
    {
      "inputs": [
        {
          "internalType": "uint256",
          "name": "eventId",
          "type": "uint256"
        }
      ],
      "name": "unlockTransfers",
      "outputs": [],
      "stateMutability": "nonpayable",
      "type": "function"
    },
    {
      "inputs": [],
      "name": "unlockTransfersBatch",
      "outputs": [],
      "stateMutability": "nonpayable",
      "type": "function"
    },
    {
      "inputs": [],
      "name": "unpause",
      "outputs": [],
      "stateMutability": "nonpayable",
      "type": "function"
    },
    {
      "inputs": [
        {
          "internalType": "uint256",
          "name": "",
          "type": "uint256"
        }
      ],
      "name": "validatorSet",
      "outputs": [
        {
          "internalType": "address",
          "name": "",
          "type": "address"
        }
      ],
      "stateMutability": "view",
      "type": "function"
    },
    {
      "inputs": [
        {
          "internalType": "address",
          "name": "tokenThisAddress",
          "type": "address"
        },
        {
          "internalType": "address",
          "name": "toAddress",
          "type": "address"
        },
        {
          "internalType": "uint256",
          "name": "amount",
          "type": "uint256"
        },
        {
          "internalType": "bool",
          "name": "unwrapSide",
          "type": "bool"
        }
      ],
      "name": "withdraw",
      "outputs": [],
      "stateMutability": "payable",
      "type": "function"
    },
    {
      "inputs": [
        {
          "internalType": "address",
          "name": "toAddress",
          "type": "address"
        }
      ],
      "name": "wrapWithdraw",
      "outputs": [],
      "stateMutability": "payable",
      "type": "function"
    },
    {
      "inputs": [],
      "name": "wrapperAddress",
      "outputs": [
        {
          "internalType": "address",
          "name": "",
          "type": "address"
        }
      ],
      "stateMutability": "view",
      "type": "function"
    },
    {
      "stateMutability": "payable",
      "type": "receive"
    }
  ],
  "transactionHash": "0x6ad8ac5098034e3034c758effded7f8cbcc52dde59cc80734e42474ebeab6450",
  "args": [],
  "numDeployments": 4,
  "solcInputHash": "2ddc53616ab4113d3bcef160ae6cffc2",
  "bytecode": "0x608060405234801561001057600080fd5b50614486806100206000396000f3fe60806040526004361061024e5760003560e060020a900480638ac1f86f1161013d578063baeebe75116100ba578063e4e6bba61161007e578063e4e6bba6146106d5578063e64808f3146106e8578063e6ee1c5c14610708578063f33fe10f14610728578063f862b7eb14610748578063fd5d2ef31461076857600080fd5b8063baeebe751461063a578063cf33125014610650578063d547741f14610672578063ddca3f4314610692578063e31be087146106a857600080fd5b806396cf52271161010157806396cf5227146105a357806399b5bb64146105c3578063a217fddf146105d9578063b6d3385e146105ee578063ba8bbbe01461062457600080fd5b80638ac1f86f146105255780638e5df9c71461053a57806391d148541461055a578063924cf6e01461057a578063934785b71461059057600080fd5b80633f4ba83a116101cb5780636a1db1bf1161018f5780636a1db1bf1461047657806375b238fc146104965780637df8b802146104b85780638456cb59146104f0578063853890ae1461050557600080fd5b80633f4ba83a146103d957806342180fb8146103ee5780634a1856de1461040e5780635249a7051461043e5780635c975abb1461045e57600080fd5b806323604071116102125780632360407114610329578063248a9ca3146103495780632f2ff15d14610379578063331a891a1461039957806336568abe146103b957600080fd5b806301ffc9a71461025a578063044218231461028f57806309fce356146102d15780630d668087146102f3578063119b980d1461030957600080fd5b3661025557005b600080fd5b34801561026657600080fd5b5061027a610275366004613680565b610788565b60405190151581526020015b60405180910390f35b34801561029b57600080fd5b506102c37f077a1d526a4ce8a773632ab13b4fbbf1fcc954c3dab26cd27ea0e2a6750da5d781565b604051908152602001610286565b3480156102dd57600080fd5b506102f16102ec366004613581565b6107f1565b005b3480156102ff57600080fd5b506102c360d35481565b34801561031557600080fd5b506102f16103243660046136aa565b610819565b34801561033557600080fd5b506102f16103443660046134a3565b61096f565b34801561035557600080fd5b506102c3610364366004613642565b60009081526065602052604090206001015490565b34801561038557600080fd5b506102f161039436600461365b565b6109ab565b3480156103a557600080fd5b506102f16103b4366004613642565b6109d1565b3480156103c557600080fd5b506102f16103d436600461365b565b610b18565b3480156103e557600080fd5b506102f1610ba3565b3480156103fa57600080fd5b506102f1610409366004613642565b610bc7565b34801561041a57600080fd5b506102c3610429366004613642565b60ca6020526000908152604090206001015481565b34801561044a57600080fd5b506102f161045936600461354c565b610be6565b34801561046a57600080fd5b5060975460ff1661027a565b34801561048257600080fd5b506102f1610491366004613642565b610c6b565b3480156104a257600080fd5b506102c360008051602061443183398151915281565b3480156104c457600080fd5b5060cd546104d890600160a060020a031681565b604051600160a060020a039091168152602001610286565b3480156104fc57600080fd5b506102f1610c8a565b34801561051157600080fd5b506102f16105203660046134c0565b610cab565b34801561053157600080fd5b506102f1610cf3565b34801561054657600080fd5b506102f16105553660046134a3565b610e4b565b34801561056657600080fd5b5061027a61057536600461365b565b610e8c565b34801561058657600080fd5b506102c360d15481565b6102f161059e3660046134f9565b610eb7565b3480156105af57600080fd5b506102f16105be366004613642565b6112b4565b3480156105cf57600080fd5b506102c360d45481565b3480156105e557600080fd5b506102c3600081565b3480156105fa57600080fd5b506104d86106093660046134a3565b60cc60205260009081526040902054600160a060020a031681565b34801561063057600080fd5b506102c360cb5481565b34801561064657600080fd5b506102c360d25481565b34801561065c57600080fd5b506106656112d3565b6040516102869190613c11565b34801561067e57600080fd5b506102f161068d36600461365b565b611335565b34801561069e57600080fd5b506102c360ce5481565b3480156106b457600080fd5b506106c86106c3366004613642565b61135b565b6040516102869190613da8565b6102f16106e33660046134a3565b611417565b3480156106f457600080fd5b506104d8610703366004613642565b6116bd565b34801561071457600080fd5b506102f16107233660046136e5565b6116e7565b34801561073457600080fd5b5060d0546104d890600160a060020a031681565b34801561075457600080fd5b506102f1610763366004613642565b61176b565b34801561077457600080fd5b506102f1610783366004613642565b61199e565b6000600160e060020a031982167f7965db0b0000000000000000000000000000000000000000000000000000000014806107eb57507f01ffc9a700000000000000000000000000000000000000000000000000000000600160e060020a03198316145b92915050565b60008051602061443183398151915261080a81336119bd565b6108148383611a24565b505050565b7f077a1d526a4ce8a773632ab13b4fbbf1fcc954c3dab26cd27ea0e2a6750da5d761084481336119bd565b60975460ff16156108735760405160e560020a62461bcd02815260040161086a90613d14565b60405180910390fd5b6108806020830183613edb565b602001357f196c47048e38df7a4fe6e581c8f4f2e2ba67ac0dd45b90da756e97bd61d9dd3b60405160405180910390a26108c96108c06020840184613edb565b60200135611b3a565b60d15460d0546108e3918491600160a060020a0316611b9f565b61096b6108f36020840184613edb565b610901906040810190613e2a565b808060200260200160405190810160405280939291908181526020016000905b8282101561094d5761093e6060830286013681900381019061382f565b81526020019060010190610921565b50505050508380602001906109629190613edb565b60200135612011565b5050565b60008051602061443183398151915261098881336119bd565b5060cf8054600160a060020a031916600160a060020a0392909216919091179055565b6000828152606560205260409020600101546109c781336119bd565b61081483836120d4565b6000805160206144318339815191526109ea81336119bd565b60975460ff16610a3f5760405160e560020a62461bcd02815260206004820152601460248201527f5061757361626c653a206e6f7420706175736564000000000000000000000000604482015260640161086a565b60cb54821015610aba5760405160e560020a62461bcd02815260206004820152602660248201527f6576656e744964206d757374206265203e3d206f6c646573744c6f636b65644560448201527f76656e7449640000000000000000000000000000000000000000000000000000606482015260840161086a565b600082815260ca602052604090206001015415610b0657600082815260ca6020526040812090610aea828261321a565b5060006001919091015581610afe81614361565b925050610aba565b610b11600183614100565b60d4555050565b600160a060020a0381163314610b995760405160e560020a62461bcd02815260206004820152602f60248201527f416363657373436f6e74726f6c3a2063616e206f6e6c792072656e6f756e636560448201527f20726f6c657320666f722073656c660000000000000000000000000000000000606482015260840161086a565b61096b828261215a565b600080516020614431833981519152610bbc81336119bd565b610bc46121c1565b50565b600080516020614431833981519152610be081336119bd565b5060d255565b600080516020614431833981519152610bff81336119bd565b815160005b81811015610c655760cc6000858381518110610c2257610c226143db565b602090810291909101810151600160a060020a031682528101919091526040016000208054600160a060020a031916905580610c5d81614361565b915050610c04565b50505050565b600080516020614431833981519152610c8481336119bd565b5060ce55565b600080516020614431833981519152610ca381336119bd565b610bc4612260565b600080516020614431833981519152610cc481336119bd565b50600160a060020a03918216600090815260cc602052604090208054600160a060020a03191691909216179055565b60975460ff1615610d195760405160e560020a62461bcd02815260040161086a90613d14565b60cb545b600081815260ca60209081526040808320815181546060948102820185018452928101838152909391928492849190879085015b82821015610dab57600084815260209081902060408051606081018252600386029092018054600160a060020a03908116845260018083015490911684860152600290910154918301919091529083529092019101610d51565b5050505081526020016001820154815250509050806020015160001480610dd55750428160200151115b15610de0575060cb55565b8051610deb906122bb565b600082815260ca6020526040812090610e04828261321a565b50600060019190910181905560405183917f78ff9b3176bb0d6421590f3816e75cb15a9ffa2b7a1a028f40a3f4e029eb39f291a25080610e4381614361565b915050610d1d565b600080516020614431833981519152610e6481336119bd565b50600160a060020a0316600090815260cc602052604090208054600160a060020a0319169055565b6000918252606560209081526040808420600160a060020a0393909316845291905290205460ff1690565b60008115610f4c576000805260cc6020527f435daec636ce435a90bde0aeec309a303a359a854c5a51b7d6a5a941d6db609454600160a060020a03868116911614610f475760405160e560020a62461bcd02815260206004820152601f60248201527f546f6b656e206e6f7420706f696e7420746f206e617469766520746f6b656e00604482015260640161086a565b610fb8565b50600160a060020a03808516600090815260cc60205260409020541680610fb85760405160e560020a62461bcd02815260206004820152601560248201527f556e6b6e6f776e20746f6b656e20616464726573730000000000000000000000604482015260640161086a565b6000831161100b5760405160e560020a62461bcd02815260206004820152601160248201527f43616e6e6f742077697468647261772030000000000000000000000000000000604482015260640161086a565b60ce54341461105f5760405160e560020a62461bcd02815260206004820152601160248201527f53656e742076616c756520213d20666565000000000000000000000000000000604482015260640161086a565b60cf54604051600160a060020a03909116903480156108fc02916000818181858888f19350505050158015611098573d6000803e3d6000fd5b506040517f23b872dd00000000000000000000000000000000000000000000000000000000815233600482015230602482015260448101849052600160a060020a038616906323b872dd90606401602060405180830381600087803b15801561110057600080fd5b505af1158015611114573d6000803e3d6000fd5b505050506040513d601f19601f8201168201806040525081019061113891906135e5565b6111875760405160e560020a62461bcd02815260206004820152601360248201527f4661696c207472616e7366657220636f696e7300000000000000000000000000604482015260640161086a565b6040805160608082018352600160a060020a0384811680845288821660208086019182528587018a815260c98054600181018255600091909152965160039097027f66be4f155c5ef2ebd3772b228f2f00681e4ed5826cdb3b1943cc11ad15ad1d2881018054988716600160a060020a0319998a1617905592517f66be4f155c5ef2ebd3772b228f2f00681e4ed5826cdb3b1943cc11ad15ad1d2984018054918716919098161790965594517f66be4f155c5ef2ebd3772b228f2f00681e4ed5826cdb3b1943cc11ad15ad1d2a9091015560d55460ce548651938c168452948301919091529381019390935282015233907ffbde797d201c681b91056529119e0b02407c7bb96a4a2c75c01fc9667232c8db9060800160405180910390a26112ad61254f565b5050505050565b6000805160206144318339815191526112cd81336119bd565b5060d355565b606060d780548060200260200160405190810160405280929190818152602001828054801561132b57602002820191906000526020600020905b8154600160a060020a0316815260019091019060200180831161130d575b5050505050905090565b60008281526065602052604090206001015461135181336119bd565b610814838361215a565b604080518082019091526060815260006020820152600082815260ca60209081526040808320815181546060948102820185018452928101838152909491938593919285929185015b828210156113fe57600084815260209081902060408051606081018252600386029092018054600160a060020a039081168452600180830154909116848601526002909101549183019190915290835290920191016113a4565b5050505081526020016001820154815250509050919050565b60cd54600160a060020a03908116600090815260cc602052604090205416806114855760405160e560020a62461bcd02815260206004820152601560248201527f556e6b6e6f776e20746f6b656e20616464726573730000000000000000000000604482015260640161086a565b60ce5434116114d95760405160e560020a62461bcd02815260206004820152601160248201527f53656e742076616c7565203c3d20666565000000000000000000000000000000604482015260640161086a565b60cf5460ce54604051600160a060020a039092169181156108fc0291906000818181858888f19350505050158015611515573d6000803e3d6000fd5b50600060ce54346115269190614100565b905060cd60009054906101000a9004600160a060020a0316600160a060020a031663d0e30db0826040518263ffffffff1660e060020a0281526004016000604051808303818588803b15801561157b57600080fd5b505af115801561158f573d6000803e3d6000fd5b50506040805160608082018352600160a060020a038881168084528a821660208086019182528587018b815260c980546001810182556000918252975160039098027f66be4f155c5ef2ebd3772b228f2f00681e4ed5826cdb3b1943cc11ad15ad1d2881018054998816600160a060020a03199a8b1617905593517f66be4f155c5ef2ebd3772b228f2f00681e4ed5826cdb3b1943cc11ad15ad1d29850180549190971698169790971790945592517f66be4f155c5ef2ebd3772b228f2f00681e4ed5826cdb3b1943cc11ad15ad1d2a9091015560d55460ce54865195865292850191909152938301939093528101919091523393507ffbde797d201c681b91056529119e0b02407c7bb96a4a2c75c01fc9667232c8db9250608001905060405180910390a261081461254f565b60d781815481106116cd57600080fd5b600091825260209091200154600160a060020a0316905081565b600054610100900460ff1680611700575060005460ff16155b61171f5760405160e560020a62461bcd02815260040161086a90613d4b565b600054610100900460ff16158015611741576000805461ffff19166101011790555b61174a846125c7565b6117548383612712565b8015610c65576000805461ff001916905550505050565b60975460ff16156117915760405160e560020a62461bcd02815260040161086a90613d14565b60cb5481146117e55760405160e560020a62461bcd02815260206004820152601c60248201527f63616e20756e6c6f636b206f6e6c79206f6c64657374206576656e7400000000604482015260640161086a565b600081815260ca60209081526040808320815181546060948102820185018452928101838152909391928492849190879085015b8282101561187357600084815260209081902060408051606081018252600386029092018054600160a060020a03908116845260018083015490911684860152600290910154918301919091529083529092019101611819565b505050508152602001600182015481525050905060008160200151116118de5760405160e560020a62461bcd02815260206004820181905260248201527f6e6f206c6f636b6564207472616e736665727320776974682074686973206964604482015260640161086a565b428160200151106119345760405160e560020a62461bcd02815260206004820152601b60248201527f6c6f636b54696d6520686173206e6f7420796574207061737365640000000000604482015260640161086a565b805161193f906122bb565b600082815260ca6020526040812090611958828261321a565b50600060019190910181905560405183917f78ff9b3176bb0d6421590f3816e75cb15a9ffa2b7a1a028f40a3f4e029eb39f291a2611997826001613fcc565b60cb555050565b6000805160206144318339815191526119b781336119bd565b5060d155565b6119c78282610e8c565b61096b576119df81600160a060020a0316601461282b565b6119ea83602061282b565b6040516020016119fb929190613b90565b60408051601f198184030181529082905260e560020a62461bcd02825261086a91600401613ce1565b8051825114611a9e5760405160e560020a62461bcd02815260206004820152603f60248201527f73697a6573206f6620746f6b656e5468697341646472657373657320616e642060448201527f746f6b656e53696465416464726573736573206d7573742062652073616d6500606482015260840161086a565b815160005b81811015610c6557828181518110611abd57611abd6143db565b602002602001015160cc6000868481518110611adb57611adb6143db565b6020026020010151600160a060020a0316600160a060020a0316815260200190815260200160002060006101000a815481600160a060020a030219169083600160a060020a031602179055508080611b3290614361565b915050611aa3565b60d460008154611b4990614361565b91829055508114610bc45760405160e560020a62461bcd02815260206004820152601460248201527f4576656e744964206f7574206f66206f72646572000000000000000000000000604482015260640161086a565b60008080611bc2611bb36020880188613edb565b611bbc90614140565b85612a18565b905080611bcf8780613dda565b611bdf60808a0160608b0161384b565b67ffffffffffffffff16818110611bf857611bf86143db565b9050602002810190611c0a9190613eba565b6080013514611c5e5760405160e560020a62461bcd02815260206004820181905260248201527f5472616e73666572206576656e742076616c69646174696f6e206661696c6564604482015260640161086a565b84611c6f608088016060890161384b565b67ffffffffffffffff16611c838880613dda565b611c8e929150614100565b1015611cdf5760405160e560020a62461bcd02815260206004820152601860248201527f4e6f7420656e6f7567682073616665747920626c6f636b730000000000000000604482015260640161086a565b60005b611cec8780613dda565b90508110156120085736611d008880613dda565b83818110611d1057611d106143db565b9050602002810190611d229190613eba565b9050611d366101208201610100830161384b565b67ffffffffffffffff1615611f4257835b611d596101208301610100840161384b565b67ffffffffffffffff16811015611f22576000611d7960408b018b613dda565b83818110611d8957611d896143db565b9050602002810190611d9b9190613ef1565b611da49061421a565b60d754909150600090611db990600290613fe4565b611dc4906001613fcc565b905060005b826020015151811015611e0e57611dfc83602001518281518110611def57611def6143db565b6020026020010151612b0d565b80611e0681614361565b915050611dc9565b50815160d85460d7805460408051602080840282018101909252828152611e819594600160a060020a03169390929091830182828015611e7757602002820191906000526020600020905b8154600160a060020a03168152600190910190602001808311611e59575b5050505050612c49565b955085611e8e8c80613dda565b611e988489614100565b818110611ea757611ea76143db565b9050602002810190611eb99190613eba565b6080013514611f0d5760405160e560020a62461bcd02815260206004820152601560248201527f57726f6e67205653207265636569707420686173680000000000000000000000604482015260640161086a565b50508080611f1a90614361565b915050611d47565b50611f356101208201610100830161384b565b67ffffffffffffffff1693505b8415611f9e5784816040013514611f9e5760405160e560020a62461bcd02815260206004820152601160248201527f57726f6e6720706172656e742068617368000000000000000000000000000000604482015260640161086a565b611fa781612cff565b9450611fbb6101208201610100830161384b565b67ffffffffffffffff1615801590611feb5750611fde6080890160608a0161384b565b67ffffffffffffffff1682105b15611ff557600094505b508061200081614361565b915050611ce2565b50505050505050565b60d35461201e9042613fcc565b600082815260ca60205260408120600101919091555b825181101561081457600082815260ca60205260409020835184908390811061205f5761205f6143db565b60209081029190910181015182546001808201855560009485529383902082516003909202018054600160a060020a0319908116600160a060020a03938416178255938301519481018054909416949091169390931790915560400151600290910155806120cc81614361565b915050612034565b6120de8282610e8c565b61096b576000828152606560209081526040808320600160a060020a03851684529091529020805460ff191660011790556121163390565b600160a060020a031681600160a060020a0316837f2f8788117e7eff1d82e926ec794901d17c78024a50270940304540a733656f0d60405160405180910390a45050565b6121648282610e8c565b1561096b576000828152606560209081526040808320600160a060020a0385168085529252808320805460ff1916905551339285917ff6391f5c32d9c69d2a47ea670b442974b53935d1edc7fd64eb21e047a839171b9190a45050565b60975460ff166122165760405160e560020a62461bcd02815260206004820152601460248201527f5061757361626c653a206e6f7420706175736564000000000000000000000000604482015260640161086a565b6097805460ff191690557f5db9ee0a495bf2e6ff9c91a7834c1ba4fdd244a5e8aa4e537bd38aeae4b073aa335b604051600160a060020a03909116815260200160405180910390a1565b60975460ff16156122865760405160e560020a62461bcd02815260040161086a90613d14565b6097805460ff191660011790557f62e78cea01bee320cd4e420270b5ea74000d11b0c9f74754ebdbfc544b05a2586122433390565b60005b815181101561096b576000600160a060020a03168282815181106122e4576122e46143db565b602002602001015160000151600160a060020a031614156124005760cd548251600160a060020a0390911690632e1a7d4d90849084908110612328576123286143db565b6020026020010151604001516040518263ffffffff1660e060020a02815260040161235591815260200190565b600060405180830381600087803b15801561236f57600080fd5b505af1158015612383573d6000803e3d6000fd5b50505050818181518110612399576123996143db565b602002602001015160200151600160a060020a03166108fc8383815181106123c3576123c36143db565b6020026020010151604001519081150290604051600060405180830381858888f193505050501580156123fa573d6000803e3d6000fd5b5061253d565b818181518110612412576124126143db565b602002602001015160000151600160a060020a031663a9059cbb83838151811061243e5761243e6143db565b60200260200101516020015184848151811061245c5761245c6143db565b6020026020010151604001516040518363ffffffff1660e060020a02815260040161249c929190600160a060020a03929092168252602082015260400190565b602060405180830381600087803b1580156124b657600080fd5b505af11580156124ca573d6000803e3d6000fd5b505050506040513d601f19601f820116820180604052508101906124ee91906135e5565b61253d5760405160e560020a62461bcd02815260206004820152601360248201527f4661696c207472616e7366657220636f696e7300000000000000000000000000604482015260640161086a565b8061254781614361565b9150506122be565b600060d2544261255f9190613fe4565b905060d6548114610bc45760d5805490600061257a83614361565b919050557fe15729a2f427aa4572dab35eb692c902fcbce57d41642013259c741380809ae260c96040516125ae9190613c71565b60405180910390a26125c260c9600061321a565b60d655565b600054610100900460ff16806125e0575060005460ff16155b6125ff5760405160e560020a62461bcd02815260040161086a90613d4b565b600054610100900460ff16158015612621576000805461ffff19166101011790555b61262c600033612dc2565b61265a7f077a1d526a4ce8a773632ab13b4fbbf1fcc954c3dab26cd27ea0e2a6750da5d78360400151612dc2565b6126766000805160206144318339815191528360200151612dc2565b61268882608001518360a00151611a24565b606082015160cd8054600160a060020a03928316600160a060020a031991821617909155835160d0805491841691831691909117905560c084015160ce5560e084015160cf805491909316911617905561014082015160d15561010082015160d25561012082015160d355600160cb81905560d555801561096b576000805461ff00191690555050565b600054610100900460ff168061272b575060005460ff16155b61274a5760405160e560020a62461bcd02815260040161086a90613d4b565b600054610100900460ff1615801561276c576000805461ffff19166101011790555b60008351116127e65760405160e560020a62461bcd02815260206004820152603260248201527f4c656e677468206f66205f696e697469616c56616c696461746f7273206d757360448201527f7420626520626967676572207468616e20300000000000000000000000000000606482015260840161086a565b82516127f99060d790602086019061323b565b5060d88054600160a060020a031916600160a060020a0384161790558015610814576000805461ff0019169055505050565b6060600061283a83600261408f565b612845906002613fcc565b67ffffffffffffffff81111561285d5761285d6143f4565b6040519080825280601f01601f191660200182016040528015612887576020820181803683370190505b5090507f3000000000000000000000000000000000000000000000000000000000000000816000815181106128be576128be6143db565b6020010190600160f860020a031916908160001a9053507f780000000000000000000000000000000000000000000000000000000000000081600181518110612909576129096143db565b6020010190600160f860020a031916908160001a905350600061292d84600261408f565b612938906001613fcc565b90505b60018111156129bf577f303132333435363738396162636465660000000000000000000000000000000085600f1660108110612979576129796143db565b1a60f860020a02828281518110612992576129926143db565b6020010190600160f860020a031916908160001a9053506010909404936129b88161434a565b905061293b565b508315612a115760405160e560020a62461bcd02815260206004820181905260248201527f537472696e67733a20686578206c656e67746820696e73756666696369656e74604482015260640161086a565b9392505050565b6000808360000151600081518110612a3257612a326143db565b6020026020010151838560000151600181518110612a5257612a526143db565b6020026020010151612a678760200151612dcc565b875180516002908110612a7c57612a7c6143db565b60200260200101518860400151604051602001612a999190613c5e565b6040516020818303038152906040528960000151600381518110612abf57612abf6143db565b6020026020010151604051602001612add9796959493929190613aae565b604051602081830303815290604052805190602001209050612b058460000151826004612f34565b949350505050565b6000816020015160070b1215612bf757600060018260200151600019612b339190613ff8565b612b3d91906140ae565b60070b905060d7600160d780549050612b569190614100565b81548110612b6657612b666143db565b60009182526020909120015460d78054600160a060020a039092169183908110612b9257612b926143db565b9060005260206000200160006101000a815481600160a060020a030219169083600160a060020a0316021790555060d7805480612bd157612bd16143c2565b60008281526020902081016000199081018054600160a060020a03191690550190555050565b5160d780546001810182556000919091527f8a012a6de2943a5aa4d77acf5e695d4456760a3f1f30a5d6dc2079599187a071018054600160a060020a031916600160a060020a03909216919091179055565b60008084600081518110612c5f57612c5f6143db565b60200260200101518486600181518110612c7b57612c7b6143db565b602002602001015185604051602001612c949190613c11565b60405160208183030381529060405288600281518110612cb657612cb66143db565b6020026020010151604051602001612cd2959493929190613a2f565b604051602081830303815290604052805190602001209050612cf685826003612f34565b95945050505050565b6000806000612d0d84612fe4565b60d78054929450909250600091612d3d612d2d60e0890160c08a01613680565b60e060020a900463ffffffff1690565b612d47919061437c565b81548110612d5757612d576143db565b600091825260209091200154600160a060020a03169050612dba8184612d8060e0890189613e73565b8080601f01602080910402602001604051908101604052809392919081815260200183838082843760009201919091525061313292505050565b509392505050565b61096b82826120d4565b6040805160208082528183019092526060916000919060208201818036833701905050905082602082015260005b6020811015612e6357818181518110612e1557612e156143db565b60209101015160f860020a90819004027fff000000000000000000000000000000000000000000000000000000000000001615612e5157612e63565b80612e5b81614361565b915050612dfa565b6000612e70826020614100565b67ffffffffffffffff811115612e8857612e886143f4565b6040519080825280601f01601f191660200182016040528015612eb2576020820181803683370190505b50905060005b8151811015612f2b578383612ecc81614361565b945081518110612ede57612ede6143db565b602001015160f860020a900460f860020a02828281518110612f0257612f026143db565b6020010190600160f860020a031916908160001a90535080612f2381614361565b915050612eb8565b50949350505050565b60006060825b8551811015612fda57858181518110612f5557612f556143db565b60200260200101518587836001612f6c9190613fcc565b81518110612f7c57612f7c6143db565b6020026020010151604051602001612f9693929190613b59565b60405160208183030381529060405291506020825111612fbe57612fb982614117565b612fc6565b815160208301205b9450612fd3600282613fcc565b9050612f3a565b5092949350505050565b600080807fa000000000000000000000000000000000000000000000000000000000000000604085013561301b6060870187613e73565b608088013561302d60a08a018a613e73565b60405160200161304397969594939291906138d2565b60408051601f1981840301815291815290915061306590850160208601613602565b8160405160200161307792919061392f565b60408051601f1981840301815291905280516020918201209061309c90860186613602565b827f84000000000000000000000000000000000000000000000000000000000000006130ce60e0890160c08a01613680565b7fb8410000000000000000000000000000000000000000000000000000000000006130fc60e08b018b613e73565b6040516020016131129796959493929190613975565b604051602081830303815290604052805190602001209250925050915091565b60208101516040820151606083015160001a601b81101561315157601b015b60408051600081526020810180835287905260ff8316918101919091526060810184905260808101839052600160a060020a0387169060019060a0016020604051602081039080840390855afa1580156131af573d6000803e3d6000fd5b50505060206040510351600160a060020a0316146132125760405160e560020a62461bcd02815260206004820152601560248201527f4661696c656420746f20766572696679207369676e0000000000000000000000604482015260640161086a565b505050505050565b5080546000825560030290600052602060002090810190610bc491906132a0565b828054828255906000526020600020908101928215613290579160200282015b828111156132905782518254600160a060020a031916600160a060020a0390911617825560209092019160019091019061325b565b5061329c9291506132d3565b5090565b5b8082111561329c578054600160a060020a031990811682556001820180549091169055600060028201556003016132a1565b5b8082111561329c57600081556001016132d4565b80356132f38161440d565b919050565b600082601f83011261330957600080fd5b8135602061331e61331983613fa8565b613f77565b828152818101908583018385028701840188101561333b57600080fd5b60005b858110156133635781356133518161440d565b8452928401929084019060010161333e565b5090979650505050505050565b6000601f838184011261338257600080fd5b8235602061339261331983613fa8565b82815281810190868301838502880184018910156133af57600080fd5b60005b8581101561344757813567ffffffffffffffff808211156133d257600080fd5b818b0191508b603f8301126133e657600080fd5b868201356040828211156133fc576133fc6143f4565b61340d828c01601f19168a01613f77565b92508183528d8183860101111561342357600080fd5b818185018a85013750600090820188015285525092840192908401906001016133b2565b509098975050505050505050565b60006060828403121561346757600080fd5b61346f613f07565b9050813561347c8161440d565b8152602082013561348c8161440d565b806020830152506040820135604082015292915050565b6000602082840312156134b557600080fd5b8135612a118161440d565b600080604083850312156134d357600080fd5b82356134de8161440d565b915060208301356134ee8161440d565b809150509250929050565b6000806000806080858703121561350f57600080fd5b843561351a8161440d565b9350602085013561352a8161440d565b925060408501359150606085013561354181614422565b939692955090935050565b60006020828403121561355e57600080fd5b813567ffffffffffffffff81111561357557600080fd5b612b05848285016132f8565b6000806040838503121561359457600080fd5b823567ffffffffffffffff808211156135ac57600080fd5b6135b8868387016132f8565b935060208501359150808211156135ce57600080fd5b506135db858286016132f8565b9150509250929050565b6000602082840312156135f757600080fd5b8151612a1181614422565b60006020828403121561361457600080fd5b81357cffffffffffffffffffffffffffffffffffffffffffffffffffffffffff1981168114612a1157600080fd5b60006020828403121561365457600080fd5b5035919050565b6000806040838503121561366e57600080fd5b8235915060208301356134ee8161440d565b60006020828403121561369257600080fd5b8135600160e060020a031981168114612a1157600080fd5b6000602082840312156136bc57600080fd5b813567ffffffffffffffff8111156136d357600080fd5b820160808185031215612a1157600080fd5b6000806000606084860312156136fa57600080fd5b833567ffffffffffffffff8082111561371257600080fd5b90850190610160828803121561372757600080fd5b61372f613f30565b613738836132e8565b8152613746602084016132e8565b6020820152613757604084016132e8565b6040820152613768606084016132e8565b606082015260808301358281111561377f57600080fd5b61378b898286016132f8565b60808301525060a0830135828111156137a357600080fd5b6137af898286016132f8565b60a08301525060c083013560c08201526137cb60e084016132e8565b60e08201526101008381013590820152610120808401359082015261014092830135928101929092529093506020850135908082111561380a57600080fd5b50613817868287016132f8565b925050613826604085016132e8565b90509250925092565b60006060828403121561384157600080fd5b612a118383613455565b60006020828403121561385d57600080fd5b813567ffffffffffffffff81168114612a1157600080fd5b600081518084526020808501945080840160005b838110156138c75781518051600160a060020a0390811689528482015116848901526040908101519088015260609096019590820190600101613889565b509495945050505050565b7fff0000000000000000000000000000000000000000000000000000000000000088168152866001820152848660218301378481016021810185905260009083856041830137600093016041019283525090979650505050505050565b7cffffffffffffffffffffffffffffffffffffffffffffffffffffffffff19831681526000825161396781600385016020870161431e565b919091016003019392505050565b7cffffffffffffffffffffffffffffffffffffffffffffffffffffffffff1988168152600087516139ad816003850160208c0161431e565b7fff000000000000000000000000000000000000000000000000000000000000008816600391840191820152600160e060020a0319871660048201527fffff000000000000000000000000000000000000000000000000000000000000861660088201528385600a83013760009301600a019283525090979650505050505050565b60008651613a41818460208b0161431e565b600160a060020a0387166c01000000000000000000000000029083019081528551613a73816014840160208a0161431e565b8551910190613a8981601484016020890161431e565b8451910190613a9f81601484016020880161431e565b01601401979650505050505050565b600088516020613ac18285838e0161431e565b81840191506c01000000000000000000000000600160a060020a038b1602825260148951613af481838601858e0161431e565b8951930192613b0881838601858d0161431e565b8851930192613b1c81838601858c0161431e565b8751930192613b3081838601858b0161431e565b8651930192613b4481838601858a0161431e565b929092019091019a9950505050505050505050565b60008451613b6b81846020890161431e565b82018481528351613b8381602080850190880161431e565b0160200195945050505050565b7f416363657373436f6e74726f6c3a206163636f756e7420000000000000000000815260008351613bc881601785016020880161431e565b7f206973206d697373696e6720726f6c65200000000000000000000000000000006017918401918201528351613c0581602884016020880161431e565b01602801949350505050565b6020808252825182820181905260009190848201906040850190845b81811015613c52578351600160a060020a031683529284019291840191600101613c2d565b50909695505050505050565b602081526000612a116020830184613875565b60006020808301818452808554808352604092508286019150866000528360002060005b82811015613cd4578154600160a060020a0390811685526001808401549091168786015260028301548686015260609094019360039092019101613c95565b5091979650505050505050565b6020815260008251806020840152613d0081604085016020870161431e565b601f01601f19169190910160400192915050565b60208082526010908201527f5061757361626c653a2070617573656400000000000000000000000000000000604082015260600190565b6020808252602e908201527f496e697469616c697a61626c653a20636f6e747261637420697320616c72656160408201527f647920696e697469616c697a6564000000000000000000000000000000000000606082015260800190565b602081526000825160406020840152613dc46060840182613875565b9050602084015160408401528091505092915050565b6000808335601e19843603018112613df157600080fd5b83018035915067ffffffffffffffff821115613e0c57600080fd5b6020908101925081023603821315613e2357600080fd5b9250929050565b6000808335601e19843603018112613e4157600080fd5b83018035915067ffffffffffffffff821115613e5c57600080fd5b6020019150606081023603821315613e2357600080fd5b6000808335601e19843603018112613e8a57600080fd5b83018035915067ffffffffffffffff821115613ea557600080fd5b602001915036819003821315613e2357600080fd5b6000823561011e19833603018112613ed157600080fd5b9190910192915050565b60008235605e19833603018112613ed157600080fd5b60008235603e19833603018112613ed157600080fd5b6040516060810167ffffffffffffffff81118282101715613f2a57613f2a6143f4565b60405290565b604051610160810167ffffffffffffffff81118282101715613f2a57613f2a6143f4565b6040805190810167ffffffffffffffff81118282101715613f2a57613f2a6143f4565b604051601f8201601f1916810167ffffffffffffffff81118282101715613fa057613fa06143f4565b604052919050565b600067ffffffffffffffff821115613fc257613fc26143f4565b5060209081020190565b60008219821115613fdf57613fdf614390565b500190565b600082613ff357613ff36143a9565b500490565b60008160070b8360070b677fffffffffffffff60008213600084138383048511828216161561402957614029614390565b677fffffffffffffff19600085128281168783058712161561404d5761404d614390565b6000871292508582058712848416161561406957614069614390565b8585058712818416161561407f5761407f614390565b5050509290910295945050505050565b60008160001904831182151516156140a9576140a9614390565b500290565b60008160070b8360070b6000811281677fffffffffffffff19018312811516156140da576140da614390565b81677fffffffffffffff0183138116156140f6576140f6614390565b5090039392505050565b60008282101561411257614112614390565b500390565b8051602080830151919081101561413a578060200360080260020a600003821691505b50919050565b6000606080833603121561415357600080fd5b61415b613f07565b833567ffffffffffffffff8082111561417357600080fd5b61417f36838801613370565b835260209150818601358284015260408601358181111561419f57600080fd5b8601905036601f8201126141b257600080fd5b80356141c061331982613fa8565b81815283810190838501368885028601870111156141dd57600080fd5b600094505b83851015614208576141f43682613455565b8352600194909401939185019187016141e2565b50604086015250929695505050505050565b6000604080833603121561422d57600080fd5b614235613f54565b833567ffffffffffffffff8082111561424d57600080fd5b61425936838801613370565b835260209150818601358181111561427057600080fd5b8601905036601f82011261428357600080fd5b803561429161331982613fa8565b81815283810190838501368885028601870111156142ae57600080fd5b600094505b8385101561430b578781360312156142ca57600080fd5b6142d2613f54565b81356142dd8161440d565b815281870135600781900b81146142f357600080fd5b818801528352600194909401939185019187016142b3565b5093850193909352509195945050505050565b60005b83811015614339578181015183820152602001614321565b83811115610c655750506000910152565b60008161435957614359614390565b506000190190565b600060001982141561437557614375614390565b5060010190565b60008261438b5761438b6143a9565b500690565b60e060020a634e487b7102600052601160045260246000fd5b60e060020a634e487b7102600052601260045260246000fd5b60e060020a634e487b7102600052603160045260246000fd5b60e060020a634e487b7102600052603260045260246000fd5b60e060020a634e487b7102600052604160045260246000fd5b600160a060020a0381168114610bc457600080fd5b8015158114610bc457600080fdfea49807205ce4d355092ef5a8a18f56e8913cf4a201fbe287825b095693c21775a2646970667358221220bd5c3e68c1f7485ebb6eb1958e4830bad8714ef7f96cb2e7a950affab0a97c8664736f6c63430008060033",
  "devdoc": {
    "kind": "dev",
    "methods": {
      "getRoleAdmin(bytes32)": {
        "details": "Returns the admin role that controls `role`. See {grantRole} and {revokeRole}. To change a role's admin, use {_setRoleAdmin}."
      },
      "grantRole(bytes32,address)": {
        "details": "Grants `role` to `account`. If `account` had not been already granted `role`, emits a {RoleGranted} event. Requirements: - the caller must have ``role``'s admin role."
      },
      "hasRole(bytes32,address)": {
        "details": "Returns `true` if `account` has been granted `role`."
      },
      "paused()": {
        "details": "Returns true if the contract is paused, and false otherwise."
      },
      "renounceRole(bytes32,address)": {
        "details": "Revokes `role` from the calling account. Roles are often managed via {grantRole} and {revokeRole}: this function's purpose is to provide a mechanism for accounts to lose their privileges if they are compromised (such as when a trusted device is misplaced). If the calling account had been granted `role`, emits a {RoleRevoked} event. Requirements: - the caller must be `account`."
      },
      "revokeRole(bytes32,address)": {
        "details": "Revokes `role` from `account`. If `account` had been granted `role`, emits a {RoleRevoked} event. Requirements: - the caller must have ``role``'s admin role."
      },
      "supportsInterface(bytes4)": {
        "details": "See {IERC165-supportsInterface}."
      }
    },
    "version": 1
  },
  "userdoc": {
    "kind": "user",
    "methods": {},
    "version": 1
  },
  "storageLayout": {
    "storage": [
      {
        "astId": 413,
        "contract": "contracts/networks/ETH_EthBridge.sol:ETH_EthBridge",
        "label": "_initialized",
        "offset": 0,
        "slot": "0",
        "type": "t_bool"
      },
      {
        "astId": 416,
        "contract": "contracts/networks/ETH_EthBridge.sol:ETH_EthBridge",
        "label": "_initializing",
        "offset": 1,
        "slot": "0",
        "type": "t_bool"
      },
      {
        "astId": 609,
        "contract": "contracts/networks/ETH_EthBridge.sol:ETH_EthBridge",
        "label": "__gap",
        "offset": 0,
        "slot": "1",
        "type": "t_array(t_uint256)50_storage"
      },
      {
        "astId": 858,
        "contract": "contracts/networks/ETH_EthBridge.sol:ETH_EthBridge",
        "label": "__gap",
        "offset": 0,
        "slot": "51",
        "type": "t_array(t_uint256)50_storage"
      },
      {
        "astId": 48,
        "contract": "contracts/networks/ETH_EthBridge.sol:ETH_EthBridge",
        "label": "_roles",
        "offset": 0,
        "slot": "101",
        "type": "t_mapping(t_bytes32,t_struct(RoleData)43_storage)"
      },
      {
        "astId": 333,
        "contract": "contracts/networks/ETH_EthBridge.sol:ETH_EthBridge",
        "label": "__gap",
        "offset": 0,
        "slot": "102",
        "type": "t_array(t_uint256)49_storage"
      },
      {
        "astId": 474,
        "contract": "contracts/networks/ETH_EthBridge.sol:ETH_EthBridge",
        "label": "_paused",
        "offset": 0,
        "slot": "151",
        "type": "t_bool"
      },
      {
        "astId": 565,
        "contract": "contracts/networks/ETH_EthBridge.sol:ETH_EthBridge",
        "label": "__gap",
        "offset": 0,
        "slot": "152",
        "type": "t_array(t_uint256)49_storage"
      },
      {
        "astId": 6799,
        "contract": "contracts/networks/ETH_EthBridge.sol:ETH_EthBridge",
        "label": "queue",
        "offset": 0,
        "slot": "201",
        "type": "t_array(t_struct(Transfer)7675_storage)dyn_storage"
      },
      {
        "astId": 6804,
        "contract": "contracts/networks/ETH_EthBridge.sol:ETH_EthBridge",
        "label": "lockedTransfers",
        "offset": 0,
        "slot": "202",
        "type": "t_mapping(t_uint256,t_struct(LockedTransfers)7692_storage)"
      },
      {
        "astId": 6806,
        "contract": "contracts/networks/ETH_EthBridge.sol:ETH_EthBridge",
        "label": "oldestLockedEventId",
        "offset": 0,
        "slot": "203",
        "type": "t_uint256"
      },
      {
        "astId": 6810,
        "contract": "contracts/networks/ETH_EthBridge.sol:ETH_EthBridge",
        "label": "tokenAddresses",
        "offset": 0,
        "slot": "204",
        "type": "t_mapping(t_address,t_address)"
      },
      {
        "astId": 6812,
        "contract": "contracts/networks/ETH_EthBridge.sol:ETH_EthBridge",
        "label": "wrapperAddress",
        "offset": 0,
        "slot": "205",
        "type": "t_address"
      },
      {
        "astId": 6814,
        "contract": "contracts/networks/ETH_EthBridge.sol:ETH_EthBridge",
        "label": "fee",
        "offset": 0,
        "slot": "206",
        "type": "t_uint256"
      },
      {
        "astId": 6816,
        "contract": "contracts/networks/ETH_EthBridge.sol:ETH_EthBridge",
        "label": "feeRecipient",
        "offset": 0,
        "slot": "207",
        "type": "t_address_payable"
      },
      {
        "astId": 6818,
        "contract": "contracts/networks/ETH_EthBridge.sol:ETH_EthBridge",
        "label": "sideBridgeAddress",
        "offset": 0,
        "slot": "208",
        "type": "t_address"
      },
      {
        "astId": 6820,
        "contract": "contracts/networks/ETH_EthBridge.sol:ETH_EthBridge",
        "label": "minSafetyBlocks",
        "offset": 0,
        "slot": "209",
        "type": "t_uint256"
      },
      {
        "astId": 6822,
        "contract": "contracts/networks/ETH_EthBridge.sol:ETH_EthBridge",
        "label": "timeframeSeconds",
        "offset": 0,
        "slot": "210",
        "type": "t_uint256"
      },
      {
        "astId": 6824,
        "contract": "contracts/networks/ETH_EthBridge.sol:ETH_EthBridge",
        "label": "lockTime",
        "offset": 0,
        "slot": "211",
        "type": "t_uint256"
      },
      {
        "astId": 6826,
        "contract": "contracts/networks/ETH_EthBridge.sol:ETH_EthBridge",
        "label": "inputEventId",
        "offset": 0,
        "slot": "212",
        "type": "t_uint256"
      },
      {
        "astId": 6828,
        "contract": "contracts/networks/ETH_EthBridge.sol:ETH_EthBridge",
        "label": "outputEventId",
        "offset": 0,
        "slot": "213",
        "type": "t_uint256"
      },
      {
        "astId": 6830,
        "contract": "contracts/networks/ETH_EthBridge.sol:ETH_EthBridge",
        "label": "lastTimeframe",
        "offset": 0,
        "slot": "214",
        "type": "t_uint256"
      },
      {
        "astId": 2181,
        "contract": "contracts/networks/ETH_EthBridge.sol:ETH_EthBridge",
        "label": "validatorSet",
        "offset": 0,
        "slot": "215",
        "type": "t_array(t_address)dyn_storage"
      },
      {
        "astId": 2183,
        "contract": "contracts/networks/ETH_EthBridge.sol:ETH_EthBridge",
        "label": "validatorSetAddress",
        "offset": 0,
        "slot": "216",
        "type": "t_address"
      }
    ],
    "types": {
      "t_address": {
        "encoding": "inplace",
        "label": "address",
        "numberOfBytes": "20"
      },
      "t_address_payable": {
        "encoding": "inplace",
        "label": "address payable",
        "numberOfBytes": "20"
      },
      "t_array(t_address)dyn_storage": {
        "base": "t_address",
        "encoding": "dynamic_array",
        "label": "address[]",
        "numberOfBytes": "32"
      },
      "t_array(t_struct(Transfer)7675_storage)dyn_storage": {
        "base": "t_struct(Transfer)7675_storage",
        "encoding": "dynamic_array",
        "label": "struct CommonStructs.Transfer[]",
        "numberOfBytes": "32"
      },
      "t_array(t_uint256)49_storage": {
        "base": "t_uint256",
        "encoding": "inplace",
        "label": "uint256[49]",
        "numberOfBytes": "1568"
      },
      "t_array(t_uint256)50_storage": {
        "base": "t_uint256",
        "encoding": "inplace",
        "label": "uint256[50]",
        "numberOfBytes": "1600"
      },
      "t_bool": {
        "encoding": "inplace",
        "label": "bool",
        "numberOfBytes": "1"
      },
      "t_bytes32": {
        "encoding": "inplace",
        "label": "bytes32",
        "numberOfBytes": "32"
      },
      "t_mapping(t_address,t_address)": {
        "encoding": "mapping",
        "key": "t_address",
        "label": "mapping(address => address)",
        "numberOfBytes": "32",
        "value": "t_address"
      },
      "t_mapping(t_address,t_bool)": {
        "encoding": "mapping",
        "key": "t_address",
        "label": "mapping(address => bool)",
        "numberOfBytes": "32",
        "value": "t_bool"
      },
      "t_mapping(t_bytes32,t_struct(RoleData)43_storage)": {
        "encoding": "mapping",
        "key": "t_bytes32",
        "label": "mapping(bytes32 => struct AccessControlUpgradeable.RoleData)",
        "numberOfBytes": "32",
        "value": "t_struct(RoleData)43_storage"
      },
      "t_mapping(t_uint256,t_struct(LockedTransfers)7692_storage)": {
        "encoding": "mapping",
        "key": "t_uint256",
        "label": "mapping(uint256 => struct CommonStructs.LockedTransfers)",
        "numberOfBytes": "32",
        "value": "t_struct(LockedTransfers)7692_storage"
      },
      "t_struct(LockedTransfers)7692_storage": {
        "encoding": "inplace",
        "label": "struct CommonStructs.LockedTransfers",
        "members": [
          {
            "astId": 7689,
            "contract": "contracts/networks/ETH_EthBridge.sol:ETH_EthBridge",
            "label": "transfers",
            "offset": 0,
            "slot": "0",
            "type": "t_array(t_struct(Transfer)7675_storage)dyn_storage"
          },
          {
            "astId": 7691,
            "contract": "contracts/networks/ETH_EthBridge.sol:ETH_EthBridge",
            "label": "endTimestamp",
            "offset": 0,
            "slot": "1",
            "type": "t_uint256"
          }
        ],
        "numberOfBytes": "64"
      },
      "t_struct(RoleData)43_storage": {
        "encoding": "inplace",
        "label": "struct AccessControlUpgradeable.RoleData",
        "members": [
          {
            "astId": 40,
            "contract": "contracts/networks/ETH_EthBridge.sol:ETH_EthBridge",
            "label": "members",
            "offset": 0,
            "slot": "0",
            "type": "t_mapping(t_address,t_bool)"
          },
          {
            "astId": 42,
            "contract": "contracts/networks/ETH_EthBridge.sol:ETH_EthBridge",
            "label": "adminRole",
            "offset": 0,
            "slot": "1",
            "type": "t_bytes32"
          }
        ],
        "numberOfBytes": "64"
      },
      "t_struct(Transfer)7675_storage": {
        "encoding": "inplace",
        "label": "struct CommonStructs.Transfer",
        "members": [
          {
            "astId": 7670,
            "contract": "contracts/networks/ETH_EthBridge.sol:ETH_EthBridge",
            "label": "tokenAddress",
            "offset": 0,
            "slot": "0",
            "type": "t_address"
          },
          {
            "astId": 7672,
            "contract": "contracts/networks/ETH_EthBridge.sol:ETH_EthBridge",
            "label": "toAddress",
            "offset": 0,
            "slot": "1",
            "type": "t_address"
          },
          {
            "astId": 7674,
            "contract": "contracts/networks/ETH_EthBridge.sol:ETH_EthBridge",
            "label": "amount",
            "offset": 0,
            "slot": "2",
            "type": "t_uint256"
          }
        ],
        "numberOfBytes": "96"
      },
      "t_uint256": {
        "encoding": "inplace",
        "label": "uint256",
        "numberOfBytes": "32"
      }
    }
  }
}