{
  "address": "0x1A17018325C86b778ee826F57381Ac6f43D73E5E",
  "abi": [
    {
      "anonymous": false,
      "inputs": [
        {
          "indexed": false,
          "internalType": "address",
          "name": "account",
          "type": "address"
        }
      ],
      "name": "Paused",
      "type": "event"
    },
    {
      "anonymous": false,
      "inputs": [
        {
          "indexed": true,
          "internalType": "bytes32",
          "name": "role",
          "type": "bytes32"
        },
        {
          "indexed": true,
          "internalType": "bytes32",
          "name": "previousAdminRole",
          "type": "bytes32"
        },
        {
          "indexed": true,
          "internalType": "bytes32",
          "name": "newAdminRole",
          "type": "bytes32"
        }
      ],
      "name": "RoleAdminChanged",
      "type": "event"
    },
    {
      "anonymous": false,
      "inputs": [
        {
          "indexed": true,
          "internalType": "bytes32",
          "name": "role",
          "type": "bytes32"
        },
        {
          "indexed": true,
          "internalType": "address",
          "name": "account",
          "type": "address"
        },
        {
          "indexed": true,
          "internalType": "address",
          "name": "sender",
          "type": "address"
        }
      ],
      "name": "RoleGranted",
      "type": "event"
    },
    {
      "anonymous": false,
      "inputs": [
        {
          "indexed": true,
          "internalType": "bytes32",
          "name": "role",
          "type": "bytes32"
        },
        {
          "indexed": true,
          "internalType": "address",
          "name": "account",
          "type": "address"
        },
        {
          "indexed": true,
          "internalType": "address",
          "name": "sender",
          "type": "address"
        }
      ],
      "name": "RoleRevoked",
      "type": "event"
    },
    {
      "anonymous": false,
      "inputs": [
        {
          "indexed": true,
          "internalType": "uint256",
          "name": "eventId",
          "type": "uint256"
        },
        {
          "components": [
            {
              "internalType": "address",
              "name": "tokenAddress",
              "type": "address"
            },
            {
              "internalType": "address",
              "name": "toAddress",
              "type": "address"
            },
            {
              "internalType": "uint256",
              "name": "amount",
              "type": "uint256"
            }
          ],
          "indexed": false,
          "internalType": "struct CommonStructs.Transfer[]",
          "name": "queue",
          "type": "tuple[]"
        }
      ],
      "name": "Transfer",
      "type": "event"
    },
    {
      "anonymous": false,
      "inputs": [
        {
          "indexed": true,
          "internalType": "uint256",
          "name": "eventId",
          "type": "uint256"
        }
      ],
      "name": "TransferFinish",
      "type": "event"
    },
    {
      "anonymous": false,
      "inputs": [
        {
          "indexed": true,
          "internalType": "uint256",
          "name": "eventId",
          "type": "uint256"
        }
      ],
      "name": "TransferSubmit",
      "type": "event"
    },
    {
      "anonymous": false,
      "inputs": [
        {
          "indexed": false,
          "internalType": "address",
          "name": "account",
          "type": "address"
        }
      ],
      "name": "Unpaused",
      "type": "event"
    },
    {
      "anonymous": false,
      "inputs": [
        {
          "indexed": true,
          "internalType": "address",
          "name": "from",
          "type": "address"
        },
        {
          "indexed": false,
          "internalType": "uint256",
          "name": "eventId",
          "type": "uint256"
        },
        {
          "indexed": false,
          "internalType": "address",
          "name": "tokenFrom",
          "type": "address"
        },
        {
          "indexed": false,
          "internalType": "address",
          "name": "tokenTo",
          "type": "address"
        },
        {
          "indexed": false,
          "internalType": "uint256",
          "name": "amount",
          "type": "uint256"
        },
        {
          "indexed": false,
          "internalType": "uint256",
          "name": "transferFeeAmount",
          "type": "uint256"
        },
        {
          "indexed": false,
          "internalType": "uint256",
          "name": "bridgeFeeAmount",
          "type": "uint256"
        }
      ],
      "name": "Withdraw",
      "type": "event"
    },
    {
      "inputs": [],
      "name": "ADMIN_ROLE",
      "outputs": [
        {
          "internalType": "bytes32",
          "name": "",
          "type": "bytes32"
        }
      ],
      "stateMutability": "view",
      "type": "function"
    },
    {
      "inputs": [],
      "name": "DEFAULT_ADMIN_ROLE",
      "outputs": [
        {
          "internalType": "bytes32",
          "name": "",
          "type": "bytes32"
        }
      ],
      "stateMutability": "view",
      "type": "function"
    },
    {
      "inputs": [],
      "name": "RELAY_ROLE",
      "outputs": [
        {
          "internalType": "bytes32",
          "name": "",
          "type": "bytes32"
        }
      ],
      "stateMutability": "view",
      "type": "function"
    },
    {
      "inputs": [
        {
          "internalType": "address payable",
          "name": "feeRecipient_",
          "type": "address"
        }
      ],
      "name": "changeBridgeFeeRecipient",
      "outputs": [],
      "stateMutability": "nonpayable",
      "type": "function"
    },
    {
      "inputs": [
        {
          "internalType": "uint256",
          "name": "lockTime_",
          "type": "uint256"
        }
      ],
      "name": "changeLockTime",
      "outputs": [],
      "stateMutability": "nonpayable",
      "type": "function"
    },
    {
      "inputs": [
        {
          "internalType": "uint256",
          "name": "minSafetyBlocks_",
          "type": "uint256"
        }
      ],
      "name": "changeMinSafetyBlocks",
      "outputs": [],
      "stateMutability": "nonpayable",
      "type": "function"
    },
    {
      "inputs": [
        {
          "internalType": "uint256",
          "name": "minSafetyBlocksValidators_",
          "type": "uint256"
        }
      ],
      "name": "changeMinSafetyBlocksValidators",
      "outputs": [],
      "stateMutability": "nonpayable",
      "type": "function"
    },
    {
      "inputs": [
        {
          "internalType": "uint256",
          "name": "signatureFeeCheckNumber_",
          "type": "uint256"
        }
      ],
      "name": "changeSignatureFeeCheckNumber",
      "outputs": [],
      "stateMutability": "nonpayable",
      "type": "function"
    },
    {
      "inputs": [
        {
          "internalType": "uint256",
          "name": "timeframeSeconds_",
          "type": "uint256"
        }
      ],
      "name": "changeTimeframeSeconds",
      "outputs": [],
      "stateMutability": "nonpayable",
      "type": "function"
    },
    {
      "inputs": [
        {
          "internalType": "address payable",
          "name": "feeRecipient_",
          "type": "address"
        }
      ],
      "name": "changeTransferFeeRecipient",
      "outputs": [],
      "stateMutability": "nonpayable",
      "type": "function"
    },
    {
      "inputs": [
        {
          "internalType": "uint256",
          "name": "eventId",
          "type": "uint256"
        }
      ],
      "name": "getLockedTransfers",
      "outputs": [
        {
          "components": [
            {
              "components": [
                {
                  "internalType": "address",
                  "name": "tokenAddress",
                  "type": "address"
                },
                {
                  "internalType": "address",
                  "name": "toAddress",
                  "type": "address"
                },
                {
                  "internalType": "uint256",
                  "name": "amount",
                  "type": "uint256"
                }
              ],
              "internalType": "struct CommonStructs.Transfer[]",
              "name": "transfers",
              "type": "tuple[]"
            },
            {
              "internalType": "uint256",
              "name": "endTimestamp",
              "type": "uint256"
            }
          ],
          "internalType": "struct CommonStructs.LockedTransfers",
          "name": "",
          "type": "tuple"
        }
      ],
      "stateMutability": "view",
      "type": "function"
    },
    {
      "inputs": [
        {
          "internalType": "bytes32",
          "name": "role",
          "type": "bytes32"
        }
      ],
      "name": "getRoleAdmin",
      "outputs": [
        {
          "internalType": "bytes32",
          "name": "",
          "type": "bytes32"
        }
      ],
      "stateMutability": "view",
      "type": "function"
    },
    {
      "inputs": [],
      "name": "getValidatorSet",
      "outputs": [
        {
          "internalType": "address[]",
          "name": "",
          "type": "address[]"
        }
      ],
      "stateMutability": "view",
      "type": "function"
    },
    {
      "inputs": [
        {
          "internalType": "bytes32",
          "name": "role",
          "type": "bytes32"
        },
        {
          "internalType": "address",
          "name": "account",
          "type": "address"
        }
      ],
      "name": "grantRole",
      "outputs": [],
      "stateMutability": "nonpayable",
      "type": "function"
    },
    {
      "inputs": [
        {
          "internalType": "bytes32",
          "name": "role",
          "type": "bytes32"
        },
        {
          "internalType": "address",
          "name": "account",
          "type": "address"
        }
      ],
      "name": "hasRole",
      "outputs": [
        {
          "internalType": "bool",
          "name": "",
          "type": "bool"
        }
      ],
      "stateMutability": "view",
      "type": "function"
    },
    {
      "inputs": [
        {
          "components": [
            {
              "internalType": "address",
              "name": "sideBridgeAddress",
              "type": "address"
            },
            {
              "internalType": "address",
              "name": "adminAddress",
              "type": "address"
            },
            {
              "internalType": "address",
              "name": "relayAddress",
              "type": "address"
            },
            {
              "internalType": "address",
              "name": "wrappingTokenAddress",
              "type": "address"
            },
            {
              "internalType": "address[]",
              "name": "tokenThisAddresses",
              "type": "address[]"
            },
            {
              "internalType": "address[]",
              "name": "tokenSideAddresses",
              "type": "address[]"
            },
            {
              "internalType": "address payable",
              "name": "transferFeeRecipient",
              "type": "address"
            },
            {
              "internalType": "address payable",
              "name": "bridgeFeeRecipient",
              "type": "address"
            },
            {
              "internalType": "uint256",
              "name": "timeframeSeconds",
              "type": "uint256"
            },
            {
              "internalType": "uint256",
              "name": "lockTime",
              "type": "uint256"
            },
            {
              "internalType": "uint256",
              "name": "minSafetyBlocks",
              "type": "uint256"
            }
          ],
          "internalType": "struct CommonStructs.ConstructorArgs",
          "name": "args",
          "type": "tuple"
        },
        {
          "internalType": "address[]",
          "name": "initialValidators",
          "type": "address[]"
        },
        {
          "internalType": "address",
          "name": "validatorSetAddress",
          "type": "address"
        },
        {
          "internalType": "bytes32",
          "name": "lastProcessedBlock",
          "type": "bytes32"
        },
        {
          "internalType": "uint256",
          "name": "minSafetyBlocksValidators",
          "type": "uint256"
        }
      ],
      "name": "initialize",
      "outputs": [],
      "stateMutability": "nonpayable",
      "type": "function"
    },
    {
      "inputs": [],
      "name": "inputEventId",
      "outputs": [
        {
          "internalType": "uint256",
          "name": "",
          "type": "uint256"
        }
      ],
      "stateMutability": "view",
      "type": "function"
    },
    {
      "inputs": [],
      "name": "isQueueEmpty",
      "outputs": [
        {
          "internalType": "bool",
          "name": "",
          "type": "bool"
        }
      ],
      "stateMutability": "view",
      "type": "function"
    },
    {
      "inputs": [],
      "name": "lastProcessedBlock",
      "outputs": [
        {
          "internalType": "bytes32",
          "name": "",
          "type": "bytes32"
        }
      ],
      "stateMutability": "view",
      "type": "function"
    },
    {
      "inputs": [],
      "name": "lastTimeframe",
      "outputs": [
        {
          "internalType": "uint256",
          "name": "",
          "type": "uint256"
        }
      ],
      "stateMutability": "view",
      "type": "function"
    },
    {
      "inputs": [],
      "name": "lockTime",
      "outputs": [
        {
          "internalType": "uint256",
          "name": "",
          "type": "uint256"
        }
      ],
      "stateMutability": "view",
      "type": "function"
    },
    {
      "inputs": [
        {
          "internalType": "uint256",
          "name": "",
          "type": "uint256"
        }
      ],
      "name": "lockedTransfers",
      "outputs": [
        {
          "internalType": "uint256",
          "name": "endTimestamp",
          "type": "uint256"
        }
      ],
      "stateMutability": "view",
      "type": "function"
    },
    {
      "inputs": [],
      "name": "minSafetyBlocks",
      "outputs": [
        {
          "internalType": "uint256",
          "name": "",
          "type": "uint256"
        }
      ],
      "stateMutability": "view",
      "type": "function"
    },
    {
      "inputs": [],
      "name": "minSafetyBlocksValidators",
      "outputs": [
        {
          "internalType": "uint256",
          "name": "",
          "type": "uint256"
        }
      ],
      "stateMutability": "view",
      "type": "function"
    },
    {
      "inputs": [],
      "name": "oldestLockedEventId",
      "outputs": [
        {
          "internalType": "uint256",
          "name": "",
          "type": "uint256"
        }
      ],
      "stateMutability": "view",
      "type": "function"
    },
    {
      "inputs": [],
      "name": "pause",
      "outputs": [],
      "stateMutability": "nonpayable",
      "type": "function"
    },
    {
      "inputs": [],
      "name": "paused",
      "outputs": [
        {
          "internalType": "bool",
          "name": "",
          "type": "bool"
        }
      ],
      "stateMutability": "view",
      "type": "function"
    },
    {
      "inputs": [
        {
          "internalType": "uint256",
          "name": "eventId",
          "type": "uint256"
        }
      ],
      "name": "removeLockedTransfers",
      "outputs": [],
      "stateMutability": "nonpayable",
      "type": "function"
    },
    {
      "inputs": [
        {
          "internalType": "bytes32",
          "name": "role",
          "type": "bytes32"
        },
        {
          "internalType": "address",
          "name": "account",
          "type": "address"
        }
      ],
      "name": "renounceRole",
      "outputs": [],
      "stateMutability": "nonpayable",
      "type": "function"
    },
    {
      "inputs": [
        {
          "internalType": "bytes32",
          "name": "role",
          "type": "bytes32"
        },
        {
          "internalType": "address",
          "name": "account",
          "type": "address"
        }
      ],
      "name": "revokeRole",
      "outputs": [],
      "stateMutability": "nonpayable",
      "type": "function"
    },
    {
      "inputs": [],
      "name": "sideBridgeAddress",
      "outputs": [
        {
          "internalType": "address",
          "name": "",
          "type": "address"
        }
      ],
      "stateMutability": "view",
      "type": "function"
    },
    {
      "inputs": [
        {
          "components": [
            {
              "components": [
                {
                  "internalType": "bytes3",
                  "name": "p0Seal",
                  "type": "bytes3"
                },
                {
                  "internalType": "bytes3",
                  "name": "p0Bare",
                  "type": "bytes3"
                },
                {
                  "internalType": "bytes32",
                  "name": "parentHash",
                  "type": "bytes32"
                },
                {
                  "internalType": "bytes",
                  "name": "p2",
                  "type": "bytes"
                },
                {
                  "internalType": "bytes32",
                  "name": "receiptHash",
                  "type": "bytes32"
                },
                {
                  "internalType": "bytes",
                  "name": "p3",
                  "type": "bytes"
                },
                {
                  "internalType": "bytes4",
                  "name": "step",
                  "type": "bytes4"
                },
                {
                  "internalType": "bytes",
                  "name": "signature",
                  "type": "bytes"
                },
                {
                  "internalType": "uint64",
                  "name": "finalizedVs",
                  "type": "uint64"
                }
              ],
              "internalType": "struct CheckAura.BlockAura[]",
              "name": "blocks",
              "type": "tuple[]"
            },
            {
              "components": [
                {
                  "internalType": "bytes[]",
                  "name": "receiptProof",
                  "type": "bytes[]"
                },
                {
                  "internalType": "uint256",
                  "name": "eventId",
                  "type": "uint256"
                },
                {
                  "components": [
                    {
                      "internalType": "address",
                      "name": "tokenAddress",
                      "type": "address"
                    },
                    {
                      "internalType": "address",
                      "name": "toAddress",
                      "type": "address"
                    },
                    {
                      "internalType": "uint256",
                      "name": "amount",
                      "type": "uint256"
                    }
                  ],
                  "internalType": "struct CommonStructs.Transfer[]",
                  "name": "transfers",
                  "type": "tuple[]"
                }
              ],
              "internalType": "struct CommonStructs.TransferProof",
              "name": "transfer",
              "type": "tuple"
            },
            {
              "components": [
                {
                  "internalType": "bytes[]",
                  "name": "receiptProof",
                  "type": "bytes[]"
                },
                {
                  "components": [
                    {
                      "internalType": "address",
                      "name": "deltaAddress",
                      "type": "address"
                    },
                    {
                      "internalType": "int64",
                      "name": "deltaIndex",
                      "type": "int64"
                    }
                  ],
                  "internalType": "struct CheckAura.ValidatorSetChange[]",
                  "name": "changes",
                  "type": "tuple[]"
                },
                {
                  "internalType": "uint256",
                  "name": "eventBlock",
                  "type": "uint256"
                }
              ],
              "internalType": "struct CheckAura.ValidatorSetProof[]",
              "name": "vsChanges",
              "type": "tuple[]"
            },
            {
              "internalType": "uint64",
              "name": "transferEventBlock",
              "type": "uint64"
            }
          ],
          "internalType": "struct CheckAura.AuraProof",
          "name": "auraProof",
          "type": "tuple"
        }
      ],
      "name": "submitTransferAura",
      "outputs": [],
      "stateMutability": "nonpayable",
      "type": "function"
    },
    {
      "inputs": [
        {
          "internalType": "bytes4",
          "name": "interfaceId",
          "type": "bytes4"
        }
      ],
      "name": "supportsInterface",
      "outputs": [
        {
          "internalType": "bool",
          "name": "",
          "type": "bool"
        }
      ],
      "stateMutability": "view",
      "type": "function"
    },
    {
      "inputs": [],
      "name": "timeframeSeconds",
      "outputs": [
        {
          "internalType": "uint256",
          "name": "",
          "type": "uint256"
        }
      ],
      "stateMutability": "view",
      "type": "function"
    },
    {
      "inputs": [
        {
          "internalType": "address",
          "name": "",
          "type": "address"
        }
      ],
      "name": "tokenAddresses",
      "outputs": [
        {
          "internalType": "address",
          "name": "",
          "type": "address"
        }
      ],
      "stateMutability": "view",
      "type": "function"
    },
    {
      "inputs": [
        {
          "internalType": "address",
          "name": "tokenThisAddress",
          "type": "address"
        },
        {
          "internalType": "address",
          "name": "tokenSideAddress",
          "type": "address"
        }
      ],
      "name": "tokensAdd",
      "outputs": [],
      "stateMutability": "nonpayable",
      "type": "function"
    },
    {
      "inputs": [
        {
          "internalType": "address[]",
          "name": "tokenThisAddresses",
          "type": "address[]"
        },
        {
          "internalType": "address[]",
          "name": "tokenSideAddresses",
          "type": "address[]"
        }
      ],
      "name": "tokensAddBatch",
      "outputs": [],
      "stateMutability": "nonpayable",
      "type": "function"
    },
    {
      "inputs": [
        {
          "internalType": "address",
          "name": "tokenThisAddress",
          "type": "address"
        }
      ],
      "name": "tokensRemove",
      "outputs": [],
      "stateMutability": "nonpayable",
      "type": "function"
    },
    {
      "inputs": [
        {
          "internalType": "address[]",
          "name": "tokenThisAddresses",
          "type": "address[]"
        }
      ],
      "name": "tokensRemoveBatch",
      "outputs": [],
      "stateMutability": "nonpayable",
      "type": "function"
    },
    {
      "inputs": [],
      "name": "triggerTransfers",
      "outputs": [],
      "stateMutability": "nonpayable",
      "type": "function"
    },
    {
      "inputs": [
        {
          "internalType": "uint256",
          "name": "eventId",
          "type": "uint256"
        }
      ],
      "name": "unlockTransfers",
      "outputs": [],
      "stateMutability": "nonpayable",
      "type": "function"
    },
    {
      "inputs": [],
      "name": "unlockTransfersBatch",
      "outputs": [],
      "stateMutability": "nonpayable",
      "type": "function"
    },
    {
      "inputs": [],
      "name": "unpause",
      "outputs": [],
      "stateMutability": "nonpayable",
      "type": "function"
    },
    {
      "inputs": [
        {
          "internalType": "uint256",
          "name": "",
          "type": "uint256"
        }
      ],
      "name": "validatorSet",
      "outputs": [
        {
          "internalType": "address",
          "name": "",
          "type": "address"
        }
      ],
      "stateMutability": "view",
      "type": "function"
    },
    {
      "inputs": [
        {
          "internalType": "address",
          "name": "tokenThisAddress",
          "type": "address"
        },
        {
          "internalType": "address",
          "name": "toAddress",
          "type": "address"
        },
        {
          "internalType": "uint256",
          "name": "amount",
          "type": "uint256"
        },
        {
          "internalType": "bool",
          "name": "unwrapSide",
          "type": "bool"
        },
        {
          "internalType": "bytes",
          "name": "feeSignature",
          "type": "bytes"
        },
        {
          "internalType": "uint256",
          "name": "transferFee",
          "type": "uint256"
        },
        {
          "internalType": "uint256",
          "name": "bridgeFee",
          "type": "uint256"
        }
      ],
      "name": "withdraw",
      "outputs": [],
      "stateMutability": "payable",
      "type": "function"
    },
    {
      "inputs": [
        {
          "internalType": "address",
          "name": "toAddress",
          "type": "address"
        },
        {
          "internalType": "bytes",
          "name": "feeSignature",
          "type": "bytes"
        },
        {
          "internalType": "uint256",
          "name": "transferFee",
          "type": "uint256"
        },
        {
          "internalType": "uint256",
          "name": "bridgeFee",
          "type": "uint256"
        }
      ],
      "name": "wrapWithdraw",
      "outputs": [],
      "stateMutability": "payable",
      "type": "function"
    },
    {
      "inputs": [],
      "name": "wrapperAddress",
      "outputs": [
        {
          "internalType": "address",
          "name": "",
          "type": "address"
        }
      ],
      "stateMutability": "view",
      "type": "function"
    },
    {
      "stateMutability": "payable",
      "type": "receive"
    }
  ],
  "transactionHash": "0xa57f7778306d3387149298c635357088385e84faee211e19a4fc25814d417440",
  "args": [],
  "numDeployments": 1,
  "solcInputHash": "ba419a9adcb8d7559fae6e60e822f8a9",
  "bytecode": "0x608060405234801561001057600080fd5b506146fd806100206000396000f3fe6080604052600436106102905760003560e060020a9004806386d7679e1161015e578063baeebe75116100c5578063f33fe10f1161007e578063f33fe10f146107a6578063f7005587146107c6578063f862b7eb146107e6578063f8ae31bf14610806578063f8b744331461081c578063fd5d2ef31461082f57600080fd5b8063baeebe75146106e1578063cf331250146106f7578063d547741f14610719578063da15e11a14610739578063e31be08714610759578063e64808f31461078657600080fd5b806396cf52271161011757806396cf52271461062a57806399b5bb641461064a578063a217fddf14610660578063b6d3385e14610675578063b87330e9146106ab578063ba8bbbe0146106cb57600080fd5b806386d7679e146105965780638ac1f86f146105ac5780638e5df9c7146105c157806391c5bc0a146105e157806391d14854146105f4578063924cf6e01461061457600080fd5b80633928b296116102025780636ff7c546116101bb5780636ff7c546146104d2578063746b5c42146104f257806375b238fc146105075780637df8b802146105295780638456cb5914610561578063853890ae1461057657600080fd5b80633928b296146104155780633f4ba83a1461043557806342180fb81461044a5780634a1856de1461046a5780635249a7051461049a5780635c975abb146104ba57600080fd5b8063248a9ca311610254578063248a9ca3146103595780632bbba847146103895780632f2ff15d1461039f578063331a891a146103bf57806333de61d2146103df57806336568abe146103f557600080fd5b806301ffc9a71461029c57806304421823146102d157806309fce356146103015780630d66808714610323578063169e7a991461033957600080fd5b3661029757005b600080fd5b3480156102a857600080fd5b506102bc6102b7366004613b12565b61084f565b60405190151581526020015b60405180910390f35b3480156102dd57600080fd5b506102f360008051602061468883398151915281565b6040519081526020016102c8565b34801561030d57600080fd5b5061032161031c366004613a0b565b6108b8565b005b34801561032f57600080fd5b506102f360d45481565b34801561034557600080fd5b50610321610354366004613b9a565b6108e4565b34801561036557600080fd5b506102f3610374366004613ad4565b60009081526065602052604090206001015490565b34801561039557600080fd5b5060ca54156102bc565b3480156103ab57600080fd5b506103216103ba366004613aed565b610978565b3480156103cb57600080fd5b506103216103da366004613ad4565b6109a3565b3480156103eb57600080fd5b506102f360e95481565b34801561040157600080fd5b50610321610410366004613aed565b610aea565b34801561042157600080fd5b50610321610430366004613878565b610b79565b34801561044157600080fd5b50610321610bb5565b34801561045657600080fd5b50610321610465366004613ad4565b610bd9565b34801561047657600080fd5b506102f3610485366004613ad4565b60cb6020526000908152604090206001015481565b3480156104a657600080fd5b506103216104b53660046139c9565b610c16565b3480156104c657600080fd5b5060975460ff166102bc565b3480156104de57600080fd5b506103216104ed366004613ad4565b610c9f565b3480156104fe57600080fd5b50610321610cbe565b34801561051357600080fd5b506102f36000805160206146a883398151915281565b34801561053557600080fd5b5060ce5461054990600160a060020a031681565b604051600160a060020a0390911681526020016102c8565b34801561056d57600080fd5b50610321610d6a565b34801561058257600080fd5b50610321610591366004613895565b610d8b565b3480156105a257600080fd5b506102f360d75481565b3480156105b857600080fd5b50610321610dd3565b3480156105cd57600080fd5b506103216105dc366004613878565b610f2b565b6103216105ef366004613962565b610f6c565b34801561060057600080fd5b506102bc61060f366004613aed565b611293565b34801561062057600080fd5b506102f360d25481565b34801561063657600080fd5b50610321610645366004613ad4565b6112be565b34801561065657600080fd5b506102f360d55481565b34801561066c57600080fd5b506102f3600081565b34801561068157600080fd5b50610549610690366004613878565b60cd60205260009081526040902054600160a060020a031681565b3480156106b757600080fd5b506103216106c6366004613878565b6112dd565b3480156106d757600080fd5b506102f360cc5481565b3480156106ed57600080fd5b506102f360d35481565b34801561070357600080fd5b5061070c611319565b6040516102c89190613f6a565b34801561072557600080fd5b50610321610734366004613aed565b61137b565b34801561074557600080fd5b50610321610754366004613b5f565b6113a1565b34801561076557600080fd5b50610779610774366004613ad4565b611484565b6040516102c891906141a2565b34801561079257600080fd5b506105496107a1366004613ad4565b611540565b3480156107b257600080fd5b5060d15461054990600160a060020a031681565b3480156107d257600080fd5b506103216107e1366004613ad4565b61156a565b3480156107f257600080fd5b50610321610801366004613ad4565b611589565b34801561081257600080fd5b506102f360ea5481565b61032161082a3660046138ce565b6117bc565b34801561083b57600080fd5b5061032161084a366004613ad4565b611c1c565b6000600160e060020a031982167f7965db0b0000000000000000000000000000000000000000000000000000000014806108b257507f01ffc9a700000000000000000000000000000000000000000000000000000000600160e060020a03198316145b92915050565b6000805160206146a88339815191526108d18133611c3b565b6108dd85858585611ca2565b5050505050565b600054610100900460ff16806108fd575060005460ff16155b6109255760405160e560020a62461bcd02815260040161091c90614145565b60405180910390fd5b600054610100900460ff16158015610947576000805461ffff19166101011790555b61095087611dc3565b61095d8686868686611f9f565b801561096f576000805461ff00191690555b50505050505050565b6000828152606560205260409020600101546109948133611c3b565b61099e83836120ba565b505050565b6000805160206146a88339815191526109bc8133611c3b565b60975460ff16610a115760405160e560020a62461bcd02815260206004820152601460248201527f5061757361626c653a206e6f7420706175736564000000000000000000000000604482015260640161091c565b60cc54821015610a8c5760405160e560020a62461bcd02815260206004820152602660248201527f6576656e744964206d757374206265203e3d206f6c646573744c6f636b65644560448201527f76656e7449640000000000000000000000000000000000000000000000000000606482015260840161091c565b600082815260cb602052604090206001015415610ad857600082815260cb6020526040812090610abc828261371f565b5060006001919091015581610ad081614559565b925050610a8c565b610ae36001836144ad565b60d5555050565b600160a060020a0381163314610b6b5760405160e560020a62461bcd02815260206004820152602f60248201527f416363657373436f6e74726f6c3a2063616e206f6e6c792072656e6f756e636560448201527f20726f6c657320666f722073656c660000000000000000000000000000000000606482015260840161091c565b610b758282612140565b5050565b6000805160206146a8833981519152610b928133611c3b565b5060d08054600160a060020a031916600160a060020a0392909216919091179055565b6000805160206146a8833981519152610bce8133611c3b565b610bd66121a7565b50565b6000805160206146a8833981519152610bf28133611c3b565b8160d35460d754610c03919061443c565b610c0d9190614391565b60d7555060d355565b6000805160206146a8833981519152610c2f8133611c3b565b8160005b818110156108dd5760cd6000868684818110610c5157610c516145d3565b9050602002016020810190610c669190613878565b600160a060020a0316815260208101919091526040016000208054600160a060020a031916905580610c9781614559565b915050610c33565b6000805160206146a8833981519152610cb88133611c3b565b5060ea55565b60ca54610d105760405160e560020a62461bcd02815260206004820152600e60248201527f517565756520697320656d707479000000000000000000000000000000000000604482015260640161091c565b60d68054906000610d2083614559565b919050557fe15729a2f427aa4572dab35eb692c902fcbce57d41642013259c741380809ae260ca604051610d54919061406b565b60405180910390a2610d6860ca600061371f565b565b6000805160206146a8833981519152610d838133611c3b565b610bd6612246565b6000805160206146a8833981519152610da48133611c3b565b50600160a060020a03918216600090815260cd602052604090208054600160a060020a03191691909216179055565b60975460ff1615610df95760405160e560020a62461bcd02815260040161091c9061410e565b60cc545b600081815260cb60209081526040808320815181546060948102820185018452928101838152909391928492849190879085015b82821015610e8b57600084815260209081902060408051606081018252600386029092018054600160a060020a03908116845260018083015490911684860152600290910154918301919091529083529092019101610e31565b5050505081526020016001820154815250509050806020015160001480610eb55750428160200151115b15610ec0575060cc55565b8051610ecb906122a1565b600082815260cb6020526040812090610ee4828261371f565b50600060019190910181905560405183917f78ff9b3176bb0d6421590f3816e75cb15a9ffa2b7a1a028f40a3f4e029eb39f291a25080610f2381614559565b915050610dfd565b6000805160206146a8833981519152610f448133611c3b565b50600160a060020a0316600090815260cd602052604090208054600160a060020a0319169055565b60ce54600160a060020a03908116600090815260cd60205260409020541680610fda5760405160e560020a62461bcd02815260206004820152601560248201527f556e6b6e6f776e20746f6b656e20616464726573730000000000000000000000604482015260640161091c565b610fe48284614379565b34116110355760405160e560020a62461bcd02815260206004820152601160248201527f53656e742076616c7565203c3d20666565000000000000000000000000000000604482015260640161091c565b60008261104285346144ad565b61104c91906144ad565b60ce5490915061106990600160a060020a03168787878786612535565b60cf54604051600160a060020a039091169085156108fc029086906000818181858888f193505050501580156110a3573d6000803e3d6000fd5b5060d054604051600160a060020a039091169084156108fc029085906000818181858888f193505050501580156110de573d6000803e3d6000fd5b5060ce60009054906101000a9004600160a060020a0316600160a060020a031663d0e30db0826040518263ffffffff1660e060020a0281526004016000604051808303818588803b15801561113257600080fd5b505af1158015611146573d6000803e3d6000fd5b505060408051606081018252600160a060020a0380881682528c81166020830190815282840188815260ca80546001810182556000918252945160039095027f42d72674974f694b5f5159593243114d38a5c39c89d6b62fee061ff523240ee181018054968616600160a060020a031997881617905592517f42d72674974f694b5f5159593243114d38a5c39c89d6b62fee061ff523240ee2840180549190951695169490941790925590517f42d72674974f694b5f5159593243114d38a5c39c89d6b62fee061ff523240ee39091015560d65491513395507f3b823d3b837159352faddd1e0b9e9f584ca2bfe976238f6a9e6da4615cf2f44494506112839350879087908b908b90958652600160a060020a0394851660208701529290931660408501526060840152608083019190915260a082015260c00190565b60405180910390a261096f6126c9565b6000918252606560209081526040808420600160a060020a0393909316845291905290205460ff1690565b6000805160206146a88339815191526112d78133611c3b565b5060d455565b6000805160206146a88339815191526112f68133611c3b565b5060cf8054600160a060020a031916600160a060020a0392909216919091179055565b606060e780548060200260200160405190810160405280929190818152602001828054801561137157602002820191906000526020600020905b8154600160a060020a03168152600190910190602001808311611353575b5050505050905090565b6000828152606560205260409020600101546113978133611c3b565b61099e8383612140565b6000805160206146888339815191526113ba8133611c3b565b60975460ff16156113e05760405160e560020a62461bcd02815260040161091c9061410e565b6113ed6020830183614363565b602001357f196c47048e38df7a4fe6e581c8f4f2e2ba67ac0dd45b90da756e97bd61d9dd3b60405160405180910390a261143661142d6020840184614363565b60200135612741565b60d25460d154611450918491600160a060020a03166127a6565b610b756114606020840184614363565b61146e906040810190614269565b61147b6020860186614363565b60200135612c13565b604080518082019091526060815260006020820152600082815260cb60209081526040808320815181546060948102820185018452928101838152909491938593919285929185015b8282101561152757600084815260209081902060408051606081018252600386029092018054600160a060020a039081168452600180830154909116848601526002909101549183019190915290835290920191016114cd565b5050505081526020016001820154815250509050919050565b60e7818154811061155057600080fd5b600091825260209091200154600160a060020a0316905081565b6000805160206146a88339815191526115838133611c3b565b5060c955565b60975460ff16156115af5760405160e560020a62461bcd02815260040161091c9061410e565b60cc5481146116035760405160e560020a62461bcd02815260206004820152601c60248201527f63616e20756e6c6f636b206f6e6c79206f6c64657374206576656e7400000000604482015260640161091c565b600081815260cb60209081526040808320815181546060948102820185018452928101838152909391928492849190879085015b8282101561169157600084815260209081902060408051606081018252600386029092018054600160a060020a03908116845260018083015490911684860152600290910154918301919091529083529092019101611637565b505050508152602001600182015481525050905060008160200151116116fc5760405160e560020a62461bcd02815260206004820181905260248201527f6e6f206c6f636b6564207472616e736665727320776974682074686973206964604482015260640161091c565b428160200151106117525760405160e560020a62461bcd02815260206004820152601b60248201527f6c6f636b54696d6520686173206e6f7420796574207061737365640000000000604482015260640161091c565b805161175d906122a1565b600082815260cb6020526040812090611776828261371f565b50600060019190910181905560405183917f78ff9b3176bb0d6421590f3816e75cb15a9ffa2b7a1a028f40a3f4e029eb39f291a26117b5826001614379565b60cc555050565b60008515611851576000805260cd6020527fcd565b10a72538d86f6d352f37ebc5dff31587960b12c0afe00fd03947a6932a54600160a060020a038a811691161461184c5760405160e560020a62461bcd02815260206004820152601f60248201527f546f6b656e206e6f7420706f696e7420746f206e617469766520746f6b656e00604482015260640161091c565b6118bd565b50600160a060020a03808916600090815260cd602052604090205416806118bd5760405160e560020a62461bcd02815260206004820152601560248201527f556e6b6e6f776e20746f6b656e20616464726573730000000000000000000000604482015260640161091c565b6118c78284614379565b34146119185760405160e560020a62461bcd02815260206004820152601160248201527f53656e742076616c756520213d20666565000000000000000000000000000000604482015260640161091c565b6000871161196b5760405160e560020a62461bcd02815260206004820152601160248201527f43616e6e6f742077697468647261772030000000000000000000000000000000604482015260640161091c565b61197989868686868c612535565b60cf54604051600160a060020a039091169084156108fc029085906000818181858888f193505050501580156119b3573d6000803e3d6000fd5b5060d054604051600160a060020a039091169083156108fc029084906000818181858888f193505050501580156119ee573d6000803e3d6000fd5b506040517f23b872dd00000000000000000000000000000000000000000000000000000000815233600482015230602482015260448101889052600160a060020a038a16906323b872dd90606401602060405180830381600087803b158015611a5657600080fd5b505af1158015611a6a573d6000803e3d6000fd5b505050506040513d601f19601f82011682018060405250810190611a8e9190613a77565b611add5760405160e560020a62461bcd02815260206004820152601360248201527f4661696c207472616e7366657220636f696e7300000000000000000000000000604482015260640161091c565b6040805160608082018352600160a060020a038481168084528c821660208086019182528587018e815260ca8054600181018255600091909152965160039097027f42d72674974f694b5f5159593243114d38a5c39c89d6b62fee061ff523240ee181018054988716600160a060020a0319998a1617905592517f42d72674974f694b5f5159593243114d38a5c39c89d6b62fee061ff523240ee284018054918716919098161790965594517f42d72674974f694b5f5159593243114d38a5c39c89d6b62fee061ff523240ee39091015560d6548551908152918e16938201939093529283019190915281018890526080810184905260a0810183905233907f3b823d3b837159352faddd1e0b9e9f584ca2bfe976238f6a9e6da4615cf2f4449060c00160405180910390a2611c116126c9565b505050505050505050565b6000805160206146a8833981519152611c358133611c3b565b5060d255565b611c458282611293565b610b7557611c5d81600160a060020a03166014612ca7565b611c68836020612ca7565b604051602001611c79929190613ee9565b60408051601f198184030181529082905260e560020a62461bcd02825261091c916004016140db565b828114611d1a5760405160e560020a62461bcd02815260206004820152603f60248201527f73697a6573206f6620746f6b656e5468697341646472657373657320616e642060448201527f746f6b656e53696465416464726573736573206d7573742062652073616d6500606482015260840161091c565b8260005b81811015611dbb57838382818110611d3857611d386145d3565b9050602002016020810190611d4d9190613878565b60cd6000888885818110611d6357611d636145d3565b9050602002016020810190611d789190613878565b600160a060020a03908116825260208201929092526040016000208054600160a060020a0319169290911691909117905580611db381614559565b915050611d1e565b505050505050565b600054610100900460ff1680611ddc575060005460ff16155b611dfb5760405160e560020a62461bcd02815260040161091c90614145565b600054610100900460ff16158015611e1d576000805461ffff19166101011790555b611e28600033612e94565b611e4f600080516020614688833981519152611e4a6060850160408601613878565b612e94565b611e716000805160206146a8833981519152611e4a6040850160208601613878565b611e93611e816080840184614220565b611e8e60a0860186614220565b611ca2565b611ea36080830160608401613878565b60ce8054600160a060020a031916600160a060020a0392909216919091179055611ed06020830183613878565b60d18054600160a060020a031916600160a060020a0392909216919091179055611f0060e0830160c08401613878565b60cf8054600160a060020a031916600160a060020a0392909216919091179055611f31610100830160e08401613878565b60d08054600160a060020a031916600160a060020a039290921691909117905561014082013560d25561010082013560d381905561012083013560d455600160cc81905560d655600360c955611f879042614391565b60d7558015610b75576000805461ff00191690555050565b600054610100900460ff1680611fb8575060005460ff16155b611fd75760405160e560020a62461bcd02815260040161091c90614145565b600054610100900460ff16158015611ff9576000805461ffff19166101011790555b8461206f5760405160e560020a62461bcd02815260206004820152603260248201527f4c656e677468206f66205f696e697469616c56616c696461746f7273206d757360448201527f7420626520626967676572207468616e20300000000000000000000000000000606482015260840161091c565b61207b60e78787613740565b5060e88054600160a060020a031916600160a060020a03861617905560e983905560ea8290558015611dbb576000805461ff0019169055505050505050565b6120c48282611293565b610b75576000828152606560209081526040808320600160a060020a03851684529091529020805460ff191660011790556120fc3390565b600160a060020a031681600160a060020a0316837f2f8788117e7eff1d82e926ec794901d17c78024a50270940304540a733656f0d60405160405180910390a45050565b61214a8282611293565b15610b75576000828152606560209081526040808320600160a060020a0385168085529252808320805460ff1916905551339285917ff6391f5c32d9c69d2a47ea670b442974b53935d1edc7fd64eb21e047a839171b9190a45050565b60975460ff166121fc5760405160e560020a62461bcd02815260206004820152601460248201527f5061757361626c653a206e6f7420706175736564000000000000000000000000604482015260640161091c565b6097805460ff191690557f5db9ee0a495bf2e6ff9c91a7834c1ba4fdd244a5e8aa4e537bd38aeae4b073aa335b604051600160a060020a03909116815260200160405180910390a1565b60975460ff161561226c5760405160e560020a62461bcd02815260040161091c9061410e565b6097805460ff191660011790557f62e78cea01bee320cd4e420270b5ea74000d11b0c9f74754ebdbfc544b05a2586122293390565b60005b8151811015610b75576000600160a060020a03168282815181106122ca576122ca6145d3565b602002602001015160000151600160a060020a031614156123e65760ce548251600160a060020a0390911690632e1a7d4d9084908490811061230e5761230e6145d3565b6020026020010151604001516040518263ffffffff1660e060020a02815260040161233b91815260200190565b600060405180830381600087803b15801561235557600080fd5b505af1158015612369573d6000803e3d6000fd5b5050505081818151811061237f5761237f6145d3565b602002602001015160200151600160a060020a03166108fc8383815181106123a9576123a96145d3565b6020026020010151604001519081150290604051600060405180830381858888f193505050501580156123e0573d6000803e3d6000fd5b50612523565b8181815181106123f8576123f86145d3565b602002602001015160000151600160a060020a031663a9059cbb838381518110612424576124246145d3565b602002602001015160200151848481518110612442576124426145d3565b6020026020010151604001516040518363ffffffff1660e060020a028152600401612482929190600160a060020a03929092168252602082015260400190565b602060405180830381600087803b15801561249c57600080fd5b505af11580156124b0573d6000803e3d6000fd5b505050506040513d601f19601f820116820180604052508101906124d49190613a77565b6125235760405160e560020a62461bcd02815260206004820152601360248201527f4661696c207472616e7366657220636f696e7300000000000000000000000000604482015260640161091c565b8061252d81614559565b9150506122a4565b6000808061254561070842614391565b905060005b60c95481101561267d576040516c01000000000000000000000000600160a060020a038c160260208201526034810183905260548101889052607481018790526094810186905260b40160408051601f198184030181529082905280516020918201207f19457468657265756d205369676e6564204d6573736167653a0a33320000000091830191909152603c820152605c01604051602081830303815290604052805190602001209350612635848a8a8080601f016020809104026020016040519081016040528093929190818152602001838380828437600092019190915250612e9e92505050565b925061264f60008051602061468883398151915284611293565b1561265d5750505050611dbb565b8161266781614542565b925050808061267590614559565b91505061254a565b5060405160e560020a62461bcd02815260206004820152601660248201527f5369676e617475726520636865636b206661696c656400000000000000000000604482015260640161091c565b600060d354426126d99190614391565b905060d7548114610bd65760d680549060006126f483614559565b919050557fe15729a2f427aa4572dab35eb692c902fcbce57d41642013259c741380809ae260ca604051612728919061406b565b60405180910390a261273c60ca600061371f565b60d755565b60d56000815461275090614559565b91829055508114610bd65760405160e560020a62461bcd02815260206004820152601460248201527f4576656e744964206f7574206f66206f72646572000000000000000000000000604482015260640161091c565b6000806127b96080860160608701613c31565b67ffffffffffffffff16156128fb576127de6127d86020870187614363565b84612f29565b9050806127eb8680614220565b6127fb6080890160608a01613c31565b67ffffffffffffffff16818110612814576128146145d3565b90506020028101906128269190614342565b608001351461287a5760405160e560020a62461bcd02815260206004820181905260248201527f5472616e73666572206576656e742076616c69646174696f6e206661696c6564604482015260640161091c565b8361288b6080870160608801613c31565b67ffffffffffffffff1661289f8780614220565b6128aa9291506144ad565b10156128fb5760405160e560020a62461bcd02815260206004820152601860248201527f4e6f7420656e6f7567682073616665747920626c6f636b730000000000000000604482015260640161091c565b60005b6129088680614220565b9050811015612c09573661291c8780614220565b8381811061292c5761292c6145d3565b905060200281019061293e9190614342565b905061295261012082016101008301613c31565b67ffffffffffffffff1615612b43573661296f6040890189614220565b600161298361012086016101008701613c31565b61298d91906144c4565b67ffffffffffffffff168181106129a6576129a66145d3565b90506020028101906129b89190614363565b905060005b6129ca60208301836142b2565b9050811015612a10576129fe6129e360208401846142b2565b838181106129f3576129f36145d3565b90506040020161306d565b80612a0881614559565b9150506129bd565b50612a31612a1e8280614220565b60e854600160a060020a031660e76131b0565b60ea54909450612a456040830135856144ad565b1015612a965760405160e560020a62461bcd02815260206004820152601c60248201527f4665772073616665747920626c6f636b732076616c696461746f727300000000604482015260640161091c565b83612aa18980614220565b8360400135818110612ab557612ab56145d3565b9050602002810190612ac79190614342565b6080013514612b1b5760405160e560020a62461bcd02815260206004820152601560248201527f57726f6e67205653207265636569707420686173680000000000000000000000604482015260640161091c565b612b2b6080890160608a01613c31565b67ffffffffffffffff16831015612b4157600094505b505b8315612b9f5783816040013514612b9f5760405160e560020a62461bcd02815260206004820152601160248201527f57726f6e6720706172656e742068617368000000000000000000000000000000604482015260640161091c565b612ba881613289565b9350612bbc61012082016101008301613c31565b67ffffffffffffffff1615801590612bec5750612bdf6080880160608901613c31565b67ffffffffffffffff1682105b15612bf657600093505b5080612c0181614559565b9150506128fe565b505060e955505050565b60d454612c209042614379565b600082815260cb60205260408120600101919091555b82811015612ca157600082815260cb60205260409020848483818110612c5e57612c5e6145d3565b835460018101855560009485526020909420606090910292909201926003029091019050612c8c8282614605565b50508080612c9990614559565b915050612c36565b50505050565b60606000612cb683600261443c565b612cc1906002614379565b67ffffffffffffffff811115612cd957612cd96145ec565b6040519080825280601f01601f191660200182016040528015612d03576020820181803683370190505b5090507f300000000000000000000000000000000000000000000000000000000000000081600081518110612d3a57612d3a6145d3565b6020010190600160f860020a031916908160001a9053507f780000000000000000000000000000000000000000000000000000000000000081600181518110612d8557612d856145d3565b6020010190600160f860020a031916908160001a9053506000612da984600261443c565b612db4906001614379565b90505b6001811115612e3b577f303132333435363738396162636465660000000000000000000000000000000085600f1660108110612df557612df56145d3565b1a60f860020a02828281518110612e0e57612e0e6145d3565b6020010190600160f860020a031916908160001a905350601090940493612e3481614542565b9050612db7565b508315612e8d5760405160e560020a62461bcd02815260206004820181905260248201527f537472696e67733a20686578206c656e67746820696e73756666696369656e74604482015260640161091c565b9392505050565b610b7582826120ba565b6020810151604082015160608301516000929190831a601b811015612ec157601b015b60408051600081526020810180835288905260ff831691810191909152606081018490526080810183905260019060a0016020604051602081039080840390855afa158015612f14573d6000803e3d6000fd5b5050604051601f190151979650505050505050565b600080612f368480614220565b6000818110612f4757612f476145d3565b9050602002810190612f5991906142fb565b84612f648780614220565b6001818110612f7557612f756145d3565b9050602002810190612f8791906142fb565b612f9489602001356133a5565b612f9e8a80614220565b6002818110612faf57612faf6145d3565b9050602002810190612fc191906142fb565b612fce60408d018d614269565b604051602001612fdf929190613ffb565b60408051601f19818403018152919052612ff98d80614220565b600381811061300a5761300a6145d3565b905060200281019061301c91906142fb565b6040516020016130369b9a99989796959493929190613e27565b60408051601f198184030181529190528051602090910120905061306561305d8580614220565b83600461350d565b949350505050565b600061307f6040830160208401613b3c565b60070b121561316c576000600161309c6040840160208501613b3c565b6130a8906000196143a5565b6130b2919061445b565b60070b905060e7600160e7805490506130cb91906144ad565b815481106130db576130db6145d3565b60009182526020909120015460e78054600160a060020a039092169183908110613107576131076145d3565b9060005260206000200160006101000a815481600160a060020a030219169083600160a060020a0316021790555060e7805480613146576131466145ba565b60008281526020902081016000199081018054600160a060020a03191690550190555050565b60e761317b6020830183613878565b8154600181018355600092835260209092209091018054600160a060020a031916600160a060020a0390921691909117905550565b600080858560008181106131c6576131c66145d3565b90506020028101906131d891906142fb565b85888860018181106131ec576131ec6145d3565b90506020028101906131fe91906142fb565b8760405160200161320f9190613fb7565b6040516020818303038152906040528b8b6002818110613231576132316145d3565b905060200281019061324391906142fb565b60405160200161325a989796959493929190613db8565b60405160208183030381529060405280519060200120905061327f868683600361350d565b9695505050505050565b6000806000613297846135d1565b60e780549294509092506000916132c76132b760e0890160c08a01613b12565b60e060020a900463ffffffff1690565b6132d19190614574565b815481106132e1576132e16145d3565b600091825260209091200154600160a060020a03169050806133448461330a60e08901896142fb565b8080601f016020809104026020016040519081016040528093929190818152602001838380828437600092019190915250612e9e92505050565b600160a060020a03161461339d5760405160e560020a62461bcd02815260206004820152601560248201527f4661696c656420746f20766572696679207369676e0000000000000000000000604482015260640161091c565b509392505050565b6040805160208082528183019092526060916000919060208201818036833701905050905082602082015260005b602081101561343c578181815181106133ee576133ee6145d3565b60209101015160f860020a90819004027fff00000000000000000000000000000000000000000000000000000000000000161561342a5761343c565b8061343481614559565b9150506133d3565b60006134498260206144ad565b67ffffffffffffffff811115613461576134616145ec565b6040519080825280601f01601f19166020018201604052801561348b576020820181803683370190505b50905060005b81518110156135045783836134a581614559565b9450815181106134b7576134b76145d3565b602001015160f860020a900460f860020a028282815181106134db576134db6145d3565b6020010190600160f860020a031916908160001a905350806134fc81614559565b915050613491565b50949350505050565b60006060825b858110156135c65786868281811061352d5761352d6145d3565b905060200281019061353f91906142fb565b86898961354d866001614379565b81811061355c5761355c6145d3565b905060200281019061356e91906142fb565b604051602001613582959493929190613ec0565b604051602081830303815290604052915060208251116135aa576135a5826144ed565b6135b2565b815160208301205b94506135bf600282614379565b9050613513565b509295945050505050565b600080807fa000000000000000000000000000000000000000000000000000000000000000604085013561360860608701876142fb565b608088013561361a60a08a018a6142fb565b6040516020016136309796959493929190613c5b565b60408051601f1981840301815291815290915061365290850160208601613a94565b81604051602001613664929190613cb8565b60408051601f1981840301815291905280516020918201209061368990860186613a94565b827f84000000000000000000000000000000000000000000000000000000000000006136bb60e0890160c08a01613b12565b7fb8410000000000000000000000000000000000000000000000000000000000006136e960e08b018b6142fb565b6040516020016136ff9796959493929190613cfe565b604051602081830303815290604052805190602001209250925050915091565b5080546000825560030290600052602060002090810190610bd691906137a3565b828054828255906000526020600020908101928215613793579160200282015b82811115613793578154600160a060020a031916600160a060020a03843516178255602090920191600190910190613760565b5061379f9291506137d6565b5090565b5b8082111561379f578054600160a060020a031990811682556001820180549091169055600060028201556003016137a4565b5b8082111561379f57600081556001016137d7565b60008083601f8401126137fd57600080fd5b50813567ffffffffffffffff81111561381557600080fd5b602083019150836020808302850101111561382f57600080fd5b9250929050565b60008083601f84011261384857600080fd5b50813567ffffffffffffffff81111561386057600080fd5b60208301915083602082850101111561382f57600080fd5b60006020828403121561388a57600080fd5b8135612e8d81614664565b600080604083850312156138a857600080fd5b82356138b381614664565b915060208301356138c381614664565b809150509250929050565b60008060008060008060008060e0898b0312156138ea57600080fd5b88356138f581614664565b9750602089013561390581614664565b965060408901359550606089013561391c81614679565b9450608089013567ffffffffffffffff81111561393857600080fd5b6139448b828c01613836565b999c989b5096999598969760a08701359660c0013595509350505050565b60008060008060006080868803121561397a57600080fd5b853561398581614664565b9450602086013567ffffffffffffffff8111156139a157600080fd5b6139ad88828901613836565b9699909850959660408101359660609091013595509350505050565b600080602083850312156139dc57600080fd5b823567ffffffffffffffff8111156139f357600080fd5b6139ff858286016137eb565b90969095509350505050565b60008060008060408587031215613a2157600080fd5b843567ffffffffffffffff80821115613a3957600080fd5b613a45888389016137eb565b90965094506020870135915080821115613a5e57600080fd5b50613a6b878288016137eb565b95989497509550505050565b600060208284031215613a8957600080fd5b8151612e8d81614679565b600060208284031215613aa657600080fd5b81357cffffffffffffffffffffffffffffffffffffffffffffffffffffffffff1981168114612e8d57600080fd5b600060208284031215613ae657600080fd5b5035919050565b60008060408385031215613b0057600080fd5b8235915060208301356138c381614664565b600060208284031215613b2457600080fd5b8135600160e060020a031981168114612e8d57600080fd5b600060208284031215613b4e57600080fd5b81358060070b8114612e8d57600080fd5b600060208284031215613b7157600080fd5b813567ffffffffffffffff811115613b8857600080fd5b820160808185031215612e8d57600080fd5b60008060008060008060a08789031215613bb357600080fd5b863567ffffffffffffffff80821115613bcb57600080fd5b90880190610160828b031215613be057600080fd5b90965060208801359080821115613bf657600080fd5b50613c0389828a016137eb565b9096509450506040870135613c1781614664565b959894975092956060810135946080909101359350915050565b600060208284031215613c4357600080fd5b813567ffffffffffffffff81168114612e8d57600080fd5b7fff0000000000000000000000000000000000000000000000000000000000000088168152866001820152848660218301378481016021810185905260009083856041830137600093016041019283525090979650505050505050565b7cffffffffffffffffffffffffffffffffffffffffffffffffffffffffff198316815260008251613cf0816003850160208701614516565b919091016003019392505050565b7cffffffffffffffffffffffffffffffffffffffffffffffffffffffffff198816815260008751613d36816003850160208c01614516565b7fff000000000000000000000000000000000000000000000000000000000000008816600391840191820152600160e060020a0319871660048201527fffff000000000000000000000000000000000000000000000000000000000000861660088201528385600a83013760009301600a019283525090979650505050505050565b87898237600160a060020a0387166c010000000000000000000000000281890190815260009086886014830137868101905060148101600081528651613e02818360208b01614516565b9190910190508385601483013760009301601401928352509098975050505050505050565b8a8c8237600160a060020a038a166c0100000000000000000000000002818c0190815260009060148a8c828401378a82019150808201600081528a51613e71818360208f01614516565b9290920191508789828401378782019150808201600081528751613e99818360208c01614516565b9290920191508486828401376000949091010192835250909b9a5050505050505050505050565b848682378085018481526000908385602083013760009301602001928352509095945050505050565b7f416363657373436f6e74726f6c3a206163636f756e7420000000000000000000815260008351613f21816017850160208801614516565b7f206973206d697373696e6720726f6c65200000000000000000000000000000006017918401918201528351613f5e816028840160208801614516565b01602801949350505050565b6020808252825182820181905260009190848201906040850190845b81811015613fab578351600160a060020a031683529284019291840191600101613f86565b50909695505050505050565b6020808252825482820181905260008481528281209092916040850190845b81811015613fab578354600160a060020a031683526001938401939285019201613fd6565b6020808252818101839052600090604080840186845b8781101561405e57813561402481614664565b600160a060020a039081168452828601359061403f82614664565b1683860152818401358484015260609283019290910190600101614011565b5090979650505050505050565b60006020808301818452808554808352604092508286019150866000528360002060005b828110156140ce578154600160a060020a039081168552600180840154909116878601526002830154868601526060909401936003909201910161408f565b5091979650505050505050565b60208152600082518060208401526140fa816040850160208701614516565b601f01601f19169190910160400192915050565b60208082526010908201527f5061757361626c653a2070617573656400000000000000000000000000000000604082015260600190565b6020808252602e908201527f496e697469616c697a61626c653a20636f6e747261637420697320616c72656160408201527f647920696e697469616c697a6564000000000000000000000000000000000000606082015260800190565b6000602080835260608084018551604080858801528282518085526080890191508684019450600093505b8084101561420a5784518051600160a060020a039081168452888201511688840152830151838301529386019360019390930192908501906141cd565b5094909701519590960194909452509392505050565b6000808335601e1984360301811261423757600080fd5b83018035915067ffffffffffffffff82111561425257600080fd5b602090810192508102360382131561382f57600080fd5b6000808335601e1984360301811261428057600080fd5b83018035915067ffffffffffffffff82111561429b57600080fd5b602001915060608102360382131561382f57600080fd5b6000808335601e198436030181126142c957600080fd5b83018035915067ffffffffffffffff8211156142e457600080fd5b602001915060408102360382131561382f57600080fd5b6000808335601e1984360301811261431257600080fd5b83018035915067ffffffffffffffff82111561432d57600080fd5b60200191503681900382131561382f57600080fd5b6000823561011e1983360301811261435957600080fd5b9190910192915050565b60008235605e1983360301811261435957600080fd5b6000821982111561438c5761438c614588565b500190565b6000826143a0576143a06145a1565b500490565b60008160070b8360070b677fffffffffffffff6000821360008413838304851182821616156143d6576143d6614588565b677fffffffffffffff1960008512828116878305871216156143fa576143fa614588565b6000871292508582058712848416161561441657614416614588565b8585058712818416161561442c5761442c614588565b5050509290910295945050505050565b600081600019048311821515161561445657614456614588565b500290565b60008160070b8360070b6000811281677fffffffffffffff190183128115161561448757614487614588565b81677fffffffffffffff0183138116156144a3576144a3614588565b5090039392505050565b6000828210156144bf576144bf614588565b500390565b600067ffffffffffffffff838116908316818110156144e5576144e5614588565b039392505050565b80516020808301519190811015614510578060200360080260020a600003821691505b50919050565b60005b83811015614531578181015183820152602001614519565b83811115612ca15750506000910152565b60008161455157614551614588565b506000190190565b600060001982141561456d5761456d614588565b5060010190565b600082614583576145836145a1565b500690565b60e060020a634e487b7102600052601160045260246000fd5b60e060020a634e487b7102600052601260045260246000fd5b60e060020a634e487b7102600052603160045260246000fd5b60e060020a634e487b7102600052603260045260246000fd5b60e060020a634e487b7102600052604160045260246000fd5b813561461081614664565b8154600160a060020a031916600160a060020a03821617825550602082013561463881614664565b600182018054600160a060020a031916600160a060020a03831617905550604082013560028201555050565b600160a060020a0381168114610bd657600080fd5b8015158114610bd657600080fdfe077a1d526a4ce8a773632ab13b4fbbf1fcc954c3dab26cd27ea0e2a6750da5d7a49807205ce4d355092ef5a8a18f56e8913cf4a201fbe287825b095693c21775a264697066735822122006f3cf61274e50953031ee40417807cb8539c41896bceccece41a3dffafb27ad64736f6c63430008060033",
  "devdoc": {
    "kind": "dev",
    "methods": {
      "getRoleAdmin(bytes32)": {
        "details": "Returns the admin role that controls `role`. See {grantRole} and {revokeRole}. To change a role's admin, use {_setRoleAdmin}."
      },
      "grantRole(bytes32,address)": {
        "details": "Grants `role` to `account`. If `account` had not been already granted `role`, emits a {RoleGranted} event. Requirements: - the caller must have ``role``'s admin role."
      },
      "hasRole(bytes32,address)": {
        "details": "Returns `true` if `account` has been granted `role`."
      },
      "paused()": {
        "details": "Returns true if the contract is paused, and false otherwise."
      },
      "renounceRole(bytes32,address)": {
        "details": "Revokes `role` from the calling account. Roles are often managed via {grantRole} and {revokeRole}: this function's purpose is to provide a mechanism for accounts to lose their privileges if they are compromised (such as when a trusted device is misplaced). If the calling account had been granted `role`, emits a {RoleRevoked} event. Requirements: - the caller must be `account`."
      },
      "revokeRole(bytes32,address)": {
        "details": "Revokes `role` from `account`. If `account` had been granted `role`, emits a {RoleRevoked} event. Requirements: - the caller must have ``role``'s admin role."
      },
      "supportsInterface(bytes4)": {
        "details": "See {IERC165-supportsInterface}."
      },
      "withdraw(address,address,uint256,bool,bytes,uint256,uint256)": {
        "params": {
          "bridgeFee": "Amount (in native coins), payed as bridge earnings",
          "feeSignature": "Signature signed by relay that confirms that the fee values are valid",
          "transferFee": "Amount (in native coins), payed to compensate gas fees in side network"
        }
      },
      "wrapWithdraw(address,bytes,uint256,uint256)": {
        "params": {
          "bridgeFee": "Amount (in native coins), payed as bridge earnings",
          "feeSignature": "Signature signed by relay that confirms that the fee values are valid",
          "toAddress": "Address in side network that will receive the tokens",
          "transferFee": "Amount (in native coins), payed to compensate gas fees in side network"
        }
      }
    },
    "version": 1
  },
  "userdoc": {
    "kind": "user",
    "methods": {},
    "version": 1
  },
  "storageLayout": {
    "storage": [
      {
        "astId": 413,
        "contract": "contracts/networks/ETH_EthBridge.sol:ETH_EthBridge",
        "label": "_initialized",
        "offset": 0,
        "slot": "0",
        "type": "t_bool"
      },
      {
        "astId": 416,
        "contract": "contracts/networks/ETH_EthBridge.sol:ETH_EthBridge",
        "label": "_initializing",
        "offset": 1,
        "slot": "0",
        "type": "t_bool"
      },
      {
        "astId": 609,
        "contract": "contracts/networks/ETH_EthBridge.sol:ETH_EthBridge",
        "label": "__gap",
        "offset": 0,
        "slot": "1",
        "type": "t_array(t_uint256)50_storage"
      },
      {
        "astId": 858,
        "contract": "contracts/networks/ETH_EthBridge.sol:ETH_EthBridge",
        "label": "__gap",
        "offset": 0,
        "slot": "51",
        "type": "t_array(t_uint256)50_storage"
      },
      {
        "astId": 48,
        "contract": "contracts/networks/ETH_EthBridge.sol:ETH_EthBridge",
        "label": "_roles",
        "offset": 0,
        "slot": "101",
        "type": "t_mapping(t_bytes32,t_struct(RoleData)43_storage)"
      },
      {
        "astId": 333,
        "contract": "contracts/networks/ETH_EthBridge.sol:ETH_EthBridge",
        "label": "__gap",
        "offset": 0,
        "slot": "102",
        "type": "t_array(t_uint256)49_storage"
      },
      {
        "astId": 474,
        "contract": "contracts/networks/ETH_EthBridge.sol:ETH_EthBridge",
        "label": "_paused",
        "offset": 0,
        "slot": "151",
        "type": "t_bool"
      },
      {
        "astId": 565,
        "contract": "contracts/networks/ETH_EthBridge.sol:ETH_EthBridge",
        "label": "__gap",
        "offset": 0,
        "slot": "152",
        "type": "t_array(t_uint256)49_storage"
      },
      {
        "astId": 6812,
        "contract": "contracts/networks/ETH_EthBridge.sol:ETH_EthBridge",
        "label": "signatureFeeCheckNumber",
        "offset": 0,
        "slot": "201",
        "type": "t_uint256"
      },
      {
        "astId": 6816,
        "contract": "contracts/networks/ETH_EthBridge.sol:ETH_EthBridge",
        "label": "queue",
        "offset": 0,
        "slot": "202",
        "type": "t_array(t_struct(Transfer)7894_storage)dyn_storage"
      },
      {
        "astId": 6821,
        "contract": "contracts/networks/ETH_EthBridge.sol:ETH_EthBridge",
        "label": "lockedTransfers",
        "offset": 0,
        "slot": "203",
        "type": "t_mapping(t_uint256,t_struct(LockedTransfers)7911_storage)"
      },
      {
        "astId": 6823,
        "contract": "contracts/networks/ETH_EthBridge.sol:ETH_EthBridge",
        "label": "oldestLockedEventId",
        "offset": 0,
        "slot": "204",
        "type": "t_uint256"
      },
      {
        "astId": 6827,
        "contract": "contracts/networks/ETH_EthBridge.sol:ETH_EthBridge",
        "label": "tokenAddresses",
        "offset": 0,
        "slot": "205",
        "type": "t_mapping(t_address,t_address)"
      },
      {
        "astId": 6829,
        "contract": "contracts/networks/ETH_EthBridge.sol:ETH_EthBridge",
        "label": "wrapperAddress",
        "offset": 0,
        "slot": "206",
        "type": "t_address"
      },
      {
        "astId": 6831,
        "contract": "contracts/networks/ETH_EthBridge.sol:ETH_EthBridge",
        "label": "transferFeeRecipient",
        "offset": 0,
        "slot": "207",
        "type": "t_address_payable"
      },
      {
        "astId": 6833,
        "contract": "contracts/networks/ETH_EthBridge.sol:ETH_EthBridge",
        "label": "bridgeFeeRecipient",
        "offset": 0,
        "slot": "208",
        "type": "t_address_payable"
      },
      {
        "astId": 6835,
        "contract": "contracts/networks/ETH_EthBridge.sol:ETH_EthBridge",
        "label": "sideBridgeAddress",
        "offset": 0,
        "slot": "209",
        "type": "t_address"
      },
      {
        "astId": 6837,
        "contract": "contracts/networks/ETH_EthBridge.sol:ETH_EthBridge",
        "label": "minSafetyBlocks",
        "offset": 0,
        "slot": "210",
        "type": "t_uint256"
      },
      {
        "astId": 6839,
        "contract": "contracts/networks/ETH_EthBridge.sol:ETH_EthBridge",
        "label": "timeframeSeconds",
        "offset": 0,
        "slot": "211",
        "type": "t_uint256"
      },
      {
        "astId": 6841,
        "contract": "contracts/networks/ETH_EthBridge.sol:ETH_EthBridge",
        "label": "lockTime",
        "offset": 0,
        "slot": "212",
        "type": "t_uint256"
      },
      {
        "astId": 6843,
        "contract": "contracts/networks/ETH_EthBridge.sol:ETH_EthBridge",
        "label": "inputEventId",
        "offset": 0,
        "slot": "213",
        "type": "t_uint256"
      },
      {
        "astId": 6845,
        "contract": "contracts/networks/ETH_EthBridge.sol:ETH_EthBridge",
        "label": "outputEventId",
        "offset": 0,
        "slot": "214",
        "type": "t_uint256"
      },
      {
        "astId": 6847,
        "contract": "contracts/networks/ETH_EthBridge.sol:ETH_EthBridge",
        "label": "lastTimeframe",
        "offset": 0,
        "slot": "215",
        "type": "t_uint256"
      },
      {
        "astId": 7884,
        "contract": "contracts/networks/ETH_EthBridge.sol:ETH_EthBridge",
        "label": "__gap",
        "offset": 0,
        "slot": "216",
        "type": "t_array(t_uint256)15_storage"
      },
      {
        "astId": 2180,
        "contract": "contracts/networks/ETH_EthBridge.sol:ETH_EthBridge",
        "label": "validatorSet",
        "offset": 0,
        "slot": "231",
        "type": "t_array(t_address)dyn_storage"
      },
      {
        "astId": 2182,
        "contract": "contracts/networks/ETH_EthBridge.sol:ETH_EthBridge",
        "label": "validatorSetAddress",
        "offset": 0,
        "slot": "232",
        "type": "t_address"
      },
      {
        "astId": 2184,
        "contract": "contracts/networks/ETH_EthBridge.sol:ETH_EthBridge",
        "label": "lastProcessedBlock",
        "offset": 0,
        "slot": "233",
        "type": "t_bytes32"
      },
      {
        "astId": 2186,
        "contract": "contracts/networks/ETH_EthBridge.sol:ETH_EthBridge",
        "label": "minSafetyBlocksValidators",
        "offset": 0,
        "slot": "234",
        "type": "t_uint256"
      },
      {
        "astId": 2689,
        "contract": "contracts/networks/ETH_EthBridge.sol:ETH_EthBridge",
        "label": "___gap",
        "offset": 0,
        "slot": "235",
        "type": "t_array(t_uint256)15_storage"
      }
    ],
    "types": {
      "t_address": {
        "encoding": "inplace",
        "label": "address",
        "numberOfBytes": "20"
      },
      "t_address_payable": {
        "encoding": "inplace",
        "label": "address payable",
        "numberOfBytes": "20"
      },
      "t_array(t_address)dyn_storage": {
        "base": "t_address",
        "encoding": "dynamic_array",
        "label": "address[]",
        "numberOfBytes": "32"
      },
      "t_array(t_struct(Transfer)7894_storage)dyn_storage": {
        "base": "t_struct(Transfer)7894_storage",
        "encoding": "dynamic_array",
        "label": "struct CommonStructs.Transfer[]",
        "numberOfBytes": "32"
      },
      "t_array(t_uint256)15_storage": {
        "base": "t_uint256",
        "encoding": "inplace",
        "label": "uint256[15]",
        "numberOfBytes": "480"
      },
      "t_array(t_uint256)49_storage": {
        "base": "t_uint256",
        "encoding": "inplace",
        "label": "uint256[49]",
        "numberOfBytes": "1568"
      },
      "t_array(t_uint256)50_storage": {
        "base": "t_uint256",
        "encoding": "inplace",
        "label": "uint256[50]",
        "numberOfBytes": "1600"
      },
      "t_bool": {
        "encoding": "inplace",
        "label": "bool",
        "numberOfBytes": "1"
      },
      "t_bytes32": {
        "encoding": "inplace",
        "label": "bytes32",
        "numberOfBytes": "32"
      },
      "t_mapping(t_address,t_address)": {
        "encoding": "mapping",
        "key": "t_address",
        "label": "mapping(address => address)",
        "numberOfBytes": "32",
        "value": "t_address"
      },
      "t_mapping(t_address,t_bool)": {
        "encoding": "mapping",
        "key": "t_address",
        "label": "mapping(address => bool)",
        "numberOfBytes": "32",
        "value": "t_bool"
      },
      "t_mapping(t_bytes32,t_struct(RoleData)43_storage)": {
        "encoding": "mapping",
        "key": "t_bytes32",
        "label": "mapping(bytes32 => struct AccessControlUpgradeable.RoleData)",
        "numberOfBytes": "32",
        "value": "t_struct(RoleData)43_storage"
      },
      "t_mapping(t_uint256,t_struct(LockedTransfers)7911_storage)": {
        "encoding": "mapping",
        "key": "t_uint256",
        "label": "mapping(uint256 => struct CommonStructs.LockedTransfers)",
        "numberOfBytes": "32",
        "value": "t_struct(LockedTransfers)7911_storage"
      },
      "t_struct(LockedTransfers)7911_storage": {
        "encoding": "inplace",
        "label": "struct CommonStructs.LockedTransfers",
        "members": [
          {
            "astId": 7908,
            "contract": "contracts/networks/ETH_EthBridge.sol:ETH_EthBridge",
            "label": "transfers",
            "offset": 0,
            "slot": "0",
            "type": "t_array(t_struct(Transfer)7894_storage)dyn_storage"
          },
          {
            "astId": 7910,
            "contract": "contracts/networks/ETH_EthBridge.sol:ETH_EthBridge",
            "label": "endTimestamp",
            "offset": 0,
            "slot": "1",
            "type": "t_uint256"
          }
        ],
        "numberOfBytes": "64"
      },
      "t_struct(RoleData)43_storage": {
        "encoding": "inplace",
        "label": "struct AccessControlUpgradeable.RoleData",
        "members": [
          {
            "astId": 40,
            "contract": "contracts/networks/ETH_EthBridge.sol:ETH_EthBridge",
            "label": "members",
            "offset": 0,
            "slot": "0",
            "type": "t_mapping(t_address,t_bool)"
          },
          {
            "astId": 42,
            "contract": "contracts/networks/ETH_EthBridge.sol:ETH_EthBridge",
            "label": "adminRole",
            "offset": 0,
            "slot": "1",
            "type": "t_bytes32"
          }
        ],
        "numberOfBytes": "64"
      },
      "t_struct(Transfer)7894_storage": {
        "encoding": "inplace",
        "label": "struct CommonStructs.Transfer",
        "members": [
          {
            "astId": 7889,
            "contract": "contracts/networks/ETH_EthBridge.sol:ETH_EthBridge",
            "label": "tokenAddress",
            "offset": 0,
            "slot": "0",
            "type": "t_address"
          },
          {
            "astId": 7891,
            "contract": "contracts/networks/ETH_EthBridge.sol:ETH_EthBridge",
            "label": "toAddress",
            "offset": 0,
            "slot": "1",
            "type": "t_address"
          },
          {
            "astId": 7893,
            "contract": "contracts/networks/ETH_EthBridge.sol:ETH_EthBridge",
            "label": "amount",
            "offset": 0,
            "slot": "2",
            "type": "t_uint256"
          }
        ],
        "numberOfBytes": "96"
      },
      "t_uint256": {
        "encoding": "inplace",
        "label": "uint256",
        "numberOfBytes": "32"
      }
    }
  }
}