{
  "address": "0x5e67aa0723a8263d60285172f687d73cc4db7413",
  "abi": [
    {
      "anonymous": false,
      "inputs": [
        {
          "indexed": false,
          "internalType": "address",
          "name": "account",
          "type": "address"
        }
      ],
      "name": "Paused",
      "type": "event"
    },
    {
      "anonymous": false,
      "inputs": [
        {
          "indexed": true,
          "internalType": "bytes32",
          "name": "role",
          "type": "bytes32"
        },
        {
          "indexed": true,
          "internalType": "bytes32",
          "name": "previousAdminRole",
          "type": "bytes32"
        },
        {
          "indexed": true,
          "internalType": "bytes32",
          "name": "newAdminRole",
          "type": "bytes32"
        }
      ],
      "name": "RoleAdminChanged",
      "type": "event"
    },
    {
      "anonymous": false,
      "inputs": [
        {
          "indexed": true,
          "internalType": "bytes32",
          "name": "role",
          "type": "bytes32"
        },
        {
          "indexed": true,
          "internalType": "address",
          "name": "account",
          "type": "address"
        },
        {
          "indexed": true,
          "internalType": "address",
          "name": "sender",
          "type": "address"
        }
      ],
      "name": "RoleGranted",
      "type": "event"
    },
    {
      "anonymous": false,
      "inputs": [
        {
          "indexed": true,
          "internalType": "bytes32",
          "name": "role",
          "type": "bytes32"
        },
        {
          "indexed": true,
          "internalType": "address",
          "name": "account",
          "type": "address"
        },
        {
          "indexed": true,
          "internalType": "address",
          "name": "sender",
          "type": "address"
        }
      ],
      "name": "RoleRevoked",
      "type": "event"
    },
    {
      "anonymous": false,
      "inputs": [
        {
          "indexed": true,
          "internalType": "uint256",
          "name": "eventId",
          "type": "uint256"
        },
        {
          "components": [
            {
              "internalType": "address",
              "name": "tokenAddress",
              "type": "address"
            },
            {
              "internalType": "address",
              "name": "toAddress",
              "type": "address"
            },
            {
              "internalType": "uint256",
              "name": "amount",
              "type": "uint256"
            }
          ],
          "indexed": false,
          "internalType": "struct CommonStructs.Transfer[]",
          "name": "queue",
          "type": "tuple[]"
        }
      ],
      "name": "Transfer",
      "type": "event"
    },
    {
      "anonymous": false,
      "inputs": [
        {
          "indexed": true,
          "internalType": "uint256",
          "name": "eventId",
          "type": "uint256"
        }
      ],
      "name": "TransferFinish",
      "type": "event"
    },
    {
      "anonymous": false,
      "inputs": [
        {
          "indexed": true,
          "internalType": "uint256",
          "name": "eventId",
          "type": "uint256"
        }
      ],
      "name": "TransferSubmit",
      "type": "event"
    },
    {
      "anonymous": false,
      "inputs": [
        {
          "indexed": false,
          "internalType": "address",
          "name": "account",
          "type": "address"
        }
      ],
      "name": "Unpaused",
      "type": "event"
    },
    {
      "anonymous": false,
      "inputs": [
        {
          "indexed": true,
          "internalType": "address",
          "name": "from",
          "type": "address"
        },
        {
          "indexed": false,
          "internalType": "uint256",
          "name": "eventId",
          "type": "uint256"
        },
        {
          "indexed": false,
          "internalType": "address",
          "name": "tokenFrom",
          "type": "address"
        },
        {
          "indexed": false,
          "internalType": "address",
          "name": "tokenTo",
          "type": "address"
        },
        {
          "indexed": false,
          "internalType": "uint256",
          "name": "amount",
          "type": "uint256"
        },
        {
          "indexed": false,
          "internalType": "uint256",
          "name": "transferFeeAmount",
          "type": "uint256"
        },
        {
          "indexed": false,
          "internalType": "uint256",
          "name": "bridgeFeeAmount",
          "type": "uint256"
        }
      ],
      "name": "Withdraw",
      "type": "event"
    },
    {
      "inputs": [],
      "name": "ADMIN_ROLE",
      "outputs": [
        {
          "internalType": "bytes32",
          "name": "",
          "type": "bytes32"
        }
      ],
      "stateMutability": "view",
      "type": "function"
    },
    {
      "inputs": [],
      "name": "DEFAULT_ADMIN_ROLE",
      "outputs": [
        {
          "internalType": "bytes32",
          "name": "",
          "type": "bytes32"
        }
      ],
      "stateMutability": "view",
      "type": "function"
    },
    {
      "inputs": [],
      "name": "RELAY_ROLE",
      "outputs": [
        {
          "internalType": "bytes32",
          "name": "",
          "type": "bytes32"
        }
      ],
      "stateMutability": "view",
      "type": "function"
    },
    {
      "inputs": [
        {
          "internalType": "address payable",
          "name": "feeRecipient_",
          "type": "address"
        }
      ],
      "name": "changeBridgeFeeRecipient",
      "outputs": [],
      "stateMutability": "nonpayable",
      "type": "function"
    },
    {
      "inputs": [
        {
          "internalType": "uint256",
          "name": "lockTime_",
          "type": "uint256"
        }
      ],
      "name": "changeLockTime",
      "outputs": [],
      "stateMutability": "nonpayable",
      "type": "function"
    },
    {
      "inputs": [
        {
          "internalType": "uint256",
          "name": "minSafetyBlocks_",
          "type": "uint256"
        }
      ],
      "name": "changeMinSafetyBlocks",
      "outputs": [],
      "stateMutability": "nonpayable",
      "type": "function"
    },
    {
      "inputs": [
        {
          "internalType": "uint256",
          "name": "signatureFeeCheckNumber_",
          "type": "uint256"
        }
      ],
      "name": "changeSignatureFeeCheckNumber",
      "outputs": [],
      "stateMutability": "nonpayable",
      "type": "function"
    },
    {
      "inputs": [
        {
          "internalType": "uint256",
          "name": "timeframeSeconds_",
          "type": "uint256"
        }
      ],
      "name": "changeTimeframeSeconds",
      "outputs": [],
      "stateMutability": "nonpayable",
      "type": "function"
    },
    {
      "inputs": [
        {
          "internalType": "address payable",
          "name": "feeRecipient_",
          "type": "address"
        }
      ],
      "name": "changeTransferFeeRecipient",
      "outputs": [],
      "stateMutability": "nonpayable",
      "type": "function"
    },
    {
      "inputs": [
        {
          "internalType": "uint256",
          "name": "eventId",
          "type": "uint256"
        }
      ],
      "name": "getLockedTransfers",
      "outputs": [
        {
          "components": [
            {
              "components": [
                {
                  "internalType": "address",
                  "name": "tokenAddress",
                  "type": "address"
                },
                {
                  "internalType": "address",
                  "name": "toAddress",
                  "type": "address"
                },
                {
                  "internalType": "uint256",
                  "name": "amount",
                  "type": "uint256"
                }
              ],
              "internalType": "struct CommonStructs.Transfer[]",
              "name": "transfers",
              "type": "tuple[]"
            },
            {
              "internalType": "uint256",
              "name": "endTimestamp",
              "type": "uint256"
            }
          ],
          "internalType": "struct CommonStructs.LockedTransfers",
          "name": "",
          "type": "tuple"
        }
      ],
      "stateMutability": "view",
      "type": "function"
    },
    {
      "inputs": [
        {
          "internalType": "bytes32",
          "name": "role",
          "type": "bytes32"
        }
      ],
      "name": "getRoleAdmin",
      "outputs": [
        {
          "internalType": "bytes32",
          "name": "",
          "type": "bytes32"
        }
      ],
      "stateMutability": "view",
      "type": "function"
    },
    {
      "inputs": [],
      "name": "getValidatorSet",
      "outputs": [
        {
          "internalType": "address[]",
          "name": "",
          "type": "address[]"
        }
      ],
      "stateMutability": "view",
      "type": "function"
    },
    {
      "inputs": [
        {
          "internalType": "bytes32",
          "name": "role",
          "type": "bytes32"
        },
        {
          "internalType": "address",
          "name": "account",
          "type": "address"
        }
      ],
      "name": "grantRole",
      "outputs": [],
      "stateMutability": "nonpayable",
      "type": "function"
    },
    {
      "inputs": [
        {
          "internalType": "bytes32",
          "name": "role",
          "type": "bytes32"
        },
        {
          "internalType": "address",
          "name": "account",
          "type": "address"
        }
      ],
      "name": "hasRole",
      "outputs": [
        {
          "internalType": "bool",
          "name": "",
          "type": "bool"
        }
      ],
      "stateMutability": "view",
      "type": "function"
    },
    {
      "inputs": [
        {
          "components": [
            {
              "internalType": "address",
              "name": "sideBridgeAddress",
              "type": "address"
            },
            {
              "internalType": "address",
              "name": "adminAddress",
              "type": "address"
            },
            {
              "internalType": "address",
              "name": "relayAddress",
              "type": "address"
            },
            {
              "internalType": "address",
              "name": "wrappingTokenAddress",
              "type": "address"
            },
            {
              "internalType": "address[]",
              "name": "tokenThisAddresses",
              "type": "address[]"
            },
            {
              "internalType": "address[]",
              "name": "tokenSideAddresses",
              "type": "address[]"
            },
            {
              "internalType": "address payable",
              "name": "transferFeeRecipient",
              "type": "address"
            },
            {
              "internalType": "address payable",
              "name": "bridgeFeeRecipient",
              "type": "address"
            },
            {
              "internalType": "uint256",
              "name": "timeframeSeconds",
              "type": "uint256"
            },
            {
              "internalType": "uint256",
              "name": "lockTime",
              "type": "uint256"
            },
            {
              "internalType": "uint256",
              "name": "minSafetyBlocks",
              "type": "uint256"
            }
          ],
          "internalType": "struct CommonStructs.ConstructorArgs",
          "name": "args",
          "type": "tuple"
        },
        {
          "internalType": "address[]",
          "name": "initialValidators",
          "type": "address[]"
        },
        {
          "internalType": "address",
          "name": "validatorSetAddress",
          "type": "address"
        },
        {
          "internalType": "bytes32",
          "name": "lastProcessedBlock",
          "type": "bytes32"
        }
      ],
      "name": "initialize",
      "outputs": [],
      "stateMutability": "nonpayable",
      "type": "function"
    },
    {
      "inputs": [],
      "name": "inputEventId",
      "outputs": [
        {
          "internalType": "uint256",
          "name": "",
          "type": "uint256"
        }
      ],
      "stateMutability": "view",
      "type": "function"
    },
    {
      "inputs": [],
      "name": "isQueueEmpty",
      "outputs": [
        {
          "internalType": "bool",
          "name": "",
          "type": "bool"
        }
      ],
      "stateMutability": "view",
      "type": "function"
    },
    {
      "inputs": [],
      "name": "lastProcessedBlock",
      "outputs": [
        {
          "internalType": "bytes32",
          "name": "",
          "type": "bytes32"
        }
      ],
      "stateMutability": "view",
      "type": "function"
    },
    {
      "inputs": [],
      "name": "lastTimeframe",
      "outputs": [
        {
          "internalType": "uint256",
          "name": "",
          "type": "uint256"
        }
      ],
      "stateMutability": "view",
      "type": "function"
    },
    {
      "inputs": [],
      "name": "lockTime",
      "outputs": [
        {
          "internalType": "uint256",
          "name": "",
          "type": "uint256"
        }
      ],
      "stateMutability": "view",
      "type": "function"
    },
    {
      "inputs": [
        {
          "internalType": "uint256",
          "name": "",
          "type": "uint256"
        }
      ],
      "name": "lockedTransfers",
      "outputs": [
        {
          "internalType": "uint256",
          "name": "endTimestamp",
          "type": "uint256"
        }
      ],
      "stateMutability": "view",
      "type": "function"
    },
    {
      "inputs": [],
      "name": "minSafetyBlocks",
      "outputs": [
        {
          "internalType": "uint256",
          "name": "",
          "type": "uint256"
        }
      ],
      "stateMutability": "view",
      "type": "function"
    },
    {
      "inputs": [],
      "name": "oldestLockedEventId",
      "outputs": [
        {
          "internalType": "uint256",
          "name": "",
          "type": "uint256"
        }
      ],
      "stateMutability": "view",
      "type": "function"
    },
    {
      "inputs": [],
      "name": "pause",
      "outputs": [],
      "stateMutability": "nonpayable",
      "type": "function"
    },
    {
      "inputs": [],
      "name": "paused",
      "outputs": [
        {
          "internalType": "bool",
          "name": "",
          "type": "bool"
        }
      ],
      "stateMutability": "view",
      "type": "function"
    },
    {
      "inputs": [
        {
          "internalType": "uint256",
          "name": "eventId",
          "type": "uint256"
        }
      ],
      "name": "removeLockedTransfers",
      "outputs": [],
      "stateMutability": "nonpayable",
      "type": "function"
    },
    {
      "inputs": [
        {
          "internalType": "bytes32",
          "name": "role",
          "type": "bytes32"
        },
        {
          "internalType": "address",
          "name": "account",
          "type": "address"
        }
      ],
      "name": "renounceRole",
      "outputs": [],
      "stateMutability": "nonpayable",
      "type": "function"
    },
    {
      "inputs": [
        {
          "internalType": "bytes32",
          "name": "role",
          "type": "bytes32"
        },
        {
          "internalType": "address",
          "name": "account",
          "type": "address"
        }
      ],
      "name": "revokeRole",
      "outputs": [],
      "stateMutability": "nonpayable",
      "type": "function"
    },
    {
      "inputs": [],
      "name": "sideBridgeAddress",
      "outputs": [
        {
          "internalType": "address",
          "name": "",
          "type": "address"
        }
      ],
      "stateMutability": "view",
      "type": "function"
    },
    {
      "inputs": [
        {
          "components": [
            {
              "components": [
                {
                  "internalType": "bytes3",
                  "name": "p0Seal",
                  "type": "bytes3"
                },
                {
                  "internalType": "bytes3",
                  "name": "p0Bare",
                  "type": "bytes3"
                },
                {
                  "internalType": "bytes32",
                  "name": "parentHash",
                  "type": "bytes32"
                },
                {
                  "internalType": "bytes",
                  "name": "p2",
                  "type": "bytes"
                },
                {
                  "internalType": "bytes32",
                  "name": "receiptHash",
                  "type": "bytes32"
                },
                {
                  "internalType": "bytes",
                  "name": "p3",
                  "type": "bytes"
                },
                {
                  "internalType": "bytes4",
                  "name": "step",
                  "type": "bytes4"
                },
                {
                  "internalType": "bytes",
                  "name": "signature",
                  "type": "bytes"
                },
                {
                  "internalType": "uint64",
                  "name": "finalizedVs",
                  "type": "uint64"
                }
              ],
              "internalType": "struct CheckAura.BlockAura[]",
              "name": "blocks",
              "type": "tuple[]"
            },
            {
              "components": [
                {
                  "internalType": "bytes[]",
                  "name": "receiptProof",
                  "type": "bytes[]"
                },
                {
                  "internalType": "uint256",
                  "name": "eventId",
                  "type": "uint256"
                },
                {
                  "components": [
                    {
                      "internalType": "address",
                      "name": "tokenAddress",
                      "type": "address"
                    },
                    {
                      "internalType": "address",
                      "name": "toAddress",
                      "type": "address"
                    },
                    {
                      "internalType": "uint256",
                      "name": "amount",
                      "type": "uint256"
                    }
                  ],
                  "internalType": "struct CommonStructs.Transfer[]",
                  "name": "transfers",
                  "type": "tuple[]"
                }
              ],
              "internalType": "struct CommonStructs.TransferProof",
              "name": "transfer",
              "type": "tuple"
            },
            {
              "components": [
                {
                  "internalType": "bytes[]",
                  "name": "receiptProof",
                  "type": "bytes[]"
                },
                {
                  "components": [
                    {
                      "internalType": "address",
                      "name": "deltaAddress",
                      "type": "address"
                    },
                    {
                      "internalType": "int64",
                      "name": "deltaIndex",
                      "type": "int64"
                    }
                  ],
                  "internalType": "struct CheckAura.ValidatorSetChange[]",
                  "name": "changes",
                  "type": "tuple[]"
                }
              ],
              "internalType": "struct CheckAura.ValidatorSetProof[]",
              "name": "vsChanges",
              "type": "tuple[]"
            },
            {
              "internalType": "uint64",
              "name": "transferEventBlock",
              "type": "uint64"
            }
          ],
          "internalType": "struct CheckAura.AuraProof",
          "name": "auraProof",
          "type": "tuple"
        }
      ],
      "name": "submitTransferAura",
      "outputs": [],
      "stateMutability": "nonpayable",
      "type": "function"
    },
    {
      "inputs": [
        {
          "internalType": "bytes4",
          "name": "interfaceId",
          "type": "bytes4"
        }
      ],
      "name": "supportsInterface",
      "outputs": [
        {
          "internalType": "bool",
          "name": "",
          "type": "bool"
        }
      ],
      "stateMutability": "view",
      "type": "function"
    },
    {
      "inputs": [],
      "name": "timeframeSeconds",
      "outputs": [
        {
          "internalType": "uint256",
          "name": "",
          "type": "uint256"
        }
      ],
      "stateMutability": "view",
      "type": "function"
    },
    {
      "inputs": [
        {
          "internalType": "address",
          "name": "",
          "type": "address"
        }
      ],
      "name": "tokenAddresses",
      "outputs": [
        {
          "internalType": "address",
          "name": "",
          "type": "address"
        }
      ],
      "stateMutability": "view",
      "type": "function"
    },
    {
      "inputs": [
        {
          "internalType": "address",
          "name": "tokenThisAddress",
          "type": "address"
        },
        {
          "internalType": "address",
          "name": "tokenSideAddress",
          "type": "address"
        }
      ],
      "name": "tokensAdd",
      "outputs": [],
      "stateMutability": "nonpayable",
      "type": "function"
    },
    {
      "inputs": [
        {
          "internalType": "address[]",
          "name": "tokenThisAddresses",
          "type": "address[]"
        },
        {
          "internalType": "address[]",
          "name": "tokenSideAddresses",
          "type": "address[]"
        }
      ],
      "name": "tokensAddBatch",
      "outputs": [],
      "stateMutability": "nonpayable",
      "type": "function"
    },
    {
      "inputs": [
        {
          "internalType": "address",
          "name": "tokenThisAddress",
          "type": "address"
        }
      ],
      "name": "tokensRemove",
      "outputs": [],
      "stateMutability": "nonpayable",
      "type": "function"
    },
    {
      "inputs": [
        {
          "internalType": "address[]",
          "name": "tokenThisAddresses",
          "type": "address[]"
        }
      ],
      "name": "tokensRemoveBatch",
      "outputs": [],
      "stateMutability": "nonpayable",
      "type": "function"
    },
    {
      "inputs": [],
      "name": "triggerTransfers",
      "outputs": [],
      "stateMutability": "nonpayable",
      "type": "function"
    },
    {
      "inputs": [
        {
          "internalType": "uint256",
          "name": "eventId",
          "type": "uint256"
        }
      ],
      "name": "unlockTransfers",
      "outputs": [],
      "stateMutability": "nonpayable",
      "type": "function"
    },
    {
      "inputs": [],
      "name": "unlockTransfersBatch",
      "outputs": [],
      "stateMutability": "nonpayable",
      "type": "function"
    },
    {
      "inputs": [],
      "name": "unpause",
      "outputs": [],
      "stateMutability": "nonpayable",
      "type": "function"
    },
    {
      "inputs": [
        {
          "internalType": "uint256",
          "name": "",
          "type": "uint256"
        }
      ],
      "name": "validatorSet",
      "outputs": [
        {
          "internalType": "address",
          "name": "",
          "type": "address"
        }
      ],
      "stateMutability": "view",
      "type": "function"
    },
    {
      "inputs": [
        {
          "internalType": "address",
          "name": "tokenThisAddress",
          "type": "address"
        },
        {
          "internalType": "address",
          "name": "toAddress",
          "type": "address"
        },
        {
          "internalType": "uint256",
          "name": "amount",
          "type": "uint256"
        },
        {
          "internalType": "bool",
          "name": "unwrapSide",
          "type": "bool"
        },
        {
          "internalType": "bytes",
          "name": "feeSignature",
          "type": "bytes"
        },
        {
          "internalType": "uint256",
          "name": "transferFee",
          "type": "uint256"
        },
        {
          "internalType": "uint256",
          "name": "bridgeFee",
          "type": "uint256"
        }
      ],
      "name": "withdraw",
      "outputs": [],
      "stateMutability": "payable",
      "type": "function"
    },
    {
      "inputs": [
        {
          "internalType": "address",
          "name": "toAddress",
          "type": "address"
        },
        {
          "internalType": "bytes",
          "name": "feeSignature",
          "type": "bytes"
        },
        {
          "internalType": "uint256",
          "name": "transferFee",
          "type": "uint256"
        },
        {
          "internalType": "uint256",
          "name": "bridgeFee",
          "type": "uint256"
        }
      ],
      "name": "wrapWithdraw",
      "outputs": [],
      "stateMutability": "payable",
      "type": "function"
    },
    {
      "inputs": [],
      "name": "wrapperAddress",
      "outputs": [
        {
          "internalType": "address",
          "name": "",
          "type": "address"
        }
      ],
      "stateMutability": "view",
      "type": "function"
    },
    {
      "stateMutability": "payable",
      "type": "receive"
    }
  ],
  "transactionHash": "0xda8ea969a3888b1050c7a3a9e177778baaa2e824310ee0d36b90f79233d8294b",
  "args": [],
  "numDeployments": 1,
  "solcInputHash": "be252b79d41589914c28e06918e5a889",
  "bytecode": "0x608060405234801561001057600080fd5b50614634806100206000396000f3fe60806040526004361061027a5760003560e060020a90048063853890ae11610153578063b87330e9116100c5578063e64808f31161007e578063e64808f314610750578063f33fe10f14610770578063f700558714610790578063f862b7eb146107b0578063f8b74433146107d0578063fd5d2ef3146107e357600080fd5b8063b87330e914610695578063ba8bbbe0146106b5578063baeebe75146106cb578063cf331250146106e1578063d547741f14610703578063e31be0871461072357600080fd5b806391d148541161011757806391d14854146105de578063924cf6e0146105fe57806396cf52271461061457806399b5bb6414610634578063a217fddf1461064a578063b6d3385e1461065f57600080fd5b8063853890ae1461056057806386d7679e146105805780638ac1f86f146105965780638e5df9c7146105ab57806391c5bc0a146105cb57600080fd5b806336568abe116101ec5780635249a705116101b05780635249a705146104a45780635c975abb146104c4578063746b5c42146104dc57806375b238fc146104f15780637df8b802146105135780638456cb591461054b57600080fd5b806336568abe146103ff5780633928b2961461041f5780633f4ba83a1461043f57806342180fb8146104545780634a1856de1461047457600080fd5b806312c5efb81161023e57806312c5efb814610343578063248a9ca3146103635780632bbba847146103935780632f2ff15d146103a9578063331a891a146103c957806333de61d2146103e957600080fd5b806301ffc9a71461028657806304421823146102bb57806309fce356146102eb5780630d6680871461030d578063119b980d1461032357600080fd5b3661028157005b600080fd5b34801561029257600080fd5b506102a66102a1366004613a3d565b610803565b60405190151581526020015b60405180910390f35b3480156102c757600080fd5b506102dd6000805160206145bf83398151915281565b6040519081526020016102b2565b3480156102f757600080fd5b5061030b610306366004613936565b61086c565b005b34801561031957600080fd5b506102dd60d45481565b34801561032f57600080fd5b5061030b61033e366004613a8a565b610898565b34801561034f57600080fd5b5061030b61035e366004613ac5565b610988565b34801561036f57600080fd5b506102dd61037e3660046139ff565b60009081526065602052604090206001015490565b34801561039f57600080fd5b5060ca54156102a6565b3480156103b557600080fd5b5061030b6103c4366004613a18565b610a11565b3480156103d557600080fd5b5061030b6103e43660046139ff565b610a3c565b3480156103f557600080fd5b506102dd60e95481565b34801561040b57600080fd5b5061030b61041a366004613a18565b610b83565b34801561042b57600080fd5b5061030b61043a3660046137a3565b610c0e565b34801561044b57600080fd5b5061030b610c4a565b34801561046057600080fd5b5061030b61046f3660046139ff565b610c6e565b34801561048057600080fd5b506102dd61048f3660046139ff565b60cb6020526000908152604090206001015481565b3480156104b057600080fd5b5061030b6104bf3660046138f4565b610cab565b3480156104d057600080fd5b5060975460ff166102a6565b3480156104e857600080fd5b5061030b610d34565b3480156104fd57600080fd5b506102dd6000805160206145df83398151915281565b34801561051f57600080fd5b5060ce5461053390600160a060020a031681565b604051600160a060020a0390911681526020016102b2565b34801561055757600080fd5b5061030b610de0565b34801561056c57600080fd5b5061030b61057b3660046137c0565b610e01565b34801561058c57600080fd5b506102dd60d75481565b3480156105a257600080fd5b5061030b610e49565b3480156105b757600080fd5b5061030b6105c63660046137a3565b610fa1565b61030b6105d936600461388d565b610fe2565b3480156105ea57600080fd5b506102a66105f9366004613a18565b611312565b34801561060a57600080fd5b506102dd60d25481565b34801561062057600080fd5b5061030b61062f3660046139ff565b61133d565b34801561064057600080fd5b506102dd60d55481565b34801561065657600080fd5b506102dd600081565b34801561066b57600080fd5b5061053361067a3660046137a3565b60cd60205260009081526040902054600160a060020a031681565b3480156106a157600080fd5b5061030b6106b03660046137a3565b61135c565b3480156106c157600080fd5b506102dd60cc5481565b3480156106d757600080fd5b506102dd60d35481565b3480156106ed57600080fd5b506106f6611398565b6040516102b29190613e8b565b34801561070f57600080fd5b5061030b61071e366004613a18565b6113fa565b34801561072f57600080fd5b5061074361073e3660046139ff565b611420565b6040516102b291906140c3565b34801561075c57600080fd5b5061053361076b3660046139ff565b6114dc565b34801561077c57600080fd5b5060d15461053390600160a060020a031681565b34801561079c57600080fd5b5061030b6107ab3660046139ff565b611506565b3480156107bc57600080fd5b5061030b6107cb3660046139ff565b611525565b61030b6107de3660046137f9565b611758565b3480156107ef57600080fd5b5061030b6107fe3660046139ff565b611bb8565b6000600160e060020a031982167f7965db0b00000000000000000000000000000000000000000000000000000000148061086657507f01ffc9a700000000000000000000000000000000000000000000000000000000600160e060020a03198316145b92915050565b6000805160206145df8339815191526108858133611bd7565b61089185858585611c3e565b5050505050565b6000805160206145bf8339815191526108b18133611bd7565b60975460ff16156108e05760405160e560020a62461bcd0281526004016108d79061402f565b60405180910390fd5b6108ed6020830183614284565b602001357f196c47048e38df7a4fe6e581c8f4f2e2ba67ac0dd45b90da756e97bd61d9dd3b60405160405180910390a261093661092d6020840184614284565b60200135611d57565b60d25460d154610950918491600160a060020a0316611dbc565b6109846109606020840184614284565b61096e90604081019061418a565b61097b6020860186614284565b602001356121c6565b5050565b600054610100900460ff16806109a1575060005460ff16155b6109c05760405160e560020a62461bcd0281526004016108d790614066565b600054610100900460ff161580156109e2576000805461ffff19166101011790555b6109eb8661225a565b6109f785858585612436565b8015610a09576000805461ff00191690555b505050505050565b600082815260656020526040902060010154610a2d8133611bd7565b610a37838361254b565b505050565b6000805160206145df833981519152610a558133611bd7565b60975460ff16610aaa5760405160e560020a62461bcd02815260206004820152601460248201527f5061757361626c653a206e6f742070617573656400000000000000000000000060448201526064016108d7565b60cc54821015610b255760405160e560020a62461bcd02815260206004820152602660248201527f6576656e744964206d757374206265203e3d206f6c646573744c6f636b65644560448201527f76656e744964000000000000000000000000000000000000000000000000000060648201526084016108d7565b600082815260cb602052604090206001015415610b7157600082815260cb6020526040812090610b55828261364a565b5060006001919091015581610b6981614490565b925050610b25565b610b7c6001836143e4565b60d5555050565b600160a060020a0381163314610c045760405160e560020a62461bcd02815260206004820152602f60248201527f416363657373436f6e74726f6c3a2063616e206f6e6c792072656e6f756e636560448201527f20726f6c657320666f722073656c66000000000000000000000000000000000060648201526084016108d7565b61098482826125d1565b6000805160206145df833981519152610c278133611bd7565b5060d08054600160a060020a031916600160a060020a0392909216919091179055565b6000805160206145df833981519152610c638133611bd7565b610c6b612638565b50565b6000805160206145df833981519152610c878133611bd7565b8160d35460d754610c989190614373565b610ca291906142c8565b60d7555060d355565b6000805160206145df833981519152610cc48133611bd7565b8160005b818110156108915760cd6000868684818110610ce657610ce661450a565b9050602002016020810190610cfb91906137a3565b600160a060020a0316815260208101919091526040016000208054600160a060020a031916905580610d2c81614490565b915050610cc8565b60ca54610d865760405160e560020a62461bcd02815260206004820152600e60248201527f517565756520697320656d70747900000000000000000000000000000000000060448201526064016108d7565b60d68054906000610d9683614490565b919050557fe15729a2f427aa4572dab35eb692c902fcbce57d41642013259c741380809ae260ca604051610dca9190613f8c565b60405180910390a2610dde60ca600061364a565b565b6000805160206145df833981519152610df98133611bd7565b610c6b6126d7565b6000805160206145df833981519152610e1a8133611bd7565b50600160a060020a03918216600090815260cd602052604090208054600160a060020a03191691909216179055565b60975460ff1615610e6f5760405160e560020a62461bcd0281526004016108d79061402f565b60cc545b600081815260cb60209081526040808320815181546060948102820185018452928101838152909391928492849190879085015b82821015610f0157600084815260209081902060408051606081018252600386029092018054600160a060020a03908116845260018083015490911684860152600290910154918301919091529083529092019101610ea7565b5050505081526020016001820154815250509050806020015160001480610f2b5750428160200151115b15610f36575060cc55565b8051610f4190612732565b600082815260cb6020526040812090610f5a828261364a565b50600060019190910181905560405183917f78ff9b3176bb0d6421590f3816e75cb15a9ffa2b7a1a028f40a3f4e029eb39f291a25080610f9981614490565b915050610e73565b6000805160206145df833981519152610fba8133611bd7565b50600160a060020a0316600090815260cd602052604090208054600160a060020a0319169055565b60ce54600160a060020a03908116600090815260cd602052604090205416806110505760405160e560020a62461bcd02815260206004820152601560248201527f556e6b6e6f776e20746f6b656e2061646472657373000000000000000000000060448201526064016108d7565b61105a82846142b0565b34116110ab5760405160e560020a62461bcd02815260206004820152601160248201527f53656e742076616c7565203c3d2066656500000000000000000000000000000060448201526064016108d7565b6000826110b885346143e4565b6110c291906143e4565b60ce549091506110df90600160a060020a031687878787866129c6565b60cf54604051600160a060020a039091169085156108fc029086906000818181858888f19350505050158015611119573d6000803e3d6000fd5b5060d054604051600160a060020a039091169084156108fc029085906000818181858888f19350505050158015611154573d6000803e3d6000fd5b5060ce60009054906101000a9004600160a060020a0316600160a060020a031663d0e30db0826040518263ffffffff1660e060020a0281526004016000604051808303818588803b1580156111a857600080fd5b505af11580156111bc573d6000803e3d6000fd5b505060408051606081018252600160a060020a0380881682528c81166020830190815282840188815260ca80546001810182556000918252945160039095027f42d72674974f694b5f5159593243114d38a5c39c89d6b62fee061ff523240ee181018054968616600160a060020a031997881617905592517f42d72674974f694b5f5159593243114d38a5c39c89d6b62fee061ff523240ee2840180549190951695169490941790925590517f42d72674974f694b5f5159593243114d38a5c39c89d6b62fee061ff523240ee39091015560d65491513395507f3b823d3b837159352faddd1e0b9e9f584ca2bfe976238f6a9e6da4615cf2f44494506112f99350879087908b908b90958652600160a060020a0394851660208701529290931660408501526060840152608083019190915260a082015260c00190565b60405180910390a2611309612b5a565b50505050505050565b6000918252606560209081526040808420600160a060020a0393909316845291905290205460ff1690565b6000805160206145df8339815191526113568133611bd7565b5060d455565b6000805160206145df8339815191526113758133611bd7565b5060cf8054600160a060020a031916600160a060020a0392909216919091179055565b606060e78054806020026020016040519081016040528092919081815260200182805480156113f057602002820191906000526020600020905b8154600160a060020a031681526001909101906020018083116113d2575b5050505050905090565b6000828152606560205260409020600101546114168133611bd7565b610a3783836125d1565b604080518082019091526060815260006020820152600082815260cb60209081526040808320815181546060948102820185018452928101838152909491938593919285929185015b828210156114c357600084815260209081902060408051606081018252600386029092018054600160a060020a03908116845260018083015490911684860152600290910154918301919091529083529092019101611469565b5050505081526020016001820154815250509050919050565b60e781815481106114ec57600080fd5b600091825260209091200154600160a060020a0316905081565b6000805160206145df83398151915261151f8133611bd7565b5060c955565b60975460ff161561154b5760405160e560020a62461bcd0281526004016108d79061402f565b60cc54811461159f5760405160e560020a62461bcd02815260206004820152601c60248201527f63616e20756e6c6f636b206f6e6c79206f6c64657374206576656e740000000060448201526064016108d7565b600081815260cb60209081526040808320815181546060948102820185018452928101838152909391928492849190879085015b8282101561162d57600084815260209081902060408051606081018252600386029092018054600160a060020a039081168452600180830154909116848601526002909101549183019190915290835290920191016115d3565b505050508152602001600182015481525050905060008160200151116116985760405160e560020a62461bcd02815260206004820181905260248201527f6e6f206c6f636b6564207472616e73666572732077697468207468697320696460448201526064016108d7565b428160200151106116ee5760405160e560020a62461bcd02815260206004820152601b60248201527f6c6f636b54696d6520686173206e6f742079657420706173736564000000000060448201526064016108d7565b80516116f990612732565b600082815260cb6020526040812090611712828261364a565b50600060019190910181905560405183917f78ff9b3176bb0d6421590f3816e75cb15a9ffa2b7a1a028f40a3f4e029eb39f291a26117518260016142b0565b60cc555050565b600085156117ed576000805260cd6020527fcd565b10a72538d86f6d352f37ebc5dff31587960b12c0afe00fd03947a6932a54600160a060020a038a81169116146117e85760405160e560020a62461bcd02815260206004820152601f60248201527f546f6b656e206e6f7420706f696e7420746f206e617469766520746f6b656e0060448201526064016108d7565b611859565b50600160a060020a03808916600090815260cd602052604090205416806118595760405160e560020a62461bcd02815260206004820152601560248201527f556e6b6e6f776e20746f6b656e2061646472657373000000000000000000000060448201526064016108d7565b61186382846142b0565b34146118b45760405160e560020a62461bcd02815260206004820152601160248201527f53656e742076616c756520213d2066656500000000000000000000000000000060448201526064016108d7565b600087116119075760405160e560020a62461bcd02815260206004820152601160248201527f43616e6e6f74207769746864726177203000000000000000000000000000000060448201526064016108d7565b61191589868686868c6129c6565b60cf54604051600160a060020a039091169084156108fc029085906000818181858888f1935050505015801561194f573d6000803e3d6000fd5b5060d054604051600160a060020a039091169083156108fc029084906000818181858888f1935050505015801561198a573d6000803e3d6000fd5b506040517f23b872dd00000000000000000000000000000000000000000000000000000000815233600482015230602482015260448101889052600160a060020a038a16906323b872dd90606401602060405180830381600087803b1580156119f257600080fd5b505af1158015611a06573d6000803e3d6000fd5b505050506040513d601f19601f82011682018060405250810190611a2a91906139a2565b611a795760405160e560020a62461bcd02815260206004820152601360248201527f4661696c207472616e7366657220636f696e730000000000000000000000000060448201526064016108d7565b6040805160608082018352600160a060020a038481168084528c821660208086019182528587018e815260ca8054600181018255600091909152965160039097027f42d72674974f694b5f5159593243114d38a5c39c89d6b62fee061ff523240ee181018054988716600160a060020a0319998a1617905592517f42d72674974f694b5f5159593243114d38a5c39c89d6b62fee061ff523240ee284018054918716919098161790965594517f42d72674974f694b5f5159593243114d38a5c39c89d6b62fee061ff523240ee39091015560d6548551908152918e16938201939093529283019190915281018890526080810184905260a0810183905233907f3b823d3b837159352faddd1e0b9e9f584ca2bfe976238f6a9e6da4615cf2f4449060c00160405180910390a2611bad612b5a565b505050505050505050565b6000805160206145df833981519152611bd18133611bd7565b5060d255565b611be18282611312565b61098457611bf981600160a060020a03166014612bd2565b611c04836020612bd2565b604051602001611c15929190613e0a565b60408051601f198184030181529082905260e560020a62461bcd0282526108d791600401613ffc565b828114611cb65760405160e560020a62461bcd02815260206004820152603f60248201527f73697a6573206f6620746f6b656e5468697341646472657373657320616e642060448201527f746f6b656e53696465416464726573736573206d7573742062652073616d650060648201526084016108d7565b8260005b81811015610a0957838382818110611cd457611cd461450a565b9050602002016020810190611ce991906137a3565b60cd6000888885818110611cff57611cff61450a565b9050602002016020810190611d1491906137a3565b600160a060020a03908116825260208201929092526040016000208054600160a060020a0319169290911691909117905580611d4f81614490565b915050611cba565b60d560008154611d6690614490565b91829055508114610c6b5760405160e560020a62461bcd02815260206004820152601460248201527f4576656e744964206f7574206f66206f7264657200000000000000000000000060448201526064016108d7565b600080611dcf6080860160608701613b52565b67ffffffffffffffff1615611f1157611df4611dee6020870187614284565b84612dbf565b905080611e018680614141565b611e116080890160608a01613b52565b67ffffffffffffffff16818110611e2a57611e2a61450a565b9050602002810190611e3c9190614263565b6080013514611e905760405160e560020a62461bcd02815260206004820181905260248201527f5472616e73666572206576656e742076616c69646174696f6e206661696c656460448201526064016108d7565b83611ea16080870160608801613b52565b67ffffffffffffffff16611eb58780614141565b611ec09291506143e4565b1015611f115760405160e560020a62461bcd02815260206004820152601860248201527f4e6f7420656e6f7567682073616665747920626c6f636b73000000000000000060448201526064016108d7565b60005b611f1e8680614141565b90508110156121bc5736611f328780614141565b83818110611f4257611f4261450a565b9050602002810190611f549190614263565b9050611f6861012082016101008301613b52565b67ffffffffffffffff16156120f65736611f856040890189614141565b6001611f9961012086016101008701613b52565b611fa391906143fb565b67ffffffffffffffff16818110611fbc57611fbc61450a565b9050602002810190611fce919061429a565b60e754909150600090611fe3906002906142c8565b611fee9060016142b0565b905060005b61200060208401846141d3565b90508110156120465761203461201960208501856141d3565b838181106120295761202961450a565b905060400201612f03565b8061203e81614490565b915050611ff3565b506120676120548380614141565b60e854600160a060020a031660e7613046565b9450846120748a80614141565b61207e84886143e4565b81811061208d5761208d61450a565b905060200281019061209f9190614263565b60800135146120f35760405160e560020a62461bcd02815260206004820152601560248201527f57726f6e6720565320726563656970742068617368000000000000000000000060448201526064016108d7565b50505b831561215257838160400135146121525760405160e560020a62461bcd02815260206004820152601160248201527f57726f6e6720706172656e74206861736800000000000000000000000000000060448201526064016108d7565b61215b8161311f565b935061216f61012082016101008301613b52565b67ffffffffffffffff161580159061219f57506121926080880160608901613b52565b67ffffffffffffffff1682105b156121a957600093505b50806121b481614490565b915050611f14565b505060e955505050565b60d4546121d390426142b0565b600082815260cb60205260408120600101919091555b8281101561225457600082815260cb602052604090208484838181106122115761221161450a565b83546001810185556000948552602090942060609091029290920192600302909101905061223f828261453c565b5050808061224c90614490565b9150506121e9565b50505050565b600054610100900460ff1680612273575060005460ff16155b6122925760405160e560020a62461bcd0281526004016108d790614066565b600054610100900460ff161580156122b4576000805461ffff19166101011790555b6122bf60003361323b565b6122e66000805160206145bf8339815191526122e160608501604086016137a3565b61323b565b6123086000805160206145df8339815191526122e160408501602086016137a3565b61232a6123186080840184614141565b61232560a0860186614141565b611c3e565b61233a60808301606084016137a3565b60ce8054600160a060020a031916600160a060020a039290921691909117905561236760208301836137a3565b60d18054600160a060020a031916600160a060020a039290921691909117905561239760e0830160c084016137a3565b60cf8054600160a060020a031916600160a060020a03929092169190911790556123c8610100830160e084016137a3565b60d08054600160a060020a031916600160a060020a039290921691909117905561014082013560d25561010082013560d381905561012083013560d455600160cc81905560d655600360c95561241e90426142c8565b60d7558015610984576000805461ff00191690555050565b600054610100900460ff168061244f575060005460ff16155b61246e5760405160e560020a62461bcd0281526004016108d790614066565b600054610100900460ff16158015612490576000805461ffff19166101011790555b836125065760405160e560020a62461bcd02815260206004820152603260248201527f4c656e677468206f66205f696e697469616c56616c696461746f7273206d757360448201527f7420626520626967676572207468616e2030000000000000000000000000000060648201526084016108d7565b61251260e7868661366b565b5060e88054600160a060020a031916600160a060020a03851617905560e98290558015610891576000805461ff00191690555050505050565b6125558282611312565b610984576000828152606560209081526040808320600160a060020a03851684529091529020805460ff1916600117905561258d3390565b600160a060020a031681600160a060020a0316837f2f8788117e7eff1d82e926ec794901d17c78024a50270940304540a733656f0d60405160405180910390a45050565b6125db8282611312565b15610984576000828152606560209081526040808320600160a060020a0385168085529252808320805460ff1916905551339285917ff6391f5c32d9c69d2a47ea670b442974b53935d1edc7fd64eb21e047a839171b9190a45050565b60975460ff1661268d5760405160e560020a62461bcd02815260206004820152601460248201527f5061757361626c653a206e6f742070617573656400000000000000000000000060448201526064016108d7565b6097805460ff191690557f5db9ee0a495bf2e6ff9c91a7834c1ba4fdd244a5e8aa4e537bd38aeae4b073aa335b604051600160a060020a03909116815260200160405180910390a1565b60975460ff16156126fd5760405160e560020a62461bcd0281526004016108d79061402f565b6097805460ff191660011790557f62e78cea01bee320cd4e420270b5ea74000d11b0c9f74754ebdbfc544b05a2586126ba3390565b60005b8151811015610984576000600160a060020a031682828151811061275b5761275b61450a565b602002602001015160000151600160a060020a031614156128775760ce548251600160a060020a0390911690632e1a7d4d9084908490811061279f5761279f61450a565b6020026020010151604001516040518263ffffffff1660e060020a0281526004016127cc91815260200190565b600060405180830381600087803b1580156127e657600080fd5b505af11580156127fa573d6000803e3d6000fd5b505050508181815181106128105761281061450a565b602002602001015160200151600160a060020a03166108fc83838151811061283a5761283a61450a565b6020026020010151604001519081150290604051600060405180830381858888f19350505050158015612871573d6000803e3d6000fd5b506129b4565b8181815181106128895761288961450a565b602002602001015160000151600160a060020a031663a9059cbb8383815181106128b5576128b561450a565b6020026020010151602001518484815181106128d3576128d361450a565b6020026020010151604001516040518363ffffffff1660e060020a028152600401612913929190600160a060020a03929092168252602082015260400190565b602060405180830381600087803b15801561292d57600080fd5b505af1158015612941573d6000803e3d6000fd5b505050506040513d601f19601f8201168201806040525081019061296591906139a2565b6129b45760405160e560020a62461bcd02815260206004820152601360248201527f4661696c207472616e7366657220636f696e730000000000000000000000000060448201526064016108d7565b806129be81614490565b915050612735565b600080806129d6610708426142c8565b905060005b60c954811015612b0e576040516c01000000000000000000000000600160a060020a038c160260208201526034810183905260548101889052607481018790526094810186905260b40160408051601f198184030181529082905280516020918201207f19457468657265756d205369676e6564204d6573736167653a0a33320000000091830191909152603c820152605c01604051602081830303815290604052805190602001209350612ac6848a8a8080601f01602080910402602001604051908101604052809392919081815260200183838082843760009201919091525061324592505050565b9250612ae06000805160206145bf83398151915284611312565b15612aee5750505050610a09565b81612af881614479565b9250508080612b0690614490565b9150506129db565b5060405160e560020a62461bcd02815260206004820152601660248201527f5369676e617475726520636865636b206661696c65640000000000000000000060448201526064016108d7565b600060d35442612b6a91906142c8565b905060d7548114610c6b5760d68054906000612b8583614490565b919050557fe15729a2f427aa4572dab35eb692c902fcbce57d41642013259c741380809ae260ca604051612bb99190613f8c565b60405180910390a2612bcd60ca600061364a565b60d755565b60606000612be1836002614373565b612bec9060026142b0565b67ffffffffffffffff811115612c0457612c04614523565b6040519080825280601f01601f191660200182016040528015612c2e576020820181803683370190505b5090507f300000000000000000000000000000000000000000000000000000000000000081600081518110612c6557612c6561450a565b6020010190600160f860020a031916908160001a9053507f780000000000000000000000000000000000000000000000000000000000000081600181518110612cb057612cb061450a565b6020010190600160f860020a031916908160001a9053506000612cd4846002614373565b612cdf9060016142b0565b90505b6001811115612d66577f303132333435363738396162636465660000000000000000000000000000000085600f1660108110612d2057612d2061450a565b1a60f860020a02828281518110612d3957612d3961450a565b6020010190600160f860020a031916908160001a905350601090940493612d5f81614479565b9050612ce2565b508315612db85760405160e560020a62461bcd02815260206004820181905260248201527f537472696e67733a20686578206c656e67746820696e73756666696369656e7460448201526064016108d7565b9392505050565b600080612dcc8480614141565b6000818110612ddd57612ddd61450a565b9050602002810190612def919061421c565b84612dfa8780614141565b6001818110612e0b57612e0b61450a565b9050602002810190612e1d919061421c565b612e2a89602001356132d0565b612e348a80614141565b6002818110612e4557612e4561450a565b9050602002810190612e57919061421c565b612e6460408d018d61418a565b604051602001612e75929190613f1c565b60408051601f19818403018152919052612e8f8d80614141565b6003818110612ea057612ea061450a565b9050602002810190612eb2919061421c565b604051602001612ecc9b9a99989796959493929190613d48565b60408051601f1981840301815291905280516020909101209050612efb612ef38580614141565b836004613438565b949350505050565b6000612f156040830160208401613a67565b60070b12156130025760006001612f326040840160208501613a67565b612f3e906000196142dc565b612f489190614392565b60070b905060e7600160e780549050612f6191906143e4565b81548110612f7157612f7161450a565b60009182526020909120015460e78054600160a060020a039092169183908110612f9d57612f9d61450a565b9060005260206000200160006101000a815481600160a060020a030219169083600160a060020a0316021790555060e7805480612fdc57612fdc6144f1565b60008281526020902081016000199081018054600160a060020a03191690550190555050565b60e761301160208301836137a3565b8154600181018355600092835260209092209091018054600160a060020a031916600160a060020a0390921691909117905550565b6000808585600081811061305c5761305c61450a565b905060200281019061306e919061421c565b85888860018181106130825761308261450a565b9050602002810190613094919061421c565b876040516020016130a59190613ed8565b6040516020818303038152906040528b8b60028181106130c7576130c761450a565b90506020028101906130d9919061421c565b6040516020016130f0989796959493929190613cd9565b6040516020818303038152906040528051906020012090506131158686836003613438565b9695505050505050565b600080600061312d846134fc565b60e7805492945090925060009161315d61314d60e0890160c08a01613a3d565b60e060020a900463ffffffff1690565b61316791906144ab565b815481106131775761317761450a565b600091825260209091200154600160a060020a03169050806131da846131a060e089018961421c565b8080601f01602080910402602001604051908101604052809392919081815260200183838082843760009201919091525061324592505050565b600160a060020a0316146132335760405160e560020a62461bcd02815260206004820152601560248201527f4661696c656420746f20766572696679207369676e000000000000000000000060448201526064016108d7565b509392505050565b610984828261254b565b6020810151604082015160608301516000929190831a601b81101561326857601b015b60408051600081526020810180835288905260ff831691810191909152606081018490526080810183905260019060a0016020604051602081039080840390855afa1580156132bb573d6000803e3d6000fd5b5050604051601f190151979650505050505050565b6040805160208082528183019092526060916000919060208201818036833701905050905082602082015260005b6020811015613367578181815181106133195761331961450a565b60209101015160f860020a90819004027fff00000000000000000000000000000000000000000000000000000000000000161561335557613367565b8061335f81614490565b9150506132fe565b60006133748260206143e4565b67ffffffffffffffff81111561338c5761338c614523565b6040519080825280601f01601f1916602001820160405280156133b6576020820181803683370190505b50905060005b815181101561342f5783836133d081614490565b9450815181106133e2576133e261450a565b602001015160f860020a900460f860020a028282815181106134065761340661450a565b6020010190600160f860020a031916908160001a9053508061342781614490565b9150506133bc565b50949350505050565b60006060825b858110156134f1578686828181106134585761345861450a565b905060200281019061346a919061421c565b8689896134788660016142b0565b8181106134875761348761450a565b9050602002810190613499919061421c565b6040516020016134ad959493929190613de1565b604051602081830303815290604052915060208251116134d5576134d082614424565b6134dd565b815160208301205b94506134ea6002826142b0565b905061343e565b509295945050505050565b600080807fa0000000000000000000000000000000000000000000000000000000000000006040850135613533606087018761421c565b608088013561354560a08a018a61421c565b60405160200161355b9796959493929190613b7c565b60408051601f1981840301815291815290915061357d908501602086016139bf565b8160405160200161358f929190613bd9565b60408051601f198184030181529190528051602091820120906135b4908601866139bf565b827f84000000000000000000000000000000000000000000000000000000000000006135e660e0890160c08a01613a3d565b7fb84100000000000000000000000000000000000000000000000000000000000061361460e08b018b61421c565b60405160200161362a9796959493929190613c1f565b604051602081830303815290604052805190602001209250925050915091565b5080546000825560030290600052602060002090810190610c6b91906136ce565b8280548282559060005260206000209081019282156136be579160200282015b828111156136be578154600160a060020a031916600160a060020a0384351617825560209092019160019091019061368b565b506136ca929150613701565b5090565b5b808211156136ca578054600160a060020a031990811682556001820180549091169055600060028201556003016136cf565b5b808211156136ca5760008155600101613702565b60008083601f84011261372857600080fd5b50813567ffffffffffffffff81111561374057600080fd5b602083019150836020808302850101111561375a57600080fd5b9250929050565b60008083601f84011261377357600080fd5b50813567ffffffffffffffff81111561378b57600080fd5b60208301915083602082850101111561375a57600080fd5b6000602082840312156137b557600080fd5b8135612db88161459b565b600080604083850312156137d357600080fd5b82356137de8161459b565b915060208301356137ee8161459b565b809150509250929050565b60008060008060008060008060e0898b03121561381557600080fd5b88356138208161459b565b975060208901356138308161459b565b9650604089013595506060890135613847816145b0565b9450608089013567ffffffffffffffff81111561386357600080fd5b61386f8b828c01613761565b999c989b5096999598969760a08701359660c0013595509350505050565b6000806000806000608086880312156138a557600080fd5b85356138b08161459b565b9450602086013567ffffffffffffffff8111156138cc57600080fd5b6138d888828901613761565b9699909850959660408101359660609091013595509350505050565b6000806020838503121561390757600080fd5b823567ffffffffffffffff81111561391e57600080fd5b61392a85828601613716565b90969095509350505050565b6000806000806040858703121561394c57600080fd5b843567ffffffffffffffff8082111561396457600080fd5b61397088838901613716565b9096509450602087013591508082111561398957600080fd5b5061399687828801613716565b95989497509550505050565b6000602082840312156139b457600080fd5b8151612db8816145b0565b6000602082840312156139d157600080fd5b81357cffffffffffffffffffffffffffffffffffffffffffffffffffffffffff1981168114612db857600080fd5b600060208284031215613a1157600080fd5b5035919050565b60008060408385031215613a2b57600080fd5b8235915060208301356137ee8161459b565b600060208284031215613a4f57600080fd5b8135600160e060020a031981168114612db857600080fd5b600060208284031215613a7957600080fd5b81358060070b8114612db857600080fd5b600060208284031215613a9c57600080fd5b813567ffffffffffffffff811115613ab357600080fd5b820160808185031215612db857600080fd5b600080600080600060808688031215613add57600080fd5b853567ffffffffffffffff80821115613af557600080fd5b90870190610160828a031215613b0a57600080fd5b90955060208701359080821115613b2057600080fd5b50613b2d88828901613716565b9095509350506040860135613b418161459b565b949793965091946060013592915050565b600060208284031215613b6457600080fd5b813567ffffffffffffffff81168114612db857600080fd5b7fff0000000000000000000000000000000000000000000000000000000000000088168152866001820152848660218301378481016021810185905260009083856041830137600093016041019283525090979650505050505050565b7cffffffffffffffffffffffffffffffffffffffffffffffffffffffffff198316815260008251613c1181600385016020870161444d565b919091016003019392505050565b7cffffffffffffffffffffffffffffffffffffffffffffffffffffffffff198816815260008751613c57816003850160208c0161444d565b7fff000000000000000000000000000000000000000000000000000000000000008816600391840191820152600160e060020a0319871660048201527fffff000000000000000000000000000000000000000000000000000000000000861660088201528385600a83013760009301600a019283525090979650505050505050565b87898237600160a060020a0387166c010000000000000000000000000281890190815260009086886014830137868101905060148101600081528651613d23818360208b0161444d565b9190910190508385601483013760009301601401928352509098975050505050505050565b8a8c8237600160a060020a038a166c0100000000000000000000000002818c0190815260009060148a8c828401378a82019150808201600081528a51613d92818360208f0161444d565b9290920191508789828401378782019150808201600081528751613dba818360208c0161444d565b9290920191508486828401376000949091010192835250909b9a5050505050505050505050565b848682378085018481526000908385602083013760009301602001928352509095945050505050565b7f416363657373436f6e74726f6c3a206163636f756e7420000000000000000000815260008351613e4281601785016020880161444d565b7f206973206d697373696e6720726f6c65200000000000000000000000000000006017918401918201528351613e7f81602884016020880161444d565b01602801949350505050565b6020808252825182820181905260009190848201906040850190845b81811015613ecc578351600160a060020a031683529284019291840191600101613ea7565b50909695505050505050565b6020808252825482820181905260008481528281209092916040850190845b81811015613ecc578354600160a060020a031683526001938401939285019201613ef7565b6020808252818101839052600090604080840186845b87811015613f7f578135613f458161459b565b600160a060020a0390811684528286013590613f608261459b565b1683860152818401358484015260609283019290910190600101613f32565b5090979650505050505050565b60006020808301818452808554808352604092508286019150866000528360002060005b82811015613fef578154600160a060020a0390811685526001808401549091168786015260028301548686015260609094019360039092019101613fb0565b5091979650505050505050565b602081526000825180602084015261401b81604085016020870161444d565b601f01601f19169190910160400192915050565b60208082526010908201527f5061757361626c653a2070617573656400000000000000000000000000000000604082015260600190565b6020808252602e908201527f496e697469616c697a61626c653a20636f6e747261637420697320616c72656160408201527f647920696e697469616c697a6564000000000000000000000000000000000000606082015260800190565b6000602080835260608084018551604080858801528282518085526080890191508684019450600093505b8084101561412b5784518051600160a060020a039081168452888201511688840152830151838301529386019360019390930192908501906140ee565b5094909701519590960194909452509392505050565b6000808335601e1984360301811261415857600080fd5b83018035915067ffffffffffffffff82111561417357600080fd5b602090810192508102360382131561375a57600080fd5b6000808335601e198436030181126141a157600080fd5b83018035915067ffffffffffffffff8211156141bc57600080fd5b602001915060608102360382131561375a57600080fd5b6000808335601e198436030181126141ea57600080fd5b83018035915067ffffffffffffffff82111561420557600080fd5b602001915060408102360382131561375a57600080fd5b6000808335601e1984360301811261423357600080fd5b83018035915067ffffffffffffffff82111561424e57600080fd5b60200191503681900382131561375a57600080fd5b6000823561011e1983360301811261427a57600080fd5b9190910192915050565b60008235605e1983360301811261427a57600080fd5b60008235603e1983360301811261427a57600080fd5b600082198211156142c3576142c36144bf565b500190565b6000826142d7576142d76144d8565b500490565b60008160070b8360070b677fffffffffffffff60008213600084138383048511828216161561430d5761430d6144bf565b677fffffffffffffff196000851282811687830587121615614331576143316144bf565b6000871292508582058712848416161561434d5761434d6144bf565b85850587128184161615614363576143636144bf565b5050509290910295945050505050565b600081600019048311821515161561438d5761438d6144bf565b500290565b60008160070b8360070b6000811281677fffffffffffffff19018312811516156143be576143be6144bf565b81677fffffffffffffff0183138116156143da576143da6144bf565b5090039392505050565b6000828210156143f6576143f66144bf565b500390565b600067ffffffffffffffff8381169083168181101561441c5761441c6144bf565b039392505050565b80516020808301519190811015614447578060200360080260020a600003821691505b50919050565b60005b83811015614468578181015183820152602001614450565b838111156122545750506000910152565b600081614488576144886144bf565b506000190190565b60006000198214156144a4576144a46144bf565b5060010190565b6000826144ba576144ba6144d8565b500690565b60e060020a634e487b7102600052601160045260246000fd5b60e060020a634e487b7102600052601260045260246000fd5b60e060020a634e487b7102600052603160045260246000fd5b60e060020a634e487b7102600052603260045260246000fd5b60e060020a634e487b7102600052604160045260246000fd5b81356145478161459b565b8154600160a060020a031916600160a060020a03821617825550602082013561456f8161459b565b600182018054600160a060020a031916600160a060020a03831617905550604082013560028201555050565b600160a060020a0381168114610c6b57600080fd5b8015158114610c6b57600080fdfe077a1d526a4ce8a773632ab13b4fbbf1fcc954c3dab26cd27ea0e2a6750da5d7a49807205ce4d355092ef5a8a18f56e8913cf4a201fbe287825b095693c21775a26469706673582212208a25e09401a9a48afaf51eeed00a66fd1016fdba3a25fc82c2000e4441bbfac464736f6c63430008060033",
  "devdoc": {
    "kind": "dev",
    "methods": {
      "getRoleAdmin(bytes32)": {
        "details": "Returns the admin role that controls `role`. See {grantRole} and {revokeRole}. To change a role's admin, use {_setRoleAdmin}."
      },
      "grantRole(bytes32,address)": {
        "details": "Grants `role` to `account`. If `account` had not been already granted `role`, emits a {RoleGranted} event. Requirements: - the caller must have ``role``'s admin role."
      },
      "hasRole(bytes32,address)": {
        "details": "Returns `true` if `account` has been granted `role`."
      },
      "paused()": {
        "details": "Returns true if the contract is paused, and false otherwise."
      },
      "renounceRole(bytes32,address)": {
        "details": "Revokes `role` from the calling account. Roles are often managed via {grantRole} and {revokeRole}: this function's purpose is to provide a mechanism for accounts to lose their privileges if they are compromised (such as when a trusted device is misplaced). If the calling account had been granted `role`, emits a {RoleRevoked} event. Requirements: - the caller must be `account`."
      },
      "revokeRole(bytes32,address)": {
        "details": "Revokes `role` from `account`. If `account` had been granted `role`, emits a {RoleRevoked} event. Requirements: - the caller must have ``role``'s admin role."
      },
      "supportsInterface(bytes4)": {
        "details": "See {IERC165-supportsInterface}."
      },
      "withdraw(address,address,uint256,bool,bytes,uint256,uint256)": {
        "params": {
          "bridgeFee": "Amount (in native coins), payed as bridge earnings",
          "feeSignature": "Signature signed by relay that confirms that the fee values are valid",
          "transferFee": "Amount (in native coins), payed to compensate gas fees in side network"
        }
      },
      "wrapWithdraw(address,bytes,uint256,uint256)": {
        "params": {
          "bridgeFee": "Amount (in native coins), payed as bridge earnings",
          "feeSignature": "Signature signed by relay that confirms that the fee values are valid",
          "toAddress": "Address in side network that will receive the tokens",
          "transferFee": "Amount (in native coins), payed to compensate gas fees in side network"
        }
      }
    },
    "version": 1
  },
  "userdoc": {
    "kind": "user",
    "methods": {},
    "version": 1
  },
  "storageLayout": {
    "storage": [
      {
        "astId": 413,
        "contract": "contracts/networks/ETH_EthBridge.sol:ETH_EthBridge",
        "label": "_initialized",
        "offset": 0,
        "slot": "0",
        "type": "t_bool"
      },
      {
        "astId": 416,
        "contract": "contracts/networks/ETH_EthBridge.sol:ETH_EthBridge",
        "label": "_initializing",
        "offset": 1,
        "slot": "0",
        "type": "t_bool"
      },
      {
        "astId": 609,
        "contract": "contracts/networks/ETH_EthBridge.sol:ETH_EthBridge",
        "label": "__gap",
        "offset": 0,
        "slot": "1",
        "type": "t_array(t_uint256)50_storage"
      },
      {
        "astId": 858,
        "contract": "contracts/networks/ETH_EthBridge.sol:ETH_EthBridge",
        "label": "__gap",
        "offset": 0,
        "slot": "51",
        "type": "t_array(t_uint256)50_storage"
      },
      {
        "astId": 48,
        "contract": "contracts/networks/ETH_EthBridge.sol:ETH_EthBridge",
        "label": "_roles",
        "offset": 0,
        "slot": "101",
        "type": "t_mapping(t_bytes32,t_struct(RoleData)43_storage)"
      },
      {
        "astId": 333,
        "contract": "contracts/networks/ETH_EthBridge.sol:ETH_EthBridge",
        "label": "__gap",
        "offset": 0,
        "slot": "102",
        "type": "t_array(t_uint256)49_storage"
      },
      {
        "astId": 474,
        "contract": "contracts/networks/ETH_EthBridge.sol:ETH_EthBridge",
        "label": "_paused",
        "offset": 0,
        "slot": "151",
        "type": "t_bool"
      },
      {
        "astId": 565,
        "contract": "contracts/networks/ETH_EthBridge.sol:ETH_EthBridge",
        "label": "__gap",
        "offset": 0,
        "slot": "152",
        "type": "t_array(t_uint256)49_storage"
      },
      {
        "astId": 6790,
        "contract": "contracts/networks/ETH_EthBridge.sol:ETH_EthBridge",
        "label": "signatureFeeCheckNumber",
        "offset": 0,
        "slot": "201",
        "type": "t_uint256"
      },
      {
        "astId": 6794,
        "contract": "contracts/networks/ETH_EthBridge.sol:ETH_EthBridge",
        "label": "queue",
        "offset": 0,
        "slot": "202",
        "type": "t_array(t_struct(Transfer)7872_storage)dyn_storage"
      },
      {
        "astId": 6799,
        "contract": "contracts/networks/ETH_EthBridge.sol:ETH_EthBridge",
        "label": "lockedTransfers",
        "offset": 0,
        "slot": "203",
        "type": "t_mapping(t_uint256,t_struct(LockedTransfers)7889_storage)"
      },
      {
        "astId": 6801,
        "contract": "contracts/networks/ETH_EthBridge.sol:ETH_EthBridge",
        "label": "oldestLockedEventId",
        "offset": 0,
        "slot": "204",
        "type": "t_uint256"
      },
      {
        "astId": 6805,
        "contract": "contracts/networks/ETH_EthBridge.sol:ETH_EthBridge",
        "label": "tokenAddresses",
        "offset": 0,
        "slot": "205",
        "type": "t_mapping(t_address,t_address)"
      },
      {
        "astId": 6807,
        "contract": "contracts/networks/ETH_EthBridge.sol:ETH_EthBridge",
        "label": "wrapperAddress",
        "offset": 0,
        "slot": "206",
        "type": "t_address"
      },
      {
        "astId": 6809,
        "contract": "contracts/networks/ETH_EthBridge.sol:ETH_EthBridge",
        "label": "transferFeeRecipient",
        "offset": 0,
        "slot": "207",
        "type": "t_address_payable"
      },
      {
        "astId": 6811,
        "contract": "contracts/networks/ETH_EthBridge.sol:ETH_EthBridge",
        "label": "bridgeFeeRecipient",
        "offset": 0,
        "slot": "208",
        "type": "t_address_payable"
      },
      {
        "astId": 6813,
        "contract": "contracts/networks/ETH_EthBridge.sol:ETH_EthBridge",
        "label": "sideBridgeAddress",
        "offset": 0,
        "slot": "209",
        "type": "t_address"
      },
      {
        "astId": 6815,
        "contract": "contracts/networks/ETH_EthBridge.sol:ETH_EthBridge",
        "label": "minSafetyBlocks",
        "offset": 0,
        "slot": "210",
        "type": "t_uint256"
      },
      {
        "astId": 6817,
        "contract": "contracts/networks/ETH_EthBridge.sol:ETH_EthBridge",
        "label": "timeframeSeconds",
        "offset": 0,
        "slot": "211",
        "type": "t_uint256"
      },
      {
        "astId": 6819,
        "contract": "contracts/networks/ETH_EthBridge.sol:ETH_EthBridge",
        "label": "lockTime",
        "offset": 0,
        "slot": "212",
        "type": "t_uint256"
      },
      {
        "astId": 6821,
        "contract": "contracts/networks/ETH_EthBridge.sol:ETH_EthBridge",
        "label": "inputEventId",
        "offset": 0,
        "slot": "213",
        "type": "t_uint256"
      },
      {
        "astId": 6823,
        "contract": "contracts/networks/ETH_EthBridge.sol:ETH_EthBridge",
        "label": "outputEventId",
        "offset": 0,
        "slot": "214",
        "type": "t_uint256"
      },
      {
        "astId": 6825,
        "contract": "contracts/networks/ETH_EthBridge.sol:ETH_EthBridge",
        "label": "lastTimeframe",
        "offset": 0,
        "slot": "215",
        "type": "t_uint256"
      },
      {
        "astId": 7862,
        "contract": "contracts/networks/ETH_EthBridge.sol:ETH_EthBridge",
        "label": "__gap",
        "offset": 0,
        "slot": "216",
        "type": "t_array(t_uint256)15_storage"
      },
      {
        "astId": 2180,
        "contract": "contracts/networks/ETH_EthBridge.sol:ETH_EthBridge",
        "label": "validatorSet",
        "offset": 0,
        "slot": "231",
        "type": "t_array(t_address)dyn_storage"
      },
      {
        "astId": 2182,
        "contract": "contracts/networks/ETH_EthBridge.sol:ETH_EthBridge",
        "label": "validatorSetAddress",
        "offset": 0,
        "slot": "232",
        "type": "t_address"
      },
      {
        "astId": 2184,
        "contract": "contracts/networks/ETH_EthBridge.sol:ETH_EthBridge",
        "label": "lastProcessedBlock",
        "offset": 0,
        "slot": "233",
        "type": "t_bytes32"
      },
      {
        "astId": 2667,
        "contract": "contracts/networks/ETH_EthBridge.sol:ETH_EthBridge",
        "label": "___gap",
        "offset": 0,
        "slot": "234",
        "type": "t_array(t_uint256)15_storage"
      }
    ],
    "types": {
      "t_address": {
        "encoding": "inplace",
        "label": "address",
        "numberOfBytes": "20"
      },
      "t_address_payable": {
        "encoding": "inplace",
        "label": "address payable",
        "numberOfBytes": "20"
      },
      "t_array(t_address)dyn_storage": {
        "base": "t_address",
        "encoding": "dynamic_array",
        "label": "address[]",
        "numberOfBytes": "32"
      },
      "t_array(t_struct(Transfer)7872_storage)dyn_storage": {
        "base": "t_struct(Transfer)7872_storage",
        "encoding": "dynamic_array",
        "label": "struct CommonStructs.Transfer[]",
        "numberOfBytes": "32"
      },
      "t_array(t_uint256)15_storage": {
        "base": "t_uint256",
        "encoding": "inplace",
        "label": "uint256[15]",
        "numberOfBytes": "480"
      },
      "t_array(t_uint256)49_storage": {
        "base": "t_uint256",
        "encoding": "inplace",
        "label": "uint256[49]",
        "numberOfBytes": "1568"
      },
      "t_array(t_uint256)50_storage": {
        "base": "t_uint256",
        "encoding": "inplace",
        "label": "uint256[50]",
        "numberOfBytes": "1600"
      },
      "t_bool": {
        "encoding": "inplace",
        "label": "bool",
        "numberOfBytes": "1"
      },
      "t_bytes32": {
        "encoding": "inplace",
        "label": "bytes32",
        "numberOfBytes": "32"
      },
      "t_mapping(t_address,t_address)": {
        "encoding": "mapping",
        "key": "t_address",
        "label": "mapping(address => address)",
        "numberOfBytes": "32",
        "value": "t_address"
      },
      "t_mapping(t_address,t_bool)": {
        "encoding": "mapping",
        "key": "t_address",
        "label": "mapping(address => bool)",
        "numberOfBytes": "32",
        "value": "t_bool"
      },
      "t_mapping(t_bytes32,t_struct(RoleData)43_storage)": {
        "encoding": "mapping",
        "key": "t_bytes32",
        "label": "mapping(bytes32 => struct AccessControlUpgradeable.RoleData)",
        "numberOfBytes": "32",
        "value": "t_struct(RoleData)43_storage"
      },
      "t_mapping(t_uint256,t_struct(LockedTransfers)7889_storage)": {
        "encoding": "mapping",
        "key": "t_uint256",
        "label": "mapping(uint256 => struct CommonStructs.LockedTransfers)",
        "numberOfBytes": "32",
        "value": "t_struct(LockedTransfers)7889_storage"
      },
      "t_struct(LockedTransfers)7889_storage": {
        "encoding": "inplace",
        "label": "struct CommonStructs.LockedTransfers",
        "members": [
          {
            "astId": 7886,
            "contract": "contracts/networks/ETH_EthBridge.sol:ETH_EthBridge",
            "label": "transfers",
            "offset": 0,
            "slot": "0",
            "type": "t_array(t_struct(Transfer)7872_storage)dyn_storage"
          },
          {
            "astId": 7888,
            "contract": "contracts/networks/ETH_EthBridge.sol:ETH_EthBridge",
            "label": "endTimestamp",
            "offset": 0,
            "slot": "1",
            "type": "t_uint256"
          }
        ],
        "numberOfBytes": "64"
      },
      "t_struct(RoleData)43_storage": {
        "encoding": "inplace",
        "label": "struct AccessControlUpgradeable.RoleData",
        "members": [
          {
            "astId": 40,
            "contract": "contracts/networks/ETH_EthBridge.sol:ETH_EthBridge",
            "label": "members",
            "offset": 0,
            "slot": "0",
            "type": "t_mapping(t_address,t_bool)"
          },
          {
            "astId": 42,
            "contract": "contracts/networks/ETH_EthBridge.sol:ETH_EthBridge",
            "label": "adminRole",
            "offset": 0,
            "slot": "1",
            "type": "t_bytes32"
          }
        ],
        "numberOfBytes": "64"
      },
      "t_struct(Transfer)7872_storage": {
        "encoding": "inplace",
        "label": "struct CommonStructs.Transfer",
        "members": [
          {
            "astId": 7867,
            "contract": "contracts/networks/ETH_EthBridge.sol:ETH_EthBridge",
            "label": "tokenAddress",
            "offset": 0,
            "slot": "0",
            "type": "t_address"
          },
          {
            "astId": 7869,
            "contract": "contracts/networks/ETH_EthBridge.sol:ETH_EthBridge",
            "label": "toAddress",
            "offset": 0,
            "slot": "1",
            "type": "t_address"
          },
          {
            "astId": 7871,
            "contract": "contracts/networks/ETH_EthBridge.sol:ETH_EthBridge",
            "label": "amount",
            "offset": 0,
            "slot": "2",
            "type": "t_uint256"
          }
        ],
        "numberOfBytes": "96"
      },
      "t_uint256": {
        "encoding": "inplace",
        "label": "uint256",
        "numberOfBytes": "32"
      }
    }
  }
}