{
  "address": "0x87dfc240DA1010B12E518c4ef417734bB4F0f473",
  "abi": [
    {
      "anonymous": false,
      "inputs": [
        {
          "indexed": false,
          "internalType": "address",
          "name": "account",
          "type": "address"
        }
      ],
      "name": "Paused",
      "type": "event"
    },
    {
      "anonymous": false,
      "inputs": [
        {
          "indexed": true,
          "internalType": "bytes32",
          "name": "role",
          "type": "bytes32"
        },
        {
          "indexed": true,
          "internalType": "bytes32",
          "name": "previousAdminRole",
          "type": "bytes32"
        },
        {
          "indexed": true,
          "internalType": "bytes32",
          "name": "newAdminRole",
          "type": "bytes32"
        }
      ],
      "name": "RoleAdminChanged",
      "type": "event"
    },
    {
      "anonymous": false,
      "inputs": [
        {
          "indexed": true,
          "internalType": "bytes32",
          "name": "role",
          "type": "bytes32"
        },
        {
          "indexed": true,
          "internalType": "address",
          "name": "account",
          "type": "address"
        },
        {
          "indexed": true,
          "internalType": "address",
          "name": "sender",
          "type": "address"
        }
      ],
      "name": "RoleGranted",
      "type": "event"
    },
    {
      "anonymous": false,
      "inputs": [
        {
          "indexed": true,
          "internalType": "bytes32",
          "name": "role",
          "type": "bytes32"
        },
        {
          "indexed": true,
          "internalType": "address",
          "name": "account",
          "type": "address"
        },
        {
          "indexed": true,
          "internalType": "address",
          "name": "sender",
          "type": "address"
        }
      ],
      "name": "RoleRevoked",
      "type": "event"
    },
    {
      "anonymous": false,
      "inputs": [
        {
          "indexed": true,
          "internalType": "uint256",
          "name": "eventId",
          "type": "uint256"
        },
        {
          "components": [
            {
              "internalType": "address",
              "name": "tokenAddress",
              "type": "address"
            },
            {
              "internalType": "address",
              "name": "toAddress",
              "type": "address"
            },
            {
              "internalType": "uint256",
              "name": "amount",
              "type": "uint256"
            }
          ],
          "indexed": false,
          "internalType": "struct CommonStructs.Transfer[]",
          "name": "queue",
          "type": "tuple[]"
        }
      ],
      "name": "Transfer",
      "type": "event"
    },
    {
      "anonymous": false,
      "inputs": [
        {
          "indexed": true,
          "internalType": "uint256",
          "name": "eventId",
          "type": "uint256"
        }
      ],
      "name": "TransferFinish",
      "type": "event"
    },
    {
      "anonymous": false,
      "inputs": [
        {
          "indexed": true,
          "internalType": "uint256",
          "name": "eventId",
          "type": "uint256"
        }
      ],
      "name": "TransferSubmit",
      "type": "event"
    },
    {
      "anonymous": false,
      "inputs": [
        {
          "indexed": false,
          "internalType": "address",
          "name": "account",
          "type": "address"
        }
      ],
      "name": "Unpaused",
      "type": "event"
    },
    {
      "anonymous": false,
      "inputs": [
        {
          "indexed": true,
          "internalType": "address",
          "name": "from",
          "type": "address"
        },
        {
          "indexed": false,
          "internalType": "address",
          "name": "tokenFrom",
          "type": "address"
        },
        {
          "indexed": false,
          "internalType": "address",
          "name": "tokenTo",
          "type": "address"
        },
        {
          "indexed": false,
          "internalType": "uint256",
          "name": "eventId",
          "type": "uint256"
        },
        {
          "indexed": false,
          "internalType": "uint256",
          "name": "feeAmount",
          "type": "uint256"
        }
      ],
      "name": "Withdraw",
      "type": "event"
    },
    {
      "inputs": [],
      "name": "ADMIN_ROLE",
      "outputs": [
        {
          "internalType": "bytes32",
          "name": "",
          "type": "bytes32"
        }
      ],
      "stateMutability": "view",
      "type": "function"
    },
    {
      "inputs": [],
      "name": "DEFAULT_ADMIN_ROLE",
      "outputs": [
        {
          "internalType": "bytes32",
          "name": "",
          "type": "bytes32"
        }
      ],
      "stateMutability": "view",
      "type": "function"
    },
    {
      "inputs": [],
      "name": "RELAY_ROLE",
      "outputs": [
        {
          "internalType": "bytes32",
          "name": "",
          "type": "bytes32"
        }
      ],
      "stateMutability": "view",
      "type": "function"
    },
    {
      "inputs": [
        {
          "internalType": "uint256",
          "name": "fee_",
          "type": "uint256"
        }
      ],
      "name": "changeFee",
      "outputs": [],
      "stateMutability": "nonpayable",
      "type": "function"
    },
    {
      "inputs": [
        {
          "internalType": "address payable",
          "name": "feeRecipient_",
          "type": "address"
        }
      ],
      "name": "changeFeeRecipient",
      "outputs": [],
      "stateMutability": "nonpayable",
      "type": "function"
    },
    {
      "inputs": [
        {
          "internalType": "uint256",
          "name": "lockTime_",
          "type": "uint256"
        }
      ],
      "name": "changeLockTime",
      "outputs": [],
      "stateMutability": "nonpayable",
      "type": "function"
    },
    {
      "inputs": [
        {
          "internalType": "uint256",
          "name": "minSafetyBlocks_",
          "type": "uint256"
        }
      ],
      "name": "changeMinSafetyBlocks",
      "outputs": [],
      "stateMutability": "nonpayable",
      "type": "function"
    },
    {
      "inputs": [
        {
          "internalType": "uint256",
          "name": "timeframeSeconds_",
          "type": "uint256"
        }
      ],
      "name": "changeTimeframeSeconds",
      "outputs": [],
      "stateMutability": "nonpayable",
      "type": "function"
    },
    {
      "inputs": [],
      "name": "fee",
      "outputs": [
        {
          "internalType": "uint256",
          "name": "",
          "type": "uint256"
        }
      ],
      "stateMutability": "view",
      "type": "function"
    },
    {
      "inputs": [
        {
          "internalType": "uint256",
          "name": "eventId",
          "type": "uint256"
        }
      ],
      "name": "getLockedTransfers",
      "outputs": [
        {
          "components": [
            {
              "components": [
                {
                  "internalType": "address",
                  "name": "tokenAddress",
                  "type": "address"
                },
                {
                  "internalType": "address",
                  "name": "toAddress",
                  "type": "address"
                },
                {
                  "internalType": "uint256",
                  "name": "amount",
                  "type": "uint256"
                }
              ],
              "internalType": "struct CommonStructs.Transfer[]",
              "name": "transfers",
              "type": "tuple[]"
            },
            {
              "internalType": "uint256",
              "name": "endTimestamp",
              "type": "uint256"
            }
          ],
          "internalType": "struct CommonStructs.LockedTransfers",
          "name": "",
          "type": "tuple"
        }
      ],
      "stateMutability": "view",
      "type": "function"
    },
    {
      "inputs": [
        {
          "internalType": "bytes32",
          "name": "role",
          "type": "bytes32"
        }
      ],
      "name": "getRoleAdmin",
      "outputs": [
        {
          "internalType": "bytes32",
          "name": "",
          "type": "bytes32"
        }
      ],
      "stateMutability": "view",
      "type": "function"
    },
    {
      "inputs": [],
      "name": "getValidatorSet",
      "outputs": [
        {
          "internalType": "address[]",
          "name": "",
          "type": "address[]"
        }
      ],
      "stateMutability": "view",
      "type": "function"
    },
    {
      "inputs": [
        {
          "internalType": "bytes32",
          "name": "role",
          "type": "bytes32"
        },
        {
          "internalType": "address",
          "name": "account",
          "type": "address"
        }
      ],
      "name": "grantRole",
      "outputs": [],
      "stateMutability": "nonpayable",
      "type": "function"
    },
    {
      "inputs": [
        {
          "internalType": "bytes32",
          "name": "role",
          "type": "bytes32"
        },
        {
          "internalType": "address",
          "name": "account",
          "type": "address"
        }
      ],
      "name": "hasRole",
      "outputs": [
        {
          "internalType": "bool",
          "name": "",
          "type": "bool"
        }
      ],
      "stateMutability": "view",
      "type": "function"
    },
    {
      "inputs": [
        {
          "components": [
            {
              "internalType": "address",
              "name": "sideBridgeAddress",
              "type": "address"
            },
            {
              "internalType": "address",
              "name": "adminAddress",
              "type": "address"
            },
            {
              "internalType": "address",
              "name": "relayAddress",
              "type": "address"
            },
            {
              "internalType": "address",
              "name": "wrappingTokenAddress",
              "type": "address"
            },
            {
              "internalType": "address[]",
              "name": "tokenThisAddresses",
              "type": "address[]"
            },
            {
              "internalType": "address[]",
              "name": "tokenSideAddresses",
              "type": "address[]"
            },
            {
              "internalType": "uint256",
              "name": "fee",
              "type": "uint256"
            },
            {
              "internalType": "address payable",
              "name": "feeRecipient",
              "type": "address"
            },
            {
              "internalType": "uint256",
              "name": "timeframeSeconds",
              "type": "uint256"
            },
            {
              "internalType": "uint256",
              "name": "lockTime",
              "type": "uint256"
            },
            {
              "internalType": "uint256",
              "name": "minSafetyBlocks",
              "type": "uint256"
            }
          ],
          "internalType": "struct CommonStructs.ConstructorArgs",
          "name": "args",
          "type": "tuple"
        },
        {
          "internalType": "address[]",
          "name": "initialValidators",
          "type": "address[]"
        },
        {
          "internalType": "address",
          "name": "validatorSetAddress",
          "type": "address"
        }
      ],
      "name": "initialize",
      "outputs": [],
      "stateMutability": "nonpayable",
      "type": "function"
    },
    {
      "inputs": [],
      "name": "inputEventId",
      "outputs": [
        {
          "internalType": "uint256",
          "name": "",
          "type": "uint256"
        }
      ],
      "stateMutability": "view",
      "type": "function"
    },
    {
      "inputs": [],
      "name": "lockTime",
      "outputs": [
        {
          "internalType": "uint256",
          "name": "",
          "type": "uint256"
        }
      ],
      "stateMutability": "view",
      "type": "function"
    },
    {
      "inputs": [
        {
          "internalType": "uint256",
          "name": "",
          "type": "uint256"
        }
      ],
      "name": "lockedTransfers",
      "outputs": [
        {
          "internalType": "uint256",
          "name": "endTimestamp",
          "type": "uint256"
        }
      ],
      "stateMutability": "view",
      "type": "function"
    },
    {
      "inputs": [],
      "name": "minSafetyBlocks",
      "outputs": [
        {
          "internalType": "uint256",
          "name": "",
          "type": "uint256"
        }
      ],
      "stateMutability": "view",
      "type": "function"
    },
    {
      "inputs": [],
      "name": "oldestLockedEventId",
      "outputs": [
        {
          "internalType": "uint256",
          "name": "",
          "type": "uint256"
        }
      ],
      "stateMutability": "view",
      "type": "function"
    },
    {
      "inputs": [],
      "name": "pause",
      "outputs": [],
      "stateMutability": "nonpayable",
      "type": "function"
    },
    {
      "inputs": [],
      "name": "paused",
      "outputs": [
        {
          "internalType": "bool",
          "name": "",
          "type": "bool"
        }
      ],
      "stateMutability": "view",
      "type": "function"
    },
    {
      "inputs": [
        {
          "internalType": "uint256",
          "name": "eventId",
          "type": "uint256"
        }
      ],
      "name": "removeLockedTransfers",
      "outputs": [],
      "stateMutability": "nonpayable",
      "type": "function"
    },
    {
      "inputs": [
        {
          "internalType": "bytes32",
          "name": "role",
          "type": "bytes32"
        },
        {
          "internalType": "address",
          "name": "account",
          "type": "address"
        }
      ],
      "name": "renounceRole",
      "outputs": [],
      "stateMutability": "nonpayable",
      "type": "function"
    },
    {
      "inputs": [
        {
          "internalType": "bytes32",
          "name": "role",
          "type": "bytes32"
        },
        {
          "internalType": "address",
          "name": "account",
          "type": "address"
        }
      ],
      "name": "revokeRole",
      "outputs": [],
      "stateMutability": "nonpayable",
      "type": "function"
    },
    {
      "inputs": [],
      "name": "sideBridgeAddress",
      "outputs": [
        {
          "internalType": "address",
          "name": "",
          "type": "address"
        }
      ],
      "stateMutability": "view",
      "type": "function"
    },
    {
      "inputs": [
        {
          "components": [
            {
              "components": [
                {
                  "internalType": "bytes3",
                  "name": "p0Seal",
                  "type": "bytes3"
                },
                {
                  "internalType": "bytes3",
                  "name": "p0Bare",
                  "type": "bytes3"
                },
                {
                  "internalType": "bytes32",
                  "name": "parentHash",
                  "type": "bytes32"
                },
                {
                  "internalType": "bytes",
                  "name": "p2",
                  "type": "bytes"
                },
                {
                  "internalType": "bytes32",
                  "name": "receiptHash",
                  "type": "bytes32"
                },
                {
                  "internalType": "bytes",
                  "name": "p3",
                  "type": "bytes"
                },
                {
                  "internalType": "bytes4",
                  "name": "step",
                  "type": "bytes4"
                },
                {
                  "internalType": "bytes",
                  "name": "signature",
                  "type": "bytes"
                },
                {
                  "internalType": "uint64",
                  "name": "finalizedVs",
                  "type": "uint64"
                }
              ],
              "internalType": "struct CheckAura.BlockAura[]",
              "name": "blocks",
              "type": "tuple[]"
            },
            {
              "components": [
                {
                  "internalType": "bytes[]",
                  "name": "receiptProof",
                  "type": "bytes[]"
                },
                {
                  "internalType": "uint256",
                  "name": "eventId",
                  "type": "uint256"
                },
                {
                  "components": [
                    {
                      "internalType": "address",
                      "name": "tokenAddress",
                      "type": "address"
                    },
                    {
                      "internalType": "address",
                      "name": "toAddress",
                      "type": "address"
                    },
                    {
                      "internalType": "uint256",
                      "name": "amount",
                      "type": "uint256"
                    }
                  ],
                  "internalType": "struct CommonStructs.Transfer[]",
                  "name": "transfers",
                  "type": "tuple[]"
                }
              ],
              "internalType": "struct CommonStructs.TransferProof",
              "name": "transfer",
              "type": "tuple"
            },
            {
              "components": [
                {
                  "internalType": "bytes[]",
                  "name": "receiptProof",
                  "type": "bytes[]"
                },
                {
                  "internalType": "address",
                  "name": "deltaAddress",
                  "type": "address"
                },
                {
                  "internalType": "int64",
                  "name": "deltaIndex",
                  "type": "int64"
                }
              ],
              "internalType": "struct CheckAura.ValidatorSetProof[]",
              "name": "vsChanges",
              "type": "tuple[]"
            },
            {
              "internalType": "uint64",
              "name": "transferEventBlock",
              "type": "uint64"
            }
          ],
          "internalType": "struct CheckAura.AuraProof",
          "name": "auraProof",
          "type": "tuple"
        }
      ],
      "name": "submitTransferAura",
      "outputs": [],
      "stateMutability": "nonpayable",
      "type": "function"
    },
    {
      "inputs": [
        {
          "internalType": "bytes4",
          "name": "interfaceId",
          "type": "bytes4"
        }
      ],
      "name": "supportsInterface",
      "outputs": [
        {
          "internalType": "bool",
          "name": "",
          "type": "bool"
        }
      ],
      "stateMutability": "view",
      "type": "function"
    },
    {
      "inputs": [],
      "name": "timeframeSeconds",
      "outputs": [
        {
          "internalType": "uint256",
          "name": "",
          "type": "uint256"
        }
      ],
      "stateMutability": "view",
      "type": "function"
    },
    {
      "inputs": [
        {
          "internalType": "address",
          "name": "",
          "type": "address"
        }
      ],
      "name": "tokenAddresses",
      "outputs": [
        {
          "internalType": "address",
          "name": "",
          "type": "address"
        }
      ],
      "stateMutability": "view",
      "type": "function"
    },
    {
      "inputs": [
        {
          "internalType": "address",
          "name": "tokenThisAddress",
          "type": "address"
        },
        {
          "internalType": "address",
          "name": "tokenSideAddress",
          "type": "address"
        }
      ],
      "name": "tokensAdd",
      "outputs": [],
      "stateMutability": "nonpayable",
      "type": "function"
    },
    {
      "inputs": [
        {
          "internalType": "address[]",
          "name": "tokenThisAddresses",
          "type": "address[]"
        },
        {
          "internalType": "address[]",
          "name": "tokenSideAddresses",
          "type": "address[]"
        }
      ],
      "name": "tokensAddBatch",
      "outputs": [],
      "stateMutability": "nonpayable",
      "type": "function"
    },
    {
      "inputs": [
        {
          "internalType": "address",
          "name": "tokenThisAddress",
          "type": "address"
        }
      ],
      "name": "tokensRemove",
      "outputs": [],
      "stateMutability": "nonpayable",
      "type": "function"
    },
    {
      "inputs": [
        {
          "internalType": "address[]",
          "name": "tokenThisAddresses",
          "type": "address[]"
        }
      ],
      "name": "tokensRemoveBatch",
      "outputs": [],
      "stateMutability": "nonpayable",
      "type": "function"
    },
    {
      "inputs": [
        {
          "internalType": "uint256",
          "name": "eventId",
          "type": "uint256"
        }
      ],
      "name": "unlockTransfers",
      "outputs": [],
      "stateMutability": "nonpayable",
      "type": "function"
    },
    {
      "inputs": [],
      "name": "unlockTransfersBatch",
      "outputs": [],
      "stateMutability": "nonpayable",
      "type": "function"
    },
    {
      "inputs": [],
      "name": "unpause",
      "outputs": [],
      "stateMutability": "nonpayable",
      "type": "function"
    },
    {
      "inputs": [
        {
          "internalType": "uint256",
          "name": "",
          "type": "uint256"
        }
      ],
      "name": "validatorSet",
      "outputs": [
        {
          "internalType": "address",
          "name": "",
          "type": "address"
        }
      ],
      "stateMutability": "view",
      "type": "function"
    },
    {
      "inputs": [
        {
          "internalType": "address",
          "name": "tokenThisAddress",
          "type": "address"
        },
        {
          "internalType": "address",
          "name": "toAddress",
          "type": "address"
        },
        {
          "internalType": "uint256",
          "name": "amount",
          "type": "uint256"
        },
        {
          "internalType": "bool",
          "name": "unwrapSide",
          "type": "bool"
        }
      ],
      "name": "withdraw",
      "outputs": [],
      "stateMutability": "payable",
      "type": "function"
    },
    {
      "inputs": [
        {
          "internalType": "address",
          "name": "toAddress",
          "type": "address"
        }
      ],
      "name": "wrapWithdraw",
      "outputs": [],
      "stateMutability": "payable",
      "type": "function"
    },
    {
      "inputs": [],
      "name": "wrapperAddress",
      "outputs": [
        {
          "internalType": "address",
          "name": "",
          "type": "address"
        }
      ],
      "stateMutability": "view",
      "type": "function"
    },
    {
      "stateMutability": "payable",
      "type": "receive"
    }
  ],
  "transactionHash": "0xdf65510b3a959849ad7005b6238e1001b3311e93b3a373504c524aa644495c2e",
  "args": [],
  "numDeployments": 1,
  "solcInputHash": "78f5ae65e64c1ab737dc0413312a6d02",
  "bytecode": "0x608060405234801561001057600080fd5b50614362806100206000396000f3fe60806040526004361061024e5760003560e060020a900480638e5df9c71161013d578063baeebe75116100ba578063e4e6bba61161007e578063e4e6bba6146106d5578063e64808f3146106e8578063e6ee1c5c14610708578063f33fe10f14610728578063f862b7eb14610748578063fd5d2ef31461076857600080fd5b8063baeebe751461063a578063cf33125014610650578063d547741f14610672578063ddca3f4314610692578063e31be087146106a857600080fd5b806396cf52271161010157806396cf5227146105a357806399b5bb64146105c3578063a217fddf146105d9578063b6d3385e146105ee578063ba8bbbe01461062457600080fd5b80638e5df9c71461051a5780638ee112751461053a57806391d148541461055a578063924cf6e01461057a578063934785b71461059057600080fd5b806342180fb8116101cb57806375b238fc1161018f57806375b238fc146104765780637df8b802146104985780638456cb59146104d0578063853890ae146104e55780638ac1f86f1461050557600080fd5b806342180fb8146103ce5780634a1856de146103ee5780635249a7051461041e5780635c975abb1461043e5780636a1db1bf1461045657600080fd5b8063248a9ca311610212578063248a9ca3146103295780632f2ff15d14610359578063331a891a1461037957806336568abe146103995780633f4ba83a146103b957600080fd5b806301ffc9a71461025a578063044218231461028f57806309fce356146102d15780630d668087146102f3578063236040711461030957600080fd5b3661025557005b600080fd5b34801561026657600080fd5b5061027a6102753660046135fd565b610788565b60405190151581526020015b60405180910390f35b34801561029b57600080fd5b506102c37f077a1d526a4ce8a773632ab13b4fbbf1fcc954c3dab26cd27ea0e2a6750da5d781565b604051908152602001610286565b3480156102dd57600080fd5b506102f16102ec3660046134fe565b6107f1565b005b3480156102ff57600080fd5b506102c360d35481565b34801561031557600080fd5b506102f1610324366004613420565b610819565b34801561033557600080fd5b506102c36103443660046135bf565b60009081526065602052604090206001015490565b34801561036557600080fd5b506102f16103743660046135d8565b610855565b34801561038557600080fd5b506102f16103943660046135bf565b61087b565b3480156103a557600080fd5b506102f16103b43660046135d8565b6109c7565b3480156103c557600080fd5b506102f1610a56565b3480156103da57600080fd5b506102f16103e93660046135bf565b610a7a565b3480156103fa57600080fd5b506102c36104093660046135bf565b60ca6020526000908152604090206001015481565b34801561042a57600080fd5b506102f16104393660046134c9565b610a99565b34801561044a57600080fd5b5060975460ff1661027a565b34801561046257600080fd5b506102f16104713660046135bf565b610b1e565b34801561048257600080fd5b506102c360008051602061430d83398151915281565b3480156104a457600080fd5b5060cd546104b890600160a060020a031681565b604051600160a060020a039091168152602001610286565b3480156104dc57600080fd5b506102f1610b3d565b3480156104f157600080fd5b506102f161050036600461343d565b610b5e565b34801561051157600080fd5b506102f1610ba6565b34801561052657600080fd5b506102f1610535366004613420565b610cfe565b34801561054657600080fd5b506102f1610555366004613627565b610d3f565b34801561056657600080fd5b5061027a6105753660046135d8565b610e88565b34801561058657600080fd5b506102c360d15481565b6102f161059e366004613476565b610eb3565b3480156105af57600080fd5b506102f16105be3660046135bf565b6112b0565b3480156105cf57600080fd5b506102c360d45481565b3480156105e557600080fd5b506102c3600081565b3480156105fa57600080fd5b506104b8610609366004613420565b60cc60205260009081526040902054600160a060020a031681565b34801561063057600080fd5b506102c360cb5481565b34801561064657600080fd5b506102c360d25481565b34801561065c57600080fd5b506106656112cf565b6040516102869190613b8e565b34801561067e57600080fd5b506102f161068d3660046135d8565b611331565b34801561069e57600080fd5b506102c360ce5481565b3480156106b457600080fd5b506106c86106c33660046135bf565b611357565b6040516102869190613d25565b6102f16106e3366004613420565b611413565b3480156106f457600080fd5b506104b86107033660046135bf565b6116b9565b34801561071457600080fd5b506102f1610723366004613662565b6116e3565b34801561073457600080fd5b5060d0546104b890600160a060020a031681565b34801561075457600080fd5b506102f16107633660046135bf565b611767565b34801561077457600080fd5b506102f16107833660046135bf565b61199a565b6000600160e060020a031982167f7965db0b0000000000000000000000000000000000000000000000000000000014806107eb57507f01ffc9a700000000000000000000000000000000000000000000000000000000600160e060020a03198316145b92915050565b60008051602061430d83398151915261080a81336119b9565b6108148383611a20565b505050565b60008051602061430d83398151915261083281336119b9565b5060cf8054600160a060020a031916600160a060020a0392909216919091179055565b60008281526065602052604090206001015461087181336119b9565b6108148383611b36565b60008051602061430d83398151915261089481336119b9565b60975460ff166108ee5760405160e560020a62461bcd02815260206004820152601460248201527f5061757361626c653a206e6f742070617573656400000000000000000000000060448201526064015b60405180910390fd5b60cb548210156109695760405160e560020a62461bcd02815260206004820152602660248201527f6576656e744964206d757374206265203e3d206f6c646573744c6f636b65644560448201527f76656e744964000000000000000000000000000000000000000000000000000060648201526084016108e5565b600082815260ca6020526040902060010154156109b557600082815260ca60205260408120906109998282613197565b50600060019190910155816109ad8161423d565b925050610969565b6109c0600183614044565b60d4555050565b600160a060020a0381163314610a485760405160e560020a62461bcd02815260206004820152602f60248201527f416363657373436f6e74726f6c3a2063616e206f6e6c792072656e6f756e636560448201527f20726f6c657320666f722073656c66000000000000000000000000000000000060648201526084016108e5565b610a528282611bbc565b5050565b60008051602061430d833981519152610a6f81336119b9565b610a77611c23565b50565b60008051602061430d833981519152610a9381336119b9565b5060d255565b60008051602061430d833981519152610ab281336119b9565b815160005b81811015610b185760cc6000858381518110610ad557610ad56142b7565b602090810291909101810151600160a060020a031682528101919091526040016000208054600160a060020a031916905580610b108161423d565b915050610ab7565b50505050565b60008051602061430d833981519152610b3781336119b9565b5060ce55565b60008051602061430d833981519152610b5681336119b9565b610a77611cc2565b60008051602061430d833981519152610b7781336119b9565b50600160a060020a03918216600090815260cc602052604090208054600160a060020a03191691909216179055565b60975460ff1615610bcc5760405160e560020a62461bcd0281526004016108e590613c91565b60cb545b600081815260ca60209081526040808320815181546060948102820185018452928101838152909391928492849190879085015b82821015610c5e57600084815260209081902060408051606081018252600386029092018054600160a060020a03908116845260018083015490911684860152600290910154918301919091529083529092019101610c04565b5050505081526020016001820154815250509050806020015160001480610c885750428160200151115b15610c93575060cb55565b8051610c9e90611d1d565b600082815260ca6020526040812090610cb78282613197565b50600060019190910181905560405183917f78ff9b3176bb0d6421590f3816e75cb15a9ffa2b7a1a028f40a3f4e029eb39f291a25080610cf68161423d565b915050610bd0565b60008051602061430d833981519152610d1781336119b9565b50600160a060020a0316600090815260cc602052604090208054600160a060020a0319169055565b7f077a1d526a4ce8a773632ab13b4fbbf1fcc954c3dab26cd27ea0e2a6750da5d7610d6a81336119b9565b60975460ff1615610d905760405160e560020a62461bcd0281526004016108e590613c91565b610d9d6020830183613e58565b602001357f196c47048e38df7a4fe6e581c8f4f2e2ba67ac0dd45b90da756e97bd61d9dd3b60405160405180910390a2610de6610ddd6020840184613e58565b60200135611fb1565b60d15460d054610e00918491600160a060020a0316612016565b610a52610e106020840184613e58565b610e1e906040810190613da7565b808060200260200160405190810160405280939291908181526020016000905b82821015610e6a57610e5b606083028601368190038101906137ac565b81526020019060010190610e3e565b5050505050838060200190610e7f9190613e58565b60200135612406565b6000918252606560209081526040808420600160a060020a0393909316845291905290205460ff1690565b60008115610f48576000805260cc6020527f435daec636ce435a90bde0aeec309a303a359a854c5a51b7d6a5a941d6db609454600160a060020a03868116911614610f435760405160e560020a62461bcd02815260206004820152601f60248201527f546f6b656e206e6f7420706f696e7420746f206e617469766520746f6b656e0060448201526064016108e5565b610fb4565b50600160a060020a03808516600090815260cc60205260409020541680610fb45760405160e560020a62461bcd02815260206004820152601560248201527f556e6b6e6f776e20746f6b656e2061646472657373000000000000000000000060448201526064016108e5565b600083116110075760405160e560020a62461bcd02815260206004820152601160248201527f43616e6e6f74207769746864726177203000000000000000000000000000000060448201526064016108e5565b60ce54341461105b5760405160e560020a62461bcd02815260206004820152601160248201527f53656e742076616c756520213d2066656500000000000000000000000000000060448201526064016108e5565b60cf54604051600160a060020a03909116903480156108fc02916000818181858888f19350505050158015611094573d6000803e3d6000fd5b506040517f23b872dd00000000000000000000000000000000000000000000000000000000815233600482015230602482015260448101849052600160a060020a038616906323b872dd90606401602060405180830381600087803b1580156110fc57600080fd5b505af1158015611110573d6000803e3d6000fd5b505050506040513d601f19601f820116820180604052508101906111349190613562565b6111835760405160e560020a62461bcd02815260206004820152601360248201527f4661696c207472616e7366657220636f696e730000000000000000000000000060448201526064016108e5565b6040805160608082018352600160a060020a0384811680845288821660208086019182528587018a815260c98054600181018255600091909152965160039097027f66be4f155c5ef2ebd3772b228f2f00681e4ed5826cdb3b1943cc11ad15ad1d2881018054988716600160a060020a0319998a1617905592517f66be4f155c5ef2ebd3772b228f2f00681e4ed5826cdb3b1943cc11ad15ad1d2984018054918716919098161790965594517f66be4f155c5ef2ebd3772b228f2f00681e4ed5826cdb3b1943cc11ad15ad1d2a9091015560d55460ce548651938c168452948301919091529381019390935282015233907ffbde797d201c681b91056529119e0b02407c7bb96a4a2c75c01fc9667232c8db9060800160405180910390a26112a96124c9565b5050505050565b60008051602061430d8339815191526112c981336119b9565b5060d355565b606060d780548060200260200160405190810160405280929190818152602001828054801561132757602002820191906000526020600020905b8154600160a060020a03168152600190910190602001808311611309575b5050505050905090565b60008281526065602052604090206001015461134d81336119b9565b6108148383611bbc565b604080518082019091526060815260006020820152600082815260ca60209081526040808320815181546060948102820185018452928101838152909491938593919285929185015b828210156113fa57600084815260209081902060408051606081018252600386029092018054600160a060020a039081168452600180830154909116848601526002909101549183019190915290835290920191016113a0565b5050505081526020016001820154815250509050919050565b60cd54600160a060020a03908116600090815260cc602052604090205416806114815760405160e560020a62461bcd02815260206004820152601560248201527f556e6b6e6f776e20746f6b656e2061646472657373000000000000000000000060448201526064016108e5565b60ce5434116114d55760405160e560020a62461bcd02815260206004820152601160248201527f53656e742076616c7565203c3d2066656500000000000000000000000000000060448201526064016108e5565b60cf5460ce54604051600160a060020a039092169181156108fc0291906000818181858888f19350505050158015611511573d6000803e3d6000fd5b50600060ce54346115229190614044565b905060cd60009054906101000a9004600160a060020a0316600160a060020a031663d0e30db0826040518263ffffffff1660e060020a0281526004016000604051808303818588803b15801561157757600080fd5b505af115801561158b573d6000803e3d6000fd5b50506040805160608082018352600160a060020a038881168084528a821660208086019182528587018b815260c980546001810182556000918252975160039098027f66be4f155c5ef2ebd3772b228f2f00681e4ed5826cdb3b1943cc11ad15ad1d2881018054998816600160a060020a03199a8b1617905593517f66be4f155c5ef2ebd3772b228f2f00681e4ed5826cdb3b1943cc11ad15ad1d29850180549190971698169790971790945592517f66be4f155c5ef2ebd3772b228f2f00681e4ed5826cdb3b1943cc11ad15ad1d2a9091015560d55460ce54865195865292850191909152938301939093528101919091523393507ffbde797d201c681b91056529119e0b02407c7bb96a4a2c75c01fc9667232c8db9250608001905060405180910390a26108146124c9565b60d781815481106116c957600080fd5b600091825260209091200154600160a060020a0316905081565b600054610100900460ff16806116fc575060005460ff16155b61171b5760405160e560020a62461bcd0281526004016108e590613cc8565b600054610100900460ff1615801561173d576000805461ffff19166101011790555b61174684612541565b611750838361268c565b8015610b18576000805461ff001916905550505050565b60975460ff161561178d5760405160e560020a62461bcd0281526004016108e590613c91565b60cb5481146117e15760405160e560020a62461bcd02815260206004820152601c60248201527f63616e20756e6c6f636b206f6e6c79206f6c64657374206576656e740000000060448201526064016108e5565b600081815260ca60209081526040808320815181546060948102820185018452928101838152909391928492849190879085015b8282101561186f57600084815260209081902060408051606081018252600386029092018054600160a060020a03908116845260018083015490911684860152600290910154918301919091529083529092019101611815565b505050508152602001600182015481525050905060008160200151116118da5760405160e560020a62461bcd02815260206004820181905260248201527f6e6f206c6f636b6564207472616e73666572732077697468207468697320696460448201526064016108e5565b428160200151106119305760405160e560020a62461bcd02815260206004820152601b60248201527f6c6f636b54696d6520686173206e6f742079657420706173736564000000000060448201526064016108e5565b805161193b90611d1d565b600082815260ca60205260408120906119548282613197565b50600060019190910181905560405183917f78ff9b3176bb0d6421590f3816e75cb15a9ffa2b7a1a028f40a3f4e029eb39f291a2611993826001613f10565b60cb555050565b60008051602061430d8339815191526119b381336119b9565b5060d155565b6119c38282610e88565b610a52576119db81600160a060020a031660146127a5565b6119e68360206127a5565b6040516020016119f7929190613b0d565b60408051601f198184030181529082905260e560020a62461bcd0282526108e591600401613c5e565b8051825114611a9a5760405160e560020a62461bcd02815260206004820152603f60248201527f73697a6573206f6620746f6b656e5468697341646472657373657320616e642060448201527f746f6b656e53696465416464726573736573206d7573742062652073616d650060648201526084016108e5565b815160005b81811015610b1857828181518110611ab957611ab96142b7565b602002602001015160cc6000868481518110611ad757611ad76142b7565b6020026020010151600160a060020a0316600160a060020a0316815260200190815260200160002060006101000a815481600160a060020a030219169083600160a060020a031602179055508080611b2e9061423d565b915050611a9f565b611b408282610e88565b610a52576000828152606560209081526040808320600160a060020a03851684529091529020805460ff19166001179055611b783390565b600160a060020a031681600160a060020a0316837f2f8788117e7eff1d82e926ec794901d17c78024a50270940304540a733656f0d60405160405180910390a45050565b611bc68282610e88565b15610a52576000828152606560209081526040808320600160a060020a0385168085529252808320805460ff1916905551339285917ff6391f5c32d9c69d2a47ea670b442974b53935d1edc7fd64eb21e047a839171b9190a45050565b60975460ff16611c785760405160e560020a62461bcd02815260206004820152601460248201527f5061757361626c653a206e6f742070617573656400000000000000000000000060448201526064016108e5565b6097805460ff191690557f5db9ee0a495bf2e6ff9c91a7834c1ba4fdd244a5e8aa4e537bd38aeae4b073aa335b604051600160a060020a03909116815260200160405180910390a1565b60975460ff1615611ce85760405160e560020a62461bcd0281526004016108e590613c91565b6097805460ff191660011790557f62e78cea01bee320cd4e420270b5ea74000d11b0c9f74754ebdbfc544b05a258611ca53390565b60005b8151811015610a52576000600160a060020a0316828281518110611d4657611d466142b7565b602002602001015160000151600160a060020a03161415611e625760cd548251600160a060020a0390911690632e1a7d4d90849084908110611d8a57611d8a6142b7565b6020026020010151604001516040518263ffffffff1660e060020a028152600401611db791815260200190565b600060405180830381600087803b158015611dd157600080fd5b505af1158015611de5573d6000803e3d6000fd5b50505050818181518110611dfb57611dfb6142b7565b602002602001015160200151600160a060020a03166108fc838381518110611e2557611e256142b7565b6020026020010151604001519081150290604051600060405180830381858888f19350505050158015611e5c573d6000803e3d6000fd5b50611f9f565b818181518110611e7457611e746142b7565b602002602001015160000151600160a060020a031663a9059cbb838381518110611ea057611ea06142b7565b602002602001015160200151848481518110611ebe57611ebe6142b7565b6020026020010151604001516040518363ffffffff1660e060020a028152600401611efe929190600160a060020a03929092168252602082015260400190565b602060405180830381600087803b158015611f1857600080fd5b505af1158015611f2c573d6000803e3d6000fd5b505050506040513d601f19601f82011682018060405250810190611f509190613562565b611f9f5760405160e560020a62461bcd02815260206004820152601360248201527f4661696c207472616e7366657220636f696e730000000000000000000000000060448201526064016108e5565b80611fa98161423d565b915050611d20565b60d460008154611fc09061423d565b91829055508114610a775760405160e560020a62461bcd02815260206004820152601460248201527f4576656e744964206f7574206f66206f7264657200000000000000000000000060448201526064016108e5565b600080808061203a61202b6020890189613e58565b612034906140ad565b86612992565b9050806120478880613d57565b61205760808b0160608c016137c8565b67ffffffffffffffff16818110612070576120706142b7565b90506020028101906120829190613e37565b60800135146120d65760405160e560020a62461bcd02815260206004820181905260248201527f5472616e73666572206576656e742076616c69646174696f6e206661696c656460448201526064016108e5565b60005b6120e38880613d57565b90508110156123fc57366120f78980613d57565b83818110612107576121076142b7565b90506020028101906121199190613e37565b905061212d610120820161010083016137c8565b67ffffffffffffffff16156122f157835b612150610120830161010084016137c8565b67ffffffffffffffff168110156122c557600061217060408c018c613d57565b83818110612180576121806142b7565b90506020028101906121929190613e58565b61219b90614187565b90506121a681612a87565b805151156122b257805160d85460d78054604080516020808402820181019092528281526122209594600160a060020a0316939092909183018282801561221657602002820191906000526020600020905b8154600160a060020a031681526001909101906020018083116121f8575b5050505050612bc6565b94508461222d8c80613d57565b612238600288614044565b818110612247576122476142b7565b90506020028101906122599190613e37565b60800135146122ad5760405160e560020a62461bcd02815260206004820152601560248201527f57726f6e6720565320726563656970742068617368000000000000000000000060448201526064016108e5565b600297505b50806122bd8161423d565b91505061213e565b5060016122da610120830161010084016137c8565b6122e4919061405b565b67ffffffffffffffff1693505b6122fa81612c7c565b94506123068980613d57565b9050612313836001613f10565b1415801561235957506123268980613d57565b612331846001613f10565b818110612340576123406142b7565b90506020028101906123529190613e37565b6040013585145b1561237057856123688161423d565b9650506123e9565b61238060808a0160608b016137c8565b67ffffffffffffffff16821415612396576123e9565b878610156123e95760405160e560020a62461bcd02815260206004820152601160248201527f77726f6e6720706172656e74206861736800000000000000000000000000000060448201526064016108e5565b50806123f48161423d565b9150506120d9565b5050505050505050565b60d3546124139042613f10565b600082815260ca60205260408120600101919091555b825181101561081457600082815260ca602052604090208351849083908110612454576124546142b7565b60209081029190910181015182546001808201855560009485529383902082516003909202018054600160a060020a0319908116600160a060020a03938416178255938301519481018054909416949091169390931790915560400151600290910155806124c18161423d565b915050612429565b600060d254426124d99190613f28565b905060d6548114610a775760d580549060006124f48361423d565b919050557fe15729a2f427aa4572dab35eb692c902fcbce57d41642013259c741380809ae260c96040516125289190613bee565b60405180910390a261253c60c96000613197565b60d655565b600054610100900460ff168061255a575060005460ff16155b6125795760405160e560020a62461bcd0281526004016108e590613cc8565b600054610100900460ff1615801561259b576000805461ffff19166101011790555b6125a6600033612d3f565b6125d47f077a1d526a4ce8a773632ab13b4fbbf1fcc954c3dab26cd27ea0e2a6750da5d78360400151612d3f565b6125f060008051602061430d8339815191528360200151612d3f565b61260282608001518360a00151611a20565b606082015160cd8054600160a060020a03928316600160a060020a031991821617909155835160d0805491841691831691909117905560c084015160ce5560e084015160cf805491909316911617905561014082015160d15561010082015160d25561012082015160d355600160cb81905560d5558015610a52576000805461ff00191690555050565b600054610100900460ff16806126a5575060005460ff16155b6126c45760405160e560020a62461bcd0281526004016108e590613cc8565b600054610100900460ff161580156126e6576000805461ffff19166101011790555b60008351116127605760405160e560020a62461bcd02815260206004820152603260248201527f4c656e677468206f66205f696e697469616c56616c696461746f7273206d757360448201527f7420626520626967676572207468616e2030000000000000000000000000000060648201526084016108e5565b82516127739060d79060208601906131b8565b5060d88054600160a060020a031916600160a060020a0384161790558015610814576000805461ff0019169055505050565b606060006127b4836002613fd3565b6127bf906002613f10565b67ffffffffffffffff8111156127d7576127d76142d0565b6040519080825280601f01601f191660200182016040528015612801576020820181803683370190505b5090507f300000000000000000000000000000000000000000000000000000000000000081600081518110612838576128386142b7565b6020010190600160f860020a031916908160001a9053507f780000000000000000000000000000000000000000000000000000000000000081600181518110612883576128836142b7565b6020010190600160f860020a031916908160001a90535060006128a7846002613fd3565b6128b2906001613f10565b90505b6001811115612939577f303132333435363738396162636465660000000000000000000000000000000085600f16601081106128f3576128f36142b7565b1a60f860020a0282828151811061290c5761290c6142b7565b6020010190600160f860020a031916908160001a90535060109094049361293281614226565b90506128b5565b50831561298b5760405160e560020a62461bcd02815260206004820181905260248201527f537472696e67733a20686578206c656e67746820696e73756666696369656e7460448201526064016108e5565b9392505050565b60008083600001516000815181106129ac576129ac6142b7565b60200260200101518385600001516001815181106129cc576129cc6142b7565b60200260200101516129e18760200151612d49565b8751805160029081106129f6576129f66142b7565b60200260200101518860400151604051602001612a139190613bdb565b6040516020818303038152906040528960000151600381518110612a3957612a396142b7565b6020026020010151604051602001612a579796959493929190613a2b565b604051602081830303815290604052805190602001209050612a7f8460000151826004612eb1565b949350505050565b6000816040015160070b1215612b7157600060018260400151600019612aad9190613f3c565b612ab79190613ff2565b60070b905060d7600160d780549050612ad09190614044565b81548110612ae057612ae06142b7565b60009182526020909120015460d78054600160a060020a039092169183908110612b0c57612b0c6142b7565b9060005260206000200160006101000a815481600160a060020a030219169083600160a060020a0316021790555060d7805480612b4b57612b4b61429e565b60008281526020902081016000199081018054600160a060020a03191690550190555050565b6020015160d780546001810182556000919091527f8a012a6de2943a5aa4d77acf5e695d4456760a3f1f30a5d6dc2079599187a071018054600160a060020a031916600160a060020a03909216919091179055565b60008084600081518110612bdc57612bdc6142b7565b60200260200101518486600181518110612bf857612bf86142b7565b602002602001015185604051602001612c119190613b8e565b60405160208183030381529060405288600281518110612c3357612c336142b7565b6020026020010151604051602001612c4f9594939291906139ac565b604051602081830303815290604052805190602001209050612c7385826003612eb1565b95945050505050565b6000806000612c8a84612f61565b60d78054929450909250600091612cba612caa60e0890160c08a016135fd565b60e060020a900463ffffffff1690565b612cc49190614258565b81548110612cd457612cd46142b7565b600091825260209091200154600160a060020a03169050612d378184612cfd60e0890189613df0565b8080601f0160208091040260200160405190810160405280939291908181526020018383808284376000920191909152506130af92505050565b509392505050565b610a528282611b36565b6040805160208082528183019092526060916000919060208201818036833701905050905082602082015260005b6020811015612de057818181518110612d9257612d926142b7565b60209101015160f860020a90819004027fff000000000000000000000000000000000000000000000000000000000000001615612dce57612de0565b80612dd88161423d565b915050612d77565b6000612ded826020614044565b67ffffffffffffffff811115612e0557612e056142d0565b6040519080825280601f01601f191660200182016040528015612e2f576020820181803683370190505b50905060005b8151811015612ea8578383612e498161423d565b945081518110612e5b57612e5b6142b7565b602001015160f860020a900460f860020a02828281518110612e7f57612e7f6142b7565b6020010190600160f860020a031916908160001a90535080612ea08161423d565b915050612e35565b50949350505050565b60006060825b8551811015612f5757858181518110612ed257612ed26142b7565b60200260200101518587836001612ee99190613f10565b81518110612ef957612ef96142b7565b6020026020010151604051602001612f1393929190613ad6565b60405160208183030381529060405291506020825111612f3b57612f3682614084565b612f43565b815160208301205b9450612f50600282613f10565b9050612eb7565b5092949350505050565b600080807fa0000000000000000000000000000000000000000000000000000000000000006040850135612f986060870187613df0565b6080880135612faa60a08a018a613df0565b604051602001612fc0979695949392919061384f565b60408051601f19818403018152918152909150612fe29085016020860161357f565b81604051602001612ff49291906138ac565b60408051601f198184030181529190528051602091820120906130199086018661357f565b827f840000000000000000000000000000000000000000000000000000000000000061304b60e0890160c08a016135fd565b7fb84100000000000000000000000000000000000000000000000000000000000061307960e08b018b613df0565b60405160200161308f97969594939291906138f2565b604051602081830303815290604052805190602001209250925050915091565b60208101516040820151606083015160001a601b8110156130ce57601b015b60408051600081526020810180835287905260ff8316918101919091526060810184905260808101839052600160a060020a0387169060019060a0016020604051602081039080840390855afa15801561312c573d6000803e3d6000fd5b50505060206040510351600160a060020a03161461318f5760405160e560020a62461bcd02815260206004820152601560248201527f4661696c656420746f20766572696679207369676e000000000000000000000060448201526064016108e5565b505050505050565b5080546000825560030290600052602060002090810190610a77919061321d565b82805482825590600052602060002090810192821561320d579160200282015b8281111561320d5782518254600160a060020a031916600160a060020a039091161782556020909201916001909101906131d8565b50613219929150613250565b5090565b5b80821115613219578054600160a060020a0319908116825560018201805490911690556000600282015560030161321e565b5b808211156132195760008155600101613251565b8035613270816142e9565b919050565b600082601f83011261328657600080fd5b8135602061329b61329683613eec565b613ebb565b82815281810190858301838502870184018810156132b857600080fd5b60005b858110156132e05781356132ce816142e9565b845292840192908401906001016132bb565b5090979650505050505050565b6000601f83818401126132ff57600080fd5b8235602061330f61329683613eec565b828152818101908683018385028801840189101561332c57600080fd5b60005b858110156133c457813567ffffffffffffffff8082111561334f57600080fd5b818b0191508b603f83011261336357600080fd5b86820135604082821115613379576133796142d0565b61338a828c01601f19168a01613ebb565b92508183528d818386010111156133a057600080fd5b818185018a850137506000908201880152855250928401929084019060010161332f565b509098975050505050505050565b6000606082840312156133e457600080fd5b6133ec613e6e565b905081356133f9816142e9565b81526020820135613409816142e9565b806020830152506040820135604082015292915050565b60006020828403121561343257600080fd5b813561298b816142e9565b6000806040838503121561345057600080fd5b823561345b816142e9565b9150602083013561346b816142e9565b809150509250929050565b6000806000806080858703121561348c57600080fd5b8435613497816142e9565b935060208501356134a7816142e9565b92506040850135915060608501356134be816142fe565b939692955090935050565b6000602082840312156134db57600080fd5b813567ffffffffffffffff8111156134f257600080fd5b612a7f84828501613275565b6000806040838503121561351157600080fd5b823567ffffffffffffffff8082111561352957600080fd5b61353586838701613275565b9350602085013591508082111561354b57600080fd5b5061355885828601613275565b9150509250929050565b60006020828403121561357457600080fd5b815161298b816142fe565b60006020828403121561359157600080fd5b81357cffffffffffffffffffffffffffffffffffffffffffffffffffffffffff198116811461298b57600080fd5b6000602082840312156135d157600080fd5b5035919050565b600080604083850312156135eb57600080fd5b82359150602083013561346b816142e9565b60006020828403121561360f57600080fd5b8135600160e060020a03198116811461298b57600080fd5b60006020828403121561363957600080fd5b813567ffffffffffffffff81111561365057600080fd5b82016080818503121561298b57600080fd5b60008060006060848603121561367757600080fd5b833567ffffffffffffffff8082111561368f57600080fd5b9085019061016082880312156136a457600080fd5b6136ac613e97565b6136b583613265565b81526136c360208401613265565b60208201526136d460408401613265565b60408201526136e560608401613265565b60608201526080830135828111156136fc57600080fd5b61370889828601613275565b60808301525060a08301358281111561372057600080fd5b61372c89828601613275565b60a08301525060c083013560c082015261374860e08401613265565b60e08201526101008381013590820152610120808401359082015261014092830135928101929092529093506020850135908082111561378757600080fd5b5061379486828701613275565b9250506137a360408501613265565b90509250925092565b6000606082840312156137be57600080fd5b61298b83836133d2565b6000602082840312156137da57600080fd5b813567ffffffffffffffff8116811461298b57600080fd5b600081518084526020808501945080840160005b838110156138445781518051600160a060020a0390811689528482015116848901526040908101519088015260609096019590820190600101613806565b509495945050505050565b7fff0000000000000000000000000000000000000000000000000000000000000088168152866001820152848660218301378481016021810185905260009083856041830137600093016041019283525090979650505050505050565b7cffffffffffffffffffffffffffffffffffffffffffffffffffffffffff1983168152600082516138e48160038501602087016141fa565b919091016003019392505050565b7cffffffffffffffffffffffffffffffffffffffffffffffffffffffffff19881681526000875161392a816003850160208c016141fa565b7fff000000000000000000000000000000000000000000000000000000000000008816600391840191820152600160e060020a0319871660048201527fffff000000000000000000000000000000000000000000000000000000000000861660088201528385600a83013760009301600a019283525090979650505050505050565b600086516139be818460208b016141fa565b600160a060020a0387166c010000000000000000000000000290830190815285516139f0816014840160208a016141fa565b8551910190613a068160148401602089016141fa565b8451910190613a1c8160148401602088016141fa565b01601401979650505050505050565b600088516020613a3e8285838e016141fa565b81840191506c01000000000000000000000000600160a060020a038b1602825260148951613a7181838601858e016141fa565b8951930192613a8581838601858d016141fa565b8851930192613a9981838601858c016141fa565b8751930192613aad81838601858b016141fa565b8651930192613ac181838601858a016141fa565b929092019091019a9950505050505050505050565b60008451613ae88184602089016141fa565b82018481528351613b008160208085019088016141fa565b0160200195945050505050565b7f416363657373436f6e74726f6c3a206163636f756e7420000000000000000000815260008351613b458160178501602088016141fa565b7f206973206d697373696e6720726f6c65200000000000000000000000000000006017918401918201528351613b828160288401602088016141fa565b01602801949350505050565b6020808252825182820181905260009190848201906040850190845b81811015613bcf578351600160a060020a031683529284019291840191600101613baa565b50909695505050505050565b60208152600061298b60208301846137f2565b60006020808301818452808554808352604092508286019150866000528360002060005b82811015613c51578154600160a060020a0390811685526001808401549091168786015260028301548686015260609094019360039092019101613c12565b5091979650505050505050565b6020815260008251806020840152613c7d8160408501602087016141fa565b601f01601f19169190910160400192915050565b60208082526010908201527f5061757361626c653a2070617573656400000000000000000000000000000000604082015260600190565b6020808252602e908201527f496e697469616c697a61626c653a20636f6e747261637420697320616c72656160408201527f647920696e697469616c697a6564000000000000000000000000000000000000606082015260800190565b602081526000825160406020840152613d4160608401826137f2565b9050602084015160408401528091505092915050565b6000808335601e19843603018112613d6e57600080fd5b83018035915067ffffffffffffffff821115613d8957600080fd5b6020908101925081023603821315613da057600080fd5b9250929050565b6000808335601e19843603018112613dbe57600080fd5b83018035915067ffffffffffffffff821115613dd957600080fd5b6020019150606081023603821315613da057600080fd5b6000808335601e19843603018112613e0757600080fd5b83018035915067ffffffffffffffff821115613e2257600080fd5b602001915036819003821315613da057600080fd5b6000823561011e19833603018112613e4e57600080fd5b9190910192915050565b60008235605e19833603018112613e4e57600080fd5b6040516060810167ffffffffffffffff81118282101715613e9157613e916142d0565b60405290565b604051610160810167ffffffffffffffff81118282101715613e9157613e916142d0565b604051601f8201601f1916810167ffffffffffffffff81118282101715613ee457613ee46142d0565b604052919050565b600067ffffffffffffffff821115613f0657613f066142d0565b5060209081020190565b60008219821115613f2357613f2361426c565b500190565b600082613f3757613f37614285565b500490565b60008160070b8360070b677fffffffffffffff600082136000841383830485118282161615613f6d57613f6d61426c565b677fffffffffffffff196000851282811687830587121615613f9157613f9161426c565b60008712925085820587128484161615613fad57613fad61426c565b85850587128184161615613fc357613fc361426c565b5050509290910295945050505050565b6000816000190483118215151615613fed57613fed61426c565b500290565b60008160070b8360070b6000811281677fffffffffffffff190183128115161561401e5761401e61426c565b81677fffffffffffffff01831381161561403a5761403a61426c565b5090039392505050565b6000828210156140565761405661426c565b500390565b600067ffffffffffffffff8381169083168181101561407c5761407c61426c565b039392505050565b805160208083015191908110156140a7578060200360080260020a600003821691505b50919050565b600060608083360312156140c057600080fd5b6140c8613e6e565b833567ffffffffffffffff808211156140e057600080fd5b6140ec368388016132ed565b835260209150818601358284015260408601358181111561410c57600080fd5b8601905036601f82011261411f57600080fd5b803561412d61329682613eec565b818152838101908385013688850286018701111561414a57600080fd5b600094505b838510156141755761416136826133d2565b83526001949094019391850191870161414f565b50604086015250929695505050505050565b60006060823603121561419957600080fd5b6141a1613e6e565b823567ffffffffffffffff8111156141b857600080fd5b6141c4368286016132ed565b82525060208301356141d5816142e9565b60208201526040830135600781900b81146141ef57600080fd5b604082015292915050565b60005b838110156142155781810151838201526020016141fd565b83811115610b185750506000910152565b6000816142355761423561426c565b506000190190565b60006000198214156142515761425161426c565b5060010190565b60008261426757614267614285565b500690565b60e060020a634e487b7102600052601160045260246000fd5b60e060020a634e487b7102600052601260045260246000fd5b60e060020a634e487b7102600052603160045260246000fd5b60e060020a634e487b7102600052603260045260246000fd5b60e060020a634e487b7102600052604160045260246000fd5b600160a060020a0381168114610a7757600080fd5b8015158114610a7757600080fdfea49807205ce4d355092ef5a8a18f56e8913cf4a201fbe287825b095693c21775a264697066735822122020850eae44c0ec6f1e60257880e720b57fad36efdd4fac76e6d08cb35f88f0ba64736f6c63430008060033",
  "devdoc": {
    "kind": "dev",
    "methods": {
      "getRoleAdmin(bytes32)": {
        "details": "Returns the admin role that controls `role`. See {grantRole} and {revokeRole}. To change a role's admin, use {_setRoleAdmin}."
      },
      "grantRole(bytes32,address)": {
        "details": "Grants `role` to `account`. If `account` had not been already granted `role`, emits a {RoleGranted} event. Requirements: - the caller must have ``role``'s admin role."
      },
      "hasRole(bytes32,address)": {
        "details": "Returns `true` if `account` has been granted `role`."
      },
      "paused()": {
        "details": "Returns true if the contract is paused, and false otherwise."
      },
      "renounceRole(bytes32,address)": {
        "details": "Revokes `role` from the calling account. Roles are often managed via {grantRole} and {revokeRole}: this function's purpose is to provide a mechanism for accounts to lose their privileges if they are compromised (such as when a trusted device is misplaced). If the calling account had been granted `role`, emits a {RoleRevoked} event. Requirements: - the caller must be `account`."
      },
      "revokeRole(bytes32,address)": {
        "details": "Revokes `role` from `account`. If `account` had been granted `role`, emits a {RoleRevoked} event. Requirements: - the caller must have ``role``'s admin role."
      },
      "supportsInterface(bytes4)": {
        "details": "See {IERC165-supportsInterface}."
      }
    },
    "version": 1
  },
  "userdoc": {
    "kind": "user",
    "methods": {},
    "version": 1
  },
  "storageLayout": {
    "storage": [
      {
        "astId": 413,
        "contract": "contracts/eth/EthBridge.sol:EthBridge",
        "label": "_initialized",
        "offset": 0,
        "slot": "0",
        "type": "t_bool"
      },
      {
        "astId": 416,
        "contract": "contracts/eth/EthBridge.sol:EthBridge",
        "label": "_initializing",
        "offset": 1,
        "slot": "0",
        "type": "t_bool"
      },
      {
        "astId": 609,
        "contract": "contracts/eth/EthBridge.sol:EthBridge",
        "label": "__gap",
        "offset": 0,
        "slot": "1",
        "type": "t_array(t_uint256)50_storage"
      },
      {
        "astId": 858,
        "contract": "contracts/eth/EthBridge.sol:EthBridge",
        "label": "__gap",
        "offset": 0,
        "slot": "51",
        "type": "t_array(t_uint256)50_storage"
      },
      {
        "astId": 48,
        "contract": "contracts/eth/EthBridge.sol:EthBridge",
        "label": "_roles",
        "offset": 0,
        "slot": "101",
        "type": "t_mapping(t_bytes32,t_struct(RoleData)43_storage)"
      },
      {
        "astId": 333,
        "contract": "contracts/eth/EthBridge.sol:EthBridge",
        "label": "__gap",
        "offset": 0,
        "slot": "102",
        "type": "t_array(t_uint256)49_storage"
      },
      {
        "astId": 474,
        "contract": "contracts/eth/EthBridge.sol:EthBridge",
        "label": "_paused",
        "offset": 0,
        "slot": "151",
        "type": "t_bool"
      },
      {
        "astId": 565,
        "contract": "contracts/eth/EthBridge.sol:EthBridge",
        "label": "__gap",
        "offset": 0,
        "slot": "152",
        "type": "t_array(t_uint256)49_storage"
      },
      {
        "astId": 6256,
        "contract": "contracts/eth/EthBridge.sol:EthBridge",
        "label": "queue",
        "offset": 0,
        "slot": "201",
        "type": "t_array(t_struct(Transfer)7132_storage)dyn_storage"
      },
      {
        "astId": 6261,
        "contract": "contracts/eth/EthBridge.sol:EthBridge",
        "label": "lockedTransfers",
        "offset": 0,
        "slot": "202",
        "type": "t_mapping(t_uint256,t_struct(LockedTransfers)7149_storage)"
      },
      {
        "astId": 6263,
        "contract": "contracts/eth/EthBridge.sol:EthBridge",
        "label": "oldestLockedEventId",
        "offset": 0,
        "slot": "203",
        "type": "t_uint256"
      },
      {
        "astId": 6267,
        "contract": "contracts/eth/EthBridge.sol:EthBridge",
        "label": "tokenAddresses",
        "offset": 0,
        "slot": "204",
        "type": "t_mapping(t_address,t_address)"
      },
      {
        "astId": 6269,
        "contract": "contracts/eth/EthBridge.sol:EthBridge",
        "label": "wrapperAddress",
        "offset": 0,
        "slot": "205",
        "type": "t_address"
      },
      {
        "astId": 6271,
        "contract": "contracts/eth/EthBridge.sol:EthBridge",
        "label": "fee",
        "offset": 0,
        "slot": "206",
        "type": "t_uint256"
      },
      {
        "astId": 6273,
        "contract": "contracts/eth/EthBridge.sol:EthBridge",
        "label": "feeRecipient",
        "offset": 0,
        "slot": "207",
        "type": "t_address_payable"
      },
      {
        "astId": 6275,
        "contract": "contracts/eth/EthBridge.sol:EthBridge",
        "label": "sideBridgeAddress",
        "offset": 0,
        "slot": "208",
        "type": "t_address"
      },
      {
        "astId": 6277,
        "contract": "contracts/eth/EthBridge.sol:EthBridge",
        "label": "minSafetyBlocks",
        "offset": 0,
        "slot": "209",
        "type": "t_uint256"
      },
      {
        "astId": 6279,
        "contract": "contracts/eth/EthBridge.sol:EthBridge",
        "label": "timeframeSeconds",
        "offset": 0,
        "slot": "210",
        "type": "t_uint256"
      },
      {
        "astId": 6281,
        "contract": "contracts/eth/EthBridge.sol:EthBridge",
        "label": "lockTime",
        "offset": 0,
        "slot": "211",
        "type": "t_uint256"
      },
      {
        "astId": 6283,
        "contract": "contracts/eth/EthBridge.sol:EthBridge",
        "label": "inputEventId",
        "offset": 0,
        "slot": "212",
        "type": "t_uint256"
      },
      {
        "astId": 6285,
        "contract": "contracts/eth/EthBridge.sol:EthBridge",
        "label": "outputEventId",
        "offset": 0,
        "slot": "213",
        "type": "t_uint256"
      },
      {
        "astId": 6287,
        "contract": "contracts/eth/EthBridge.sol:EthBridge",
        "label": "lastTimeframe",
        "offset": 0,
        "slot": "214",
        "type": "t_uint256"
      },
      {
        "astId": 2181,
        "contract": "contracts/eth/EthBridge.sol:EthBridge",
        "label": "validatorSet",
        "offset": 0,
        "slot": "215",
        "type": "t_array(t_address)dyn_storage"
      },
      {
        "astId": 2183,
        "contract": "contracts/eth/EthBridge.sol:EthBridge",
        "label": "validatorSetAddress",
        "offset": 0,
        "slot": "216",
        "type": "t_address"
      }
    ],
    "types": {
      "t_address": {
        "encoding": "inplace",
        "label": "address",
        "numberOfBytes": "20"
      },
      "t_address_payable": {
        "encoding": "inplace",
        "label": "address payable",
        "numberOfBytes": "20"
      },
      "t_array(t_address)dyn_storage": {
        "base": "t_address",
        "encoding": "dynamic_array",
        "label": "address[]",
        "numberOfBytes": "32"
      },
      "t_array(t_struct(Transfer)7132_storage)dyn_storage": {
        "base": "t_struct(Transfer)7132_storage",
        "encoding": "dynamic_array",
        "label": "struct CommonStructs.Transfer[]",
        "numberOfBytes": "32"
      },
      "t_array(t_uint256)49_storage": {
        "base": "t_uint256",
        "encoding": "inplace",
        "label": "uint256[49]",
        "numberOfBytes": "1568"
      },
      "t_array(t_uint256)50_storage": {
        "base": "t_uint256",
        "encoding": "inplace",
        "label": "uint256[50]",
        "numberOfBytes": "1600"
      },
      "t_bool": {
        "encoding": "inplace",
        "label": "bool",
        "numberOfBytes": "1"
      },
      "t_bytes32": {
        "encoding": "inplace",
        "label": "bytes32",
        "numberOfBytes": "32"
      },
      "t_mapping(t_address,t_address)": {
        "encoding": "mapping",
        "key": "t_address",
        "label": "mapping(address => address)",
        "numberOfBytes": "32",
        "value": "t_address"
      },
      "t_mapping(t_address,t_bool)": {
        "encoding": "mapping",
        "key": "t_address",
        "label": "mapping(address => bool)",
        "numberOfBytes": "32",
        "value": "t_bool"
      },
      "t_mapping(t_bytes32,t_struct(RoleData)43_storage)": {
        "encoding": "mapping",
        "key": "t_bytes32",
        "label": "mapping(bytes32 => struct AccessControlUpgradeable.RoleData)",
        "numberOfBytes": "32",
        "value": "t_struct(RoleData)43_storage"
      },
      "t_mapping(t_uint256,t_struct(LockedTransfers)7149_storage)": {
        "encoding": "mapping",
        "key": "t_uint256",
        "label": "mapping(uint256 => struct CommonStructs.LockedTransfers)",
        "numberOfBytes": "32",
        "value": "t_struct(LockedTransfers)7149_storage"
      },
      "t_struct(LockedTransfers)7149_storage": {
        "encoding": "inplace",
        "label": "struct CommonStructs.LockedTransfers",
        "members": [
          {
            "astId": 7146,
            "contract": "contracts/eth/EthBridge.sol:EthBridge",
            "label": "transfers",
            "offset": 0,
            "slot": "0",
            "type": "t_array(t_struct(Transfer)7132_storage)dyn_storage"
          },
          {
            "astId": 7148,
            "contract": "contracts/eth/EthBridge.sol:EthBridge",
            "label": "endTimestamp",
            "offset": 0,
            "slot": "1",
            "type": "t_uint256"
          }
        ],
        "numberOfBytes": "64"
      },
      "t_struct(RoleData)43_storage": {
        "encoding": "inplace",
        "label": "struct AccessControlUpgradeable.RoleData",
        "members": [
          {
            "astId": 40,
            "contract": "contracts/eth/EthBridge.sol:EthBridge",
            "label": "members",
            "offset": 0,
            "slot": "0",
            "type": "t_mapping(t_address,t_bool)"
          },
          {
            "astId": 42,
            "contract": "contracts/eth/EthBridge.sol:EthBridge",
            "label": "adminRole",
            "offset": 0,
            "slot": "1",
            "type": "t_bytes32"
          }
        ],
        "numberOfBytes": "64"
      },
      "t_struct(Transfer)7132_storage": {
        "encoding": "inplace",
        "label": "struct CommonStructs.Transfer",
        "members": [
          {
            "astId": 7127,
            "contract": "contracts/eth/EthBridge.sol:EthBridge",
            "label": "tokenAddress",
            "offset": 0,
            "slot": "0",
            "type": "t_address"
          },
          {
            "astId": 7129,
            "contract": "contracts/eth/EthBridge.sol:EthBridge",
            "label": "toAddress",
            "offset": 0,
            "slot": "1",
            "type": "t_address"
          },
          {
            "astId": 7131,
            "contract": "contracts/eth/EthBridge.sol:EthBridge",
            "label": "amount",
            "offset": 0,
            "slot": "2",
            "type": "t_uint256"
          }
        ],
        "numberOfBytes": "96"
      },
      "t_uint256": {
        "encoding": "inplace",
        "label": "uint256",
        "numberOfBytes": "32"
      }
    }
  }
}