{
  "address": "0x3A3a3BFbD50A2A82e8F425d938168De029aCb694",
  "abi": [
    {
      "inputs": [
        {
          "internalType": "string",
          "name": "name_",
          "type": "string"
        },
        {
          "internalType": "string",
          "name": "symbol_",
          "type": "string"
        },
        {
          "internalType": "uint8",
          "name": "decimals_",
          "type": "uint8"
        },
        {
          "internalType": "address[]",
          "name": "bridgeAddresses",
          "type": "address[]"
        }
      ],
      "stateMutability": "nonpayable",
      "type": "constructor"
    },
    {
      "anonymous": false,
      "inputs": [
        {
          "indexed": true,
          "internalType": "address",
          "name": "owner",
          "type": "address"
        },
        {
          "indexed": true,
          "internalType": "address",
          "name": "spender",
          "type": "address"
        },
        {
          "indexed": false,
          "internalType": "uint256",
          "name": "value",
          "type": "uint256"
        }
      ],
      "name": "Approval",
      "type": "event"
    },
    {
      "anonymous": false,
      "inputs": [
        {
          "indexed": true,
          "internalType": "bytes32",
          "name": "role",
          "type": "bytes32"
        },
        {
          "indexed": true,
          "internalType": "bytes32",
          "name": "previousAdminRole",
          "type": "bytes32"
        },
        {
          "indexed": true,
          "internalType": "bytes32",
          "name": "newAdminRole",
          "type": "bytes32"
        }
      ],
      "name": "RoleAdminChanged",
      "type": "event"
    },
    {
      "anonymous": false,
      "inputs": [
        {
          "indexed": true,
          "internalType": "bytes32",
          "name": "role",
          "type": "bytes32"
        },
        {
          "indexed": true,
          "internalType": "address",
          "name": "account",
          "type": "address"
        },
        {
          "indexed": true,
          "internalType": "address",
          "name": "sender",
          "type": "address"
        }
      ],
      "name": "RoleGranted",
      "type": "event"
    },
    {
      "anonymous": false,
      "inputs": [
        {
          "indexed": true,
          "internalType": "bytes32",
          "name": "role",
          "type": "bytes32"
        },
        {
          "indexed": true,
          "internalType": "address",
          "name": "account",
          "type": "address"
        },
        {
          "indexed": true,
          "internalType": "address",
          "name": "sender",
          "type": "address"
        }
      ],
      "name": "RoleRevoked",
      "type": "event"
    },
    {
      "anonymous": false,
      "inputs": [
        {
          "indexed": true,
          "internalType": "address",
          "name": "from",
          "type": "address"
        },
        {
          "indexed": true,
          "internalType": "address",
          "name": "to",
          "type": "address"
        },
        {
          "indexed": false,
          "internalType": "uint256",
          "name": "value",
          "type": "uint256"
        }
      ],
      "name": "Transfer",
      "type": "event"
    },
    {
      "inputs": [],
      "name": "BRIDGE_ROLE",
      "outputs": [
        {
          "internalType": "bytes32",
          "name": "",
          "type": "bytes32"
        }
      ],
      "stateMutability": "view",
      "type": "function"
    },
    {
      "inputs": [],
      "name": "DEFAULT_ADMIN_ROLE",
      "outputs": [
        {
          "internalType": "bytes32",
          "name": "",
          "type": "bytes32"
        }
      ],
      "stateMutability": "view",
      "type": "function"
    },
    {
      "inputs": [
        {
          "internalType": "address",
          "name": "owner",
          "type": "address"
        },
        {
          "internalType": "address",
          "name": "spender",
          "type": "address"
        }
      ],
      "name": "allowance",
      "outputs": [
        {
          "internalType": "uint256",
          "name": "",
          "type": "uint256"
        }
      ],
      "stateMutability": "view",
      "type": "function"
    },
    {
      "inputs": [
        {
          "internalType": "address",
          "name": "spender",
          "type": "address"
        },
        {
          "internalType": "uint256",
          "name": "amount",
          "type": "uint256"
        }
      ],
      "name": "approve",
      "outputs": [
        {
          "internalType": "bool",
          "name": "",
          "type": "bool"
        }
      ],
      "stateMutability": "nonpayable",
      "type": "function"
    },
    {
      "inputs": [
        {
          "internalType": "address",
          "name": "account",
          "type": "address"
        }
      ],
      "name": "balanceOf",
      "outputs": [
        {
          "internalType": "uint256",
          "name": "",
          "type": "uint256"
        }
      ],
      "stateMutability": "view",
      "type": "function"
    },
    {
      "inputs": [
        {
          "internalType": "address",
          "name": "",
          "type": "address"
        }
      ],
      "name": "bridgeBalances",
      "outputs": [
        {
          "internalType": "uint256",
          "name": "",
          "type": "uint256"
        }
      ],
      "stateMutability": "view",
      "type": "function"
    },
    {
      "inputs": [],
      "name": "decimals",
      "outputs": [
        {
          "internalType": "uint8",
          "name": "",
          "type": "uint8"
        }
      ],
      "stateMutability": "view",
      "type": "function"
    },
    {
      "inputs": [
        {
          "internalType": "address",
          "name": "spender",
          "type": "address"
        },
        {
          "internalType": "uint256",
          "name": "subtractedValue",
          "type": "uint256"
        }
      ],
      "name": "decreaseAllowance",
      "outputs": [
        {
          "internalType": "bool",
          "name": "",
          "type": "bool"
        }
      ],
      "stateMutability": "nonpayable",
      "type": "function"
    },
    {
      "inputs": [
        {
          "internalType": "bytes32",
          "name": "role",
          "type": "bytes32"
        }
      ],
      "name": "getRoleAdmin",
      "outputs": [
        {
          "internalType": "bytes32",
          "name": "",
          "type": "bytes32"
        }
      ],
      "stateMutability": "view",
      "type": "function"
    },
    {
      "inputs": [
        {
          "internalType": "bytes32",
          "name": "role",
          "type": "bytes32"
        },
        {
          "internalType": "address",
          "name": "account",
          "type": "address"
        }
      ],
      "name": "grantRole",
      "outputs": [],
      "stateMutability": "nonpayable",
      "type": "function"
    },
    {
      "inputs": [
        {
          "internalType": "bytes32",
          "name": "role",
          "type": "bytes32"
        },
        {
          "internalType": "address",
          "name": "account",
          "type": "address"
        }
      ],
      "name": "hasRole",
      "outputs": [
        {
          "internalType": "bool",
          "name": "",
          "type": "bool"
        }
      ],
      "stateMutability": "view",
      "type": "function"
    },
    {
      "inputs": [
        {
          "internalType": "address",
          "name": "spender",
          "type": "address"
        },
        {
          "internalType": "uint256",
          "name": "addedValue",
          "type": "uint256"
        }
      ],
      "name": "increaseAllowance",
      "outputs": [
        {
          "internalType": "bool",
          "name": "",
          "type": "bool"
        }
      ],
      "stateMutability": "nonpayable",
      "type": "function"
    },
    {
      "inputs": [],
      "name": "name",
      "outputs": [
        {
          "internalType": "string",
          "name": "",
          "type": "string"
        }
      ],
      "stateMutability": "view",
      "type": "function"
    },
    {
      "inputs": [
        {
          "internalType": "bytes32",
          "name": "role",
          "type": "bytes32"
        },
        {
          "internalType": "address",
          "name": "account",
          "type": "address"
        }
      ],
      "name": "renounceRole",
      "outputs": [],
      "stateMutability": "nonpayable",
      "type": "function"
    },
    {
      "inputs": [
        {
          "internalType": "bytes32",
          "name": "role",
          "type": "bytes32"
        },
        {
          "internalType": "address",
          "name": "account",
          "type": "address"
        }
      ],
      "name": "revokeRole",
      "outputs": [],
      "stateMutability": "nonpayable",
      "type": "function"
    },
    {
      "inputs": [
        {
          "internalType": "address[]",
          "name": "bridgeAddresses",
          "type": "address[]"
        }
      ],
      "name": "setBridgeAddressesRole",
      "outputs": [],
      "stateMutability": "nonpayable",
      "type": "function"
    },
    {
      "inputs": [
        {
          "internalType": "bytes4",
          "name": "interfaceId",
          "type": "bytes4"
        }
      ],
      "name": "supportsInterface",
      "outputs": [
        {
          "internalType": "bool",
          "name": "",
          "type": "bool"
        }
      ],
      "stateMutability": "view",
      "type": "function"
    },
    {
      "inputs": [],
      "name": "symbol",
      "outputs": [
        {
          "internalType": "string",
          "name": "",
          "type": "string"
        }
      ],
      "stateMutability": "view",
      "type": "function"
    },
    {
      "inputs": [],
      "name": "totalSupply",
      "outputs": [
        {
          "internalType": "uint256",
          "name": "",
          "type": "uint256"
        }
      ],
      "stateMutability": "view",
      "type": "function"
    },
    {
      "inputs": [
        {
          "internalType": "address",
          "name": "recipient",
          "type": "address"
        },
        {
          "internalType": "uint256",
          "name": "amount",
          "type": "uint256"
        }
      ],
      "name": "transfer",
      "outputs": [
        {
          "internalType": "bool",
          "name": "",
          "type": "bool"
        }
      ],
      "stateMutability": "nonpayable",
      "type": "function"
    },
    {
      "inputs": [
        {
          "internalType": "address",
          "name": "sender",
          "type": "address"
        },
        {
          "internalType": "address",
          "name": "recipient",
          "type": "address"
        },
        {
          "internalType": "uint256",
          "name": "amount",
          "type": "uint256"
        }
      ],
      "name": "transferFrom",
      "outputs": [
        {
          "internalType": "bool",
          "name": "",
          "type": "bool"
        }
      ],
      "stateMutability": "nonpayable",
      "type": "function"
    }
  ],
  "transactionHash": "0x812851617575ab57c0985f5286ca4b6eade2f3bf124b46563b097882427fe654",
  "args": [
    "Synthetic Amber",
    "SAMB",
    18,
    []
  ],
  "numDeployments": 1,
  "solcInputHash": "4df80b06b348baf5114a59fbfe4a331e",
  "bytecode": "0x60806040523480156200001157600080fd5b5060405162001a5b38038062001a5b8339810160408190526200003491620002fd565b8351849084906200004d906003906020850190620001c2565b50805162000063906004906020840190620001c2565b5062000075915060009050336200009e565b6200008081620000ae565b506007805460ff191660ff9290921691909117905550620004f89050565b620000aa82826200011e565b5050565b60005b8151811015620000aa57620001097f52ba824bfabc2bcfcdf7f0edbb486ebb05e1836c90e78047efeb949990f72e5f838381518110620000f557620000f5620004cc565b60200260200101516200009e60201b60201c565b806200011581620004a2565b915050620000b1565b60008281526005602090815260408083206001600160a01b038516845290915290205460ff16620000aa5760008281526005602090815260408083206001600160a01b03851684529091529020805460ff191660011790556200017e3390565b6001600160a01b0316816001600160a01b0316837f2f8788117e7eff1d82e926ec794901d17c78024a50270940304540a733656f0d60405160405180910390a45050565b828054620001d09062000465565b90600052602060002090601f016020900481019282620001f457600085556200023f565b82601f106200020f57805160ff19168380011785556200023f565b828001600101855582156200023f579182015b828111156200023f57825182559160200191906001019062000222565b506200024d92915062000251565b5090565b5b808211156200024d576000815560010162000252565b600082601f8301126200027a57600080fd5b81516001600160401b03811115620002965762000296620004e2565b6020620002ac601f8301601f1916820162000432565b8281528582848701011115620002c157600080fd5b60005b83811015620002e1578581018301518282018401528201620002c4565b83811115620002f35760008385840101525b5095945050505050565b600080600080608085870312156200031457600080fd5b84516001600160401b03808211156200032c57600080fd5b6200033a8883890162000268565b95506020915081870151818111156200035257600080fd5b6200036089828a0162000268565b955050604087015160ff811681146200037857600080fd5b6060880151909450818111156200038e57600080fd5b8701601f81018913620003a057600080fd5b805182811115620003b557620003b5620004e2565b8060051b9250620003c884840162000432565b8181528481019083860185850187018d1015620003e457600080fd5b600095508594505b83851015620004215780516001600160a01b03811681146200040c578687fd5b835260019490940193918601918601620003ec565b50989b979a50959850505050505050565b604051601f8201601f191681016001600160401b03811182821017156200045d576200045d620004e2565b604052919050565b600181811c908216806200047a57607f821691505b602082108114156200049c57634e487b7160e01b600052602260045260246000fd5b50919050565b6000600019821415620004c557634e487b7160e01b600052601160045260246000fd5b5060010190565b634e487b7160e01b600052603260045260246000fd5b634e487b7160e01b600052604160045260246000fd5b61155380620005086000396000f3fe608060405234801561001057600080fd5b50600436106101475760003560e01c806370a08231116100c8578063a9059cbb1161008c578063d547741f11610066578063d547741f14610306578063dc1ab98a14610319578063dd62ed3e1461033957600080fd5b8063a9059cbb146102b9578063b0ee95f6146102cc578063b5bfddea146102df57600080fd5b806370a082311461023457806391d148541461025d57806395d89b4114610296578063a217fddf1461029e578063a457c2d7146102a657600080fd5b8063248a9ca31161010f578063248a9ca3146101c15780632f2ff15d146101e4578063313ce567146101f957806336568abe1461020e578063395093511461022157600080fd5b806301ffc9a71461014c57806306fdde0314610174578063095ea7b31461018957806318160ddd1461019c57806323b872dd146101ae575b600080fd5b61015f61015a366004611316565b610372565b60405190151581526020015b60405180910390f35b61017c6103a9565b60405161016b91906113c1565b61015f6101973660046111e4565b61043b565b6002545b60405190815260200161016b565b61015f6101bc3660046111a8565b610451565b6101a06101cf3660046112da565b60009081526005602052604090206001015490565b6101f76101f23660046112f3565b610500565b005b60075460405160ff909116815260200161016b565b6101f761021c3660046112f3565b61052b565b61015f61022f3660046111e4565b6105b7565b6101a061024236600461115a565b6001600160a01b031660009081526020819052604090205490565b61015f61026b3660046112f3565b60009182526005602090815260408084206001600160a01b0393909316845291905290205460ff1690565b61017c6105f3565b6101a0600081565b61015f6102b43660046111e4565b610602565b61015f6102c73660046111e4565b61069b565b6101f76102da36600461120e565b6106a8565b6101a07f52ba824bfabc2bcfcdf7f0edbb486ebb05e1836c90e78047efeb949990f72e5f81565b6101f76103143660046112f3565b6106bd565b6101a061032736600461115a565b60066020526000908152604090205481565b6101a0610347366004611175565b6001600160a01b03918216600090815260016020908152604080832093909416825291909152205490565b60006001600160e01b03198216637965db0b60e01b14806103a357506301ffc9a760e01b6001600160e01b03198316145b92915050565b6060600380546103b890611485565b80601f01602080910402602001604051908101604052809291908181526020018280546103e490611485565b80156104315780601f1061040657610100808354040283529160200191610431565b820191906000526020600020905b81548152906001019060200180831161041457829003601f168201915b5050505050905090565b60006104483384846106e3565b50600192915050565b600061045e848484610807565b6001600160a01b0384166000908152600160209081526040808320338452909152902054828110156104e85760405162461bcd60e51b815260206004820152602860248201527f45524332303a207472616e7366657220616d6f756e74206578636565647320616044820152676c6c6f77616e636560c01b60648201526084015b60405180910390fd5b6104f585338584036106e3565b506001949350505050565b60008281526005602052604090206001015461051c81336108a6565b6105268383610926565b505050565b6001600160a01b03811633146105a95760405162461bcd60e51b815260206004820152602f60248201527f416363657373436f6e74726f6c3a2063616e206f6e6c792072656e6f756e636560448201527f20726f6c657320666f722073656c66000000000000000000000000000000000060648201526084016104df565b6105b382826109c8565b5050565b3360008181526001602090815260408083206001600160a01b038716845290915281205490916104489185906105ee9086906113f4565b6106e3565b6060600480546103b890611485565b3360009081526001602090815260408083206001600160a01b0386168452909152812054828110156106845760405162461bcd60e51b815260206004820152602560248201527f45524332303a2064656372656173656420616c6c6f77616e63652062656c6f77604482015264207a65726f60d81b60648201526084016104df565b61069133858584036106e3565b5060019392505050565b6000610448338484610807565b60006106b481336108a6565b6105b382610a4b565b6000828152600560205260409020600101546106d981336108a6565b61052683836109c8565b6001600160a01b0383166107455760405162461bcd60e51b8152602060048201526024808201527f45524332303a20617070726f76652066726f6d20746865207a65726f206164646044820152637265737360e01b60648201526084016104df565b6001600160a01b0382166107a65760405162461bcd60e51b815260206004820152602260248201527f45524332303a20617070726f766520746f20746865207a65726f206164647265604482015261737360f01b60648201526084016104df565b6001600160a01b0383811660008181526001602090815260408083209487168084529482529182902085905590518481527f8c5be1e5ebec7d5bd14f71427d1e84f3dd0314c0f7b2291e5b200ac8c7c3b925910160405180910390a3505050565b6001600160a01b03831660009081527f988aeb3f2a802de2ecc83b89d9bb5001cae38c2cd77d61f12e069385e0b07e35602052604090205460ff1615610851576105268282610aac565b6001600160a01b03821660009081527f988aeb3f2a802de2ecc83b89d9bb5001cae38c2cd77d61f12e069385e0b07e35602052604090205460ff161561089b576105268382610ae7565b610526838383610b87565b60008281526005602090815260408083206001600160a01b038516845290915290205460ff166105b3576108e4816001600160a01b03166014610d57565b6108ef836020610d57565b604051602001610900929190611340565b60408051601f198184030181529082905262461bcd60e51b82526104df916004016113c1565b60008281526005602090815260408083206001600160a01b038516845290915290205460ff166105b35760008281526005602090815260408083206001600160a01b03851684529091529020805460ff191660011790556109843390565b6001600160a01b0316816001600160a01b0316837f2f8788117e7eff1d82e926ec794901d17c78024a50270940304540a733656f0d60405160405180910390a45050565b60008281526005602090815260408083206001600160a01b038516845290915290205460ff16156105b35760008281526005602090815260408083206001600160a01b0385168085529252808320805460ff1916905551339285917ff6391f5c32d9c69d2a47ea670b442974b53935d1edc7fd64eb21e047a839171b9190a45050565b60005b81518110156105b357610a9a7f52ba824bfabc2bcfcdf7f0edbb486ebb05e1836c90e78047efeb949990f72e5f838381518110610a8d57610a8d6114f1565b6020026020010151610f07565b80610aa4816114c0565b915050610a4e565b610ab68282610f11565b6001600160a01b03821660009081526006602052604081208054839290610ade9084906113f4565b90915550505050565b6001600160a01b038216600090815260066020526040902054811115610b4f5760405162461bcd60e51b815260206004820152601d60248201527f616d6f756e7420697320626967676572207468616e2062616c616e636500000060448201526064016104df565b6001600160a01b03821660009081526006602052604081208054839290610b7790849061142b565b909155506105b390508282610ff0565b6001600160a01b038316610beb5760405162461bcd60e51b815260206004820152602560248201527f45524332303a207472616e736665722066726f6d20746865207a65726f206164604482015264647265737360d81b60648201526084016104df565b6001600160a01b038216610c4d5760405162461bcd60e51b815260206004820152602360248201527f45524332303a207472616e7366657220746f20746865207a65726f206164647260448201526265737360e81b60648201526084016104df565b6001600160a01b03831660009081526020819052604090205481811015610cc55760405162461bcd60e51b815260206004820152602660248201527f45524332303a207472616e7366657220616d6f756e7420657863656564732062604482015265616c616e636560d01b60648201526084016104df565b6001600160a01b03808516600090815260208190526040808220858503905591851681529081208054849290610cfc9084906113f4565b92505081905550826001600160a01b0316846001600160a01b03167fddf252ad1be2c89b69c2b068fc378daa952ba7f163c4a11628f55a4df523b3ef84604051610d4891815260200190565b60405180910390a35b50505050565b60606000610d6683600261140c565b610d719060026113f4565b67ffffffffffffffff811115610d8957610d89611507565b6040519080825280601f01601f191660200182016040528015610db3576020820181803683370190505b509050600360fc1b81600081518110610dce57610dce6114f1565b60200101906001600160f81b031916908160001a905350600f60fb1b81600181518110610dfd57610dfd6114f1565b60200101906001600160f81b031916908160001a9053506000610e2184600261140c565b610e2c9060016113f4565b90505b6001811115610eb1577f303132333435363738396162636465660000000000000000000000000000000085600f1660108110610e6d57610e6d6114f1565b1a60f81b828281518110610e8357610e836114f1565b60200101906001600160f81b031916908160001a90535060049490941c93610eaa8161146e565b9050610e2f565b508315610f005760405162461bcd60e51b815260206004820181905260248201527f537472696e67733a20686578206c656e67746820696e73756666696369656e7460448201526064016104df565b9392505050565b6105b38282610926565b6001600160a01b038216610f675760405162461bcd60e51b815260206004820152601f60248201527f45524332303a206d696e7420746f20746865207a65726f20616464726573730060448201526064016104df565b8060026000828254610f7991906113f4565b90915550506001600160a01b03821660009081526020819052604081208054839290610fa69084906113f4565b90915550506040518181526001600160a01b038316906000907fddf252ad1be2c89b69c2b068fc378daa952ba7f163c4a11628f55a4df523b3ef9060200160405180910390a35050565b6001600160a01b0382166110505760405162461bcd60e51b815260206004820152602160248201527f45524332303a206275726e2066726f6d20746865207a65726f206164647265736044820152607360f81b60648201526084016104df565b6001600160a01b038216600090815260208190526040902054818110156110c45760405162461bcd60e51b815260206004820152602260248201527f45524332303a206275726e20616d6f756e7420657863656564732062616c616e604482015261636560f01b60648201526084016104df565b6001600160a01b03831660009081526020819052604081208383039055600280548492906110f390849061142b565b90915550506040518281526000906001600160a01b038516907fddf252ad1be2c89b69c2b068fc378daa952ba7f163c4a11628f55a4df523b3ef9060200160405180910390a3505050565b80356001600160a01b038116811461115557600080fd5b919050565b60006020828403121561116c57600080fd5b610f008261113e565b6000806040838503121561118857600080fd5b6111918361113e565b915061119f6020840161113e565b90509250929050565b6000806000606084860312156111bd57600080fd5b6111c68461113e565b92506111d46020850161113e565b9150604084013590509250925092565b600080604083850312156111f757600080fd5b6112008361113e565b946020939093013593505050565b6000602080838503121561122157600080fd5b823567ffffffffffffffff8082111561123957600080fd5b818501915085601f83011261124d57600080fd5b81358181111561125f5761125f611507565b8060051b604051601f19603f8301168101818110858211171561128457611284611507565b604052828152858101935084860182860187018a10156112a357600080fd5b600095505b838610156112cd576112b98161113e565b8552600195909501949386019386016112a8565b5098975050505050505050565b6000602082840312156112ec57600080fd5b5035919050565b6000806040838503121561130657600080fd5b8235915061119f6020840161113e565b60006020828403121561132857600080fd5b81356001600160e01b031981168114610f0057600080fd5b7f416363657373436f6e74726f6c3a206163636f756e7420000000000000000000815260008351611378816017850160208801611442565b7f206973206d697373696e6720726f6c652000000000000000000000000000000060179184019182015283516113b5816028840160208801611442565b01602801949350505050565b60208152600082518060208401526113e0816040850160208701611442565b601f01601f19169190910160400192915050565b60008219821115611407576114076114db565b500190565b6000816000190483118215151615611426576114266114db565b500290565b60008282101561143d5761143d6114db565b500390565b60005b8381101561145d578181015183820152602001611445565b83811115610d515750506000910152565b60008161147d5761147d6114db565b506000190190565b600181811c9082168061149957607f821691505b602082108114156114ba57634e487b7160e01b600052602260045260246000fd5b50919050565b60006000198214156114d4576114d46114db565b5060010190565b634e487b7160e01b600052601160045260246000fd5b634e487b7160e01b600052603260045260246000fd5b634e487b7160e01b600052604160045260246000fdfea26469706673582212207b81855d0e3e99552d724c7b9f2dfc9ca6c734a4a3f0577744dd23d871785abe64736f6c63430008060033",
  "devdoc": {
    "kind": "dev",
    "methods": {
      "allowance(address,address)": {
        "details": "See {IERC20-allowance}."
      },
      "approve(address,uint256)": {
        "details": "See {IERC20-approve}. Requirements: - `spender` cannot be the zero address."
      },
      "balanceOf(address)": {
        "details": "See {IERC20-balanceOf}."
      },
      "decimals()": {
        "details": "Returns the number of decimals used to get its user representation. For example, if `decimals` equals `2`, a balance of `505` tokens should be displayed to a user as `5.05` (`505 / 10 ** 2`). Tokens usually opt for a value of 18, imitating the relationship between Ether and Wei. This is the value {ERC20} uses, unless this function is overridden; NOTE: This information is only used for _display_ purposes: it in no way affects any of the arithmetic of the contract, including {IERC20-balanceOf} and {IERC20-transfer}."
      },
      "decreaseAllowance(address,uint256)": {
        "details": "Atomically decreases the allowance granted to `spender` by the caller. This is an alternative to {approve} that can be used as a mitigation for problems described in {IERC20-approve}. Emits an {Approval} event indicating the updated allowance. Requirements: - `spender` cannot be the zero address. - `spender` must have allowance for the caller of at least `subtractedValue`."
      },
      "getRoleAdmin(bytes32)": {
        "details": "Returns the admin role that controls `role`. See {grantRole} and {revokeRole}. To change a role's admin, use {_setRoleAdmin}."
      },
      "grantRole(bytes32,address)": {
        "details": "Grants `role` to `account`. If `account` had not been already granted `role`, emits a {RoleGranted} event. Requirements: - the caller must have ``role``'s admin role."
      },
      "hasRole(bytes32,address)": {
        "details": "Returns `true` if `account` has been granted `role`."
      },
      "increaseAllowance(address,uint256)": {
        "details": "Atomically increases the allowance granted to `spender` by the caller. This is an alternative to {approve} that can be used as a mitigation for problems described in {IERC20-approve}. Emits an {Approval} event indicating the updated allowance. Requirements: - `spender` cannot be the zero address."
      },
      "name()": {
        "details": "Returns the name of the token."
      },
      "renounceRole(bytes32,address)": {
        "details": "Revokes `role` from the calling account. Roles are often managed via {grantRole} and {revokeRole}: this function's purpose is to provide a mechanism for accounts to lose their privileges if they are compromised (such as when a trusted device is misplaced). If the calling account had been granted `role`, emits a {RoleRevoked} event. Requirements: - the caller must be `account`."
      },
      "revokeRole(bytes32,address)": {
        "details": "Revokes `role` from `account`. If `account` had been granted `role`, emits a {RoleRevoked} event. Requirements: - the caller must have ``role``'s admin role."
      },
      "supportsInterface(bytes4)": {
        "details": "See {IERC165-supportsInterface}."
      },
      "symbol()": {
        "details": "Returns the symbol of the token, usually a shorter version of the name."
      },
      "totalSupply()": {
        "details": "See {IERC20-totalSupply}."
      },
      "transfer(address,uint256)": {
        "details": "See {IERC20-transfer}. Requirements: - `recipient` cannot be the zero address. - the caller must have a balance of at least `amount`."
      },
      "transferFrom(address,address,uint256)": {
        "details": "See {IERC20-transferFrom}. Emits an {Approval} event indicating the updated allowance. This is not required by the EIP. See the note at the beginning of {ERC20}. Requirements: - `sender` and `recipient` cannot be the zero address. - `sender` must have a balance of at least `amount`. - the caller must have allowance for ``sender``'s tokens of at least `amount`."
      }
    },
    "version": 1
  },
  "userdoc": {
    "kind": "user",
    "methods": {},
    "version": 1
  },
  "storageLayout": {
    "storage": [
      {
        "astId": 1267,
        "contract": "contracts/tokens/BridgeERC20.sol:BridgeERC20",
        "label": "_balances",
        "offset": 0,
        "slot": "0",
        "type": "t_mapping(t_address,t_uint256)"
      },
      {
        "astId": 1273,
        "contract": "contracts/tokens/BridgeERC20.sol:BridgeERC20",
        "label": "_allowances",
        "offset": 0,
        "slot": "1",
        "type": "t_mapping(t_address,t_mapping(t_address,t_uint256))"
      },
      {
        "astId": 1275,
        "contract": "contracts/tokens/BridgeERC20.sol:BridgeERC20",
        "label": "_totalSupply",
        "offset": 0,
        "slot": "2",
        "type": "t_uint256"
      },
      {
        "astId": 1277,
        "contract": "contracts/tokens/BridgeERC20.sol:BridgeERC20",
        "label": "_name",
        "offset": 0,
        "slot": "3",
        "type": "t_string_storage"
      },
      {
        "astId": 1279,
        "contract": "contracts/tokens/BridgeERC20.sol:BridgeERC20",
        "label": "_symbol",
        "offset": 0,
        "slot": "4",
        "type": "t_string_storage"
      },
      {
        "astId": 896,
        "contract": "contracts/tokens/BridgeERC20.sol:BridgeERC20",
        "label": "_roles",
        "offset": 0,
        "slot": "5",
        "type": "t_mapping(t_bytes32,t_struct(RoleData)891_storage)"
      },
      {
        "astId": 8801,
        "contract": "contracts/tokens/BridgeERC20.sol:BridgeERC20",
        "label": "bridgeBalances",
        "offset": 0,
        "slot": "6",
        "type": "t_mapping(t_address,t_uint256)"
      },
      {
        "astId": 8808,
        "contract": "contracts/tokens/BridgeERC20.sol:BridgeERC20",
        "label": "_decimals",
        "offset": 0,
        "slot": "7",
        "type": "t_uint8"
      }
    ],
    "types": {
      "t_address": {
        "encoding": "inplace",
        "label": "address",
        "numberOfBytes": "20"
      },
      "t_bool": {
        "encoding": "inplace",
        "label": "bool",
        "numberOfBytes": "1"
      },
      "t_bytes32": {
        "encoding": "inplace",
        "label": "bytes32",
        "numberOfBytes": "32"
      },
      "t_mapping(t_address,t_bool)": {
        "encoding": "mapping",
        "key": "t_address",
        "label": "mapping(address => bool)",
        "numberOfBytes": "32",
        "value": "t_bool"
      },
      "t_mapping(t_address,t_mapping(t_address,t_uint256))": {
        "encoding": "mapping",
        "key": "t_address",
        "label": "mapping(address => mapping(address => uint256))",
        "numberOfBytes": "32",
        "value": "t_mapping(t_address,t_uint256)"
      },
      "t_mapping(t_address,t_uint256)": {
        "encoding": "mapping",
        "key": "t_address",
        "label": "mapping(address => uint256)",
        "numberOfBytes": "32",
        "value": "t_uint256"
      },
      "t_mapping(t_bytes32,t_struct(RoleData)891_storage)": {
        "encoding": "mapping",
        "key": "t_bytes32",
        "label": "mapping(bytes32 => struct AccessControl.RoleData)",
        "numberOfBytes": "32",
        "value": "t_struct(RoleData)891_storage"
      },
      "t_string_storage": {
        "encoding": "bytes",
        "label": "string",
        "numberOfBytes": "32"
      },
      "t_struct(RoleData)891_storage": {
        "encoding": "inplace",
        "label": "struct AccessControl.RoleData",
        "members": [
          {
            "astId": 888,
            "contract": "contracts/tokens/BridgeERC20.sol:BridgeERC20",
            "label": "members",
            "offset": 0,
            "slot": "0",
            "type": "t_mapping(t_address,t_bool)"
          },
          {
            "astId": 890,
            "contract": "contracts/tokens/BridgeERC20.sol:BridgeERC20",
            "label": "adminRole",
            "offset": 0,
            "slot": "1",
            "type": "t_bytes32"
          }
        ],
        "numberOfBytes": "64"
      },
      "t_uint256": {
        "encoding": "inplace",
        "label": "uint256",
        "numberOfBytes": "32"
      },
      "t_uint8": {
        "encoding": "inplace",
        "label": "uint8",
        "numberOfBytes": "1"
      }
    }
  }
}